{
  "address": "0xa4aDecAbc32BAA7EB6d0A62b7EE35eAF890386C4",
  "abi": [
    {
      "anonymous": false,
      "inputs": [
        {
          "indexed": false,
          "internalType": "uint8",
          "name": "version",
          "type": "uint8"
        }
      ],
      "name": "Initialized",
      "type": "event"
    },
    {
      "anonymous": false,
      "inputs": [
        {
          "indexed": false,
          "internalType": "string",
          "name": "policyToken",
          "type": "string"
        },
        {
          "indexed": false,
          "internalType": "address",
          "name": "pair",
          "type": "address"
        },
        {
          "indexed": false,
          "internalType": "uint256",
          "name": "decimals",
          "type": "uint256"
        },
        {
          "indexed": false,
          "internalType": "uint256",
          "name": "sampleInterval",
          "type": "uint256"
        },
        {
          "indexed": false,
          "internalType": "uint256",
          "name": "isToken0",
          "type": "uint256"
        }
      ],
      "name": "NewIDOPair",
      "type": "event"
    },
    {
      "anonymous": false,
      "inputs": [
        {
          "indexed": true,
          "internalType": "address",
          "name": "previousOwner",
          "type": "address"
        },
        {
          "indexed": true,
          "internalType": "address",
          "name": "newOwner",
          "type": "address"
        }
      ],
      "name": "OwnershipTransferred",
      "type": "event"
    },
    {
      "anonymous": false,
      "inputs": [
        {
          "indexed": false,
          "internalType": "string",
          "name": "policyToken",
          "type": "string"
        },
        {
          "indexed": false,
          "internalType": "uint256",
          "name": "priceAverage",
          "type": "uint256"
        },
        {
          "indexed": false,
          "internalType": "uint256",
          "name": "timestamp",
          "type": "uint256"
        }
      ],
      "name": "SamplePrice",
      "type": "event"
    },
    {
      "inputs": [],
      "name": "USDC",
      "outputs": [
        {
          "internalType": "address",
          "name": "",
          "type": "address"
        }
      ],
      "stateMutability": "view",
      "type": "function"
    },
    {
      "inputs": [],
      "name": "USDT",
      "outputs": [
        {
          "internalType": "address",
          "name": "",
          "type": "address"
        }
      ],
      "stateMutability": "view",
      "type": "function"
    },
    {
      "inputs": [],
      "name": "WETH",
      "outputs": [
        {
          "internalType": "address",
          "name": "",
          "type": "address"
        }
      ],
      "stateMutability": "view",
      "type": "function"
    },
    {
      "inputs": [
        {
          "internalType": "string",
          "name": "_name",
          "type": "string"
        },
        {
          "internalType": "address",
          "name": "_pair",
          "type": "address"
        },
        {
          "internalType": "uint256",
          "name": "_decimals",
          "type": "uint256"
        },
        {
          "internalType": "uint256",
          "name": "_interval",
          "type": "uint256"
        }
      ],
      "name": "addIDOPair",
      "outputs": [],
      "stateMutability": "nonpayable",
      "type": "function"
    },
    {
      "inputs": [
        {
          "internalType": "string",
          "name": "_name",
          "type": "string"
        },
        {
          "internalType": "address",
          "name": "_pair",
          "type": "address"
        },
        {
          "internalType": "uint256",
          "name": "_decimals",
          "type": "uint256"
        },
        {
          "internalType": "uint256",
          "name": "_interval",
          "type": "uint256"
        }
      ],
      "name": "addUSDTPair",
      "outputs": [],
      "stateMutability": "nonpayable",
      "type": "function"
    },
    {
      "inputs": [
        {
          "internalType": "address",
          "name": "",
          "type": "address"
        }
      ],
      "name": "addressToName",
      "outputs": [
        {
          "internalType": "string",
          "name": "",
          "type": "string"
        }
      ],
      "stateMutability": "view",
      "type": "function"
    },
    {
      "inputs": [],
      "name": "basePriceGetter",
      "outputs": [
        {
          "internalType": "contract IPriceGetter",
          "name": "",
          "type": "address"
        }
      ],
      "stateMutability": "view",
      "type": "function"
    },
    {
      "inputs": [
        {
          "internalType": "address",
          "name": "_token",
          "type": "address"
        }
      ],
      "name": "getLatestPrice",
      "outputs": [
        {
          "internalType": "uint256",
          "name": "",
          "type": "uint256"
        }
      ],
      "stateMutability": "nonpayable",
      "type": "function"
    },
    {
      "inputs": [
        {
          "internalType": "string",
          "name": "_name",
          "type": "string"
        }
      ],
      "name": "getLatestPriceFromName",
      "outputs": [
        {
          "internalType": "uint256",
          "name": "price",
          "type": "uint256"
        }
      ],
      "stateMutability": "nonpayable",
      "type": "function"
    },
    {
      "inputs": [
        {
          "internalType": "address",
          "name": "_priceGetter",
          "type": "address"
        }
      ],
      "name": "initialize",
      "outputs": [],
      "stateMutability": "nonpayable",
      "type": "function"
    },
    {
      "inputs": [
        {
          "internalType": "string",
          "name": "",
          "type": "string"
        }
      ],
      "name": "isUSDTPair",
      "outputs": [
        {
          "internalType": "bool",
          "name": "",
          "type": "bool"
        }
      ],
      "stateMutability": "view",
      "type": "function"
    },
    {
      "inputs": [],
      "name": "owner",
      "outputs": [
        {
          "internalType": "address",
          "name": "",
          "type": "address"
        }
      ],
      "stateMutability": "view",
      "type": "function"
    },
    {
      "inputs": [
        {
          "internalType": "string",
          "name": "",
          "type": "string"
        }
      ],
      "name": "priceFeeds",
      "outputs": [
        {
          "internalType": "address",
          "name": "pair",
          "type": "address"
        },
        {
          "internalType": "uint256",
          "name": "decimals",
          "type": "uint256"
        },
        {
          "internalType": "uint256",
          "name": "sampleInterval",
          "type": "uint256"
        },
        {
          "internalType": "uint256",
          "name": "isToken0",
          "type": "uint256"
        },
        {
          "internalType": "uint256",
          "name": "priceAverage",
          "type": "uint256"
        },
        {
          "internalType": "uint256",
          "name": "priceCumulativeLast",
          "type": "uint256"
        },
        {
          "internalType": "uint256",
          "name": "lastTimestamp",
          "type": "uint256"
        }
      ],
      "stateMutability": "view",
      "type": "function"
    },
    {
      "inputs": [],
      "name": "renounceOwnership",
      "outputs": [],
      "stateMutability": "nonpayable",
      "type": "function"
    },
    {
      "inputs": [
        {
          "internalType": "string",
          "name": "_policyToken",
          "type": "string"
        }
      ],
      "name": "samplePrice",
      "outputs": [],
      "stateMutability": "nonpayable",
      "type": "function"
    },
    {
      "inputs": [
        {
          "internalType": "address",
          "name": "_token",
          "type": "address"
        },
        {
          "internalType": "string",
          "name": "_name",
          "type": "string"
        }
      ],
      "name": "setAddressToName",
      "outputs": [],
      "stateMutability": "nonpayable",
      "type": "function"
    },
    {
      "inputs": [
        {
          "internalType": "string",
          "name": "_policyToken",
          "type": "string"
        },
        {
          "internalType": "uint256",
          "name": "_price",
          "type": "uint256"
        }
      ],
      "name": "setPrice",
      "outputs": [],
      "stateMutability": "nonpayable",
      "type": "function"
    },
    {
      "inputs": [
        {
          "internalType": "address",
          "name": "newOwner",
          "type": "address"
        }
      ],
      "name": "transferOwnership",
      "outputs": [],
      "stateMutability": "nonpayable",
      "type": "function"
    }
  ],
  "transactionHash": "0xf8d2a510b0fe15504f620d4c4aa873a000f5b226d2bcd6b9d7209da740dd2e66",
  "args": [],
  "numDeployments": 3,
  "solcInputHash": "aa6f5ead0b43e12e24ff8a44e9e01912",
  "bytecode": "0x60808060405234610016576119ad908161001c8239f35b600080fdfe6040608081526004908136101561001557600080fd5b600091823560e01c806316345f181461121557806322e01192146111bf5780632ca1bf6f1461117057806349bb4d2714610e245780636bf8910a14610dfb578063715018a614610d9b5780637bbd31ed146109bf57806389a30271146109905780638da5cb5b14610967578063ad5c464814610938578063b4972aef146107c6578063c4d66de81461066d578063c54e44eb1461063e578063cb8ae86c1461059c578063d171578b14610559578063e2392718146101e5578063e2a04b621461017b5763f2fde38b146100e757600080fd5b3461017757602036600319011261017757610100611252565b906101096114a1565b6001600160a01b038216156101255750610122906114f9565b51f35b608490602084519162461bcd60e51b8352820152602660248201527f4f776e61626c653a206e6577206f776e657220697320746865207a65726f206160448201526564647265737360d01b6064820152fd5b8280fd5b8284346101e25760203660031901126101e2576101b29082906001600160a01b036101a4611252565b1681526067602052206113fb565b9080518092602082526101d48151809281602086015260208686019101611342565b601f01601f19168101030190f35b80fd5b50919034610555576020806003193601126101775783356001600160401b03811161055157610217903690860161126d565b90918351828482378181848101606681520301902060018060a01b038154169663ffffffff8181421693858b8a5195868092635909c0d560e01b82525afa938415610547578a94610514575b508184878d8c5193848092635a3d549360e01b82525afa91821561050a57908492918d926104d4575b506060829e8d5194858092630240bc6b60e21b82525afa80156104ca578d9081948291610495575b508988821603610432575b5050505050600681019a6102d6848d5416876116e9565b9060018301549460028401549216918211156103f557918b9c93918795937f9b4359a4024cf42372af876d367b36bafd6cb68f8b58b78b1611b664ea994a299c9d50600383015415156000146103a757506103529061034d600584019561034761034188548c611714565b9161171f565b9061172d565b611740565b8c5161035d8161129a565b6001600160e01b03821690529590925560709490941c6001600160701b03169384915b015555610399875195869560608752606087019161168f565b92840152858301520390a151f35b96506103c39061034d600584019561034761034188548c611714565b8c516103ce8161129a565b6001600160e01b03821690529590925560709490941c6001600160701b0316938491610380565b8a5162461bcd60e51b81528085018990526017602482015276135a5b9a5b5d5b481cd85b5c1b19481a5b9d195c9d985b604a1b6044820152606490fd5b61048a959f506104779394985061046c9161047d610453610483938d6116e9565b946001600160e01b0394610477908c9087908f8761176c565b51169716809761172d565b90611760565b9961176c565b511661172d565b9938808080806102bf565b9150506104ba91935060603d81116104c3575b6104b281836112cb565b810190611659565b919391386102b4565b503d6104a8565b8c513d8f823e3d90fd5b89809294508193503d8311610503575b6104ee81836112cb565b810103126104ff575183913861028c565b8b80fd5b503d6104e4565b8b513d8e823e3d90fd5b9093508581813d8311610540575b61052c81836112cb565b8101031261053c57519238610263565b8980fd5b503d610522565b89513d8c823e3d90fd5b8380fd5b5080fd5b5091346101e25760203660031901126101e2578235906001600160401b0382116101e25750610590602093610595923691016112ec565b6117f9565b9051908152f35b5034610177576020366003190112610177578035926001600160401b0384116101e257506105e660206105d460e095369085016112ec565b81855193828580945193849201611342565b8101606681520301902060018060a01b03815416926001820154926002830154600384015491840154926006600586015495015495815197885260208801528601526060850152608084015260a083015260c0820152f35b5050346105555781600319360112610555576020905173fd086bc7cd5c481dcc9c85ebe478a1c0b69fcbb98152f35b503461017757602036600319011261017757610687611252565b835460ff8160081c1615928380946107b9575b80156107a2575b15610748575060ff198116600117855582610737575b506106d160ff855460081c166106cc81611547565b611547565b6106da336114f9565b606580546001600160a01b0319166001600160a01b03929092169190911790556107015751f35b61ff001982541682557f7f26b83ff96e1f2b6a682f133852f6798a09c465da95921460cefb38474024986020825160018152a151f35b61ffff1916610101178455386106b7565b608490602086519162461bcd60e51b8352820152602e60248201527f496e697469616c697a61626c653a20636f6e747261637420697320616c72656160448201526d191e481a5b9a5d1a585b1a5e995960921b6064820152fd5b50303b1580156106a15750600160ff8316146106a1565b50600160ff83161061069a565b509190346105555780600319360112610555576107e1611252565b926001600160401b036024358181116109345761080190369084016112ec565b9461080a6114a1565b6001600160a01b03168452606760209081528385208651909390928311610921575061083683546113c1565b601f81116108de575b5080601f831160011461087b575084958293949592610870575b50508160011b916000199060031b1c191617905551f35b015190503880610859565b90601f198316968487528287209287905b8982106108c657505083600195969798106108ad575b505050811b01905551f35b015160001960f88460031b161c191690553880806108a2565b8060018596829496860151815501950193019061088c565b838652818620601f840160051c810191838510610917575b601f0160051c01905b81811061090c575061083f565b8681556001016108ff565b90915081906108f6565b634e487b7160e01b865260419052602485fd5b8480fd5b505034610555578160031936011261055557602090517382af49447d8a07e3bd95bd0d56f35241523fbab18152f35b50503461055557816003193601126105555760335490516001600160a01b039091168152602090f35b5050346105555781600319360112610555576020905173af88d065e77c8cc2239327c5edb3a432268e58318152f35b50919034610555576109d036611377565b906109dc9493946114a1565b8551630dfe168160e01b808252986001600160a01b0385811692602092919083818481885afa90811561050a57610a1f9183918e91610d7e575b501615156115c6565b89518c815283818481885afa90811561050a579082918d91610d61575b5073fd086bc7cd5c481dcc9c85ebe478a1c0b69fcbb9921682148015610d16575b15610ce3578b8b9c9d888c8760029f828f91610a8e8982518486823786818681016066815203019020541615611603565b51938492833760669082019081520301902080546001600160a01b03191689178155600181018a90559d8e01558d51908152858186818a5afa918215610cd85791610cab575b501614801590610ca4576001935b60ff60038c01951685558b5191630240bc6b60e21b83528d6060848681865afa8015610c9857869463ffffffff9291610c77575b501660068d015515610beb578b51635909c0d560e01b815292839182905afa908115610be1578b91610b94575b5090600080516020611958833981519152986005610b8e9796959493915b015589519088888337818981016068815203019020600160ff1982541617905554928851968796876116b0565b0390a151f35b959493929180915086813d8311610bda575b610bb081836112cb565b81010312610bd65794519394929391929091600080516020611958833981519152610b43565b8a80fd5b503d610ba6565b8a513d8d823e3d90fd5b8b51635a3d549360e01b815292839182905afa908115610be1578b91610c2e575b5090600080516020611958833981519152986005610b8e979695949391610b61565b959493929180915086813d8311610c70575b610c4a81836112cb565b81010312610bd65794519394929391929091600080516020611958833981519152610c0c565b503d610c40565b610c8f915060603d81116104c3576104b281836112cb565b91505038610b16565b508d51903d90823e3d90fd5b8b93610ae2565b610ccb9150853d8711610cd1575b610cc381836112cb565b8101906115a7565b38610ad4565b503d610cb9565b8e51903d90823e3d90fd5b8a5162461bcd60e51b8152808401859052600d60248201526c2737ba103ab9b23a103830b4b960991b6044820152606490fd5b508a5163d21220a760e01b815284818581895afa9081156104ca57839183918f91610d44575b501614610a5d565b610d5b9150873d8911610cd157610cc381836112cb565b38610d3c565b610d789150853d8711610cd157610cc381836112cb565b38610a3c565b610d959150863d8811610cd157610cc381836112cb565b38610a16565b505034610555578160031936011261055557610db56114a1565b603380546001600160a01b0319811690915590519082906001600160a01b03167f8be0079c531659141344cd1fd0a4f28419497f9722a3daafe3b4186f6b6457e08284a3f35b50503461055557816003193601126105555760655490516001600160a01b039091168152602090f35b5091903461055557610e3536611377565b90610e449792979493946114a1565b8551630dfe168160e01b808252986001600160a01b038181169591926020929190838184818b5afa90811561050a57610e889183918e91610d7e57501615156115c6565b89518c8152838184818b5afa90811561050a579082918d91611153575b507382af49447d8a07e3bd95bd0d56f35241523fbab1921682148015611108575b156110d5578b8b9c9d888c8760029f828f91610ef78982518486823786818681016066815203019020541615611603565b51938492833760669082019081520301902080546001600160a01b0319168c178155600181018a90559d8e01558d51908152858186818d5afa918215610cd857916110b8575b5016148015906110b05760ff60015b16968760038c01558b5191630240bc6b60e21b83528d6060848681865afa8015610c9857869463ffffffff929161108f575b501660068d015515611011578b51635909c0d560e01b815292839182905afa918215610be1578b92610fd6575b505090600080516020611958833981519152976005610b8e96959493915b01558851968796876116b0565b9080969594939250813d831161100a575b610ff181836112cb565b8101031261053c57935192939192909190876005610fab565b503d610fe7565b8b51635a3d549360e01b815292839182905afa918215610be1578b92611054575b505090600080516020611958833981519152976005610b8e9695949391610fc9565b9080969594939250813d8311611088575b61106f81836112cb565b8101031261053c57935192939192909190876005611032565b503d611065565b6110a7915060603d81116104c3576104b281836112cb565b91505038610f7e565b60ff8c610f4c565b6110cf9150853d8711610cd157610cc381836112cb565b38610f3d565b8a5162461bcd60e51b8152808401859052600d60248201526c2737ba1030bb30bc103830b4b960991b6044820152606490fd5b508a5163d21220a760e01b8152848185818c5afa9081156104ca57839183918f91611136575b501614610ec6565b61114d9150873d8911610cd157610cc381836112cb565b3861112e565b61116a9150853d8711610cd157610cc381836112cb565b38610ea5565b5091346101e25760203660031901126101e2578235906001600160401b0382116101e257506111aa60206105d4819560ff943691016112ec565b81016068815203019020541690519015158152f35b503461017757816003193601126101775780356001600160401b038111610551576111ed903690830161126d565b6111f89291926114a1565b808451938437820191606683526020816024359403019020015551f35b50503461055557602036600319011261055557602091610595906105909083906001600160a01b03611245611252565b16815260678652206113fb565b600435906001600160a01b038216820361126857565b600080fd5b9181601f84011215611268578235916001600160401b038311611268576020838186019501011161126857565b602081019081106001600160401b038211176112b557604052565b634e487b7160e01b600052604160045260246000fd5b90601f801991011681019081106001600160401b038211176112b557604052565b81601f82011215611268578035906001600160401b0382116112b55760405192611320601f8401601f1916602001856112cb565b8284526020838301011161126857816000926020809301838601378301015290565b918091926000905b82821061136257501161135b575050565b6000910152565b9150806020918301518186015201829161134a565b608060031982011261126857600435906001600160401b038211611268576113a19160040161126d565b90916024356001600160a01b038116810361126857906044359060643590565b90600182811c921680156113f1575b60208310146113db57565b634e487b7160e01b600052602260045260246000fd5b91607f16916113d0565b906040519182600082549261140f846113c1565b90818452600194858116908160001461147e575060011461143b575b5050611439925003836112cb565b565b9093915060005260209081600020936000915b8183106114665750506114399350820101388061142b565b8554888401850152948501948794509183019161144e565b91505061143994506020925060ff191682840152151560051b820101388061142b565b6033546001600160a01b031633036114b557565b606460405162461bcd60e51b815260206004820152602060248201527f4f776e61626c653a2063616c6c6572206973206e6f7420746865206f776e65726044820152fd5b603380546001600160a01b039283166001600160a01b031982168117909255604051919216907f8be0079c531659141344cd1fd0a4f28419497f9722a3daafe3b4186f6b6457e090600090a3565b1561154e57565b60405162461bcd60e51b815260206004820152602b60248201527f496e697469616c697a61626c653a20636f6e7472616374206973206e6f74206960448201526a6e697469616c697a696e6760a81b6064820152608490fd5b9081602091031261126857516001600160a01b03811681036112685790565b156115cd57565b60405162461bcd60e51b815260206004820152600e60248201526d2737b71032bc34b9ba103830b4b960911b6044820152606490fd5b1561160a57565b60405162461bcd60e51b81526020600482015260136024820152725061697220616c72656164792065786973747360681b6044820152606490fd5b51906001600160701b038216820361126857565b908160609103126112685761166d81611645565b91604061167c60208401611645565b92015163ffffffff811681036112685790565b908060209392818452848401376000828201840152601f01601f1916010190565b9296959491608094916116cb9160a0865260a086019161168f565b6001600160a01b039097166020840152604083015260608201520152565b63ffffffff91821691168181106116fe570390565b634e487b7160e01b600052601160045260246000fd5b8181106116fe570390565b604d81116116fe57600a0a90565b80600019048211811515166116fe570290565b811561174a570490565b634e487b7160e01b600052601260045260246000fd5b811981116116fe570190565b90600060405161177b8161129a565b526001600160701b03169081156117ba57604051916117998361129a565b60709190911b600160701b600160e01b0316046001600160e01b0316815290565b60405162461bcd60e51b81526020600482015260176024820152764669786564506f696e743a204449565f42595f5a45524f60481b6044820152606490fd5b6040805191805191600160ff60209586818187019761181981838b611342565b8101606881520301902054161515146000146118565791600493916118479351938492839251928391611342565b81016066815203019020015490565b918361186f916004938551938492839251928391611342565b81016066815203019020015491821561192857606554825163f66a1b7160e01b815260048082018490526024820152630ae8aa8960e31b604482015291908190839060649082906000906001600160a01b03165af192831561191e57506000926118ed575b5050670de0b6b3a7640000916118e99161172d565b0490565b81819392933d8311611917575b61190481836112cb565b810103126101e2575051816118e96118d4565b503d6118fa565b513d6000823e3d90fd5b606491519062461bcd60e51b82526004820152600a6024820152695a65726f20507269636560b01b6044820152fdfe212544a34bde618b1304355fe54ed52a00db3723be0aae4d1f842043a23579afa26469706673582212207d8db0a2e1b1b47994eab0a51d1c3bbd9d7269f89d207bc05b8ee9900813695664736f6c634300080f0033",
  "devdoc": {
    "kind": "dev",
    "methods": {
      "getLatestPrice(address)": {
        "params": {
          "_token": "Address of the token"
        },
        "returns": {
          "_0": "price The latest price"
        }
      },
      "getLatestPriceFromName(string)": {
        "params": {
          "_name": "Policy token name"
        },
        "returns": {
          "price": "USD price of the base token"
        }
      },
      "owner()": {
        "details": "Returns the address of the current owner."
      },
      "renounceOwnership()": {
        "details": "Leaves the contract without owner. It will not be possible to call `onlyOwner` functions anymore. Can only be called by the current owner. NOTE: Renouncing ownership will leave the contract without an owner, thereby removing any functionality that is only available to the owner."
      },
      "setPrice(string,uint256)": {
        "params": {
          "_policyToken": "Policy token name",
          "_price": "Price in avax"
        }
      },
      "transferOwnership(address)": {
        "details": "Transfers ownership of the contract to a new account (`newOwner`). Can only be called by the current owner."
      }
    },
    "title": "Price Getter for IDO Protection",
    "version": 1
  },
  "userdoc": {
    "kind": "user",
    "methods": {
      "getLatestPrice(address)": {
        "notice": "Get latest price of a token"
      },
      "getLatestPriceFromName(string)": {
        "notice": "Get latest price"
      },
      "setPrice(string,uint256)": {
        "notice": "Set price in avax         Price in avax should be in 1e18"
      }
    },
    "notice": "This is the contract for getting price feed from DEX         IDO projects does not have Chainlink feeds so we use DEX TWAP price as oracle         Workflow:         1. Deploy naughty token for the IDO project and set its type as \"IDO\"         2. Add ido price feed info by calling \"addIDOPair\" function         3. Set auto tasks start within PERIOD to endTime to sample prices from DEX         4. Call \"settleFinalResult\" function in core to settle the final price",
    "version": 1
  },
  "storageLayout": {
    "storage": [
      {
        "astId": 184,
        "contract": "src/priceGetter/DexPriceGetter.sol:DexPriceGetter",
        "label": "_initialized",
        "offset": 0,
        "slot": "0",
        "type": "t_uint8"
      },
      {
        "astId": 187,
        "contract": "src/priceGetter/DexPriceGetter.sol:DexPriceGetter",
        "label": "_initializing",
        "offset": 1,
        "slot": "0",
        "type": "t_bool"
      },
      {
        "astId": 1326,
        "contract": "src/priceGetter/DexPriceGetter.sol:DexPriceGetter",
        "label": "__gap",
        "offset": 0,
        "slot": "1",
        "type": "t_array(t_uint256)50_storage"
      },
      {
        "astId": 56,
        "contract": "src/priceGetter/DexPriceGetter.sol:DexPriceGetter",
        "label": "_owner",
        "offset": 0,
        "slot": "51",
        "type": "t_address"
      },
      {
        "astId": 176,
        "contract": "src/priceGetter/DexPriceGetter.sol:DexPriceGetter",
        "label": "__gap",
        "offset": 0,
        "slot": "52",
        "type": "t_array(t_uint256)49_storage"
      },
      {
        "astId": 22419,
        "contract": "src/priceGetter/DexPriceGetter.sol:DexPriceGetter",
        "label": "basePriceGetter",
        "offset": 0,
        "slot": "101",
        "type": "t_contract(IPriceGetter)14992"
      },
      {
        "astId": 22439,
        "contract": "src/priceGetter/DexPriceGetter.sol:DexPriceGetter",
        "label": "priceFeeds",
        "offset": 0,
        "slot": "102",
        "type": "t_mapping(t_string_memory_ptr,t_struct(IDOPriceInfo)22434_storage)"
      },
      {
        "astId": 22443,
        "contract": "src/priceGetter/DexPriceGetter.sol:DexPriceGetter",
        "label": "addressToName",
        "offset": 0,
        "slot": "103",
        "type": "t_mapping(t_address,t_string_storage)"
      },
      {
        "astId": 22447,
        "contract": "src/priceGetter/DexPriceGetter.sol:DexPriceGetter",
        "label": "isUSDTPair",
        "offset": 0,
        "slot": "104",
        "type": "t_mapping(t_string_memory_ptr,t_bool)"
      }
    ],
    "types": {
      "t_address": {
        "encoding": "inplace",
        "label": "address",
        "numberOfBytes": "20"
      },
      "t_array(t_uint256)49_storage": {
        "base": "t_uint256",
        "encoding": "inplace",
        "label": "uint256[49]",
        "numberOfBytes": "1568"
      },
      "t_array(t_uint256)50_storage": {
        "base": "t_uint256",
        "encoding": "inplace",
        "label": "uint256[50]",
        "numberOfBytes": "1600"
      },
      "t_bool": {
        "encoding": "inplace",
        "label": "bool",
        "numberOfBytes": "1"
      },
      "t_contract(IPriceGetter)14992": {
        "encoding": "inplace",
        "label": "contract IPriceGetter",
        "numberOfBytes": "20"
      },
      "t_mapping(t_address,t_string_storage)": {
        "encoding": "mapping",
        "key": "t_address",
        "label": "mapping(address => string)",
        "numberOfBytes": "32",
        "value": "t_string_storage"
      },
      "t_mapping(t_string_memory_ptr,t_bool)": {
        "encoding": "mapping",
        "key": "t_string_memory_ptr",
        "label": "mapping(string => bool)",
        "numberOfBytes": "32",
        "value": "t_bool"
      },
      "t_mapping(t_string_memory_ptr,t_struct(IDOPriceInfo)22434_storage)": {
        "encoding": "mapping",
        "key": "t_string_memory_ptr",
        "label": "mapping(string => struct DexPriceGetter.IDOPriceInfo)",
        "numberOfBytes": "32",
        "value": "t_struct(IDOPriceInfo)22434_storage"
      },
      "t_string_memory_ptr": {
        "encoding": "bytes",
        "label": "string",
        "numberOfBytes": "32"
      },
      "t_string_storage": {
        "encoding": "bytes",
        "label": "string",
        "numberOfBytes": "32"
      },
      "t_struct(IDOPriceInfo)22434_storage": {
        "encoding": "inplace",
        "label": "struct DexPriceGetter.IDOPriceInfo",
        "members": [
          {
            "astId": 22421,
            "contract": "src/priceGetter/DexPriceGetter.sol:DexPriceGetter",
            "label": "pair",
            "offset": 0,
            "slot": "0",
            "type": "t_address"
          },
          {
            "astId": 22423,
            "contract": "src/priceGetter/DexPriceGetter.sol:DexPriceGetter",
            "label": "decimals",
            "offset": 0,
            "slot": "1",
            "type": "t_uint256"
          },
          {
            "astId": 22425,
            "contract": "src/priceGetter/DexPriceGetter.sol:DexPriceGetter",
            "label": "sampleInterval",
            "offset": 0,
            "slot": "2",
            "type": "t_uint256"
          },
          {
            "astId": 22427,
            "contract": "src/priceGetter/DexPriceGetter.sol:DexPriceGetter",
            "label": "isToken0",
            "offset": 0,
            "slot": "3",
            "type": "t_uint256"
          },
          {
            "astId": 22429,
            "contract": "src/priceGetter/DexPriceGetter.sol:DexPriceGetter",
            "label": "priceAverage",
            "offset": 0,
            "slot": "4",
            "type": "t_uint256"
          },
          {
            "astId": 22431,
            "contract": "src/priceGetter/DexPriceGetter.sol:DexPriceGetter",
            "label": "priceCumulativeLast",
            "offset": 0,
            "slot": "5",
            "type": "t_uint256"
          },
          {
            "astId": 22433,
            "contract": "src/priceGetter/DexPriceGetter.sol:DexPriceGetter",
            "label": "lastTimestamp",
            "offset": 0,
            "slot": "6",
            "type": "t_uint256"
          }
        ],
        "numberOfBytes": "224"
      },
      "t_uint256": {
        "encoding": "inplace",
        "label": "uint256",
        "numberOfBytes": "32"
      },
      "t_uint8": {
        "encoding": "inplace",
        "label": "uint8",
        "numberOfBytes": "1"
      }
    }
  }
}