{
  "address": "0x28C1c9f8410099818137ac9553643be9D0DF0f87",
  "abi": [
    {
      "anonymous": false,
      "inputs": [
        {
          "indexed": false,
          "internalType": "uint8",
          "name": "version",
          "type": "uint8"
        }
      ],
      "name": "Initialized",
      "type": "event"
    },
    {
      "anonymous": false,
      "inputs": [
        {
          "indexed": true,
          "internalType": "address",
          "name": "previousOwner",
          "type": "address"
        },
        {
          "indexed": true,
          "internalType": "address",
          "name": "newOwner",
          "type": "address"
        }
      ],
      "name": "OwnershipTransferred",
      "type": "event"
    },
    {
      "inputs": [],
      "name": "ARB",
      "outputs": [
        {
          "internalType": "address",
          "name": "",
          "type": "address"
        }
      ],
      "stateMutability": "view",
      "type": "function"
    },
    {
      "inputs": [],
      "name": "ARB_WETH_FEE",
      "outputs": [
        {
          "internalType": "uint256",
          "name": "",
          "type": "uint256"
        }
      ],
      "stateMutability": "view",
      "type": "function"
    },
    {
      "inputs": [],
      "name": "DEXPRICEGETTER_V1",
      "outputs": [
        {
          "internalType": "address",
          "name": "",
          "type": "address"
        }
      ],
      "stateMutability": "view",
      "type": "function"
    },
    {
      "inputs": [],
      "name": "GMX_WETH_FEE",
      "outputs": [
        {
          "internalType": "uint256",
          "name": "",
          "type": "uint256"
        }
      ],
      "stateMutability": "view",
      "type": "function"
    },
    {
      "inputs": [],
      "name": "GNS_WETH_FEE",
      "outputs": [
        {
          "internalType": "uint256",
          "name": "",
          "type": "uint256"
        }
      ],
      "stateMutability": "view",
      "type": "function"
    },
    {
      "inputs": [],
      "name": "JOE",
      "outputs": [
        {
          "internalType": "address",
          "name": "",
          "type": "address"
        }
      ],
      "stateMutability": "view",
      "type": "function"
    },
    {
      "inputs": [],
      "name": "JOE_LB_FACTORY",
      "outputs": [
        {
          "internalType": "address",
          "name": "",
          "type": "address"
        }
      ],
      "stateMutability": "view",
      "type": "function"
    },
    {
      "inputs": [],
      "name": "LDO_WETH_FEE",
      "outputs": [
        {
          "internalType": "uint256",
          "name": "",
          "type": "uint256"
        }
      ],
      "stateMutability": "view",
      "type": "function"
    },
    {
      "inputs": [],
      "name": "UNI_V3_FACTORY",
      "outputs": [
        {
          "internalType": "address",
          "name": "",
          "type": "address"
        }
      ],
      "stateMutability": "view",
      "type": "function"
    },
    {
      "inputs": [],
      "name": "USDT",
      "outputs": [
        {
          "internalType": "address",
          "name": "",
          "type": "address"
        }
      ],
      "stateMutability": "view",
      "type": "function"
    },
    {
      "inputs": [],
      "name": "WETH",
      "outputs": [
        {
          "internalType": "address",
          "name": "",
          "type": "address"
        }
      ],
      "stateMutability": "view",
      "type": "function"
    },
    {
      "inputs": [],
      "name": "WOM",
      "outputs": [
        {
          "internalType": "address",
          "name": "",
          "type": "address"
        }
      ],
      "stateMutability": "view",
      "type": "function"
    },
    {
      "inputs": [],
      "name": "basePriceGetter",
      "outputs": [
        {
          "internalType": "contract IPriceGetter",
          "name": "",
          "type": "address"
        }
      ],
      "stateMutability": "view",
      "type": "function"
    },
    {
      "inputs": [
        {
          "internalType": "address",
          "name": "_token",
          "type": "address"
        }
      ],
      "name": "getLatestPrice",
      "outputs": [
        {
          "internalType": "uint256",
          "name": "",
          "type": "uint256"
        }
      ],
      "stateMutability": "nonpayable",
      "type": "function"
    },
    {
      "inputs": [
        {
          "internalType": "uint160",
          "name": "sqrtPriceX96",
          "type": "uint160"
        }
      ],
      "name": "getPriceX96FromSqrtPriceX96",
      "outputs": [
        {
          "internalType": "uint256",
          "name": "priceX96",
          "type": "uint256"
        }
      ],
      "stateMutability": "pure",
      "type": "function"
    },
    {
      "inputs": [
        {
          "internalType": "address",
          "name": "uniswapV3Pool",
          "type": "address"
        },
        {
          "internalType": "uint32",
          "name": "twapInterval",
          "type": "uint32"
        }
      ],
      "name": "getSqrtTwapX96",
      "outputs": [
        {
          "internalType": "uint160",
          "name": "sqrtPriceX96",
          "type": "uint160"
        }
      ],
      "stateMutability": "view",
      "type": "function"
    },
    {
      "inputs": [
        {
          "internalType": "address",
          "name": "_priceGetter",
          "type": "address"
        }
      ],
      "name": "initialize",
      "outputs": [],
      "stateMutability": "nonpayable",
      "type": "function"
    },
    {
      "inputs": [
        {
          "internalType": "address",
          "name": "",
          "type": "address"
        }
      ],
      "name": "lbPriceFeeds",
      "outputs": [
        {
          "internalType": "uint64",
          "name": "lastCumulativeId",
          "type": "uint64"
        },
        {
          "internalType": "uint256",
          "name": "lastTimestamp",
          "type": "uint256"
        },
        {
          "internalType": "uint256",
          "name": "price",
          "type": "uint256"
        }
      ],
      "stateMutability": "view",
      "type": "function"
    },
    {
      "inputs": [],
      "name": "owner",
      "outputs": [
        {
          "internalType": "address",
          "name": "",
          "type": "address"
        }
      ],
      "stateMutability": "view",
      "type": "function"
    },
    {
      "inputs": [],
      "name": "renounceOwnership",
      "outputs": [],
      "stateMutability": "nonpayable",
      "type": "function"
    },
    {
      "inputs": [
        {
          "internalType": "address",
          "name": "_token",
          "type": "address"
        }
      ],
      "name": "samplePriceFromLB",
      "outputs": [
        {
          "internalType": "uint256",
          "name": "",
          "type": "uint256"
        }
      ],
      "stateMutability": "nonpayable",
      "type": "function"
    },
    {
      "inputs": [
        {
          "internalType": "address",
          "name": "_token",
          "type": "address"
        }
      ],
      "name": "samplePriceFromUniV3",
      "outputs": [
        {
          "internalType": "uint256",
          "name": "",
          "type": "uint256"
        }
      ],
      "stateMutability": "nonpayable",
      "type": "function"
    },
    {
      "inputs": [
        {
          "internalType": "address",
          "name": "newOwner",
          "type": "address"
        }
      ],
      "name": "transferOwnership",
      "outputs": [],
      "stateMutability": "nonpayable",
      "type": "function"
    }
  ],
  "transactionHash": "0xed04ff87baa828baa1add6ff2460597a58d007ce7622a4136a69d3009e80a422",
  "args": [],
  "numDeployments": 13,
  "solcInputHash": "73ee4f2bbafbf92c1983ce9bad085aae",
  "bytecode": "0x6080806040523461001657611eed908161001c8239f35b600080fdfe60806040526004361015610013575b600080fd5b60003560e01c806313b44de01461013457806314494fe3146101cd57806316345f18146101c45780631a9bef41146101bb5780632f2eec37146101b257806347628f60146101a95780634e09a610146101a057806364a285fd146101975780636bf8910a1461018e578063715018a6146101855780638118a0341461017c57806383828cd1146101735780638da5cb5b1461016a5780639c490eab14610161578063ad5c464814610158578063c4d66de81461014f578063c54e44eb14610146578063cbdef32a1461013d578063d1e501f414610134578063d20e32e614610134578063ebcf86951461012b578063f2fde38b146101225763ffebad301461011a57600080fd5b61000e6108a3565b5061000e610808565b5061000e6107d8565b5061000e6101d6565b5061000e6107a8565b5061000e610778565b5061000e610689565b5061000e610659565b5061000e610631565b5061000e610603565b5061000e6105d3565b5061000e610575565b5061000e61050a565b5061000e6104e0565b5061000e6104b0565b5061000e61047e565b5061000e6102ab565b5061000e61027b565b5061000e61025d565b5061000e610235565b5061000e610205565b503461000e57600036600319011261000e576020604051610bb88152f35b6001600160a01b0381160361000e57565b503461000e57602036600319011261000e57602061022d600435610228816101f4565b611234565b604051908152f35b503461000e57602036600319011261000e57602061022d600435610258816101f4565b610a25565b503461000e57600036600319011261000e5760206040516101f48152f35b503461000e57600036600319011261000e576020604051731f98431c8ad98523631ae4a59f267346ea31f9848152f35b503461000e57604036600319011261000e576004356102c9816101f4565b6024359063ffffffff82169182810361000e57602092600090610370575050604051633850c7bd60e01b81529060e090829060049082906001600160a01b03165afa908115610363575b60009161032f575b505b6040516001600160a01b039091168152f35b610350915060e03d811161035c575b61034881836109ba565b810190610dd7565b5050505050503861031b565b503d61033e565b61036b6109ea565b610313565b6104306104439261042b610422610416856103d3610438976104489a610394610b7e565b906103ad896103a284610bcf565b9063ffffffff169052565b826103b783610be9565b52604051808095819463883bdbfd60e01b835260048301610cff565b03916001600160a01b03165afa918215610471575b809261044d575b505061041061040361040a61040384610be9565b5160060b90565b92610bcf565b90610d40565b66ffffffffffffff1690565b63ffffffff1690565b610d99565b62ffffff1690565b62ffffff1660020b90565b611af4565b61031d565b61046992503d8091833e61046181836109ba565b810190610c62565b5038806103ef565b6104796109ea565b6103e8565b503461000e57602036600319011261000e57602061022d6004356104a1816101f4565b6001600160a01b031680611a30565b503461000e57600036600319011261000e57602060405173912ce59144191c1204e64559fe8253a0e49e65488152f35b503461000e57600036600319011261000e576032546040516001600160a01b039091168152602090f35b503461000e57600080600319360112610572578054601081901c6001600160a01b031690610539338314611e1e565b82604051927f8be0079c531659141344cd1fd0a4f28419497f9722a3daafe3b4186f6b6457e08285a362010000600160b01b0319168255f35b80fd5b503461000e57602036600319011261000e57600435610593816101f4565b60018060a01b03166000526033602052606060406000206001600160401b0381541690600260018201549101549060405192835260208301526040820152f35b503461000e57600036600319011261000e576020604051737b5eb3940021ec0e8e463d5dbb4b7b09a89ddf968152f35b503461000e57600036600319011261000e5760005460405160109190911c6001600160a01b03168152602090f35b503461000e57602036600319011261000e57602061022d600435610654816101f4565b611592565b503461000e57600036600319011261000e5760206040517382af49447d8a07e3bd95bd0d56f35241523fbab18152f35b503461000e57602036600319011261000e576004356106a7816101f4565b6106eb600054916106cf60ff8460081c16158094819561076a575b811561074a575b506108d3565b826106e2600160ff196000541617600055565b61073157610936565b6106f2575b005b61070261ff001960005416600055565b604051600181527f7f26b83ff96e1f2b6a682f133852f6798a09c465da95921460cefb384740249890602090a1005b61074561010061ff00196000541617600055565b610936565b303b1591508161075c575b50386106c9565b6001915060ff161438610755565b600160ff82161091506106c2565b503461000e57600036600319011261000e57602060405173fd086bc7cd5c481dcc9c85ebe478a1c0b69fcbb98152f35b503461000e57600036600319011261000e576020604051738e42f2f4101563bf679975178e880fd87d3efd4e8152f35b503461000e57600036600319011261000e5760206040517345e292ec740cdbd20c68fa932ecbec925fdaf5a78152f35b503461000e57602036600319011261000e57600435610826816101f4565b60018060a01b0361083f8160005460101c163314611e1e565b81161561084f576106f090611e57565b60405162461bcd60e51b815260206004820152602660248201527f4f776e61626c653a206e6577206f776e657220697320746865207a65726f206160448201526564647265737360d01b6064820152608490fd5b503461000e57600036600319011261000e57602060405173371c7ec6d8039ff7933a2aa28eb827ffe1f52f078152f35b156108da57565b60405162461bcd60e51b815260206004820152602e60248201527f496e697469616c697a61626c653a20636f6e747261637420697320616c72656160448201526d191e481a5b9a5d1a585b1a5e995960921b6064820152608490fd5b61095060ff60005460081c1661094b81611dbe565b611dbe565b61095933611e57565b603280546001600160a01b0319166001600160a01b0392909216919091179055565b50634e487b7160e01b600052604160045260246000fd5b604081019081106001600160401b038211176109ad57604052565b6109b561097b565b604052565b90601f801991011681019081106001600160401b038211176109ad57604052565b9081602091031261000e575190565b506040513d6000823e3d90fd5b50634e487b7160e01b600052601160045260246000fd5b818110610a19570390565b610a216109f7565b0390565b6001600160a01b03811673371c7ec6d8039ff7933a2aa28eb827ffe1f52f078103610aa65750610e10610a776001610a6f8460018060a01b03166000526033602052604060002090565b015442610a0e565b11610a9a576001600160a01b031660009081526033602052604090206002015490565b610aa390611592565b90565b737b5eb3940021ec0e8e463d5dbb4b7b09a89ddf9603610b4f57506040516302c68be360e31b8152737b5eb3940021ec0e8e463d5dbb4b7b09a89ddf96600482015260208160248160007345e292ec740cdbd20c68fa932ecbec925fdaf5a75af1908115610b42575b600091610b1a575090565b610aa3915060203d8111610b3b575b610b3381836109ba565b8101906109db565b503d610b29565b610b4a6109ea565b610b0f565b610aa390611234565b6020906001600160401b038111610b71575b60051b0190565b610b7961097b565b610b6a565b60405190606082018281106001600160401b03821117610bab575b60405260028252604082602036910137565b610bb361097b565b610b99565b50634e487b7160e01b600052603260045260246000fd5b602090805115610bdd570190565b610be5610bb8565b0190565b604090805160011015610bdd570190565b81601f8201121561000e57805191610c1183610b58565b92610c1f60405194856109ba565b808452602092838086019260051b82010192831161000e578301905b828210610c49575050505090565b8380918351610c57816101f4565b815201910190610c3b565b91909160408184031261000e578051926001600160401b039384811161000e5782019381601f8601121561000e57845194610c9c86610b58565b90610caa60405192836109ba565b868252602096878084019160051b8301019185831161000e578801905b828210610ce6575050509483015190811161000e57610aa39201610bfa565b81518060060b810361000e578152908801908801610cc7565b6020908160408183019282815285518094520193019160005b828110610d26575050505090565b835163ffffffff1685529381019392810192600101610d18565b600691820b910b600082128015667fffffffffffff198401831216610d75575b82667fffffffffffff01821316610a19570390565b610d7d6109f7565b610d60565b50634e487b7160e01b600052601260045260246000fd5b9063ffffffff809116918215610dae57160490565b610db6610d82565b160490565b519061ffff8216820361000e57565b5190811515820361000e57565b908160e091031261000e578051610ded816101f4565b9160208201518060020b810361000e5791610e0a60408201610dbb565b91610e1760608301610dbb565b91610e2460808201610dbb565b9160a082015160ff8116810361000e5760c0610aa3919301610dca565b62ffffff610aa39163ffffffff610eb5610e776000610e5e610b7e565b610e109586610e6c83610bcf565b52826103b783610be9565b03916001600160a01b03165afa908115610eda575b600091610ec0575b50610ea8610ea182610be9565b5191610bcf565b5160060b9060060b610d40565b16041660020b611af4565b610ed3913d8091833e61046181836109ba565b5038610e94565b610ee26109ea565b610e8c565b610aa3906001600160a01b031680611a30565b9081602091031261000e5751610aa3816101f4565b8015610f1d575b6000190490565b610f25610d82565b610f16565b8115610f34570490565b610f3c610d82565b0490565b670de0b6b3a7640000908060001904821181151516610f5d570290565b610f656109f7565b0290565b6ffff97272373d413259a46990580e213a908060001904821181151516610f5d570290565b6ffff2e50f5f656932ef12357cf3c7fdcc908060001904821181151516610f5d570290565b6fffe5caca7e10e4e61c3624eaa0941cd0908060001904821181151516610f5d570290565b6fffcb9843d60f6159c9db58835c926644908060001904821181151516610f5d570290565b6fff973b41fa98c081472e6896dfb254c0908060001904821181151516610f5d570290565b6fff2ea16466c96a3843ec78b326b52861908060001904821181151516610f5d570290565b6ffe5dee046a99a2a811c461f1969c3053908060001904821181151516610f5d570290565b6ffcbe86c7900a88aedcffc83b479aa3a4908060001904821181151516610f5d570290565b6ff987a7253ac413176f2b074cf7815e54908060001904821181151516610f5d570290565b6ff3392b0822b70005940c7a398e4b70f3908060001904821181151516610f5d570290565b6fe7159475a2c29b7443b29c7fa6e889d9908060001904821181151516610f5d570290565b6fd097f3bdfd2022b8845ad8f792aa5825908060001904821181151516610f5d570290565b6fa9f746462d870fdf8a65dc1f90e061e5908060001904821181151516610f5d570290565b6f70d869a156d2a1b890bb3df62baf32f7908060001904821181151516610f5d570290565b6f31be135f97d08fd981231505542fcfa6908060001904821181151516610f5d570290565b6f09aa508b5b7a84e1c677de54f3e99bc9908060001904821181151516610f5d570290565b6e5d6af8dedb81196699c329225ee604908060001904821181151516610f5d570290565b6d2216e584f5fa1ea926041bedfe98908060001904821181151516610f5d570290565b6b048a170391f7dc42444e8fa2908060001904821181151516610f5d570290565b8060001904821181151516610f5d570290565b61136f62ffffff6113056112ff6112fa6112cb610aa39673912ce59144191c1204e64559fe8253a0e49e654860018060a01b038216146000146113e3576101f4905b604051630b4c774160e11b81526001600160a01b039190911660048201527382af49447d8a07e3bd95bd0d56f35241523fbab16024820152951662ffffff166044860152602094908590829081906064820190565b0381731f98431c8ad98523631ae4a59f267346ea31f9845afa9081156113d6575b6000916113a9575b50610e41565b610ee7565b60601c90565b603254611322906001600160a01b03165b6001600160a01b031690565b6040516302c68be360e31b81527382af49447d8a07e3bd95bd0d56f35241523fbab16004820152908390829060249082906000905af192831561139c575b60009361137d575b5050611221565b670de0b6b3a7640000900490565b611394929350803d10610b3b57610b3381836109ba565b903880611368565b6113a46109ea565b611360565b6113c99150853d87116113cf575b6113c181836109ba565b810190610efa565b386112f4565b503d6113b7565b6113de6109ea565b6112ec565b610bb890611276565b9081608091031261000e5761144f606060405192608084018481106001600160401b03821117611457575b60405261142381610dbb565b84526020810151611433816101f4565b602085015261144460408201610dca565b604085015201610dca565b606082015290565b61145f61097b565b611417565b51906001600160401b038216820361000e57565b9081606091031261000e5761148c81611464565b91610aa3604061149e60208501611464565b9301611464565b604051906114b282610992565b600f82526e74696d65456c61707365643a20257360881b6020830152565b604051906114dd82610992565b601082526f63756d756c617469766549643a20257360801b6020830152565b6040519061150982610992565b60148252736c61737443756d756c617469766549643a20257360601b6020830152565b6001600160401b039182169116818110610a19570390565b6040519061155182610992565b600d82526c6176657261676549643a20257360981b6020830152565b6040519061157a82610992565b600982526870726963653a20257360b81b6020830152565b6115eb9060806115a1826119b6565b60405163704037bd60e01b81526001600160a01b03841660048201527382af49447d8a07e3bd95bd0d56f35241523fbab16024820152604481019190915292839081906064820190565b0381738e42f2f4101563bf679975178e880fd87d3efd4e5afa918215611903575b6000926118d3575b50602091820151611631906113169081906001600160a01b031681565b6040516344a050b560e11b815264ffffffffff421660048201529091606082602481865afa9182156118c6575b600092611890575b506001600160a01b031660009081526033602052604090205b600181019283541561186a5792611752928592610aa39662ffffff61136f9761171d6116ac875442610a0e565b6116bd816116b86114a5565b611910565b61171861170c6116cb6114d0565b6116e06001600160401b0391828c1690611910565b6117066116f48a546001600160401b031690565b916116fd6114fc565b90831690611910565b8961152c565b6001600160401b031690565b610f2a565b611729816116b8611544565b604051809981948293634c7cffbd60e01b8452166004830191909162ffffff6020820193169052565b03915afa94851561185d575b600095611838575b50906117aa91611778866116b861156d565b61178a61178487610f40565b60801c90565b6002820155906001600160401b03166001600160401b0319825416179055565b4290556032546117c2906001600160a01b0316611316565b6040516302c68be360e31b81527382af49447d8a07e3bd95bd0d56f35241523fbab16004820152908290829060249082906000905af191821561182b575b60009261180e575050611221565b6118249250803d10610b3b57610b3381836109ba565b3880611368565b6118336109ea565b611800565b6117aa9291955061185590853d8711610b3b57610b3381836109ba565b949091611766565b6118656109ea565b61175e565b5042909255815467ffffffffffffffff19166001600160401b0390911617905550600090565b61167f9192506118b69060603d81116118bf575b6118ae81836109ba565b810190611478565b50509190611666565b503d6118a4565b6118ce6109ea565b61165e565b6118f591925060803d81116118fc575b6118ed81836109ba565b8101906113ec565b9038611614565b503d6118e3565b61190b6109ea565b61160c565b91906040519060206309710a9d60e41b81840152604060248401528451948560648501526000915b868310611985575050828561197193611976969760849411611978575b6044830152601f801991011681010360648101845201826109ba565b61199b565b565b6000848385010152611955565b8183018101518584016084015291820191611938565b600080916020815191016a636f6e736f6c652e6c6f675afa50565b6001600160a01b031673371c7ec6d8039ff7933a2aa28eb827ffe1f52f07036119de57601490565b60405162461bcd60e51b815260206004820152600b60248201526a2bb937b733903a37b5b2b760a91b6044820152606490fd5b600160ff1b8114611a23575b60000390565b611a2b6109f7565b611a1d565b6000199190828282099082810292838084109303928084039314611aa557600160601b918383111561000e570990828211808203911415818504600160a01b1116611a98575b60a01b910360601c1780910460011181151516611a905790565b610aa36109f7565b611aa06109f7565b611a76565b505050905060601c90565b15611ab757565b60405162461bcd60e51b81526020600482015260016024820152601560fa1b6044820152606490fd5b81198111611aec570190565b610be56109f7565b611316610aa39160020b60008112600014611db857611b1281611a11565b905b611b23620d89e8831115611ab0565b6001821615611dae576ffffcb933bd6fad37aa2d162d1a5940015b6001600160881b03169160028116611d9b575b60048116611d88575b60088116611d75575b60108116611d62575b60208116611d4f575b60408116611d3c575b60808116611d29575b6101008116611d16575b6102008116611d03575b6104008116611cf0575b6108008116611cdd575b6110008116611cca575b6120008116611cb7575b6140008116611ca4575b6180008116611c91575b620100008116611c7e575b620200008116611c6b575b620400008116611c52575b6208000016611c3b575b600012611c2d575b63ffffffff8116611c245760ff60005b169060201c611ae0565b60ff6001611c1a565b611c3690610f0f565b611c0a565b90611c4a611784600092611200565b919050611c02565b91611c6361178462080000926111dd565b929050611bf8565b91611784611c78916111b9565b91611bed565b91611784611c8b91611194565b91611be2565b91611784611c9e9161116f565b91611bd7565b91611784611cb19161114a565b91611bcd565b91611784611cc491611125565b91611bc3565b91611784611cd791611100565b91611bb9565b91611784611cea916110db565b91611baf565b91611784611cfd916110b6565b91611ba5565b91611784611d1091611091565b91611b9b565b91611784611d239161106c565b91611b91565b91611784611d3691611047565b91611b87565b91611784611d4991611022565b91611b7e565b91611784611d5c91610ffd565b91611b75565b91611784611d6f91610fd8565b91611b6c565b91611784611d8291610fb3565b91611b63565b91611784611d9591610f8e565b91611b5a565b91611784611da891610f69565b91611b51565b600160801b611b3e565b80611b14565b15611dc557565b60405162461bcd60e51b815260206004820152602b60248201527f496e697469616c697a61626c653a20636f6e7472616374206973206e6f74206960448201526a6e697469616c697a696e6760a81b6064820152608490fd5b15611e2557565b60405162461bcd60e51b815260206004820152600a60248201526927b7363c9037bbb732b960b11b6044820152606490fd5b6000549060018060a01b03808216908360101c167f8be0079c531659141344cd1fd0a4f28419497f9722a3daafe3b4186f6b6457e06000604051a362010000600160b01b031990911660109190911b62010000600160b01b03161760005556fea26469706673582212207f5c100db5990116782b9a27fbedb706e59f337bf4b6e810d37ff4dfad9472e364736f6c634300080f0033",
  "devdoc": {
    "kind": "dev",
    "methods": {
      "owner()": {
        "details": "Returns the address of the current owner."
      },
      "renounceOwnership()": {
        "details": "Leaves the contract without owner. It will not be possible to call `onlyOwner` functions anymore. Can only be called by the current owner. NOTE: Renouncing ownership will leave the contract without an owner, thereby removing any functionality that is only available to the owner."
      },
      "transferOwnership(address)": {
        "details": "Transfers ownership of the contract to a new account (`newOwner`). Can only be called by the current owner."
      }
    },
    "version": 1
  },
  "userdoc": {
    "kind": "user",
    "methods": {},
    "version": 1
  },
  "storageLayout": {
    "storage": [
      {
        "astId": 184,
        "contract": "src/priceGetter/DexPriceGetterV2.sol:DexPriceGetterV2",
        "label": "_initialized",
        "offset": 0,
        "slot": "0",
        "type": "t_uint8"
      },
      {
        "astId": 187,
        "contract": "src/priceGetter/DexPriceGetterV2.sol:DexPriceGetterV2",
        "label": "_initializing",
        "offset": 1,
        "slot": "0",
        "type": "t_bool"
      },
      {
        "astId": 28047,
        "contract": "src/priceGetter/DexPriceGetterV2.sol:DexPriceGetterV2",
        "label": "_owner",
        "offset": 2,
        "slot": "0",
        "type": "t_address"
      },
      {
        "astId": 28154,
        "contract": "src/priceGetter/DexPriceGetterV2.sol:DexPriceGetterV2",
        "label": "__gap",
        "offset": 0,
        "slot": "1",
        "type": "t_array(t_uint256)49_storage"
      },
      {
        "astId": 23069,
        "contract": "src/priceGetter/DexPriceGetterV2.sol:DexPriceGetterV2",
        "label": "basePriceGetter",
        "offset": 0,
        "slot": "50",
        "type": "t_contract(IPriceGetter)14992"
      },
      {
        "astId": 23081,
        "contract": "src/priceGetter/DexPriceGetterV2.sol:DexPriceGetterV2",
        "label": "lbPriceFeeds",
        "offset": 0,
        "slot": "51",
        "type": "t_mapping(t_address,t_struct(LBPriceFeedInfo)23076_storage)"
      }
    ],
    "types": {
      "t_address": {
        "encoding": "inplace",
        "label": "address",
        "numberOfBytes": "20"
      },
      "t_array(t_uint256)49_storage": {
        "base": "t_uint256",
        "encoding": "inplace",
        "label": "uint256[49]",
        "numberOfBytes": "1568"
      },
      "t_bool": {
        "encoding": "inplace",
        "label": "bool",
        "numberOfBytes": "1"
      },
      "t_contract(IPriceGetter)14992": {
        "encoding": "inplace",
        "label": "contract IPriceGetter",
        "numberOfBytes": "20"
      },
      "t_mapping(t_address,t_struct(LBPriceFeedInfo)23076_storage)": {
        "encoding": "mapping",
        "key": "t_address",
        "label": "mapping(address => struct DexPriceGetterV2.LBPriceFeedInfo)",
        "numberOfBytes": "32",
        "value": "t_struct(LBPriceFeedInfo)23076_storage"
      },
      "t_struct(LBPriceFeedInfo)23076_storage": {
        "encoding": "inplace",
        "label": "struct DexPriceGetterV2.LBPriceFeedInfo",
        "members": [
          {
            "astId": 23071,
            "contract": "src/priceGetter/DexPriceGetterV2.sol:DexPriceGetterV2",
            "label": "lastCumulativeId",
            "offset": 0,
            "slot": "0",
            "type": "t_uint64"
          },
          {
            "astId": 23073,
            "contract": "src/priceGetter/DexPriceGetterV2.sol:DexPriceGetterV2",
            "label": "lastTimestamp",
            "offset": 0,
            "slot": "1",
            "type": "t_uint256"
          },
          {
            "astId": 23075,
            "contract": "src/priceGetter/DexPriceGetterV2.sol:DexPriceGetterV2",
            "label": "price",
            "offset": 0,
            "slot": "2",
            "type": "t_uint256"
          }
        ],
        "numberOfBytes": "96"
      },
      "t_uint256": {
        "encoding": "inplace",
        "label": "uint256",
        "numberOfBytes": "32"
      },
      "t_uint64": {
        "encoding": "inplace",
        "label": "uint64",
        "numberOfBytes": "8"
      },
      "t_uint8": {
        "encoding": "inplace",
        "label": "uint8",
        "numberOfBytes": "1"
      }
    }
  }
}