{
  "address": "0x916Ad85c990BFF9d4190039A363C3bE02Ba05f3A",
  "abi": [
    {
      "anonymous": false,
      "inputs": [
        {
          "indexed": false,
          "internalType": "uint8",
          "name": "version",
          "type": "uint8"
        }
      ],
      "name": "Initialized",
      "type": "event"
    },
    {
      "anonymous": false,
      "inputs": [
        {
          "indexed": false,
          "internalType": "string",
          "name": "policyToken",
          "type": "string"
        },
        {
          "indexed": false,
          "internalType": "address",
          "name": "pair",
          "type": "address"
        },
        {
          "indexed": false,
          "internalType": "uint256",
          "name": "decimals",
          "type": "uint256"
        },
        {
          "indexed": false,
          "internalType": "uint256",
          "name": "sampleInterval",
          "type": "uint256"
        },
        {
          "indexed": false,
          "internalType": "uint256",
          "name": "isToken0",
          "type": "uint256"
        }
      ],
      "name": "NewIDOPair",
      "type": "event"
    },
    {
      "anonymous": false,
      "inputs": [
        {
          "indexed": true,
          "internalType": "address",
          "name": "previousOwner",
          "type": "address"
        },
        {
          "indexed": true,
          "internalType": "address",
          "name": "newOwner",
          "type": "address"
        }
      ],
      "name": "OwnershipTransferred",
      "type": "event"
    },
    {
      "anonymous": false,
      "inputs": [
        {
          "indexed": false,
          "internalType": "string",
          "name": "policyToken",
          "type": "string"
        },
        {
          "indexed": false,
          "internalType": "uint256",
          "name": "priceAverage",
          "type": "uint256"
        },
        {
          "indexed": false,
          "internalType": "uint256",
          "name": "timestamp",
          "type": "uint256"
        }
      ],
      "name": "SamplePrice",
      "type": "event"
    },
    {
      "inputs": [],
      "name": "USDC",
      "outputs": [
        {
          "internalType": "address",
          "name": "",
          "type": "address"
        }
      ],
      "stateMutability": "view",
      "type": "function"
    },
    {
      "inputs": [],
      "name": "WAVAX",
      "outputs": [
        {
          "internalType": "address",
          "name": "",
          "type": "address"
        }
      ],
      "stateMutability": "view",
      "type": "function"
    },
    {
      "inputs": [
        {
          "internalType": "string",
          "name": "_policyToken",
          "type": "string"
        },
        {
          "internalType": "address",
          "name": "_pair",
          "type": "address"
        },
        {
          "internalType": "uint256",
          "name": "_decimals",
          "type": "uint256"
        },
        {
          "internalType": "uint256",
          "name": "_interval",
          "type": "uint256"
        }
      ],
      "name": "addIDOPair",
      "outputs": [],
      "stateMutability": "nonpayable",
      "type": "function"
    },
    {
      "inputs": [
        {
          "internalType": "address",
          "name": "",
          "type": "address"
        }
      ],
      "name": "addressToName",
      "outputs": [
        {
          "internalType": "string",
          "name": "",
          "type": "string"
        }
      ],
      "stateMutability": "view",
      "type": "function"
    },
    {
      "inputs": [],
      "name": "basePriceGetter",
      "outputs": [
        {
          "internalType": "contract IPriceGetter",
          "name": "",
          "type": "address"
        }
      ],
      "stateMutability": "view",
      "type": "function"
    },
    {
      "inputs": [
        {
          "internalType": "address",
          "name": "_token",
          "type": "address"
        }
      ],
      "name": "getLatestPrice",
      "outputs": [
        {
          "internalType": "uint256",
          "name": "",
          "type": "uint256"
        }
      ],
      "stateMutability": "nonpayable",
      "type": "function"
    },
    {
      "inputs": [
        {
          "internalType": "string",
          "name": "_policyToken",
          "type": "string"
        }
      ],
      "name": "getLatestPriceFromName",
      "outputs": [
        {
          "internalType": "uint256",
          "name": "price",
          "type": "uint256"
        }
      ],
      "stateMutability": "nonpayable",
      "type": "function"
    },
    {
      "inputs": [
        {
          "internalType": "address",
          "name": "_priceGetter",
          "type": "address"
        }
      ],
      "name": "initialize",
      "outputs": [],
      "stateMutability": "nonpayable",
      "type": "function"
    },
    {
      "inputs": [],
      "name": "owner",
      "outputs": [
        {
          "internalType": "address",
          "name": "",
          "type": "address"
        }
      ],
      "stateMutability": "view",
      "type": "function"
    },
    {
      "inputs": [
        {
          "internalType": "string",
          "name": "",
          "type": "string"
        }
      ],
      "name": "priceFeeds",
      "outputs": [
        {
          "internalType": "address",
          "name": "pair",
          "type": "address"
        },
        {
          "internalType": "uint256",
          "name": "decimals",
          "type": "uint256"
        },
        {
          "internalType": "uint256",
          "name": "sampleInterval",
          "type": "uint256"
        },
        {
          "internalType": "uint256",
          "name": "isToken0",
          "type": "uint256"
        },
        {
          "internalType": "uint256",
          "name": "priceAverage",
          "type": "uint256"
        },
        {
          "internalType": "uint256",
          "name": "priceCumulativeLast",
          "type": "uint256"
        },
        {
          "internalType": "uint256",
          "name": "lastTimestamp",
          "type": "uint256"
        }
      ],
      "stateMutability": "view",
      "type": "function"
    },
    {
      "inputs": [],
      "name": "renounceOwnership",
      "outputs": [],
      "stateMutability": "nonpayable",
      "type": "function"
    },
    {
      "inputs": [
        {
          "internalType": "string",
          "name": "_policyToken",
          "type": "string"
        }
      ],
      "name": "samplePrice",
      "outputs": [],
      "stateMutability": "nonpayable",
      "type": "function"
    },
    {
      "inputs": [
        {
          "internalType": "address",
          "name": "_token",
          "type": "address"
        },
        {
          "internalType": "string",
          "name": "_name",
          "type": "string"
        }
      ],
      "name": "setAddressToName",
      "outputs": [],
      "stateMutability": "nonpayable",
      "type": "function"
    },
    {
      "inputs": [
        {
          "internalType": "string",
          "name": "_policyToken",
          "type": "string"
        },
        {
          "internalType": "uint256",
          "name": "_price",
          "type": "uint256"
        }
      ],
      "name": "setPrice",
      "outputs": [],
      "stateMutability": "nonpayable",
      "type": "function"
    },
    {
      "inputs": [
        {
          "internalType": "address",
          "name": "newOwner",
          "type": "address"
        }
      ],
      "name": "transferOwnership",
      "outputs": [],
      "stateMutability": "nonpayable",
      "type": "function"
    }
  ],
  "transactionHash": "0x84a818937b189cdf135659194669731ff5635ce0f2927475007dc20b24d67ac0",
  "args": [],
  "numDeployments": 2,
  "solcInputHash": "91c748c152a2f55964c8661d430a850a",
  "bytecode": "0x60808060405234610016576114a8908161001c8239f35b600080fdfe6040608081526004908136101561001557600080fd5b600091823560e01c806316345f1814610e8b57806322e0119214610e3557806349bb4d27146109f85780636bf8910a146109cf578063715018a61461096f57806373b295c21461094057806389a30271146109115780638da5cb5b146108e8578063b4972aef14610776578063c4d66de81461061d578063cb8ae86c1461057b578063d171578b14610538578063e2392718146101c4578063e2a04b621461015a5763f2fde38b146100c657600080fd5b34610156576020366003190112610156576100df610ec8565b906100e86110cd565b6001600160a01b03821615610104575061010190611125565b51f35b608490602084519162461bcd60e51b8352820152602660248201527f4f776e61626c653a206e6577206f776e657220697320746865207a65726f206160448201526564647265737360d01b6064820152fd5b8280fd5b8284346101c15760203660031901126101c1576101919082906001600160a01b03610183610ec8565b168152606760205220611027565b9080518092602082526101b38151809281602086015260208686019101610fb8565b601f01601f19168101030190f35b80fd5b50919034610534576020806003193601126101565783356001600160401b038111610530576101f69036908601610ee3565b90918351828482378181848101606681520301902060018060a01b038154169663ffffffff8181421693858b8a5195868092635909c0d560e01b82525afa938415610526578a946104f3575b508184878d8c5193848092635a3d549360e01b82525afa9182156104e957908492918d926104b3575b506060829e8d5194858092630240bc6b60e21b82525afa80156104a9578d9081948291610474575b508988821603610411575b5050505050600681019a6102b5848d54168761125d565b9060018301549460028401549216918211156103d457918b9c93918795937f9b4359a4024cf42372af876d367b36bafd6cb68f8b58b78b1611b664ea994a299c9d506003830154151560001461038657506103319061032c600584019561032661032088548c611288565b91611293565b906112a1565b6112b4565b8c5161033c81610f10565b6001600160e01b03821690529590925560709490941c6001600160701b03169384915b015555610378875195869560608752606087019161123c565b92840152858301520390a151f35b96506103a29061032c600584019561032661032088548c611288565b8c516103ad81610f10565b6001600160e01b03821690529590925560709490941c6001600160701b031693849161035f565b8a5162461bcd60e51b81528085018990526017602482015276135a5b9a5b5d5b481cd85b5c1b19481a5b9d195c9d985b604a1b6044820152606490fd5b610469959f506104569394985061044b9161045c610432610462938d61125d565b946001600160e01b0394610456908c9087908f876112e0565b5116971680976112a1565b906112d4565b996112e0565b51166112a1565b99388080808061029e565b91505061049991935060603d81116104a2575b6104918183610f41565b810190611206565b91939138610293565b503d610487565b8c513d8f823e3d90fd5b89809294508193503d83116104e2575b6104cd8183610f41565b810103126104de575183913861026b565b8b80fd5b503d6104c3565b8b513d8e823e3d90fd5b9093508581813d831161051f575b61050b8183610f41565b8101031261051b57519238610242565b8980fd5b503d610501565b89513d8c823e3d90fd5b8380fd5b5080fd5b5091346101c15760203660031901126101c1578235906001600160401b0382116101c1575061056f60209361057492369101610f62565b61136d565b9051908152f35b5034610156576020366003190112610156578035926001600160401b0384116101c157506105c560206105b360e09536908501610f62565b81855193828580945193849201610fb8565b8101606681520301902060018060a01b03815416926001820154926002830154600384015491840154926006600586015495015495815197885260208801528601526060850152608084015260a083015260c0820152f35b503461015657602036600319011261015657610637610ec8565b835460ff8160081c161592838094610769575b8015610752575b156106f8575060ff1981166001178555826106e7575b5061068160ff855460081c1661067c81611173565b611173565b61068a33611125565b606580546001600160a01b0319166001600160a01b03929092169190911790556106b15751f35b61ff001982541682557f7f26b83ff96e1f2b6a682f133852f6798a09c465da95921460cefb38474024986020825160018152a151f35b61ffff191661010117845538610667565b608490602086519162461bcd60e51b8352820152602e60248201527f496e697469616c697a61626c653a20636f6e747261637420697320616c72656160448201526d191e481a5b9a5d1a585b1a5e995960921b6064820152fd5b50303b1580156106515750600160ff831614610651565b50600160ff83161061064a565b50919034610534578060031936011261053457610791610ec8565b926001600160401b036024358181116108e4576107b19036908401610f62565b946107ba6110cd565b6001600160a01b031684526067602090815283852086519093909283116108d157506107e68354610fed565b601f811161088e575b5080601f831160011461082b575084958293949592610820575b50508160011b916000199060031b1c191617905551f35b015190503880610809565b90601f198316968487528287209287905b898210610876575050836001959697981061085d575b505050811b01905551f35b015160001960f88460031b161c19169055388080610852565b8060018596829496860151815501950193019061083c565b838652818620601f840160051c8101918385106108c7575b601f0160051c01905b8181106108bc57506107ef565b8681556001016108af565b90915081906108a6565b634e487b7160e01b865260419052602485fd5b8480fd5b50503461053457816003193601126105345760335490516001600160a01b039091168152602090f35b5050346105345781600319360112610534576020905173af88d065e77c8cc2239327c5edb3a432268e58318152f35b505034610534578160031936011261053457602090517382af49447d8a07e3bd95bd0d56f35241523fbab18152f35b5050346105345781600319360112610534576109896110cd565b603380546001600160a01b0319811690915590519082906001600160a01b03167f8be0079c531659141344cd1fd0a4f28419497f9722a3daafe3b4186f6b6457e08284a3f35b50503461053457816003193601126105345760655490516001600160a01b039091168152602090f35b50346101565760803660031901126101565780356001600160401b03811161053057610a279036908301610ee3565b6024356001600160a01b0381811691829003610e3157606435604435610a4b6110cd565b875193630dfe168160e01b9384865260209586818b81865afa80156104e95782918d91610e14575b501615610de057895185815286818b81865afa80156104e95782918d91610dc3575b507382af49447d8a07e3bd95bd0d56f35241523fbab1921682148015610d6d575b15610d3a57808b51898b823788818b810160668152030190205416610d01578a51888a823760668982019081528190038801902080546001600160a01b0319168417815560018101859055600281018690558b519687529587818c81875afa9081156104a9578d91610cd4575b50161480159490610ccc5760ff60015b16948560038301558b8b51630240bc6b60e21b81526060818d81885afa908115610cc25763ffffffff9291610ca1575b5016600683015515610c2557858a51809a635909c0d560e01b825281855afa988915610c1b578b99610be7575b5060057f212544a34bde618b1304355fe54ed52a00db3723be0aae4d1f842043a23579af99915b0155610bcf895197889760a0895260a089019161123c565b9486015287850152606084015260808301520390a151f35b98508589813d8311610c14575b610bfe8183610f41565b81010312610c10579751976005610b90565b8a80fd5b503d610bf4565b8a513d8d823e3d90fd5b858a51809a635a3d549360e01b825281855afa988915610c1b578b99610c71575b5060057f212544a34bde618b1304355fe54ed52a00db3723be0aae4d1f842043a23579af9991610bb7565b98508589813d8311610c9a575b610c888183610f41565b81010312610c10579751976005610c46565b503d610c7e565b610cb9915060603d81116104a2576104918183610f41565b91505038610b63565b8d513d84823e3d90fd5b60ff8b610b33565b610cf49150883d8a11610cfa575b610cec8183610f41565b8101906111d3565b38610b23565b503d610ce2565b8a5162461bcd60e51b8152808b0188905260136024820152725061697220616c72656164792065786973747360681b6044820152606490fd5b8a5162461bcd60e51b8152808b01889052600d60248201526c2737ba1030bb30bc103830b4b960991b6044820152606490fd5b508a5163d21220a760e01b81528c88828d81885afa8015610db7578492849291610d9a575b501614610ab6565b610db191508a3d8c11610cfa57610cec8183610f41565b38610d92565b508c51903d90823e3d90fd5b610dda9150883d8a11610cfa57610cec8183610f41565b38610a95565b895162461bcd60e51b8152808a01879052600e60248201526d2737b71032bc34b9ba103830b4b960911b6044820152606490fd5b610e2b9150883d8a11610cfa57610cec8183610f41565b38610a73565b8680fd5b503461015657816003193601126101565780356001600160401b03811161053057610e639036908301610ee3565b610e6e9291926110cd565b808451938437820191606683526020816024359403019020015551f35b505034610534576020366003190112610534576020916105749061056f9083906001600160a01b03610ebb610ec8565b1681526067865220611027565b600435906001600160a01b0382168203610ede57565b600080fd5b9181601f84011215610ede578235916001600160401b038311610ede5760208381860195010111610ede57565b602081019081106001600160401b03821117610f2b57604052565b634e487b7160e01b600052604160045260246000fd5b90601f801991011681019081106001600160401b03821117610f2b57604052565b81601f82011215610ede578035906001600160401b038211610f2b5760405192610f96601f8401601f191660200185610f41565b82845260208383010111610ede57816000926020809301838601378301015290565b918091926000905b828210610fd8575011610fd1575050565b6000910152565b91508060209183015181860152018291610fc0565b90600182811c9216801561101d575b602083101461100757565b634e487b7160e01b600052602260045260246000fd5b91607f1691610ffc565b906040519182600082549261103b84610fed565b9081845260019485811690816000146110aa5750600114611067575b505061106592500383610f41565b565b9093915060005260209081600020936000915b81831061109257505061106593508201013880611057565b8554888401850152948501948794509183019161107a565b91505061106594506020925060ff191682840152151560051b8201013880611057565b6033546001600160a01b031633036110e157565b606460405162461bcd60e51b815260206004820152602060248201527f4f776e61626c653a2063616c6c6572206973206e6f7420746865206f776e65726044820152fd5b603380546001600160a01b039283166001600160a01b031982168117909255604051919216907f8be0079c531659141344cd1fd0a4f28419497f9722a3daafe3b4186f6b6457e090600090a3565b1561117a57565b60405162461bcd60e51b815260206004820152602b60248201527f496e697469616c697a61626c653a20636f6e7472616374206973206e6f74206960448201526a6e697469616c697a696e6760a81b6064820152608490fd5b90816020910312610ede57516001600160a01b0381168103610ede5790565b51906001600160701b0382168203610ede57565b90816060910312610ede5761121a816111f2565b916040611229602084016111f2565b92015163ffffffff81168103610ede5790565b908060209392818452848401376000828201840152601f01601f1916010190565b63ffffffff9182169116818110611272570390565b634e487b7160e01b600052601160045260246000fd5b818110611272570390565b604d811161127257600a0a90565b8060001904821181151516611272570290565b81156112be570490565b634e487b7160e01b600052601260045260246000fd5b81198111611272570190565b9060006040516112ef81610f10565b526001600160701b031690811561132e576040519161130d83610f10565b60709190911b600160701b600160e01b0316046001600160e01b0316815290565b60405162461bcd60e51b81526020600482015260176024820152764669786564506f696e743a204449565f42595f5a45524f60481b6044820152606490fd5b600460405182818094516113878160209788809601610fb8565b8101606681520301902001549081156114415760655460405163f66a1b7160e01b81526004808201849052602482015263082ac82b60e31b6044820152908290829060649082906000906001600160a01b03165af191821561143557600092611404575b5050670de0b6b3a764000091611400916112a1565b0490565b81819392933d831161142e575b61141b8183610f41565b810103126101c1575051816114006113eb565b503d611411565b6040513d6000823e3d90fd5b6064906040519062461bcd60e51b82526004820152600a6024820152695a65726f20507269636560b01b6044820152fdfea26469706673582212202965a850243a9191510d6f82bb42eef11c0437eed13582570813e1b29d6b8b7b64736f6c634300080f0033",
  "devdoc": {
    "kind": "dev",
    "methods": {
      "getLatestPrice(address)": {
        "params": {
          "_token": "Address of the token"
        },
        "returns": {
          "_0": "price The latest price"
        }
      },
      "getLatestPriceFromName(string)": {
        "params": {
          "_policyToken": "Policy token name"
        },
        "returns": {
          "price": "USD price of the base token"
        }
      },
      "owner()": {
        "details": "Returns the address of the current owner."
      },
      "renounceOwnership()": {
        "details": "Leaves the contract without owner. It will not be possible to call `onlyOwner` functions anymore. Can only be called by the current owner. NOTE: Renouncing ownership will leave the contract without an owner, thereby removing any functionality that is only available to the owner."
      },
      "setPrice(string,uint256)": {
        "params": {
          "_policyToken": "Policy token name",
          "_price": "Price in avax"
        }
      },
      "transferOwnership(address)": {
        "details": "Transfers ownership of the contract to a new account (`newOwner`). Can only be called by the current owner."
      }
    },
    "title": "Price Getter for IDO Protection",
    "version": 1
  },
  "userdoc": {
    "kind": "user",
    "methods": {
      "getLatestPrice(address)": {
        "notice": "Get latest price of a token"
      },
      "getLatestPriceFromName(string)": {
        "notice": "Get latest price"
      },
      "setPrice(string,uint256)": {
        "notice": "Set price in avax         Price in avax should be in 1e18"
      }
    },
    "notice": "This is the contract for getting price feed from DEX         IDO projects does not have Chainlink feeds so we use DEX TWAP price as oracle         Workflow:         1. Deploy naughty token for the IDO project and set its type as \"IDO\"         2. Add ido price feed info by calling \"addIDOPair\" function         3. Set auto tasks start within PERIOD to endTime to sample prices from DEX         4. Call \"settleFinalResult\" function in core to settle the final price",
    "version": 1
  },
  "storageLayout": {
    "storage": [
      {
        "astId": 184,
        "contract": "src/priceGetter/DexPriceGetter.sol:DexPriceGetter",
        "label": "_initialized",
        "offset": 0,
        "slot": "0",
        "type": "t_uint8"
      },
      {
        "astId": 187,
        "contract": "src/priceGetter/DexPriceGetter.sol:DexPriceGetter",
        "label": "_initializing",
        "offset": 1,
        "slot": "0",
        "type": "t_bool"
      },
      {
        "astId": 1326,
        "contract": "src/priceGetter/DexPriceGetter.sol:DexPriceGetter",
        "label": "__gap",
        "offset": 0,
        "slot": "1",
        "type": "t_array(t_uint256)50_storage"
      },
      {
        "astId": 56,
        "contract": "src/priceGetter/DexPriceGetter.sol:DexPriceGetter",
        "label": "_owner",
        "offset": 0,
        "slot": "51",
        "type": "t_address"
      },
      {
        "astId": 176,
        "contract": "src/priceGetter/DexPriceGetter.sol:DexPriceGetter",
        "label": "__gap",
        "offset": 0,
        "slot": "52",
        "type": "t_array(t_uint256)49_storage"
      },
      {
        "astId": 14428,
        "contract": "src/priceGetter/DexPriceGetter.sol:DexPriceGetter",
        "label": "basePriceGetter",
        "offset": 0,
        "slot": "101",
        "type": "t_contract(IPriceGetter)7004"
      },
      {
        "astId": 14448,
        "contract": "src/priceGetter/DexPriceGetter.sol:DexPriceGetter",
        "label": "priceFeeds",
        "offset": 0,
        "slot": "102",
        "type": "t_mapping(t_string_memory_ptr,t_struct(IDOPriceInfo)14443_storage)"
      },
      {
        "astId": 14452,
        "contract": "src/priceGetter/DexPriceGetter.sol:DexPriceGetter",
        "label": "addressToName",
        "offset": 0,
        "slot": "103",
        "type": "t_mapping(t_address,t_string_storage)"
      }
    ],
    "types": {
      "t_address": {
        "encoding": "inplace",
        "label": "address",
        "numberOfBytes": "20"
      },
      "t_array(t_uint256)49_storage": {
        "base": "t_uint256",
        "encoding": "inplace",
        "label": "uint256[49]",
        "numberOfBytes": "1568"
      },
      "t_array(t_uint256)50_storage": {
        "base": "t_uint256",
        "encoding": "inplace",
        "label": "uint256[50]",
        "numberOfBytes": "1600"
      },
      "t_bool": {
        "encoding": "inplace",
        "label": "bool",
        "numberOfBytes": "1"
      },
      "t_contract(IPriceGetter)7004": {
        "encoding": "inplace",
        "label": "contract IPriceGetter",
        "numberOfBytes": "20"
      },
      "t_mapping(t_address,t_string_storage)": {
        "encoding": "mapping",
        "key": "t_address",
        "label": "mapping(address => string)",
        "numberOfBytes": "32",
        "value": "t_string_storage"
      },
      "t_mapping(t_string_memory_ptr,t_struct(IDOPriceInfo)14443_storage)": {
        "encoding": "mapping",
        "key": "t_string_memory_ptr",
        "label": "mapping(string => struct DexPriceGetter.IDOPriceInfo)",
        "numberOfBytes": "32",
        "value": "t_struct(IDOPriceInfo)14443_storage"
      },
      "t_string_memory_ptr": {
        "encoding": "bytes",
        "label": "string",
        "numberOfBytes": "32"
      },
      "t_string_storage": {
        "encoding": "bytes",
        "label": "string",
        "numberOfBytes": "32"
      },
      "t_struct(IDOPriceInfo)14443_storage": {
        "encoding": "inplace",
        "label": "struct DexPriceGetter.IDOPriceInfo",
        "members": [
          {
            "astId": 14430,
            "contract": "src/priceGetter/DexPriceGetter.sol:DexPriceGetter",
            "label": "pair",
            "offset": 0,
            "slot": "0",
            "type": "t_address"
          },
          {
            "astId": 14432,
            "contract": "src/priceGetter/DexPriceGetter.sol:DexPriceGetter",
            "label": "decimals",
            "offset": 0,
            "slot": "1",
            "type": "t_uint256"
          },
          {
            "astId": 14434,
            "contract": "src/priceGetter/DexPriceGetter.sol:DexPriceGetter",
            "label": "sampleInterval",
            "offset": 0,
            "slot": "2",
            "type": "t_uint256"
          },
          {
            "astId": 14436,
            "contract": "src/priceGetter/DexPriceGetter.sol:DexPriceGetter",
            "label": "isToken0",
            "offset": 0,
            "slot": "3",
            "type": "t_uint256"
          },
          {
            "astId": 14438,
            "contract": "src/priceGetter/DexPriceGetter.sol:DexPriceGetter",
            "label": "priceAverage",
            "offset": 0,
            "slot": "4",
            "type": "t_uint256"
          },
          {
            "astId": 14440,
            "contract": "src/priceGetter/DexPriceGetter.sol:DexPriceGetter",
            "label": "priceCumulativeLast",
            "offset": 0,
            "slot": "5",
            "type": "t_uint256"
          },
          {
            "astId": 14442,
            "contract": "src/priceGetter/DexPriceGetter.sol:DexPriceGetter",
            "label": "lastTimestamp",
            "offset": 0,
            "slot": "6",
            "type": "t_uint256"
          }
        ],
        "numberOfBytes": "224"
      },
      "t_uint256": {
        "encoding": "inplace",
        "label": "uint256",
        "numberOfBytes": "32"
      },
      "t_uint8": {
        "encoding": "inplace",
        "label": "uint8",
        "numberOfBytes": "1"
      }
    }
  }
}