{
  "address": "0xb61583AA6ff8e89f8dADb99343AB5b842738351d",
  "abi": [
    {
      "anonymous": false,
      "inputs": [
        {
          "indexed": false,
          "internalType": "uint8",
          "name": "version",
          "type": "uint8"
        }
      ],
      "name": "Initialized",
      "type": "event"
    },
    {
      "anonymous": false,
      "inputs": [
        {
          "indexed": true,
          "internalType": "address",
          "name": "previousOwner",
          "type": "address"
        },
        {
          "indexed": true,
          "internalType": "address",
          "name": "newOwner",
          "type": "address"
        }
      ],
      "name": "OwnershipTransferred",
      "type": "event"
    },
    {
      "inputs": [],
      "name": "ARB",
      "outputs": [
        {
          "internalType": "address",
          "name": "",
          "type": "address"
        }
      ],
      "stateMutability": "view",
      "type": "function"
    },
    {
      "inputs": [],
      "name": "ARB_WETH_FEE",
      "outputs": [
        {
          "internalType": "uint256",
          "name": "",
          "type": "uint256"
        }
      ],
      "stateMutability": "view",
      "type": "function"
    },
    {
      "inputs": [],
      "name": "GMX_WETH_FEE",
      "outputs": [
        {
          "internalType": "uint256",
          "name": "",
          "type": "uint256"
        }
      ],
      "stateMutability": "view",
      "type": "function"
    },
    {
      "inputs": [],
      "name": "GNS_WETH_FEE",
      "outputs": [
        {
          "internalType": "uint256",
          "name": "",
          "type": "uint256"
        }
      ],
      "stateMutability": "view",
      "type": "function"
    },
    {
      "inputs": [],
      "name": "JOE",
      "outputs": [
        {
          "internalType": "address",
          "name": "",
          "type": "address"
        }
      ],
      "stateMutability": "view",
      "type": "function"
    },
    {
      "inputs": [],
      "name": "JOE_LB_FACTORY",
      "outputs": [
        {
          "internalType": "address",
          "name": "",
          "type": "address"
        }
      ],
      "stateMutability": "view",
      "type": "function"
    },
    {
      "inputs": [],
      "name": "LDO_WETH_FEE",
      "outputs": [
        {
          "internalType": "uint256",
          "name": "",
          "type": "uint256"
        }
      ],
      "stateMutability": "view",
      "type": "function"
    },
    {
      "inputs": [],
      "name": "UNI_V3_FACTORY",
      "outputs": [
        {
          "internalType": "address",
          "name": "",
          "type": "address"
        }
      ],
      "stateMutability": "view",
      "type": "function"
    },
    {
      "inputs": [],
      "name": "USDT",
      "outputs": [
        {
          "internalType": "address",
          "name": "",
          "type": "address"
        }
      ],
      "stateMutability": "view",
      "type": "function"
    },
    {
      "inputs": [],
      "name": "WETH",
      "outputs": [
        {
          "internalType": "address",
          "name": "",
          "type": "address"
        }
      ],
      "stateMutability": "view",
      "type": "function"
    },
    {
      "inputs": [],
      "name": "WOM",
      "outputs": [
        {
          "internalType": "address",
          "name": "",
          "type": "address"
        }
      ],
      "stateMutability": "view",
      "type": "function"
    },
    {
      "inputs": [],
      "name": "WOM_USDT_FEE",
      "outputs": [
        {
          "internalType": "uint256",
          "name": "",
          "type": "uint256"
        }
      ],
      "stateMutability": "view",
      "type": "function"
    },
    {
      "inputs": [],
      "name": "basePriceGetter",
      "outputs": [
        {
          "internalType": "contract IPriceGetter",
          "name": "",
          "type": "address"
        }
      ],
      "stateMutability": "view",
      "type": "function"
    },
    {
      "inputs": [
        {
          "internalType": "address",
          "name": "_token",
          "type": "address"
        }
      ],
      "name": "getLatestPrice",
      "outputs": [
        {
          "internalType": "uint256",
          "name": "",
          "type": "uint256"
        }
      ],
      "stateMutability": "nonpayable",
      "type": "function"
    },
    {
      "inputs": [
        {
          "internalType": "uint160",
          "name": "sqrtPriceX96",
          "type": "uint160"
        }
      ],
      "name": "getPriceX96FromSqrtPriceX96",
      "outputs": [
        {
          "internalType": "uint256",
          "name": "priceX96",
          "type": "uint256"
        }
      ],
      "stateMutability": "pure",
      "type": "function"
    },
    {
      "inputs": [
        {
          "internalType": "address",
          "name": "uniswapV3Pool",
          "type": "address"
        },
        {
          "internalType": "uint32",
          "name": "twapInterval",
          "type": "uint32"
        }
      ],
      "name": "getSqrtTwapX96",
      "outputs": [
        {
          "internalType": "uint160",
          "name": "sqrtPriceX96",
          "type": "uint160"
        }
      ],
      "stateMutability": "view",
      "type": "function"
    },
    {
      "inputs": [
        {
          "internalType": "address",
          "name": "_priceGetter",
          "type": "address"
        }
      ],
      "name": "initialize",
      "outputs": [],
      "stateMutability": "nonpayable",
      "type": "function"
    },
    {
      "inputs": [
        {
          "internalType": "address",
          "name": "",
          "type": "address"
        }
      ],
      "name": "lbPriceFeeds",
      "outputs": [
        {
          "internalType": "uint64",
          "name": "lastCumulativeId",
          "type": "uint64"
        },
        {
          "internalType": "uint256",
          "name": "lastTimestamp",
          "type": "uint256"
        },
        {
          "internalType": "uint256",
          "name": "price",
          "type": "uint256"
        }
      ],
      "stateMutability": "view",
      "type": "function"
    },
    {
      "inputs": [],
      "name": "owner",
      "outputs": [
        {
          "internalType": "address",
          "name": "",
          "type": "address"
        }
      ],
      "stateMutability": "view",
      "type": "function"
    },
    {
      "inputs": [],
      "name": "renounceOwnership",
      "outputs": [],
      "stateMutability": "nonpayable",
      "type": "function"
    },
    {
      "inputs": [
        {
          "internalType": "address",
          "name": "_token",
          "type": "address"
        }
      ],
      "name": "samplePriceFromLB",
      "outputs": [
        {
          "internalType": "uint256",
          "name": "",
          "type": "uint256"
        }
      ],
      "stateMutability": "nonpayable",
      "type": "function"
    },
    {
      "inputs": [
        {
          "internalType": "address",
          "name": "_token",
          "type": "address"
        }
      ],
      "name": "samplePriceFromUniV3",
      "outputs": [
        {
          "internalType": "uint256",
          "name": "",
          "type": "uint256"
        }
      ],
      "stateMutability": "nonpayable",
      "type": "function"
    },
    {
      "inputs": [
        {
          "internalType": "address",
          "name": "newOwner",
          "type": "address"
        }
      ],
      "name": "transferOwnership",
      "outputs": [],
      "stateMutability": "nonpayable",
      "type": "function"
    }
  ],
  "transactionHash": "0x0cb91a21d1e0ad62cfc7447c51d2791c0a460e627290cc1c143e0fa8f6806729",
  "args": [],
  "numDeployments": 12,
  "solcInputHash": "1b6bc21b7b3a69d39d1fce2cfd567718",
  "bytecode": "0x6080806040523461001657611ea1908161001c8239f35b600080fdfe60806040526004361015610013575b600080fd5b60003560e01c806313b44de01461012b57806314494fe3146101c457806316345f18146101bb5780631a9bef41146101b25780632f2eec37146101a957806347628f60146101a05780634e09a6101461019757806364a285fd1461018e5780636bf8910a14610185578063715018a61461017c5780638118a0341461017357806383828cd11461016a5780638da5cb5b146101615780639c490eab14610158578063ad5c46481461014f578063c4d66de814610146578063c54e44eb1461013d578063cbdef32a14610134578063d1e501f41461012b578063d20e32e61461012b578063d48e47b81461012b578063f2fde38b146101225763ffebad301461011a57600080fd5b61000e61086a565b5061000e6107cf565b5061000e6101cd565b5061000e61079f565b5061000e61076f565b5061000e610680565b5061000e610650565b5061000e610628565b5061000e6105fa565b5061000e6105ca565b5061000e61056c565b5061000e610501565b5061000e6104d7565b5061000e6104a7565b5061000e610475565b5061000e6102a2565b5061000e610272565b5061000e610254565b5061000e61022c565b5061000e6101fc565b503461000e57600036600319011261000e576020604051610bb88152f35b6001600160a01b0381160361000e57565b503461000e57602036600319011261000e57602061022460043561021f816101eb565b610e2c565b604051908152f35b503461000e57602036600319011261000e57602061022460043561024f816101eb565b610970565b503461000e57600036600319011261000e5760206040516101f48152f35b503461000e57600036600319011261000e576020604051731f98431c8ad98523631ae4a59f267346ea31f9848152f35b503461000e57604036600319011261000e576004356102c0816101eb565b6024359063ffffffff82169182810361000e57602092600090610367575050604051633850c7bd60e01b81529060e090829060049082906001600160a01b03165afa90811561035a575b600091610326575b505b6040516001600160a01b039091168152f35b610347915060e03d8111610353575b61033f8183610a38565b810190610ce5565b50505050505038610312565b503d610335565b610362610c41565b61030a565b61042761043a9261042261041961040d856103ca61042f9761043f9a61038b610a7f565b906103a48961039984610ad0565b9063ffffffff169052565b826103ae83610aea565b52604051808095819463883bdbfd60e01b835260048301610c00565b03916001600160a01b03165afa918215610468575b8092610444575b50506104076103fa6104016103fa84610aea565b5160060b90565b92610ad0565b90610c4e565b66ffffffffffffff1690565b63ffffffff1690565b610ca7565b62ffffff1690565b62ffffff1660020b90565b611aa8565b610314565b61046092503d8091833e6104588183610a38565b810190610b63565b5038806103e6565b610470610c41565b6103df565b503461000e57602036600319011261000e576020610224600435610498816101eb565b6001600160a01b0316806119e4565b503461000e57600036600319011261000e57602060405173912ce59144191c1204e64559fe8253a0e49e65488152f35b503461000e57600036600319011261000e576032546040516001600160a01b039091168152602090f35b503461000e57600080600319360112610569578054601081901c6001600160a01b031690610530338314611dd2565b82604051927f8be0079c531659141344cd1fd0a4f28419497f9722a3daafe3b4186f6b6457e08285a362010000600160b01b0319168255f35b80fd5b503461000e57602036600319011261000e5760043561058a816101eb565b60018060a01b03166000526033602052606060406000206001600160401b0381541690600260018201549101549060405192835260208301526040820152f35b503461000e57600036600319011261000e576020604051737b5eb3940021ec0e8e463d5dbb4b7b09a89ddf968152f35b503461000e57600036600319011261000e5760005460405160109190911c6001600160a01b03168152602090f35b503461000e57602036600319011261000e57602061022460043561064b816101eb565b611537565b503461000e57600036600319011261000e5760206040517382af49447d8a07e3bd95bd0d56f35241523fbab18152f35b503461000e57602036600319011261000e5760043561069e816101eb565b6106e2600054916106c660ff8460081c161580948195610761575b8115610741575b5061089a565b826106d9600160ff196000541617600055565b610728576108fd565b6106e9575b005b6106f961ff001960005416600055565b604051600181527f7f26b83ff96e1f2b6a682f133852f6798a09c465da95921460cefb384740249890602090a1005b61073c61010061ff00196000541617600055565b6108fd565b303b15915081610753575b50386106c0565b6001915060ff16143861074c565b600160ff82161091506106b9565b503461000e57600036600319011261000e57602060405173fd086bc7cd5c481dcc9c85ebe478a1c0b69fcbb98152f35b503461000e57600036600319011261000e576020604051738e42f2f4101563bf679975178e880fd87d3efd4e8152f35b503461000e57602036600319011261000e576004356107ed816101eb565b60018060a01b036108068160005460101c163314611dd2565b811615610816576106e790611e0b565b60405162461bcd60e51b815260206004820152602660248201527f4f776e61626c653a206e6577206f776e657220697320746865207a65726f206160448201526564647265737360d01b6064820152608490fd5b503461000e57600036600319011261000e57602060405173371c7ec6d8039ff7933a2aa28eb827ffe1f52f078152f35b156108a157565b60405162461bcd60e51b815260206004820152602e60248201527f496e697469616c697a61626c653a20636f6e747261637420697320616c72656160448201526d191e481a5b9a5d1a585b1a5e995960921b6064820152608490fd5b61091760ff60005460081c1661091281611d72565b611d72565b61092033611e0b565b603280546001600160a01b0319166001600160a01b0392909216919091179055565b50634e487b7160e01b600052601160045260246000fd5b818110610964570390565b61096c610942565b0390565b6001600160a01b03811673371c7ec6d8039ff7933a2aa28eb827ffe1f52f0781036109ef576000526033602052610e106001604060002001548042106109e2575b4203116109d6576001600160a01b031660009081526033602052604090206002015490565b6109df90611537565b90565b6109ea610942565b6109b1565b506109df90610e2c565b50634e487b7160e01b600052604160045260246000fd5b604081019081106001600160401b03821117610a2b57604052565b610a336109f9565b604052565b90601f801991011681019081106001600160401b03821117610a2b57604052565b6020906001600160401b038111610a72575b60051b0190565b610a7a6109f9565b610a6b565b60405190606082018281106001600160401b03821117610aac575b60405260028252604082602036910137565b610ab46109f9565b610a9a565b50634e487b7160e01b600052603260045260246000fd5b602090805115610ade570190565b610ae6610ab9565b0190565b604090805160011015610ade570190565b81601f8201121561000e57805191610b1283610a59565b92610b206040519485610a38565b808452602092838086019260051b82010192831161000e578301905b828210610b4a575050505090565b8380918351610b58816101eb565b815201910190610b3c565b91909160408184031261000e578051926001600160401b039384811161000e5782019381601f8601121561000e57845194610b9d86610a59565b90610bab6040519283610a38565b868252602096878084019160051b8301019185831161000e578801905b828210610be7575050509483015190811161000e576109df9201610afb565b81518060060b810361000e578152908801908801610bc8565b6020908160408183019282815285518094520193019160005b828110610c27575050505090565b835163ffffffff1685529381019392810192600101610c19565b506040513d6000823e3d90fd5b600691820b910b600082128015667fffffffffffff198401831216610c83575b82667fffffffffffff01821316610964570390565b610c8b610942565b610c6e565b50634e487b7160e01b600052601260045260246000fd5b9063ffffffff809116918215610cbc57160490565b610cc4610c90565b160490565b519061ffff8216820361000e57565b5190811515820361000e57565b908160e091031261000e578051610cfb816101eb565b9160208201518060020b810361000e5791610d1860408201610cc9565b91610d2560608301610cc9565b91610d3260808201610cc9565b9160a082015160ff8116810361000e5760c06109df919301610cd8565b62ffffff6109df9163ffffffff610dc3610d856000610d6c610a7f565b610e109586610d7a83610ad0565b52826103ae83610aea565b03916001600160a01b03165afa908115610de8575b600091610dce575b50610db6610daf82610aea565b5191610ad0565b5160060b9060060b610c4e565b16041660020b611aa8565b610de1913d8091833e6104588183610a38565b5038610da2565b610df0610c41565b610d9a565b6109df906001600160a01b0316806119e4565b9081602091031261000e57516109df816101eb565b9081602091031261000e575190565b600091906001600160a01b03811673912ce59144191c1204e64559fe8253a0e49e65488103611063576101f4905b600090737b5eb3940021ec0e8e463d5dbb4b7b09a89ddf9603610fd8575050604051630b4c774160e11b8152737b5eb3940021ec0e8e463d5dbb4b7b09a89ddf96600482015273fd086bc7cd5c481dcc9c85ebe478a1c0b69fcbb96024820152610bb86044820152610f039150610efe90602081606481731f98431c8ad98523631ae4a59f267346ea31f9845afa908115610fcb575b600091610f9d575b50610d4f565b610df5565b50603254610f21906001600160a01b03165b6001600160a01b031690565b6040516302c68be360e31b81527382af49447d8a07e3bd95bd0d56f35241523fbab1600482015290602090829060249082906000905af18015610f90575b610f665750565b610f869060203d8111610f89575b610f7e8183610a38565b810190610e1d565b50565b503d610f74565b610f98610c41565b610f5f565b610fbe915060203d8111610fc4575b610fb68183610a38565b810190610e08565b38610ef8565b503d610fac565b610fd3610c41565b610ef0565b604051630b4c774160e11b81526001600160a01b039390931660048401527382af49447d8a07e3bd95bd0d56f35241523fbab1602484015262ffffff919091166044830152610f0391610efe9190602081606481731f98431c8ad98523631ae4a59f267346ea31f9845afa918215611056575b91610f9d5750610d4f565b61105e610c41565b61104b565b610bb890610e5a565b9081608091031261000e576110cf606060405192608084018481106001600160401b038211176110d7575b6040526110a381610cc9565b845260208101516110b3816101eb565b60208501526110c460408201610cd8565b604085015201610cd8565b606082015290565b6110df6109f9565b611097565b51906001600160401b038216820361000e57565b9081606091031261000e5761110c816110e4565b916109df604061111e602085016110e4565b93016110e4565b6040519061113282610a10565b600f82526e74696d65456c61707365643a20257360881b6020830152565b6040519061115d82610a10565b601082526f63756d756c617469766549643a20257360801b6020830152565b6040519061118982610a10565b60148252736c61737443756d756c617469766549643a20257360601b6020830152565b6001600160401b039182169116818110610964570390565b80156111d2575b6000190490565b6111da610c90565b6111cb565b81156111e9570490565b6111f1610c90565b0490565b6040519061120282610a10565b600d82526c6176657261676549643a20257360981b6020830152565b6040519061122b82610a10565b600982526870726963653a20257360b81b6020830152565b670de0b6b3a7640000908060001904821181151516611260570290565b611268610942565b0290565b6ffff97272373d413259a46990580e213a908060001904821181151516611260570290565b6ffff2e50f5f656932ef12357cf3c7fdcc908060001904821181151516611260570290565b6fffe5caca7e10e4e61c3624eaa0941cd0908060001904821181151516611260570290565b6fffcb9843d60f6159c9db58835c926644908060001904821181151516611260570290565b6fff973b41fa98c081472e6896dfb254c0908060001904821181151516611260570290565b6fff2ea16466c96a3843ec78b326b52861908060001904821181151516611260570290565b6ffe5dee046a99a2a811c461f1969c3053908060001904821181151516611260570290565b6ffcbe86c7900a88aedcffc83b479aa3a4908060001904821181151516611260570290565b6ff987a7253ac413176f2b074cf7815e54908060001904821181151516611260570290565b6ff3392b0822b70005940c7a398e4b70f3908060001904821181151516611260570290565b6fe7159475a2c29b7443b29c7fa6e889d9908060001904821181151516611260570290565b6fd097f3bdfd2022b8845ad8f792aa5825908060001904821181151516611260570290565b6fa9f746462d870fdf8a65dc1f90e061e5908060001904821181151516611260570290565b6f70d869a156d2a1b890bb3df62baf32f7908060001904821181151516611260570290565b6f31be135f97d08fd981231505542fcfa6908060001904821181151516611260570290565b6f09aa508b5b7a84e1c677de54f3e99bc9908060001904821181151516611260570290565b6e5d6af8dedb81196699c329225ee604908060001904821181151516611260570290565b6d2216e584f5fa1ea926041bedfe98908060001904821181151516611260570290565b6b048a170391f7dc42444e8fa2908060001904821181151516611260570290565b8060001904821181151516611260570290565b6115909060806115468261196a565b60405163704037bd60e01b81526001600160a01b03841660048201527382af49447d8a07e3bd95bd0d56f35241523fbab16024820152604481019190915292839081906064820190565b0381738e42f2f4101563bf679975178e880fd87d3efd4e5afa9182156118b7575b600092611887575b506020918201516115d690610f159081906001600160a01b031681565b6040516344a050b560e11b815264ffffffffff421660048201529091606082602481865afa91821561187a575b600092611844575b506001600160a01b031660009081526033602052604090205b600181019283541561181e57926116f79285926109df9662ffffff6117b4976116c2611651875442610959565b6116628161165d611125565b6118c4565b6116bd6116b1611670611150565b6116856001600160401b0391828c16906118c4565b6116ab6116998a546001600160401b031690565b916116a261117c565b908316906118c4565b896111ac565b6001600160401b031690565b6111df565b6116ce8161165d6111f5565b604051809981948293634c7cffbd60e01b8452166004830191909162ffffff6020820193169052565b03915afa948515611811575b6000956117ec575b509061174f9161171d8661165d61121e565b61172f61172987611243565b60801c90565b6002820155906001600160401b03166001600160401b0319825416179055565b429055603254611767906001600160a01b0316610f15565b6040516302c68be360e31b81527382af49447d8a07e3bd95bd0d56f35241523fbab16004820152908290829060249082906000905af19182156117df575b6000926117c2575b5050611524565b670de0b6b3a7640000900490565b6117d89250803d10610f8957610f7e8183610a38565b38806117ad565b6117e7610c41565b6117a5565b61174f9291955061180990853d8711610f8957610f7e8183610a38565b94909161170b565b611819610c41565b611703565b5042909255815467ffffffffffffffff19166001600160401b0390911617905550600090565b61162491925061186a9060603d8111611873575b6118628183610a38565b8101906110f8565b5050919061160b565b503d611858565b611882610c41565b611603565b6118a991925060803d81116118b0575b6118a18183610a38565b81019061106c565b90386115b9565b503d611897565b6118bf610c41565b6115b1565b91906040519060206309710a9d60e41b81840152604060248401528451948560648501526000915b86831061193957505082856119259361192a96976084941161192c575b6044830152601f80199101168101036064810184520182610a38565b61194f565b565b6000848385010152611909565b81830181015185840160840152918201916118ec565b600080916020815191016a636f6e736f6c652e6c6f675afa50565b6001600160a01b031673371c7ec6d8039ff7933a2aa28eb827ffe1f52f070361199257601490565b60405162461bcd60e51b815260206004820152600b60248201526a2bb937b733903a37b5b2b760a91b6044820152606490fd5b600160ff1b81146119d7575b60000390565b6119df610942565b6119d1565b6000199190828282099082810292838084109303928084039314611a5957600160601b918383111561000e570990828211808203911415818504600160a01b1116611a4c575b60a01b910360601c1780910460011181151516611a445790565b6109df610942565b611a54610942565b611a2a565b505050905060601c90565b15611a6b57565b60405162461bcd60e51b81526020600482015260016024820152601560fa1b6044820152606490fd5b81198111611aa0570190565b610ae6610942565b610f156109df9160020b60008112600014611d6c57611ac6816119c5565b905b611ad7620d89e8831115611a64565b6001821615611d62576ffffcb933bd6fad37aa2d162d1a5940015b6001600160881b03169160028116611d4f575b60048116611d3c575b60088116611d29575b60108116611d16575b60208116611d03575b60408116611cf0575b60808116611cdd575b6101008116611cca575b6102008116611cb7575b6104008116611ca4575b6108008116611c91575b6110008116611c7e575b6120008116611c6b575b6140008116611c58575b6180008116611c45575b620100008116611c32575b620200008116611c1f575b620400008116611c06575b6208000016611bef575b600012611be1575b63ffffffff8116611bd85760ff60005b169060201c611a94565b60ff6001611bce565b611bea906111c4565b611bbe565b90611bfe611729600092611503565b919050611bb6565b91611c1761172962080000926114e0565b929050611bac565b91611729611c2c916114bc565b91611ba1565b91611729611c3f91611497565b91611b96565b91611729611c5291611472565b91611b8b565b91611729611c659161144d565b91611b81565b91611729611c7891611428565b91611b77565b91611729611c8b91611403565b91611b6d565b91611729611c9e916113de565b91611b63565b91611729611cb1916113b9565b91611b59565b91611729611cc491611394565b91611b4f565b91611729611cd79161136f565b91611b45565b91611729611cea9161134a565b91611b3b565b91611729611cfd91611325565b91611b32565b91611729611d1091611300565b91611b29565b91611729611d23916112db565b91611b20565b91611729611d36916112b6565b91611b17565b91611729611d4991611291565b91611b0e565b91611729611d5c9161126c565b91611b05565b600160801b611af2565b80611ac8565b15611d7957565b60405162461bcd60e51b815260206004820152602b60248201527f496e697469616c697a61626c653a20636f6e7472616374206973206e6f74206960448201526a6e697469616c697a696e6760a81b6064820152608490fd5b15611dd957565b60405162461bcd60e51b815260206004820152600a60248201526927b7363c9037bbb732b960b11b6044820152606490fd5b6000549060018060a01b03808216908360101c167f8be0079c531659141344cd1fd0a4f28419497f9722a3daafe3b4186f6b6457e06000604051a362010000600160b01b031990911660109190911b62010000600160b01b03161760005556fea264697066735822122046306c4ca95b772aae3696a4edb6dc4854ee9429e2e453bff4c75ce591ea877964736f6c634300080f0033",
  "devdoc": {
    "kind": "dev",
    "methods": {
      "owner()": {
        "details": "Returns the address of the current owner."
      },
      "renounceOwnership()": {
        "details": "Leaves the contract without owner. It will not be possible to call `onlyOwner` functions anymore. Can only be called by the current owner. NOTE: Renouncing ownership will leave the contract without an owner, thereby removing any functionality that is only available to the owner."
      },
      "transferOwnership(address)": {
        "details": "Transfers ownership of the contract to a new account (`newOwner`). Can only be called by the current owner."
      }
    },
    "version": 1
  },
  "userdoc": {
    "kind": "user",
    "methods": {},
    "version": 1
  },
  "storageLayout": {
    "storage": [
      {
        "astId": 184,
        "contract": "src/priceGetter/DexPriceGetterV2.sol:DexPriceGetterV2",
        "label": "_initialized",
        "offset": 0,
        "slot": "0",
        "type": "t_uint8"
      },
      {
        "astId": 187,
        "contract": "src/priceGetter/DexPriceGetterV2.sol:DexPriceGetterV2",
        "label": "_initializing",
        "offset": 1,
        "slot": "0",
        "type": "t_bool"
      },
      {
        "astId": 27673,
        "contract": "src/priceGetter/DexPriceGetterV2.sol:DexPriceGetterV2",
        "label": "_owner",
        "offset": 2,
        "slot": "0",
        "type": "t_address"
      },
      {
        "astId": 27780,
        "contract": "src/priceGetter/DexPriceGetterV2.sol:DexPriceGetterV2",
        "label": "__gap",
        "offset": 0,
        "slot": "1",
        "type": "t_array(t_uint256)49_storage"
      },
      {
        "astId": 22891,
        "contract": "src/priceGetter/DexPriceGetterV2.sol:DexPriceGetterV2",
        "label": "basePriceGetter",
        "offset": 0,
        "slot": "50",
        "type": "t_contract(IPriceGetter)14984"
      },
      {
        "astId": 22903,
        "contract": "src/priceGetter/DexPriceGetterV2.sol:DexPriceGetterV2",
        "label": "lbPriceFeeds",
        "offset": 0,
        "slot": "51",
        "type": "t_mapping(t_address,t_struct(LBPriceFeedInfo)22898_storage)"
      }
    ],
    "types": {
      "t_address": {
        "encoding": "inplace",
        "label": "address",
        "numberOfBytes": "20"
      },
      "t_array(t_uint256)49_storage": {
        "base": "t_uint256",
        "encoding": "inplace",
        "label": "uint256[49]",
        "numberOfBytes": "1568"
      },
      "t_bool": {
        "encoding": "inplace",
        "label": "bool",
        "numberOfBytes": "1"
      },
      "t_contract(IPriceGetter)14984": {
        "encoding": "inplace",
        "label": "contract IPriceGetter",
        "numberOfBytes": "20"
      },
      "t_mapping(t_address,t_struct(LBPriceFeedInfo)22898_storage)": {
        "encoding": "mapping",
        "key": "t_address",
        "label": "mapping(address => struct DexPriceGetterV2.LBPriceFeedInfo)",
        "numberOfBytes": "32",
        "value": "t_struct(LBPriceFeedInfo)22898_storage"
      },
      "t_struct(LBPriceFeedInfo)22898_storage": {
        "encoding": "inplace",
        "label": "struct DexPriceGetterV2.LBPriceFeedInfo",
        "members": [
          {
            "astId": 22893,
            "contract": "src/priceGetter/DexPriceGetterV2.sol:DexPriceGetterV2",
            "label": "lastCumulativeId",
            "offset": 0,
            "slot": "0",
            "type": "t_uint64"
          },
          {
            "astId": 22895,
            "contract": "src/priceGetter/DexPriceGetterV2.sol:DexPriceGetterV2",
            "label": "lastTimestamp",
            "offset": 0,
            "slot": "1",
            "type": "t_uint256"
          },
          {
            "astId": 22897,
            "contract": "src/priceGetter/DexPriceGetterV2.sol:DexPriceGetterV2",
            "label": "price",
            "offset": 0,
            "slot": "2",
            "type": "t_uint256"
          }
        ],
        "numberOfBytes": "96"
      },
      "t_uint256": {
        "encoding": "inplace",
        "label": "uint256",
        "numberOfBytes": "32"
      },
      "t_uint64": {
        "encoding": "inplace",
        "label": "uint64",
        "numberOfBytes": "8"
      },
      "t_uint8": {
        "encoding": "inplace",
        "label": "uint8",
        "numberOfBytes": "1"
      }
    }
  }
}