{
  "address": "0xE15052779f6cD8CCEd9E5922a15229F90AE75C98",
  "abi": [
    {
      "inputs": [],
      "name": "IncidentReport__AlreadyClaimed",
      "type": "error"
    },
    {
      "inputs": [],
      "name": "IncidentReport__AlreadyPaid",
      "type": "error"
    },
    {
      "inputs": [],
      "name": "IncidentReport__AlreadyReported",
      "type": "error"
    },
    {
      "inputs": [],
      "name": "IncidentReport__AlreadySettled",
      "type": "error"
    },
    {
      "inputs": [],
      "name": "IncidentReport__ChooseBothSides",
      "type": "error"
    },
    {
      "inputs": [],
      "name": "IncidentReport__NoReward",
      "type": "error"
    },
    {
      "inputs": [],
      "name": "IncidentReport__NotEnoughVeDEG",
      "type": "error"
    },
    {
      "inputs": [],
      "name": "IncidentReport__NotSettled",
      "type": "error"
    },
    {
      "inputs": [],
      "name": "IncidentReport__NotWrongChoice",
      "type": "error"
    },
    {
      "inputs": [],
      "name": "IncidentReport__OnlyExecutor",
      "type": "error"
    },
    {
      "inputs": [],
      "name": "IncidentReport__PayoutExceedCovered",
      "type": "error"
    },
    {
      "inputs": [],
      "name": "IncidentReport__PoolNotExist",
      "type": "error"
    },
    {
      "inputs": [],
      "name": "IncidentReport__QuorumRatioTooBig",
      "type": "error"
    },
    {
      "inputs": [],
      "name": "IncidentReport__WrongChoice",
      "type": "error"
    },
    {
      "inputs": [],
      "name": "IncidentReport__WrongPeriod",
      "type": "error"
    },
    {
      "inputs": [],
      "name": "IncidentReport__WrongStatus",
      "type": "error"
    },
    {
      "inputs": [],
      "name": "IncidentReport__ZeroAmount",
      "type": "error"
    },
    {
      "anonymous": false,
      "inputs": [
        {
          "indexed": false,
          "internalType": "address",
          "name": "payer",
          "type": "address"
        },
        {
          "indexed": false,
          "internalType": "address",
          "name": "user",
          "type": "address"
        },
        {
          "indexed": false,
          "internalType": "uint256",
          "name": "debt",
          "type": "uint256"
        },
        {
          "indexed": false,
          "internalType": "uint256",
          "name": "unlockAmount",
          "type": "uint256"
        }
      ],
      "name": "DebtPaid",
      "type": "event"
    },
    {
      "anonymous": false,
      "inputs": [
        {
          "indexed": false,
          "internalType": "uint8",
          "name": "version",
          "type": "uint8"
        }
      ],
      "name": "Initialized",
      "type": "event"
    },
    {
      "anonymous": false,
      "inputs": [
        {
          "indexed": true,
          "internalType": "address",
          "name": "previousOwner",
          "type": "address"
        },
        {
          "indexed": true,
          "internalType": "address",
          "name": "newOwner",
          "type": "address"
        }
      ],
      "name": "OwnershipTransferred",
      "type": "event"
    },
    {
      "anonymous": false,
      "inputs": [
        {
          "indexed": false,
          "internalType": "uint256",
          "name": "reportId",
          "type": "uint256"
        },
        {
          "indexed": false,
          "internalType": "uint256",
          "name": "closeTimestamp",
          "type": "uint256"
        }
      ],
      "name": "ReportClosed",
      "type": "event"
    },
    {
      "anonymous": false,
      "inputs": [
        {
          "indexed": false,
          "internalType": "uint256",
          "name": "reportId",
          "type": "uint256"
        },
        {
          "indexed": true,
          "internalType": "uint256",
          "name": "poolId",
          "type": "uint256"
        },
        {
          "indexed": false,
          "internalType": "uint256",
          "name": "reportTimestamp",
          "type": "uint256"
        },
        {
          "indexed": true,
          "internalType": "address",
          "name": "reporter",
          "type": "address"
        },
        {
          "indexed": false,
          "internalType": "uint256",
          "name": "payout",
          "type": "uint256"
        }
      ],
      "name": "ReportCreated",
      "type": "event"
    },
    {
      "anonymous": false,
      "inputs": [
        {
          "indexed": false,
          "internalType": "uint256",
          "name": "reportId",
          "type": "uint256"
        },
        {
          "indexed": false,
          "internalType": "uint256",
          "name": "round",
          "type": "uint256"
        }
      ],
      "name": "ReportExtended",
      "type": "event"
    },
    {
      "anonymous": false,
      "inputs": [
        {
          "indexed": false,
          "internalType": "uint256",
          "name": "reportId",
          "type": "uint256"
        }
      ],
      "name": "ReportFailed",
      "type": "event"
    },
    {
      "anonymous": false,
      "inputs": [
        {
          "indexed": false,
          "internalType": "uint256",
          "name": "reportId",
          "type": "uint256"
        },
        {
          "indexed": false,
          "internalType": "uint256",
          "name": "result",
          "type": "uint256"
        }
      ],
      "name": "ReportSettled",
      "type": "event"
    },
    {
      "anonymous": false,
      "inputs": [
        {
          "indexed": false,
          "internalType": "uint256",
          "name": "reportId",
          "type": "uint256"
        },
        {
          "indexed": true,
          "internalType": "address",
          "name": "user",
          "type": "address"
        },
        {
          "indexed": false,
          "internalType": "uint256",
          "name": "voteFor",
          "type": "uint256"
        },
        {
          "indexed": false,
          "internalType": "uint256",
          "name": "amount",
          "type": "uint256"
        }
      ],
      "name": "ReportVoted",
      "type": "event"
    },
    {
      "anonymous": false,
      "inputs": [
        {
          "indexed": false,
          "internalType": "uint256",
          "name": "reportId",
          "type": "uint256"
        },
        {
          "indexed": false,
          "internalType": "uint256",
          "name": "startTimestamp",
          "type": "uint256"
        }
      ],
      "name": "ReportVotingStart",
      "type": "event"
    },
    {
      "anonymous": false,
      "inputs": [
        {
          "indexed": false,
          "internalType": "uint256",
          "name": "reportId",
          "type": "uint256"
        },
        {
          "indexed": false,
          "internalType": "uint256",
          "name": "totalRewardToVoters",
          "type": "uint256"
        }
      ],
      "name": "VotingRewardSettled",
      "type": "event"
    },
    {
      "inputs": [],
      "name": "COOLDOWN_WRONG_REPORT",
      "outputs": [
        {
          "internalType": "uint256",
          "name": "",
          "type": "uint256"
        }
      ],
      "stateMutability": "view",
      "type": "function"
    },
    {
      "inputs": [],
      "name": "DEBT_RATIO",
      "outputs": [
        {
          "internalType": "uint256",
          "name": "",
          "type": "uint256"
        }
      ],
      "stateMutability": "view",
      "type": "function"
    },
    {
      "inputs": [],
      "name": "EXTEND_PERIOD",
      "outputs": [
        {
          "internalType": "uint256",
          "name": "",
          "type": "uint256"
        }
      ],
      "stateMutability": "view",
      "type": "function"
    },
    {
      "inputs": [],
      "name": "INCIDENT_VOTING_PERIOD",
      "outputs": [
        {
          "internalType": "uint256",
          "name": "",
          "type": "uint256"
        }
      ],
      "stateMutability": "view",
      "type": "function"
    },
    {
      "inputs": [],
      "name": "MAX_EXTEND_ROUND",
      "outputs": [
        {
          "internalType": "uint256",
          "name": "",
          "type": "uint256"
        }
      ],
      "stateMutability": "view",
      "type": "function"
    },
    {
      "inputs": [],
      "name": "PENDING_PERIOD",
      "outputs": [
        {
          "internalType": "uint256",
          "name": "",
          "type": "uint256"
        }
      ],
      "stateMutability": "view",
      "type": "function"
    },
    {
      "inputs": [],
      "name": "REPORTER_REWARD",
      "outputs": [
        {
          "internalType": "uint256",
          "name": "",
          "type": "uint256"
        }
      ],
      "stateMutability": "view",
      "type": "function"
    },
    {
      "inputs": [],
      "name": "REPORT_THRESHOLD",
      "outputs": [
        {
          "internalType": "uint256",
          "name": "",
          "type": "uint256"
        }
      ],
      "stateMutability": "view",
      "type": "function"
    },
    {
      "inputs": [],
      "name": "RESERVE_RATIO",
      "outputs": [
        {
          "internalType": "uint256",
          "name": "",
          "type": "uint256"
        }
      ],
      "stateMutability": "view",
      "type": "function"
    },
    {
      "inputs": [],
      "name": "REWARD_RATIO",
      "outputs": [
        {
          "internalType": "uint256",
          "name": "",
          "type": "uint256"
        }
      ],
      "stateMutability": "view",
      "type": "function"
    },
    {
      "inputs": [],
      "name": "SAMPLE_PERIOD",
      "outputs": [
        {
          "internalType": "uint256",
          "name": "",
          "type": "uint256"
        }
      ],
      "stateMutability": "view",
      "type": "function"
    },
    {
      "inputs": [
        {
          "internalType": "uint256",
          "name": "_id",
          "type": "uint256"
        }
      ],
      "name": "claimReward",
      "outputs": [],
      "stateMutability": "nonpayable",
      "type": "function"
    },
    {
      "inputs": [
        {
          "internalType": "uint256",
          "name": "_id",
          "type": "uint256"
        }
      ],
      "name": "closeReport",
      "outputs": [],
      "stateMutability": "nonpayable",
      "type": "function"
    },
    {
      "inputs": [
        {
          "internalType": "uint256",
          "name": "_reportId",
          "type": "uint256"
        }
      ],
      "name": "executed",
      "outputs": [],
      "stateMutability": "nonpayable",
      "type": "function"
    },
    {
      "inputs": [],
      "name": "executor",
      "outputs": [
        {
          "internalType": "address",
          "name": "",
          "type": "address"
        }
      ],
      "stateMutability": "view",
      "type": "function"
    },
    {
      "inputs": [
        {
          "internalType": "uint256",
          "name": "_poolId",
          "type": "uint256"
        }
      ],
      "name": "getPoolReports",
      "outputs": [
        {
          "internalType": "uint256[]",
          "name": "",
          "type": "uint256[]"
        }
      ],
      "stateMutability": "view",
      "type": "function"
    },
    {
      "inputs": [
        {
          "internalType": "uint256",
          "name": "_poolId",
          "type": "uint256"
        }
      ],
      "name": "getPoolReportsAmount",
      "outputs": [
        {
          "internalType": "uint256",
          "name": "",
          "type": "uint256"
        }
      ],
      "stateMutability": "view",
      "type": "function"
    },
    {
      "inputs": [
        {
          "internalType": "uint256",
          "name": "_id",
          "type": "uint256"
        }
      ],
      "name": "getReport",
      "outputs": [
        {
          "components": [
            {
              "internalType": "uint256",
              "name": "poolId",
              "type": "uint256"
            },
            {
              "internalType": "uint256",
              "name": "reportTimestamp",
              "type": "uint256"
            },
            {
              "internalType": "address",
              "name": "reporter",
              "type": "address"
            },
            {
              "internalType": "uint256",
              "name": "voteTimestamp",
              "type": "uint256"
            },
            {
              "internalType": "uint256",
              "name": "numFor",
              "type": "uint256"
            },
            {
              "internalType": "uint256",
              "name": "numAgainst",
              "type": "uint256"
            },
            {
              "internalType": "uint256",
              "name": "round",
              "type": "uint256"
            },
            {
              "internalType": "uint256",
              "name": "status",
              "type": "uint256"
            },
            {
              "internalType": "uint256",
              "name": "result",
              "type": "uint256"
            },
            {
              "internalType": "uint256",
              "name": "votingReward",
              "type": "uint256"
            },
            {
              "internalType": "uint256",
              "name": "payout",
              "type": "uint256"
            }
          ],
          "internalType": "struct IncidentReport.Report",
          "name": "",
          "type": "tuple"
        }
      ],
      "stateMutability": "view",
      "type": "function"
    },
    {
      "inputs": [
        {
          "internalType": "uint256",
          "name": "_poolId",
          "type": "uint256"
        }
      ],
      "name": "getTempResult",
      "outputs": [
        {
          "components": [
            {
              "internalType": "uint256",
              "name": "result",
              "type": "uint256"
            },
            {
              "internalType": "uint256",
              "name": "sampleTimestamp",
              "type": "uint256"
            },
            {
              "internalType": "bool",
              "name": "hasChanged",
              "type": "bool"
            }
          ],
          "internalType": "struct IncidentReport.TempResult",
          "name": "",
          "type": "tuple"
        }
      ],
      "stateMutability": "view",
      "type": "function"
    },
    {
      "inputs": [
        {
          "internalType": "address",
          "name": "_user",
          "type": "address"
        },
        {
          "internalType": "uint256",
          "name": "_poolId",
          "type": "uint256"
        }
      ],
      "name": "getUserVote",
      "outputs": [
        {
          "components": [
            {
              "internalType": "uint256",
              "name": "choice",
              "type": "uint256"
            },
            {
              "internalType": "uint256",
              "name": "amount",
              "type": "uint256"
            },
            {
              "internalType": "bool",
              "name": "claimed",
              "type": "bool"
            },
            {
              "internalType": "bool",
              "name": "paid",
              "type": "bool"
            }
          ],
          "internalType": "struct IncidentReport.UserVote",
          "name": "",
          "type": "tuple"
        }
      ],
      "stateMutability": "view",
      "type": "function"
    },
    {
      "inputs": [
        {
          "internalType": "address",
          "name": "_deg",
          "type": "address"
        },
        {
          "internalType": "address",
          "name": "_veDeg",
          "type": "address"
        }
      ],
      "name": "initialize",
      "outputs": [],
      "stateMutability": "nonpayable",
      "type": "function"
    },
    {
      "inputs": [],
      "name": "owner",
      "outputs": [
        {
          "internalType": "address",
          "name": "",
          "type": "address"
        }
      ],
      "stateMutability": "view",
      "type": "function"
    },
    {
      "inputs": [
        {
          "internalType": "uint256",
          "name": "_id",
          "type": "uint256"
        },
        {
          "internalType": "address",
          "name": "_user",
          "type": "address"
        }
      ],
      "name": "payDebt",
      "outputs": [],
      "stateMutability": "nonpayable",
      "type": "function"
    },
    {
      "inputs": [
        {
          "internalType": "uint256",
          "name": "",
          "type": "uint256"
        },
        {
          "internalType": "uint256",
          "name": "",
          "type": "uint256"
        }
      ],
      "name": "poolReports",
      "outputs": [
        {
          "internalType": "uint256",
          "name": "",
          "type": "uint256"
        }
      ],
      "stateMutability": "view",
      "type": "function"
    },
    {
      "inputs": [],
      "name": "priorityPoolFactory",
      "outputs": [
        {
          "internalType": "contract IPriorityPoolFactory",
          "name": "",
          "type": "address"
        }
      ],
      "stateMutability": "view",
      "type": "function"
    },
    {
      "inputs": [],
      "name": "quorumRatio",
      "outputs": [
        {
          "internalType": "uint256",
          "name": "",
          "type": "uint256"
        }
      ],
      "stateMutability": "view",
      "type": "function"
    },
    {
      "inputs": [],
      "name": "renounceOwnership",
      "outputs": [],
      "stateMutability": "nonpayable",
      "type": "function"
    },
    {
      "inputs": [
        {
          "internalType": "uint256",
          "name": "_poolId",
          "type": "uint256"
        },
        {
          "internalType": "uint256",
          "name": "_payout",
          "type": "uint256"
        }
      ],
      "name": "report",
      "outputs": [],
      "stateMutability": "nonpayable",
      "type": "function"
    },
    {
      "inputs": [],
      "name": "reportCounter",
      "outputs": [
        {
          "internalType": "uint256",
          "name": "",
          "type": "uint256"
        }
      ],
      "stateMutability": "view",
      "type": "function"
    },
    {
      "inputs": [
        {
          "internalType": "uint256",
          "name": "",
          "type": "uint256"
        }
      ],
      "name": "reported",
      "outputs": [
        {
          "internalType": "bool",
          "name": "",
          "type": "bool"
        }
      ],
      "stateMutability": "view",
      "type": "function"
    },
    {
      "inputs": [
        {
          "internalType": "uint256",
          "name": "",
          "type": "uint256"
        }
      ],
      "name": "reports",
      "outputs": [
        {
          "internalType": "uint256",
          "name": "poolId",
          "type": "uint256"
        },
        {
          "internalType": "uint256",
          "name": "reportTimestamp",
          "type": "uint256"
        },
        {
          "internalType": "address",
          "name": "reporter",
          "type": "address"
        },
        {
          "internalType": "uint256",
          "name": "voteTimestamp",
          "type": "uint256"
        },
        {
          "internalType": "uint256",
          "name": "numFor",
          "type": "uint256"
        },
        {
          "internalType": "uint256",
          "name": "numAgainst",
          "type": "uint256"
        },
        {
          "internalType": "uint256",
          "name": "round",
          "type": "uint256"
        },
        {
          "internalType": "uint256",
          "name": "status",
          "type": "uint256"
        },
        {
          "internalType": "uint256",
          "name": "result",
          "type": "uint256"
        },
        {
          "internalType": "uint256",
          "name": "votingReward",
          "type": "uint256"
        },
        {
          "internalType": "uint256",
          "name": "payout",
          "type": "uint256"
        }
      ],
      "stateMutability": "view",
      "type": "function"
    },
    {
      "inputs": [
        {
          "internalType": "address",
          "name": "_executor",
          "type": "address"
        }
      ],
      "name": "setExecutor",
      "outputs": [],
      "stateMutability": "nonpayable",
      "type": "function"
    },
    {
      "inputs": [
        {
          "internalType": "address",
          "name": "_priorityPoolFactory",
          "type": "address"
        }
      ],
      "name": "setPriorityPoolFactory",
      "outputs": [],
      "stateMutability": "nonpayable",
      "type": "function"
    },
    {
      "inputs": [
        {
          "internalType": "uint256",
          "name": "_ratio",
          "type": "uint256"
        }
      ],
      "name": "setQuorumRatio",
      "outputs": [],
      "stateMutability": "nonpayable",
      "type": "function"
    },
    {
      "inputs": [
        {
          "internalType": "uint256",
          "name": "_id",
          "type": "uint256"
        }
      ],
      "name": "settle",
      "outputs": [],
      "stateMutability": "nonpayable",
      "type": "function"
    },
    {
      "inputs": [
        {
          "internalType": "uint256",
          "name": "_id",
          "type": "uint256"
        }
      ],
      "name": "startVoting",
      "outputs": [],
      "stateMutability": "nonpayable",
      "type": "function"
    },
    {
      "inputs": [
        {
          "internalType": "uint256",
          "name": "",
          "type": "uint256"
        }
      ],
      "name": "tempResults",
      "outputs": [
        {
          "internalType": "uint256",
          "name": "result",
          "type": "uint256"
        },
        {
          "internalType": "uint256",
          "name": "sampleTimestamp",
          "type": "uint256"
        },
        {
          "internalType": "bool",
          "name": "hasChanged",
          "type": "bool"
        }
      ],
      "stateMutability": "view",
      "type": "function"
    },
    {
      "inputs": [
        {
          "internalType": "address",
          "name": "newOwner",
          "type": "address"
        }
      ],
      "name": "transferOwnership",
      "outputs": [],
      "stateMutability": "nonpayable",
      "type": "function"
    },
    {
      "inputs": [
        {
          "internalType": "uint256",
          "name": "_poolId",
          "type": "uint256"
        }
      ],
      "name": "unpausePools",
      "outputs": [],
      "stateMutability": "nonpayable",
      "type": "function"
    },
    {
      "inputs": [
        {
          "internalType": "uint256",
          "name": "_id",
          "type": "uint256"
        },
        {
          "internalType": "uint256",
          "name": "_isFor",
          "type": "uint256"
        },
        {
          "internalType": "uint256",
          "name": "_amount",
          "type": "uint256"
        }
      ],
      "name": "vote",
      "outputs": [],
      "stateMutability": "nonpayable",
      "type": "function"
    },
    {
      "inputs": [
        {
          "internalType": "address",
          "name": "",
          "type": "address"
        },
        {
          "internalType": "uint256",
          "name": "",
          "type": "uint256"
        }
      ],
      "name": "votes",
      "outputs": [
        {
          "internalType": "uint256",
          "name": "choice",
          "type": "uint256"
        },
        {
          "internalType": "uint256",
          "name": "amount",
          "type": "uint256"
        },
        {
          "internalType": "bool",
          "name": "claimed",
          "type": "bool"
        },
        {
          "internalType": "bool",
          "name": "paid",
          "type": "bool"
        }
      ],
      "stateMutability": "view",
      "type": "function"
    }
  ],
  "transactionHash": "0x8522a40c424a052c1fc41390d98e880a9a1c0120f7026b2fc9e18a6e6023b1b9",
  "args": [],
  "numDeployments": 1,
  "solcInputHash": "9fcf788da63d01165738bb98fa9b9147",
  "bytecode": "0x608080604052346100165761222f908161001c8239f35b600080fdfe608060405260048036101561001357600080fd5b6000803560e01c91826312d5cc86146106385782631c3c0ea814611cfd57826320731ab814611cdf5782633d2f5bda14611c5d57826343a5ada214611bbf578263485cc95514611a395782634a13a0ee146119f95782634aa06447146119ee5782634e7f9b19146118935782636530db98146117c15782636f8a6e4314611798578263715018a614611732578263753c0985146113b45782637aaf11c71461138c578263805a219f146113705782638a6655d614610fb05782638da5cb5b14610f855782638df8280014610b315782639418ce1714610ae5578263966d8a5f14610a685782639e17215514610a4a5782639f2524ee146109dc578263a01bc01f14610927578263ad35e1dc146108de578263ae169a5014610749578263af5283491461030c578263b4643d291461072b578263b9bc38f21461070d578263c34c08e5146106e4578263c942adf714610643578263ce4f29fc14610638578263d3ecebd7146105dd578263d6069060146105b0578263d92747cc14610591578263d9dc8f1d14610317578263e37dbfd91461030c578263e7d918e2146102da578263f2fde38b1461023f578263fc6e85d3146101f65750508063fd123806146101ed5763fe131778146101e5575b600080fd5b6101e0611d46565b506101e0611dd5565b3461023b57602036600319011261023b57606091604091358152603a6020522080549060ff600260018301549201541690604051928352602083015215156040820152f35b5080fd5b3461023b57602036600319011261023b57610258611d65565b9060018060a01b0361027181855460101c163314611e18565b821615610287575061028290611e51565b604051f35b60849060206040519162461bcd60e51b8352820152602660248201527f4f776e61626c653a206e6577206f776e657220697320746865207a65726f206160448201526564647265737360d01b6064820152fd5b3461023b57602036600319011261023b576102829061030660018060a01b03845460101c163314611e18565b356120d4565b5050506101e0611dfb565b3461023b57604036600319011261023b578035610332611d7b565b9060018060a01b0380831691828652602093603b8552604087208288528552604087209560405161036281611f71565b875481526002600189015498888301998a5201549060ff82161515604082015260ff606082019260081c1615158252848a5260388852600860408b200154908115610580578184915114918215610575575b821561056b575b505061055b575161054c578651806000190460501181151516610537579061271060508a94930204948060325416803b15610510576040805163342c6d4d60e11b815233858201908152602081018a90529092879284928391859183910103925af190811561052c578591610514575b505060335416885190803b156105105760408051634bdc2db560e11b81526001600160a01b039095169385019384526020840192909252849284928391859183910103925af18015610505576104e5575b5094839291608095947fb4b7f3a9d727d0ac344f696304df335d2936ce3b0a58d52600c692632c9fa7259752603b85526040882090885284526002604088200161010061ff001982541617905551916040519333855284015260408301526060820152a1604051f35b6104f3909594939295611f43565b61050157909192858761047c565b8580fd5b6040513d84823e3d90fd5b8480fd5b61051d90611f43565b61052857838b61042b565b8380fd5b6040513d87823e3d90fd5b601182634e487b7160e01b6000525260246000fd5b604051631abf06a960e21b8152fd5b50604051631ae2961d60e01b8152fd5b149050828b6103bb565b6003811492506103b4565b60405163403ba18960e01b81528490fd5b50346105ad57806003193601126105ad57602060405160028152f35b80fd5b3461023b57602036600319011261023b57604060209260ff92358152603c84522054166040519015158152f35b3461023b57602036600319011261023b576035546001600160a01b031633036106295735815260386020526102826040822054808352603c6020526040832060ff1981541690556120d4565b6040516324bba59760e21b8152fd5b5050506101e0611d46565b3461023b57602036600319011261023b57604061016092823581526038602052209081549160018101549160018060a01b03600283015416906003830154908301546005840154600685015491600786015493600887015495600a6009890154980154986040519a8b5260208b015260408a01526060890152608088015260a087015260c086015260e0850152610100840152610120830152610140820152f35b50346105ad57806003193601126105ad576035546040516001600160a01b039091168152602090f35b50346105ad57806003193601126105ad576020603654604051908152f35b50346105ad57806003193601126105ad576020603754604051908152f35b3461023b576020806003193601126108da57813591338452603b8252604084208385528252604084209060405161077f81611f71565b82548152600260018401549385830194855201549060ff60408201928181161515845260081c161515606082015285875260388552600860408820015491821561058057516108c957518692919081036108885750848252603884526107ee6009604084200154845190612057565b6032546001600160a01b031691823b15610528576040805163168ece7360e31b81523392810192835264e8d4a5100090930460208301529192849284928391859183910103925af1801561050557610874575b505061084e905133612151565b338352603b8152604083209183525260026040822001600160ff19825416179055604051f35b61087d90611f43565b610528578385610841565b90809250600382149182156108bf575b5050156108b057506108ab905133612151565b61084e565b60405163158f1f4160e11b8152fd5b1490508187610898565b60405163961e9b0d60e01b81528390fd5b8280fd5b50346105ad5760203660031901126105ad576108f8611d65565b60018060a01b039061091182845460101c163314611e18565b1660018060a01b03196034541617603455604051f35b50346105ad5760403660031901126105ad576040608091610946611d65565b816060845161095481611f71565b8281528260208201528286820152015260018060a01b03168152603b6020528181206024358252602052206040519061098c82611f71565b80549182815260026001830154926020830193845201549160ff6060604084019382861615158552019360081c161515835260405193845251602084015251151560408301525115156060820152f35b50346105ad5760403660031901126105ad576080906040906001600160a01b03610a04611d65565b168152603b60205281812060243582526020522060ff815491600260018201549101549060405193845260208401528181161515604084015260081c1615156060820152f35b50346105ad57806003193601126105ad57602060405162093a808152f35b3461023b57602036600319011261023b5781604091606093838051610a8c81611f56565b8281528260208201520152358152603a60205220604051610aac81611f56565b815491828252604060ff600260018401549360208601948552015416920191151582526040519283525160208301525115156040820152f35b3461023b57602036600319011261023b57803590610b1060018060a01b03845460101c163314611e18565b6064821015610b225750603755604051f35b604051633f18bddf60e01b8152fd5b3461023b57602090816003193601126108da57803590818452603883526040842092600784019160029081845403610f7657600686019182549460038801546203f480198111610f6357610b93906203f480610b8c8961200f565b9101611fed565b4210610f525760088801938454610f4157908992918397898552603a88528360ff81604088200154169182610f37575b505015610f13578884526038875260066040852001600181540190555b8715610ec3575060039055610bfd8389015460058a015490611fed565b6033546040516318160ddd60e01b81526001600160a01b0396929188908290889082908b165afa90811561052c578591610e8e575b50610c4260649160375490612057565b0411610e3b57869060018214998a15610e09575b505586825260388552604082209280840154946005850154998490600014610d49575080603254169285015416823b15610528576044849283604051958694859363168ece7360e31b855284015269043c33c193756480000060248401525af1801561050557610d27575b5050604080959493926000805160206121da833981519152926009610d0a612710610cfa6000805160206121ba8339815191529c612027565b0493610d058561203d565b61206a565b9101555b81519086825284820152a18351928352820152a1604051f35b610d35909695949396611f43565b610d455786889592939495610cc1565b8680fd5b969798999592919350508714610d88575b50505050916000805160206121ba83398151915293916000805160206121da83398151915260408095610d0e565b6127109192939450610d9990612027565b049069021e19e0c9bab24000009082198211610df65750604095936000805160206121ba8339815191529795936009610de86000805160206121da833981519152958a950193610d058561203d565b910155939583959750610d5a565b634e487b7160e01b895260119052602488fd5b54610e13816120d4565b8452603c87526040842060ff19815416905560398752610e3560408520611fad565b8b610c56565b92935050507f1dcabc7d01df1ee725f7c437ce5ec43e00015579d266f8a65d0911c4eb36ad9095929493505554610e71816120d4565b8452603c82526040808520805460ff1916905551908152a1604051f35b809550888092503d8311610ebc575b610ea78183611f8c565b810103126101e05792518a9390610c42610c32565b503d610e9d565b94505091507fb7891e9b049f460b1641e0a0556e45b1d2adfb12bd2c6459ea5a5d645d40179d96508594509460409552603a83528487200160ff19815416905554908351928352820152a1604051f35b965060388652610f31846040852001546005604086200154906120a0565b96610be0565b109050838d610bc3565b60405163037d379160e11b81528490fd5b6040516324b1a7e960e01b81528390fd5b634e487b7160e01b8a526011845260248afd5b60405163363bbdfd60e01b8152fd5b50346105ad57806003193601126105ad575460405160109190911c6001600160a01b03168152602090f35b90346105ad5760603660031901126105ad578135602492833560443591838552602090603882526002600760408820015403610f76578315611361576001831491821580611356575b611346576033546040516370a0823160e01b815233848201526001600160a01b039091169082818b81855afa90811561133b57899161130e575b5060405163cbf9fe5f60e01b815233858201529083828c81865afa918215611303578a926112d4575b508181106112c0570386116112af57803b156112ab5760408051633c56aa6160e11b8152338582019081526020810189905290928a9284928391859183910103925af180156112a05790889161128c575b5050338752603b81526040808820878952825287206001810180549091869115611286575403611275575b6110e3868254611fed565b90558587526038815260408720921561125f57818301611104868254611fed565b90555b858752603a815260ff60026040892001541615806111ba575b7f025e12b9cbba227587ada73c57f6b6b6a70272d7ed782681793125ec29afc77b9697985061116a575b5050604080519586526020860192909252508301523391606090a2604051f35b603a60056111879385015494015491888a525260408820926120a0565b8154806111a0575b50815560014291015585808061114a565b600283019060ff801983541691841415161790558761118f565b5060038301546006840154906203f48019811161124d576203f4806111fb91016111f56111ef6111e98561200f565b83611fed565b9361200f565b90611fed565b62015180811061124d577f025e12b9cbba227587ada73c57f6b6b6a70272d7ed782681793125ec29afc77b979899506201517f190142119081611243575b5088979650611120565b9050421089611239565b634e487b7160e01b8952601184528989fd5b6005830161126e868254611fed565b9055611107565b6040516346bdda4560e11b81528390fd5b556110d8565b61129590611f43565b610d455786896110ad565b6040513d8a823e3d90fd5b8780fd5b60405163729aeac360e01b81528390fd5b8a601186634e487b7160e01b600052526000fd5b9091508381813d83116112fc575b6112ec8183611f8c565b810103126101e05751908b61105c565b503d6112e2565b6040513d8c823e3d90fd5b90508281813d8311611334575b6113258183611f8c565b810103126101e057518a611033565b503d61131b565b6040513d8b823e3d90fd5b50604051631422ca1d60e31b8152fd5b506002841415610ff9565b60405163583202e160e01b8152fd5b50346105ad57806003193601126105ad57602060405160508152f35b3461023b57602036600319011261023b57602091604091358152603983522054604051908152f35b3461023b576113c236611d91565b60018060a01b036113da81865460101c163314611e18565b6024858260345416604051928380926315895f4760e31b8252888a8301525afa80156117275782918791611638575b501693841561162957838652602094603c865260ff6040882054166116195785829160405192838092636835185f60e11b82525afa90811561160e5787916115e1575b5083116115d257838652603c855260408620916001928360ff19825416179055603654600019908181146115bf5784016036819055808952603888526040808a2088815542818801556002810180546001600160a01b0319163317905560078101879055600a01879055878a526039909852968820805490600160401b8210156115ac576114e4828a92888d98979695018155611da7565b909283549160031b90811b9283911b1691191617905560345416803b156108da578591836044926040519687958694631b35278960e01b865285015260248401525af1801561052c57611575575b506040805193845242602085015283015233917fe4af8b66d6c4b132955627bb2e4e80a62c544714e2f19dafec934a3b156cbe939080606081015b0390a3604051f35b7fe4af8b66d6c4b132955627bb2e4e80a62c544714e2f19dafec934a3b156cbe9391946115a461156d92611f43565b949150611532565b634e487b7160e01b8a526041855260248afd5b634e487b7160e01b895260118452602489fd5b60405163cab1fa1b60e01b8152fd5b90508581813d8311611607575b6115f88183611f8c565b81010312610d4557518761144c565b503d6115ee565b6040513d89823e3d90fd5b506040516360b2438960e01b8152fd5b60405163148115cf60e21b8152fd5b9150503d8087833e61164a8183611f8c565b810160a082820312610d455781516001600160401b039081811161172357830182601f82011215611723578051918211611710576040519060209361169885601f19601f8701160184611f8c565b83835284848301011161170c579189918695949383905b8382106116f157509284836116de96936116d795604097116116e5575b5050505084016120c0565b92016120c0565b5087611409565b0101528a818d806116cc565b8181018601518284018701528897508c9450908501906116af565b8980fd5b634e487b7160e01b895260418852602489fd5b8880fd5b6040513d88823e3d90fd5b50346105ad57806003193601126105ad578054601081901c6001600160a01b03169061175f338314611e18565b82604051927f8be0079c531659141344cd1fd0a4f28419497f9722a3daafe3b4186f6b6457e08285a362010000600160b01b0319168255f35b50346105ad57806003193601126105ad576034546040516001600160a01b039091168152602090f35b3461023b57602036600319011261023b578035906117ec60018060a01b03845460101c163314611e18565b8183526038602052604083209060078201906001825403610f7657611814600184015461208a565b6118845750916118736040926101947f17b76cf2012024f7fe05b4a8b036b188464d5b49b7c8532e95c5c67a4b792eb29555828652603c60205283862060ff19815416905580548652603960205261186d848720611fad565b546120d4565b8151908152426020820152a1604051f35b6040516324b1a7e960e01b8152fd5b3461023b57602036600319011261023b57610140610160926040516118b781611f11565b8181528160208201528160408201528160608201528160808201528160a08201528160c08201528160e08201526040610100928084840152808561012094828682015201528535815260386020522091600a6040519361191685611f11565b8054968786526001820154602087015260018060a01b036002830154166040870152600382015460608701528101546080860152600581015460a0860152600681015460c0860152600781015460e08601526008810154838601526009810154848601520154848401526040519485526020830151602086015260018060a01b036040840151166040860152606083015160608601526080830151608086015260a083015160a086015260c083015160c086015260e083015160e0860152808301519085015280820151908401520151610140820152f35b5050506101e0611dd5565b50346105ad57611a0836611d91565b919081526039602052604081209081548310156105ad576020611a2b8484611da7565b90546040519160031b1c8152f35b3461023b57604036600319011261023b57611a52611d65565b90611a5b611d7b565b91835460ff8160081c161592838094611bb2575b8015611b9b575b15611b40575060ff198116600117855582611b2f575b50611aa660ff855460081c16611aa181611eb1565b611eb1565b611aaf33611e51565b835492611ac160ff8560081c16611eb1565b60018060a01b03908160018060a01b03199316836032541617603255169060335416176033556032603755611af7575b50604051f35b61ff00191681557f7f26b83ff96e1f2b6a682f133852f6798a09c465da95921460cefb3847402498602060405160018152a181611af1565b61ffff191661010117845584611a8c565b60849060206040519162461bcd60e51b8352820152602e60248201527f496e697469616c697a61626c653a20636f6e747261637420697320616c72656160448201526d191e481a5b9a5d1a585b1a5e995960921b6064820152fd5b50303b158015611a765750600160ff831614611a76565b50600160ff831610611a6f565b3461023b57602090816003193601126108da57358252603981526040822060405192838383549182815201908193835284832090835b818110611c495750505084611c0b910385611f8c565b60405193838594850191818652518092526040850193925b828110611c3257505050500390f35b835185528695509381019392810192600101611c23565b825484529286019260019283019201611bf5565b3461023b57602036600319011261023b578035908183526038602052604083209060078201906001825403610f7657611c99600184015461208a565b1561188457509160409160027fde7965c8d6f24b73501e8bcad1a4f03937db4f902bfda3bee08b335accf0749694556003429101558151908152426020820152a1604051f35b50346105ad57806003193601126105ad5760206040516203f4808152f35b50346105ad5760203660031901126105ad57611d17611d65565b60018060a01b0390611d3082845460101c163314611e18565b1660018060a01b03196035541617603555604051f35b50346101e05760003660031901126101e0576020604051620151808152f35b600435906001600160a01b03821682036101e057565b602435906001600160a01b03821682036101e057565b60409060031901126101e0576004359060243590565b8054821015611dbf5760005260206000200190600090565b634e487b7160e01b600052603260045260246000fd5b50346101e05760003660031901126101e057602060405169021e19e0c9bab24000008152f35b50346101e05760003660031901126101e057602060405160288152f35b15611e1f57565b60405162461bcd60e51b815260206004820152600a60248201526927b7363c9037bbb732b960b11b6044820152606490fd5b6000549060018060a01b03808216908360101c167f8be0079c531659141344cd1fd0a4f28419497f9722a3daafe3b4186f6b6457e06000604051a362010000600160b01b031990911660109190911b62010000600160b01b031617600055565b15611eb857565b60405162461bcd60e51b815260206004820152602b60248201527f496e697469616c697a61626c653a20636f6e7472616374206973206e6f74206960448201526a6e697469616c697a696e6760a81b6064820152608490fd5b61016081019081106001600160401b03821117611f2d57604052565b634e487b7160e01b600052604160045260246000fd5b6001600160401b038111611f2d57604052565b606081019081106001600160401b03821117611f2d57604052565b608081019081106001600160401b03821117611f2d57604052565b90601f801991011681019081106001600160401b03821117611f2d57604052565b8054908115611fd75760001991820191611fc78383611da7565b909182549160031b1b1916905555565b634e487b7160e01b600052603160045260246000fd5b81198111611ff9570190565b634e487b7160e01b600052601160045260246000fd5b62015180908060001904821181151516611ff9570290565b806000190460281181151516611ff95760280290565b64e8d4a51000908060001904821181151516611ff9570290565b8060001904821181151516611ff9570290565b8115612074570490565b634e487b7160e01b600052601260045260246000fd5b62015180198111611ff957620151800142101590565b818111156120b05750506001905b565b10156120bb57600290565b600390565b51906001600160a01b03821682036101e057565b6034546001600160a01b031690813b156101e057604051918291631b35278960e01b835260048301528160446000938480948160248401525af180156121445761211c575050565b6001600160401b0382116121305750604052565b634e487b7160e01b81526041600452602490fd5b50604051903d90823e3d90fd5b6033546001600160a01b031691823b156101e057604051634bdc2db560e11b81526001600160a01b039290921660048301526024820152906000908290604490829084905af180156121ad576121a45750565b6120ae90611f43565b6040513d6000823e3d90fdfe30922d3a94c33e0ce3f99be437cbdf00f141e304f742a1cbd0df5cc5b490cd45bf97c766fd98feb70e7d5cc384ac953bcce9a7ca082cf57da33a199d67f7b7aba26469706673582212203dda57bfb1241dd5b201060c20882657dad159838974a1697b49d7a9a4b604e464736f6c634300080f0033",
  "devdoc": {
    "kind": "dev",
    "methods": {
      "claimReward(uint256)": {
        "params": {
          "_id": "Report id"
        }
      },
      "closeReport(uint256)": {
        "params": {
          "_id": "Report id"
        }
      },
      "executed(uint256)": {
        "params": {
          "_reportId": "Report id"
        }
      },
      "owner()": {
        "details": "Returns the address of the current owner."
      },
      "payDebt(uint256,address)": {
        "params": {
          "_id": "Report id",
          "_user": "User address (can pay debt for another user)"
        }
      },
      "renounceOwnership()": {
        "details": "Leaves the contract without owner. It will not be possible to call `onlyOwner` functions anymore. Can only be called by the current owner. NOTE: Renouncing ownership will leave the contract without an owner, thereby removing any functionality that is only available to the owner."
      },
      "report(uint256,uint256)": {
        "params": {
          "_payout": "Payout amount of this report",
          "_poolId": "Pool id to report incident"
        }
      },
      "settle(uint256)": {
        "params": {
          "_id": "Report id"
        }
      },
      "startVoting(uint256)": {
        "params": {
          "_id": "Report id"
        }
      },
      "transferOwnership(address)": {
        "details": "Transfers ownership of the contract to a new account (`newOwner`). Can only be called by the current owner."
      },
      "vote(uint256,uint256,uint256)": {
        "params": {
          "_amount": "Amount of veDEG used for this vote",
          "_id": "Id of the report to be voted on",
          "_isFor": "The user's choice (1: vote for, 2: vote against)"
        }
      }
    },
    "version": 1
  },
  "userdoc": {
    "kind": "user",
    "methods": {
      "claimReward(uint256)": {
        "notice": "Claim the voting reward         Only callable through proposal center"
      },
      "closeReport(uint256)": {
        "notice": "Close a pending report         Only owner can close a pending report         Can only be closed before the pending period ends         Will change the status from PENDING to CLOSED"
      },
      "executed(uint256)": {
        "notice": "Update status after execution         Only callable by executor"
      },
      "payDebt(uint256,address)": {
        "notice": "Pay debt to get back veDEG         For those who made a wrong voting choice         The paid DEG will be burned and the veDEG will be unlocked         Can not call this function when result is TIED or choose the correct side"
      },
      "report(uint256,uint256)": {
        "notice": "Start a new incident report         1000 DEG tokens are staked to start a report         If the report is correct, reporter gets back 1000DEG + 10% usdc income + extra 1000DEG         If the report is wrong, reporter loses 1000DEG to those who vote against         Only callable through proposal center"
      },
      "settle(uint256)": {
        "notice": "Settle the final result for a report"
      },
      "startVoting(uint256)": {
        "notice": "Start the voting process         Can only be started after the pending period         Will change the status from PENDING to VOTING"
      },
      "vote(uint256,uint256,uint256)": {
        "notice": "Vote on current reports         Voting power is decided by the (unlocked) balance of veDEG         Once voted, those veDEG will be locked         Rewarded if votes with majority         Punished if votes against majority"
      }
    },
    "notice": "Incident Report Contract         New reports for project hacks are handled inside this contract         Timeline for a report is:         |-----------------------|----------------------|-------|-------|               Pending Period         Voting Period       Extend Period         When a new report is proposed, it start with PENDING_STATUS.         The person who start the report need to deposit REPORT_THRESHOLD DEG tokens.         During PENDING_STATUS, users & security companies can look at the report event.         After PENDING_PERIOD, the voting can be started and status transfer to VOTING_STATUS.         Users can vote for or against the report with veDeg tokens.         VeDeg tokens used for voting will be tentatively locked until the voting is settled.         After VOTING_PERIOD, the voting can be settled and status transfer to SETTLED_STATUS.         Depending on the votes of each side, the result can be PASSED, REJECTED or TIED.         Different results for their veDeg tokens will be set depending on the result.         If the result has changes during the last 24 hours of voting, the voting will be extended.         The time can only be extended twice.         For voters:              PASSED: Who vote for will get all veDeg tokens from the opposite side              REJECTED: Who vote against will get all veDeg tokens from the opposite side              TIED: Users can unlock their veDeg tokens         For reporter:              PASSED: Get back REPORT_THRESHOLD and get extra REPORT_REWARD & 10% of total treasury income              REJECTED: Lose REPORT_THRESHOLD to whom vote against              TIED: Lose REPORT_THRESHOLD         When an incident report has passed and been executed         The corresponding priority pool will be liquidated which means:             - Move out some assets for users to claim             - Deploy new generation of crTokens and PRI-LP tokens             - Update the farming weights for the priority farming pool",
    "version": 1
  },
  "storageLayout": {
    "storage": [
      {
        "astId": 184,
        "contract": "src/voting/incidentReport/IncidentReport.sol:IncidentReport",
        "label": "_initialized",
        "offset": 0,
        "slot": "0",
        "type": "t_uint8"
      },
      {
        "astId": 187,
        "contract": "src/voting/incidentReport/IncidentReport.sol:IncidentReport",
        "label": "_initializing",
        "offset": 1,
        "slot": "0",
        "type": "t_bool"
      },
      {
        "astId": 17723,
        "contract": "src/voting/incidentReport/IncidentReport.sol:IncidentReport",
        "label": "_owner",
        "offset": 2,
        "slot": "0",
        "type": "t_address"
      },
      {
        "astId": 17830,
        "contract": "src/voting/incidentReport/IncidentReport.sol:IncidentReport",
        "label": "__gap",
        "offset": 0,
        "slot": "1",
        "type": "t_array(t_uint256)49_storage"
      },
      {
        "astId": 6175,
        "contract": "src/voting/incidentReport/IncidentReport.sol:IncidentReport",
        "label": "deg",
        "offset": 0,
        "slot": "50",
        "type": "t_contract(IDegisToken)6291"
      },
      {
        "astId": 6178,
        "contract": "src/voting/incidentReport/IncidentReport.sol:IncidentReport",
        "label": "veDeg",
        "offset": 0,
        "slot": "51",
        "type": "t_contract(IVeDEG)7455"
      },
      {
        "astId": 19717,
        "contract": "src/voting/incidentReport/IncidentReport.sol:IncidentReport",
        "label": "priorityPoolFactory",
        "offset": 0,
        "slot": "52",
        "type": "t_contract(IPriorityPoolFactory)7349"
      },
      {
        "astId": 19719,
        "contract": "src/voting/incidentReport/IncidentReport.sol:IncidentReport",
        "label": "executor",
        "offset": 0,
        "slot": "53",
        "type": "t_address"
      },
      {
        "astId": 18223,
        "contract": "src/voting/incidentReport/IncidentReport.sol:IncidentReport",
        "label": "reportCounter",
        "offset": 0,
        "slot": "54",
        "type": "t_uint256"
      },
      {
        "astId": 18225,
        "contract": "src/voting/incidentReport/IncidentReport.sol:IncidentReport",
        "label": "quorumRatio",
        "offset": 0,
        "slot": "55",
        "type": "t_uint256"
      },
      {
        "astId": 18253,
        "contract": "src/voting/incidentReport/IncidentReport.sol:IncidentReport",
        "label": "reports",
        "offset": 0,
        "slot": "56",
        "type": "t_mapping(t_uint256,t_struct(Report)18248_storage)"
      },
      {
        "astId": 18258,
        "contract": "src/voting/incidentReport/IncidentReport.sol:IncidentReport",
        "label": "poolReports",
        "offset": 0,
        "slot": "57",
        "type": "t_mapping(t_uint256,t_array(t_uint256)dyn_storage)"
      },
      {
        "astId": 18270,
        "contract": "src/voting/incidentReport/IncidentReport.sol:IncidentReport",
        "label": "tempResults",
        "offset": 0,
        "slot": "58",
        "type": "t_mapping(t_uint256,t_struct(TempResult)18265_storage)"
      },
      {
        "astId": 18286,
        "contract": "src/voting/incidentReport/IncidentReport.sol:IncidentReport",
        "label": "votes",
        "offset": 0,
        "slot": "59",
        "type": "t_mapping(t_address,t_mapping(t_uint256,t_struct(UserVote)18279_storage))"
      },
      {
        "astId": 18290,
        "contract": "src/voting/incidentReport/IncidentReport.sol:IncidentReport",
        "label": "reported",
        "offset": 0,
        "slot": "60",
        "type": "t_mapping(t_uint256,t_bool)"
      }
    ],
    "types": {
      "t_address": {
        "encoding": "inplace",
        "label": "address",
        "numberOfBytes": "20"
      },
      "t_array(t_uint256)49_storage": {
        "base": "t_uint256",
        "encoding": "inplace",
        "label": "uint256[49]",
        "numberOfBytes": "1568"
      },
      "t_array(t_uint256)dyn_storage": {
        "base": "t_uint256",
        "encoding": "dynamic_array",
        "label": "uint256[]",
        "numberOfBytes": "32"
      },
      "t_bool": {
        "encoding": "inplace",
        "label": "bool",
        "numberOfBytes": "1"
      },
      "t_contract(IDegisToken)6291": {
        "encoding": "inplace",
        "label": "contract IDegisToken",
        "numberOfBytes": "20"
      },
      "t_contract(IPriorityPoolFactory)7349": {
        "encoding": "inplace",
        "label": "contract IPriorityPoolFactory",
        "numberOfBytes": "20"
      },
      "t_contract(IVeDEG)7455": {
        "encoding": "inplace",
        "label": "contract IVeDEG",
        "numberOfBytes": "20"
      },
      "t_mapping(t_address,t_mapping(t_uint256,t_struct(UserVote)18279_storage))": {
        "encoding": "mapping",
        "key": "t_address",
        "label": "mapping(address => mapping(uint256 => struct IncidentReport.UserVote))",
        "numberOfBytes": "32",
        "value": "t_mapping(t_uint256,t_struct(UserVote)18279_storage)"
      },
      "t_mapping(t_uint256,t_array(t_uint256)dyn_storage)": {
        "encoding": "mapping",
        "key": "t_uint256",
        "label": "mapping(uint256 => uint256[])",
        "numberOfBytes": "32",
        "value": "t_array(t_uint256)dyn_storage"
      },
      "t_mapping(t_uint256,t_bool)": {
        "encoding": "mapping",
        "key": "t_uint256",
        "label": "mapping(uint256 => bool)",
        "numberOfBytes": "32",
        "value": "t_bool"
      },
      "t_mapping(t_uint256,t_struct(Report)18248_storage)": {
        "encoding": "mapping",
        "key": "t_uint256",
        "label": "mapping(uint256 => struct IncidentReport.Report)",
        "numberOfBytes": "32",
        "value": "t_struct(Report)18248_storage"
      },
      "t_mapping(t_uint256,t_struct(TempResult)18265_storage)": {
        "encoding": "mapping",
        "key": "t_uint256",
        "label": "mapping(uint256 => struct IncidentReport.TempResult)",
        "numberOfBytes": "32",
        "value": "t_struct(TempResult)18265_storage"
      },
      "t_mapping(t_uint256,t_struct(UserVote)18279_storage)": {
        "encoding": "mapping",
        "key": "t_uint256",
        "label": "mapping(uint256 => struct IncidentReport.UserVote)",
        "numberOfBytes": "32",
        "value": "t_struct(UserVote)18279_storage"
      },
      "t_struct(Report)18248_storage": {
        "encoding": "inplace",
        "label": "struct IncidentReport.Report",
        "members": [
          {
            "astId": 18227,
            "contract": "src/voting/incidentReport/IncidentReport.sol:IncidentReport",
            "label": "poolId",
            "offset": 0,
            "slot": "0",
            "type": "t_uint256"
          },
          {
            "astId": 18229,
            "contract": "src/voting/incidentReport/IncidentReport.sol:IncidentReport",
            "label": "reportTimestamp",
            "offset": 0,
            "slot": "1",
            "type": "t_uint256"
          },
          {
            "astId": 18231,
            "contract": "src/voting/incidentReport/IncidentReport.sol:IncidentReport",
            "label": "reporter",
            "offset": 0,
            "slot": "2",
            "type": "t_address"
          },
          {
            "astId": 18233,
            "contract": "src/voting/incidentReport/IncidentReport.sol:IncidentReport",
            "label": "voteTimestamp",
            "offset": 0,
            "slot": "3",
            "type": "t_uint256"
          },
          {
            "astId": 18235,
            "contract": "src/voting/incidentReport/IncidentReport.sol:IncidentReport",
            "label": "numFor",
            "offset": 0,
            "slot": "4",
            "type": "t_uint256"
          },
          {
            "astId": 18237,
            "contract": "src/voting/incidentReport/IncidentReport.sol:IncidentReport",
            "label": "numAgainst",
            "offset": 0,
            "slot": "5",
            "type": "t_uint256"
          },
          {
            "astId": 18239,
            "contract": "src/voting/incidentReport/IncidentReport.sol:IncidentReport",
            "label": "round",
            "offset": 0,
            "slot": "6",
            "type": "t_uint256"
          },
          {
            "astId": 18241,
            "contract": "src/voting/incidentReport/IncidentReport.sol:IncidentReport",
            "label": "status",
            "offset": 0,
            "slot": "7",
            "type": "t_uint256"
          },
          {
            "astId": 18243,
            "contract": "src/voting/incidentReport/IncidentReport.sol:IncidentReport",
            "label": "result",
            "offset": 0,
            "slot": "8",
            "type": "t_uint256"
          },
          {
            "astId": 18245,
            "contract": "src/voting/incidentReport/IncidentReport.sol:IncidentReport",
            "label": "votingReward",
            "offset": 0,
            "slot": "9",
            "type": "t_uint256"
          },
          {
            "astId": 18247,
            "contract": "src/voting/incidentReport/IncidentReport.sol:IncidentReport",
            "label": "payout",
            "offset": 0,
            "slot": "10",
            "type": "t_uint256"
          }
        ],
        "numberOfBytes": "352"
      },
      "t_struct(TempResult)18265_storage": {
        "encoding": "inplace",
        "label": "struct IncidentReport.TempResult",
        "members": [
          {
            "astId": 18260,
            "contract": "src/voting/incidentReport/IncidentReport.sol:IncidentReport",
            "label": "result",
            "offset": 0,
            "slot": "0",
            "type": "t_uint256"
          },
          {
            "astId": 18262,
            "contract": "src/voting/incidentReport/IncidentReport.sol:IncidentReport",
            "label": "sampleTimestamp",
            "offset": 0,
            "slot": "1",
            "type": "t_uint256"
          },
          {
            "astId": 18264,
            "contract": "src/voting/incidentReport/IncidentReport.sol:IncidentReport",
            "label": "hasChanged",
            "offset": 0,
            "slot": "2",
            "type": "t_bool"
          }
        ],
        "numberOfBytes": "96"
      },
      "t_struct(UserVote)18279_storage": {
        "encoding": "inplace",
        "label": "struct IncidentReport.UserVote",
        "members": [
          {
            "astId": 18272,
            "contract": "src/voting/incidentReport/IncidentReport.sol:IncidentReport",
            "label": "choice",
            "offset": 0,
            "slot": "0",
            "type": "t_uint256"
          },
          {
            "astId": 18274,
            "contract": "src/voting/incidentReport/IncidentReport.sol:IncidentReport",
            "label": "amount",
            "offset": 0,
            "slot": "1",
            "type": "t_uint256"
          },
          {
            "astId": 18276,
            "contract": "src/voting/incidentReport/IncidentReport.sol:IncidentReport",
            "label": "claimed",
            "offset": 0,
            "slot": "2",
            "type": "t_bool"
          },
          {
            "astId": 18278,
            "contract": "src/voting/incidentReport/IncidentReport.sol:IncidentReport",
            "label": "paid",
            "offset": 1,
            "slot": "2",
            "type": "t_bool"
          }
        ],
        "numberOfBytes": "96"
      },
      "t_uint256": {
        "encoding": "inplace",
        "label": "uint256",
        "numberOfBytes": "32"
      },
      "t_uint8": {
        "encoding": "inplace",
        "label": "uint8",
        "numberOfBytes": "1"
      }
    }
  }
}