{
  "address": "0x421D0629d0DeAf553486514CB5A975BfAE101005",
  "abi": [
    {
      "inputs": [],
      "name": "PolicyCenter__AlreadyClaimedPayout",
      "type": "error"
    },
    {
      "inputs": [],
      "name": "PolicyCenter__BadLength",
      "type": "error"
    },
    {
      "inputs": [],
      "name": "PolicyCenter__InsufficientCapacity",
      "type": "error"
    },
    {
      "inputs": [],
      "name": "PolicyCenter__InvalidPremiumSplit",
      "type": "error"
    },
    {
      "inputs": [],
      "name": "PolicyCenter__NoExchange",
      "type": "error"
    },
    {
      "inputs": [],
      "name": "PolicyCenter__NoLiquidity",
      "type": "error"
    },
    {
      "inputs": [],
      "name": "PolicyCenter__NoPayout",
      "type": "error"
    },
    {
      "inputs": [],
      "name": "PolicyCenter__NonExistentPool",
      "type": "error"
    },
    {
      "inputs": [],
      "name": "PolicyCenter__OnlyPriorityPoolFactory",
      "type": "error"
    },
    {
      "inputs": [],
      "name": "PolicyCenter__OnlyTreasury",
      "type": "error"
    },
    {
      "inputs": [],
      "name": "PolicyCenter__PoolPaused",
      "type": "error"
    },
    {
      "inputs": [],
      "name": "PolicyCenter__PremiumTooHigh",
      "type": "error"
    },
    {
      "inputs": [],
      "name": "PolicyCenter__WrongPath",
      "type": "error"
    },
    {
      "inputs": [],
      "name": "PolicyCenter__WrongPriorityPoolID",
      "type": "error"
    },
    {
      "inputs": [],
      "name": "PolicyCenter__ZeroAmount",
      "type": "error"
    },
    {
      "inputs": [],
      "name": "PolicyCenter__ZeroPremium",
      "type": "error"
    },
    {
      "anonymous": false,
      "inputs": [
        {
          "indexed": true,
          "internalType": "address",
          "name": "buyer",
          "type": "address"
        },
        {
          "indexed": true,
          "internalType": "uint256",
          "name": "poolId",
          "type": "uint256"
        },
        {
          "indexed": false,
          "internalType": "uint256",
          "name": "coverDuration",
          "type": "uint256"
        },
        {
          "indexed": false,
          "internalType": "uint256",
          "name": "coverAmount",
          "type": "uint256"
        },
        {
          "indexed": false,
          "internalType": "uint256",
          "name": "premiumInUSDC",
          "type": "uint256"
        }
      ],
      "name": "CoverBought",
      "type": "event"
    },
    {
      "anonymous": false,
      "inputs": [
        {
          "indexed": false,
          "internalType": "uint8",
          "name": "version",
          "type": "uint8"
        }
      ],
      "name": "Initialized",
      "type": "event"
    },
    {
      "anonymous": false,
      "inputs": [
        {
          "indexed": true,
          "internalType": "address",
          "name": "user",
          "type": "address"
        },
        {
          "indexed": false,
          "internalType": "uint256",
          "name": "amount",
          "type": "uint256"
        }
      ],
      "name": "LiquidityProvided",
      "type": "event"
    },
    {
      "anonymous": false,
      "inputs": [
        {
          "indexed": true,
          "internalType": "address",
          "name": "user",
          "type": "address"
        },
        {
          "indexed": false,
          "internalType": "uint256",
          "name": "amount",
          "type": "uint256"
        }
      ],
      "name": "LiquidityRemoved",
      "type": "event"
    },
    {
      "anonymous": false,
      "inputs": [
        {
          "indexed": true,
          "internalType": "address",
          "name": "user",
          "type": "address"
        },
        {
          "indexed": true,
          "internalType": "uint256",
          "name": "poolId",
          "type": "uint256"
        },
        {
          "indexed": false,
          "internalType": "uint256",
          "name": "amount",
          "type": "uint256"
        }
      ],
      "name": "LiquidityStaked",
      "type": "event"
    },
    {
      "anonymous": false,
      "inputs": [
        {
          "indexed": true,
          "internalType": "address",
          "name": "user",
          "type": "address"
        },
        {
          "indexed": true,
          "internalType": "uint256",
          "name": "poolId",
          "type": "uint256"
        },
        {
          "indexed": false,
          "internalType": "uint256",
          "name": "amount",
          "type": "uint256"
        }
      ],
      "name": "LiquidityStakedWithoutFarming",
      "type": "event"
    },
    {
      "anonymous": false,
      "inputs": [
        {
          "indexed": true,
          "internalType": "address",
          "name": "user",
          "type": "address"
        },
        {
          "indexed": true,
          "internalType": "uint256",
          "name": "poolId",
          "type": "uint256"
        },
        {
          "indexed": false,
          "internalType": "address",
          "name": "priorityLP",
          "type": "address"
        },
        {
          "indexed": false,
          "internalType": "uint256",
          "name": "amount",
          "type": "uint256"
        }
      ],
      "name": "LiquidityUnstaked",
      "type": "event"
    },
    {
      "anonymous": false,
      "inputs": [
        {
          "indexed": true,
          "internalType": "address",
          "name": "user",
          "type": "address"
        },
        {
          "indexed": true,
          "internalType": "uint256",
          "name": "poolId",
          "type": "uint256"
        },
        {
          "indexed": false,
          "internalType": "address",
          "name": "priorityLP",
          "type": "address"
        },
        {
          "indexed": false,
          "internalType": "uint256",
          "name": "amount",
          "type": "uint256"
        }
      ],
      "name": "LiquidityUnstakedWithoutFarming",
      "type": "event"
    },
    {
      "anonymous": false,
      "inputs": [
        {
          "indexed": true,
          "internalType": "address",
          "name": "previousOwner",
          "type": "address"
        },
        {
          "indexed": true,
          "internalType": "address",
          "name": "newOwner",
          "type": "address"
        }
      ],
      "name": "OwnershipTransferred",
      "type": "event"
    },
    {
      "anonymous": false,
      "inputs": [
        {
          "indexed": true,
          "internalType": "address",
          "name": "user",
          "type": "address"
        },
        {
          "indexed": false,
          "internalType": "uint256",
          "name": "amount",
          "type": "uint256"
        }
      ],
      "name": "PayoutClaimed",
      "type": "event"
    },
    {
      "anonymous": false,
      "inputs": [
        {
          "indexed": false,
          "internalType": "uint256",
          "name": "toPriority",
          "type": "uint256"
        },
        {
          "indexed": false,
          "internalType": "uint256",
          "name": "toProtection",
          "type": "uint256"
        },
        {
          "indexed": false,
          "internalType": "uint256",
          "name": "toTreasury",
          "type": "uint256"
        }
      ],
      "name": "PremiumSplitted",
      "type": "event"
    },
    {
      "anonymous": false,
      "inputs": [
        {
          "indexed": false,
          "internalType": "address",
          "name": "fromToken",
          "type": "address"
        },
        {
          "indexed": false,
          "internalType": "uint256",
          "name": "amount",
          "type": "uint256"
        },
        {
          "indexed": false,
          "internalType": "uint256",
          "name": "received",
          "type": "uint256"
        }
      ],
      "name": "PremiumSwapped",
      "type": "event"
    },
    {
      "inputs": [],
      "name": "USDC",
      "outputs": [
        {
          "internalType": "address",
          "name": "",
          "type": "address"
        }
      ],
      "stateMutability": "view",
      "type": "function"
    },
    {
      "inputs": [
        {
          "internalType": "address",
          "name": "_token",
          "type": "address"
        }
      ],
      "name": "approvePoolToken",
      "outputs": [],
      "stateMutability": "nonpayable",
      "type": "function"
    },
    {
      "inputs": [
        {
          "internalType": "uint256",
          "name": "_poolId",
          "type": "uint256"
        },
        {
          "internalType": "uint256",
          "name": "_coverAmount",
          "type": "uint256"
        },
        {
          "internalType": "uint256",
          "name": "_coverDuration",
          "type": "uint256"
        },
        {
          "internalType": "uint256",
          "name": "_maxPayment",
          "type": "uint256"
        }
      ],
      "name": "buyCover",
      "outputs": [
        {
          "internalType": "address",
          "name": "",
          "type": "address"
        }
      ],
      "stateMutability": "nonpayable",
      "type": "function"
    },
    {
      "inputs": [
        {
          "internalType": "uint256",
          "name": "_poolId",
          "type": "uint256"
        },
        {
          "internalType": "address",
          "name": "_crToken",
          "type": "address"
        },
        {
          "internalType": "uint256",
          "name": "_generation",
          "type": "uint256"
        }
      ],
      "name": "claimPayout",
      "outputs": [],
      "stateMutability": "nonpayable",
      "type": "function"
    },
    {
      "inputs": [],
      "name": "coverRightTokenFactory",
      "outputs": [
        {
          "internalType": "address",
          "name": "",
          "type": "address"
        }
      ],
      "stateMutability": "view",
      "type": "function"
    },
    {
      "inputs": [
        {
          "internalType": "uint256",
          "name": "_poolId",
          "type": "uint256"
        }
      ],
      "name": "currentLPAddress",
      "outputs": [
        {
          "internalType": "address",
          "name": "lpAddress",
          "type": "address"
        }
      ],
      "stateMutability": "view",
      "type": "function"
    },
    {
      "inputs": [],
      "name": "dexPriceGetter",
      "outputs": [
        {
          "internalType": "address",
          "name": "",
          "type": "address"
        }
      ],
      "stateMutability": "view",
      "type": "function"
    },
    {
      "inputs": [],
      "name": "exchange",
      "outputs": [
        {
          "internalType": "address",
          "name": "",
          "type": "address"
        }
      ],
      "stateMutability": "view",
      "type": "function"
    },
    {
      "inputs": [
        {
          "internalType": "address",
          "name": "",
          "type": "address"
        }
      ],
      "name": "exchangeByToken",
      "outputs": [
        {
          "internalType": "address",
          "name": "",
          "type": "address"
        }
      ],
      "stateMutability": "view",
      "type": "function"
    },
    {
      "inputs": [
        {
          "internalType": "address",
          "name": "_deg",
          "type": "address"
        },
        {
          "internalType": "address",
          "name": "_veDeg",
          "type": "address"
        },
        {
          "internalType": "address",
          "name": "_protectionPool",
          "type": "address"
        }
      ],
      "name": "initialize",
      "outputs": [],
      "stateMutability": "nonpayable",
      "type": "function"
    },
    {
      "inputs": [
        {
          "internalType": "address",
          "name": "",
          "type": "address"
        }
      ],
      "name": "oracleType",
      "outputs": [
        {
          "internalType": "uint256",
          "name": "",
          "type": "uint256"
        }
      ],
      "stateMutability": "view",
      "type": "function"
    },
    {
      "inputs": [],
      "name": "owner",
      "outputs": [
        {
          "internalType": "address",
          "name": "",
          "type": "address"
        }
      ],
      "stateMutability": "view",
      "type": "function"
    },
    {
      "inputs": [],
      "name": "payoutPool",
      "outputs": [
        {
          "internalType": "address",
          "name": "",
          "type": "address"
        }
      ],
      "stateMutability": "view",
      "type": "function"
    },
    {
      "inputs": [],
      "name": "priceGetter",
      "outputs": [
        {
          "internalType": "address",
          "name": "",
          "type": "address"
        }
      ],
      "stateMutability": "view",
      "type": "function"
    },
    {
      "inputs": [],
      "name": "priorityPoolFactory",
      "outputs": [
        {
          "internalType": "address",
          "name": "",
          "type": "address"
        }
      ],
      "stateMutability": "view",
      "type": "function"
    },
    {
      "inputs": [
        {
          "internalType": "uint256",
          "name": "",
          "type": "uint256"
        }
      ],
      "name": "priorityPools",
      "outputs": [
        {
          "internalType": "address",
          "name": "",
          "type": "address"
        }
      ],
      "stateMutability": "view",
      "type": "function"
    },
    {
      "inputs": [],
      "name": "protectionPool",
      "outputs": [
        {
          "internalType": "address",
          "name": "",
          "type": "address"
        }
      ],
      "stateMutability": "view",
      "type": "function"
    },
    {
      "inputs": [
        {
          "internalType": "uint256",
          "name": "_amount",
          "type": "uint256"
        }
      ],
      "name": "provideLiquidity",
      "outputs": [],
      "stateMutability": "nonpayable",
      "type": "function"
    },
    {
      "inputs": [
        {
          "internalType": "uint256",
          "name": "_amount",
          "type": "uint256"
        }
      ],
      "name": "removeLiquidity",
      "outputs": [],
      "stateMutability": "nonpayable",
      "type": "function"
    },
    {
      "inputs": [],
      "name": "renounceOwnership",
      "outputs": [],
      "stateMutability": "nonpayable",
      "type": "function"
    },
    {
      "inputs": [
        {
          "internalType": "address",
          "name": "_coverRightTokenFactory",
          "type": "address"
        }
      ],
      "name": "setCoverRightTokenFactory",
      "outputs": [],
      "stateMutability": "nonpayable",
      "type": "function"
    },
    {
      "inputs": [
        {
          "internalType": "address",
          "name": "_dexPriceGetter",
          "type": "address"
        }
      ],
      "name": "setDexPriceGetter",
      "outputs": [],
      "stateMutability": "nonpayable",
      "type": "function"
    },
    {
      "inputs": [
        {
          "internalType": "address",
          "name": "_exchange",
          "type": "address"
        }
      ],
      "name": "setExchange",
      "outputs": [],
      "stateMutability": "nonpayable",
      "type": "function"
    },
    {
      "inputs": [
        {
          "internalType": "address",
          "name": "_token",
          "type": "address"
        },
        {
          "internalType": "address",
          "name": "_exchange",
          "type": "address"
        }
      ],
      "name": "setExchangeByToken",
      "outputs": [],
      "stateMutability": "nonpayable",
      "type": "function"
    },
    {
      "inputs": [
        {
          "internalType": "address",
          "name": "_token",
          "type": "address"
        },
        {
          "internalType": "uint256",
          "name": "_type",
          "type": "uint256"
        }
      ],
      "name": "setOracleType",
      "outputs": [],
      "stateMutability": "nonpayable",
      "type": "function"
    },
    {
      "inputs": [
        {
          "internalType": "address",
          "name": "_payoutPool",
          "type": "address"
        }
      ],
      "name": "setPayoutPool",
      "outputs": [],
      "stateMutability": "nonpayable",
      "type": "function"
    },
    {
      "inputs": [
        {
          "internalType": "address",
          "name": "_priceGetter",
          "type": "address"
        }
      ],
      "name": "setPriceGetter",
      "outputs": [],
      "stateMutability": "nonpayable",
      "type": "function"
    },
    {
      "inputs": [
        {
          "internalType": "address",
          "name": "_priorityPoolFactory",
          "type": "address"
        }
      ],
      "name": "setPriorityPoolFactory",
      "outputs": [],
      "stateMutability": "nonpayable",
      "type": "function"
    },
    {
      "inputs": [
        {
          "internalType": "address",
          "name": "_protectionPool",
          "type": "address"
        }
      ],
      "name": "setProtectionPool",
      "outputs": [],
      "stateMutability": "nonpayable",
      "type": "function"
    },
    {
      "inputs": [
        {
          "internalType": "address",
          "name": "_swapHelper",
          "type": "address"
        }
      ],
      "name": "setSwapHelper",
      "outputs": [],
      "stateMutability": "nonpayable",
      "type": "function"
    },
    {
      "inputs": [
        {
          "internalType": "address",
          "name": "_treasury",
          "type": "address"
        }
      ],
      "name": "setTreasury",
      "outputs": [],
      "stateMutability": "nonpayable",
      "type": "function"
    },
    {
      "inputs": [
        {
          "internalType": "address",
          "name": "_weightedFarmingPool",
          "type": "address"
        }
      ],
      "name": "setWeightedFarmingPool",
      "outputs": [],
      "stateMutability": "nonpayable",
      "type": "function"
    },
    {
      "inputs": [
        {
          "internalType": "uint256",
          "name": "_poolId",
          "type": "uint256"
        },
        {
          "internalType": "uint256",
          "name": "_amount",
          "type": "uint256"
        }
      ],
      "name": "stakeLiquidity",
      "outputs": [],
      "stateMutability": "nonpayable",
      "type": "function"
    },
    {
      "inputs": [
        {
          "internalType": "uint256",
          "name": "_poolId",
          "type": "uint256"
        },
        {
          "internalType": "uint256",
          "name": "_amount",
          "type": "uint256"
        }
      ],
      "name": "stakeLiquidityWithoutFarming",
      "outputs": [],
      "stateMutability": "nonpayable",
      "type": "function"
    },
    {
      "inputs": [
        {
          "internalType": "address",
          "name": "_pool",
          "type": "address"
        },
        {
          "internalType": "address",
          "name": "_token",
          "type": "address"
        },
        {
          "internalType": "uint256",
          "name": "_poolId",
          "type": "uint256"
        }
      ],
      "name": "storePoolInformation",
      "outputs": [],
      "stateMutability": "nonpayable",
      "type": "function"
    },
    {
      "inputs": [],
      "name": "swapHelper",
      "outputs": [
        {
          "internalType": "address",
          "name": "",
          "type": "address"
        }
      ],
      "stateMutability": "view",
      "type": "function"
    },
    {
      "inputs": [
        {
          "internalType": "uint256",
          "name": "",
          "type": "uint256"
        }
      ],
      "name": "tokenByPoolId",
      "outputs": [
        {
          "internalType": "address",
          "name": "",
          "type": "address"
        }
      ],
      "stateMutability": "view",
      "type": "function"
    },
    {
      "inputs": [
        {
          "internalType": "address",
          "name": "newOwner",
          "type": "address"
        }
      ],
      "name": "transferOwnership",
      "outputs": [],
      "stateMutability": "nonpayable",
      "type": "function"
    },
    {
      "inputs": [],
      "name": "treasury",
      "outputs": [
        {
          "internalType": "address",
          "name": "",
          "type": "address"
        }
      ],
      "stateMutability": "view",
      "type": "function"
    },
    {
      "inputs": [
        {
          "internalType": "uint256",
          "name": "_poolId",
          "type": "uint256"
        },
        {
          "internalType": "address",
          "name": "_priorityLP",
          "type": "address"
        },
        {
          "internalType": "uint256",
          "name": "_amount",
          "type": "uint256"
        }
      ],
      "name": "unstakeLiquidity",
      "outputs": [],
      "stateMutability": "nonpayable",
      "type": "function"
    },
    {
      "inputs": [
        {
          "internalType": "uint256",
          "name": "_poolId",
          "type": "uint256"
        },
        {
          "internalType": "address",
          "name": "_priorityLP",
          "type": "address"
        },
        {
          "internalType": "uint256",
          "name": "_amount",
          "type": "uint256"
        }
      ],
      "name": "unstakeLiquidityWithoutFarming",
      "outputs": [],
      "stateMutability": "nonpayable",
      "type": "function"
    },
    {
      "inputs": [],
      "name": "weightedFarmingPool",
      "outputs": [
        {
          "internalType": "address",
          "name": "",
          "type": "address"
        }
      ],
      "stateMutability": "view",
      "type": "function"
    }
  ],
  "transactionHash": "0x600bec28e4c43eb4167bd2a7df915ceb3625a2b8f9f2c3fb737e42c5cf37bf1c",
  "args": [],
  "numDeployments": 4,
  "solcInputHash": "9ecc60b682b4a799f93cfce77d5529b5",
  "bytecode": "0x6080806040523461001657613629908161001c8239f35b600080fdfe6080604052600436101561001257600080fd5b6000803560e01c80625971b11461274a5780630121cff514612701578063056d7e58146126ce5780630fc6a11c146126a55780631b96666e1461266c578063298d4dd014612623578063398273041461257f5780633f81ff26146125365780634ea4c6b3146122bd57806357ad8f0b1461225f57806358bf0f2c1461221657806361d027b3146121ed5780636273106a146121c45780636549920d1461137a57806367b1f5df1461133157806367c0dd821461119157806367e03b54146111685780636c1b700f1461113f5780636f8a6e4314611116578063715018a6146110a757806389a30271146110785780638da5cb5b1461104d5780639549bd9a146110245780639c8f9f2314610f62578063a4fd14b314610f27578063a8bf604d14610eee578063aa139d5b14610ea5578063ab07211e14610cfa578063ad35e1dc14610cb1578063b0db637e14610c2d578063b567dc6a14610c04578063b6cccdd014610b61578063bef1e50014610839578063c0c53b8b14610665578063c2260f48146104fe578063ceed1b90146104d5578063d2f7265a146104ac578063d73cd47f14610463578063eb521a4c14610303578063f02bbc52146102d0578063f0f44260146102875763f2fde38b146101ea57600080fd5b3461028457602036600319011261028457610203612793565b60018060a01b0361021b81845460101c16331461287b565b8116156102305761022b90613593565b604051f35b60405162461bcd60e51b815260206004820152602660248201527f4f776e61626c653a206e6577206f776e657220697320746865207a65726f206160448201526564647265737360d01b6064820152608490fd5b80fd5b5034610284576020366003190112610284576102a1612793565b60018060a01b03906102ba82845460101c16331461287b565b1660018060a01b0319603b541617603b55604051f35b5034610284576020366003190112610284576020906004358152603e8252604060018060a01b0391205416604051908152f35b5034610284576020366003190112610284576004358015610451576034546001600160a01b03908116803b1561044d576040516344abf1a960e01b81526004810184905233602482015290849081908390604490829084905af1918215610440578492610425575b50506034546040516323b872dd60e01b8152926020928492839261039592911633600485016128cc565b03818673af88d065e77c8cc2239327c5edb3a432268e58315af1801561041a576103ec575b506040519081527fccb2ae3a2936bf4c94fa4e12cdf0cdad6ed0e4888a044cef89afa60f2e4b92d360203392a2604051f35b61040c9060203d8111610413575b6104048183612845565b8101906128b4565b50386103ba565b503d6103fa565b6040513d85823e3d90fd5b6104309192506127ff565b61043c5781833861036b565b8280fd5b50604051903d90823e3d90fd5b8380fd5b604051631613633b60e01b8152600490fd5b50346102845760203660031901126102845761047d612793565b60018060a01b039061049682845460101c16331461287b565b1660018060a01b03196041541617604155604051f35b50346102845780600319360112610284576039546040516001600160a01b039091168152602090f35b50346102845780600319360112610284576035546040516001600160a01b039091168152602090f35b50346102845761050d366127d5565b82158015610648575b61063657801561045157828452603d602052604084205484906001600160a01b03908116803b1561043c576040516301733ea560e41b81526001600160a01b0386166004820152602481018590523360448201529083908290606490829084905af190811561041a578391610622575b505060345416803b1561061e57818091604460405180948193630dfa376d60e01b83528160048401528860248401525af18015610613576105ff575b50506105f77fe44f6895444d7e27100c9f3a39dbf225380f26b7b7ad7cf0cebff9f7e00d5ab0916040519182913395836128ee565b0390a3604051f35b610608906127ff565b61044d5783386105c2565b6040513d84823e3d90fd5b5080fd5b61062b906127ff565b61061e578138610586565b604051635824d49b60e01b8152600490fd5b50828452603d60205260408420546001600160a01b031615610516565b50346102845760603660031901126102845761067f612793565b6106876127a9565b906044356001600160a01b0381811692918390036108345784549360ff8560081c161594858096610827575b8015610810575b156107b45760ff1981166001178755856107a3575b506106e960ff875460081c166106e481612c7e565b612c7e565b6106f233613593565b61070260ff875460081c16612c7e565b8160018060a01b0319931683603254161760325516816033541617603355838052603d602052604084208282825416179055603e6020526040842073af88d065e77c8cc2239327c5edb3a432268e583182825416179055603454161760345561076a57604051f35b61ff001981541681557f7f26b83ff96e1f2b6a682f133852f6798a09c465da95921460cefb3847402498602060405160018152a1604051f35b61ffff1916610101178655386106cf565b60405162461bcd60e51b815260206004820152602e60248201527f496e697469616c697a61626c653a20636f6e747261637420697320616c72656160448201526d191e481a5b9a5d1a585b1a5e995960921b6064820152608490fd5b50303b1580156106ba5750600160ff8216146106ba565b50600160ff8216106106b3565b600080fd5b503461028457610848366127d5565b909180158015610b44575b610636576036546040516315895f4760e31b81526004810183905285946001600160a01b039286908390602490829087165afa8015610a8e5786928391610b1e575b50604084608481603a54169483519687938492631357a41960e11b845233600485015216968760248401528a60448401528b60648401525af1958615610b135787938897610adc575b506040519384526020937fec68461f5d4cc45c89e914cb8826a966c73dd35e5f97815ece0a01ffa4a025a6853392a286610919575b87604051f35b83600493604051948580926370c264df60e11b82525afa928315610ad1578893610a99575b509061094b8893926129f8565b8661095a620151808504612dae565b50610969848785999499612b03565b96898816156109e2575b5050505050505090501691823b156109dd5760405163020da84160e61b8152600481019290925233602483015260448201529082908290606490829084905af18015610613576109c9575b808080808080610913565b6109d2906127ff565b6102845780386109be565b505050fd5b88969750906109fc6109f6610a0c936134ba565b916134ba565b610a05866134ba565b9187612a07565b93610a3389603754169460405198899788968795636c1020a160e01b875260048701612ac9565b03925af1918215610a8e578692610a54575b50508038808086898280610973565b90809250813d8311610a87575b610a6b8183612845565b81010312610a8357610a7c90612867565b3880610a45565b8480fd5b503d610a61565b6040513d88823e3d90fd5b8480929399508194503d8311610aca575b610ab48183612845565b810103126108345790518796909161094b61093e565b503d610aaa565b6040513d8a823e3d90fd5b909650610b0291935060403d604011610b0c575b610afa8183612845565b8101906129e2565b92909295386108de565b503d610af0565b6040513d89823e3d90fd5b610b3a91503d8085833e610b328183612845565b81019061295a565b5050505038610895565b50808452603d60205260408420546001600160a01b031615610853565b503461028457606036600319011261028457610b7b612793565b90610b846127a9565b60365460443593906001600160a01b039081163303610bf2578415610bde57839461022b9452603e602052604085209060018060a01b03199181851683825416179055603d60205260408620921690825416179055612bfa565b634e487b7160e01b84526001600452602484fd5b604051632b29402d60e21b8152600490fd5b50346102845780600319360112610284576038546040516001600160a01b039091168152602090f35b503461028457604036600319011261028457610c47612793565b6024359060018060a01b0390610c6482855460101c16331461287b565b6002831015610c7f57168252603f6020526040822055604051f35b60405162461bcd60e51b815260206004820152600a60248201526957726f6e67207479706560b01b6044820152606490fd5b503461028457602036600319011261028457610ccb612793565b60018060a01b0390610ce482845460101c16331461287b565b1660018060a01b03196036541617603655604051f35b503461028457610d09366127d5565b82158015610e88575b6106365780156104515760385484906001600160a01b03908116803b1561043c576040516316858d7960e21b8152600481018790526001600160a01b0386166024820152604481018590523360648201529083908290608490829084905af190811561041a578391610e74575b50859052603d60205280604083205416803b1561043c576040516301733ea560e41b81526001600160a01b0386166004820152602481018590523360448201529083908290606490829084905af190811561041a578391610e60575b505060345416803b1561061e57818091604460405180948193630dfa376d60e01b83528160048401528860248401525af1801561061357610e4c575b50506105f77f2dbdab27a2d16e827c458789b39587a960ef326f381f784ffa198426f3675197916040519182913395836128ee565b610e55906127ff565b61044d578338610e17565b610e69906127ff565b61061e578138610ddb565b610e7d906127ff565b61061e578138610d7f565b50828452603d60205260408420546001600160a01b031615610d12565b503461028457602036600319011261028457610ebf612793565b60018060a01b0390610ed882845460101c16331461287b565b1660018060a01b03196037541617603755604051f35b50346102845760203660031901126102845761022b610f0b612793565b610f2260018060a01b03845460101c16331461287b565b612bfa565b5034610284576020366003190112610284576020906001600160a01b039060409082610f51612793565b168152818452205416604051908152f35b50346102845760208060031936011261061e5760043590811561045157603454604051636d40d7d760e11b8152600481018490523360248201529082908290604490829088906001600160a01b03165af1801561101957610fef575b507fc2c3f06e49b9f15e7b4af9055e183b0d73362e033ad82a07dec9bf9840171719906040519283523392a2604051f35b8190813d8311611012575b6110048183612845565b810103126108345738610fbe565b503d610ffa565b6040513d86823e3d90fd5b5034610284578060031936011261028457603c546040516001600160a01b039091168152602090f35b50346102845780600319360112610284575460405160109190911c6001600160a01b03168152602090f35b5034610284578060031936011261028457602060405173af88d065e77c8cc2239327c5edb3a432268e58318152f35b503461028457806003193601126102845780546001600160a01b03906110d39060101c8216331461287b565b6000546000604051928260101c167f8be0079c531659141344cd1fd0a4f28419497f9722a3daafe3b4186f6b6457e08285a362010000600160b01b031916600055f35b50346102845780600319360112610284576036546040516001600160a01b039091168152602090f35b50346102845780600319360112610284576034546040516001600160a01b039091168152602090f35b50346102845780600319360112610284576037546040516001600160a01b039091168152602090f35b5034610284576111a0366127bf565b81158015611314575b61063657801561045157818352603d60209081526040808520549051630a43eeed60e11b81526004810184905233602482015285916001600160a01b0391908216848260448187855af1801561101957859187916112d9575b61122b9350846034541690866040518096819582946323b872dd60e01b845233600485016128cc565b03925af1801561041a576112bc575b5060345416803b1561061e57818091604460405180948193630dfa376d60e01b8352600160048401528960248401525af18015610613576112a8575b50507f6ed71e479f5286ad6192bfdc2b224afa6073276d8f9a0e5028400f589fbb39cc906040519283523392a3604051f35b6112b1906127ff565b61044d578338611276565b6112d290843d8611610413576104048183612845565b503861123a565b91905082813d831161130d575b6112f08183612845565b8101031261044d5785859161130761122b94612867565b50611202565b503d6112e6565b50818352603d60205260408320546001600160a01b0316156111a9565b50346102845760203660031901126102845761134b612793565b60018060a01b039061136482845460101c16331461287b565b1660018060a01b03196039541617603955604051f35b5034610284576080366003190112610284576004351580156121a5575b61063657604435151580612198575b1561218657600480358252603d602090815260408084205460345491516370a0823160e01b81526001600160a01b03928316948101949094521691908160248173af88d065e77c8cc2239327c5edb3a432268e58315afa90811561041a578391612154575b506040516359b6a0c960e01b8152602081600481865afa908115611019578491612120575b50612710611442602092600494612bd0565b049260405192838092636835185f60e11b82525afa801561041a5783906120ec575b6114719150602435612bee565b116120da576004358152603d6020526044604060018060a01b038184205416815192838092638905faeb60e01b82526024356004830152823560248301525afa90811561061357829083926120b8575b5060643581116120a657620151808042046114db81612dae565b929150506001604435106120925760196000196044350192101561206c575b61150661150f91612dae565b93849391612bee565b60018110611dde5761152b600c91600019019282840490612bee565b91066001198111611dde57926115649261155f92600161156d96019161155183836133b5565b809111612064575b5061315a565b612bb8565b82420690612bee565b90428210610a835761157f9104612dae565b5061159961155f611592838597956133b5565b838761315a565b9062014370198211611c9157610dd41962014370830111611c9157603b1962015144830111611c91576036546040516315895f4760e31b81526004803590820152908790829060249082906001600160a01b03165afa928315610b135760049388928991612040575b50604051630b90ca9160e11b81529460209186919082906001600160a01b03165afa938415610ad1578894612009575b506201517f01916116468484600435612b03565b966001600160a01b03881615611f5a575b50505050506001600160a01b0383163b1561044d5760405163020da84160e61b815260048035908201523360248083019190915235604482015284908181606481836001600160a01b038a165af1801561061357611f46575b50508115611f34576004358452603e60209081526040808620546001600160a01b0316808752603f909252852054611e79576035546040516302c68be360e31b81526004810183905290602090829060249082908a906001600160a01b03165af1908115610a8e578691611e47575b50915b60405163313ce56760e01b8152602081600481865afa8015610b13578790611e06575b60ff91501660068110611df257670de0b6b3a7640000906005190160ff166001600019879004831116611c9157604d8111611dde579061178a91600a0a908602612bd0565b908315611dc8576040516323b872dd60e01b60208201526117c4816117b68786043033602485016128cc565b03601f198101835282612845565b6040516117d081612829565b602081527f5361666545524332303a206c6f772d6c6576656c2063616c6c206661696c65646020820152843b15611d8357888083602061183e9551910182895af13d15611d7b573d9061182282612909565b916118306040519384612845565b82523d8b602084013e613476565b80519081611d06575b50508382046000190461119411848304151516611c91576118746127106111948685040204858404612be3565b60415460405163a9059cbb60e01b815291959190602090829081906118a7908a906001600160a01b0316600484016128ee565b03818c895af18015611cdc57611ce7575b5060415460405163d004f0f760e01b8152959060209087906001600160a01b0316818c816118ea878c600484016128ee565b03925af1958615611cdc578996611ca7575b5060607f57f3d153693ba34ad2f1603ab743de3caf14b05ffa2fdfae8e9d0947a17c7ca391604051908782526020820152876040820152a184600019046113881185151516611c915784612710602061119461196161157c6113888e9b020485612be3565b60408051878a048402869004815261157c61138888020460208201529081018290529098907fe59d21244ca3bff81515b705214dab78cc9f978c1939e610874429ffa47380b290606090a1858a896119de60018060a01b03603854166040519889978896879563a9059cbb60e01b875204020490600484016128ee565b03925af18015610b135761157c9260209261138892611c74575b5060345460405163a9059cbb60e01b81529485938493611a2b93910291909104906001600160a01b0316600484016128ee565b03818973af88d065e77c8cc2239327c5edb3a432268e58315af18015610a8e57611c55575b50603b5460405163a9059cbb60e01b81529060209082908190611a819089906001600160a01b0316600484016128ee565b03818973af88d065e77c8cc2239327c5edb3a432268e58315af18015610a8e57611c36575b506034546001600160a01b0316803b15611c1e57858091600460405180948193621e432b60e81b83525af1908115610a8e578691611c22575b50506004358552603d60205260408520546001600160a01b0316803b15611c1e57611194938660849281956127106040519889978896630aadb77760e01b885260243560048901520402046024850152604435604485015260648401525af190811561041a578391611c0a575b5050603b546001600160a01b0316803b1561043c57604483926040519485938492635b97d36760e01b8452600435600485015260248401525af1801561101957611bf6575b60208383604051907f308dab4150a765534b441eef3367b2732d18bfdcd4b5ffe2a7084e1b169905156004359280611be13394602435604435846040919493926060820195825260208201520152565b0390a36040516001600160a01b039091168152f35b611c0084916127ff565b61043c5782611b91565b611c13906127ff565b61061e578138611b4c565b8580fd5b611c2b906127ff565b610a83578438611adf565b611c4e9060203d602011610413576104048183612845565b5038611aa6565b611c6d9060203d602011610413576104048183612845565b5038611a50565b611c8a90843d8611610413576104048183612845565b50386119f8565b634e487b7160e01b600052601160045260246000fd5b9095506020813d602011611cd4575b81611cc360209383612845565b8101031261083457519460606118fc565b3d9150611cb6565b6040513d8b823e3d90fd5b611cff9060203d602011610413576104048183612845565b50386118b8565b602080611d179383010191016128b4565b15611d23573880611847565b60405162461bcd60e51b815260206004820152602a60248201527f5361666545524332303a204552433230206f7065726174696f6e20646964206e6044820152691bdd081cdd58d8d9595960b21b6064820152608490fd5b606090613476565b60405162461bcd60e51b815260206004820152601d60248201527f416464726573733a2063616c6c20746f206e6f6e2d636f6e74726163740000006044820152606490fd5b634e487b7160e01b600052601260045260246000fd5b634e487b7160e01b88526011600452602488fd5b634e487b7160e01b87526011600452602487fd5b506020813d602011611e3f575b81611e2060209383612845565b81010312611e3b575160ff81168103611e3b5760ff90611745565b8680fd5b3d9150611e13565b90506020813d602011611e71575b81611e6260209383612845565b8101031261083457513861171f565b3d9150611e55565b6040852054600103611efb57603c546040516302c68be360e31b81526004810183905290602090829060249082908a906001600160a01b03165af1908115610a8e578691611ec9575b5091611722565b90506020813d602011611ef3575b81611ee460209383612845565b81010312610834575138611ec2565b3d9150611ed7565b60405162461bcd60e51b815260206004820152601160248201527057726f6e67206f7261636c65207479706560781b6044820152606490fd5b60405163720794bf60e01b8152600490fd5b611f4f906127ff565b61044d5783386116b0565b60209495975090611f706109f6611f80936134ba565b611f79876134ba565b9184612a07565b8760018060a01b036037541692611fb160405197889687958694636c1020a160e01b86526004359060048701612ac9565b03925af1908115611019578491611fcf575b50913880808080611657565b90506020813d602011612001575b81611fea60209383612845565b8101031261044d57611ffb90612867565b38611fc3565b3d9150611fdd565b9093506020813d602011612038575b8161202560209383612845565b810103126108345751926201517f611632565b3d9150612018565b6020935061205891503d808b833e610b328183612845565b50505092909290611602565b925038611559565b906001191061207e57604435906114fa565b634e487b7160e01b85526011600452602485fd5b634e487b7160e01b86526011600452602486fd5b60405163855e507b60e01b8152600490fd5b90506120d3915060403d604011610b0c57610afa8183612845565b90386114c1565b604051637730dc0b60e01b8152600490fd5b506020813d602011612118575b8161210660209383612845565b81010312610834576114719051611464565b3d91506120f9565b90506020813d60201161214c575b8161213b60209383612845565b810103126108345751612710611430565b3d915061212e565b90506020813d60201161217e575b8161216f60209383612845565b8101031261083457513861140b565b3d9150612162565b6040516307aaabcb60e21b8152600490fd5b50600360443511156113a6565b506004358152603d60205260408120546001600160a01b031615611397565b5034610284578060031936011261028457603a546040516001600160a01b039091168152602090f35b5034610284578060031936011261028457603b546040516001600160a01b039091168152602090f35b503461028457602036600319011261028457612230612793565b60018060a01b039061224982845460101c16331461287b565b1660018060a01b03196038541617603855604051f35b503461028457604036600319011261028457612279612793565b6122816127a9565b9060018060a01b03809161229c82865460101c16331461287b565b168352604060205260408320911660018060a01b0319825416179055604051f35b5034610284576122cc366127bf565b81158015612519575b61063657801561045157818352603d60209081526040808520549051630a43eeed60e11b8152600481018490523060248201526001600160a01b03929183169082816044818a865af1908115610b135785849189936124df575b5061235992938660345416908a6040518096819582946323b872dd60e01b845233600485016128cc565b03925af18015610b13576124c2575b50858360345416803b1561061e578190604460405180948193630dfa376d60e01b8352600160048401528a60248401525af18015610b13576124af575b50826038541692833b15611e3b57604051635a12fc9360e11b8152600481018790526001600160a01b03831660248201526044810186905233606482015293879081908690608490829084905af1948515610440578695612496575b509181849361242c9693603854169160405180988196829563a9059cbb60e01b8452600484016128ee565b0393165af191821561248b577f1e54d7530dad81af38adb8ca9db02add3130668375f37be85396403616fc3d499261246e575b506040519283523392a3604051f35b61248490823d8411610413576104048183612845565b503861245f565b6040513d87823e3d90fd5b6124a2919295506127ff565b611c1e5783928638612401565b6124bb909691966127ff565b94386123a5565b6124d890833d8511610413576104048183612845565b5038612368565b92505081813d8311612512575b6124f68183612845565b81010312611e3b57828561250c61235993612867565b9261232f565b503d6124ec565b50818352603d60205260408320546001600160a01b0316156122d5565b503461028457602036600319011261028457612550612793565b60018060a01b039061256982845460101c16331461287b565b1660018060a01b0319603a541617603a55604051f35b5034610284576020908160031936011261028457600480358252603d83526040808320549051634e75827160e01b81526001600160a01b0392909185918391829086165afa9283156126175780936125dd575b505060405191168152f35b909192508382813d8311612610575b6125f68183612845565b81010312610284575061260890612867565b9038806125d2565b503d6125ec565b604051903d90823e3d90fd5b50346102845760203660031901126102845761263d612793565b60018060a01b039061265682845460101c16331461287b565b1660018060a01b03196035541617603555604051f35b5034610284576020366003190112610284576020906040906001600160a01b03612694612793565b168152603f83522054604051908152f35b50346102845780600319360112610284576041546040516001600160a01b039091168152602090f35b5034610284576020366003190112610284576020906004358152603d8252604060018060a01b0391205416604051908152f35b50346102845760203660031901126102845761271b612793565b60018060a01b039061273482845460101c16331461287b565b1660018060a01b03196034541617603455604051f35b503461028457602036600319011261028457612764612793565b60018060a01b039061277d82845460101c16331461287b565b1660018060a01b0319603c541617603c55604051f35b600435906001600160a01b038216820361083457565b602435906001600160a01b038216820361083457565b6040906003190112610834576004359060243590565b606090600319011261083457600435906024356001600160a01b0381168103610834579060443590565b67ffffffffffffffff811161281357604052565b634e487b7160e01b600052604160045260246000fd5b6040810190811067ffffffffffffffff82111761281357604052565b90601f8019910116810190811067ffffffffffffffff82111761281357604052565b51906001600160a01b038216820361083457565b1561288257565b60405162461bcd60e51b815260206004820152600a60248201526927b7363c9037bbb732b960b11b6044820152606490fd5b90816020910312610834575180151581036108345790565b6001600160a01b03918216815291166020820152604081019190915260600190565b6001600160a01b039091168152602081019190915260400190565b67ffffffffffffffff811161281357601f01601f191660200190565b918091926000905b82821061294557501161293e575050565b6000910152565b9150806020918301518186015201829161292d565b9060a08282031261083457815167ffffffffffffffff811161083457820181601f8201121561083457805161298e81612909565b9261299c6040519485612845565b81845260208284010111610834576129ba9160208085019101612925565b916129c760208301612867565b916129d460408201612867565b916080606083015192015190565b9190826040910312610834576020825192015190565b6000198114611c915760010190565b6027919493612aa2936040519687936243522d60e81b6020860152612a36815180926020602389019101612925565b840190602d60f81b91826023820152612a59825180936020602485019101612925565b01906024820152612a74825180936020602585019101612925565b01612d4760f01b6025820152612a938251809360208785019101612925565b01036007810185520183612845565b565b90602091612abd81518092818552858086019101612925565b601f01601f1916010190565b91608093612ae6612af9939897969860a0865260a0860190612aa4565b9160208501528382036040850152612aa4565b9460608201520152565b9160405191602083019384526040830152606082015260608152608081019181831067ffffffffffffffff8411176128135782602481602093816040528551902060018060a01b036037541690631620909560e01b835260848701525afa908115612bac57600091612b76575b50905090565b602090813d8111612ba5575b612b8c8186612845565b810103126102845750612b9e90612867565b8038612b70565b503d612b82565b6040513d6000823e3d90fd5b62015180908060001904821181151516611c91570290565b8060001904821181151516611c91570290565b818110611c91570390565b81198111611c91570190565b6001600160a01b039081166000818152604060208190529020549091168015612c6c576000916044602092604051948593849263095ea7b360e01b84526004840152811960248401525af18015612bac57612c525750565b612c699060203d8111610413576104048183612845565b50565b6040516307bb995d60e41b8152600490fd5b15612c8557565b60405162461bcd60e51b815260206004820152602b60248201527f496e697469616c697a61626c653a20636f6e7472616374206973206e6f74206960448201526a6e697469616c697a696e6760a81b6064820152608490fd5b6000811280156001600160ff1b03839003841316611c9157600160ff1b829003831216611c91570190565b6105b560008083136001600160ff1b03849004831116600116612d595760017fffe9924f8d0dd7b2e6f174df9576f9de01c091c8faeb2605f522de8852b47aa884128285121616612d5957500290565b634e487b7160e01b81526011600452602490fd5b600e600160ff1b018112600116611c9157600d190190565b600082128015600160ff1b8401831216611c91576001600160ff1b038301821316611c91570390565b6000916001600160ff1b039162010bd990848112818503811581851316611df257600160ff1b938385039283821216611dde5787908401129162010bd819908162253d8c930183138415166131465701131661207e57622649650193600193600491858783048411828913161661313357808712600760fd1b88121686166131335762023ab196878160021b0597878985048211848b13161661310d57877fffffc694f94337079d130ab45dff8e0f9ea161331bb1c93dea871de6fec83ce28a12848b12161661310d578802828112818503600313811516613120578187036003121661310d5790846003612ea593010590612d85565b9281841284840388138115166130c1578486038812166130ae57868401610fa088828604821185841316166130d457887ffff7ced916872b020c49ba5e353f7ced916872b020c49ba5e353f7ced916872c831285841216166130d457612f1e9162164b099102059482612f1787612d09565b0590612d85565b828112818503601f138115166130d457818703601f12166130c157601f019680888504605011848a1316166130c157807ffe666666666666666666666666666666666666666666666666666666666666678912848a1216166130c15761098f9788816050020590828287048b1186841316166130fa5784821299837ffff29be1739a4fb805dbcd5d6c7d1f7d6fd627208942391f124ee1c3f307026884128c16166130e75790605083612fd393020590612d85565b98600b8205978287036002138215166130e757829003600212166130d45781878604600c1185891316166130d457817ff555555555555555555555555555555555555555555555555555555555555556881285891216166130d45761303f90600288600c029101612d85565b986031600160ff1b01811282166130d45781906030190180950460641184861316166130c1577ffeb851eb851eb851eb851eb851eb851eb851eb851eb851eb851eb851eb851eb9841283851216166130ae5750506130a992916130a491606402612cde565b612cde565b929190565b634e487b7160e01b825260119052602490fd5b634e487b7160e01b835260118252602483fd5b634e487b7160e01b845260118352602484fd5b634e487b7160e01b865260118552602486fd5b634e487b7160e01b855260118452602485fd5b634e487b7160e01b835260118552602483fd5b634e487b7160e01b845260118652602484fd5b634e487b7160e01b815260118352602490fd5b634e487b7160e01b89526011600452602489fd5b9291926107b2811061083457600191617d4b600160ff1b0185128316611c91576000918281128015926001600160ff1b03929182840391906112c08381138716611dde57600160ff1b859003908181128316613146576131d798999a9b6131e8916131dc60049b8c92600c6131ce8a612d6d565b05908b01612cde565b612d09565b0590617d4a1901612cde565b6002600160ff1b0184128b166133a257600c61320385612d6d565b058b7f0aaaaaaaaaaaaaaaaaaaaaaaaaaaaaaaaaaaaaaaaaaaaaaaaaaaaaaaaaaaaaaa82118c8313161661338f578b7ff55555555555555555555555555555555555555555555555555555555555555682128c8312161661338f5761326f90600c026001198601612d85565b61016f8c828a0482118d8413161661337c578c7fffa6b6c1eb12d573186a06f9b8d9a287530217b7747d8eff4d6d83d625aae63183128d8412161661337c576132be9291600c91020590612cde565b966113249485131661336957831216613356578792606492600c6132e46132ec94612d6d565b059101612cde565b0580920460031185831316166130d457847fd555555555555555555555555555555555555555555555555555555555555556821285831216166130d4579082613339926003020590612d85565b9262253d8c600160ff1b018412166130ae57505062253d8b190190565b634e487b7160e01b875260118652602487fd5b634e487b7160e01b895260118852602489fd5b634e487b7160e01b8c5260118b5260248cfd5b634e487b7160e01b8b5260118a5260248bfd5b634e487b7160e01b8a526011895260248afd5b9060018114801561346c575b8015613462575b8015613458575b801561344e575b8015613444575b801561343a575b156133f0575050601f90565b6002146133fd5750601e90565b6003811615908161342d575b8115613420575b501561341b57601d90565b601c90565b6101909150061538613410565b6064810615159150613409565b50600c81146133e4565b50600a81146133dd565b50600881146133d6565b50600781146133cf565b50600581146133c8565b50600381146133c1565b90919015613482575090565b8151156134925750805190602001fd5b60405162461bcd60e51b8152602060048201529081906134b6906024830190612aa4565b0390fd5b801561357557600081805b61356157506134d381612909565b906134e16040519283612845565b808252601f196134f082612909565b013660208401375b80831561355a5760018110611c91576000190192600a91828206603081198111611c91578551871015613544570160f81b6001600160f81b03191660001a908401601f015304916134f8565b634e487b7160e01b600052603260045260246000fd5b5050905090565b9061356d600a916129f8565b9104806134c5565b5060405161358281612829565b60018152600360fc1b602082015290565b6000549060018060a01b03808216908360101c167f8be0079c531659141344cd1fd0a4f28419497f9722a3daafe3b4186f6b6457e06000604051a362010000600160b01b031990911660109190911b62010000600160b01b03161760005556fea2646970667358221220d38300dc6d266eee0c290a77aa553e33bcc5aa3c8e746826de7bfd5761b5e5f364736f6c634300080f0033",
  "devdoc": {
    "author": "Eric Lee (ylikp.ust@gmail.com) & Primata (primata@375labs.org)",
    "kind": "dev",
    "methods": {
      "approvePoolToken(address)": {
        "params": {
          "_token": "Address of the approved token"
        }
      },
      "buyCover(uint256,uint256,uint256,uint256)": {
        "params": {
          "_coverAmount": "Amount to cover",
          "_coverDuration": "Cover duration in month (1 ~ 3)",
          "_maxPayment": "Maximum payment user can accept",
          "_poolId": "Pool id"
        },
        "returns": {
          "_0": "crToken CR token address"
        }
      },
      "claimPayout(uint256,address,uint256)": {
        "params": {
          "_crToken": "Cover right token address",
          "_generation": "Generation of the priority pool",
          "_poolId": "Pool id"
        }
      },
      "currentLPAddress(uint256)": {
        "params": {
          "_poolId": "Priority Pool ID"
        },
        "returns": {
          "lpAddress": "Current generation LP token address"
        }
      },
      "owner()": {
        "details": "Returns the address of the current owner."
      },
      "provideLiquidity(uint256)": {
        "params": {
          "_amount": "Amount of liquidity (usdc) to provide"
        }
      },
      "removeLiquidity(uint256)": {
        "params": {
          "_amount": "Amount of liquidity to provide"
        }
      },
      "renounceOwnership()": {
        "details": "Leaves the contract without owner. It will not be possible to call `onlyOwner` functions anymore. Can only be called by the current owner. NOTE: Renouncing ownership will leave the contract without an owner, thereby removing any functionality that is only available to the owner."
      },
      "stakeLiquidity(uint256,uint256)": {
        "params": {
          "_amount": "Amount of PRO-LP tokens to stake",
          "_poolId": "Pool id"
        }
      },
      "stakeLiquidityWithoutFarming(uint256,uint256)": {
        "params": {
          "_amount": "Amount of PRO-LP amount",
          "_poolId": "Pool id"
        }
      },
      "storePoolInformation(address,address,uint256)": {
        "params": {
          "_pool": "Address of the priority pool",
          "_poolId": "Pool id",
          "_token": "Address of the priority pool's native token"
        }
      },
      "transferOwnership(address)": {
        "details": "Transfers ownership of the contract to a new account (`newOwner`). Can only be called by the current owner."
      },
      "unstakeLiquidity(uint256,address,uint256)": {
        "params": {
          "_amount": "Amount of LP(priority lp) tokens to withdraw",
          "_poolId": "Pool id",
          "_priorityLP": "Priority lp token address to withdraw"
        }
      },
      "unstakeLiquidityWithoutFarming(uint256,address,uint256)": {
        "params": {
          "_amount": "PRI-LP token amount to remove",
          "_poolId": "Pool id",
          "_priorityLP": "PRI-LP token address"
        }
      }
    },
    "title": "Policy Center",
    "version": 1
  },
  "userdoc": {
    "kind": "user",
    "methods": {
      "approvePoolToken(address)": {
        "notice": "Approve the exchange to swap tokens"
      },
      "buyCover(uint256,uint256,uint256,uint256)": {
        "notice": "Buy new cover for a given pool         Select a pool with parameter \"poolId\"         Cover amount is in usdc and duration is in month         The premium ratio may be dynamic so \"maxPayment\" is similar to \"slippage\""
      },
      "claimPayout(uint256,address,uint256)": {
        "notice": "Claim payout         Need to use a specific crToken address as parameter"
      },
      "currentLPAddress(uint256)": {
        "notice": "Returns the current LP address for a Pool ID         \"Current\" means the LP address that is currently being used         Because each priority pool may have several generations of LP tokens         Once reported and paid out, the LP generation will be updated"
      },
      "provideLiquidity(uint256)": {
        "notice": "Provide liquidity to Protection Pool"
      },
      "removeLiquidity(uint256)": {
        "notice": "Remove liquidity from protection pool"
      },
      "stakeLiquidity(uint256,uint256)": {
        "notice": "Stake Protection Pool LP (PRO-LP) into priority pools         And automatically stake the PRI-LP tokens into weighted farming pool         With this function, no need for approval of PRI-LP tokens         If you want to hold the PRI-LP tokens for other usage         Call \"stakeLiquidityWithoutFarming\""
      },
      "stakeLiquidityWithoutFarming(uint256,uint256)": {
        "notice": "Stake liquidity to priority pool without depositing into farming"
      },
      "storePoolInformation(address,address,uint256)": {
        "notice": "Store new pool information"
      },
      "unstakeLiquidity(uint256,address,uint256)": {
        "notice": "Unstake Protection Pool LP from priority pools         There may be different generations of priority lp tokens         This function will first remove the PRI-LP token from farming pool         Ensure that your PRI-LP tokens are inside the farming pool         If the PRI-LP tokens are in your own wallet, use \"unstakeLiquidityWithoutFarming\""
      },
      "unstakeLiquidityWithoutFarming(uint256,address,uint256)": {
        "notice": "Unstake liquidity without removing PRI-LP from farming"
      }
    },
    "notice": "This is the policy center for degis Protocol Protection         Users can buy policies and get payoff here         Sellers can provide liquidity and choose the pools to cover",
    "version": 1
  },
  "storageLayout": {
    "storage": [
      {
        "astId": 184,
        "contract": "src/core/PolicyCenter.sol:PolicyCenter",
        "label": "_initialized",
        "offset": 0,
        "slot": "0",
        "type": "t_uint8"
      },
      {
        "astId": 187,
        "contract": "src/core/PolicyCenter.sol:PolicyCenter",
        "label": "_initializing",
        "offset": 1,
        "slot": "0",
        "type": "t_bool"
      },
      {
        "astId": 27683,
        "contract": "src/core/PolicyCenter.sol:PolicyCenter",
        "label": "_owner",
        "offset": 2,
        "slot": "0",
        "type": "t_address"
      },
      {
        "astId": 27790,
        "contract": "src/core/PolicyCenter.sol:PolicyCenter",
        "label": "__gap",
        "offset": 0,
        "slot": "1",
        "type": "t_array(t_uint256)49_storage"
      },
      {
        "astId": 14166,
        "contract": "src/core/PolicyCenter.sol:PolicyCenter",
        "label": "deg",
        "offset": 0,
        "slot": "50",
        "type": "t_contract(IDegisToken)14282"
      },
      {
        "astId": 14169,
        "contract": "src/core/PolicyCenter.sol:PolicyCenter",
        "label": "veDeg",
        "offset": 0,
        "slot": "51",
        "type": "t_contract(IVeDEG)15443"
      },
      {
        "astId": 13321,
        "contract": "src/core/PolicyCenter.sol:PolicyCenter",
        "label": "protectionPool",
        "offset": 0,
        "slot": "52",
        "type": "t_address"
      },
      {
        "astId": 13323,
        "contract": "src/core/PolicyCenter.sol:PolicyCenter",
        "label": "priceGetter",
        "offset": 0,
        "slot": "53",
        "type": "t_address"
      },
      {
        "astId": 13325,
        "contract": "src/core/PolicyCenter.sol:PolicyCenter",
        "label": "priorityPoolFactory",
        "offset": 0,
        "slot": "54",
        "type": "t_address"
      },
      {
        "astId": 13327,
        "contract": "src/core/PolicyCenter.sol:PolicyCenter",
        "label": "coverRightTokenFactory",
        "offset": 0,
        "slot": "55",
        "type": "t_address"
      },
      {
        "astId": 13329,
        "contract": "src/core/PolicyCenter.sol:PolicyCenter",
        "label": "weightedFarmingPool",
        "offset": 0,
        "slot": "56",
        "type": "t_address"
      },
      {
        "astId": 13331,
        "contract": "src/core/PolicyCenter.sol:PolicyCenter",
        "label": "exchange",
        "offset": 0,
        "slot": "57",
        "type": "t_address"
      },
      {
        "astId": 13333,
        "contract": "src/core/PolicyCenter.sol:PolicyCenter",
        "label": "payoutPool",
        "offset": 0,
        "slot": "58",
        "type": "t_address"
      },
      {
        "astId": 13335,
        "contract": "src/core/PolicyCenter.sol:PolicyCenter",
        "label": "treasury",
        "offset": 0,
        "slot": "59",
        "type": "t_address"
      },
      {
        "astId": 13337,
        "contract": "src/core/PolicyCenter.sol:PolicyCenter",
        "label": "dexPriceGetter",
        "offset": 0,
        "slot": "60",
        "type": "t_address"
      },
      {
        "astId": 11836,
        "contract": "src/core/PolicyCenter.sol:PolicyCenter",
        "label": "priorityPools",
        "offset": 0,
        "slot": "61",
        "type": "t_mapping(t_uint256,t_address)"
      },
      {
        "astId": 11840,
        "contract": "src/core/PolicyCenter.sol:PolicyCenter",
        "label": "tokenByPoolId",
        "offset": 0,
        "slot": "62",
        "type": "t_mapping(t_uint256,t_address)"
      },
      {
        "astId": 11844,
        "contract": "src/core/PolicyCenter.sol:PolicyCenter",
        "label": "oracleType",
        "offset": 0,
        "slot": "63",
        "type": "t_mapping(t_address,t_uint256)"
      },
      {
        "astId": 11848,
        "contract": "src/core/PolicyCenter.sol:PolicyCenter",
        "label": "exchangeByToken",
        "offset": 0,
        "slot": "64",
        "type": "t_mapping(t_address,t_address)"
      },
      {
        "astId": 11850,
        "contract": "src/core/PolicyCenter.sol:PolicyCenter",
        "label": "swapHelper",
        "offset": 0,
        "slot": "65",
        "type": "t_address"
      }
    ],
    "types": {
      "t_address": {
        "encoding": "inplace",
        "label": "address",
        "numberOfBytes": "20"
      },
      "t_array(t_uint256)49_storage": {
        "base": "t_uint256",
        "encoding": "inplace",
        "label": "uint256[49]",
        "numberOfBytes": "1568"
      },
      "t_bool": {
        "encoding": "inplace",
        "label": "bool",
        "numberOfBytes": "1"
      },
      "t_contract(IDegisToken)14282": {
        "encoding": "inplace",
        "label": "contract IDegisToken",
        "numberOfBytes": "20"
      },
      "t_contract(IVeDEG)15443": {
        "encoding": "inplace",
        "label": "contract IVeDEG",
        "numberOfBytes": "20"
      },
      "t_mapping(t_address,t_address)": {
        "encoding": "mapping",
        "key": "t_address",
        "label": "mapping(address => address)",
        "numberOfBytes": "32",
        "value": "t_address"
      },
      "t_mapping(t_address,t_uint256)": {
        "encoding": "mapping",
        "key": "t_address",
        "label": "mapping(address => uint256)",
        "numberOfBytes": "32",
        "value": "t_uint256"
      },
      "t_mapping(t_uint256,t_address)": {
        "encoding": "mapping",
        "key": "t_uint256",
        "label": "mapping(uint256 => address)",
        "numberOfBytes": "32",
        "value": "t_address"
      },
      "t_uint256": {
        "encoding": "inplace",
        "label": "uint256",
        "numberOfBytes": "32"
      },
      "t_uint8": {
        "encoding": "inplace",
        "label": "uint8",
        "numberOfBytes": "1"
      }
    }
  }
}