{
  "address": "0x717B00683c783c7C02C5c25aA05054d48eeD6CDa",
  "abi": [
    {
      "inputs": [],
      "name": "PriorityPoolFactory__AlreadyDynamicPool",
      "type": "error"
    },
    {
      "inputs": [],
      "name": "PriorityPoolFactory__NotOwnerOrFactory",
      "type": "error"
    },
    {
      "inputs": [],
      "name": "PriorityPoolFactory__OnlyExecutor",
      "type": "error"
    },
    {
      "inputs": [],
      "name": "PriorityPoolFactory__OnlyIncidentReportOrExecutor",
      "type": "error"
    },
    {
      "inputs": [],
      "name": "PriorityPoolFactory__OnlyOwnerOrExecutor",
      "type": "error"
    },
    {
      "inputs": [],
      "name": "PriorityPoolFactory__OnlyPolicyCenter",
      "type": "error"
    },
    {
      "inputs": [],
      "name": "PriorityPoolFactory__OnlyPriorityPool",
      "type": "error"
    },
    {
      "inputs": [],
      "name": "PriorityPoolFactory__PoolNotRegistered",
      "type": "error"
    },
    {
      "inputs": [],
      "name": "PriorityPoolFactory__TokenAlreadyRegistered",
      "type": "error"
    },
    {
      "inputs": [],
      "name": "PriorityPoolFactory__WrongLPToken",
      "type": "error"
    },
    {
      "anonymous": false,
      "inputs": [
        {
          "indexed": false,
          "internalType": "uint256",
          "name": "poolId",
          "type": "uint256"
        },
        {
          "indexed": false,
          "internalType": "address",
          "name": "pool",
          "type": "address"
        },
        {
          "indexed": false,
          "internalType": "uint256",
          "name": "dynamicPoolCounter",
          "type": "uint256"
        }
      ],
      "name": "DynamicPoolUpdate",
      "type": "event"
    },
    {
      "anonymous": false,
      "inputs": [
        {
          "indexed": false,
          "internalType": "uint8",
          "name": "version",
          "type": "uint8"
        }
      ],
      "name": "Initialized",
      "type": "event"
    },
    {
      "anonymous": false,
      "inputs": [
        {
          "indexed": false,
          "internalType": "uint256",
          "name": "totalMaxCapacity",
          "type": "uint256"
        }
      ],
      "name": "MaxCapacityUpdated",
      "type": "event"
    },
    {
      "anonymous": false,
      "inputs": [
        {
          "indexed": true,
          "internalType": "address",
          "name": "previousOwner",
          "type": "address"
        },
        {
          "indexed": true,
          "internalType": "address",
          "name": "newOwner",
          "type": "address"
        }
      ],
      "name": "OwnershipTransferred",
      "type": "event"
    },
    {
      "anonymous": false,
      "inputs": [
        {
          "indexed": false,
          "internalType": "uint256",
          "name": "poolId",
          "type": "uint256"
        },
        {
          "indexed": false,
          "internalType": "address",
          "name": "poolAddress",
          "type": "address"
        },
        {
          "indexed": false,
          "internalType": "string",
          "name": "protocolName",
          "type": "string"
        },
        {
          "indexed": false,
          "internalType": "address",
          "name": "protocolToken",
          "type": "address"
        },
        {
          "indexed": false,
          "internalType": "uint256",
          "name": "maxCapacity",
          "type": "uint256"
        },
        {
          "indexed": false,
          "internalType": "uint256",
          "name": "basePremiumRatio",
          "type": "uint256"
        }
      ],
      "name": "PoolCreated",
      "type": "event"
    },
    {
      "inputs": [],
      "name": "USDC",
      "outputs": [
        {
          "internalType": "address",
          "name": "",
          "type": "address"
        }
      ],
      "stateMutability": "view",
      "type": "function"
    },
    {
      "inputs": [
        {
          "internalType": "string",
          "name": "_name",
          "type": "string"
        },
        {
          "internalType": "address",
          "name": "_protocolToken",
          "type": "address"
        },
        {
          "internalType": "uint256",
          "name": "_maxCapacity",
          "type": "uint256"
        },
        {
          "internalType": "uint256",
          "name": "_basePremiumRatio",
          "type": "uint256"
        }
      ],
      "name": "deployPool",
      "outputs": [
        {
          "internalType": "address",
          "name": "",
          "type": "address"
        }
      ],
      "stateMutability": "nonpayable",
      "type": "function"
    },
    {
      "inputs": [
        {
          "internalType": "address",
          "name": "",
          "type": "address"
        }
      ],
      "name": "dynamic",
      "outputs": [
        {
          "internalType": "bool",
          "name": "",
          "type": "bool"
        }
      ],
      "stateMutability": "view",
      "type": "function"
    },
    {
      "inputs": [],
      "name": "dynamicPoolCounter",
      "outputs": [
        {
          "internalType": "uint256",
          "name": "",
          "type": "uint256"
        }
      ],
      "stateMutability": "view",
      "type": "function"
    },
    {
      "inputs": [],
      "name": "executor",
      "outputs": [
        {
          "internalType": "address",
          "name": "",
          "type": "address"
        }
      ],
      "stateMutability": "view",
      "type": "function"
    },
    {
      "inputs": [],
      "name": "getPoolAddressList",
      "outputs": [
        {
          "internalType": "address[]",
          "name": "",
          "type": "address[]"
        }
      ],
      "stateMutability": "view",
      "type": "function"
    },
    {
      "inputs": [
        {
          "internalType": "uint256",
          "name": "_poolId",
          "type": "uint256"
        }
      ],
      "name": "getPoolInfo",
      "outputs": [
        {
          "components": [
            {
              "internalType": "string",
              "name": "protocolName",
              "type": "string"
            },
            {
              "internalType": "address",
              "name": "poolAddress",
              "type": "address"
            },
            {
              "internalType": "address",
              "name": "protocolToken",
              "type": "address"
            },
            {
              "internalType": "uint256",
              "name": "maxCapacity",
              "type": "uint256"
            },
            {
              "internalType": "uint256",
              "name": "basePremiumRatio",
              "type": "uint256"
            }
          ],
          "internalType": "struct PriorityPoolFactory.PoolInfo",
          "name": "",
          "type": "tuple"
        }
      ],
      "stateMutability": "view",
      "type": "function"
    },
    {
      "inputs": [],
      "name": "incidentReport",
      "outputs": [
        {
          "internalType": "address",
          "name": "",
          "type": "address"
        }
      ],
      "stateMutability": "view",
      "type": "function"
    },
    {
      "inputs": [
        {
          "internalType": "address",
          "name": "_deg",
          "type": "address"
        },
        {
          "internalType": "address",
          "name": "_veDeg",
          "type": "address"
        },
        {
          "internalType": "address",
          "name": "_protectionPool",
          "type": "address"
        }
      ],
      "name": "initialize",
      "outputs": [],
      "stateMutability": "nonpayable",
      "type": "function"
    },
    {
      "inputs": [],
      "name": "owner",
      "outputs": [
        {
          "internalType": "address",
          "name": "",
          "type": "address"
        }
      ],
      "stateMutability": "view",
      "type": "function"
    },
    {
      "inputs": [
        {
          "internalType": "uint256",
          "name": "_poolId",
          "type": "uint256"
        },
        {
          "internalType": "bool",
          "name": "_paused",
          "type": "bool"
        }
      ],
      "name": "pausePriorityPool",
      "outputs": [],
      "stateMutability": "nonpayable",
      "type": "function"
    },
    {
      "inputs": [],
      "name": "policyCenter",
      "outputs": [
        {
          "internalType": "address",
          "name": "",
          "type": "address"
        }
      ],
      "stateMutability": "view",
      "type": "function"
    },
    {
      "inputs": [
        {
          "internalType": "address",
          "name": "",
          "type": "address"
        }
      ],
      "name": "poolAddressToId",
      "outputs": [
        {
          "internalType": "uint256",
          "name": "",
          "type": "uint256"
        }
      ],
      "stateMutability": "view",
      "type": "function"
    },
    {
      "inputs": [],
      "name": "poolCounter",
      "outputs": [
        {
          "internalType": "uint256",
          "name": "",
          "type": "uint256"
        }
      ],
      "stateMutability": "view",
      "type": "function"
    },
    {
      "inputs": [
        {
          "internalType": "address",
          "name": "",
          "type": "address"
        }
      ],
      "name": "poolRegistered",
      "outputs": [
        {
          "internalType": "bool",
          "name": "",
          "type": "bool"
        }
      ],
      "stateMutability": "view",
      "type": "function"
    },
    {
      "inputs": [
        {
          "internalType": "uint256",
          "name": "",
          "type": "uint256"
        }
      ],
      "name": "pools",
      "outputs": [
        {
          "internalType": "string",
          "name": "protocolName",
          "type": "string"
        },
        {
          "internalType": "address",
          "name": "poolAddress",
          "type": "address"
        },
        {
          "internalType": "address",
          "name": "protocolToken",
          "type": "address"
        },
        {
          "internalType": "uint256",
          "name": "maxCapacity",
          "type": "uint256"
        },
        {
          "internalType": "uint256",
          "name": "basePremiumRatio",
          "type": "uint256"
        }
      ],
      "stateMutability": "view",
      "type": "function"
    },
    {
      "inputs": [],
      "name": "priorityPoolDeployer",
      "outputs": [
        {
          "internalType": "address",
          "name": "",
          "type": "address"
        }
      ],
      "stateMutability": "view",
      "type": "function"
    },
    {
      "inputs": [],
      "name": "protectionPool",
      "outputs": [
        {
          "internalType": "address",
          "name": "",
          "type": "address"
        }
      ],
      "stateMutability": "view",
      "type": "function"
    },
    {
      "inputs": [],
      "name": "renounceOwnership",
      "outputs": [],
      "stateMutability": "nonpayable",
      "type": "function"
    },
    {
      "inputs": [
        {
          "internalType": "address",
          "name": "_executor",
          "type": "address"
        }
      ],
      "name": "setExecutor",
      "outputs": [],
      "stateMutability": "nonpayable",
      "type": "function"
    },
    {
      "inputs": [
        {
          "internalType": "address",
          "name": "_incidentReport",
          "type": "address"
        }
      ],
      "name": "setIncidentReport",
      "outputs": [],
      "stateMutability": "nonpayable",
      "type": "function"
    },
    {
      "inputs": [
        {
          "internalType": "address",
          "name": "_policyCenter",
          "type": "address"
        }
      ],
      "name": "setPolicyCenter",
      "outputs": [],
      "stateMutability": "nonpayable",
      "type": "function"
    },
    {
      "inputs": [
        {
          "internalType": "address",
          "name": "_priorityPoolDeployer",
          "type": "address"
        }
      ],
      "name": "setPriorityPoolDeployer",
      "outputs": [],
      "stateMutability": "nonpayable",
      "type": "function"
    },
    {
      "inputs": [
        {
          "internalType": "address",
          "name": "_protectionPool",
          "type": "address"
        }
      ],
      "name": "setProtectionPool",
      "outputs": [],
      "stateMutability": "nonpayable",
      "type": "function"
    },
    {
      "inputs": [
        {
          "internalType": "address",
          "name": "_weightedFarmingPool",
          "type": "address"
        }
      ],
      "name": "setWeightedFarmingPool",
      "outputs": [],
      "stateMutability": "nonpayable",
      "type": "function"
    },
    {
      "inputs": [
        {
          "internalType": "address",
          "name": "",
          "type": "address"
        }
      ],
      "name": "tokenRegistered",
      "outputs": [
        {
          "internalType": "bool",
          "name": "",
          "type": "bool"
        }
      ],
      "stateMutability": "view",
      "type": "function"
    },
    {
      "inputs": [],
      "name": "totalMaxCapacity",
      "outputs": [
        {
          "internalType": "uint256",
          "name": "",
          "type": "uint256"
        }
      ],
      "stateMutability": "view",
      "type": "function"
    },
    {
      "inputs": [
        {
          "internalType": "address",
          "name": "newOwner",
          "type": "address"
        }
      ],
      "name": "transferOwnership",
      "outputs": [],
      "stateMutability": "nonpayable",
      "type": "function"
    },
    {
      "inputs": [
        {
          "internalType": "uint256",
          "name": "_poolId",
          "type": "uint256"
        }
      ],
      "name": "updateDynamicPool",
      "outputs": [],
      "stateMutability": "nonpayable",
      "type": "function"
    },
    {
      "inputs": [
        {
          "internalType": "bool",
          "name": "_isUp",
          "type": "bool"
        },
        {
          "internalType": "uint256",
          "name": "_diff",
          "type": "uint256"
        }
      ],
      "name": "updateMaxCapacity",
      "outputs": [],
      "stateMutability": "nonpayable",
      "type": "function"
    },
    {
      "inputs": [],
      "name": "weightedFarmingPool",
      "outputs": [
        {
          "internalType": "address",
          "name": "",
          "type": "address"
        }
      ],
      "stateMutability": "view",
      "type": "function"
    }
  ],
  "transactionHash": "0x000cd8b28ca9eaf2518377fba8f8aa3d32bda87fa66a2313bfc01d8eaa9ba030",
  "args": [],
  "numDeployments": 1,
  "solcInputHash": "98306f13b0a55c326e8d99095a20dc08",
  "bytecode": "0x60808060405234610016576118eb908161001c8239f35b600080fdfe6080604052600436101561001257600080fd5b6000803560e01c80630121cff5146115155780630f89b77d146114ec57806310b44dfa146114c35780631b352789146113b35780631c3c0ea81461136a5780632a50489a146112a65780632dd57bb01461125d5780632f380b3514611188578063412497451461114957806345f0db7d1461110057806349e51b251461104957806358bf0f2c146110005780636bdbd19514610ef95780636c1b700f14610ed0578063715018a614610e61578063746376ee14610e2357806389a3027114610df45780638da5cb5b14610dc95780639e3079cb14610dab578063a2e1ce6214610d6c578063a7e9f1c714610d4e578063ac4afa3814610cd2578063b567dc6a14610ca9578063bb9febaf146106d9578063c0c53b8b14610301578063c34c08e5146102d8578063e3356ccf1461028f578063e8adbf2f14610266578063ef3722981461022d578063f2fde38b146101925763f6cb90ab1461017257600080fd5b3461018f578060031936011261018f576020603d54604051908152f35b80fd5b503461018f57602036600319011261018f576101ac61155e565b60018060a01b036101c481845460101c1633146117a3565b8116156101d9576101d490611855565b604051f35b60405162461bcd60e51b815260206004820152602660248201527f4f776e61626c653a206e6577206f776e657220697320746865207a65726f206160448201526564647265737360d01b6064820152608490fd5b503461018f57602036600319011261018f576020906040906001600160a01b0361025561155e565b168152603b83522054604051908152f35b503461018f578060031936011261018f576035546040516001600160a01b039091168152602090f35b503461018f57602036600319011261018f576102a961155e565b60018060a01b03906102c282845460101c1633146117a3565b1660018060a01b03196037541617603755604051f35b503461018f578060031936011261018f576034546040516001600160a01b039091168152602090f35b503461018f57606036600319011261018f5761031b61155e565b610323611574565b6044356001600160a01b03811691908290036106d45783549060ff8260081c1615938480956106c7575b80156106b0575b15610654576103bf9160ff1993866001868316178955610643575b5060ff875460081c16916103828361170a565b603280546001600160a01b039283166001600160a01b031991821617909155603380549390921692169190911790556103ba8161170a565b61170a565b6103c833611855565b8160018060a01b031960365416176036558184526040602052604084206001828254161790557323d0cddc1ea9fcc5ca9ec6b5fc77e304bce8d4c3908185526041602052600160408620918254161790556040519061042682611628565b604080516001600160401b03949181018581118282101761062d57604052600e81526d141c9bdd1958dd1a5bdb941bdbdb60921b6020820152835260208301526040820152836060820152836080820152838052603a6020526040842091815180519182116106195761049984546115db565b601f81116105d8575b50602090601f831160011461056c579180600494926080948992610561575b50508160011b916000199060031b1c19161784555b60208101516001850180546001600160a01b039283166001600160a01b031991821617909155604083015160028701805491909316911617905560608101516003850155015191015561052857604051f35b61ff001981541681557f7f26b83ff96e1f2b6a682f133852f6798a09c465da95921460cefb3847402498602060405160018152a1604051f35b0151905038806104c1565b908487526020872091875b601f19851681106105c05750926004949260019260809583601f198116106105a7575b505050811b0184556104d6565b015160001960f88460031b161c1916905538808061059a565b91926020600181928685015181550194019201610577565b84875260208720601f840160051c810160208510610612575b601f830160051c820181106106075750506104a2565b8881556001016105f1565b50806105f1565b634e487b7160e01b86526041600452602486fd5b634e487b7160e01b600052604160045260246000fd5b61ffff19166101011787553861036f565b60405162461bcd60e51b815260206004820152602e60248201527f496e697469616c697a61626c653a20636f6e747261637420697320616c72656160448201526d191e481a5b9a5d1a585b1a5e995960921b6064820152608490fd5b50303b1580156103545750600160ff841614610354565b50600160ff84161061034d565b600080fd5b503461018f57608036600319011261018f576001600160401b036004351161018f5736602360043501121561018f576001600160401b03600435600401351161018f573660246004356004013560043501011161018f57610738611574565b9060018060a01b03815460101c1633141580610c94575b610c82576001600160a01b03821681526041602052604081205460ff16610c705761077e604435603d5461176a565b603d55603c54916000198314610c5c5760018301603c5560018060a01b0360395416602060405180926365eb884f60e01b825281806107d860643560443589600435600401358d600160246004350191016004880161181c565b03915afa908115610c51578391610c32575b5060018060a01b03168252604060205260408220600160ff1982541617905560018060a01b03603954169160206040518094634758ff0160e01b825281848161084f6064356044358a8d6004356004013590600160246004350191016004880161181c565b03925af1928315610c25578193610bf4575b5060405161086e81611628565b60405161088a600480350135601f01601f191660200182611643565b60048035908101358083529060240160208301378260206004356004013583010152815260018060a01b038416602082015260018060a01b038316604082015260443560608201526064356080820152600185018252603a602052604082209080518051906001600160401b038211610be05761090784546115db565b601f8111610b9f575b50602090601f8311600114610b33579180600494926080948892610b28575b50508160011b916000199060031b1c19161784555b602081810151600186810180546001600160a01b03199081166001600160a01b039485161790915560408086015160028a018054909316908516179091556060850151600389015594909301519490950193909355858416855260418352818520805460ff1916821790558684168552603b9092528320908601905560355416803b15610b1057604051630b6cccdd60e41b81526001600160a01b038581166004830152841660248201526001860160448201529082908290606490829084905af18015610b0557908291610b14575b50506038546001600160a01b0316803b15610b105760405163d914cd4b60e01b81526001600160a01b03841660048201529082908290602490829084905af18015610b0557610af1575b6020847f6f92dd7fd4aaa286bc76a2ea88bede9a5077443cccc9b4aece620689e3fc63de6001888760405192839201825260018060a01b0385168683015260c06040830152610abc60c08301600435600401356024600435016117fb565b6001600160a01b039091166060830152604435608083015260643560a08301520390a16040516001600160a01b039091168152f35b610afb8291611615565b61018f5780610a5e565b6040513d84823e3d90fd5b5080fd5b610b1d90611615565b61018f578038610a14565b01519050388061092f565b908486526020862091865b601f1985168110610b875750926004949260019260809583601f19811610610b6e575b505050811b018455610944565b015160001960f88460031b161c19169055388080610b61565b91926020600181928685015181550194019201610b3e565b84865260208620601f840160051c810160208510610bd9575b601f830160051c82018110610bce575050610910565b878155600101610bb8565b5080610bb8565b634e487b7160e01b85526041600452602485fd5b610c1791935060203d602011610c1e575b610c0f8183611643565b8101906117dc565b9138610861565b503d610c05565b50604051903d90823e3d90fd5b610c4b915060203d602011610c1e57610c0f8183611643565b386107ea565b6040513d85823e3d90fd5b634e487b7160e01b82526011600452602482fd5b6040516308ba7c3f60e31b8152600490fd5b604051636adaa0f960e01b8152600490fd5b506034546001600160a01b031633141561074f565b503461018f578060031936011261018f576038546040516001600160a01b039091168152602090f35b503461018f57602036600319011261018f576040610d35916004358152603a60205220610cfe81611664565b9060018060a01b0390816001820154169160028201541690600460038201549101549160405195869560a0875260a087019061158a565b9360208601526040850152606084015260808301520390f35b503461018f578060031936011261018f576020603f54604051908152f35b503461018f57602036600319011261018f5760209060ff906040906001600160a01b03610d9761155e565b168152604184522054166040519015158152f35b503461018f578060031936011261018f576020603c54604051908152f35b503461018f578060031936011261018f575460405160109190911c6001600160a01b03168152602090f35b503461018f578060031936011261018f5760206040517323d0cddc1ea9fcc5ca9ec6b5fc77e304bce8d4c38152f35b503461018f57602036600319011261018f5760209060ff906040906001600160a01b03610e4e61155e565b1681528184522054166040519015158152f35b503461018f578060031936011261018f5780546001600160a01b0390610e8d9060101c821633146117a3565b6000546000604051928260101c167f8be0079c531659141344cd1fd0a4f28419497f9722a3daafe3b4186f6b6457e08285a362010000600160b01b031916600055f35b503461018f578060031936011261018f576036546040516001600160a01b039091168152602090f35b503461018f578060031936011261018f57603c54906001198211610fec5790600180910190610f278261178c565b92610f356040519485611643565b828452610f418361178c565b9360209384820195601f1901368737825b818110610f9a5750506040519380850191818652518092526040850195925b828110610f7e5785870386f35b83516001600160a01b0316875295810195928101928401610f71565b808496939497959752603a835260018060a01b0387604088200154168451821015610fd857908791848260051b870101520195939594929194610f52565b634e487b7160e01b87526032600452602487fd5b634e487b7160e01b81526011600452602490fd5b503461018f57602036600319011261018f5761101a61155e565b60018060a01b039061103382845460101c1633146117a3565b1660018060a01b03196038541617603855604051f35b503461018f57604036600319011261018f5760043580151581036106d45760243590338352604060205260ff604084205416156110ee57156110c75761109190603d5461176a565b603d555b7f8b8564868e5db4ac945b0fd897338876dcc0c95a5f183b340f47285ebbcb6af16020603d54604051908152a1604051f35b603d548181106110da5703603d55611095565b634e487b7160e01b83526011600452602483fd5b604051630fc64fb960e21b8152600490fd5b503461018f57602036600319011261018f5761111a61155e565b60018060a01b039061113382845460101c1633146117a3565b1660018060a01b03196039541617603955604051f35b503461018f57602036600319011261018f5760209060ff906040906001600160a01b0361117461155e565b168152603e84522054166040519015158152f35b503461018f57602080600319360112610b105760408260a093608083516111ae81611628565b606081528286820152828582015282606082015201526004358152603a835220604051916111db83611628565b6111e482611664565b8352600180851b0391826001820154169282850193845280600283015416604086019081528161123e600460038601549560608a0196875201549560808901968752604051998a99828b5251918a015260c089019061158a565b9551166040870152511660608501525160808401525160a08301520390f35b503461018f57602036600319011261018f5761127761155e565b60018060a01b039061129082845460101c1633146117a3565b1660018060a01b03196035541617603555604051f35b503461018f57602080600319360112610b10576004353383526040825260ff604084205416156110ee57808352603a82526040808420600101546001600160a01b0316808552603e84529084205490919060ff16611358577fa16172101044efd65843cd11b767b8aa758d7da7be12573e0c897b52b71444fd92826060938652603e825260408620600160ff198254161790556001603f54019182603f556040519384528301526040820152a1604051f35b6040516334c8f8b960e01b8152600490fd5b503461018f57602036600319011261018f5761138461155e565b60018060a01b039061139d82845460101c1633146117a3565b1660018060a01b03196034541617603455604051f35b503461018f57604036600319011261018f57602435801515809103610b10576037546001600160a01b0391908216331415806114b5575b6114a35782916004358352603a60205280600160408520015416803b1561149e5783906024604051809781936305e5fe2360e41b83528760048401525af18015610c515761148a575b8293506036541690813b1561148657829160248392604051948593849263a8a2b43160e01b845260048401525af18015610b0557611472575b50604051f35b61147b90611615565b61018f57803861146c565b5050fd5b91909261149690611615565b908290611433565b505050fd5b60405163570d52bd60e11b8152600490fd5b5081603454163314156113ea565b503461018f578060031936011261018f576039546040516001600160a01b039091168152602090f35b503461018f578060031936011261018f576037546040516001600160a01b039091168152602090f35b503461018f57602036600319011261018f5761152f61155e565b60018060a01b039061154882845460101c1633146117a3565b1660018060a01b03196036541617603655604051f35b600435906001600160a01b03821682036106d457565b602435906001600160a01b03821682036106d457565b91908251928382526000905b8482106115c35750928060209394116115b6575b601f01601f1916010190565b60008382840101526115aa565b90602090818082850101519082860101520190611596565b90600182811c9216801561160b575b60208310146115f557565b634e487b7160e01b600052602260045260246000fd5b91607f16916115ea565b6001600160401b03811161062d57604052565b60a081019081106001600160401b0382111761062d57604052565b90601f801991011681019081106001600160401b0382111761062d57604052565b9060405191826000825492611678846115db565b9081845260019485811690816000146116e757506001146116a4575b50506116a292500383611643565b565b9093915060005260209081600020936000915b8183106116cf5750506116a293508201013880611694565b855488840185015294850194879450918301916116b7565b9150506116a294506020925060ff191682840152151560051b8201013880611694565b1561171157565b60405162461bcd60e51b815260206004820152602b60248201527f496e697469616c697a61626c653a20636f6e7472616374206973206e6f74206960448201526a6e697469616c697a696e6760a81b6064820152608490fd5b81198111611776570190565b634e487b7160e01b600052601160045260246000fd5b6001600160401b03811161062d5760051b60200190565b156117aa57565b60405162461bcd60e51b815260206004820152600a60248201526927b7363c9037bbb732b960b11b6044820152606490fd5b908160209103126106d457516001600160a01b03811681036106d45790565b908060209392818452848401376000828201840152601f01601f1916010190565b92916080949796959261183c92855260a0602086015260a08501916117fb565b6001600160a01b03909616604083015260608201520152565b6000549060018060a01b03808216908360101c167f8be0079c531659141344cd1fd0a4f28419497f9722a3daafe3b4186f6b6457e06000604051a362010000600160b01b031990911660109190911b62010000600160b01b03161760005556fea264697066735822122019d4c2024a82ec75e22757682b75702320ac840a8eccc970bcba3a1987829ac064736f6c634300080f0033",
  "devdoc": {
    "author": "Eric Lee (ylikp.ust@gmail.com)",
    "kind": "dev",
    "methods": {
      "deployPool(string,address,uint256,uint256)": {
        "params": {
          "_basePremiumRatio": "Initial policy price per usdc",
          "_maxCapacity": "Maximum capacity of the pool",
          "_name": "Name of the protocol",
          "_protocolToken": "Address of the token used for the protocol"
        },
        "returns": {
          "_0": "address Address of the new insurance pool"
        }
      },
      "getPoolAddressList()": {
        "returns": {
          "_0": "List of pool addresses"
        }
      },
      "getPoolInfo(uint256)": {
        "params": {
          "_poolId": "Pool id"
        }
      },
      "owner()": {
        "details": "Returns the address of the current owner."
      },
      "renounceOwnership()": {
        "details": "Leaves the contract without owner. It will not be possible to call `onlyOwner` functions anymore. Can only be called by the current owner. NOTE: Renouncing ownership will leave the contract without an owner, thereby removing any functionality that is only available to the owner."
      },
      "transferOwnership(address)": {
        "details": "Transfers ownership of the contract to a new account (`newOwner`). Can only be called by the current owner."
      },
      "updateDynamicPool(uint256)": {
        "params": {
          "_poolId": "Pool id"
        }
      }
    },
    "title": "Insurance Pool Factory",
    "version": 1
  },
  "userdoc": {
    "kind": "user",
    "methods": {
      "deployPool(string,address,uint256,uint256)": {
        "notice": "Create a new priority pool         Called by executor when an onboard proposal has passed"
      },
      "getPoolAddressList()": {
        "notice": "Get the pool address list"
      },
      "getPoolInfo(uint256)": {
        "notice": "Get the pool information by pool id"
      },
      "updateDynamicPool(uint256)": {
        "notice": "Update a priority pool status to dynamic         Only sent from priority pool         \"Dynamic\" means:                  The priority pool will be counted in the dynamic premium formula"
      },
      "updateMaxCapacity(bool,uint256)": {
        "notice": "Update max capacity from a priority pool"
      }
    },
    "notice": "This is the factory contract for deploying new insurance pools         Each pool represents a project that has joined Degis Protocol Protection         Liquidity providers of Protection Pool can stake their LP tokens into priority pools         Benefit:             - Share the 45% part of the premium income (in native token form)         Risk:             - Will be liquidated first to pay for the claim amount",
    "version": 1
  },
  "storageLayout": {
    "storage": [
      {
        "astId": 184,
        "contract": "src/pools/priorityPool/PriorityPoolFactory.sol:PriorityPoolFactory",
        "label": "_initialized",
        "offset": 0,
        "slot": "0",
        "type": "t_uint8"
      },
      {
        "astId": 187,
        "contract": "src/pools/priorityPool/PriorityPoolFactory.sol:PriorityPoolFactory",
        "label": "_initializing",
        "offset": 1,
        "slot": "0",
        "type": "t_bool"
      },
      {
        "astId": 17723,
        "contract": "src/pools/priorityPool/PriorityPoolFactory.sol:PriorityPoolFactory",
        "label": "_owner",
        "offset": 2,
        "slot": "0",
        "type": "t_address"
      },
      {
        "astId": 17830,
        "contract": "src/pools/priorityPool/PriorityPoolFactory.sol:PriorityPoolFactory",
        "label": "__gap",
        "offset": 0,
        "slot": "1",
        "type": "t_array(t_uint256)49_storage"
      },
      {
        "astId": 6175,
        "contract": "src/pools/priorityPool/PriorityPoolFactory.sol:PriorityPoolFactory",
        "label": "deg",
        "offset": 0,
        "slot": "50",
        "type": "t_contract(IDegisToken)6291"
      },
      {
        "astId": 6178,
        "contract": "src/pools/priorityPool/PriorityPoolFactory.sol:PriorityPoolFactory",
        "label": "veDeg",
        "offset": 0,
        "slot": "51",
        "type": "t_contract(IVeDEG)7455"
      },
      {
        "astId": 13455,
        "contract": "src/pools/priorityPool/PriorityPoolFactory.sol:PriorityPoolFactory",
        "label": "executor",
        "offset": 0,
        "slot": "52",
        "type": "t_address"
      },
      {
        "astId": 13457,
        "contract": "src/pools/priorityPool/PriorityPoolFactory.sol:PriorityPoolFactory",
        "label": "policyCenter",
        "offset": 0,
        "slot": "53",
        "type": "t_address"
      },
      {
        "astId": 13459,
        "contract": "src/pools/priorityPool/PriorityPoolFactory.sol:PriorityPoolFactory",
        "label": "protectionPool",
        "offset": 0,
        "slot": "54",
        "type": "t_address"
      },
      {
        "astId": 13461,
        "contract": "src/pools/priorityPool/PriorityPoolFactory.sol:PriorityPoolFactory",
        "label": "incidentReport",
        "offset": 0,
        "slot": "55",
        "type": "t_address"
      },
      {
        "astId": 13463,
        "contract": "src/pools/priorityPool/PriorityPoolFactory.sol:PriorityPoolFactory",
        "label": "weightedFarmingPool",
        "offset": 0,
        "slot": "56",
        "type": "t_address"
      },
      {
        "astId": 13465,
        "contract": "src/pools/priorityPool/PriorityPoolFactory.sol:PriorityPoolFactory",
        "label": "priorityPoolDeployer",
        "offset": 0,
        "slot": "57",
        "type": "t_address"
      },
      {
        "astId": 12887,
        "contract": "src/pools/priorityPool/PriorityPoolFactory.sol:PriorityPoolFactory",
        "label": "pools",
        "offset": 0,
        "slot": "58",
        "type": "t_mapping(t_uint256,t_struct(PoolInfo)12882_storage)"
      },
      {
        "astId": 12891,
        "contract": "src/pools/priorityPool/PriorityPoolFactory.sol:PriorityPoolFactory",
        "label": "poolAddressToId",
        "offset": 0,
        "slot": "59",
        "type": "t_mapping(t_address,t_uint256)"
      },
      {
        "astId": 12893,
        "contract": "src/pools/priorityPool/PriorityPoolFactory.sol:PriorityPoolFactory",
        "label": "poolCounter",
        "offset": 0,
        "slot": "60",
        "type": "t_uint256"
      },
      {
        "astId": 12895,
        "contract": "src/pools/priorityPool/PriorityPoolFactory.sol:PriorityPoolFactory",
        "label": "totalMaxCapacity",
        "offset": 0,
        "slot": "61",
        "type": "t_uint256"
      },
      {
        "astId": 12899,
        "contract": "src/pools/priorityPool/PriorityPoolFactory.sol:PriorityPoolFactory",
        "label": "dynamic",
        "offset": 0,
        "slot": "62",
        "type": "t_mapping(t_address,t_bool)"
      },
      {
        "astId": 12901,
        "contract": "src/pools/priorityPool/PriorityPoolFactory.sol:PriorityPoolFactory",
        "label": "dynamicPoolCounter",
        "offset": 0,
        "slot": "63",
        "type": "t_uint256"
      },
      {
        "astId": 12905,
        "contract": "src/pools/priorityPool/PriorityPoolFactory.sol:PriorityPoolFactory",
        "label": "poolRegistered",
        "offset": 0,
        "slot": "64",
        "type": "t_mapping(t_address,t_bool)"
      },
      {
        "astId": 12909,
        "contract": "src/pools/priorityPool/PriorityPoolFactory.sol:PriorityPoolFactory",
        "label": "tokenRegistered",
        "offset": 0,
        "slot": "65",
        "type": "t_mapping(t_address,t_bool)"
      }
    ],
    "types": {
      "t_address": {
        "encoding": "inplace",
        "label": "address",
        "numberOfBytes": "20"
      },
      "t_array(t_uint256)49_storage": {
        "base": "t_uint256",
        "encoding": "inplace",
        "label": "uint256[49]",
        "numberOfBytes": "1568"
      },
      "t_bool": {
        "encoding": "inplace",
        "label": "bool",
        "numberOfBytes": "1"
      },
      "t_contract(IDegisToken)6291": {
        "encoding": "inplace",
        "label": "contract IDegisToken",
        "numberOfBytes": "20"
      },
      "t_contract(IVeDEG)7455": {
        "encoding": "inplace",
        "label": "contract IVeDEG",
        "numberOfBytes": "20"
      },
      "t_mapping(t_address,t_bool)": {
        "encoding": "mapping",
        "key": "t_address",
        "label": "mapping(address => bool)",
        "numberOfBytes": "32",
        "value": "t_bool"
      },
      "t_mapping(t_address,t_uint256)": {
        "encoding": "mapping",
        "key": "t_address",
        "label": "mapping(address => uint256)",
        "numberOfBytes": "32",
        "value": "t_uint256"
      },
      "t_mapping(t_uint256,t_struct(PoolInfo)12882_storage)": {
        "encoding": "mapping",
        "key": "t_uint256",
        "label": "mapping(uint256 => struct PriorityPoolFactory.PoolInfo)",
        "numberOfBytes": "32",
        "value": "t_struct(PoolInfo)12882_storage"
      },
      "t_string_storage": {
        "encoding": "bytes",
        "label": "string",
        "numberOfBytes": "32"
      },
      "t_struct(PoolInfo)12882_storage": {
        "encoding": "inplace",
        "label": "struct PriorityPoolFactory.PoolInfo",
        "members": [
          {
            "astId": 12873,
            "contract": "src/pools/priorityPool/PriorityPoolFactory.sol:PriorityPoolFactory",
            "label": "protocolName",
            "offset": 0,
            "slot": "0",
            "type": "t_string_storage"
          },
          {
            "astId": 12875,
            "contract": "src/pools/priorityPool/PriorityPoolFactory.sol:PriorityPoolFactory",
            "label": "poolAddress",
            "offset": 0,
            "slot": "1",
            "type": "t_address"
          },
          {
            "astId": 12877,
            "contract": "src/pools/priorityPool/PriorityPoolFactory.sol:PriorityPoolFactory",
            "label": "protocolToken",
            "offset": 0,
            "slot": "2",
            "type": "t_address"
          },
          {
            "astId": 12879,
            "contract": "src/pools/priorityPool/PriorityPoolFactory.sol:PriorityPoolFactory",
            "label": "maxCapacity",
            "offset": 0,
            "slot": "3",
            "type": "t_uint256"
          },
          {
            "astId": 12881,
            "contract": "src/pools/priorityPool/PriorityPoolFactory.sol:PriorityPoolFactory",
            "label": "basePremiumRatio",
            "offset": 0,
            "slot": "4",
            "type": "t_uint256"
          }
        ],
        "numberOfBytes": "160"
      },
      "t_uint256": {
        "encoding": "inplace",
        "label": "uint256",
        "numberOfBytes": "32"
      },
      "t_uint8": {
        "encoding": "inplace",
        "label": "uint8",
        "numberOfBytes": "1"
      }
    }
  }
}