{
  "address": "0x4356c166Bc3d2C123aEe8c6B6DBf84794f735f50",
  "abi": [
    {
      "anonymous": false,
      "inputs": [
        {
          "indexed": false,
          "internalType": "uint8",
          "name": "version",
          "type": "uint8"
        }
      ],
      "name": "Initialized",
      "type": "event"
    },
    {
      "inputs": [
        {
          "internalType": "uint256",
          "name": "poolId",
          "type": "uint256"
        },
        {
          "internalType": "string",
          "name": "_name",
          "type": "string"
        },
        {
          "internalType": "address",
          "name": "_protocolToken",
          "type": "address"
        },
        {
          "internalType": "uint256",
          "name": "_maxCapacity",
          "type": "uint256"
        },
        {
          "internalType": "uint256",
          "name": "_basePremiumRatio",
          "type": "uint256"
        }
      ],
      "name": "deployPool",
      "outputs": [
        {
          "internalType": "address",
          "name": "",
          "type": "address"
        }
      ],
      "stateMutability": "nonpayable",
      "type": "function"
    },
    {
      "inputs": [
        {
          "internalType": "uint256",
          "name": "_poolId",
          "type": "uint256"
        },
        {
          "internalType": "string",
          "name": "_name",
          "type": "string"
        },
        {
          "internalType": "address",
          "name": "_protocolToken",
          "type": "address"
        },
        {
          "internalType": "uint256",
          "name": "_maxCapacity",
          "type": "uint256"
        },
        {
          "internalType": "uint256",
          "name": "_baseRatio",
          "type": "uint256"
        }
      ],
      "name": "getPoolAddress",
      "outputs": [
        {
          "internalType": "address",
          "name": "",
          "type": "address"
        }
      ],
      "stateMutability": "view",
      "type": "function"
    },
    {
      "inputs": [
        {
          "internalType": "address",
          "name": "_priorityPoolFactory",
          "type": "address"
        },
        {
          "internalType": "address",
          "name": "_weightedFarmingPool",
          "type": "address"
        },
        {
          "internalType": "address",
          "name": "_protectionPool",
          "type": "address"
        },
        {
          "internalType": "address",
          "name": "_policyCenter",
          "type": "address"
        },
        {
          "internalType": "address",
          "name": "_payoutPool",
          "type": "address"
        }
      ],
      "name": "initialize",
      "outputs": [],
      "stateMutability": "nonpayable",
      "type": "function"
    },
    {
      "inputs": [],
      "name": "owner",
      "outputs": [
        {
          "internalType": "address",
          "name": "",
          "type": "address"
        }
      ],
      "stateMutability": "view",
      "type": "function"
    },
    {
      "inputs": [],
      "name": "payoutPool",
      "outputs": [
        {
          "internalType": "address",
          "name": "",
          "type": "address"
        }
      ],
      "stateMutability": "view",
      "type": "function"
    },
    {
      "inputs": [],
      "name": "policyCenter",
      "outputs": [
        {
          "internalType": "address",
          "name": "",
          "type": "address"
        }
      ],
      "stateMutability": "view",
      "type": "function"
    },
    {
      "inputs": [],
      "name": "priorityPoolFactory",
      "outputs": [
        {
          "internalType": "address",
          "name": "",
          "type": "address"
        }
      ],
      "stateMutability": "view",
      "type": "function"
    },
    {
      "inputs": [],
      "name": "protectionPool",
      "outputs": [
        {
          "internalType": "address",
          "name": "",
          "type": "address"
        }
      ],
      "stateMutability": "view",
      "type": "function"
    },
    {
      "inputs": [],
      "name": "weightedFarmingPool",
      "outputs": [
        {
          "internalType": "address",
          "name": "",
          "type": "address"
        }
      ],
      "stateMutability": "view",
      "type": "function"
    }
  ],
  "transactionHash": "0x23f85fb733b52c11f2a9b9eb65103ce469296d5b8b3a9cd531e4995b6d62ca56",
  "args": [],
  "numDeployments": 1,
  "solcInputHash": "c1946e4a68e2fcef8757c0c8f7fd19cc",
  "bytecode": "0x608080604052346100165761542c908161001c8239f35b600080fdfe6080604052600436101562000014575b600080fd5b6000803560e01c9081631459457a14620000e4575080634758ff0114620000d95780636273106a14620000ce57806365eb884f14620000c35780636c1b700f14620000b85780636f8a6e4314620000ad5780638da5cb5b14620000a2578063b567dc6a14620000975763e8adbf2f146200008d57600080fd5b6200000f62000682565b506200000f62000656565b506200000f62000626565b506200000f620005fa565b506200000f620005ce565b506200000f620004dc565b506200000f620003ee565b506200000f6200035a565b34620002e45760a0366003190112620002e45762000101620002e7565b620001e06200010f620002fe565b6200011962000315565b620001236200032c565b906200012e62000343565b928654956200015760ff8860081c161580988199620002d5575b8115620002b2575b50620006ae565b866200016b600160ff196000541617600055565b6200022d5793919260005462010000600160b01b033360101b169062010000600160b01b0319161760005560018060a01b0380948180948160018060a01b0319991689600154161760015516876002541617600255168560035416176003551683600454161760045516906005541617600555565b620001ea57604051f35b620001fb61ff001960005416600055565b604051600181527f7f26b83ff96e1f2b6a682f133852f6798a09c465da95921460cefb384740249890602090a1604051f35b6200024261010061ff00196000541617600055565b93919260005462010000600160b01b033360101b169062010000600160b01b0319161760005560018060a01b0380948180948160018060a01b0319991689600154161760015516876002541617600255168560035416176003551683600454161760045516906005541617600555565b303b15915081620002c6575b508a62000150565b6001915060ff16148a620002be565b600160ff821610915062000148565b80fd5b600435906001600160a01b03821682036200000f57565b602435906001600160a01b03821682036200000f57565b604435906001600160a01b03821682036200000f57565b606435906001600160a01b03821682036200000f57565b608435906001600160a01b03821682036200000f57565b50346200000f5760a03660031901126200000f5767ffffffffffffffff6024358181116200000f57366023820112156200000f5780600401359182116200000f5736602483830101116200000f57620003ea91620003d091620003bc62000315565b608435926024606435930160043562000712565b6040516001600160a01b0390911681529081906020820190565b0390f35b50346200000f5760003660031901126200000f576005546040516001600160a01b039091168152602090f35b50634e487b7160e01b600052604160045260246000fd5b6080810190811067ffffffffffffffff8211176200044e57604052565b620004586200041a565b604052565b90601f8019910116810190811067ffffffffffffffff8211176200044e57604052565b92919267ffffffffffffffff8211620004cc575b60405191620004ae601f8201601f1916602001846200045d565b8294818452818301116200000f578281602093846000960137010152565b620004d66200041a565b62000494565b50346200000f5760a03660031901126200000f5760243560043567ffffffffffffffff82116200000f57366023830112156200000f576200057662000530620003ea93369060248160040135910162000480565b6200053a62000315565b92604051602081019062000564816200055586868662000816565b03601f1981018352826200045d565b519020936084359260643592620008f4565b602081519101209060405191602083019160ff60f81b83523060601b60218501526035840152605583015260558252620005b08262000431565b905190206040516001600160a01b0390911681529081906020820190565b50346200000f5760003660031901126200000f576003546040516001600160a01b039091168152602090f35b50346200000f5760003660031901126200000f576001546040516001600160a01b039091168152602090f35b50346200000f5760003660031901126200000f5760005460405160109190911c6001600160a01b03168152602090f35b50346200000f5760003660031901126200000f576002546040516001600160a01b039091168152602090f35b50346200000f5760003660031901126200000f576004546040516001600160a01b039091168152602090f35b15620006b657565b60405162461bcd60e51b815260206004820152602e60248201527f496e697469616c697a61626c653a20636f6e747261637420697320616c72656160448201526d191e481a5b9a5d1a585b1a5e995960921b6064820152608490fd5b949290939160018060a01b0380600154163314908115620007b3575b50156200077f576200076b946200074791369162000480565b6040516020810190620007618162000555858b8662000816565b51902095620008f4565b6020815191016000f5803b156200000f5790565b60405162461bcd60e51b815260206004820152600c60248201526b4f6e6c7920666163746f727960a01b6044820152606490fd5b905060005460101c163314386200072e565b918091926000905b828210620007e7575011620007e0575050565b6000910152565b91508060209183015181860152018291620007cd565b906200081260209282815194859201620007c5565b0190565b6020929181526200083082518093858085019101620007c5565b010190565b989694929b9a99979593919089526101608060208b0152815180918b01526101809181838c0191602001916200086b92620007c5565b601f1990601f01168901019a600160a01b600190031660408901526060880152608087015260a08601620008a59160018060a01b03169052565b6001600160a01b031660c08501526001600160a01b031660e08401526001600160a01b03166101008301526001600160a01b03166101208201526001600160a01b039091166101409190910152565b620009bc906200098e620009b5969394620009c996614a2a95604051966200092060208201896200045d565b808852620009cd60208901396000546001546001600160a01b0360109290921c821691166002546001600160a01b03166003549092906001600160a01b03166004549094906001600160a01b03166005549096906001600160a01b0316976040519d8e9b60208d0162000835565b0392620009a4601f19948581018352826200045d565b6040519586936020850190620007fd565b90620007fd565b039081018352826200045d565b9056fe6101208060405234620006fd57600062004a2a803803809162000023828662000702565b843982019161016081840312620006f957805160208201516001600160401b038111620006f557820184601f82011215620006f55780519062000066826200073c565b9562000076604051978862000702565b82875260208383010111620006f1579062000098916020808801910162000758565b620000a66040830162000790565b936060830151946080840151620000c060a0860162000790565b96620000cf60c0870162000790565b92620000de60e0880162000790565b94620000ee610100890162000790565b966200010d610140620001056101208c0162000790565b9a0162000790565b60809b909b5260c0528051906001600160401b0382116200059057819062000137600554620007a5565b601f81116200069d575b50602090601f831160011462000621578b9262000615575b50508160011b916000199060031b1c1916176005555b610100526007554260e05260a0526200018a600654620007e2565b806006556200019b60c0516200082f565b620001a6826200082f565b6040518092665052492d4c502d60c81b6020830152620001d181518092602060278601910162000758565b8101602d60f81b6027820152899060055490620001ee82620007a5565b9160018116908115620005ef5750600114620005a4575b5050906200023e9282612d4760f01b600294526200022d825180936020878501910162000758565b0103601d1981018452018262000702565b604051610acf808201906001600160401b03821183831017620005905760208392620002759262003f3b8539818152018462000808565b039088f09182156200058557808852600b6020526040882080546001600160a01b0319166001600160a01b038581169190911790915560c0519086163b15620005815760405160016224184f60e11b0319815260048101919091526001600160a01b03848116602483015264e8d4a51000604483015289908290606490829084908b165af18015620005765762000545575b5060018060a01b0383168852600d60205264e8d4a510006040892055600c602052604088209160ff199260018482541617905560c051916040519260a084528a946005546200035681620007a5565b918260a088015260018216918260001462000525575050600114620004da575b50938392620003b9927f5bc145acec26384dc09c6269c9e569c69db21ad88cbd81319958b05998b83b5b9660208601526040850152838203606085015262000808565b6001600160a01b03851660808301520390a16001600160a01b039081168652600d602052604080872064e8d4a5100090556127106008908155600180546001600160a01b031990811695851695909517905560038054851695841695909517909455600280548416958316959095179094558554610100600160a81b0319169490921b610100600160a81b031693909317909355600480549092169390921692909217909155516135f9908162000942823960805181818161072d0152610876015260a0518181816102b401528181612627015281816126de015261275e015260c05181818161097b01528181610f83015281816118f80152612878015260e0518181816105de0152818161249d01526128e4015261010051816109b50152f35b60058c52939450928a9060008051602062004a0a8339815191525b8183106200050d575050840160c00193928362000376565b805460c08489010152602090920191600101620004f5565b1660c08781019190915291151560051b8601909101955084905062000376565b9097906001600160401b0381116200056257604052963862000307565b634e487b7160e01b82526041600452602482fd5b6040513d8b823e3d90fd5b8880fd5b6040513d89823e3d90fd5b634e487b7160e01b8a52604160045260248afd5b60058c529091508a60008051602062004a0a8339815191525b838210620005d45750500160280182600262000205565b805460288385010152869450602090910190600101620005bd565b60ff19166028838101919091528315159093029091019091019150839050600262000205565b01519050388062000159565b60058c528b935060008051602062004a0a83398151915291905b601f198416851062000681576001945083601f1981161062000667575b505050811b016005556200016f565b015160001960f88460031b161c1916905538808062000658565b818101518355602094850194600190930192909101906200063b565b90915060058b5260208b20601f840160051c810160208510620006e9575b90849392915b8d601f840160051c83018210620006db5750505062000141565b8155859450600101620006c1565b5080620006bb565b8480fd5b8380fd5b5080fd5b600080fd5b601f909101601f19168101906001600160401b038211908210176200072657604052565b634e487b7160e01b600052604160045260246000fd5b6001600160401b0381116200072657601f01601f191660200190565b918091926000905b8282106200077a57501162000773575050565b6000910152565b9150806020918301518186015201829162000760565b51906001600160a01b0382168203620006fd57565b90600182811c92168015620007d7575b6020831014620007c157565b634e487b7160e01b600052602260045260246000fd5b91607f1691620007b5565b6000198114620007f25760010190565b634e487b7160e01b600052601160045260246000fd5b90602091620008238151809281855285808601910162000758565b601f01601f1916010190565b80156200091257600081805b620008fb57506200084c816200073c565b916200085c604051938462000702565b818352601f196200086d836200073c565b01918160209336858701375b620008845750505090565b60018110620007f2576000190190600a90603082820680198211620007f2578651851015620008e5570160f81b7fff000000000000000000000000000000000000000000000000000000000000001660001a85840185015304908162000879565b634e487b7160e01b600052603260045260246000fd5b9062000909600a91620007e2565b9104806200083b565b50604080519081016001600160401b03811182821017620007265760405260018152600360fc1b60208201529056fe604060808152600490813610156200001657600080fd5b600091823560e01c9081630aadb777146200177b5781630b92b5e4146200174657816310b72d681462000de25781631487ddda1462000ca8578163172195221462000c875781631733ea501462000a825781632440f3e914620009e45781632b796968146200099e5781633e0dc34e1462000961578163453d91c114620008545781634d05124c146200080d5781634e75827114620007d757816359b6a0c914620007b65781635c975abb14620007925781635e5fe23014620007005781636497587a14620006be57816377f2c84b146200060157816378e9792514620005c457816379e25f3a14620005885781638905faeb14620003985781638a9be8281462000371575080639926878e1462000343578063a775a6fd146200031e578063d06a30be14620002f7578063d90543b814620002d7578063e2e7c366146200029b578063f3466dfa14620001a55763f60f1491146200017457600080fd5b34620001a15780602092620001893662001a2c565b908252600e8552828220908252845220549051908152f35b5080fd5b5034620001a15781600319360112620001a15780519082600554620001ca8162001a43565b8085529060019081811690811562000270575060011462000212575b505050620001fb826200020e94038362001aab565b5191829160208352602083019062001b06565b0390f35b60058352602095507f036b6384b5eca791c62761152d0c79bb0604c104a5fb6f4eb0703f3154bb3db05b8284106200025c57505050826200020e94620001fb9282010194620001e6565b80548685018801529286019281016200023c565b6200020e9750620001fb9450602092508693915060ff191682840152151560051b82010194620001e6565b5034620001a15781600319360112620001a157602090517f00000000000000000000000000000000000000000000000000000000000000008152f35b5034620001a15781600319360112620001a1576020906008549051908152f35b5034620001a15781600319360112620001a15760209062000317620023eb565b9051908152f35b5034620001a15781600319360112620001a15760209060ff6009541690519015158152f35b5034620001a15780602092620003593662001a2c565b908252600a8552828220908252845220549051908152f35b82843462000395576020366003190112620003955750620003176020923562002496565b80fd5b905082346200039557620003ac3662001a2c565b620003b982949262002911565b620003c48462002496565b92620151809182420490620003d98262001c9c565b939150506001821062000575576000199160198382019410156200055f575b5062000408620004149162001c9c565b94859492939162001bb8565b600181106200054c57600c91620004319101928284049062001bb8565b9106600119811162000539579262000473926200046d9260016200047d9601916200045d838362002317565b80911162000530575b506200209a565b62001b6a565b8342069062001bb8565b904282106200039557506200049c620004b0926200046d920462001c9c565b50620004a9818362002317565b916200209a565b90620143701982116200051b57610dd419620143708301116200051b57603b19620151448301116200051b575064496cebb8009162000507620004fe6200050d936201517f42910162001b2d565b94859262001b83565b62001b83565b049082519182526020820152f35b601190634e487b7160e01b6000525260246000fd5b92508c62000466565b634e487b7160e01b855260118752602485fd5b634e487b7160e01b865260118852602486fd5b90926001191062000575579162000408620003f8565b634e487b7160e01b845260118652602484fd5b505034620001a1576020366003190112620001a15760209181906001600160a01b03620005b462001a15565b168152600d845220549051908152f35b505034620001a15781600319360112620001a157602090517f00000000000000000000000000000000000000000000000000000000000000008152f35b905034620006ba57620006143662001a2c565b82549092906001600160a01b03163303620006845750620151806200063a910462001c9c565b5090808552600a6020528385208286526020528385206200065d84825462001b2d565b90558452600e6020528284209084526020526200067f82842091825462001b2d565b905551f35b606490602085519162461bcd60e51b8352820152601060248201526f13db9b1e481c185e5bdd5d081c1bdbdb60821b6044820152fd5b8280fd5b505034620001a1576020366003190112620001a15760209160ff9082906001600160a01b03620006ed62001a15565b168152600c855220541690519015158152f35b905034620006ba576020366003190112620006ba578035908115158092036200078e5760018060a01b03807f00000000000000000000000000000000000000000000000000000000000000001633141590816200077e575b5062000770575060ff80196000541691161760005551f35b8251633d769c1160e21b8152fd5b9050600154163314153862000758565b8380fd5b505034620001a15781600319360112620001a15760ff602092541690519015158152f35b505034620001a15781600319360112620001a1576020906007549051908152f35b505034620001a15781600319360112620001a1576006548252600b6020908152918190205490516001600160a01b039091168152f35b8284346200039557806003193601126200039557506200082c620023eb565b916127109083600019048211841515166200051b575060075460209362000317920262001b97565b905034620006ba576020366003190112620006ba576001600160a01b039080357f00000000000000000000000000000000000000000000000000000000000000008316330362000931579081859392600755836000146200091e5780620008bb9162001b2d565b915b6001541690813b156200078e576044849291838093885196879586946349e51b2560e01b865285015260248401525af180156200091157620008fe57505051f35b620009099062001a80565b620001a15751f35b50505051903d90823e3d90fd5b806200092a9162001b2d565b91620008bd565b835162461bcd60e51b8152602081840152600a60248201526927b7363c9037bbb732b960b11b6044820152606490fd5b505034620001a15781600319360112620001a157602090517f00000000000000000000000000000000000000000000000000000000000000008152f35b505034620001a15781600319360112620001a157517f00000000000000000000000000000000000000000000000000000000000000006001600160a01b03168152602090f35b905034620006ba576020366003190112620006ba57600254813591906001600160a01b0316330362000a4857507f98f8638d7fcb95eacabcf74919bde278d0b069a0579c6784d9bba8f93a4f62ee826008548151908152836020820152a160085551f35b606490602084519162461bcd60e51b8352820152601460248201527313db9b1e481c1c9bdd1958dd1a5bdb881c1bdbdb60621b6044820152fd5b905034620006ba576060366003190112620006ba5762000aa162001a15565b60243591604435916001600160a01b0390818416840362000c825781875462000ace60ff82161562002800565b60081c16330362000c7257811690818752602090600c825260ff87892054161562000c6257818894939262000b61869362000b0862002836565b858552600d835264e8d4a5100062000b248b8d88205462001b83565b6002548d5163a9059cbb60e01b81526001600160a01b038d168b820190815293909204602084015290968794919093169284929091839160400190565b03925af1801562000c585762000c1e575b5050803b15620006ba578551632770a7eb60e21b81526001600160a01b03851692810192835260208301869052918391839182908490829060400103925af1801562000c145762000bfc575b505082519182526001600160a01b031660208201527fad77d19b2b77e0dfe7bf3e9cd2c87dc639cc1e223d58cf3d69603478f684064590604090a151f35b62000c079062001a80565b6200078e57833862000bbe565b85513d84823e3d90fd5b81813d831162000c50575b62000c35818362001aab565b810103126200078e575180151503620006ba57388062000b72565b503d62000c29565b88513d87823e3d90fd5b8651631f05e71b60e31b81528490fd5b855163e3dfb17f60e01b81528390fd5b600080fd5b505034620001a15781600319360112620001a1576020906006549051908152f35b905034620006ba5781600319360112620006ba576001600160a01b039060243590803590838316830362000c825783865462000ce860ff82161562002800565b60081c16330362000dd45762000cfd62002836565b6006548652600b6020528584868220541691823b15620001a15786516340c10f1960e01b81526001600160a01b0386169181019182526020820185905292839182908490829060400103925af1801562000dca5762000dae575b5083519081526001600160a01b03919091166020808301919091529383917ff02b701fc10bff0958891c152c9eeabe4286e300c7ec9a0b08f64456ad941f7990604090a16006548152600b85522054169051908152f35b62000dba869162001a80565b62000dc6573862000d57565b8480fd5b85513d88823e3d90fd5b845163e3dfb17f60e01b8152fd5b838334620001a15760209283600319360112620006ba5780359060018060a01b039460019582828289541687519283809263c34c08e560e01b82525afa9081156200173c579082918891620016fb575b50163303620016eb5762000e45620023eb565b841115620016e45762000e57620023eb565b816002541686516370a0823160e01b815230868201528481602481855afa9081156200150f578991620016b1575b508751638e15f47360e01b8152858188818d875af1908115620014e95786918a918c9162001675575b5062000ec59062000ebf8762001b4f565b62001b97565b93838510156200154f5788549151636d40d7d760e11b8152808a018681529288166001600160a01b03166020840152929183919082908e90829060400103925af18015620014e95790869162001520575b505062000ebf62000f2c62000f32938362001b2d565b62001b4f565b6006548852600b84528287892054168852600d8452868820555b62000f56620023eb565b15620015195762000f7c62000f6b8262001b4f565b62000f75620023eb565b9062001b97565b82855416917f0000000000000000000000000000000000000000000000000000000000000000926006549160085490823b15620014f357888c8094889460c4948f519889978896639661994560e01b88528701526024860152604485015288606485015260848401523060a48401525af180156200150f57908991620014f7575b50506006548852600b84528287892054169060039184835416818b52600d8752898b2054813b15620014f3576064898d809489948f51978896879563c65323f160e01b8752860152602485015260448401525af18015620014e957908a91620014cd575b50908a8593926200107762015180420462001c9c565b50919091898d835b8885106200145d57505050505050505054166200109e6006546200292f565b9889600655620010ae836200295c565b620010b98b6200295c565b89518092665052492d4c502d60c81b89830152620010e1815180928b60278601910162001ace565b8101602d60f81b60278201528c9060055490620010fe8262001a43565b91878116908115620014375750600114620013f4575b5050906200114c9282612d4760f01b600294526200113b825180938d878501910162001ace565b0103601d1981018452018262001aab565b8851610acf8082019c919067ffffffffffffffff8e11828f1017620013e1576200118b898e9f9d9e9a9b9c9d849362002af58539818152018562001b06565b039088f08015620013d757818852600b89528b882080546001600160a01b031916918816918217905593803b15620013c9578b51637fdbe7b160e11b8152868b82015285602482015288816064818364e8d4a51000968760448401525af1908115620013cd578991620013b1575b50859052600d89528b882055600c88528a87209460ff199584878254161790558b519560a087528894600554620012308162001a43565b928360a08b015282821691826000146200138b57505060011462001327575b505092859492620012939286958b7f5bc145acec26384dc09c6269c9e569c69db21ad88cbd81319958b05998b83b5b9901528d860152848203606086015262001b06565b9060808301520390a160025416803b15620001a157818091879586518094819363dd5625c360e01b83525af180156200131d5762001300575b50506006548251938452908301527fd2f6618ba448f8b76ee0e823f8bb8c568b748f1687e1bc6bd625306fc4fb503591a151f35b6200130e9192935062001a80565b6200078e5782908486620012cc565b84513d84823e3d90fd5b60058a528a8a20999897969550919392918891905b8b8284106200136457509899509697509495509293850160c00192909182620012936200124f565b919496989a819496989a50805460c0858d01015201910190989694928e989694926200133c565b1660c0808b019190915292151560051b890190920195508491506200129390506200124f565b620013bc9062001a80565b620013c957878e620011f9565b8780fd5b8d513d8b823e3d90fd5b8b513d89823e3d90fd5b634e487b7160e01b8d5260418a5260248dfd5b90915060058e528d8a878183205b8584106200141b57505050500160280182600262001114565b80548585016028015288965092909101918c9189910162001402565b60ff19166028838101919091528315159093029091019091019150839050600262001114565b86979899509081868896979895949352600a83528181208482528352600e64e8d4a51000620014908c8585205462001b83565b0493898352528d828220908583525220550191600c8311620014bf575b019392919093879594898d8f6200107f565b9201918391508190620014ad565b620014d89062001a80565b620014e557888b62001061565b8880fd5b89513d8c823e3d90fd5b8b80fd5b620015029062001a80565b620013c957878a62000ffd565b88513d8b823e3d90fd5b8662000f7c565b813d831162001547575b62001536818362001aab565b8101031262000c8257848b62000f16565b503d6200152a565b88548b51636d40d7d760e11b8152808b019586529088166001600160a01b0316602086015290945092839150819060400103818c865af180156200150f5789906200163f575b620015a291508362001b2d565b908386541691813b156200163b57885163329b1a9360e21b81528781019182526001600160a01b0390931660208201528991839182908490829060400103925af18015620016315790889162001615575b50506006548752600b83528186882054168752600d8352868681205562000f4c565b620016209062001a80565b6200162d578689620015f3565b8680fd5b87513d8a823e3d90fd5b8980fd5b508481813d83116200166d575b62001658818362001aab565b8101031262000c8257620015a2905162001595565b503d6200164c565b928092508391503d8311620016a9575b62001691818362001aab565b8101031262000c82578862000ec58792519062000eae565b503d62001685565b90508481813d8311620016dc575b620016cb818362001aab565b8101031262000c8257518a62000e85565b503d620016bf565b8362000e57565b8451633f77a45b60e01b81528390fd5b809250848092503d831162001734575b62001717818362001aab565b810103126200162d575181811681036200162d5781908962000e32565b503d6200170b565b86513d89823e3d90fd5b905034620006ba576020366003190112620006ba57358252600b6020908152918190205490516001600160a01b039091168152f35b83915034620001a157600319608036820112620006ba5781359160443590845492620017ab60ff85161562002800565b6001600160a01b039360081c8416330362001a0657600383118015620019fb575b620019ec57620017dc8562002911565b620017e662002836565b62015180420493620017f88562001c9c565b600198919892838810620019b35760196000198901921015620019d9575b8091600c9a8b62001828838362001bb8565b1115620019c6576200183c92935062001bb8565b898110620019b357600b19019062001854906200292f565b8a52600a6020528a8a20908a52602052620018748a8a2091825462001bb8565b90556200188a60643562000ebf60243562001b4f565b94620018968162002a71565b97620018ad620018a68362002a71565b9862001c9c565b509190918a8a8d925b868410620019705750505050505050506003541693843b156200162d57869492620019426200193297959387938b51998a988997889663341922c160e01b88527f000000000000000000000000000000000000000000000000000000000000000090880152602487015260806044870152608486019062002abe565b9184830301606485015262002abe565b03925af1801562001966576200195757509051f35b620019629062001a80565b9051f35b83513d84823e3d90fd5b806200198e858a9594896200198783899862002aa9565b5262002aa9565b520191838311620019a5575b01908a8c91620018b6565b93019285915081906200199a565b634e487b7160e01b8b526011875260248bfd5b620019d2925062001bb8565b9062001854565b90620019e5906200292f565b9062001816565b508551632afd62f560e21b8152fd5b5060018310620017cc565b50855163e3dfb17f60e01b8152fd5b600435906001600160a01b038216820362000c8257565b604090600319011262000c82576004359060243590565b90600182811c9216801562001a75575b602083101462001a5f57565b634e487b7160e01b600052602260045260246000fd5b91607f169162001a53565b67ffffffffffffffff811162001a9557604052565b634e487b7160e01b600052604160045260246000fd5b90601f8019910116810190811067ffffffffffffffff82111762001a9557604052565b918091926000905b82821062001af057501162001ae9575050565b6000910152565b9150806020918301518186015201829162001ad6565b9060209162001b218151809281855285808601910162001ace565b601f01601f1916010190565b81811062001b39570390565b634e487b7160e01b600052601160045260246000fd5b64e8d4a5100090806000190482118115151662001b39570290565b6201518090806000190482118115151662001b39570290565b806000190482118115151662001b39570290565b811562001ba2570490565b634e487b7160e01b600052601260045260246000fd5b8119811162001b39570190565b6000811280156001600160ff1b0383900384131662001b3957600160ff1b82900383121662001b39570190565b6105b560008083136001600160ff1b0384900483111660011662001c445760017fffe9924f8d0dd7b2e6f174df9576f9de01c091c8faeb2605f522de8852b47aa88412828512161662001c4457500290565b634e487b7160e01b81526011600452602490fd5b600e600160ff1b01811260011662001b3957600d190190565b600082128015600160ff1b840183121662001b39576001600160ff1b03830182131662001b39570390565b6000916001600160ff1b039162010bd9908481128185038115818513166200208657600160ff1b938385039283821216620020725787908401129162010bd819908162253d8c930183138415166200205e570113166200204a5762264965019360019360049185878304841182891316166200203757808712600760fd1b8812168616620020375762023ab196878160021b0597878985048211848b1316166200202457877fffffc694f94337079d130ab45dff8e0f9ea161331bb1c93dea871de6fec83ce28a12848b1216166200202457880282811281850360031381151662000575578187036003121662002024579084600362001d9f9301059062001c71565b92818412848403881381151662001fd85784860388121662001fc557868401610fa0888286048211858413161662001feb57887ffff7ced916872b020c49ba5e353f7ced916872b020c49ba5e353f7ced916872c8312858412161662001feb5762001e209162164b09910205948262001e188762001bf2565b059062001c71565b828112818503601f1381151662001feb57818703601f121662001fd857601f019680888504605011848a13161662001fd857807ffe666666666666666666666666666666666666666666666666666666666666678912848a12161662001fd85761098f9788816050020590828287048b118684131616620020115784821299837ffff29be1739a4fb805dbcd5d6c7d1f7d6fd627208942391f124ee1c3f307026884128c161662001ffe579060508362001edd9302059062001c71565b98600b82059782870360021382151662001ffe578290036002121662001feb5781878604600c11858913161662001feb57817ff5555555555555555555555555555555555555555555555555555555555555568812858912161662001feb5762001f4f90600288600c02910162001c71565b986031600160ff1b018112821662001feb57819060301901809504606411848613161662001fd8577ffeb851eb851eb851eb851eb851eb851eb851eb851eb851eb851eb851eb851eb98412838512161662001fc557505062001fc0929162001fba9160640262001bc5565b62001bc5565b929190565b634e487b7160e01b825260119052602490fd5b634e487b7160e01b835260118252602483fd5b634e487b7160e01b845260118352602484fd5b634e487b7160e01b865260118552602486fd5b634e487b7160e01b855260118452602485fd5b634e487b7160e01b835260118552602483fd5b634e487b7160e01b815260118352602490fd5b634e487b7160e01b85526011600452602485fd5b634e487b7160e01b89526011600452602489fd5b634e487b7160e01b88526011600452602488fd5b634e487b7160e01b87526011600452602487fd5b9291926107b2811062000c8257600191617d4b600160ff1b018512831662001b39576000918281128015926001600160ff1b03929182840391906112c083811387166200207257600160ff1b8590039081811283166200205e576200212198999a9b62002134916200212760049b8c92600c620021178a62001c58565b05908b0162001bc5565b62001bf2565b0590617d4a190162001bc5565b6002600160ff1b0184128b166200230457600c620021528562001c58565b058b7f0aaaaaaaaaaaaaaaaaaaaaaaaaaaaaaaaaaaaaaaaaaaaaaaaaaaaaaaaaaaaaaa82118c83131616620022f1578b7ff55555555555555555555555555555555555555555555555555555555555555682128c83121616620022f157620021c290600c02600119860162001c71565b61016f8c828a0482118d84131616620022de578c7fffa6b6c1eb12d573186a06f9b8d9a287530217b7747d8eff4d6d83d625aae63183128d84121616620022de57620022159291600c9102059062001bc5565b9661132494851316620022cb57831216620022b8578792606492600c62002240620022499462001c58565b05910162001bc5565b05809204600311858313161662001feb57847fd5555555555555555555555555555555555555555555555555555555555555568212858312161662001feb5790826200229a92600302059062001c71565b9262253d8c600160ff1b0184121662001fc557505062253d8b190190565b634e487b7160e01b875260118652602487fd5b634e487b7160e01b895260118852602489fd5b634e487b7160e01b8c5260118b5260248cfd5b634e487b7160e01b8b5260118a5260248bfd5b634e487b7160e01b8a526011895260248afd5b90600181148015620023e0575b8015620023d5575b8015620023ca575b8015620023bf575b8015620023b4575b8015620023a9575b1562002359575050601f90565b600214620023675750601e90565b600381161590816200239b575b81156200238d575b50156200238857601d90565b601c90565b61019091500615386200237c565b606481061515915062002374565b50600c81146200234c565b50600a811462002344565b50600881146200233c565b506007811462002334565b50600581146200232c565b506003811462002324565b600080620023fe62015180420462001c9c565b50919081905b6003821062002427575050505062002423612710916008549062001b83565b0490565b909192936200246c90828552620024656020600a8152604080882089895282528088205491868952600e8152818920908a8a52528720549062001b2d565b9062001bb8565b93600180910192600c841162002488575b019291929062002404565b92508091019080926200247d565b90620024c37f00000000000000000000000000000000000000000000000000000000000000004262001b2d565b60025460408051631d23a7ad60e01b81526001600160a01b0392831695600495946020929190838389818c5afa928315620027be57600093620027c9575b508388998699979899519788809263d41ce4b160e01b82525afa958615620027be5760009662002786575b5062093a8010156200275b5790829188959493876001541685519788809263a7e9f1c760e01b82525afa95861562002750576000966200271b575b508515158062002711575b8062002707575b15620026db5791620025ac819262000f7585620025a562000f2c8e986200259f620023eb565b62001bb8565b9262001bb8565b96600654600052600b82528460002054168451938480926318160ddd60e01b82525afa928315620026d157509084929160009262002697575b5050620026029262000ebf620025fb9262001b4f565b9362001b83565b9064e8d4a510001990818311620026825762002653906200264c64e8d4a510008095017f000000000000000000000000000000000000000000000000000000000000000062001b83565b9462001b83565b9081116200266d576200266a939450019062001b97565b90565b601185634e487b7160e01b6000525260246000fd5b601186634e487b7160e01b6000525260246000fd5b90809350813d8311620026c9575b620026b1818362001aab565b810103126200039557505182908262000ebf620025e5565b503d620026a5565b513d6000823e3d90fd5b507f00000000000000000000000000000000000000000000000000000000000000009750505050505050565b5084151562002579565b5081151562002572565b90958382813d831162002748575b62002735818362001aab565b8101031262000395575051943862002567565b503d62002729565b84513d6000823e3d90fd5b507f000000000000000000000000000000000000000000000000000000000000000096505050505050565b90958482813d8311620027b6575b620027a0818362001aab565b81010312620003955750519462093a806200252c565b503d62002794565b85513d6000823e3d90fd5b9892848a813d8311620027f8575b620027e3818362001aab565b81010312620003955750975191978362002501565b503d620027d7565b156200280857565b60405162461bcd60e51b815260206004820152600660248201526514185d5cd95960d21b6044820152606490fd5b60ff600954161580620028d9575b6200284b57565b6001546001600160a01b0316803b1562000c825760008091602460405180948193631528244d60e11b83527f000000000000000000000000000000000000000000000000000000000000000060048401525af18015620028cd57620028bb575b50600160ff196009541617600955565b620028c69062001a80565b38620028ab565b6040513d6000823e3d90fd5b5062093a806200290a7f00000000000000000000000000000000000000000000000000000000000000004262001b2d565b1162002844565b62989680116200291d57565b604051630dc1588960e01b8152600490fd5b600019811462001b395760010190565b67ffffffffffffffff811162001a9557601f01601f191660200190565b801562002a285780816000925b62002a0f57506200297a826200293f565b916200298a604051938462001aab565b80835281601f196200299c836200293f565b013660208601375b620029ae57505090565b806001811062001b39576000190191600a9182820660308119811162001b39578651861015620029f9570160f81b6001600160f81b03191660001a908501601f0153049081620029a4565b634e487b7160e01b600052603260045260246000fd5b909162002a1e600a916200292f565b9291048062002969565b506040516040810181811067ffffffffffffffff82111762001a955760405260018152600360fc1b602082015290565b67ffffffffffffffff811162001a955760051b60200190565b9062002a7d8262002a58565b62002a8c604051918262001aab565b828152809262002a9f601f199162002a58565b0190602036910137565b8051821015620029f95760209160051b010190565b90815180825260208080930193019160005b82811062002adf575050505090565b83518552938101939281019260010162002ad056fe6080604052346200038a5762000acf803803806200001d816200038f565b928339810160209182818303126200038a5780516001600160401b03918282116200038a570192601f908382860112156200038a5784518381116200027957601f199562000071828501881684016200038f565b958287528383830101116200038a578183916000905b8282106200037057501162000361575b50506040519460408601868110858211176200027957604052600686526505052492d4c560d41b82870152845184811162000279576000546001968782811c9216801562000356575b858310146200025857818684931162000300575b5084908683116001146200029b576000926200028f575b5050600019600383901b1c191690861b176000555b8551938411620002795784548581811c911680156200026e575b8382101462000258578381116200020d575b5081928411600114620001a95750508192936000926200019d575b5050600019600383901b1c191690821b1790555b600580546001600160a01b031916331790556040516107199081620003b68239f35b01519050388062000167565b6000858152828120918516969193925b878210620001f557505083859610620001db575b505050811b0190556200017b565b015160001960f88460031b161c19169055388080620001cd565b808785968294968601518155019501930190620001b9565b85600052826000208480870160051c8201928588106200024e575b0160051c019086905b828110620002415750506200014c565b6000815501869062000231565b9250819262000228565b634e487b7160e01b600052602260045260246000fd5b90607f16906200013a565b634e487b7160e01b600052604160045260246000fd5b0151905038806200010b565b90848994169160008052866000209260005b88828210620002e95750508411620002cf575b505050811b0160005562000120565b015160001960f88460031b161c19169055388080620002c0565b8385015186558c97909501949384019301620002ad565b90915060008052846000208680850160051c8201928786106200034c575b918a91869594930160051c01915b8281106200033c575050620000f4565b600081558594508a91016200032c565b925081926200031e565b91607f1691620000e0565b60009186010152388162000097565b92809250818401015182828a010152018290849262000087565b600080fd5b6040519190601f01601f191682016001600160401b03811183821017620002795760405256fe6080604081815260048036101561001557600080fd5b600092833560e01c90816306fdde031461050357508063095ea7b31461049557806318160ddd1461047657806323b872dd146103b2578063313ce5671461039657806340c10f191461030a57806370a08231146102d257806395d89b41146101ce5780639dc29fac1461015d578063a9059cbb146100e75763dd62ed3e1461009c57600080fd5b346100e357816003193601126100e35760209282916100b9610630565b6100c161064b565b6001600160a01b03918216845291865283832091168252845220549051908152f35b8280fd5b505034610159578060031936011261015957602091610104610630565b82602435913384526003865281842061011e8482546106a2565b90556001600160a01b0316808452600386529220805482019055825190815233906000805160206106c4833981519152908590a35160018152f35b5080fd5b50503461015957806003193601126101595781610178610630565b6000805160206106c483398151915260206024359260018060a01b03906101a482600554163314610661565b1692838552600382528585206101bb8282546106a2565b905580600254036002558551908152a351f35b5091903461015957816003193601126101595780519082600180549081811c908083169283156102c8575b60209384841081146102b5578388529081156102995750600114610261575b505050829003601f01601f191682019267ffffffffffffffff84118385101761024e575082918261024a9252826105d9565b0390f35b634e487b7160e01b815260418552602490fd5b809293508652828620918387935b8385106102855750505050830101388080610218565b80548886018301529301928490820161026f565b60ff1916878501525050151560051b8401019050388080610218565b634e487b7160e01b895260228a52602489fd5b91607f16916101f9565b5050346101595760203660031901126101595760209181906001600160a01b036102fa610630565b1681526003845220549051908152f35b50346100e357816003193601126100e357610323610630565b600554602435926001600160a01b0392916103419084163314610661565b6002549084198211610383575085926000805160206106c48339815191529285602093016002551693848452600382528584208181540190558551908152a351f35b634e487b7160e01b875260119052602486fd5b5050346101595781600319360112610159576020905160068152f35b509134610473576060366003190112610473576103cd610630565b6000805160206106c48339815191526103e461064b565b6001600160a01b0392831680855260208781528686203387528152868620549097919488936044359389938560018201610450575b505050868852600385528288206104318582546106a2565b9055169586815260038452208181540190558551908152a35160018152f35b610459916106a2565b90888a528652838920338a52865283892055388085610419565b80fd5b5050346101595781600319360112610159576020906002549051908152f35b50346100e357816003193601126100e3576020926104b1610630565b918360243592839233825287528181209460018060a01b0316948582528752205582519081527f8c5be1e5ebec7d5bd14f71427d1e84f3dd0314c0f7b2291e5b200ac8c7c3b925843392a35160018152f35b84915083346100e357826003193601126100e357828354600181811c908083169283156105cf575b60209384841081146102b5578388529081156105b3575060011461057b57505050829003601f01601f191682019267ffffffffffffffff84118385101761024e575082918261024a9252826105d9565b919250858052828620918387935b83851061059f5750505050830101858080610218565b805488860183015293019284908201610589565b60ff1916878501525050151560051b8401019050858080610218565b91607f169161052b565b919091602080825283519081818401526000945b82861061061a57505080604093941161060d575b601f01601f1916010190565b6000838284010152610601565b85810182015184870160400152948101946105ed565b600435906001600160a01b038216820361064657565b600080fd5b602435906001600160a01b038216820361064657565b1561066857565b60405162461bcd60e51b815260206004820152601260248201527113db9b1e481c1c9a5bdc9a5d1e481c1bdbdb60721b6044820152606490fd5b8181106106ad570390565b634e487b7160e01b600052601160045260246000fdfeddf252ad1be2c89b69c2b068fc378daa952ba7f163c4a11628f55a4df523b3efa2646970667358221220b60011c415b0bd057291770ecb1dcd5cbedb3c9830ef66e332166c8c61de53e964736f6c634300080f0033a264697066735822122005388a2388f44f1c14fca8077c8b68c298db8bf8e6c4734609a17b276fe0bc2f64736f6c634300080f00336080604052346200038a5762000acf803803806200001d816200038f565b928339810160209182818303126200038a5780516001600160401b03918282116200038a570192601f908382860112156200038a5784518381116200027957601f199562000071828501881684016200038f565b958287528383830101116200038a578183916000905b8282106200037057501162000361575b50506040519460408601868110858211176200027957604052600686526505052492d4c560d41b82870152845184811162000279576000546001968782811c9216801562000356575b858310146200025857818684931162000300575b5084908683116001146200029b576000926200028f575b5050600019600383901b1c191690861b176000555b8551938411620002795784548581811c911680156200026e575b8382101462000258578381116200020d575b5081928411600114620001a95750508192936000926200019d575b5050600019600383901b1c191690821b1790555b600580546001600160a01b031916331790556040516107199081620003b68239f35b01519050388062000167565b6000858152828120918516969193925b878210620001f557505083859610620001db575b505050811b0190556200017b565b015160001960f88460031b161c19169055388080620001cd565b808785968294968601518155019501930190620001b9565b85600052826000208480870160051c8201928588106200024e575b0160051c019086905b828110620002415750506200014c565b6000815501869062000231565b9250819262000228565b634e487b7160e01b600052602260045260246000fd5b90607f16906200013a565b634e487b7160e01b600052604160045260246000fd5b0151905038806200010b565b90848994169160008052866000209260005b88828210620002e95750508411620002cf575b505050811b0160005562000120565b015160001960f88460031b161c19169055388080620002c0565b8385015186558c97909501949384019301620002ad565b90915060008052846000208680850160051c8201928786106200034c575b918a91869594930160051c01915b8281106200033c575050620000f4565b600081558594508a91016200032c565b925081926200031e565b91607f1691620000e0565b60009186010152388162000097565b92809250818401015182828a010152018290849262000087565b600080fd5b6040519190601f01601f191682016001600160401b03811183821017620002795760405256fe6080604081815260048036101561001557600080fd5b600092833560e01c90816306fdde031461050357508063095ea7b31461049557806318160ddd1461047657806323b872dd146103b2578063313ce5671461039657806340c10f191461030a57806370a08231146102d257806395d89b41146101ce5780639dc29fac1461015d578063a9059cbb146100e75763dd62ed3e1461009c57600080fd5b346100e357816003193601126100e35760209282916100b9610630565b6100c161064b565b6001600160a01b03918216845291865283832091168252845220549051908152f35b8280fd5b505034610159578060031936011261015957602091610104610630565b82602435913384526003865281842061011e8482546106a2565b90556001600160a01b0316808452600386529220805482019055825190815233906000805160206106c4833981519152908590a35160018152f35b5080fd5b50503461015957806003193601126101595781610178610630565b6000805160206106c483398151915260206024359260018060a01b03906101a482600554163314610661565b1692838552600382528585206101bb8282546106a2565b905580600254036002558551908152a351f35b5091903461015957816003193601126101595780519082600180549081811c908083169283156102c8575b60209384841081146102b5578388529081156102995750600114610261575b505050829003601f01601f191682019267ffffffffffffffff84118385101761024e575082918261024a9252826105d9565b0390f35b634e487b7160e01b815260418552602490fd5b809293508652828620918387935b8385106102855750505050830101388080610218565b80548886018301529301928490820161026f565b60ff1916878501525050151560051b8401019050388080610218565b634e487b7160e01b895260228a52602489fd5b91607f16916101f9565b5050346101595760203660031901126101595760209181906001600160a01b036102fa610630565b1681526003845220549051908152f35b50346100e357816003193601126100e357610323610630565b600554602435926001600160a01b0392916103419084163314610661565b6002549084198211610383575085926000805160206106c48339815191529285602093016002551693848452600382528584208181540190558551908152a351f35b634e487b7160e01b875260119052602486fd5b5050346101595781600319360112610159576020905160068152f35b509134610473576060366003190112610473576103cd610630565b6000805160206106c48339815191526103e461064b565b6001600160a01b0392831680855260208781528686203387528152868620549097919488936044359389938560018201610450575b505050868852600385528288206104318582546106a2565b9055169586815260038452208181540190558551908152a35160018152f35b610459916106a2565b90888a528652838920338a52865283892055388085610419565b80fd5b5050346101595781600319360112610159576020906002549051908152f35b50346100e357816003193601126100e3576020926104b1610630565b918360243592839233825287528181209460018060a01b0316948582528752205582519081527f8c5be1e5ebec7d5bd14f71427d1e84f3dd0314c0f7b2291e5b200ac8c7c3b925843392a35160018152f35b84915083346100e357826003193601126100e357828354600181811c908083169283156105cf575b60209384841081146102b5578388529081156105b3575060011461057b57505050829003601f01601f191682019267ffffffffffffffff84118385101761024e575082918261024a9252826105d9565b919250858052828620918387935b83851061059f5750505050830101858080610218565b805488860183015293019284908201610589565b60ff1916878501525050151560051b8401019050858080610218565b91607f169161052b565b919091602080825283519081818401526000945b82861061061a57505080604093941161060d575b601f01601f1916010190565b6000838284010152610601565b85810182015184870160400152948101946105ed565b600435906001600160a01b038216820361064657565b600080fd5b602435906001600160a01b038216820361064657565b1561066857565b60405162461bcd60e51b815260206004820152601260248201527113db9b1e481c1c9a5bdc9a5d1e481c1bdbdb60721b6044820152606490fd5b8181106106ad570390565b634e487b7160e01b600052601160045260246000fdfeddf252ad1be2c89b69c2b068fc378daa952ba7f163c4a11628f55a4df523b3efa2646970667358221220b60011c415b0bd057291770ecb1dcd5cbedb3c9830ef66e332166c8c61de53e964736f6c634300080f0033036b6384b5eca791c62761152d0c79bb0604c104a5fb6f4eb0703f3154bb3db0a264697066735822122093e87e63147dcec076d2a80a43197774ceb119a1af41a6ef1093cfea22a6962d64736f6c634300080f0033",
  "devdoc": {
    "kind": "dev",
    "methods": {
      "deployPool(uint256,string,address,uint256,uint256)": {
        "params": {
          "_basePremiumRatio": "Initial policy price per usdc",
          "_maxCapacity": "Maximum capacity of the pool",
          "_name": "Name of the protocol",
          "_protocolToken": "Address of the token used for the protocol"
        },
        "returns": {
          "_0": "address Address of the new insurance pool"
        }
      }
    },
    "version": 1
  },
  "userdoc": {
    "kind": "user",
    "methods": {
      "deployPool(uint256,string,address,uint256,uint256)": {
        "notice": "Create a new priority pool         Called by executor when an onboard proposal has passed"
      }
    },
    "version": 1
  },
  "storageLayout": {
    "storage": [
      {
        "astId": 184,
        "contract": "src/pools/priorityPool/PriorityPoolDeployer.sol:PriorityPoolDeployer",
        "label": "_initialized",
        "offset": 0,
        "slot": "0",
        "type": "t_uint8"
      },
      {
        "astId": 187,
        "contract": "src/pools/priorityPool/PriorityPoolDeployer.sol:PriorityPoolDeployer",
        "label": "_initializing",
        "offset": 1,
        "slot": "0",
        "type": "t_bool"
      },
      {
        "astId": 12529,
        "contract": "src/pools/priorityPool/PriorityPoolDeployer.sol:PriorityPoolDeployer",
        "label": "owner",
        "offset": 2,
        "slot": "0",
        "type": "t_address"
      },
      {
        "astId": 12531,
        "contract": "src/pools/priorityPool/PriorityPoolDeployer.sol:PriorityPoolDeployer",
        "label": "priorityPoolFactory",
        "offset": 0,
        "slot": "1",
        "type": "t_address"
      },
      {
        "astId": 12533,
        "contract": "src/pools/priorityPool/PriorityPoolDeployer.sol:PriorityPoolDeployer",
        "label": "weightedFarmingPool",
        "offset": 0,
        "slot": "2",
        "type": "t_address"
      },
      {
        "astId": 12535,
        "contract": "src/pools/priorityPool/PriorityPoolDeployer.sol:PriorityPoolDeployer",
        "label": "protectionPool",
        "offset": 0,
        "slot": "3",
        "type": "t_address"
      },
      {
        "astId": 12537,
        "contract": "src/pools/priorityPool/PriorityPoolDeployer.sol:PriorityPoolDeployer",
        "label": "policyCenter",
        "offset": 0,
        "slot": "4",
        "type": "t_address"
      },
      {
        "astId": 12539,
        "contract": "src/pools/priorityPool/PriorityPoolDeployer.sol:PriorityPoolDeployer",
        "label": "payoutPool",
        "offset": 0,
        "slot": "5",
        "type": "t_address"
      }
    ],
    "types": {
      "t_address": {
        "encoding": "inplace",
        "label": "address",
        "numberOfBytes": "20"
      },
      "t_bool": {
        "encoding": "inplace",
        "label": "bool",
        "numberOfBytes": "1"
      },
      "t_uint8": {
        "encoding": "inplace",
        "label": "uint8",
        "numberOfBytes": "1"
      }
    }
  }
}