{
  "address": "0xc474a5032cf684F444dd07e24f9Ea45F47C41E18",
  "abi": [
    {
      "inputs": [],
      "name": "ProtectionPool__ExceededTotalSupply",
      "type": "error"
    },
    {
      "inputs": [],
      "name": "ProtectionPool__NotAllowedToPause",
      "type": "error"
    },
    {
      "inputs": [],
      "name": "ProtectionPool__NotEnoughBalance",
      "type": "error"
    },
    {
      "inputs": [],
      "name": "ProtectionPool__NotEnoughLiquidity",
      "type": "error"
    },
    {
      "inputs": [],
      "name": "ProtectionPool__OnlyPolicyCenter",
      "type": "error"
    },
    {
      "inputs": [],
      "name": "ProtectionPool__OnlyPriorityPool",
      "type": "error"
    },
    {
      "inputs": [],
      "name": "ProtectionPool__OnlyPriorityPoolOrPolicyCenter",
      "type": "error"
    },
    {
      "anonymous": false,
      "inputs": [
        {
          "indexed": true,
          "internalType": "address",
          "name": "owner",
          "type": "address"
        },
        {
          "indexed": true,
          "internalType": "address",
          "name": "spender",
          "type": "address"
        },
        {
          "indexed": false,
          "internalType": "uint256",
          "name": "value",
          "type": "uint256"
        }
      ],
      "name": "Approval",
      "type": "event"
    },
    {
      "anonymous": false,
      "inputs": [
        {
          "indexed": true,
          "internalType": "address",
          "name": "lender",
          "type": "address"
        },
        {
          "indexed": true,
          "internalType": "address",
          "name": "borrower",
          "type": "address"
        },
        {
          "indexed": true,
          "internalType": "address",
          "name": "stablecoin",
          "type": "address"
        },
        {
          "indexed": false,
          "internalType": "uint256",
          "name": "amount",
          "type": "uint256"
        },
        {
          "indexed": false,
          "internalType": "uint256",
          "name": "fee",
          "type": "uint256"
        }
      ],
      "name": "FlashLoanBorrowed",
      "type": "event"
    },
    {
      "anonymous": false,
      "inputs": [
        {
          "indexed": false,
          "internalType": "uint8",
          "name": "version",
          "type": "uint8"
        }
      ],
      "name": "Initialized",
      "type": "event"
    },
    {
      "anonymous": false,
      "inputs": [
        {
          "indexed": false,
          "internalType": "uint256",
          "name": "usdcAmount",
          "type": "uint256"
        },
        {
          "indexed": false,
          "internalType": "uint256",
          "name": "lpAmount",
          "type": "uint256"
        },
        {
          "indexed": false,
          "internalType": "address",
          "name": "sender",
          "type": "address"
        }
      ],
      "name": "LiquidityProvided",
      "type": "event"
    },
    {
      "anonymous": false,
      "inputs": [
        {
          "indexed": false,
          "internalType": "uint256",
          "name": "lpAmount",
          "type": "uint256"
        },
        {
          "indexed": false,
          "internalType": "uint256",
          "name": "usdcAmount",
          "type": "uint256"
        },
        {
          "indexed": false,
          "internalType": "address",
          "name": "sender",
          "type": "address"
        }
      ],
      "name": "LiquidityRemoved",
      "type": "event"
    },
    {
      "anonymous": false,
      "inputs": [
        {
          "indexed": false,
          "internalType": "address",
          "name": "pool",
          "type": "address"
        },
        {
          "indexed": false,
          "internalType": "uint256",
          "name": "amount",
          "type": "uint256"
        }
      ],
      "name": "LiquidityRemovedWhenClaimed",
      "type": "event"
    },
    {
      "anonymous": false,
      "inputs": [
        {
          "indexed": true,
          "internalType": "address",
          "name": "previousOwner",
          "type": "address"
        },
        {
          "indexed": true,
          "internalType": "address",
          "name": "newOwner",
          "type": "address"
        }
      ],
      "name": "OwnershipTransferred",
      "type": "event"
    },
    {
      "anonymous": false,
      "inputs": [
        {
          "indexed": false,
          "internalType": "uint256",
          "name": "price",
          "type": "uint256"
        }
      ],
      "name": "PriceUpdated",
      "type": "event"
    },
    {
      "anonymous": false,
      "inputs": [
        {
          "indexed": false,
          "internalType": "uint256",
          "name": "totalReward",
          "type": "uint256"
        }
      ],
      "name": "RewardUpdated",
      "type": "event"
    },
    {
      "anonymous": false,
      "inputs": [
        {
          "indexed": true,
          "internalType": "address",
          "name": "from",
          "type": "address"
        },
        {
          "indexed": true,
          "internalType": "address",
          "name": "to",
          "type": "address"
        },
        {
          "indexed": false,
          "internalType": "uint256",
          "name": "value",
          "type": "uint256"
        }
      ],
      "name": "Transfer",
      "type": "event"
    },
    {
      "inputs": [],
      "name": "FEE",
      "outputs": [
        {
          "internalType": "uint256",
          "name": "",
          "type": "uint256"
        }
      ],
      "stateMutability": "view",
      "type": "function"
    },
    {
      "inputs": [],
      "name": "USDC",
      "outputs": [
        {
          "internalType": "address",
          "name": "",
          "type": "address"
        }
      ],
      "stateMutability": "view",
      "type": "function"
    },
    {
      "inputs": [
        {
          "internalType": "address",
          "name": "owner",
          "type": "address"
        },
        {
          "internalType": "address",
          "name": "spender",
          "type": "address"
        }
      ],
      "name": "allowance",
      "outputs": [
        {
          "internalType": "uint256",
          "name": "",
          "type": "uint256"
        }
      ],
      "stateMutability": "view",
      "type": "function"
    },
    {
      "inputs": [
        {
          "internalType": "address",
          "name": "spender",
          "type": "address"
        },
        {
          "internalType": "uint256",
          "name": "amount",
          "type": "uint256"
        }
      ],
      "name": "approve",
      "outputs": [
        {
          "internalType": "bool",
          "name": "",
          "type": "bool"
        }
      ],
      "stateMutability": "nonpayable",
      "type": "function"
    },
    {
      "inputs": [
        {
          "internalType": "address",
          "name": "account",
          "type": "address"
        }
      ],
      "name": "balanceOf",
      "outputs": [
        {
          "internalType": "uint256",
          "name": "",
          "type": "uint256"
        }
      ],
      "stateMutability": "view",
      "type": "function"
    },
    {
      "inputs": [
        {
          "internalType": "uint256",
          "name": "_amountToRemove",
          "type": "uint256"
        }
      ],
      "name": "checkEnoughLiquidity",
      "outputs": [],
      "stateMutability": "view",
      "type": "function"
    },
    {
      "inputs": [],
      "name": "decimals",
      "outputs": [
        {
          "internalType": "uint8",
          "name": "",
          "type": "uint8"
        }
      ],
      "stateMutability": "pure",
      "type": "function"
    },
    {
      "inputs": [
        {
          "internalType": "address",
          "name": "spender",
          "type": "address"
        },
        {
          "internalType": "uint256",
          "name": "subtractedValue",
          "type": "uint256"
        }
      ],
      "name": "decreaseAllowance",
      "outputs": [
        {
          "internalType": "bool",
          "name": "",
          "type": "bool"
        }
      ],
      "stateMutability": "nonpayable",
      "type": "function"
    },
    {
      "inputs": [
        {
          "internalType": "address",
          "name": "_token",
          "type": "address"
        },
        {
          "internalType": "uint256",
          "name": "_amount",
          "type": "uint256"
        }
      ],
      "name": "flashFee",
      "outputs": [
        {
          "internalType": "uint256",
          "name": "",
          "type": "uint256"
        }
      ],
      "stateMutability": "view",
      "type": "function"
    },
    {
      "inputs": [
        {
          "internalType": "contract IERC3156FlashBorrower",
          "name": "_receiver",
          "type": "address"
        },
        {
          "internalType": "address",
          "name": "_token",
          "type": "address"
        },
        {
          "internalType": "uint256",
          "name": "_amount",
          "type": "uint256"
        },
        {
          "internalType": "bytes",
          "name": "_data",
          "type": "bytes"
        }
      ],
      "name": "flashLoan",
      "outputs": [
        {
          "internalType": "bool",
          "name": "",
          "type": "bool"
        }
      ],
      "stateMutability": "nonpayable",
      "type": "function"
    },
    {
      "inputs": [],
      "name": "getLatestPrice",
      "outputs": [
        {
          "internalType": "uint256",
          "name": "",
          "type": "uint256"
        }
      ],
      "stateMutability": "nonpayable",
      "type": "function"
    },
    {
      "inputs": [],
      "name": "getTotalActiveCovered",
      "outputs": [
        {
          "internalType": "uint256",
          "name": "activeCovered",
          "type": "uint256"
        }
      ],
      "stateMutability": "view",
      "type": "function"
    },
    {
      "inputs": [],
      "name": "getTotalCovered",
      "outputs": [
        {
          "internalType": "uint256",
          "name": "totalCovered",
          "type": "uint256"
        }
      ],
      "stateMutability": "view",
      "type": "function"
    },
    {
      "inputs": [],
      "name": "incidentReport",
      "outputs": [
        {
          "internalType": "address",
          "name": "",
          "type": "address"
        }
      ],
      "stateMutability": "view",
      "type": "function"
    },
    {
      "inputs": [
        {
          "internalType": "address",
          "name": "spender",
          "type": "address"
        },
        {
          "internalType": "uint256",
          "name": "addedValue",
          "type": "uint256"
        }
      ],
      "name": "increaseAllowance",
      "outputs": [
        {
          "internalType": "bool",
          "name": "",
          "type": "bool"
        }
      ],
      "stateMutability": "nonpayable",
      "type": "function"
    },
    {
      "inputs": [
        {
          "internalType": "address",
          "name": "_deg",
          "type": "address"
        },
        {
          "internalType": "address",
          "name": "_veDeg",
          "type": "address"
        }
      ],
      "name": "initialize",
      "outputs": [],
      "stateMutability": "nonpayable",
      "type": "function"
    },
    {
      "inputs": [],
      "name": "lastRewardTimestamp",
      "outputs": [
        {
          "internalType": "uint256",
          "name": "",
          "type": "uint256"
        }
      ],
      "stateMutability": "view",
      "type": "function"
    },
    {
      "inputs": [
        {
          "internalType": "address",
          "name": "_token",
          "type": "address"
        }
      ],
      "name": "maxFlashLoan",
      "outputs": [
        {
          "internalType": "uint256",
          "name": "",
          "type": "uint256"
        }
      ],
      "stateMutability": "view",
      "type": "function"
    },
    {
      "inputs": [],
      "name": "minAssetRequirement",
      "outputs": [
        {
          "internalType": "uint256",
          "name": "minRequirement",
          "type": "uint256"
        }
      ],
      "stateMutability": "view",
      "type": "function"
    },
    {
      "inputs": [],
      "name": "name",
      "outputs": [
        {
          "internalType": "string",
          "name": "",
          "type": "string"
        }
      ],
      "stateMutability": "view",
      "type": "function"
    },
    {
      "inputs": [],
      "name": "owner",
      "outputs": [
        {
          "internalType": "address",
          "name": "",
          "type": "address"
        }
      ],
      "stateMutability": "view",
      "type": "function"
    },
    {
      "inputs": [
        {
          "internalType": "bool",
          "name": "_paused",
          "type": "bool"
        }
      ],
      "name": "pauseProtectionPool",
      "outputs": [],
      "stateMutability": "nonpayable",
      "type": "function"
    },
    {
      "inputs": [],
      "name": "paused",
      "outputs": [
        {
          "internalType": "bool",
          "name": "",
          "type": "bool"
        }
      ],
      "stateMutability": "view",
      "type": "function"
    },
    {
      "inputs": [],
      "name": "policyCenter",
      "outputs": [
        {
          "internalType": "address",
          "name": "",
          "type": "address"
        }
      ],
      "stateMutability": "view",
      "type": "function"
    },
    {
      "inputs": [],
      "name": "price",
      "outputs": [
        {
          "internalType": "uint256",
          "name": "",
          "type": "uint256"
        }
      ],
      "stateMutability": "view",
      "type": "function"
    },
    {
      "inputs": [],
      "name": "priorityPoolFactory",
      "outputs": [
        {
          "internalType": "address",
          "name": "",
          "type": "address"
        }
      ],
      "stateMutability": "view",
      "type": "function"
    },
    {
      "inputs": [
        {
          "internalType": "uint256",
          "name": "_amount",
          "type": "uint256"
        },
        {
          "internalType": "address",
          "name": "_provider",
          "type": "address"
        }
      ],
      "name": "providedLiquidity",
      "outputs": [],
      "stateMutability": "nonpayable",
      "type": "function"
    },
    {
      "inputs": [
        {
          "internalType": "uint256",
          "name": "_amount",
          "type": "uint256"
        },
        {
          "internalType": "address",
          "name": "_provider",
          "type": "address"
        }
      ],
      "name": "removedLiquidity",
      "outputs": [
        {
          "internalType": "uint256",
          "name": "usdcToTransfer",
          "type": "uint256"
        }
      ],
      "stateMutability": "nonpayable",
      "type": "function"
    },
    {
      "inputs": [
        {
          "internalType": "uint256",
          "name": "_amount",
          "type": "uint256"
        },
        {
          "internalType": "address",
          "name": "_to",
          "type": "address"
        }
      ],
      "name": "removedLiquidityWhenClaimed",
      "outputs": [],
      "stateMutability": "nonpayable",
      "type": "function"
    },
    {
      "inputs": [],
      "name": "renounceOwnership",
      "outputs": [],
      "stateMutability": "nonpayable",
      "type": "function"
    },
    {
      "inputs": [
        {
          "internalType": "uint256",
          "name": "",
          "type": "uint256"
        },
        {
          "internalType": "uint256",
          "name": "",
          "type": "uint256"
        }
      ],
      "name": "rewardSpeed",
      "outputs": [
        {
          "internalType": "uint256",
          "name": "",
          "type": "uint256"
        }
      ],
      "stateMutability": "view",
      "type": "function"
    },
    {
      "inputs": [
        {
          "internalType": "address",
          "name": "_incidentReport",
          "type": "address"
        }
      ],
      "name": "setIncidentReport",
      "outputs": [],
      "stateMutability": "nonpayable",
      "type": "function"
    },
    {
      "inputs": [
        {
          "internalType": "address",
          "name": "_policyCenter",
          "type": "address"
        }
      ],
      "name": "setPolicyCenter",
      "outputs": [],
      "stateMutability": "nonpayable",
      "type": "function"
    },
    {
      "inputs": [
        {
          "internalType": "address",
          "name": "_priorityPoolFactory",
          "type": "address"
        }
      ],
      "name": "setPriorityPoolFactory",
      "outputs": [],
      "stateMutability": "nonpayable",
      "type": "function"
    },
    {
      "inputs": [],
      "name": "stakedSupply",
      "outputs": [
        {
          "internalType": "uint256",
          "name": "",
          "type": "uint256"
        }
      ],
      "stateMutability": "view",
      "type": "function"
    },
    {
      "inputs": [],
      "name": "startTime",
      "outputs": [
        {
          "internalType": "uint256",
          "name": "",
          "type": "uint256"
        }
      ],
      "stateMutability": "view",
      "type": "function"
    },
    {
      "inputs": [],
      "name": "symbol",
      "outputs": [
        {
          "internalType": "string",
          "name": "",
          "type": "string"
        }
      ],
      "stateMutability": "view",
      "type": "function"
    },
    {
      "inputs": [],
      "name": "token",
      "outputs": [
        {
          "internalType": "address",
          "name": "",
          "type": "address"
        }
      ],
      "stateMutability": "view",
      "type": "function"
    },
    {
      "inputs": [],
      "name": "totalSupply",
      "outputs": [
        {
          "internalType": "uint256",
          "name": "",
          "type": "uint256"
        }
      ],
      "stateMutability": "view",
      "type": "function"
    },
    {
      "inputs": [
        {
          "internalType": "address",
          "name": "to",
          "type": "address"
        },
        {
          "internalType": "uint256",
          "name": "amount",
          "type": "uint256"
        }
      ],
      "name": "transfer",
      "outputs": [
        {
          "internalType": "bool",
          "name": "",
          "type": "bool"
        }
      ],
      "stateMutability": "nonpayable",
      "type": "function"
    },
    {
      "inputs": [
        {
          "internalType": "address",
          "name": "from",
          "type": "address"
        },
        {
          "internalType": "address",
          "name": "to",
          "type": "address"
        },
        {
          "internalType": "uint256",
          "name": "amount",
          "type": "uint256"
        }
      ],
      "name": "transferFrom",
      "outputs": [
        {
          "internalType": "bool",
          "name": "",
          "type": "bool"
        }
      ],
      "stateMutability": "nonpayable",
      "type": "function"
    },
    {
      "inputs": [
        {
          "internalType": "address",
          "name": "newOwner",
          "type": "address"
        }
      ],
      "name": "transferOwnership",
      "outputs": [],
      "stateMutability": "nonpayable",
      "type": "function"
    },
    {
      "inputs": [],
      "name": "updateIndexCut",
      "outputs": [],
      "stateMutability": "nonpayable",
      "type": "function"
    },
    {
      "inputs": [
        {
          "internalType": "bool",
          "name": "_isStake",
          "type": "bool"
        },
        {
          "internalType": "uint256",
          "name": "_amount",
          "type": "uint256"
        }
      ],
      "name": "updateStakedSupply",
      "outputs": [],
      "stateMutability": "nonpayable",
      "type": "function"
    },
    {
      "inputs": [],
      "name": "updateWhenBuy",
      "outputs": [],
      "stateMutability": "nonpayable",
      "type": "function"
    }
  ],
  "transactionHash": "0x395402d9715ca9578d8d020322d4a982073dae8889ced3039e61ae781e26a45a",
  "args": [],
  "numDeployments": 2,
  "solcInputHash": "108a444c0b47488466ff5a8c173fc06a",
  "bytecode": "0x608080604052346100165761297d908161001c8239f35b600080fdfe608080604052600436101561001357600080fd5b60003560e01c90816306fdde0314611fcc57508063095ea7b314611fa65780630dfa376d14611f545780630f89b77d14611f2b57806318160ddd14611f0d5780631d23a7ad14611d615780631e432b0014611d3657806323b872dd14611c785780632dd57bb014611c2c578063313ce56714611c105780633950935114611bbf57806344abf1a914611a7d578063484aaa9914611a61578063485cc955146115c95780634d05124c146115ae5780635c975abb1461158b5780635cffe9de146111cb578063613255ab146111075780636f8a6e43146110de57806370a08231146110a4578063715018a61461103f57806378e979251461102157806389a3027114610ff25780638da5cb5b14610fc95780638e15f47314610fa357806395d89b4114610ec5578063a035b1fe14610ea7578063a457c2d714610e00578063a8a2b43114610d7c578063a9059cbb14610d4b578063ad35e1dc14610cff578063b1fead0b14610cc5578063c57981b514610ca9578063ca6c6a4c14610ae8578063d41ce4b114610aca578063d9d98ce414610a9b578063da81afae1461078c578063dd5625c314610533578063dd62ed3e146104e2578063e3356ccf14610496578063e8adbf2f1461046d578063f2fde38b146103d5578063f8077fae146103b7578063fc0c546a1461038e5763fc51843c1461020e57600080fd5b3461030b57600036600319011261030b5760cc54604051639e3079cb60e01b81526020916000916001600160a01b0391821691908481600481865afa90811561031757600091610361575b5060005b81811061026e578585604051908152f35b600119811161034b5760010193604051906315895f4760e31b8252856004830152600082602481885afa9182156103175784928891600091610323575b50600460405180958193636835185f60e11b8352165afa908115610317576000916102e1575b6102db925061216e565b9361025d565b90508682813d8311610310575b6102f8818361214d565b8101031261030b576102db9151906102d1565b600080fd5b503d6102ee565b6040513d6000823e3d90fd5b61034091503d806000833e610338818361214d565b810190612455565b5050509050386102ab565b634e487b7160e01b600052601160045260246000fd5b90508481813d8311610387575b610378818361214d565b8101031261030b575138610259565b503d61036e565b3461030b57600036600319011261030b576065546040516001600160a01b039091168152602090f35b3461030b57600036600319011261030b57602060d054604051908152f35b3461030b57602036600319011261030b576103ee6120bd565b6066546001600160a01b039061040790821633146124ff565b81161561041957610417906128bf565b005b60405162461bcd60e51b815260206004820152602660248201527f4f776e61626c653a206e6577206f776e657220697320746865207a65726f206160448201526564647265737360d01b6064820152608490fd5b3461030b57600036600319011261030b5760cd546040516001600160a01b039091168152602090f35b3461030b57602036600319011261030b576104af6120bd565b6066546001600160a01b0391906104c990831633146124ff565b60ce8054919092166001600160a01b0319909116179055005b3461030b57604036600319011261030b576104fb6120bd565b6105036120d3565b9060018060a01b038091166000526034602052604060002091166000526020526020604060002054604051908152f35b3461030b57600036600319011261030b5760cc54604051639e3079cb60e01b81526001600160a01b03918216919060208082600481875afa9182156103175760009261075d575b506040516370a0823160e01b815230600482015292602492828585817323d0cddc1ea9fcc5ca9ec6b5fc77e304bce8d4c35afa9485156103175760009561072e575b5060005b8181106105c957005b6001198111610719576001016040516315895f4760e31b815281600482015260008187818b5afa80156103175784916000916106f9575b5016604051631341449360e21b81528581600481855afa908115610317576000916106cc575b50878111610636575b50506105c0565b61271088600019048111891515166106b75790610654918902612552565b813b1561030b576000918783926040519485938492632440f3e960e01b845260048401525af180156103175761068b575b8061062f565b6001600160401b0381116106a25760405287610685565b85634e487b7160e01b60005260416004526000fd5b87634e487b7160e01b60005260116004526000fd5b90508581813d83116106f2575b6106e3818361214d565b8101031261030b575189610626565b503d6106d9565b61070e91503d806000833e610338818361214d565b505050905089610600565b84634e487b7160e01b60005260116004526000fd5b9094508281813d8311610756575b610746818361214d565b8101031261030b575193866105bc565b503d61073c565b9080925081813d8311610785575b610775818361214d565b8101031261030b5751908461057a565b503d61076b565b3461030b57604036600319011261030b576004356107a86120d3565b60ff60985416610a6d5760cd546001600160a01b039190821633141580610a16575b610a045760355483116109f2576107df612794565b60d154836000190481118415151661034b5764e8d4a5100090840204918060cd54163314806109e4575b156109de57815b1692831561098f57836000526020936033855260406000205482811061093f5790826000928284526033885203604083205561084e83603554612572565b60355560008051602061292883398151915286604051858152a360405163a9059cbb60e01b81526001600160a01b03831660048201526024810184905290848260448160007323d0cddc1ea9fcc5ca9ec6b5fc77e304bce8d4c35af18015610317577f0c54fc223ffd1a8f36652b5e83db4fff50f5ae151b11ceb56d5499b9f6e1fa1893859361090792610912575b506040805193845260208401949094526001600160a01b0316928201929092529081906060820190565b0390a1604051908152f35b61093190883d8a11610938575b610929818361214d565b8101906124e7565b50876108dd565b503d61091f565b60405162461bcd60e51b815260048101879052602260248201527f45524332303a206275726e20616d6f756e7420657863656564732062616c616e604482015261636560f01b6064820152608490fd5b60405162461bcd60e51b815260206004820152602160248201527f45524332303a206275726e2066726f6d20746865207a65726f206164647265736044820152607360f81b6064820152608490fd5b33610810565b6109ed8461257d565b610809565b60405163d6e1271b60e01b8152600490fd5b60405163acfbdf9160e01b8152600490fd5b50602460208360cc541660405192838092633a31bb7760e11b82523360048301525afa90811561031757600091610a4f575b50156107ca565b610a67915060203d811161093857610929818361214d565b84610a48565b60405162461bcd60e51b815260206004820152600660248201526514185d5cd95960d21b6044820152606490fd5b3461030b57604036600319011261030b576020610ac2610ab96120bd565b6024359061285e565b604051908152f35b3461030b57600036600319011261030b57602060d254604051908152f35b3461030b57604036600319011261030b57600435610b046120d3565b60cc54604051633a31bb7760e11b8152336004820152919260209290918390829060249082906001600160a01b03165afa90811561031757600091610c8c575b5015610c7a576040516370a0823160e01b81523060048201527323d0cddc1ea9fcc5ca9ec6b5fc77e304bce8d4c3908381602481855afa90811561031757600091610c4d575b508211610c3b5760405163a9059cbb60e01b81526001600160a01b03949094166004850152602484018290528290849060449082906000905af1918215610317577f9c125d89aedad0c6838010bd5646efbf0d93daa2dcc78e414b4daee16abb6c7d93610c1893610c1d575b5050610c00612794565b60408051338152602081019290925290918291820190565b0390a1005b81610c3392903d1061093857610929818361214d565b508380610bf6565b604051633ced52eb60e11b8152600490fd5b90508381813d8311610c73575b610c64818361214d565b8101031261030b575185610b8a565b503d610c5a565b6040516379b0b85160e01b8152600490fd5b610ca39150833d851161093857610929818361214d565b84610b44565b3461030b57600036600319011261030b576020604051600a8152f35b3461030b57604036600319011261030b5760043560005260d360205260406000206024356000526020526020604060002054604051908152f35b3461030b57602036600319011261030b57610d186120bd565b6066546001600160a01b039190610d3290831633146124ff565b60cc8054919092166001600160a01b0319909116179055005b3461030b57604036600319011261030b57610d71610d676120bd565b602435903361217a565b602060405160018152f35b3461030b57602036600319011261030b57610d956120e9565b606654336001600160a01b0391821614159081610df0575b81610de1575b50610dcf5760ff80196098541691151516176098556000604051f35b604051631b6a6b5b60e11b8152600490fd5b905060cc541633141582610db3565b80915060ce541633141590610dad565b3461030b57604036600319011261030b57610e196120bd565b60243590336000526034602052604060002060018060a01b03821660005260205260406000205491808310610e5457610d71920390336122df565b60405162461bcd60e51b815260206004820152602560248201527f45524332303a2064656372656173656420616c6c6f77616e63652062656c6f77604482015264207a65726f60d81b6064820152608490fd5b3461030b57600036600319011261030b57602060d154604051908152f35b3461030b57600036600319011261030b57604051600090603754610ee8816120f8565b808352600191808316908115610f7b5750600114610f21575b610f1d83610f118187038261214d565b60405191829182612091565b0390f35b6037600090815260209450917f42a7b7dd785cd69714a189dffb3fd7d7174edc9ece837694ce50f7078f7c31ae5b828410610f6857505050810190910190610f1181610f01565b8054858501870152928501928101610f4f565b610f1d9550610f1193506020915091849260ff191682840152151560051b8201019350610f01565b3461030b57600036600319011261030b57610fbc612794565b602060d154604051908152f35b3461030b57600036600319011261030b576066546040516001600160a01b039091168152602090f35b3461030b57600036600319011261030b5760206040517323d0cddc1ea9fcc5ca9ec6b5fc77e304bce8d4c38152f35b3461030b57600036600319011261030b57602060cf54604051908152f35b3461030b57600036600319011261030b576066546000906001600160a01b0381169061106c3383146124ff565b82604051927f8be0079c531659141344cd1fd0a4f28419497f9722a3daafe3b4186f6b6457e08285a36001600160a01b031916606655f35b3461030b57602036600319011261030b576001600160a01b036110c56120bd565b1660005260336020526020604060002054604051908152f35b3461030b57600036600319011261030b5760cc546040516001600160a01b039091168152602090f35b3461030b5760208060031936011261030b576111216120bd565b6065546001600160a01b03908116911681900361119a5781602491604051928380926370a0823160e01b82523060048301525afa9081156103175760009161116d575b50604051908152f35b90508181813d8311611193575b611184818361214d565b8101031261030b575182611164565b503d61117a565b60405162461bcd60e51b81526004810183905260096024820152686f6e6c79207573646360b81b6044820152606490fd5b3461030b57608036600319011261030b576001600160a01b036004358181169081900361030b576111fa6120d3565b90604435606435926001600160401b039485851161030b573660238601121561030b57846004013595861161030b57366024878701011161030b57821561155857611245838361285e565b911693604051906370a0823160e01b9081835230600484015260209788846024818b5afa93841561031757600094611529575b5060405163a9059cbb60e01b81526001600160a01b03881660048201526024810187905291898360448160008d5af192831561031757898b9360c49260249661150c575b508060405196879586946323e30c8b60e01b8652336004870152828601528c60448601528b606486015260a060848601528260a486015201848401376000838284010152601f8019910116810103018160008a5af18015610317576000906114bf575b7f439148f0bbc682ca079e46d6e2c2f0c1e3b820f1a291b069d8882abf8cf18dd991500361147e57611351838561216e565b604051906323b872dd60e01b82528660048301523060248301526044820152878160648160008b5af1801561031757611461575b506040519081523060048201528681602481895afa90811561031757839060009261142f575b506113b6919261216e565b116113f457604051918252848201527f2640247c2a780a1283695dd939b212be6c2e62a7182ef366efa28aa696f23d4c60403092a460405160018152f35b60405162461bcd60e51b81526004810186905260136024820152724e6f7420656e6f75676820706179206261636b60681b6044820152606490fd5b809250888092503d831161145a575b611448818361214d565b8101031261030b5751826113b66113ab565b503d61143e565b61147790883d8a1161093857610929818361214d565b5087611385565b60405162461bcd60e51b815260048101889052601960248201527812515490cccc4d4d8e8810d85b1b189858dac819985a5b1959603a1b6044820152606490fd5b508781813d8311611505575b6114d5818361214d565b8101031261030b577f439148f0bbc682ca079e46d6e2c2f0c1e3b820f1a291b069d8882abf8cf18dd9905161131f565b503d6114cb565b61152290863d881161093857610929818361214d565b508d6112bc565b9093508881813d8311611551575b611541818361214d565b8101031261030b57519289611278565b503d611537565b60405162461bcd60e51b815260206004820152600b60248201526a16995c9bc8185b5bdd5b9d60aa1b6044820152606490fd5b3461030b57600036600319011261030b57602060ff609854166040519015158152f35b3461030b57600036600319011261030b576020610ac2612622565b3461030b57604036600319011261030b576115e26120bd565b6115ea6120d3565b60005460ff8160081c161590818092611a54575b8015611a3d575b156119e15760ff198116600117600055816119cf575b506040519261162984612132565b600e84526d141c9bdd1958dd1a5bdb941bdbdb60921b60208501526040519361165185612132565b6006855265050524f2d4c560d41b602086015261167e60ff60005460081c16611679816123e1565b6123e1565b8051906001600160401b0382116118df57819061169c6036546120f8565b601f8111611974575b50602090601f8311600114611900576000926118f5575b50508160011b916000199060031b1c1916176036555b83516001600160401b0381116118df576116ed6037546120f8565b601f811161187a575b50602094601f821160011461181257948192939495600092611807575b50508160011b916000199060031b1c1916176037555b60ff60005460081c169061173c826123e1565b606580546001600160a01b03199081167323d0cddc1ea9fcc5ca9ec6b5fc77e304bce8d4c3179091559161177390611679816123e1565b61177c336128bf565b600054936117ab60ff8660081c16611793816123e1565b61179c816123e1565b60ff19609854166098556123e1565b60018060a01b038092168360ca54161760ca55169060cb54161760cb554260cf556117d257005b61ff0019166000557f7f26b83ff96e1f2b6a682f133852f6798a09c465da95921460cefb3847402498602060405160018152a1005b015190508580611713565b601f19821695603760005260206000209160005b88811061186257508360019596979810611849575b505050811b01603755611729565b015160001960f88460031b161c1916905585808061183b565b91926020600181928685015181550194019201611826565b60376000527f42a7b7dd785cd69714a189dffb3fd7d7174edc9ece837694ce50f7078f7c31ae601f830160051c810191602084106118d5575b601f0160051c01905b8181106118c957506116f6565b600081556001016118bc565b90915081906118b3565b634e487b7160e01b600052604160045260246000fd5b0151905086806116bc565b603660009081526000805160206129088339815191529350601f198516905b81811061195c5750908460019594939210611943575b505050811b016036556116d2565b015160001960f88460031b161c19169055868080611935565b9293602060018192878601518155019501930161191f565b6036600052909150600080516020612908833981519152601f840160051c8101602085106119c8575b90849392915b601f830160051c820181106119b95750506116a5565b600081558594506001016119a3565b508061199d565b61ffff1916610101176000558361161b565b60405162461bcd60e51b815260206004820152602e60248201527f496e697469616c697a61626c653a20636f6e747261637420697320616c72656160448201526d191e481a5b9a5d1a585b1a5e995960921b6064820152608490fd5b50303b1580156116055750600160ff821614611605565b50600160ff8216106115fe565b3461030b57602036600319011261030b5761041760043561257d565b3461030b57604036600319011261030b57600435611a996120d3565b60cd5490916001600160a01b039182163303611bad57611ab7612794565b611acc611ac382612538565b60d15490612552565b9183168015611b68577fe198de8e85cdfd7f4510617c4cd12de7263b31eef6cb83924c620d8a080144a993610c1891611b078560355461216e565b6035558060005260336020526040600020611b2386825461216e565b905560006000805160206129288339815191526020604051888152a36040805193845260208401949094526001600160a01b0316928201929092529081906060820190565b60405162461bcd60e51b815260206004820152601f60248201527f45524332303a206d696e7420746f20746865207a65726f2061646472657373006044820152606490fd5b6040516311bee39d60e31b8152600490fd5b3461030b57604036600319011261030b57610d71611bdb6120bd565b336000526034602052604060002060018060a01b038216600052602052611c0960243560406000205461216e565b90336122df565b3461030b57600036600319011261030b57602060405160068152f35b3461030b57602036600319011261030b57611c456120bd565b6066546001600160a01b039190611c5f90831633146124ff565b60cd8054919092166001600160a01b0319909116179055005b3461030b57606036600319011261030b57611c916120bd565b611c996120d3565b6044359060018060a01b0383166000526034602052604060002033600052602052604060002054926000198403611cd5575b610d71935061217a565b828410611cf157611cec83610d71950333836122df565b611ccb565b60405162461bcd60e51b815260206004820152601d60248201527f45524332303a20696e73756666696369656e7420616c6c6f77616e63650000006044820152606490fd5b3461030b57600036600319011261030b5760cd546001600160a01b03163303611bad57610417612794565b3461030b57600036600319011261030b5760cc54604051639e3079cb60e01b81526020916000916001600160a01b03918216908481600481855afa90811561031757600091611ee0575b5060005b818110611dc0578585604051908152f35b600119811161034b576001016040516315895f4760e31b815281600482015260246000828281885afa9182156103175786928991600091611ec0575b50604051634124974560e01b815293166004840181905291839081885afa8015610317578892600091611ea3575b50611e37575b5050611daf565b604051636835185f60e11b815292969190839060049082905afa90811561031757600091611e72575b611e6a925061216e565b938587611e30565b90508682813d8311611e9c575b611e89818361214d565b8101031261030b57611e6a915190611e60565b503d611e7f565b611eba9150833d851161093857610929818361214d565b89611e2a565b611ed591503d806000833e610338818361214d565b50505090508a611dfc565b90508481813d8311611f06575b611ef7818361214d565b8101031261030b575185611dab565b503d611eed565b3461030b57600036600319011261030b576020603554604051908152f35b3461030b57600036600319011261030b5760ce546040516001600160a01b039091168152602090f35b3461030b57604036600319011261030b57611f6d6120e9565b60cd5460243591906001600160a01b03163303611bad5715611f9a57611f959060d25461216e565b60d255005b611f959060d254612572565b3461030b57604036600319011261030b57610d71611fc26120bd565b60243590336122df565b3461030b57600036600319011261030b57600090603654611fec816120f8565b808352600191808316908115610f7b575060011461201457610f1d83610f118187038261214d565b6036600090815260209450916000805160206129088339815191525b82841061204957505050810190910190610f1181610f01565b8054858501870152928501928101612030565b918091926000905b82821061207c575011612075575050565b6000910152565b91508060209183015181860152018291612064565b604091602082526120b1815180928160208601526020868601910161205c565b601f01601f1916010190565b600435906001600160a01b038216820361030b57565b602435906001600160a01b038216820361030b57565b60043590811515820361030b57565b90600182811c92168015612128575b602083101461211257565b634e487b7160e01b600052602260045260246000fd5b91607f1691612107565b604081019081106001600160401b038211176118df57604052565b90601f801991011681019081106001600160401b038211176118df57604052565b8119811161034b570190565b6001600160a01b0390811691821561228c571691821561223b57600082815260336020526040812054918083106121e75760408282600080516020612928833981519152958760209652603386520382822055868152206121dc82825461216e565b9055604051908152a3565b60405162461bcd60e51b815260206004820152602660248201527f45524332303a207472616e7366657220616d6f756e7420657863656564732062604482015265616c616e636560d01b6064820152608490fd5b60405162461bcd60e51b815260206004820152602360248201527f45524332303a207472616e7366657220746f20746865207a65726f206164647260448201526265737360e81b6064820152608490fd5b60405162461bcd60e51b815260206004820152602560248201527f45524332303a207472616e736665722066726f6d20746865207a65726f206164604482015264647265737360d81b6064820152608490fd5b6001600160a01b0390811691821561239057169182156123405760207f8c5be1e5ebec7d5bd14f71427d1e84f3dd0314c0f7b2291e5b200ac8c7c3b925918360005260348252604060002085600052825280604060002055604051908152a3565b60405162461bcd60e51b815260206004820152602260248201527f45524332303a20617070726f766520746f20746865207a65726f206164647265604482015261737360f01b6064820152608490fd5b60405162461bcd60e51b8152602060048201526024808201527f45524332303a20617070726f76652066726f6d20746865207a65726f206164646044820152637265737360e01b6064820152608490fd5b156123e857565b60405162461bcd60e51b815260206004820152602b60248201527f496e697469616c697a61626c653a20636f6e7472616374206973206e6f74206960448201526a6e697469616c697a696e6760a81b6064820152608490fd5b51906001600160a01b038216820361030b57565b9060a08282031261030b5781516001600160401b039081811161030b5783019082601f8301121561030b5781519081116118df57604051926124a1601f8301601f19166020018561214d565b8184526020828401011161030b576124bf916020808501910161205c565b916124cc60208301612441565b916124d960408201612441565b916080606083015192015190565b9081602091031261030b5751801515810361030b5790565b1561250657565b60405162461bcd60e51b815260206004820152600a60248201526927b7363c9037bbb732b960b11b6044820152606490fd5b64e8d4a5100090806000190482118115151661034b570290565b811561255c570490565b634e487b7160e01b600052601260045260246000fd5b81811061034b570390565b612585612622565b6040516370a0823160e01b815230600482015291906020836024817323d0cddc1ea9fcc5ca9ec6b5fc77e304bce8d4c35afa928315610317576000936125ea575b50906125d19161216e565b116125d857565b60405163ed9d9d3360e01b8152600490fd5b90926020823d821161261a575b816126046020938361214d565b81010312612617575051916125d16125c6565b80fd5b3d91506125f7565b60cc5460408051639e3079cb60e01b8152600093926001600160a01b039081169291859190602090600490828183818a5afa90811561278a578591612759575b50845b818110612676575050505050505050565b6001198111612746576001019886516315895f4760e31b81528a8482015286816024818c5afa90811561271d5786929186918991612727575b50858a5180958193631341449360e21b8352165afa91821561271d5787926126ea575b50808211156126e357505b98612665565b90506126dd565b9091508481813d8311612716575b612702818361214d565b81010312612712575190386126d2565b8680fd5b503d6126f8565b88513d89823e3d90fd5b61273b91503d808b833e610338818361214d565b5050509050386126af565b634e487b7160e01b865260118352602486fd5b90508281813d8311612783575b612770818361214d565b8101031261277f575138612662565b8480fd5b503d612766565b86513d87823e3d90fd5b6035548015612852576040516370a0823160e01b81523060048201526020816024817323d0cddc1ea9fcc5ca9ec6b5fc77e304bce8d4c35afa9081156103175760009161281f575b506128127f66cbca4f3c64fecf1dcb9ce094abcf7f68c3450a1d4e3a8e917dd621edb4ebe09261280d602093612538565b612552565b8060d155604051908152a1565b906020823d821161284a575b816128386020938361214d565b810103126126175750516128126127dc565b3d915061282b565b5064e8d4a5100060d155565b6065546001600160a01b0390811691160361288e578060001904600a118115151661034b57600a61271091020490565b60405162461bcd60e51b81526020600482015260096024820152684f6e6c79207573646360b81b6044820152606490fd5b60665460018060a01b03809216809282167f8be0079c531659141344cd1fd0a4f28419497f9722a3daafe3b4186f6b6457e06000604051a36001600160a01b0319161760665556fe4a11f94e20a93c79f6ec743a1954ec4fc2c08429ae2122118bf234b2185c81b8ddf252ad1be2c89b69c2b068fc378daa952ba7f163c4a11628f55a4df523b3efa2646970667358221220421eaa452a07e8dc3679938b78ef75b5012ae135287fa5ee9150650c5d5fa05d64736f6c634300080f0033",
  "devdoc": {
    "author": "Eric Lee (ylikp.ust@gmail.com) & Primata (primata@375labs.org)",
    "kind": "dev",
    "methods": {
      "allowance(address,address)": {
        "details": "See {IERC20-allowance}."
      },
      "approve(address,uint256)": {
        "details": "See {IERC20-approve}. NOTE: If `amount` is the maximum `uint256`, the allowance is not updated on `transferFrom`. This is semantically equivalent to an infinite approval. Requirements: - `spender` cannot be the zero address."
      },
      "balanceOf(address)": {
        "details": "See {IERC20-balanceOf}."
      },
      "decimals()": {
        "details": "Returns the number of decimals used to get its user representation. For example, if `decimals` equals `2`, a balance of `505` tokens should be displayed to a user as `5.05` (`505 / 10 ** 2`). Tokens usually opt for a value of 18, imitating the relationship between Ether and Wei. This is the value {ERC20} uses, unless this function is overridden; NOTE: This information is only used for _display_ purposes: it in no way affects any of the arithmetic of the contract, including {IERC20-balanceOf} and {IERC20-transfer}."
      },
      "decreaseAllowance(address,uint256)": {
        "details": "Atomically decreases the allowance granted to `spender` by the caller. This is an alternative to {approve} that can be used as a mitigation for problems described in {IERC20-approve}. Emits an {Approval} event indicating the updated allowance. Requirements: - `spender` cannot be the zero address. - `spender` must have allowance for the caller of at least `subtractedValue`."
      },
      "getTotalActiveCovered()": {
        "returns": {
          "activeCovered": "Covered amount"
        }
      },
      "increaseAllowance(address,uint256)": {
        "details": "Atomically increases the allowance granted to `spender` by the caller. This is an alternative to {approve} that can be used as a mitigation for problems described in {IERC20-approve}. Emits an {Approval} event indicating the updated allowance. Requirements: - `spender` cannot be the zero address."
      },
      "name()": {
        "details": "Returns the name of the token."
      },
      "owner()": {
        "details": "Returns the address of the current owner."
      },
      "pauseProtectionPool(bool)": {
        "params": {
          "_paused": "True for pause, false for unpause"
        }
      },
      "providedLiquidity(uint256,address)": {
        "params": {
          "_amount": "Liquidity amount (usdc)",
          "_provider": "Provider address"
        }
      },
      "removedLiquidity(uint256,address)": {
        "params": {
          "_amount": "Liquidity to remove (LP token amount)",
          "_provider": "Provider address"
        }
      },
      "removedLiquidityWhenClaimed(uint256,address)": {
        "params": {
          "_amount": "Amount of liquidity to remove",
          "_to": "Address to transfer the liquidity to"
        }
      },
      "renounceOwnership()": {
        "details": "Leaves the contract without owner. It will not be possible to call `onlyOwner` functions anymore. Can only be called by the current owner. NOTE: Renouncing ownership will leave the contract without an owner, thereby removing any functionality that is only available to the owner."
      },
      "symbol()": {
        "details": "Returns the symbol of the token, usually a shorter version of the name."
      },
      "totalSupply()": {
        "details": "See {IERC20-totalSupply}."
      },
      "transfer(address,uint256)": {
        "details": "See {IERC20-transfer}. Requirements: - `to` cannot be the zero address. - the caller must have a balance of at least `amount`."
      },
      "transferFrom(address,address,uint256)": {
        "details": "See {IERC20-transferFrom}. Emits an {Approval} event indicating the updated allowance. This is not required by the EIP. See the note at the beginning of {ERC20}. NOTE: Does not update the allowance if the current allowance is the maximum `uint256`. Requirements: - `from` and `to` cannot be the zero address. - `from` must have a balance of at least `amount`. - the caller must have allowance for ``from``'s tokens of at least `amount`."
      },
      "transferOwnership(address)": {
        "details": "Transfers ownership of the contract to a new account (`newOwner`). Can only be called by the current owner."
      }
    },
    "title": "Protection Pool",
    "version": 1
  },
  "userdoc": {
    "kind": "user",
    "methods": {
      "getLatestPrice()": {
        "notice": "Updates and retrieves latest price to provide liquidity to Protection Pool"
      },
      "getTotalActiveCovered()": {
        "notice": "Get total active cover amount of all pools         Only calculate those \"already dynamic\" pools"
      },
      "pauseProtectionPool(bool)": {
        "notice": "Set paused state of the protection pool         Only callable by owner, incidentReport, or priorityPoolFactory"
      },
      "providedLiquidity(uint256,address)": {
        "notice": "Finish providing liquidity         Only callable through policyCenter"
      },
      "removedLiquidity(uint256,address)": {
        "notice": "Finish removing liquidity         Only callable through          1) policyCenter (by user removing liquidity)         2)          "
      },
      "removedLiquidityWhenClaimed(uint256,address)": {
        "notice": "Removes liquidity when a claim is made"
      },
      "updateIndexCut()": {
        "notice": "Update index cut when claim happened"
      },
      "updateWhenBuy()": {
        "notice": "Update when new cover is bought"
      }
    },
    "notice": "This is the protection pool contract for Degis Protocol Protection         Users can provide liquidity to protection pool and get PRO-LP token         If the priority pool is unable to fulfil the cover amount,         Protection Pool will be able to provide the remaining part",
    "version": 1
  },
  "storageLayout": {
    "storage": [
      {
        "astId": 184,
        "contract": "src/pools/protectionPool/ProtectionPool.sol:ProtectionPool",
        "label": "_initialized",
        "offset": 0,
        "slot": "0",
        "type": "t_uint8"
      },
      {
        "astId": 187,
        "contract": "src/pools/protectionPool/ProtectionPool.sol:ProtectionPool",
        "label": "_initializing",
        "offset": 1,
        "slot": "0",
        "type": "t_bool"
      },
      {
        "astId": 1326,
        "contract": "src/pools/protectionPool/ProtectionPool.sol:ProtectionPool",
        "label": "__gap",
        "offset": 0,
        "slot": "1",
        "type": "t_array(t_uint256)50_storage"
      },
      {
        "astId": 347,
        "contract": "src/pools/protectionPool/ProtectionPool.sol:ProtectionPool",
        "label": "_balances",
        "offset": 0,
        "slot": "51",
        "type": "t_mapping(t_address,t_uint256)"
      },
      {
        "astId": 353,
        "contract": "src/pools/protectionPool/ProtectionPool.sol:ProtectionPool",
        "label": "_allowances",
        "offset": 0,
        "slot": "52",
        "type": "t_mapping(t_address,t_mapping(t_address,t_uint256))"
      },
      {
        "astId": 355,
        "contract": "src/pools/protectionPool/ProtectionPool.sol:ProtectionPool",
        "label": "_totalSupply",
        "offset": 0,
        "slot": "53",
        "type": "t_uint256"
      },
      {
        "astId": 357,
        "contract": "src/pools/protectionPool/ProtectionPool.sol:ProtectionPool",
        "label": "_name",
        "offset": 0,
        "slot": "54",
        "type": "t_string_storage"
      },
      {
        "astId": 359,
        "contract": "src/pools/protectionPool/ProtectionPool.sol:ProtectionPool",
        "label": "_symbol",
        "offset": 0,
        "slot": "55",
        "type": "t_string_storage"
      },
      {
        "astId": 938,
        "contract": "src/pools/protectionPool/ProtectionPool.sol:ProtectionPool",
        "label": "__gap",
        "offset": 0,
        "slot": "56",
        "type": "t_array(t_uint256)45_storage"
      },
      {
        "astId": 17417,
        "contract": "src/pools/protectionPool/ProtectionPool.sol:ProtectionPool",
        "label": "token",
        "offset": 0,
        "slot": "101",
        "type": "t_address"
      },
      {
        "astId": 17723,
        "contract": "src/pools/protectionPool/ProtectionPool.sol:ProtectionPool",
        "label": "_owner",
        "offset": 0,
        "slot": "102",
        "type": "t_address"
      },
      {
        "astId": 17830,
        "contract": "src/pools/protectionPool/ProtectionPool.sol:ProtectionPool",
        "label": "__gap",
        "offset": 0,
        "slot": "103",
        "type": "t_array(t_uint256)49_storage"
      },
      {
        "astId": 17872,
        "contract": "src/pools/protectionPool/ProtectionPool.sol:ProtectionPool",
        "label": "_paused",
        "offset": 0,
        "slot": "152",
        "type": "t_bool"
      },
      {
        "astId": 17926,
        "contract": "src/pools/protectionPool/ProtectionPool.sol:ProtectionPool",
        "label": "__gap",
        "offset": 0,
        "slot": "153",
        "type": "t_array(t_uint256)49_storage"
      },
      {
        "astId": 6175,
        "contract": "src/pools/protectionPool/ProtectionPool.sol:ProtectionPool",
        "label": "deg",
        "offset": 0,
        "slot": "202",
        "type": "t_contract(IDegisToken)6291"
      },
      {
        "astId": 6178,
        "contract": "src/pools/protectionPool/ProtectionPool.sol:ProtectionPool",
        "label": "veDeg",
        "offset": 0,
        "slot": "203",
        "type": "t_contract(IVeDEG)7455"
      },
      {
        "astId": 14348,
        "contract": "src/pools/protectionPool/ProtectionPool.sol:ProtectionPool",
        "label": "priorityPoolFactory",
        "offset": 0,
        "slot": "204",
        "type": "t_address"
      },
      {
        "astId": 14350,
        "contract": "src/pools/protectionPool/ProtectionPool.sol:ProtectionPool",
        "label": "policyCenter",
        "offset": 0,
        "slot": "205",
        "type": "t_address"
      },
      {
        "astId": 14352,
        "contract": "src/pools/protectionPool/ProtectionPool.sol:ProtectionPool",
        "label": "incidentReport",
        "offset": 0,
        "slot": "206",
        "type": "t_address"
      },
      {
        "astId": 13614,
        "contract": "src/pools/protectionPool/ProtectionPool.sol:ProtectionPool",
        "label": "startTime",
        "offset": 0,
        "slot": "207",
        "type": "t_uint256"
      },
      {
        "astId": 13616,
        "contract": "src/pools/protectionPool/ProtectionPool.sol:ProtectionPool",
        "label": "lastRewardTimestamp",
        "offset": 0,
        "slot": "208",
        "type": "t_uint256"
      },
      {
        "astId": 13618,
        "contract": "src/pools/protectionPool/ProtectionPool.sol:ProtectionPool",
        "label": "price",
        "offset": 0,
        "slot": "209",
        "type": "t_uint256"
      },
      {
        "astId": 13620,
        "contract": "src/pools/protectionPool/ProtectionPool.sol:ProtectionPool",
        "label": "stakedSupply",
        "offset": 0,
        "slot": "210",
        "type": "t_uint256"
      },
      {
        "astId": 13626,
        "contract": "src/pools/protectionPool/ProtectionPool.sol:ProtectionPool",
        "label": "rewardSpeed",
        "offset": 0,
        "slot": "211",
        "type": "t_mapping(t_uint256,t_mapping(t_uint256,t_uint256))"
      }
    ],
    "types": {
      "t_address": {
        "encoding": "inplace",
        "label": "address",
        "numberOfBytes": "20"
      },
      "t_array(t_uint256)45_storage": {
        "base": "t_uint256",
        "encoding": "inplace",
        "label": "uint256[45]",
        "numberOfBytes": "1440"
      },
      "t_array(t_uint256)49_storage": {
        "base": "t_uint256",
        "encoding": "inplace",
        "label": "uint256[49]",
        "numberOfBytes": "1568"
      },
      "t_array(t_uint256)50_storage": {
        "base": "t_uint256",
        "encoding": "inplace",
        "label": "uint256[50]",
        "numberOfBytes": "1600"
      },
      "t_bool": {
        "encoding": "inplace",
        "label": "bool",
        "numberOfBytes": "1"
      },
      "t_contract(IDegisToken)6291": {
        "encoding": "inplace",
        "label": "contract IDegisToken",
        "numberOfBytes": "20"
      },
      "t_contract(IVeDEG)7455": {
        "encoding": "inplace",
        "label": "contract IVeDEG",
        "numberOfBytes": "20"
      },
      "t_mapping(t_address,t_mapping(t_address,t_uint256))": {
        "encoding": "mapping",
        "key": "t_address",
        "label": "mapping(address => mapping(address => uint256))",
        "numberOfBytes": "32",
        "value": "t_mapping(t_address,t_uint256)"
      },
      "t_mapping(t_address,t_uint256)": {
        "encoding": "mapping",
        "key": "t_address",
        "label": "mapping(address => uint256)",
        "numberOfBytes": "32",
        "value": "t_uint256"
      },
      "t_mapping(t_uint256,t_mapping(t_uint256,t_uint256))": {
        "encoding": "mapping",
        "key": "t_uint256",
        "label": "mapping(uint256 => mapping(uint256 => uint256))",
        "numberOfBytes": "32",
        "value": "t_mapping(t_uint256,t_uint256)"
      },
      "t_mapping(t_uint256,t_uint256)": {
        "encoding": "mapping",
        "key": "t_uint256",
        "label": "mapping(uint256 => uint256)",
        "numberOfBytes": "32",
        "value": "t_uint256"
      },
      "t_string_storage": {
        "encoding": "bytes",
        "label": "string",
        "numberOfBytes": "32"
      },
      "t_uint256": {
        "encoding": "inplace",
        "label": "uint256",
        "numberOfBytes": "32"
      },
      "t_uint8": {
        "encoding": "inplace",
        "label": "uint8",
        "numberOfBytes": "1"
      }
    }
  }
}