{
  "address": "0x31943943f23d357379d166E3d475F8A00D14FF0e",
  "abi": [
    {
      "anonymous": false,
      "inputs": [
        {
          "indexed": false,
          "internalType": "uint8",
          "name": "version",
          "type": "uint8"
        }
      ],
      "name": "Initialized",
      "type": "event"
    },
    {
      "anonymous": false,
      "inputs": [
        {
          "indexed": true,
          "internalType": "address",
          "name": "previousOwner",
          "type": "address"
        },
        {
          "indexed": true,
          "internalType": "address",
          "name": "newOwner",
          "type": "address"
        }
      ],
      "name": "OwnershipTransferred",
      "type": "event"
    },
    {
      "inputs": [],
      "name": "ARB",
      "outputs": [
        {
          "internalType": "address",
          "name": "",
          "type": "address"
        }
      ],
      "stateMutability": "view",
      "type": "function"
    },
    {
      "inputs": [],
      "name": "ARB_WETH_FEE",
      "outputs": [
        {
          "internalType": "uint24",
          "name": "",
          "type": "uint24"
        }
      ],
      "stateMutability": "view",
      "type": "function"
    },
    {
      "inputs": [],
      "name": "CAMELOT_ROUTER",
      "outputs": [
        {
          "internalType": "address",
          "name": "",
          "type": "address"
        }
      ],
      "stateMutability": "view",
      "type": "function"
    },
    {
      "inputs": [],
      "name": "GMX",
      "outputs": [
        {
          "internalType": "address",
          "name": "",
          "type": "address"
        }
      ],
      "stateMutability": "view",
      "type": "function"
    },
    {
      "inputs": [],
      "name": "GMX_WETH_FEE",
      "outputs": [
        {
          "internalType": "uint24",
          "name": "",
          "type": "uint24"
        }
      ],
      "stateMutability": "view",
      "type": "function"
    },
    {
      "inputs": [],
      "name": "GNS",
      "outputs": [
        {
          "internalType": "address",
          "name": "",
          "type": "address"
        }
      ],
      "stateMutability": "view",
      "type": "function"
    },
    {
      "inputs": [],
      "name": "GNS_WETH_FEE",
      "outputs": [
        {
          "internalType": "uint24",
          "name": "",
          "type": "uint24"
        }
      ],
      "stateMutability": "view",
      "type": "function"
    },
    {
      "inputs": [],
      "name": "JOE",
      "outputs": [
        {
          "internalType": "address",
          "name": "",
          "type": "address"
        }
      ],
      "stateMutability": "view",
      "type": "function"
    },
    {
      "inputs": [],
      "name": "JOEV21_ROUTER",
      "outputs": [
        {
          "internalType": "address",
          "name": "",
          "type": "address"
        }
      ],
      "stateMutability": "view",
      "type": "function"
    },
    {
      "inputs": [],
      "name": "LDO",
      "outputs": [
        {
          "internalType": "address",
          "name": "",
          "type": "address"
        }
      ],
      "stateMutability": "view",
      "type": "function"
    },
    {
      "inputs": [],
      "name": "LDO_WETH_FEE",
      "outputs": [
        {
          "internalType": "uint24",
          "name": "",
          "type": "uint24"
        }
      ],
      "stateMutability": "view",
      "type": "function"
    },
    {
      "inputs": [],
      "name": "UNIV3_ROUTER",
      "outputs": [
        {
          "internalType": "address",
          "name": "",
          "type": "address"
        }
      ],
      "stateMutability": "view",
      "type": "function"
    },
    {
      "inputs": [],
      "name": "USDC",
      "outputs": [
        {
          "internalType": "address",
          "name": "",
          "type": "address"
        }
      ],
      "stateMutability": "view",
      "type": "function"
    },
    {
      "inputs": [],
      "name": "USDT",
      "outputs": [
        {
          "internalType": "address",
          "name": "",
          "type": "address"
        }
      ],
      "stateMutability": "view",
      "type": "function"
    },
    {
      "inputs": [],
      "name": "WETH",
      "outputs": [
        {
          "internalType": "address",
          "name": "",
          "type": "address"
        }
      ],
      "stateMutability": "view",
      "type": "function"
    },
    {
      "inputs": [],
      "name": "WETH_USDC_FEE",
      "outputs": [
        {
          "internalType": "uint24",
          "name": "",
          "type": "uint24"
        }
      ],
      "stateMutability": "view",
      "type": "function"
    },
    {
      "inputs": [],
      "name": "WETH_USDT_FEE",
      "outputs": [
        {
          "internalType": "uint24",
          "name": "",
          "type": "uint24"
        }
      ],
      "stateMutability": "view",
      "type": "function"
    },
    {
      "inputs": [],
      "name": "WOM",
      "outputs": [
        {
          "internalType": "address",
          "name": "",
          "type": "address"
        }
      ],
      "stateMutability": "view",
      "type": "function"
    },
    {
      "inputs": [],
      "name": "WOM_USDT_FEE",
      "outputs": [
        {
          "internalType": "uint24",
          "name": "",
          "type": "uint24"
        }
      ],
      "stateMutability": "view",
      "type": "function"
    },
    {
      "inputs": [
        {
          "internalType": "address",
          "name": "_token",
          "type": "address"
        }
      ],
      "name": "getUniV3Path",
      "outputs": [
        {
          "internalType": "bytes",
          "name": "path",
          "type": "bytes"
        }
      ],
      "stateMutability": "pure",
      "type": "function"
    },
    {
      "inputs": [],
      "name": "initialize",
      "outputs": [],
      "stateMutability": "nonpayable",
      "type": "function"
    },
    {
      "inputs": [],
      "name": "owner",
      "outputs": [
        {
          "internalType": "address",
          "name": "",
          "type": "address"
        }
      ],
      "stateMutability": "view",
      "type": "function"
    },
    {
      "inputs": [
        {
          "internalType": "address",
          "name": "",
          "type": "address"
        }
      ],
      "name": "poolFees",
      "outputs": [
        {
          "internalType": "uint256",
          "name": "",
          "type": "uint256"
        }
      ],
      "stateMutability": "view",
      "type": "function"
    },
    {
      "inputs": [],
      "name": "renounceOwnership",
      "outputs": [],
      "stateMutability": "nonpayable",
      "type": "function"
    },
    {
      "inputs": [
        {
          "internalType": "address",
          "name": "",
          "type": "address"
        }
      ],
      "name": "routerTypes",
      "outputs": [
        {
          "internalType": "uint256",
          "name": "",
          "type": "uint256"
        }
      ],
      "stateMutability": "view",
      "type": "function"
    },
    {
      "inputs": [
        {
          "internalType": "address",
          "name": "_token",
          "type": "address"
        },
        {
          "internalType": "uint256",
          "name": "_type",
          "type": "uint256"
        }
      ],
      "name": "setRouterType",
      "outputs": [],
      "stateMutability": "nonpayable",
      "type": "function"
    },
    {
      "inputs": [
        {
          "internalType": "address",
          "name": "_token",
          "type": "address"
        },
        {
          "internalType": "uint256",
          "name": "_amount",
          "type": "uint256"
        }
      ],
      "name": "swap",
      "outputs": [
        {
          "internalType": "uint256",
          "name": "",
          "type": "uint256"
        }
      ],
      "stateMutability": "nonpayable",
      "type": "function"
    },
    {
      "inputs": [
        {
          "internalType": "address",
          "name": "newOwner",
          "type": "address"
        }
      ],
      "name": "transferOwnership",
      "outputs": [],
      "stateMutability": "nonpayable",
      "type": "function"
    }
  ],
  "transactionHash": "0xc3851677ecd959f49f797c03f177633773010d2ece1fd2619660740559d49447",
  "args": [],
  "numDeployments": 7,
  "solcInputHash": "4cb2e6af1d192fab52634a0252889f9a",
  "bytecode": "0x60808060405234610016576116c4908161001c8239f35b600080fdfe608060408181526004361015610015575b600080fd5b600091823560e01c908163114ab6fd1461079157508063136a80471461039c57806313b44de0146102cf5780631a9bef411461039c57806325bc368e1461075a5780633b58e0381461072c578063438dbd32146106fe578063571715b7146106d057806364a285fd146106a25780636c57400a14610674578063715018a61461060f5780638129fc1c1461042e57806383828cd11461040057806389a30271146103d25780638da5cb5b146103a757806397dac3b61461039c578063ad5c46481461036e578063be6e916114610337578063c54e44eb14610309578063d004f0f7146102da578063d1e501f4146102cf578063d20e32e6146102cf578063d48e47b8146102cf578063d88bba11146102a1578063f1ec47611461025d578063f2fde38b146101c5578063f488581e146101885763ffebad301461015757600080fd5b346101845781600319360112610184576020905173371c7ec6d8039ff7933a2aa28eb827ffe1f52f078152f35b5080fd5b5034610184576020366003190112610184576101c1906101ae6101a96107fb565b6112b8565b9051918291602083526020830190610811565b0390f35b5034610184576020366003190112610184576101df6107fb565b60018060a01b036101f781855460101c163314610862565b81161561020a576102079061162e565b51f35b815162461bcd60e51b815260206004820152602660248201527f4f776e61626c653a206e6577206f776e657220697320746865207a65726f206160448201526564647265737360d01b6064820152608490fd5b50346101845780600319360112610184576102766107fb565b60018060a01b039061028f82855460101c163314610862565b16825260326020526024358183205551f35b5034610184578160031936011261018457602090517313ad51ed4f1b7e9dc168d8a00cb3f4ddd85efa608152f35b5050506100106107dd565b50346101845780600319360112610184576020906103026102f96107fb565b602435906108c1565b9051908152f35b50346101845781600319360112610184576020905173fd086bc7cd5c481dcc9c85ebe478a1c0b69fcbb98152f35b50346101845760203660031901126101845760209181906001600160a01b0361035e6107fb565b1681526033845220549051908152f35b5034610184578160031936011261018457602090517382af49447d8a07e3bd95bd0d56f35241523fbab18152f35b5050506100106107bf565b50346101845781600319360112610184579054905160109190911c6001600160a01b03168152602090f35b50346101845781600319360112610184576020905173af88d065e77c8cc2239327c5edb3a432268e58318152f35b503461018457816003193601126101845760209051737b5eb3940021ec0e8e463d5dbb4b7b09a89ddf968152f35b5034610184578160031936011261018457815460ff8160081c1615808091610602575b80156105eb575b1561059057600191818360ff19831617865561057f575b5061048960ff855460081c16610484816115ce565b6115ce565b6104923361162e565b73fc5a1a6eb076a2c7ad06ed22c90d7e710e35ad0a8452603260205281838520557318c11fd286c5ec11c3b683caa813b77f5163a122845281838520557313ad51ed4f1b7e9dc168d8a00cb3f4ddd85efa608452818385205573912ce59144191c1204e64559fe8253a0e49e65488452818385205573371c7ec6d8039ff7933a2aa28eb827ffe1f52f078452600283852055737b5eb3940021ec0e8e463d5dbb4b7b09a89ddf968452600383852055610549575051f35b60207f7f26b83ff96e1f2b6a682f133852f6798a09c465da95921460cefb38474024989161ff001985541685558351908152a151f35b61ffff19166101011784553861046f565b825162461bcd60e51b815260206004820152602e60248201527f496e697469616c697a61626c653a20636f6e747261637420697320616c72656160448201526d191e481a5b9a5d1a585b1a5e995960921b6064820152608490fd5b50303b1580156104585750600160ff831614610458565b50600160ff831610610451565b50346101845781600319360112610184578154601081901c6001600160a01b031691839061063e338514610862565b51927f8be0079c531659141344cd1fd0a4f28419497f9722a3daafe3b4186f6b6457e08285a362010000600160b01b0319168255f35b5034610184578160031936011261018457602090517318c11fd286c5ec11c3b683caa813b77f5163a1228152f35b50346101845781600319360112610184576020905173912ce59144191c1204e64559fe8253a0e49e65488152f35b50346101845781600319360112610184576020905173e592427a0aece92de3edee1f18e0157c058615648152f35b50346101845781600319360112610184576020905173fc5a1a6eb076a2c7ad06ed22c90d7e710e35ad0a8152f35b50346101845781600319360112610184576020905173c873fecbd354f5a56e00e710b90ef4201db2448d8152f35b50346101845760203660031901126101845760209181906001600160a01b036107816107fb565b1681526032845220549051908152f35b8390346101845781600319360112610184578073b4315e873dbcf96ffd0acd8ea43f689d8c20fb3060209252f35b50346100105760003660031901126100105760206040516101f48152f35b5034610010576000366003190112610010576020604051610bb88152f35b600435906001600160a01b038216820361001057565b91908251928382526000905b84821061084a57509280602093941161083d575b601f01601f1916010190565b6000838284010152610831565b9060209081808285010151908286010152019061081d565b1561086957565b60405162461bcd60e51b815260206004820152600a60248201526927b7363c9037bbb732b960b11b6044820152606490fd5b60609060208152600b60208201526a2bb937b733903a37b5b2b760a91b60408201520190565b9060008060018060a01b039081851691828452602092603284526040968786205460018114600014610b0b57508751636eb1769f60e11b815230600482015273e592427a0aece92de3edee1f18e0157c058615646024820181905292908681604481855afa908115610b015791879187938491610abf575b5069d3c21bcecceda100000011610a4a575b505050610957906112b8565b87519060a0820182811067ffffffffffffffff821117610a3657869493926109c69287928c5281528581013381528b82019a428c526060830190815260808301908482528d519c8d988997889663c04b8d5960e01b88528c60048901525160a0602489015260c4880190610811565b94511660448601525160648501525160848401525160a483015203925af1948515610a2c5750936109f8575b50505090565b9091809350813d8311610a25575b610a10818361124b565b81010312610a225750513880806109f2565b80fd5b503d610a06565b51903d90823e3d90fd5b634e487b7160e01b88526041600452602488fd5b60448b518094819363095ea7b360e01b835288600484015260001960248401525af18015610ab557906109579291610a88575b85919287915061094b565b610aa790873d8911610aae575b610a9f818361124b565b81019061126d565b5038610a7d565b503d610a95565b89513d87823e3d90fd5b92809294508391503d8311610afa575b610ad9818361124b565b81010312610af657518591879169d3c21bcecceda1000000610939565b8780fd5b503d610acf565b8a513d88823e3d90fd5b60029793929150878103610ef15750875191636eb1769f60e11b83526004308185015273b4315e873dbcf96ffd0acd8ea43f689d8c20fb309460249486868201528881604481885afa8015610eac578890610eb6575b69d3c21bcecceda1000000915010610e5c575b8a5191610b80836111fd565b8a83528b368a85013773371c7ec6d8039ff7933a2aa28eb827ffe1f52f0785148015610e41576014610bb185611285565b526032610bbd856112a8565b528c5190610bca826111fd565b8c82528d368c840137610e26575b8c5193608085019c67ffffffffffffffff9d8e87821090821117610e14578f526003808752976060368e890137610c0e87611285565b527382af49447d8a07e3bd95bd0d56f35241523fbab1610c2d876112a8565b5285511115610e025773af88d065e77c8cc2239327c5edb3a432268e583160608601528d51809d6060820191821090821117610df0578e528c52898c019081528b8d019384526001194211610dde579a92889492968a9896948e519d8e996315221fd760e11b8b52858b015287838b015260a060448b01526101048a01915191606060a48c015282518091528b6101248c01930190895b818110610db257505050519360a31996878b84030160c48c01528b808751948581520196019389925b848410610d6a5750505050505051928682030160e487015286808451928381520193019184905b828210610d4957505050509083809233606483015260014201608483015203925af1948515610a2c5750936109f85750505090565b8351811685528a988d98508a96509485019490930192600190910190610d14565b9397995093999b509396995093885184811015610da0578d8281926001945201990194018e9996938d9b9995938d999793610ced565b634e487b7160e01b8d5260218352838dfd5b938d92600194979a9c9e92969d5080999b505181520196019101928b9795918f9a938e9c9a9895610cc4565b634e487b7160e01b8952601182528689fd5b634e487b7160e01b8d5260418452888dfd5b634e487b7160e01b8c5260328352878cfd5b634e487b7160e01b8e5260418552898efd5b8b610e3082611285565b528b610e3b826112a8565b52610bd8565b8c5162461bcd60e51b815280610e5881850161089b565b0390fd5b8a5163095ea7b360e01b81528281018790526000198682015288816044818b895af18015610eac57610e8f575b50610b74565b610ea590893d8b11610aae57610a9f818361124b565b5038610e89565b8c513d8a823e3d90fd5b508881813d8311610eea575b610ecc818361124b565b81010312610ee65769d3c21bcecceda10000009051610b61565b8980fd5b503d610ec2565b60039098979495919398969296146000146111e557865195636eb1769f60e11b8752600494308689015273c873fecbd354f5a56e00e710b90ef4201db2448d602498818a82015284816044818a5afa80156111a05786906111aa575b69d3c21bcecceda1000000915010611150575b895191610f6c836111fd565b8252838201958a368837610f7f83611285565b5273fd086bc7cd5c481dcc9c85ebe478a1c0b69fcbb99586610fa0846112a8565b528a516370a0823160e01b808252338a830152909c9094868e8d818c5afa9d8e1561114657889e611117575b50833b15610af6578c5163561c49dd60e11b8152808b0192909252818c0188905260c06044830152935160c48201819052909387938593909260e485019286905b8a8383106110f7575050505050838380923360648301528260848301524260a483015203925af180156110ed576110be575b50819087895180968193825233898301525afa9687156110b557508496611082575b505050848410611072575050500390565b634e487b7160e01b825260119052fd5b909180939650813d83116110ae575b61109b818361124b565b81010312610a2257505192388080611061565b503d611091565b513d86823e3d90fd5b90955067ffffffffffffffff81116110db5787528082959061103f565b634e487b7160e01b8352604185528683fd5b89513d86823e3d90fd5b8451821686528c985089975094850194939093019260019091019061100d565b909d508681813d831161113f575b61112f818361124b565b81010312610af657519c38610fcc565b503d611125565b8d513d8a823e3d90fd5b895163095ea7b360e01b81528781018290526000198a8201528481604481898b5af180156111a057611183575b50610f60565b61119990853d8711610aae57610a9f818361124b565b503861117d565b8b513d88823e3d90fd5b508481813d83116111de575b6111c0818361124b565b810103126111da5769d3c21bcecceda10000009051610f4d565b8580fd5b503d6111b6565b865162461bcd60e51b815280610e586004820161089b565b6060810190811067ffffffffffffffff82111761121957604052565b634e487b7160e01b600052604160045260246000fd5b6080810190811067ffffffffffffffff82111761121957604052565b90601f8019910116810190811067ffffffffffffffff82111761121957604052565b90816020910312610010575180151581036100105790565b8051156112925760200190565b634e487b7160e01b600052603260045260246000fd5b8051600110156112925760400190565b6001600160a01b0316737b5eb3940021ec0e8e463d5dbb4b7b09a89ddf96810361135c5750604051733daf59ca0010f60747231eaedda5bd84d44eefcb60611b602082015261017760eb1b603482015273fd086bc7cd5c481dcc9c85ebe478a1c0b69fcbb960601b6037820152607d60ea1b604b8201527382af49447d8a07e3bd95bd0d56f35241523fbab160601b604e820152604281526113598161122f565b90565b73fc5a1a6eb076a2c7ad06ed22c90d7e710e35ad0a81036113f45750604051737e2d0d37583b5163d68376916486bf38871ad68560611b602082015261017760eb1b60348201527382af49447d8a07e3bd95bd0d56f35241523fbab160601b6037820152607d60ea1b604b82015273af88d065e77c8cc2239327c5edb3a432268e583160601b604e820152604281526113598161122f565b7318c11fd286c5ec11c3b683caa813b77f5163a122810361148c5750604051730c608fe94362f608e1db41e55409dbbfa8b1d09160611b602082015261017760eb1b60348201527382af49447d8a07e3bd95bd0d56f35241523fbab160601b6037820152607d60ea1b604b82015273af88d065e77c8cc2239327c5edb3a432268e583160601b604e820152604281526113598161122f565b7313ad51ed4f1b7e9dc168d8a00cb3f4ddd85efa6081036115235750604051729d6a8f6a78dbf4ee0b46c500659fa6eec2f7d360651b602082015261017760eb1b60348201527382af49447d8a07e3bd95bd0d56f35241523fbab160601b6037820152607d60ea1b604b82015273af88d065e77c8cc2239327c5edb3a432268e583160601b604e820152604281526113598161122f565b73912ce59144191c1204e64559fe8253a0e49e6548036115b5576040517312259cb228832382409cc8ab3fd04a741c93cca960631b6020820152607d60ea1b603482018190527382af49447d8a07e3bd95bd0d56f35241523fbab160601b6037830152604b82015273af88d065e77c8cc2239327c5edb3a432268e583160601b604e820152604281526113598161122f565b60405162461bcd60e51b815280610e586004820161089b565b156115d557565b60405162461bcd60e51b815260206004820152602b60248201527f496e697469616c697a61626c653a20636f6e7472616374206973206e6f74206960448201526a6e697469616c697a696e6760a81b6064820152608490fd5b6000549060018060a01b03808216908360101c167f8be0079c531659141344cd1fd0a4f28419497f9722a3daafe3b4186f6b6457e06000604051a362010000600160b01b031990911660109190911b62010000600160b01b03161760005556fea2646970667358221220f57c3c2acdd349b144277151a6a9bdb17e2663cfd10dcc580dce7bd0a814ab0c64736f6c634300080f0033",
  "devdoc": {
    "kind": "dev",
    "methods": {
      "owner()": {
        "details": "Returns the address of the current owner."
      },
      "renounceOwnership()": {
        "details": "Leaves the contract without owner. It will not be possible to call `onlyOwner` functions anymore. Can only be called by the current owner. NOTE: Renouncing ownership will leave the contract without an owner, thereby removing any functionality that is only available to the owner."
      },
      "transferOwnership(address)": {
        "details": "Transfers ownership of the contract to a new account (`newOwner`). Can only be called by the current owner."
      }
    },
    "version": 1
  },
  "userdoc": {
    "kind": "user",
    "methods": {},
    "version": 1
  },
  "storageLayout": {
    "storage": [
      {
        "astId": 184,
        "contract": "src/swapHelper/SwapHelper.sol:SwapHelper",
        "label": "_initialized",
        "offset": 0,
        "slot": "0",
        "type": "t_uint8"
      },
      {
        "astId": 187,
        "contract": "src/swapHelper/SwapHelper.sol:SwapHelper",
        "label": "_initializing",
        "offset": 1,
        "slot": "0",
        "type": "t_bool"
      },
      {
        "astId": 27870,
        "contract": "src/swapHelper/SwapHelper.sol:SwapHelper",
        "label": "_owner",
        "offset": 2,
        "slot": "0",
        "type": "t_address"
      },
      {
        "astId": 27977,
        "contract": "src/swapHelper/SwapHelper.sol:SwapHelper",
        "label": "__gap",
        "offset": 0,
        "slot": "1",
        "type": "t_array(t_uint256)49_storage"
      },
      {
        "astId": 26978,
        "contract": "src/swapHelper/SwapHelper.sol:SwapHelper",
        "label": "routerTypes",
        "offset": 0,
        "slot": "50",
        "type": "t_mapping(t_address,t_uint256)"
      },
      {
        "astId": 26982,
        "contract": "src/swapHelper/SwapHelper.sol:SwapHelper",
        "label": "poolFees",
        "offset": 0,
        "slot": "51",
        "type": "t_mapping(t_address,t_uint256)"
      }
    ],
    "types": {
      "t_address": {
        "encoding": "inplace",
        "label": "address",
        "numberOfBytes": "20"
      },
      "t_array(t_uint256)49_storage": {
        "base": "t_uint256",
        "encoding": "inplace",
        "label": "uint256[49]",
        "numberOfBytes": "1568"
      },
      "t_bool": {
        "encoding": "inplace",
        "label": "bool",
        "numberOfBytes": "1"
      },
      "t_mapping(t_address,t_uint256)": {
        "encoding": "mapping",
        "key": "t_address",
        "label": "mapping(address => uint256)",
        "numberOfBytes": "32",
        "value": "t_uint256"
      },
      "t_uint256": {
        "encoding": "inplace",
        "label": "uint256",
        "numberOfBytes": "32"
      },
      "t_uint8": {
        "encoding": "inplace",
        "label": "uint8",
        "numberOfBytes": "1"
      }
    }
  }
}