{
  "address": "0x3B888E693bc0f3FA2A635799bf411FF2fE65F5a2",
  "abi": [
    {
      "anonymous": false,
      "inputs": [
        {
          "indexed": false,
          "internalType": "uint8",
          "name": "version",
          "type": "uint8"
        }
      ],
      "name": "Initialized",
      "type": "event"
    },
    {
      "anonymous": false,
      "inputs": [
        {
          "indexed": true,
          "internalType": "address",
          "name": "previousOwner",
          "type": "address"
        },
        {
          "indexed": true,
          "internalType": "address",
          "name": "newOwner",
          "type": "address"
        }
      ],
      "name": "OwnershipTransferred",
      "type": "event"
    },
    {
      "inputs": [],
      "name": "ARB",
      "outputs": [
        {
          "internalType": "address",
          "name": "",
          "type": "address"
        }
      ],
      "stateMutability": "view",
      "type": "function"
    },
    {
      "inputs": [],
      "name": "ARB_WETH_FEE",
      "outputs": [
        {
          "internalType": "uint256",
          "name": "",
          "type": "uint256"
        }
      ],
      "stateMutability": "view",
      "type": "function"
    },
    {
      "inputs": [],
      "name": "GMX",
      "outputs": [
        {
          "internalType": "address",
          "name": "",
          "type": "address"
        }
      ],
      "stateMutability": "view",
      "type": "function"
    },
    {
      "inputs": [],
      "name": "GMX_WETH_FEE",
      "outputs": [
        {
          "internalType": "uint256",
          "name": "",
          "type": "uint256"
        }
      ],
      "stateMutability": "view",
      "type": "function"
    },
    {
      "inputs": [],
      "name": "GNS",
      "outputs": [
        {
          "internalType": "address",
          "name": "",
          "type": "address"
        }
      ],
      "stateMutability": "view",
      "type": "function"
    },
    {
      "inputs": [],
      "name": "GNS_WETH_FEE",
      "outputs": [
        {
          "internalType": "uint256",
          "name": "",
          "type": "uint256"
        }
      ],
      "stateMutability": "view",
      "type": "function"
    },
    {
      "inputs": [],
      "name": "JOE",
      "outputs": [
        {
          "internalType": "address",
          "name": "",
          "type": "address"
        }
      ],
      "stateMutability": "view",
      "type": "function"
    },
    {
      "inputs": [],
      "name": "JOEV21_ROUTER",
      "outputs": [
        {
          "internalType": "address",
          "name": "",
          "type": "address"
        }
      ],
      "stateMutability": "view",
      "type": "function"
    },
    {
      "inputs": [],
      "name": "LDO",
      "outputs": [
        {
          "internalType": "address",
          "name": "",
          "type": "address"
        }
      ],
      "stateMutability": "view",
      "type": "function"
    },
    {
      "inputs": [],
      "name": "LDO_WETH_FEE",
      "outputs": [
        {
          "internalType": "uint256",
          "name": "",
          "type": "uint256"
        }
      ],
      "stateMutability": "view",
      "type": "function"
    },
    {
      "inputs": [],
      "name": "UNIV3_ROUTER",
      "outputs": [
        {
          "internalType": "address",
          "name": "",
          "type": "address"
        }
      ],
      "stateMutability": "view",
      "type": "function"
    },
    {
      "inputs": [],
      "name": "USDC",
      "outputs": [
        {
          "internalType": "address",
          "name": "",
          "type": "address"
        }
      ],
      "stateMutability": "view",
      "type": "function"
    },
    {
      "inputs": [],
      "name": "USDT",
      "outputs": [
        {
          "internalType": "address",
          "name": "",
          "type": "address"
        }
      ],
      "stateMutability": "view",
      "type": "function"
    },
    {
      "inputs": [],
      "name": "WETH",
      "outputs": [
        {
          "internalType": "address",
          "name": "",
          "type": "address"
        }
      ],
      "stateMutability": "view",
      "type": "function"
    },
    {
      "inputs": [],
      "name": "WETH_USDC_FEE",
      "outputs": [
        {
          "internalType": "uint256",
          "name": "",
          "type": "uint256"
        }
      ],
      "stateMutability": "view",
      "type": "function"
    },
    {
      "inputs": [],
      "name": "WETH_USDT_FEE",
      "outputs": [
        {
          "internalType": "uint256",
          "name": "",
          "type": "uint256"
        }
      ],
      "stateMutability": "view",
      "type": "function"
    },
    {
      "inputs": [],
      "name": "WOM",
      "outputs": [
        {
          "internalType": "address",
          "name": "",
          "type": "address"
        }
      ],
      "stateMutability": "view",
      "type": "function"
    },
    {
      "inputs": [],
      "name": "WOM_USDT_FEE",
      "outputs": [
        {
          "internalType": "uint256",
          "name": "",
          "type": "uint256"
        }
      ],
      "stateMutability": "view",
      "type": "function"
    },
    {
      "inputs": [
        {
          "internalType": "address",
          "name": "_token",
          "type": "address"
        }
      ],
      "name": "getUniV3Path",
      "outputs": [
        {
          "internalType": "bytes",
          "name": "path",
          "type": "bytes"
        }
      ],
      "stateMutability": "pure",
      "type": "function"
    },
    {
      "inputs": [],
      "name": "initialize",
      "outputs": [],
      "stateMutability": "nonpayable",
      "type": "function"
    },
    {
      "inputs": [],
      "name": "owner",
      "outputs": [
        {
          "internalType": "address",
          "name": "",
          "type": "address"
        }
      ],
      "stateMutability": "view",
      "type": "function"
    },
    {
      "inputs": [
        {
          "internalType": "address",
          "name": "",
          "type": "address"
        }
      ],
      "name": "poolFees",
      "outputs": [
        {
          "internalType": "uint256",
          "name": "",
          "type": "uint256"
        }
      ],
      "stateMutability": "view",
      "type": "function"
    },
    {
      "inputs": [],
      "name": "renounceOwnership",
      "outputs": [],
      "stateMutability": "nonpayable",
      "type": "function"
    },
    {
      "inputs": [
        {
          "internalType": "address",
          "name": "",
          "type": "address"
        }
      ],
      "name": "routerTypes",
      "outputs": [
        {
          "internalType": "uint256",
          "name": "",
          "type": "uint256"
        }
      ],
      "stateMutability": "view",
      "type": "function"
    },
    {
      "inputs": [
        {
          "internalType": "address",
          "name": "_token",
          "type": "address"
        },
        {
          "internalType": "uint256",
          "name": "_type",
          "type": "uint256"
        }
      ],
      "name": "setRouterType",
      "outputs": [],
      "stateMutability": "nonpayable",
      "type": "function"
    },
    {
      "inputs": [
        {
          "internalType": "address",
          "name": "_token",
          "type": "address"
        },
        {
          "internalType": "uint256",
          "name": "_amount",
          "type": "uint256"
        }
      ],
      "name": "swap",
      "outputs": [
        {
          "internalType": "uint256",
          "name": "",
          "type": "uint256"
        }
      ],
      "stateMutability": "nonpayable",
      "type": "function"
    },
    {
      "inputs": [
        {
          "internalType": "address",
          "name": "newOwner",
          "type": "address"
        }
      ],
      "name": "transferOwnership",
      "outputs": [],
      "stateMutability": "nonpayable",
      "type": "function"
    }
  ],
  "transactionHash": "0xc9d688efe3515a74f2f3f4c31fa91212cd145f451b7a7635a6a0a1428c4c4cad",
  "args": [],
  "numDeployments": 4,
  "solcInputHash": "fa0738513d5d0b7a560e9baa506b9343",
  "bytecode": "0x6080806040523461001657611371908161001c8239f35b600080fdfe608060408181526004361015610015575b600080fd5b600091823560e01c908163114ab6fd1461075757508063136a80471461039157806313b44de0146102c45780631a9bef411461039157806325bc368e14610720578063438dbd32146106f2578063571715b7146106c457806364a285fd146106965780636c57400a14610668578063715018a6146106035780638129fc1c1461042357806383828cd1146103f557806389a30271146103c75780638da5cb5b1461039c57806397dac3b614610391578063ad5c464814610363578063be6e91611461032c578063c54e44eb146102fe578063d004f0f7146102cf578063d1e501f4146102c4578063d20e32e6146102c4578063d48e47b8146102c4578063d88bba1114610296578063f1ec476114610252578063f2fde38b146101ba578063f488581e1461017d5763ffebad301461014c57600080fd5b346101795781600319360112610179576020905173371c7ec6d8039ff7933a2aa28eb827ffe1f52f078152f35b5080fd5b5034610179576020366003190112610179576101b6906101a361019e6107c1565b610f91565b90519182916020835260208301906107d7565b0390f35b5034610179576020366003190112610179576101d46107c1565b60018060a01b036101ec81855460101c163314610828565b8116156101ff576101fc906112db565b51f35b815162461bcd60e51b815260206004820152602660248201527f4f776e61626c653a206e6577206f776e657220697320746865207a65726f206160448201526564647265737360d01b6064820152608490fd5b503461017957806003193601126101795761026b6107c1565b60018060a01b039061028482855460101c163314610828565b16825260326020526024358183205551f35b5034610179578160031936011261017957602090517313ad51ed4f1b7e9dc168d8a00cb3f4ddd85efa608152f35b5050506100106107a3565b50346101795780600319360112610179576020906102f76102ee6107c1565b60243590610887565b9051908152f35b50346101795781600319360112610179576020905173fd086bc7cd5c481dcc9c85ebe478a1c0b69fcbb98152f35b50346101795760203660031901126101795760209181906001600160a01b036103536107c1565b1681526033845220549051908152f35b5034610179578160031936011261017957602090517382af49447d8a07e3bd95bd0d56f35241523fbab18152f35b505050610010610785565b50346101795781600319360112610179579054905160109190911c6001600160a01b03168152602090f35b50346101795781600319360112610179576020905173af88d065e77c8cc2239327c5edb3a432268e58318152f35b503461017957816003193601126101795760209051737b5eb3940021ec0e8e463d5dbb4b7b09a89ddf968152f35b5034610179578160031936011261017957815460ff8160081c16158080916105f6575b80156105df575b1561058457600191818360ff198316178655610573575b5061047e60ff855460081c166104798161127b565b61127b565b610487336112db565b73fc5a1a6eb076a2c7ad06ed22c90d7e710e35ad0a8452603260205281838520557318c11fd286c5ec11c3b683caa813b77f5163a12284528183852055737b5eb3940021ec0e8e463d5dbb4b7b09a89ddf96845281838520557313ad51ed4f1b7e9dc168d8a00cb3f4ddd85efa608452818385205573912ce59144191c1204e64559fe8253a0e49e65488452818385205573371c7ec6d8039ff7933a2aa28eb827ffe1f52f07845260028385205561053d575051f35b60207f7f26b83ff96e1f2b6a682f133852f6798a09c465da95921460cefb38474024989161ff001985541685558351908152a151f35b61ffff191661010117845538610464565b825162461bcd60e51b815260206004820152602e60248201527f496e697469616c697a61626c653a20636f6e747261637420697320616c72656160448201526d191e481a5b9a5d1a585b1a5e995960921b6064820152608490fd5b50303b15801561044d5750600160ff83161461044d565b50600160ff831610610446565b50346101795781600319360112610179578154601081901c6001600160a01b0316918390610632338514610828565b51927f8be0079c531659141344cd1fd0a4f28419497f9722a3daafe3b4186f6b6457e08285a362010000600160b01b0319168255f35b5034610179578160031936011261017957602090517318c11fd286c5ec11c3b683caa813b77f5163a1228152f35b50346101795781600319360112610179576020905173912ce59144191c1204e64559fe8253a0e49e65488152f35b50346101795781600319360112610179576020905173e592427a0aece92de3edee1f18e0157c058615648152f35b50346101795781600319360112610179576020905173fc5a1a6eb076a2c7ad06ed22c90d7e710e35ad0a8152f35b50346101795760203660031901126101795760209181906001600160a01b036107476107c1565b1681526032845220549051908152f35b8390346101795781600319360112610179578073b4315e873dbcf96ffd0acd8ea43f689d8c20fb3060209252f35b50346100105760003660031901126100105760206040516101f48152f35b5034610010576000366003190112610010576020604051610bb88152f35b600435906001600160a01b038216820361001057565b91908251928382526000905b848210610810575092806020939411610803575b601f01601f1916010190565b60008382840101526107f7565b906020908180828501015190828601015201906107e3565b1561082f57565b60405162461bcd60e51b815260206004820152600a60248201526927b7363c9037bbb732b960b11b6044820152606490fd5b60609060208152600b60208201526a2bb937b733903a37b5b2b760a91b60408201520190565b90600060018060a01b038084169081835260209160328352604095868520546001808214600014610ad35750508651636eb1769f60e11b815230600482015273e592427a0aece92de3edee1f18e0157c058615646024820181905292908581604481855afa908115610ac95791869188938491610a87575b5069d3c21bcecceda100000011610a12575b50505061091d90610f91565b86519060a0820182811067ffffffffffffffff8211176109fe578594939261098c9288928b5281528581013381528a820199428b526060830190815260808301908482528c519b8c988997889663c04b8d5960e01b88528c60048901525160a0602489015260c48801906107d7565b94511660448601525160648501525160848401525160a483015203925af19384156109f3575081936109bf575b50505090565b9091809350813d83116109ec575b6109d78183610f24565b810103126109e95750513880806109b9565b80fd5b503d6109cd565b51913d9150823e3d90fd5b634e487b7160e01b87526041600452602487fd5b60448a518094819363095ea7b360e01b835288600484015260001960248401525af18015610a7d579061091d9291610a50575b869192869150610911565b610a6f90863d8811610a76575b610a678183610f24565b810190610f46565b5038610a45565b503d610a5d565b88513d88823e3d90fd5b92809294508391503d8311610ac2575b610aa18183610f24565b81010312610abe57518691869169d3c21bcecceda10000006108ff565b8680fd5b503d610a97565b89513d89823e3d90fd5b91509592916002809714600014610ebe57875192636eb1769f60e11b84526004308186015273b4315e873dbcf96ffd0acd8ea43f689d8c20fb309560249587878201528881604481885afa8015610e79578a90610e83575b69d3c21bcecceda1000000915010610e29575b8a5191610b4a83610ed6565b8a83528b368a85013773371c7ec6d8039ff7933a2aa28eb827ffe1f52f0785148015610e0e576014610b7b85610f5e565b526032610b8785610f81565b528c5190610b9482610ed6565b8c82528d368c840137610df3575b8c5193608085019c67ffffffffffffffff9d8e87821090821117610de1578f526003808752976060368e890137610bd887610f5e565b527382af49447d8a07e3bd95bd0d56f35241523fbab1610bf787610f81565b5285511115610dcf5773af88d065e77c8cc2239327c5edb3a432268e583160608601528d51809d6060820191821090821117610dbd578e528c52898c019081528b8d019384526001194211610dab579a928a959492978a9997948e519d8e9a6315221fd760e11b8c52858c015288838c015260a060448c01526101048b01915191606060a48d015282518091528c6101248d019301908a5b818110610d7d57505050519360a31997888c84030160c48d01528c80875194858152019601938a925b848410610d335750505050505051938782030160e488015287808551928381520194019185905b828210610d14575050505084929183913360648401524201608483015203925af19384156109f3575081936109bf5750505090565b8351811686528a998d99508c9750958601959093019290840190610cdf565b9397999c509399509396999b5093885184811015610d6b578d8281928d945201990194018c9b9996938f9b989692938f9a9694610cb8565b634e487b7160e01b8f5260218352838ffd5b938e928a9d9f92969e5080999b9c50999396995181520196019101928d989795918f9b938e9d9b9895610c8f565b634e487b7160e01b8b5260118252878bfd5b634e487b7160e01b8d5260418452898dfd5b634e487b7160e01b8c5260328352888cfd5b634e487b7160e01b8e52604185528a8efd5b8b610dfd82610f5e565b528b610e0882610f81565b52610ba2565b8c5162461bcd60e51b815280610e25818501610861565b0390fd5b8a5163095ea7b360e01b81528281018890526000198782015288816044818d895af18015610e7957610e5c575b50610b3e565b610e7290893d8b11610a7657610a678183610f24565b5038610e56565b8c513d8c823e3d90fd5b508881813d8311610eb7575b610e998183610f24565b81010312610eb35769d3c21bcecceda10000009051610b2b565b8980fd5b503d610e8f565b875162461bcd60e51b815280610e2560048201610861565b6060810190811067ffffffffffffffff821117610ef257604052565b634e487b7160e01b600052604160045260246000fd5b60a0810190811067ffffffffffffffff821117610ef257604052565b90601f8019910116810190811067ffffffffffffffff821117610ef257604052565b90816020910312610010575180151581036100105790565b805115610f6b5760200190565b634e487b7160e01b600052603260045260246000fd5b805160011015610f6b5760400190565b6001600160a01b0316737b5eb3940021ec0e8e463d5dbb4b7b09a89ddf96810361101a5750604051733daf59ca0010f60747231eaedda5bd84d44eefcb60611b6020820152610bb8603482015273fd086bc7cd5c481dcc9c85ebe478a1c0b69fcbb960601b605482018190526101f460688301526088820152607c815261101781610f08565b90565b73fc5a1a6eb076a2c7ad06ed22c90d7e710e35ad0a81036110ad5750604051737e2d0d37583b5163d68376916486bf38871ad68560611b6020820152610bb860348201527382af49447d8a07e3bd95bd0d56f35241523fbab160601b60548201526101f4606882015273af88d065e77c8cc2239327c5edb3a432268e583160601b6088820152607c815261101781610f08565b7318c11fd286c5ec11c3b683caa813b77f5163a12281036111405750604051730c608fe94362f608e1db41e55409dbbfa8b1d09160611b6020820152610bb860348201527382af49447d8a07e3bd95bd0d56f35241523fbab160601b60548201526101f4606882015273af88d065e77c8cc2239327c5edb3a432268e583160601b6088820152607c815261101781610f08565b7313ad51ed4f1b7e9dc168d8a00cb3f4ddd85efa6081036111d25750604051729d6a8f6a78dbf4ee0b46c500659fa6eec2f7d360651b6020820152610bb860348201527382af49447d8a07e3bd95bd0d56f35241523fbab160601b60548201526101f4606882015273af88d065e77c8cc2239327c5edb3a432268e583160601b6088820152607c815261101781610f08565b73912ce59144191c1204e64559fe8253a0e49e654803611262576040517312259cb228832382409cc8ab3fd04a741c93cca960631b60208201526101f4603482018190527382af49447d8a07e3bd95bd0d56f35241523fbab160601b6054830152606882015273af88d065e77c8cc2239327c5edb3a432268e583160601b6088820152607c815261101781610f08565b60405162461bcd60e51b815280610e2560048201610861565b1561128257565b60405162461bcd60e51b815260206004820152602b60248201527f496e697469616c697a61626c653a20636f6e7472616374206973206e6f74206960448201526a6e697469616c697a696e6760a81b6064820152608490fd5b6000549060018060a01b03808216908360101c167f8be0079c531659141344cd1fd0a4f28419497f9722a3daafe3b4186f6b6457e06000604051a362010000600160b01b031990911660109190911b62010000600160b01b03161760005556fea2646970667358221220bf2d6b6875338b12b3449d49331c181379216bda68775eae4a57128925b0139264736f6c634300080f0033",
  "devdoc": {
    "kind": "dev",
    "methods": {
      "owner()": {
        "details": "Returns the address of the current owner."
      },
      "renounceOwnership()": {
        "details": "Leaves the contract without owner. It will not be possible to call `onlyOwner` functions anymore. Can only be called by the current owner. NOTE: Renouncing ownership will leave the contract without an owner, thereby removing any functionality that is only available to the owner."
      },
      "transferOwnership(address)": {
        "details": "Transfers ownership of the contract to a new account (`newOwner`). Can only be called by the current owner."
      }
    },
    "version": 1
  },
  "userdoc": {
    "kind": "user",
    "methods": {},
    "version": 1
  },
  "storageLayout": {
    "storage": [
      {
        "astId": 184,
        "contract": "src/swapHelper/SwapHelper.sol:SwapHelper",
        "label": "_initialized",
        "offset": 0,
        "slot": "0",
        "type": "t_uint8"
      },
      {
        "astId": 187,
        "contract": "src/swapHelper/SwapHelper.sol:SwapHelper",
        "label": "_initializing",
        "offset": 1,
        "slot": "0",
        "type": "t_bool"
      },
      {
        "astId": 27735,
        "contract": "src/swapHelper/SwapHelper.sol:SwapHelper",
        "label": "_owner",
        "offset": 2,
        "slot": "0",
        "type": "t_address"
      },
      {
        "astId": 27842,
        "contract": "src/swapHelper/SwapHelper.sol:SwapHelper",
        "label": "__gap",
        "offset": 0,
        "slot": "1",
        "type": "t_array(t_uint256)49_storage"
      },
      {
        "astId": 26955,
        "contract": "src/swapHelper/SwapHelper.sol:SwapHelper",
        "label": "routerTypes",
        "offset": 0,
        "slot": "50",
        "type": "t_mapping(t_address,t_uint256)"
      },
      {
        "astId": 26959,
        "contract": "src/swapHelper/SwapHelper.sol:SwapHelper",
        "label": "poolFees",
        "offset": 0,
        "slot": "51",
        "type": "t_mapping(t_address,t_uint256)"
      }
    ],
    "types": {
      "t_address": {
        "encoding": "inplace",
        "label": "address",
        "numberOfBytes": "20"
      },
      "t_array(t_uint256)49_storage": {
        "base": "t_uint256",
        "encoding": "inplace",
        "label": "uint256[49]",
        "numberOfBytes": "1568"
      },
      "t_bool": {
        "encoding": "inplace",
        "label": "bool",
        "numberOfBytes": "1"
      },
      "t_mapping(t_address,t_uint256)": {
        "encoding": "mapping",
        "key": "t_address",
        "label": "mapping(address => uint256)",
        "numberOfBytes": "32",
        "value": "t_uint256"
      },
      "t_uint256": {
        "encoding": "inplace",
        "label": "uint256",
        "numberOfBytes": "32"
      },
      "t_uint8": {
        "encoding": "inplace",
        "label": "uint8",
        "numberOfBytes": "1"
      }
    }
  }
}