{
  "address": "0xFfbb7FF4c374FFaD5bAE5D177687D5358572AC4A",
  "abi": [
    {
      "inputs": [],
      "name": "Treasury__OnlyExecutor",
      "type": "error"
    },
    {
      "inputs": [],
      "name": "Treasury__OnlyOwner",
      "type": "error"
    },
    {
      "inputs": [],
      "name": "Treasury__OnlyPolicyCenter",
      "type": "error"
    },
    {
      "anonymous": false,
      "inputs": [
        {
          "indexed": false,
          "internalType": "uint256",
          "name": "amount",
          "type": "uint256"
        }
      ],
      "name": "ClaimedByOwner",
      "type": "event"
    },
    {
      "anonymous": false,
      "inputs": [
        {
          "indexed": false,
          "internalType": "uint8",
          "name": "version",
          "type": "uint8"
        }
      ],
      "name": "Initialized",
      "type": "event"
    },
    {
      "anonymous": false,
      "inputs": [
        {
          "indexed": true,
          "internalType": "uint256",
          "name": "poolId",
          "type": "uint256"
        },
        {
          "indexed": false,
          "internalType": "uint256",
          "name": "amount",
          "type": "uint256"
        }
      ],
      "name": "NewIncomeToTreasury",
      "type": "event"
    },
    {
      "anonymous": false,
      "inputs": [
        {
          "indexed": true,
          "internalType": "address",
          "name": "previousOwner",
          "type": "address"
        },
        {
          "indexed": true,
          "internalType": "address",
          "name": "newOwner",
          "type": "address"
        }
      ],
      "name": "OwnershipTransferred",
      "type": "event"
    },
    {
      "anonymous": false,
      "inputs": [
        {
          "indexed": true,
          "internalType": "address",
          "name": "reporter",
          "type": "address"
        },
        {
          "indexed": false,
          "internalType": "uint256",
          "name": "amount",
          "type": "uint256"
        }
      ],
      "name": "ReporterRewarded",
      "type": "event"
    },
    {
      "inputs": [],
      "name": "REPORTER_REWARD",
      "outputs": [
        {
          "internalType": "uint256",
          "name": "",
          "type": "uint256"
        }
      ],
      "stateMutability": "view",
      "type": "function"
    },
    {
      "inputs": [],
      "name": "USDC",
      "outputs": [
        {
          "internalType": "address",
          "name": "",
          "type": "address"
        }
      ],
      "stateMutability": "view",
      "type": "function"
    },
    {
      "inputs": [
        {
          "internalType": "uint256",
          "name": "_amount",
          "type": "uint256"
        }
      ],
      "name": "claim",
      "outputs": [],
      "stateMutability": "nonpayable",
      "type": "function"
    },
    {
      "inputs": [],
      "name": "executor",
      "outputs": [
        {
          "internalType": "address",
          "name": "",
          "type": "address"
        }
      ],
      "stateMutability": "view",
      "type": "function"
    },
    {
      "inputs": [
        {
          "internalType": "address",
          "name": "_executor",
          "type": "address"
        },
        {
          "internalType": "address",
          "name": "_policyCenter",
          "type": "address"
        }
      ],
      "name": "initialize",
      "outputs": [],
      "stateMutability": "nonpayable",
      "type": "function"
    },
    {
      "inputs": [],
      "name": "owner",
      "outputs": [
        {
          "internalType": "address",
          "name": "",
          "type": "address"
        }
      ],
      "stateMutability": "view",
      "type": "function"
    },
    {
      "inputs": [],
      "name": "policyCenter",
      "outputs": [
        {
          "internalType": "address",
          "name": "",
          "type": "address"
        }
      ],
      "stateMutability": "view",
      "type": "function"
    },
    {
      "inputs": [
        {
          "internalType": "uint256",
          "name": "",
          "type": "uint256"
        }
      ],
      "name": "poolIncome",
      "outputs": [
        {
          "internalType": "uint256",
          "name": "",
          "type": "uint256"
        }
      ],
      "stateMutability": "view",
      "type": "function"
    },
    {
      "inputs": [
        {
          "internalType": "uint256",
          "name": "_poolId",
          "type": "uint256"
        },
        {
          "internalType": "uint256",
          "name": "_amount",
          "type": "uint256"
        }
      ],
      "name": "premiumIncome",
      "outputs": [],
      "stateMutability": "nonpayable",
      "type": "function"
    },
    {
      "inputs": [],
      "name": "renounceOwnership",
      "outputs": [],
      "stateMutability": "nonpayable",
      "type": "function"
    },
    {
      "inputs": [
        {
          "internalType": "uint256",
          "name": "_poolId",
          "type": "uint256"
        },
        {
          "internalType": "address",
          "name": "_reporter",
          "type": "address"
        }
      ],
      "name": "rewardReporter",
      "outputs": [],
      "stateMutability": "nonpayable",
      "type": "function"
    },
    {
      "inputs": [
        {
          "internalType": "address",
          "name": "newOwner",
          "type": "address"
        }
      ],
      "name": "transferOwnership",
      "outputs": [],
      "stateMutability": "nonpayable",
      "type": "function"
    }
  ],
  "transactionHash": "0x103f61da19ba526293fb91b82303d756dac2f54ea7605da651551fe4c8243754",
  "args": [],
  "numDeployments": 2,
  "solcInputHash": "7b203253aaf1929d9206854f0cb635e7",
  "bytecode": "0x608080604052346100165761088b908161001c8239f35b600080fdfe608060408181526004918236101561001657600080fd5b600092833560e01c9182630627c88b1461059857508163379607f5146104a4578163485cc955146103375781635b97d367146102a1578163715018a61461023b57816389a302711461020c5781638da5cb5b146101e0578163c34c08e5146101b7578163d5647cc71461018f578163e8adbf2f14610166578163f2fde38b146100c8575063fd123806146100a957600080fd5b346100c457816003193601126100c457602090516103e88152f35b5080fd5b905034610162576020366003190112610162576100e36106f6565b9060018060a01b036100fc81865460101c16331461075c565b821615610110575061010d906107f5565b51f35b608490602084519162461bcd60e51b8352820152602660248201527f4f776e61626c653a206e6577206f776e657220697320746865207a65726f206160448201526564647265737360d01b6064820152fd5b8280fd5b5050346100c457816003193601126100c45760335490516001600160a01b039091168152602090f35b9050346101625760203660031901126101625760209282913581526034845220549051908152f35b5050346100c457816003193601126100c45760325490516001600160a01b039091168152602090f35b5050346100c457816003193601126100c4579054905160109190911c6001600160a01b03168152602090f35b5050346100c457816003193601126100c457602090517323d0cddc1ea9fcc5ca9ec6b5fc77e304bce8d4c38152f35b5050346100c457816003193601126100c4578154601081901c6001600160a01b031691839061026b33851461075c565b51927f8be0079c531659141344cd1fd0a4f28419497f9722a3daafe3b4186f6b6457e08285a362010000600160b01b0319168255f35b905034610162578160031936011261016257603354813591602435916001600160a01b03163303610329578285526034602052838520908154908319821161031657508201905582519081527fbcdf08e43ded44076dd939f7e98f8bc0059c0b6e8bbc9a1c83a62432c43a739190602090a251f35b634e487b7160e01b875260119052602486fd5b8351636e9bc02b60e01b8152fd5b9050346101625781600319360112610162576103516106f6565b6103596106db565b845460ff8160081c161593848095610497575b8015610480575b15610426575060ff198116600117865583610415575b506103a360ff865460081c1661039e81610795565b610795565b6103ac336107f5565b603280546001600160a01b039384166001600160a01b031991821617909155603380549290931691161790556103df5751f35b61ff001982541682557f7f26b83ff96e1f2b6a682f133852f6798a09c465da95921460cefb38474024986020825160018152a151f35b61ffff191661010117855538610389565b608490602087519162461bcd60e51b8352820152602e60248201527f496e697469616c697a61626c653a20636f6e747261637420697320616c72656160448201526d191e481a5b9a5d1a585b1a5e995960921b6064820152fd5b50303b1580156103735750600160ff831614610373565b50600160ff83161061036c565b905034610162576020366003190112610162578254813591829160209160109190911c6001600160a01b0316906104dc33831461075c565b855163a9059cbb60e01b81526001600160a01b03909216908201908152602081019490945292839081906040010381877323d0cddc1ea9fcc5ca9ec6b5fc77e304bce8d4c35af190811561058b577f150afe1a4f039206f87a38d65a16f6a7c76f285e29a4b2b5eab4e8a917b40ca19260209261055e575b508351908152a151f35b61057d90833d8111610584575b610575818361070c565b810190610744565b5038610554565b503d61056b565b50505051903d90823e3d90fd5b838591346101625781600319360112610162578335906105b66106db565b60325490916001600160a01b0391821633036106cd575082855260209160348352848620546103e89080600019048211811515166106ba57906127109102049386526034835284862080548581106106ba578590039055845163a9059cbb60e01b81526001600160a01b0382169781019788526020880185905295969495939483908590819060400103818a7323d0cddc1ea9fcc5ca9ec6b5fc77e304bce8d4c35af19384156106b0577fc8ae12e13c66cfdc817755aaebcef528a42f8e59ac8ece9bc1e61625f752094d94610693575b5085519485521692a251f35b6106a990843d861161058457610575818361070c565b5087610687565b86513d89823e3d90fd5b634e487b7160e01b885260118952602488fd5b632051b72b60e11b81528690fd5b602435906001600160a01b03821682036106f157565b600080fd5b600435906001600160a01b03821682036106f157565b90601f8019910116810190811067ffffffffffffffff82111761072e57604052565b634e487b7160e01b600052604160045260246000fd5b908160209103126106f1575180151581036106f15790565b1561076357565b60405162461bcd60e51b815260206004820152600a60248201526927b7363c9037bbb732b960b11b6044820152606490fd5b1561079c57565b60405162461bcd60e51b815260206004820152602b60248201527f496e697469616c697a61626c653a20636f6e7472616374206973206e6f74206960448201526a6e697469616c697a696e6760a81b6064820152608490fd5b6000549060018060a01b03808216908360101c167f8be0079c531659141344cd1fd0a4f28419497f9722a3daafe3b4186f6b6457e06000604051a362010000600160b01b031990911660109190911b62010000600160b01b03161760005556fea26469706673582212203bf6aaa5d0f67ed9218a34d874ed73d29b84df75c3fa52b39ffaa31fbd8a873764736f6c634300080f0033",
  "devdoc": {
    "kind": "dev",
    "methods": {
      "claim(uint256)": {
        "params": {
          "_amount": "Amount to claim"
        }
      },
      "owner()": {
        "details": "Returns the address of the current owner."
      },
      "premiumIncome(uint256,uint256)": {
        "params": {
          "_amount": "Premium amount (usdc)",
          "_poolId": "Pool id"
        }
      },
      "renounceOwnership()": {
        "details": "Leaves the contract without owner. It will not be possible to call `onlyOwner` functions anymore. Can only be called by the current owner. NOTE: Renouncing ownership will leave the contract without an owner, thereby removing any functionality that is only available to the owner."
      },
      "rewardReporter(uint256,address)": {
        "params": {
          "_poolId": "Pool id",
          "_reporter": "Reporter address"
        }
      },
      "transferOwnership(address)": {
        "details": "Transfers ownership of the contract to a new account (`newOwner`). Can only be called by the current owner."
      }
    },
    "version": 1
  },
  "userdoc": {
    "kind": "user",
    "methods": {
      "claim(uint256)": {
        "notice": "Claim usdc by the owner"
      },
      "premiumIncome(uint256,uint256)": {
        "notice": "Record when receiving new premium income         Only called from policy center"
      },
      "rewardReporter(uint256,address)": {
        "notice": "Reward the correct reporter         Part of the priority pool income will be given to the reporter         Only called from executor when executing a report"
      }
    },
    "notice": "Treasury Contract         Treasury will receive 5% of the premium income (usdc) from policyCenter.         They are counted as different pools.         When a reporter gives a correct report (passed voting and executed),         he will get 10% of the income of that project pool.",
    "version": 1
  },
  "storageLayout": {
    "storage": [
      {
        "astId": 184,
        "contract": "src/reward/treasury/Treasury.sol:Treasury",
        "label": "_initialized",
        "offset": 0,
        "slot": "0",
        "type": "t_uint8"
      },
      {
        "astId": 187,
        "contract": "src/reward/treasury/Treasury.sol:Treasury",
        "label": "_initializing",
        "offset": 1,
        "slot": "0",
        "type": "t_bool"
      },
      {
        "astId": 17723,
        "contract": "src/reward/treasury/Treasury.sol:Treasury",
        "label": "_owner",
        "offset": 2,
        "slot": "0",
        "type": "t_address"
      },
      {
        "astId": 17830,
        "contract": "src/reward/treasury/Treasury.sol:Treasury",
        "label": "__gap",
        "offset": 0,
        "slot": "1",
        "type": "t_array(t_uint256)49_storage"
      },
      {
        "astId": 17378,
        "contract": "src/reward/treasury/Treasury.sol:Treasury",
        "label": "executor",
        "offset": 0,
        "slot": "50",
        "type": "t_address"
      },
      {
        "astId": 17380,
        "contract": "src/reward/treasury/Treasury.sol:Treasury",
        "label": "policyCenter",
        "offset": 0,
        "slot": "51",
        "type": "t_address"
      },
      {
        "astId": 17255,
        "contract": "src/reward/treasury/Treasury.sol:Treasury",
        "label": "poolIncome",
        "offset": 0,
        "slot": "52",
        "type": "t_mapping(t_uint256,t_uint256)"
      }
    ],
    "types": {
      "t_address": {
        "encoding": "inplace",
        "label": "address",
        "numberOfBytes": "20"
      },
      "t_array(t_uint256)49_storage": {
        "base": "t_uint256",
        "encoding": "inplace",
        "label": "uint256[49]",
        "numberOfBytes": "1568"
      },
      "t_bool": {
        "encoding": "inplace",
        "label": "bool",
        "numberOfBytes": "1"
      },
      "t_mapping(t_uint256,t_uint256)": {
        "encoding": "mapping",
        "key": "t_uint256",
        "label": "mapping(uint256 => uint256)",
        "numberOfBytes": "32",
        "value": "t_uint256"
      },
      "t_uint256": {
        "encoding": "inplace",
        "label": "uint256",
        "numberOfBytes": "32"
      },
      "t_uint8": {
        "encoding": "inplace",
        "label": "uint8",
        "numberOfBytes": "1"
      }
    }
  }
}