{
  "address": "0x9EA681888A9659f8294bcDa3f6DA246Fb3B192eF",
  "abi": [
    {
      "inputs": [],
      "name": "WeightedFarmingPool_ZeroAddress",
      "type": "error"
    },
    {
      "inputs": [],
      "name": "WeightedFarmingPool__AlreadySupported",
      "type": "error"
    },
    {
      "inputs": [],
      "name": "WeightedFarmingPool__InexistentPool",
      "type": "error"
    },
    {
      "inputs": [],
      "name": "WeightedFarmingPool__NotEnoughAmount",
      "type": "error"
    },
    {
      "inputs": [],
      "name": "WeightedFarmingPool__NotInPool",
      "type": "error"
    },
    {
      "inputs": [],
      "name": "WeightedFarmingPool__NotSupported",
      "type": "error"
    },
    {
      "inputs": [],
      "name": "WeightedFarmingPool__OnlyPolicyCenter",
      "type": "error"
    },
    {
      "inputs": [],
      "name": "WeightedFarmingPool__WrongDateLength",
      "type": "error"
    },
    {
      "inputs": [],
      "name": "WeightedFarmingPool__ZeroAmount",
      "type": "error"
    },
    {
      "anonymous": false,
      "inputs": [
        {
          "indexed": true,
          "internalType": "uint256",
          "name": "poolId",
          "type": "uint256"
        },
        {
          "indexed": true,
          "internalType": "address",
          "name": "user",
          "type": "address"
        },
        {
          "indexed": true,
          "internalType": "address",
          "name": "receiver",
          "type": "address"
        },
        {
          "indexed": false,
          "internalType": "uint256",
          "name": "reward",
          "type": "uint256"
        }
      ],
      "name": "Harvest",
      "type": "event"
    },
    {
      "anonymous": false,
      "inputs": [
        {
          "indexed": false,
          "internalType": "uint8",
          "name": "version",
          "type": "uint8"
        }
      ],
      "name": "Initialized",
      "type": "event"
    },
    {
      "anonymous": false,
      "inputs": [
        {
          "indexed": true,
          "internalType": "uint256",
          "name": "poolId",
          "type": "uint256"
        },
        {
          "indexed": false,
          "internalType": "address",
          "name": "token",
          "type": "address"
        },
        {
          "indexed": false,
          "internalType": "uint256",
          "name": "index",
          "type": "uint256"
        },
        {
          "indexed": false,
          "internalType": "uint256",
          "name": "weight",
          "type": "uint256"
        }
      ],
      "name": "NewTokenAdded",
      "type": "event"
    },
    {
      "anonymous": false,
      "inputs": [
        {
          "indexed": true,
          "internalType": "address",
          "name": "previousOwner",
          "type": "address"
        },
        {
          "indexed": true,
          "internalType": "address",
          "name": "newOwner",
          "type": "address"
        }
      ],
      "name": "OwnershipTransferred",
      "type": "event"
    },
    {
      "anonymous": false,
      "inputs": [
        {
          "indexed": false,
          "internalType": "uint256",
          "name": "poolId",
          "type": "uint256"
        },
        {
          "indexed": false,
          "internalType": "address",
          "name": "token",
          "type": "address"
        }
      ],
      "name": "PoolAdded",
      "type": "event"
    },
    {
      "anonymous": false,
      "inputs": [
        {
          "indexed": true,
          "internalType": "uint256",
          "name": "poolId",
          "type": "uint256"
        },
        {
          "indexed": false,
          "internalType": "uint256",
          "name": "accRewardPerShare",
          "type": "uint256"
        }
      ],
      "name": "PoolUpdated",
      "type": "event"
    },
    {
      "anonymous": false,
      "inputs": [
        {
          "indexed": true,
          "internalType": "uint256",
          "name": "poolId",
          "type": "uint256"
        },
        {
          "indexed": false,
          "internalType": "uint256",
          "name": "index",
          "type": "uint256"
        },
        {
          "indexed": false,
          "internalType": "uint256",
          "name": "newWeight",
          "type": "uint256"
        }
      ],
      "name": "PoolWeightUpdated",
      "type": "event"
    },
    {
      "anonymous": false,
      "inputs": [
        {
          "indexed": true,
          "internalType": "uint256",
          "name": "poolId",
          "type": "uint256"
        },
        {
          "indexed": false,
          "internalType": "uint256",
          "name": "newSpeed",
          "type": "uint256"
        },
        {
          "indexed": false,
          "internalType": "uint256[]",
          "name": "yearsUpdated",
          "type": "uint256[]"
        },
        {
          "indexed": false,
          "internalType": "uint256[]",
          "name": "monthsUpdateed",
          "type": "uint256[]"
        }
      ],
      "name": "RewardSpeedUpdated",
      "type": "event"
    },
    {
      "inputs": [],
      "name": "SCALE",
      "outputs": [
        {
          "internalType": "uint256",
          "name": "",
          "type": "uint256"
        }
      ],
      "stateMutability": "view",
      "type": "function"
    },
    {
      "inputs": [
        {
          "internalType": "address",
          "name": "_rewardToken",
          "type": "address"
        }
      ],
      "name": "addPool",
      "outputs": [],
      "stateMutability": "nonpayable",
      "type": "function"
    },
    {
      "inputs": [
        {
          "internalType": "uint256",
          "name": "_id",
          "type": "uint256"
        },
        {
          "internalType": "address",
          "name": "_token",
          "type": "address"
        },
        {
          "internalType": "uint256",
          "name": "_weight",
          "type": "uint256"
        }
      ],
      "name": "addToken",
      "outputs": [],
      "stateMutability": "nonpayable",
      "type": "function"
    },
    {
      "inputs": [],
      "name": "counter",
      "outputs": [
        {
          "internalType": "uint256",
          "name": "",
          "type": "uint256"
        }
      ],
      "stateMutability": "view",
      "type": "function"
    },
    {
      "inputs": [
        {
          "internalType": "uint256",
          "name": "_id",
          "type": "uint256"
        },
        {
          "internalType": "address",
          "name": "_token",
          "type": "address"
        },
        {
          "internalType": "uint256",
          "name": "_amount",
          "type": "uint256"
        }
      ],
      "name": "deposit",
      "outputs": [],
      "stateMutability": "nonpayable",
      "type": "function"
    },
    {
      "inputs": [
        {
          "internalType": "uint256",
          "name": "_id",
          "type": "uint256"
        },
        {
          "internalType": "address",
          "name": "_token",
          "type": "address"
        },
        {
          "internalType": "uint256",
          "name": "_amount",
          "type": "uint256"
        },
        {
          "internalType": "address",
          "name": "_user",
          "type": "address"
        }
      ],
      "name": "depositFromPolicyCenter",
      "outputs": [],
      "stateMutability": "nonpayable",
      "type": "function"
    },
    {
      "inputs": [
        {
          "internalType": "uint256",
          "name": "_poolId",
          "type": "uint256"
        }
      ],
      "name": "getPoolArrays",
      "outputs": [
        {
          "internalType": "address[]",
          "name": "",
          "type": "address[]"
        },
        {
          "internalType": "uint256[]",
          "name": "",
          "type": "uint256[]"
        },
        {
          "internalType": "uint256[]",
          "name": "",
          "type": "uint256[]"
        }
      ],
      "stateMutability": "view",
      "type": "function"
    },
    {
      "inputs": [
        {
          "internalType": "uint256",
          "name": "_poolId",
          "type": "uint256"
        },
        {
          "internalType": "address",
          "name": "_user",
          "type": "address"
        }
      ],
      "name": "getUserLPAmount",
      "outputs": [
        {
          "internalType": "uint256[]",
          "name": "",
          "type": "uint256[]"
        }
      ],
      "stateMutability": "view",
      "type": "function"
    },
    {
      "inputs": [
        {
          "internalType": "uint256",
          "name": "_id",
          "type": "uint256"
        },
        {
          "internalType": "address",
          "name": "_to",
          "type": "address"
        }
      ],
      "name": "harvest",
      "outputs": [],
      "stateMutability": "nonpayable",
      "type": "function"
    },
    {
      "inputs": [
        {
          "internalType": "address",
          "name": "_policyCenter",
          "type": "address"
        },
        {
          "internalType": "address",
          "name": "_priorityPoolFactory",
          "type": "address"
        }
      ],
      "name": "initialize",
      "outputs": [],
      "stateMutability": "nonpayable",
      "type": "function"
    },
    {
      "inputs": [],
      "name": "owner",
      "outputs": [
        {
          "internalType": "address",
          "name": "",
          "type": "address"
        }
      ],
      "stateMutability": "view",
      "type": "function"
    },
    {
      "inputs": [
        {
          "internalType": "uint256",
          "name": "_id",
          "type": "uint256"
        },
        {
          "internalType": "address",
          "name": "_user",
          "type": "address"
        }
      ],
      "name": "pendingReward",
      "outputs": [
        {
          "internalType": "uint256",
          "name": "pending",
          "type": "uint256"
        }
      ],
      "stateMutability": "view",
      "type": "function"
    },
    {
      "inputs": [],
      "name": "policyCenter",
      "outputs": [
        {
          "internalType": "address",
          "name": "",
          "type": "address"
        }
      ],
      "stateMutability": "view",
      "type": "function"
    },
    {
      "inputs": [
        {
          "internalType": "uint256",
          "name": "",
          "type": "uint256"
        }
      ],
      "name": "pools",
      "outputs": [
        {
          "internalType": "uint256",
          "name": "shares",
          "type": "uint256"
        },
        {
          "internalType": "address",
          "name": "rewardToken",
          "type": "address"
        },
        {
          "internalType": "uint256",
          "name": "lastRewardTimestamp",
          "type": "uint256"
        },
        {
          "internalType": "uint256",
          "name": "accRewardPerShare",
          "type": "uint256"
        }
      ],
      "stateMutability": "view",
      "type": "function"
    },
    {
      "inputs": [
        {
          "internalType": "uint256",
          "name": "",
          "type": "uint256"
        },
        {
          "internalType": "address",
          "name": "",
          "type": "address"
        },
        {
          "internalType": "uint256",
          "name": "",
          "type": "uint256"
        }
      ],
      "name": "preWeight",
      "outputs": [
        {
          "internalType": "uint256",
          "name": "",
          "type": "uint256"
        }
      ],
      "stateMutability": "view",
      "type": "function"
    },
    {
      "inputs": [],
      "name": "priorityPoolFactory",
      "outputs": [
        {
          "internalType": "address",
          "name": "",
          "type": "address"
        }
      ],
      "stateMutability": "view",
      "type": "function"
    },
    {
      "inputs": [],
      "name": "renounceOwnership",
      "outputs": [],
      "stateMutability": "nonpayable",
      "type": "function"
    },
    {
      "inputs": [
        {
          "internalType": "uint256",
          "name": "",
          "type": "uint256"
        },
        {
          "internalType": "uint256",
          "name": "",
          "type": "uint256"
        },
        {
          "internalType": "uint256",
          "name": "",
          "type": "uint256"
        }
      ],
      "name": "speed",
      "outputs": [
        {
          "internalType": "uint256",
          "name": "",
          "type": "uint256"
        }
      ],
      "stateMutability": "view",
      "type": "function"
    },
    {
      "inputs": [
        {
          "internalType": "bytes32",
          "name": "",
          "type": "bytes32"
        }
      ],
      "name": "supported",
      "outputs": [
        {
          "internalType": "bool",
          "name": "",
          "type": "bool"
        }
      ],
      "stateMutability": "view",
      "type": "function"
    },
    {
      "inputs": [
        {
          "internalType": "uint256",
          "name": "_poolId",
          "type": "uint256"
        },
        {
          "internalType": "address",
          "name": "_token",
          "type": "address"
        }
      ],
      "name": "supportedToken",
      "outputs": [
        {
          "internalType": "bool",
          "name": "isSupported",
          "type": "bool"
        }
      ],
      "stateMutability": "view",
      "type": "function"
    },
    {
      "inputs": [
        {
          "internalType": "uint256",
          "name": "",
          "type": "uint256"
        },
        {
          "internalType": "address",
          "name": "",
          "type": "address"
        }
      ],
      "name": "tokenIndex",
      "outputs": [
        {
          "internalType": "uint256",
          "name": "",
          "type": "uint256"
        }
      ],
      "stateMutability": "view",
      "type": "function"
    },
    {
      "inputs": [
        {
          "internalType": "address",
          "name": "newOwner",
          "type": "address"
        }
      ],
      "name": "transferOwnership",
      "outputs": [],
      "stateMutability": "nonpayable",
      "type": "function"
    },
    {
      "inputs": [
        {
          "internalType": "uint256",
          "name": "_id",
          "type": "uint256"
        }
      ],
      "name": "updatePool",
      "outputs": [],
      "stateMutability": "nonpayable",
      "type": "function"
    },
    {
      "inputs": [
        {
          "internalType": "uint256",
          "name": "_id",
          "type": "uint256"
        },
        {
          "internalType": "uint256",
          "name": "_newSpeed",
          "type": "uint256"
        },
        {
          "internalType": "uint256[]",
          "name": "_years",
          "type": "uint256[]"
        },
        {
          "internalType": "uint256[]",
          "name": "_months",
          "type": "uint256[]"
        }
      ],
      "name": "updateRewardSpeed",
      "outputs": [],
      "stateMutability": "nonpayable",
      "type": "function"
    },
    {
      "inputs": [
        {
          "internalType": "uint256",
          "name": "_id",
          "type": "uint256"
        },
        {
          "internalType": "address",
          "name": "_token",
          "type": "address"
        },
        {
          "internalType": "uint256",
          "name": "_newWeight",
          "type": "uint256"
        }
      ],
      "name": "updateWeight",
      "outputs": [],
      "stateMutability": "nonpayable",
      "type": "function"
    },
    {
      "inputs": [
        {
          "internalType": "uint256",
          "name": "",
          "type": "uint256"
        },
        {
          "internalType": "address",
          "name": "",
          "type": "address"
        }
      ],
      "name": "users",
      "outputs": [
        {
          "internalType": "uint256",
          "name": "shares",
          "type": "uint256"
        },
        {
          "internalType": "uint256",
          "name": "rewardDebt",
          "type": "uint256"
        }
      ],
      "stateMutability": "view",
      "type": "function"
    },
    {
      "inputs": [
        {
          "internalType": "uint256",
          "name": "_id",
          "type": "uint256"
        },
        {
          "internalType": "address",
          "name": "_token",
          "type": "address"
        },
        {
          "internalType": "uint256",
          "name": "_amount",
          "type": "uint256"
        }
      ],
      "name": "withdraw",
      "outputs": [],
      "stateMutability": "nonpayable",
      "type": "function"
    },
    {
      "inputs": [
        {
          "internalType": "uint256",
          "name": "_id",
          "type": "uint256"
        },
        {
          "internalType": "address",
          "name": "_token",
          "type": "address"
        },
        {
          "internalType": "uint256",
          "name": "_amount",
          "type": "uint256"
        },
        {
          "internalType": "address",
          "name": "_user",
          "type": "address"
        }
      ],
      "name": "withdrawFromPolicyCenter",
      "outputs": [],
      "stateMutability": "nonpayable",
      "type": "function"
    }
  ],
  "transactionHash": "0x4d90377becc12455b3c93d2a29c18e874eb4ba82e14f3fb1389c81cb03206ee0",
  "args": [],
  "numDeployments": 1,
  "solcInputHash": "1303fa14ccf45eb151af2e41175d8f58",
  "bytecode": "0x6080806040523461001657612ba1908161001c8239f35b600080fdfe608080604052600436101561001357600080fd5b60003560e01c9081630c7394c91461126a5750806318fccc7614611182578063341922c1146110135780633593aa9214610f1e578063485cc95514610d8657806351eb05a614610d6a5780635a1635e414610d3e57806361bc221a14610d205780636f8a6e4314610cf7578063715018a614610c8f5780637193f2f014610c5e5780638071ce8f14610c175780638da5cb5b14610bea57806398969e82146108b7578063ac4afa381461085e578063b425f92614610820578063b5e12248146107f0578063b9d02df41461079c578063bc157ac114610724578063c65323f114610606578063d914cd4b1461052b578063e63697c814610512578063e8adbf2f146104e9578063eced5526146104c9578063f2fde38b14610431578063fd4ae05c146103e9578063fee0833e146103895763ffb7cf621461015357600080fd5b3461038457610161366113cd565b603354604051633a31bb7760e11b81523360048201526020936001600160a01b039290919085908290602490829087165afa8015610378576101ab9160009161034b575b50611d3a565b604051848101868152606083901b6001600160601b0319166020820152906101e081603484015b03601f1981018352826112d8565b519020806000526038855260ff60406000205416610339576000908152603885526040808220805460ff191660011790558682526035865290208054600160401b929183821015610323578161023c9160018794018155611d7b565b9490921693849183549160031b90811b9283911b16911916179055846000526035845260026040600020019081549081101561032357610286816102a19360018794018155611d7b565b90919082549060031b600019811b9283911b16911916179055565b8360005260358352604060002054916001831061030d577fe5f842de22af15b0b072daaa1cb8e135e1dcaf55dc1e7d806cbe1801ceafc74193606093600019019086600052603981526040600020846000528152816040600020556040519384528301526040820152a2005b634e487b7160e01b600052601160045260246000fd5b634e487b7160e01b600052604160045260246000fd5b60405163bf1f752f60e01b8152600490fd5b61036b9150863d8811610371575b61036381836112d8565b810190611d22565b386101a5565b503d610359565b6040513d6000823e3d90fd5b600080fd5b34610384576040366003190112610384576103a26112ac565b600435600052603760205260406000209060018060a01b03166000526020526103e56103d160406000206113f7565b604051918291602083526020830190611361565b0390f35b34610384576040366003190112610384576104026112ac565b600435600052603960205260406000209060018060a01b03166000526020526020604060002054604051908152f35b346103845760203660031901126103845761044a6112c2565b60018060a01b036104638160005460101c163314612ab2565b8116156104755761047390612aeb565b005b60405162461bcd60e51b815260206004820152602660248201527f4f776e61626c653a206e6577206f776e657220697320746865207a65726f206160448201526564647265737360d01b6064820152608490fd5b3461038457600036600319011261038457602060405164e8d4a510008152f35b34610384576000366003190112610384576032546040516001600160a01b039091168152602090f35b3461038457610473610523366113cd565b903392612128565b34610384576020366003190112610384576105446112c2565b6033546001600160a01b0390811633036105c15760345490600019821461030d577f1f1f6396247a5ba59b7b1e094ec3a8e439d4dace0c5ac4fe3ecfde3e68e03a8a926001604093019182603455826000526035602052600484600020019116908160018060a01b031982541617905582519182526020820152a1005b60405162461bcd60e51b815260206004820152601a60248201527f4f6e6c79205072696f7269747920506f6f6c20466163746f72790000000000006044820152606490fd5b34610384576024610616366113cd565b603354604051633a31bb7760e11b8152336004820152939492939260209184919082906001600160a01b03165afa8015610378577fac39f4daefcd1c76d5f04ecf5ccba4bd1758ba2e10ed24921209f47df5dabfb293610683610692926040956000916107065750611d3a565b61068c86612372565b85612a1e565b90846000526035602052826000206106f760036106ed60028401866106c7876102866106be8486611d7b565b94905495611d7b565b6106e4876106d88a60018a01611d7b565b94905493871b1c61148c565b91841b1c611505565b920191825461148c565b905582519182526020820152a2005b61071e915060203d81116103715761036381836112d8565b886101a5565b346103845760006020610747606461073b366113cd565b91828295923392611deb565b6040516323b872dd60e01b815233600482015230602482015260448101919091529384928391906001600160a01b03165af180156103785761078557005b6104739060203d81116103715761036381836112d8565b34610384576040366003190112610384576107b56112ac565b600435600052603760205260406000209060018060a01b03166000526020526040806000206002600182015491015482519182526020820152f35b3461038457604036600319011261038457602061081661080e6112ac565b600435611448565b6040519015158152f35b346103845761082e36611395565b6032549092906001600160a01b0316330361084c5761047393611deb565b604051636f2b51a560e11b8152600490fd5b346103845760203660031901126103845760043560005260356020526080604060002060038101549060018060a01b03600482015416906006600582015491015491604051938452602084015260408301526060820152f35b34610384576040366003190112610384576108d06112ac565b60006004356000526035602052604060002091603760205260406000209060018060a01b03166000526020526040600020600683015460009060058501549160018401549283610926575b602086604051908152f35b80919293949550151580610be1575b61098c575b50602094610977610981946109716003979561096b61095a6002976114d3565b64e8d4a510009a8b97015490611518565b90611497565b90611505565b049101549061148c565b04828080808061091b565b6109b161099882611879565b9093919084906109a742611879565b509590968661148c565b80610a285750505050946109716003979561096b61095a610a1760029861096b60209e99610977996109e66109819f4261148c565b9160043560005260206036905260406000209060005260205260406000209060005260205260406000205490611505565b97505050959750509450509461093a565b9450945098909660009892959698965b600119851161030d5760018501881015610bb6578a87878b8b610ac85792610a7360019593610a6e61096b9484610aa498611538565b61148c565b9060043560005260366020528d60406000209060005260205260406000209060005260205260406000205490611505565b9a5b0196600c8811610abb575b6001019699610a38565b6001988901989750610ab1565b915050898703610b9a576107b291501061038457610b9460019161096b8d610a73610b8e610b898f806004610b7d6064610b77610b34610b6d610b678c610b11610b849a61166d565b610b2d610b62610b3f8b610b39600c998a9687610b2d8a6115f8565b05906116e5565b611710565b056116cb565b93610b5c84610b56610b5084611610565b936115f8565b05611774565b90611644565b6117d9565b9661169c565b90610b2d8c6115f8565b05611829565b0590611644565b611628565b6114ed565b4261148c565b9a610aa6565b9161096b82610a73610bb1610b9495600197611c61565b6114a3565b60209a5061098198506003999193975060029650610971929550610977945061095a61096b91610a17565b50804211610935565b346103845760003660031901126103845760005460405160109190911c6001600160a01b03168152602090f35b3461038457610c25366113cd565b91600052603a60205260406000209060018060a01b03166000526020526040600020906000526020526020604060002054604051908152f35b34610384576020366003190112610384576004356000526038602052602060ff604060002054166040519015158152f35b346103845760003660031901126103845760008054601081901c6001600160a01b031690610cbe338314612ab2565b82604051927f8be0079c531659141344cd1fd0a4f28419497f9722a3daafe3b4186f6b6457e08285a362010000600160b01b0319168255f35b34610384576000366003190112610384576033546040516001600160a01b039091168152602090f35b34610384576000366003190112610384576020603454604051908152f35b3461038457610d4c36611395565b6032549092906001600160a01b0316330361084c5761047393612128565b3461038457602036600319011261038457610473600435612372565b3461038457604036600319011261038457610d9f6112c2565b610da76112ac565b6000549160ff8360081c161592838094610f11575b8015610efa575b15610e9e5760ff19811660011760005583610e8c575b506001600160a01b039081169182158015610e82575b610e7057610e0d60ff60005460081c16610e0881612a52565b612a52565b610e1633612aeb565b60018060a01b03199283603254161760325516906033541617603355610e3857005b61ff0019600054166000557f7f26b83ff96e1f2b6a682f133852f6798a09c465da95921460cefb3847402498602060405160018152a1005b60405163754a046360e11b8152600490fd5b5081811615610def565b61ffff19166101011760005583610dd9565b60405162461bcd60e51b815260206004820152602e60248201527f496e697469616c697a61626c653a20636f6e747261637420697320616c72656160448201526d191e481a5b9a5d1a585b1a5e995960921b6064820152608490fd5b50303b158015610dc35750600160ff821614610dc3565b50600160ff821610610dbc565b3461038457602080600319360112610384576004356000526035815260406000206040519182838284549283815201809285600052846000209060005b818110610ff35750505090610f719103856112d8565b600192610f8b6002610f848684016113f7565b92016113f7565b926040519586956060870191606088525180925260808701949160005b818110610fd457888703858a015288806103e58a610fc68b8b611361565b908382036040850152611361565b83516001600160a01b0316875289985095840195928401928201610fa8565b82546001600160a01b031684528894509286019260019283019201610f5b565b346103845760803660031901126103845760043567ffffffffffffffff6024356044358281116103845761104b9036906004016112fa565b91606435908111610384576110649036906004016112fa565b603354604051633a31bb7760e11b8152336004820152602094918590829060249082906001600160a01b03165afa8015610378576110a9916000916111655750611d3a565b805182510361115357805160005b81811061110657867f880d9beec00f34e7ded0fd7346510915835cfa34d3d7662d796a71b61bbbdf72878761110188610fc689606060405196879687528601526060850190611361565b0390a2005b600190876000526036875260406000206111208286611dd7565b51600052875260406000206111358287611dd7565b516000528752604060002061114b878254611497565b9055016110b7565b604051634bbeeee160e01b8152600490fd5b61117c9150863d88116103715761036381836112d8565b876101a5565b346103845760403660031901126103845760043561119e6112ac565b6034548211611258576111b082612372565b8160005260356020526040600020603760205260406000203360005260205260406000209260018401805491826111e357005b84600461122d8661120d986006611253990197611219600264e8d4a51000809d81948d5490611505565b049d019c8d549061148c565b049160018060a01b0394859101541661266d565b916040519283521691600080516020612b4c83398151915260203393a454905490611505565b049055005b604051631eccb30960e31b8152600490fd5b34610384576060366003190112610384576020906004356000526036825260406000206024356000528252604060002060443560005282526040600020548152f35b602435906001600160a01b038216820361038457565b600435906001600160a01b038216820361038457565b90601f8019910116810190811067ffffffffffffffff82111761032357604052565b9080601f830112156103845781359067ffffffffffffffff8211610323578160051b6040519360209361132f858401876112d8565b85528380860192820101928311610384578301905b828210611352575050505090565b81358152908301908301611344565b90815180825260208080930193019160005b828110611381575050505090565b835185529381019392810192600101611373565b608090600319011261038457600435906001600160a01b03602435818116810361038457916044359160643590811681036103845790565b606090600319011261038457600435906024356001600160a01b0381168103610384579060443590565b9060405191828154918282526020928383019160005283600020936000905b82821061142e5750505061142c925003836112d8565b565b855484526001958601958895509381019390910190611416565b604080516020810192835260609390931b6001600160601b031916908301529061147581605481016101d2565b519020600052603860205260ff6040600020541690565b81811061030d570390565b8119811161030d570190565b7dc22e450672894ab6cd8efb11d33f5617839a5bc7dea00c22e450672894ab811160011661030d57620151800290565b64e8d4a5100090806000190482118115151661030d570290565b6201518090806000190482118115151661030d570290565b806000190482118115151661030d570290565b8115611522570490565b634e487b7160e01b600052601260045260246000fd5b916107b2831061038457617d4b600160ff1b01811260011661030d57826004610b7d6064610b77610b8996600c610b2d6115c26115bc61159f610b849b8a6115c89f610b346115896115939261166d565b89610b2d8c6115f8565b0590617d4a19016116e5565b84610b2d610b626115af89611610565b610b5c84610b568c6115f8565b9861169c565b926115f8565b6201437019811161030d57610dd4196201437082011161030d57603b196201514482011161030d576201517f0190565b600e600160ff1b01811260011661030d57600d190190565b6002600160ff1b01811260011661030d576001190190565b62253d8c600160ff1b01811260011661030d5762253d8b190190565b600082128015600160ff1b840183121661030d576001600160ff1b03830182131661030d570390565b6112c0906000811280156001600160ff1b0383900384131661030d57600160ff1b82900383121661030d570190565b611324906000811280156001600160ff1b0383900384131661030d57600160ff1b82900383121661030d570190565b617d4a600160ff1b01811260011661030d57617d49190190565b6000811280156001600160ff1b0383900384131661030d57600160ff1b82900383121661030d570190565b6105b560008083136001600160ff1b038490048311166001166117605760017fffe9924f8d0dd7b2e6f174df9576f9de01c091c8faeb2605f522de8852b47aa88412828512161661176057500290565b634e487b7160e01b81526011600452602490fd5b600060017f0aaaaaaaaaaaaaaaaaaaaaaaaaaaaaaaaaaaaaaaaaaaaaaaaaaaaaaaaaaaaaaa831182841316166117605760017ff555555555555555555555555555555555555555555555555555555555555556831282841216166117605750600c0290565b61016f60008083136001600160ff1b038490048311166001166117605760017fffa6b6c1eb12d573186a06f9b8d9a287530217b7747d8eff4d6d83d625aae6318412828512161661176057500290565b60008082136001600160ff1b03839004600311166001166117605760017fd55555555555555555555555555555555555555555555555555555555555555683128284121616611760575060030290565b6001600160ff1b039060009062010bd990620151809004828112818503811581851316611c4d57600160ff1b938385039283821216611c395785908401129162010bd819908162253d8c93018313841516611c2557011316611c11576226496501916001936004918585830484118287131616611bfe57808512600760fd1b8612168616611bfe5762023ab194858160021b05958787850482118489131616611bd857877fffffc694f94337079d130ab45dff8e0f9ea161331bb1c93dea871de6fec83ce288128489121616611bd8578602828112818503600313811516611beb5781870360031216611bd8579084600361197693010590611644565b928184128484038813811516611b8c57848603881216611b7957868401610fa08882860482118584131616611b9f57887ffff7ced916872b020c49ba5e353f7ced916872b020c49ba5e353f7ced916872c83128584121616611b9f576119e89162164b099102059482610b7d87611710565b828112818503601f13811516611b9f57818703601f1216611b8c57601f019680888504605011848a131616611b8c57807ffe666666666666666666666666666666666666666666666666666666666666678912848a121616611b8c5761098f9788816050020590828287048b118684131616611bc55784821299837ffff29be1739a4fb805dbcd5d6c7d1f7d6fd627208942391f124ee1c3f307026884128c1616611bb25790605083611a9d93020590611644565b98600b820597828703600213821516611bb25782900360021216611b9f5781878604600c118589131616611b9f57817ff55555555555555555555555555555555555555555555555555555555555555688128589121616611b9f57611b0990600288600c029101611644565b966031600160ff1b0181128216611b9f578190603019018095046064118486131616611b8c577ffeb851eb851eb851eb851eb851eb851eb851eb851eb851eb851eb851eb851eb984128385121616611b79575050611b739291611b6e916064026116e5565b6116e5565b91909192565b634e487b7160e01b825260119052602490fd5b634e487b7160e01b835260118252602483fd5b634e487b7160e01b845260118352602484fd5b634e487b7160e01b865260118552602486fd5b634e487b7160e01b855260118452602485fd5b634e487b7160e01b835260118552602483fd5b634e487b7160e01b845260118652602484fd5b634e487b7160e01b815260118352602490fd5b634e487b7160e01b83526011600452602483fd5b634e487b7160e01b87526011600452602487fd5b634e487b7160e01b86526011600452602486fd5b634e487b7160e01b85526011600452602485fd5b90600181148015611d18575b8015611d0e575b8015611d04575b8015611cfa575b8015611cf0575b8015611ce6575b15611c9c575050601f90565b600214611ca95750601e90565b60038116159081611cd9575b8115611ccc575b5015611cc757601d90565b601c90565b6101909150061538611cbc565b6064810615159150611cb5565b50600c8114611c90565b50600a8114611c89565b5060088114611c82565b5060078114611c7b565b5060058114611c74565b5060038114611c6d565b90816020910312610384575180151581036103845790565b15611d4157565b60405162461bcd60e51b815260206004820152601260248201527113db9b1e48141c9a5bdc9a5d1e48141bdbdb60721b6044820152606490fd5b8054821015611d935760005260206000200190600090565b634e487b7160e01b600052603260045260246000fd5b8054600160401b81101561032357611dc691600182018155611d7b565b8154906000199060031b1b19169055565b8051821015611d935760209160051b010190565b9290821561206357603454841161125857611e0f90611e0985612372565b84612a1e565b91611e1b838386612075565b8360005260356020526040600020926037602052604060002060018060a01b0384166000526020526040600020946001860193845480611ff6575b5086549160011984118061030d576001850193848110611fbb575b5060018801938185549061030d57818110611f75575b50505087611f6f95611f4f611f3f8760069764e8d4a510009b97611f5497611ef560029f9c600290611ebf8f611ecc93839101611d7b565b90549060031b1c9a611d7b565b611edc8a83548360031b1c611497565b9082549060031b600019811b9283911b16911916179055565b611f09611f028989611505565b8b54611497565b8a55600052603a60205260406000209060018060a01b031660005260205260406000208260005260205285604060002055611d7b565b611edc8483548360031b1c611497565b611505565b611f6360038501918254611497565b90555491015490611505565b04910155565b91809a97949b989599969392905b61030d5781811015611fa257600190611f9b8b611da9565b018a611f83565b5096999598509396929550909390928785611f4f611e87565b909997969594939291908a5b61030d5783811015611fe75760018b91611fe08c611da9565b0190611fc7565b50909192939495969838611e71565b6120146120206120349264e8d4a5100092839160068c015490611505565b0460028b01549061148c565b048260018060a01b0360048a01541661266d565b6040519081526001600160a01b0382169081908490600080516020612b4c83398151915290602090a438611e56565b604051633a8410f160e01b8152600490fd5b909160008281526020906035825260409182822095603782528383209060018060a01b03169081845282526002848420970180546120b8575b5050505050505050565b856120c291611d7b565b90549060031b1c958352603a825283832090835281528282209084835252205491826120f2575b808080806120ae565b8083146120e95761211d926109716106ed9261211060019588611d7b565b90549060031b1c9261148c565b9055388080806120e9565b928215612063576034548411611258576121428285611448565b156123605761215084612372565b61215a8285612a1e565b90612166828287612075565b8460005260356020526040600020906037602052604060002060018060a01b03821660005260205260406000209561219e8488611d7b565b90549060031b1c861161234e576121fd94602092879289600181015487816122ea575b505060405163a9059cbb60e01b81526001600160a01b039093166004840152505060248101929092529094859190829060009082906044820190565b03926001600160a01b03165af19283156103785760029461229d611f6f946122aa9364e8d4a51000976122cb575b50612249612239828b611d7b565b611edc8683548360031b1c61148c565b87850161227361226961225c8484611d7b565b90549060031b1c86611505565b60018c015461148c565b60018b01556122986122888360018901611d7b565b611edc8783548360031b1c61148c565b611d7b565b90549060031b1c90611505565b6122b96003830191825461148c565b90556006600186015491015490611505565b6122e39060203d6020116103715761036381836112d8565b503861222b565b61231f92600261230b9261097760069564e8d4a51000968793015490611505565b048360018060a01b0360048a01541661266d565b6040519081526001600160a01b038316918291600080516020612b4c833981519152908890a4388981876121c1565b604051639a6f4aa760e01b8152600490fd5b604051630b95807b60e21b8152600490fd5b9060009180835260206035815260408085209060058201805442111561266457600383018054156126575787600584822001546123ae81611879565b509181836123bb42611879565b5095909480861115612647576123d1908661148c565b7f155555555555555555555555555555555555555555555555555555555555555581116001166126335790610a6e61240c92600c0288611497565b8061249c575050506124788a9b9c61096b7f7fa9647ec1cc14e3822b46d05a2b9d4e019bde8875c0088c46b6503d71bf17229c8a600698612485988f61248f9c9961245a61247d9a4261148c565b95845260368252848420908452815283832091835252205490611505565b6114d3565b905490611518565b9401938454611497565b80935542905551908152a2565b935097959b91935098939b978c9a969a985b600119841161261f576001908185018b10156125da57818f918a8a8f948f958f968c8c8f92801560001461254357505091889161250361096b97969594610a6e6124fc6125219c9d86611c61565b8686611538565b95845260368152848420918452528282209082528d52205490611505565b995b0199600c8b11612536575b0198976124ae565b9950809a0199809961252e565b909150979594939697146000146125c15750925050506107b291929350106125be57829161096b8b8f6125b8948f828f938f90610b8e610b89610b848361258c6125039561166d565b610b7d6064610b778b600494610b2d6115c26115bc61159f89610b39610b34600c9788610b2d8b6115f8565b99612523565b80fd5b968161096b9598612503610bb1846125b89b9a96611c61565b9199505061247d919c50600694995061248f95975061248593507f7fa9647ec1cc14e3822b46d05a2b9d4e019bde8875c0088c46b6503d71bf17229a969b92506114d3565b634e487b7160e01b8e52601160045260248efd5b634e487b7160e01b88526011600452602488fd5b50612652908661148c565b61240c565b5094955050505050429055565b50505050509050565b604080516370a0823160e01b808252306004808401919091529296956001600160a01b03909416936020939260249291858285818a5afa91821561295557600092612968575b50818111156129605750955b8851968288523085890152858885818a5afa97881561295557600098612924575b50895163a9059cbb60e01b8782019081526001600160a01b0390931685820190815260208101929092529081906040015b0390612725601f19928381018352826112d8565b8a519267ffffffffffffffff91848d0183811186821017612910578d528885527f5361666545524332303a206c6f772d6c6576656c2063616c6c206661696c656489860152893b156128ce5760009182915190828c5af190873d156128bb57503d9081116128a757918796959493916127b9936127ab898f5194601f84011601846112d8565b82523d60008984013e612997565b805180612830575b505088519586938492835230908301525afa94851561282657506000946127f3575b5050916127f0919261148c565b90565b81813d831161281f575b61280781836112d8565b8101031261281b575192506127f0386127e3565b8380fd5b503d6127fd565b513d6000823e3d90fd5b9480612843939495968301019101611d22565b15612853579083929138806127c1565b50602a9060849388519362461bcd60e51b85528401528201527f5361666545524332303a204552433230206f7065726174696f6e20646964206e6044820152691bdd081cdd58d8d9595960b21b6064820152fd5b85604188634e487b7160e01b600052526000fd5b969594936127b993509160609150612997565b8c5162461bcd60e51b81528089018a9052601d818901527f416464726573733a2063616c6c20746f206e6f6e2d636f6e74726163740000006044820152606490fd5b8760418a634e487b7160e01b600052526000fd5b90978682813d831161294e575b61293b81836112d8565b810103126125be575051966127116126e0565b503d612931565b8a513d6000823e3d90fd5b9050956126bf565b90918682813d8311612990575b61297f81836112d8565b810103126125be57505190386126b3565b503d612975565b909190156129a3575090565b8151156129b35750805190602001fd5b6040519062461bcd60e51b82528160208060048301528251928360248401526000915b848310612a055750509180604493116129f8575b601f01601f19168101030190fd5b60008382840101526129ea565b81830181015186840160440152859350918201916129d6565b612a288282611448565b1561236057600052603960205260406000209060018060a01b031660005260205260406000205490565b15612a5957565b60405162461bcd60e51b815260206004820152602b60248201527f496e697469616c697a61626c653a20636f6e7472616374206973206e6f74206960448201526a6e697469616c697a696e6760a81b6064820152608490fd5b15612ab957565b60405162461bcd60e51b815260206004820152600a60248201526927b7363c9037bbb732b960b11b6044820152606490fd5b6000549060018060a01b03808216908360101c167f8be0079c531659141344cd1fd0a4f28419497f9722a3daafe3b4186f6b6457e06000604051a362010000600160b01b031990911660109190911b62010000600160b01b03161760005556fe1ec92956b13869de207e232e60c65e35826c5e12b7fdc6d70b083b5a4fd26703a2646970667358221220bfbda81bc5467acdd53c6f92c59cb3420b6adc44818d338d2b9389b9a528b6d564736f6c634300080f0033",
  "devdoc": {
    "kind": "dev",
    "methods": {
      "addPool(address)": {
        "params": {
          "_rewardToken": "Reward token address (protocol native token)"
        }
      },
      "addToken(uint256,address,uint256)": {
        "params": {
          "_id": "Pool Id",
          "_token": "Priority pool lp token address",
          "_weight": "Weight of the token in the pool"
        }
      },
      "depositFromPolicyCenter(uint256,address,uint256,address)": {
        "params": {
          "_amount": "Amount to deposit",
          "_id": "Pool id",
          "_token": "PRI-LP token address",
          "_user": "User address"
        }
      },
      "getPoolArrays(uint256)": {
        "params": {
          "_poolId": "Pool id"
        },
        "returns": {
          "_0": "tokens  Token addresses array",
          "_1": "amounts Token amounts array",
          "_2": "weights Token weights array"
        }
      },
      "getUserLPAmount(uint256,address)": {
        "params": {
          "_poolId": "Pool id",
          "_user": "User address"
        },
        "returns": {
          "_0": "amounts Amount array of user's lp in each generation of lp token"
        }
      },
      "owner()": {
        "details": "Returns the address of the current owner."
      },
      "pendingReward(uint256,address)": {
        "params": {
          "_id": "Pool id",
          "_user": "User's address"
        },
        "returns": {
          "pending": "Pending reward in native token"
        }
      },
      "renounceOwnership()": {
        "details": "Leaves the contract without owner. It will not be possible to call `onlyOwner` functions anymore. Can only be called by the current owner. NOTE: Renouncing ownership will leave the contract without an owner, thereby removing any functionality that is only available to the owner."
      },
      "supportedToken(uint256,address)": {
        "params": {
          "_poolId": "Pool id",
          "_token": "PRI-LP token address"
        },
        "returns": {
          "isSupported": "Whether supported"
        }
      },
      "transferOwnership(address)": {
        "details": "Transfers ownership of the contract to a new account (`newOwner`). Can only be called by the current owner."
      },
      "updateRewardSpeed(uint256,uint256,uint256[],uint256[])": {
        "params": {
          "_id": "Pool id",
          "_months": "Months to be updated",
          "_newSpeed": "New speed (SCALED)",
          "_years": "Years to be updated"
        }
      },
      "updateWeight(uint256,address,uint256)": {
        "params": {
          "_id": "Pool Id",
          "_newWeight": "New weight of the token in the pool",
          "_token": "Token address"
        }
      }
    },
    "version": 1
  },
  "userdoc": {
    "kind": "user",
    "methods": {
      "addPool(address)": {
        "notice": "Register a new famring pool for priority pool"
      },
      "addToken(uint256,address,uint256)": {
        "notice": "Register Pri-LP token         Called when new generation of PRI-LP tokens are deployed         Only called from a priority pool"
      },
      "deposit(uint256,address,uint256)": {
        "notice": "Directly deposit (need approval)"
      },
      "depositFromPolicyCenter(uint256,address,uint256,address)": {
        "notice": "Deposit from Policy Center         No need for approval         Only called from policy center"
      },
      "getPoolArrays(uint256)": {
        "notice": "Get pool information arrays"
      },
      "getUserLPAmount(uint256,address)": {
        "notice": "Get a user's LP amount"
      },
      "pendingReward(uint256,address)": {
        "notice": "Pending reward"
      },
      "supportedToken(uint256,address)": {
        "notice": "Check whether a token is supported in a certain pool"
      },
      "updateRewardSpeed(uint256,uint256,uint256[],uint256[])": {
        "notice": "Update reward speed when new premium income         Only called from a priority pool"
      },
      "updateWeight(uint256,address,uint256)": {
        "notice": "Update the weight of a token in a given pool         Only called from a priority pool"
      }
    },
    "notice": "Weighted Farming Pool         Weighted farming pool support multiple tokens to earn the same reward         Different tokens will have different weights when calculating rewards         Native token premiums will be transferred to this pool         The distribution is in the way of \"farming\" but with multiple tokens         Different generations of PRI-LP-1-JOE-G1         About the scales of variables:         - weight            SCALE         - share             SCALE         - accRewardPerShare SCALE * SCALE / SCALE = SCALE         - rewardDebt        SCALE * SCALE / SCALE = SCALE         So pendingReward = ((share * acc) / SCALE - debt) / SCALE",
    "version": 1
  },
  "storageLayout": {
    "storage": [
      {
        "astId": 184,
        "contract": "src/reward/farming/WeightedFarmingPool.sol:WeightedFarmingPool",
        "label": "_initialized",
        "offset": 0,
        "slot": "0",
        "type": "t_uint8"
      },
      {
        "astId": 187,
        "contract": "src/reward/farming/WeightedFarmingPool.sol:WeightedFarmingPool",
        "label": "_initializing",
        "offset": 1,
        "slot": "0",
        "type": "t_bool"
      },
      {
        "astId": 17723,
        "contract": "src/reward/farming/WeightedFarmingPool.sol:WeightedFarmingPool",
        "label": "_owner",
        "offset": 2,
        "slot": "0",
        "type": "t_address"
      },
      {
        "astId": 17830,
        "contract": "src/reward/farming/WeightedFarmingPool.sol:WeightedFarmingPool",
        "label": "__gap",
        "offset": 0,
        "slot": "1",
        "type": "t_array(t_uint256)49_storage"
      },
      {
        "astId": 17156,
        "contract": "src/reward/farming/WeightedFarmingPool.sol:WeightedFarmingPool",
        "label": "policyCenter",
        "offset": 0,
        "slot": "50",
        "type": "t_address"
      },
      {
        "astId": 17158,
        "contract": "src/reward/farming/WeightedFarmingPool.sol:WeightedFarmingPool",
        "label": "priorityPoolFactory",
        "offset": 0,
        "slot": "51",
        "type": "t_address"
      },
      {
        "astId": 15389,
        "contract": "src/reward/farming/WeightedFarmingPool.sol:WeightedFarmingPool",
        "label": "counter",
        "offset": 0,
        "slot": "52",
        "type": "t_uint256"
      },
      {
        "astId": 15412,
        "contract": "src/reward/farming/WeightedFarmingPool.sol:WeightedFarmingPool",
        "label": "pools",
        "offset": 0,
        "slot": "53",
        "type": "t_mapping(t_uint256,t_struct(PoolInfo)15407_storage)"
      },
      {
        "astId": 15420,
        "contract": "src/reward/farming/WeightedFarmingPool.sol:WeightedFarmingPool",
        "label": "speed",
        "offset": 0,
        "slot": "54",
        "type": "t_mapping(t_uint256,t_mapping(t_uint256,t_mapping(t_uint256,t_uint256)))"
      },
      {
        "astId": 15435,
        "contract": "src/reward/farming/WeightedFarmingPool.sol:WeightedFarmingPool",
        "label": "users",
        "offset": 0,
        "slot": "55",
        "type": "t_mapping(t_uint256,t_mapping(t_address,t_struct(UserInfo)15428_storage))"
      },
      {
        "astId": 15439,
        "contract": "src/reward/farming/WeightedFarmingPool.sol:WeightedFarmingPool",
        "label": "supported",
        "offset": 0,
        "slot": "56",
        "type": "t_mapping(t_bytes32,t_bool)"
      },
      {
        "astId": 15445,
        "contract": "src/reward/farming/WeightedFarmingPool.sol:WeightedFarmingPool",
        "label": "tokenIndex",
        "offset": 0,
        "slot": "57",
        "type": "t_mapping(t_uint256,t_mapping(t_address,t_uint256))"
      },
      {
        "astId": 15453,
        "contract": "src/reward/farming/WeightedFarmingPool.sol:WeightedFarmingPool",
        "label": "preWeight",
        "offset": 0,
        "slot": "58",
        "type": "t_mapping(t_uint256,t_mapping(t_address,t_mapping(t_uint256,t_uint256)))"
      }
    ],
    "types": {
      "t_address": {
        "encoding": "inplace",
        "label": "address",
        "numberOfBytes": "20"
      },
      "t_array(t_address)dyn_storage": {
        "base": "t_address",
        "encoding": "dynamic_array",
        "label": "address[]",
        "numberOfBytes": "32"
      },
      "t_array(t_uint256)49_storage": {
        "base": "t_uint256",
        "encoding": "inplace",
        "label": "uint256[49]",
        "numberOfBytes": "1568"
      },
      "t_array(t_uint256)dyn_storage": {
        "base": "t_uint256",
        "encoding": "dynamic_array",
        "label": "uint256[]",
        "numberOfBytes": "32"
      },
      "t_bool": {
        "encoding": "inplace",
        "label": "bool",
        "numberOfBytes": "1"
      },
      "t_bytes32": {
        "encoding": "inplace",
        "label": "bytes32",
        "numberOfBytes": "32"
      },
      "t_mapping(t_address,t_mapping(t_uint256,t_uint256))": {
        "encoding": "mapping",
        "key": "t_address",
        "label": "mapping(address => mapping(uint256 => uint256))",
        "numberOfBytes": "32",
        "value": "t_mapping(t_uint256,t_uint256)"
      },
      "t_mapping(t_address,t_struct(UserInfo)15428_storage)": {
        "encoding": "mapping",
        "key": "t_address",
        "label": "mapping(address => struct WeightedFarmingPool.UserInfo)",
        "numberOfBytes": "32",
        "value": "t_struct(UserInfo)15428_storage"
      },
      "t_mapping(t_address,t_uint256)": {
        "encoding": "mapping",
        "key": "t_address",
        "label": "mapping(address => uint256)",
        "numberOfBytes": "32",
        "value": "t_uint256"
      },
      "t_mapping(t_bytes32,t_bool)": {
        "encoding": "mapping",
        "key": "t_bytes32",
        "label": "mapping(bytes32 => bool)",
        "numberOfBytes": "32",
        "value": "t_bool"
      },
      "t_mapping(t_uint256,t_mapping(t_address,t_mapping(t_uint256,t_uint256)))": {
        "encoding": "mapping",
        "key": "t_uint256",
        "label": "mapping(uint256 => mapping(address => mapping(uint256 => uint256)))",
        "numberOfBytes": "32",
        "value": "t_mapping(t_address,t_mapping(t_uint256,t_uint256))"
      },
      "t_mapping(t_uint256,t_mapping(t_address,t_struct(UserInfo)15428_storage))": {
        "encoding": "mapping",
        "key": "t_uint256",
        "label": "mapping(uint256 => mapping(address => struct WeightedFarmingPool.UserInfo))",
        "numberOfBytes": "32",
        "value": "t_mapping(t_address,t_struct(UserInfo)15428_storage)"
      },
      "t_mapping(t_uint256,t_mapping(t_address,t_uint256))": {
        "encoding": "mapping",
        "key": "t_uint256",
        "label": "mapping(uint256 => mapping(address => uint256))",
        "numberOfBytes": "32",
        "value": "t_mapping(t_address,t_uint256)"
      },
      "t_mapping(t_uint256,t_mapping(t_uint256,t_mapping(t_uint256,t_uint256)))": {
        "encoding": "mapping",
        "key": "t_uint256",
        "label": "mapping(uint256 => mapping(uint256 => mapping(uint256 => uint256)))",
        "numberOfBytes": "32",
        "value": "t_mapping(t_uint256,t_mapping(t_uint256,t_uint256))"
      },
      "t_mapping(t_uint256,t_mapping(t_uint256,t_uint256))": {
        "encoding": "mapping",
        "key": "t_uint256",
        "label": "mapping(uint256 => mapping(uint256 => uint256))",
        "numberOfBytes": "32",
        "value": "t_mapping(t_uint256,t_uint256)"
      },
      "t_mapping(t_uint256,t_struct(PoolInfo)15407_storage)": {
        "encoding": "mapping",
        "key": "t_uint256",
        "label": "mapping(uint256 => struct WeightedFarmingPool.PoolInfo)",
        "numberOfBytes": "32",
        "value": "t_struct(PoolInfo)15407_storage"
      },
      "t_mapping(t_uint256,t_uint256)": {
        "encoding": "mapping",
        "key": "t_uint256",
        "label": "mapping(uint256 => uint256)",
        "numberOfBytes": "32",
        "value": "t_uint256"
      },
      "t_struct(PoolInfo)15407_storage": {
        "encoding": "inplace",
        "label": "struct WeightedFarmingPool.PoolInfo",
        "members": [
          {
            "astId": 15392,
            "contract": "src/reward/farming/WeightedFarmingPool.sol:WeightedFarmingPool",
            "label": "tokens",
            "offset": 0,
            "slot": "0",
            "type": "t_array(t_address)dyn_storage"
          },
          {
            "astId": 15395,
            "contract": "src/reward/farming/WeightedFarmingPool.sol:WeightedFarmingPool",
            "label": "amount",
            "offset": 0,
            "slot": "1",
            "type": "t_array(t_uint256)dyn_storage"
          },
          {
            "astId": 15398,
            "contract": "src/reward/farming/WeightedFarmingPool.sol:WeightedFarmingPool",
            "label": "weight",
            "offset": 0,
            "slot": "2",
            "type": "t_array(t_uint256)dyn_storage"
          },
          {
            "astId": 15400,
            "contract": "src/reward/farming/WeightedFarmingPool.sol:WeightedFarmingPool",
            "label": "shares",
            "offset": 0,
            "slot": "3",
            "type": "t_uint256"
          },
          {
            "astId": 15402,
            "contract": "src/reward/farming/WeightedFarmingPool.sol:WeightedFarmingPool",
            "label": "rewardToken",
            "offset": 0,
            "slot": "4",
            "type": "t_address"
          },
          {
            "astId": 15404,
            "contract": "src/reward/farming/WeightedFarmingPool.sol:WeightedFarmingPool",
            "label": "lastRewardTimestamp",
            "offset": 0,
            "slot": "5",
            "type": "t_uint256"
          },
          {
            "astId": 15406,
            "contract": "src/reward/farming/WeightedFarmingPool.sol:WeightedFarmingPool",
            "label": "accRewardPerShare",
            "offset": 0,
            "slot": "6",
            "type": "t_uint256"
          }
        ],
        "numberOfBytes": "224"
      },
      "t_struct(UserInfo)15428_storage": {
        "encoding": "inplace",
        "label": "struct WeightedFarmingPool.UserInfo",
        "members": [
          {
            "astId": 15423,
            "contract": "src/reward/farming/WeightedFarmingPool.sol:WeightedFarmingPool",
            "label": "amount",
            "offset": 0,
            "slot": "0",
            "type": "t_array(t_uint256)dyn_storage"
          },
          {
            "astId": 15425,
            "contract": "src/reward/farming/WeightedFarmingPool.sol:WeightedFarmingPool",
            "label": "shares",
            "offset": 0,
            "slot": "1",
            "type": "t_uint256"
          },
          {
            "astId": 15427,
            "contract": "src/reward/farming/WeightedFarmingPool.sol:WeightedFarmingPool",
            "label": "rewardDebt",
            "offset": 0,
            "slot": "2",
            "type": "t_uint256"
          }
        ],
        "numberOfBytes": "96"
      },
      "t_uint256": {
        "encoding": "inplace",
        "label": "uint256",
        "numberOfBytes": "32"
      },
      "t_uint8": {
        "encoding": "inplace",
        "label": "uint8",
        "numberOfBytes": "1"
      }
    }
  }
}