{
  "address": "0x8248200cFA52c34fba9786A49d4532f19bC4A85D",
  "abi": [
    {
      "inputs": [],
      "name": "PolicyCenter__AlreadyClaimedPayout",
      "type": "error"
    },
    {
      "inputs": [],
      "name": "PolicyCenter__BadLength",
      "type": "error"
    },
    {
      "inputs": [],
      "name": "PolicyCenter__InsufficientCapacity",
      "type": "error"
    },
    {
      "inputs": [],
      "name": "PolicyCenter__InvalidPremiumSplit",
      "type": "error"
    },
    {
      "inputs": [],
      "name": "PolicyCenter__NoExchange",
      "type": "error"
    },
    {
      "inputs": [],
      "name": "PolicyCenter__NoLiquidity",
      "type": "error"
    },
    {
      "inputs": [],
      "name": "PolicyCenter__NoPayout",
      "type": "error"
    },
    {
      "inputs": [],
      "name": "PolicyCenter__NonExistentPool",
      "type": "error"
    },
    {
      "inputs": [],
      "name": "PolicyCenter__OnlyPriorityPoolFactory",
      "type": "error"
    },
    {
      "inputs": [],
      "name": "PolicyCenter__OnlyTreasury",
      "type": "error"
    },
    {
      "inputs": [],
      "name": "PolicyCenter__PoolPaused",
      "type": "error"
    },
    {
      "inputs": [],
      "name": "PolicyCenter__PremiumTooHigh",
      "type": "error"
    },
    {
      "inputs": [],
      "name": "PolicyCenter__WrongPath",
      "type": "error"
    },
    {
      "inputs": [],
      "name": "PolicyCenter__WrongPriorityPoolID",
      "type": "error"
    },
    {
      "inputs": [],
      "name": "PolicyCenter__ZeroAmount",
      "type": "error"
    },
    {
      "inputs": [],
      "name": "PolicyCenter__ZeroPremium",
      "type": "error"
    },
    {
      "anonymous": false,
      "inputs": [
        {
          "indexed": true,
          "internalType": "address",
          "name": "buyer",
          "type": "address"
        },
        {
          "indexed": true,
          "internalType": "uint256",
          "name": "poolId",
          "type": "uint256"
        },
        {
          "indexed": false,
          "internalType": "uint256",
          "name": "coverDuration",
          "type": "uint256"
        },
        {
          "indexed": false,
          "internalType": "uint256",
          "name": "coverAmount",
          "type": "uint256"
        },
        {
          "indexed": false,
          "internalType": "uint256",
          "name": "premiumInShield",
          "type": "uint256"
        }
      ],
      "name": "CoverBought",
      "type": "event"
    },
    {
      "anonymous": false,
      "inputs": [
        {
          "indexed": false,
          "internalType": "uint8",
          "name": "version",
          "type": "uint8"
        }
      ],
      "name": "Initialized",
      "type": "event"
    },
    {
      "anonymous": false,
      "inputs": [
        {
          "indexed": true,
          "internalType": "address",
          "name": "user",
          "type": "address"
        },
        {
          "indexed": false,
          "internalType": "uint256",
          "name": "amount",
          "type": "uint256"
        }
      ],
      "name": "LiquidityProvided",
      "type": "event"
    },
    {
      "anonymous": false,
      "inputs": [
        {
          "indexed": true,
          "internalType": "address",
          "name": "user",
          "type": "address"
        },
        {
          "indexed": false,
          "internalType": "uint256",
          "name": "amount",
          "type": "uint256"
        }
      ],
      "name": "LiquidityRemoved",
      "type": "event"
    },
    {
      "anonymous": false,
      "inputs": [
        {
          "indexed": true,
          "internalType": "address",
          "name": "user",
          "type": "address"
        },
        {
          "indexed": true,
          "internalType": "uint256",
          "name": "poolId",
          "type": "uint256"
        },
        {
          "indexed": false,
          "internalType": "uint256",
          "name": "amount",
          "type": "uint256"
        }
      ],
      "name": "LiquidityStaked",
      "type": "event"
    },
    {
      "anonymous": false,
      "inputs": [
        {
          "indexed": true,
          "internalType": "address",
          "name": "user",
          "type": "address"
        },
        {
          "indexed": true,
          "internalType": "uint256",
          "name": "poolId",
          "type": "uint256"
        },
        {
          "indexed": false,
          "internalType": "uint256",
          "name": "amount",
          "type": "uint256"
        }
      ],
      "name": "LiquidityStakedWithoutFarming",
      "type": "event"
    },
    {
      "anonymous": false,
      "inputs": [
        {
          "indexed": true,
          "internalType": "address",
          "name": "user",
          "type": "address"
        },
        {
          "indexed": true,
          "internalType": "uint256",
          "name": "poolId",
          "type": "uint256"
        },
        {
          "indexed": false,
          "internalType": "address",
          "name": "priorityLP",
          "type": "address"
        },
        {
          "indexed": false,
          "internalType": "uint256",
          "name": "amount",
          "type": "uint256"
        }
      ],
      "name": "LiquidityUnstaked",
      "type": "event"
    },
    {
      "anonymous": false,
      "inputs": [
        {
          "indexed": true,
          "internalType": "address",
          "name": "user",
          "type": "address"
        },
        {
          "indexed": true,
          "internalType": "uint256",
          "name": "poolId",
          "type": "uint256"
        },
        {
          "indexed": false,
          "internalType": "address",
          "name": "priorityLP",
          "type": "address"
        },
        {
          "indexed": false,
          "internalType": "uint256",
          "name": "amount",
          "type": "uint256"
        }
      ],
      "name": "LiquidityUnstakedWithoutFarming",
      "type": "event"
    },
    {
      "anonymous": false,
      "inputs": [
        {
          "indexed": true,
          "internalType": "address",
          "name": "previousOwner",
          "type": "address"
        },
        {
          "indexed": true,
          "internalType": "address",
          "name": "newOwner",
          "type": "address"
        }
      ],
      "name": "OwnershipTransferred",
      "type": "event"
    },
    {
      "anonymous": false,
      "inputs": [
        {
          "indexed": true,
          "internalType": "address",
          "name": "user",
          "type": "address"
        },
        {
          "indexed": false,
          "internalType": "uint256",
          "name": "amount",
          "type": "uint256"
        }
      ],
      "name": "PayoutClaimed",
      "type": "event"
    },
    {
      "anonymous": false,
      "inputs": [
        {
          "indexed": false,
          "internalType": "uint256",
          "name": "toPriority",
          "type": "uint256"
        },
        {
          "indexed": false,
          "internalType": "uint256",
          "name": "toProtection",
          "type": "uint256"
        },
        {
          "indexed": false,
          "internalType": "uint256",
          "name": "toTreasury",
          "type": "uint256"
        }
      ],
      "name": "PremiumSplitted",
      "type": "event"
    },
    {
      "anonymous": false,
      "inputs": [
        {
          "indexed": false,
          "internalType": "address",
          "name": "fromToken",
          "type": "address"
        },
        {
          "indexed": false,
          "internalType": "uint256",
          "name": "amount",
          "type": "uint256"
        },
        {
          "indexed": false,
          "internalType": "uint256",
          "name": "received",
          "type": "uint256"
        }
      ],
      "name": "PremiumSwapped",
      "type": "event"
    },
    {
      "inputs": [],
      "name": "USDC",
      "outputs": [
        {
          "internalType": "address",
          "name": "",
          "type": "address"
        }
      ],
      "stateMutability": "view",
      "type": "function"
    },
    {
      "inputs": [
        {
          "internalType": "address",
          "name": "_token",
          "type": "address"
        }
      ],
      "name": "approvePoolToken",
      "outputs": [],
      "stateMutability": "nonpayable",
      "type": "function"
    },
    {
      "inputs": [
        {
          "internalType": "uint256",
          "name": "_poolId",
          "type": "uint256"
        },
        {
          "internalType": "uint256",
          "name": "_coverAmount",
          "type": "uint256"
        },
        {
          "internalType": "uint256",
          "name": "_coverDuration",
          "type": "uint256"
        },
        {
          "internalType": "uint256",
          "name": "_maxPayment",
          "type": "uint256"
        },
        {
          "internalType": "address[]",
          "name": "path",
          "type": "address[]"
        }
      ],
      "name": "buyCover",
      "outputs": [
        {
          "internalType": "address",
          "name": "",
          "type": "address"
        }
      ],
      "stateMutability": "nonpayable",
      "type": "function"
    },
    {
      "inputs": [
        {
          "internalType": "uint256",
          "name": "_poolId",
          "type": "uint256"
        },
        {
          "internalType": "address",
          "name": "_crToken",
          "type": "address"
        },
        {
          "internalType": "uint256",
          "name": "_generation",
          "type": "uint256"
        }
      ],
      "name": "claimPayout",
      "outputs": [],
      "stateMutability": "nonpayable",
      "type": "function"
    },
    {
      "inputs": [],
      "name": "coverRightTokenFactory",
      "outputs": [
        {
          "internalType": "address",
          "name": "",
          "type": "address"
        }
      ],
      "stateMutability": "view",
      "type": "function"
    },
    {
      "inputs": [
        {
          "internalType": "uint256",
          "name": "_poolId",
          "type": "uint256"
        }
      ],
      "name": "currentLPAddress",
      "outputs": [
        {
          "internalType": "address",
          "name": "lpAddress",
          "type": "address"
        }
      ],
      "stateMutability": "view",
      "type": "function"
    },
    {
      "inputs": [],
      "name": "exchange",
      "outputs": [
        {
          "internalType": "address",
          "name": "",
          "type": "address"
        }
      ],
      "stateMutability": "view",
      "type": "function"
    },
    {
      "inputs": [
        {
          "internalType": "address",
          "name": "_deg",
          "type": "address"
        },
        {
          "internalType": "address",
          "name": "_veDeg",
          "type": "address"
        },
        {
          "internalType": "address",
          "name": "_shield",
          "type": "address"
        },
        {
          "internalType": "address",
          "name": "_protectionPool",
          "type": "address"
        }
      ],
      "name": "initialize",
      "outputs": [],
      "stateMutability": "nonpayable",
      "type": "function"
    },
    {
      "inputs": [],
      "name": "owner",
      "outputs": [
        {
          "internalType": "address",
          "name": "",
          "type": "address"
        }
      ],
      "stateMutability": "view",
      "type": "function"
    },
    {
      "inputs": [],
      "name": "payoutPool",
      "outputs": [
        {
          "internalType": "address",
          "name": "",
          "type": "address"
        }
      ],
      "stateMutability": "view",
      "type": "function"
    },
    {
      "inputs": [],
      "name": "priceGetter",
      "outputs": [
        {
          "internalType": "address",
          "name": "",
          "type": "address"
        }
      ],
      "stateMutability": "view",
      "type": "function"
    },
    {
      "inputs": [],
      "name": "priorityPoolFactory",
      "outputs": [
        {
          "internalType": "address",
          "name": "",
          "type": "address"
        }
      ],
      "stateMutability": "view",
      "type": "function"
    },
    {
      "inputs": [
        {
          "internalType": "uint256",
          "name": "",
          "type": "uint256"
        }
      ],
      "name": "priorityPools",
      "outputs": [
        {
          "internalType": "address",
          "name": "",
          "type": "address"
        }
      ],
      "stateMutability": "view",
      "type": "function"
    },
    {
      "inputs": [],
      "name": "protectionPool",
      "outputs": [
        {
          "internalType": "address",
          "name": "",
          "type": "address"
        }
      ],
      "stateMutability": "view",
      "type": "function"
    },
    {
      "inputs": [
        {
          "internalType": "uint256",
          "name": "_amount",
          "type": "uint256"
        }
      ],
      "name": "provideLiquidity",
      "outputs": [],
      "stateMutability": "nonpayable",
      "type": "function"
    },
    {
      "inputs": [
        {
          "internalType": "uint256",
          "name": "_amount",
          "type": "uint256"
        }
      ],
      "name": "removeLiquidity",
      "outputs": [],
      "stateMutability": "nonpayable",
      "type": "function"
    },
    {
      "inputs": [],
      "name": "renounceOwnership",
      "outputs": [],
      "stateMutability": "nonpayable",
      "type": "function"
    },
    {
      "inputs": [
        {
          "internalType": "address",
          "name": "_coverRightTokenFactory",
          "type": "address"
        }
      ],
      "name": "setCoverRightTokenFactory",
      "outputs": [],
      "stateMutability": "nonpayable",
      "type": "function"
    },
    {
      "inputs": [
        {
          "internalType": "address",
          "name": "_exchange",
          "type": "address"
        }
      ],
      "name": "setExchange",
      "outputs": [],
      "stateMutability": "nonpayable",
      "type": "function"
    },
    {
      "inputs": [
        {
          "internalType": "address",
          "name": "_payoutPool",
          "type": "address"
        }
      ],
      "name": "setPayoutPool",
      "outputs": [],
      "stateMutability": "nonpayable",
      "type": "function"
    },
    {
      "inputs": [
        {
          "internalType": "address",
          "name": "_priceGetter",
          "type": "address"
        }
      ],
      "name": "setPriceGetter",
      "outputs": [],
      "stateMutability": "nonpayable",
      "type": "function"
    },
    {
      "inputs": [
        {
          "internalType": "address",
          "name": "_priorityPoolFactory",
          "type": "address"
        }
      ],
      "name": "setPriorityPoolFactory",
      "outputs": [],
      "stateMutability": "nonpayable",
      "type": "function"
    },
    {
      "inputs": [
        {
          "internalType": "address",
          "name": "_protectionPool",
          "type": "address"
        }
      ],
      "name": "setProtectionPool",
      "outputs": [],
      "stateMutability": "nonpayable",
      "type": "function"
    },
    {
      "inputs": [
        {
          "internalType": "address",
          "name": "_treasury",
          "type": "address"
        }
      ],
      "name": "setTreasury",
      "outputs": [],
      "stateMutability": "nonpayable",
      "type": "function"
    },
    {
      "inputs": [
        {
          "internalType": "address",
          "name": "_weightedFarmingPool",
          "type": "address"
        }
      ],
      "name": "setWeightedFarmingPool",
      "outputs": [],
      "stateMutability": "nonpayable",
      "type": "function"
    },
    {
      "inputs": [
        {
          "internalType": "uint256",
          "name": "_poolId",
          "type": "uint256"
        },
        {
          "internalType": "uint256",
          "name": "_amount",
          "type": "uint256"
        }
      ],
      "name": "stakeLiquidity",
      "outputs": [],
      "stateMutability": "nonpayable",
      "type": "function"
    },
    {
      "inputs": [
        {
          "internalType": "uint256",
          "name": "_poolId",
          "type": "uint256"
        },
        {
          "internalType": "uint256",
          "name": "_amount",
          "type": "uint256"
        }
      ],
      "name": "stakeLiquidityWithoutFarming",
      "outputs": [],
      "stateMutability": "nonpayable",
      "type": "function"
    },
    {
      "inputs": [
        {
          "internalType": "address",
          "name": "_pool",
          "type": "address"
        },
        {
          "internalType": "address",
          "name": "_token",
          "type": "address"
        },
        {
          "internalType": "uint256",
          "name": "_poolId",
          "type": "uint256"
        }
      ],
      "name": "storePoolInformation",
      "outputs": [],
      "stateMutability": "nonpayable",
      "type": "function"
    },
    {
      "inputs": [
        {
          "internalType": "uint256",
          "name": "",
          "type": "uint256"
        }
      ],
      "name": "tokenByPoolId",
      "outputs": [
        {
          "internalType": "address",
          "name": "",
          "type": "address"
        }
      ],
      "stateMutability": "view",
      "type": "function"
    },
    {
      "inputs": [
        {
          "internalType": "address",
          "name": "newOwner",
          "type": "address"
        }
      ],
      "name": "transferOwnership",
      "outputs": [],
      "stateMutability": "nonpayable",
      "type": "function"
    },
    {
      "inputs": [],
      "name": "treasury",
      "outputs": [
        {
          "internalType": "address",
          "name": "",
          "type": "address"
        }
      ],
      "stateMutability": "view",
      "type": "function"
    },
    {
      "inputs": [
        {
          "internalType": "uint256",
          "name": "_poolId",
          "type": "uint256"
        },
        {
          "internalType": "address",
          "name": "_priorityLP",
          "type": "address"
        },
        {
          "internalType": "uint256",
          "name": "_amount",
          "type": "uint256"
        }
      ],
      "name": "unstakeLiquidity",
      "outputs": [],
      "stateMutability": "nonpayable",
      "type": "function"
    },
    {
      "inputs": [
        {
          "internalType": "uint256",
          "name": "_poolId",
          "type": "uint256"
        },
        {
          "internalType": "address",
          "name": "_priorityLP",
          "type": "address"
        },
        {
          "internalType": "uint256",
          "name": "_amount",
          "type": "uint256"
        }
      ],
      "name": "unstakeLiquidityWithoutFarming",
      "outputs": [],
      "stateMutability": "nonpayable",
      "type": "function"
    },
    {
      "inputs": [],
      "name": "weightedFarmingPool",
      "outputs": [
        {
          "internalType": "address",
          "name": "",
          "type": "address"
        }
      ],
      "stateMutability": "view",
      "type": "function"
    }
  ],
  "transactionHash": "0x9b7cde9f5df5a4219ef733eb209f383f6782d49b667ea023a783ec020fc41708",
  "args": [],
  "numDeployments": 2,
  "solcInputHash": "4af3889f4809028ef3b90e1b81ad9a59",
  "bytecode": "0x6080806040523461001657613540908161001c8239f35b600080fdfe6080604052600436101561001257600080fd5b6000803560e01c80630121cff514612661578063056d7e581461262e578063298d4dd0146125e557806339827304146125415780633f81ff26146124f85780634ea4c6b31461229a57806358bf0f2c1461225157806361d027b3146122285780636273106a146121ff57806367b1f5df146121b657806367c0dd821461202757806367e03b5414611ffe5780636c1b700f14611fd55780636f8a6e4314611fac578063715018a614611f3d57806389a3027114611f0e5780638da5cb5b14611ee35780639c8f9f2314611e2c578063a8bf604d14611df3578063aa139d5b14611daa578063ab07211e14611c0f578063ad35e1dc14611bc6578063b567dc6a14611b9d578063b6cccdd014611afa578063bee7fd9214610b07578063bef1e500146107f1578063c2260f481461069a578063ceed1b9014610671578063d2f7265a14610648578063eb521a4c14610507578063f02bbc52146104d4578063f0f442601461048b578063f2fde38b146103f05763f8c8765e1461019357600080fd5b346103ed5760803660031901126103ed576101ac6126aa565b6101b46126c0565b6001600160a01b0360443581811693908490036103e857606435908282168092036103e857855460ff8160081c1615948580966103db575b80156103c4575b156103685760ff1982166001178855849186610357575b5061022460ff895460081c1661021f81612bdb565b612bdb565b61022d336134aa565b61023d60ff895460081c16612bdb565b8160018060a01b031993168360325416176032551681603354161760335584816034541617603455858052602094603d8652604087208383825416179055603e86526040872090828254161790556035541617603555603454166040519063095ea7b360e01b82526004820152600019602482015282816044818773b97ef9ef8734c71904d8002f8b6bc66dd9c48a6e5af1801561034c5761031f575b506102e6575b50604051f35b7f7f26b83ff96e1f2b6a682f133852f6798a09c465da95921460cefb38474024989061ff0019835416835560405160018152a1386102e0565b61033e90833d8511610345575b6103368183612744565b81019061277c565b50386102da565b503d61032c565b6040513d86823e3d90fd5b61ffff19166101011788553861020a565b60405162461bcd60e51b815260206004820152602e60248201527f496e697469616c697a61626c653a20636f6e747261637420697320616c72656160448201526d191e481a5b9a5d1a585b1a5e995960921b6064820152608490fd5b50303b1580156101f35750600160ff8316146101f3565b50600160ff8316106101ec565b600080fd5b80fd5b50346103ed5760203660031901126103ed5761040a6126aa565b60018060a01b0361042281845460101c1633146127c3565b81161561043757610432906134aa565b604051f35b60405162461bcd60e51b815260206004820152602660248201527f4f776e61626c653a206e6577206f776e657220697320746865207a65726f206160448201526564647265737360d01b6064820152608490fd5b50346103ed5760203660031901126103ed576104a56126aa565b60018060a01b03906104be82845460101c1633146127c3565b1660018060a01b0319603c541617603c55604051f35b50346103ed5760203660031901126103ed576020906004358152603e8252604060018060a01b0391205416604051908152f35b50346103ed5760203660031901126103ed576004358015610636576035546001600160a01b03908116803b15610632576040516344abf1a960e01b81526004810184905233602482015290849081908390604490829084905af191821561062557849261060a575b5050602090826105a093603454169060355416866040518096819582946323b872dd60e01b845233600485016127fc565b03925af180156105ff576105e1575b506040519081527fccb2ae3a2936bf4c94fa4e12cdf0cdad6ed0e4888a044cef89afa60f2e4b92d360203392a2604051f35b6105f89060203d8111610345576103368183612744565b50386105af565b6040513d85823e3d90fd5b610615919250612716565b6106215781833861056f565b8280fd5b50604051903d90823e3d90fd5b8380fd5b604051631613633b60e01b8152600490fd5b50346103ed57806003193601126103ed57603a546040516001600160a01b039091168152602090f35b50346103ed57806003193601126103ed576036546040516001600160a01b039091168152602090f35b50346103ed576106a9366126ec565b82156107df57828452603d60205260408420546001600160a01b03908116156107df578115610636578490848252603d60205280604083205416803b15610621576040516301733ea560e41b81526001600160a01b0386166004820152602481018590523360448201529083908290606490829084905af19081156105ff5783916107cb575b505060355416803b156107c757818091604460405180948193630dfa376d60e01b83528160048401528860248401525af180156107bc576107a8575b50506107a07fe44f6895444d7e27100c9f3a39dbf225380f26b7b7ad7cf0cebff9f7e00d5ab091604051918291339583612794565b0390a3604051f35b6107b190612716565b61063257833861076b565b6040513d84823e3d90fd5b5080fd5b6107d490612716565b6107c757813861072f565b604051635824d49b60e01b8152600490fd5b50346103ed57610800366126ec565b909180156107df57808452603d602090815260408520546001600160a01b0391908216156107df578594602494868460375416604051978880926315895f4760e31b82528960048301525afa908115610afc5787968792610ad4575b50604085608481603b54169583519a8b938492631357a41960e11b845233600485015216978860248401528b60448401528660648401525af1968715610a955788908998610aa0575b506040519081527fec68461f5d4cc45c89e914cb8826a966c73dd35e5f97815ece0a01ffa4a025a6853392a2866108dd575b87604051f35b83600493604051948580926370c264df60e11b82525afa928315610a95578893610a5d575b509061090f88939261290b565b8661091e620151808504612d0b565b5061092d848785999499612a16565b96898816156109a6575b5050505050505090501691823b156109a15760405163020da84160e61b8152600481019290925233602483015260448201529082908290606490829084905af180156107bc5761098d575b8080808080806108d7565b61099690612716565b6103ed578038610982565b505050fd5b88969750906109c06109ba6109d0936133e7565b916133e7565b6109c9866133e7565b918761291a565b936109f789603854169460405198899788968795636c1020a160e01b8752600487016129dc565b03925af1918215610a52578692610a18575b50508038808086898280610937565b90809250813d8311610a4b575b610a2f8183612744565b81010312610a4757610a40906127af565b3880610a09565b8480fd5b503d610a25565b6040513d88823e3d90fd5b8480929399508194503d8311610a8e575b610a788183612744565b810103126103e85790518796909161090f610902565b503d610a6e565b6040513d8a823e3d90fd5b9050610ac591975060403d604011610acd575b610abd8183612744565b8101906128f5565b9690386108a5565b503d610ab3565b610af19192503d8089833e610ae98183612744565b81019061286e565b50505050903861085c565b6040513d89823e3d90fd5b50346103ed5760a03660031901126103ed576084356001600160401b0381116107c757366023820112156107c757806004013590610b4482612765565b90610b526040519283612744565b82825260208201906024829460051b8201019036821161150757602401915b818310611ada57505050600435156107df576004358352603d60205260408320546001600160a01b0316156107df57604435151580611acd575b15611abb57600480358452603d602090815260408086205460345460355492516370a0823160e01b81526001600160a01b039384169581019590955290821693929183916024918391165afa908115611a4a578591611a89575b506040516359b6a0c960e01b8152602081600481865afa908115610a52578691611a55575b50612710610c3c602092600494612ae2565b049260405192838092636835185f60e11b82525afa8015611a4a578590611a16575b610c6b9150602435612b00565b11611a04576044906004358452603d602052604060018060a01b038186205416815193848092638905faeb60e01b82526024356004830152823560248301525afa801561034c57849285916119df575b5060643583116119cd57610cd3620151804204612d0b565b9150506001604435106119b957601960001960443501911015611995575b610d0b610d02620151804204612d0b565b93849391612b00565b600181106117c157610d27600c91600019019282840490612b00565b910660011981116117c15792610d6092610d5b926001610d6c960191610d4d8383613326565b80911161198d575b506130cb565b612aca565b62015180420690612b00565b4281106115075762015180610d819104612d0b565b50610d9b610d5b610d9483859995613326565b83896130cb565b906201437019821161156857610dd4196201437083011161156857603b1962015144830111611568576037546040516315895f4760e31b81526004803590820152908990829060249082906001600160a01b03165afa928315611815576004938a928b91611969575b50604051630b90ca9160e11b81529460209186919082906001600160a01b03165afa93841561195e578a94611927575b506201517f0191610e488484600435612a16565b986001600160a01b038a1615611878575b50505050506001600160a01b0385163b156115075760405163020da84160e61b815260048035908201523360248083019190915235604482015286908181606481836001600160a01b038c165af180156107bc57611864575b50508315611852576004358652603e60205260018060a01b036040872054169186602060018060a01b03603654166024604051809481936302c68be360e31b83528960048401525af1908115610a95578891611820575b5060405163313ce56760e01b8152602081600481885afa9081156118155789916117d5575b50600660ff8216106117c1578660001904670de0b6b3a76400001160011661156857604d60ff8281166005190116116117c157610f829060ff9081166005190116600a0a670de0b6b3a76400008802612ae2565b81156117ab576040516323b872dd60e01b6020820152610fbb81610fad8585043033602485016127fc565b03601f198101835282612744565b604051610fc781612729565b602081527f5361666545524332303a206c6f772d6c6576656c2063616c6c206661696c65646020820152863b15611766578a8083602061103595519101828b5af13d1561175e573d906110198261281e565b916110276040519384612744565b82523d8d602084013e612b20565b805190816116e9575b5050611194938282046000190485118383041515166115685761106b612710868585040204848404612af5565b96805191600183106116d55773b97ef9ef8734c71904d8002f8b6bc66dd9c48a6e6001600160a01b036110a2600019860185612b0c565b5116036116ad578151156116bf5780516001600160a01b03168890036116ad576040518060608101106001600160401b036060830111176116975780606060409201825260028152602036910137603a546001600160a01b0316906001194211611683576040516338ed173960e01b8152600481018b90526000602482015260a06044820152925160a484018190528d928492909160c484019190855b818110611659575050508383809230606483015260014201608483015203925af190811561164e578b91611596575b5061117d916000190190612b0c565b516034549096908a906001600160a01b0316803b156107c75781809160848b6040519485938492636f0372af60e01b84526001600485015273b97ef9ef8734c71904d8002f8b6bc66dd9c48a6e602485015280604485015260648401525af180156107bc5761157e575b505060607f57f3d153693ba34ad2f1603ab743de3caf14b05ffa2fdfae8e9d0947a17c7ca391604051908882526020820152886040820152a18560001904611388118615151661156857856112cd602061124a61157c6113888e9b020484612af5565b604080516127108888048b0204815261157c61138887020460208201529081018290529098907fe59d21244ca3bff81515b705214dab78cc9f978c1939e610874429ffa47380b290606090a160395460405163a9059cbb60e01b81529384929183918d918391906127108c8c048f0204906001600160a01b031660048401612794565b03925af18015610a9557611549575b50602061157c60018060a01b03603454166113888a60018060a01b0360355416956113206040519788968795869463a9059cbb60e01b865202049060048401612794565b03925af18015610afc5761152a575b50603454603c5460405163a9059cbb60e01b81529160209183916001600160a01b039081169183918c91839161136b918e911660048401612794565b03925af18015610afc5761150b575b506035546001600160a01b0316803b156114ef57868091600460405180948193621e432b60e81b83525af1908115610afc5787916114f3575b50506004358652603d60205260408620546001600160a01b031690813b156114ef578660849281956127106040519889978896630aadb77760e01b885260243560048901520402046024850152604435604485015260648401525af19081156105ff5783916114db575b5050603c546001600160a01b0316803b1561062157604483926040519485938492635b97d36760e01b8452600435600485015260248401525af1801561034c576114c7575b60208383604051907f308dab4150a765534b441eef3367b2732d18bfdcd4b5ffe2a7084e1b1699051560043592806114b23394602435604435846040919493926060820195825260208201520152565b0390a36040516001600160a01b039091168152f35b6114d18491612716565b6106215782611462565b6114e490612716565b6107c757813861141d565b8680fd5b6114fc90612716565b6115075785386113b3565b8580fd5b6115239060203d602011610345576103368183612744565b503861137a565b6115429060203d602011610345576103368183612744565b503861132f565b6115619060203d602011610345576103368183612744565b50386112dc565b634e487b7160e01b600052601160045260246000fd5b61158790612716565b6115925789386111e7565b8980fd5b90503d808c833e6115a78183612744565b602082828101031261164a578151906001600160401b03821161164657808301601f8385010112156116465781830151916115e183612765565b936115ef6040519586612744565b8385526020850192810160208560051b8484010101116116425790602081830101925b60208560051b83850101018410611632575061117d935061116e92505050565b8351815260209384019301611612565b8e80fd5b8c80fd5b8b80fd5b6040513d8d823e3d90fd5b9260209194965060019295508190838060a01b0387511681520194019101908f949286949261113f565b634e487b7160e01b8d52601160045260248dfd5b634e487b7160e01b600052604160045260246000fd5b6040516310bc08dd60e01b8152600490fd5b634e487b7160e01b600052603260045260246000fd5b634e487b7160e01b8c52601160045260248cfd5b6020806116fa93830101910161277c565b1561170657388061103e565b60405162461bcd60e51b815260206004820152602a60248201527f5361666545524332303a204552433230206f7065726174696f6e20646964206e6044820152691bdd081cdd58d8d9595960b21b6064820152608490fd5b606090612b20565b60405162461bcd60e51b815260206004820152601d60248201527f416464726573733a2063616c6c20746f206e6f6e2d636f6e74726163740000006044820152606490fd5b634e487b7160e01b600052601260045260246000fd5b634e487b7160e01b89526011600452602489fd5b90506020813d60201161180d575b816117f060209383612744565b81010312611809575160ff811681036118095738610f2e565b8880fd5b3d91506117e3565b6040513d8b823e3d90fd5b90506020813d60201161184a575b8161183b60209383612744565b810103126103e8575138610f09565b3d915061182e565b60405163720794bf60e01b8152600490fd5b61186d90612716565b611507578538610eb2565b6020949599509061188e6109ba61189e936133e7565b611897876133e7565b918461291a565b8960018060a01b0360385416926118cf60405197889687958694636c1020a160e01b865260043590600487016129dc565b03925af1908115610a525786916118ed575b50933880808080610e59565b90506020813d60201161191f575b8161190860209383612744565b8101031261150757611919906127af565b386118e1565b3d91506118fb565b9093506020813d602011611956575b8161194360209383612744565b810103126103e85751926201517f610e34565b3d9150611936565b6040513d8c823e3d90fd5b6020935061198191503d808d833e610ae98183612744565b50505092909290610e04565b925038610d55565b600119106119a557604435610cf1565b634e487b7160e01b85526011600452602485fd5b634e487b7160e01b86526011600452602486fd5b60405163855e507b60e01b8152600490fd5b90506119fb91925060403d604011610acd57610abd8183612744565b91909138610cbb565b604051637730dc0b60e01b8152600490fd5b506020813d602011611a42575b81611a3060209383612744565b810103126103e857610c6b9051610c5e565b3d9150611a23565b6040513d87823e3d90fd5b90506020813d602011611a81575b81611a7060209383612744565b810103126103e85751612710610c2a565b3d9150611a63565b90506020813d602011611ab3575b81611aa460209383612744565b810103126103e8575138610c05565b3d9150611a97565b6040516307aaabcb60e21b8152600490fd5b5060036044351115610bab565b82356001600160a01b03811681036103e857815260209283019201610b71565b50346103ed5760603660031901126103ed57611b146126aa565b90611b1d6126c0565b60375460443593906001600160a01b039081163303611b8b578415611b775783946104329452603e602052604085209060018060a01b03199181851683825416179055603d60205260408620921690825416179055612b64565b634e487b7160e01b84526001600452602484fd5b604051632b29402d60e21b8152600490fd5b50346103ed57806003193601126103ed576039546040516001600160a01b039091168152602090f35b50346103ed5760203660031901126103ed57611be06126aa565b60018060a01b0390611bf982845460101c1633146127c3565b1660018060a01b03196037541617603755604051f35b50346103ed57611c1e366126ec565b82156107df57828452603d60205260408420546001600160a01b03908116156107df5781156106365780859160395416803b15610621576040516316858d7960e21b8152600481018790526001600160a01b0386166024820152604481018590523360648201529083908290608490829084905af19081156105ff578391611d96575b50859052603d60205280604083205416803b15610621576040516301733ea560e41b81526001600160a01b0386166004820152602481018590523360448201529083908290606490829084905af19081156105ff578391611d82575b505060355416803b156107c757818091604460405180948193630dfa376d60e01b83528160048401528860248401525af180156107bc57611d6e575b50506107a07f2dbdab27a2d16e827c458789b39587a960ef326f381f784ffa198426f367519791604051918291339583612794565b611d7790612716565b610632578338611d39565b611d8b90612716565b6107c7578138611cfd565b611d9f90612716565b6107c7578138611ca1565b50346103ed5760203660031901126103ed57611dc46126aa565b60018060a01b0390611ddd82845460101c1633146127c3565b1660018060a01b03196038541617603855604051f35b50346103ed5760203660031901126103ed57610432611e106126aa565b611e2760018060a01b03845460101c1633146127c3565b612b64565b50346103ed576020806003193601126107c75760043590811561063657603554604051636d40d7d760e11b8152600481018490523360248201529082908290604490829088906001600160a01b03165af1801561034c57611eb9575b507fc2c3f06e49b9f15e7b4af9055e183b0d73362e033ad82a07dec9bf9840171719906040519283523392a2604051f35b8190813d8311611edc575b611ece8183612744565b810103126103e85738611e88565b503d611ec4565b50346103ed57806003193601126103ed575460405160109190911c6001600160a01b03168152602090f35b50346103ed57806003193601126103ed57602060405173b97ef9ef8734c71904d8002f8b6bc66dd9c48a6e8152f35b50346103ed57806003193601126103ed5780546001600160a01b0390611f699060101c821633146127c3565b6000546000604051928260101c167f8be0079c531659141344cd1fd0a4f28419497f9722a3daafe3b4186f6b6457e08285a362010000600160b01b031916600055f35b50346103ed57806003193601126103ed576037546040516001600160a01b039091168152602090f35b50346103ed57806003193601126103ed576035546040516001600160a01b039091168152602090f35b50346103ed57806003193601126103ed576038546040516001600160a01b039091168152602090f35b50346103ed57612036366126d6565b81156107df57818352603d602090815260408420546001600160a01b03908116156107df57821561063657838552603d82526040808620549051630a43eeed60e11b8152600481018590523360248201528692918216848260448187855af1801561034c578591879161217b575b6120cd9350846035541690866040518096819582946323b872dd60e01b845233600485016127fc565b03925af180156105ff5761215e575b5060355416803b156107c757818091604460405180948193630dfa376d60e01b8352600160048401528960248401525af180156107bc5761214a575b50507f6ed71e479f5286ad6192bfdc2b224afa6073276d8f9a0e5028400f589fbb39cc906040519283523392a3604051f35b61215390612716565b610632578338612118565b61217490843d8611610345576103368183612744565b50386120dc565b91905082813d83116121af575b6121928183612744565b81010312610632578585916121a96120cd946127af565b506120a4565b503d612188565b50346103ed5760203660031901126103ed576121d06126aa565b60018060a01b03906121e982845460101c1633146127c3565b1660018060a01b0319603a541617603a55604051f35b50346103ed57806003193601126103ed57603b546040516001600160a01b039091168152602090f35b50346103ed57806003193601126103ed57603c546040516001600160a01b039091168152602090f35b50346103ed5760203660031901126103ed5761226b6126aa565b60018060a01b039061228482845460101c1633146127c3565b1660018060a01b03196039541617603955604051f35b50346103ed576122a9366126d6565b81156107df57818352603d602090815260408420546001600160a01b0391908216156107df57821561063657838552603d81526040808620549051630a43eeed60e11b8152600481018590523060248201529083169082816044818a865af1908115610afc5785849189936124be575b5061234392938660355416908a6040518096819582946323b872dd60e01b845233600485016127fc565b03925af18015610afc576124a1575b50858360355416803b156107c7578190604460405180948193630dfa376d60e01b8352600160048401528a60248401525af18015610afc5761248e575b50826039541692833b156114ef57604051635a12fc9360e11b8152600481018790526001600160a01b03831660248201526044810186905233606482015293879081908690608490829084905af1948515610625578695612475575b50918184936124169693603954169160405180988196829563a9059cbb60e01b845260048401612794565b0393165af1918215611a4a577f1e54d7530dad81af38adb8ca9db02add3130668375f37be85396403616fc3d4992612458575b506040519283523392a3604051f35b61246e90823d8411610345576103368183612744565b5038612449565b61248191929550612716565b61150757839286386123eb565b61249a90969196612716565b943861238f565b6124b790833d8511610345576103368183612744565b5038612352565b92505081813d83116124f1575b6124d58183612744565b810103126114ef5782856124eb612343936127af565b92612319565b503d6124cb565b50346103ed5760203660031901126103ed576125126126aa565b60018060a01b039061252b82845460101c1633146127c3565b1660018060a01b0319603b541617603b55604051f35b50346103ed57602090816003193601126103ed57600480358252603d83526040808320549051634e75827160e01b81526001600160a01b0392909185918391829086165afa9283156125d957809361259f575b505060405191168152f35b909192508382813d83116125d2575b6125b88183612744565b810103126103ed57506125ca906127af565b903880612594565b503d6125ae565b604051903d90823e3d90fd5b50346103ed5760203660031901126103ed576125ff6126aa565b60018060a01b039061261882845460101c1633146127c3565b1660018060a01b03196036541617603655604051f35b50346103ed5760203660031901126103ed576020906004358152603d8252604060018060a01b0391205416604051908152f35b50346103ed5760203660031901126103ed5761267b6126aa565b60018060a01b039061269482845460101c1633146127c3565b1660018060a01b03196035541617603555604051f35b600435906001600160a01b03821682036103e857565b602435906001600160a01b03821682036103e857565b60409060031901126103e8576004359060243590565b60609060031901126103e857600435906024356001600160a01b03811681036103e8579060443590565b6001600160401b03811161169757604052565b604081019081106001600160401b0382111761169757604052565b90601f801991011681019081106001600160401b0382111761169757604052565b6001600160401b0381116116975760051b60200190565b908160209103126103e8575180151581036103e85790565b6001600160a01b039091168152602081019190915260400190565b51906001600160a01b03821682036103e857565b156127ca57565b60405162461bcd60e51b815260206004820152600a60248201526927b7363c9037bbb732b960b11b6044820152606490fd5b6001600160a01b03918216815291166020820152604081019190915260600190565b6001600160401b03811161169757601f01601f191660200190565b918091926000905b828210612859575011612852575050565b6000910152565b91508060209183015181860152018291612841565b9060a0828203126103e85781516001600160401b0381116103e857820181601f820112156103e85780516128a18161281e565b926128af6040519485612744565b818452602082840101116103e8576128cd9160208085019101612839565b916128da602083016127af565b916128e7604082016127af565b916080606083015192015190565b91908260409103126103e8576020825192015190565b60001981146115685760010190565b60279194936129b5936040519687936243522d60e81b6020860152612949815180926020602389019101612839565b840190602d60f81b9182602382015261296c825180936020602485019101612839565b01906024820152612987825180936020602585019101612839565b01612d4760f01b60258201526129a68251809360208785019101612839565b01036007810185520183612744565b565b906020916129d081518092818552858086019101612839565b601f01601f1916010190565b916080936129f9612a0c939897969860a0865260a08601906129b7565b91602085015283820360408501526129b7565b9460608201520152565b916040519160208301938452604083015260608201526060815260808101918183106001600160401b038411176116975782602481602093816040528551902060018060a01b036038541690631620909560e01b835260848701525afa908115612abe57600091612a88575b50905090565b602090813d8111612ab7575b612a9e8186612744565b810103126103ed5750612ab0906127af565b8038612a82565b503d612a94565b6040513d6000823e3d90fd5b62015180908060001904821181151516611568570290565b8060001904821181151516611568570290565b818110611568570390565b81198111611568570190565b80518210156116bf5760209160051b010190565b90919015612b2c575090565b815115612b3c5750805190602001fd5b60405162461bcd60e51b815260206004820152908190612b609060248301906129b7565b0390fd5b603a546001600160a01b0391908216908115612bc95760446020926000604051958694859363095ea7b360e01b8552600485015282196024850152165af18015612abe57612baf5750565b612bc69060203d8111610345576103368183612744565b50565b6040516307bb995d60e41b8152600490fd5b15612be257565b60405162461bcd60e51b815260206004820152602b60248201527f496e697469616c697a61626c653a20636f6e7472616374206973206e6f74206960448201526a6e697469616c697a696e6760a81b6064820152608490fd5b6000811280156001600160ff1b0383900384131661156857600160ff1b829003831216611568570190565b6105b560008083136001600160ff1b03849004831116600116612cb65760017fffe9924f8d0dd7b2e6f174df9576f9de01c091c8faeb2605f522de8852b47aa884128285121616612cb657500290565b634e487b7160e01b81526011600452602490fd5b600e600160ff1b01811260011661156857600d190190565b600082128015600160ff1b8401831216611568576001600160ff1b038301821316611568570390565b6000916001600160ff1b039162010bd9908481128185038115818513166130b757600160ff1b9383850392838212166130a35787908401129162010bd819908162253d8c930183138415166117c1570113166119a557622649650193600193600491858783048411828913161661309057808712600760fd1b88121686166130905762023ab196878160021b0597878985048211848b13161661306a57877fffffc694f94337079d130ab45dff8e0f9ea161331bb1c93dea871de6fec83ce28a12848b12161661306a57880282811281850360031381151661307d578187036003121661306a5790846003612e0293010590612ce2565b92818412848403881381151661301e5784860388121661300b57868401610fa0888286048211858413161661303157887ffff7ced916872b020c49ba5e353f7ced916872b020c49ba5e353f7ced916872c8312858412161661303157612e7b9162164b099102059482612e7487612c66565b0590612ce2565b828112818503601f1381151661303157818703601f121661301e57601f019680888504605011848a13161661301e57807ffe666666666666666666666666666666666666666666666666666666666666678912848a12161661301e5761098f9788816050020590828287048b1186841316166130575784821299837ffff29be1739a4fb805dbcd5d6c7d1f7d6fd627208942391f124ee1c3f307026884128c16166130445790605083612f3093020590612ce2565b98600b82059782870360021382151661304457829003600212166130315781878604600c11858913161661303157817ff5555555555555555555555555555555555555555555555555555555555555568812858912161661303157612f9c90600288600c029101612ce2565b986031600160ff1b018112821661303157819060301901809504606411848613161661301e577ffeb851eb851eb851eb851eb851eb851eb851eb851eb851eb851eb851eb851eb98412838512161661300b575050613006929161300191606402612c3b565b612c3b565b929190565b634e487b7160e01b825260119052602490fd5b634e487b7160e01b835260118252602483fd5b634e487b7160e01b845260118352602484fd5b634e487b7160e01b865260118552602486fd5b634e487b7160e01b855260118452602485fd5b634e487b7160e01b835260118552602483fd5b634e487b7160e01b845260118652602484fd5b634e487b7160e01b815260118352602490fd5b634e487b7160e01b88526011600452602488fd5b634e487b7160e01b87526011600452602487fd5b9291926107b281106103e857600191617d4b600160ff1b0185128316611568576000918281128015926001600160ff1b03929182840391906112c083811387166130a357600160ff1b8590039081811283166117c15761314898999a9b6131599161314d60049b8c92600c61313f8a612cca565b05908b01612c3b565b612c66565b0590617d4a1901612c3b565b6002600160ff1b0184128b1661331357600c61317485612cca565b058b7f0aaaaaaaaaaaaaaaaaaaaaaaaaaaaaaaaaaaaaaaaaaaaaaaaaaaaaaaaaaaaaaa82118c83131616613300578b7ff55555555555555555555555555555555555555555555555555555555555555682128c83121616613300576131e090600c026001198601612ce2565b61016f8c828a0482118d841316166132ed578c7fffa6b6c1eb12d573186a06f9b8d9a287530217b7747d8eff4d6d83d625aae63183128d841216166132ed5761322f9291600c91020590612c3b565b96611324948513166132da578312166132c7578792606492600c61325561325d94612cca565b059101612c3b565b05809204600311858313161661303157847fd555555555555555555555555555555555555555555555555555555555555556821285831216166130315790826132aa926003020590612ce2565b9262253d8c600160ff1b0184121661300b57505062253d8b190190565b634e487b7160e01b875260118652602487fd5b634e487b7160e01b895260118852602489fd5b634e487b7160e01b8c5260118b5260248cfd5b634e487b7160e01b8b5260118a5260248bfd5b634e487b7160e01b8a526011895260248afd5b906001811480156133dd575b80156133d3575b80156133c9575b80156133bf575b80156133b5575b80156133ab575b15613361575050601f90565b60021461336e5750601e90565b6003811615908161339e575b8115613391575b501561338c57601d90565b601c90565b6101909150061538613381565b606481061515915061337a565b50600c8114613355565b50600a811461334e565b5060088114613347565b5060078114613340565b5060058114613339565b5060038114613332565b801561348c57600081805b61347857506134008161281e565b9061340e6040519283612744565b808252601f1961341d8261281e565b013660208401375b8083156134715760018110611568576000190192600a918282066030811981116115685785518710156116bf570160f81b6001600160f81b03191660001a908401601f01530491613425565b5050905090565b90613484600a9161290b565b9104806133f2565b5060405161349981612729565b60018152600360fc1b602082015290565b6000549060018060a01b03808216908360101c167f8be0079c531659141344cd1fd0a4f28419497f9722a3daafe3b4186f6b6457e06000604051a362010000600160b01b031990911660109190911b62010000600160b01b03161760005556fea2646970667358221220973768f41b17069b7fd01337affac66c0f4cb9c2e3a995db075f5232f859f03764736f6c634300080f0033",
  "devdoc": {
    "author": "Eric Lee (ylikp.ust@gmail.com) & Primata (primata@375labs.org)",
    "kind": "dev",
    "methods": {
      "approvePoolToken(address)": {
        "params": {
          "_token": "Address of the approved token"
        }
      },
      "buyCover(uint256,uint256,uint256,uint256,address[])": {
        "params": {
          "_coverAmount": "Amount to cover",
          "_coverDuration": "Cover duration in month (1 ~ 3)",
          "_maxPayment": "Maximum payment user can accept",
          "_poolId": "Pool id"
        },
        "returns": {
          "_0": "crToken CR token address"
        }
      },
      "claimPayout(uint256,address,uint256)": {
        "params": {
          "_crToken": "Cover right token address",
          "_generation": "Generation of the priority pool",
          "_poolId": "Pool id"
        }
      },
      "currentLPAddress(uint256)": {
        "params": {
          "_poolId": "Priority Pool ID"
        },
        "returns": {
          "lpAddress": "Current LP token address"
        }
      },
      "owner()": {
        "details": "Returns the address of the current owner."
      },
      "provideLiquidity(uint256)": {
        "params": {
          "_amount": "Amount of liquidity(shield) to provide"
        }
      },
      "removeLiquidity(uint256)": {
        "params": {
          "_amount": "Amount of liquidity to provide"
        }
      },
      "renounceOwnership()": {
        "details": "Leaves the contract without owner. It will not be possible to call `onlyOwner` functions anymore. Can only be called by the current owner. NOTE: Renouncing ownership will leave the contract without an owner, thereby removing any functionality that is only available to the owner."
      },
      "stakeLiquidity(uint256,uint256)": {
        "params": {
          "_amount": "Amount of PRO-LP tokens to stake",
          "_poolId": "Pool id"
        }
      },
      "stakeLiquidityWithoutFarming(uint256,uint256)": {
        "params": {
          "_amount": "Amount of PRO-LP amount",
          "_poolId": "Pool id"
        }
      },
      "storePoolInformation(address,address,uint256)": {
        "params": {
          "_pool": "Address of the priority pool",
          "_poolId": "Pool id",
          "_token": "Address of the priority pool's native token"
        }
      },
      "transferOwnership(address)": {
        "details": "Transfers ownership of the contract to a new account (`newOwner`). Can only be called by the current owner."
      },
      "unstakeLiquidity(uint256,address,uint256)": {
        "params": {
          "_amount": "Amount of LP(priority lp) tokens to withdraw",
          "_poolId": "Pool id",
          "_priorityLP": "Priority lp token address to withdraw"
        }
      },
      "unstakeLiquidityWithoutFarming(uint256,address,uint256)": {
        "params": {
          "_amount": "PRI-LP token amount to remove",
          "_poolId": "Pool id",
          "_priorityLP": "PRI-LP token address"
        }
      }
    },
    "title": "Policy Center",
    "version": 1
  },
  "userdoc": {
    "kind": "user",
    "methods": {
      "approvePoolToken(address)": {
        "notice": "Approve the exchange to swap tokens"
      },
      "buyCover(uint256,uint256,uint256,uint256,address[])": {
        "notice": "Buy new cover for a given pool         Select a pool with parameter \"poolId\"         Cover amount is in shield and duration is in month         The premium ratio may be dynamic so \"maxPayment\" is similar to \"slippage\""
      },
      "claimPayout(uint256,address,uint256)": {
        "notice": "Claim payout         Need to use a specific crToken address as parameter"
      },
      "currentLPAddress(uint256)": {
        "notice": "Returns the current LP address for a Pool ID"
      },
      "provideLiquidity(uint256)": {
        "notice": "Provide liquidity to Protection Pool"
      },
      "removeLiquidity(uint256)": {
        "notice": "Remove liquidity from protection pool"
      },
      "stakeLiquidity(uint256,uint256)": {
        "notice": "Stake Protection Pool LP (PRO-LP) into priority pools         And automatically stake the PRI-LP tokens into weighted farming pool         With this function, no need for approval of PRI-LP tokens         If you want to hold the PRI-LP tokens for other usage         Call \"stakeLiquidityWithoutFarming\""
      },
      "stakeLiquidityWithoutFarming(uint256,uint256)": {
        "notice": "Stake liquidity to priority pool without depositing into farming"
      },
      "storePoolInformation(address,address,uint256)": {
        "notice": "Store new pool information"
      },
      "unstakeLiquidity(uint256,address,uint256)": {
        "notice": "Unstake Protection Pool LP from priority pools         There may be different generations of priority lp tokens         This function will first remove the PRI-LP token from farming pool         Ensure that your PRI-LP tokens are inside the farming pool         If the PRI-LP tokens are in your own wallet, use \"unstakeLiquidityWithoutFarming\""
      },
      "unstakeLiquidityWithoutFarming(uint256,address,uint256)": {
        "notice": "Unstake liquidity without removing PRI-LP from farming"
      }
    },
    "notice": "This is the policy center for degis Protocol Protection         Users can buy policies and get payoff here         Sellers can provide liquidity and choose the pools to cover",
    "version": 1
  },
  "storageLayout": {
    "storage": [
      {
        "astId": 52,
        "contract": "src/core/PolicyCenter.sol:PolicyCenter",
        "label": "_initialized",
        "offset": 0,
        "slot": "0",
        "type": "t_uint8"
      },
      {
        "astId": 55,
        "contract": "src/core/PolicyCenter.sol:PolicyCenter",
        "label": "_initializing",
        "offset": 1,
        "slot": "0",
        "type": "t_bool"
      },
      {
        "astId": 15695,
        "contract": "src/core/PolicyCenter.sol:PolicyCenter",
        "label": "_owner",
        "offset": 2,
        "slot": "0",
        "type": "t_address"
      },
      {
        "astId": 15802,
        "contract": "src/core/PolicyCenter.sol:PolicyCenter",
        "label": "__gap",
        "offset": 0,
        "slot": "1",
        "type": "t_array(t_uint256)49_storage"
      },
      {
        "astId": 5954,
        "contract": "src/core/PolicyCenter.sol:PolicyCenter",
        "label": "deg",
        "offset": 0,
        "slot": "50",
        "type": "t_contract(IDegisToken)6081"
      },
      {
        "astId": 5957,
        "contract": "src/core/PolicyCenter.sol:PolicyCenter",
        "label": "veDeg",
        "offset": 0,
        "slot": "51",
        "type": "t_contract(IVeDEG)7238"
      },
      {
        "astId": 5960,
        "contract": "src/core/PolicyCenter.sol:PolicyCenter",
        "label": "shield",
        "offset": 0,
        "slot": "52",
        "type": "t_contract(IShield)7193"
      },
      {
        "astId": 5106,
        "contract": "src/core/PolicyCenter.sol:PolicyCenter",
        "label": "protectionPool",
        "offset": 0,
        "slot": "53",
        "type": "t_address"
      },
      {
        "astId": 5108,
        "contract": "src/core/PolicyCenter.sol:PolicyCenter",
        "label": "priceGetter",
        "offset": 0,
        "slot": "54",
        "type": "t_address"
      },
      {
        "astId": 5110,
        "contract": "src/core/PolicyCenter.sol:PolicyCenter",
        "label": "priorityPoolFactory",
        "offset": 0,
        "slot": "55",
        "type": "t_address"
      },
      {
        "astId": 5112,
        "contract": "src/core/PolicyCenter.sol:PolicyCenter",
        "label": "coverRightTokenFactory",
        "offset": 0,
        "slot": "56",
        "type": "t_address"
      },
      {
        "astId": 5114,
        "contract": "src/core/PolicyCenter.sol:PolicyCenter",
        "label": "weightedFarmingPool",
        "offset": 0,
        "slot": "57",
        "type": "t_address"
      },
      {
        "astId": 5116,
        "contract": "src/core/PolicyCenter.sol:PolicyCenter",
        "label": "exchange",
        "offset": 0,
        "slot": "58",
        "type": "t_address"
      },
      {
        "astId": 5118,
        "contract": "src/core/PolicyCenter.sol:PolicyCenter",
        "label": "payoutPool",
        "offset": 0,
        "slot": "59",
        "type": "t_address"
      },
      {
        "astId": 5120,
        "contract": "src/core/PolicyCenter.sol:PolicyCenter",
        "label": "treasury",
        "offset": 0,
        "slot": "60",
        "type": "t_address"
      },
      {
        "astId": 3646,
        "contract": "src/core/PolicyCenter.sol:PolicyCenter",
        "label": "priorityPools",
        "offset": 0,
        "slot": "61",
        "type": "t_mapping(t_uint256,t_address)"
      },
      {
        "astId": 3650,
        "contract": "src/core/PolicyCenter.sol:PolicyCenter",
        "label": "tokenByPoolId",
        "offset": 0,
        "slot": "62",
        "type": "t_mapping(t_uint256,t_address)"
      }
    ],
    "types": {
      "t_address": {
        "encoding": "inplace",
        "label": "address",
        "numberOfBytes": "20"
      },
      "t_array(t_uint256)49_storage": {
        "base": "t_uint256",
        "encoding": "inplace",
        "label": "uint256[49]",
        "numberOfBytes": "1568"
      },
      "t_bool": {
        "encoding": "inplace",
        "label": "bool",
        "numberOfBytes": "1"
      },
      "t_contract(IDegisToken)6081": {
        "encoding": "inplace",
        "label": "contract IDegisToken",
        "numberOfBytes": "20"
      },
      "t_contract(IShield)7193": {
        "encoding": "inplace",
        "label": "contract IShield",
        "numberOfBytes": "20"
      },
      "t_contract(IVeDEG)7238": {
        "encoding": "inplace",
        "label": "contract IVeDEG",
        "numberOfBytes": "20"
      },
      "t_mapping(t_uint256,t_address)": {
        "encoding": "mapping",
        "key": "t_uint256",
        "label": "mapping(uint256 => address)",
        "numberOfBytes": "32",
        "value": "t_address"
      },
      "t_uint256": {
        "encoding": "inplace",
        "label": "uint256",
        "numberOfBytes": "32"
      },
      "t_uint8": {
        "encoding": "inplace",
        "label": "uint8",
        "numberOfBytes": "1"
      }
    }
  }
}