{
  "address": "0xD61d49015488cF67D35A077DF8c436A02E7B278c",
  "abi": [
    {
      "inputs": [],
      "name": "WeightedFarmingPool_ZeroAddress",
      "type": "error"
    },
    {
      "inputs": [],
      "name": "WeightedFarmingPool__AlreadySupported",
      "type": "error"
    },
    {
      "inputs": [],
      "name": "WeightedFarmingPool__InexistentPool",
      "type": "error"
    },
    {
      "inputs": [],
      "name": "WeightedFarmingPool__NotEnoughAmount",
      "type": "error"
    },
    {
      "inputs": [],
      "name": "WeightedFarmingPool__NotInPool",
      "type": "error"
    },
    {
      "inputs": [],
      "name": "WeightedFarmingPool__NotSupported",
      "type": "error"
    },
    {
      "inputs": [],
      "name": "WeightedFarmingPool__OnlyPolicyCenter",
      "type": "error"
    },
    {
      "inputs": [],
      "name": "WeightedFarmingPool__WrongDateLength",
      "type": "error"
    },
    {
      "inputs": [],
      "name": "WeightedFarmingPool__ZeroAmount",
      "type": "error"
    },
    {
      "anonymous": false,
      "inputs": [
        {
          "indexed": true,
          "internalType": "uint256",
          "name": "poolId",
          "type": "uint256"
        },
        {
          "indexed": true,
          "internalType": "address",
          "name": "user",
          "type": "address"
        },
        {
          "indexed": true,
          "internalType": "address",
          "name": "receiver",
          "type": "address"
        },
        {
          "indexed": false,
          "internalType": "uint256",
          "name": "reward",
          "type": "uint256"
        }
      ],
      "name": "Harvest",
      "type": "event"
    },
    {
      "anonymous": false,
      "inputs": [
        {
          "indexed": false,
          "internalType": "uint8",
          "name": "version",
          "type": "uint8"
        }
      ],
      "name": "Initialized",
      "type": "event"
    },
    {
      "anonymous": false,
      "inputs": [
        {
          "indexed": true,
          "internalType": "uint256",
          "name": "poolId",
          "type": "uint256"
        },
        {
          "indexed": false,
          "internalType": "address",
          "name": "token",
          "type": "address"
        },
        {
          "indexed": false,
          "internalType": "uint256",
          "name": "index",
          "type": "uint256"
        },
        {
          "indexed": false,
          "internalType": "uint256",
          "name": "weight",
          "type": "uint256"
        }
      ],
      "name": "NewTokenAdded",
      "type": "event"
    },
    {
      "anonymous": false,
      "inputs": [
        {
          "indexed": true,
          "internalType": "address",
          "name": "previousOwner",
          "type": "address"
        },
        {
          "indexed": true,
          "internalType": "address",
          "name": "newOwner",
          "type": "address"
        }
      ],
      "name": "OwnershipTransferred",
      "type": "event"
    },
    {
      "anonymous": false,
      "inputs": [
        {
          "indexed": false,
          "internalType": "uint256",
          "name": "poolId",
          "type": "uint256"
        },
        {
          "indexed": false,
          "internalType": "address",
          "name": "token",
          "type": "address"
        }
      ],
      "name": "PoolAdded",
      "type": "event"
    },
    {
      "anonymous": false,
      "inputs": [
        {
          "indexed": true,
          "internalType": "uint256",
          "name": "poolId",
          "type": "uint256"
        },
        {
          "indexed": false,
          "internalType": "uint256",
          "name": "accRewardPerShare",
          "type": "uint256"
        }
      ],
      "name": "PoolUpdated",
      "type": "event"
    },
    {
      "anonymous": false,
      "inputs": [
        {
          "indexed": true,
          "internalType": "uint256",
          "name": "poolId",
          "type": "uint256"
        },
        {
          "indexed": false,
          "internalType": "uint256",
          "name": "index",
          "type": "uint256"
        },
        {
          "indexed": false,
          "internalType": "uint256",
          "name": "newWeight",
          "type": "uint256"
        }
      ],
      "name": "PoolWeightUpdated",
      "type": "event"
    },
    {
      "anonymous": false,
      "inputs": [
        {
          "indexed": true,
          "internalType": "uint256",
          "name": "poolId",
          "type": "uint256"
        },
        {
          "indexed": false,
          "internalType": "uint256",
          "name": "newSpeed",
          "type": "uint256"
        },
        {
          "indexed": false,
          "internalType": "uint256[]",
          "name": "yearsUpdated",
          "type": "uint256[]"
        },
        {
          "indexed": false,
          "internalType": "uint256[]",
          "name": "monthsUpdateed",
          "type": "uint256[]"
        }
      ],
      "name": "RewardSpeedUpdated",
      "type": "event"
    },
    {
      "inputs": [],
      "name": "SCALE",
      "outputs": [
        {
          "internalType": "uint256",
          "name": "",
          "type": "uint256"
        }
      ],
      "stateMutability": "view",
      "type": "function"
    },
    {
      "inputs": [
        {
          "internalType": "address",
          "name": "_rewardToken",
          "type": "address"
        }
      ],
      "name": "addPool",
      "outputs": [],
      "stateMutability": "nonpayable",
      "type": "function"
    },
    {
      "inputs": [
        {
          "internalType": "uint256",
          "name": "_id",
          "type": "uint256"
        },
        {
          "internalType": "address",
          "name": "_token",
          "type": "address"
        },
        {
          "internalType": "uint256",
          "name": "_weight",
          "type": "uint256"
        }
      ],
      "name": "addToken",
      "outputs": [],
      "stateMutability": "nonpayable",
      "type": "function"
    },
    {
      "inputs": [],
      "name": "counter",
      "outputs": [
        {
          "internalType": "uint256",
          "name": "",
          "type": "uint256"
        }
      ],
      "stateMutability": "view",
      "type": "function"
    },
    {
      "inputs": [
        {
          "internalType": "uint256",
          "name": "_id",
          "type": "uint256"
        },
        {
          "internalType": "address",
          "name": "_token",
          "type": "address"
        },
        {
          "internalType": "uint256",
          "name": "_amount",
          "type": "uint256"
        }
      ],
      "name": "deposit",
      "outputs": [],
      "stateMutability": "nonpayable",
      "type": "function"
    },
    {
      "inputs": [
        {
          "internalType": "uint256",
          "name": "_id",
          "type": "uint256"
        },
        {
          "internalType": "address",
          "name": "_token",
          "type": "address"
        },
        {
          "internalType": "uint256",
          "name": "_amount",
          "type": "uint256"
        },
        {
          "internalType": "address",
          "name": "_user",
          "type": "address"
        }
      ],
      "name": "depositFromPolicyCenter",
      "outputs": [],
      "stateMutability": "nonpayable",
      "type": "function"
    },
    {
      "inputs": [
        {
          "internalType": "uint256",
          "name": "_poolId",
          "type": "uint256"
        }
      ],
      "name": "getPoolArrays",
      "outputs": [
        {
          "internalType": "address[]",
          "name": "",
          "type": "address[]"
        },
        {
          "internalType": "uint256[]",
          "name": "",
          "type": "uint256[]"
        },
        {
          "internalType": "uint256[]",
          "name": "",
          "type": "uint256[]"
        }
      ],
      "stateMutability": "view",
      "type": "function"
    },
    {
      "inputs": [
        {
          "internalType": "uint256",
          "name": "_poolId",
          "type": "uint256"
        },
        {
          "internalType": "address",
          "name": "_user",
          "type": "address"
        }
      ],
      "name": "getUserLPAmount",
      "outputs": [
        {
          "internalType": "uint256[]",
          "name": "",
          "type": "uint256[]"
        }
      ],
      "stateMutability": "view",
      "type": "function"
    },
    {
      "inputs": [
        {
          "internalType": "uint256",
          "name": "_id",
          "type": "uint256"
        },
        {
          "internalType": "address",
          "name": "_to",
          "type": "address"
        }
      ],
      "name": "harvest",
      "outputs": [],
      "stateMutability": "nonpayable",
      "type": "function"
    },
    {
      "inputs": [
        {
          "internalType": "address",
          "name": "_policyCenter",
          "type": "address"
        },
        {
          "internalType": "address",
          "name": "_priorityPoolFactory",
          "type": "address"
        }
      ],
      "name": "initialize",
      "outputs": [],
      "stateMutability": "nonpayable",
      "type": "function"
    },
    {
      "inputs": [],
      "name": "owner",
      "outputs": [
        {
          "internalType": "address",
          "name": "",
          "type": "address"
        }
      ],
      "stateMutability": "view",
      "type": "function"
    },
    {
      "inputs": [
        {
          "internalType": "uint256",
          "name": "_id",
          "type": "uint256"
        },
        {
          "internalType": "address",
          "name": "_user",
          "type": "address"
        }
      ],
      "name": "pendingReward",
      "outputs": [
        {
          "internalType": "uint256",
          "name": "pending",
          "type": "uint256"
        }
      ],
      "stateMutability": "view",
      "type": "function"
    },
    {
      "inputs": [],
      "name": "policyCenter",
      "outputs": [
        {
          "internalType": "address",
          "name": "",
          "type": "address"
        }
      ],
      "stateMutability": "view",
      "type": "function"
    },
    {
      "inputs": [
        {
          "internalType": "uint256",
          "name": "",
          "type": "uint256"
        }
      ],
      "name": "pools",
      "outputs": [
        {
          "internalType": "uint256",
          "name": "shares",
          "type": "uint256"
        },
        {
          "internalType": "address",
          "name": "rewardToken",
          "type": "address"
        },
        {
          "internalType": "uint256",
          "name": "lastRewardTimestamp",
          "type": "uint256"
        },
        {
          "internalType": "uint256",
          "name": "accRewardPerShare",
          "type": "uint256"
        }
      ],
      "stateMutability": "view",
      "type": "function"
    },
    {
      "inputs": [],
      "name": "priorityPoolFactory",
      "outputs": [
        {
          "internalType": "address",
          "name": "",
          "type": "address"
        }
      ],
      "stateMutability": "view",
      "type": "function"
    },
    {
      "inputs": [],
      "name": "renounceOwnership",
      "outputs": [],
      "stateMutability": "nonpayable",
      "type": "function"
    },
    {
      "inputs": [
        {
          "internalType": "uint256",
          "name": "",
          "type": "uint256"
        },
        {
          "internalType": "uint256",
          "name": "",
          "type": "uint256"
        },
        {
          "internalType": "uint256",
          "name": "",
          "type": "uint256"
        }
      ],
      "name": "speed",
      "outputs": [
        {
          "internalType": "uint256",
          "name": "",
          "type": "uint256"
        }
      ],
      "stateMutability": "view",
      "type": "function"
    },
    {
      "inputs": [
        {
          "internalType": "bytes32",
          "name": "",
          "type": "bytes32"
        }
      ],
      "name": "supported",
      "outputs": [
        {
          "internalType": "bool",
          "name": "",
          "type": "bool"
        }
      ],
      "stateMutability": "view",
      "type": "function"
    },
    {
      "inputs": [
        {
          "internalType": "uint256",
          "name": "_poolId",
          "type": "uint256"
        },
        {
          "internalType": "address",
          "name": "_token",
          "type": "address"
        }
      ],
      "name": "supportedToken",
      "outputs": [
        {
          "internalType": "bool",
          "name": "isSupported",
          "type": "bool"
        }
      ],
      "stateMutability": "view",
      "type": "function"
    },
    {
      "inputs": [
        {
          "internalType": "uint256",
          "name": "",
          "type": "uint256"
        },
        {
          "internalType": "address",
          "name": "",
          "type": "address"
        }
      ],
      "name": "tokenIndex",
      "outputs": [
        {
          "internalType": "uint256",
          "name": "",
          "type": "uint256"
        }
      ],
      "stateMutability": "view",
      "type": "function"
    },
    {
      "inputs": [
        {
          "internalType": "address",
          "name": "newOwner",
          "type": "address"
        }
      ],
      "name": "transferOwnership",
      "outputs": [],
      "stateMutability": "nonpayable",
      "type": "function"
    },
    {
      "inputs": [
        {
          "internalType": "uint256",
          "name": "_id",
          "type": "uint256"
        }
      ],
      "name": "updatePool",
      "outputs": [],
      "stateMutability": "nonpayable",
      "type": "function"
    },
    {
      "inputs": [
        {
          "internalType": "uint256",
          "name": "_id",
          "type": "uint256"
        },
        {
          "internalType": "uint256",
          "name": "_newSpeed",
          "type": "uint256"
        },
        {
          "internalType": "uint256[]",
          "name": "_years",
          "type": "uint256[]"
        },
        {
          "internalType": "uint256[]",
          "name": "_months",
          "type": "uint256[]"
        }
      ],
      "name": "updateRewardSpeed",
      "outputs": [],
      "stateMutability": "nonpayable",
      "type": "function"
    },
    {
      "inputs": [
        {
          "internalType": "uint256",
          "name": "_id",
          "type": "uint256"
        },
        {
          "internalType": "address",
          "name": "_token",
          "type": "address"
        },
        {
          "internalType": "uint256",
          "name": "_newWeight",
          "type": "uint256"
        }
      ],
      "name": "updateWeight",
      "outputs": [],
      "stateMutability": "nonpayable",
      "type": "function"
    },
    {
      "inputs": [
        {
          "internalType": "uint256",
          "name": "",
          "type": "uint256"
        },
        {
          "internalType": "address",
          "name": "",
          "type": "address"
        }
      ],
      "name": "users",
      "outputs": [
        {
          "internalType": "uint256",
          "name": "shares",
          "type": "uint256"
        },
        {
          "internalType": "uint256",
          "name": "rewardDebt",
          "type": "uint256"
        }
      ],
      "stateMutability": "view",
      "type": "function"
    },
    {
      "inputs": [
        {
          "internalType": "uint256",
          "name": "_id",
          "type": "uint256"
        },
        {
          "internalType": "address",
          "name": "_token",
          "type": "address"
        },
        {
          "internalType": "uint256",
          "name": "_amount",
          "type": "uint256"
        }
      ],
      "name": "withdraw",
      "outputs": [],
      "stateMutability": "nonpayable",
      "type": "function"
    },
    {
      "inputs": [
        {
          "internalType": "uint256",
          "name": "_id",
          "type": "uint256"
        },
        {
          "internalType": "address",
          "name": "_token",
          "type": "address"
        },
        {
          "internalType": "uint256",
          "name": "_amount",
          "type": "uint256"
        },
        {
          "internalType": "address",
          "name": "_user",
          "type": "address"
        }
      ],
      "name": "withdrawFromPolicyCenter",
      "outputs": [],
      "stateMutability": "nonpayable",
      "type": "function"
    }
  ],
  "transactionHash": "0x6abc23acac93d41097f3e09f0cb377ee6bc0f2f3201d5ae538138d1c1530b7df",
  "args": [],
  "numDeployments": 2,
  "solcInputHash": "5ac218c84e089a332f8e358ede47b483",
  "bytecode": "0x6080806040523461001657612a17908161001c8239f35b600080fdfe608080604052600436101561001357600080fd5b60003560e01c9081630c7394c9146111cf5750806318fccc76146110e7578063341922c114610f785780633593aa9214610e83578063485cc95514610ceb57806351eb05a614610ccf5780635a1635e414610ca357806361bc221a14610c855780636f8a6e4314610c5c578063715018a614610bf45780637193f2f014610bc35780638da5cb5b14610b9657806398969e8214610863578063ac4afa381461080a578063b425f926146107cc578063b5e122481461079c578063b9d02df414610748578063bc157ac1146106d0578063c65323f1146105fb578063d914cd4b14610520578063e63697c814610507578063e8adbf2f146104de578063eced5526146104be578063f2fde38b14610426578063fd4ae05c146103de578063fee0833e1461037e5763ffb7cf621461014857600080fd5b346103795761015636611332565b603354604051633a31bb7760e11b81523360048201526020936001600160a01b039290919085908290602490829087165afa801561036d576101a091600091610340575b50611c9f565b604051848101868152606083901b6001600160601b0319166020820152906101d581603484015b03601f19810183528261123d565b519020806000526038855260ff6040600020541661032e576000908152603885526040808220805460ff191660011790558682526035865290208054600160401b92918382101561031857816102319160018794018155611ce0565b9490921693849183549160031b90811b9283911b1691191617905584600052603584526002604060002001908154908110156103185761027b816102969360018794018155611ce0565b90919082549060031b600019811b9283911b16911916179055565b83600052603583526040600020549160018310610302577fe5f842de22af15b0b072daaa1cb8e135e1dcaf55dc1e7d806cbe1801ceafc74193606093600019019086600052603981526040600020846000528152816040600020556040519384528301526040820152a2005b634e487b7160e01b600052601160045260246000fd5b634e487b7160e01b600052604160045260246000fd5b60405163bf1f752f60e01b8152600490fd5b6103609150863d8811610366575b610358818361123d565b810190611c87565b3861019a565b503d61034e565b6040513d6000823e3d90fd5b600080fd5b3461037957604036600319011261037957610397611211565b600435600052603760205260406000209060018060a01b03166000526020526103da6103c6604060002061135c565b6040519182916020835260208301906112c6565b0390f35b34610379576040366003190112610379576103f7611211565b600435600052603960205260406000209060018060a01b03166000526020526020604060002054604051908152f35b346103795760203660031901126103795761043f611227565b60018060a01b036104588160005460101c163314612928565b81161561046a5761046890612961565b005b60405162461bcd60e51b815260206004820152602660248201527f4f776e61626c653a206e6577206f776e657220697320746865207a65726f206160448201526564647265737360d01b6064820152608490fd5b3461037957600036600319011261037957602060405164e8d4a510008152f35b34610379576000366003190112610379576032546040516001600160a01b039091168152602090f35b346103795761046861051836611332565b903392611fbd565b3461037957602036600319011261037957610539611227565b6033546001600160a01b0390811633036105b657603454906000198214610302577f1f1f6396247a5ba59b7b1e094ec3a8e439d4dace0c5ac4fe3ecfde3e68e03a8a926001604093019182603455826000526035602052600484600020019116908160018060a01b031982541617905582519182526020820152a1005b60405162461bcd60e51b815260206004820152601a60248201527f4f6e6c79205072696f7269747920506f6f6c20466163746f72790000000000006044820152606490fd5b3461037957602461060b36611332565b603354604051633a31bb7760e11b8152336004820152939492939260209184919082906001600160a01b03165afa801561036d577fac39f4daefcd1c76d5f04ecf5ccba4bd1758ba2e10ed24921209f47df5dabfb293610678610687926040956000916106b25750611c9f565b610681866121e8565b85612894565b908460005260356020526106a58161027b8460028760002001611ce0565b82519182526020820152a2005b6106ca915060203d811161036657610358818361123d565b8861019a565b3461037957600060206106f360646106e736611332565b91828295923392611d50565b6040516323b872dd60e01b815233600482015230602482015260448101919091529384928391906001600160a01b03165af1801561036d5761073157005b6104689060203d811161036657610358818361123d565b3461037957604036600319011261037957610761611211565b600435600052603760205260406000209060018060a01b03166000526020526040806000206002600182015491015482519182526020820152f35b346103795760403660031901126103795760206107c26107ba611211565b6004356113ad565b6040519015158152f35b34610379576107da366112fa565b6032549092906001600160a01b031633036107f85761046893611d50565b604051636f2b51a560e11b8152600490fd5b346103795760203660031901126103795760043560005260356020526080604060002060038101549060018060a01b03600482015416906006600582015491015491604051938452602084015260408301526060820152f35b346103795760403660031901126103795761087c611211565b60006004356000526035602052604060002091603760205260406000209060018060a01b031660005260205260406000206006830154600090600585015491600184015492836108d2575b602086604051908152f35b80919293949550151580610b8d575b610938575b5060209461092361092d9461091d60039795610917610906600297611438565b64e8d4a510009a8b9701549061147d565b906113fc565b9061146a565b04910154906113f1565b0482808080806108c7565b61095d610944826117de565b909391908490610953426117de565b50959096866113f1565b806109d457505050509461091d600397956109176109066109c360029861091760209e996109239961099261092d9f426113f1565b916004356000526020603690526040600020906000526020526040600020906000526020526040600020549061146a565b9750505095975050945050946108e6565b9450945098909660009892959698965b60011985116103025760018501881015610b62578a87878b8b610a745792610a1f60019593610a1a6109179484610a509861149d565b6113f1565b9060043560005260366020528d6040600020906000526020526040600020906000526020526040600020549061146a565b9a5b0196600c8811610a67575b60010196996109e4565b6001988901989750610a5d565b915050898703610b46576107b291501061037957610b406001916109178d610a1f610b3a610b358f806004610b296064610b23610ae0610b19610b138c610abd610b309a6115d2565b610ad9610b0e610aeb8b610ae5600c998a9687610ad98a61155d565b059061164a565b611675565b05611630565b93610b0884610b02610afc84611575565b9361155d565b056116d9565b906115a9565b61173e565b96611601565b90610ad98c61155d565b0561178e565b05906115a9565b61158d565b611452565b426113f1565b9a610a52565b9161091782610a1f610b5d610b4095600197611bc6565b611408565b60209a5061092d9850600399919397506002965061091d9295506109239450610906610917916109c3565b508042116108e1565b346103795760003660031901126103795760005460405160109190911c6001600160a01b03168152602090f35b34610379576020366003190112610379576004356000526038602052602060ff604060002054166040519015158152f35b346103795760003660031901126103795760008054601081901c6001600160a01b031690610c23338314612928565b82604051927f8be0079c531659141344cd1fd0a4f28419497f9722a3daafe3b4186f6b6457e08285a362010000600160b01b0319168255f35b34610379576000366003190112610379576033546040516001600160a01b039091168152602090f35b34610379576000366003190112610379576020603454604051908152f35b3461037957610cb1366112fa565b6032549092906001600160a01b031633036107f85761046893611fbd565b34610379576020366003190112610379576104686004356121e8565b3461037957604036600319011261037957610d04611227565b610d0c611211565b6000549160ff8360081c161592838094610e76575b8015610e5f575b15610e035760ff19811660011760005583610df1575b506001600160a01b039081169182158015610de7575b610dd557610d7260ff60005460081c16610d6d816128c8565b6128c8565b610d7b33612961565b60018060a01b03199283603254161760325516906033541617603355610d9d57005b61ff0019600054166000557f7f26b83ff96e1f2b6a682f133852f6798a09c465da95921460cefb3847402498602060405160018152a1005b60405163754a046360e11b8152600490fd5b5081811615610d54565b61ffff19166101011760005583610d3e565b60405162461bcd60e51b815260206004820152602e60248201527f496e697469616c697a61626c653a20636f6e747261637420697320616c72656160448201526d191e481a5b9a5d1a585b1a5e995960921b6064820152608490fd5b50303b158015610d285750600160ff821614610d28565b50600160ff821610610d21565b3461037957602080600319360112610379576004356000526035815260406000206040519182838284549283815201809285600052846000209060005b818110610f585750505090610ed691038561123d565b600192610ef06002610ee986840161135c565b920161135c565b926040519586956060870191606088525180925260808701949160005b818110610f3957888703858a015288806103da8a610f2b8b8b6112c6565b9083820360408501526112c6565b83516001600160a01b0316875289985095840195928401928201610f0d565b82546001600160a01b031684528894509286019260019283019201610ec0565b346103795760803660031901126103795760043567ffffffffffffffff60243560443582811161037957610fb090369060040161125f565b9160643590811161037957610fc990369060040161125f565b603354604051633a31bb7760e11b8152336004820152602094918590829060249082906001600160a01b03165afa801561036d5761100e916000916110ca5750611c9f565b80518251036110b857805160005b81811061106b57867f880d9beec00f34e7ded0fd7346510915835cfa34d3d7662d796a71b61bbbdf72878761106688610f2b896060604051968796875286015260608501906112c6565b0390a2005b600190876000526036875260406000206110858286611d3c565b516000528752604060002061109a8287611d3c565b51600052875260406000206110b08782546113fc565b90550161101c565b604051634bbeeee160e01b8152600490fd5b6110e19150863d881161036657610358818361123d565b8761019a565b3461037957604036600319011261037957600435611103611211565b60345482116111bd57611115826121e8565b81600052603560205260406000206037602052604060002033600052602052604060002092600184018054918261114857005b846004611192866111729860066111b899019761117e600264e8d4a51000809d81948d549061146a565b049d019c8d54906113f1565b049160018060a01b039485910154166124e3565b9160405192835216916000805160206129c283398151915260203393a45490549061146a565b049055005b604051631eccb30960e31b8152600490fd5b34610379576060366003190112610379576020906004356000526036825260406000206024356000528252604060002060443560005282526040600020548152f35b602435906001600160a01b038216820361037957565b600435906001600160a01b038216820361037957565b90601f8019910116810190811067ffffffffffffffff82111761031857604052565b9080601f830112156103795781359067ffffffffffffffff8211610318578160051b604051936020936112948584018761123d565b85528380860192820101928311610379578301905b8282106112b7575050505090565b813581529083019083016112a9565b90815180825260208080930193019160005b8281106112e6575050505090565b8351855293810193928101926001016112d8565b608090600319011261037957600435906001600160a01b03602435818116810361037957916044359160643590811681036103795790565b606090600319011261037957600435906024356001600160a01b0381168103610379579060443590565b9060405191828154918282526020928383019160005283600020936000905b828210611393575050506113919250038361123d565b565b85548452600195860195889550938101939091019061137b565b604080516020810192835260609390931b6001600160601b03191690830152906113da81605481016101c7565b519020600052603860205260ff6040600020541690565b818110610302570390565b81198111610302570190565b7dc22e450672894ab6cd8efb11d33f5617839a5bc7dea00c22e450672894ab811160011661030257620151800290565b64e8d4a51000908060001904821181151516610302570290565b62015180908060001904821181151516610302570290565b8060001904821181151516610302570290565b8115611487570490565b634e487b7160e01b600052601260045260246000fd5b916107b2831061037957617d4b600160ff1b01811260011661030257826004610b296064610b23610b3596600c610ad9611527611521611504610b309b8a61152d9f610ae06114ee6114f8926115d2565b89610ad98c61155d565b0590617d4a190161164a565b84610ad9610b0e61151489611575565b610b0884610b028c61155d565b98611601565b9261155d565b6201437019811161030257610dd4196201437082011161030257603b1962015144820111610302576201517f0190565b600e600160ff1b01811260011661030257600d190190565b6002600160ff1b018112600116610302576001190190565b62253d8c600160ff1b0181126001166103025762253d8b190190565b600082128015600160ff1b8401831216610302576001600160ff1b038301821316610302570390565b6112c0906000811280156001600160ff1b0383900384131661030257600160ff1b829003831216610302570190565b611324906000811280156001600160ff1b0383900384131661030257600160ff1b829003831216610302570190565b617d4a600160ff1b01811260011661030257617d49190190565b6000811280156001600160ff1b0383900384131661030257600160ff1b829003831216610302570190565b6105b560008083136001600160ff1b038490048311166001166116c55760017fffe9924f8d0dd7b2e6f174df9576f9de01c091c8faeb2605f522de8852b47aa8841282851216166116c557500290565b634e487b7160e01b81526011600452602490fd5b600060017f0aaaaaaaaaaaaaaaaaaaaaaaaaaaaaaaaaaaaaaaaaaaaaaaaaaaaaaaaaaaaaaa831182841316166116c55760017ff555555555555555555555555555555555555555555555555555555555555556831282841216166116c55750600c0290565b61016f60008083136001600160ff1b038490048311166001166116c55760017fffa6b6c1eb12d573186a06f9b8d9a287530217b7747d8eff4d6d83d625aae631841282851216166116c557500290565b60008082136001600160ff1b03839004600311166001166116c55760017fd555555555555555555555555555555555555555555555555555555555555556831282841216166116c5575060030290565b6001600160ff1b039060009062010bd990620151809004828112818503811581851316611bb257600160ff1b938385039283821216611b9e5785908401129162010bd819908162253d8c93018313841516611b8a57011316611b76576226496501916001936004918585830484118287131616611b6357808512600760fd1b8612168616611b635762023ab194858160021b05958787850482118489131616611b3d57877fffffc694f94337079d130ab45dff8e0f9ea161331bb1c93dea871de6fec83ce288128489121616611b3d578602828112818503600313811516611b505781870360031216611b3d57908460036118db930105906115a9565b928184128484038813811516611af157848603881216611ade57868401610fa08882860482118584131616611b0457887ffff7ced916872b020c49ba5e353f7ced916872b020c49ba5e353f7ced916872c83128584121616611b045761194d9162164b099102059482610b2987611675565b828112818503601f13811516611b0457818703601f1216611af157601f019680888504605011848a131616611af157807ffe666666666666666666666666666666666666666666666666666666666666678912848a121616611af15761098f9788816050020590828287048b118684131616611b2a5784821299837ffff29be1739a4fb805dbcd5d6c7d1f7d6fd627208942391f124ee1c3f307026884128c1616611b175790605083611a02930205906115a9565b98600b820597828703600213821516611b175782900360021216611b045781878604600c118589131616611b0457817ff55555555555555555555555555555555555555555555555555555555555555688128589121616611b0457611a6e90600288600c0291016115a9565b966031600160ff1b0181128216611b04578190603019018095046064118486131616611af1577ffeb851eb851eb851eb851eb851eb851eb851eb851eb851eb851eb851eb851eb984128385121616611ade575050611ad89291611ad39160640261164a565b61164a565b91909192565b634e487b7160e01b825260119052602490fd5b634e487b7160e01b835260118252602483fd5b634e487b7160e01b845260118352602484fd5b634e487b7160e01b865260118552602486fd5b634e487b7160e01b855260118452602485fd5b634e487b7160e01b835260118552602483fd5b634e487b7160e01b845260118652602484fd5b634e487b7160e01b815260118352602490fd5b634e487b7160e01b83526011600452602483fd5b634e487b7160e01b87526011600452602487fd5b634e487b7160e01b86526011600452602486fd5b634e487b7160e01b85526011600452602485fd5b90600181148015611c7d575b8015611c73575b8015611c69575b8015611c5f575b8015611c55575b8015611c4b575b15611c01575050601f90565b600214611c0e5750601e90565b60038116159081611c3e575b8115611c31575b5015611c2c57601d90565b601c90565b6101909150061538611c21565b6064810615159150611c1a565b50600c8114611bf5565b50600a8114611bee565b5060088114611be7565b5060078114611be0565b5060058114611bd9565b5060038114611bd2565b90816020910312610379575180151581036103795790565b15611ca657565b60405162461bcd60e51b815260206004820152601260248201527113db9b1e48141c9a5bdc9a5d1e48141bdbdb60721b6044820152606490fd5b8054821015611cf85760005260206000200190600090565b634e487b7160e01b600052603260045260246000fd5b8054600160401b81101561031857611d2b91600182018155611ce0565b8154906000199060031b1b19169055565b8051821015611cf85760209160051b010190565b9092918015611fab5760345482116111bd57611d6b826121e8565b600092828452603560205260408420936037602052611dbd604082209660018060a01b039586851698898552602052604084209860019582878c01998a548d8d82611f57575b50505050505050612894565b918654600119841192836116c5578280860192838110611f1d575b5088019380855490611b76579081848c9695949310611eae575b505050505093611e8d611ea894611e8085600695611e45611e1c60029c9964e8d4a510009c611ce0565b611e2c8783548360031b1c6113fc565b9082549060031b600019811b9283911b16911916179055565b611e7b611e1c838d8b0193611e74611e6d611e608488611ce0565b90549060031b1c8a61146a565b8b546113fc565b8a55611ce0565b611ce0565b90549060031b1c9061146a565b611e9c600385019182546113fc565b9055549101549061146a565b04910155565b9b9a5093989796959493835b611ece575b899a9b99949596979899611df2565b80611f09578b838b9c9d1015611f005785969798999a50849590611ef28692611d0e565b019b9a999897969594611eba565b508b9a50611ebf565b634e487b7160e01b82526011600452602482fd5b8590915b611f2e575b849150611dd8565b611f0957808385921015611f50578190611f478c611d0e565b01908590611f21565b5084611f26565b86956000805160206129c2833981519152946004610923611f8e611f9896600260209964e8d4a5100094859160068b01549061146a565b04930154166124e3565b604051908152a438808281808d8d611db1565b604051633a8410f160e01b8152600490fd5b8215611fab5760345481116111bd57611fd682826113ad565b156121d657611fe4816121e8565b80600052603560205260406000206037602052604060002060018060a01b03861660005260205260406000209461201b8484612894565b926120268488611ce0565b90549060031b1c86116121c4576120859460209287928960018101548781612160575b505060405163a9059cbb60e01b81526001600160a01b039093166004840152505060248101929092529094859190829060009082906044820190565b03926001600160a01b03165af192831561036d57600294611e80611ea8946121209364e8d4a5100097612141575b506120d16120c1828b611ce0565b611e2c8683548360031b1c6113f1565b8785016120fb6120f16120e48484611ce0565b90549060031b1c8661146a565b60018c01546113f1565b60018b0155611e7b6121108360018901611ce0565b611e2c8783548360031b1c6113f1565b61212f600383019182546113f1565b9055600660018601549101549061146a565b6121599060203d60201161036657610358818361123d565b50386120b3565b6121959260026121819261092360069564e8d4a5100096879301549061146a565b048360018060a01b0360048a0154166124e3565b6040519081526001600160a01b0383169182916000805160206129c2833981519152908890a438898187612049565b604051639a6f4aa760e01b8152600490fd5b604051630b95807b60e21b8152600490fd5b906000918083526020603581526040808520906005820180544211156124da57600383018054156124cd578760058482200154612224816117de565b50918183612231426117de565b50959094808611156124bd5761224790866113f1565b7f155555555555555555555555555555555555555555555555555555555555555581116001166124a95790610a1a61228292600c02886113fc565b80612312575050506122ee8a9b9c6109177f7fa9647ec1cc14e3822b46d05a2b9d4e019bde8875c0088c46b6503d71bf17229c8a6006986122fb988f6123059c996122d06122f39a426113f1565b9584526036825284842090845281528383209183525220549061146a565b611438565b90549061147d565b94019384546113fc565b80935542905551908152a2565b935097959b91935098939b978c9a969a985b6001198411612495576001908185018b101561245057818f918a8a8f948f958f968c8c8f9280156000146123b957505091889161237961091797969594610a1a6123726123979c9d86611bc6565b868661149d565b95845260368152848420918452528282209082528d5220549061146a565b995b0199600c8b116123ac575b019897612324565b9950809a019980996123a4565b909150979594939697146000146124375750925050506107b291929350106124345782916109178b8f61242e948f828f938f90610b3a610b35610b3083612402612379956115d2565b610b296064610b238b600494610ad961152761152161150489610ae5610ae0600c9788610ad98b61155d565b99612399565b80fd5b96816109179598612379610b5d8461242e9b9a96611bc6565b919950506122f3919c5060069499506123059597506122fb93507f7fa9647ec1cc14e3822b46d05a2b9d4e019bde8875c0088c46b6503d71bf17229a969b9250611438565b634e487b7160e01b8e52601160045260248efd5b634e487b7160e01b88526011600452602488fd5b506124c890866113f1565b612282565b5094955050505050429055565b50505050509050565b604080516370a0823160e01b808252306004808401919091529296956001600160a01b03909416936020939260249291858285818a5afa9182156127cb576000926127de575b50818111156127d65750955b8851968288523085890152858885818a5afa9788156127cb5760009861279a575b50895163a9059cbb60e01b8782019081526001600160a01b0390931685820190815260208101929092529081906040015b039061259b601f199283810183528261123d565b8a519267ffffffffffffffff91848d0183811186821017612786578d528885527f5361666545524332303a206c6f772d6c6576656c2063616c6c206661696c656489860152893b156127445760009182915190828c5af190873d1561273157503d90811161271d579187969594939161262f93612621898f5194601f840116018461123d565b82523d60008984013e61280d565b8051806126a6575b505088519586938492835230908301525afa94851561269c5750600094612669575b50509161266691926113f1565b90565b81813d8311612695575b61267d818361123d565b810103126126915751925061266638612659565b8380fd5b503d612673565b513d6000823e3d90fd5b94806126b9939495968301019101611c87565b156126c957908392913880612637565b50602a9060849388519362461bcd60e51b85528401528201527f5361666545524332303a204552433230206f7065726174696f6e20646964206e6044820152691bdd081cdd58d8d9595960b21b6064820152fd5b85604188634e487b7160e01b600052526000fd5b9695949361262f9350916060915061280d565b8c5162461bcd60e51b81528089018a9052601d818901527f416464726573733a2063616c6c20746f206e6f6e2d636f6e74726163740000006044820152606490fd5b8760418a634e487b7160e01b600052526000fd5b90978682813d83116127c4575b6127b1818361123d565b8101031261243457505196612587612556565b503d6127a7565b8a513d6000823e3d90fd5b905095612535565b90918682813d8311612806575b6127f5818361123d565b810103126124345750519038612529565b503d6127eb565b90919015612819575090565b8151156128295750805190602001fd5b6040519062461bcd60e51b82528160208060048301528251928360248401526000915b84831061287b57505091806044931161286e575b601f01601f19168101030190fd5b6000838284010152612860565b818301810151868401604401528593509182019161284c565b61289e82826113ad565b156121d657600052603960205260406000209060018060a01b031660005260205260406000205490565b156128cf57565b60405162461bcd60e51b815260206004820152602b60248201527f496e697469616c697a61626c653a20636f6e7472616374206973206e6f74206960448201526a6e697469616c697a696e6760a81b6064820152608490fd5b1561292f57565b60405162461bcd60e51b815260206004820152600a60248201526927b7363c9037bbb732b960b11b6044820152606490fd5b6000549060018060a01b03808216908360101c167f8be0079c531659141344cd1fd0a4f28419497f9722a3daafe3b4186f6b6457e06000604051a362010000600160b01b031990911660109190911b62010000600160b01b03161760005556fe1ec92956b13869de207e232e60c65e35826c5e12b7fdc6d70b083b5a4fd26703a26469706673582212208f6e8a6c8053d404f276d0c3002c0a733c35919254c0cd1bd741a8b1680389c864736f6c634300080f0033",
  "devdoc": {
    "kind": "dev",
    "methods": {
      "addPool(address)": {
        "params": {
          "_rewardToken": "Reward token address (protocol native token)"
        }
      },
      "addToken(uint256,address,uint256)": {
        "params": {
          "_id": "Pool Id",
          "_token": "Priority pool lp token address",
          "_weight": "Weight of the token in the pool"
        }
      },
      "getPoolArrays(uint256)": {
        "params": {
          "_poolId": "Pool id"
        },
        "returns": {
          "_0": "tokens  Token addresses array",
          "_1": "amounts Token amounts array",
          "_2": "weights Token weights array"
        }
      },
      "getUserLPAmount(uint256,address)": {
        "params": {
          "_poolId": "Pool id",
          "_user": "User address"
        },
        "returns": {
          "_0": "amounts Amount array of user's lp in each generation of lp token"
        }
      },
      "owner()": {
        "details": "Returns the address of the current owner."
      },
      "pendingReward(uint256,address)": {
        "params": {
          "_id": "Pool id",
          "_user": "User's address"
        },
        "returns": {
          "pending": "Pending reward in native token"
        }
      },
      "renounceOwnership()": {
        "details": "Leaves the contract without owner. It will not be possible to call `onlyOwner` functions anymore. Can only be called by the current owner. NOTE: Renouncing ownership will leave the contract without an owner, thereby removing any functionality that is only available to the owner."
      },
      "supportedToken(uint256,address)": {
        "params": {
          "_poolId": "Pool id",
          "_token": "PRI-LP token address"
        },
        "returns": {
          "isSupported": "Whether supported"
        }
      },
      "transferOwnership(address)": {
        "details": "Transfers ownership of the contract to a new account (`newOwner`). Can only be called by the current owner."
      },
      "updateRewardSpeed(uint256,uint256,uint256[],uint256[])": {
        "params": {
          "_id": "Pool id",
          "_months": "Months to be updated",
          "_newSpeed": "New speed (SCALED)",
          "_years": "Years to be updated"
        }
      },
      "updateWeight(uint256,address,uint256)": {
        "params": {
          "_id": "Pool Id",
          "_newWeight": "New weight of the token in the pool",
          "_token": "Token address"
        }
      }
    },
    "version": 1
  },
  "userdoc": {
    "kind": "user",
    "methods": {
      "addPool(address)": {
        "notice": "Register a new famring pool for priority pool"
      },
      "addToken(uint256,address,uint256)": {
        "notice": "Register Pri-LP token         Called when new generation of PRI-LP tokens are deployed         Only called from a priority pool"
      },
      "deposit(uint256,address,uint256)": {
        "notice": "Directly deposit (need approval)"
      },
      "depositFromPolicyCenter(uint256,address,uint256,address)": {
        "notice": "Deposit from Policy Center         No need for approval"
      },
      "getPoolArrays(uint256)": {
        "notice": "Get pool information arrays"
      },
      "getUserLPAmount(uint256,address)": {
        "notice": "Get a user's LP amount"
      },
      "pendingReward(uint256,address)": {
        "notice": "Pending reward"
      },
      "supportedToken(uint256,address)": {
        "notice": "Check whether a token is supported in a certain pool"
      },
      "updateRewardSpeed(uint256,uint256,uint256[],uint256[])": {
        "notice": "Update reward speed when new premium income         Only called from a priority pool"
      },
      "updateWeight(uint256,address,uint256)": {
        "notice": "Update the weight of a token in a given pool         Only called from a priority pool"
      }
    },
    "notice": "Weighted Farming Pool         Weighted farming pool support multiple tokens to earn the same reward         Different tokens will have different weights when calculating rewards         Native token premiums will be transferred to this pool         The distribution is in the way of \"farming\" but with multiple tokens         Different generations of PRI-LP-1-JOE-G1         About the scales of variables:         - weight            SCALE         - share             SCALE         - accRewardPerShare SCALE * SCALE / SCALE = SCALE         - rewardDebt        SCALE * SCALE / SCALE = SCALE         So pendingReward = ((share * acc) / SCALE - debt) / SCALE",
    "version": 1
  },
  "storageLayout": {
    "storage": [
      {
        "astId": 52,
        "contract": "src/reward/farming/WeightedFarmingPool.sol:WeightedFarmingPool",
        "label": "_initialized",
        "offset": 0,
        "slot": "0",
        "type": "t_uint8"
      },
      {
        "astId": 55,
        "contract": "src/reward/farming/WeightedFarmingPool.sol:WeightedFarmingPool",
        "label": "_initializing",
        "offset": 1,
        "slot": "0",
        "type": "t_bool"
      },
      {
        "astId": 15688,
        "contract": "src/reward/farming/WeightedFarmingPool.sol:WeightedFarmingPool",
        "label": "_owner",
        "offset": 2,
        "slot": "0",
        "type": "t_address"
      },
      {
        "astId": 15795,
        "contract": "src/reward/farming/WeightedFarmingPool.sol:WeightedFarmingPool",
        "label": "__gap",
        "offset": 0,
        "slot": "1",
        "type": "t_array(t_uint256)49_storage"
      },
      {
        "astId": 15116,
        "contract": "src/reward/farming/WeightedFarmingPool.sol:WeightedFarmingPool",
        "label": "policyCenter",
        "offset": 0,
        "slot": "50",
        "type": "t_address"
      },
      {
        "astId": 15118,
        "contract": "src/reward/farming/WeightedFarmingPool.sol:WeightedFarmingPool",
        "label": "priorityPoolFactory",
        "offset": 0,
        "slot": "51",
        "type": "t_address"
      },
      {
        "astId": 13484,
        "contract": "src/reward/farming/WeightedFarmingPool.sol:WeightedFarmingPool",
        "label": "counter",
        "offset": 0,
        "slot": "52",
        "type": "t_uint256"
      },
      {
        "astId": 13507,
        "contract": "src/reward/farming/WeightedFarmingPool.sol:WeightedFarmingPool",
        "label": "pools",
        "offset": 0,
        "slot": "53",
        "type": "t_mapping(t_uint256,t_struct(PoolInfo)13502_storage)"
      },
      {
        "astId": 13515,
        "contract": "src/reward/farming/WeightedFarmingPool.sol:WeightedFarmingPool",
        "label": "speed",
        "offset": 0,
        "slot": "54",
        "type": "t_mapping(t_uint256,t_mapping(t_uint256,t_mapping(t_uint256,t_uint256)))"
      },
      {
        "astId": 13530,
        "contract": "src/reward/farming/WeightedFarmingPool.sol:WeightedFarmingPool",
        "label": "users",
        "offset": 0,
        "slot": "55",
        "type": "t_mapping(t_uint256,t_mapping(t_address,t_struct(UserInfo)13523_storage))"
      },
      {
        "astId": 13534,
        "contract": "src/reward/farming/WeightedFarmingPool.sol:WeightedFarmingPool",
        "label": "supported",
        "offset": 0,
        "slot": "56",
        "type": "t_mapping(t_bytes32,t_bool)"
      },
      {
        "astId": 13540,
        "contract": "src/reward/farming/WeightedFarmingPool.sol:WeightedFarmingPool",
        "label": "tokenIndex",
        "offset": 0,
        "slot": "57",
        "type": "t_mapping(t_uint256,t_mapping(t_address,t_uint256))"
      }
    ],
    "types": {
      "t_address": {
        "encoding": "inplace",
        "label": "address",
        "numberOfBytes": "20"
      },
      "t_array(t_address)dyn_storage": {
        "base": "t_address",
        "encoding": "dynamic_array",
        "label": "address[]",
        "numberOfBytes": "32"
      },
      "t_array(t_uint256)49_storage": {
        "base": "t_uint256",
        "encoding": "inplace",
        "label": "uint256[49]",
        "numberOfBytes": "1568"
      },
      "t_array(t_uint256)dyn_storage": {
        "base": "t_uint256",
        "encoding": "dynamic_array",
        "label": "uint256[]",
        "numberOfBytes": "32"
      },
      "t_bool": {
        "encoding": "inplace",
        "label": "bool",
        "numberOfBytes": "1"
      },
      "t_bytes32": {
        "encoding": "inplace",
        "label": "bytes32",
        "numberOfBytes": "32"
      },
      "t_mapping(t_address,t_struct(UserInfo)13523_storage)": {
        "encoding": "mapping",
        "key": "t_address",
        "label": "mapping(address => struct WeightedFarmingPool.UserInfo)",
        "numberOfBytes": "32",
        "value": "t_struct(UserInfo)13523_storage"
      },
      "t_mapping(t_address,t_uint256)": {
        "encoding": "mapping",
        "key": "t_address",
        "label": "mapping(address => uint256)",
        "numberOfBytes": "32",
        "value": "t_uint256"
      },
      "t_mapping(t_bytes32,t_bool)": {
        "encoding": "mapping",
        "key": "t_bytes32",
        "label": "mapping(bytes32 => bool)",
        "numberOfBytes": "32",
        "value": "t_bool"
      },
      "t_mapping(t_uint256,t_mapping(t_address,t_struct(UserInfo)13523_storage))": {
        "encoding": "mapping",
        "key": "t_uint256",
        "label": "mapping(uint256 => mapping(address => struct WeightedFarmingPool.UserInfo))",
        "numberOfBytes": "32",
        "value": "t_mapping(t_address,t_struct(UserInfo)13523_storage)"
      },
      "t_mapping(t_uint256,t_mapping(t_address,t_uint256))": {
        "encoding": "mapping",
        "key": "t_uint256",
        "label": "mapping(uint256 => mapping(address => uint256))",
        "numberOfBytes": "32",
        "value": "t_mapping(t_address,t_uint256)"
      },
      "t_mapping(t_uint256,t_mapping(t_uint256,t_mapping(t_uint256,t_uint256)))": {
        "encoding": "mapping",
        "key": "t_uint256",
        "label": "mapping(uint256 => mapping(uint256 => mapping(uint256 => uint256)))",
        "numberOfBytes": "32",
        "value": "t_mapping(t_uint256,t_mapping(t_uint256,t_uint256))"
      },
      "t_mapping(t_uint256,t_mapping(t_uint256,t_uint256))": {
        "encoding": "mapping",
        "key": "t_uint256",
        "label": "mapping(uint256 => mapping(uint256 => uint256))",
        "numberOfBytes": "32",
        "value": "t_mapping(t_uint256,t_uint256)"
      },
      "t_mapping(t_uint256,t_struct(PoolInfo)13502_storage)": {
        "encoding": "mapping",
        "key": "t_uint256",
        "label": "mapping(uint256 => struct WeightedFarmingPool.PoolInfo)",
        "numberOfBytes": "32",
        "value": "t_struct(PoolInfo)13502_storage"
      },
      "t_mapping(t_uint256,t_uint256)": {
        "encoding": "mapping",
        "key": "t_uint256",
        "label": "mapping(uint256 => uint256)",
        "numberOfBytes": "32",
        "value": "t_uint256"
      },
      "t_struct(PoolInfo)13502_storage": {
        "encoding": "inplace",
        "label": "struct WeightedFarmingPool.PoolInfo",
        "members": [
          {
            "astId": 13487,
            "contract": "src/reward/farming/WeightedFarmingPool.sol:WeightedFarmingPool",
            "label": "tokens",
            "offset": 0,
            "slot": "0",
            "type": "t_array(t_address)dyn_storage"
          },
          {
            "astId": 13490,
            "contract": "src/reward/farming/WeightedFarmingPool.sol:WeightedFarmingPool",
            "label": "amount",
            "offset": 0,
            "slot": "1",
            "type": "t_array(t_uint256)dyn_storage"
          },
          {
            "astId": 13493,
            "contract": "src/reward/farming/WeightedFarmingPool.sol:WeightedFarmingPool",
            "label": "weight",
            "offset": 0,
            "slot": "2",
            "type": "t_array(t_uint256)dyn_storage"
          },
          {
            "astId": 13495,
            "contract": "src/reward/farming/WeightedFarmingPool.sol:WeightedFarmingPool",
            "label": "shares",
            "offset": 0,
            "slot": "3",
            "type": "t_uint256"
          },
          {
            "astId": 13497,
            "contract": "src/reward/farming/WeightedFarmingPool.sol:WeightedFarmingPool",
            "label": "rewardToken",
            "offset": 0,
            "slot": "4",
            "type": "t_address"
          },
          {
            "astId": 13499,
            "contract": "src/reward/farming/WeightedFarmingPool.sol:WeightedFarmingPool",
            "label": "lastRewardTimestamp",
            "offset": 0,
            "slot": "5",
            "type": "t_uint256"
          },
          {
            "astId": 13501,
            "contract": "src/reward/farming/WeightedFarmingPool.sol:WeightedFarmingPool",
            "label": "accRewardPerShare",
            "offset": 0,
            "slot": "6",
            "type": "t_uint256"
          }
        ],
        "numberOfBytes": "224"
      },
      "t_struct(UserInfo)13523_storage": {
        "encoding": "inplace",
        "label": "struct WeightedFarmingPool.UserInfo",
        "members": [
          {
            "astId": 13518,
            "contract": "src/reward/farming/WeightedFarmingPool.sol:WeightedFarmingPool",
            "label": "amount",
            "offset": 0,
            "slot": "0",
            "type": "t_array(t_uint256)dyn_storage"
          },
          {
            "astId": 13520,
            "contract": "src/reward/farming/WeightedFarmingPool.sol:WeightedFarmingPool",
            "label": "shares",
            "offset": 0,
            "slot": "1",
            "type": "t_uint256"
          },
          {
            "astId": 13522,
            "contract": "src/reward/farming/WeightedFarmingPool.sol:WeightedFarmingPool",
            "label": "rewardDebt",
            "offset": 0,
            "slot": "2",
            "type": "t_uint256"
          }
        ],
        "numberOfBytes": "96"
      },
      "t_uint256": {
        "encoding": "inplace",
        "label": "uint256",
        "numberOfBytes": "32"
      },
      "t_uint8": {
        "encoding": "inplace",
        "label": "uint8",
        "numberOfBytes": "1"
      }
    }
  }
}