{
  "address": "0x4ec41a3fe8d788d3082E19F0b51e6FabBd8b8d0d",
  "abi": [
    {
      "anonymous": false,
      "inputs": [
        {
          "indexed": false,
          "internalType": "uint8",
          "name": "version",
          "type": "uint8"
        }
      ],
      "name": "Initialized",
      "type": "event"
    },
    {
      "anonymous": false,
      "inputs": [
        {
          "indexed": false,
          "internalType": "uint256",
          "name": "poolId",
          "type": "uint256"
        },
        {
          "indexed": false,
          "internalType": "string",
          "name": "tokenName",
          "type": "string"
        },
        {
          "indexed": false,
          "internalType": "uint256",
          "name": "expiry",
          "type": "uint256"
        },
        {
          "indexed": false,
          "internalType": "uint256",
          "name": "generation",
          "type": "uint256"
        },
        {
          "indexed": false,
          "internalType": "address",
          "name": "tokenAddress",
          "type": "address"
        }
      ],
      "name": "NewCRTokenDeployed",
      "type": "event"
    },
    {
      "anonymous": false,
      "inputs": [
        {
          "indexed": true,
          "internalType": "address",
          "name": "previousOwner",
          "type": "address"
        },
        {
          "indexed": true,
          "internalType": "address",
          "name": "newOwner",
          "type": "address"
        }
      ],
      "name": "OwnershipTransferred",
      "type": "event"
    },
    {
      "inputs": [
        {
          "internalType": "string",
          "name": "_poolName",
          "type": "string"
        },
        {
          "internalType": "uint256",
          "name": "_poolId",
          "type": "uint256"
        },
        {
          "internalType": "string",
          "name": "_tokenName",
          "type": "string"
        },
        {
          "internalType": "uint256",
          "name": "_expiry",
          "type": "uint256"
        },
        {
          "internalType": "uint256",
          "name": "_generation",
          "type": "uint256"
        }
      ],
      "name": "deployCRToken",
      "outputs": [
        {
          "internalType": "address",
          "name": "newCRToken",
          "type": "address"
        }
      ],
      "stateMutability": "nonpayable",
      "type": "function"
    },
    {
      "inputs": [
        {
          "internalType": "bytes32",
          "name": "",
          "type": "bytes32"
        }
      ],
      "name": "deployed",
      "outputs": [
        {
          "internalType": "bool",
          "name": "",
          "type": "bool"
        }
      ],
      "stateMutability": "view",
      "type": "function"
    },
    {
      "inputs": [
        {
          "internalType": "bytes32",
          "name": "",
          "type": "bytes32"
        }
      ],
      "name": "generation",
      "outputs": [
        {
          "internalType": "uint256",
          "name": "",
          "type": "uint256"
        }
      ],
      "stateMutability": "view",
      "type": "function"
    },
    {
      "inputs": [
        {
          "internalType": "uint256",
          "name": "_poolId",
          "type": "uint256"
        },
        {
          "internalType": "uint256",
          "name": "_expiry",
          "type": "uint256"
        },
        {
          "internalType": "uint256",
          "name": "_generation",
          "type": "uint256"
        }
      ],
      "name": "getCRTokenAddress",
      "outputs": [
        {
          "internalType": "address",
          "name": "crToken",
          "type": "address"
        }
      ],
      "stateMutability": "view",
      "type": "function"
    },
    {
      "inputs": [],
      "name": "incidentReport",
      "outputs": [
        {
          "internalType": "address",
          "name": "",
          "type": "address"
        }
      ],
      "stateMutability": "view",
      "type": "function"
    },
    {
      "inputs": [
        {
          "internalType": "address",
          "name": "_policyCenter",
          "type": "address"
        },
        {
          "internalType": "address",
          "name": "_incidentReport",
          "type": "address"
        }
      ],
      "name": "initialize",
      "outputs": [],
      "stateMutability": "nonpayable",
      "type": "function"
    },
    {
      "inputs": [],
      "name": "owner",
      "outputs": [
        {
          "internalType": "address",
          "name": "",
          "type": "address"
        }
      ],
      "stateMutability": "view",
      "type": "function"
    },
    {
      "inputs": [],
      "name": "payoutPool",
      "outputs": [
        {
          "internalType": "address",
          "name": "",
          "type": "address"
        }
      ],
      "stateMutability": "view",
      "type": "function"
    },
    {
      "inputs": [],
      "name": "policyCenter",
      "outputs": [
        {
          "internalType": "address",
          "name": "",
          "type": "address"
        }
      ],
      "stateMutability": "view",
      "type": "function"
    },
    {
      "inputs": [],
      "name": "renounceOwnership",
      "outputs": [],
      "stateMutability": "nonpayable",
      "type": "function"
    },
    {
      "inputs": [
        {
          "internalType": "bytes32",
          "name": "",
          "type": "bytes32"
        }
      ],
      "name": "saltToAddress",
      "outputs": [
        {
          "internalType": "address",
          "name": "",
          "type": "address"
        }
      ],
      "stateMutability": "view",
      "type": "function"
    },
    {
      "inputs": [
        {
          "internalType": "address",
          "name": "_payoutPool",
          "type": "address"
        }
      ],
      "name": "setPayoutPool",
      "outputs": [],
      "stateMutability": "nonpayable",
      "type": "function"
    },
    {
      "inputs": [
        {
          "internalType": "address",
          "name": "newOwner",
          "type": "address"
        }
      ],
      "name": "transferOwnership",
      "outputs": [],
      "stateMutability": "nonpayable",
      "type": "function"
    }
  ],
  "transactionHash": "0x55d8e297366899ff167b204d520eeea756ede0218892d225605b0cd8f1c3f350",
  "args": [],
  "numDeployments": 1,
  "solcInputHash": "fabc28fa05fbf04887182e53da9c3087",
  "bytecode": "0x6080806040523461001657612ea1908161001c8239f35b600080fdfe6080604052600436101562000014575b600080fd5b60003560e01c80630f89b77d146200013d5780631158c64c14620001325780631620909514620001275780633f07b282146200011c5780633f81ff261462000111578063485cc95514620001065780636273106a14620000fb5780636a6cc25814620000f05780636c1020a114620000e5578063715018a614620000da5780638da5cb5b14620000cf578063e8adbf2f14620000c45763f2fde38b14620000ba57600080fd5b6200000f62000716565b506200000f620006ea565b506200000f620006ba565b506200000f6200064b565b506200000f6200046f565b506200000f6200040f565b506200000f620003e3565b506200000f620002da565b506200000f6200027c565b506200000f620001d8565b506200000f620001a6565b506200000f6200017c565b50346200000f5760003660031901126200000f576033546040516001600160a01b039091168152602090f35b60209060031901126200000f5760043590565b50346200000f576200018e3662000169565b60005260376020526020604060002054604051908152f35b50346200000f57620001b83662000169565b6000526036602052602060018060a01b0360406000205416604051908152f35b50346200000f5760603660031901126200000f5760405160208101906200022b816200021c6044356024356004358791606093918352602083015260408201520190565b03601f19810183528262000889565b5190206000526036602052602060018060a01b0360406000205416604051908152f35b600435906001600160a01b03821682036200000f57565b602435906001600160a01b03821682036200000f57565b50346200000f5760203660031901126200000f576200029a6200024e565b60018060a01b0390620002b68260005460101c163314620008bb565b16620002c4811515620008f5565b603480546001600160a01b031916919091179055005b50346200000f5760403660031901126200000f57620002f86200024e565b6200034e6200030662000265565b600054926200032f60ff8560081c161580958196620003d4575b8115620003b1575b50620007b6565b8362000343600160ff196000541617600055565b62000396576200081a565b62000356575b005b6200036761ff001960005416600055565b604051600181527f7f26b83ff96e1f2b6a682f133852f6798a09c465da95921460cefb384740249890602090a1005b620003ab61010061ff00196000541617600055565b6200081a565b303b15915081620003c5575b503862000328565b6001915060ff161438620003bd565b600160ff821610915062000320565b50346200000f5760003660031901126200000f576034546040516001600160a01b039091168152602090f35b50346200000f57620004213662000169565b6000526035602052602060ff604060002054166040519015158152f35b9181601f840112156200000f5782359167ffffffffffffffff83116200000f57602083818601950101116200000f57565b50346200000f5760a03660031901126200000f5767ffffffffffffffff6004358181116200000f57620004a79036906004016200043e565b9190602435926044359283116200000f5762000647936200062a7f30aea988271444d9893c99d63b763479d038c4b2756b3ede0182f293d5beda9193620004f7620005fe9636906004016200043e565b60325491956084359260643592916200061d91620005ea919062000526906001600160a01b0316331462000931565b6200053385151562000973565b620005e486868c8c620005dd620005d360405160208101906200056d816200021c8a8a898791606093918352602083015260408201520190565b5190209d8e98620005a56200059f6200059b620005948d6000526035602052604060002090565b5460ff1690565b1590565b620009b3565b620005cb620005be8b6000526035602052604060002090565b805460ff19166001179055565b369162000a05565b928a369162000a05565b9162000b85565b62000c5d565b809a81966000526036602052604060002090565b80546001600160a01b0319166001600160a01b03909216919091179055565b6040519687968762000a61565b0390a16040516001600160a01b0390911681529081906020820190565b0390f35b50346200000f57600080600319360112620006b7578054601081901c6001600160a01b0316906200067e338314620008bb565b82604051927f8be0079c531659141344cd1fd0a4f28419497f9722a3daafe3b4186f6b6457e08285a362010000600160b01b0319168255f35b80fd5b50346200000f5760003660031901126200000f5760005460405160109190911c6001600160a01b03168152602090f35b50346200000f5760003660031901126200000f576032546040516001600160a01b039091168152602090f35b50346200000f5760203660031901126200000f57620007346200024e565b60018060a01b036200074f8160005460101c163314620008bb565b8116156200076257620003549062000cd2565b60405162461bcd60e51b815260206004820152602660248201527f4f776e61626c653a206e6577206f776e657220697320746865207a65726f206160448201526564647265737360d01b6064820152608490fd5b15620007be57565b60405162461bcd60e51b815260206004820152602e60248201527f496e697469616c697a61626c653a20636f6e747261637420697320616c72656160448201526d191e481a5b9a5d1a585b1a5e995960921b6064820152608490fd5b906200083960ff60005460081c16620008338162000c71565b62000c71565b620008443362000cd2565b603280546001600160a01b039384166001600160a01b03199182161790915560338054929093169116179055565b50634e487b7160e01b600052604160045260246000fd5b90601f8019910116810190811067ffffffffffffffff821117620008ac57604052565b620008b662000872565b604052565b15620008c357565b60405162461bcd60e51b815260206004820152600a60248201526927b7363c9037bbb732b960b11b6044820152606490fd5b15620008fd57565b60405162461bcd60e51b815260206004820152600c60248201526b5a65726f204164647265737360a01b6044820152606490fd5b156200093957565b60405162461bcd60e51b815260206004820152601260248201527127b7363c903837b634b1bc9031b2b73a32b960711b6044820152606490fd5b156200097b57565b60405162461bcd60e51b815260206004820152601060248201526f5a65726f20657870697279206461746560801b6044820152606490fd5b15620009bb57565b60405162461bcd60e51b815260206004820152601060248201526f105b1c9958591e4819195c1b1bde595960821b6044820152606490fd5b9062000a03604051928362000889565b565b92919267ffffffffffffffff821162000a51575b6040519162000a33601f8201601f19166020018462000889565b8294818452818301116200000f578281602093846000960137010152565b62000a5b62000872565b62000a19565b9491928060809598979460c093885260a060208901528160a0890152838801376000828288010152601f8019910116850101956040850152606084015260018060a01b0316910152565b918091926000905b82821062000acd57501162000ac6575050565b6000910152565b9150806020918301518186015201829162000ab3565b9060209162000afe8151809281855285808601910162000aab565b601f01601f1916010190565b96949160e0969362000b2d62000b41939b9a969b610100808c528b019062000ae3565b9160208a015288820360408a015262000ae3565b606087019890985260808601526001600160a01b0390811660a086015291821660c085015216910152565b9062000b816020928281519485920162000aab565b0190565b62000c4694919262000c1f62000c5a9562000c4d936121399562000bac60208801620009f3565b9680885262000d3360208901396032546001600160a01b0393908416919062000bd7831515620008f5565b6033546001600160a01b03169362000bf38686161515620008f5565b60345462000c0f906001600160a01b03169687161515620008f5565b6040519a8b9860208a0162000b0a565b039262000c35601f199485810183528262000889565b604051958693602085019062000b6c565b9062000b6c565b0390810183528262000889565b90565b6020815191016000f590813b156200000f57565b1562000c7957565b60405162461bcd60e51b815260206004820152602b60248201527f496e697469616c697a61626c653a20636f6e7472616374206973206e6f74206960448201526a6e697469616c697a696e6760a81b6064820152608490fd5b6000549060018060a01b03808216908360101c167f8be0079c531659141344cd1fd0a4f28419497f9722a3daafe3b4186f6b6457e06000604051a362010000600160b01b031990911660109190911b62010000600160b01b03161760005556fe604060e0815234620005645762002139803803806200001e8162000569565b92833981019061010081830312620005645780516001600160401b0390818111620005645783620000519184016200058f565b90602093848401519086850151908382116200056457620000749186016200058f565b6060850151926080860151936200008e60a0880162000612565b97620000ab60e0620000a360c08b0162000612565b990162000612565b968a51918b83018381108682111762000464578c52600783526631b92a37b5b2b760c91b8184015285519285841162000464576003948554946001988987811c9716801562000559575b8588101462000543578190601f97888111620004ed575b50859088831160011462000486576000926200047a575b505060001982891b1c191690891b1786555b8151878111620004645760049283548a81811c9116801562000459575b868210146200044457908188849311620003ee575b50859088831160011462000387576000926200037b575b505060001982891b1c191690891b1782555b8760055560a05282519586116200036657600954908782811c921680156200035b575b83831014620003465750838111620002fa575b50809285116001146200028a57509383949184926000956200027e575b50501b92600019911b1c1916176009555b60c05260805260018060a01b0380928160018060a01b03199516856006541617600655168360075416176007551690600854161760085551611b119081620006288239608051818181610aa3015281816111eb015261137e015260a0518181816102570152818161072c0152610cef015260c0518181816104380152818161091301526111760152f35b015193503880620001e3565b92919084601f198116600960005285600020956000905b89838310620002df5750505010620002c4575b50505050811b01600955620001f4565b01519060f884600019921b161c1916905538808080620002b4565b858701518955909701969485019488935090810190620002a1565b6009600052816000208480880160051c8201928489106200033c575b0160051c019087905b8281106200032f575050620001c6565b600081550187906200031f565b9250819262000316565b602290634e487b7160e01b6000525260246000fd5b91607f1691620001b3565b604190634e487b7160e01b6000525260246000fd5b0151905038806200017e565b908b9350601f1983169186600052876000209260005b89828210620003d75750508411620003be575b505050811b01825562000190565b0151600019838b1b60f8161c19169055388080620003b0565b8385015186558f979095019493840193016200039d565b90915084600052856000208880850160051c8201928886106200043a575b918d91869594930160051c01915b8281106200042a57505062000167565b600081558594508d91016200041a565b925081926200040c565b602285634e487b7160e01b6000525260246000fd5b90607f169062000152565b634e487b7160e01b600052604160045260246000fd5b01519050388062000123565b908b9350601f198316918a600052876000209260005b89828210620004d65750508411620004bd575b505050811b01865562000135565b0151600019838b1b60f8161c19169055388080620004af565b8385015186558f979095019493840193016200049c565b90915088600052856000208880850160051c82019288861062000539575b918d91869594930160051c01915b828110620005295750506200010c565b600081558594508d910162000519565b925081926200050b565b634e487b7160e01b600052602260045260246000fd5b96607f1696620000f5565b600080fd5b6040519190601f01601f191682016001600160401b038111838210176200046457604052565b81601f8201121562000564578051906001600160401b0382116200046457602090620005c4601f8401601f1916830162000569565b93838552828483010111620005645782906000905b83838310620005f957505011620005ef57505090565b6000918301015290565b81935082819392010151828288010152018391620005d9565b51906001600160a01b0382168203620005645756fe608060408181526004908136101561001657600080fd5b600092833560e01c90816306fdde0314610b1957508063095ea7b314610aef5780630f89b77d14610ac65780631721952214610a8b57806318160ddd14610a6c57806323b872dd146109a2578063313ce5671461098657806339509351146109365780633e0dc34e146108fb5780636273106a146108d257806370a082311461089b5780638253b8261461085a57806382b2ed1314610834578063836a1040146106aa57806395d89b41146105d15780639eea5f66146103e4578063a457c2d71461033d578063a9059cbb1461030c578063b39d2bab146102f0578063d89232da146102c3578063dd62ed3e1461027a578063e184c9be1461023f578063e8adbf2f146102125763f3466dfa1461012c57600080fd5b3461020e578260031936011261020e57805191836009549060019082821c928281168015610204575b60209586861082146101f157508488529081156101cf5750600114610194575b6101908686610186828b0383610c6c565b5191829182610bba565b0390f35b929550600983528583205b8284106101bc575050508261019094610186928201019438610175565b805486850188015292860192810161019f565b60ff191687860152505050151560051b83010192506101868261019038610175565b634e487b7160e01b845260229052602483fd5b93607f1693610155565b8280fd5b83823461023b578160031936011261023b5760065490516001600160a01b039091168152602090f35b5080fd5b83823461023b578160031936011261023b57602090517f00000000000000000000000000000000000000000000000000000000000000008152f35b83823461023b578060031936011261023b5780602092610298610c11565b6102a0610c2c565b6001600160a01b0391821683526001865283832091168252845220549051908152f35b83823461023b57602036600319011261023b576020906102e96102e4610c11565b611163565b9051908152f35b83823461023b578160031936011261023b576020905160028152f35b83823461023b578060031936011261023b5760209061033661032c610c11565b6024359033610cc6565b5160018152f35b5091346103e157826003193601126103e157610357610c11565b918360243592338152600160205281812060018060a01b0386168252602052205490828210610390576020856103368585038733610f01565b608490602086519162461bcd60e51b8352820152602560248201527f45524332303a2064656372656173656420616c6c6f77616e63652062656c6f77604482015264207a65726f60d81b6064820152fd5b80fd5b50903461020e576103f436610c42565b6006546001600160a01b039081168015159592949293919261045d91876105ac575b506104266002600554141561103f565b600260055561043686151561108b565b7f0000000000000000000000000000000000000000000000000000000000000000146110c5565b1692831580159061055f5780610558575b610514575b508285528460205283852054908282106104c657506020828493600080516020611abc833981519152938896875286845203868620556104b581600254611101565b6002558551908152a3600160055551f35b608490602086519162461bcd60e51b8352820152602260248201527f45524332303a206275726e20616d6f756e7420657863656564732062616c616e604482015261636560f01b6064820152fd5b61051e5738610473565b606490602085519162461bcd60e51b8352820152601460248201527327b7363c903a37903837b634b1bca1b2b73a32b960611b6044820152fd5b508561046e565b855162461bcd60e51b8152602081850152602160248201527f45524332303a206275726e2066726f6d20746865207a65726f206164647265736044820152607360f81b6064820152608490fd5b331480156105c4575b6105be90611003565b38610416565b50600854841633146105b5565b5082903461023b578160031936011261023b57805191809380549160019083821c928285169485156106a0575b602095868610811461068d57858952908115610669575060011461062e575b6101908787610186828c0383610c6c565b9080949750528583205b8284106106565750505082610190946101869282010194868061061d565b8054868501880152928601928101610638565b60ff19168887015250505050151560051b830101925061018682610190868061061d565b634e487b7160e01b845260228352602484fd5b93607f16936105fe565b50903461020e576106ba36610c42565b600654919290916001600160a01b03916106f69183168061080f575b506106e66002600554141561103f565b600260055561043684151561108b565b6106ff426113d2565b921692838652602092600a84528587209087528352848620610722838254610ca4565b905583156107cc577f000000000000000000000000000000000000000000000000000000000000000042116107975750849181610770600080516020611abc83398151915293600254610ca4565b600255848452838252858420610787828254610ca4565b90558551908152a3600160055551f35b845162461bcd60e51b8152908101839052600f60248201526e22bc3834b932b21031b92a37b5b2b760891b6044820152606490fd5b845162461bcd60e51b8152908101839052601f60248201527f45524332303a206d696e7420746f20746865207a65726f2061646472657373006044820152606490fd5b33148015610827575b61082190611003565b386106d6565b5060085483163314610818565b83823461023b57602036600319011261023b576020906102e9610855610c11565b61110c565b83823461023b578060031936011261023b5760209181906001600160a01b03610881610c11565b168152600a84528181206024358252845220549051908152f35b83823461023b57602036600319011261023b5760209181906001600160a01b036108c3610c11565b16815280845220549051908152f35b83823461023b578160031936011261023b5760085490516001600160a01b039091168152602090f35b83823461023b578160031936011261023b57602090517f00000000000000000000000000000000000000000000000000000000000000008152f35b83823461023b578060031936011261023b5761033660209261097f610959610c11565b338352600186528483206001600160a01b03821684528652918490205460243590610ca4565b9033610f01565b83823461023b578160031936011261023b576020905160068152f35b5091903461023b57606036600319011261023b576109be610c11565b6109c6610c2c565b91846044359460018060a01b038416815260016020528181203382526020522054906000198203610a00575b602086610336878787610cc6565b848210610a295750918391610a1e6020969561033695033383610f01565b9193948193506109f2565b606490602087519162461bcd60e51b8352820152601d60248201527f45524332303a20696e73756666696369656e7420616c6c6f77616e63650000006044820152fd5b83823461023b578160031936011261023b576020906002549051908152f35b83823461023b578160031936011261023b57602090517f00000000000000000000000000000000000000000000000000000000000000008152f35b83823461023b578160031936011261023b5760075490516001600160a01b039091168152602090f35b83823461023b578060031936011261023b57602090610336610b0f610c11565b6024359033610f01565b92905034610bb65783600319360112610bb657600354600181811c9186908281168015610bac575b60209586861082146101f157508488529081156101cf5750600114610b71576101908686610186828b0383610c6c565b929550600383528583205b828410610b99575050508261019094610186928201019438610175565b8054868501880152928601928101610b7c565b93607f1693610b41565b8380fd5b919091602080825283519081818401526000945b828610610bfb575050806040939411610bee575b601f01601f1916010190565b6000838284010152610be2565b8581018201518487016040015294810194610bce565b600435906001600160a01b0382168203610c2757565b600080fd5b602435906001600160a01b0382168203610c2757565b6060906003190112610c2757600435906024356001600160a01b0381168103610c27579060443590565b90601f8019910116810190811067ffffffffffffffff821117610c8e57604052565b634e487b7160e01b600052604160045260246000fd5b81198111610cb0570190565b634e487b7160e01b600052601160045260246000fd5b6001600160a01b039081168015801594919391929190610eae578116938415801590610e5d57807f00000000000000000000000000000000000000000000000000000000000000004211610e1c575b5081610e14575b50610dc8575b50600082815280602052604081205491808310610d745760408282600080516020611abc833981519152958760209652828652038282205586815220610d69828254610ca4565b9055604051908152a3565b60405162461bcd60e51b815260206004820152602660248201527f45524332303a207472616e7366657220616d6f756e7420657863656564732062604482015265616c616e636560d01b6064820152608490fd5b600654168303610dd85738610d22565b60405162461bcd60e51b815260206004820152601460248201527327b7363c903a37903837b634b1bca1b2b73a32b960611b6044820152606490fd5b905038610d1c565b610e265780610d15565b60405162461bcd60e51b815260206004820152600f60248201526e22bc3834b932b21031b92a37b5b2b760891b6044820152606490fd5b60405162461bcd60e51b815260206004820152602360248201527f45524332303a207472616e7366657220746f20746865207a65726f206164647260448201526265737360e81b6064820152608490fd5b60405162461bcd60e51b815260206004820152602560248201527f45524332303a207472616e736665722066726f6d20746865207a65726f206164604482015264647265737360d81b6064820152608490fd5b6001600160a01b03908116918215610fb25716918215610f625760207f8c5be1e5ebec7d5bd14f71427d1e84f3dd0314c0f7b2291e5b200ac8c7c3b925918360005260018252604060002085600052825280604060002055604051908152a3565b60405162461bcd60e51b815260206004820152602260248201527f45524332303a20617070726f766520746f20746865207a65726f206164647265604482015261737360f01b6064820152608490fd5b60405162461bcd60e51b8152602060048201526024808201527f45524332303a20617070726f76652066726f6d20746865207a65726f206164646044820152637265737360e01b6064820152608490fd5b1561100a57565b60405162461bcd60e51b815260206004820152600d60248201526c139bdd081c195c9b5a5d1d1959609a1b6044820152606490fd5b1561104657565b60405162461bcd60e51b815260206004820152601f60248201527f5265656e7472616e637947756172643a207265656e7472616e742063616c6c006044820152606490fd5b1561109257565b60405162461bcd60e51b815260206004820152600b60248201526a16995c9bc8105b5bdd5b9d60aa1b6044820152606490fd5b156110cc57565b60405162461bcd60e51b815260206004820152600d60248201526c15dc9bdb99c81c1bdbdb081a59609a1b6044820152606490fd5b818110610cb0570390565b61111581611163565b6001600160a01b03909116600090815260208190526040902054908181111561113f575050600090565b61114891611101565b90565b62015180908060001904821181151516610cb0570290565b60075460408051637aaf11c760e01b81527f0000000000000000000000000000000000000000000000000000000000000000600482018190526000959490936001600160a01b039390841692909187916020908181602481895afa90811561132f5784916113a5575b50801515908161137a575b506111e6575b50505050505050565b6001967f0000000000000000000000000000000000000000000000000000000000000000888110611366578551632509d07760e11b815260048101929092526000190160248201528181604481895afa90811561132f578491611339575b50845195869163c942adf760e01b835260048301528160246101609889935afa90811561132f57908891859786926112e8575b5050036111dd57825b6002811061128e57506111dd565b6112978161114b565b86116112a5575b8701611280565b986112e088916112c56112c06112ba8e61114b565b8a611101565b6113d2565b8986168752600a855287872090875284528686205490610ca4565b99905061129e565b925096505085813d8311611328575b6113018183610c6c565b8101031261020e57838501518681160361020e578661010060608701519601513880611277565b503d6112f7565b85513d86823e3d90fd5b90508181813d831161135f575b6113508183610c6c565b81010312610bb6575138611244565b503d611346565b634e487b7160e01b85526011600452602485fd5b90507f00000000000000000000000000000000000000000000000000000000000000001115386111d7565b90508181813d83116113cb575b6113bc8183610c6c565b81010312610bb65751386111cc565b503d6113b2565b62010bd9906000906001600160ff1b039062015180900482811281830381158187131661136657600160ff1b9583870392838212166119d75785908401129162010bd819908162253d8c930183138415166119c3570113166119af576226496501600191600494838383048711868513161661199c57848312600760fd1b841216841661199c5762023ab192838160021b0593858585048211888713161661197657857fffffc694f94337079d130ab45dff8e0f9ea161331bb1c93dea871de6fec83ce2861288871216166119765784028681128185036003138115166118ff578184036003121661197657908760036114ce93010590611a03565b9085821282840386138115166119765782820386121661198957848201610fa086828604821189841316166118ff57867ffff7ced916872b020c49ba5e353f7ced916872b020c49ba5e353f7ced916872c831289841216166118ff576115479162164b09910205928861154085611a57565b0590611a03565b868112818503601f138115166118ff57818303601f121661197657601f019185838504605011888513161661197657857ffe66666666666666666666666666666666666666666666666666666666666667841288851216166119765761098f94858460500205938785870488118a8713161661194c5788851296887ffff29be1739a4fb805dbcd5d6c7d1f7d6fd627208942391f124ee1c3f3070268871289161661191257906050866115fc93020590611a03565b95600b850590858703600213811516611912578585036002121661194c57600c928882880485118b84131616611912577ff55555555555555555555555555555555555555555555555555555555555555695898784128c851216166119635761166b9060028487029101611a03565b926031600160ff1b0181128a1661196357603019018a8113818904606411168a1661196357897ffeb851eb851eb851eb851eb851eb851eb851eb851eb851eb851eb851eb851eb982128c83121616611963576116d392916116ce91606402611a2c565b611a2c565b936107b2851061195f57617d4b600160ff1b018712881661194c5784860393898612918215986112c0928784138b166119255788900392838112851661192557908d611737611732611743948a6117298b6119eb565b05908d01611a2c565b611a57565b0590617d4a1901611a2c565b906002600160ff1b0185128b16611939578561175e866119eb565b05908c82137f0aaaaaaaaaaaaaaaaaaaaaaaaaaaaaaaaaaaaaaaaaaaaaaaaaaaaaaaaaaaaaaa8311168c16611925578b9082128d83121616611939576117aa9086026001198601611a03565b61016f8c8213828b048211168c16611925578c82127fffa6b6c1eb12d573186a06f9b8d9a287530217b7747d8eff4d6d83d625aae6318312168c16611925576117f892918791020590611a2c565b9761132495861316611912578412166118ff57926064926118259261181d89966119eb565b059101611a2c565b0580920460031185831316166118ec57827fd555555555555555555555555555555555555555555555555555555555555556821285831216166118ec579084611872926003020590611a03565b9062253d8c600160ff1b018212166118d9576118939062253d8b190161114b565b91620143701983116118c657610dd419620143708401116118c657603b19620151448401116118c65750506201517f0190565b634e487b7160e01b825260119052602490fd5b506011602492634e487b7160e01b835252fd5b634e487b7160e01b845260118552602484fd5b634e487b7160e01b885260118952602488fd5b634e487b7160e01b8a5260118b5260248afd5b50634e487b7160e01b8c5260118d5260248cfd5b634e487b7160e01b8c5260118d5260248cfd5b634e487b7160e01b895260118a52602489fd5b8880fd5b634e487b7160e01b8b5260118c5260248bfd5b634e487b7160e01b875260118852602487fd5b634e487b7160e01b865260118752602486fd5b634e487b7160e01b855260118652602485fd5b634e487b7160e01b83526011600452602483fd5b634e487b7160e01b87526011600452602487fd5b634e487b7160e01b86526011600452602486fd5b600e600160ff1b018112600116610cb057600d190190565b600082128015600160ff1b8401831216610cb0576001600160ff1b038301821316610cb0570390565b6000811280156001600160ff1b03839003841316610cb057600160ff1b829003831216610cb0570190565b6105b560008083136001600160ff1b03849004831116600116611aa75760017fffe9924f8d0dd7b2e6f174df9576f9de01c091c8faeb2605f522de8852b47aa884128285121616611aa757500290565b634e487b7160e01b81526011600452602490fdfeddf252ad1be2c89b69c2b068fc378daa952ba7f163c4a11628f55a4df523b3efa2646970667358221220d0d5672f525dc83a5d449266cbc0a66bf10065462f2b3fe6100e768f2a06c00b64736f6c634300080f0033a2646970667358221220fc8ab302b567feb977d9aac01adb17e63835ce5b039156b522d6fa2c87a634aa64736f6c634300080f0033",
  "devdoc": {
    "kind": "dev",
    "methods": {
      "deployCRToken(string,uint256,string,uint256,uint256)": {
        "params": {
          "_expiry": "Expiry date of cover right token",
          "_generation": "Generation of priority pool & crToken (1 if no liquidations occurred)",
          "_poolId": "Pool Id",
          "_poolName": "Name of Priority Pool",
          "_tokenName": "Name of insured token (e.g. DEG)"
        },
        "returns": {
          "newCRToken": "New deployed crToken address"
        }
      },
      "getCRTokenAddress(uint256,uint256,uint256)": {
        "params": {
          "_expiry": "Expiry timestamp",
          "_generation": "Generation of the crToken",
          "_poolId": "Pool id"
        },
        "returns": {
          "crToken": "CRToken address"
        }
      },
      "owner()": {
        "details": "Returns the address of the current owner."
      },
      "renounceOwnership()": {
        "details": "Leaves the contract without owner. It will not be possible to call `onlyOwner` functions anymore. Can only be called by the current owner. NOTE: Renouncing ownership will leave the contract without an owner, thereby removing any functionality that is only available to the owner."
      },
      "transferOwnership(address)": {
        "details": "Transfers ownership of the contract to a new account (`newOwner`). Can only be called by the current owner."
      }
    },
    "version": 1
  },
  "userdoc": {
    "kind": "user",
    "methods": {
      "deployCRToken(string,uint256,string,uint256,uint256)": {
        "notice": "Deploy Cover Right Token for a given pool"
      },
      "getCRTokenAddress(uint256,uint256,uint256)": {
        "notice": "Get crToken address"
      }
    },
    "notice": "Factory for deploying crTokens         Salt as index for cover right tokens:             salt = keccak256(poolId, expiry, genration)         Factory will record whether a crToken has been deployed         Also record the generation of a specific crToken         And find the address of the crToken with its salt",
    "version": 1
  },
  "storageLayout": {
    "storage": [
      {
        "astId": 184,
        "contract": "src/crTokens/CoverRightTokenFactory.sol:CoverRightTokenFactory",
        "label": "_initialized",
        "offset": 0,
        "slot": "0",
        "type": "t_uint8"
      },
      {
        "astId": 187,
        "contract": "src/crTokens/CoverRightTokenFactory.sol:CoverRightTokenFactory",
        "label": "_initializing",
        "offset": 1,
        "slot": "0",
        "type": "t_bool"
      },
      {
        "astId": 17599,
        "contract": "src/crTokens/CoverRightTokenFactory.sol:CoverRightTokenFactory",
        "label": "_owner",
        "offset": 2,
        "slot": "0",
        "type": "t_address"
      },
      {
        "astId": 17706,
        "contract": "src/crTokens/CoverRightTokenFactory.sol:CoverRightTokenFactory",
        "label": "__gap",
        "offset": 0,
        "slot": "1",
        "type": "t_array(t_uint256)49_storage"
      },
      {
        "astId": 5853,
        "contract": "src/crTokens/CoverRightTokenFactory.sol:CoverRightTokenFactory",
        "label": "policyCenter",
        "offset": 0,
        "slot": "50",
        "type": "t_address"
      },
      {
        "astId": 5855,
        "contract": "src/crTokens/CoverRightTokenFactory.sol:CoverRightTokenFactory",
        "label": "incidentReport",
        "offset": 0,
        "slot": "51",
        "type": "t_address"
      },
      {
        "astId": 5857,
        "contract": "src/crTokens/CoverRightTokenFactory.sol:CoverRightTokenFactory",
        "label": "payoutPool",
        "offset": 0,
        "slot": "52",
        "type": "t_address"
      },
      {
        "astId": 5861,
        "contract": "src/crTokens/CoverRightTokenFactory.sol:CoverRightTokenFactory",
        "label": "deployed",
        "offset": 0,
        "slot": "53",
        "type": "t_mapping(t_bytes32,t_bool)"
      },
      {
        "astId": 5865,
        "contract": "src/crTokens/CoverRightTokenFactory.sol:CoverRightTokenFactory",
        "label": "saltToAddress",
        "offset": 0,
        "slot": "54",
        "type": "t_mapping(t_bytes32,t_address)"
      },
      {
        "astId": 5869,
        "contract": "src/crTokens/CoverRightTokenFactory.sol:CoverRightTokenFactory",
        "label": "generation",
        "offset": 0,
        "slot": "55",
        "type": "t_mapping(t_bytes32,t_uint256)"
      }
    ],
    "types": {
      "t_address": {
        "encoding": "inplace",
        "label": "address",
        "numberOfBytes": "20"
      },
      "t_array(t_uint256)49_storage": {
        "base": "t_uint256",
        "encoding": "inplace",
        "label": "uint256[49]",
        "numberOfBytes": "1568"
      },
      "t_bool": {
        "encoding": "inplace",
        "label": "bool",
        "numberOfBytes": "1"
      },
      "t_bytes32": {
        "encoding": "inplace",
        "label": "bytes32",
        "numberOfBytes": "32"
      },
      "t_mapping(t_bytes32,t_address)": {
        "encoding": "mapping",
        "key": "t_bytes32",
        "label": "mapping(bytes32 => address)",
        "numberOfBytes": "32",
        "value": "t_address"
      },
      "t_mapping(t_bytes32,t_bool)": {
        "encoding": "mapping",
        "key": "t_bytes32",
        "label": "mapping(bytes32 => bool)",
        "numberOfBytes": "32",
        "value": "t_bool"
      },
      "t_mapping(t_bytes32,t_uint256)": {
        "encoding": "mapping",
        "key": "t_bytes32",
        "label": "mapping(bytes32 => uint256)",
        "numberOfBytes": "32",
        "value": "t_uint256"
      },
      "t_uint256": {
        "encoding": "inplace",
        "label": "uint256",
        "numberOfBytes": "32"
      },
      "t_uint8": {
        "encoding": "inplace",
        "label": "uint8",
        "numberOfBytes": "1"
      }
    }
  }
}