{
  "address": "0xF6fdA76857f9A37239dEEA0Ab92F1767263F53B9",
  "abi": [
    {
      "inputs": [],
      "name": "Executor__AlreadyExecuted",
      "type": "error"
    },
    {
      "inputs": [],
      "name": "Executor__ProposalNotPassed",
      "type": "error"
    },
    {
      "inputs": [],
      "name": "Executor__ProposalNotSettled",
      "type": "error"
    },
    {
      "inputs": [],
      "name": "Executor__ReportNotPassed",
      "type": "error"
    },
    {
      "inputs": [],
      "name": "Executor__ReportNotSettled",
      "type": "error"
    },
    {
      "anonymous": false,
      "inputs": [
        {
          "indexed": false,
          "internalType": "uint8",
          "name": "version",
          "type": "uint8"
        }
      ],
      "name": "Initialized",
      "type": "event"
    },
    {
      "anonymous": false,
      "inputs": [
        {
          "indexed": false,
          "internalType": "address",
          "name": "poolAddress",
          "type": "address"
        },
        {
          "indexed": false,
          "internalType": "uint256",
          "name": "proposalId",
          "type": "uint256"
        },
        {
          "indexed": false,
          "internalType": "address",
          "name": "protocol",
          "type": "address"
        }
      ],
      "name": "NewPoolExecuted",
      "type": "event"
    },
    {
      "anonymous": false,
      "inputs": [
        {
          "indexed": true,
          "internalType": "address",
          "name": "previousOwner",
          "type": "address"
        },
        {
          "indexed": true,
          "internalType": "address",
          "name": "newOwner",
          "type": "address"
        }
      ],
      "name": "OwnershipTransferred",
      "type": "event"
    },
    {
      "anonymous": false,
      "inputs": [
        {
          "indexed": false,
          "internalType": "address",
          "name": "pool",
          "type": "address"
        },
        {
          "indexed": false,
          "internalType": "uint256",
          "name": "poolId",
          "type": "uint256"
        },
        {
          "indexed": false,
          "internalType": "uint256",
          "name": "reportId",
          "type": "uint256"
        }
      ],
      "name": "ReportExecuted",
      "type": "event"
    },
    {
      "inputs": [
        {
          "internalType": "uint256",
          "name": "_proposalId",
          "type": "uint256"
        }
      ],
      "name": "executeProposal",
      "outputs": [
        {
          "internalType": "address",
          "name": "newPriorityPool",
          "type": "address"
        }
      ],
      "stateMutability": "nonpayable",
      "type": "function"
    },
    {
      "inputs": [
        {
          "internalType": "uint256",
          "name": "_reportId",
          "type": "uint256"
        }
      ],
      "name": "executeReport",
      "outputs": [],
      "stateMutability": "nonpayable",
      "type": "function"
    },
    {
      "inputs": [],
      "name": "incidentReport",
      "outputs": [
        {
          "internalType": "contract IIncidentReport",
          "name": "",
          "type": "address"
        }
      ],
      "stateMutability": "view",
      "type": "function"
    },
    {
      "inputs": [],
      "name": "initialize",
      "outputs": [],
      "stateMutability": "nonpayable",
      "type": "function"
    },
    {
      "inputs": [],
      "name": "onboardProposal",
      "outputs": [
        {
          "internalType": "contract IOnboardProposal",
          "name": "",
          "type": "address"
        }
      ],
      "stateMutability": "view",
      "type": "function"
    },
    {
      "inputs": [],
      "name": "owner",
      "outputs": [
        {
          "internalType": "address",
          "name": "",
          "type": "address"
        }
      ],
      "stateMutability": "view",
      "type": "function"
    },
    {
      "inputs": [],
      "name": "priorityPoolFactory",
      "outputs": [
        {
          "internalType": "contract IPriorityPoolFactory",
          "name": "",
          "type": "address"
        }
      ],
      "stateMutability": "view",
      "type": "function"
    },
    {
      "inputs": [
        {
          "internalType": "uint256",
          "name": "",
          "type": "uint256"
        }
      ],
      "name": "proposalExecuted",
      "outputs": [
        {
          "internalType": "bool",
          "name": "",
          "type": "bool"
        }
      ],
      "stateMutability": "view",
      "type": "function"
    },
    {
      "inputs": [],
      "name": "renounceOwnership",
      "outputs": [],
      "stateMutability": "nonpayable",
      "type": "function"
    },
    {
      "inputs": [
        {
          "internalType": "uint256",
          "name": "",
          "type": "uint256"
        }
      ],
      "name": "reportExecuted",
      "outputs": [
        {
          "internalType": "bool",
          "name": "",
          "type": "bool"
        }
      ],
      "stateMutability": "view",
      "type": "function"
    },
    {
      "inputs": [
        {
          "internalType": "address",
          "name": "_incidentReport",
          "type": "address"
        }
      ],
      "name": "setIncidentReport",
      "outputs": [],
      "stateMutability": "nonpayable",
      "type": "function"
    },
    {
      "inputs": [
        {
          "internalType": "address",
          "name": "_onboardProposal",
          "type": "address"
        }
      ],
      "name": "setOnboardProposal",
      "outputs": [],
      "stateMutability": "nonpayable",
      "type": "function"
    },
    {
      "inputs": [
        {
          "internalType": "address",
          "name": "_priorityPoolFactory",
          "type": "address"
        }
      ],
      "name": "setPriorityPoolFactory",
      "outputs": [],
      "stateMutability": "nonpayable",
      "type": "function"
    },
    {
      "inputs": [
        {
          "internalType": "address",
          "name": "_treasury",
          "type": "address"
        }
      ],
      "name": "setTreasury",
      "outputs": [],
      "stateMutability": "nonpayable",
      "type": "function"
    },
    {
      "inputs": [
        {
          "internalType": "address",
          "name": "newOwner",
          "type": "address"
        }
      ],
      "name": "transferOwnership",
      "outputs": [],
      "stateMutability": "nonpayable",
      "type": "function"
    },
    {
      "inputs": [],
      "name": "treasury",
      "outputs": [
        {
          "internalType": "contract ITreasury",
          "name": "",
          "type": "address"
        }
      ],
      "stateMutability": "view",
      "type": "function"
    }
  ],
  "transactionHash": "0xb734f823eef43e296ebf80365a802d7ee472d492addf3a98043ecbea3b6168de",
  "args": [],
  "numDeployments": 1,
  "solcInputHash": "cceff87c1df2bd5d90eeac3f1d84e72a",
  "bytecode": "0x6080806040523461001657610e07908161001c8239f35b600080fdfe6080604081815260048036101561001557600080fd5b60009260e08435811c918263084b976314610bc4575081630d61b519146108cb5781630f89b77d146108a1578163103616e81461087457816345ac7890146108255781635e0403e1146104b45750806361d027b31461048b5780636f8a6e4314610462578063715018a6146103f35780638129fc1c146102c35780638da5cb5b14610293578063ad35e1dc14610245578063d4fe01c514610219578063e3356ccf146101cb578063f0f44260146101795763f2fde38b146100d557600080fd5b34610175576020366003190112610175578035906001600160a01b03808316908184036101715761010d90865460101c163314610be9565b1561011f575061011c90610d71565b51f35b608490602084519162461bcd60e51b8352820152602660248201527f4f776e61626c653a206e6577206f776e657220697320746865207a65726f206160448201526564647265737360d01b6064820152fd5b8580fd5b8280fd5b503461017557602036600319011261017557356001600160a01b03818116918290036101c7576101b090845460101c163314610be9565b603580546001600160a01b03191691909117905551f35b8380fd5b503461017557602036600319011261017557356001600160a01b03818116918290036101c75761020290845460101c163314610be9565b603380546001600160a01b03191691909117905551f35b5034610175576020366003190112610175578160209360ff923581526036855220541690519015158152f35b503461017557602036600319011261017557356001600160a01b03818116918290036101c75761027c90845460101c163314610be9565b603280546001600160a01b03191691909117905551f35b5050346102bf57816003193601126102bf579054905160109190911c6001600160a01b03168152602090f35b5080fd5b5034610175578260031936011261017557825460ff8160081c1615918280936103e6575b80156103cf575b15610375575060ff198116600117845581610364575b5061031e60ff845460081c1661031981610d11565b610d11565b61032733610d71565b61032e5751f35b61ff001982541682557f7f26b83ff96e1f2b6a682f133852f6798a09c465da95921460cefb38474024986020825160018152a151f35b61ffff191661010117835538610304565b608490602085519162461bcd60e51b8352820152602e60248201527f496e697469616c697a61626c653a20636f6e747261637420697320616c72656160448201526d191e481a5b9a5d1a585b1a5e995960921b6064820152fd5b50303b1580156102ee5750600160ff8316146102ee565b50600160ff8316106102e7565b5050346102bf57816003193601126102bf5781546001600160a01b0391906104219060101c83163314610be9565b600080549151928260101c167f8be0079c531659141344cd1fd0a4f28419497f9722a3daafe3b4186f6b6457e08285a362010000600160b01b031916600055f35b5050346102bf57816003193601126102bf5760325490516001600160a01b039091168152602090f35b5050346102bf57816003193601126102bf5760355490516001600160a01b039091168152602090f35b9050346101c757602091826003193601126106dc578035908186526036845260ff85872054166108175781865260368452848620805460ff191660011790556033548551634e7f9b1960e01b81528083018490526024949092916001600160a01b03919082169061016080868981865afa95861561080d578b9661073d575b50508401516002190161072d5760016101008501510361071d578089913b156102bf578190878a518094819363d3ecebd760e01b83528a898401525af18015610713576106fe575b5090818892603554168451828a87015116823b156101715760448692838d519586948593630627c88b60e01b85528a8501528d8401525af19081156106e05784916106ea575b50508060325416838551888b51809481936315895f4760e31b8352888301525afa9081156106e0578491610684575b50169461014084015191863b156101c75783918951938492630216e5ad60e31b84528301528183895af1801561067a57610660575b5050907f8fa9381fba721fd6948edce4a010404fc0032dc4dc0c1602636306c4965f5cf693606093925190865193845283015284820152a151f35b61066d9094939294610c22565b6101715790918538610625565b87513d84823e3d90fd5b90503d8085833e6106958183610c4c565b810160a0828203126106dc5781519067ffffffffffffffff8211610171576106be918301610cbc565b506106d5896106ce8a8401610c6e565b9201610c6e565b50386105f0565b8480fd5b89513d86823e3d90fd5b6106f390610c22565b6101755782386105c1565b61070b9098919298610c22565b96903861057b565b88513d8b823e3d90fd5b87516354b3680560e11b81528390fd5b87516317dbbab560e11b81528390fd5b908092965081813d8311610806575b6107568183610c4c565b8101031261080257895191820182811067ffffffffffffffff8211176107f0578a52805182528881015189830152600391906107938b8201610c6e565b8b830152606081015160608301526080810151608083015260a081015160a083015260c081015160c08301528681015187830152610100808201519083015261012080820151908301526101408091015190820152949038610533565b634e487b7160e01b8c5260418652888cfd5b8a80fd5b503d61074c565b8a513d8d823e3d90fd5b8451638a59351b60e01b8152fd5b50503461017557602036600319011261017557356001600160a01b03818116918290036101c75761085d90845460101c163314610be9565b603480546001600160a01b03191691909117905551f35b505034610175576020366003190112610175578160209360ff923581526037855220541690519015158152f35b505050346102bf57816003193601126102bf5760335490516001600160a01b039091168152602090f35b82848634610a7757602093846003193601126102bf578335938483526037865260ff8484205416610bb65784835260378652838320805460ff1916600117905560345484516318feeb1560e31b81528281018790526001600160a01b0393909185908390602490829088165afa918215610bac578592610aac575b50600361014083015103610a9c57600161016083015103610a8c578790846032541660808760a4865197868801986101008b8b5116978a01519901518d51998a988997889563bb9febaf60e01b87528601526109b0845180958160848901528d8989019101610c87565b602485015260448401526064830152601f01601f191681010301925af1938415610a81578094610a1e575b505091816060927f72dad87e42def859d57ce9b5e0ad99cc0b3c3e13ef9147ee80afa2b5a9f103749451169085519216958683528783015284820152a151908152f35b909193508682813d8311610a7a575b610a378183610c4c565b81010312610a7757509181606092610a6f7f72dad87e42def859d57ce9b5e0ad99cc0b3c3e13ef9147ee80afa2b5a9f1037495610c6e565b9450926109db565b80fd5b503d610a2d565b8551903d90823e3d90fd5b855163057c9ceb60e01b81528390fd5b855163c0e8dfe360e01b81528390fd5b9091503d8086833e610abe8183610c4c565b8101888282031261017157815167ffffffffffffffff92838211610b95570190610180928383830312610b9557885193840184811082821117610b995789528251908111610b955790610b12918301610cbc565b8252610b1f898201610c6e565b89830152610b2e878201610c6e565b87830152606081015160608301526080810151608083015260a081015160a083015260c081015160c0830152828101518383015261010080820151908301526101208082015190830152610140808201519083015261016080910151908201529088610946565b8780fd5b634e487b7160e01b895260418752602489fd5b86513d87823e3d90fd5b8351638a59351b60e01b8152fd5b8590346102bf57816003193601126102bf576034546001600160a01b03168152602090f35b15610bf057565b60405162461bcd60e51b815260206004820152600a60248201526927b7363c9037bbb732b960b11b6044820152606490fd5b67ffffffffffffffff8111610c3657604052565b634e487b7160e01b600052604160045260246000fd5b90601f8019910116810190811067ffffffffffffffff821117610c3657604052565b51906001600160a01b0382168203610c8257565b600080fd5b918091926000905b828210610ca7575011610ca0575050565b6000910152565b91508060209183015181860152018291610c8f565b81601f82011215610c8257805167ffffffffffffffff8111610c365760405192610cf0601f8301601f191660200185610c4c565b81845260208284010111610c8257610d0e9160208085019101610c87565b90565b15610d1857565b60405162461bcd60e51b815260206004820152602b60248201527f496e697469616c697a61626c653a20636f6e7472616374206973206e6f74206960448201526a6e697469616c697a696e6760a81b6064820152608490fd5b6000549060018060a01b03808216908360101c167f8be0079c531659141344cd1fd0a4f28419497f9722a3daafe3b4186f6b6457e06000604051a362010000600160b01b031990911660109190911b62010000600160b01b03161760005556fea2646970667358221220a6228e7f13c2c92c5a1ef763026301291517171f024363f4859a3167e2b9354a64736f6c634300080f0033",
  "devdoc": {
    "author": "Eric Lee (ericlee@375labs.org) & Primata (primata@375labs.org)",
    "kind": "dev",
    "methods": {
      "executeProposal(uint256)": {
        "params": {
          "_proposalId": "Proposal id"
        }
      },
      "executeReport(uint256)": {
        "params": {
          "_reportId": "Id of the report to be executed"
        }
      },
      "owner()": {
        "details": "Returns the address of the current owner."
      },
      "renounceOwnership()": {
        "details": "Leaves the contract without owner. It will not be possible to call `onlyOwner` functions anymore. Can only be called by the current owner. NOTE: Renouncing ownership will leave the contract without an owner, thereby removing any functionality that is only available to the owner."
      },
      "transferOwnership(address)": {
        "details": "Transfers ownership of the contract to a new account (`newOwner`). Can only be called by the current owner."
      }
    },
    "title": "Executor Contract",
    "version": 1
  },
  "userdoc": {
    "kind": "user",
    "methods": {
      "executeProposal(uint256)": {
        "notice": "Execute the proposal         The proposal must already been settled and the result is PASSED         New priority pool will be deployed with parameters"
      },
      "executeReport(uint256)": {
        "notice": "Execute a report         The report must already been settled and the result is PASSED         Execution means:             1) Give 10% of protocol income to reporter (USDC)             2) Move the total payout amount out of the priority pool (to payout pool)             3) Deploy new generations of CRTokens and PRI-LP tokens         Can not execute a report before the previous liquidation ended"
      }
    },
    "notice": "This is the executor contract for degis Protocol Protection          The executor is responsible for the execution of the reports and pool proposals         Both administrators or users can execute proposals and reports          Execute a report means:             - Mark the report as executed             - Reward the reported from the Treasury             - Liquidate / Move the total payout amount out of the priority pool (to the payout pool)           Execute a proposal means:             - Mark the proposal as executed             - Create a new priority pool",
    "version": 1
  },
  "storageLayout": {
    "storage": [
      {
        "astId": 184,
        "contract": "src/core/Executor.sol:Executor",
        "label": "_initialized",
        "offset": 0,
        "slot": "0",
        "type": "t_uint8"
      },
      {
        "astId": 187,
        "contract": "src/core/Executor.sol:Executor",
        "label": "_initializing",
        "offset": 1,
        "slot": "0",
        "type": "t_bool"
      },
      {
        "astId": 17599,
        "contract": "src/core/Executor.sol:Executor",
        "label": "_owner",
        "offset": 2,
        "slot": "0",
        "type": "t_address"
      },
      {
        "astId": 17706,
        "contract": "src/core/Executor.sol:Executor",
        "label": "__gap",
        "offset": 0,
        "slot": "1",
        "type": "t_array(t_uint256)49_storage"
      },
      {
        "astId": 5230,
        "contract": "src/core/Executor.sol:Executor",
        "label": "priorityPoolFactory",
        "offset": 0,
        "slot": "50",
        "type": "t_contract(IPriorityPoolFactory)7284"
      },
      {
        "astId": 5233,
        "contract": "src/core/Executor.sol:Executor",
        "label": "incidentReport",
        "offset": 0,
        "slot": "51",
        "type": "t_contract(IIncidentReport)5227"
      },
      {
        "astId": 5236,
        "contract": "src/core/Executor.sol:Executor",
        "label": "onboardProposal",
        "offset": 0,
        "slot": "52",
        "type": "t_contract(IOnboardProposal)6851"
      },
      {
        "astId": 5239,
        "contract": "src/core/Executor.sol:Executor",
        "label": "treasury",
        "offset": 0,
        "slot": "53",
        "type": "t_contract(ITreasury)7362"
      },
      {
        "astId": 3515,
        "contract": "src/core/Executor.sol:Executor",
        "label": "reportExecuted",
        "offset": 0,
        "slot": "54",
        "type": "t_mapping(t_uint256,t_bool)"
      },
      {
        "astId": 3519,
        "contract": "src/core/Executor.sol:Executor",
        "label": "proposalExecuted",
        "offset": 0,
        "slot": "55",
        "type": "t_mapping(t_uint256,t_bool)"
      }
    ],
    "types": {
      "t_address": {
        "encoding": "inplace",
        "label": "address",
        "numberOfBytes": "20"
      },
      "t_array(t_uint256)49_storage": {
        "base": "t_uint256",
        "encoding": "inplace",
        "label": "uint256[49]",
        "numberOfBytes": "1568"
      },
      "t_bool": {
        "encoding": "inplace",
        "label": "bool",
        "numberOfBytes": "1"
      },
      "t_contract(IIncidentReport)5227": {
        "encoding": "inplace",
        "label": "contract IIncidentReport",
        "numberOfBytes": "20"
      },
      "t_contract(IOnboardProposal)6851": {
        "encoding": "inplace",
        "label": "contract IOnboardProposal",
        "numberOfBytes": "20"
      },
      "t_contract(IPriorityPoolFactory)7284": {
        "encoding": "inplace",
        "label": "contract IPriorityPoolFactory",
        "numberOfBytes": "20"
      },
      "t_contract(ITreasury)7362": {
        "encoding": "inplace",
        "label": "contract ITreasury",
        "numberOfBytes": "20"
      },
      "t_mapping(t_uint256,t_bool)": {
        "encoding": "mapping",
        "key": "t_uint256",
        "label": "mapping(uint256 => bool)",
        "numberOfBytes": "32",
        "value": "t_bool"
      },
      "t_uint256": {
        "encoding": "inplace",
        "label": "uint256",
        "numberOfBytes": "32"
      },
      "t_uint8": {
        "encoding": "inplace",
        "label": "uint8",
        "numberOfBytes": "1"
      }
    }
  }
}