{
  "address": "0xd81F274b43662Be743c83d6e0077412572BABF22",
  "abi": [
    {
      "inputs": [],
      "name": "PolicyCenter__AlreadyClaimedPayout",
      "type": "error"
    },
    {
      "inputs": [],
      "name": "PolicyCenter__BadLength",
      "type": "error"
    },
    {
      "inputs": [],
      "name": "PolicyCenter__InsufficientCapacity",
      "type": "error"
    },
    {
      "inputs": [],
      "name": "PolicyCenter__InvalidPremiumSplit",
      "type": "error"
    },
    {
      "inputs": [],
      "name": "PolicyCenter__NoExchange",
      "type": "error"
    },
    {
      "inputs": [],
      "name": "PolicyCenter__NoLiquidity",
      "type": "error"
    },
    {
      "inputs": [],
      "name": "PolicyCenter__NoPayout",
      "type": "error"
    },
    {
      "inputs": [],
      "name": "PolicyCenter__NonExistentPool",
      "type": "error"
    },
    {
      "inputs": [],
      "name": "PolicyCenter__OnlyPriorityPoolFactory",
      "type": "error"
    },
    {
      "inputs": [],
      "name": "PolicyCenter__OnlyTreasury",
      "type": "error"
    },
    {
      "inputs": [],
      "name": "PolicyCenter__PoolPaused",
      "type": "error"
    },
    {
      "inputs": [],
      "name": "PolicyCenter__PremiumTooHigh",
      "type": "error"
    },
    {
      "inputs": [],
      "name": "PolicyCenter__WrongPath",
      "type": "error"
    },
    {
      "inputs": [],
      "name": "PolicyCenter__WrongPriorityPoolID",
      "type": "error"
    },
    {
      "inputs": [],
      "name": "PolicyCenter__ZeroAmount",
      "type": "error"
    },
    {
      "inputs": [],
      "name": "PolicyCenter__ZeroPremium",
      "type": "error"
    },
    {
      "anonymous": false,
      "inputs": [
        {
          "indexed": true,
          "internalType": "address",
          "name": "buyer",
          "type": "address"
        },
        {
          "indexed": true,
          "internalType": "uint256",
          "name": "poolId",
          "type": "uint256"
        },
        {
          "indexed": false,
          "internalType": "uint256",
          "name": "coverDuration",
          "type": "uint256"
        },
        {
          "indexed": false,
          "internalType": "uint256",
          "name": "coverAmount",
          "type": "uint256"
        },
        {
          "indexed": false,
          "internalType": "uint256",
          "name": "premiumInUSDC",
          "type": "uint256"
        }
      ],
      "name": "CoverBought",
      "type": "event"
    },
    {
      "anonymous": false,
      "inputs": [
        {
          "indexed": false,
          "internalType": "uint8",
          "name": "version",
          "type": "uint8"
        }
      ],
      "name": "Initialized",
      "type": "event"
    },
    {
      "anonymous": false,
      "inputs": [
        {
          "indexed": true,
          "internalType": "address",
          "name": "user",
          "type": "address"
        },
        {
          "indexed": false,
          "internalType": "uint256",
          "name": "amount",
          "type": "uint256"
        }
      ],
      "name": "LiquidityProvided",
      "type": "event"
    },
    {
      "anonymous": false,
      "inputs": [
        {
          "indexed": true,
          "internalType": "address",
          "name": "user",
          "type": "address"
        },
        {
          "indexed": false,
          "internalType": "uint256",
          "name": "amount",
          "type": "uint256"
        }
      ],
      "name": "LiquidityRemoved",
      "type": "event"
    },
    {
      "anonymous": false,
      "inputs": [
        {
          "indexed": true,
          "internalType": "address",
          "name": "user",
          "type": "address"
        },
        {
          "indexed": true,
          "internalType": "uint256",
          "name": "poolId",
          "type": "uint256"
        },
        {
          "indexed": false,
          "internalType": "uint256",
          "name": "amount",
          "type": "uint256"
        }
      ],
      "name": "LiquidityStaked",
      "type": "event"
    },
    {
      "anonymous": false,
      "inputs": [
        {
          "indexed": true,
          "internalType": "address",
          "name": "user",
          "type": "address"
        },
        {
          "indexed": true,
          "internalType": "uint256",
          "name": "poolId",
          "type": "uint256"
        },
        {
          "indexed": false,
          "internalType": "uint256",
          "name": "amount",
          "type": "uint256"
        }
      ],
      "name": "LiquidityStakedWithoutFarming",
      "type": "event"
    },
    {
      "anonymous": false,
      "inputs": [
        {
          "indexed": true,
          "internalType": "address",
          "name": "user",
          "type": "address"
        },
        {
          "indexed": true,
          "internalType": "uint256",
          "name": "poolId",
          "type": "uint256"
        },
        {
          "indexed": false,
          "internalType": "address",
          "name": "priorityLP",
          "type": "address"
        },
        {
          "indexed": false,
          "internalType": "uint256",
          "name": "amount",
          "type": "uint256"
        }
      ],
      "name": "LiquidityUnstaked",
      "type": "event"
    },
    {
      "anonymous": false,
      "inputs": [
        {
          "indexed": true,
          "internalType": "address",
          "name": "user",
          "type": "address"
        },
        {
          "indexed": true,
          "internalType": "uint256",
          "name": "poolId",
          "type": "uint256"
        },
        {
          "indexed": false,
          "internalType": "address",
          "name": "priorityLP",
          "type": "address"
        },
        {
          "indexed": false,
          "internalType": "uint256",
          "name": "amount",
          "type": "uint256"
        }
      ],
      "name": "LiquidityUnstakedWithoutFarming",
      "type": "event"
    },
    {
      "anonymous": false,
      "inputs": [
        {
          "indexed": true,
          "internalType": "address",
          "name": "previousOwner",
          "type": "address"
        },
        {
          "indexed": true,
          "internalType": "address",
          "name": "newOwner",
          "type": "address"
        }
      ],
      "name": "OwnershipTransferred",
      "type": "event"
    },
    {
      "anonymous": false,
      "inputs": [
        {
          "indexed": true,
          "internalType": "address",
          "name": "user",
          "type": "address"
        },
        {
          "indexed": false,
          "internalType": "uint256",
          "name": "amount",
          "type": "uint256"
        }
      ],
      "name": "PayoutClaimed",
      "type": "event"
    },
    {
      "anonymous": false,
      "inputs": [
        {
          "indexed": false,
          "internalType": "uint256",
          "name": "toPriority",
          "type": "uint256"
        },
        {
          "indexed": false,
          "internalType": "uint256",
          "name": "toProtection",
          "type": "uint256"
        },
        {
          "indexed": false,
          "internalType": "uint256",
          "name": "toTreasury",
          "type": "uint256"
        }
      ],
      "name": "PremiumSplitted",
      "type": "event"
    },
    {
      "anonymous": false,
      "inputs": [
        {
          "indexed": false,
          "internalType": "address",
          "name": "fromToken",
          "type": "address"
        },
        {
          "indexed": false,
          "internalType": "uint256",
          "name": "amount",
          "type": "uint256"
        },
        {
          "indexed": false,
          "internalType": "uint256",
          "name": "received",
          "type": "uint256"
        }
      ],
      "name": "PremiumSwapped",
      "type": "event"
    },
    {
      "inputs": [],
      "name": "USDC",
      "outputs": [
        {
          "internalType": "address",
          "name": "",
          "type": "address"
        }
      ],
      "stateMutability": "view",
      "type": "function"
    },
    {
      "inputs": [
        {
          "internalType": "address",
          "name": "_token",
          "type": "address"
        }
      ],
      "name": "approvePoolToken",
      "outputs": [],
      "stateMutability": "nonpayable",
      "type": "function"
    },
    {
      "inputs": [
        {
          "internalType": "uint256",
          "name": "_poolId",
          "type": "uint256"
        },
        {
          "internalType": "uint256",
          "name": "_coverAmount",
          "type": "uint256"
        },
        {
          "internalType": "uint256",
          "name": "_coverDuration",
          "type": "uint256"
        },
        {
          "internalType": "uint256",
          "name": "_maxPayment",
          "type": "uint256"
        },
        {
          "internalType": "address[]",
          "name": "path",
          "type": "address[]"
        }
      ],
      "name": "buyCover",
      "outputs": [
        {
          "internalType": "address",
          "name": "",
          "type": "address"
        }
      ],
      "stateMutability": "nonpayable",
      "type": "function"
    },
    {
      "inputs": [
        {
          "internalType": "uint256",
          "name": "_poolId",
          "type": "uint256"
        },
        {
          "internalType": "address",
          "name": "_crToken",
          "type": "address"
        },
        {
          "internalType": "uint256",
          "name": "_generation",
          "type": "uint256"
        }
      ],
      "name": "claimPayout",
      "outputs": [],
      "stateMutability": "nonpayable",
      "type": "function"
    },
    {
      "inputs": [],
      "name": "coverRightTokenFactory",
      "outputs": [
        {
          "internalType": "address",
          "name": "",
          "type": "address"
        }
      ],
      "stateMutability": "view",
      "type": "function"
    },
    {
      "inputs": [
        {
          "internalType": "uint256",
          "name": "_poolId",
          "type": "uint256"
        }
      ],
      "name": "currentLPAddress",
      "outputs": [
        {
          "internalType": "address",
          "name": "lpAddress",
          "type": "address"
        }
      ],
      "stateMutability": "view",
      "type": "function"
    },
    {
      "inputs": [],
      "name": "dexPriceGetter",
      "outputs": [
        {
          "internalType": "address",
          "name": "",
          "type": "address"
        }
      ],
      "stateMutability": "view",
      "type": "function"
    },
    {
      "inputs": [],
      "name": "exchange",
      "outputs": [
        {
          "internalType": "address",
          "name": "",
          "type": "address"
        }
      ],
      "stateMutability": "view",
      "type": "function"
    },
    {
      "inputs": [
        {
          "internalType": "address",
          "name": "_deg",
          "type": "address"
        },
        {
          "internalType": "address",
          "name": "_veDeg",
          "type": "address"
        },
        {
          "internalType": "address",
          "name": "_protectionPool",
          "type": "address"
        }
      ],
      "name": "initialize",
      "outputs": [],
      "stateMutability": "nonpayable",
      "type": "function"
    },
    {
      "inputs": [
        {
          "internalType": "address",
          "name": "",
          "type": "address"
        }
      ],
      "name": "oracleType",
      "outputs": [
        {
          "internalType": "uint256",
          "name": "",
          "type": "uint256"
        }
      ],
      "stateMutability": "view",
      "type": "function"
    },
    {
      "inputs": [],
      "name": "owner",
      "outputs": [
        {
          "internalType": "address",
          "name": "",
          "type": "address"
        }
      ],
      "stateMutability": "view",
      "type": "function"
    },
    {
      "inputs": [],
      "name": "payoutPool",
      "outputs": [
        {
          "internalType": "address",
          "name": "",
          "type": "address"
        }
      ],
      "stateMutability": "view",
      "type": "function"
    },
    {
      "inputs": [],
      "name": "priceGetter",
      "outputs": [
        {
          "internalType": "address",
          "name": "",
          "type": "address"
        }
      ],
      "stateMutability": "view",
      "type": "function"
    },
    {
      "inputs": [],
      "name": "priorityPoolFactory",
      "outputs": [
        {
          "internalType": "address",
          "name": "",
          "type": "address"
        }
      ],
      "stateMutability": "view",
      "type": "function"
    },
    {
      "inputs": [
        {
          "internalType": "uint256",
          "name": "",
          "type": "uint256"
        }
      ],
      "name": "priorityPools",
      "outputs": [
        {
          "internalType": "address",
          "name": "",
          "type": "address"
        }
      ],
      "stateMutability": "view",
      "type": "function"
    },
    {
      "inputs": [],
      "name": "protectionPool",
      "outputs": [
        {
          "internalType": "address",
          "name": "",
          "type": "address"
        }
      ],
      "stateMutability": "view",
      "type": "function"
    },
    {
      "inputs": [
        {
          "internalType": "uint256",
          "name": "_amount",
          "type": "uint256"
        }
      ],
      "name": "provideLiquidity",
      "outputs": [],
      "stateMutability": "nonpayable",
      "type": "function"
    },
    {
      "inputs": [
        {
          "internalType": "uint256",
          "name": "_amount",
          "type": "uint256"
        }
      ],
      "name": "removeLiquidity",
      "outputs": [],
      "stateMutability": "nonpayable",
      "type": "function"
    },
    {
      "inputs": [],
      "name": "renounceOwnership",
      "outputs": [],
      "stateMutability": "nonpayable",
      "type": "function"
    },
    {
      "inputs": [
        {
          "internalType": "address",
          "name": "_coverRightTokenFactory",
          "type": "address"
        }
      ],
      "name": "setCoverRightTokenFactory",
      "outputs": [],
      "stateMutability": "nonpayable",
      "type": "function"
    },
    {
      "inputs": [
        {
          "internalType": "address",
          "name": "_dexPriceGetter",
          "type": "address"
        }
      ],
      "name": "setDexPriceGetter",
      "outputs": [],
      "stateMutability": "nonpayable",
      "type": "function"
    },
    {
      "inputs": [
        {
          "internalType": "address",
          "name": "_exchange",
          "type": "address"
        }
      ],
      "name": "setExchange",
      "outputs": [],
      "stateMutability": "nonpayable",
      "type": "function"
    },
    {
      "inputs": [
        {
          "internalType": "address",
          "name": "_token",
          "type": "address"
        },
        {
          "internalType": "uint256",
          "name": "_type",
          "type": "uint256"
        }
      ],
      "name": "setOracleType",
      "outputs": [],
      "stateMutability": "nonpayable",
      "type": "function"
    },
    {
      "inputs": [
        {
          "internalType": "address",
          "name": "_payoutPool",
          "type": "address"
        }
      ],
      "name": "setPayoutPool",
      "outputs": [],
      "stateMutability": "nonpayable",
      "type": "function"
    },
    {
      "inputs": [
        {
          "internalType": "address",
          "name": "_priceGetter",
          "type": "address"
        }
      ],
      "name": "setPriceGetter",
      "outputs": [],
      "stateMutability": "nonpayable",
      "type": "function"
    },
    {
      "inputs": [
        {
          "internalType": "address",
          "name": "_priorityPoolFactory",
          "type": "address"
        }
      ],
      "name": "setPriorityPoolFactory",
      "outputs": [],
      "stateMutability": "nonpayable",
      "type": "function"
    },
    {
      "inputs": [
        {
          "internalType": "address",
          "name": "_protectionPool",
          "type": "address"
        }
      ],
      "name": "setProtectionPool",
      "outputs": [],
      "stateMutability": "nonpayable",
      "type": "function"
    },
    {
      "inputs": [
        {
          "internalType": "address",
          "name": "_treasury",
          "type": "address"
        }
      ],
      "name": "setTreasury",
      "outputs": [],
      "stateMutability": "nonpayable",
      "type": "function"
    },
    {
      "inputs": [
        {
          "internalType": "address",
          "name": "_weightedFarmingPool",
          "type": "address"
        }
      ],
      "name": "setWeightedFarmingPool",
      "outputs": [],
      "stateMutability": "nonpayable",
      "type": "function"
    },
    {
      "inputs": [
        {
          "internalType": "uint256",
          "name": "_poolId",
          "type": "uint256"
        },
        {
          "internalType": "uint256",
          "name": "_amount",
          "type": "uint256"
        }
      ],
      "name": "stakeLiquidity",
      "outputs": [],
      "stateMutability": "nonpayable",
      "type": "function"
    },
    {
      "inputs": [
        {
          "internalType": "uint256",
          "name": "_poolId",
          "type": "uint256"
        },
        {
          "internalType": "uint256",
          "name": "_amount",
          "type": "uint256"
        }
      ],
      "name": "stakeLiquidityWithoutFarming",
      "outputs": [],
      "stateMutability": "nonpayable",
      "type": "function"
    },
    {
      "inputs": [
        {
          "internalType": "address",
          "name": "_pool",
          "type": "address"
        },
        {
          "internalType": "address",
          "name": "_token",
          "type": "address"
        },
        {
          "internalType": "uint256",
          "name": "_poolId",
          "type": "uint256"
        }
      ],
      "name": "storePoolInformation",
      "outputs": [],
      "stateMutability": "nonpayable",
      "type": "function"
    },
    {
      "inputs": [
        {
          "internalType": "uint256",
          "name": "",
          "type": "uint256"
        }
      ],
      "name": "tokenByPoolId",
      "outputs": [
        {
          "internalType": "address",
          "name": "",
          "type": "address"
        }
      ],
      "stateMutability": "view",
      "type": "function"
    },
    {
      "inputs": [
        {
          "internalType": "address",
          "name": "newOwner",
          "type": "address"
        }
      ],
      "name": "transferOwnership",
      "outputs": [],
      "stateMutability": "nonpayable",
      "type": "function"
    },
    {
      "inputs": [],
      "name": "treasury",
      "outputs": [
        {
          "internalType": "address",
          "name": "",
          "type": "address"
        }
      ],
      "stateMutability": "view",
      "type": "function"
    },
    {
      "inputs": [
        {
          "internalType": "uint256",
          "name": "_poolId",
          "type": "uint256"
        },
        {
          "internalType": "address",
          "name": "_priorityLP",
          "type": "address"
        },
        {
          "internalType": "uint256",
          "name": "_amount",
          "type": "uint256"
        }
      ],
      "name": "unstakeLiquidity",
      "outputs": [],
      "stateMutability": "nonpayable",
      "type": "function"
    },
    {
      "inputs": [
        {
          "internalType": "uint256",
          "name": "_poolId",
          "type": "uint256"
        },
        {
          "internalType": "address",
          "name": "_priorityLP",
          "type": "address"
        },
        {
          "internalType": "uint256",
          "name": "_amount",
          "type": "uint256"
        }
      ],
      "name": "unstakeLiquidityWithoutFarming",
      "outputs": [],
      "stateMutability": "nonpayable",
      "type": "function"
    },
    {
      "inputs": [],
      "name": "weightedFarmingPool",
      "outputs": [
        {
          "internalType": "address",
          "name": "",
          "type": "address"
        }
      ],
      "stateMutability": "view",
      "type": "function"
    }
  ],
  "transactionHash": "0xd8ea94bc0d6fd5ee96fdd074b797f3ddd4e58667a2f83b005d61fca52abea3ff",
  "args": [],
  "numDeployments": 1,
  "solcInputHash": "a476f8c348f2c017fc24c4c7b03829d4",
  "bytecode": "0x608080604052346100165761373c908161001c8239f35b600080fdfe6080604052600436101561001257600080fd5b6000803560e01c80625971b1146127ab5780630121cff514612762578063056d7e581461272f5780631b96666e146126f6578063298d4dd0146126ad57806339827304146126095780633f81ff26146125c05780634ea4c6b31461235257806358bf0f2c1461230957806361d027b3146122e05780636273106a146122b757806367b1f5df1461226e57806367c0dd82146120ce57806367e03b54146120a55780636c1b700f1461207c5780636f8a6e4314612053578063715018a614611fe457806389a3027114611fb55780638da5cb5b14611f8a5780639549bd9a14611f615780639c8f9f2314611eaa578063a8bf604d14611e71578063aa139d5b14611e28578063ab07211e14611c7d578063ad35e1dc14611c34578063b0db637e14611be2578063b567dc6a14611bb9578063b6cccdd014611b16578063bee7fd9214610aec578063bef1e500146107c4578063c0c53b8b146105f0578063c2260f4814610489578063ceed1b9014610460578063d2f7265a14610437578063eb521a4c146102d7578063f02bbc52146102a4578063f0f442601461025b5763f2fde38b146101be57600080fd5b34610258576020366003190112610258576101d76127f4565b60018060a01b036101ef81845460101c1633146128da565b811615610204576101ff906136a6565b604051f35b60405162461bcd60e51b815260206004820152602660248201527f4f776e61626c653a206e6577206f776e657220697320746865207a65726f206160448201526564647265737360d01b6064820152608490fd5b80fd5b5034610258576020366003190112610258576102756127f4565b60018060a01b039061028e82845460101c1633146128da565b1660018060a01b0319603b541617603b55604051f35b5034610258576020366003190112610258576020906004358152603e8252604060018060a01b0391205416604051908152f35b5034610258576020366003190112610258576004358015610425576034546001600160a01b03908116803b15610421576040516344abf1a960e01b81526004810184905233602482015290849081908390604490829084905af19182156104145784926103f9575b50506034546040516323b872dd60e01b81529260209284928392610369929116336004850161292b565b03818673b97ef9ef8734c71904d8002f8b6bc66dd9c48a6e5af180156103ee576103c0575b506040519081527fccb2ae3a2936bf4c94fa4e12cdf0cdad6ed0e4888a044cef89afa60f2e4b92d360203392a2604051f35b6103e09060203d81116103e7575b6103d8818361288e565b810190612913565b503861038e565b503d6103ce565b6040513d85823e3d90fd5b610404919250612860565b6104105781833861033f565b8280fd5b50604051903d90823e3d90fd5b8380fd5b604051631613633b60e01b8152600490fd5b50346102585780600319360112610258576039546040516001600160a01b039091168152602090f35b50346102585780600319360112610258576035546040516001600160a01b039091168152602090f35b50346102585761049836612836565b821580156105d3575b6105c157801561042557828452603d602052604084205484906001600160a01b03908116803b15610410576040516301733ea560e41b81526001600160a01b0386166004820152602481018590523360448201529083908290606490829084905af19081156103ee5783916105ad575b505060345416803b156105a957818091604460405180948193630dfa376d60e01b83528160048401528860248401525af1801561059e5761058a575b50506105827fe44f6895444d7e27100c9f3a39dbf225380f26b7b7ad7cf0cebff9f7e00d5ab09160405191829133958361294d565b0390a3604051f35b61059390612860565b61042157833861054d565b6040513d84823e3d90fd5b5080fd5b6105b690612860565b6105a9578138610511565b604051635824d49b60e01b8152600490fd5b50828452603d60205260408420546001600160a01b0316156104a1565b50346102585760603660031901126102585761060a6127f4565b61061261280a565b906044356001600160a01b0381811692918390036107bf5784549360ff8560081c1615948580966107b2575b801561079b575b1561073f5760ff19811660011787558561072e575b5061067460ff875460081c1661066f81612d97565b612d97565b61067d336136a6565b61068d60ff875460081c16612d97565b8160018060a01b0319931683603254161760325516816033541617603355838052603d602052604084208282825416179055603e6020526040842073b97ef9ef8734c71904d8002f8b6bc66dd9c48a6e8282541617905560345416176034556106f557604051f35b61ff001981541681557f7f26b83ff96e1f2b6a682f133852f6798a09c465da95921460cefb3847402498602060405160018152a1604051f35b61ffff19166101011786553861065a565b60405162461bcd60e51b815260206004820152602e60248201527f496e697469616c697a61626c653a20636f6e747261637420697320616c72656160448201526d191e481a5b9a5d1a585b1a5e995960921b6064820152608490fd5b50303b1580156106455750600160ff821614610645565b50600160ff82161061063e565b600080fd5b5034610258576107d336612836565b909180158015610acf575b6105c1576036546040516315895f4760e31b81526004810183905285946001600160a01b039286908390602490829087165afa8015610a195786928391610aa9575b50604084608481603a54169483519687938492631357a41960e11b845233600485015216968760248401528a60448401528b60648401525af1958615610a9e5787938897610a67575b506040519384526020937fec68461f5d4cc45c89e914cb8826a966c73dd35e5f97815ece0a01ffa4a025a6853392a2866108a4575b87604051f35b83600493604051948580926370c264df60e11b82525afa928315610a5c578893610a24575b50906108d6889392612a55565b866108e5620151808504612ec7565b506108f4848785999499612b60565b968988161561096d575b5050505050505090501691823b156109685760405163020da84160e61b8152600481019290925233602483015260448201529082908290606490829084905af1801561059e57610954575b80808080808061089e565b61095d90612860565b610258578038610949565b505050fd5b8896975090610987610981610997936135e3565b916135e3565b610990866135e3565b9187612a64565b936109be89603754169460405198899788968795636c1020a160e01b875260048701612b26565b03925af1918215610a195786926109df575b505080388080868982806108fe565b90809250813d8311610a12575b6109f6818361288e565b81010312610a0e57610a07906128c6565b38806109d0565b8480fd5b503d6109ec565b6040513d88823e3d90fd5b8480929399508194503d8311610a55575b610a3f818361288e565b810103126107bf579051879690916108d66108c9565b503d610a35565b6040513d8a823e3d90fd5b909650610a8d91935060403d604011610a97575b610a85818361288e565b810190612a3f565b9290929538610869565b503d610a7b565b6040513d89823e3d90fd5b610ac591503d8085833e610abd818361288e565b8101906129b8565b5050505038610820565b50808452603d60205260408420546001600160a01b0316156107de565b50346102585760a0366003190112610258576084356001600160401b0381116105a957366023820112156105a957806004013590610b29826128af565b90610b37604051928361288e565b82825260208201906024829460051b8201019036821161151457602401915b818310611af657505050600435158015611ad7575b6105c157604435151580611aca575b15611ab857600480358452603d602090815260408086205460345491516370a0823160e01b81526001600160a01b03928316948101949094521691908160248173b97ef9ef8734c71904d8002f8b6bc66dd9c48a6e5afa908115611a47578591611a86575b506040516359b6a0c960e01b8152602081600481865afa908115610a19578691611a52575b50612710610c16602092600494612c2c565b049260405192838092636835185f60e11b82525afa8015611a47578590611a13575b610c459150602435612c4a565b11611a01576044906004358452603d602052604060018060a01b038186205416815193848092638905faeb60e01b82526024356004830152823560248301525afa80156114dd57849285916119dc575b5060643583116119ca57610cad620151804204612ec7565b9150506001604435106119b657601960001960443501911015611992575b610ce5610cdc620151804204612ec7565b93849391612c4a565b6001811061170757610d01600c91600019019282840490612c4a565b910660011981116117075792610d3a92610d35926001610d46960191610d2783836134e2565b80911161198a575b50613287565b612c14565b62015180420690612c4a565b4281106115145762015180610d5b9104612ec7565b50610d75610d35610d6e838599956134e2565b8389613287565b906201437019821161157357610dd4196201437083011161157357603b1962015144830111611573576036546040516315895f4760e31b81526004803590820152908990829060249082906001600160a01b03165afa92831561175b576004938a928b91611966575b50604051630b90ca9160e11b81529460209186919082906001600160a01b03165afa93841561195b578a94611924575b506201517f0191610e228484600435612b60565b986001600160a01b038a1615611875575b50505050506001600160a01b0385163b156115145760405163020da84160e61b815260048035908201523360248083019190915235604482015286908181606481836001600160a01b038c165af1801561059e57611861575b5050831561184f576004358652603e60205260018060a01b0360408720541691828752603f602052604087205415600014611798576035546040516302c68be360e31b81526004810185905290602090829060249082908c906001600160a01b03165af1908115610a5c578891611766575b505b60405163313ce56760e01b8152602081600481885afa90811561175b57899161171b575b50600660ff821610611707578660001904670de0b6b3a76400001160011661157357604d60ff82811660051901161161170757610f789060ff9081166005190116600a0a670de0b6b3a76400008802612c2c565b81156116f1576040516323b872dd60e01b6020820152610fb181610fa385850430336024850161292b565b03601f19810183528261288e565b604051610fbd81612873565b602081527f5361666545524332303a206c6f772d6c6576656c2063616c6c206661696c65646020820152863b156116ac578a8083602061102b95519101828b5af13d156116a4573d9061100f82612968565b9161101d604051938461288e565b82523d8d602084013e6135a3565b8051908161162f575b50506111949382820460001904851183830415151661157357611061612710868585040204848404612c3f565b968051916001831061161b5773b97ef9ef8734c71904d8002f8b6bc66dd9c48a6e6001600160a01b03611098600019860185612c56565b5116036115f35781511561160557516001600160a01b03168790036115f3576040518060608101106001600160401b036060830111176115dd578060606040920182526002815260203691013760018060a01b0360395416908b60405163d06ca61f60e01b81528a60048201526040602482015281818061111c6044820187612ce3565b0381875afa90811561059e578261114093926115c2575b5050600019850190612c56565b519081600019046126ac11821515166115735760011942116115ae576126ac612710938e93848d61119d8296604051998a97889687956338ed173960e01b875260048701520204602484015260a0604484015260a4830190612ce3565b30606483015260014201608483015203925af18015610414577f57f3d153693ba34ad2f1603ab743de3caf14b05ffa2fdfae8e9d0947a17c7ca393606093836111f29493611589575b50506000190190612c56565b5197604051908882526020820152886040820152a18560001904611388118615151661157357856112b4602061123161157c6113888e9b020484612c3f565b604080516127108888048b0204815261157c61138887020460208201529081018290529098907fe59d21244ca3bff81515b705214dab78cc9f978c1939e610874429ffa47380b290606090a160385460405163a9059cbb60e01b81529384929183918d918391906127108c8c048f0204906001600160a01b03166004840161294d565b03925af18015610a5c5761157c9260209261138892611556575b5060345460405163a9059cbb60e01b8152948593849361130193910291909104906001600160a01b03166004840161294d565b03818a73b97ef9ef8734c71904d8002f8b6bc66dd9c48a6e5af18015610a9e57611537575b50603b5460405163a9059cbb60e01b81529060209082908190611357908a906001600160a01b03166004840161294d565b03818a73b97ef9ef8734c71904d8002f8b6bc66dd9c48a6e5af18015610a9e57611518575b506034546001600160a01b0316803b156114fc57868091600460405180948193621e432b60e81b83525af1908115610a9e578791611500575b50506004358652603d60205260408620546001600160a01b031690813b156114fc578660849281956127106040519889978896630aadb77760e01b885260243560048901520402046024850152604435604485015260648401525af19081156103ee5783916114e8575b5050603b546001600160a01b0316803b1561041057604483926040519485938492635b97d36760e01b8452600435600485015260248401525af180156114dd576114c9575b60208383604051907f308dab4150a765534b441eef3367b2732d18bfdcd4b5ffe2a7084e1b1699051560043592806114b43394602435604435846040919493926060820195825260208201520152565b0390a36040516001600160a01b039091168152f35b6114d38491612860565b6104105782611464565b6040513d86823e3d90fd5b6114f190612860565b6105a957813861141f565b8680fd5b61150990612860565b6115145785386113b5565b8580fd5b6115309060203d6020116103e7576103d8818361288e565b503861137c565b61154f9060203d6020116103e7576103d8818361288e565b5038611326565b61156c90843d86116103e7576103d8818361288e565b50386112ce565b634e487b7160e01b600052601160045260246000fd5b6115a69293503d8091833e61159e818361288e565b810190612c6a565b90388e6111e6565b634e487b7160e01b8d52601160045260248dfd5b6115d692503d8091833e61159e818361288e565b388e611133565b634e487b7160e01b600052604160045260246000fd5b6040516310bc08dd60e01b8152600490fd5b634e487b7160e01b600052603260045260246000fd5b634e487b7160e01b8c52601160045260248cfd5b602080611640938301019101612913565b1561164c573880611034565b60405162461bcd60e51b815260206004820152602a60248201527f5361666545524332303a204552433230206f7065726174696f6e20646964206e6044820152691bdd081cdd58d8d9595960b21b6064820152608490fd5b6060906135a3565b60405162461bcd60e51b815260206004820152601d60248201527f416464726573733a2063616c6c20746f206e6f6e2d636f6e74726163740000006044820152606490fd5b634e487b7160e01b600052601260045260246000fd5b634e487b7160e01b89526011600452602489fd5b90506020813d602011611753575b816117366020938361288e565b8101031261174f575160ff8116810361174f5738610f24565b8880fd5b3d9150611729565b6040513d8b823e3d90fd5b90506020813d602011611790575b816117816020938361288e565b810103126107bf575138610efe565b3d9150611774565b604087205460010361181957603c546040516302c68be360e31b81526004810185905290602090829060249082908c906001600160a01b03165af1908115610a5c5788916117e7575b50610f00565b90506020813d602011611811575b816118026020938361288e565b810103126107bf5751386117e1565b3d91506117f5565b60405162461bcd60e51b815260206004820152600a60248201526957726f6e67207479706560b01b6044820152606490fd5b0390fd5b60405163720794bf60e01b8152600490fd5b61186a90612860565b611514578538610e8c565b6020949599509061188b61098161189b936135e3565b611894876135e3565b9184612a64565b8960018060a01b0360375416926118cc60405197889687958694636c1020a160e01b86526004359060048701612b26565b03925af1908115610a195786916118ea575b50933880808080610e33565b90506020813d60201161191c575b816119056020938361288e565b8101031261151457611916906128c6565b386118de565b3d91506118f8565b9093506020813d602011611953575b816119406020938361288e565b810103126107bf5751926201517f610e0e565b3d9150611933565b6040513d8c823e3d90fd5b6020935061197e91503d808d833e610abd818361288e565b50505092909290610dde565b925038610d2f565b600119106119a257604435610ccb565b634e487b7160e01b85526011600452602485fd5b634e487b7160e01b86526011600452602486fd5b60405163855e507b60e01b8152600490fd5b90506119f891925060403d604011610a9757610a85818361288e565b91909138610c95565b604051637730dc0b60e01b8152600490fd5b506020813d602011611a3f575b81611a2d6020938361288e565b810103126107bf57610c459051610c38565b3d9150611a20565b6040513d87823e3d90fd5b90506020813d602011611a7e575b81611a6d6020938361288e565b810103126107bf5751612710610c04565b3d9150611a60565b90506020813d602011611ab0575b81611aa16020938361288e565b810103126107bf575138610bdf565b3d9150611a94565b6040516307aaabcb60e21b8152600490fd5b5060036044351115610b7a565b506004358352603d60205260408320546001600160a01b031615610b6b565b82356001600160a01b03811681036107bf57815260209283019201610b56565b503461025857606036600319011261025857611b306127f4565b90611b3961280a565b60365460443593906001600160a01b039081163303611ba7578415611b935783946101ff9452603e602052604085209060018060a01b03199181851683825416179055603d60205260408620921690825416179055612d20565b634e487b7160e01b84526001600452602484fd5b604051632b29402d60e21b8152600490fd5b50346102585780600319360112610258576038546040516001600160a01b039091168152602090f35b503461025857604036600319011261025857611bfc6127f4565b6024359060018060a01b0390611c1982855460101c1633146128da565b600283101561181957168252603f6020526040822055604051f35b503461025857602036600319011261025857611c4e6127f4565b60018060a01b0390611c6782845460101c1633146128da565b1660018060a01b03196036541617603655604051f35b503461025857611c8c36612836565b82158015611e0b575b6105c15780156104255760385484906001600160a01b03908116803b15610410576040516316858d7960e21b8152600481018790526001600160a01b0386166024820152604481018590523360648201529083908290608490829084905af19081156103ee578391611df7575b50859052603d60205280604083205416803b15610410576040516301733ea560e41b81526001600160a01b0386166004820152602481018590523360448201529083908290606490829084905af19081156103ee578391611de3575b505060345416803b156105a957818091604460405180948193630dfa376d60e01b83528160048401528860248401525af1801561059e57611dcf575b50506105827f2dbdab27a2d16e827c458789b39587a960ef326f381f784ffa198426f36751979160405191829133958361294d565b611dd890612860565b610421578338611d9a565b611dec90612860565b6105a9578138611d5e565b611e0090612860565b6105a9578138611d02565b50828452603d60205260408420546001600160a01b031615611c95565b503461025857602036600319011261025857611e426127f4565b60018060a01b0390611e5b82845460101c1633146128da565b1660018060a01b03196037541617603755604051f35b5034610258576020366003190112610258576101ff611e8e6127f4565b611ea560018060a01b03845460101c1633146128da565b612d20565b5034610258576020806003193601126105a95760043590811561042557603454604051636d40d7d760e11b8152600481018490523360248201529082908290604490829088906001600160a01b03165af180156114dd57611f37575b507fc2c3f06e49b9f15e7b4af9055e183b0d73362e033ad82a07dec9bf9840171719906040519283523392a2604051f35b8190813d8311611f5a575b611f4c818361288e565b810103126107bf5738611f06565b503d611f42565b5034610258578060031936011261025857603c546040516001600160a01b039091168152602090f35b50346102585780600319360112610258575460405160109190911c6001600160a01b03168152602090f35b5034610258578060031936011261025857602060405173b97ef9ef8734c71904d8002f8b6bc66dd9c48a6e8152f35b503461025857806003193601126102585780546001600160a01b03906120109060101c821633146128da565b6000546000604051928260101c167f8be0079c531659141344cd1fd0a4f28419497f9722a3daafe3b4186f6b6457e08285a362010000600160b01b031916600055f35b50346102585780600319360112610258576036546040516001600160a01b039091168152602090f35b50346102585780600319360112610258576034546040516001600160a01b039091168152602090f35b50346102585780600319360112610258576037546040516001600160a01b039091168152602090f35b5034610258576120dd36612820565b81158015612251575b6105c157801561042557818352603d60209081526040808520549051630a43eeed60e11b81526004810184905233602482015285916001600160a01b0391908216848260448187855af180156114dd5785918791612216575b6121689350846034541690866040518096819582946323b872dd60e01b8452336004850161292b565b03925af180156103ee576121f9575b5060345416803b156105a957818091604460405180948193630dfa376d60e01b8352600160048401528960248401525af1801561059e576121e5575b50507f6ed71e479f5286ad6192bfdc2b224afa6073276d8f9a0e5028400f589fbb39cc906040519283523392a3604051f35b6121ee90612860565b6104215783386121b3565b61220f90843d86116103e7576103d8818361288e565b5038612177565b91905082813d831161224a575b61222d818361288e565b8101031261042157858591612244612168946128c6565b5061213f565b503d612223565b50818352603d60205260408320546001600160a01b0316156120e6565b5034610258576020366003190112610258576122886127f4565b60018060a01b03906122a182845460101c1633146128da565b1660018060a01b03196039541617603955604051f35b5034610258578060031936011261025857603a546040516001600160a01b039091168152602090f35b5034610258578060031936011261025857603b546040516001600160a01b039091168152602090f35b5034610258576020366003190112610258576123236127f4565b60018060a01b039061233c82845460101c1633146128da565b1660018060a01b03196038541617603855604051f35b50346102585761236136612820565b811580156125a3575b6105c157801561042557818352603d60209081526040808520549051630a43eeed60e11b8152600481018490523060248201526001600160a01b03929183169082816044818a865af1908115610a9e578584918993612569575b506123ee92938660345416908a6040518096819582946323b872dd60e01b8452336004850161292b565b03925af18015610a9e5761254c575b50858360345416803b156105a9578190604460405180948193630dfa376d60e01b8352600160048401528a60248401525af18015610a9e57612539575b50826038541692833b156114fc57604051635a12fc9360e11b8152600481018790526001600160a01b03831660248201526044810186905233606482015293879081908690608490829084905af1948515610414578695612520575b50918184936124c19693603854169160405180988196829563a9059cbb60e01b84526004840161294d565b0393165af1918215611a47577f1e54d7530dad81af38adb8ca9db02add3130668375f37be85396403616fc3d4992612503575b506040519283523392a3604051f35b61251990823d84116103e7576103d8818361288e565b50386124f4565b61252c91929550612860565b6115145783928638612496565b61254590969196612860565b943861243a565b61256290833d85116103e7576103d8818361288e565b50386123fd565b92505081813d831161259c575b612580818361288e565b810103126114fc5782856125966123ee936128c6565b926123c4565b503d612576565b50818352603d60205260408320546001600160a01b03161561236a565b5034610258576020366003190112610258576125da6127f4565b60018060a01b03906125f382845460101c1633146128da565b1660018060a01b0319603a541617603a55604051f35b5034610258576020908160031936011261025857600480358252603d83526040808320549051634e75827160e01b81526001600160a01b0392909185918391829086165afa9283156126a1578093612667575b505060405191168152f35b909192508382813d831161269a575b612680818361288e565b810103126102585750612692906128c6565b90388061265c565b503d612676565b604051903d90823e3d90fd5b5034610258576020366003190112610258576126c76127f4565b60018060a01b03906126e082845460101c1633146128da565b1660018060a01b03196035541617603555604051f35b5034610258576020366003190112610258576020906040906001600160a01b0361271e6127f4565b168152603f83522054604051908152f35b5034610258576020366003190112610258576020906004358152603d8252604060018060a01b0391205416604051908152f35b50346102585760203660031901126102585761277c6127f4565b60018060a01b039061279582845460101c1633146128da565b1660018060a01b03196034541617603455604051f35b5034610258576020366003190112610258576127c56127f4565b60018060a01b03906127de82845460101c1633146128da565b1660018060a01b0319603c541617603c55604051f35b600435906001600160a01b03821682036107bf57565b602435906001600160a01b03821682036107bf57565b60409060031901126107bf576004359060243590565b60609060031901126107bf57600435906024356001600160a01b03811681036107bf579060443590565b6001600160401b0381116115dd57604052565b604081019081106001600160401b038211176115dd57604052565b90601f801991011681019081106001600160401b038211176115dd57604052565b6001600160401b0381116115dd5760051b60200190565b51906001600160a01b03821682036107bf57565b156128e157565b60405162461bcd60e51b815260206004820152600a60248201526927b7363c9037bbb732b960b11b6044820152606490fd5b908160209103126107bf575180151581036107bf5790565b6001600160a01b03918216815291166020820152604081019190915260600190565b6001600160a01b039091168152602081019190915260400190565b6001600160401b0381116115dd57601f01601f191660200190565b918091926000905b8282106129a357501161299c575050565b6000910152565b9150806020918301518186015201829161298b565b9060a0828203126107bf5781516001600160401b0381116107bf57820181601f820112156107bf5780516129eb81612968565b926129f9604051948561288e565b818452602082840101116107bf57612a179160208085019101612983565b91612a24602083016128c6565b91612a31604082016128c6565b916080606083015192015190565b91908260409103126107bf576020825192015190565b60001981146115735760010190565b6027919493612aff936040519687936243522d60e81b6020860152612a93815180926020602389019101612983565b840190602d60f81b91826023820152612ab6825180936020602485019101612983565b01906024820152612ad1825180936020602585019101612983565b01612d4760f01b6025820152612af08251809360208785019101612983565b0103600781018552018361288e565b565b90602091612b1a81518092818552858086019101612983565b601f01601f1916010190565b91608093612b43612b56939897969860a0865260a0860190612b01565b9160208501528382036040850152612b01565b9460608201520152565b916040519160208301938452604083015260608201526060815260808101918183106001600160401b038411176115dd5782602481602093816040528551902060018060a01b036037541690631620909560e01b835260848701525afa908115612c0857600091612bd2575b50905090565b602090813d8111612c01575b612be8818661288e565b810103126102585750612bfa906128c6565b8038612bcc565b503d612bde565b6040513d6000823e3d90fd5b62015180908060001904821181151516611573570290565b8060001904821181151516611573570290565b818110611573570390565b81198111611573570190565b80518210156116055760209160051b010190565b60209081818403126107bf578051906001600160401b0382116107bf57019180601f840112156107bf578251612c9f816128af565b93612cad604051958661288e565b818552838086019260051b8201019283116107bf578301905b828210612cd4575050505090565b81518152908301908301612cc6565b90815180825260208080930193019160005b828110612d03575050505090565b83516001600160a01b031685529381019392810192600101612cf5565b6039546001600160a01b0391908216908115612d855760446020926000604051958694859363095ea7b360e01b8552600485015282196024850152165af18015612c0857612d6b5750565b612d829060203d81116103e7576103d8818361288e565b50565b6040516307bb995d60e41b8152600490fd5b15612d9e57565b60405162461bcd60e51b815260206004820152602b60248201527f496e697469616c697a61626c653a20636f6e7472616374206973206e6f74206960448201526a6e697469616c697a696e6760a81b6064820152608490fd5b6000811280156001600160ff1b0383900384131661157357600160ff1b829003831216611573570190565b6105b560008083136001600160ff1b03849004831116600116612e725760017fffe9924f8d0dd7b2e6f174df9576f9de01c091c8faeb2605f522de8852b47aa884128285121616612e7257500290565b634e487b7160e01b81526011600452602490fd5b600e600160ff1b01811260011661157357600d190190565b600082128015600160ff1b8401831216611573576001600160ff1b038301821316611573570390565b6000916001600160ff1b039162010bd99084811281850381158185131661327357600160ff1b93838503928382121661325f5787908401129162010bd819908162253d8c93018313841516611707570113166119a257622649650193600193600491858783048411828913161661324c57808712600760fd1b881216861661324c5762023ab196878160021b0597878985048211848b13161661322657877fffffc694f94337079d130ab45dff8e0f9ea161331bb1c93dea871de6fec83ce28a12848b12161661322657880282811281850360031381151661323957818703600312166132265790846003612fbe93010590612e9e565b9281841284840388138115166131da578486038812166131c757868401610fa088828604821185841316166131ed57887ffff7ced916872b020c49ba5e353f7ced916872b020c49ba5e353f7ced916872c831285841216166131ed576130379162164b09910205948261303087612e22565b0590612e9e565b828112818503601f138115166131ed57818703601f12166131da57601f019680888504605011848a1316166131da57807ffe666666666666666666666666666666666666666666666666666666666666678912848a1216166131da5761098f9788816050020590828287048b1186841316166132135784821299837ffff29be1739a4fb805dbcd5d6c7d1f7d6fd627208942391f124ee1c3f307026884128c161661320057906050836130ec93020590612e9e565b98600b82059782870360021382151661320057829003600212166131ed5781878604600c1185891316166131ed57817ff555555555555555555555555555555555555555555555555555555555555556881285891216166131ed5761315890600288600c029101612e9e565b986031600160ff1b01811282166131ed5781906030190180950460641184861316166131da577ffeb851eb851eb851eb851eb851eb851eb851eb851eb851eb851eb851eb851eb9841283851216166131c75750506131c292916131bd91606402612df7565b612df7565b929190565b634e487b7160e01b825260119052602490fd5b634e487b7160e01b835260118252602483fd5b634e487b7160e01b845260118352602484fd5b634e487b7160e01b865260118552602486fd5b634e487b7160e01b855260118452602485fd5b634e487b7160e01b835260118552602483fd5b634e487b7160e01b845260118652602484fd5b634e487b7160e01b815260118352602490fd5b634e487b7160e01b88526011600452602488fd5b634e487b7160e01b87526011600452602487fd5b9291926107b281106107bf57600191617d4b600160ff1b0185128316611573576000918281128015926001600160ff1b03929182840391906112c0838113871661325f57600160ff1b8590039081811283166117075761330498999a9b6133159161330960049b8c92600c6132fb8a612e86565b05908b01612df7565b612e22565b0590617d4a1901612df7565b6002600160ff1b0184128b166134cf57600c61333085612e86565b058b7f0aaaaaaaaaaaaaaaaaaaaaaaaaaaaaaaaaaaaaaaaaaaaaaaaaaaaaaaaaaaaaaa82118c831316166134bc578b7ff55555555555555555555555555555555555555555555555555555555555555682128c831216166134bc5761339c90600c026001198601612e9e565b61016f8c828a0482118d841316166134a9578c7fffa6b6c1eb12d573186a06f9b8d9a287530217b7747d8eff4d6d83d625aae63183128d841216166134a9576133eb9291600c91020590612df7565b966113249485131661349657831216613483578792606492600c61341161341994612e86565b059101612df7565b0580920460031185831316166131ed57847fd555555555555555555555555555555555555555555555555555555555555556821285831216166131ed579082613466926003020590612e9e565b9262253d8c600160ff1b018412166131c757505062253d8b190190565b634e487b7160e01b875260118652602487fd5b634e487b7160e01b895260118852602489fd5b634e487b7160e01b8c5260118b5260248cfd5b634e487b7160e01b8b5260118a5260248bfd5b634e487b7160e01b8a526011895260248afd5b90600181148015613599575b801561358f575b8015613585575b801561357b575b8015613571575b8015613567575b1561351d575050601f90565b60021461352a5750601e90565b6003811615908161355a575b811561354d575b501561354857601d90565b601c90565b610190915006153861353d565b6064810615159150613536565b50600c8114613511565b50600a811461350a565b5060088114613503565b50600781146134fc565b50600581146134f5565b50600381146134ee565b909190156135af575090565b8151156135bf5750805190602001fd5b60405162461bcd60e51b81526020600482015290819061184b906024830190612b01565b801561368857600081805b61367457506135fc81612968565b9061360a604051928361288e565b808252601f1961361982612968565b013660208401375b80831561366d5760018110611573576000190192600a91828206603081198111611573578551871015611605570160f81b6001600160f81b03191660001a908401601f01530491613621565b5050905090565b90613680600a91612a55565b9104806135ee565b5060405161369581612873565b60018152600360fc1b602082015290565b6000549060018060a01b03808216908360101c167f8be0079c531659141344cd1fd0a4f28419497f9722a3daafe3b4186f6b6457e06000604051a362010000600160b01b031990911660109190911b62010000600160b01b03161760005556fea26469706673582212209ce167171bb6134df5f21469114a7e360e95e55540a153ae8ab7fd9b3a20a24e64736f6c634300080f0033",
  "devdoc": {
    "author": "Eric Lee (ylikp.ust@gmail.com) & Primata (primata@375labs.org)",
    "kind": "dev",
    "methods": {
      "approvePoolToken(address)": {
        "params": {
          "_token": "Address of the approved token"
        }
      },
      "buyCover(uint256,uint256,uint256,uint256,address[])": {
        "params": {
          "_coverAmount": "Amount to cover",
          "_coverDuration": "Cover duration in month (1 ~ 3)",
          "_maxPayment": "Maximum payment user can accept",
          "_poolId": "Pool id"
        },
        "returns": {
          "_0": "crToken CR token address"
        }
      },
      "claimPayout(uint256,address,uint256)": {
        "params": {
          "_crToken": "Cover right token address",
          "_generation": "Generation of the priority pool",
          "_poolId": "Pool id"
        }
      },
      "currentLPAddress(uint256)": {
        "params": {
          "_poolId": "Priority Pool ID"
        },
        "returns": {
          "lpAddress": "Current generation LP token address"
        }
      },
      "owner()": {
        "details": "Returns the address of the current owner."
      },
      "provideLiquidity(uint256)": {
        "params": {
          "_amount": "Amount of liquidity (usdc) to provide"
        }
      },
      "removeLiquidity(uint256)": {
        "params": {
          "_amount": "Amount of liquidity to provide"
        }
      },
      "renounceOwnership()": {
        "details": "Leaves the contract without owner. It will not be possible to call `onlyOwner` functions anymore. Can only be called by the current owner. NOTE: Renouncing ownership will leave the contract without an owner, thereby removing any functionality that is only available to the owner."
      },
      "stakeLiquidity(uint256,uint256)": {
        "params": {
          "_amount": "Amount of PRO-LP tokens to stake",
          "_poolId": "Pool id"
        }
      },
      "stakeLiquidityWithoutFarming(uint256,uint256)": {
        "params": {
          "_amount": "Amount of PRO-LP amount",
          "_poolId": "Pool id"
        }
      },
      "storePoolInformation(address,address,uint256)": {
        "params": {
          "_pool": "Address of the priority pool",
          "_poolId": "Pool id",
          "_token": "Address of the priority pool's native token"
        }
      },
      "transferOwnership(address)": {
        "details": "Transfers ownership of the contract to a new account (`newOwner`). Can only be called by the current owner."
      },
      "unstakeLiquidity(uint256,address,uint256)": {
        "params": {
          "_amount": "Amount of LP(priority lp) tokens to withdraw",
          "_poolId": "Pool id",
          "_priorityLP": "Priority lp token address to withdraw"
        }
      },
      "unstakeLiquidityWithoutFarming(uint256,address,uint256)": {
        "params": {
          "_amount": "PRI-LP token amount to remove",
          "_poolId": "Pool id",
          "_priorityLP": "PRI-LP token address"
        }
      }
    },
    "title": "Policy Center",
    "version": 1
  },
  "userdoc": {
    "kind": "user",
    "methods": {
      "approvePoolToken(address)": {
        "notice": "Approve the exchange to swap tokens"
      },
      "buyCover(uint256,uint256,uint256,uint256,address[])": {
        "notice": "Buy new cover for a given pool         Select a pool with parameter \"poolId\"         Cover amount is in usdc and duration is in month         The premium ratio may be dynamic so \"maxPayment\" is similar to \"slippage\""
      },
      "claimPayout(uint256,address,uint256)": {
        "notice": "Claim payout         Need to use a specific crToken address as parameter"
      },
      "currentLPAddress(uint256)": {
        "notice": "Returns the current LP address for a Pool ID         \"Current\" means the LP address that is currently being used         Because each priority pool may have several generations of LP tokens         Once reported and paid out, the LP generation will be updated"
      },
      "provideLiquidity(uint256)": {
        "notice": "Provide liquidity to Protection Pool"
      },
      "removeLiquidity(uint256)": {
        "notice": "Remove liquidity from protection pool"
      },
      "stakeLiquidity(uint256,uint256)": {
        "notice": "Stake Protection Pool LP (PRO-LP) into priority pools         And automatically stake the PRI-LP tokens into weighted farming pool         With this function, no need for approval of PRI-LP tokens         If you want to hold the PRI-LP tokens for other usage         Call \"stakeLiquidityWithoutFarming\""
      },
      "stakeLiquidityWithoutFarming(uint256,uint256)": {
        "notice": "Stake liquidity to priority pool without depositing into farming"
      },
      "storePoolInformation(address,address,uint256)": {
        "notice": "Store new pool information"
      },
      "unstakeLiquidity(uint256,address,uint256)": {
        "notice": "Unstake Protection Pool LP from priority pools         There may be different generations of priority lp tokens         This function will first remove the PRI-LP token from farming pool         Ensure that your PRI-LP tokens are inside the farming pool         If the PRI-LP tokens are in your own wallet, use \"unstakeLiquidityWithoutFarming\""
      },
      "unstakeLiquidityWithoutFarming(uint256,address,uint256)": {
        "notice": "Unstake liquidity without removing PRI-LP from farming"
      }
    },
    "notice": "This is the policy center for degis Protocol Protection         Users can buy policies and get payoff here         Sellers can provide liquidity and choose the pools to cover",
    "version": 1
  },
  "storageLayout": {
    "storage": [
      {
        "astId": 184,
        "contract": "src/core/PolicyCenter.sol:PolicyCenter",
        "label": "_initialized",
        "offset": 0,
        "slot": "0",
        "type": "t_uint8"
      },
      {
        "astId": 187,
        "contract": "src/core/PolicyCenter.sol:PolicyCenter",
        "label": "_initializing",
        "offset": 1,
        "slot": "0",
        "type": "t_bool"
      },
      {
        "astId": 17599,
        "contract": "src/core/PolicyCenter.sol:PolicyCenter",
        "label": "_owner",
        "offset": 2,
        "slot": "0",
        "type": "t_address"
      },
      {
        "astId": 17706,
        "contract": "src/core/PolicyCenter.sol:PolicyCenter",
        "label": "__gap",
        "offset": 0,
        "slot": "1",
        "type": "t_array(t_uint256)49_storage"
      },
      {
        "astId": 6143,
        "contract": "src/core/PolicyCenter.sol:PolicyCenter",
        "label": "deg",
        "offset": 0,
        "slot": "50",
        "type": "t_contract(IDegisToken)6259"
      },
      {
        "astId": 6146,
        "contract": "src/core/PolicyCenter.sol:PolicyCenter",
        "label": "veDeg",
        "offset": 0,
        "slot": "51",
        "type": "t_contract(IVeDEG)7390"
      },
      {
        "astId": 5298,
        "contract": "src/core/PolicyCenter.sol:PolicyCenter",
        "label": "protectionPool",
        "offset": 0,
        "slot": "52",
        "type": "t_address"
      },
      {
        "astId": 5300,
        "contract": "src/core/PolicyCenter.sol:PolicyCenter",
        "label": "priceGetter",
        "offset": 0,
        "slot": "53",
        "type": "t_address"
      },
      {
        "astId": 5302,
        "contract": "src/core/PolicyCenter.sol:PolicyCenter",
        "label": "priorityPoolFactory",
        "offset": 0,
        "slot": "54",
        "type": "t_address"
      },
      {
        "astId": 5304,
        "contract": "src/core/PolicyCenter.sol:PolicyCenter",
        "label": "coverRightTokenFactory",
        "offset": 0,
        "slot": "55",
        "type": "t_address"
      },
      {
        "astId": 5306,
        "contract": "src/core/PolicyCenter.sol:PolicyCenter",
        "label": "weightedFarmingPool",
        "offset": 0,
        "slot": "56",
        "type": "t_address"
      },
      {
        "astId": 5308,
        "contract": "src/core/PolicyCenter.sol:PolicyCenter",
        "label": "exchange",
        "offset": 0,
        "slot": "57",
        "type": "t_address"
      },
      {
        "astId": 5310,
        "contract": "src/core/PolicyCenter.sol:PolicyCenter",
        "label": "payoutPool",
        "offset": 0,
        "slot": "58",
        "type": "t_address"
      },
      {
        "astId": 5312,
        "contract": "src/core/PolicyCenter.sol:PolicyCenter",
        "label": "treasury",
        "offset": 0,
        "slot": "59",
        "type": "t_address"
      },
      {
        "astId": 5314,
        "contract": "src/core/PolicyCenter.sol:PolicyCenter",
        "label": "dexPriceGetter",
        "offset": 0,
        "slot": "60",
        "type": "t_address"
      },
      {
        "astId": 3771,
        "contract": "src/core/PolicyCenter.sol:PolicyCenter",
        "label": "priorityPools",
        "offset": 0,
        "slot": "61",
        "type": "t_mapping(t_uint256,t_address)"
      },
      {
        "astId": 3775,
        "contract": "src/core/PolicyCenter.sol:PolicyCenter",
        "label": "tokenByPoolId",
        "offset": 0,
        "slot": "62",
        "type": "t_mapping(t_uint256,t_address)"
      },
      {
        "astId": 3779,
        "contract": "src/core/PolicyCenter.sol:PolicyCenter",
        "label": "oracleType",
        "offset": 0,
        "slot": "63",
        "type": "t_mapping(t_address,t_uint256)"
      }
    ],
    "types": {
      "t_address": {
        "encoding": "inplace",
        "label": "address",
        "numberOfBytes": "20"
      },
      "t_array(t_uint256)49_storage": {
        "base": "t_uint256",
        "encoding": "inplace",
        "label": "uint256[49]",
        "numberOfBytes": "1568"
      },
      "t_bool": {
        "encoding": "inplace",
        "label": "bool",
        "numberOfBytes": "1"
      },
      "t_contract(IDegisToken)6259": {
        "encoding": "inplace",
        "label": "contract IDegisToken",
        "numberOfBytes": "20"
      },
      "t_contract(IVeDEG)7390": {
        "encoding": "inplace",
        "label": "contract IVeDEG",
        "numberOfBytes": "20"
      },
      "t_mapping(t_address,t_uint256)": {
        "encoding": "mapping",
        "key": "t_address",
        "label": "mapping(address => uint256)",
        "numberOfBytes": "32",
        "value": "t_uint256"
      },
      "t_mapping(t_uint256,t_address)": {
        "encoding": "mapping",
        "key": "t_uint256",
        "label": "mapping(uint256 => address)",
        "numberOfBytes": "32",
        "value": "t_address"
      },
      "t_uint256": {
        "encoding": "inplace",
        "label": "uint256",
        "numberOfBytes": "32"
      },
      "t_uint8": {
        "encoding": "inplace",
        "label": "uint8",
        "numberOfBytes": "1"
      }
    }
  }
}