{
  "address": "0xB16318093a72A4252BA5794c64b6176AD40C7fbC",
  "abi": [
    {
      "anonymous": false,
      "inputs": [
        {
          "indexed": false,
          "internalType": "uint8",
          "name": "version",
          "type": "uint8"
        }
      ],
      "name": "Initialized",
      "type": "event"
    },
    {
      "anonymous": false,
      "inputs": [
        {
          "indexed": false,
          "internalType": "uint80",
          "name": "roundID",
          "type": "uint80"
        },
        {
          "indexed": false,
          "internalType": "int256",
          "name": "price",
          "type": "int256"
        },
        {
          "indexed": false,
          "internalType": "uint256",
          "name": "startedAt",
          "type": "uint256"
        },
        {
          "indexed": false,
          "internalType": "uint256",
          "name": "timeStamp",
          "type": "uint256"
        },
        {
          "indexed": false,
          "internalType": "uint80",
          "name": "answeredInRound",
          "type": "uint80"
        }
      ],
      "name": "LatestPriceGet",
      "type": "event"
    },
    {
      "anonymous": false,
      "inputs": [
        {
          "indexed": true,
          "internalType": "address",
          "name": "previousOwner",
          "type": "address"
        },
        {
          "indexed": true,
          "internalType": "address",
          "name": "newOwner",
          "type": "address"
        }
      ],
      "name": "OwnershipTransferred",
      "type": "event"
    },
    {
      "anonymous": false,
      "inputs": [
        {
          "indexed": false,
          "internalType": "string",
          "name": "tokenName",
          "type": "string"
        },
        {
          "indexed": false,
          "internalType": "address",
          "name": "tokenAddress",
          "type": "address"
        },
        {
          "indexed": false,
          "internalType": "address",
          "name": "feedAddress",
          "type": "address"
        },
        {
          "indexed": false,
          "internalType": "uint256",
          "name": "decimals",
          "type": "uint256"
        }
      ],
      "name": "PriceFeedChanged",
      "type": "event"
    },
    {
      "inputs": [
        {
          "internalType": "address",
          "name": "_tokenAddress",
          "type": "address"
        }
      ],
      "name": "getLatestPrice",
      "outputs": [
        {
          "internalType": "uint256",
          "name": "finalPrice",
          "type": "uint256"
        }
      ],
      "stateMutability": "nonpayable",
      "type": "function"
    },
    {
      "inputs": [
        {
          "internalType": "string",
          "name": "_tokenName",
          "type": "string"
        }
      ],
      "name": "getLatestPrice",
      "outputs": [
        {
          "internalType": "uint256",
          "name": "",
          "type": "uint256"
        }
      ],
      "stateMutability": "nonpayable",
      "type": "function"
    },
    {
      "inputs": [],
      "name": "initialize",
      "outputs": [],
      "stateMutability": "nonpayable",
      "type": "function"
    },
    {
      "inputs": [
        {
          "internalType": "string",
          "name": "",
          "type": "string"
        }
      ],
      "name": "nameToAddress",
      "outputs": [
        {
          "internalType": "address",
          "name": "",
          "type": "address"
        }
      ],
      "stateMutability": "view",
      "type": "function"
    },
    {
      "inputs": [],
      "name": "owner",
      "outputs": [
        {
          "internalType": "address",
          "name": "",
          "type": "address"
        }
      ],
      "stateMutability": "view",
      "type": "function"
    },
    {
      "inputs": [
        {
          "internalType": "address",
          "name": "",
          "type": "address"
        }
      ],
      "name": "priceFeedInfo",
      "outputs": [
        {
          "internalType": "address",
          "name": "priceFeedAddress",
          "type": "address"
        },
        {
          "internalType": "uint256",
          "name": "decimals",
          "type": "uint256"
        }
      ],
      "stateMutability": "view",
      "type": "function"
    },
    {
      "inputs": [],
      "name": "renounceOwnership",
      "outputs": [],
      "stateMutability": "nonpayable",
      "type": "function"
    },
    {
      "inputs": [
        {
          "internalType": "string",
          "name": "_tokenName",
          "type": "string"
        },
        {
          "internalType": "address",
          "name": "_tokenAddress",
          "type": "address"
        },
        {
          "internalType": "address",
          "name": "_feedAddress",
          "type": "address"
        },
        {
          "internalType": "uint256",
          "name": "_decimals",
          "type": "uint256"
        }
      ],
      "name": "setPriceFeed",
      "outputs": [],
      "stateMutability": "nonpayable",
      "type": "function"
    },
    {
      "inputs": [
        {
          "internalType": "address",
          "name": "newOwner",
          "type": "address"
        }
      ],
      "name": "transferOwnership",
      "outputs": [],
      "stateMutability": "nonpayable",
      "type": "function"
    }
  ],
  "transactionHash": "0x1726fc817860a34509bcc717352d66254d6eb49a57ce3ddc1cd4bb0d7ee6fd05",
  "args": [],
  "numDeployments": 1,
  "solcInputHash": "b14605bdbce809ea8e8295fa1fe73c69",
  "bytecode": "0x60808060405234610016576109e9908161001c8239f35b600080fdfe6040608081526004908136101561001557600080fd5b6000803560e01c806308d88aad1461059a57806316345f1814610574578063715018a61461050e57806377def8d4146103385780638129fc1c146102075780638da5cb5b146101d7578063a9ff6c0f14610192578063f2fde38b146100f45763f66a1b711461008357600080fd5b346100f15760203660031901126100f15782359067ffffffffffffffff82116100f157506100b96020936100ea9236910161063a565b836100cc84519283815193849201610696565b603390820190815281900384019020546001600160a01b0316610731565b9051908152f35b80fd5b50913461018e57602036600319011261018e5761010f6106cb565b9060018060a01b0361012881865460101c1633146106e1565b82161561013c575061013990610953565b51f35b608490602084519162461bcd60e51b8352820152602660248201527f4f776e61626c653a206e6577206f776e657220697320746865207a65726f206160448201526564647265737360d01b6064820152fd5b8280fd5b50346100f15760203660031901126100f1576001600160a01b03906001908390836101bb6106cb565b1681526032602052209182541691015482519182526020820152f35b5090346102035781600319360112610203579054905160109190911c6001600160a01b03168152602090f35b5080fd5b50913461018e578260031936011261018e57825460ff8160081c16159182809361032b575b8015610314575b156102ba575060ff1981166001178455816102a9575b5061026360ff845460081c1661025e816108f3565b6108f3565b61026c33610953565b6102735751f35b61ff001982541682557f7f26b83ff96e1f2b6a682f133852f6798a09c465da95921460cefb38474024986020825160018152a151f35b61ffff191661010117835538610249565b608490602085519162461bcd60e51b8352820152602e60248201527f496e697469616c697a61626c653a20636f6e747261637420697320616c72656160448201526d191e481a5b9a5d1a585b1a5e995960921b6064820152fd5b50303b1580156102335750600160ff831614610233565b50600160ff83161061022c565b50913461018e57608036600319011261018e5767ffffffffffffffff90803582811161050a5761036b903690830161063a565b916001600160a01b039160243583811690819003610506576044359184831680930361050257606435936103a6868a5460101c1633146106e1565b83156104d057601285116104995787519182890191821183831017610486575092610468959260a095927fae6fc5315f41d4c4e0f943524e6ce313a0b92e68d1f72bc87205ce434f7571dd98958a5282815260016020820195858752838d5260326020528b8d209251169581808a1b031996878454161783555191015588519381865195602081818a019861043c81838c610696565b810160338152030190209182541617905588519687956080875251809581608089015288880190610696565b6020850152878401526060830152601f01601f19168101030190a151f35b634e487b7160e01b8a5260419052602489fd5b875162461bcd60e51b81526020818401526011602482015270546f6f206d616e7920646563696d616c7360781b6044820152606490fd5b875162461bcd60e51b8152602081840152600c60248201526b5a65726f206164647265737360a01b6044820152606490fd5b8780fd5b8680fd5b8480fd5b5090346102035781600319360112610203578154601081901c6001600160a01b031691839061053e3385146106e1565b51927f8be0079c531659141344cd1fd0a4f28419497f9722a3daafe3b4186f6b6457e08285a362010000600160b01b0319168255f35b509034610203576020366003190112610203576020906100ea6105956106cb565b610731565b50346100f15760203660031901126100f15782359067ffffffffffffffff82116100f157506020926105ce9136910161063a565b826105e183519283815193849201610696565b6033908201908152819003830190205490516001600160a01b039091168152f35b90601f8019910116810190811067ffffffffffffffff82111761062457604052565b634e487b7160e01b600052604160045260246000fd5b81601f820112156106915780359067ffffffffffffffff8211610624576040519261066f601f8401601f191660200185610602565b8284526020838301011161069157816000926020809301838601378301015290565b600080fd5b918091926000905b8282106106b65750116106af575050565b6000910152565b9150806020918301518186015201829161069e565b600435906001600160a01b038216820361069157565b156106e857565b60405162461bcd60e51b815260206004820152600a60248201526927b7363c9037bbb732b960b11b6044820152606490fd5b519069ffffffffffffffffffff8216820361069157565b60018060a01b038060009216825260326020526040908183209180519181830183811067ffffffffffffffff8211176108df576020916001918452855416948585520154920191825282156000146107935750505050670de0b6b3a764000090565b60a0600493825194858092633fabe5a360e21b82525afa80156108d557849085948687918893610871575b50878712610869575b845169ffffffffffffffffffff9485168152602081018890529485015260608401521660808201527fc7851f2a8f2b8a66cfb8738f664e014401b6b82af7958036c58001411ed923e49060a090a1518060121061085557601203604d811161085557600a0a91816000190483118215151661084157500290565b634e487b7160e01b81526011600452602490fd5b634e487b7160e01b83526011600452602483fd5b8796506107c7565b96505050505060a0833d82116108cd575b8161088f60a09383610602565b810103126108c9576108a08361071a565b9260208101519082810151946108bd60806060840151930161071a565b909295919091386107be565b8380fd5b3d9150610882565b81513d86823e3d90fd5b634e487b7160e01b86526041600452602486fd5b156108fa57565b60405162461bcd60e51b815260206004820152602b60248201527f496e697469616c697a61626c653a20636f6e7472616374206973206e6f74206960448201526a6e697469616c697a696e6760a81b6064820152608490fd5b6000549060018060a01b03808216908360101c167f8be0079c531659141344cd1fd0a4f28419497f9722a3daafe3b4186f6b6457e06000604051a362010000600160b01b031990911660109190911b62010000600160b01b03161760005556fea2646970667358221220ed7537d247ba0b89a0ae1b052e06708689686409031cb48006da89f8f64865fb64736f6c634300080f0033",
  "devdoc": {
    "details": "The price from chainlink priceFeed has different decimals, be careful.",
    "kind": "dev",
    "methods": {
      "getLatestPrice(address)": {
        "params": {
          "_tokenAddress": "Address of the token"
        },
        "returns": {
          "finalPrice": "The latest price"
        }
      },
      "getLatestPrice(string)": {
        "params": {
          "_tokenName": "Name of the token"
        },
        "returns": {
          "_0": "price The latest price"
        }
      },
      "owner()": {
        "details": "Returns the address of the current owner."
      },
      "renounceOwnership()": {
        "details": "Leaves the contract without owner. It will not be possible to call `onlyOwner` functions anymore. Can only be called by the current owner. NOTE: Renouncing ownership will leave the contract without an owner, thereby removing any functionality that is only available to the owner."
      },
      "setPriceFeed(string,address,address,uint256)": {
        "details": "Only callable by the owner      The price result decimal should be less than 18",
        "params": {
          "_decimals": "Decimals of this price feed service",
          "_feedAddress": "Price feed oracle address",
          "_tokenAddress": "Address of the token",
          "_tokenName": "Address of the token"
        }
      },
      "transferOwnership(address)": {
        "details": "Transfers ownership of the contract to a new account (`newOwner`). Can only be called by the current owner."
      }
    },
    "title": "Price Getter",
    "version": 1
  },
  "userdoc": {
    "kind": "user",
    "methods": {
      "getLatestPrice(address)": {
        "notice": "Get latest price of a token"
      },
      "getLatestPrice(string)": {
        "notice": "Get latest price of a token"
      },
      "setPriceFeed(string,address,address,uint256)": {
        "notice": "Set a price feed oracle address for a token"
      }
    },
    "notice": "This is the contract for getting price feed from chainlink.         The contract will keep a record from tokenName => priceFeed Address.         Got the sponsorship and collaboration with Chainlink.",
    "version": 1
  },
  "storageLayout": {
    "storage": [
      {
        "astId": 184,
        "contract": "src/priceGetter/PriceGetter.sol:PriceGetter",
        "label": "_initialized",
        "offset": 0,
        "slot": "0",
        "type": "t_uint8"
      },
      {
        "astId": 187,
        "contract": "src/priceGetter/PriceGetter.sol:PriceGetter",
        "label": "_initializing",
        "offset": 1,
        "slot": "0",
        "type": "t_bool"
      },
      {
        "astId": 17599,
        "contract": "src/priceGetter/PriceGetter.sol:PriceGetter",
        "label": "_owner",
        "offset": 2,
        "slot": "0",
        "type": "t_address"
      },
      {
        "astId": 17706,
        "contract": "src/priceGetter/PriceGetter.sol:PriceGetter",
        "label": "__gap",
        "offset": 0,
        "slot": "1",
        "type": "t_array(t_uint256)49_storage"
      },
      {
        "astId": 14753,
        "contract": "src/priceGetter/PriceGetter.sol:PriceGetter",
        "label": "priceFeedInfo",
        "offset": 0,
        "slot": "50",
        "type": "t_mapping(t_address,t_struct(PriceFeedInfo)14748_storage)"
      },
      {
        "astId": 14757,
        "contract": "src/priceGetter/PriceGetter.sol:PriceGetter",
        "label": "nameToAddress",
        "offset": 0,
        "slot": "51",
        "type": "t_mapping(t_string_memory_ptr,t_address)"
      }
    ],
    "types": {
      "t_address": {
        "encoding": "inplace",
        "label": "address",
        "numberOfBytes": "20"
      },
      "t_array(t_uint256)49_storage": {
        "base": "t_uint256",
        "encoding": "inplace",
        "label": "uint256[49]",
        "numberOfBytes": "1568"
      },
      "t_bool": {
        "encoding": "inplace",
        "label": "bool",
        "numberOfBytes": "1"
      },
      "t_mapping(t_address,t_struct(PriceFeedInfo)14748_storage)": {
        "encoding": "mapping",
        "key": "t_address",
        "label": "mapping(address => struct PriceGetter.PriceFeedInfo)",
        "numberOfBytes": "32",
        "value": "t_struct(PriceFeedInfo)14748_storage"
      },
      "t_mapping(t_string_memory_ptr,t_address)": {
        "encoding": "mapping",
        "key": "t_string_memory_ptr",
        "label": "mapping(string => address)",
        "numberOfBytes": "32",
        "value": "t_address"
      },
      "t_string_memory_ptr": {
        "encoding": "bytes",
        "label": "string",
        "numberOfBytes": "32"
      },
      "t_struct(PriceFeedInfo)14748_storage": {
        "encoding": "inplace",
        "label": "struct PriceGetter.PriceFeedInfo",
        "members": [
          {
            "astId": 14745,
            "contract": "src/priceGetter/PriceGetter.sol:PriceGetter",
            "label": "priceFeedAddress",
            "offset": 0,
            "slot": "0",
            "type": "t_address"
          },
          {
            "astId": 14747,
            "contract": "src/priceGetter/PriceGetter.sol:PriceGetter",
            "label": "decimals",
            "offset": 0,
            "slot": "1",
            "type": "t_uint256"
          }
        ],
        "numberOfBytes": "64"
      },
      "t_uint256": {
        "encoding": "inplace",
        "label": "uint256",
        "numberOfBytes": "32"
      },
      "t_uint8": {
        "encoding": "inplace",
        "label": "uint8",
        "numberOfBytes": "1"
      }
    }
  }
}