{
  "address": "0x8A791620dd6260079BF849Dc5567aDC3F2FdC318",
  "abi": [
    {
      "inputs": [
        {
          "internalType": "address",
          "name": "_deg",
          "type": "address"
        },
        {
          "internalType": "address",
          "name": "_veDeg",
          "type": "address"
        },
        {
          "internalType": "address",
          "name": "_shield",
          "type": "address"
        }
      ],
      "stateMutability": "nonpayable",
      "type": "constructor"
    },
    {
      "inputs": [],
      "name": "IncidentReport__AlreadyClaimed",
      "type": "error"
    },
    {
      "inputs": [],
      "name": "IncidentReport__AlreadyReported",
      "type": "error"
    },
    {
      "inputs": [],
      "name": "IncidentReport__AlreadySettled",
      "type": "error"
    },
    {
      "inputs": [],
      "name": "IncidentReport__ChooseBothSides",
      "type": "error"
    },
    {
      "inputs": [],
      "name": "IncidentReport__NoReward",
      "type": "error"
    },
    {
      "inputs": [],
      "name": "IncidentReport__NotEnoughVeDEG",
      "type": "error"
    },
    {
      "inputs": [],
      "name": "IncidentReport__NotSettled",
      "type": "error"
    },
    {
      "inputs": [],
      "name": "IncidentReport__NotWrongChoice",
      "type": "error"
    },
    {
      "inputs": [],
      "name": "IncidentReport__PayoutExceedCovered",
      "type": "error"
    },
    {
      "inputs": [],
      "name": "IncidentReport__PoolNotExist",
      "type": "error"
    },
    {
      "inputs": [],
      "name": "IncidentReport__WrongChoice",
      "type": "error"
    },
    {
      "inputs": [],
      "name": "IncidentReport__WrongPeriod",
      "type": "error"
    },
    {
      "inputs": [],
      "name": "IncidentReport__WrongStatus",
      "type": "error"
    },
    {
      "inputs": [],
      "name": "IncidentReport__ZeroAmount",
      "type": "error"
    },
    {
      "anonymous": false,
      "inputs": [
        {
          "indexed": false,
          "internalType": "address",
          "name": "payer",
          "type": "address"
        },
        {
          "indexed": false,
          "internalType": "address",
          "name": "user",
          "type": "address"
        },
        {
          "indexed": false,
          "internalType": "uint256",
          "name": "debt",
          "type": "uint256"
        },
        {
          "indexed": false,
          "internalType": "uint256",
          "name": "unlockAmount",
          "type": "uint256"
        }
      ],
      "name": "DebtPaid",
      "type": "event"
    },
    {
      "anonymous": false,
      "inputs": [
        {
          "indexed": true,
          "internalType": "address",
          "name": "previousOwner",
          "type": "address"
        },
        {
          "indexed": true,
          "internalType": "address",
          "name": "newOwner",
          "type": "address"
        }
      ],
      "name": "OwnershipTransferred",
      "type": "event"
    },
    {
      "anonymous": false,
      "inputs": [
        {
          "indexed": false,
          "internalType": "uint256",
          "name": "reportId",
          "type": "uint256"
        },
        {
          "indexed": false,
          "internalType": "uint256",
          "name": "closeTimestamp",
          "type": "uint256"
        }
      ],
      "name": "ReportClosed",
      "type": "event"
    },
    {
      "anonymous": false,
      "inputs": [
        {
          "indexed": false,
          "internalType": "uint256",
          "name": "reportId",
          "type": "uint256"
        },
        {
          "indexed": true,
          "internalType": "uint256",
          "name": "poolId",
          "type": "uint256"
        },
        {
          "indexed": false,
          "internalType": "uint256",
          "name": "reportTimestamp",
          "type": "uint256"
        },
        {
          "indexed": true,
          "internalType": "address",
          "name": "reporter",
          "type": "address"
        },
        {
          "indexed": false,
          "internalType": "uint256",
          "name": "payout",
          "type": "uint256"
        }
      ],
      "name": "ReportCreated",
      "type": "event"
    },
    {
      "anonymous": false,
      "inputs": [
        {
          "indexed": false,
          "internalType": "uint256",
          "name": "reportId",
          "type": "uint256"
        },
        {
          "indexed": false,
          "internalType": "uint256",
          "name": "round",
          "type": "uint256"
        }
      ],
      "name": "ReportExtended",
      "type": "event"
    },
    {
      "anonymous": false,
      "inputs": [
        {
          "indexed": false,
          "internalType": "uint256",
          "name": "reportId",
          "type": "uint256"
        }
      ],
      "name": "ReportFailed",
      "type": "event"
    },
    {
      "anonymous": false,
      "inputs": [
        {
          "indexed": false,
          "internalType": "uint256",
          "name": "reportId",
          "type": "uint256"
        },
        {
          "indexed": false,
          "internalType": "uint256",
          "name": "result",
          "type": "uint256"
        }
      ],
      "name": "ReportSettled",
      "type": "event"
    },
    {
      "anonymous": false,
      "inputs": [
        {
          "indexed": false,
          "internalType": "uint256",
          "name": "reportId",
          "type": "uint256"
        },
        {
          "indexed": true,
          "internalType": "address",
          "name": "user",
          "type": "address"
        },
        {
          "indexed": false,
          "internalType": "uint256",
          "name": "voteFor",
          "type": "uint256"
        },
        {
          "indexed": false,
          "internalType": "uint256",
          "name": "amount",
          "type": "uint256"
        }
      ],
      "name": "ReportVoted",
      "type": "event"
    },
    {
      "anonymous": false,
      "inputs": [
        {
          "indexed": false,
          "internalType": "uint256",
          "name": "reportId",
          "type": "uint256"
        },
        {
          "indexed": false,
          "internalType": "uint256",
          "name": "startTimestamp",
          "type": "uint256"
        }
      ],
      "name": "ReportVotingStart",
      "type": "event"
    },
    {
      "anonymous": false,
      "inputs": [
        {
          "indexed": false,
          "internalType": "uint256",
          "name": "reportId",
          "type": "uint256"
        },
        {
          "indexed": false,
          "internalType": "uint256",
          "name": "totalRewardToVoters",
          "type": "uint256"
        }
      ],
      "name": "VotingRewardSettled",
      "type": "event"
    },
    {
      "inputs": [],
      "name": "COOLDOWN_WRONG_REPORT",
      "outputs": [
        {
          "internalType": "uint256",
          "name": "",
          "type": "uint256"
        }
      ],
      "stateMutability": "view",
      "type": "function"
    },
    {
      "inputs": [
        {
          "internalType": "uint256",
          "name": "_id",
          "type": "uint256"
        }
      ],
      "name": "claimReward",
      "outputs": [],
      "stateMutability": "nonpayable",
      "type": "function"
    },
    {
      "inputs": [
        {
          "internalType": "uint256",
          "name": "_id",
          "type": "uint256"
        }
      ],
      "name": "closeReport",
      "outputs": [],
      "stateMutability": "nonpayable",
      "type": "function"
    },
    {
      "inputs": [
        {
          "internalType": "uint256",
          "name": "_poolId",
          "type": "uint256"
        }
      ],
      "name": "getPoolReports",
      "outputs": [
        {
          "internalType": "uint256[]",
          "name": "",
          "type": "uint256[]"
        }
      ],
      "stateMutability": "view",
      "type": "function"
    },
    {
      "inputs": [
        {
          "internalType": "uint256",
          "name": "_poolId",
          "type": "uint256"
        }
      ],
      "name": "getPoolReportsAmount",
      "outputs": [
        {
          "internalType": "uint256",
          "name": "",
          "type": "uint256"
        }
      ],
      "stateMutability": "view",
      "type": "function"
    },
    {
      "inputs": [
        {
          "internalType": "uint256",
          "name": "_id",
          "type": "uint256"
        }
      ],
      "name": "getReport",
      "outputs": [
        {
          "components": [
            {
              "internalType": "uint256",
              "name": "poolId",
              "type": "uint256"
            },
            {
              "internalType": "uint256",
              "name": "reportTimestamp",
              "type": "uint256"
            },
            {
              "internalType": "address",
              "name": "reporter",
              "type": "address"
            },
            {
              "internalType": "uint256",
              "name": "voteTimestamp",
              "type": "uint256"
            },
            {
              "internalType": "uint256",
              "name": "numFor",
              "type": "uint256"
            },
            {
              "internalType": "uint256",
              "name": "numAgainst",
              "type": "uint256"
            },
            {
              "internalType": "uint256",
              "name": "round",
              "type": "uint256"
            },
            {
              "internalType": "uint256",
              "name": "status",
              "type": "uint256"
            },
            {
              "internalType": "uint256",
              "name": "result",
              "type": "uint256"
            },
            {
              "internalType": "uint256",
              "name": "votingReward",
              "type": "uint256"
            },
            {
              "internalType": "uint256",
              "name": "payout",
              "type": "uint256"
            }
          ],
          "internalType": "struct IncidentReport.Report",
          "name": "",
          "type": "tuple"
        }
      ],
      "stateMutability": "view",
      "type": "function"
    },
    {
      "inputs": [
        {
          "internalType": "uint256",
          "name": "_poolId",
          "type": "uint256"
        }
      ],
      "name": "getTempResult",
      "outputs": [
        {
          "components": [
            {
              "internalType": "uint256",
              "name": "result",
              "type": "uint256"
            },
            {
              "internalType": "uint256",
              "name": "sampleTimestamp",
              "type": "uint256"
            },
            {
              "internalType": "bool",
              "name": "hasChanged",
              "type": "bool"
            }
          ],
          "internalType": "struct IncidentReport.TempResult",
          "name": "",
          "type": "tuple"
        }
      ],
      "stateMutability": "view",
      "type": "function"
    },
    {
      "inputs": [
        {
          "internalType": "address",
          "name": "_user",
          "type": "address"
        },
        {
          "internalType": "uint256",
          "name": "_poolId",
          "type": "uint256"
        }
      ],
      "name": "getUserVote",
      "outputs": [
        {
          "components": [
            {
              "internalType": "uint256",
              "name": "choice",
              "type": "uint256"
            },
            {
              "internalType": "uint256",
              "name": "amount",
              "type": "uint256"
            },
            {
              "internalType": "bool",
              "name": "claimed",
              "type": "bool"
            }
          ],
          "internalType": "struct IncidentReport.UserVote",
          "name": "",
          "type": "tuple"
        }
      ],
      "stateMutability": "view",
      "type": "function"
    },
    {
      "inputs": [],
      "name": "owner",
      "outputs": [
        {
          "internalType": "address",
          "name": "",
          "type": "address"
        }
      ],
      "stateMutability": "view",
      "type": "function"
    },
    {
      "inputs": [
        {
          "internalType": "uint256",
          "name": "_id",
          "type": "uint256"
        },
        {
          "internalType": "address",
          "name": "_user",
          "type": "address"
        }
      ],
      "name": "payDebt",
      "outputs": [],
      "stateMutability": "nonpayable",
      "type": "function"
    },
    {
      "inputs": [
        {
          "internalType": "uint256",
          "name": "",
          "type": "uint256"
        },
        {
          "internalType": "uint256",
          "name": "",
          "type": "uint256"
        }
      ],
      "name": "poolReports",
      "outputs": [
        {
          "internalType": "uint256",
          "name": "",
          "type": "uint256"
        }
      ],
      "stateMutability": "view",
      "type": "function"
    },
    {
      "inputs": [],
      "name": "priorityPoolFactory",
      "outputs": [
        {
          "internalType": "contract IPriorityPoolFactory",
          "name": "",
          "type": "address"
        }
      ],
      "stateMutability": "view",
      "type": "function"
    },
    {
      "inputs": [],
      "name": "renounceOwnership",
      "outputs": [],
      "stateMutability": "nonpayable",
      "type": "function"
    },
    {
      "inputs": [
        {
          "internalType": "uint256",
          "name": "_poolId",
          "type": "uint256"
        },
        {
          "internalType": "uint256",
          "name": "_payout",
          "type": "uint256"
        }
      ],
      "name": "report",
      "outputs": [],
      "stateMutability": "nonpayable",
      "type": "function"
    },
    {
      "inputs": [],
      "name": "reportCounter",
      "outputs": [
        {
          "internalType": "uint256",
          "name": "",
          "type": "uint256"
        }
      ],
      "stateMutability": "view",
      "type": "function"
    },
    {
      "inputs": [
        {
          "internalType": "uint256",
          "name": "",
          "type": "uint256"
        }
      ],
      "name": "reported",
      "outputs": [
        {
          "internalType": "bool",
          "name": "",
          "type": "bool"
        }
      ],
      "stateMutability": "view",
      "type": "function"
    },
    {
      "inputs": [
        {
          "internalType": "uint256",
          "name": "",
          "type": "uint256"
        }
      ],
      "name": "reports",
      "outputs": [
        {
          "internalType": "uint256",
          "name": "poolId",
          "type": "uint256"
        },
        {
          "internalType": "uint256",
          "name": "reportTimestamp",
          "type": "uint256"
        },
        {
          "internalType": "address",
          "name": "reporter",
          "type": "address"
        },
        {
          "internalType": "uint256",
          "name": "voteTimestamp",
          "type": "uint256"
        },
        {
          "internalType": "uint256",
          "name": "numFor",
          "type": "uint256"
        },
        {
          "internalType": "uint256",
          "name": "numAgainst",
          "type": "uint256"
        },
        {
          "internalType": "uint256",
          "name": "round",
          "type": "uint256"
        },
        {
          "internalType": "uint256",
          "name": "status",
          "type": "uint256"
        },
        {
          "internalType": "uint256",
          "name": "result",
          "type": "uint256"
        },
        {
          "internalType": "uint256",
          "name": "votingReward",
          "type": "uint256"
        },
        {
          "internalType": "uint256",
          "name": "payout",
          "type": "uint256"
        }
      ],
      "stateMutability": "view",
      "type": "function"
    },
    {
      "inputs": [
        {
          "internalType": "address",
          "name": "_priorityPoolFactory",
          "type": "address"
        }
      ],
      "name": "setPriorityPoolFactory",
      "outputs": [],
      "stateMutability": "nonpayable",
      "type": "function"
    },
    {
      "inputs": [
        {
          "internalType": "uint256",
          "name": "_id",
          "type": "uint256"
        }
      ],
      "name": "settle",
      "outputs": [],
      "stateMutability": "nonpayable",
      "type": "function"
    },
    {
      "inputs": [
        {
          "internalType": "uint256",
          "name": "_id",
          "type": "uint256"
        }
      ],
      "name": "startVoting",
      "outputs": [],
      "stateMutability": "nonpayable",
      "type": "function"
    },
    {
      "inputs": [
        {
          "internalType": "uint256",
          "name": "",
          "type": "uint256"
        }
      ],
      "name": "tempResults",
      "outputs": [
        {
          "internalType": "uint256",
          "name": "result",
          "type": "uint256"
        },
        {
          "internalType": "uint256",
          "name": "sampleTimestamp",
          "type": "uint256"
        },
        {
          "internalType": "bool",
          "name": "hasChanged",
          "type": "bool"
        }
      ],
      "stateMutability": "view",
      "type": "function"
    },
    {
      "inputs": [
        {
          "internalType": "address",
          "name": "newOwner",
          "type": "address"
        }
      ],
      "name": "transferOwnership",
      "outputs": [],
      "stateMutability": "nonpayable",
      "type": "function"
    },
    {
      "inputs": [
        {
          "internalType": "uint256",
          "name": "_poolId",
          "type": "uint256"
        }
      ],
      "name": "unpausePools",
      "outputs": [],
      "stateMutability": "nonpayable",
      "type": "function"
    },
    {
      "inputs": [
        {
          "internalType": "uint256",
          "name": "_id",
          "type": "uint256"
        },
        {
          "internalType": "uint256",
          "name": "_isFor",
          "type": "uint256"
        },
        {
          "internalType": "uint256",
          "name": "_amount",
          "type": "uint256"
        }
      ],
      "name": "vote",
      "outputs": [],
      "stateMutability": "nonpayable",
      "type": "function"
    },
    {
      "inputs": [
        {
          "internalType": "address",
          "name": "",
          "type": "address"
        },
        {
          "internalType": "uint256",
          "name": "",
          "type": "uint256"
        }
      ],
      "name": "votes",
      "outputs": [
        {
          "internalType": "uint256",
          "name": "choice",
          "type": "uint256"
        },
        {
          "internalType": "uint256",
          "name": "amount",
          "type": "uint256"
        },
        {
          "internalType": "bool",
          "name": "claimed",
          "type": "bool"
        }
      ],
      "stateMutability": "view",
      "type": "function"
    }
  ],
  "transactionHash": "0x38cb76283f94a4b1bcbb5f752ffb1b894b6053312b8c92051bda3fcc7add0d26",
  "args": [
    "0x5FbDB2315678afecb367f032d93F642f64180aa3",
    "0x9fE46736679d2D9a65F0992F2272dE9f3c7fa6e0",
    "0xe7f1725E7734CE288F8367e1Bb143E90bb3F0512"
  ],
  "numDeployments": 1,
  "solcInputHash": "b9459eb445964ff20d2a08a76865427e",
  "bytecode": "0x60e034620000e557601f62001e0638819003918201601f19168301916001600160401b03831184841017620000ea57808492606094604052833981010312620000e5576200004d8162000100565b620000696040620000616020850162000100565b930162000100565b6001600160a01b0391821660805291811660a0521660c052600080546001600160a01b03191633179055604051611cf0908162000116823960805181818161031f0152818161063101528181610a340152611284015260a051818181610385015281816109b101528181610ddc0152611bf6015260c051815050f35b600080fd5b634e487b7160e01b600052604160045260246000fd5b51906001600160a01b0382168203620000e55756fe60808060405260048036101561001457600080fd5b600091823560e01c9081633d2f5bda146118af5750806343a5ada2146118115780634a13a0ee146117d25780634e7f9b19146116765780636530db98146115ba5780636f8a6e4314611591578063715018a614611531578063753c0985146111895780637aaf11c7146111615780638a6655d614610d7a5780638da5cb5b14610d535780638df82800146108c5578063966d8a5f146108935780639e172155146108755780639f2524ee14610809578063a01bc01f14610797578063ad35e1dc1461074e578063ae169a50146105ac578063b9bc38f21461058b578063c942adf7146104e9578063d6069060146104bb578063d9dc8f1d14610293578063e7d918e21461025e578063f2fde38b1461018e5763fc6e85d31461013557600080fd5b3461018a57602036600319011261018a5790604091358152600560205220805461018660ff600260018501549401541660405193849384919260409194936060840195845260208401521515910152565b0390f35b5080fd5b503461018a57602036600319011261018a576101a8611985565b82546001600160a01b03929183916101c3908316331461199b565b1690811561020b5750600054816040519382167f8be0079c531659141344cd1fd0a4f28419497f9722a3daafe3b4186f6b6457e0600086a36001600160a01b03191617600055f35b60849060206040519162461bcd60e51b8352820152602660248201527f4f776e61626c653a206e6577206f776e657220697320746865207a65726f206160448201526564647265737360d01b6064820152fd5b503461018a57602036600319011261018a5761028e9061028860018060a01b03845416331461199b565b35611b76565b604051f35b503461018a57604036600319011261018a576001600160a01b0390602435828116919081358382036104b6578386526006602052604086208187526020526102dd60408720611a78565b9086526003602052600860408720015480156104a5578151146104945760200191825180600019046050118115151661047f57906127106050889493020495807f000000000000000000000000000000000000000000000000000000000000000016803b1561045c576040805163342c6d4d60e11b815233858201908152602081018b90529092879284928391859183910103925af1908115610474578591610460575b50507f000000000000000000000000000000000000000000000000000000000000000016845190803b1561045c5760408051634bdc2db560e11b81526001600160a01b039095169385019384526020840192909252849284928391859183910103925af1801561045157610435575b507fb4b7f3a9d727d0ac344f696304df335d2936ce3b0a58d52600c692632c9fa7256080848685519060405192338452602084015260408301526060820152a1604051f35b61044190939293611a07565b61044d579083386103f0565b8380fd5b6040513d84823e3d90fd5b8480fd5b61046990611a07565b61044d578338610381565b6040513d87823e3d90fd5b601182634e487b7160e01b6000525260246000fd5b604051631ae2961d60e01b81528390fd5b60405163403ba18960e01b81528490fd5b600080fd5b503461018a57602036600319011261018a57604060209260ff92358152600784522054166040519015158152f35b503461018a57602036600319011261018a57604061016092823581526003602052209081549160018101549160018060a01b03600283015416906003830154908301546005840154600685015491600786015493600887015495600a6009890154980154986040519a8b5260208b015260408a01526060890152608088015260a087015260c086015260e0850152610100840152610120830152610140820152f35b82346105a957806003193601126105a9576020600254604051908152f35b80fd5b503461018a5760208060031936011261074a57813591338452600682526040842083855282526105de60408520611a78565b90838552600383526008604086200154801561073a57604083015161072a578251810361070157508385526003835282600960408720015492019182519080600019048211811515166106ec57869291907f00000000000000000000000000000000000000000000000000000000000000006001600160a01b0316803b1561045c576040805163168ece7360e31b81523395810195865264e8d4a5100094909302939093046020850152909284928492918391859183910103925af18015610451576106d8575b50506106b2905133611bf4565b33835260068152604083209183525260026040822001600160ff19825416179055604051f35b6106e190611a07565b61044d5783386106a5565b601183634e487b7160e01b6000525260246000fd5b60030361071b57508161071691015133611bf4565b6106b2565b60405163158f1f4160e11b8152fd5b5060405163961e9b0d60e01b8152fd5b5060405163403ba18960e01b8152fd5b8280fd5b82346105a95760203660031901126105a957610768611985565b81546001600160a01b039190610781908316331461199b565b1660018060a01b03196001541617600155604051f35b82346105a95760403660031901126105a9576107e460406060926107b9611985565b6107c1611a59565b506001600160a01b03168152600660209081528282206024358352905220611a78565b610807604051809260408091805184526020810151602085015201511515910152565bf35b82346105a95760403660031901126105a9576040906001600160a01b0361082e611985565b1681526006602052818120602435825260205220805461018660ff600260018501549401541660405193849384919260409194936060840195845260208401521515910152565b82346105a957806003193601126105a957602060405162093a808152f35b503461018a57602036600319011261018a5760406060926107e4926108b6611a59565b50358152600560205220611a78565b5090346105a9576020918260031936011261018a578035928383526003938482526040842092600784019560029081885403610d425760068601908154988188015461e100198111610d2f576109289061e1006109218d611ac7565b9101611aa5565b4210610d1e5760088801928354610d0d57899a8560ff8160408e8d9e9f8d9e60059150829f835252200154169182610d03575b505015610ce057868b52828952600660408c2001600181540190555b8715610c8f57508190556109938489015460058a015490611aa5565b6040516318160ddd60e01b81526001600160a01b03939190898188817f000000000000000000000000000000000000000000000000000000000000000089165afa908115610c84578c91610c57575b508060001904600a1181151516610c42576064600a919091020411610c015786905584895286526040882091838301549360058401549260088501548b9060018114600014610b3757505090818b93927f0000000000000000000000000000000000000000000000000000000000000000169286015416823b1561044d576044849283604051958694859363168ece7360e31b855284015269043c33c193756480000060248401525af1801561045157610b15575b5050600195600080516020611c9b83398151915260408095600080516020611c7b83398151915297956009610ae16064610ad18d99611ade565b0493610adc85611af4565b611b0e565b9101555b81519086825284820152a18351928352820152a103610b05575b50604051f35b610b0f9054611b76565b38610aff565b610b2490959395949294611a07565b610b3357918738949294610a97565b8780fd5b909b9a9996929593915014610b79575b50505050600080516020611c7b8339815191529183604092600080516020611c9b83398151915284600198999a610ae5565b60649192939950610b8990611ade565b0469021e19e0c9bab240000081198111610bee576001979899506040600080516020611c7b833981519152969488946009610bdb849996600080516020611c9b833981519152960193610adc85611af4565b9101559a99985050839550819450610b47565b634e487b7160e01b895260118a52602489fd5b915050610c369394507f1dcabc7d01df1ee725f7c437ce5ec43e00015579d266f8a65d0911c4eb36ad90969291505554611b76565b604051908152a1604051f35b601187634e487b7160e01b6000525260246000fd5b90508981813d8311610c7d575b610c6e8183611a37565b810103126104b65751386109e2565b503d610c64565b6040513d8e823e3d90fd5b94505050507fb7891e9b049f460b1641e0a0556e45b1d2adfb12bd2c6459ea5a5d645d40179d9550826040959394508752600583528487200160ff19815416905554908351928352820152a1604051f35b9650818852610cfd8560408c200154600560408d20015490611b42565b96610977565b109050853861095b565b60405163037d379160e11b81528690fd5b6040516324b1a7e960e01b81528590fd5b634e487b7160e01b8a526011865260248afd5b60405163363bbdfd60e01b81528390fd5b82346105a957806003193601126105a957546040516001600160a01b039091168152602090f35b5090346105a95760603660031901126105a9578135602492833560443591838552602090600382526002600760408820015403611152578315611143576001831491821580611138575b611128576040516370a0823160e01b815233838201527f00000000000000000000000000000000000000000000000000000000000000006001600160a01b03169082818b81855afa90811561111d5789916110f0575b5060405163cbf9fe5f60e01b815233858201529083828c81865afa9182156110e5578a926110b6575b508181106110a25703861161109157803b15610b335760408051633c56aa6160e11b8152338582019081526020810189905290928a9284928391859183910103925af180156110865790889161106e575b5050338752600681526040808820878952825287206001810180549091869115611068575403611057575b610eca868254611aa5565b90558587526003815260408720921561104157818301610eeb868254611aa5565b90555b8587526005815260ff6002604089200154161580610fa0575b7f025e12b9cbba227587ada73c57f6b6b6a70272d7ed782681793125ec29afc77b96979850610f51575b5050604080519586526020860192909252508301523391606090a2604051f35b600580610f6d9385015494015491888a52526040882092611b42565b815480610f86575b508155600142910155388080610f31565b600283019060ff8019835416918414151617905538610f75565b50600383015460068401549061e10019811161102f5761e100610fdf9101610fd9610fd3610fcd85611ac7565b83611aa5565b93611ac7565b90611aa5565b611c20811061102f577f025e12b9cbba227587ada73c57f6b6b6a70272d7ed782681793125ec29afc77b97989950611c1f190142119081611025575b5088979650610f07565b905042103861101b565b634e487b7160e01b8952601184528989fd5b60058301611050868254611aa5565b9055610eee565b6040516346bdda4560e11b81528390fd5b55610ebf565b61107790611a07565b611082578638610e94565b8680fd5b6040513d8a823e3d90fd5b60405163729aeac360e01b81528390fd5b8a601186634e487b7160e01b600052526000fd5b9091508381813d83116110de575b6110ce8183611a37565b810103126104b657519038610e43565b503d6110c4565b6040513d8c823e3d90fd5b90508281813d8311611116575b6111078183611a37565b810103126104b6575138610e1a565b503d6110fd565b6040513d8b823e3d90fd5b50604051631422ca1d60e31b8152fd5b506002841415610dc4565b60405163583202e160e01b8152fd5b60405163363bbdfd60e01b8152fd5b503461018a57602036600319011261018a576020918160409235825283522054604051908152f35b5090346105a95761119936611941565b929060018060a01b03938360019386855416604051928380926315895f4760e31b8252878583015260249586915afa90811561152657908891889161144d575b501694851561143d578487526020956007875260ff60408920541661142c5786839160405192838092636835185f60e11b82525afa9081156110865788916113ff575b5084116113ef578487526007865260408720805460ff19168217905560025460001998908981146113dd5782016002818155818a526003895260408a20888155428186015590810180546001600160a01b0319163317905560078101849055600a01869055967f00000000000000000000000000000000000000000000000000000000000000008216803b156113d95789809160446040518094819363342c6d4d60e11b8352338b84015269021e19e0c9bab24000008c8401525af180156110e5576113c6575b508689528390526040882080549990600160401b8b10156113b457976113148b8b9c9a86849d9a9b9c018155611957565b909283549160031b90811b9283911b16911916179055815416803b1561045c5784928360449289946040519788968795631b35278960e01b87528601528401525af18015610451576113a0575b50506040805193845242602085015283015233917fe4af8b66d6c4b132955627bb2e4e80a62c544714e2f19dafec934a3b156cbe9390606090a3604051f35b6113a990611a07565b61044d578338611361565b634e487b7160e01b8a5260418552858afd5b986113d285929a611a07565b98906112e3565b8980fd5b634e487b7160e01b8952601184528489fd5b5060405163cab1fa1b60e01b8152fd5b90508681813d8311611425575b6114168183611a37565b81010312610b3357513861121c565b503d61140c565b6040516360b2438960e01b81528390fd5b5060405163148115cf60e21b8152fd5b9150503d8088833e61145f8183611a37565b810160a082820312610b3357815167ffffffffffffffff908181116113d957830182601f820112156113d95780519182116113b457604051906020936114ae85601f19601f8701160184611a37565b83835284848301011161152257918a918c95949383905b83821061150757509284836114f496936114ed95604097116114fb575b505050508401611b62565b9201611b62565b50386111d9565b0101528b8138806114e2565b8181018601518284018701528e97508d9450908501906114c5565b8a80fd5b6040513d89823e3d90fd5b82346105a957806003193601126105a95780546001600160a01b0381169061155a33831461199b565b82604051927f8be0079c531659141344cd1fd0a4f28419497f9722a3daafe3b4186f6b6457e08285a36001600160a01b0319168255f35b82346105a957806003193601126105a9576001546040516001600160a01b039091168152602090f35b503461018a57602036600319011261018a578035906115e360018060a01b03845416331461199b565b81835260036020526040832090600782019060018254036111525761160b6001840154611b2e565b6116675750916116566040926101947f17b76cf2012024f7fe05b4a8b036b188464d5b49b7c8532e95c5c67a4b792eb29555828652600760205283862060ff19815416905554611b76565b8151908152426020820152a1604051f35b6040516324b1a7e960e01b8152fd5b503461018a57602036600319011261018a576101406101609260405161169b816119d4565b8181528160208201528160408201528160608201528160808201528160a08201528160c08201528160e08201526040610100928084840152808561012094828682015201528535815260036020522091600a604051936116fa856119d4565b8054968786526001820154602087015260018060a01b036002830154166040870152600382015460608701528101546080860152600581015460a0860152600681015460c0860152600781015460e08601526008810154838601526009810154848601520154848401526040519485526020830151602086015260018060a01b036040840151166040860152606083015160608601526080830151608086015260a083015160a086015260c083015160c086015260e083015160e0860152808301519085015280820151908401520151610140820152f35b5090346105a9576117e236611941565b92908252602052604081209081548310156105a95760206118038484611957565b90546040519160031b1c8152f35b503461018a576020908160031936011261074a578035835281526040822060405192838383549182815201908193835284832090835b81811061189b575050508461185d910385611a37565b60405193838594850191818652518092526040850193925b82811061188457505050500390f35b835185528695509381019392810192600101611875565b825484529286019260019283019201611847565b9190503461074a57602036600319011261074a57803591828452600360205260408420916007830191600183540361193557506118ef6001840154611b2e565b1561166757509160409160027fde7965c8d6f24b73501e8bcad1a4f03937db4f902bfda3bee08b335accf0749694556003429101558151908152426020820152a1604051f35b63363bbdfd60e01b8152fd5b60409060031901126104b6576004359060243590565b805482101561196f5760005260206000200190600090565b634e487b7160e01b600052603260045260246000fd5b600435906001600160a01b03821682036104b657565b156119a257565b60405162461bcd60e51b815260206004820152600a60248201526927b7363c9037bbb732b960b11b6044820152606490fd5b610160810190811067ffffffffffffffff8211176119f157604052565b634e487b7160e01b600052604160045260246000fd5b67ffffffffffffffff81116119f157604052565b6060810190811067ffffffffffffffff8211176119f157604052565b90601f8019910116810190811067ffffffffffffffff8211176119f157604052565b60405190611a6682611a1b565b60006040838281528260208201520152565b90604051611a8581611a1b565b604060ff6002839580548552600181015460208601520154161515910152565b81198111611ab1570190565b634e487b7160e01b600052601160045260246000fd5b613840908060001904821181151516611ab1570290565b806000190460281181151516611ab15760280290565b64e8d4a51000908060001904821181151516611ab1570290565b8115611b18570490565b634e487b7160e01b600052601260045260246000fd5b611c20198111611ab157611c200142101590565b81811115611b525750506001905b565b1015611b5d57600290565b600390565b51906001600160a01b03821682036104b657565b6001546001600160a01b031690813b156104b657604051918291631b35278960e01b835260048301528160446000938480948160248401525af18015611be757611bbe575050565b67ffffffffffffffff8211611bd35750604052565b634e487b7160e01b81526041600452602490fd5b50604051903d90823e3d90fd5b7f00000000000000000000000000000000000000000000000000000000000000006001600160a01b031691823b156104b657604051634bdc2db560e11b81526001600160a01b039290921660048301526024820152906000908290604490829084905af18015611c6e57611c655750565b611b5090611a07565b6040513d6000823e3d90fdfe30922d3a94c33e0ce3f99be437cbdf00f141e304f742a1cbd0df5cc5b490cd45bf97c766fd98feb70e7d5cc384ac953bcce9a7ca082cf57da33a199d67f7b7aba26469706673582212205826add8566d99214ecb0b0e103e4e74a714bf923d087bde133897279d542faf64736f6c634300080f0033",
  "devdoc": {
    "kind": "dev",
    "methods": {
      "claimReward(uint256)": {
        "params": {
          "_id": "Report id"
        }
      },
      "closeReport(uint256)": {
        "params": {
          "_id": "Report id"
        }
      },
      "owner()": {
        "details": "Returns the address of the current owner."
      },
      "payDebt(uint256,address)": {
        "params": {
          "_id": "Report id",
          "_user": "User address (can pay debt for another user)"
        }
      },
      "renounceOwnership()": {
        "details": "Leaves the contract without owner. It will not be possible to call `onlyOwner` functions anymore. Can only be called by the current owner. NOTE: Renouncing ownership will leave the contract without an owner, thereby removing any functionality that is only available to the owner."
      },
      "report(uint256,uint256)": {
        "params": {
          "_payout": "Payout amount of this report",
          "_poolId": "Pool id to report incident"
        }
      },
      "settle(uint256)": {
        "params": {
          "_id": "Report id"
        }
      },
      "startVoting(uint256)": {
        "params": {
          "_id": "Report id"
        }
      },
      "transferOwnership(address)": {
        "details": "Transfers ownership of the contract to a new account (`newOwner`). Can only be called by the current owner."
      },
      "vote(uint256,uint256,uint256)": {
        "params": {
          "_amount": "Amount of veDEG used for this vote",
          "_id": "Id of the report to be voted on",
          "_isFor": "The user's choice (1: vote for, 2: vote against)"
        }
      }
    },
    "version": 1
  },
  "userdoc": {
    "kind": "user",
    "methods": {
      "claimReward(uint256)": {
        "notice": "Claim the voting reward         Only callable through proposal center"
      },
      "closeReport(uint256)": {
        "notice": "Close a pending report         Only owner can close a pending report         Can only be closed before the pending period ends         Will change the status from PENDING to CLOSED"
      },
      "payDebt(uint256,address)": {
        "notice": "Pay debt to get back veDEG         For those who made a wrong voting choice         The paid DEG will be burned and the veDEG will be unlocked"
      },
      "report(uint256,uint256)": {
        "notice": "Start a new incident report         1000 DEG tokens are staked to start a report         If the report is correct, reporter gets back 1000DEG + 10% shield income + extra 1000DEG         If the report is wrong, reporter loses 1000DEG to those who vote against         Only callable through proposal center"
      },
      "settle(uint256)": {
        "notice": "Settle the final result for a report"
      },
      "startVoting(uint256)": {
        "notice": "Start the voting process         Can only be started after the pending period         Will change the status from PENDING to VOTING"
      },
      "vote(uint256,uint256,uint256)": {
        "notice": "Vote on current reports         Voting power is decided by the (unlocked) balance of veDEG         Once voted, those veDEG will be locked         Rewarded if votes with majority         Punished if votes against majority"
      }
    },
    "notice": "Incident Report Contract         New reports for project hacks are handled inside this contract         Timeline for a report is:         |-----------------------|----------------------|-------|-------|               Pending Period         Voting Period       Extend Period         When a new report is proposed, it start with PENDING_STATUS.         The person who start the report need to deposit REPORT_THRESHOLD DEG tokens.         During PENDING_STATUS, users & security companies can look at the report event.         After PENDING_PERIOD, the voting can be started and status transfer to VOTING_STATUS.         Users can vote for or against the report with veDeg tokens.         VeDeg tokens used for voting will be tentatively locked until the voting is settled.         After VOTING_PERIOD, the voting can be settled and status transfer to SETTLED_STATUS.         Depending on the votes of each side, the result can be PASSED, REJECTED or TIED.         Different results for their veDeg tokens will be set depending on the result.         If the result has changes during the last 24 hours of voting, the voting will be extended.         The time can only be extended twice.         For voters:              PASSED: Who vote for will get all veDeg tokens from the opposite side              REJECTED: Who vote against will get all veDeg tokens from the opposite side              TIED: Users can unlock their veDeg tokens         For reporter:              PASSED: Get back REPORT_THRESHOLD and get extra REPORT_REWARD & 10% of total treasury income              REJECTED: Lose REPORT_THRESHOLD to whom vote against              TIED: Lose REPORT_THRESHOLD         When an incident report has passed and been executed         The corresponding priority pool will be liquidated which means:             - Move out some assets for users to claim             - Deploy new generation of crTokens and PRI-LP tokens             - Update the farming weights for the priority farming pool",
    "version": 1
  },
  "storageLayout": {
    "storage": [
      {
        "astId": 21742,
        "contract": "src/voting/incidentReport/IncidentReport.sol:IncidentReport",
        "label": "_owner",
        "offset": 0,
        "slot": "0",
        "type": "t_address"
      },
      {
        "astId": 23447,
        "contract": "src/voting/incidentReport/IncidentReport.sol:IncidentReport",
        "label": "priorityPoolFactory",
        "offset": 0,
        "slot": "1",
        "type": "t_contract(IPriorityPoolFactory)14076"
      },
      {
        "astId": 22088,
        "contract": "src/voting/incidentReport/IncidentReport.sol:IncidentReport",
        "label": "reportCounter",
        "offset": 0,
        "slot": "2",
        "type": "t_uint256"
      },
      {
        "astId": 22116,
        "contract": "src/voting/incidentReport/IncidentReport.sol:IncidentReport",
        "label": "reports",
        "offset": 0,
        "slot": "3",
        "type": "t_mapping(t_uint256,t_struct(Report)22111_storage)"
      },
      {
        "astId": 22121,
        "contract": "src/voting/incidentReport/IncidentReport.sol:IncidentReport",
        "label": "poolReports",
        "offset": 0,
        "slot": "4",
        "type": "t_mapping(t_uint256,t_array(t_uint256)dyn_storage)"
      },
      {
        "astId": 22133,
        "contract": "src/voting/incidentReport/IncidentReport.sol:IncidentReport",
        "label": "tempResults",
        "offset": 0,
        "slot": "5",
        "type": "t_mapping(t_uint256,t_struct(TempResult)22128_storage)"
      },
      {
        "astId": 22147,
        "contract": "src/voting/incidentReport/IncidentReport.sol:IncidentReport",
        "label": "votes",
        "offset": 0,
        "slot": "6",
        "type": "t_mapping(t_address,t_mapping(t_uint256,t_struct(UserVote)22140_storage))"
      },
      {
        "astId": 22151,
        "contract": "src/voting/incidentReport/IncidentReport.sol:IncidentReport",
        "label": "reported",
        "offset": 0,
        "slot": "7",
        "type": "t_mapping(t_uint256,t_bool)"
      }
    ],
    "types": {
      "t_address": {
        "encoding": "inplace",
        "label": "address",
        "numberOfBytes": "20"
      },
      "t_array(t_uint256)dyn_storage": {
        "base": "t_uint256",
        "encoding": "dynamic_array",
        "label": "uint256[]",
        "numberOfBytes": "32"
      },
      "t_bool": {
        "encoding": "inplace",
        "label": "bool",
        "numberOfBytes": "1"
      },
      "t_contract(IPriorityPoolFactory)14076": {
        "encoding": "inplace",
        "label": "contract IPriorityPoolFactory",
        "numberOfBytes": "20"
      },
      "t_mapping(t_address,t_mapping(t_uint256,t_struct(UserVote)22140_storage))": {
        "encoding": "mapping",
        "key": "t_address",
        "label": "mapping(address => mapping(uint256 => struct IncidentReport.UserVote))",
        "numberOfBytes": "32",
        "value": "t_mapping(t_uint256,t_struct(UserVote)22140_storage)"
      },
      "t_mapping(t_uint256,t_array(t_uint256)dyn_storage)": {
        "encoding": "mapping",
        "key": "t_uint256",
        "label": "mapping(uint256 => uint256[])",
        "numberOfBytes": "32",
        "value": "t_array(t_uint256)dyn_storage"
      },
      "t_mapping(t_uint256,t_bool)": {
        "encoding": "mapping",
        "key": "t_uint256",
        "label": "mapping(uint256 => bool)",
        "numberOfBytes": "32",
        "value": "t_bool"
      },
      "t_mapping(t_uint256,t_struct(Report)22111_storage)": {
        "encoding": "mapping",
        "key": "t_uint256",
        "label": "mapping(uint256 => struct IncidentReport.Report)",
        "numberOfBytes": "32",
        "value": "t_struct(Report)22111_storage"
      },
      "t_mapping(t_uint256,t_struct(TempResult)22128_storage)": {
        "encoding": "mapping",
        "key": "t_uint256",
        "label": "mapping(uint256 => struct IncidentReport.TempResult)",
        "numberOfBytes": "32",
        "value": "t_struct(TempResult)22128_storage"
      },
      "t_mapping(t_uint256,t_struct(UserVote)22140_storage)": {
        "encoding": "mapping",
        "key": "t_uint256",
        "label": "mapping(uint256 => struct IncidentReport.UserVote)",
        "numberOfBytes": "32",
        "value": "t_struct(UserVote)22140_storage"
      },
      "t_struct(Report)22111_storage": {
        "encoding": "inplace",
        "label": "struct IncidentReport.Report",
        "members": [
          {
            "astId": 22090,
            "contract": "src/voting/incidentReport/IncidentReport.sol:IncidentReport",
            "label": "poolId",
            "offset": 0,
            "slot": "0",
            "type": "t_uint256"
          },
          {
            "astId": 22092,
            "contract": "src/voting/incidentReport/IncidentReport.sol:IncidentReport",
            "label": "reportTimestamp",
            "offset": 0,
            "slot": "1",
            "type": "t_uint256"
          },
          {
            "astId": 22094,
            "contract": "src/voting/incidentReport/IncidentReport.sol:IncidentReport",
            "label": "reporter",
            "offset": 0,
            "slot": "2",
            "type": "t_address"
          },
          {
            "astId": 22096,
            "contract": "src/voting/incidentReport/IncidentReport.sol:IncidentReport",
            "label": "voteTimestamp",
            "offset": 0,
            "slot": "3",
            "type": "t_uint256"
          },
          {
            "astId": 22098,
            "contract": "src/voting/incidentReport/IncidentReport.sol:IncidentReport",
            "label": "numFor",
            "offset": 0,
            "slot": "4",
            "type": "t_uint256"
          },
          {
            "astId": 22100,
            "contract": "src/voting/incidentReport/IncidentReport.sol:IncidentReport",
            "label": "numAgainst",
            "offset": 0,
            "slot": "5",
            "type": "t_uint256"
          },
          {
            "astId": 22102,
            "contract": "src/voting/incidentReport/IncidentReport.sol:IncidentReport",
            "label": "round",
            "offset": 0,
            "slot": "6",
            "type": "t_uint256"
          },
          {
            "astId": 22104,
            "contract": "src/voting/incidentReport/IncidentReport.sol:IncidentReport",
            "label": "status",
            "offset": 0,
            "slot": "7",
            "type": "t_uint256"
          },
          {
            "astId": 22106,
            "contract": "src/voting/incidentReport/IncidentReport.sol:IncidentReport",
            "label": "result",
            "offset": 0,
            "slot": "8",
            "type": "t_uint256"
          },
          {
            "astId": 22108,
            "contract": "src/voting/incidentReport/IncidentReport.sol:IncidentReport",
            "label": "votingReward",
            "offset": 0,
            "slot": "9",
            "type": "t_uint256"
          },
          {
            "astId": 22110,
            "contract": "src/voting/incidentReport/IncidentReport.sol:IncidentReport",
            "label": "payout",
            "offset": 0,
            "slot": "10",
            "type": "t_uint256"
          }
        ],
        "numberOfBytes": "352"
      },
      "t_struct(TempResult)22128_storage": {
        "encoding": "inplace",
        "label": "struct IncidentReport.TempResult",
        "members": [
          {
            "astId": 22123,
            "contract": "src/voting/incidentReport/IncidentReport.sol:IncidentReport",
            "label": "result",
            "offset": 0,
            "slot": "0",
            "type": "t_uint256"
          },
          {
            "astId": 22125,
            "contract": "src/voting/incidentReport/IncidentReport.sol:IncidentReport",
            "label": "sampleTimestamp",
            "offset": 0,
            "slot": "1",
            "type": "t_uint256"
          },
          {
            "astId": 22127,
            "contract": "src/voting/incidentReport/IncidentReport.sol:IncidentReport",
            "label": "hasChanged",
            "offset": 0,
            "slot": "2",
            "type": "t_bool"
          }
        ],
        "numberOfBytes": "96"
      },
      "t_struct(UserVote)22140_storage": {
        "encoding": "inplace",
        "label": "struct IncidentReport.UserVote",
        "members": [
          {
            "astId": 22135,
            "contract": "src/voting/incidentReport/IncidentReport.sol:IncidentReport",
            "label": "choice",
            "offset": 0,
            "slot": "0",
            "type": "t_uint256"
          },
          {
            "astId": 22137,
            "contract": "src/voting/incidentReport/IncidentReport.sol:IncidentReport",
            "label": "amount",
            "offset": 0,
            "slot": "1",
            "type": "t_uint256"
          },
          {
            "astId": 22139,
            "contract": "src/voting/incidentReport/IncidentReport.sol:IncidentReport",
            "label": "claimed",
            "offset": 0,
            "slot": "2",
            "type": "t_bool"
          }
        ],
        "numberOfBytes": "96"
      },
      "t_uint256": {
        "encoding": "inplace",
        "label": "uint256",
        "numberOfBytes": "32"
      }
    }
  }
}