{
  "address": "0x4A679253410272dd5232B3Ff7cF5dbB88f295319",
  "abi": [
    {
      "inputs": [
        {
          "internalType": "string",
          "name": "_name",
          "type": "string"
        },
        {
          "internalType": "string",
          "name": "_symbol",
          "type": "string"
        },
        {
          "internalType": "uint256",
          "name": "_decimal",
          "type": "uint256"
        }
      ],
      "stateMutability": "nonpayable",
      "type": "constructor"
    },
    {
      "anonymous": false,
      "inputs": [
        {
          "indexed": true,
          "internalType": "address",
          "name": "owner",
          "type": "address"
        },
        {
          "indexed": true,
          "internalType": "address",
          "name": "spender",
          "type": "address"
        },
        {
          "indexed": false,
          "internalType": "uint256",
          "name": "value",
          "type": "uint256"
        }
      ],
      "name": "Approval",
      "type": "event"
    },
    {
      "anonymous": false,
      "inputs": [
        {
          "indexed": true,
          "internalType": "address",
          "name": "from",
          "type": "address"
        },
        {
          "indexed": true,
          "internalType": "address",
          "name": "to",
          "type": "address"
        },
        {
          "indexed": false,
          "internalType": "uint256",
          "name": "value",
          "type": "uint256"
        }
      ],
      "name": "Transfer",
      "type": "event"
    },
    {
      "inputs": [],
      "name": "MAX_HOLD",
      "outputs": [
        {
          "internalType": "uint256",
          "name": "",
          "type": "uint256"
        }
      ],
      "stateMutability": "view",
      "type": "function"
    },
    {
      "inputs": [
        {
          "internalType": "address",
          "name": "owner",
          "type": "address"
        },
        {
          "internalType": "address",
          "name": "spender",
          "type": "address"
        }
      ],
      "name": "allowance",
      "outputs": [
        {
          "internalType": "uint256",
          "name": "",
          "type": "uint256"
        }
      ],
      "stateMutability": "view",
      "type": "function"
    },
    {
      "inputs": [
        {
          "internalType": "address",
          "name": "spender",
          "type": "address"
        },
        {
          "internalType": "uint256",
          "name": "amount",
          "type": "uint256"
        }
      ],
      "name": "approve",
      "outputs": [
        {
          "internalType": "bool",
          "name": "",
          "type": "bool"
        }
      ],
      "stateMutability": "nonpayable",
      "type": "function"
    },
    {
      "inputs": [
        {
          "internalType": "address",
          "name": "account",
          "type": "address"
        }
      ],
      "name": "balanceOf",
      "outputs": [
        {
          "internalType": "uint256",
          "name": "",
          "type": "uint256"
        }
      ],
      "stateMutability": "view",
      "type": "function"
    },
    {
      "inputs": [
        {
          "internalType": "address",
          "name": "_to",
          "type": "address"
        },
        {
          "internalType": "uint256",
          "name": "_amount",
          "type": "uint256"
        }
      ],
      "name": "burn",
      "outputs": [],
      "stateMutability": "nonpayable",
      "type": "function"
    },
    {
      "inputs": [],
      "name": "decimals",
      "outputs": [
        {
          "internalType": "uint8",
          "name": "",
          "type": "uint8"
        }
      ],
      "stateMutability": "view",
      "type": "function"
    },
    {
      "inputs": [
        {
          "internalType": "address",
          "name": "spender",
          "type": "address"
        },
        {
          "internalType": "uint256",
          "name": "subtractedValue",
          "type": "uint256"
        }
      ],
      "name": "decreaseAllowance",
      "outputs": [
        {
          "internalType": "bool",
          "name": "",
          "type": "bool"
        }
      ],
      "stateMutability": "nonpayable",
      "type": "function"
    },
    {
      "inputs": [
        {
          "internalType": "address",
          "name": "spender",
          "type": "address"
        },
        {
          "internalType": "uint256",
          "name": "addedValue",
          "type": "uint256"
        }
      ],
      "name": "increaseAllowance",
      "outputs": [
        {
          "internalType": "bool",
          "name": "",
          "type": "bool"
        }
      ],
      "stateMutability": "nonpayable",
      "type": "function"
    },
    {
      "inputs": [
        {
          "internalType": "address",
          "name": "_to",
          "type": "address"
        },
        {
          "internalType": "uint256",
          "name": "_amount",
          "type": "uint256"
        }
      ],
      "name": "mint",
      "outputs": [],
      "stateMutability": "nonpayable",
      "type": "function"
    },
    {
      "inputs": [],
      "name": "name",
      "outputs": [
        {
          "internalType": "string",
          "name": "",
          "type": "string"
        }
      ],
      "stateMutability": "view",
      "type": "function"
    },
    {
      "inputs": [],
      "name": "owner",
      "outputs": [
        {
          "internalType": "address",
          "name": "",
          "type": "address"
        }
      ],
      "stateMutability": "view",
      "type": "function"
    },
    {
      "inputs": [],
      "name": "symbol",
      "outputs": [
        {
          "internalType": "string",
          "name": "",
          "type": "string"
        }
      ],
      "stateMutability": "view",
      "type": "function"
    },
    {
      "inputs": [],
      "name": "totalSupply",
      "outputs": [
        {
          "internalType": "uint256",
          "name": "",
          "type": "uint256"
        }
      ],
      "stateMutability": "view",
      "type": "function"
    },
    {
      "inputs": [
        {
          "internalType": "address",
          "name": "to",
          "type": "address"
        },
        {
          "internalType": "uint256",
          "name": "amount",
          "type": "uint256"
        }
      ],
      "name": "transfer",
      "outputs": [
        {
          "internalType": "bool",
          "name": "",
          "type": "bool"
        }
      ],
      "stateMutability": "nonpayable",
      "type": "function"
    },
    {
      "inputs": [
        {
          "internalType": "address",
          "name": "from",
          "type": "address"
        },
        {
          "internalType": "address",
          "name": "to",
          "type": "address"
        },
        {
          "internalType": "uint256",
          "name": "amount",
          "type": "uint256"
        }
      ],
      "name": "transferFrom",
      "outputs": [
        {
          "internalType": "bool",
          "name": "",
          "type": "bool"
        }
      ],
      "stateMutability": "nonpayable",
      "type": "function"
    }
  ],
  "transactionHash": "0xbaf53f8252c086bfbdc0a4656010a6781623a0d1e48173720f76198bb1103a74",
  "args": [
    "NewProject",
    "NewProject",
    18
  ],
  "numDeployments": 1,
  "solcInputHash": "af05fdfad18074e274f84db096f4ad56",
  "bytecode": "0x6080604052346200034d5762000f70803803806200001d8162000352565b92833981016060828203126200034d5781516001600160401b03908181116200034d57826200004e91850162000378565b90602092838501518281116200034d576040916200006e91870162000378565b9401519382518281116200024d576003918254916001958684811c9416801562000342575b888510146200032c578190601f94858111620002d6575b5088908583116001146200026f5760009262000263575b505060001982861b1c191690861b1783555b80519384116200024d5760049586548681811c9116801562000242575b828210146200022d57838111620001e2575b508092851160011462000174575093839491849260009562000168575b50501b92600019911b1c19161790555b600580546001600160a81b03191660ff92909216919091173360081b610100600160a81b0316179055604051610b749081620003fc8239f35b0151935038806200011f565b92919084601f1981168860005285600020956000905b89838310620001c75750505010620001ac575b50505050811b0190556200012f565b01519060f884600019921b161c19169055388080806200019d565b8587015189559097019694850194889350908101906200018a565b87600052816000208480880160051c82019284891062000223575b0160051c019087905b8281106200021657505062000102565b6000815501879062000206565b92508192620001fd565b602288634e487b7160e01b6000525260246000fd5b90607f1690620000f0565b634e487b7160e01b600052604160045260246000fd5b015190503880620000c1565b90889350601f19831691876000528a6000209260005b8c828210620002bf5750508411620002a6575b505050811b018355620000d3565b015160001983881b60f8161c1916905538808062000298565b8385015186558c9790950194938401930162000285565b90915085600052886000208580850160051c8201928b861062000322575b918a91869594930160051c01915b82811062000312575050620000aa565b600081558594508a910162000302565b92508192620002f4565b634e487b7160e01b600052602260045260246000fd5b93607f169362000093565b600080fd5b6040519190601f01601f191682016001600160401b038111838210176200024d57604052565b81601f820112156200034d578051906001600160401b0382116200024d57602090620003ad601f8401601f1916830162000352565b938385528284830101116200034d5782906000905b83838310620003e257505011620003d857505090565b6000918301015290565b81935082819392010151828288010152018391620003c256fe608060408181526004918236101561001657600080fd5b600092833560e01c91826306fdde031461074957508163095ea7b31461071f57816318160ddd1461070057816323b872dd14610636578163313ce5671461061457816339509351146105c457816340c10f19146104bd57816370a08231146104865781638da5cb5b1461045957816395d89b41146103575781639dc29fac14610211578163a457c2d71461016957508063a9059cbb14610139578063d40a9c4f146101155763dd62ed3e146100ca57600080fd5b34610111578060031936011261011157806020926100e661085b565b6100ee610876565b6001600160a01b0391821683526001865283832091168252845220549051908152f35b5080fd5b50346101115781600319360112610111576020905169021e19e0c9bab24000008152f35b503461011157806003193601126101115760209061016261015861085b565b60243590336108ae565b5160018152f35b9050823461020e578260031936011261020e5761018461085b565b918360243592338152600160205281812060018060a01b03861682526020522054908282106101bd576020856101628585038733610a11565b608490602086519162461bcd60e51b8352820152602560248201527f45524332303a2064656372656173656420616c6c6f77616e63652062656c6f77604482015264207a65726f60d81b6064820152fd5b80fd5b90503461035357816003193601126103535761022b61085b565b60055460243592916001600160a01b039160081c8216330361034f57169182855260209160068352848620610261838254610b13565b905583156103025783865285835284862054908282106102b457509181600080516020610b1f8339815191529285948896875286845203868620556102a881600254610b13565b6002558551908152a351f35b855162461bcd60e51b8152908101849052602260248201527f45524332303a206275726e20616d6f756e7420657863656564732062616c616e604482015261636560f01b6064820152608490fd5b845162461bcd60e51b8152908101839052602160248201527f45524332303a206275726e2066726f6d20746865207a65726f206164647265736044820152607360f81b6064820152608490fd5b8580fd5b8280fd5b838334610111578160031936011261011157805190828454600181811c9080831692831561044f575b602093848410811461043c5783885290811561042057506001146103e8575b505050829003601f01601f191682019267ffffffffffffffff8411838510176103d557508291826103d1925282610804565b0390f35b634e487b7160e01b815260418552602490fd5b919250868652828620918387935b83851061040c575050505083010185808061039f565b8054888601830152930192849082016103f6565b60ff1916878501525050151560051b840101905085808061039f565b634e487b7160e01b895260228a52602489fd5b91607f1691610380565b505034610111578160031936011261011157600554905160089190911c6001600160a01b03168152602090f35b5050346101115760203660031901126101115760209181906001600160a01b036104ae61085b565b16815280845220549051908152f35b9050346103535781600319360112610353576104d761085b565b600554602435916001600160a01b039160081c82163303610598575b1691828552600660205283852061050b83825461088c565b905582156105555750600080516020610b1f833981519152602082610533879460025461088c565b60025584845283825285842061054a82825461088c565b90558551908152a351f35b606490602085519162461bcd60e51b8352820152601f60248201527f45524332303a206d696e7420746f20746865207a65726f2061646472657373006044820152fd5b8181168652600660205269021e19e0c9bab24000006105ba848789205461088c565b11156104f3578580fd5b50503461011157806003193601126101115761016260209261060d6105e761085b565b338352600186528483206001600160a01b0382168452865291849020546024359061088c565b9033610a11565b50503461011157816003193601126101115760209060ff600554169051908152f35b839150346101115760603660031901126101115761065261085b565b61065a610876565b91846044359460018060a01b038416815260016020528181203382526020522054906000198203610694575b6020866101628787876108ae565b8482106106bd57509183916106b26020969561016295033383610a11565b919394819350610686565b606490602087519162461bcd60e51b8352820152601d60248201527f45524332303a20696e73756666696369656e7420616c6c6f77616e63650000006044820152fd5b5050346101115781600319360112610111576020906002549051908152f35b50503461011157806003193601126101115760209061016261073f61085b565b6024359033610a11565b8490843461035357826003193601126103535782600354600181811c908083169283156107fa575b602093848410811461043c5783885290811561042057506001146107c157505050829003601f01601f191682019267ffffffffffffffff8411838510176103d557508291826103d1925282610804565b91925060038652828620918387935b8385106107e6575050505083010185808061039f565b8054888601830152930192849082016107d0565b91607f1691610771565b919091602080825283519081818401526000945b828610610845575050806040939411610838575b601f01601f1916010190565b600083828401015261082c565b8581018201518487016040015294810194610818565b600435906001600160a01b038216820361087157565b600080fd5b602435906001600160a01b038216820361087157565b81198111610898570190565b634e487b7160e01b600052601160045260246000fd5b6001600160a01b039081169182156109be571691821561096d576000828152806020526040812054918083106109195760408282600080516020610b1f83398151915295876020965282865203828220558681522061090e82825461088c565b9055604051908152a3565b60405162461bcd60e51b815260206004820152602660248201527f45524332303a207472616e7366657220616d6f756e7420657863656564732062604482015265616c616e636560d01b6064820152608490fd5b60405162461bcd60e51b815260206004820152602360248201527f45524332303a207472616e7366657220746f20746865207a65726f206164647260448201526265737360e81b6064820152608490fd5b60405162461bcd60e51b815260206004820152602560248201527f45524332303a207472616e736665722066726f6d20746865207a65726f206164604482015264647265737360d81b6064820152608490fd5b6001600160a01b03908116918215610ac25716918215610a725760207f8c5be1e5ebec7d5bd14f71427d1e84f3dd0314c0f7b2291e5b200ac8c7c3b925918360005260018252604060002085600052825280604060002055604051908152a3565b60405162461bcd60e51b815260206004820152602260248201527f45524332303a20617070726f766520746f20746865207a65726f206164647265604482015261737360f01b6064820152608490fd5b60405162461bcd60e51b8152602060048201526024808201527f45524332303a20617070726f76652066726f6d20746865207a65726f206164646044820152637265737360e01b6064820152608490fd5b81811061089857039056feddf252ad1be2c89b69c2b068fc378daa952ba7f163c4a11628f55a4df523b3efa2646970667358221220d6721a84f01eed17bac43cd6606bfd66d29293dfbbd938ec72592128cf9df03164736f6c634300080f0033",
  "devdoc": {
    "kind": "dev",
    "methods": {
      "allowance(address,address)": {
        "details": "See {IERC20-allowance}."
      },
      "approve(address,uint256)": {
        "details": "See {IERC20-approve}. NOTE: If `amount` is the maximum `uint256`, the allowance is not updated on `transferFrom`. This is semantically equivalent to an infinite approval. Requirements: - `spender` cannot be the zero address."
      },
      "balanceOf(address)": {
        "details": "See {IERC20-balanceOf}."
      },
      "decimals()": {
        "details": "Returns the number of decimals used to get its user representation. For example, if `decimals` equals `2`, a balance of `505` tokens should be displayed to a user as `5.05` (`505 / 10 ** 2`). Tokens usually opt for a value of 18, imitating the relationship between Ether and Wei. This is the value {ERC20} uses, unless this function is overridden; NOTE: This information is only used for _display_ purposes: it in no way affects any of the arithmetic of the contract, including {IERC20-balanceOf} and {IERC20-transfer}."
      },
      "decreaseAllowance(address,uint256)": {
        "details": "Atomically decreases the allowance granted to `spender` by the caller. This is an alternative to {approve} that can be used as a mitigation for problems described in {IERC20-approve}. Emits an {Approval} event indicating the updated allowance. Requirements: - `spender` cannot be the zero address. - `spender` must have allowance for the caller of at least `subtractedValue`."
      },
      "increaseAllowance(address,uint256)": {
        "details": "Atomically increases the allowance granted to `spender` by the caller. This is an alternative to {approve} that can be used as a mitigation for problems described in {IERC20-approve}. Emits an {Approval} event indicating the updated allowance. Requirements: - `spender` cannot be the zero address."
      },
      "name()": {
        "details": "Returns the name of the token."
      },
      "symbol()": {
        "details": "Returns the symbol of the token, usually a shorter version of the name."
      },
      "totalSupply()": {
        "details": "See {IERC20-totalSupply}."
      },
      "transfer(address,uint256)": {
        "details": "See {IERC20-transfer}. Requirements: - `to` cannot be the zero address. - the caller must have a balance of at least `amount`."
      },
      "transferFrom(address,address,uint256)": {
        "details": "See {IERC20-transferFrom}. Emits an {Approval} event indicating the updated allowance. This is not required by the EIP. See the note at the beginning of {ERC20}. NOTE: Does not update the allowance if the current allowance is the maximum `uint256`. Requirements: - `from` and `to` cannot be the zero address. - `from` must have a balance of at least `amount`. - the caller must have allowance for ``from``'s tokens of at least `amount`."
      }
    },
    "version": 1
  },
  "userdoc": {
    "kind": "user",
    "methods": {},
    "version": 1
  },
  "storageLayout": {
    "storage": [
      {
        "astId": 1997,
        "contract": "src/mock/MockERC20.sol:MockERC20",
        "label": "_balances",
        "offset": 0,
        "slot": "0",
        "type": "t_mapping(t_address,t_uint256)"
      },
      {
        "astId": 2003,
        "contract": "src/mock/MockERC20.sol:MockERC20",
        "label": "_allowances",
        "offset": 0,
        "slot": "1",
        "type": "t_mapping(t_address,t_mapping(t_address,t_uint256))"
      },
      {
        "astId": 2005,
        "contract": "src/mock/MockERC20.sol:MockERC20",
        "label": "_totalSupply",
        "offset": 0,
        "slot": "2",
        "type": "t_uint256"
      },
      {
        "astId": 2007,
        "contract": "src/mock/MockERC20.sol:MockERC20",
        "label": "_name",
        "offset": 0,
        "slot": "3",
        "type": "t_string_storage"
      },
      {
        "astId": 2009,
        "contract": "src/mock/MockERC20.sol:MockERC20",
        "label": "_symbol",
        "offset": 0,
        "slot": "4",
        "type": "t_string_storage"
      },
      {
        "astId": 16653,
        "contract": "src/mock/MockERC20.sol:MockERC20",
        "label": "_decimals",
        "offset": 0,
        "slot": "5",
        "type": "t_uint8"
      },
      {
        "astId": 16655,
        "contract": "src/mock/MockERC20.sol:MockERC20",
        "label": "owner",
        "offset": 1,
        "slot": "5",
        "type": "t_address"
      },
      {
        "astId": 16659,
        "contract": "src/mock/MockERC20.sol:MockERC20",
        "label": "alreadyMinted",
        "offset": 0,
        "slot": "6",
        "type": "t_mapping(t_address,t_uint256)"
      }
    ],
    "types": {
      "t_address": {
        "encoding": "inplace",
        "label": "address",
        "numberOfBytes": "20"
      },
      "t_mapping(t_address,t_mapping(t_address,t_uint256))": {
        "encoding": "mapping",
        "key": "t_address",
        "label": "mapping(address => mapping(address => uint256))",
        "numberOfBytes": "32",
        "value": "t_mapping(t_address,t_uint256)"
      },
      "t_mapping(t_address,t_uint256)": {
        "encoding": "mapping",
        "key": "t_address",
        "label": "mapping(address => uint256)",
        "numberOfBytes": "32",
        "value": "t_uint256"
      },
      "t_string_storage": {
        "encoding": "bytes",
        "label": "string",
        "numberOfBytes": "32"
      },
      "t_uint256": {
        "encoding": "inplace",
        "label": "uint256",
        "numberOfBytes": "32"
      },
      "t_uint8": {
        "encoding": "inplace",
        "label": "uint8",
        "numberOfBytes": "1"
      }
    }
  }
}