{
  "address": "0xCf7Ed3AccA5a467e9e704C703E8D87F634fB0Fc9",
  "abi": [
    {
      "inputs": [],
      "stateMutability": "nonpayable",
      "type": "constructor"
    },
    {
      "inputs": [
        {
          "internalType": "uint256",
          "name": "amountIn",
          "type": "uint256"
        },
        {
          "internalType": "uint256",
          "name": "",
          "type": "uint256"
        },
        {
          "internalType": "address[]",
          "name": "path",
          "type": "address[]"
        },
        {
          "internalType": "address",
          "name": "to",
          "type": "address"
        },
        {
          "internalType": "uint256",
          "name": "deadline",
          "type": "uint256"
        }
      ],
      "name": "swapExactTokensForTokens",
      "outputs": [
        {
          "internalType": "uint256",
          "name": "amountOut",
          "type": "uint256"
        }
      ],
      "stateMutability": "nonpayable",
      "type": "function"
    }
  ],
  "transactionHash": "0xa84f109c313836a2e2ab7f0a1a14502369d328ad07120a8eddf6a9ddb6cf8ba2",
  "args": [],
  "numDeployments": 1,
  "solcInputHash": "c5ac15ec9bf1ccc6a448dc6f0fd95e9a",
  "bytecode": "0x608080604052346100165761037f908161001c8239f35b600080fdfe608060408181526004908136101561001657600080fd5b6000803560e01c6338ed17391461002c57600080fd5b346102c45760a03660031901126102c45782359060443567ffffffffffffffff948582116102c057366023830112156102c057818101359586116102c0576024938483019036868960051b860101116102bc576001600160a01b03606435818116959193908690036102b85760843542116102b857891561025f578a846100b2836102c7565b166323b872dd60e01b82523387830152308a83015284604483015260209c8d91818b5a92606493f1801561029057918c6100f492879461029a575b50506102c7565b16908851998b8b878163313ce56760e01b968782525afa9a8b1561029057889b610271575b506001101561025f57604401988a846101318c6102c7565b1692868b518095819382525afa918215610255578792610221575b5060ff918216911681811061020f570360ff16604d81116101fd57600a0a9081156101eb576044926101848b9695938893049a6102c7565b16898951988996879563a9059cbb60e01b87528601528401525af19081156101e057506101b3575b5051908152f35b6101d290843d86116101d9575b6101ca81836102e0565b810190610318565b50386101ac565b503d6101c0565b8351903d90823e3d90fd5b634e487b7160e01b8652601284528686fd5b634e487b7160e01b8652601184528686fd5b634e487b7160e01b8752601185528787fd5b60ff91925061024682918d803d1061024e575b61023e81836102e0565b810190610330565b92915061014c565b503d610234565b89513d89823e3d90fd5b634e487b7160e01b8752603285528787fd5b610289919b508c8d3d1061024e5761023e81836102e0565b9938610119565b8a513d8a823e3d90fd5b816102b092903d106101d9576101ca81836102e0565b508c386100ed565b8680fd5b8480fd5b8280fd5b80fd5b356001600160a01b03811681036102db5790565b600080fd5b90601f8019910116810190811067ffffffffffffffff82111761030257604052565b634e487b7160e01b600052604160045260246000fd5b908160209103126102db575180151581036102db5790565b908160209103126102db575160ff811681036102db579056fea26469706673582212200d13586f52657c2456267b06c5b8008cb30186ddb716fc24f2a2dd186d091b4064736f6c634300080f0033",
  "devdoc": {
    "kind": "dev",
    "methods": {},
    "version": 1
  },
  "userdoc": {
    "kind": "user",
    "methods": {},
    "version": 1
  },
  "storageLayout": {
    "storage": [],
    "types": null
  }
}