{
  "address": "0x0DCd1Bf9A1b36cE34237eEaFef220932846BCD82",
  "abi": [
    {
      "inputs": [],
      "name": "OnboardProposal__AlreadyClaimed",
      "type": "error"
    },
    {
      "inputs": [],
      "name": "OnboardProposal__AlreadyProposed",
      "type": "error"
    },
    {
      "inputs": [],
      "name": "OnboardProposal__AlreadyProtected",
      "type": "error"
    },
    {
      "inputs": [],
      "name": "OnboardProposal__AlreadySettled",
      "type": "error"
    },
    {
      "inputs": [],
      "name": "OnboardProposal__ChooseBothSides",
      "type": "error"
    },
    {
      "inputs": [],
      "name": "OnboardProposal__NotEnoughVeDEG",
      "type": "error"
    },
    {
      "inputs": [],
      "name": "OnboardProposal__NotSettled",
      "type": "error"
    },
    {
      "inputs": [],
      "name": "OnboardProposal__NotWrongChoice",
      "type": "error"
    },
    {
      "inputs": [],
      "name": "OnboardProposal__ProposeNotExist",
      "type": "error"
    },
    {
      "inputs": [],
      "name": "OnboardProposal__WrongCapacity",
      "type": "error"
    },
    {
      "inputs": [],
      "name": "OnboardProposal__WrongChoice",
      "type": "error"
    },
    {
      "inputs": [],
      "name": "OnboardProposal__WrongPeriod",
      "type": "error"
    },
    {
      "inputs": [],
      "name": "OnboardProposal__WrongPremium",
      "type": "error"
    },
    {
      "inputs": [],
      "name": "OnboardProposal__WrongStatus",
      "type": "error"
    },
    {
      "inputs": [],
      "name": "OnboardProposal__ZeroAmount",
      "type": "error"
    },
    {
      "anonymous": false,
      "inputs": [
        {
          "indexed": false,
          "internalType": "uint256",
          "name": "proposalId",
          "type": "uint256"
        },
        {
          "indexed": false,
          "internalType": "address",
          "name": "user",
          "type": "address"
        },
        {
          "indexed": false,
          "internalType": "uint256",
          "name": "amount",
          "type": "uint256"
        }
      ],
      "name": "Claimed",
      "type": "event"
    },
    {
      "anonymous": false,
      "inputs": [
        {
          "indexed": false,
          "internalType": "uint8",
          "name": "version",
          "type": "uint8"
        }
      ],
      "name": "Initialized",
      "type": "event"
    },
    {
      "anonymous": false,
      "inputs": [
        {
          "indexed": false,
          "internalType": "string",
          "name": "name",
          "type": "string"
        },
        {
          "indexed": false,
          "internalType": "address",
          "name": "token",
          "type": "address"
        },
        {
          "indexed": false,
          "internalType": "address",
          "name": "proposer",
          "type": "address"
        },
        {
          "indexed": false,
          "internalType": "uint256",
          "name": "maxCapacity",
          "type": "uint256"
        },
        {
          "indexed": false,
          "internalType": "uint256",
          "name": "priceRatio",
          "type": "uint256"
        }
      ],
      "name": "NewProposal",
      "type": "event"
    },
    {
      "anonymous": false,
      "inputs": [
        {
          "indexed": true,
          "internalType": "address",
          "name": "previousOwner",
          "type": "address"
        },
        {
          "indexed": true,
          "internalType": "address",
          "name": "newOwner",
          "type": "address"
        }
      ],
      "name": "OwnershipTransferred",
      "type": "event"
    },
    {
      "anonymous": false,
      "inputs": [
        {
          "indexed": false,
          "internalType": "uint256",
          "name": "proposalId",
          "type": "uint256"
        },
        {
          "indexed": false,
          "internalType": "uint256",
          "name": "timestamp",
          "type": "uint256"
        }
      ],
      "name": "ProposalClosed",
      "type": "event"
    },
    {
      "anonymous": false,
      "inputs": [
        {
          "indexed": false,
          "internalType": "uint256",
          "name": "proposalId",
          "type": "uint256"
        }
      ],
      "name": "ProposalFailed",
      "type": "event"
    },
    {
      "anonymous": false,
      "inputs": [
        {
          "indexed": false,
          "internalType": "uint256",
          "name": "proposalId",
          "type": "uint256"
        },
        {
          "indexed": false,
          "internalType": "uint256",
          "name": "result",
          "type": "uint256"
        }
      ],
      "name": "ProposalSettled",
      "type": "event"
    },
    {
      "anonymous": false,
      "inputs": [
        {
          "indexed": false,
          "internalType": "uint256",
          "name": "proposalId",
          "type": "uint256"
        },
        {
          "indexed": true,
          "internalType": "address",
          "name": "user",
          "type": "address"
        },
        {
          "indexed": false,
          "internalType": "uint256",
          "name": "voteFor",
          "type": "uint256"
        },
        {
          "indexed": false,
          "internalType": "uint256",
          "name": "amount",
          "type": "uint256"
        }
      ],
      "name": "ProposalVoted",
      "type": "event"
    },
    {
      "anonymous": false,
      "inputs": [
        {
          "indexed": false,
          "internalType": "uint256",
          "name": "proposalId",
          "type": "uint256"
        },
        {
          "indexed": false,
          "internalType": "uint256",
          "name": "timestamp",
          "type": "uint256"
        }
      ],
      "name": "ProposalVotingStart",
      "type": "event"
    },
    {
      "inputs": [],
      "name": "MAX_CAPACITY_RATIO",
      "outputs": [
        {
          "internalType": "uint256",
          "name": "",
          "type": "uint256"
        }
      ],
      "stateMutability": "view",
      "type": "function"
    },
    {
      "inputs": [],
      "name": "PROPOSAL_VOTING_PERIOD",
      "outputs": [
        {
          "internalType": "uint256",
          "name": "",
          "type": "uint256"
        }
      ],
      "stateMutability": "view",
      "type": "function"
    },
    {
      "inputs": [],
      "name": "PROPOSE_THRESHOLD",
      "outputs": [
        {
          "internalType": "uint256",
          "name": "",
          "type": "uint256"
        }
      ],
      "stateMutability": "view",
      "type": "function"
    },
    {
      "inputs": [
        {
          "internalType": "uint256",
          "name": "_id",
          "type": "uint256"
        }
      ],
      "name": "claim",
      "outputs": [],
      "stateMutability": "nonpayable",
      "type": "function"
    },
    {
      "inputs": [
        {
          "internalType": "uint256",
          "name": "_id",
          "type": "uint256"
        }
      ],
      "name": "closeProposal",
      "outputs": [],
      "stateMutability": "nonpayable",
      "type": "function"
    },
    {
      "inputs": [],
      "name": "getAllProposals",
      "outputs": [
        {
          "components": [
            {
              "internalType": "string",
              "name": "name",
              "type": "string"
            },
            {
              "internalType": "address",
              "name": "protocolToken",
              "type": "address"
            },
            {
              "internalType": "address",
              "name": "proposer",
              "type": "address"
            },
            {
              "internalType": "uint256",
              "name": "proposeTimestamp",
              "type": "uint256"
            },
            {
              "internalType": "uint256",
              "name": "voteTimestamp",
              "type": "uint256"
            },
            {
              "internalType": "uint256",
              "name": "numFor",
              "type": "uint256"
            },
            {
              "internalType": "uint256",
              "name": "numAgainst",
              "type": "uint256"
            },
            {
              "internalType": "uint256",
              "name": "maxCapacity",
              "type": "uint256"
            },
            {
              "internalType": "uint256",
              "name": "basePremiumRatio",
              "type": "uint256"
            },
            {
              "internalType": "uint256",
              "name": "poolId",
              "type": "uint256"
            },
            {
              "internalType": "uint256",
              "name": "status",
              "type": "uint256"
            },
            {
              "internalType": "uint256",
              "name": "result",
              "type": "uint256"
            }
          ],
          "internalType": "struct OnboardProposal.Proposal[]",
          "name": "allProposals",
          "type": "tuple[]"
        }
      ],
      "stateMutability": "view",
      "type": "function"
    },
    {
      "inputs": [
        {
          "internalType": "uint256",
          "name": "_proposalId",
          "type": "uint256"
        }
      ],
      "name": "getProposal",
      "outputs": [
        {
          "components": [
            {
              "internalType": "string",
              "name": "name",
              "type": "string"
            },
            {
              "internalType": "address",
              "name": "protocolToken",
              "type": "address"
            },
            {
              "internalType": "address",
              "name": "proposer",
              "type": "address"
            },
            {
              "internalType": "uint256",
              "name": "proposeTimestamp",
              "type": "uint256"
            },
            {
              "internalType": "uint256",
              "name": "voteTimestamp",
              "type": "uint256"
            },
            {
              "internalType": "uint256",
              "name": "numFor",
              "type": "uint256"
            },
            {
              "internalType": "uint256",
              "name": "numAgainst",
              "type": "uint256"
            },
            {
              "internalType": "uint256",
              "name": "maxCapacity",
              "type": "uint256"
            },
            {
              "internalType": "uint256",
              "name": "basePremiumRatio",
              "type": "uint256"
            },
            {
              "internalType": "uint256",
              "name": "poolId",
              "type": "uint256"
            },
            {
              "internalType": "uint256",
              "name": "status",
              "type": "uint256"
            },
            {
              "internalType": "uint256",
              "name": "result",
              "type": "uint256"
            }
          ],
          "internalType": "struct OnboardProposal.Proposal",
          "name": "",
          "type": "tuple"
        }
      ],
      "stateMutability": "view",
      "type": "function"
    },
    {
      "inputs": [
        {
          "internalType": "address",
          "name": "_user",
          "type": "address"
        },
        {
          "internalType": "uint256",
          "name": "_proposalId",
          "type": "uint256"
        }
      ],
      "name": "getUserProposalVote",
      "outputs": [
        {
          "components": [
            {
              "internalType": "uint256",
              "name": "choice",
              "type": "uint256"
            },
            {
              "internalType": "uint256",
              "name": "amount",
              "type": "uint256"
            },
            {
              "internalType": "bool",
              "name": "claimed",
              "type": "bool"
            }
          ],
          "internalType": "struct OnboardProposal.UserVote",
          "name": "",
          "type": "tuple"
        }
      ],
      "stateMutability": "view",
      "type": "function"
    },
    {
      "inputs": [
        {
          "internalType": "address",
          "name": "_deg",
          "type": "address"
        },
        {
          "internalType": "address",
          "name": "_veDeg",
          "type": "address"
        },
        {
          "internalType": "address",
          "name": "_shield",
          "type": "address"
        }
      ],
      "name": "initialize",
      "outputs": [],
      "stateMutability": "nonpayable",
      "type": "function"
    },
    {
      "inputs": [],
      "name": "owner",
      "outputs": [
        {
          "internalType": "address",
          "name": "",
          "type": "address"
        }
      ],
      "stateMutability": "view",
      "type": "function"
    },
    {
      "inputs": [],
      "name": "priorityPoolFactory",
      "outputs": [
        {
          "internalType": "contract IPriorityPoolFactory",
          "name": "",
          "type": "address"
        }
      ],
      "stateMutability": "view",
      "type": "function"
    },
    {
      "inputs": [],
      "name": "proposalCounter",
      "outputs": [
        {
          "internalType": "uint256",
          "name": "",
          "type": "uint256"
        }
      ],
      "stateMutability": "view",
      "type": "function"
    },
    {
      "inputs": [
        {
          "internalType": "uint256",
          "name": "",
          "type": "uint256"
        }
      ],
      "name": "proposals",
      "outputs": [
        {
          "internalType": "string",
          "name": "name",
          "type": "string"
        },
        {
          "internalType": "address",
          "name": "protocolToken",
          "type": "address"
        },
        {
          "internalType": "address",
          "name": "proposer",
          "type": "address"
        },
        {
          "internalType": "uint256",
          "name": "proposeTimestamp",
          "type": "uint256"
        },
        {
          "internalType": "uint256",
          "name": "voteTimestamp",
          "type": "uint256"
        },
        {
          "internalType": "uint256",
          "name": "numFor",
          "type": "uint256"
        },
        {
          "internalType": "uint256",
          "name": "numAgainst",
          "type": "uint256"
        },
        {
          "internalType": "uint256",
          "name": "maxCapacity",
          "type": "uint256"
        },
        {
          "internalType": "uint256",
          "name": "basePremiumRatio",
          "type": "uint256"
        },
        {
          "internalType": "uint256",
          "name": "poolId",
          "type": "uint256"
        },
        {
          "internalType": "uint256",
          "name": "status",
          "type": "uint256"
        },
        {
          "internalType": "uint256",
          "name": "result",
          "type": "uint256"
        }
      ],
      "stateMutability": "view",
      "type": "function"
    },
    {
      "inputs": [
        {
          "internalType": "string",
          "name": "_name",
          "type": "string"
        },
        {
          "internalType": "address",
          "name": "_token",
          "type": "address"
        },
        {
          "internalType": "uint256",
          "name": "_maxCapacity",
          "type": "uint256"
        },
        {
          "internalType": "uint256",
          "name": "_basePremiumRatio",
          "type": "uint256"
        }
      ],
      "name": "propose",
      "outputs": [],
      "stateMutability": "nonpayable",
      "type": "function"
    },
    {
      "inputs": [
        {
          "internalType": "address",
          "name": "",
          "type": "address"
        }
      ],
      "name": "proposed",
      "outputs": [
        {
          "internalType": "bool",
          "name": "",
          "type": "bool"
        }
      ],
      "stateMutability": "view",
      "type": "function"
    },
    {
      "inputs": [],
      "name": "quorumRatio",
      "outputs": [
        {
          "internalType": "uint256",
          "name": "",
          "type": "uint256"
        }
      ],
      "stateMutability": "view",
      "type": "function"
    },
    {
      "inputs": [],
      "name": "renounceOwnership",
      "outputs": [],
      "stateMutability": "nonpayable",
      "type": "function"
    },
    {
      "inputs": [
        {
          "internalType": "address",
          "name": "_priorityPoolFactory",
          "type": "address"
        }
      ],
      "name": "setPriorityPoolFactory",
      "outputs": [],
      "stateMutability": "nonpayable",
      "type": "function"
    },
    {
      "inputs": [
        {
          "internalType": "uint256",
          "name": "_quorumRatio",
          "type": "uint256"
        }
      ],
      "name": "setQuorumRatio",
      "outputs": [],
      "stateMutability": "nonpayable",
      "type": "function"
    },
    {
      "inputs": [
        {
          "internalType": "uint256",
          "name": "_id",
          "type": "uint256"
        }
      ],
      "name": "settle",
      "outputs": [],
      "stateMutability": "nonpayable",
      "type": "function"
    },
    {
      "inputs": [
        {
          "internalType": "uint256",
          "name": "_id",
          "type": "uint256"
        }
      ],
      "name": "startVoting",
      "outputs": [],
      "stateMutability": "nonpayable",
      "type": "function"
    },
    {
      "inputs": [
        {
          "internalType": "address",
          "name": "newOwner",
          "type": "address"
        }
      ],
      "name": "transferOwnership",
      "outputs": [],
      "stateMutability": "nonpayable",
      "type": "function"
    },
    {
      "inputs": [
        {
          "internalType": "uint256",
          "name": "_id",
          "type": "uint256"
        },
        {
          "internalType": "uint256",
          "name": "_isFor",
          "type": "uint256"
        },
        {
          "internalType": "uint256",
          "name": "_amount",
          "type": "uint256"
        }
      ],
      "name": "vote",
      "outputs": [],
      "stateMutability": "nonpayable",
      "type": "function"
    },
    {
      "inputs": [
        {
          "internalType": "address",
          "name": "",
          "type": "address"
        },
        {
          "internalType": "uint256",
          "name": "",
          "type": "uint256"
        }
      ],
      "name": "votes",
      "outputs": [
        {
          "internalType": "uint256",
          "name": "choice",
          "type": "uint256"
        },
        {
          "internalType": "uint256",
          "name": "amount",
          "type": "uint256"
        },
        {
          "internalType": "bool",
          "name": "claimed",
          "type": "bool"
        }
      ],
      "stateMutability": "view",
      "type": "function"
    }
  ],
  "transactionHash": "0x370e2c89f68bc44fff70bcc9e46078b96823dbc80d5350fec0aa5321641e4100",
  "args": [],
  "numDeployments": 1,
  "solcInputHash": "47acdbe4a2fbfe8564e34be1f64507a0",
  "bytecode": "0x6080806040523461001657611922908161001c8239f35b600080fdfe6040608081526004908136101561001557600080fd5b60009160e08335811c908163013cf08b146113e25781630386a0161461133a5781630c0512e91461131a5781630def040214611286578163164bfde514610ec15781631ff799d214610e9b578163379607f514610d6a5781633d2f5bda14610cd957816344ff823714610cbb5781636f8a6e4314610c91578163715018a614610c215781638a6655d6146109785781638da5cb5b1461094b5781638df82800146107355781639418ce17146107045781639f2524ee146106a4578163ad35e1dc1461065b578163b4643d291461063b578163b5e18ce4146105fc578163b8b8ed6e146105da578163c0c53b8b1461043e578163c7f758a814610367578163cceb68f5146101c8575063f2fde38b1461012c57600080fd5b346101c45760203660031901126101c457610145611662565b9060018060a01b0361015e81865460101c163314611721565b821615610172575061016f9061175a565b51f35b608490602084519162461bcd60e51b8352820152602660248201527f4f776e61626c653a206e6577206f776e657220697320746865207a65726f206160448201526564647265737360d01b6064820152fd5b8280fd5b90508391346101c457826003193601126101c4576036546101e881611875565b926101f586519485611549565b818452601f1961020483611875565b01855b818110610350575050845b8281106102785750505050825191602080840190808552835180925280868601968360051b870101940192955b82871061024c5785850386f35b909192938280610268600193603f198a8203018652885161168e565b960192019601959291909261023f565b600119811161033d5761033760019182810192838952600b602091603883528b8b20908c51936102a78561152c565b6102b08361156b565b855260018060a01b03809284015416908501526002820154168c84015260038101546060840152888101546080840152600581015460a0840152600681015460c084015260078101548784015260088101546101008401526009810154610120840152600a810154610140840152015461016082015261033082896118af565b52866118af565b50610212565b634e487b7160e01b865260118452602486fd5b60209061035b61181a565b82828901015201610207565b849391503461043a57602036600319011261043a57600b90826104369561038c61181a565b5085358152603860205220908351946103a48661152c565b6103ad8361156b565b865260018060a01b0380600185015416602088015260028401541685870152600383015460608701528201546080860152600582015460a0860152600682015460c086015260078201549085015260088101546101008501526009810154610120850152600a81015461014085015201546101608301525191829160208352602083019061168e565b0390f35b8380fd5b5050346101c45760603660031901126101c457610459611662565b90610462611678565b916044356001600160a01b0381811692918390036105d557865460ff8160081c1615948580966105c8575b80156105b1575b15610557575060ff198116600117885584610546575b506104c460ff885460081c166104bf816117ba565b6117ba565b6104cd3361175a565b8654946104df60ff8760081c166117ba565b8160018060a01b03199316836032541617603255168160335416176033556034541617603455601e603755610512575051f35b61ff00191682557f7f26b83ff96e1f2b6a682f133852f6798a09c465da95921460cefb38474024986020825160018152a151f35b61ffff1916610101178755386104aa565b608490602089519162461bcd60e51b8352820152602e60248201527f496e697469616c697a61626c653a20636f6e747261637420697320616c72656160448201526d191e481a5b9a5d1a585b1a5e995960921b6064820152fd5b50303b1580156104945750600160ff831614610494565b50600160ff83161061048d565b600080fd5b505050346105f857816003193601126105f857602090516103848152f35b5080fd5b505050346105f85760203660031901126105f85760209160ff9082906001600160a01b03610628611662565b1681526039855220541690519015158152f35b505050346105f857816003193601126105f8576020906037549051908152f35b505050346105f85760203660031901126105f857610677611662565b60018060a01b039061069082855460101c163314611721565b1660018060a01b0319603554161760355551f35b505050346105f857806003193601126105f85760609181906001600160a01b036106cc611662565b168152603a6020528181206024358252602052209081549160ff60026001830154920154169082519384526020840152151590820152f35b5050346101c45760203660031901126101c45761072e60018060a01b03845460101c163314611721565b3560375551f35b828585346105f8576020806003193601126101c457833580845260388252828420600a810192600284540361093b57610770878301546118d9565b1561092b57600b820191825461091b5760058101928354610797600684019182549061188d565b60335489516318160ddd60e01b81526001600160a01b03979291879082908f9082908c165afa908115610911578c916108e4575b506037549080600019048211811515166108d0578b9c9d92916064919c9b9c02041115600014610883575091600393917fc3e9e56c21ecd9fd3bcbaf6dd404f67ff375a520220a8edc72194dc096ef1c5099935490549081811160001461086a57505060019586925b6001840361084d575b505055558351928352820152a151f35b60010154168b5260398552878b20805460ff191690558b8061083d565b101561087a576002958692610834565b83958692610834565b905060019497507fa9257f9d0c375c52bac8f7010bf9ee592a943ac8f8fbad61dea6a8487e283108989150600392555501541685526039825283852060ff1981541690558351908152a151f35b50634e487b7160e01b8c5260118d5260248cfd5b90508681813d831161090a575b6108fb8183611549565b810103126105d557518d6107cb565b503d6108f1565b8b513d8e823e3d90fd5b85516379618fa360e11b81528890fd5b84516319c4ee9f60e31b81528790fd5b845163200e272960e11b81528790fd5b505050346105f857816003193601126105f8579054905160109190911c6001600160a01b03168152602090f35b5050346101c45760603660031901126101c4578035906024356044359183865260209060388252858720906002600a83015403610c13576001841490811580610c08575b610bfa576109cc818401546118d9565b610bec578515610bde5760335488516370a0823160e01b815233838201526001600160a01b03909116908581602481855afa908115610bd4578b91610ba7575b50895163cbf9fe5f60e01b81523384820152908682602481865afa918215610911578c92610b78575b50818110610b6557038711610b5657808a913b156105f8578951633c56aa6160e11b815233848201908152602081018a90529091839183919082908490829060400103925af18015610b4c57610b34575b5050338952603a8452878920878a528452878920600181018054909291879115610b2d575403610b1f57505b610abd86825461188d565b905515610b0a57600501610ad284825461188d565b90555b8451938452830152828201527ff3709dc32cf1356da6b8a12a5be1401aeb00989556be7b16ae566e65fef7a9df60603392a251f35b600601610b1884825461188d565b9055610ad5565b885163fe5e801760e01b8152fd5b5550610ab2565b610b3d90611518565b610b48578838610a86565b8880fd5b8a513d84823e3d90fd5b508751630840c31d60e11b8152fd5b634e487b7160e01b8c526011845260248cfd5b9091508681813d8311610ba0575b610b908183611549565b810103126105d557519038610a35565b503d610b86565b90508581813d8311610bcd575b610bbe8183611549565b810103126105d5575138610a0c565b503d610bb4565b8a513d8d823e3d90fd5b87516323f2f57960e11b8152fd5b87516319c4ee9f60e31b8152fd5b8751631cc147e360e31b8152fd5b5060028514156109bc565b865163200e272960e11b8152fd5b505050346105f857816003193601126105f85781546001600160a01b039190610c509060101c83163314611721565b600080549151928260101c167f8be0079c531659141344cd1fd0a4f28419497f9722a3daafe3b4186f6b6457e08285a362010000600160b01b031916600055f35b505050346105f857816003193601126105f85760355490516001600160a01b039091168152602090f35b505050346105f857816003193601126105f857602090516127108152f35b5050346101c45760203660031901126101c457803590610d0660018060a01b03855460101c163314611721565b818452603860205282842090600a82016001815403610d5b57917f7612de03d869f469b9967d2920682d83541e890e1a05daa3de481bf10ff25b7a93916002869455429101558151908152426020820152a151f35b50835163200e272960e11b8152fd5b5050346101c45760203660031901126101c457803580845260386020526003600a848620015403610e8c57338452603a602052828420818552602052828420600281019060ff825416610e7c5760335460019091018054909487926001600160a01b031691823b1561043a578751634bdc2db560e11b815233928101928352602083019190915291839183919082908490829060400103925af18015610e7257610e56575b5050805460ff1916600117905590548251918252336020830152818301527f4ec90e965519d92681267467f775ada5bd214aa92c0dc93d90a5e880ce9ed02690606090a151f35b610e6290939293611518565b610e6e57908438610e0f565b8480fd5b86513d84823e3d90fd5b845163a584468160e01b81528490fd5b50905163200e272960e11b8152fd5b505050346105f857816003193601126105f8576020905169021e19e0c9bab24000008152f35b5050346101c45760803660031901126101c457803567ffffffffffffffff808211610e6e5736602383011215610e6e5781830135908111610e6e576024923684838501011161128257610f12611678565b604435906064359260018060a01b0390818060355416938a51938491635170e73160e11b835216948584830152818b60209687935afa908115610911578c91611248575b50611239578415801561122e575b61121f576127108610801590611217575b61120857838b526039835260ff8a8c2054166111f957603254168a813b156111f65769021e19e0c9bab240000060448b838e51958694859363342c6d4d60e11b8552338a8601528401525af18015610bd4576111e3575b50828a5260398252888a20805460ff19166001908117909155603654600019928382146111d157508101806036558b5260388352898b209161100e83546114ac565b601f8111611189575b508b8c601f8a116001146110f65793899795938997959360c09b8e7f67633902245d09131a2e6d9529b8a71b17851176469cb4cbc512174e3fe7c0379f9e9c9695600896926110e9575b50508a831b918b60031b1c19161782555b81810180546001600160a01b0319908116881790915560028301805490911633179055426003830155600a820155600781018690550155895160a080825281018690529788968691018888013785850187018b9052850152338885015260608401526080830152601f01601f19168101030190a151f35b8d01013590508d38611061565b91601f198a16858452868420935b81811061117257509389979591936008938e7f67633902245d09131a2e6d9529b8a71b17851176469cb4cbc512174e3fe7c0379f9e9c968e60c09f9d9b9910611158575b505050508089811b018255611072565b60f88d60031b161c19918d01013516905538808d81611148565b8c84018e0135855593850193928701928701611104565b838d52848d20601f8a0160051c810191868b106111c7575b601f0160051c019083908e5b8382106111bc57505050611017565b81550183908e6111ad565b90915081906111a1565b634e487b7160e01b8d5260119052898cfd5b6111ef909a919a611518565b9838610fcc565b80fd5b5088516365bd930960e11b8152fd5b5088516331b2314b60e01b8152fd5b508515610f75565b508851637c2006d960e11b8152fd5b506127108511610f64565b508851634a9caa2b60e01b8152fd5b90508381813d831161127b575b61125f8183611549565b81010312611277575180151581036112775738610f56565b8b80fd5b503d611255565b8580fd5b505050346105f857806003193601126105f857806060926112a5611662565b818380516112b2816114e6565b828152826020820152015260018060a01b03168152603a6020528181206024358252602052209080516112e4816114e6565b8254928382528260ff60026001840154936020860194855201541692019115158252825193845251602084015251151590820152f35b505050346105f857816003193601126105f8576020906036549051908152f35b5050346101c45760203660031901126101c45780359060018060a01b039061136982865460101c163314611721565b828552603860205283852090600a82019060018254036113d457509160017fbc54f85bee74832b80104d1b6d31c68eb8065057063a1d23f8ed7ce44a47f30294926101948795550154168552603960205281852060ff1981541690558151908152426020820152a151f35b855163200e272960e11b8152fd5b905083346111f65760203660031901126111f6578390833581526038602052209061140c8261156b565b91600160a01b6001900393846001830154169460028301541692600383015491830154906005840154906006850154600786015492600887015494600988015496600a89015498600b0154998d519d8e9d8e9d8e610180908181520161147191611611565b9d602001528d015260608c015260808b015260a08a015260c08901528701526101008601526101208501526101408401526101608301520390f35b90600182811c921680156114dc575b60208310146114c657565b634e487b7160e01b600052602260045260246000fd5b91607f16916114bb565b6060810190811067ffffffffffffffff82111761150257604052565b634e487b7160e01b600052604160045260246000fd5b67ffffffffffffffff811161150257604052565b610180810190811067ffffffffffffffff82111761150257604052565b90601f8019910116810190811067ffffffffffffffff82111761150257604052565b906040519182600082549261157f846114ac565b9081845260019485811690816000146115ee57506001146115ab575b50506115a992500383611549565b565b9093915060005260209081600020936000915b8183106115d65750506115a99350820101388061159b565b855488840185015294850194879450918301916115be565b9150506115a994506020925060ff191682840152151560051b820101388061159b565b91908251928382526000905b84821061164a57509280602093941161163d575b601f01601f1916010190565b6000838284010152611631565b9060209081808285010151908286010152019061161d565b600435906001600160a01b03821682036105d557565b602435906001600160a01b03821682036105d557565b906116a28251610180808452830190611611565b9160018060a01b038060208301511660208401526040820151166040830152606081015160608301526080810151608083015260a081015160a083015260c081015160c083015260e081015160e08301526101008082015190830152610120808201519083015261014080820151908301526101608091015191015290565b1561172857565b60405162461bcd60e51b815260206004820152600a60248201526927b7363c9037bbb732b960b11b6044820152606490fd5b6000549060018060a01b03808216908360101c167f8be0079c531659141344cd1fd0a4f28419497f9722a3daafe3b4186f6b6457e06000604051a362010000600160b01b031990911660109190911b62010000600160b01b031617600055565b156117c157565b60405162461bcd60e51b815260206004820152602b60248201527f496e697469616c697a61626c653a20636f6e7472616374206973206e6f74206960448201526a6e697469616c697a696e6760a81b6064820152608490fd5b604051906118278261152c565b81606081526101606000918260208201528260408201528260608201528260808201528260a08201528260c08201528260e08201528261010082015282610120820152826101408201520152565b67ffffffffffffffff81116115025760051b60200190565b81198111611899570190565b634e487b7160e01b600052601160045260246000fd5b80518210156118c35760209160051b010190565b634e487b7160e01b600052603260045260246000fd5b610384198111611899576103840142119056fea2646970667358221220f76417bcbe15f8a1ebd91afc6c582bc68993f11866e688a635ed0028d782845464736f6c634300080f0033",
  "devdoc": {
    "kind": "dev",
    "methods": {
      "claim(uint256)": {
        "params": {
          "_id": "Proposal id"
        }
      },
      "closeProposal(uint256)": {
        "params": {
          "_id": "Proposal id"
        }
      },
      "owner()": {
        "details": "Returns the address of the current owner."
      },
      "propose(string,address,uint256,uint256)": {
        "params": {
          "_basePremiumRatio": "Base annual ratio of the premium",
          "_maxCapacity": "Max capacity ratio for the project pool",
          "_name": "New project name",
          "_token": "Native token address"
        }
      },
      "renounceOwnership()": {
        "details": "Leaves the contract without owner. It will not be possible to call `onlyOwner` functions anymore. Can only be called by the current owner. NOTE: Renouncing ownership will leave the contract without an owner, thereby removing any functionality that is only available to the owner."
      },
      "settle(uint256)": {
        "params": {
          "_id": "Proposal id"
        }
      },
      "startVoting(uint256)": {
        "params": {
          "_id": "Proposal id to start voting"
        }
      },
      "transferOwnership(address)": {
        "details": "Transfers ownership of the contract to a new account (`newOwner`). Can only be called by the current owner."
      },
      "vote(uint256,uint256,uint256)": {
        "params": {
          "_amount": "Amount of veDEG to vote",
          "_id": "Proposal id",
          "_isFor": "Voting choice"
        }
      }
    },
    "version": 1
  },
  "userdoc": {
    "kind": "user",
    "methods": {
      "claim(uint256)": {
        "notice": "Claim back veDEG after voting result settled"
      },
      "closeProposal(uint256)": {
        "notice": "Close a pending proposal         Need the approval of dev team (onlyOwner)"
      },
      "propose(string,address,uint256,uint256)": {
        "notice": "Start a new proposal"
      },
      "settle(uint256)": {
        "notice": "Settle the proposal result"
      },
      "startVoting(uint256)": {
        "notice": "Start the voting process         Need the approval of dev team (onlyOwner)"
      },
      "vote(uint256,uint256,uint256)": {
        "notice": "Vote for a proposal         Voting power is decided by the (unlocked) balance of veDEG         Once voted, those veDEG will be locked"
      }
    },
    "notice": "Onboard Proposal",
    "version": 1
  },
  "storageLayout": {
    "storage": [
      {
        "astId": 52,
        "contract": "src/voting/onboardProposal/OnboardProposal.sol:OnboardProposal",
        "label": "_initialized",
        "offset": 0,
        "slot": "0",
        "type": "t_uint8"
      },
      {
        "astId": 55,
        "contract": "src/voting/onboardProposal/OnboardProposal.sol:OnboardProposal",
        "label": "_initializing",
        "offset": 1,
        "slot": "0",
        "type": "t_bool"
      },
      {
        "astId": 22927,
        "contract": "src/voting/onboardProposal/OnboardProposal.sol:OnboardProposal",
        "label": "_owner",
        "offset": 2,
        "slot": "0",
        "type": "t_address"
      },
      {
        "astId": 23034,
        "contract": "src/voting/onboardProposal/OnboardProposal.sol:OnboardProposal",
        "label": "__gap",
        "offset": 0,
        "slot": "1",
        "type": "t_array(t_uint256)49_storage"
      },
      {
        "astId": 13963,
        "contract": "src/voting/onboardProposal/OnboardProposal.sol:OnboardProposal",
        "label": "deg",
        "offset": 0,
        "slot": "50",
        "type": "t_contract(IDegisToken)14090"
      },
      {
        "astId": 13966,
        "contract": "src/voting/onboardProposal/OnboardProposal.sol:OnboardProposal",
        "label": "veDeg",
        "offset": 0,
        "slot": "51",
        "type": "t_contract(IVeDEG)15232"
      },
      {
        "astId": 13969,
        "contract": "src/voting/onboardProposal/OnboardProposal.sol:OnboardProposal",
        "label": "shield",
        "offset": 0,
        "slot": "52",
        "type": "t_contract(IShield)15187"
      },
      {
        "astId": 25927,
        "contract": "src/voting/onboardProposal/OnboardProposal.sol:OnboardProposal",
        "label": "priorityPoolFactory",
        "offset": 0,
        "slot": "53",
        "type": "t_contract(IPriorityPoolFactory)15109"
      },
      {
        "astId": 25084,
        "contract": "src/voting/onboardProposal/OnboardProposal.sol:OnboardProposal",
        "label": "proposalCounter",
        "offset": 0,
        "slot": "54",
        "type": "t_uint256"
      },
      {
        "astId": 25086,
        "contract": "src/voting/onboardProposal/OnboardProposal.sol:OnboardProposal",
        "label": "quorumRatio",
        "offset": 0,
        "slot": "55",
        "type": "t_uint256"
      },
      {
        "astId": 25116,
        "contract": "src/voting/onboardProposal/OnboardProposal.sol:OnboardProposal",
        "label": "proposals",
        "offset": 0,
        "slot": "56",
        "type": "t_mapping(t_uint256,t_struct(Proposal)25111_storage)"
      },
      {
        "astId": 25120,
        "contract": "src/voting/onboardProposal/OnboardProposal.sol:OnboardProposal",
        "label": "proposed",
        "offset": 0,
        "slot": "57",
        "type": "t_mapping(t_address,t_bool)"
      },
      {
        "astId": 25134,
        "contract": "src/voting/onboardProposal/OnboardProposal.sol:OnboardProposal",
        "label": "votes",
        "offset": 0,
        "slot": "58",
        "type": "t_mapping(t_address,t_mapping(t_uint256,t_struct(UserVote)25127_storage))"
      }
    ],
    "types": {
      "t_address": {
        "encoding": "inplace",
        "label": "address",
        "numberOfBytes": "20"
      },
      "t_array(t_uint256)49_storage": {
        "base": "t_uint256",
        "encoding": "inplace",
        "label": "uint256[49]",
        "numberOfBytes": "1568"
      },
      "t_bool": {
        "encoding": "inplace",
        "label": "bool",
        "numberOfBytes": "1"
      },
      "t_contract(IDegisToken)14090": {
        "encoding": "inplace",
        "label": "contract IDegisToken",
        "numberOfBytes": "20"
      },
      "t_contract(IPriorityPoolFactory)15109": {
        "encoding": "inplace",
        "label": "contract IPriorityPoolFactory",
        "numberOfBytes": "20"
      },
      "t_contract(IShield)15187": {
        "encoding": "inplace",
        "label": "contract IShield",
        "numberOfBytes": "20"
      },
      "t_contract(IVeDEG)15232": {
        "encoding": "inplace",
        "label": "contract IVeDEG",
        "numberOfBytes": "20"
      },
      "t_mapping(t_address,t_bool)": {
        "encoding": "mapping",
        "key": "t_address",
        "label": "mapping(address => bool)",
        "numberOfBytes": "32",
        "value": "t_bool"
      },
      "t_mapping(t_address,t_mapping(t_uint256,t_struct(UserVote)25127_storage))": {
        "encoding": "mapping",
        "key": "t_address",
        "label": "mapping(address => mapping(uint256 => struct OnboardProposal.UserVote))",
        "numberOfBytes": "32",
        "value": "t_mapping(t_uint256,t_struct(UserVote)25127_storage)"
      },
      "t_mapping(t_uint256,t_struct(Proposal)25111_storage)": {
        "encoding": "mapping",
        "key": "t_uint256",
        "label": "mapping(uint256 => struct OnboardProposal.Proposal)",
        "numberOfBytes": "32",
        "value": "t_struct(Proposal)25111_storage"
      },
      "t_mapping(t_uint256,t_struct(UserVote)25127_storage)": {
        "encoding": "mapping",
        "key": "t_uint256",
        "label": "mapping(uint256 => struct OnboardProposal.UserVote)",
        "numberOfBytes": "32",
        "value": "t_struct(UserVote)25127_storage"
      },
      "t_string_storage": {
        "encoding": "bytes",
        "label": "string",
        "numberOfBytes": "32"
      },
      "t_struct(Proposal)25111_storage": {
        "encoding": "inplace",
        "label": "struct OnboardProposal.Proposal",
        "members": [
          {
            "astId": 25088,
            "contract": "src/voting/onboardProposal/OnboardProposal.sol:OnboardProposal",
            "label": "name",
            "offset": 0,
            "slot": "0",
            "type": "t_string_storage"
          },
          {
            "astId": 25090,
            "contract": "src/voting/onboardProposal/OnboardProposal.sol:OnboardProposal",
            "label": "protocolToken",
            "offset": 0,
            "slot": "1",
            "type": "t_address"
          },
          {
            "astId": 25092,
            "contract": "src/voting/onboardProposal/OnboardProposal.sol:OnboardProposal",
            "label": "proposer",
            "offset": 0,
            "slot": "2",
            "type": "t_address"
          },
          {
            "astId": 25094,
            "contract": "src/voting/onboardProposal/OnboardProposal.sol:OnboardProposal",
            "label": "proposeTimestamp",
            "offset": 0,
            "slot": "3",
            "type": "t_uint256"
          },
          {
            "astId": 25096,
            "contract": "src/voting/onboardProposal/OnboardProposal.sol:OnboardProposal",
            "label": "voteTimestamp",
            "offset": 0,
            "slot": "4",
            "type": "t_uint256"
          },
          {
            "astId": 25098,
            "contract": "src/voting/onboardProposal/OnboardProposal.sol:OnboardProposal",
            "label": "numFor",
            "offset": 0,
            "slot": "5",
            "type": "t_uint256"
          },
          {
            "astId": 25100,
            "contract": "src/voting/onboardProposal/OnboardProposal.sol:OnboardProposal",
            "label": "numAgainst",
            "offset": 0,
            "slot": "6",
            "type": "t_uint256"
          },
          {
            "astId": 25102,
            "contract": "src/voting/onboardProposal/OnboardProposal.sol:OnboardProposal",
            "label": "maxCapacity",
            "offset": 0,
            "slot": "7",
            "type": "t_uint256"
          },
          {
            "astId": 25104,
            "contract": "src/voting/onboardProposal/OnboardProposal.sol:OnboardProposal",
            "label": "basePremiumRatio",
            "offset": 0,
            "slot": "8",
            "type": "t_uint256"
          },
          {
            "astId": 25106,
            "contract": "src/voting/onboardProposal/OnboardProposal.sol:OnboardProposal",
            "label": "poolId",
            "offset": 0,
            "slot": "9",
            "type": "t_uint256"
          },
          {
            "astId": 25108,
            "contract": "src/voting/onboardProposal/OnboardProposal.sol:OnboardProposal",
            "label": "status",
            "offset": 0,
            "slot": "10",
            "type": "t_uint256"
          },
          {
            "astId": 25110,
            "contract": "src/voting/onboardProposal/OnboardProposal.sol:OnboardProposal",
            "label": "result",
            "offset": 0,
            "slot": "11",
            "type": "t_uint256"
          }
        ],
        "numberOfBytes": "384"
      },
      "t_struct(UserVote)25127_storage": {
        "encoding": "inplace",
        "label": "struct OnboardProposal.UserVote",
        "members": [
          {
            "astId": 25122,
            "contract": "src/voting/onboardProposal/OnboardProposal.sol:OnboardProposal",
            "label": "choice",
            "offset": 0,
            "slot": "0",
            "type": "t_uint256"
          },
          {
            "astId": 25124,
            "contract": "src/voting/onboardProposal/OnboardProposal.sol:OnboardProposal",
            "label": "amount",
            "offset": 0,
            "slot": "1",
            "type": "t_uint256"
          },
          {
            "astId": 25126,
            "contract": "src/voting/onboardProposal/OnboardProposal.sol:OnboardProposal",
            "label": "claimed",
            "offset": 0,
            "slot": "2",
            "type": "t_bool"
          }
        ],
        "numberOfBytes": "96"
      },
      "t_uint256": {
        "encoding": "inplace",
        "label": "uint256",
        "numberOfBytes": "32"
      },
      "t_uint8": {
        "encoding": "inplace",
        "label": "uint8",
        "numberOfBytes": "1"
      }
    }
  }
}