{
  "address": "0x7a2088a1bFc9d81c55368AE168C2C02570cB814F",
  "abi": [
    {
      "inputs": [],
      "name": "PayoutPool__NoPayout",
      "type": "error"
    },
    {
      "inputs": [],
      "name": "PayoutPool__NotPolicyCenter",
      "type": "error"
    },
    {
      "inputs": [],
      "name": "PayoutPool__OnlyPriorityPool",
      "type": "error"
    },
    {
      "inputs": [],
      "name": "PayoutPool__WrongCRToken",
      "type": "error"
    },
    {
      "anonymous": false,
      "inputs": [
        {
          "indexed": false,
          "internalType": "uint8",
          "name": "version",
          "type": "uint8"
        }
      ],
      "name": "Initialized",
      "type": "event"
    },
    {
      "anonymous": false,
      "inputs": [
        {
          "indexed": true,
          "internalType": "uint256",
          "name": "_poolId",
          "type": "uint256"
        },
        {
          "indexed": false,
          "internalType": "uint256",
          "name": "_generation",
          "type": "uint256"
        },
        {
          "indexed": false,
          "internalType": "uint256",
          "name": "_amount",
          "type": "uint256"
        },
        {
          "indexed": false,
          "internalType": "uint256",
          "name": "_ratio",
          "type": "uint256"
        }
      ],
      "name": "NewPayout",
      "type": "event"
    },
    {
      "inputs": [],
      "name": "CLAIM_PERIOD",
      "outputs": [
        {
          "internalType": "uint256",
          "name": "",
          "type": "uint256"
        }
      ],
      "stateMutability": "view",
      "type": "function"
    },
    {
      "inputs": [],
      "name": "SCALE",
      "outputs": [
        {
          "internalType": "uint256",
          "name": "",
          "type": "uint256"
        }
      ],
      "stateMutability": "view",
      "type": "function"
    },
    {
      "inputs": [
        {
          "internalType": "address",
          "name": "_user",
          "type": "address"
        },
        {
          "internalType": "address",
          "name": "_crToken",
          "type": "address"
        },
        {
          "internalType": "uint256",
          "name": "_poolId",
          "type": "uint256"
        },
        {
          "internalType": "uint256",
          "name": "_generation",
          "type": "uint256"
        }
      ],
      "name": "claim",
      "outputs": [
        {
          "internalType": "uint256",
          "name": "claimed",
          "type": "uint256"
        },
        {
          "internalType": "uint256",
          "name": "newGenerationCRAmount",
          "type": "uint256"
        }
      ],
      "stateMutability": "nonpayable",
      "type": "function"
    },
    {
      "inputs": [],
      "name": "crFactory",
      "outputs": [
        {
          "internalType": "address",
          "name": "",
          "type": "address"
        }
      ],
      "stateMutability": "view",
      "type": "function"
    },
    {
      "inputs": [
        {
          "internalType": "address",
          "name": "_shield",
          "type": "address"
        },
        {
          "internalType": "address",
          "name": "_policyCenter",
          "type": "address"
        },
        {
          "internalType": "address",
          "name": "_crFactory",
          "type": "address"
        },
        {
          "internalType": "address",
          "name": "_priorityPoolFactory",
          "type": "address"
        }
      ],
      "name": "initialize",
      "outputs": [],
      "stateMutability": "nonpayable",
      "type": "function"
    },
    {
      "inputs": [
        {
          "internalType": "uint256",
          "name": "_poolId",
          "type": "uint256"
        },
        {
          "internalType": "uint256",
          "name": "_generation",
          "type": "uint256"
        },
        {
          "internalType": "uint256",
          "name": "_amount",
          "type": "uint256"
        },
        {
          "internalType": "uint256",
          "name": "_ratio",
          "type": "uint256"
        },
        {
          "internalType": "address",
          "name": "_poolAddress",
          "type": "address"
        }
      ],
      "name": "newPayout",
      "outputs": [],
      "stateMutability": "nonpayable",
      "type": "function"
    },
    {
      "inputs": [
        {
          "internalType": "uint256",
          "name": "",
          "type": "uint256"
        },
        {
          "internalType": "uint256",
          "name": "",
          "type": "uint256"
        }
      ],
      "name": "payouts",
      "outputs": [
        {
          "internalType": "uint256",
          "name": "amount",
          "type": "uint256"
        },
        {
          "internalType": "uint256",
          "name": "remaining",
          "type": "uint256"
        },
        {
          "internalType": "uint256",
          "name": "endTiemstamp",
          "type": "uint256"
        },
        {
          "internalType": "uint256",
          "name": "ratio",
          "type": "uint256"
        },
        {
          "internalType": "address",
          "name": "priorityPool",
          "type": "address"
        }
      ],
      "stateMutability": "view",
      "type": "function"
    },
    {
      "inputs": [],
      "name": "policyCenter",
      "outputs": [
        {
          "internalType": "address",
          "name": "",
          "type": "address"
        }
      ],
      "stateMutability": "view",
      "type": "function"
    },
    {
      "inputs": [],
      "name": "priorityPoolFactory",
      "outputs": [
        {
          "internalType": "address",
          "name": "",
          "type": "address"
        }
      ],
      "stateMutability": "view",
      "type": "function"
    },
    {
      "inputs": [],
      "name": "shield",
      "outputs": [
        {
          "internalType": "address",
          "name": "",
          "type": "address"
        }
      ],
      "stateMutability": "view",
      "type": "function"
    }
  ],
  "transactionHash": "0xfae153897400633dd4793c5d7a88a43c9366a1dbbbf3026ac854d5838cac1be5",
  "args": [],
  "numDeployments": 1,
  "solcInputHash": "47acdbe4a2fbfe8564e34be1f64507a0",
  "bytecode": "0x6080806040523461001657610a0c908161001c8239f35b600080fdfe6080604081815260048036101561001557600080fd5b600092833560e01c90816321241dfe146109185750806326af483214610569578063304de873146105055780636f8a6e43146104dc57806370d39cff146104b0578063c773a2d1146102a6578063e8adbf2f1461027d578063eced55261461025d578063f4ecd091146102305763f8c8765e1461009157600080fd5b3461022c57608036600319011261022c576100aa610935565b6100b261094b565b6001600160a01b0392906044358481169190829003610227576064359185831680930361022757875460ff8160081c16159485809661021a575b8015610203575b156101a9575060ff198116600117895584610198575b5087549462010000600160b01b039060101b16958662010000600160b01b0319871617895560018060a01b03199216826002541617600255816001541617600155600354161760035561015b57505051f35b610100600160b01b0319161782558051600181527f7f26b83ff96e1f2b6a682f133852f6798a09c465da95921460cefb384740249890602090a151f35b61ffff191661010117885538610109565b60849060208a519162461bcd60e51b8352820152602e60248201527f496e697469616c697a61626c653a20636f6e747261637420697320616c72656160448201526d191e481a5b9a5d1a585b1a5e995960921b6064820152fd5b50303b1580156100f35750600160ff8316146100f3565b50600160ff8316106100ec565b600080fd5b8280fd5b50503461025957816003193601126102595760015490516001600160a01b039091168152602090f35b5080fd5b5050346102595781600319360112610259576020905164e8d4a510008152f35b50503461025957816003193601126102595760025490516001600160a01b039091168152602090f35b503461022c5760a036600319011261022c578035906024359060643590604435906084356001600160a01b038181169291839003610227578089602492600354168a51938480926315895f4760e31b82528c888301525afa9182156104a6578a926103b2575b50339116036103a4578588528060205286882085895260205286882083815562278d00194211610391574262278d00016002820155600381018590550180546001600160a01b031916909117905584519283526020830152818401527fd303ba41003252f101801d7b067a3b4ccab80e936da6462f7ead1a40c1eb941d90606090a251f35b634e487b7160e01b895260118252602489fd5b865163f6c16f2960e01b8152fd5b9091503d808b833e6103c48183610961565b810160a0828203126104a257815167ffffffffffffffff9081811161049e57830182601f8201121561049e57805191821161048b578b519060209361041285601f19601f8701160184610961565b83835284848301011161048757918d918d9383905b8382106104685750948261044d94928294610454981161045c575b505050508401610999565b9201610999565b50903861030c565b0101528d813880610442565b9294508580929450818401015182828601015201918e928e9492610427565b8d80fd5b634e487b7160e01b8d526041865260248dfd5b8c80fd5b8a80fd5b89513d8c823e3d90fd5b5050346102595781600319360112610259579054905160109190911c6001600160a01b03168152602090f35b50503461025957816003193601126102595760035490516001600160a01b039091168152602090f35b50903461022c578060031936011261022c578060a093833581528360205281812060243582526020522091825492600181015492600282015491600381015493600180891b0391015416938151958652602086015284015260608301526080820152f35b5082903461025957608036600319011261025957610585610935565b61058d61094b565b600254604435946001600160a01b0394929392606435928616330361090a5786825260209581875288832084845287528089842096169089516370c264df60e11b815288818581865afa9081156109005785916108cf575b508a5195898701918b83528c880152606087015260608652608086019567ffffffffffffffff91818810838911176108bc578a8880928f82905284519020866001541690631620909560e01b8352608486015260249a8b915afa918215610824579184918c87948a93610881575b5050501603610871578a516382b2ed1360e01b81529682168488018190529289888881845afa9788156107e757869861083e575b5064e8d4a5100061069c60038b01548a6109ad565b0498891561082e578501548c51631b20a87760e31b8152908b9082908890829088165afa9081156108245787916107f5575b506106dc612710918b6109ad565b049a813b156107f157869291606484928f519586938492634f752fb360e11b84528b840152898d8401528d60448401525af180156107e757908a949392916107b9575b5050906044859392845460101c16918c51948593849263a9059cbb60e01b8452888401528d8a8401525af180156107af5761077c575b5084841061076c5750505084519384520390820152f35b634e487b7160e01b825260119052fd5b8681813d83116107a8575b6107918183610961565b8101031261022c5751801515036102595788610755565b503d610787565b89513d85823e3d90fd5b9080929596939450116107d5578a52929187919060448c61071f565b634e487b7160e01b8252604185528582fd5b8c513d88823e3d90fd5b8680fd5b90508a81813d831161081d575b61080c8183610961565b810103126107f157516106dc6106ce565b503d610802565b8d513d89823e3d90fd5b8c51636a2f23b760e01b81528690fd5b9097508981813d831161086a575b6108568183610961565b810103126108665751968c610687565b8580fd5b503d61084c565b8a516374da7ab160e01b81528490fd5b925092509250813d83116108b5575b61089a8185610961565b8101031261086657826108ad8592610999565b8e8c81610653565b503d610890565b634e487b7160e01b875260418652602487fd5b90508881813d83116108f9575b6108e68183610961565b810103126108f557518b6105e5565b8480fd5b503d6108dc565b8b513d87823e3d90fd5b87516321d0c2eb60e11b8152fd5b8490346102595781600319360112610259578062278d0060209252f35b600435906001600160a01b038216820361022757565b602435906001600160a01b038216820361022757565b90601f8019910116810190811067ffffffffffffffff82111761098357604052565b634e487b7160e01b600052604160045260246000fd5b51906001600160a01b038216820361022757565b80600019048211811515166109c0570290565b634e487b7160e01b600052601160045260246000fdfea26469706673582212204eb4842200ad70c12f0aed7ee5cd180b24dcef16c6e0ba6b0555dffbd8515c9664736f6c634300080f0033",
  "devdoc": {
    "kind": "dev",
    "methods": {
      "claim(address,address,uint256,uint256)": {
        "params": {
          "_crToken": "Cover right token address",
          "_generation": "Generation of priority pool (started at 1)",
          "_poolId": "Pool Id",
          "_user": "User address"
        },
        "returns": {
          "claimed": "              The actual amount transferred to the user",
          "newGenerationCRAmount": "New generation crToken minted to the user"
        }
      },
      "newPayout(uint256,uint256,uint256,uint256,address)": {
        "params": {
          "_amount": "Total amount to be claimed",
          "_generation": "Generation of priority pool (start at 1)",
          "_poolAddress": "Address of priority pool",
          "_poolId": "Pool Id",
          "_ratio": "Payout ratio of this payout (users can only use part of their crTokens to claim)"
        }
      }
    },
    "version": 1
  },
  "userdoc": {
    "kind": "user",
    "methods": {
      "claim(address,address,uint256,uint256)": {
        "notice": "Claim payout for a user         Only callable from policy center         Need provide certain crToken address and generation"
      },
      "newPayout(uint256,uint256,uint256,uint256,address)": {
        "notice": "New payout comes in         Only callable from one of the priority pools         After the pool's report is passed and executed,         part of the assets will be moved to this pool."
      }
    },
    "notice": "Payout Pool         Every time there is a report passed, some assets will be moved to this pool         It is stored as a Payout struct         - amount       Total amount of this payout         - remaining    Remaining amount         - endTimestamp After this timestamp, no more claims         - ratio        Max ratio of a user's crToken",
    "version": 1
  },
  "storageLayout": {
    "storage": [
      {
        "astId": 52,
        "contract": "src/pools/payoutPool/PayoutPool.sol:PayoutPool",
        "label": "_initialized",
        "offset": 0,
        "slot": "0",
        "type": "t_uint8"
      },
      {
        "astId": 55,
        "contract": "src/pools/payoutPool/PayoutPool.sol:PayoutPool",
        "label": "_initializing",
        "offset": 1,
        "slot": "0",
        "type": "t_bool"
      },
      {
        "astId": 17277,
        "contract": "src/pools/payoutPool/PayoutPool.sol:PayoutPool",
        "label": "shield",
        "offset": 2,
        "slot": "0",
        "type": "t_address"
      },
      {
        "astId": 17279,
        "contract": "src/pools/payoutPool/PayoutPool.sol:PayoutPool",
        "label": "crFactory",
        "offset": 0,
        "slot": "1",
        "type": "t_address"
      },
      {
        "astId": 17281,
        "contract": "src/pools/payoutPool/PayoutPool.sol:PayoutPool",
        "label": "policyCenter",
        "offset": 0,
        "slot": "2",
        "type": "t_address"
      },
      {
        "astId": 17283,
        "contract": "src/pools/payoutPool/PayoutPool.sol:PayoutPool",
        "label": "priorityPoolFactory",
        "offset": 0,
        "slot": "3",
        "type": "t_address"
      },
      {
        "astId": 17301,
        "contract": "src/pools/payoutPool/PayoutPool.sol:PayoutPool",
        "label": "payouts",
        "offset": 0,
        "slot": "4",
        "type": "t_mapping(t_uint256,t_mapping(t_uint256,t_struct(Payout)17294_storage))"
      }
    ],
    "types": {
      "t_address": {
        "encoding": "inplace",
        "label": "address",
        "numberOfBytes": "20"
      },
      "t_bool": {
        "encoding": "inplace",
        "label": "bool",
        "numberOfBytes": "1"
      },
      "t_mapping(t_uint256,t_mapping(t_uint256,t_struct(Payout)17294_storage))": {
        "encoding": "mapping",
        "key": "t_uint256",
        "label": "mapping(uint256 => mapping(uint256 => struct PayoutPool.Payout))",
        "numberOfBytes": "32",
        "value": "t_mapping(t_uint256,t_struct(Payout)17294_storage)"
      },
      "t_mapping(t_uint256,t_struct(Payout)17294_storage)": {
        "encoding": "mapping",
        "key": "t_uint256",
        "label": "mapping(uint256 => struct PayoutPool.Payout)",
        "numberOfBytes": "32",
        "value": "t_struct(Payout)17294_storage"
      },
      "t_struct(Payout)17294_storage": {
        "encoding": "inplace",
        "label": "struct PayoutPool.Payout",
        "members": [
          {
            "astId": 17285,
            "contract": "src/pools/payoutPool/PayoutPool.sol:PayoutPool",
            "label": "amount",
            "offset": 0,
            "slot": "0",
            "type": "t_uint256"
          },
          {
            "astId": 17287,
            "contract": "src/pools/payoutPool/PayoutPool.sol:PayoutPool",
            "label": "remaining",
            "offset": 0,
            "slot": "1",
            "type": "t_uint256"
          },
          {
            "astId": 17289,
            "contract": "src/pools/payoutPool/PayoutPool.sol:PayoutPool",
            "label": "endTiemstamp",
            "offset": 0,
            "slot": "2",
            "type": "t_uint256"
          },
          {
            "astId": 17291,
            "contract": "src/pools/payoutPool/PayoutPool.sol:PayoutPool",
            "label": "ratio",
            "offset": 0,
            "slot": "3",
            "type": "t_uint256"
          },
          {
            "astId": 17293,
            "contract": "src/pools/payoutPool/PayoutPool.sol:PayoutPool",
            "label": "priorityPool",
            "offset": 0,
            "slot": "4",
            "type": "t_address"
          }
        ],
        "numberOfBytes": "160"
      },
      "t_uint256": {
        "encoding": "inplace",
        "label": "uint256",
        "numberOfBytes": "32"
      },
      "t_uint8": {
        "encoding": "inplace",
        "label": "uint8",
        "numberOfBytes": "1"
      }
    }
  }
}