{
  "address": "0x0B306BF915C4d645ff596e518fAf3F9669b97016",
  "abi": [
    {
      "inputs": [],
      "name": "PolicyCenter__AlreadyClaimedPayout",
      "type": "error"
    },
    {
      "inputs": [],
      "name": "PolicyCenter__BadLength",
      "type": "error"
    },
    {
      "inputs": [],
      "name": "PolicyCenter__InsufficientCapacity",
      "type": "error"
    },
    {
      "inputs": [],
      "name": "PolicyCenter__InvalidPremiumSplit",
      "type": "error"
    },
    {
      "inputs": [],
      "name": "PolicyCenter__NoExchange",
      "type": "error"
    },
    {
      "inputs": [],
      "name": "PolicyCenter__NoLiquidity",
      "type": "error"
    },
    {
      "inputs": [],
      "name": "PolicyCenter__NoPayout",
      "type": "error"
    },
    {
      "inputs": [],
      "name": "PolicyCenter__NonExistentPool",
      "type": "error"
    },
    {
      "inputs": [],
      "name": "PolicyCenter__OnlyPriorityPoolFactory",
      "type": "error"
    },
    {
      "inputs": [],
      "name": "PolicyCenter__OnlyTreasury",
      "type": "error"
    },
    {
      "inputs": [],
      "name": "PolicyCenter__PoolPaused",
      "type": "error"
    },
    {
      "inputs": [],
      "name": "PolicyCenter__PremiumTooHigh",
      "type": "error"
    },
    {
      "inputs": [],
      "name": "PolicyCenter__WrongPriorityPoolID",
      "type": "error"
    },
    {
      "inputs": [],
      "name": "PolicyCenter__ZeroAmount",
      "type": "error"
    },
    {
      "inputs": [],
      "name": "PolicyCenter__ZeroPremium",
      "type": "error"
    },
    {
      "anonymous": false,
      "inputs": [
        {
          "indexed": true,
          "internalType": "address",
          "name": "buyer",
          "type": "address"
        },
        {
          "indexed": true,
          "internalType": "uint256",
          "name": "poolId",
          "type": "uint256"
        },
        {
          "indexed": false,
          "internalType": "uint256",
          "name": "coverDuration",
          "type": "uint256"
        },
        {
          "indexed": false,
          "internalType": "uint256",
          "name": "coverAmount",
          "type": "uint256"
        },
        {
          "indexed": false,
          "internalType": "uint256",
          "name": "premiumInShield",
          "type": "uint256"
        }
      ],
      "name": "CoverBought",
      "type": "event"
    },
    {
      "anonymous": false,
      "inputs": [
        {
          "indexed": false,
          "internalType": "uint8",
          "name": "version",
          "type": "uint8"
        }
      ],
      "name": "Initialized",
      "type": "event"
    },
    {
      "anonymous": false,
      "inputs": [
        {
          "indexed": true,
          "internalType": "address",
          "name": "user",
          "type": "address"
        },
        {
          "indexed": false,
          "internalType": "uint256",
          "name": "amount",
          "type": "uint256"
        }
      ],
      "name": "LiquidityProvided",
      "type": "event"
    },
    {
      "anonymous": false,
      "inputs": [
        {
          "indexed": true,
          "internalType": "address",
          "name": "user",
          "type": "address"
        },
        {
          "indexed": false,
          "internalType": "uint256",
          "name": "amount",
          "type": "uint256"
        }
      ],
      "name": "LiquidityRemoved",
      "type": "event"
    },
    {
      "anonymous": false,
      "inputs": [
        {
          "indexed": true,
          "internalType": "address",
          "name": "user",
          "type": "address"
        },
        {
          "indexed": true,
          "internalType": "uint256",
          "name": "poolId",
          "type": "uint256"
        },
        {
          "indexed": false,
          "internalType": "uint256",
          "name": "amount",
          "type": "uint256"
        }
      ],
      "name": "LiquidityStaked",
      "type": "event"
    },
    {
      "anonymous": false,
      "inputs": [
        {
          "indexed": true,
          "internalType": "address",
          "name": "user",
          "type": "address"
        },
        {
          "indexed": true,
          "internalType": "uint256",
          "name": "poolId",
          "type": "uint256"
        },
        {
          "indexed": false,
          "internalType": "uint256",
          "name": "amount",
          "type": "uint256"
        }
      ],
      "name": "LiquidityStakedWithoutFarming",
      "type": "event"
    },
    {
      "anonymous": false,
      "inputs": [
        {
          "indexed": true,
          "internalType": "address",
          "name": "user",
          "type": "address"
        },
        {
          "indexed": true,
          "internalType": "uint256",
          "name": "poolId",
          "type": "uint256"
        },
        {
          "indexed": false,
          "internalType": "address",
          "name": "priorityLP",
          "type": "address"
        },
        {
          "indexed": false,
          "internalType": "uint256",
          "name": "amount",
          "type": "uint256"
        }
      ],
      "name": "LiquidityUnstaked",
      "type": "event"
    },
    {
      "anonymous": false,
      "inputs": [
        {
          "indexed": true,
          "internalType": "address",
          "name": "user",
          "type": "address"
        },
        {
          "indexed": true,
          "internalType": "uint256",
          "name": "poolId",
          "type": "uint256"
        },
        {
          "indexed": false,
          "internalType": "address",
          "name": "priorityLP",
          "type": "address"
        },
        {
          "indexed": false,
          "internalType": "uint256",
          "name": "amount",
          "type": "uint256"
        }
      ],
      "name": "LiquidityUnstakedWithoutFarming",
      "type": "event"
    },
    {
      "anonymous": false,
      "inputs": [
        {
          "indexed": true,
          "internalType": "address",
          "name": "previousOwner",
          "type": "address"
        },
        {
          "indexed": true,
          "internalType": "address",
          "name": "newOwner",
          "type": "address"
        }
      ],
      "name": "OwnershipTransferred",
      "type": "event"
    },
    {
      "anonymous": false,
      "inputs": [
        {
          "indexed": true,
          "internalType": "address",
          "name": "user",
          "type": "address"
        },
        {
          "indexed": false,
          "internalType": "uint256",
          "name": "amount",
          "type": "uint256"
        }
      ],
      "name": "PayoutClaimed",
      "type": "event"
    },
    {
      "anonymous": false,
      "inputs": [
        {
          "indexed": false,
          "internalType": "uint256",
          "name": "toPriority",
          "type": "uint256"
        },
        {
          "indexed": false,
          "internalType": "uint256",
          "name": "toProtection",
          "type": "uint256"
        },
        {
          "indexed": false,
          "internalType": "uint256",
          "name": "toTreasury",
          "type": "uint256"
        }
      ],
      "name": "PremiumSplitted",
      "type": "event"
    },
    {
      "anonymous": false,
      "inputs": [
        {
          "indexed": false,
          "internalType": "address",
          "name": "fromToken",
          "type": "address"
        },
        {
          "indexed": false,
          "internalType": "uint256",
          "name": "amount",
          "type": "uint256"
        },
        {
          "indexed": false,
          "internalType": "uint256",
          "name": "received",
          "type": "uint256"
        }
      ],
      "name": "PremiumSwapped",
      "type": "event"
    },
    {
      "inputs": [
        {
          "internalType": "address",
          "name": "_token",
          "type": "address"
        }
      ],
      "name": "approvePoolToken",
      "outputs": [],
      "stateMutability": "nonpayable",
      "type": "function"
    },
    {
      "inputs": [
        {
          "internalType": "uint256",
          "name": "_poolId",
          "type": "uint256"
        },
        {
          "internalType": "uint256",
          "name": "_coverAmount",
          "type": "uint256"
        },
        {
          "internalType": "uint256",
          "name": "_coverDuration",
          "type": "uint256"
        },
        {
          "internalType": "uint256",
          "name": "_maxPayment",
          "type": "uint256"
        }
      ],
      "name": "buyCover",
      "outputs": [
        {
          "internalType": "address",
          "name": "",
          "type": "address"
        }
      ],
      "stateMutability": "nonpayable",
      "type": "function"
    },
    {
      "inputs": [
        {
          "internalType": "uint256",
          "name": "_poolId",
          "type": "uint256"
        },
        {
          "internalType": "address",
          "name": "_crToken",
          "type": "address"
        },
        {
          "internalType": "uint256",
          "name": "_generation",
          "type": "uint256"
        }
      ],
      "name": "claimPayout",
      "outputs": [],
      "stateMutability": "nonpayable",
      "type": "function"
    },
    {
      "inputs": [],
      "name": "coverRightTokenFactory",
      "outputs": [
        {
          "internalType": "address",
          "name": "",
          "type": "address"
        }
      ],
      "stateMutability": "view",
      "type": "function"
    },
    {
      "inputs": [
        {
          "internalType": "uint256",
          "name": "_poolId",
          "type": "uint256"
        }
      ],
      "name": "currentLPAddress",
      "outputs": [
        {
          "internalType": "address",
          "name": "lpAddress",
          "type": "address"
        }
      ],
      "stateMutability": "view",
      "type": "function"
    },
    {
      "inputs": [],
      "name": "exchange",
      "outputs": [
        {
          "internalType": "address",
          "name": "",
          "type": "address"
        }
      ],
      "stateMutability": "view",
      "type": "function"
    },
    {
      "inputs": [
        {
          "internalType": "address",
          "name": "_deg",
          "type": "address"
        },
        {
          "internalType": "address",
          "name": "_veDeg",
          "type": "address"
        },
        {
          "internalType": "address",
          "name": "_shield",
          "type": "address"
        },
        {
          "internalType": "address",
          "name": "_protectionPool",
          "type": "address"
        },
        {
          "internalType": "address",
          "name": "_usdc",
          "type": "address"
        }
      ],
      "name": "initialize",
      "outputs": [],
      "stateMutability": "nonpayable",
      "type": "function"
    },
    {
      "inputs": [],
      "name": "owner",
      "outputs": [
        {
          "internalType": "address",
          "name": "",
          "type": "address"
        }
      ],
      "stateMutability": "view",
      "type": "function"
    },
    {
      "inputs": [],
      "name": "payoutPool",
      "outputs": [
        {
          "internalType": "address",
          "name": "",
          "type": "address"
        }
      ],
      "stateMutability": "view",
      "type": "function"
    },
    {
      "inputs": [],
      "name": "priceGetter",
      "outputs": [
        {
          "internalType": "address",
          "name": "",
          "type": "address"
        }
      ],
      "stateMutability": "view",
      "type": "function"
    },
    {
      "inputs": [],
      "name": "priorityPoolFactory",
      "outputs": [
        {
          "internalType": "address",
          "name": "",
          "type": "address"
        }
      ],
      "stateMutability": "view",
      "type": "function"
    },
    {
      "inputs": [
        {
          "internalType": "uint256",
          "name": "",
          "type": "uint256"
        }
      ],
      "name": "priorityPools",
      "outputs": [
        {
          "internalType": "address",
          "name": "",
          "type": "address"
        }
      ],
      "stateMutability": "view",
      "type": "function"
    },
    {
      "inputs": [],
      "name": "protectionPool",
      "outputs": [
        {
          "internalType": "address",
          "name": "",
          "type": "address"
        }
      ],
      "stateMutability": "view",
      "type": "function"
    },
    {
      "inputs": [
        {
          "internalType": "uint256",
          "name": "_amount",
          "type": "uint256"
        }
      ],
      "name": "provideLiquidity",
      "outputs": [],
      "stateMutability": "nonpayable",
      "type": "function"
    },
    {
      "inputs": [
        {
          "internalType": "uint256",
          "name": "_amount",
          "type": "uint256"
        }
      ],
      "name": "removeLiquidity",
      "outputs": [],
      "stateMutability": "nonpayable",
      "type": "function"
    },
    {
      "inputs": [],
      "name": "renounceOwnership",
      "outputs": [],
      "stateMutability": "nonpayable",
      "type": "function"
    },
    {
      "inputs": [
        {
          "internalType": "address",
          "name": "_coverRightTokenFactory",
          "type": "address"
        }
      ],
      "name": "setCoverRightTokenFactory",
      "outputs": [],
      "stateMutability": "nonpayable",
      "type": "function"
    },
    {
      "inputs": [
        {
          "internalType": "address",
          "name": "_exchange",
          "type": "address"
        }
      ],
      "name": "setExchange",
      "outputs": [],
      "stateMutability": "nonpayable",
      "type": "function"
    },
    {
      "inputs": [
        {
          "internalType": "address",
          "name": "_payoutPool",
          "type": "address"
        }
      ],
      "name": "setPayoutPool",
      "outputs": [],
      "stateMutability": "nonpayable",
      "type": "function"
    },
    {
      "inputs": [
        {
          "internalType": "address",
          "name": "_priceGetter",
          "type": "address"
        }
      ],
      "name": "setPriceGetter",
      "outputs": [],
      "stateMutability": "nonpayable",
      "type": "function"
    },
    {
      "inputs": [
        {
          "internalType": "address",
          "name": "_priorityPoolFactory",
          "type": "address"
        }
      ],
      "name": "setPriorityPoolFactory",
      "outputs": [],
      "stateMutability": "nonpayable",
      "type": "function"
    },
    {
      "inputs": [
        {
          "internalType": "address",
          "name": "_protectionPool",
          "type": "address"
        }
      ],
      "name": "setProtectionPool",
      "outputs": [],
      "stateMutability": "nonpayable",
      "type": "function"
    },
    {
      "inputs": [
        {
          "internalType": "address",
          "name": "_treasury",
          "type": "address"
        }
      ],
      "name": "setTreasury",
      "outputs": [],
      "stateMutability": "nonpayable",
      "type": "function"
    },
    {
      "inputs": [
        {
          "internalType": "address",
          "name": "_weightedFarmingPool",
          "type": "address"
        }
      ],
      "name": "setWeightedFarmingPool",
      "outputs": [],
      "stateMutability": "nonpayable",
      "type": "function"
    },
    {
      "inputs": [
        {
          "internalType": "uint256",
          "name": "_poolId",
          "type": "uint256"
        },
        {
          "internalType": "uint256",
          "name": "_amount",
          "type": "uint256"
        }
      ],
      "name": "stakeLiquidity",
      "outputs": [],
      "stateMutability": "nonpayable",
      "type": "function"
    },
    {
      "inputs": [
        {
          "internalType": "uint256",
          "name": "_poolId",
          "type": "uint256"
        },
        {
          "internalType": "uint256",
          "name": "_amount",
          "type": "uint256"
        }
      ],
      "name": "stakeLiquidityWithoutFarming",
      "outputs": [],
      "stateMutability": "nonpayable",
      "type": "function"
    },
    {
      "inputs": [
        {
          "internalType": "address",
          "name": "_pool",
          "type": "address"
        },
        {
          "internalType": "address",
          "name": "_token",
          "type": "address"
        },
        {
          "internalType": "uint256",
          "name": "_poolId",
          "type": "uint256"
        }
      ],
      "name": "storePoolInformation",
      "outputs": [],
      "stateMutability": "nonpayable",
      "type": "function"
    },
    {
      "inputs": [
        {
          "internalType": "uint256",
          "name": "",
          "type": "uint256"
        }
      ],
      "name": "tokenByPoolId",
      "outputs": [
        {
          "internalType": "address",
          "name": "",
          "type": "address"
        }
      ],
      "stateMutability": "view",
      "type": "function"
    },
    {
      "inputs": [
        {
          "internalType": "address",
          "name": "newOwner",
          "type": "address"
        }
      ],
      "name": "transferOwnership",
      "outputs": [],
      "stateMutability": "nonpayable",
      "type": "function"
    },
    {
      "inputs": [],
      "name": "treasury",
      "outputs": [
        {
          "internalType": "address",
          "name": "",
          "type": "address"
        }
      ],
      "stateMutability": "view",
      "type": "function"
    },
    {
      "inputs": [
        {
          "internalType": "uint256",
          "name": "_poolId",
          "type": "uint256"
        },
        {
          "internalType": "address",
          "name": "_priorityLP",
          "type": "address"
        },
        {
          "internalType": "uint256",
          "name": "_amount",
          "type": "uint256"
        }
      ],
      "name": "unstakeLiquidity",
      "outputs": [],
      "stateMutability": "nonpayable",
      "type": "function"
    },
    {
      "inputs": [
        {
          "internalType": "uint256",
          "name": "_poolId",
          "type": "uint256"
        },
        {
          "internalType": "address",
          "name": "_priorityLP",
          "type": "address"
        },
        {
          "internalType": "uint256",
          "name": "_amount",
          "type": "uint256"
        }
      ],
      "name": "unstakeLiquidityWithoutFarming",
      "outputs": [],
      "stateMutability": "nonpayable",
      "type": "function"
    },
    {
      "inputs": [],
      "name": "usdc",
      "outputs": [
        {
          "internalType": "address",
          "name": "",
          "type": "address"
        }
      ],
      "stateMutability": "view",
      "type": "function"
    },
    {
      "inputs": [],
      "name": "weightedFarmingPool",
      "outputs": [
        {
          "internalType": "address",
          "name": "",
          "type": "address"
        }
      ],
      "stateMutability": "view",
      "type": "function"
    }
  ],
  "transactionHash": "0x15a3c4cc4559a4cde636128b45cae243cfe92f935382171cfb71e638f18a17fa",
  "args": [],
  "numDeployments": 1,
  "solcInputHash": "47acdbe4a2fbfe8564e34be1f64507a0",
  "bytecode": "0x608080604052346100165761335d908161001c8239f35b600080fdfe6080604052600436101561001257600080fd5b6000803560e01c80630121cff5146124bd578063056d7e581461248a5780631459457a14612246578063298d4dd0146121fd57806339827304146121595780633e413bee146121305780633f81ff26146120e75780634ea4c6b314611e8457806358bf0f2c14611e3b57806361d027b314611e125780636273106a14611de95780636549920d14610f7057806367b1f5df14610f2757806367c0dd8214610d9e57806367e03b5414610d755780636c1b700f14610d4c5780636f8a6e4314610d23578063715018a614610cb45780638da5cb5b14610c895780639c8f9f2314610bc7578063a8bf604d14610b8e578063aa139d5b14610b45578063ab07211e146109b0578063ad35e1dc14610967578063b567dc6a1461093e578063b6cccdd0146108b8578063bef1e500146105a0578063c2260f481461044f578063ceed1b9014610426578063d2f7265a146103fd578063eb521a4c146102ac578063f02bbc5214610279578063f0f44260146102305763f2fde38b1461019357600080fd5b3461022d57602036600319011261022d576101ac612506565b60018060a01b036101c481845460101c163314612608565b8116156101d9576101d4906132c7565b604051f35b60405162461bcd60e51b815260206004820152602660248201527f4f776e61626c653a206e6577206f776e657220697320746865207a65726f206160448201526564647265737360d01b6064820152608490fd5b80fd5b503461022d57602036600319011261022d5761024a612506565b60018060a01b039061026382845460101c163314612608565b1660018060a01b0319603c541617603c55604051f35b503461022d57602036600319011261022d576020906004358152603f8252604060018060a01b0391205416604051908152f35b503461022d57602036600319011261022d5760043580156103eb576035546001600160a01b03908116803b156103e7576040516344abf1a960e01b81526004810184905233602482015290849081908390604490829084905af19182156103da5784926103bf575b50506020908261034593603454169060355416866040518096819582946323b872dd60e01b84523360048501612641565b03925af180156103b457610386575b506040519081527fccb2ae3a2936bf4c94fa4e12cdf0cdad6ed0e4888a044cef89afa60f2e4b92d360203392a2604051f35b6103a69060203d81116103ad575b61039e81836125a0565b8101906125c1565b5038610354565b503d610394565b6040513d85823e3d90fd5b6103ca919250612572565b6103d657818338610314565b8280fd5b50604051903d90823e3d90fd5b8380fd5b604051631613633b60e01b8152600490fd5b503461022d578060031936011261022d57603a546040516001600160a01b039091168152602090f35b503461022d578060031936011261022d576036546040516001600160a01b039091168152602090f35b503461022d5761045e36612548565b828452603e60205260408420546001600160a01b039081161561058e5781156103eb578490848252603e60205280604083205416803b156103d6576040516301733ea560e41b81526001600160a01b0386166004820152602481018590523360448201529083908290606490829084905af19081156103b457839161057a575b505060355416803b1561057657818091604460405180948193630dfa376d60e01b83528160048401528860248401525af1801561056b57610557575b505061054f7fe44f6895444d7e27100c9f3a39dbf225380f26b7b7ad7cf0cebff9f7e00d5ab0916040519182913395836125d9565b0390a3604051f35b61056090612572565b6103e757833861051a565b6040513d84823e3d90fd5b5080fd5b61058390612572565b6105765781386104de565b604051635824d49b60e01b8152600490fd5b503461022d576105af36612548565b90918084526020603e815260018060a01b0390816040872054161561058e57821561058e578594602494868460375416604051978880926315895f4760e31b82528960048301525afa9081156108ad5787968792610885575b50604085608481603b54169583519a8b938492631357a41960e11b845233600485015216978860248401528b60448401528660648401525af19687156108465788908998610851575b506040519081527fec68461f5d4cc45c89e914cb8826a966c73dd35e5f97815ece0a01ffa4a025a6853392a286610689575b87604051f35b83600493604051948580926370c264df60e11b82525afa92831561084657889361080b575b5090816106bc899493612750565b50866106cc620151808504612b3c565b506106db84878599949961285b565b9689881615610754575b5050505050505090501691823b1561074f5760405163020da84160e61b8152600481019290925233602483015260448201529082908290606490829084905af1801561056b5761073b575b808080808080610683565b61074490612572565b61022d578038610730565b505050fd5b889697509061076e61076861077e93613204565b91613204565b61077786613204565b918761275f565b936107a589603854169460405198899788968795636c1020a160e01b875260048701612821565b03925af19182156108005786926107c6575b505080388080868982806106e5565b90809250813d83116107f9575b6107dd81836125a0565b810103126107f5576107ee906125f4565b38806107b7565b8480fd5b503d6107d3565b6040513d88823e3d90fd5b8480929399508194503d831161083f575b61082681836125a0565b8101031261083a57905187969091876106ae565b600080fd5b503d61081c565b6040513d8a823e3d90fd5b905061087691975060403d60401161087e575b61086e81836125a0565b81019061273a565b969038610651565b503d610864565b6108a29192503d8089833e61089a81836125a0565b8101906126b3565b505050509038610608565b6040513d89823e3d90fd5b503461022d57606036600319011261022d576108d2612506565b6108da61251c565b6037546001600160a01b0392908316330361092c576101d4926044358552603f602052604085209060018060a01b03199181851683825416179055603e60205260408620921690825416179055612995565b604051632b29402d60e21b8152600490fd5b503461022d578060031936011261022d576039546040516001600160a01b039091168152602090f35b503461022d57602036600319011261022d57610981612506565b60018060a01b039061099a82845460101c163314612608565b1660018060a01b03196037541617603755604051f35b503461022d576109bf36612548565b828452603e60205260408420546001600160a01b039081161561058e5781156103eb5780859160395416803b156103d6576040516316858d7960e21b8152600481018790526001600160a01b0386166024820152604481018590523360648201529083908290608490829084905af19081156103b4578391610b31575b50859052603e60205280604083205416803b156103d6576040516301733ea560e41b81526001600160a01b0386166004820152602481018590523360448201529083908290606490829084905af19081156103b4578391610b1d575b505060355416803b1561057657818091604460405180948193630dfa376d60e01b83528160048401528860248401525af1801561056b57610b09575b505061054f7f2dbdab27a2d16e827c458789b39587a960ef326f381f784ffa198426f3675197916040519182913395836125d9565b610b1290612572565b6103e7578338610ad4565b610b2690612572565b610576578138610a98565b610b3a90612572565b610576578138610a3c565b503461022d57602036600319011261022d57610b5f612506565b60018060a01b0390610b7882845460101c163314612608565b1660018060a01b03196038541617603855604051f35b503461022d57602036600319011261022d576101d4610bab612506565b610bc260018060a01b03845460101c163314612608565b612995565b503461022d57602080600319360112610576576004359081156103eb57603554604051636d40d7d760e11b8152600481018490523360248201529082908290604490829088906001600160a01b03165af18015610c7e57610c54575b507fc2c3f06e49b9f15e7b4af9055e183b0d73362e033ad82a07dec9bf9840171719906040519283523392a2604051f35b8190813d8311610c77575b610c6981836125a0565b8101031261083a5738610c23565b503d610c5f565b6040513d86823e3d90fd5b503461022d578060031936011261022d575460405160109190911c6001600160a01b03168152602090f35b503461022d578060031936011261022d5780546001600160a01b0390610ce09060101c82163314612608565b6000546000604051928260101c167f8be0079c531659141344cd1fd0a4f28419497f9722a3daafe3b4186f6b6457e08285a362010000600160b01b031916600055f35b503461022d578060031936011261022d576037546040516001600160a01b039091168152602090f35b503461022d578060031936011261022d576035546040516001600160a01b039091168152602090f35b503461022d578060031936011261022d576038546040516001600160a01b039091168152602090f35b503461022d57610dad36612532565b818352603e602090815260408420546001600160a01b039081161561058e5782156103eb57838552603e82526040808620549051630a43eeed60e11b8152600481018590523360248201528692918216848260448187855af18015610c7e5785918791610eec575b610e3e9350846035541690866040518096819582946323b872dd60e01b84523360048501612641565b03925af180156103b457610ecf575b5060355416803b1561057657818091604460405180948193630dfa376d60e01b8352600160048401528960248401525af1801561056b57610ebb575b50507f6ed71e479f5286ad6192bfdc2b224afa6073276d8f9a0e5028400f589fbb39cc906040519283523392a3604051f35b610ec490612572565b6103e7578338610e89565b610ee590843d86116103ad5761039e81836125a0565b5038610e4d565b91905082813d8311610f20575b610f0381836125a0565b810103126103e757858591610f1a610e3e946125f4565b50610e15565b503d610ef9565b503461022d57602036600319011261022d57610f41612506565b60018060a01b0390610f5a82845460101c163314612608565b1660018060a01b0319603a541617603a55604051f35b503461022d57608036600319011261022d576004358152603e60205260408120546001600160a01b03161561058e576004351561058e57604435151580611ddc575b15611dca57600480358252603e602090815260408084205460345460355492516370a0823160e01b81526001600160a01b039384169581019590955290821693929183916024918391165afa9081156103b4578391611d98575b506040516359b6a0c960e01b8152602081600481865afa908115610c7e578491611d64575b50612710611043602092600494612927565b049260405192838092636835185f60e11b82525afa80156103b4578390611d30575b6110729150602435612945565b11611d1e576004358152603e6020526044604060018060a01b038184205416815192838092638905faeb60e01b82526024356004830152823560248301525afa90811561056b5782908392611cfc575b506064358111611cea57620151808042046110dc81612b3c565b92915050600160443510611cd657601960001960443501921015611cb0575b61110761111091612b3c565b93849391612945565b60018110611c9c5761112c600c91600019019282840490612945565b91066001198111611c9c57926111659261116092600161116e9601916111528383613143565b809111611c94575b50612ee8565b61290f565b82420690612945565b904282106107f5576111809104612b3c565b5061119a61116061119383859795613143565b8387612ee8565b906201437019821161192d57610dd4196201437083011161192d57603b196201514483011161192d576037546040516315895f4760e31b81526004803590820152908790829060249082906001600160a01b03165afa9283156108ad5760049388928991611c70575b50604051630b90ca9160e11b81529460209186919082906001600160a01b03165afa938415610846578894611c39575b506201517f0191611247848460043561285b565b966001600160a01b03881615611b8a575b50505050506001600160a01b0383163b156103e75760405163020da84160e61b815260048035908201523360248083019190915235604482015284908181606481836001600160a01b038a165af1801561056b57611b76575b50508115611b6457600480358552603f602090815260408087205460365491516302c68be360e31b81526001600160a01b03918216948101859052949291859160249183918b91165af1928315610800578693611b30575b5060405163313ce56760e01b8152602081600481865afa80156108ad578790611aef575b60ff91501660068110611adb578460001904670de0b6b3a76400001160011661192d57604d600519820160ff1611611adb5761137d906005190160ff16600a0a670de0b6b3a76400008602612927565b908315611ac5576040516323b872dd60e01b60208201526113b7816113a9878604303360248501612641565b03601f1981018352826125a0565b6040516113c381612585565b602081527f5361666545524332303a206c6f772d6c6576656c2063616c6c206661696c65646020820152843b15611a805788808360206114319551910182895af13d15611a78573d9061141582612663565b9161142360405193846125a0565b82523d8b602084013e612951565b80519081611a03575b5050838204600019046111941184830415151661192d57611467612710611194868504020485840461293a565b93604051948560608101106001600160401b036060880111176119ed57606086016040526002865260403660208801378551156119d75784602087015260018060a01b03603d54168651600110156119d7576040870152603a546001600160a01b0316811515600019839004612706111661192d5760011942116119c3579560405180976338ed173960e01b82528b60a48301856004850152612710612706870204602485015260a060448501528451809152602060c48501950190825b81811061199a5750505082908160209530606483015260014201608483015203925af195861561198f57899661195b575b50603454603d548a916001600160a01b039081169116813b156103d6578291608483926040519485938492636f0372af60e01b84526001600485015260248401528d60448401528d60648401525af1801561056b57611943575b505060607f57f3d153693ba34ad2f1603ab743de3caf14b05ffa2fdfae8e9d0947a17c7ca391604051908782526020820152876040820152a18460001904611388118515151661192d5784612710602061119461161661157c6113888e9b02048561293a565b60408051878a048402869004815261157c61138888020460208201529081018290529098907fe59d21244ca3bff81515b705214dab78cc9f978c1939e610874429ffa47380b290606090a1858a8961169360018060a01b03603954166040519889978896879563a9059cbb60e01b875204020490600484016125d9565b03925af180156108ad5761190e575b50602061157c60018060a01b03603454166113888960018060a01b0360355416956116e66040519788968795869463a9059cbb60e01b8652020490600484016125d9565b03925af18015610800576118ef575b50603454603c5460405163a9059cbb60e01b81529160209183916001600160a01b039081169183918b918391611731918d9116600484016125d9565b03925af18015610800576118d0575b506035546001600160a01b0316803b156118b857858091600460405180948193621e432b60e81b83525af19081156108005786916118bc575b50506004358552603e60205260408520546001600160a01b0316803b156118b857611194938660849281956127106040519889978896630aadb77760e01b885260243560048901520402046024850152604435604485015260648401525af19081156103b45783916118a4575b5050603c546001600160a01b0316803b156103d657604483926040519485938492635b97d36760e01b8452600435600485015260248401525af18015610c7e57611890575b60208383604051907f308dab4150a765534b441eef3367b2732d18bfdcd4b5ffe2a7084e1b16990515600435928061187b3394602435604435846040919493926060820195825260208201520152565b0390a36040516001600160a01b039091168152f35b61189a8491612572565b6103d6578261182b565b6118ad90612572565b6105765781386117e6565b8580fd5b6118c590612572565b6107f5578438611779565b6118e89060203d6020116103ad5761039e81836125a0565b5038611740565b6119079060203d6020116103ad5761039e81836125a0565b50386116f5565b6119269060203d6020116103ad5761039e81836125a0565b50386116a2565b634e487b7160e01b600052601160045260246000fd5b61194c90612572565b6119575788386115b0565b8880fd5b9095506020813d602011611987575b81611977602093836125a0565b8101031261083a57519438611556565b3d915061196a565b6040513d8b823e3d90fd5b92509294600191945060208091838060a01b0387511681520194019101908a9394928e92611525565b634e487b7160e01b8a52601160045260248afd5b634e487b7160e01b600052603260045260246000fd5b634e487b7160e01b600052604160045260246000fd5b602080611a149383010191016125c1565b15611a2057388061143a565b60405162461bcd60e51b815260206004820152602a60248201527f5361666545524332303a204552433230206f7065726174696f6e20646964206e6044820152691bdd081cdd58d8d9595960b21b6064820152608490fd5b606090612951565b60405162461bcd60e51b815260206004820152601d60248201527f416464726573733a2063616c6c20746f206e6f6e2d636f6e74726163740000006044820152606490fd5b634e487b7160e01b600052601260045260246000fd5b634e487b7160e01b87526011600452602487fd5b506020813d602011611b28575b81611b09602093836125a0565b81010312611b24575160ff81168103611b245760ff9061132d565b8680fd5b3d9150611afc565b9092506020813d602011611b5c575b81611b4c602093836125a0565b8101031261083a57519138611309565b3d9150611b3f565b60405163720794bf60e01b8152600490fd5b611b7f90612572565b6103e75783386112b1565b60209495975090611ba0610768611bb093613204565b611ba987613204565b918461275f565b8760018060a01b036038541692611be160405197889687958694636c1020a160e01b86526004359060048701612821565b03925af1908115610c7e578491611bff575b50913880808080611258565b90506020813d602011611c31575b81611c1a602093836125a0565b810103126103e757611c2b906125f4565b38611bf3565b3d9150611c0d565b9093506020813d602011611c68575b81611c55602093836125a0565b8101031261083a5751926201517f611233565b3d9150611c48565b60209350611c8891503d808b833e61089a81836125a0565b50505092909290611203565b92503861115a565b634e487b7160e01b88526011600452602488fd5b9060011910611cc257604435906110fb565b634e487b7160e01b85526011600452602485fd5b634e487b7160e01b86526011600452602486fd5b60405163855e507b60e01b8152600490fd5b9050611d17915060403d60401161087e5761086e81836125a0565b90386110c2565b604051637730dc0b60e01b8152600490fd5b506020813d602011611d5c575b81611d4a602093836125a0565b8101031261083a576110729051611065565b3d9150611d3d565b90506020813d602011611d90575b81611d7f602093836125a0565b8101031261083a5751612710611031565b3d9150611d72565b90506020813d602011611dc2575b81611db3602093836125a0565b8101031261083a57513861100c565b3d9150611da6565b6040516307aaabcb60e21b8152600490fd5b5060036044351115610fb2565b503461022d578060031936011261022d57603b546040516001600160a01b039091168152602090f35b503461022d578060031936011261022d57603c546040516001600160a01b039091168152602090f35b503461022d57602036600319011261022d57611e55612506565b60018060a01b0390611e6e82845460101c163314612608565b1660018060a01b03196039541617603955604051f35b503461022d57611e9336612532565b818352603e602090815260408420546001600160a01b03919082161561058e5782156103eb57838552603e81526040808620549051630a43eeed60e11b8152600481018590523060248201529083169082816044818a865af19081156108ad5785849189936120ad575b50611f2792938660355416908a6040518096819582946323b872dd60e01b84523360048501612641565b03925af180156108ad57612090575b50858360355416803b15610576578190604460405180948193630dfa376d60e01b8352600160048401528a60248401525af180156108ad5761207d575b50826039541692833b15611b2457604051635a12fc9360e11b8152600481018790526001600160a01b03831660248201526044810186905233606482015293879081908690608490829084905af19485156103da578695612064575b5091818493611ffa9693603954169160405180988196829563a9059cbb60e01b8452600484016125d9565b0393165af1918215612059577f1e54d7530dad81af38adb8ca9db02add3130668375f37be85396403616fc3d499261203c575b506040519283523392a3604051f35b61205290823d84116103ad5761039e81836125a0565b503861202d565b6040513d87823e3d90fd5b61207091929550612572565b6118b85783928638611fcf565b61208990969196612572565b9438611f73565b6120a690833d85116103ad5761039e81836125a0565b5038611f36565b92505081813d83116120e0575b6120c481836125a0565b81010312611b245782856120da611f27936125f4565b92611efd565b503d6120ba565b503461022d57602036600319011261022d57612101612506565b60018060a01b039061211a82845460101c163314612608565b1660018060a01b0319603b541617603b55604051f35b503461022d578060031936011261022d57603d546040516001600160a01b039091168152602090f35b503461022d576020908160031936011261022d57600480358252603e83526040808320549051634e75827160e01b81526001600160a01b0392909185918391829086165afa9283156121f15780936121b7575b505060405191168152f35b909192508382813d83116121ea575b6121d081836125a0565b8101031261022d57506121e2906125f4565b9038806121ac565b503d6121c6565b604051903d90823e3d90fd5b503461022d57602036600319011261022d57612217612506565b60018060a01b039061223082845460101c163314612608565b1660018060a01b03196036541617603655604051f35b503461022d5760a036600319011261022d57612260612506565b61226861251c565b6001600160a01b0391604435838116908190036107f557606435938085168095036118b85760843590808216809203611b245786549060ff8260081c16159586809761247d575b8015612466575b1561240a5788958285926044958a600160ff198316178b556123f9575b506122ed60ff8a5460081c166122e881612a0c565b612a0c565b6122f6336132c7565b61230660ff8a5460081c16612a0c565b8160018060a01b0319931683603254161760325516816033541617603355858160345416176034558680526020988996603e8852604089208284825416179055603f8852604089209083825416179055816035541617603555603d541617603d5560345416604051948593849263095ea7b360e01b8452600484015260001960248401525af18015610c7e576123dc575b506123a3575b50604051f35b7f7f26b83ff96e1f2b6a682f133852f6798a09c465da95921460cefb38474024989061ff0019835416835560405160018152a13861239d565b6123f290833d85116103ad5761039e81836125a0565b5038612397565b61ffff1916610101178955386122d3565b60405162461bcd60e51b815260206004820152602e60248201527f496e697469616c697a61626c653a20636f6e747261637420697320616c72656160448201526d191e481a5b9a5d1a585b1a5e995960921b6064820152608490fd5b50303b1580156122b65750600160ff8416146122b6565b50600160ff8416106122af565b503461022d57602036600319011261022d576020906004358152603e8252604060018060a01b0391205416604051908152f35b503461022d57602036600319011261022d576124d7612506565b60018060a01b03906124f082845460101c163314612608565b1660018060a01b03196035541617603555604051f35b600435906001600160a01b038216820361083a57565b602435906001600160a01b038216820361083a57565b604090600319011261083a576004359060243590565b606090600319011261083a57600435906024356001600160a01b038116810361083a579060443590565b6001600160401b0381116119ed57604052565b604081019081106001600160401b038211176119ed57604052565b90601f801991011681019081106001600160401b038211176119ed57604052565b9081602091031261083a5751801515810361083a5790565b6001600160a01b039091168152602081019190915260400190565b51906001600160a01b038216820361083a57565b1561260f57565b60405162461bcd60e51b815260206004820152600a60248201526927b7363c9037bbb732b960b11b6044820152606490fd5b6001600160a01b03918216815291166020820152604081019190915260600190565b6001600160401b0381116119ed57601f01601f191660200190565b918091926000905b82821061269e575011612697575050565b6000910152565b91508060209183015181860152018291612686565b9060a08282031261083a5781516001600160401b03811161083a57820181601f8201121561083a5780516126e681612663565b926126f460405194856125a0565b8184526020828401011161083a57612712916020808501910161267e565b9161271f602083016125f4565b9161272c604082016125f4565b916080606083015192015190565b919082604091031261083a576020825192015190565b600019811461192d5760010190565b60279194936127fa936040519687936243522d60e81b602086015261278e81518092602060238901910161267e565b840190602d60f81b918260238201526127b182518093602060248501910161267e565b019060248201526127cc82518093602060258501910161267e565b01612d4760f01b60258201526127eb825180936020878501910161267e565b010360078101855201836125a0565b565b906020916128158151809281855285808601910161267e565b601f01601f1916010190565b9160809361283e612851939897969860a0865260a08601906127fc565b91602085015283820360408501526127fc565b9460608201520152565b916040519160208301938452604083015260608201526060815260808101918183106001600160401b038411176119ed5782602481602093816040528551902060018060a01b036038541690631620909560e01b835260848701525afa908115612903576000916128cd575b50905090565b602090813d81116128fc575b6128e381866125a0565b8101031261022d57506128f5906125f4565b80386128c7565b503d6128d9565b6040513d6000823e3d90fd5b6201518090806000190482118115151661192d570290565b806000190482118115151661192d570290565b81811061192d570390565b8119811161192d570190565b9091901561295d575090565b81511561296d5750805190602001fd5b60405162461bcd60e51b8152602060048201529081906129919060248301906127fc565b0390fd5b603a546001600160a01b03919082169081156129fa5760446020926000604051958694859363095ea7b360e01b8552600485015282196024850152165af18015612903576129e05750565b6129f79060203d81116103ad5761039e81836125a0565b50565b6040516307bb995d60e41b8152600490fd5b15612a1357565b60405162461bcd60e51b815260206004820152602b60248201527f496e697469616c697a61626c653a20636f6e7472616374206973206e6f74206960448201526a6e697469616c697a696e6760a81b6064820152608490fd5b6000811280156001600160ff1b0383900384131661192d57600160ff1b82900383121661192d570190565b6105b560008083136001600160ff1b03849004831116600116612ae75760017fffe9924f8d0dd7b2e6f174df9576f9de01c091c8faeb2605f522de8852b47aa884128285121616612ae757500290565b634e487b7160e01b81526011600452602490fd5b600e600160ff1b01811260011661192d57600d190190565b600082128015600160ff1b840183121661192d576001600160ff1b03830182131661192d570390565b6000916001600160ff1b039162010bd990848112818503811581851316611adb57600160ff1b938385039283821216611c9c5787908401129162010bd819908162253d8c93018313841516612ed457011316611cc2576226496501936001936004918587830484118289131616612ec157808712600760fd1b8812168616612ec15762023ab196878160021b0597878985048211848b131616612e9b57877fffffc694f94337079d130ab45dff8e0f9ea161331bb1c93dea871de6fec83ce28a12848b121616612e9b578802828112818503600313811516612eae5781870360031216612e9b5790846003612c3393010590612b13565b928184128484038813811516612e4f57848603881216612e3c57868401610fa08882860482118584131616612e6257887ffff7ced916872b020c49ba5e353f7ced916872b020c49ba5e353f7ced916872c83128584121616612e6257612cac9162164b099102059482612ca587612a97565b0590612b13565b828112818503601f13811516612e6257818703601f1216612e4f57601f019680888504605011848a131616612e4f57807ffe666666666666666666666666666666666666666666666666666666666666678912848a121616612e4f5761098f9788816050020590828287048b118684131616612e885784821299837ffff29be1739a4fb805dbcd5d6c7d1f7d6fd627208942391f124ee1c3f307026884128c1616612e755790605083612d6193020590612b13565b98600b820597828703600213821516612e755782900360021216612e625781878604600c118589131616612e6257817ff55555555555555555555555555555555555555555555555555555555555555688128589121616612e6257612dcd90600288600c029101612b13565b986031600160ff1b0181128216612e62578190603019018095046064118486131616612e4f577ffeb851eb851eb851eb851eb851eb851eb851eb851eb851eb851eb851eb851eb984128385121616612e3c575050612e379291612e3291606402612a6c565b612a6c565b929190565b634e487b7160e01b825260119052602490fd5b634e487b7160e01b835260118252602483fd5b634e487b7160e01b845260118352602484fd5b634e487b7160e01b865260118552602486fd5b634e487b7160e01b855260118452602485fd5b634e487b7160e01b835260118552602483fd5b634e487b7160e01b845260118652602484fd5b634e487b7160e01b815260118352602490fd5b634e487b7160e01b89526011600452602489fd5b9291926107b2811061083a57600191617d4b600160ff1b018512831661192d576000918281128015926001600160ff1b03929182840391906112c08381138716611c9c57600160ff1b859003908181128316612ed457612f6598999a9b612f7691612f6a60049b8c92600c612f5c8a612afb565b05908b01612a6c565b612a97565b0590617d4a1901612a6c565b6002600160ff1b0184128b1661313057600c612f9185612afb565b058b7f0aaaaaaaaaaaaaaaaaaaaaaaaaaaaaaaaaaaaaaaaaaaaaaaaaaaaaaaaaaaaaaa82118c8313161661311d578b7ff55555555555555555555555555555555555555555555555555555555555555682128c8312161661311d57612ffd90600c026001198601612b13565b61016f8c828a0482118d8413161661310a578c7fffa6b6c1eb12d573186a06f9b8d9a287530217b7747d8eff4d6d83d625aae63183128d8412161661310a5761304c9291600c91020590612a6c565b96611324948513166130f7578312166130e4578792606492600c61307261307a94612afb565b059101612a6c565b058092046003118583131616612e6257847fd55555555555555555555555555555555555555555555555555555555555555682128583121616612e625790826130c7926003020590612b13565b9262253d8c600160ff1b01841216612e3c57505062253d8b190190565b634e487b7160e01b875260118652602487fd5b634e487b7160e01b895260118852602489fd5b634e487b7160e01b8c5260118b5260248cfd5b634e487b7160e01b8b5260118a5260248bfd5b634e487b7160e01b8a526011895260248afd5b906001811480156131fa575b80156131f0575b80156131e6575b80156131dc575b80156131d2575b80156131c8575b1561317e575050601f90565b60021461318b5750601e90565b600381161590816131bb575b81156131ae575b50156131a957601d90565b601c90565b610190915006153861319e565b6064810615159150613197565b50600c8114613172565b50600a811461316b565b5060088114613164565b506007811461315d565b5060058114613156565b506003811461314f565b80156132a957600081805b613295575061321d81612663565b9061322b60405192836125a0565b808252601f1961323a82612663565b013660208401375b80831561328e576001811061192d576000190192600a9182820660308119811161192d5785518710156119d7570160f81b6001600160f81b03191660001a908401601f01530491613242565b5050905090565b906132a1600a91612750565b91048061320f565b506040516132b681612585565b60018152600360fc1b602082015290565b6000549060018060a01b03808216908360101c167f8be0079c531659141344cd1fd0a4f28419497f9722a3daafe3b4186f6b6457e06000604051a362010000600160b01b031990911660109190911b62010000600160b01b03161760005556fea26469706673582212202b8bf3cb06dd02d1368bf2a22a1f14c4b96c7a19680989651e18099d1eb9fb7064736f6c634300080f0033",
  "devdoc": {
    "author": "Eric Lee (ylikp.ust@gmail.com) & Primata (primata@375labs.org)",
    "kind": "dev",
    "methods": {
      "approvePoolToken(address)": {
        "params": {
          "_token": "Address of the approved token"
        }
      },
      "buyCover(uint256,uint256,uint256,uint256)": {
        "params": {
          "_coverAmount": "Amount to cover",
          "_coverDuration": "Cover duration in month (1 ~ 3)",
          "_maxPayment": "Maximum payment user can accept",
          "_poolId": "Pool id"
        },
        "returns": {
          "_0": "crToken CR token address"
        }
      },
      "claimPayout(uint256,address,uint256)": {
        "params": {
          "_crToken": "Cover right token address",
          "_generation": "Generation of the priority pool",
          "_poolId": "Pool id"
        }
      },
      "currentLPAddress(uint256)": {
        "params": {
          "_poolId": "Priority Pool ID"
        },
        "returns": {
          "lpAddress": "Current LP token address"
        }
      },
      "owner()": {
        "details": "Returns the address of the current owner."
      },
      "provideLiquidity(uint256)": {
        "params": {
          "_amount": "Amount of liquidity(shield) to provide"
        }
      },
      "removeLiquidity(uint256)": {
        "params": {
          "_amount": "Amount of liquidity to provide"
        }
      },
      "renounceOwnership()": {
        "details": "Leaves the contract without owner. It will not be possible to call `onlyOwner` functions anymore. Can only be called by the current owner. NOTE: Renouncing ownership will leave the contract without an owner, thereby removing any functionality that is only available to the owner."
      },
      "stakeLiquidity(uint256,uint256)": {
        "params": {
          "_amount": "Amount of PRO-LP tokens to stake",
          "_poolId": "Pool id"
        }
      },
      "stakeLiquidityWithoutFarming(uint256,uint256)": {
        "params": {
          "_amount": "Amount of PRO-LP amount",
          "_poolId": "Pool id"
        }
      },
      "storePoolInformation(address,address,uint256)": {
        "params": {
          "_pool": "Address of the priority pool",
          "_poolId": "Pool id",
          "_token": "Address of the priority pool's native token"
        }
      },
      "transferOwnership(address)": {
        "details": "Transfers ownership of the contract to a new account (`newOwner`). Can only be called by the current owner."
      },
      "unstakeLiquidity(uint256,address,uint256)": {
        "params": {
          "_amount": "Amount of LP(priority lp) tokens to withdraw",
          "_poolId": "Pool id",
          "_priorityLP": "Priority lp token address to withdraw"
        }
      },
      "unstakeLiquidityWithoutFarming(uint256,address,uint256)": {
        "params": {
          "_amount": "PRI-LP token amount to remove",
          "_poolId": "Pool id",
          "_priorityLP": "PRI-LP token address"
        }
      }
    },
    "title": "Policy Center",
    "version": 1
  },
  "userdoc": {
    "kind": "user",
    "methods": {
      "approvePoolToken(address)": {
        "notice": "Approve the exchange to swap tokens"
      },
      "buyCover(uint256,uint256,uint256,uint256)": {
        "notice": "Buy new cover for a given pool         Select a pool with parameter \"poolId\"         Cover amount is in shield and duration is in month         The premium ratio may be dynamic so \"maxPayment\" is similar to \"slippage\""
      },
      "claimPayout(uint256,address,uint256)": {
        "notice": "Claim payout         Need to use a specific crToken address as parameter"
      },
      "currentLPAddress(uint256)": {
        "notice": "Returns the current LP address for a Pool ID"
      },
      "provideLiquidity(uint256)": {
        "notice": "Provide liquidity to Protection Pool"
      },
      "removeLiquidity(uint256)": {
        "notice": "Remove liquidity from protection pool"
      },
      "stakeLiquidity(uint256,uint256)": {
        "notice": "Stake Protection Pool LP (PRO-LP) into priority pools         And automatically stake the PRI-LP tokens into weighted farming pool         With this function, no need for approval of PRI-LP tokens         If you want to hold the PRI-LP tokens for other usage         Call \"stakeLiquidityWithoutFarming\""
      },
      "stakeLiquidityWithoutFarming(uint256,uint256)": {
        "notice": "Stake liquidity to priority pool without depositing into farming"
      },
      "storePoolInformation(address,address,uint256)": {
        "notice": "Store new pool information"
      },
      "unstakeLiquidity(uint256,address,uint256)": {
        "notice": "Unstake Protection Pool LP from priority pools         There may be different generations of priority lp tokens         This function will first remove the PRI-LP token from farming pool         Ensure that your PRI-LP tokens are inside the farming pool         If the PRI-LP tokens are in your own wallet, use \"unstakeLiquidityWithoutFarming\""
      },
      "unstakeLiquidityWithoutFarming(uint256,address,uint256)": {
        "notice": "Unstake liquidity without removing PRI-LP from farming"
      }
    },
    "notice": "This is the policy center for degis Protocol Protection         Users can buy policies and get payoff here         Sellers can provide liquidity and choose the pools to cover",
    "version": 1
  },
  "storageLayout": {
    "storage": [
      {
        "astId": 52,
        "contract": "src/core/PolicyCenter.sol:PolicyCenter",
        "label": "_initialized",
        "offset": 0,
        "slot": "0",
        "type": "t_uint8"
      },
      {
        "astId": 55,
        "contract": "src/core/PolicyCenter.sol:PolicyCenter",
        "label": "_initializing",
        "offset": 1,
        "slot": "0",
        "type": "t_bool"
      },
      {
        "astId": 22927,
        "contract": "src/core/PolicyCenter.sol:PolicyCenter",
        "label": "_owner",
        "offset": 2,
        "slot": "0",
        "type": "t_address"
      },
      {
        "astId": 23034,
        "contract": "src/core/PolicyCenter.sol:PolicyCenter",
        "label": "__gap",
        "offset": 0,
        "slot": "1",
        "type": "t_array(t_uint256)49_storage"
      },
      {
        "astId": 13963,
        "contract": "src/core/PolicyCenter.sol:PolicyCenter",
        "label": "deg",
        "offset": 0,
        "slot": "50",
        "type": "t_contract(IDegisToken)14090"
      },
      {
        "astId": 13966,
        "contract": "src/core/PolicyCenter.sol:PolicyCenter",
        "label": "veDeg",
        "offset": 0,
        "slot": "51",
        "type": "t_contract(IVeDEG)15232"
      },
      {
        "astId": 13969,
        "contract": "src/core/PolicyCenter.sol:PolicyCenter",
        "label": "shield",
        "offset": 0,
        "slot": "52",
        "type": "t_contract(IShield)15187"
      },
      {
        "astId": 13117,
        "contract": "src/core/PolicyCenter.sol:PolicyCenter",
        "label": "protectionPool",
        "offset": 0,
        "slot": "53",
        "type": "t_address"
      },
      {
        "astId": 13119,
        "contract": "src/core/PolicyCenter.sol:PolicyCenter",
        "label": "priceGetter",
        "offset": 0,
        "slot": "54",
        "type": "t_address"
      },
      {
        "astId": 13121,
        "contract": "src/core/PolicyCenter.sol:PolicyCenter",
        "label": "priorityPoolFactory",
        "offset": 0,
        "slot": "55",
        "type": "t_address"
      },
      {
        "astId": 13123,
        "contract": "src/core/PolicyCenter.sol:PolicyCenter",
        "label": "coverRightTokenFactory",
        "offset": 0,
        "slot": "56",
        "type": "t_address"
      },
      {
        "astId": 13125,
        "contract": "src/core/PolicyCenter.sol:PolicyCenter",
        "label": "weightedFarmingPool",
        "offset": 0,
        "slot": "57",
        "type": "t_address"
      },
      {
        "astId": 13127,
        "contract": "src/core/PolicyCenter.sol:PolicyCenter",
        "label": "exchange",
        "offset": 0,
        "slot": "58",
        "type": "t_address"
      },
      {
        "astId": 13129,
        "contract": "src/core/PolicyCenter.sol:PolicyCenter",
        "label": "payoutPool",
        "offset": 0,
        "slot": "59",
        "type": "t_address"
      },
      {
        "astId": 13131,
        "contract": "src/core/PolicyCenter.sol:PolicyCenter",
        "label": "treasury",
        "offset": 0,
        "slot": "60",
        "type": "t_address"
      },
      {
        "astId": 11714,
        "contract": "src/core/PolicyCenter.sol:PolicyCenter",
        "label": "usdc",
        "offset": 0,
        "slot": "61",
        "type": "t_address"
      },
      {
        "astId": 11718,
        "contract": "src/core/PolicyCenter.sol:PolicyCenter",
        "label": "priorityPools",
        "offset": 0,
        "slot": "62",
        "type": "t_mapping(t_uint256,t_address)"
      },
      {
        "astId": 11722,
        "contract": "src/core/PolicyCenter.sol:PolicyCenter",
        "label": "tokenByPoolId",
        "offset": 0,
        "slot": "63",
        "type": "t_mapping(t_uint256,t_address)"
      }
    ],
    "types": {
      "t_address": {
        "encoding": "inplace",
        "label": "address",
        "numberOfBytes": "20"
      },
      "t_array(t_uint256)49_storage": {
        "base": "t_uint256",
        "encoding": "inplace",
        "label": "uint256[49]",
        "numberOfBytes": "1568"
      },
      "t_bool": {
        "encoding": "inplace",
        "label": "bool",
        "numberOfBytes": "1"
      },
      "t_contract(IDegisToken)14090": {
        "encoding": "inplace",
        "label": "contract IDegisToken",
        "numberOfBytes": "20"
      },
      "t_contract(IShield)15187": {
        "encoding": "inplace",
        "label": "contract IShield",
        "numberOfBytes": "20"
      },
      "t_contract(IVeDEG)15232": {
        "encoding": "inplace",
        "label": "contract IVeDEG",
        "numberOfBytes": "20"
      },
      "t_mapping(t_uint256,t_address)": {
        "encoding": "mapping",
        "key": "t_uint256",
        "label": "mapping(uint256 => address)",
        "numberOfBytes": "32",
        "value": "t_address"
      },
      "t_uint256": {
        "encoding": "inplace",
        "label": "uint256",
        "numberOfBytes": "32"
      },
      "t_uint8": {
        "encoding": "inplace",
        "label": "uint8",
        "numberOfBytes": "1"
      }
    }
  }
}