{
  "address": "0x8A791620dd6260079BF849Dc5567aDC3F2FdC318",
  "abi": [
    {
      "inputs": [],
      "name": "PriorityPoolFactory__AlreadyDynamicPool",
      "type": "error"
    },
    {
      "inputs": [],
      "name": "PriorityPoolFactory__NotOwnerOrFactory",
      "type": "error"
    },
    {
      "inputs": [],
      "name": "PriorityPoolFactory__OnlyExecutor",
      "type": "error"
    },
    {
      "inputs": [],
      "name": "PriorityPoolFactory__OnlyIncidentReportOrExecutor",
      "type": "error"
    },
    {
      "inputs": [],
      "name": "PriorityPoolFactory__OnlyOwnerOrExecutor",
      "type": "error"
    },
    {
      "inputs": [],
      "name": "PriorityPoolFactory__OnlyPolicyCenter",
      "type": "error"
    },
    {
      "inputs": [],
      "name": "PriorityPoolFactory__OnlyPriorityPool",
      "type": "error"
    },
    {
      "inputs": [],
      "name": "PriorityPoolFactory__PoolNotRegistered",
      "type": "error"
    },
    {
      "inputs": [],
      "name": "PriorityPoolFactory__TokenAlreadyRegistered",
      "type": "error"
    },
    {
      "inputs": [],
      "name": "PriorityPoolFactory__WrongLPToken",
      "type": "error"
    },
    {
      "anonymous": false,
      "inputs": [
        {
          "indexed": false,
          "internalType": "uint256",
          "name": "poolId",
          "type": "uint256"
        },
        {
          "indexed": false,
          "internalType": "address",
          "name": "pool",
          "type": "address"
        },
        {
          "indexed": false,
          "internalType": "uint256",
          "name": "dynamicPoolCounter",
          "type": "uint256"
        }
      ],
      "name": "DynamicPoolUpdate",
      "type": "event"
    },
    {
      "anonymous": false,
      "inputs": [
        {
          "indexed": false,
          "internalType": "uint8",
          "name": "version",
          "type": "uint8"
        }
      ],
      "name": "Initialized",
      "type": "event"
    },
    {
      "anonymous": false,
      "inputs": [
        {
          "indexed": false,
          "internalType": "uint256",
          "name": "totalMaxCapacity",
          "type": "uint256"
        }
      ],
      "name": "MaxCapacityUpdated",
      "type": "event"
    },
    {
      "anonymous": false,
      "inputs": [
        {
          "indexed": true,
          "internalType": "address",
          "name": "previousOwner",
          "type": "address"
        },
        {
          "indexed": true,
          "internalType": "address",
          "name": "newOwner",
          "type": "address"
        }
      ],
      "name": "OwnershipTransferred",
      "type": "event"
    },
    {
      "anonymous": false,
      "inputs": [
        {
          "indexed": false,
          "internalType": "uint256",
          "name": "poolId",
          "type": "uint256"
        },
        {
          "indexed": false,
          "internalType": "address",
          "name": "poolAddress",
          "type": "address"
        },
        {
          "indexed": false,
          "internalType": "string",
          "name": "protocolName",
          "type": "string"
        },
        {
          "indexed": false,
          "internalType": "address",
          "name": "protocolToken",
          "type": "address"
        },
        {
          "indexed": false,
          "internalType": "uint256",
          "name": "maxCapacity",
          "type": "uint256"
        },
        {
          "indexed": false,
          "internalType": "uint256",
          "name": "basePremiumRatio",
          "type": "uint256"
        }
      ],
      "name": "PoolCreated",
      "type": "event"
    },
    {
      "inputs": [
        {
          "internalType": "string",
          "name": "_name",
          "type": "string"
        },
        {
          "internalType": "address",
          "name": "_protocolToken",
          "type": "address"
        },
        {
          "internalType": "uint256",
          "name": "_maxCapacity",
          "type": "uint256"
        },
        {
          "internalType": "uint256",
          "name": "_basePremiumRatio",
          "type": "uint256"
        }
      ],
      "name": "deployPool",
      "outputs": [
        {
          "internalType": "address",
          "name": "",
          "type": "address"
        }
      ],
      "stateMutability": "nonpayable",
      "type": "function"
    },
    {
      "inputs": [
        {
          "internalType": "address",
          "name": "",
          "type": "address"
        }
      ],
      "name": "dynamic",
      "outputs": [
        {
          "internalType": "bool",
          "name": "",
          "type": "bool"
        }
      ],
      "stateMutability": "view",
      "type": "function"
    },
    {
      "inputs": [],
      "name": "dynamicPoolCounter",
      "outputs": [
        {
          "internalType": "uint256",
          "name": "",
          "type": "uint256"
        }
      ],
      "stateMutability": "view",
      "type": "function"
    },
    {
      "inputs": [],
      "name": "executor",
      "outputs": [
        {
          "internalType": "address",
          "name": "",
          "type": "address"
        }
      ],
      "stateMutability": "view",
      "type": "function"
    },
    {
      "inputs": [],
      "name": "getPoolAddressList",
      "outputs": [
        {
          "internalType": "address[]",
          "name": "",
          "type": "address[]"
        }
      ],
      "stateMutability": "view",
      "type": "function"
    },
    {
      "inputs": [
        {
          "internalType": "uint256",
          "name": "_poolId",
          "type": "uint256"
        }
      ],
      "name": "getPoolInfo",
      "outputs": [
        {
          "components": [
            {
              "internalType": "string",
              "name": "protocolName",
              "type": "string"
            },
            {
              "internalType": "address",
              "name": "poolAddress",
              "type": "address"
            },
            {
              "internalType": "address",
              "name": "protocolToken",
              "type": "address"
            },
            {
              "internalType": "uint256",
              "name": "maxCapacity",
              "type": "uint256"
            },
            {
              "internalType": "uint256",
              "name": "basePremiumRatio",
              "type": "uint256"
            }
          ],
          "internalType": "struct PriorityPoolFactory.PoolInfo",
          "name": "",
          "type": "tuple"
        }
      ],
      "stateMutability": "view",
      "type": "function"
    },
    {
      "inputs": [],
      "name": "incidentReport",
      "outputs": [
        {
          "internalType": "address",
          "name": "",
          "type": "address"
        }
      ],
      "stateMutability": "view",
      "type": "function"
    },
    {
      "inputs": [
        {
          "internalType": "address",
          "name": "_deg",
          "type": "address"
        },
        {
          "internalType": "address",
          "name": "_veDeg",
          "type": "address"
        },
        {
          "internalType": "address",
          "name": "_shield",
          "type": "address"
        },
        {
          "internalType": "address",
          "name": "_protectionPool",
          "type": "address"
        }
      ],
      "name": "initialize",
      "outputs": [],
      "stateMutability": "nonpayable",
      "type": "function"
    },
    {
      "inputs": [],
      "name": "owner",
      "outputs": [
        {
          "internalType": "address",
          "name": "",
          "type": "address"
        }
      ],
      "stateMutability": "view",
      "type": "function"
    },
    {
      "inputs": [
        {
          "internalType": "uint256",
          "name": "_poolId",
          "type": "uint256"
        },
        {
          "internalType": "bool",
          "name": "_paused",
          "type": "bool"
        }
      ],
      "name": "pausePriorityPool",
      "outputs": [],
      "stateMutability": "nonpayable",
      "type": "function"
    },
    {
      "inputs": [],
      "name": "policyCenter",
      "outputs": [
        {
          "internalType": "address",
          "name": "",
          "type": "address"
        }
      ],
      "stateMutability": "view",
      "type": "function"
    },
    {
      "inputs": [
        {
          "internalType": "address",
          "name": "",
          "type": "address"
        }
      ],
      "name": "poolAddressToId",
      "outputs": [
        {
          "internalType": "uint256",
          "name": "",
          "type": "uint256"
        }
      ],
      "stateMutability": "view",
      "type": "function"
    },
    {
      "inputs": [],
      "name": "poolCounter",
      "outputs": [
        {
          "internalType": "uint256",
          "name": "",
          "type": "uint256"
        }
      ],
      "stateMutability": "view",
      "type": "function"
    },
    {
      "inputs": [
        {
          "internalType": "address",
          "name": "",
          "type": "address"
        }
      ],
      "name": "poolRegistered",
      "outputs": [
        {
          "internalType": "bool",
          "name": "",
          "type": "bool"
        }
      ],
      "stateMutability": "view",
      "type": "function"
    },
    {
      "inputs": [
        {
          "internalType": "uint256",
          "name": "",
          "type": "uint256"
        }
      ],
      "name": "pools",
      "outputs": [
        {
          "internalType": "string",
          "name": "protocolName",
          "type": "string"
        },
        {
          "internalType": "address",
          "name": "poolAddress",
          "type": "address"
        },
        {
          "internalType": "address",
          "name": "protocolToken",
          "type": "address"
        },
        {
          "internalType": "uint256",
          "name": "maxCapacity",
          "type": "uint256"
        },
        {
          "internalType": "uint256",
          "name": "basePremiumRatio",
          "type": "uint256"
        }
      ],
      "stateMutability": "view",
      "type": "function"
    },
    {
      "inputs": [],
      "name": "priorityPoolDeployer",
      "outputs": [
        {
          "internalType": "address",
          "name": "",
          "type": "address"
        }
      ],
      "stateMutability": "view",
      "type": "function"
    },
    {
      "inputs": [],
      "name": "protectionPool",
      "outputs": [
        {
          "internalType": "address",
          "name": "",
          "type": "address"
        }
      ],
      "stateMutability": "view",
      "type": "function"
    },
    {
      "inputs": [],
      "name": "renounceOwnership",
      "outputs": [],
      "stateMutability": "nonpayable",
      "type": "function"
    },
    {
      "inputs": [
        {
          "internalType": "address",
          "name": "_executor",
          "type": "address"
        }
      ],
      "name": "setExecutor",
      "outputs": [],
      "stateMutability": "nonpayable",
      "type": "function"
    },
    {
      "inputs": [
        {
          "internalType": "address",
          "name": "_incidentReport",
          "type": "address"
        }
      ],
      "name": "setIncidentReport",
      "outputs": [],
      "stateMutability": "nonpayable",
      "type": "function"
    },
    {
      "inputs": [
        {
          "internalType": "address",
          "name": "_policyCenter",
          "type": "address"
        }
      ],
      "name": "setPolicyCenter",
      "outputs": [],
      "stateMutability": "nonpayable",
      "type": "function"
    },
    {
      "inputs": [
        {
          "internalType": "address",
          "name": "_priorityPoolDeployer",
          "type": "address"
        }
      ],
      "name": "setPriorityPoolDeployer",
      "outputs": [],
      "stateMutability": "nonpayable",
      "type": "function"
    },
    {
      "inputs": [
        {
          "internalType": "address",
          "name": "_protectionPool",
          "type": "address"
        }
      ],
      "name": "setProtectionPool",
      "outputs": [],
      "stateMutability": "nonpayable",
      "type": "function"
    },
    {
      "inputs": [
        {
          "internalType": "address",
          "name": "_weightedFarmingPool",
          "type": "address"
        }
      ],
      "name": "setWeightedFarmingPool",
      "outputs": [],
      "stateMutability": "nonpayable",
      "type": "function"
    },
    {
      "inputs": [
        {
          "internalType": "address",
          "name": "",
          "type": "address"
        }
      ],
      "name": "tokenRegistered",
      "outputs": [
        {
          "internalType": "bool",
          "name": "",
          "type": "bool"
        }
      ],
      "stateMutability": "view",
      "type": "function"
    },
    {
      "inputs": [],
      "name": "totalMaxCapacity",
      "outputs": [
        {
          "internalType": "uint256",
          "name": "",
          "type": "uint256"
        }
      ],
      "stateMutability": "view",
      "type": "function"
    },
    {
      "inputs": [
        {
          "internalType": "address",
          "name": "newOwner",
          "type": "address"
        }
      ],
      "name": "transferOwnership",
      "outputs": [],
      "stateMutability": "nonpayable",
      "type": "function"
    },
    {
      "inputs": [
        {
          "internalType": "uint256",
          "name": "_poolId",
          "type": "uint256"
        }
      ],
      "name": "updateDynamicPool",
      "outputs": [],
      "stateMutability": "nonpayable",
      "type": "function"
    },
    {
      "inputs": [
        {
          "internalType": "bool",
          "name": "_isUp",
          "type": "bool"
        },
        {
          "internalType": "uint256",
          "name": "_diff",
          "type": "uint256"
        }
      ],
      "name": "updateMaxCapaity",
      "outputs": [],
      "stateMutability": "nonpayable",
      "type": "function"
    },
    {
      "inputs": [],
      "name": "weightedFarmingPool",
      "outputs": [
        {
          "internalType": "address",
          "name": "",
          "type": "address"
        }
      ],
      "stateMutability": "view",
      "type": "function"
    }
  ],
  "transactionHash": "0x8c875761192f93b6898fd83ad184b777ac04f5b6bdeddf7b1fafa59739677f48",
  "args": [],
  "numDeployments": 1,
  "solcInputHash": "9adb185ce183f0c34c6de7634914d5fd",
  "bytecode": "0x608080604052346100165761181c908161001c8239f35b600080fdfe6080604052600436101561001257600080fd5b6000803560e01c80630121cff51461149e5780630f89b77d1461147557806310b44dfa1461144c5780631b352789146113315780631c3c0ea8146112e85780632a50489a146112245780632dd57bb0146111db5780632f380b351461110657806341249745146110c757806345f0db7d1461107e57806358bf0f2c146110355780636bdbd19514610f2e5780636c1b700f14610f05578063715018a614610e96578063746376ee14610e575780638da5cb5b14610e2c5780639e3079cb14610e0e578063a2e1ce6214610dcf578063a7e9f1c714610db1578063ac4afa3814610d35578063b567dc6a14610d0c578063bb9febaf1461078f578063c34c08e514610766578063d98a254c146106af578063e3356ccf14610666578063e8adbf2f1461063d578063ef37229814610604578063f2fde38b14610569578063f6cb90ab1461054b5763f8c8765e1461016757600080fd5b34610548576080366003190112610548576101806114e7565b6101886114fd565b6044356001600160a01b03811690819003610543576064356001600160a01b03811692908390036105435784549060ff8260081c161594858096610536575b801561051f575b156104c3576102449160ff1993876001868316178a556104b2575b5060ff885460081c16916101fc83611693565b603280546001600160a01b03199081166001600160a01b039384161790915560338054821693909216929092179055603480549091168517905561023f81611693565b611693565b61024d33611786565b8260018060a01b0319603754161760375582855260416020526040852060018282541617905581855260426020526001604086209182541617905560405190610295826115b1565b604080516001600160401b03949181018581118282101761049c57604052600e81526d141c9bdd1958dd1a5bdb941bdbdb60921b6020820152835260208301526040820152836060820152836080820152838052603b602052604084209181518051918211610488576103088454611564565b601f8111610447575b50602090601f83116001146103db5791806004949260809489926103d0575b50508160011b916000199060031b1c19161784555b60208101516001850180546001600160a01b039283166001600160a01b031991821617909155604083015160028701805491909316911617905560608101516003850155015191015561039757604051f35b61ff001981541681557f7f26b83ff96e1f2b6a682f133852f6798a09c465da95921460cefb3847402498602060405160018152a1604051f35b015190503880610330565b908487526020872091875b601f198516811061042f5750926004949260019260809583601f19811610610416575b505050811b018455610345565b015160001960f88460031b161c19169055388080610409565b919260206001819286850151815501940192016103e6565b84875260208720601f840160051c810160208510610481575b601f830160051c82018110610476575050610311565b888155600101610460565b5080610460565b634e487b7160e01b86526041600452602486fd5b634e487b7160e01b600052604160045260246000fd5b61ffff1916610101178855386101e9565b60405162461bcd60e51b815260206004820152602e60248201527f496e697469616c697a61626c653a20636f6e747261637420697320616c72656160448201526d191e481a5b9a5d1a585b1a5e995960921b6064820152608490fd5b50303b1580156101ce5750600160ff8416146101ce565b50600160ff8416106101c7565b600080fd5b80fd5b50346105485780600319360112610548576020603e54604051908152f35b5034610548576020366003190112610548576105836114e7565b60018060a01b0361059b81845460101c16331461172c565b8116156105b0576105ab90611786565b604051f35b60405162461bcd60e51b815260206004820152602660248201527f4f776e61626c653a206e6577206f776e657220697320746865207a65726f206160448201526564647265737360d01b6064820152608490fd5b5034610548576020366003190112610548576020906040906001600160a01b0361062c6114e7565b168152603c83522054604051908152f35b50346105485780600319360112610548576036546040516001600160a01b039091168152602090f35b5034610548576020366003190112610548576106806114e7565b60018060a01b039061069982845460101c16331461172c565b1660018060a01b03196038541617603855604051f35b50346105485760403660031901126105485760043580151581036105435760243590338352604160205260ff60408420541615610754571561072d576106f790603e546116f3565b603e555b7f8b8564868e5db4ac945b0fd897338876dcc0c95a5f183b340f47285ebbcb6af16020603e54604051908152a1604051f35b603e548181106107405703603e556106fb565b634e487b7160e01b83526011600452602483fd5b604051630fc64fb960e21b8152600490fd5b50346105485780600319360112610548576035546040516001600160a01b039091168152602090f35b5034610548576080366003190112610548576001600160401b036004351161054857366023600435011215610548576001600160401b0360043560040135116105485736602460043560040135600435010111610548576107ee6114fd565b9060018060a01b03815460101c1633141580610cf7575b610ce5576001600160a01b03821681526042602052604081205460ff16610cd357610834604435603e546116f3565b603e55603d54916000198314610cbf5760018301603d5560018060a01b03603a54169160206040518094634758ff0160e01b825260018701600483015260a0602483015281848161089460a4820160043560040135602460043501611765565b60018060a01b03891660448301526044356064830152606435608483015203925af1928315610cb2578193610c6a575b506040516108d1816115b1565b6040516108ed600480350135601f01601f1916602001826115cc565b60048035908101358083529060240160208301378260206004356004013583010152815260018060a01b038416602082015260018060a01b038316604082015260443560608201526064356080820152600185018252603b602052604082209080518051906001600160401b038211610c565761096a8454611564565b601f8111610c15575b50602090601f8311600114610ba9579180600494926080948892610b9e575b50508160011b916000199060031b1c19161784555b602081810151600186810180546001600160a01b03199081166001600160a01b039485161790915560408086015160028a018054909316908516179091556060850151600389015594909301519490950193909355858416855260428352818520805460ff199081168317909155878516865260418452828620805490911682179055603c9092528320908601905560365416803b15610b8657604051630b6cccdd60e41b81526001600160a01b038581166004830152841660248201526001860160448201529082908290606490829084905af18015610b7b57908291610b8a575b50506039546001600160a01b0316803b15610b865760405163d914cd4b60e01b81526001600160a01b03841660048201529082908290602490829084905af18015610b7b57610b67575b6020847f6f92dd7fd4aaa286bc76a2ea88bede9a5077443cccc9b4aece620689e3fc63de6001888760405192839201825260018060a01b0385168683015260c06040830152610b3260c0830160043560040135602460043501611765565b6001600160a01b039091166060830152604435608083015260643560a08301520390a16040516001600160a01b039091168152f35b610b71829161159e565b6105485780610ad4565b6040513d84823e3d90fd5b5080fd5b610b939061159e565b610548578038610a8a565b015190503880610992565b908486526020862091865b601f1985168110610bfd5750926004949260019260809583601f19811610610be4575b505050811b0184556109a7565b015160001960f88460031b161c19169055388080610bd7565b91926020600181928685015181550194019201610bb4565b84865260208620601f840160051c810160208510610c4f575b601f830160051c82018110610c44575050610973565b878155600101610c2e565b5080610c2e565b634e487b7160e01b85526041600452602485fd5b9092506020813d602011610caa575b81610c86602093836115cc565b81010312610ca657516001600160a01b0381168103610ca65791386108c4565b8280fd5b3d9150610c79565b50604051903d90823e3d90fd5b634e487b7160e01b82526011600452602482fd5b6040516308ba7c3f60e31b8152600490fd5b604051636adaa0f960e01b8152600490fd5b506035546001600160a01b0316331415610805565b50346105485780600319360112610548576039546040516001600160a01b039091168152602090f35b5034610548576020366003190112610548576040610d98916004358152603b60205220610d61816115ed565b9060018060a01b0390816001820154169160028201541690600460038201549101549160405195869560a0875260a0870190611513565b9360208601526040850152606084015260808301520390f35b50346105485780600319360112610548576020604054604051908152f35b50346105485760203660031901126105485760209060ff906040906001600160a01b03610dfa6114e7565b168152604284522054166040519015158152f35b50346105485780600319360112610548576020603d54604051908152f35b50346105485780600319360112610548575460405160109190911c6001600160a01b03168152602090f35b50346105485760203660031901126105485760209060ff906040906001600160a01b03610e826114e7565b168152604184522054166040519015158152f35b503461054857806003193601126105485780546001600160a01b0390610ec29060101c8216331461172c565b6000546000604051928260101c167f8be0079c531659141344cd1fd0a4f28419497f9722a3daafe3b4186f6b6457e08285a362010000600160b01b031916600055f35b50346105485780600319360112610548576037546040516001600160a01b039091168152602090f35b5034610548578060031936011261054857603d549060011982116110215790600180910190610f5c82611715565b92610f6a60405194856115cc565b828452610f7683611715565b9360209384820195601f1901368737825b818110610fcf5750506040519380850191818652518092526040850195925b828110610fb35785870386f35b83516001600160a01b0316875295810195928101928401610fa6565b808496939497959752603b835260018060a01b038760408820015416845182101561100d57908791848260051b870101520195939594929194610f87565b634e487b7160e01b87526032600452602487fd5b634e487b7160e01b81526011600452602490fd5b50346105485760203660031901126105485761104f6114e7565b60018060a01b039061106882845460101c16331461172c565b1660018060a01b03196039541617603955604051f35b5034610548576020366003190112610548576110986114e7565b60018060a01b03906110b182845460101c16331461172c565b1660018060a01b0319603a541617603a55604051f35b50346105485760203660031901126105485760209060ff906040906001600160a01b036110f26114e7565b168152603f84522054166040519015158152f35b503461054857602080600319360112610b865760408260a0936080835161112c816115b1565b606081528286820152828582015282606082015201526004358152603b83522060405191611159836115b1565b611162826115ed565b8352600180851b039182600182015416928285019384528060028301541660408601908152816111bc600460038601549560608a0196875201549560808901968752604051998a99828b5251918a015260c0890190611513565b9551166040870152511660608501525160808401525160a08301520390f35b5034610548576020366003190112610548576111f56114e7565b60018060a01b039061120e82845460101c16331461172c565b1660018060a01b03196036541617603655604051f35b503461054857602080600319360112610b86576004353383526041825260ff6040842054161561075457808352603b82526040808420600101546001600160a01b0316808552603f84529084205490919060ff166112d6577fa16172101044efd65843cd11b767b8aa758d7da7be12573e0c897b52b71444fd92826060938652603f825260408620600160ff1982541617905560016040540191826040556040519384528301526040820152a1604051f35b6040516334c8f8b960e01b8152600490fd5b5034610548576020366003190112610548576113026114e7565b60018060a01b039061131b82845460101c16331461172c565b1660018060a01b03196035541617603555604051f35b503461054857604036600319011261054857602435801515809103610b86576038546001600160a01b03919082163314158061143e575b61142c5782916004358352603b60205280600160408520015416803b156114275783906024604051809781936305e5fe2360e41b83528760048401525af1801561141c57611408575b8293506037541690813b1561140457829160248392604051948593849263a8a2b43160e01b845260048401525af18015610b7b576113f0575b50604051f35b6113f99061159e565b6105485780386113ea565b5050fd5b9190926114149061159e565b9082906113b1565b6040513d85823e3d90fd5b505050fd5b60405163570d52bd60e11b8152600490fd5b508160355416331415611368565b5034610548578060031936011261054857603a546040516001600160a01b039091168152602090f35b50346105485780600319360112610548576038546040516001600160a01b039091168152602090f35b5034610548576020366003190112610548576114b86114e7565b60018060a01b03906114d182845460101c16331461172c565b1660018060a01b03196037541617603755604051f35b600435906001600160a01b038216820361054357565b602435906001600160a01b038216820361054357565b91908251928382526000905b84821061154c57509280602093941161153f575b601f01601f1916010190565b6000838284010152611533565b9060209081808285010151908286010152019061151f565b90600182811c92168015611594575b602083101461157e57565b634e487b7160e01b600052602260045260246000fd5b91607f1691611573565b6001600160401b03811161049c57604052565b60a081019081106001600160401b0382111761049c57604052565b90601f801991011681019081106001600160401b0382111761049c57604052565b906040519182600082549261160184611564565b908184526001948581169081600014611670575060011461162d575b505061162b925003836115cc565b565b9093915060005260209081600020936000915b81831061165857505061162b9350820101388061161d565b85548884018501529485019487945091830191611640565b91505061162b94506020925060ff191682840152151560051b820101388061161d565b1561169a57565b60405162461bcd60e51b815260206004820152602b60248201527f496e697469616c697a61626c653a20636f6e7472616374206973206e6f74206960448201526a6e697469616c697a696e6760a81b6064820152608490fd5b811981116116ff570190565b634e487b7160e01b600052601160045260246000fd5b6001600160401b03811161049c5760051b60200190565b1561173357565b60405162461bcd60e51b815260206004820152600a60248201526927b7363c9037bbb732b960b11b6044820152606490fd5b908060209392818452848401376000828201840152601f01601f1916010190565b6000549060018060a01b03808216908360101c167f8be0079c531659141344cd1fd0a4f28419497f9722a3daafe3b4186f6b6457e06000604051a362010000600160b01b031990911660109190911b62010000600160b01b03161760005556fea2646970667358221220a2d69960e5dd113f1974a333bbf391dd2ed680ef7883337f6f7f14b3941d6b9b64736f6c634300080f0033",
  "devdoc": {
    "author": "Eric Lee (ylikp.ust@gmail.com)",
    "kind": "dev",
    "methods": {
      "deployPool(string,address,uint256,uint256)": {
        "params": {
          "_basePremiumRatio": "Initial policy price per shield",
          "_maxCapacity": "Maximum capacity of the pool",
          "_name": "Name of the protocol",
          "_protocolToken": "Address of the token used for the protocol"
        },
        "returns": {
          "_0": "address Address of the new insurance pool"
        }
      },
      "getPoolAddressList()": {
        "returns": {
          "_0": "List of pool addresses"
        }
      },
      "getPoolInfo(uint256)": {
        "params": {
          "_poolId": "Pool id"
        }
      },
      "owner()": {
        "details": "Returns the address of the current owner."
      },
      "renounceOwnership()": {
        "details": "Leaves the contract without owner. It will not be possible to call `onlyOwner` functions anymore. Can only be called by the current owner. NOTE: Renouncing ownership will leave the contract without an owner, thereby removing any functionality that is only available to the owner."
      },
      "transferOwnership(address)": {
        "details": "Transfers ownership of the contract to a new account (`newOwner`). Can only be called by the current owner."
      },
      "updateDynamicPool(uint256)": {
        "params": {
          "_poolId": "Pool id"
        }
      }
    },
    "title": "Insurance Pool Factory",
    "version": 1
  },
  "userdoc": {
    "kind": "user",
    "methods": {
      "deployPool(string,address,uint256,uint256)": {
        "notice": "Create a new priority pool         Called by executor when an onboard proposal has passed"
      },
      "getPoolAddressList()": {
        "notice": "Get the pool address list"
      },
      "getPoolInfo(uint256)": {
        "notice": "Get the pool information by pool id"
      },
      "updateDynamicPool(uint256)": {
        "notice": "Update a priority pool status to dynamic         Only sent from priority pool         \"Dynamic\" means:                  The priority pool will be counted in the dynamic premium formula"
      }
    },
    "notice": "This is the factory contract for deploying new insurance pools         Each pool represents a project that has joined Degis Protocol Protection         Liquidity providers of Protection Pool can stake their LP tokens into priority pools         Benefit:             - Share the 45% part of the premium income (in native token form)         Risk:             - Will be liquidated first to pay for the claim amount",
    "version": 1
  },
  "storageLayout": {
    "storage": [
      {
        "astId": 52,
        "contract": "src/pools/priorityPool/PriorityPoolFactory.sol:PriorityPoolFactory",
        "label": "_initialized",
        "offset": 0,
        "slot": "0",
        "type": "t_uint8"
      },
      {
        "astId": 55,
        "contract": "src/pools/priorityPool/PriorityPoolFactory.sol:PriorityPoolFactory",
        "label": "_initializing",
        "offset": 1,
        "slot": "0",
        "type": "t_bool"
      },
      {
        "astId": 23413,
        "contract": "src/pools/priorityPool/PriorityPoolFactory.sol:PriorityPoolFactory",
        "label": "_owner",
        "offset": 2,
        "slot": "0",
        "type": "t_address"
      },
      {
        "astId": 23520,
        "contract": "src/pools/priorityPool/PriorityPoolFactory.sol:PriorityPoolFactory",
        "label": "__gap",
        "offset": 0,
        "slot": "1",
        "type": "t_array(t_uint256)49_storage"
      },
      {
        "astId": 14000,
        "contract": "src/pools/priorityPool/PriorityPoolFactory.sol:PriorityPoolFactory",
        "label": "deg",
        "offset": 0,
        "slot": "50",
        "type": "t_contract(IDegisToken)14127"
      },
      {
        "astId": 14003,
        "contract": "src/pools/priorityPool/PriorityPoolFactory.sol:PriorityPoolFactory",
        "label": "veDeg",
        "offset": 0,
        "slot": "51",
        "type": "t_contract(IVeDEG)15276"
      },
      {
        "astId": 14006,
        "contract": "src/pools/priorityPool/PriorityPoolFactory.sol:PriorityPoolFactory",
        "label": "shield",
        "offset": 0,
        "slot": "52",
        "type": "t_contract(IShield)15231"
      },
      {
        "astId": 19884,
        "contract": "src/pools/priorityPool/PriorityPoolFactory.sol:PriorityPoolFactory",
        "label": "executor",
        "offset": 0,
        "slot": "53",
        "type": "t_address"
      },
      {
        "astId": 19886,
        "contract": "src/pools/priorityPool/PriorityPoolFactory.sol:PriorityPoolFactory",
        "label": "policyCenter",
        "offset": 0,
        "slot": "54",
        "type": "t_address"
      },
      {
        "astId": 19888,
        "contract": "src/pools/priorityPool/PriorityPoolFactory.sol:PriorityPoolFactory",
        "label": "protectionPool",
        "offset": 0,
        "slot": "55",
        "type": "t_address"
      },
      {
        "astId": 19890,
        "contract": "src/pools/priorityPool/PriorityPoolFactory.sol:PriorityPoolFactory",
        "label": "incidentReport",
        "offset": 0,
        "slot": "56",
        "type": "t_address"
      },
      {
        "astId": 19892,
        "contract": "src/pools/priorityPool/PriorityPoolFactory.sol:PriorityPoolFactory",
        "label": "weightedFarmingPool",
        "offset": 0,
        "slot": "57",
        "type": "t_address"
      },
      {
        "astId": 19894,
        "contract": "src/pools/priorityPool/PriorityPoolFactory.sol:PriorityPoolFactory",
        "label": "priorityPoolDeployer",
        "offset": 0,
        "slot": "58",
        "type": "t_address"
      },
      {
        "astId": 19342,
        "contract": "src/pools/priorityPool/PriorityPoolFactory.sol:PriorityPoolFactory",
        "label": "pools",
        "offset": 0,
        "slot": "59",
        "type": "t_mapping(t_uint256,t_struct(PoolInfo)19337_storage)"
      },
      {
        "astId": 19346,
        "contract": "src/pools/priorityPool/PriorityPoolFactory.sol:PriorityPoolFactory",
        "label": "poolAddressToId",
        "offset": 0,
        "slot": "60",
        "type": "t_mapping(t_address,t_uint256)"
      },
      {
        "astId": 19348,
        "contract": "src/pools/priorityPool/PriorityPoolFactory.sol:PriorityPoolFactory",
        "label": "poolCounter",
        "offset": 0,
        "slot": "61",
        "type": "t_uint256"
      },
      {
        "astId": 19350,
        "contract": "src/pools/priorityPool/PriorityPoolFactory.sol:PriorityPoolFactory",
        "label": "totalMaxCapacity",
        "offset": 0,
        "slot": "62",
        "type": "t_uint256"
      },
      {
        "astId": 19354,
        "contract": "src/pools/priorityPool/PriorityPoolFactory.sol:PriorityPoolFactory",
        "label": "dynamic",
        "offset": 0,
        "slot": "63",
        "type": "t_mapping(t_address,t_bool)"
      },
      {
        "astId": 19356,
        "contract": "src/pools/priorityPool/PriorityPoolFactory.sol:PriorityPoolFactory",
        "label": "dynamicPoolCounter",
        "offset": 0,
        "slot": "64",
        "type": "t_uint256"
      },
      {
        "astId": 19360,
        "contract": "src/pools/priorityPool/PriorityPoolFactory.sol:PriorityPoolFactory",
        "label": "poolRegistered",
        "offset": 0,
        "slot": "65",
        "type": "t_mapping(t_address,t_bool)"
      },
      {
        "astId": 19364,
        "contract": "src/pools/priorityPool/PriorityPoolFactory.sol:PriorityPoolFactory",
        "label": "tokenRegistered",
        "offset": 0,
        "slot": "66",
        "type": "t_mapping(t_address,t_bool)"
      }
    ],
    "types": {
      "t_address": {
        "encoding": "inplace",
        "label": "address",
        "numberOfBytes": "20"
      },
      "t_array(t_uint256)49_storage": {
        "base": "t_uint256",
        "encoding": "inplace",
        "label": "uint256[49]",
        "numberOfBytes": "1568"
      },
      "t_bool": {
        "encoding": "inplace",
        "label": "bool",
        "numberOfBytes": "1"
      },
      "t_contract(IDegisToken)14127": {
        "encoding": "inplace",
        "label": "contract IDegisToken",
        "numberOfBytes": "20"
      },
      "t_contract(IShield)15231": {
        "encoding": "inplace",
        "label": "contract IShield",
        "numberOfBytes": "20"
      },
      "t_contract(IVeDEG)15276": {
        "encoding": "inplace",
        "label": "contract IVeDEG",
        "numberOfBytes": "20"
      },
      "t_mapping(t_address,t_bool)": {
        "encoding": "mapping",
        "key": "t_address",
        "label": "mapping(address => bool)",
        "numberOfBytes": "32",
        "value": "t_bool"
      },
      "t_mapping(t_address,t_uint256)": {
        "encoding": "mapping",
        "key": "t_address",
        "label": "mapping(address => uint256)",
        "numberOfBytes": "32",
        "value": "t_uint256"
      },
      "t_mapping(t_uint256,t_struct(PoolInfo)19337_storage)": {
        "encoding": "mapping",
        "key": "t_uint256",
        "label": "mapping(uint256 => struct PriorityPoolFactory.PoolInfo)",
        "numberOfBytes": "32",
        "value": "t_struct(PoolInfo)19337_storage"
      },
      "t_string_storage": {
        "encoding": "bytes",
        "label": "string",
        "numberOfBytes": "32"
      },
      "t_struct(PoolInfo)19337_storage": {
        "encoding": "inplace",
        "label": "struct PriorityPoolFactory.PoolInfo",
        "members": [
          {
            "astId": 19328,
            "contract": "src/pools/priorityPool/PriorityPoolFactory.sol:PriorityPoolFactory",
            "label": "protocolName",
            "offset": 0,
            "slot": "0",
            "type": "t_string_storage"
          },
          {
            "astId": 19330,
            "contract": "src/pools/priorityPool/PriorityPoolFactory.sol:PriorityPoolFactory",
            "label": "poolAddress",
            "offset": 0,
            "slot": "1",
            "type": "t_address"
          },
          {
            "astId": 19332,
            "contract": "src/pools/priorityPool/PriorityPoolFactory.sol:PriorityPoolFactory",
            "label": "protocolToken",
            "offset": 0,
            "slot": "2",
            "type": "t_address"
          },
          {
            "astId": 19334,
            "contract": "src/pools/priorityPool/PriorityPoolFactory.sol:PriorityPoolFactory",
            "label": "maxCapacity",
            "offset": 0,
            "slot": "3",
            "type": "t_uint256"
          },
          {
            "astId": 19336,
            "contract": "src/pools/priorityPool/PriorityPoolFactory.sol:PriorityPoolFactory",
            "label": "basePremiumRatio",
            "offset": 0,
            "slot": "4",
            "type": "t_uint256"
          }
        ],
        "numberOfBytes": "160"
      },
      "t_uint256": {
        "encoding": "inplace",
        "label": "uint256",
        "numberOfBytes": "32"
      },
      "t_uint8": {
        "encoding": "inplace",
        "label": "uint8",
        "numberOfBytes": "1"
      }
    }
  }
}