{
  "address": "0xc5a5C42992dECbae36851359345FE25997F5C42d",
  "abi": [
    {
      "anonymous": false,
      "inputs": [
        {
          "indexed": false,
          "internalType": "uint8",
          "name": "version",
          "type": "uint8"
        }
      ],
      "name": "Initialized",
      "type": "event"
    },
    {
      "inputs": [
        {
          "internalType": "uint256",
          "name": "poolId",
          "type": "uint256"
        },
        {
          "internalType": "string",
          "name": "_name",
          "type": "string"
        },
        {
          "internalType": "address",
          "name": "_protocolToken",
          "type": "address"
        },
        {
          "internalType": "uint256",
          "name": "_maxCapacity",
          "type": "uint256"
        },
        {
          "internalType": "uint256",
          "name": "_basePremiumRatio",
          "type": "uint256"
        }
      ],
      "name": "deployPool",
      "outputs": [
        {
          "internalType": "address",
          "name": "",
          "type": "address"
        }
      ],
      "stateMutability": "nonpayable",
      "type": "function"
    },
    {
      "inputs": [
        {
          "internalType": "address",
          "name": "_priorityPoolFactory",
          "type": "address"
        },
        {
          "internalType": "address",
          "name": "_weightedFarmingPool",
          "type": "address"
        },
        {
          "internalType": "address",
          "name": "_protectionPool",
          "type": "address"
        },
        {
          "internalType": "address",
          "name": "_policyCenter",
          "type": "address"
        },
        {
          "internalType": "address",
          "name": "_payoutPool",
          "type": "address"
        }
      ],
      "name": "initialize",
      "outputs": [],
      "stateMutability": "nonpayable",
      "type": "function"
    },
    {
      "inputs": [],
      "name": "owner",
      "outputs": [
        {
          "internalType": "address",
          "name": "",
          "type": "address"
        }
      ],
      "stateMutability": "view",
      "type": "function"
    },
    {
      "inputs": [],
      "name": "payoutPool",
      "outputs": [
        {
          "internalType": "address",
          "name": "",
          "type": "address"
        }
      ],
      "stateMutability": "view",
      "type": "function"
    },
    {
      "inputs": [],
      "name": "policyCenter",
      "outputs": [
        {
          "internalType": "address",
          "name": "",
          "type": "address"
        }
      ],
      "stateMutability": "view",
      "type": "function"
    },
    {
      "inputs": [],
      "name": "priorityPoolFactory",
      "outputs": [
        {
          "internalType": "address",
          "name": "",
          "type": "address"
        }
      ],
      "stateMutability": "view",
      "type": "function"
    },
    {
      "inputs": [],
      "name": "protectionPool",
      "outputs": [
        {
          "internalType": "address",
          "name": "",
          "type": "address"
        }
      ],
      "stateMutability": "view",
      "type": "function"
    },
    {
      "inputs": [],
      "name": "weightedFarmingPool",
      "outputs": [
        {
          "internalType": "address",
          "name": "",
          "type": "address"
        }
      ],
      "stateMutability": "view",
      "type": "function"
    }
  ],
  "transactionHash": "0x260f1b9bf8ead553d742fe67b5807be11aa52c06cd1cea9577c6557c695eab75",
  "args": [],
  "numDeployments": 1,
  "solcInputHash": "af05fdfad18074e274f84db096f4ad56",
  "bytecode": "0x608080604052346100165761516e908161001c8239f35b600080fdfe6080604052600436101562000014575b600080fd5b6000803560e01c9081631459457a14620000cd575080634758ff0114620000c25780636273106a14620000b75780636c1b700f14620000ac5780636f8a6e4314620000a15780638da5cb5b1462000096578063b567dc6a146200008b5763e8adbf2f146200008157600080fd5b6200000f620004b7565b506200000f6200048b565b506200000f6200045b565b506200000f6200042f565b506200000f62000403565b506200000f620003d7565b506200000f62000343565b34620002cd5760a0366003190112620002cd57620000ea620002d0565b620001c9620000f8620002e7565b62000102620002fe565b6200010c62000315565b90620001176200032c565b928654956200014060ff8860081c161580988199620002be575b81156200029b575b50620004e3565b8662000154600160ff196000541617600055565b620002165793919260005462010000600160b01b033360101b169062010000600160b01b0319161760005560018060a01b0380948180948160018060a01b0319991689600154161760015516876002541617600255168560035416176003551683600454161760045516906005541617600555565b620001d357604051f35b620001e461ff001960005416600055565b604051600181527f7f26b83ff96e1f2b6a682f133852f6798a09c465da95921460cefb384740249890602090a1604051f35b6200022b61010061ff00196000541617600055565b93919260005462010000600160b01b033360101b169062010000600160b01b0319161760005560018060a01b0380948180948160018060a01b0319991689600154161760015516876002541617600255168560035416176003551683600454161760045516906005541617600555565b303b15915081620002af575b508a62000139565b6001915060ff16148a620002a7565b600160ff821610915062000131565b80fd5b600435906001600160a01b03821682036200000f57565b602435906001600160a01b03821682036200000f57565b604435906001600160a01b03821682036200000f57565b606435906001600160a01b03821682036200000f57565b608435906001600160a01b03821682036200000f57565b50346200000f5760a03660031901126200000f5767ffffffffffffffff6024358181116200000f57366023820112156200000f5780600401359182116200000f5736602483830101116200000f57620003d391620003b991620003a5620002fe565b6084359260246064359301600435620005a2565b6040516001600160a01b0390911681529081906020820190565b0390f35b50346200000f5760003660031901126200000f576005546040516001600160a01b039091168152602090f35b50346200000f5760003660031901126200000f576003546040516001600160a01b039091168152602090f35b50346200000f5760003660031901126200000f576001546040516001600160a01b039091168152602090f35b50346200000f5760003660031901126200000f5760005460405160109190911c6001600160a01b03168152602090f35b50346200000f5760003660031901126200000f576002546040516001600160a01b039091168152602090f35b50346200000f5760003660031901126200000f576004546040516001600160a01b039091168152602090f35b15620004eb57565b60405162461bcd60e51b815260206004820152602e60248201527f496e697469616c697a61626c653a20636f6e747261637420697320616c72656160448201526d191e481a5b9a5d1a585b1a5e995960921b6064820152608490fd5b50634e487b7160e01b600052604160045260246000fd5b90601f8019910116810190811067ffffffffffffffff8211176200058157604052565b6200058b62000547565b604052565b90620005a060405192836200055e565b565b600154919594939291336001600160a01b039182161490811562000660575b50156200062c5767ffffffffffffffff82116200061c575b60405191620005f3601f8201601f1916602001846200055e565b80835236818801116200000f5760208160009262000619998387013784010152620007a1565b90565b6200062662000547565b620005d9565b60405162461bcd60e51b815260206004820152600c60248201526b4f6e6c7920666163746f727960a01b6044820152606490fd5b905060005460101c16331438620005c1565b918091926000905b828210620006945750116200068d575050565b6000910152565b915080602091830151818601520182916200067a565b90620006bf6020928281519485920162000672565b0190565b602092918152620006dd8251809385808501910162000672565b010190565b989694929b9a99979593919089526101608060208b0152815180918b01526101809181838c019160200191620007189262000672565b601f1990601f01168901019a600160a01b600190031660408901526060880152608087015260a08601620007529160018060a01b03169052565b6001600160a01b031660c08501526001600160a01b031660e08401526001600160a01b03166101008301526001600160a01b03166101208201526001600160a01b039091166101409190910152565b92620008929262000899620008a693620008816200061998976200087461487e95620007d06020880162000590565b96808852620008bb6020890139604051976020890189620007f3888784620006c3565b039962000809601f199b8c81018352826200055e565b519020600054909c9060101c6001600160a01b03166001546001600160a01b03166002546001600160a01b03166003549092906001600160a01b03166004549094906001600160a01b03166005549096906001600160a01b0316976040519c8d9b60208d01620006e2565b038581018352826200055e565b6040519586936020850190620006aa565b90620006aa565b039081018352826200055e565b6020815191016000f590813b156200000f5756fe6101208060405234620006fd5760006200487e803803809162000023828662000702565b843982019161016081840312620006f957805160208201516001600160401b038111620006f557820184601f82011215620006f55780519062000066826200073c565b9562000076604051978862000702565b82875260208383010111620006f1579062000098916020808801910162000758565b620000a66040830162000790565b936060830151946080840151620000c060a0860162000790565b96620000cf60c0870162000790565b92620000de60e0880162000790565b94620000ee610100890162000790565b966200010d610140620001056101208c0162000790565b9a0162000790565b60809b909b5260c0528051906001600160401b0382116200059057819062000137600554620007a5565b601f81116200069d575b50602090601f831160011462000621578b9262000615575b50508160011b916000199060031b1c1916176005555b610100526007554260e05260a0526200018a600654620007e2565b806006556200019b60c0516200082f565b620001a6826200082f565b6040518092665052492d4c502d60c81b6020830152620001d181518092602060278601910162000758565b8101602d60f81b6027820152899060055490620001ee82620007a5565b9160018116908115620005ef5750600114620005a4575b5050906200023e9282612d4760f01b600294526200022d825180936020878501910162000758565b0103601d1981018452018262000702565b604051610acf808201906001600160401b03821183831017620005905760208392620002759262003d8f8539818152018462000808565b039088f09182156200058557808852600b6020526040882080546001600160a01b0319166001600160a01b038581169190911790915560c0519086163b15620005815760405160016224184f60e11b0319815260048101919091526001600160a01b03848116602483015264e8d4a51000604483015289908290606490829084908b165af18015620005765762000545575b5060018060a01b0383168852600d60205264e8d4a510006040892055600c602052604088209160ff199260018482541617905560c051916040519260a084528a946005546200035681620007a5565b918260a088015260018216918260001462000525575050600114620004da575b50938392620003b9927f5bc145acec26384dc09c6269c9e569c69db21ad88cbd81319958b05998b83b5b9660208601526040850152838203606085015262000808565b6001600160a01b03851660808301520390a16001600160a01b039081168652600d602052604080872064e8d4a5100090556127106008908155600180546001600160a01b031990811695851695909517905560038054851695841695909517909455600280548416958316959095179094558554610100600160a81b0319169490921b610100600160a81b0316939093179093556004805490921693909216929092179091555161344d90816200094282396080518181816102cb01526107ef015260a05181818161027a015281816124590152818161255601526125cc015260c05181818161092e01528181610f360152818161174901526126ae015260e0518181816106c6015281816122d20152612719015261010051816109680152f35b60058c52939450928a906000805160206200485e8339815191525b8183106200050d575050840160c00193928362000376565b805460c08489010152602090920191600101620004f5565b1660c08781019190915291151560051b8601909101955084905062000376565b9097906001600160401b0381116200056257604052963862000307565b634e487b7160e01b82526041600452602482fd5b6040513d8b823e3d90fd5b8880fd5b6040513d89823e3d90fd5b634e487b7160e01b8a52604160045260248afd5b60058c529091508a6000805160206200485e8339815191525b838210620005d45750500160280182600262000205565b805460288385010152869450602090910190600101620005bd565b60ff19166028838101919091528315159093029091019091019150839050600262000205565b01519050388062000159565b60058c528b93506000805160206200485e83398151915291905b601f198416851062000681576001945083601f1981161062000667575b505050811b016005556200016f565b015160001960f88460031b161c1916905538808062000658565b818101518355602094850194600190930192909101906200063b565b90915060058b5260208b20601f840160051c810160208510620006e9575b90849392915b8d601f840160051c83018210620006db5750505062000141565b8155859450600101620006c1565b5080620006bb565b8480fd5b8380fd5b5080fd5b600080fd5b601f909101601f19168101906001600160401b038211908210176200072657604052565b634e487b7160e01b600052604160045260246000fd5b6001600160401b0381116200072657601f01601f191660200190565b918091926000905b8282106200077a57501162000773575050565b6000910152565b9150806020918301518186015201829162000760565b51906001600160a01b0382168203620006fd57565b90600182811c92168015620007d7575b6020831014620007c157565b634e487b7160e01b600052602260045260246000fd5b91607f1691620007b5565b6000198114620007f25760010190565b634e487b7160e01b600052601160045260246000fd5b90602091620008238151809281855285808601910162000758565b601f01601f1916010190565b80156200091257600081805b620008fb57506200084c816200073c565b916200085c604051938462000702565b818352601f196200086d836200073c565b01918160209336858701375b620008845750505090565b60018110620007f2576000190190600a90603082820680198211620007f2578651851015620008e5570160f81b7fff000000000000000000000000000000000000000000000000000000000000001660001a85840185015304908162000879565b634e487b7160e01b600052603260045260246000fd5b9062000909600a91620007e2565b9104806200083b565b50604080519081016001600160401b03811182821017620007265760405260018152600360fc1b60208201529056fe604060808152600490813610156200001657600080fd5b600091823560e01c9081630aadb77714620016045781630b92b5e414620015cf57816310b72d681462000d955781631487ddda1462000c5f578163172195221462000c3e5781631733ea501462000a355781632440f3e914620009975781632b79696814620009515781633e0dc34e14620009145781634d05124c14620008cd5781634e758271146200089757816359b6a0c914620008765781635c975abb14620008525781635e5fe23014620007c55781636497587a146200078357816377f2c84b14620006e957816378e9792514620006ac57816379e25f3a14620006705781638905faeb14620004805781638a9be82814620004595781639926878e146200042a578163a775a6fd1462000404578163d06a30be14620003dc578163d90543b814620003bb578163e17739b5146200029d57508063e2e7c36614620002615763f3466dfa146200016857600080fd5b346200025d57816003193601126200025d57805190826005546200018c8162001896565b80855290600190818116908115620002325750600114620001d4575b505050620001bd82620001d0940383620018fe565b5191829160208352602083019062001959565b0390f35b60058352602095507f036b6384b5eca791c62761152d0c79bb0604c104a5fb6f4eb0703f3154bb3db05b8284106200021e5750505082620001d094620001bd9282010194620001a8565b8054868501880152928601928101620001fe565b620001d09750620001bd9450602092508693915060ff191682840152151560051b82010194620001a8565b5080fd5b50346200025d57816003193601126200025d57602090517f00000000000000000000000000000000000000000000000000000000000000008152f35b8383346200025d57806003193601126200025d57620002bb6200186f565b602435936001600160a01b0391907f0000000000000000000000000000000000000000000000000000000000000000831633036200038b5785859660079695965582600014620003785780620003119162001980565b925b60015416803b156200037457849283604492885196879586946349e51b2560e01b865215159085015260248401525af1801562000367576200035457505051f35b6200035f90620018d3565b6200025d5751f35b50505051903d90823e3d90fd5b8480fd5b80620003849162001980565b9262000313565b606490602085519162461bcd60e51b8352820152600a60248201526927b7363c9037bbb732b960b11b6044820152fd5b5050346200025d57816003193601126200025d576020906008549051908152f35b5050346200025d57816003193601126200025d57602090620003fd6200223e565b9051908152f35b5050346200025d57816003193601126200025d5760209060ff6009541690519015158152f35b5050346200025d578060209262000441366200187f565b908252600a8552828220908252845220549051908152f35b8284346200047d5760203660031901126200047d5750620003fd60209235620022cb565b80fd5b905082346200047d5762000494366200187f565b620004a182949262002746565b620004ac84620022cb565b92620151809182420490620004c18262001aef565b93915050600182106200065d5760001991601983820194101562000647575b50620004f0620004fc9162001aef565b94859492939162001a0b565b600181106200063457600c91620005199101928284049062001a0b565b910660011981116200062157926200055b9262000555926001620005659601916200054583836200216a565b80911162000618575b5062001eed565b620019bd565b8342069062001a0b565b904282106200047d575062000584620005989262000555920462001aef565b506200059181836200216a565b9162001eed565b90620143701982116200060357610dd419620143708301116200060357603b196201514483011162000603575064496cebb80091620005ef620005e6620005f5936201517f42910162001980565b948592620019d6565b620019d6565b049082519182526020820152f35b601190634e487b7160e01b6000525260246000fd5b92508c6200054e565b634e487b7160e01b855260118752602485fd5b634e487b7160e01b865260118852602486fd5b9092600119106200065d5791620004f0620004e0565b634e487b7160e01b845260118652602484fd5b5050346200025d5760203660031901126200025d5760209181906001600160a01b036200069c62001858565b168152600d845220549051908152f35b5050346200025d57816003193601126200025d57602090517f00000000000000000000000000000000000000000000000000000000000000008152f35b9050346200077f57620006fc366200187f565b82549092906001600160a01b031633036200074957506201518062000722910462001aef565b50908452600a6020528284209084526020526200074482842091825462001980565b905551f35b606490602085519162461bcd60e51b8352820152601060248201526f13db9b1e481c185e5bdd5d081c1bdbdb60821b6044820152fd5b8280fd5b5050346200025d5760203660031901126200025d5760209160ff9082906001600160a01b03620007b262001858565b168152600c855220541690519015158152f35b9050346200077f5760203660031901126200077f57620007e46200186f565b9060018060a01b03807f000000000000000000000000000000000000000000000000000000000000000016331415908162000842575b5062000834575060ff801960005416911515161760005551f35b8251633d769c1160e21b8152fd5b905060015416331415386200081a565b5050346200025d57816003193601126200025d5760ff602092541690519015158152f35b5050346200025d57816003193601126200025d576020906007549051908152f35b5050346200025d57816003193601126200025d576006548252600b6020908152918190205490516001600160a01b039091168152f35b8284346200047d57806003193601126200047d5750620008ec6200223e565b91612710908360001904821184151516620006035750600754602093620003fd9202620019ea565b5050346200025d57816003193601126200025d57602090517f00000000000000000000000000000000000000000000000000000000000000008152f35b5050346200025d57816003193601126200025d57517f00000000000000000000000000000000000000000000000000000000000000006001600160a01b03168152602090f35b9050346200077f5760203660031901126200077f57600254813591906001600160a01b03163303620009fb57507f98f8638d7fcb95eacabcf74919bde278d0b069a0579c6784d9bba8f93a4f62ee826008548151908152836020820152a160085551f35b606490602084519162461bcd60e51b8352820152601460248201527313db9b1e481c1c9bdd1958dd1a5bdb881c1bdbdb60621b6044820152fd5b9050346200077f5760603660031901126200077f5762000a5462001858565b60243591604435916001600160a01b0390818416840362000c395781875462000a8160ff82161562002636565b60081c16330362000c2957811690818752602090600c825260ff87892054161562000c1957818894939262000b14869362000abb6200266c565b858552600d835264e8d4a5100062000ad78b8d882054620019d6565b6002548d5163a9059cbb60e01b81526001600160a01b038d168b820190815293909204602084015290968794919093169284929091839160400190565b03925af1801562000c0f5762000bd5575b5050803b156200077f578551632770a7eb60e21b81526001600160a01b03851692810192835260208301869052918391839182908490829060400103925af1801562000bcb5762000baf575b505082519182526001600160a01b031660208201527fad77d19b2b77e0dfe7bf3e9cd2c87dc639cc1e223d58cf3d69603478f684064590604090a151f35b62000bba90620018d3565b62000bc757833862000b71565b8380fd5b85513d84823e3d90fd5b81813d831162000c07575b62000bec8183620018fe565b8101031262000bc75751801515036200077f57388062000b25565b503d62000be0565b88513d87823e3d90fd5b8651631f05e71b60e31b81528490fd5b855163e3dfb17f60e01b81528390fd5b600080fd5b5050346200025d57816003193601126200025d576020906006549051908152f35b9050346200077f57816003193601126200077f576001600160a01b039060243590803590838316830362000c395783865462000c9f60ff82161562002636565b60081c16330362000d875762000cb46200266c565b6006548652600b6020528584868220541691823b156200025d5786516340c10f1960e01b81526001600160a01b0386169181019182526020820185905292839182908490829060400103925af1801562000d7d5762000d65575b5083519081526001600160a01b03919091166020808301919091529383917ff02b701fc10bff0958891c152c9eeabe4286e300c7ec9a0b08f64456ad941f7990604090a16006548152600b85522054169051908152f35b62000d718691620018d3565b62000374573862000d0e565b85513d88823e3d90fd5b845163e3dfb17f60e01b8152fd5b9050346200077f576020908160031936011262000bc757803560018060a01b0392600183828683541688519283809263c34c08e560e01b82525afa8015620015c5578691899162001584575b50163303620015745762000df46200223e565b8311156200156c5762000e066200223e565b905b87866002541688516370a0823160e01b815230888201528581602481855afa908115620014e557839162001535575b508951638e15f47360e01b81528a87828b8188885af180156200152b5788928691620014ef575b5062000e759062000e6f89620019a2565b620019ea565b938a8c85871015620013da5781549351636d40d7d760e11b815291820187815293166001600160a01b0316602084015294959394938492839190829060400103925af1908115620012db578691620013ab575b505062000e6f62000ede62000ee4938362001980565b620019a2565b6006548952600b845286888a2054168952600d8452878920555b62000f086200223e565b15620013a3578762000f2f62000f1e84620019a2565b62000f286200223e565b90620019ea565b87875416907f00000000000000000000000000000000000000000000000000000000000000009460065492803b156200037457898560a49281958f958b9651988997889663c773a2d160e01b88528701526024860152604485015260648401523060848401525af1801562001381576200138b575b50506006548852600b8352878688822054168760035416818352600d86528983205490803b1562000bc75760648985889381958f51978896879563c65323f160e01b8752860152602485015260448401525af18015620013815762001365575b50508560035416956200101960065462002764565b80600655620010288462002791565b91620010348262002791565b8a518094665052492d4c502d60c81b898301526200105c815180928b60278601910162001921565b8101602d60f81b60278201528d8091600554916200107a8362001896565b928a81169081156200133c5750600114620012f8575b50505090620010c99282612d4760f01b60029452620010b8825180938d878501910162001921565b0103601d19810186520184620018fe565b8951610acf8082019082821067ffffffffffffffff831117620012e557888392620010ff92620029298539818152018662001959565b03908cf08015620012db57828c52600b87528a8c2080546001600160a01b031916929091169182179055978a813b156200047d578a98868a5191637fdbe7b160e11b83528201528a602482015281816064818364e8d4a51000978860448401525af18015620012d157620012b0575b50899052600d8652878b2055600c8552868a209360ff1994848682541617905587519460a086528b94600554620011a58162001896565b928360a08a015282821691826000146200127e57505060011462001231575b5050849384937fd2f6618ba448f8b76ee0e823f8bb8c568b748f1687e1bc6bd625306fc4fb50359a93620012189389600080516020620033f88339815191529901528a860152848203606086015262001959565b9060808301520390a1600654908351928352820152a151f35b60058d52878d209295508c925b8284106200126657505050840160c0019280600080516020620033f8833981519152620011c4565b805488850160c001528c9a509288019281016200123e565b1660c0808a019190915292151560051b88019092019550829150600080516020620033f88339815191529050620011c4565b620012be91929950620018d3565b620012cd5788968a386200116e565b8980fd5b8a513d84823e3d90fd5b8a513d8d823e3d90fd5b634e487b7160e01b8e5260418b5260248efd5b90919250600581528a898183205b858410620013205750505050016028018260028f62001090565b8054858501602801528a965092909101918c918b910162001306565b60ff19166028848101919091528415159094029092019092019250849150600290508f62001090565b6200137090620018d3565b6200137d57873862001004565b8780fd5b89513d84823e3d90fd5b6200139690620018d3565b6200137d57873862000fa4565b878062000f2f565b813d8311620013d2575b620013c18183620018fe565b8101031262000c3957843862000ec8565b503d620013b5565b50509051636d40d7d760e11b81528a81019384523060208501529093509182908190604001038186865af1908115620014e5578391620014aa575b5062001422908562001980565b88885416823b1562000bc7578a5163329b1a9360e21b8152808a019283526001600160a01b03909116602083015291839183919082908490829060400103925af18015620013815762001492575b50506006548852600b83528587892054168852600d8352878781205562000efe565b6200149d90620018d3565b6200137d57873862001470565b809350868092503d8311620014dd575b620014c68183620018fe565b8101031262000c3957620014228a92519062001415565b503d620014ba565b8a513d85823e3d90fd5b9550505083813d831162001523575b6200150a8183620018fe565b8101031262000c3957858a62000e758d95519062000e5e565b503d620014fe565b81513d87823e3d90fd5b809350868092503d831162001564575b620015518183620018fe565b8101031262000c39578991513862000e37565b503d62001545565b829062000e08565b8551633f77a45b60e01b81528490fd5b809250848092503d8311620015bd575b620015a08183620018fe565b810103126200137d575185811681036200137d5785903862000de1565b503d62001594565b87513d8a823e3d90fd5b9050346200077f5760203660031901126200077f57358252600b6020908152918190205490516001600160a01b039091168152f35b839150346200025d576003196080368201126200077f578135604435928454926200163360ff85161562002636565b6001600160a01b039360081c8416330362001849576003851180156200183e575b6200182f57620016648362002746565b6200166e6200266c565b62015180420493620016808562001aef565b6001969291878a106200181c5790620016a89160196000198c01921015620018095762001a0b565b908952600a602052898920908952602052620016c989892091825462001a0b565b9055620016df60643562000e6f602435620019a2565b93620016eb87620028a5565b9662001702620016fb82620028a5565b9762001aef565b5089898c925b858410620017c557505050505050506003541693843b15620017c157869492620017936200178397959387938b51998a988997889663341922c160e01b88527f0000000000000000000000000000000000000000000000000000000000000000908801526024870152608060448701526084860190620028f2565b91848303016064850152620028f2565b03925af18015620017b757620017a857509051f35b620017b390620018d3565b9051f35b83513d84823e3d90fd5b8680fd5b80620017e38589959488620017dc838998620028dd565b52620028dd565b520191600c8311620017fb575b0190898b9162001708565b9201918491508190620017f0565b90620018159062002764565b9062001a0b565b634e487b7160e01b8b526011875260248bfd5b508551632afd62f560e21b8152fd5b506001851062001654565b50855163e3dfb17f60e01b8152fd5b600435906001600160a01b038216820362000c3957565b60043590811515820362000c3957565b604090600319011262000c39576004359060243590565b90600182811c92168015620018c8575b6020831014620018b257565b634e487b7160e01b600052602260045260246000fd5b91607f1691620018a6565b67ffffffffffffffff8111620018e857604052565b634e487b7160e01b600052604160045260246000fd5b90601f8019910116810190811067ffffffffffffffff821117620018e857604052565b918091926000905b828210620019435750116200193c575050565b6000910152565b9150806020918301518186015201829162001929565b90602091620019748151809281855285808601910162001921565b601f01601f1916010190565b8181106200198c570390565b634e487b7160e01b600052601160045260246000fd5b64e8d4a510009080600019048211811515166200198c570290565b620151809080600019048211811515166200198c570290565b80600019048211811515166200198c570290565b8115620019f5570490565b634e487b7160e01b600052601260045260246000fd5b811981116200198c570190565b6000811280156001600160ff1b038390038413166200198c57600160ff1b8290038312166200198c570190565b6105b560008083136001600160ff1b0384900483111660011662001a975760017fffe9924f8d0dd7b2e6f174df9576f9de01c091c8faeb2605f522de8852b47aa88412828512161662001a9757500290565b634e487b7160e01b81526011600452602490fd5b600e600160ff1b0181126001166200198c57600d190190565b600082128015600160ff1b84018312166200198c576001600160ff1b0383018213166200198c570390565b6000916001600160ff1b039162010bd99084811281850381158185131662001ed957600160ff1b93838503928382121662001ec55787908401129162010bd819908162253d8c9301831384151662001eb15701131662001e9d57622649650193600193600491858783048411828913161662001e8a57808712600760fd1b881216861662001e8a5762023ab196878160021b0597878985048211848b13161662001e7757877fffffc694f94337079d130ab45dff8e0f9ea161331bb1c93dea871de6fec83ce28a12848b12161662001e775788028281128185036003138115166200065d578187036003121662001e77579084600362001bf29301059062001ac4565b92818412848403881381151662001e2b5784860388121662001e1857868401610fa0888286048211858413161662001e3e57887ffff7ced916872b020c49ba5e353f7ced916872b020c49ba5e353f7ced916872c8312858412161662001e3e5762001c739162164b09910205948262001c6b8762001a45565b059062001ac4565b828112818503601f1381151662001e3e57818703601f121662001e2b57601f019680888504605011848a13161662001e2b57807ffe666666666666666666666666666666666666666666666666666666666666678912848a12161662001e2b5761098f9788816050020590828287048b11868413161662001e645784821299837ffff29be1739a4fb805dbcd5d6c7d1f7d6fd627208942391f124ee1c3f307026884128c161662001e51579060508362001d309302059062001ac4565b98600b82059782870360021382151662001e51578290036002121662001e3e5781878604600c11858913161662001e3e57817ff5555555555555555555555555555555555555555555555555555555555555568812858912161662001e3e5762001da290600288600c02910162001ac4565b986031600160ff1b018112821662001e3e57819060301901809504606411848613161662001e2b577ffeb851eb851eb851eb851eb851eb851eb851eb851eb851eb851eb851eb851eb98412838512161662001e1857505062001e13929162001e0d9160640262001a18565b62001a18565b929190565b634e487b7160e01b825260119052602490fd5b634e487b7160e01b835260118252602483fd5b634e487b7160e01b845260118352602484fd5b634e487b7160e01b865260118552602486fd5b634e487b7160e01b855260118452602485fd5b634e487b7160e01b835260118552602483fd5b634e487b7160e01b815260118352602490fd5b634e487b7160e01b85526011600452602485fd5b634e487b7160e01b89526011600452602489fd5b634e487b7160e01b88526011600452602488fd5b634e487b7160e01b87526011600452602487fd5b9291926107b2811062000c3957600191617d4b600160ff1b01851283166200198c576000918281128015926001600160ff1b03929182840391906112c0838113871662001ec557600160ff1b85900390818112831662001eb15762001f7498999a9b62001f879162001f7a60049b8c92600c62001f6a8a62001aab565b05908b0162001a18565b62001a45565b0590617d4a190162001a18565b6002600160ff1b0184128b166200215757600c62001fa58562001aab565b058b7f0aaaaaaaaaaaaaaaaaaaaaaaaaaaaaaaaaaaaaaaaaaaaaaaaaaaaaaaaaaaaaaa82118c8313161662002144578b7ff55555555555555555555555555555555555555555555555555555555555555682128c8312161662002144576200201590600c02600119860162001ac4565b61016f8c828a0482118d8413161662002131578c7fffa6b6c1eb12d573186a06f9b8d9a287530217b7747d8eff4d6d83d625aae63183128d841216166200213157620020689291600c9102059062001a18565b96611324948513166200211e578312166200210b578792606492600c620020936200209c9462001aab565b05910162001a18565b05809204600311858313161662001e3e57847fd5555555555555555555555555555555555555555555555555555555555555568212858312161662001e3e579082620020ed92600302059062001ac4565b9262253d8c600160ff1b0184121662001e1857505062253d8b190190565b634e487b7160e01b875260118652602487fd5b634e487b7160e01b895260118852602489fd5b634e487b7160e01b8c5260118b5260248cfd5b634e487b7160e01b8b5260118a5260248bfd5b634e487b7160e01b8a526011895260248afd5b9060018114801562002233575b801562002228575b80156200221d575b801562002212575b801562002207575b8015620021fc575b15620021ac575050601f90565b600214620021ba5750601e90565b60038116159081620021ee575b8115620021e0575b5015620021db57601d90565b601c90565b6101909150061538620021cf565b6064810615159150620021c7565b50600c81146200219f565b50600a811462002197565b50600881146200218f565b506007811462002187565b50600581146200217f565b506003811462002177565b6000806200225162015180420462001aef565b50919081905b600382106200227a5750505050620022766127109160085490620019d6565b0490565b90919293620022a1908285526020600a815260409081872090888852528520549062001a0b565b93600180910192600c8411620022bd575b019291929062002257565b9250809101908092620022b2565b90620022f87f00000000000000000000000000000000000000000000000000000000000000004262001980565b60025460408051631d23a7ad60e01b81526004956001600160a01b039493851693602092919083838a81895afa9283156200262b57600093620025f4575b506102581015620025c95790829188959493876001541685519788809263a7e9f1c760e01b82525afa958615620025be5760009662002589575b50851515806200257f575b156200255357620023ad899262000f2883620023a662000ede8896620023a06200223e565b62001a0b565b9262001a0b565b96600654600052600b82528460002054168451928380926318160ddd60e01b82525afa9081156200254857908892916000916200250d575b50620023f28291620019a2565b9484519384809263d41ce4b160e01b82525afa92831562002503575090849291600092620024c9575b50506200242d906200243493620019ea565b93620019d6565b9064e8d4a510001990818311620024b45762002485906200247e64e8d4a510008095017f0000000000000000000000000000000000000000000000000000000000000000620019d6565b94620019d6565b9081116200249f576200249c9394500190620019ea565b90565b601185634e487b7160e01b6000525260246000fd5b601186634e487b7160e01b6000525260246000fd5b90809350813d8311620024fb575b620024e38183620018fe565b810103126200047d5750518290826200242d6200241b565b503d620024d7565b513d6000823e3d90fd5b9180935082813d831162002540575b620025288183620018fe565b810103126200047d575051879190620023f2620023e5565b503d6200251c565b83513d6000823e3d90fd5b507f00000000000000000000000000000000000000000000000000000000000000009750505050505050565b508115156200237b565b90958382813d8311620025b6575b620025a38183620018fe565b810103126200047d575051943862002370565b503d62002597565b84513d6000823e3d90fd5b507f000000000000000000000000000000000000000000000000000000000000000096505050505050565b90928482813d831162002623575b6200260e8183620018fe565b810103126200047d5750519161025862002336565b503d62002602565b85513d6000823e3d90fd5b156200263e57565b60405162461bcd60e51b815260206004820152600660248201526514185d5cd95960d21b6044820152606490fd5b60ff6009541615806200270f575b6200268157565b6001546001600160a01b0316803b1562000c395760008091602460405180948193631528244d60e11b83527f000000000000000000000000000000000000000000000000000000000000000060048401525af180156200270357620026f1575b50600160ff196009541617600955565b620026fc90620018d3565b38620026e1565b6040513d6000823e3d90fd5b506102586200273f7f00000000000000000000000000000000000000000000000000000000000000004262001980565b116200267a565b62989680116200275257565b604051630dc1588960e01b8152600490fd5b60001981146200198c5760010190565b67ffffffffffffffff8111620018e857601f01601f191660200190565b80156200285c57600081805b620028455750620027ae8162002774565b90620027be6040519283620018fe565b808252601f19620027cf8262002774565b013660208401375b8083156200283e57600181106200198c576000190192600a918282066030811981116200198c57855187101562002828570160f81b6001600160f81b03191660001a908401601f01530491620027d7565b634e487b7160e01b600052603260045260246000fd5b5050905090565b9062002853600a9162002764565b9104806200279d565b506040516040810181811067ffffffffffffffff821117620018e85760405260018152600360fc1b602082015290565b67ffffffffffffffff8111620018e85760051b60200190565b90620028b1826200288c565b620028c06040519182620018fe565b8281528092620028d3601f19916200288c565b0190602036910137565b8051821015620028285760209160051b010190565b90815180825260208080930193019160005b82811062002913575050505090565b8351855293810193928101926001016200290456fe6080604052346200038a5762000acf803803806200001d816200038f565b928339810160209182818303126200038a5780516001600160401b03918282116200038a570192601f908382860112156200038a5784518381116200027957601f199562000071828501881684016200038f565b958287528383830101116200038a578183916000905b8282106200037057501162000361575b50506040519460408601868110858211176200027957604052600686526505052492d4c560d41b82870152845184811162000279576000546001968782811c9216801562000356575b858310146200025857818684931162000300575b5084908683116001146200029b576000926200028f575b5050600019600383901b1c191690861b176000555b8551938411620002795784548581811c911680156200026e575b8382101462000258578381116200020d575b5081928411600114620001a95750508192936000926200019d575b5050600019600383901b1c191690821b1790555b600580546001600160a01b031916331790556040516107199081620003b68239f35b01519050388062000167565b6000858152828120918516969193925b878210620001f557505083859610620001db575b505050811b0190556200017b565b015160001960f88460031b161c19169055388080620001cd565b808785968294968601518155019501930190620001b9565b85600052826000208480870160051c8201928588106200024e575b0160051c019086905b828110620002415750506200014c565b6000815501869062000231565b9250819262000228565b634e487b7160e01b600052602260045260246000fd5b90607f16906200013a565b634e487b7160e01b600052604160045260246000fd5b0151905038806200010b565b90848994169160008052866000209260005b88828210620002e95750508411620002cf575b505050811b0160005562000120565b015160001960f88460031b161c19169055388080620002c0565b8385015186558c97909501949384019301620002ad565b90915060008052846000208680850160051c8201928786106200034c575b918a91869594930160051c01915b8281106200033c575050620000f4565b600081558594508a91016200032c565b925081926200031e565b91607f1691620000e0565b60009186010152388162000097565b92809250818401015182828a010152018290849262000087565b600080fd5b6040519190601f01601f191682016001600160401b03811183821017620002795760405256fe6080604081815260048036101561001557600080fd5b600092833560e01c90816306fdde031461050357508063095ea7b31461049557806318160ddd1461047657806323b872dd146103b2578063313ce5671461039657806340c10f191461030a57806370a08231146102d257806395d89b41146101ce5780639dc29fac1461015d578063a9059cbb146100e75763dd62ed3e1461009c57600080fd5b346100e357816003193601126100e35760209282916100b9610630565b6100c161064b565b6001600160a01b03918216845291865283832091168252845220549051908152f35b8280fd5b505034610159578060031936011261015957602091610104610630565b82602435913384526003865281842061011e8482546106a2565b90556001600160a01b0316808452600386529220805482019055825190815233906000805160206106c4833981519152908590a35160018152f35b5080fd5b50503461015957806003193601126101595781610178610630565b6000805160206106c483398151915260206024359260018060a01b03906101a482600554163314610661565b1692838552600382528585206101bb8282546106a2565b905580600254036002558551908152a351f35b5091903461015957816003193601126101595780519082600180549081811c908083169283156102c8575b60209384841081146102b5578388529081156102995750600114610261575b505050829003601f01601f191682019267ffffffffffffffff84118385101761024e575082918261024a9252826105d9565b0390f35b634e487b7160e01b815260418552602490fd5b809293508652828620918387935b8385106102855750505050830101388080610218565b80548886018301529301928490820161026f565b60ff1916878501525050151560051b8401019050388080610218565b634e487b7160e01b895260228a52602489fd5b91607f16916101f9565b5050346101595760203660031901126101595760209181906001600160a01b036102fa610630565b1681526003845220549051908152f35b50346100e357816003193601126100e357610323610630565b600554602435926001600160a01b0392916103419084163314610661565b6002549084198211610383575085926000805160206106c48339815191529285602093016002551693848452600382528584208181540190558551908152a351f35b634e487b7160e01b875260119052602486fd5b5050346101595781600319360112610159576020905160068152f35b509134610473576060366003190112610473576103cd610630565b6000805160206106c48339815191526103e461064b565b6001600160a01b0392831680855260208781528686203387528152868620549097919488936044359389938560018201610450575b505050868852600385528288206104318582546106a2565b9055169586815260038452208181540190558551908152a35160018152f35b610459916106a2565b90888a528652838920338a52865283892055388085610419565b80fd5b5050346101595781600319360112610159576020906002549051908152f35b50346100e357816003193601126100e3576020926104b1610630565b918360243592839233825287528181209460018060a01b0316948582528752205582519081527f8c5be1e5ebec7d5bd14f71427d1e84f3dd0314c0f7b2291e5b200ac8c7c3b925843392a35160018152f35b84915083346100e357826003193601126100e357828354600181811c908083169283156105cf575b60209384841081146102b5578388529081156105b3575060011461057b57505050829003601f01601f191682019267ffffffffffffffff84118385101761024e575082918261024a9252826105d9565b919250858052828620918387935b83851061059f5750505050830101858080610218565b805488860183015293019284908201610589565b60ff1916878501525050151560051b8401019050858080610218565b91607f169161052b565b919091602080825283519081818401526000945b82861061061a57505080604093941161060d575b601f01601f1916010190565b6000838284010152610601565b85810182015184870160400152948101946105ed565b600435906001600160a01b038216820361064657565b600080fd5b602435906001600160a01b038216820361064657565b1561066857565b60405162461bcd60e51b815260206004820152601260248201527113db9b1e481c1c9a5bdc9a5d1e481c1bdbdb60721b6044820152606490fd5b8181106106ad570390565b634e487b7160e01b600052601160045260246000fdfeddf252ad1be2c89b69c2b068fc378daa952ba7f163c4a11628f55a4df523b3efa2646970667358221220457463749c40606c29434b8f83b562f4f09ea8bf702430122a1c45df4c76ffb564736f6c634300080f00335bc145acec26384dc09c6269c9e569c69db21ad88cbd81319958b05998b83b5ba26469706673582212203ba0ab73c2704456dde60f10512b7cf6ee705e721fc790d2a8f84036eb838d6c64736f6c634300080f00336080604052346200038a5762000acf803803806200001d816200038f565b928339810160209182818303126200038a5780516001600160401b03918282116200038a570192601f908382860112156200038a5784518381116200027957601f199562000071828501881684016200038f565b958287528383830101116200038a578183916000905b8282106200037057501162000361575b50506040519460408601868110858211176200027957604052600686526505052492d4c560d41b82870152845184811162000279576000546001968782811c9216801562000356575b858310146200025857818684931162000300575b5084908683116001146200029b576000926200028f575b5050600019600383901b1c191690861b176000555b8551938411620002795784548581811c911680156200026e575b8382101462000258578381116200020d575b5081928411600114620001a95750508192936000926200019d575b5050600019600383901b1c191690821b1790555b600580546001600160a01b031916331790556040516107199081620003b68239f35b01519050388062000167565b6000858152828120918516969193925b878210620001f557505083859610620001db575b505050811b0190556200017b565b015160001960f88460031b161c19169055388080620001cd565b808785968294968601518155019501930190620001b9565b85600052826000208480870160051c8201928588106200024e575b0160051c019086905b828110620002415750506200014c565b6000815501869062000231565b9250819262000228565b634e487b7160e01b600052602260045260246000fd5b90607f16906200013a565b634e487b7160e01b600052604160045260246000fd5b0151905038806200010b565b90848994169160008052866000209260005b88828210620002e95750508411620002cf575b505050811b0160005562000120565b015160001960f88460031b161c19169055388080620002c0565b8385015186558c97909501949384019301620002ad565b90915060008052846000208680850160051c8201928786106200034c575b918a91869594930160051c01915b8281106200033c575050620000f4565b600081558594508a91016200032c565b925081926200031e565b91607f1691620000e0565b60009186010152388162000097565b92809250818401015182828a010152018290849262000087565b600080fd5b6040519190601f01601f191682016001600160401b03811183821017620002795760405256fe6080604081815260048036101561001557600080fd5b600092833560e01c90816306fdde031461050357508063095ea7b31461049557806318160ddd1461047657806323b872dd146103b2578063313ce5671461039657806340c10f191461030a57806370a08231146102d257806395d89b41146101ce5780639dc29fac1461015d578063a9059cbb146100e75763dd62ed3e1461009c57600080fd5b346100e357816003193601126100e35760209282916100b9610630565b6100c161064b565b6001600160a01b03918216845291865283832091168252845220549051908152f35b8280fd5b505034610159578060031936011261015957602091610104610630565b82602435913384526003865281842061011e8482546106a2565b90556001600160a01b0316808452600386529220805482019055825190815233906000805160206106c4833981519152908590a35160018152f35b5080fd5b50503461015957806003193601126101595781610178610630565b6000805160206106c483398151915260206024359260018060a01b03906101a482600554163314610661565b1692838552600382528585206101bb8282546106a2565b905580600254036002558551908152a351f35b5091903461015957816003193601126101595780519082600180549081811c908083169283156102c8575b60209384841081146102b5578388529081156102995750600114610261575b505050829003601f01601f191682019267ffffffffffffffff84118385101761024e575082918261024a9252826105d9565b0390f35b634e487b7160e01b815260418552602490fd5b809293508652828620918387935b8385106102855750505050830101388080610218565b80548886018301529301928490820161026f565b60ff1916878501525050151560051b8401019050388080610218565b634e487b7160e01b895260228a52602489fd5b91607f16916101f9565b5050346101595760203660031901126101595760209181906001600160a01b036102fa610630565b1681526003845220549051908152f35b50346100e357816003193601126100e357610323610630565b600554602435926001600160a01b0392916103419084163314610661565b6002549084198211610383575085926000805160206106c48339815191529285602093016002551693848452600382528584208181540190558551908152a351f35b634e487b7160e01b875260119052602486fd5b5050346101595781600319360112610159576020905160068152f35b509134610473576060366003190112610473576103cd610630565b6000805160206106c48339815191526103e461064b565b6001600160a01b0392831680855260208781528686203387528152868620549097919488936044359389938560018201610450575b505050868852600385528288206104318582546106a2565b9055169586815260038452208181540190558551908152a35160018152f35b610459916106a2565b90888a528652838920338a52865283892055388085610419565b80fd5b5050346101595781600319360112610159576020906002549051908152f35b50346100e357816003193601126100e3576020926104b1610630565b918360243592839233825287528181209460018060a01b0316948582528752205582519081527f8c5be1e5ebec7d5bd14f71427d1e84f3dd0314c0f7b2291e5b200ac8c7c3b925843392a35160018152f35b84915083346100e357826003193601126100e357828354600181811c908083169283156105cf575b60209384841081146102b5578388529081156105b3575060011461057b57505050829003601f01601f191682019267ffffffffffffffff84118385101761024e575082918261024a9252826105d9565b919250858052828620918387935b83851061059f5750505050830101858080610218565b805488860183015293019284908201610589565b60ff1916878501525050151560051b8401019050858080610218565b91607f169161052b565b919091602080825283519081818401526000945b82861061061a57505080604093941161060d575b601f01601f1916010190565b6000838284010152610601565b85810182015184870160400152948101946105ed565b600435906001600160a01b038216820361064657565b600080fd5b602435906001600160a01b038216820361064657565b1561066857565b60405162461bcd60e51b815260206004820152601260248201527113db9b1e481c1c9a5bdc9a5d1e481c1bdbdb60721b6044820152606490fd5b8181106106ad570390565b634e487b7160e01b600052601160045260246000fdfeddf252ad1be2c89b69c2b068fc378daa952ba7f163c4a11628f55a4df523b3efa2646970667358221220457463749c40606c29434b8f83b562f4f09ea8bf702430122a1c45df4c76ffb564736f6c634300080f0033036b6384b5eca791c62761152d0c79bb0604c104a5fb6f4eb0703f3154bb3db0a26469706673582212204f412aab5c84ff742ffe61e77bdac8bb5546189c424a98b361354366ae2efda664736f6c634300080f0033",
  "devdoc": {
    "kind": "dev",
    "methods": {
      "deployPool(uint256,string,address,uint256,uint256)": {
        "params": {
          "_basePremiumRatio": "Initial policy price per shield",
          "_maxCapacity": "Maximum capacity of the pool",
          "_name": "Name of the protocol",
          "_protocolToken": "Address of the token used for the protocol"
        },
        "returns": {
          "_0": "address Address of the new insurance pool"
        }
      }
    },
    "version": 1
  },
  "userdoc": {
    "kind": "user",
    "methods": {
      "deployPool(uint256,string,address,uint256,uint256)": {
        "notice": "Create a new priority pool         Called by executor when an onboard proposal has passed"
      }
    },
    "version": 1
  },
  "storageLayout": {
    "storage": [
      {
        "astId": 52,
        "contract": "src/pools/priorityPool/PriorityPoolDeployer.sol:PriorityPoolDeployer",
        "label": "_initialized",
        "offset": 0,
        "slot": "0",
        "type": "t_uint8"
      },
      {
        "astId": 55,
        "contract": "src/pools/priorityPool/PriorityPoolDeployer.sol:PriorityPoolDeployer",
        "label": "_initializing",
        "offset": 1,
        "slot": "0",
        "type": "t_bool"
      },
      {
        "astId": 18986,
        "contract": "src/pools/priorityPool/PriorityPoolDeployer.sol:PriorityPoolDeployer",
        "label": "owner",
        "offset": 2,
        "slot": "0",
        "type": "t_address"
      },
      {
        "astId": 18988,
        "contract": "src/pools/priorityPool/PriorityPoolDeployer.sol:PriorityPoolDeployer",
        "label": "priorityPoolFactory",
        "offset": 0,
        "slot": "1",
        "type": "t_address"
      },
      {
        "astId": 18990,
        "contract": "src/pools/priorityPool/PriorityPoolDeployer.sol:PriorityPoolDeployer",
        "label": "weightedFarmingPool",
        "offset": 0,
        "slot": "2",
        "type": "t_address"
      },
      {
        "astId": 18992,
        "contract": "src/pools/priorityPool/PriorityPoolDeployer.sol:PriorityPoolDeployer",
        "label": "protectionPool",
        "offset": 0,
        "slot": "3",
        "type": "t_address"
      },
      {
        "astId": 18994,
        "contract": "src/pools/priorityPool/PriorityPoolDeployer.sol:PriorityPoolDeployer",
        "label": "policyCenter",
        "offset": 0,
        "slot": "4",
        "type": "t_address"
      },
      {
        "astId": 18996,
        "contract": "src/pools/priorityPool/PriorityPoolDeployer.sol:PriorityPoolDeployer",
        "label": "payoutPool",
        "offset": 0,
        "slot": "5",
        "type": "t_address"
      }
    ],
    "types": {
      "t_address": {
        "encoding": "inplace",
        "label": "address",
        "numberOfBytes": "20"
      },
      "t_bool": {
        "encoding": "inplace",
        "label": "bool",
        "numberOfBytes": "1"
      },
      "t_uint8": {
        "encoding": "inplace",
        "label": "uint8",
        "numberOfBytes": "1"
      }
    }
  }
}