{
  "address": "0x3Aa5ebB10DC797CAC828524e59A333d0A371443c",
  "abi": [
    {
      "inputs": [],
      "name": "Treasury__OnlyExecutor",
      "type": "error"
    },
    {
      "inputs": [],
      "name": "Treasury__OnlyOwner",
      "type": "error"
    },
    {
      "inputs": [],
      "name": "Treasury__OnlyPolicyCenter",
      "type": "error"
    },
    {
      "anonymous": false,
      "inputs": [
        {
          "indexed": false,
          "internalType": "uint256",
          "name": "amount",
          "type": "uint256"
        }
      ],
      "name": "ClaimedByOwner",
      "type": "event"
    },
    {
      "anonymous": false,
      "inputs": [
        {
          "indexed": false,
          "internalType": "uint8",
          "name": "version",
          "type": "uint8"
        }
      ],
      "name": "Initialized",
      "type": "event"
    },
    {
      "anonymous": false,
      "inputs": [
        {
          "indexed": true,
          "internalType": "uint256",
          "name": "poolId",
          "type": "uint256"
        },
        {
          "indexed": false,
          "internalType": "uint256",
          "name": "amount",
          "type": "uint256"
        }
      ],
      "name": "NewIncomeToTreasury",
      "type": "event"
    },
    {
      "anonymous": false,
      "inputs": [
        {
          "indexed": true,
          "internalType": "address",
          "name": "reporter",
          "type": "address"
        },
        {
          "indexed": false,
          "internalType": "uint256",
          "name": "amount",
          "type": "uint256"
        }
      ],
      "name": "ReporterRewarded",
      "type": "event"
    },
    {
      "inputs": [],
      "name": "REPORTER_REWARD",
      "outputs": [
        {
          "internalType": "uint256",
          "name": "",
          "type": "uint256"
        }
      ],
      "stateMutability": "view",
      "type": "function"
    },
    {
      "inputs": [
        {
          "internalType": "uint256",
          "name": "_amount",
          "type": "uint256"
        }
      ],
      "name": "claim",
      "outputs": [],
      "stateMutability": "nonpayable",
      "type": "function"
    },
    {
      "inputs": [],
      "name": "executor",
      "outputs": [
        {
          "internalType": "address",
          "name": "",
          "type": "address"
        }
      ],
      "stateMutability": "view",
      "type": "function"
    },
    {
      "inputs": [
        {
          "internalType": "address",
          "name": "_shield",
          "type": "address"
        },
        {
          "internalType": "address",
          "name": "_executor",
          "type": "address"
        },
        {
          "internalType": "address",
          "name": "_policyCenter",
          "type": "address"
        }
      ],
      "name": "initialize",
      "outputs": [],
      "stateMutability": "nonpayable",
      "type": "function"
    },
    {
      "inputs": [],
      "name": "owner",
      "outputs": [
        {
          "internalType": "address",
          "name": "",
          "type": "address"
        }
      ],
      "stateMutability": "view",
      "type": "function"
    },
    {
      "inputs": [],
      "name": "policyCenter",
      "outputs": [
        {
          "internalType": "address",
          "name": "",
          "type": "address"
        }
      ],
      "stateMutability": "view",
      "type": "function"
    },
    {
      "inputs": [
        {
          "internalType": "uint256",
          "name": "",
          "type": "uint256"
        }
      ],
      "name": "poolIncome",
      "outputs": [
        {
          "internalType": "uint256",
          "name": "",
          "type": "uint256"
        }
      ],
      "stateMutability": "view",
      "type": "function"
    },
    {
      "inputs": [
        {
          "internalType": "uint256",
          "name": "_poolId",
          "type": "uint256"
        },
        {
          "internalType": "uint256",
          "name": "_amount",
          "type": "uint256"
        }
      ],
      "name": "premiumIncome",
      "outputs": [],
      "stateMutability": "nonpayable",
      "type": "function"
    },
    {
      "inputs": [
        {
          "internalType": "uint256",
          "name": "_poolId",
          "type": "uint256"
        },
        {
          "internalType": "address",
          "name": "_reporter",
          "type": "address"
        }
      ],
      "name": "rewardReporter",
      "outputs": [],
      "stateMutability": "nonpayable",
      "type": "function"
    },
    {
      "inputs": [],
      "name": "shield",
      "outputs": [
        {
          "internalType": "address",
          "name": "",
          "type": "address"
        }
      ],
      "stateMutability": "view",
      "type": "function"
    }
  ],
  "transactionHash": "0xd8d665a6d68b1ba286b70edf6e3b28562fb7be9bf420ee591d7dd56b92d76968",
  "args": [],
  "numDeployments": 1,
  "solcInputHash": "9adb185ce183f0c34c6de7634914d5fd",
  "bytecode": "0x6080806040523461001657610681908161001c8239f35b600080fdfe608060408181526004918236101561001657600080fd5b600092833560e01c9182630627c88b146104aa57508163379607f5146103ba5781635b97d3671461032557816370d39cff146102fc5781638da5cb5b146102d3578163c0c53b8b14610131578163c34c08e514610105578163d5647cc7146100da57508063e8adbf2f146100b25763fd1238061461009357600080fd5b346100ae57816003193601126100ae57602090516103e88152f35b5080fd5b50346100ae57816003193601126100ae5760015490516001600160a01b039091168152602090f35b90503461010157602036600319011261010157602092818392358252845220549051908152f35b8280fd5b5050346100ae57816003193601126100ae579054905160109190911c6001600160a01b03168152602090f35b905034610101576060366003190112610101576001600160a01b0390803582811691908290036102cf576101636105e0565b916044359384168094036102cb57855460ff8160081c1615928380946102be575b80156102a7575b1561024d575060ff19811660011787558261023c575b50855462010000600160b01b0319811660109490941b62010000600160b01b03169384178755600280546001600160a01b0319908116909317905560018054831690951790945560038054909116331790559091906101ff57505051f35b610100600160b01b0319161782558051600181527f7f26b83ff96e1f2b6a682f133852f6798a09c465da95921460cefb384740249890602090a151f35b61ffff1916610101178655386101a1565b608490602088519162461bcd60e51b8352820152602e60248201527f496e697469616c697a61626c653a20636f6e747261637420697320616c72656160448201526d191e481a5b9a5d1a585b1a5e995960921b6064820152fd5b50303b15801561018b5750600160ff83161461018b565b50600160ff831610610184565b8580fd5b8480fd5b5050346100ae57816003193601126100ae5760035490516001600160a01b039091168152602090f35b5050346100ae57816003193601126100ae5760025490516001600160a01b039091168152602090f35b905034610101578160031936011261010157600154813591602435916001600160a01b031633036103ac5782855280602052838520908154908319821161039957508201905582519081527fbcdf08e43ded44076dd939f7e98f8bc0059c0b6e8bbc9a1c83a62432c43a739190602090a251f35b634e487b7160e01b875260119052602486fd5b8351636e9bc02b60e01b8152fd5b90503461010157602036600319011261010157600354813591906001600160a01b03908116903382900361049a57600254855163a9059cbb60e01b81526001600160a01b039390931693830193845260208085018690529294938592908390036040019183918991165af190811561048d577f150afe1a4f039206f87a38d65a16f6a7c76f285e29a4b2b5eab4e8a917b40ca192602092610460575b508351908152a151f35b61047f90833d8111610486575b61047781836105fb565b810190610633565b5038610456565b503d61046d565b50505051903d90823e3d90fd5b8451630396784360e51b81528390fd5b838591346101015781600319360112610101578335906104c86105e0565b845490916001600160a01b039160101c821633036105d25750828552602091868352848620546103e89080600019048211811515166105bf579061271091020493865286835284862080548581106105bf578590039055600254855163a9059cbb60e01b81526001600160a01b03831698810198895260208901869052969795969495849186918290036040019082908b9087165af19384156105b5577fc8ae12e13c66cfdc817755aaebcef528a42f8e59ac8ece9bc1e61625f752094d94610598575b5085519485521692a251f35b6105ae90843d86116104865761047781836105fb565b508761058c565b86513d89823e3d90fd5b634e487b7160e01b885260118952602488fd5b632051b72b60e11b81528690fd5b602435906001600160a01b03821682036105f657565b600080fd5b90601f8019910116810190811067ffffffffffffffff82111761061d57604052565b634e487b7160e01b600052604160045260246000fd5b908160209103126105f6575180151581036105f6579056fea26469706673582212204da3916231df04972354efbe485cda108f744206f57e802b6629efc699e1adcb64736f6c634300080f0033",
  "devdoc": {
    "kind": "dev",
    "methods": {
      "claim(uint256)": {
        "params": {
          "_amount": "Amount to claim"
        }
      },
      "premiumIncome(uint256,uint256)": {
        "params": {
          "_amount": "Premium amount (shield)",
          "_poolId": "Pool id"
        }
      },
      "rewardReporter(uint256,address)": {
        "params": {
          "_poolId": "Pool id",
          "_reporter": "Reporter address"
        }
      }
    },
    "version": 1
  },
  "userdoc": {
    "kind": "user",
    "methods": {
      "claim(uint256)": {
        "notice": "Claim shield by the owner"
      },
      "premiumIncome(uint256,uint256)": {
        "notice": "Record when receiving new premium income         Only called from policy center"
      },
      "rewardReporter(uint256,address)": {
        "notice": "Reward the correct reporter         Part of the priority pool income will be given to the reporter         Only called from executor when executing a report"
      }
    },
    "notice": "Treasury Contract         Treasury will receive 5% of the premium income (Shield) from policyCenter.         They are counted as different pools.         When a reporter gives a correct report (passed voting and executed),         he will get 10% of the income of that project pool.",
    "version": 1
  },
  "storageLayout": {
    "storage": [
      {
        "astId": 52,
        "contract": "src/reward/treasury/Treasury.sol:Treasury",
        "label": "_initialized",
        "offset": 0,
        "slot": "0",
        "type": "t_uint8"
      },
      {
        "astId": 55,
        "contract": "src/reward/treasury/Treasury.sol:Treasury",
        "label": "_initializing",
        "offset": 1,
        "slot": "0",
        "type": "t_bool"
      },
      {
        "astId": 23066,
        "contract": "src/reward/treasury/Treasury.sol:Treasury",
        "label": "executor",
        "offset": 2,
        "slot": "0",
        "type": "t_address"
      },
      {
        "astId": 23068,
        "contract": "src/reward/treasury/Treasury.sol:Treasury",
        "label": "policyCenter",
        "offset": 0,
        "slot": "1",
        "type": "t_address"
      },
      {
        "astId": 23070,
        "contract": "src/reward/treasury/Treasury.sol:Treasury",
        "label": "shield",
        "offset": 0,
        "slot": "2",
        "type": "t_address"
      },
      {
        "astId": 22926,
        "contract": "src/reward/treasury/Treasury.sol:Treasury",
        "label": "owner",
        "offset": 0,
        "slot": "3",
        "type": "t_address"
      },
      {
        "astId": 22930,
        "contract": "src/reward/treasury/Treasury.sol:Treasury",
        "label": "poolIncome",
        "offset": 0,
        "slot": "4",
        "type": "t_mapping(t_uint256,t_uint256)"
      }
    ],
    "types": {
      "t_address": {
        "encoding": "inplace",
        "label": "address",
        "numberOfBytes": "20"
      },
      "t_bool": {
        "encoding": "inplace",
        "label": "bool",
        "numberOfBytes": "1"
      },
      "t_mapping(t_uint256,t_uint256)": {
        "encoding": "mapping",
        "key": "t_uint256",
        "label": "mapping(uint256 => uint256)",
        "numberOfBytes": "32",
        "value": "t_uint256"
      },
      "t_uint256": {
        "encoding": "inplace",
        "label": "uint256",
        "numberOfBytes": "32"
      },
      "t_uint8": {
        "encoding": "inplace",
        "label": "uint8",
        "numberOfBytes": "1"
      }
    }
  }
}