{
  "address": "0x322813Fd9A801c5507c9de605d63CEA4f2CE6c44",
  "abi": [
    {
      "inputs": [],
      "name": "WeightedFarmingPool__AlreadySupported",
      "type": "error"
    },
    {
      "inputs": [],
      "name": "WeightedFarmingPool__InexistentPool",
      "type": "error"
    },
    {
      "inputs": [],
      "name": "WeightedFarmingPool__NoPendingRewards",
      "type": "error"
    },
    {
      "inputs": [],
      "name": "WeightedFarmingPool__NotEnoughAmount",
      "type": "error"
    },
    {
      "inputs": [],
      "name": "WeightedFarmingPool__NotInPool",
      "type": "error"
    },
    {
      "inputs": [],
      "name": "WeightedFarmingPool__OnlyPolicyCenter",
      "type": "error"
    },
    {
      "inputs": [],
      "name": "WeightedFarmingPool__WrongDateLength",
      "type": "error"
    },
    {
      "inputs": [],
      "name": "WeightedFarmingPool__WrongWeightLength",
      "type": "error"
    },
    {
      "inputs": [],
      "name": "WeightedFarmingPool__ZeroAmount",
      "type": "error"
    },
    {
      "anonymous": false,
      "inputs": [
        {
          "indexed": false,
          "internalType": "uint256",
          "name": "poolId",
          "type": "uint256"
        },
        {
          "indexed": false,
          "internalType": "address",
          "name": "user",
          "type": "address"
        },
        {
          "indexed": false,
          "internalType": "address",
          "name": "receiver",
          "type": "address"
        },
        {
          "indexed": false,
          "internalType": "uint256",
          "name": "reward",
          "type": "uint256"
        }
      ],
      "name": "Harvest",
      "type": "event"
    },
    {
      "anonymous": false,
      "inputs": [
        {
          "indexed": false,
          "internalType": "uint8",
          "name": "version",
          "type": "uint8"
        }
      ],
      "name": "Initialized",
      "type": "event"
    },
    {
      "anonymous": false,
      "inputs": [
        {
          "indexed": false,
          "internalType": "uint256",
          "name": "poolId",
          "type": "uint256"
        },
        {
          "indexed": false,
          "internalType": "address",
          "name": "token",
          "type": "address"
        },
        {
          "indexed": false,
          "internalType": "uint256",
          "name": "weight",
          "type": "uint256"
        }
      ],
      "name": "NewTokenAdded",
      "type": "event"
    },
    {
      "anonymous": false,
      "inputs": [
        {
          "indexed": false,
          "internalType": "uint256",
          "name": "poolId",
          "type": "uint256"
        },
        {
          "indexed": false,
          "internalType": "address",
          "name": "token",
          "type": "address"
        }
      ],
      "name": "PoolAdded",
      "type": "event"
    },
    {
      "anonymous": false,
      "inputs": [
        {
          "indexed": false,
          "internalType": "uint256",
          "name": "poolId",
          "type": "uint256"
        },
        {
          "indexed": false,
          "internalType": "uint256",
          "name": "accRewardPerShare",
          "type": "uint256"
        }
      ],
      "name": "PoolUpdated",
      "type": "event"
    },
    {
      "anonymous": false,
      "inputs": [
        {
          "indexed": false,
          "internalType": "uint256",
          "name": "poolId",
          "type": "uint256"
        }
      ],
      "name": "WeightChanged",
      "type": "event"
    },
    {
      "inputs": [],
      "name": "SCALE",
      "outputs": [
        {
          "internalType": "uint256",
          "name": "",
          "type": "uint256"
        }
      ],
      "stateMutability": "view",
      "type": "function"
    },
    {
      "inputs": [
        {
          "internalType": "address",
          "name": "_rewardToken",
          "type": "address"
        }
      ],
      "name": "addPool",
      "outputs": [],
      "stateMutability": "nonpayable",
      "type": "function"
    },
    {
      "inputs": [
        {
          "internalType": "uint256",
          "name": "_id",
          "type": "uint256"
        },
        {
          "internalType": "address",
          "name": "_token",
          "type": "address"
        },
        {
          "internalType": "uint256",
          "name": "_weight",
          "type": "uint256"
        }
      ],
      "name": "addToken",
      "outputs": [],
      "stateMutability": "nonpayable",
      "type": "function"
    },
    {
      "inputs": [],
      "name": "counter",
      "outputs": [
        {
          "internalType": "uint256",
          "name": "",
          "type": "uint256"
        }
      ],
      "stateMutability": "view",
      "type": "function"
    },
    {
      "inputs": [
        {
          "internalType": "uint256",
          "name": "_id",
          "type": "uint256"
        },
        {
          "internalType": "address",
          "name": "_token",
          "type": "address"
        },
        {
          "internalType": "uint256",
          "name": "_amount",
          "type": "uint256"
        },
        {
          "internalType": "address",
          "name": "_user",
          "type": "address"
        }
      ],
      "name": "deposit",
      "outputs": [],
      "stateMutability": "nonpayable",
      "type": "function"
    },
    {
      "inputs": [
        {
          "internalType": "uint256",
          "name": "_id",
          "type": "uint256"
        },
        {
          "internalType": "address",
          "name": "_token",
          "type": "address"
        },
        {
          "internalType": "uint256",
          "name": "_amount",
          "type": "uint256"
        },
        {
          "internalType": "address",
          "name": "_user",
          "type": "address"
        }
      ],
      "name": "depositFromPolicyCenter",
      "outputs": [],
      "stateMutability": "nonpayable",
      "type": "function"
    },
    {
      "inputs": [
        {
          "internalType": "uint256",
          "name": "_poolId",
          "type": "uint256"
        }
      ],
      "name": "getPoolArrays",
      "outputs": [
        {
          "internalType": "address[]",
          "name": "",
          "type": "address[]"
        },
        {
          "internalType": "uint256[]",
          "name": "",
          "type": "uint256[]"
        },
        {
          "internalType": "uint256[]",
          "name": "",
          "type": "uint256[]"
        }
      ],
      "stateMutability": "view",
      "type": "function"
    },
    {
      "inputs": [
        {
          "internalType": "uint256",
          "name": "_poolId",
          "type": "uint256"
        },
        {
          "internalType": "address",
          "name": "_user",
          "type": "address"
        }
      ],
      "name": "getUserLPAmount",
      "outputs": [
        {
          "internalType": "uint256[]",
          "name": "",
          "type": "uint256[]"
        }
      ],
      "stateMutability": "view",
      "type": "function"
    },
    {
      "inputs": [
        {
          "internalType": "uint256",
          "name": "_id",
          "type": "uint256"
        },
        {
          "internalType": "address",
          "name": "_to",
          "type": "address"
        }
      ],
      "name": "harvest",
      "outputs": [],
      "stateMutability": "nonpayable",
      "type": "function"
    },
    {
      "inputs": [
        {
          "internalType": "address",
          "name": "_policyCenter",
          "type": "address"
        },
        {
          "internalType": "address",
          "name": "_priorityPoolFactory",
          "type": "address"
        }
      ],
      "name": "initialize",
      "outputs": [],
      "stateMutability": "nonpayable",
      "type": "function"
    },
    {
      "inputs": [
        {
          "internalType": "uint256",
          "name": "_id",
          "type": "uint256"
        },
        {
          "internalType": "address",
          "name": "_user",
          "type": "address"
        }
      ],
      "name": "pendingReward",
      "outputs": [
        {
          "internalType": "uint256",
          "name": "pending",
          "type": "uint256"
        }
      ],
      "stateMutability": "view",
      "type": "function"
    },
    {
      "inputs": [],
      "name": "policyCenter",
      "outputs": [
        {
          "internalType": "address",
          "name": "",
          "type": "address"
        }
      ],
      "stateMutability": "view",
      "type": "function"
    },
    {
      "inputs": [
        {
          "internalType": "uint256",
          "name": "",
          "type": "uint256"
        }
      ],
      "name": "pools",
      "outputs": [
        {
          "internalType": "uint256",
          "name": "shares",
          "type": "uint256"
        },
        {
          "internalType": "address",
          "name": "rewardToken",
          "type": "address"
        },
        {
          "internalType": "uint256",
          "name": "lastRewardTimestamp",
          "type": "uint256"
        },
        {
          "internalType": "uint256",
          "name": "accRewardPerShare",
          "type": "uint256"
        }
      ],
      "stateMutability": "view",
      "type": "function"
    },
    {
      "inputs": [],
      "name": "priorityPoolFactory",
      "outputs": [
        {
          "internalType": "address",
          "name": "",
          "type": "address"
        }
      ],
      "stateMutability": "view",
      "type": "function"
    },
    {
      "inputs": [
        {
          "internalType": "address",
          "name": "_policyCenter",
          "type": "address"
        }
      ],
      "name": "setPolicyCenter",
      "outputs": [],
      "stateMutability": "nonpayable",
      "type": "function"
    },
    {
      "inputs": [
        {
          "internalType": "address",
          "name": "_priorityPoolFactory",
          "type": "address"
        }
      ],
      "name": "setPriorityPoolFactory",
      "outputs": [],
      "stateMutability": "nonpayable",
      "type": "function"
    },
    {
      "inputs": [
        {
          "internalType": "uint256",
          "name": "_id",
          "type": "uint256"
        },
        {
          "internalType": "uint256[]",
          "name": "_weights",
          "type": "uint256[]"
        }
      ],
      "name": "setWeight",
      "outputs": [],
      "stateMutability": "nonpayable",
      "type": "function"
    },
    {
      "inputs": [
        {
          "internalType": "uint256",
          "name": "",
          "type": "uint256"
        },
        {
          "internalType": "uint256",
          "name": "",
          "type": "uint256"
        },
        {
          "internalType": "uint256",
          "name": "",
          "type": "uint256"
        }
      ],
      "name": "speed",
      "outputs": [
        {
          "internalType": "uint256",
          "name": "",
          "type": "uint256"
        }
      ],
      "stateMutability": "view",
      "type": "function"
    },
    {
      "inputs": [
        {
          "internalType": "bytes32",
          "name": "",
          "type": "bytes32"
        }
      ],
      "name": "supported",
      "outputs": [
        {
          "internalType": "bool",
          "name": "",
          "type": "bool"
        }
      ],
      "stateMutability": "view",
      "type": "function"
    },
    {
      "inputs": [
        {
          "internalType": "uint256",
          "name": "_id",
          "type": "uint256"
        }
      ],
      "name": "updatePool",
      "outputs": [],
      "stateMutability": "nonpayable",
      "type": "function"
    },
    {
      "inputs": [
        {
          "internalType": "uint256",
          "name": "_id",
          "type": "uint256"
        },
        {
          "internalType": "uint256",
          "name": "_newSpeed",
          "type": "uint256"
        },
        {
          "internalType": "uint256[]",
          "name": "_years",
          "type": "uint256[]"
        },
        {
          "internalType": "uint256[]",
          "name": "_months",
          "type": "uint256[]"
        }
      ],
      "name": "updateRewardSpeed",
      "outputs": [],
      "stateMutability": "nonpayable",
      "type": "function"
    },
    {
      "inputs": [
        {
          "internalType": "uint256",
          "name": "_id",
          "type": "uint256"
        },
        {
          "internalType": "address",
          "name": "_token",
          "type": "address"
        },
        {
          "internalType": "uint256",
          "name": "_newWeight",
          "type": "uint256"
        }
      ],
      "name": "updateWeight",
      "outputs": [],
      "stateMutability": "nonpayable",
      "type": "function"
    },
    {
      "inputs": [
        {
          "internalType": "uint256",
          "name": "",
          "type": "uint256"
        },
        {
          "internalType": "address",
          "name": "",
          "type": "address"
        }
      ],
      "name": "users",
      "outputs": [
        {
          "internalType": "uint256",
          "name": "shares",
          "type": "uint256"
        },
        {
          "internalType": "uint256",
          "name": "rewardDebt",
          "type": "uint256"
        }
      ],
      "stateMutability": "view",
      "type": "function"
    },
    {
      "inputs": [
        {
          "internalType": "uint256",
          "name": "_id",
          "type": "uint256"
        },
        {
          "internalType": "address",
          "name": "_token",
          "type": "address"
        },
        {
          "internalType": "uint256",
          "name": "_amount",
          "type": "uint256"
        }
      ],
      "name": "withdraw",
      "outputs": [],
      "stateMutability": "nonpayable",
      "type": "function"
    },
    {
      "inputs": [
        {
          "internalType": "uint256",
          "name": "_id",
          "type": "uint256"
        },
        {
          "internalType": "address",
          "name": "_token",
          "type": "address"
        },
        {
          "internalType": "uint256",
          "name": "_amount",
          "type": "uint256"
        },
        {
          "internalType": "address",
          "name": "_user",
          "type": "address"
        }
      ],
      "name": "withdrawFromPolicyCenter",
      "outputs": [],
      "stateMutability": "nonpayable",
      "type": "function"
    }
  ],
  "transactionHash": "0x0d6ed9bd344e087f576c82018094862fc28a0fedd488d150038b9e0eda6c3222",
  "args": [],
  "numDeployments": 1,
  "solcInputHash": "c5ac15ec9bf1ccc6a448dc6f0fd95e9a",
  "bytecode": "0x6080806040523461001657612543908161001c8239f35b600080fdfe608080604052600436101561001357600080fd5b60003560e01c9081630c7394c914610f0d5750806318fccc7614610e275780632dd57bb014610de5578063341922c114610d1b5780633593aa9214610c6b578063485cc95514610af657806351eb05a614610ada5780635a1635e414610aab57806361bc221a14610a8d5780636f8a6e4314610a645780637193f2f014610a3357806398969e8214610700578063a4b5909414610617578063ac4afa38146105be578063ad35e1dc14610584578063b425f92614610543578063b9d02df4146104ef578063c65323f1146104b1578063cd88af6e1461041d578063d914cd4b14610378578063e63697c81461035d578063e8adbf2f14610330578063eced552614610310578063fee0833e146102b05763ffb7cf621461013257600080fd5b346102ab5761014036611070565b9091604051916020938484019383855260018060a01b0394858316926bffffffffffffffffffffffff199060601b16604083015260348252606082019180831067ffffffffffffffff841117610286578260405251902090816000526006875260ff6040600020541661029c57506000908152600686526040808220805460ff191660011790558482526003875290208054600160401b95918682101561028657816101f291600186940181556119d9565b909283549160031b90811b9283911b169119161790558260005260038552600260406000200194855494851015610286576102758361025a877fd7856221235dd5b0aca9663e69d6d13572bcc04b1bb87358b1ef62a23cc09e6a99600160609a0181556119d9565b90919082549060031b600019811b9283911b16911916179055565b6040519384528301526040820152a1005b634e487b7160e01b600052604160045260246000fd5b63bf1f752f60e01b8152600490fd5b600080fd5b346102ab5760403660031901126102ab576102c9610f4f565b600435600052600560205260406000209060018060a01b031660005260205261030c6102f8604060002061109a565b604051918291602083526020830190611004565b0390f35b346102ab5760003660031901126102ab57602060405164e8d4a510008152f35b346102ab5760003660031901126102ab5760005460405160109190911c6001600160a01b03168152602090f35b346102ab5761037661036e36611070565b903392611cfc565b005b346102ab5760203660031901126102ab57610391610f65565b600254600019811461040757600101600281905560008181526003602090815260409182902060040180546001600160a01b0319166001600160a01b03909516948517905581519283528201929092527f1f1f6396247a5ba59b7b1e094ec3a8e439d4dace0c5ac4fe3ecfde3e68e03a8a9190a1005b634e487b7160e01b600052601160045260246000fd5b346102ab5760006020610440606461043436611038565b90828194969396611a89565b6040516323b872dd60e01b815233600482015230602482015260448101919091529384928391906001600160a01b03165af180156104a55761047e57005b6103769060203d811161049e575b6104968183610f7b565b810190611a49565b503d61048c565b6040513d6000823e3d90fd5b346102ab576103766104d961025a6104c836611070565b93906104d383611f24565b8261247f565b90600052600360205260026040600020016119d9565b346102ab5760403660031901126102ab57610508610f4f565b600435600052600560205260406000209060018060a01b03166000526020526040806000206002600182015491015482519182526020820152f35b346102ab5761055136611038565b60005490929060101c6001600160a01b031633036105725761037693611a89565b604051636f2b51a560e11b8152600490fd5b346102ab5760203660031901126102ab576001600160a01b036105a5610f65565b60018054919092166001600160a01b0319909116179055005b346102ab5760203660031901126102ab5760043560005260036020526080604060002060038101549060018060a01b03600482015416906006600582015491015491604051938452602084015260408301526060820152f35b346102ab5760403660031901126102ab576004356024803567ffffffffffffffff918282116102ab57366023830112156102ab5781600401359283116102ab57600591368285851b830101116102ab578460005260036020526002604060002001805485036106ee5760005b8581106106b7577f61378e0f43f3c62e317cdbe9d6bf50295ceba5fb596196f5c109302ee750b4a7602088604051908152a1005b806106e86106c7600193856119d9565b87848a1b880101359082549060031b600019811b9283911b16911916179055565b01610683565b6040516312fee3c960e31b8152600490fd5b346102ab5760403660031901126102ab57610719610f4f565b60006004356000526003602052604060002091600560205260406000209060018060a01b0316600052602052604060002060068301546000906005850154916001840154928361076f575b602086604051908152f35b80919293949550151580610a2a575b6107d5575b506020946107c06107ca946107ba600397956107b46107a360029761118a565b64e8d4a510009a8b970154906111cf565b9061114e565b906111bc565b0491015490611143565b048280808080610764565b6107fa6107e182611530565b9093919084906107f042611530565b5095909686611143565b806108715750505050946107ba600397956107b46107a36108606002986107b460209e996107c09961082f6107ca9f42611143565b91600435600052602060049052604060002090600052602052604060002090600052602052604060002054906111bc565b975050509597505094505094610783565b9450945098909660009892959698965b600119851161040757600185018810156109ff578a87878b8b61091157926108bc600195936108b76107b494846108ed986111ef565b611143565b9060043560005260046020528d604060002090600052602052604060002090600052602052604060002054906111bc565b9a5b0196600c8811610904575b6001019699610881565b60019889019897506108fa565b9150508987036109e3576107b29150106102ab576109dd6001916107b48d6108bc6109d76109d28f8060046109c660646109c061097d6109b66109b08c61095a6109cd9a611324565b6109766109ab6109888b610982600c998a96876109768a6112af565b059061139c565b6113c7565b05611382565b936109a58461099f610999846112c7565b936112af565b0561142b565b906112fb565b611490565b96611353565b906109768c6112af565b056114e0565b05906112fb565b6112df565b6111a4565b42611143565b9a6108ef565b916107b4826108bc6109fa6109dd95600197611918565b61115a565b60209a506107ca985060039991939750600296506107ba9295506107c094506107a36107b491610860565b5080421161077e565b346102ab5760203660031901126102ab576004356000526006602052602060ff604060002054166040519015158152f35b346102ab5760003660031901126102ab576001546040516001600160a01b039091168152602090f35b346102ab5760003660031901126102ab576020600254604051908152f35b346102ab57610ab936611038565b60005490929060101c6001600160a01b031633036105725761037693611cfc565b346102ab5760203660031901126102ab57610376600435611f24565b346102ab5760403660031901126102ab57610b0f610f65565b610b17610f4f565b9060005460ff8160081c161590818092610c5e575b8015610c47575b15610beb5760ff19811660011760005581610bd9575b506000805462010000600160b01b0319811660109490941b62010000600160b01b0316938417909155600180546001600160a01b0319166001600160a01b0390951694909417909355909190610b9b57005b610100600160b01b03191617600055604051600181527f7f26b83ff96e1f2b6a682f133852f6798a09c465da95921460cefb384740249890602090a1005b61ffff19166101011760005583610b49565b60405162461bcd60e51b815260206004820152602e60248201527f496e697469616c697a61626c653a20636f6e747261637420697320616c72656160448201526d191e481a5b9a5d1a585b1a5e995960921b6064820152608490fd5b50303b158015610b335750600160ff821614610b33565b50600160ff821610610b2c565b346102ab576020806003193601126102ab57600435600052600381526040600020610c95816110eb565b90600191610cb06002610ca985850161109a565b930161109a565b916040519485946060860190606087528451809252826080880195019160005b818110610cfc57888703858a0152888061030c8a610cee8b8b611004565b908382036040850152611004565b83516001600160a01b0316875289985095840195928401928201610cd0565b346102ab5760803660031901126102ab5760043567ffffffffffffffff6024356044358281116102ab57610d53903690600401610f9d565b916064359081116102ab57610d6c903690600401610f9d565b8251815103610dd35782519260005b848110610d8457005b600190866000526020600481526040600020610da08386611a35565b516000528152604060002090610db68387611a35565b51600052526040600020610dcb86825461114e565b905501610d7b565b604051634bbeeee160e01b8152600490fd5b346102ab5760203660031901126102ab57610dfe610f65565b6000805462010000600160b01b03191660109290921b62010000600160b01b0316919091179055005b346102ab5760403660031901126102ab57610e40610f4f565b60025460043511610efb57610e56600435611f24565b600435600052600360205264e8d4a51000610ef66040600020600560205260406000203360005260205260066040600020946000805160206124ee8339815191526001870191610ed587610ec1600282610eb588548a8c0154906111bc565b049b019a8b5490611143565b048260018060a01b0360048901541661219b565b90610ee96040519283923360043585611a61565b0390a154910154906111bc565b049055005b604051631eccb30960e31b8152600490fd5b346102ab5760603660031901126102ab576020906004356000526004825260406000206024356000528252604060002060443560005282526040600020548152f35b602435906001600160a01b03821682036102ab57565b600435906001600160a01b03821682036102ab57565b90601f8019910116810190811067ffffffffffffffff82111761028657604052565b9080601f830112156102ab5781359067ffffffffffffffff8211610286578160051b60405193602093610fd285840187610f7b565b855283808601928201019283116102ab578301905b828210610ff5575050505090565b81358152908301908301610fe7565b90815180825260208080930193019160005b828110611024575050505090565b835185529381019392810192600101611016565b60809060031901126102ab57600435906001600160a01b0360243581811681036102ab57916044359160643590811681036102ab5790565b60609060031901126102ab57600435906024356001600160a01b03811681036102ab579060443590565b9060405191828154918282526020928383019160005283600020936000905b8282106110d1575050506110cf92500383610f7b565b565b8554845260019586019588955093810193909101906110b9565b9060405191828154918282526020928383019160005283600020936000905b828210611120575050506110cf92500383610f7b565b85546001600160a01b03168452600195860195889550938101939091019061110a565b818110610407570390565b81198111610407570190565b7dc22e450672894ab6cd8efb11d33f5617839a5bc7dea00c22e450672894ab811160011661040757620151800290565b64e8d4a51000908060001904821181151516610407570290565b62015180908060001904821181151516610407570290565b8060001904821181151516610407570290565b81156111d9570490565b634e487b7160e01b600052601260045260246000fd5b916107b283106102ab57617d4b600160ff1b018112600116610407578260046109c660646109c06109d296600c6109766112796112736112566109cd9b8a61127f9f61097d61124061124a92611324565b896109768c6112af565b0590617d4a190161139c565b846109766109ab611266896112c7565b6109a58461099f8c6112af565b98611353565b926112af565b6201437019811161040757610dd4196201437082011161040757603b1962015144820111610407576201517f0190565b600e600160ff1b01811260011661040757600d190190565b6002600160ff1b018112600116610407576001190190565b62253d8c600160ff1b0181126001166104075762253d8b190190565b600082128015600160ff1b8401831216610407576001600160ff1b038301821316610407570390565b6112c0906000811280156001600160ff1b0383900384131661040757600160ff1b829003831216610407570190565b611324906000811280156001600160ff1b0383900384131661040757600160ff1b829003831216610407570190565b617d4a600160ff1b01811260011661040757617d49190190565b6000811280156001600160ff1b0383900384131661040757600160ff1b829003831216610407570190565b6105b560008083136001600160ff1b038490048311166001166114175760017fffe9924f8d0dd7b2e6f174df9576f9de01c091c8faeb2605f522de8852b47aa88412828512161661141757500290565b634e487b7160e01b81526011600452602490fd5b600060017f0aaaaaaaaaaaaaaaaaaaaaaaaaaaaaaaaaaaaaaaaaaaaaaaaaaaaaaaaaaaaaaa831182841316166114175760017ff555555555555555555555555555555555555555555555555555555555555556831282841216166114175750600c0290565b61016f60008083136001600160ff1b038490048311166001166114175760017fffa6b6c1eb12d573186a06f9b8d9a287530217b7747d8eff4d6d83d625aae6318412828512161661141757500290565b60008082136001600160ff1b03839004600311166001166114175760017fd55555555555555555555555555555555555555555555555555555555555555683128284121616611417575060030290565b6001600160ff1b039060009062010bd99062015180900482811281850381158185131661190457600160ff1b9383850392838212166118f05785908401129162010bd819908162253d8c930183138415166118dc570113166118c85762264965019160019360049185858304841182871316166118b557808512600760fd1b86121686166118b55762023ab194858160021b0595878785048211848913161661188f57877fffffc694f94337079d130ab45dff8e0f9ea161331bb1c93dea871de6fec83ce28812848912161661188f5786028281128185036003138115166118a2578187036003121661188f579084600361162d930105906112fb565b9281841284840388138115166118435784860388121661183057868401610fa0888286048211858413161661185657887ffff7ced916872b020c49ba5e353f7ced916872b020c49ba5e353f7ced916872c831285841216166118565761169f9162164b0991020594826109c6876113c7565b828112818503601f1381151661185657818703601f121661184357601f019680888504605011848a13161661184357807ffe666666666666666666666666666666666666666666666666666666666666678912848a1216166118435761098f9788816050020590828287048b11868413161661187c5784821299837ffff29be1739a4fb805dbcd5d6c7d1f7d6fd627208942391f124ee1c3f307026884128c16166118695790605083611754930205906112fb565b98600b82059782870360021382151661186957829003600212166118565781878604600c11858913161661185657817ff55555555555555555555555555555555555555555555555555555555555555688128589121616611856576117c090600288600c0291016112fb565b966031600160ff1b0181128216611856578190603019018095046064118486131616611843577ffeb851eb851eb851eb851eb851eb851eb851eb851eb851eb851eb851eb851eb98412838512161661183057505061182a92916118259160640261139c565b61139c565b91909192565b634e487b7160e01b825260119052602490fd5b634e487b7160e01b835260118252602483fd5b634e487b7160e01b845260118352602484fd5b634e487b7160e01b865260118552602486fd5b634e487b7160e01b855260118452602485fd5b634e487b7160e01b835260118552602483fd5b634e487b7160e01b845260118652602484fd5b634e487b7160e01b815260118352602490fd5b634e487b7160e01b83526011600452602483fd5b634e487b7160e01b87526011600452602487fd5b634e487b7160e01b86526011600452602486fd5b634e487b7160e01b85526011600452602485fd5b906001811480156119cf575b80156119c5575b80156119bb575b80156119b1575b80156119a7575b801561199d575b15611953575050601f90565b6002146119605750601e90565b60038116159081611990575b8115611983575b501561197e57601d90565b601c90565b6101909150061538611973565b606481061515915061196c565b50600c8114611947565b50600a8114611940565b5060088114611939565b5060078114611932565b506005811461192b565b5060038114611924565b80548210156119f15760005260206000200190600090565b634e487b7160e01b600052603260045260246000fd5b8054600160401b81101561028657611a24916001820181556119d9565b8154906000199060031b1b19169055565b80518210156119f15760209160051b010190565b908160209103126102ab575180151581036102ab5790565b9081526001600160a01b03918216602082015291166040820152606081019190915260800190565b92908215611cea576002548411610efb57611aa384611f24565b6000928484526003918260205260408520946005602052611af2604082209260018060a01b039384881684526020526040832098600194858b019889548b8d82611c8d575b505050505061247f565b91875460011984119283611417578280860192838110611c53575b50890193808554906118c8579081848d9695949310611be0575b505050505093611bce611bc360029895611bb78664e8d4a510009a96611b7d611b5560069a611bda9d6119d9565b611b64878354838d1b1c61114e565b9082549060031b600019811b9283911b16911916179055565b611bb2611b55838f8d0193611bab611ba48c611b9985896119d9565b9054911b1c8a6111bc565b8d5461114e565b8c556119d9565b6119d9565b905490851b1c906111bc565b91850191825461114e565b905554910154906111bc565b04910155565b9c9b509399989796959493835b611c02575b8a9b9c9a9495969798999a611b27565b80611c3f578c838c9d9e1015611c365785969798999a9b50849590611c278692611a07565b019c9b9a999897969594611bed565b508c9b50611bf2565b634e487b7160e01b82526011600452602482fd5b8590915b611c64575b849150611b0d565b611c3f57808385921015611c86578190611c7d8d611a07565b01908590611c57565b5084611c5c565b6000805160206124ee8339815191529460046107c0611cc187946002611ccb9864e8d4a5100094859160068b0154906111bc565b049301541661219b565b90611cdd604051928284938785611a61565b0390a13880808b8d611ae8565b604051633a8410f160e01b8152600490fd5b9190918115611cea576002548111610efb57611d1781611f24565b6000818152600360205260409081812094600560205282822060018060a01b038816835260205282822096611d4c828661247f565b94611d57868a6119d9565b90549060031b1c8711611f1357611db994939282896020948a948d60018101549081611eae575b5050885163a9059cbb60e01b81526001600160a01b039094166004850152505050602481019290925290948591908290859082906044820190565b03926001600160a01b03165af1918215611ea457505064e8d4a5100093611e57611bda9460029794611e6494611e85575b50611e08611df8828b6119d9565b611b648683548360031b1c611143565b878501611e32611e28611e1b84846119d9565b90549060031b1c866111bc565b60018c0154611143565b60018b0155611bb2611e4783600189016119d9565b611b648783548360031b1c611143565b90549060031b1c906111bc565b611e7360038301918254611143565b905560066001860154910154906111bc565b611e9d9060203d60201161049e576104968183610f7b565b5038611dea565b51903d90823e3d90fd5b6000805160206124ee83398151915294846107c0611ee3611efa946002611f069764e8d4a510009485916006890154906111bc565b6004909301549204916001600160a01b031661219b565b838b5194859485611a61565b0390a1898138808e611d7e565b8451639a6f4aa760e01b8152600490fd5b806000526003602052604060002060058101544211156121975760038101541561218d576000600560406000200154611f6c611f5f82611530565b909391846107f042611530565b92836120155750505050611fdf7f7fa9647ec1cc14e3822b46d05a2b9d4e019bde8875c0088c46b6503d71bf172296946107b460409795611fef95611fb4611fe49642611143565b918960005260046020528a6000209060005260205289600020906000526020528860002054906111bc565b61118a565b6003830154906111cf565b90611fff6006820192835461114e565b80925560054291015582519182526020820152a1565b9299919798945094506000955b6001198a116104075760018a01871015612151578383878a8a6120a857612084936108b7600196946107b494612057946111ef565b88600052600460205260406000208c60005260205260406000208a600052602052604060002054906111bc565b955b0195600c871161209b575b6001019594612022565b6001978801979650612091565b50505050868a0361213b576107b288106102ab576121356001916107b4886121096109d76109d26109cd8f6120dc81611324565b6109c660646109c06004998a946109766112796112736112568961098261097d600c97886109768b6112af565b908960005260205260406000208c60005260205260406000208a600052602052604060002054906111bc565b95612086565b6121356001916107b46120576109fa8a8d611918565b9150975060409550611fef9294507f7fa9647ec1cc14e3822b46d05a2b9d4e019bde8875c0088c46b6503d71bf1722969350611fe4915061118a565b9050600542910155565b5050565b604080516370a0823160e01b81523060048201526001600160a01b0390921694936020936024939091858286818b5afa9182156123ed576000926123bb575b50818111156123b35750955b825163a9059cbb60e01b8682019081526001600160a01b039093168582019081526020810189905281906040010391612227601f1993848101845283610f7b565b84519367ffffffffffffffff928587018481118782101761239e5787528886527f5361666545524332303a206c6f772d6c6576656c2063616c6c206661696c656489870152823b1561235b575160009283929083905af1903d1561234c573d90811161233757906122b59392916122a788875194601f8401160184610f7b565b82523d60008884013e6123f8565b805190816122c5575b5050505050565b84806122d5938301019101611a49565b156122e15780806122be565b5162461bcd60e51b81526004810192909252602a908201527f5361666545524332303a204552433230206f7065726174696f6e20646964206e6044820152691bdd081cdd58d8d9595960b21b6064820152608490fd5b85634e487b7160e01b60005260416004526000fd5b506122b59291506060906123f8565b865162461bcd60e51b8152600481018a9052601d818a01527f416464726573733a2063616c6c20746f206e6f6e2d636f6e74726163740000006044820152606490fd5b88634e487b7160e01b60005260416004526000fd5b9050956121e6565b90918682813d83116123e6575b6123d28183610f7b565b810103126123e357505190386121da565b80fd5b503d6123c8565b84513d6000823e3d90fd5b90919015612404575090565b8151156124145750805190602001fd5b6040519062461bcd60e51b82528160208060048301528251928360248401526000915b848310612466575050918060449311612459575b601f01601f19168101030190fd5b600083828401015261244b565b8183018101518684016044015285935091820191612437565b9190600092600052600360205261249960406000206110eb565b908151906000925b8284106124af575b50505050565b939492936001600160a01b03806124c68784611a35565b5116908316146000146124e1575050505090388080806124a9565b929493600101926124a156fe1ec92956b13869de207e232e60c65e35826c5e12b7fdc6d70b083b5a4fd26703a2646970667358221220ca8d6080c53f2a2a29621befd951f362bccb63fcfed5dfd5c12d79ffd22c18af64736f6c634300080f0033",
  "devdoc": {
    "kind": "dev",
    "methods": {
      "addPool(address)": {
        "params": {
          "_rewardToken": "Reward token address (protocol native token)"
        }
      },
      "addToken(uint256,address,uint256)": {
        "params": {
          "_id": "Pool Id",
          "_token": "Priority pool lp token address",
          "_weight": "Weight of the token in the pool"
        }
      },
      "pendingReward(uint256,address)": {
        "params": {
          "_id": "Pool id",
          "_user": "User's address"
        },
        "returns": {
          "pending": "Pending reward in native token"
        }
      },
      "setWeight(uint256,uint256[])": {
        "params": {
          "_id": "Pool Id",
          "_weights": "Array of weights of the tokens in the pool"
        }
      },
      "updateRewardSpeed(uint256,uint256,uint256[],uint256[])": {
        "params": {
          "_id": "Pool id",
          "_months": "Months to be updated",
          "_newSpeed": "New speed (SCALED)",
          "_years": "Years to be updated"
        }
      },
      "updateWeight(uint256,address,uint256)": {
        "params": {
          "_id": "Pool Id",
          "_newWeight": "New weight of the token in the pool",
          "_token": "Token address"
        }
      }
    },
    "version": 1
  },
  "userdoc": {
    "kind": "user",
    "methods": {
      "addPool(address)": {
        "notice": "Register a new famring pool for priority pool"
      },
      "addToken(uint256,address,uint256)": {
        "notice": "Register Pri-LP token         Called when new generation of PRI-LP tokens are deployed"
      },
      "deposit(uint256,address,uint256,address)": {
        "notice": "Directly deposit (need approval)"
      },
      "depositFromPolicyCenter(uint256,address,uint256,address)": {
        "notice": "Deposit from Policy Center         No need for approval"
      },
      "pendingReward(uint256,address)": {
        "notice": "Pending reward"
      },
      "setWeight(uint256,uint256[])": {
        "notice": "Sets the weight for a given array of tokens in a given pool"
      },
      "updateRewardSpeed(uint256,uint256,uint256[],uint256[])": {
        "notice": "Update reward speed when new premium income"
      },
      "updateWeight(uint256,address,uint256)": {
        "notice": "Update the weight of a token in a given pool"
      }
    },
    "notice": "Weighted Farming Pool         Weighted farming pool support multiple tokens to earn the same reward         Different tokens will have different weights when calculating rewards         Native token premiums will be transferred to this pool         The distribution is in the way of \"farming\" but with multiple tokens         Different generations of PRI-LP-1-JOE-G1         About the scales of variables:         - weight            SCALE         - share             SCALE         - accRewardPerShare SCALE * SCALE / SCALE = SCALE         - rewardDebt        SCALE * SCALE / SCALE = SCALE         So pendingReward = ((share * acc) / SCALE - debt) / SCALE",
    "version": 1
  },
  "storageLayout": {
    "storage": [
      {
        "astId": 52,
        "contract": "src/reward/farming/WeightedFarmingPool.sol:WeightedFarmingPool",
        "label": "_initialized",
        "offset": 0,
        "slot": "0",
        "type": "t_uint8"
      },
      {
        "astId": 55,
        "contract": "src/reward/farming/WeightedFarmingPool.sol:WeightedFarmingPool",
        "label": "_initializing",
        "offset": 1,
        "slot": "0",
        "type": "t_bool"
      },
      {
        "astId": 14835,
        "contract": "src/reward/farming/WeightedFarmingPool.sol:WeightedFarmingPool",
        "label": "policyCenter",
        "offset": 2,
        "slot": "0",
        "type": "t_address"
      },
      {
        "astId": 14837,
        "contract": "src/reward/farming/WeightedFarmingPool.sol:WeightedFarmingPool",
        "label": "priorityPoolFactory",
        "offset": 0,
        "slot": "1",
        "type": "t_address"
      },
      {
        "astId": 13283,
        "contract": "src/reward/farming/WeightedFarmingPool.sol:WeightedFarmingPool",
        "label": "counter",
        "offset": 0,
        "slot": "2",
        "type": "t_uint256"
      },
      {
        "astId": 13306,
        "contract": "src/reward/farming/WeightedFarmingPool.sol:WeightedFarmingPool",
        "label": "pools",
        "offset": 0,
        "slot": "3",
        "type": "t_mapping(t_uint256,t_struct(PoolInfo)13301_storage)"
      },
      {
        "astId": 13314,
        "contract": "src/reward/farming/WeightedFarmingPool.sol:WeightedFarmingPool",
        "label": "speed",
        "offset": 0,
        "slot": "4",
        "type": "t_mapping(t_uint256,t_mapping(t_uint256,t_mapping(t_uint256,t_uint256)))"
      },
      {
        "astId": 13329,
        "contract": "src/reward/farming/WeightedFarmingPool.sol:WeightedFarmingPool",
        "label": "users",
        "offset": 0,
        "slot": "5",
        "type": "t_mapping(t_uint256,t_mapping(t_address,t_struct(UserInfo)13322_storage))"
      },
      {
        "astId": 13333,
        "contract": "src/reward/farming/WeightedFarmingPool.sol:WeightedFarmingPool",
        "label": "supported",
        "offset": 0,
        "slot": "6",
        "type": "t_mapping(t_bytes32,t_bool)"
      }
    ],
    "types": {
      "t_address": {
        "encoding": "inplace",
        "label": "address",
        "numberOfBytes": "20"
      },
      "t_array(t_address)dyn_storage": {
        "base": "t_address",
        "encoding": "dynamic_array",
        "label": "address[]",
        "numberOfBytes": "32"
      },
      "t_array(t_uint256)dyn_storage": {
        "base": "t_uint256",
        "encoding": "dynamic_array",
        "label": "uint256[]",
        "numberOfBytes": "32"
      },
      "t_bool": {
        "encoding": "inplace",
        "label": "bool",
        "numberOfBytes": "1"
      },
      "t_bytes32": {
        "encoding": "inplace",
        "label": "bytes32",
        "numberOfBytes": "32"
      },
      "t_mapping(t_address,t_struct(UserInfo)13322_storage)": {
        "encoding": "mapping",
        "key": "t_address",
        "label": "mapping(address => struct WeightedFarmingPool.UserInfo)",
        "numberOfBytes": "32",
        "value": "t_struct(UserInfo)13322_storage"
      },
      "t_mapping(t_bytes32,t_bool)": {
        "encoding": "mapping",
        "key": "t_bytes32",
        "label": "mapping(bytes32 => bool)",
        "numberOfBytes": "32",
        "value": "t_bool"
      },
      "t_mapping(t_uint256,t_mapping(t_address,t_struct(UserInfo)13322_storage))": {
        "encoding": "mapping",
        "key": "t_uint256",
        "label": "mapping(uint256 => mapping(address => struct WeightedFarmingPool.UserInfo))",
        "numberOfBytes": "32",
        "value": "t_mapping(t_address,t_struct(UserInfo)13322_storage)"
      },
      "t_mapping(t_uint256,t_mapping(t_uint256,t_mapping(t_uint256,t_uint256)))": {
        "encoding": "mapping",
        "key": "t_uint256",
        "label": "mapping(uint256 => mapping(uint256 => mapping(uint256 => uint256)))",
        "numberOfBytes": "32",
        "value": "t_mapping(t_uint256,t_mapping(t_uint256,t_uint256))"
      },
      "t_mapping(t_uint256,t_mapping(t_uint256,t_uint256))": {
        "encoding": "mapping",
        "key": "t_uint256",
        "label": "mapping(uint256 => mapping(uint256 => uint256))",
        "numberOfBytes": "32",
        "value": "t_mapping(t_uint256,t_uint256)"
      },
      "t_mapping(t_uint256,t_struct(PoolInfo)13301_storage)": {
        "encoding": "mapping",
        "key": "t_uint256",
        "label": "mapping(uint256 => struct WeightedFarmingPool.PoolInfo)",
        "numberOfBytes": "32",
        "value": "t_struct(PoolInfo)13301_storage"
      },
      "t_mapping(t_uint256,t_uint256)": {
        "encoding": "mapping",
        "key": "t_uint256",
        "label": "mapping(uint256 => uint256)",
        "numberOfBytes": "32",
        "value": "t_uint256"
      },
      "t_struct(PoolInfo)13301_storage": {
        "encoding": "inplace",
        "label": "struct WeightedFarmingPool.PoolInfo",
        "members": [
          {
            "astId": 13286,
            "contract": "src/reward/farming/WeightedFarmingPool.sol:WeightedFarmingPool",
            "label": "tokens",
            "offset": 0,
            "slot": "0",
            "type": "t_array(t_address)dyn_storage"
          },
          {
            "astId": 13289,
            "contract": "src/reward/farming/WeightedFarmingPool.sol:WeightedFarmingPool",
            "label": "amount",
            "offset": 0,
            "slot": "1",
            "type": "t_array(t_uint256)dyn_storage"
          },
          {
            "astId": 13292,
            "contract": "src/reward/farming/WeightedFarmingPool.sol:WeightedFarmingPool",
            "label": "weight",
            "offset": 0,
            "slot": "2",
            "type": "t_array(t_uint256)dyn_storage"
          },
          {
            "astId": 13294,
            "contract": "src/reward/farming/WeightedFarmingPool.sol:WeightedFarmingPool",
            "label": "shares",
            "offset": 0,
            "slot": "3",
            "type": "t_uint256"
          },
          {
            "astId": 13296,
            "contract": "src/reward/farming/WeightedFarmingPool.sol:WeightedFarmingPool",
            "label": "rewardToken",
            "offset": 0,
            "slot": "4",
            "type": "t_address"
          },
          {
            "astId": 13298,
            "contract": "src/reward/farming/WeightedFarmingPool.sol:WeightedFarmingPool",
            "label": "lastRewardTimestamp",
            "offset": 0,
            "slot": "5",
            "type": "t_uint256"
          },
          {
            "astId": 13300,
            "contract": "src/reward/farming/WeightedFarmingPool.sol:WeightedFarmingPool",
            "label": "accRewardPerShare",
            "offset": 0,
            "slot": "6",
            "type": "t_uint256"
          }
        ],
        "numberOfBytes": "224"
      },
      "t_struct(UserInfo)13322_storage": {
        "encoding": "inplace",
        "label": "struct WeightedFarmingPool.UserInfo",
        "members": [
          {
            "astId": 13317,
            "contract": "src/reward/farming/WeightedFarmingPool.sol:WeightedFarmingPool",
            "label": "amount",
            "offset": 0,
            "slot": "0",
            "type": "t_array(t_uint256)dyn_storage"
          },
          {
            "astId": 13319,
            "contract": "src/reward/farming/WeightedFarmingPool.sol:WeightedFarmingPool",
            "label": "shares",
            "offset": 0,
            "slot": "1",
            "type": "t_uint256"
          },
          {
            "astId": 13321,
            "contract": "src/reward/farming/WeightedFarmingPool.sol:WeightedFarmingPool",
            "label": "rewardDebt",
            "offset": 0,
            "slot": "2",
            "type": "t_uint256"
          }
        ],
        "numberOfBytes": "96"
      },
      "t_uint256": {
        "encoding": "inplace",
        "label": "uint256",
        "numberOfBytes": "32"
      },
      "t_uint8": {
        "encoding": "inplace",
        "label": "uint8",
        "numberOfBytes": "1"
      }
    }
  }
}