{
  "address": "0x91035420cCe5A9508449ce59c576578699847419",
  "abi": [
    {
      "inputs": [
        {
          "internalType": "address",
          "name": "_deg",
          "type": "address"
        },
        {
          "internalType": "address",
          "name": "_veDeg",
          "type": "address"
        },
        {
          "internalType": "address",
          "name": "_shield",
          "type": "address"
        }
      ],
      "stateMutability": "nonpayable",
      "type": "constructor"
    },
    {
      "inputs": [],
      "name": "IncidentReport__AlreadyClaimed",
      "type": "error"
    },
    {
      "inputs": [],
      "name": "IncidentReport__AlreadyPaid",
      "type": "error"
    },
    {
      "inputs": [],
      "name": "IncidentReport__AlreadyReported",
      "type": "error"
    },
    {
      "inputs": [],
      "name": "IncidentReport__AlreadySettled",
      "type": "error"
    },
    {
      "inputs": [],
      "name": "IncidentReport__ChooseBothSides",
      "type": "error"
    },
    {
      "inputs": [],
      "name": "IncidentReport__NoReward",
      "type": "error"
    },
    {
      "inputs": [],
      "name": "IncidentReport__NotEnoughVeDEG",
      "type": "error"
    },
    {
      "inputs": [],
      "name": "IncidentReport__NotSettled",
      "type": "error"
    },
    {
      "inputs": [],
      "name": "IncidentReport__NotWrongChoice",
      "type": "error"
    },
    {
      "inputs": [],
      "name": "IncidentReport__OnlyExecutor",
      "type": "error"
    },
    {
      "inputs": [],
      "name": "IncidentReport__PayoutExceedCovered",
      "type": "error"
    },
    {
      "inputs": [],
      "name": "IncidentReport__PoolNotExist",
      "type": "error"
    },
    {
      "inputs": [],
      "name": "IncidentReport__WrongChoice",
      "type": "error"
    },
    {
      "inputs": [],
      "name": "IncidentReport__WrongPeriod",
      "type": "error"
    },
    {
      "inputs": [],
      "name": "IncidentReport__WrongStatus",
      "type": "error"
    },
    {
      "inputs": [],
      "name": "IncidentReport__ZeroAmount",
      "type": "error"
    },
    {
      "anonymous": false,
      "inputs": [
        {
          "indexed": false,
          "internalType": "address",
          "name": "payer",
          "type": "address"
        },
        {
          "indexed": false,
          "internalType": "address",
          "name": "user",
          "type": "address"
        },
        {
          "indexed": false,
          "internalType": "uint256",
          "name": "debt",
          "type": "uint256"
        },
        {
          "indexed": false,
          "internalType": "uint256",
          "name": "unlockAmount",
          "type": "uint256"
        }
      ],
      "name": "DebtPaid",
      "type": "event"
    },
    {
      "anonymous": false,
      "inputs": [
        {
          "indexed": true,
          "internalType": "address",
          "name": "previousOwner",
          "type": "address"
        },
        {
          "indexed": true,
          "internalType": "address",
          "name": "newOwner",
          "type": "address"
        }
      ],
      "name": "OwnershipTransferred",
      "type": "event"
    },
    {
      "anonymous": false,
      "inputs": [
        {
          "indexed": false,
          "internalType": "uint256",
          "name": "reportId",
          "type": "uint256"
        },
        {
          "indexed": false,
          "internalType": "uint256",
          "name": "closeTimestamp",
          "type": "uint256"
        }
      ],
      "name": "ReportClosed",
      "type": "event"
    },
    {
      "anonymous": false,
      "inputs": [
        {
          "indexed": false,
          "internalType": "uint256",
          "name": "reportId",
          "type": "uint256"
        },
        {
          "indexed": true,
          "internalType": "uint256",
          "name": "poolId",
          "type": "uint256"
        },
        {
          "indexed": false,
          "internalType": "uint256",
          "name": "reportTimestamp",
          "type": "uint256"
        },
        {
          "indexed": true,
          "internalType": "address",
          "name": "reporter",
          "type": "address"
        },
        {
          "indexed": false,
          "internalType": "uint256",
          "name": "payout",
          "type": "uint256"
        }
      ],
      "name": "ReportCreated",
      "type": "event"
    },
    {
      "anonymous": false,
      "inputs": [
        {
          "indexed": false,
          "internalType": "uint256",
          "name": "reportId",
          "type": "uint256"
        },
        {
          "indexed": false,
          "internalType": "uint256",
          "name": "round",
          "type": "uint256"
        }
      ],
      "name": "ReportExtended",
      "type": "event"
    },
    {
      "anonymous": false,
      "inputs": [
        {
          "indexed": false,
          "internalType": "uint256",
          "name": "reportId",
          "type": "uint256"
        }
      ],
      "name": "ReportFailed",
      "type": "event"
    },
    {
      "anonymous": false,
      "inputs": [
        {
          "indexed": false,
          "internalType": "uint256",
          "name": "reportId",
          "type": "uint256"
        },
        {
          "indexed": false,
          "internalType": "uint256",
          "name": "result",
          "type": "uint256"
        }
      ],
      "name": "ReportSettled",
      "type": "event"
    },
    {
      "anonymous": false,
      "inputs": [
        {
          "indexed": false,
          "internalType": "uint256",
          "name": "reportId",
          "type": "uint256"
        },
        {
          "indexed": true,
          "internalType": "address",
          "name": "user",
          "type": "address"
        },
        {
          "indexed": false,
          "internalType": "uint256",
          "name": "voteFor",
          "type": "uint256"
        },
        {
          "indexed": false,
          "internalType": "uint256",
          "name": "amount",
          "type": "uint256"
        }
      ],
      "name": "ReportVoted",
      "type": "event"
    },
    {
      "anonymous": false,
      "inputs": [
        {
          "indexed": false,
          "internalType": "uint256",
          "name": "reportId",
          "type": "uint256"
        },
        {
          "indexed": false,
          "internalType": "uint256",
          "name": "startTimestamp",
          "type": "uint256"
        }
      ],
      "name": "ReportVotingStart",
      "type": "event"
    },
    {
      "anonymous": false,
      "inputs": [
        {
          "indexed": false,
          "internalType": "uint256",
          "name": "reportId",
          "type": "uint256"
        },
        {
          "indexed": false,
          "internalType": "uint256",
          "name": "totalRewardToVoters",
          "type": "uint256"
        }
      ],
      "name": "VotingRewardSettled",
      "type": "event"
    },
    {
      "inputs": [],
      "name": "COOLDOWN_WRONG_REPORT",
      "outputs": [
        {
          "internalType": "uint256",
          "name": "",
          "type": "uint256"
        }
      ],
      "stateMutability": "view",
      "type": "function"
    },
    {
      "inputs": [],
      "name": "DEBT_RATIO",
      "outputs": [
        {
          "internalType": "uint256",
          "name": "",
          "type": "uint256"
        }
      ],
      "stateMutability": "view",
      "type": "function"
    },
    {
      "inputs": [],
      "name": "EXTEND_PERIOD",
      "outputs": [
        {
          "internalType": "uint256",
          "name": "",
          "type": "uint256"
        }
      ],
      "stateMutability": "view",
      "type": "function"
    },
    {
      "inputs": [],
      "name": "INCIDENT_QUORUM_RATIO",
      "outputs": [
        {
          "internalType": "uint256",
          "name": "",
          "type": "uint256"
        }
      ],
      "stateMutability": "view",
      "type": "function"
    },
    {
      "inputs": [],
      "name": "INCIDENT_VOTING_PERIOD",
      "outputs": [
        {
          "internalType": "uint256",
          "name": "",
          "type": "uint256"
        }
      ],
      "stateMutability": "view",
      "type": "function"
    },
    {
      "inputs": [],
      "name": "MAX_EXTEND_ROUND",
      "outputs": [
        {
          "internalType": "uint256",
          "name": "",
          "type": "uint256"
        }
      ],
      "stateMutability": "view",
      "type": "function"
    },
    {
      "inputs": [],
      "name": "PENDING_PERIOD",
      "outputs": [
        {
          "internalType": "uint256",
          "name": "",
          "type": "uint256"
        }
      ],
      "stateMutability": "view",
      "type": "function"
    },
    {
      "inputs": [],
      "name": "REPORTER_REWARD",
      "outputs": [
        {
          "internalType": "uint256",
          "name": "",
          "type": "uint256"
        }
      ],
      "stateMutability": "view",
      "type": "function"
    },
    {
      "inputs": [],
      "name": "REPORT_THRESHOLD",
      "outputs": [
        {
          "internalType": "uint256",
          "name": "",
          "type": "uint256"
        }
      ],
      "stateMutability": "view",
      "type": "function"
    },
    {
      "inputs": [],
      "name": "RESERVE_RATIO",
      "outputs": [
        {
          "internalType": "uint256",
          "name": "",
          "type": "uint256"
        }
      ],
      "stateMutability": "view",
      "type": "function"
    },
    {
      "inputs": [],
      "name": "REWARD_RATIO",
      "outputs": [
        {
          "internalType": "uint256",
          "name": "",
          "type": "uint256"
        }
      ],
      "stateMutability": "view",
      "type": "function"
    },
    {
      "inputs": [],
      "name": "SAMPLE_PERIOD",
      "outputs": [
        {
          "internalType": "uint256",
          "name": "",
          "type": "uint256"
        }
      ],
      "stateMutability": "view",
      "type": "function"
    },
    {
      "inputs": [
        {
          "internalType": "uint256",
          "name": "_id",
          "type": "uint256"
        }
      ],
      "name": "claimReward",
      "outputs": [],
      "stateMutability": "nonpayable",
      "type": "function"
    },
    {
      "inputs": [
        {
          "internalType": "uint256",
          "name": "_id",
          "type": "uint256"
        }
      ],
      "name": "closeReport",
      "outputs": [],
      "stateMutability": "nonpayable",
      "type": "function"
    },
    {
      "inputs": [
        {
          "internalType": "uint256",
          "name": "_reportId",
          "type": "uint256"
        }
      ],
      "name": "executed",
      "outputs": [],
      "stateMutability": "nonpayable",
      "type": "function"
    },
    {
      "inputs": [],
      "name": "executor",
      "outputs": [
        {
          "internalType": "address",
          "name": "",
          "type": "address"
        }
      ],
      "stateMutability": "view",
      "type": "function"
    },
    {
      "inputs": [
        {
          "internalType": "uint256",
          "name": "_poolId",
          "type": "uint256"
        }
      ],
      "name": "getPoolReports",
      "outputs": [
        {
          "internalType": "uint256[]",
          "name": "",
          "type": "uint256[]"
        }
      ],
      "stateMutability": "view",
      "type": "function"
    },
    {
      "inputs": [
        {
          "internalType": "uint256",
          "name": "_poolId",
          "type": "uint256"
        }
      ],
      "name": "getPoolReportsAmount",
      "outputs": [
        {
          "internalType": "uint256",
          "name": "",
          "type": "uint256"
        }
      ],
      "stateMutability": "view",
      "type": "function"
    },
    {
      "inputs": [
        {
          "internalType": "uint256",
          "name": "_id",
          "type": "uint256"
        }
      ],
      "name": "getReport",
      "outputs": [
        {
          "components": [
            {
              "internalType": "uint256",
              "name": "poolId",
              "type": "uint256"
            },
            {
              "internalType": "uint256",
              "name": "reportTimestamp",
              "type": "uint256"
            },
            {
              "internalType": "address",
              "name": "reporter",
              "type": "address"
            },
            {
              "internalType": "uint256",
              "name": "voteTimestamp",
              "type": "uint256"
            },
            {
              "internalType": "uint256",
              "name": "numFor",
              "type": "uint256"
            },
            {
              "internalType": "uint256",
              "name": "numAgainst",
              "type": "uint256"
            },
            {
              "internalType": "uint256",
              "name": "round",
              "type": "uint256"
            },
            {
              "internalType": "uint256",
              "name": "status",
              "type": "uint256"
            },
            {
              "internalType": "uint256",
              "name": "result",
              "type": "uint256"
            },
            {
              "internalType": "uint256",
              "name": "votingReward",
              "type": "uint256"
            },
            {
              "internalType": "uint256",
              "name": "payout",
              "type": "uint256"
            }
          ],
          "internalType": "struct IncidentReport.Report",
          "name": "",
          "type": "tuple"
        }
      ],
      "stateMutability": "view",
      "type": "function"
    },
    {
      "inputs": [
        {
          "internalType": "uint256",
          "name": "_poolId",
          "type": "uint256"
        }
      ],
      "name": "getTempResult",
      "outputs": [
        {
          "components": [
            {
              "internalType": "uint256",
              "name": "result",
              "type": "uint256"
            },
            {
              "internalType": "uint256",
              "name": "sampleTimestamp",
              "type": "uint256"
            },
            {
              "internalType": "bool",
              "name": "hasChanged",
              "type": "bool"
            }
          ],
          "internalType": "struct IncidentReport.TempResult",
          "name": "",
          "type": "tuple"
        }
      ],
      "stateMutability": "view",
      "type": "function"
    },
    {
      "inputs": [
        {
          "internalType": "address",
          "name": "_user",
          "type": "address"
        },
        {
          "internalType": "uint256",
          "name": "_poolId",
          "type": "uint256"
        }
      ],
      "name": "getUserVote",
      "outputs": [
        {
          "components": [
            {
              "internalType": "uint256",
              "name": "choice",
              "type": "uint256"
            },
            {
              "internalType": "uint256",
              "name": "amount",
              "type": "uint256"
            },
            {
              "internalType": "bool",
              "name": "claimed",
              "type": "bool"
            },
            {
              "internalType": "bool",
              "name": "paid",
              "type": "bool"
            }
          ],
          "internalType": "struct IncidentReport.UserVote",
          "name": "",
          "type": "tuple"
        }
      ],
      "stateMutability": "view",
      "type": "function"
    },
    {
      "inputs": [],
      "name": "owner",
      "outputs": [
        {
          "internalType": "address",
          "name": "",
          "type": "address"
        }
      ],
      "stateMutability": "view",
      "type": "function"
    },
    {
      "inputs": [
        {
          "internalType": "uint256",
          "name": "_id",
          "type": "uint256"
        },
        {
          "internalType": "address",
          "name": "_user",
          "type": "address"
        }
      ],
      "name": "payDebt",
      "outputs": [],
      "stateMutability": "nonpayable",
      "type": "function"
    },
    {
      "inputs": [
        {
          "internalType": "uint256",
          "name": "",
          "type": "uint256"
        },
        {
          "internalType": "uint256",
          "name": "",
          "type": "uint256"
        }
      ],
      "name": "poolReports",
      "outputs": [
        {
          "internalType": "uint256",
          "name": "",
          "type": "uint256"
        }
      ],
      "stateMutability": "view",
      "type": "function"
    },
    {
      "inputs": [],
      "name": "priorityPoolFactory",
      "outputs": [
        {
          "internalType": "contract IPriorityPoolFactory",
          "name": "",
          "type": "address"
        }
      ],
      "stateMutability": "view",
      "type": "function"
    },
    {
      "inputs": [],
      "name": "quorumRatio",
      "outputs": [
        {
          "internalType": "uint256",
          "name": "",
          "type": "uint256"
        }
      ],
      "stateMutability": "view",
      "type": "function"
    },
    {
      "inputs": [],
      "name": "renounceOwnership",
      "outputs": [],
      "stateMutability": "nonpayable",
      "type": "function"
    },
    {
      "inputs": [
        {
          "internalType": "uint256",
          "name": "_poolId",
          "type": "uint256"
        },
        {
          "internalType": "uint256",
          "name": "_payout",
          "type": "uint256"
        }
      ],
      "name": "report",
      "outputs": [],
      "stateMutability": "nonpayable",
      "type": "function"
    },
    {
      "inputs": [],
      "name": "reportCounter",
      "outputs": [
        {
          "internalType": "uint256",
          "name": "",
          "type": "uint256"
        }
      ],
      "stateMutability": "view",
      "type": "function"
    },
    {
      "inputs": [
        {
          "internalType": "uint256",
          "name": "",
          "type": "uint256"
        }
      ],
      "name": "reported",
      "outputs": [
        {
          "internalType": "bool",
          "name": "",
          "type": "bool"
        }
      ],
      "stateMutability": "view",
      "type": "function"
    },
    {
      "inputs": [
        {
          "internalType": "uint256",
          "name": "",
          "type": "uint256"
        }
      ],
      "name": "reports",
      "outputs": [
        {
          "internalType": "uint256",
          "name": "poolId",
          "type": "uint256"
        },
        {
          "internalType": "uint256",
          "name": "reportTimestamp",
          "type": "uint256"
        },
        {
          "internalType": "address",
          "name": "reporter",
          "type": "address"
        },
        {
          "internalType": "uint256",
          "name": "voteTimestamp",
          "type": "uint256"
        },
        {
          "internalType": "uint256",
          "name": "numFor",
          "type": "uint256"
        },
        {
          "internalType": "uint256",
          "name": "numAgainst",
          "type": "uint256"
        },
        {
          "internalType": "uint256",
          "name": "round",
          "type": "uint256"
        },
        {
          "internalType": "uint256",
          "name": "status",
          "type": "uint256"
        },
        {
          "internalType": "uint256",
          "name": "result",
          "type": "uint256"
        },
        {
          "internalType": "uint256",
          "name": "votingReward",
          "type": "uint256"
        },
        {
          "internalType": "uint256",
          "name": "payout",
          "type": "uint256"
        }
      ],
      "stateMutability": "view",
      "type": "function"
    },
    {
      "inputs": [
        {
          "internalType": "address",
          "name": "_executor",
          "type": "address"
        }
      ],
      "name": "setExecutor",
      "outputs": [],
      "stateMutability": "nonpayable",
      "type": "function"
    },
    {
      "inputs": [
        {
          "internalType": "address",
          "name": "_priorityPoolFactory",
          "type": "address"
        }
      ],
      "name": "setPriorityPoolFactory",
      "outputs": [],
      "stateMutability": "nonpayable",
      "type": "function"
    },
    {
      "inputs": [
        {
          "internalType": "uint256",
          "name": "_id",
          "type": "uint256"
        }
      ],
      "name": "settle",
      "outputs": [],
      "stateMutability": "nonpayable",
      "type": "function"
    },
    {
      "inputs": [
        {
          "internalType": "uint256",
          "name": "_id",
          "type": "uint256"
        }
      ],
      "name": "startVoting",
      "outputs": [],
      "stateMutability": "nonpayable",
      "type": "function"
    },
    {
      "inputs": [
        {
          "internalType": "uint256",
          "name": "",
          "type": "uint256"
        }
      ],
      "name": "tempResults",
      "outputs": [
        {
          "internalType": "uint256",
          "name": "result",
          "type": "uint256"
        },
        {
          "internalType": "uint256",
          "name": "sampleTimestamp",
          "type": "uint256"
        },
        {
          "internalType": "bool",
          "name": "hasChanged",
          "type": "bool"
        }
      ],
      "stateMutability": "view",
      "type": "function"
    },
    {
      "inputs": [
        {
          "internalType": "address",
          "name": "newOwner",
          "type": "address"
        }
      ],
      "name": "transferOwnership",
      "outputs": [],
      "stateMutability": "nonpayable",
      "type": "function"
    },
    {
      "inputs": [
        {
          "internalType": "uint256",
          "name": "_poolId",
          "type": "uint256"
        }
      ],
      "name": "unpausePools",
      "outputs": [],
      "stateMutability": "nonpayable",
      "type": "function"
    },
    {
      "inputs": [
        {
          "internalType": "uint256",
          "name": "_id",
          "type": "uint256"
        },
        {
          "internalType": "uint256",
          "name": "_isFor",
          "type": "uint256"
        },
        {
          "internalType": "uint256",
          "name": "_amount",
          "type": "uint256"
        }
      ],
      "name": "vote",
      "outputs": [],
      "stateMutability": "nonpayable",
      "type": "function"
    },
    {
      "inputs": [
        {
          "internalType": "address",
          "name": "",
          "type": "address"
        },
        {
          "internalType": "uint256",
          "name": "",
          "type": "uint256"
        }
      ],
      "name": "votes",
      "outputs": [
        {
          "internalType": "uint256",
          "name": "choice",
          "type": "uint256"
        },
        {
          "internalType": "uint256",
          "name": "amount",
          "type": "uint256"
        },
        {
          "internalType": "bool",
          "name": "claimed",
          "type": "bool"
        },
        {
          "internalType": "bool",
          "name": "paid",
          "type": "bool"
        }
      ],
      "stateMutability": "view",
      "type": "function"
    }
  ],
  "transactionHash": "0xf9a7513e5dc7a082ac45807c2a802751c7770d7edf1ad694be1c62b2bdc228ea",
  "args": [
    "0x4C9E485717a06efB8e851078FBbf7b8A06Ed0F56",
    "0xE3eEFEA6CED446a6CA1Bb700017a99f9Eb8f688b",
    "0x0cEa2464f3a0772c3d8bb53C894cb4b6b54e6517"
  ],
  "numDeployments": 10,
  "solcInputHash": "eb20eb30e83e6edaf01d618db03375b8",
  "bytecode": "0x60e034620000ea57601f6200213c38819003918201601f19168301916001600160401b03831184841017620000ef57808492606094604052833981010312620000ea576200004d8162000105565b620000696040620000616020850162000105565b930162000105565b6001600160a01b0391821660805291811660a0521660c052600080546001600160a01b03191633179055603260045560405161202190816200011b823960805181818161040a0152818161084301528181610c9e01526114fa015260a05181818161047001528181610c27015281816110350152611f27015260c051815050f35b600080fd5b634e487b7160e01b600052604160045260246000fd5b51906001600160a01b0382168203620000ea5756fe608060405260048036101561001357600080fd5b6000803560e01c91826312d5cc861461068d5782631c3c0ea814611beb57826320731ab814611bce57826336d1d52714611bb25782633d2f5bda14611b3057826343a5ada214611a925782634a13a0ee14611a525782634aa0644714611a475782634e7f9b19146118ec5782636530db98146118315782636f8a6e4314611808578263715018a6146117a8578263753c0985146113ff5782637aaf11c7146113d7578263805a219f146113bb5782638a6655d614610fd45782638da5cb5b14610fad5782638df8280014610b3f578263966d8a5f14610ac25782639e17215514610aa45782639f2524ee14610a36578263a01bc01f14610981578263ad35e1dc14610938578263ae169a501461079c578263af52834914610337578263b4643d2914610780578263b9bc38f214610762578263c34c08e514610739578263c942adf714610698578263ce4f29fc1461068d578263d3ecebd714610632578263d606906014610605578263d92747cc146105e6578263d9dc8f1d14610342578263e37dbfd914610337578263e7d918e214610303578263f2fde38b14610234578263fc6e85d3146101eb5750508063fd123806146101e25763fe131778146101da575b600080fd5b6101d5611c34565b506101d5611cac565b346102305760203660031901126102305760609160409135815260076020522080549060ff600260018301549201541690604051928352602083015215156040820152f35b5080fd5b346102305760203660031901126102305761024d611c52565b82546001600160a01b03929183916102689083163314611cef565b169081156102b05750600054816040519382167f8be0079c531659141344cd1fd0a4f28419497f9722a3daafe3b4186f6b6457e0600086a36001600160a01b03191617600055f35b60849060206040519162461bcd60e51b8352820152602660248201527f4f776e61626c653a206e6577206f776e657220697320746865207a65726f206160448201526564647265737360d01b6064820152fd5b34610230576020366003190112610230576103329061032c60018060a01b038454163314611cef565b35611ea8565b604051f35b5050506101d5611cd2565b34610230576040366003190112610230576024356001600160a01b038082169083358284036101d55782865260209360088552604087208288528552604087209560405161038f81611d88565b875481526002600189015498888301998a5201549060ff82161515604082015260ff606082019260081c1615158252848a5260058852600860408b2001549081156105d5575181149081156105ca575b506105ba57516105ab578651806000190460501181151516610596579061271060508a9493020494807f000000000000000000000000000000000000000000000000000000000000000016803b1561056f576040805163342c6d4d60e11b815233858201908152602081018a90529092879284928391859183910103925af190811561058b578591610573575b50507f000000000000000000000000000000000000000000000000000000000000000016885190803b1561056f5760408051634bdc2db560e11b81526001600160a01b039095169385019384526020840192909252849284928391859183910103925af1801561056457610544575b5094839291608095947fb4b7f3a9d727d0ac344f696304df335d2936ce3b0a58d52600c692632c9fa7259752600885526040882090885284526002604088200161010061ff001982541617905551916040519333855284015260408301526060820152a1604051f35b610552909594939295611d5a565b6105605790919285876104db565b8580fd5b6040513d84823e3d90fd5b8480fd5b61057c90611d5a565b61058757838b61046c565b8380fd5b6040513d87823e3d90fd5b601182634e487b7160e01b6000525260246000fd5b604051631abf06a960e21b8152fd5b50604051631ae2961d60e01b8152fd5b60039150148a6103df565b60405163403ba18960e01b81528490fd5b5034610602578060031936011261060257602060405160028152f35b80fd5b3461023057602036600319011261023057604060209260ff92358152600984522054166040519015158152f35b34610230576020366003190112610230576002546001600160a01b0316330361067e573581526005602052610332604082205480835260096020526040832060ff198154169055611ea8565b6040516324bba59760e21b8152fd5b5050506101d5611c34565b3461023057602036600319011261023057604061016092823581526005602052209081549160018101549160018060a01b03600283015416906003830154908301546005840154600685015491600786015493600887015495600a6009890154980154986040519a8b5260208b015260408a01526060890152608088015260a087015260c086015260e0850152610100840152610120830152610140820152f35b50346106025780600319360112610602576002546040516001600160a01b039091168152602090f35b50346106025780600319360112610602576020600354604051908152f35b3461023057816003193601126102305760209054604051908152f35b3461023057602080600319360112610934578135913384526008825260408420838552825260408420906040516107d281611d88565b82548152600260018401549385830194855201549060ff60408201928181161515845260081c16151560608201528587526005855260086040882001549182156105d5575161092357518692919081036108f95750848252600584526108416009604084200154845190611e2d565b7f00000000000000000000000000000000000000000000000000000000000000006001600160a01b031691823b15610587576040805163168ece7360e31b81523392810192835264e8d4a5100090930460208301529192849284928391859183910103925af18015610564576108e5575b50506108bf905133611f25565b33835260088152604083209183525260026040822001600160ff19825416179055604051f35b6108ee90611d5a565b6105875783856108b2565b909150600303610914575061090f905133611f25565b6108bf565b60405163158f1f4160e11b8152fd5b60405163961e9b0d60e01b81528390fd5b8280fd5b503461060257602036600319011261060257610952611c52565b81546001600160a01b03919061096b9083163314611cef565b1660018060a01b03196001541617600155604051f35b50346106025760403660031901126106025760406080916109a0611c52565b81606084516109ae81611d88565b8281528260208201528286820152015260018060a01b031681526008602052818120602435825260205220604051906109e682611d88565b80549182815260026001830154926020830193845201549160ff6060604084019382861615158552019360081c161515835260405193845251602084015251151560408301525115156060820152f35b5034610602576040366003190112610602576080906040906001600160a01b03610a5e611c52565b168152600860205281812060243582526020522060ff815491600260018201549101549060405193845260208401528181161515604084015260081c1615156060820152f35b5034610602578060031936011261060257602060405162093a808152f35b346102305760203660031901126102305781604091606093838051610ae681611d6d565b8281528260208201520152358152600760205220604051610b0681611d6d565b815491828252604060ff600260018401549360208601948552015416920191151582526040519283525160208301525115156040820152f35b3461023057602090816003193601126109345780359081845260059283815260408520936007850192600280855403610f9d57600687019182549560038901546104b0198111610f8a57610ba0906104b0610b998a611de6565b9101611dc4565b4210610f7a5760088901938454610f6957908a93929184988a8652600789528460ff81604089200154169182610f5f575b505015610f3d5789855286885260066040862001600181540190555b8815610eec575060039055610c09818a0154868b015490611dc4565b6040516318160ddd60e01b81526001600160a01b03959190888185817f00000000000000000000000000000000000000000000000000000000000000008b165afa908115610ee1578691610eac575b50610c67606491855490611e2d565b0411610e69578790600182149a8b15610e47575b505587835284865260408320938185015495850154998490600014610d885750807f0000000000000000000000000000000000000000000000000000000000000000169285015416823b15610587576044849283604051958694859363168ece7360e31b855284015269043c33c193756480000060248401525af1801561056457610d66575b505060408095949392600080516020611fcc833981519152926009610d496064610d39600080516020611fac8339815191529c611dfd565b0493610d4485611e13565b611e40565b9101555b81519086825284820152a18351928352820152a1604051f35b610d74909695949396611d5a565b610d845786889592939495610d01565b8680fd5b969798999592919350508714610dc7575b5050505091600080516020611fac8339815191529391600080516020611fcc83398151915260408095610d4d565b60649192939450610dd790611dfd565b049069021e19e0c9bab24000009082198211610e34575060409593600080516020611fac8339815191529795936009610e26600080516020611fcc833981519152958a950193610d4485611e13565b910155939583959750610d99565b634e487b7160e01b895260119052602488fd5b54610e5181611ea8565b85526009885260408520805460ff191690558c610c7b565b9250925050610ea0939594507f1dcabc7d01df1ee725f7c437ce5ec43e00015579d266f8a65d0911c4eb36ad909692505554611ea8565b604051908152a1604051f35b809650898092503d8311610eda575b610ec58183611da3565b810103126101d55793518b9490610c67610c58565b503d610ebb565b6040513d88823e3d90fd5b9550505091507fb7891e9b049f460b1641e0a0556e45b1d2adfb12bd2c6459ea5a5d645d40179d96508594509460409552600783528487200160ff19815416905554908351928352820152a1604051f35b9750858752610f59826040862001548760408720015490611e74565b97610bed565b109050848e610bd1565b60405163037d379160e11b81528390fd5b506040516324b1a7e960e01b8152fd5b634e487b7160e01b8b526011835260248bfd5b5060405163363bbdfd60e01b8152fd5b5034610602578060031936011261060257546040516001600160a01b039091168152602090f35b90346106025760603660031901126106025781356024928335604435918385526020906005825260026007604088200154036113ac57831561139d576001831491821580611392575b611382576040516370a0823160e01b815233838201527f00000000000000000000000000000000000000000000000000000000000000006001600160a01b03169082818b81855afa90811561137757899161134a575b5060405163cbf9fe5f60e01b815233858201529083828c81865afa91821561133f578a92611310575b508181106112fc570386116112eb57803b156112e75760408051633c56aa6160e11b8152338582019081526020810189905290928a9284928391859183910103925af180156112dc579088916112c8575b50503387526008815260408088208789528252872060018101805490918691156112c25754036112b1575b611123868254611dc4565b90558587526005815260408720921561129b57818301611144868254611dc4565b90555b8587526007815260ff60026040892001541615806111fa575b7f025e12b9cbba227587ada73c57f6b6b6a70272d7ed782681793125ec29afc77b969798506111aa575b5050604080519586526020860192909252508301523391606090a2604051f35b600760056111c79385015494015491888a52526040882092611e74565b8154806111e0575b50815560014291015585808061118a565b600283019060ff80198354169184141516179055876111cf565b5060038301546006840154906104b0198111611289576104b0611239910161123361122d61122785611de6565b83611dc4565b93611de6565b90611dc4565b6102588110611289577f025e12b9cbba227587ada73c57f6b6b6a70272d7ed782681793125ec29afc77b9798995061025719014211908161127f575b5088979650611160565b9050421089611275565b634e487b7160e01b8952601184528989fd5b600583016112aa868254611dc4565b9055611147565b6040516346bdda4560e11b81528390fd5b55611118565b6112d190611d5a565b610d845786896110ed565b6040513d8a823e3d90fd5b8780fd5b60405163729aeac360e01b81528390fd5b8a601186634e487b7160e01b600052526000fd5b9091508381813d8311611338575b6113288183611da3565b810103126101d55751908b61109c565b503d61131e565b6040513d8c823e3d90fd5b90508281813d8311611370575b6113618183611da3565b810103126101d557518a611073565b503d611357565b6040513d8b823e3d90fd5b50604051631422ca1d60e31b8152fd5b50600284141561101d565b60405163583202e160e01b8152fd5b60405163363bbdfd60e01b8152fd5b5034610602578060031936011261060257602060405160508152f35b3461023057602036600319011261023057602091604091358152600683522054604051908152f35b90346106025761140e36611c68565b929060018060a01b03938360019386855416604051928380926315895f4760e31b8252878583015260249586915afa90811561179d5790889188916116c5575b50169485156116b5578487526020956009875260ff6040892054166116a45786839160405192838092636835185f60e11b82525afa9081156112dc578891611677575b508411611667578487526009865260408720805460ff19168217905560035460001998908981146116555782016003819055808952600588526040892087815542818501556002810180546001600160a01b0319163317905560078101849055600a01869055967f00000000000000000000000000000000000000000000000000000000000000008216803b156116515789809160446040518094819363342c6d4d60e11b8352338b84015269021e19e0c9bab24000008c8401525af1801561133f5761163d575b50868952600690526040882080549990600160401b8b101561162b579761158b8b8b9c9a86849d9a9b9c018155611c7e565b909283549160031b90811b9283911b16911916179055815416803b1561056f5784928360449289946040519788968795631b35278960e01b87528601528401525af1801561056457611617575b50506040805193845242602085015283015233917fe4af8b66d6c4b132955627bb2e4e80a62c544714e2f19dafec934a3b156cbe9390606090a3604051f35b61162090611d5a565b6105875783856115d8565b634e487b7160e01b8a5260418552858afd5b9861164a6006929a611d5a565b9890611559565b8980fd5b634e487b7160e01b8952601184528489fd5b5060405163cab1fa1b60e01b8152fd5b90508681813d831161169d575b61168e8183611da3565b810103126112e7575189611491565b503d611684565b6040516360b2438960e01b81528390fd5b5060405163148115cf60e21b8152fd5b9150503d8088833e6116d78183611da3565b810160a0828203126112e75781516001600160401b039081811161165157830182601f8201121561165157805191821161162b576040519060209361172585601f19601f8701160184611da3565b83835284848301011161179957918a918c95949383905b83821061177e575092848361176b96936117649560409711611772575b505050508401611e94565b9201611e94565b508961144e565b0101528b818f80611759565b8181018601518284018701528e97508d94509085019061173c565b8a80fd5b6040513d89823e3d90fd5b503461060257806003193601126106025780546001600160a01b038116906117d1338314611cef565b82604051927f8be0079c531659141344cd1fd0a4f28419497f9722a3daafe3b4186f6b6457e08285a36001600160a01b0319168255f35b50346106025780600319360112610602576001546040516001600160a01b039091168152602090f35b346102305760203660031901126102305780359061185960018060a01b038454163314611cef565b81835260056020526040832090600782019060018254036113ac576118816001840154611e60565b6118dd5750916118cc6040926101947f17b76cf2012024f7fe05b4a8b036b188464d5b49b7c8532e95c5c67a4b792eb29555828652600960205283862060ff19815416905554611ea8565b8151908152426020820152a1604051f35b6040516324b1a7e960e01b8152fd5b34610230576020366003190112610230576101406101609260405161191081611d28565b8181528160208201528160408201528160608201528160808201528160a08201528160c08201528160e08201526040610100928084840152808561012094828682015201528535815260056020522091600a6040519361196f85611d28565b8054968786526001820154602087015260018060a01b036002830154166040870152600382015460608701528101546080860152600581015460a0860152600681015460c0860152600781015460e08601526008810154838601526009810154848601520154848401526040519485526020830151602086015260018060a01b036040840151166040860152606083015160608601526080830151608086015260a083015160a086015260c083015160c086015260e083015160e0860152808301519085015280820151908401520151610140820152f35b5050506101d5611cac565b503461060257611a6136611c68565b91908152600660205260408120908154831015610602576020611a848484611c7e565b90546040519160031b1c8152f35b34610230576020908160031936011261093457358252600681526040822060405192838383549182815201908193835284832090835b818110611b1c5750505084611ade910385611da3565b60405193838594850191818652518092526040850193925b828110611b0557505050500390f35b835185528695509381019392810192600101611af6565b825484529286019260019283019201611ac8565b346102305760203660031901126102305780359081835260056020526040832090600782019060018254036113ac57611b6c6001840154611e60565b156118dd57509160409160027fde7965c8d6f24b73501e8bcad1a4f03937db4f902bfda3bee08b335accf0749694556003429101558151908152426020820152a1604051f35b50346106025780600319360112610602576020604051600a8152f35b503461060257806003193601126106025760206040516104b08152f35b503461060257602036600319011261060257611c05611c52565b81546001600160a01b039190611c1e9083163314611cef565b1660018060a01b03196002541617600255604051f35b50346101d55760003660031901126101d55760206040516102588152f35b600435906001600160a01b03821682036101d557565b60409060031901126101d5576004359060243590565b8054821015611c965760005260206000200190600090565b634e487b7160e01b600052603260045260246000fd5b50346101d55760003660031901126101d557602060405169021e19e0c9bab24000008152f35b50346101d55760003660031901126101d557602060405160288152f35b15611cf657565b60405162461bcd60e51b815260206004820152600a60248201526927b7363c9037bbb732b960b11b6044820152606490fd5b61016081019081106001600160401b03821117611d4457604052565b634e487b7160e01b600052604160045260246000fd5b6001600160401b038111611d4457604052565b606081019081106001600160401b03821117611d4457604052565b608081019081106001600160401b03821117611d4457604052565b90601f801991011681019081106001600160401b03821117611d4457604052565b81198111611dd0570190565b634e487b7160e01b600052601160045260246000fd5b610258908060001904821181151516611dd0570290565b806000190460281181151516611dd05760280290565b64e8d4a51000908060001904821181151516611dd0570290565b8060001904821181151516611dd0570290565b8115611e4a570490565b634e487b7160e01b600052601260045260246000fd5b610258198111611dd0576102580142101590565b81811115611e845750506001905b565b1015611e8f57600290565b600390565b51906001600160a01b03821682036101d557565b6001546001600160a01b031690813b156101d557604051918291631b35278960e01b835260048301528160446000938480948160248401525af18015611f1857611ef0575050565b6001600160401b038211611f045750604052565b634e487b7160e01b81526041600452602490fd5b50604051903d90823e3d90fd5b7f00000000000000000000000000000000000000000000000000000000000000006001600160a01b031691823b156101d557604051634bdc2db560e11b81526001600160a01b039290921660048301526024820152906000908290604490829084905af18015611f9f57611f965750565b611e8290611d5a565b6040513d6000823e3d90fdfe30922d3a94c33e0ce3f99be437cbdf00f141e304f742a1cbd0df5cc5b490cd45bf97c766fd98feb70e7d5cc384ac953bcce9a7ca082cf57da33a199d67f7b7aba26469706673582212205a482c82f0057ad564ad438e5856af9185de11b6bc73a5795ee65f65b6d7b9eb64736f6c634300080f0033",
  "devdoc": {
    "kind": "dev",
    "methods": {
      "claimReward(uint256)": {
        "params": {
          "_id": "Report id"
        }
      },
      "closeReport(uint256)": {
        "params": {
          "_id": "Report id"
        }
      },
      "executed(uint256)": {
        "params": {
          "_reportId": "Report id"
        }
      },
      "owner()": {
        "details": "Returns the address of the current owner."
      },
      "payDebt(uint256,address)": {
        "params": {
          "_id": "Report id",
          "_user": "User address (can pay debt for another user)"
        }
      },
      "renounceOwnership()": {
        "details": "Leaves the contract without owner. It will not be possible to call `onlyOwner` functions anymore. Can only be called by the current owner. NOTE: Renouncing ownership will leave the contract without an owner, thereby removing any functionality that is only available to the owner."
      },
      "report(uint256,uint256)": {
        "params": {
          "_payout": "Payout amount of this report",
          "_poolId": "Pool id to report incident"
        }
      },
      "settle(uint256)": {
        "params": {
          "_id": "Report id"
        }
      },
      "startVoting(uint256)": {
        "params": {
          "_id": "Report id"
        }
      },
      "transferOwnership(address)": {
        "details": "Transfers ownership of the contract to a new account (`newOwner`). Can only be called by the current owner."
      },
      "vote(uint256,uint256,uint256)": {
        "params": {
          "_amount": "Amount of veDEG used for this vote",
          "_id": "Id of the report to be voted on",
          "_isFor": "The user's choice (1: vote for, 2: vote against)"
        }
      }
    },
    "version": 1
  },
  "userdoc": {
    "kind": "user",
    "methods": {
      "claimReward(uint256)": {
        "notice": "Claim the voting reward         Only callable through proposal center"
      },
      "closeReport(uint256)": {
        "notice": "Close a pending report         Only owner can close a pending report         Can only be closed before the pending period ends         Will change the status from PENDING to CLOSED"
      },
      "executed(uint256)": {
        "notice": "Update status after execution         Only callable by executor"
      },
      "payDebt(uint256,address)": {
        "notice": "Pay debt to get back veDEG         For those who made a wrong voting choice         The paid DEG will be burned and the veDEG will be unlocked         Can not call this function when result is TIED or choose the correct side"
      },
      "report(uint256,uint256)": {
        "notice": "Start a new incident report         1000 DEG tokens are staked to start a report         If the report is correct, reporter gets back 1000DEG + 10% shield income + extra 1000DEG         If the report is wrong, reporter loses 1000DEG to those who vote against         Only callable through proposal center"
      },
      "settle(uint256)": {
        "notice": "Settle the final result for a report"
      },
      "startVoting(uint256)": {
        "notice": "Start the voting process         Can only be started after the pending period         Will change the status from PENDING to VOTING"
      },
      "vote(uint256,uint256,uint256)": {
        "notice": "Vote on current reports         Voting power is decided by the (unlocked) balance of veDEG         Once voted, those veDEG will be locked         Rewarded if votes with majority         Punished if votes against majority"
      }
    },
    "notice": "Incident Report Contract         New reports for project hacks are handled inside this contract         Timeline for a report is:         |-----------------------|----------------------|-------|-------|               Pending Period         Voting Period       Extend Period         When a new report is proposed, it start with PENDING_STATUS.         The person who start the report need to deposit REPORT_THRESHOLD DEG tokens.         During PENDING_STATUS, users & security companies can look at the report event.         After PENDING_PERIOD, the voting can be started and status transfer to VOTING_STATUS.         Users can vote for or against the report with veDeg tokens.         VeDeg tokens used for voting will be tentatively locked until the voting is settled.         After VOTING_PERIOD, the voting can be settled and status transfer to SETTLED_STATUS.         Depending on the votes of each side, the result can be PASSED, REJECTED or TIED.         Different results for their veDeg tokens will be set depending on the result.         If the result has changes during the last 24 hours of voting, the voting will be extended.         The time can only be extended twice.         For voters:              PASSED: Who vote for will get all veDeg tokens from the opposite side              REJECTED: Who vote against will get all veDeg tokens from the opposite side              TIED: Users can unlock their veDeg tokens         For reporter:              PASSED: Get back REPORT_THRESHOLD and get extra REPORT_REWARD & 10% of total treasury income              REJECTED: Lose REPORT_THRESHOLD to whom vote against              TIED: Lose REPORT_THRESHOLD         When an incident report has passed and been executed         The corresponding priority pool will be liquidated which means:             - Move out some assets for users to claim             - Deploy new generation of crTokens and PRI-LP tokens             - Update the farming weights for the priority farming pool",
    "version": 1
  },
  "storageLayout": {
    "storage": [
      {
        "astId": 21705,
        "contract": "src/voting/incidentReport/IncidentReport.sol:IncidentReport",
        "label": "_owner",
        "offset": 0,
        "slot": "0",
        "type": "t_address"
      },
      {
        "astId": 23491,
        "contract": "src/voting/incidentReport/IncidentReport.sol:IncidentReport",
        "label": "priorityPoolFactory",
        "offset": 0,
        "slot": "1",
        "type": "t_contract(IPriorityPoolFactory)14133"
      },
      {
        "astId": 23493,
        "contract": "src/voting/incidentReport/IncidentReport.sol:IncidentReport",
        "label": "executor",
        "offset": 0,
        "slot": "2",
        "type": "t_address"
      },
      {
        "astId": 22051,
        "contract": "src/voting/incidentReport/IncidentReport.sol:IncidentReport",
        "label": "reportCounter",
        "offset": 0,
        "slot": "3",
        "type": "t_uint256"
      },
      {
        "astId": 22053,
        "contract": "src/voting/incidentReport/IncidentReport.sol:IncidentReport",
        "label": "quorumRatio",
        "offset": 0,
        "slot": "4",
        "type": "t_uint256"
      },
      {
        "astId": 22081,
        "contract": "src/voting/incidentReport/IncidentReport.sol:IncidentReport",
        "label": "reports",
        "offset": 0,
        "slot": "5",
        "type": "t_mapping(t_uint256,t_struct(Report)22076_storage)"
      },
      {
        "astId": 22086,
        "contract": "src/voting/incidentReport/IncidentReport.sol:IncidentReport",
        "label": "poolReports",
        "offset": 0,
        "slot": "6",
        "type": "t_mapping(t_uint256,t_array(t_uint256)dyn_storage)"
      },
      {
        "astId": 22098,
        "contract": "src/voting/incidentReport/IncidentReport.sol:IncidentReport",
        "label": "tempResults",
        "offset": 0,
        "slot": "7",
        "type": "t_mapping(t_uint256,t_struct(TempResult)22093_storage)"
      },
      {
        "astId": 22114,
        "contract": "src/voting/incidentReport/IncidentReport.sol:IncidentReport",
        "label": "votes",
        "offset": 0,
        "slot": "8",
        "type": "t_mapping(t_address,t_mapping(t_uint256,t_struct(UserVote)22107_storage))"
      },
      {
        "astId": 22118,
        "contract": "src/voting/incidentReport/IncidentReport.sol:IncidentReport",
        "label": "reported",
        "offset": 0,
        "slot": "9",
        "type": "t_mapping(t_uint256,t_bool)"
      }
    ],
    "types": {
      "t_address": {
        "encoding": "inplace",
        "label": "address",
        "numberOfBytes": "20"
      },
      "t_array(t_uint256)dyn_storage": {
        "base": "t_uint256",
        "encoding": "dynamic_array",
        "label": "uint256[]",
        "numberOfBytes": "32"
      },
      "t_bool": {
        "encoding": "inplace",
        "label": "bool",
        "numberOfBytes": "1"
      },
      "t_contract(IPriorityPoolFactory)14133": {
        "encoding": "inplace",
        "label": "contract IPriorityPoolFactory",
        "numberOfBytes": "20"
      },
      "t_mapping(t_address,t_mapping(t_uint256,t_struct(UserVote)22107_storage))": {
        "encoding": "mapping",
        "key": "t_address",
        "label": "mapping(address => mapping(uint256 => struct IncidentReport.UserVote))",
        "numberOfBytes": "32",
        "value": "t_mapping(t_uint256,t_struct(UserVote)22107_storage)"
      },
      "t_mapping(t_uint256,t_array(t_uint256)dyn_storage)": {
        "encoding": "mapping",
        "key": "t_uint256",
        "label": "mapping(uint256 => uint256[])",
        "numberOfBytes": "32",
        "value": "t_array(t_uint256)dyn_storage"
      },
      "t_mapping(t_uint256,t_bool)": {
        "encoding": "mapping",
        "key": "t_uint256",
        "label": "mapping(uint256 => bool)",
        "numberOfBytes": "32",
        "value": "t_bool"
      },
      "t_mapping(t_uint256,t_struct(Report)22076_storage)": {
        "encoding": "mapping",
        "key": "t_uint256",
        "label": "mapping(uint256 => struct IncidentReport.Report)",
        "numberOfBytes": "32",
        "value": "t_struct(Report)22076_storage"
      },
      "t_mapping(t_uint256,t_struct(TempResult)22093_storage)": {
        "encoding": "mapping",
        "key": "t_uint256",
        "label": "mapping(uint256 => struct IncidentReport.TempResult)",
        "numberOfBytes": "32",
        "value": "t_struct(TempResult)22093_storage"
      },
      "t_mapping(t_uint256,t_struct(UserVote)22107_storage)": {
        "encoding": "mapping",
        "key": "t_uint256",
        "label": "mapping(uint256 => struct IncidentReport.UserVote)",
        "numberOfBytes": "32",
        "value": "t_struct(UserVote)22107_storage"
      },
      "t_struct(Report)22076_storage": {
        "encoding": "inplace",
        "label": "struct IncidentReport.Report",
        "members": [
          {
            "astId": 22055,
            "contract": "src/voting/incidentReport/IncidentReport.sol:IncidentReport",
            "label": "poolId",
            "offset": 0,
            "slot": "0",
            "type": "t_uint256"
          },
          {
            "astId": 22057,
            "contract": "src/voting/incidentReport/IncidentReport.sol:IncidentReport",
            "label": "reportTimestamp",
            "offset": 0,
            "slot": "1",
            "type": "t_uint256"
          },
          {
            "astId": 22059,
            "contract": "src/voting/incidentReport/IncidentReport.sol:IncidentReport",
            "label": "reporter",
            "offset": 0,
            "slot": "2",
            "type": "t_address"
          },
          {
            "astId": 22061,
            "contract": "src/voting/incidentReport/IncidentReport.sol:IncidentReport",
            "label": "voteTimestamp",
            "offset": 0,
            "slot": "3",
            "type": "t_uint256"
          },
          {
            "astId": 22063,
            "contract": "src/voting/incidentReport/IncidentReport.sol:IncidentReport",
            "label": "numFor",
            "offset": 0,
            "slot": "4",
            "type": "t_uint256"
          },
          {
            "astId": 22065,
            "contract": "src/voting/incidentReport/IncidentReport.sol:IncidentReport",
            "label": "numAgainst",
            "offset": 0,
            "slot": "5",
            "type": "t_uint256"
          },
          {
            "astId": 22067,
            "contract": "src/voting/incidentReport/IncidentReport.sol:IncidentReport",
            "label": "round",
            "offset": 0,
            "slot": "6",
            "type": "t_uint256"
          },
          {
            "astId": 22069,
            "contract": "src/voting/incidentReport/IncidentReport.sol:IncidentReport",
            "label": "status",
            "offset": 0,
            "slot": "7",
            "type": "t_uint256"
          },
          {
            "astId": 22071,
            "contract": "src/voting/incidentReport/IncidentReport.sol:IncidentReport",
            "label": "result",
            "offset": 0,
            "slot": "8",
            "type": "t_uint256"
          },
          {
            "astId": 22073,
            "contract": "src/voting/incidentReport/IncidentReport.sol:IncidentReport",
            "label": "votingReward",
            "offset": 0,
            "slot": "9",
            "type": "t_uint256"
          },
          {
            "astId": 22075,
            "contract": "src/voting/incidentReport/IncidentReport.sol:IncidentReport",
            "label": "payout",
            "offset": 0,
            "slot": "10",
            "type": "t_uint256"
          }
        ],
        "numberOfBytes": "352"
      },
      "t_struct(TempResult)22093_storage": {
        "encoding": "inplace",
        "label": "struct IncidentReport.TempResult",
        "members": [
          {
            "astId": 22088,
            "contract": "src/voting/incidentReport/IncidentReport.sol:IncidentReport",
            "label": "result",
            "offset": 0,
            "slot": "0",
            "type": "t_uint256"
          },
          {
            "astId": 22090,
            "contract": "src/voting/incidentReport/IncidentReport.sol:IncidentReport",
            "label": "sampleTimestamp",
            "offset": 0,
            "slot": "1",
            "type": "t_uint256"
          },
          {
            "astId": 22092,
            "contract": "src/voting/incidentReport/IncidentReport.sol:IncidentReport",
            "label": "hasChanged",
            "offset": 0,
            "slot": "2",
            "type": "t_bool"
          }
        ],
        "numberOfBytes": "96"
      },
      "t_struct(UserVote)22107_storage": {
        "encoding": "inplace",
        "label": "struct IncidentReport.UserVote",
        "members": [
          {
            "astId": 22100,
            "contract": "src/voting/incidentReport/IncidentReport.sol:IncidentReport",
            "label": "choice",
            "offset": 0,
            "slot": "0",
            "type": "t_uint256"
          },
          {
            "astId": 22102,
            "contract": "src/voting/incidentReport/IncidentReport.sol:IncidentReport",
            "label": "amount",
            "offset": 0,
            "slot": "1",
            "type": "t_uint256"
          },
          {
            "astId": 22104,
            "contract": "src/voting/incidentReport/IncidentReport.sol:IncidentReport",
            "label": "claimed",
            "offset": 0,
            "slot": "2",
            "type": "t_bool"
          },
          {
            "astId": 22106,
            "contract": "src/voting/incidentReport/IncidentReport.sol:IncidentReport",
            "label": "paid",
            "offset": 1,
            "slot": "2",
            "type": "t_bool"
          }
        ],
        "numberOfBytes": "96"
      },
      "t_uint256": {
        "encoding": "inplace",
        "label": "uint256",
        "numberOfBytes": "32"
      }
    }
  }
}