{
  "address": "0xd97FC6E67C4a2195be6c54B5a459DaC4DD795Ab3",
  "abi": [
    {
      "inputs": [
        {
          "internalType": "uint256",
          "name": "_initialAmount",
          "type": "uint256"
        },
        {
          "internalType": "string",
          "name": "_tokenName",
          "type": "string"
        },
        {
          "internalType": "uint8",
          "name": "_decimalUnits",
          "type": "uint8"
        },
        {
          "internalType": "string",
          "name": "_tokenSymbol",
          "type": "string"
        }
      ],
      "stateMutability": "nonpayable",
      "type": "constructor"
    },
    {
      "anonymous": false,
      "inputs": [
        {
          "indexed": true,
          "internalType": "address",
          "name": "owner",
          "type": "address"
        },
        {
          "indexed": true,
          "internalType": "address",
          "name": "spender",
          "type": "address"
        },
        {
          "indexed": false,
          "internalType": "uint256",
          "name": "value",
          "type": "uint256"
        }
      ],
      "name": "Approval",
      "type": "event"
    },
    {
      "anonymous": false,
      "inputs": [
        {
          "indexed": true,
          "internalType": "address",
          "name": "_from",
          "type": "address"
        },
        {
          "indexed": false,
          "internalType": "uint256",
          "name": "_value",
          "type": "uint256"
        }
      ],
      "name": "Deposit",
      "type": "event"
    },
    {
      "anonymous": false,
      "inputs": [
        {
          "indexed": true,
          "internalType": "address",
          "name": "from",
          "type": "address"
        },
        {
          "indexed": true,
          "internalType": "address",
          "name": "to",
          "type": "address"
        },
        {
          "indexed": false,
          "internalType": "uint256",
          "name": "value",
          "type": "uint256"
        }
      ],
      "name": "Transfer",
      "type": "event"
    },
    {
      "inputs": [],
      "name": "MAX_UINT256",
      "outputs": [
        {
          "internalType": "uint256",
          "name": "",
          "type": "uint256"
        }
      ],
      "stateMutability": "view",
      "type": "function"
    },
    {
      "inputs": [],
      "name": "_decimals",
      "outputs": [
        {
          "internalType": "uint8",
          "name": "",
          "type": "uint8"
        }
      ],
      "stateMutability": "view",
      "type": "function"
    },
    {
      "inputs": [
        {
          "internalType": "address",
          "name": "owner",
          "type": "address"
        },
        {
          "internalType": "address",
          "name": "spender",
          "type": "address"
        }
      ],
      "name": "allowance",
      "outputs": [
        {
          "internalType": "uint256",
          "name": "",
          "type": "uint256"
        }
      ],
      "stateMutability": "view",
      "type": "function"
    },
    {
      "inputs": [
        {
          "internalType": "address",
          "name": "spender",
          "type": "address"
        },
        {
          "internalType": "uint256",
          "name": "amount",
          "type": "uint256"
        }
      ],
      "name": "approve",
      "outputs": [
        {
          "internalType": "bool",
          "name": "",
          "type": "bool"
        }
      ],
      "stateMutability": "nonpayable",
      "type": "function"
    },
    {
      "inputs": [
        {
          "internalType": "address",
          "name": "account",
          "type": "address"
        }
      ],
      "name": "balanceOf",
      "outputs": [
        {
          "internalType": "uint256",
          "name": "",
          "type": "uint256"
        }
      ],
      "stateMutability": "view",
      "type": "function"
    },
    {
      "inputs": [
        {
          "internalType": "address",
          "name": "_to",
          "type": "address"
        },
        {
          "internalType": "uint256",
          "name": "_amount",
          "type": "uint256"
        }
      ],
      "name": "burn",
      "outputs": [],
      "stateMutability": "nonpayable",
      "type": "function"
    },
    {
      "inputs": [],
      "name": "decimals",
      "outputs": [
        {
          "internalType": "uint8",
          "name": "",
          "type": "uint8"
        }
      ],
      "stateMutability": "view",
      "type": "function"
    },
    {
      "inputs": [
        {
          "internalType": "address",
          "name": "spender",
          "type": "address"
        },
        {
          "internalType": "uint256",
          "name": "subtractedValue",
          "type": "uint256"
        }
      ],
      "name": "decreaseAllowance",
      "outputs": [
        {
          "internalType": "bool",
          "name": "",
          "type": "bool"
        }
      ],
      "stateMutability": "nonpayable",
      "type": "function"
    },
    {
      "inputs": [
        {
          "internalType": "uint256",
          "name": "_type",
          "type": "uint256"
        },
        {
          "internalType": "address",
          "name": "_token",
          "type": "address"
        },
        {
          "internalType": "uint256",
          "name": "_transfer",
          "type": "uint256"
        },
        {
          "internalType": "uint256",
          "name": "_minReceive",
          "type": "uint256"
        }
      ],
      "name": "deposit",
      "outputs": [],
      "stateMutability": "nonpayable",
      "type": "function"
    },
    {
      "inputs": [
        {
          "internalType": "address",
          "name": "spender",
          "type": "address"
        },
        {
          "internalType": "uint256",
          "name": "addedValue",
          "type": "uint256"
        }
      ],
      "name": "increaseAllowance",
      "outputs": [
        {
          "internalType": "bool",
          "name": "",
          "type": "bool"
        }
      ],
      "stateMutability": "nonpayable",
      "type": "function"
    },
    {
      "inputs": [
        {
          "internalType": "address",
          "name": "_to",
          "type": "address"
        },
        {
          "internalType": "uint256",
          "name": "_amount",
          "type": "uint256"
        }
      ],
      "name": "mint",
      "outputs": [],
      "stateMutability": "nonpayable",
      "type": "function"
    },
    {
      "inputs": [],
      "name": "name",
      "outputs": [
        {
          "internalType": "string",
          "name": "",
          "type": "string"
        }
      ],
      "stateMutability": "view",
      "type": "function"
    },
    {
      "inputs": [],
      "name": "symbol",
      "outputs": [
        {
          "internalType": "string",
          "name": "",
          "type": "string"
        }
      ],
      "stateMutability": "view",
      "type": "function"
    },
    {
      "inputs": [],
      "name": "totalSupply",
      "outputs": [
        {
          "internalType": "uint256",
          "name": "",
          "type": "uint256"
        }
      ],
      "stateMutability": "view",
      "type": "function"
    },
    {
      "inputs": [
        {
          "internalType": "address",
          "name": "to",
          "type": "address"
        },
        {
          "internalType": "uint256",
          "name": "amount",
          "type": "uint256"
        }
      ],
      "name": "transfer",
      "outputs": [
        {
          "internalType": "bool",
          "name": "",
          "type": "bool"
        }
      ],
      "stateMutability": "nonpayable",
      "type": "function"
    },
    {
      "inputs": [
        {
          "internalType": "address",
          "name": "from",
          "type": "address"
        },
        {
          "internalType": "address",
          "name": "to",
          "type": "address"
        },
        {
          "internalType": "uint256",
          "name": "amount",
          "type": "uint256"
        }
      ],
      "name": "transferFrom",
      "outputs": [
        {
          "internalType": "bool",
          "name": "",
          "type": "bool"
        }
      ],
      "stateMutability": "nonpayable",
      "type": "function"
    }
  ],
  "transactionHash": "0xa3ddfe3bf8f1888be556ae211d4868b7e36b727bc647d4cbbf872a2397fe2c0b",
  "args": [
    0,
    "Shield",
    6,
    "SHD"
  ],
  "numDeployments": 4,
  "solcInputHash": "6f21418f71e57af3298e19e94a630568",
  "bytecode": "0x60406080815234620003e9576200104f803803806200001e81620003ee565b928339810190608081830312620003e9578051602080830151919290916001600160401b0390818111620003e957856200005a91840162000414565b91868101519560ff8716809703620003e9576060820151838111620003e95762000085920162000414565b91805191808311620002e95760038054936001938486811c96168015620003de575b88871014620003c8578190601f9687811162000372575b5088908783116001146200030b57600092620002ff575b505060001982841b1c191690841b1781555b8451918211620002e95760049485548481811c91168015620002de575b88821014620002c9578581116200027e575b508690858411600114620002135793839491849260009562000207575b50501b92600019911b1c19161782555b3315620001c857506002549083198211620001b35750600091837fddf252ad1be2c89b69c2b068fc378daa952ba7f163c4a11628f55a4df523b3ef920160025533835282815285832084815401905585519384523393a360ff19600554161760055551610bb79081620004988239f35b601190634e487b7160e01b6000525260246000fd5b60649286519262461bcd60e51b845283015260248201527f45524332303a206d696e7420746f20746865207a65726f2061646472657373006044820152fd5b01519350388062000133565b9190601f198416928760005284896000209460005b8b898383106200026657505050106200024b575b50505050811b01825562000143565b01519060f884600019921b161c19169055388080806200023c565b86860151895590970196948501948893500162000228565b86600052876000208680860160051c8201928a8710620002bf575b0160051c019085905b828110620002b257505062000116565b60008155018590620002a2565b9250819262000299565b602287634e487b7160e01b6000525260246000fd5b90607f169062000104565b634e487b7160e01b600052604160045260246000fd5b015190503880620000d5565b90869350601f19831691856000528a6000209260005b8c8282106200035b575050841162000342575b505050811b018155620000e7565b015160001983861b60f8161c1916905538808062000334565b8385015186558a9790950194938401930162000321565b90915083600052886000208780850160051c8201928b8610620003be575b918891869594930160051c01915b828110620003ae575050620000be565b600081558594508891016200039e565b9250819262000390565b634e487b7160e01b600052602260045260246000fd5b95607f1695620000a7565b600080fd5b6040519190601f01601f191682016001600160401b03811183821017620002e957604052565b81601f82011215620003e9578051906001600160401b038211620002e95760209062000449601f8401601f19168301620003ee565b93838552828483010111620003e95782906000905b838383106200047e575050116200047457505090565b6000918301015290565b819350828193920101518282880101520183916200045e56fe608060408181526004918236101561001657600080fd5b600092833560e01c91826306fdde03146106b957508163095ea7b31461068f57816318160ddd1461067057816323b872dd146105a6578163313ce5671461058457816332424aa31461058457816333a581d214610567578163395093511461051757816340c10f19146104ee578382636f0372af1461042a5750816370a08231146103f357816395d89b411461030d5781639dc29fac146101fa578163a457c2d71461015257508063a9059cbb146101225763dd62ed3e146100d757600080fd5b3461011e578060031936011261011e57806020926100f36107e7565b6100fb610802565b6001600160a01b0391821683526001865283832091168252845220549051908152f35b5080fd5b503461011e578060031936011261011e5760209061014b6101416107e7565b6024359033610872565b5160018152f35b905082346101f757826003193601126101f75761016d6107e7565b918360243592338152600160205281812060018060a01b03861682526020522054908282106101a65760208561014b85850387336109ce565b608490602086519162461bcd60e51b8352820152602560248201527f45524332303a2064656372656173656420616c6c6f77616e63652062656c6f77604482015264207a65726f60d81b6064820152fd5b80fd5b9050346103095781600319360112610309576102146107e7565b6001600160a01b0316906024359082156102bc5782855284602052838520549082821061026e57506020828493600080516020610b628339815191529388968752868452038686205580600254036002558551908152a351f35b608490602086519162461bcd60e51b8352820152602260248201527f45524332303a206275726e20616d6f756e7420657863656564732062616c616e604482015261636560f01b6064820152fd5b608490602085519162461bcd60e51b8352820152602160248201527f45524332303a206275726e2066726f6d20746865207a65726f206164647265736044820152607360f81b6064820152fd5b8280fd5b83833461011e578160031936011261011e57805191809380549160019083821c928285169485156103e9575b60209586861081146103d6578589529081156103b25750600114610377575b6103738787610369828c0383610818565b5191829182610790565b0390f35b9080949750528583205b82841061039f57505050826103739461036992820101948680610358565b8054868501880152928601928101610381565b60ff19168887015250505050151560051b8301019250610369826103738680610358565b634e487b7160e01b845260228352602484fd5b93607f1693610339565b50503461011e57602036600319011261011e5760209181906001600160a01b0361041b6107e7565b16815280845220549051908152f35b91503461011e57608036600319011261011e57610445610802565b6001823514610455575b50505051f35b6064602092610465823533610ad0565b85516323b872dd60e01b8152339181019190915230602482015260448035908201529384928391906001600160a01b03165af180156104e2576104ab575b80839161044f565b6020813d82116104da575b816104c360209383610818565b8101031261030957518015150361011e57386104a3565b3d91506104b6565b505051903d90823e3d90fd5b50503461011e578060031936011261011e5761051461050b6107e7565b60243590610ad0565b51f35b50503461011e578060031936011261011e5761014b60209261056061053a6107e7565b338352600186528483206001600160a01b03821684528652918490205460243590610850565b90336109ce565b50503461011e578160031936011261011e57516000198152602090f35b50503461011e578160031936011261011e5760209060ff600554169051908152f35b8391503461011e57606036600319011261011e576105c26107e7565b6105ca610802565b91846044359460018060a01b038416815260016020528181203382526020522054906000198203610604575b60208661014b878787610872565b84821061062d57509183916106226020969561014b950333836109ce565b9193948193506105f6565b606490602087519162461bcd60e51b8352820152601d60248201527f45524332303a20696e73756666696369656e7420616c6c6f77616e63650000006044820152fd5b50503461011e578160031936011261011e576020906002549051908152f35b50503461011e578060031936011261011e5760209061014b6106af6107e7565b60243590336109ce565b9291503461078c578360031936011261078c57600354600181811c9186908281168015610782575b602095868610821461076f575084885290811561074d5750600114610712575b6103738686610369828b0383610818565b929550600383528583205b82841061073a575050508261037394610369928201019438610701565b805486850188015292860192810161071d565b60ff191687860152505050151560051b83010192506103698261037338610701565b634e487b7160e01b845260229052602483fd5b93607f16936106e1565b8380fd5b919091602080825283519081818401526000945b8286106107d15750508060409394116107c4575b601f01601f1916010190565b60008382840101526107b8565b85810182015184870160400152948101946107a4565b600435906001600160a01b03821682036107fd57565b600080fd5b602435906001600160a01b03821682036107fd57565b90601f8019910116810190811067ffffffffffffffff82111761083a57604052565b634e487b7160e01b600052604160045260246000fd5b8119811161085c570190565b634e487b7160e01b600052601160045260246000fd5b6001600160a01b0390811691821561097b571691821561092a576000828152806020526040812054918083106108d65760408282600080516020610b62833981519152958760209652828652038282205586815220818154019055604051908152a3565b60405162461bcd60e51b815260206004820152602660248201527f45524332303a207472616e7366657220616d6f756e7420657863656564732062604482015265616c616e636560d01b6064820152608490fd5b60405162461bcd60e51b815260206004820152602360248201527f45524332303a207472616e7366657220746f20746865207a65726f206164647260448201526265737360e81b6064820152608490fd5b60405162461bcd60e51b815260206004820152602560248201527f45524332303a207472616e736665722066726f6d20746865207a65726f206164604482015264647265737360d81b6064820152608490fd5b6001600160a01b03908116918215610a7f5716918215610a2f5760207f8c5be1e5ebec7d5bd14f71427d1e84f3dd0314c0f7b2291e5b200ac8c7c3b925918360005260018252604060002085600052825280604060002055604051908152a3565b60405162461bcd60e51b815260206004820152602260248201527f45524332303a20617070726f766520746f20746865207a65726f206164647265604482015261737360f01b6064820152608490fd5b60405162461bcd60e51b8152602060048201526024808201527f45524332303a20617070726f76652066726f6d20746865207a65726f206164646044820152637265737360e01b6064820152608490fd5b6001600160a01b0316908115610b1c57600080516020610b62833981519152602082610b00600094600254610850565b60025584845283825260408420818154019055604051908152a3565b60405162461bcd60e51b815260206004820152601f60248201527f45524332303a206d696e7420746f20746865207a65726f2061646472657373006044820152606490fdfeddf252ad1be2c89b69c2b068fc378daa952ba7f163c4a11628f55a4df523b3efa264697066735822122035cd5ee27af82c8e3a55a7b5166c308d629373e3cda4bfe43f56107c3891420664736f6c634300080f0033",
  "devdoc": {
    "kind": "dev",
    "methods": {
      "allowance(address,address)": {
        "details": "See {IERC20-allowance}."
      },
      "approve(address,uint256)": {
        "details": "See {IERC20-approve}. NOTE: If `amount` is the maximum `uint256`, the allowance is not updated on `transferFrom`. This is semantically equivalent to an infinite approval. Requirements: - `spender` cannot be the zero address."
      },
      "balanceOf(address)": {
        "details": "See {IERC20-balanceOf}."
      },
      "decimals()": {
        "details": "Returns the number of decimals used to get its user representation. For example, if `decimals` equals `2`, a balance of `505` tokens should be displayed to a user as `5.05` (`505 / 10 ** 2`). Tokens usually opt for a value of 18, imitating the relationship between Ether and Wei. This is the value {ERC20} uses, unless this function is overridden; NOTE: This information is only used for _display_ purposes: it in no way affects any of the arithmetic of the contract, including {IERC20-balanceOf} and {IERC20-transfer}."
      },
      "decreaseAllowance(address,uint256)": {
        "details": "Atomically decreases the allowance granted to `spender` by the caller. This is an alternative to {approve} that can be used as a mitigation for problems described in {IERC20-approve}. Emits an {Approval} event indicating the updated allowance. Requirements: - `spender` cannot be the zero address. - `spender` must have allowance for the caller of at least `subtractedValue`."
      },
      "increaseAllowance(address,uint256)": {
        "details": "Atomically increases the allowance granted to `spender` by the caller. This is an alternative to {approve} that can be used as a mitigation for problems described in {IERC20-approve}. Emits an {Approval} event indicating the updated allowance. Requirements: - `spender` cannot be the zero address."
      },
      "name()": {
        "details": "Returns the name of the token."
      },
      "symbol()": {
        "details": "Returns the symbol of the token, usually a shorter version of the name."
      },
      "totalSupply()": {
        "details": "See {IERC20-totalSupply}."
      },
      "transfer(address,uint256)": {
        "details": "See {IERC20-transfer}. Requirements: - `to` cannot be the zero address. - the caller must have a balance of at least `amount`."
      },
      "transferFrom(address,address,uint256)": {
        "details": "See {IERC20-transferFrom}. Emits an {Approval} event indicating the updated allowance. This is not required by the EIP. See the note at the beginning of {ERC20}. NOTE: Does not update the allowance if the current allowance is the maximum `uint256`. Requirements: - `from` and `to` cannot be the zero address. - `from` must have a balance of at least `amount`. - the caller must have allowance for ``from``'s tokens of at least `amount`."
      }
    },
    "version": 1
  },
  "userdoc": {
    "kind": "user",
    "methods": {},
    "version": 1
  },
  "storageLayout": {
    "storage": [
      {
        "astId": 8925,
        "contract": "src/mock/MockSHIELD.sol:MockSHIELD",
        "label": "_balances",
        "offset": 0,
        "slot": "0",
        "type": "t_mapping(t_address,t_uint256)"
      },
      {
        "astId": 8931,
        "contract": "src/mock/MockSHIELD.sol:MockSHIELD",
        "label": "_allowances",
        "offset": 0,
        "slot": "1",
        "type": "t_mapping(t_address,t_mapping(t_address,t_uint256))"
      },
      {
        "astId": 8933,
        "contract": "src/mock/MockSHIELD.sol:MockSHIELD",
        "label": "_totalSupply",
        "offset": 0,
        "slot": "2",
        "type": "t_uint256"
      },
      {
        "astId": 8935,
        "contract": "src/mock/MockSHIELD.sol:MockSHIELD",
        "label": "_name",
        "offset": 0,
        "slot": "3",
        "type": "t_string_storage"
      },
      {
        "astId": 8937,
        "contract": "src/mock/MockSHIELD.sol:MockSHIELD",
        "label": "_symbol",
        "offset": 0,
        "slot": "4",
        "type": "t_string_storage"
      },
      {
        "astId": 15752,
        "contract": "src/mock/MockSHIELD.sol:MockSHIELD",
        "label": "_decimals",
        "offset": 0,
        "slot": "5",
        "type": "t_uint8"
      }
    ],
    "types": {
      "t_address": {
        "encoding": "inplace",
        "label": "address",
        "numberOfBytes": "20"
      },
      "t_mapping(t_address,t_mapping(t_address,t_uint256))": {
        "encoding": "mapping",
        "key": "t_address",
        "label": "mapping(address => mapping(address => uint256))",
        "numberOfBytes": "32",
        "value": "t_mapping(t_address,t_uint256)"
      },
      "t_mapping(t_address,t_uint256)": {
        "encoding": "mapping",
        "key": "t_address",
        "label": "mapping(address => uint256)",
        "numberOfBytes": "32",
        "value": "t_uint256"
      },
      "t_string_storage": {
        "encoding": "bytes",
        "label": "string",
        "numberOfBytes": "32"
      },
      "t_uint256": {
        "encoding": "inplace",
        "label": "uint256",
        "numberOfBytes": "32"
      },
      "t_uint8": {
        "encoding": "inplace",
        "label": "uint8",
        "numberOfBytes": "1"
      }
    }
  }
}