{
  "address": "0x425623B8A6CadCFbdaAeaa8F0c681241B3314099",
  "abi": [
    {
      "inputs": [
        {
          "internalType": "uint256",
          "name": "_initialAmount",
          "type": "uint256"
        },
        {
          "internalType": "string",
          "name": "_tokenName",
          "type": "string"
        },
        {
          "internalType": "uint8",
          "name": "_decimalUnits",
          "type": "uint8"
        },
        {
          "internalType": "string",
          "name": "_tokenSymbol",
          "type": "string"
        }
      ],
      "stateMutability": "nonpayable",
      "type": "constructor"
    },
    {
      "anonymous": false,
      "inputs": [
        {
          "indexed": true,
          "internalType": "address",
          "name": "owner",
          "type": "address"
        },
        {
          "indexed": true,
          "internalType": "address",
          "name": "spender",
          "type": "address"
        },
        {
          "indexed": false,
          "internalType": "uint256",
          "name": "value",
          "type": "uint256"
        }
      ],
      "name": "Approval",
      "type": "event"
    },
    {
      "anonymous": false,
      "inputs": [
        {
          "indexed": true,
          "internalType": "address",
          "name": "from",
          "type": "address"
        },
        {
          "indexed": true,
          "internalType": "address",
          "name": "to",
          "type": "address"
        },
        {
          "indexed": false,
          "internalType": "uint256",
          "name": "value",
          "type": "uint256"
        }
      ],
      "name": "Transfer",
      "type": "event"
    },
    {
      "inputs": [],
      "name": "MAX_UINT256",
      "outputs": [
        {
          "internalType": "uint256",
          "name": "",
          "type": "uint256"
        }
      ],
      "stateMutability": "view",
      "type": "function"
    },
    {
      "inputs": [],
      "name": "_decimals",
      "outputs": [
        {
          "internalType": "uint8",
          "name": "",
          "type": "uint8"
        }
      ],
      "stateMutability": "view",
      "type": "function"
    },
    {
      "inputs": [
        {
          "internalType": "address",
          "name": "owner",
          "type": "address"
        },
        {
          "internalType": "address",
          "name": "spender",
          "type": "address"
        }
      ],
      "name": "allowance",
      "outputs": [
        {
          "internalType": "uint256",
          "name": "",
          "type": "uint256"
        }
      ],
      "stateMutability": "view",
      "type": "function"
    },
    {
      "inputs": [
        {
          "internalType": "address",
          "name": "",
          "type": "address"
        }
      ],
      "name": "alreadyMinted",
      "outputs": [
        {
          "internalType": "bool",
          "name": "",
          "type": "bool"
        }
      ],
      "stateMutability": "view",
      "type": "function"
    },
    {
      "inputs": [
        {
          "internalType": "address",
          "name": "spender",
          "type": "address"
        },
        {
          "internalType": "uint256",
          "name": "amount",
          "type": "uint256"
        }
      ],
      "name": "approve",
      "outputs": [
        {
          "internalType": "bool",
          "name": "",
          "type": "bool"
        }
      ],
      "stateMutability": "nonpayable",
      "type": "function"
    },
    {
      "inputs": [
        {
          "internalType": "address",
          "name": "account",
          "type": "address"
        }
      ],
      "name": "balanceOf",
      "outputs": [
        {
          "internalType": "uint256",
          "name": "",
          "type": "uint256"
        }
      ],
      "stateMutability": "view",
      "type": "function"
    },
    {
      "inputs": [
        {
          "internalType": "address",
          "name": "_account",
          "type": "address"
        },
        {
          "internalType": "uint256",
          "name": "_amount",
          "type": "uint256"
        }
      ],
      "name": "burnDegis",
      "outputs": [],
      "stateMutability": "nonpayable",
      "type": "function"
    },
    {
      "inputs": [],
      "name": "decimals",
      "outputs": [
        {
          "internalType": "uint8",
          "name": "",
          "type": "uint8"
        }
      ],
      "stateMutability": "view",
      "type": "function"
    },
    {
      "inputs": [
        {
          "internalType": "address",
          "name": "spender",
          "type": "address"
        },
        {
          "internalType": "uint256",
          "name": "subtractedValue",
          "type": "uint256"
        }
      ],
      "name": "decreaseAllowance",
      "outputs": [
        {
          "internalType": "bool",
          "name": "",
          "type": "bool"
        }
      ],
      "stateMutability": "nonpayable",
      "type": "function"
    },
    {
      "inputs": [
        {
          "internalType": "address",
          "name": "spender",
          "type": "address"
        },
        {
          "internalType": "uint256",
          "name": "addedValue",
          "type": "uint256"
        }
      ],
      "name": "increaseAllowance",
      "outputs": [
        {
          "internalType": "bool",
          "name": "",
          "type": "bool"
        }
      ],
      "stateMutability": "nonpayable",
      "type": "function"
    },
    {
      "inputs": [
        {
          "internalType": "address",
          "name": "_account",
          "type": "address"
        },
        {
          "internalType": "uint256",
          "name": "_amount",
          "type": "uint256"
        }
      ],
      "name": "mint",
      "outputs": [],
      "stateMutability": "nonpayable",
      "type": "function"
    },
    {
      "inputs": [
        {
          "internalType": "address",
          "name": "_account",
          "type": "address"
        },
        {
          "internalType": "uint256",
          "name": "_amount",
          "type": "uint256"
        }
      ],
      "name": "mintDegis",
      "outputs": [],
      "stateMutability": "nonpayable",
      "type": "function"
    },
    {
      "inputs": [],
      "name": "name",
      "outputs": [
        {
          "internalType": "string",
          "name": "",
          "type": "string"
        }
      ],
      "stateMutability": "view",
      "type": "function"
    },
    {
      "inputs": [],
      "name": "owner",
      "outputs": [
        {
          "internalType": "address",
          "name": "",
          "type": "address"
        }
      ],
      "stateMutability": "view",
      "type": "function"
    },
    {
      "inputs": [],
      "name": "symbol",
      "outputs": [
        {
          "internalType": "string",
          "name": "",
          "type": "string"
        }
      ],
      "stateMutability": "view",
      "type": "function"
    },
    {
      "inputs": [],
      "name": "totalSupply",
      "outputs": [
        {
          "internalType": "uint256",
          "name": "",
          "type": "uint256"
        }
      ],
      "stateMutability": "view",
      "type": "function"
    },
    {
      "inputs": [
        {
          "internalType": "address",
          "name": "to",
          "type": "address"
        },
        {
          "internalType": "uint256",
          "name": "amount",
          "type": "uint256"
        }
      ],
      "name": "transfer",
      "outputs": [
        {
          "internalType": "bool",
          "name": "",
          "type": "bool"
        }
      ],
      "stateMutability": "nonpayable",
      "type": "function"
    },
    {
      "inputs": [
        {
          "internalType": "address",
          "name": "from",
          "type": "address"
        },
        {
          "internalType": "address",
          "name": "to",
          "type": "address"
        },
        {
          "internalType": "uint256",
          "name": "amount",
          "type": "uint256"
        }
      ],
      "name": "transferFrom",
      "outputs": [
        {
          "internalType": "bool",
          "name": "",
          "type": "bool"
        }
      ],
      "stateMutability": "nonpayable",
      "type": "function"
    }
  ],
  "transactionHash": "0x43e4ecd70cb6e2fb5f4e6d3807e0dad6c92c8ebf375d422236b69087298f7581",
  "args": [
    0,
    "DegisToken",
    18,
    "DEG"
  ],
  "numDeployments": 10,
  "solcInputHash": "67550ce593e52f50043518f498b0f7a8",
  "bytecode": "0x604060808152346200022557620010cf803803806200001e816200040c565b92833981019060808183031262000225578051602080830151919290916001600160401b03908181116200022557856200005a91840162000432565b91868101519560ff871680970362000225576060820151838111620002255762000085920162000432565b918051918083116200030c5760038054936001938486811c9616801562000401575b88871014620003eb578190601f9687811162000395575b5088908783116001146200032e5760009262000322575b505060001982841b1c191690841b1781555b84519182116200030c5760049485548481811c9116801562000301575b88821014620002ec57858111620002a1575b50869085841160011462000236579383949184926000956200022a575b50501b92600019911b1c19161782555b6012850362000225573315620001e657506002549083198211620001d15750600091837fddf252ad1be2c89b69c2b068fc378daa952ba7f163c4a11628f55a4df523b3ef920160025533835282815285832084815401905585519384523393a3600780546001600160a01b031916331790556005805460ff191691909117905551610c199081620004b68239f35b601190634e487b7160e01b6000525260246000fd5b60649286519262461bcd60e51b845283015260248201527f45524332303a206d696e7420746f20746865207a65726f2061646472657373006044820152fd5b600080fd5b01519350388062000133565b9190601f198416928760005284896000209460005b8b898383106200028957505050106200026e575b50505050811b01825562000143565b01519060f884600019921b161c19169055388080806200025f565b8686015189559097019694850194889350016200024b565b86600052876000208680860160051c8201928a8710620002e2575b0160051c019085905b828110620002d557505062000116565b60008155018590620002c5565b92508192620002bc565b602287634e487b7160e01b6000525260246000fd5b90607f169062000104565b634e487b7160e01b600052604160045260246000fd5b015190503880620000d5565b90869350601f19831691856000528a6000209260005b8c8282106200037e575050841162000365575b505050811b018155620000e7565b015160001983861b60f8161c1916905538808062000357565b8385015186558a9790950194938401930162000344565b90915083600052886000208780850160051c8201928b8610620003e1575b918891869594930160051c01915b828110620003d1575050620000be565b60008155859450889101620003c1565b92508192620003b3565b634e487b7160e01b600052602260045260246000fd5b95607f1695620000a7565b6040519190601f01601f191682016001600160401b038111838210176200030c57604052565b81601f8201121562000225578051906001600160401b0382116200030c5760209062000467601f8401601f191683016200040c565b93838552828483010111620002255782906000905b838383106200049c575050116200049257505090565b6000918301015290565b819350828193920101518282880101520183916200047c56fe608060408181526004918236101561001657600080fd5b600092833560e01c91826306fdde031461076f57508163095ea7b3146107455781630a398b881461070757816318160ddd146106e857816323b872dd1461061e578163313ce567146105fc57816332424aa3146105fc57816333a581d2146105df578163395093511461058f57816340c10f19146104ab5781636858da9a1461039857816370a08231146103615781638da5cb5b1461033857816395d89b4114610236578163a457c2d71461018e57508063a9059cbb1461015e578063b4767398146101365763dd62ed3e146100eb57600080fd5b3461013257806003193601126101325780602092610107610881565b61010f61089c565b6001600160a01b0391821683526001865283832091168252845220549051908152f35b5080fd5b503461013257806003193601126101325761015b610152610881565b60243590610b32565b51f35b503461013257806003193601126101325760209061018761017d610881565b60243590336108d4565b5160018152f35b905082346102335782600319360112610233576101a9610881565b918360243592338152600160205281812060018060a01b03861682526020522054908282106101e2576020856101878585038733610a30565b608490602086519162461bcd60e51b8352820152602560248201527f45524332303a2064656372656173656420616c6c6f77616e63652062656c6f77604482015264207a65726f60d81b6064820152fd5b80fd5b838334610132578160031936011261013257805190828454600181811c9080831692831561032e575b602093848410811461031b578388529081156102ff57506001146102c7575b505050829003601f01601f191682019267ffffffffffffffff8411838510176102b457508291826102b092528261082a565b0390f35b634e487b7160e01b815260418552602490fd5b919250868652828620918387935b8385106102eb575050505083010185808061027e565b8054888601830152930192849082016102d5565b60ff1916878501525050151560051b840101905085808061027e565b634e487b7160e01b895260228a52602489fd5b91607f169161025f565b50503461013257816003193601126101325760075490516001600160a01b039091168152602090f35b5050346101325760203660031901126101325760209181906001600160a01b03610389610881565b16815280845220549051908152f35b9050346104a757816003193601126104a7576103b2610881565b6001600160a01b03169060243590821561045a5782855284602052838520549082821061040c57506020828493600080516020610bc48339815191529388968752868452038686205580600254036002558551908152a351f35b608490602086519162461bcd60e51b8352820152602260248201527f45524332303a206275726e20616d6f756e7420657863656564732062616c616e604482015261636560f01b6064820152fd5b608490602085519162461bcd60e51b8352820152602160248201527f45524332303a206275726e2066726f6d20746865207a65726f206164647265736044820152607360f81b6064820152fd5b8280fd5b8383346101325780600319360112610132576104c5610881565b6007546001600160a01b0394602435929186163303610502575b5061015b929394811685526006602052838520600160ff19825416179055610b32565b69021e19e0c9bab2400000830361055d578582168552600660205260ff8486205416156104df57606490602085519162461bcd60e51b8352820152600e60248201526d105b1c9958591e481b5a5b9d195960921b6044820152fd5b606490602085519162461bcd60e51b8352820152600c60248201526b15dc9bdb99c8185b5bdd5b9d60a21b6044820152fd5b5050346101325780600319360112610132576101876020926105d86105b2610881565b338352600186528483206001600160a01b038216845286529184902054602435906108b2565b9033610a30565b505034610132578160031936011261013257516000198152602090f35b50503461013257816003193601126101325760209060ff600554169051908152f35b839150346101325760603660031901126101325761063a610881565b61064261089c565b91846044359460018060a01b03841681526001602052818120338252602052205490600019820361067c575b6020866101878787876108d4565b8482106106a5575091839161069a6020969561018795033383610a30565b91939481935061066e565b606490602087519162461bcd60e51b8352820152601d60248201527f45524332303a20696e73756666696369656e7420616c6c6f77616e63650000006044820152fd5b5050346101325781600319360112610132576020906002549051908152f35b5050346101325760203660031901126101325760209160ff9082906001600160a01b03610732610881565b1681526006855220541690519015158152f35b505034610132578060031936011261013257602090610187610765610881565b6024359033610a30565b849084346104a757826003193601126104a75782600354600181811c90808316928315610820575b602093848410811461031b578388529081156102ff57506001146107e757505050829003601f01601f191682019267ffffffffffffffff8411838510176102b457508291826102b092528261082a565b91925060038652828620918387935b83851061080c575050505083010185808061027e565b8054888601830152930192849082016107f6565b91607f1691610797565b919091602080825283519081818401526000945b82861061086b57505080604093941161085e575b601f01601f1916010190565b6000838284010152610852565b858101820151848701604001529481019461083e565b600435906001600160a01b038216820361089757565b600080fd5b602435906001600160a01b038216820361089757565b811981116108be570190565b634e487b7160e01b600052601160045260246000fd5b6001600160a01b039081169182156109dd571691821561098c576000828152806020526040812054918083106109385760408282600080516020610bc4833981519152958760209652828652038282205586815220818154019055604051908152a3565b60405162461bcd60e51b815260206004820152602660248201527f45524332303a207472616e7366657220616d6f756e7420657863656564732062604482015265616c616e636560d01b6064820152608490fd5b60405162461bcd60e51b815260206004820152602360248201527f45524332303a207472616e7366657220746f20746865207a65726f206164647260448201526265737360e81b6064820152608490fd5b60405162461bcd60e51b815260206004820152602560248201527f45524332303a207472616e736665722066726f6d20746865207a65726f206164604482015264647265737360d81b6064820152608490fd5b6001600160a01b03908116918215610ae15716918215610a915760207f8c5be1e5ebec7d5bd14f71427d1e84f3dd0314c0f7b2291e5b200ac8c7c3b925918360005260018252604060002085600052825280604060002055604051908152a3565b60405162461bcd60e51b815260206004820152602260248201527f45524332303a20617070726f766520746f20746865207a65726f206164647265604482015261737360f01b6064820152608490fd5b60405162461bcd60e51b8152602060048201526024808201527f45524332303a20617070726f76652066726f6d20746865207a65726f206164646044820152637265737360e01b6064820152608490fd5b6001600160a01b0316908115610b7e57600080516020610bc4833981519152602082610b626000946002546108b2565b60025584845283825260408420818154019055604051908152a3565b60405162461bcd60e51b815260206004820152601f60248201527f45524332303a206d696e7420746f20746865207a65726f2061646472657373006044820152606490fdfeddf252ad1be2c89b69c2b068fc378daa952ba7f163c4a11628f55a4df523b3efa2646970667358221220bfaf64a3abc90162423ec2d4be5f1b2e172c912901ac1ddf4ddc187dbd3161d764736f6c634300080f0033",
  "devdoc": {
    "kind": "dev",
    "methods": {
      "allowance(address,address)": {
        "details": "See {IERC20-allowance}."
      },
      "approve(address,uint256)": {
        "details": "See {IERC20-approve}. NOTE: If `amount` is the maximum `uint256`, the allowance is not updated on `transferFrom`. This is semantically equivalent to an infinite approval. Requirements: - `spender` cannot be the zero address."
      },
      "balanceOf(address)": {
        "details": "See {IERC20-balanceOf}."
      },
      "decimals()": {
        "details": "Returns the number of decimals used to get its user representation. For example, if `decimals` equals `2`, a balance of `505` tokens should be displayed to a user as `5.05` (`505 / 10 ** 2`). Tokens usually opt for a value of 18, imitating the relationship between Ether and Wei. This is the value {ERC20} uses, unless this function is overridden; NOTE: This information is only used for _display_ purposes: it in no way affects any of the arithmetic of the contract, including {IERC20-balanceOf} and {IERC20-transfer}."
      },
      "decreaseAllowance(address,uint256)": {
        "details": "Atomically decreases the allowance granted to `spender` by the caller. This is an alternative to {approve} that can be used as a mitigation for problems described in {IERC20-approve}. Emits an {Approval} event indicating the updated allowance. Requirements: - `spender` cannot be the zero address. - `spender` must have allowance for the caller of at least `subtractedValue`."
      },
      "increaseAllowance(address,uint256)": {
        "details": "Atomically increases the allowance granted to `spender` by the caller. This is an alternative to {approve} that can be used as a mitigation for problems described in {IERC20-approve}. Emits an {Approval} event indicating the updated allowance. Requirements: - `spender` cannot be the zero address."
      },
      "name()": {
        "details": "Returns the name of the token."
      },
      "symbol()": {
        "details": "Returns the symbol of the token, usually a shorter version of the name."
      },
      "totalSupply()": {
        "details": "See {IERC20-totalSupply}."
      },
      "transfer(address,uint256)": {
        "details": "See {IERC20-transfer}. Requirements: - `to` cannot be the zero address. - the caller must have a balance of at least `amount`."
      },
      "transferFrom(address,address,uint256)": {
        "details": "See {IERC20-transferFrom}. Emits an {Approval} event indicating the updated allowance. This is not required by the EIP. See the note at the beginning of {ERC20}. NOTE: Does not update the allowance if the current allowance is the maximum `uint256`. Requirements: - `from` and `to` cannot be the zero address. - `from` must have a balance of at least `amount`. - the caller must have allowance for ``from``'s tokens of at least `amount`."
      }
    },
    "version": 1
  },
  "userdoc": {
    "kind": "user",
    "methods": {
      "mint(address,uint256)": {
        "notice": "This is for frontend mint"
      },
      "mintDegis(address,uint256)": {
        "notice": "Free mint"
      }
    },
    "version": 1
  },
  "storageLayout": {
    "storage": [
      {
        "astId": 8925,
        "contract": "src/mock/MockDEG.sol:MockDEG",
        "label": "_balances",
        "offset": 0,
        "slot": "0",
        "type": "t_mapping(t_address,t_uint256)"
      },
      {
        "astId": 8931,
        "contract": "src/mock/MockDEG.sol:MockDEG",
        "label": "_allowances",
        "offset": 0,
        "slot": "1",
        "type": "t_mapping(t_address,t_mapping(t_address,t_uint256))"
      },
      {
        "astId": 8933,
        "contract": "src/mock/MockDEG.sol:MockDEG",
        "label": "_totalSupply",
        "offset": 0,
        "slot": "2",
        "type": "t_uint256"
      },
      {
        "astId": 8935,
        "contract": "src/mock/MockDEG.sol:MockDEG",
        "label": "_name",
        "offset": 0,
        "slot": "3",
        "type": "t_string_storage"
      },
      {
        "astId": 8937,
        "contract": "src/mock/MockDEG.sol:MockDEG",
        "label": "_symbol",
        "offset": 0,
        "slot": "4",
        "type": "t_string_storage"
      },
      {
        "astId": 15422,
        "contract": "src/mock/MockDEG.sol:MockDEG",
        "label": "_decimals",
        "offset": 0,
        "slot": "5",
        "type": "t_uint8"
      },
      {
        "astId": 15426,
        "contract": "src/mock/MockDEG.sol:MockDEG",
        "label": "alreadyMinted",
        "offset": 0,
        "slot": "6",
        "type": "t_mapping(t_address,t_bool)"
      },
      {
        "astId": 15428,
        "contract": "src/mock/MockDEG.sol:MockDEG",
        "label": "owner",
        "offset": 0,
        "slot": "7",
        "type": "t_address"
      }
    ],
    "types": {
      "t_address": {
        "encoding": "inplace",
        "label": "address",
        "numberOfBytes": "20"
      },
      "t_bool": {
        "encoding": "inplace",
        "label": "bool",
        "numberOfBytes": "1"
      },
      "t_mapping(t_address,t_bool)": {
        "encoding": "mapping",
        "key": "t_address",
        "label": "mapping(address => bool)",
        "numberOfBytes": "32",
        "value": "t_bool"
      },
      "t_mapping(t_address,t_mapping(t_address,t_uint256))": {
        "encoding": "mapping",
        "key": "t_address",
        "label": "mapping(address => mapping(address => uint256))",
        "numberOfBytes": "32",
        "value": "t_mapping(t_address,t_uint256)"
      },
      "t_mapping(t_address,t_uint256)": {
        "encoding": "mapping",
        "key": "t_address",
        "label": "mapping(address => uint256)",
        "numberOfBytes": "32",
        "value": "t_uint256"
      },
      "t_string_storage": {
        "encoding": "bytes",
        "label": "string",
        "numberOfBytes": "32"
      },
      "t_uint256": {
        "encoding": "inplace",
        "label": "uint256",
        "numberOfBytes": "32"
      },
      "t_uint8": {
        "encoding": "inplace",
        "label": "uint8",
        "numberOfBytes": "1"
      }
    }
  }
}