{
  "address": "0x8fEd1e0Bb4562a243680cCA505c7F3Db6185B2DD",
  "abi": [
    {
      "inputs": [
        {
          "internalType": "address",
          "name": "_shield",
          "type": "address"
        },
        {
          "internalType": "address",
          "name": "_policyCenter",
          "type": "address"
        },
        {
          "internalType": "address",
          "name": "_crFactory",
          "type": "address"
        },
        {
          "internalType": "address",
          "name": "_priorityPoolFactory",
          "type": "address"
        }
      ],
      "stateMutability": "nonpayable",
      "type": "constructor"
    },
    {
      "inputs": [],
      "name": "PayoutPool__NoPayout",
      "type": "error"
    },
    {
      "inputs": [],
      "name": "PayoutPool__NotPolicyCenter",
      "type": "error"
    },
    {
      "inputs": [],
      "name": "PayoutPool__OnlyPriorityPool",
      "type": "error"
    },
    {
      "inputs": [],
      "name": "PayoutPool__WrongCRToken",
      "type": "error"
    },
    {
      "anonymous": false,
      "inputs": [
        {
          "indexed": false,
          "internalType": "uint256",
          "name": "_poolId",
          "type": "uint256"
        },
        {
          "indexed": false,
          "internalType": "uint256",
          "name": "_generation",
          "type": "uint256"
        },
        {
          "indexed": false,
          "internalType": "uint256",
          "name": "_amount",
          "type": "uint256"
        },
        {
          "indexed": false,
          "internalType": "uint256",
          "name": "_ratio",
          "type": "uint256"
        }
      ],
      "name": "NewPayout",
      "type": "event"
    },
    {
      "inputs": [],
      "name": "CLAIM_PERIOD",
      "outputs": [
        {
          "internalType": "uint256",
          "name": "",
          "type": "uint256"
        }
      ],
      "stateMutability": "view",
      "type": "function"
    },
    {
      "inputs": [],
      "name": "SCALE",
      "outputs": [
        {
          "internalType": "uint256",
          "name": "",
          "type": "uint256"
        }
      ],
      "stateMutability": "view",
      "type": "function"
    },
    {
      "inputs": [
        {
          "internalType": "address",
          "name": "_user",
          "type": "address"
        },
        {
          "internalType": "address",
          "name": "_crToken",
          "type": "address"
        },
        {
          "internalType": "uint256",
          "name": "_poolId",
          "type": "uint256"
        },
        {
          "internalType": "uint256",
          "name": "_generation",
          "type": "uint256"
        }
      ],
      "name": "claim",
      "outputs": [
        {
          "internalType": "uint256",
          "name": "claimed",
          "type": "uint256"
        },
        {
          "internalType": "uint256",
          "name": "newGenerationCRAmount",
          "type": "uint256"
        }
      ],
      "stateMutability": "nonpayable",
      "type": "function"
    },
    {
      "inputs": [],
      "name": "crFactory",
      "outputs": [
        {
          "internalType": "address",
          "name": "",
          "type": "address"
        }
      ],
      "stateMutability": "view",
      "type": "function"
    },
    {
      "inputs": [
        {
          "internalType": "uint256",
          "name": "_poolId",
          "type": "uint256"
        },
        {
          "internalType": "uint256",
          "name": "_generation",
          "type": "uint256"
        },
        {
          "internalType": "uint256",
          "name": "_amount",
          "type": "uint256"
        },
        {
          "internalType": "uint256",
          "name": "_ratio",
          "type": "uint256"
        },
        {
          "internalType": "address",
          "name": "_poolAddress",
          "type": "address"
        }
      ],
      "name": "newPayout",
      "outputs": [],
      "stateMutability": "nonpayable",
      "type": "function"
    },
    {
      "inputs": [
        {
          "internalType": "uint256",
          "name": "",
          "type": "uint256"
        },
        {
          "internalType": "uint256",
          "name": "",
          "type": "uint256"
        }
      ],
      "name": "payouts",
      "outputs": [
        {
          "internalType": "uint256",
          "name": "amount",
          "type": "uint256"
        },
        {
          "internalType": "uint256",
          "name": "remaining",
          "type": "uint256"
        },
        {
          "internalType": "uint256",
          "name": "endTiemstamp",
          "type": "uint256"
        },
        {
          "internalType": "uint256",
          "name": "ratio",
          "type": "uint256"
        },
        {
          "internalType": "address",
          "name": "priorityPool",
          "type": "address"
        }
      ],
      "stateMutability": "view",
      "type": "function"
    },
    {
      "inputs": [],
      "name": "policyCenter",
      "outputs": [
        {
          "internalType": "address",
          "name": "",
          "type": "address"
        }
      ],
      "stateMutability": "view",
      "type": "function"
    },
    {
      "inputs": [],
      "name": "priorityPoolFactory",
      "outputs": [
        {
          "internalType": "address",
          "name": "",
          "type": "address"
        }
      ],
      "stateMutability": "view",
      "type": "function"
    },
    {
      "inputs": [],
      "name": "shield",
      "outputs": [
        {
          "internalType": "address",
          "name": "",
          "type": "address"
        }
      ],
      "stateMutability": "view",
      "type": "function"
    }
  ],
  "transactionHash": "0x577c28c7164140047cd4815ba551021f9cf7b29af90fc15b9911df3a382bd61b",
  "args": [
    "0x06d9Fb2C58f697A8b0A132592048940a1ee2b53f",
    "0xC80216C03e9c17df3cDec51940bb176A430f9C4C",
    "0x1a23264c64A3225904f3e39a0d0F6317459349D0",
    "0x53865dfAb69eAC5fF5733442941Fd56A420b8f80"
  ],
  "numDeployments": 4,
  "solcInputHash": "48ee9a97e51916ef328378e21e0ec3d5",
  "bytecode": "0x6080346100b957601f61091838819003918201601f19168301916001600160401b038311848410176100be578084926080946040528339810103126100b957610047816100d4565b90610054602082016100d4565b61006c6060610065604085016100d4565b93016100d4565b9060018060a01b03928380928160018060a01b0319971687600054161760005516856002541617600255168360015416176001551690600354161760035560405161082f90816100e98239f35b600080fd5b634e487b7160e01b600052604160045260246000fd5b51906001600160a01b03821682036100b95756fe608060408181526004918236101561001657600080fd5b600092833560e01c91826321241dfe146107675750816326af4832146103c4578163304de8731461035b5781636f8a6e431461033257816370d39cff1461030a578163c773a2d1146100fa57508063e8adbf2f146100d2578063eced5526146100b35763f4ecd0911461008857600080fd5b346100af57816003193601126100af5760015490516001600160a01b039091168152602090f35b5080fd5b50346100af57816003193601126100af576020905164e8d4a510008152f35b50346100af57816003193601126100af5760025490516001600160a01b039091168152602090f35b8383346100af5760a03660031901126100af5782356064356044356024356084356001600160a01b038181169182900361030557806003541690888760248c8b5195869384926315895f4760e31b84528301525afa9182156102fb57899261020b575b50339116036101fb578487528760205285872082885260205285872083815562278d001942116101e8574262278d0001600282015560038101859055880180546001600160a01b0319169091179055845193845260208401528284015260608201527fd303ba41003252f101801d7b067a3b4ccab80e936da6462f7ead1a40c1eb941d90608090a151f35b634e487b7160e01b885260118952602488fd5b855163f6c16f2960e01b81528890fd5b9091503d808a833e61021d8183610784565b810160a0828203126102f757815167ffffffffffffffff908181116102f357830182601f820112156102f35780519182116102e0578a519060209361026b85601f19601f8701160184610784565b8383528484830101116102dc57918c918c9383905b8382106102c1575094826102a6949282946102ad98116102b5575b5050505084016107bc565b92016107bc565b50908a61015d565b0101528c81388061029b565b8181018701518284018801528e95508f945090860190610280565b8c80fd5b634e487b7160e01b8c5260418d5260248cfd5b8b80fd5b8980fd5b88513d8b823e3d90fd5b600080fd5b5050346100af57816003193601126100af57905490516001600160a01b039091168152602090f35b5050346100af57816003193601126100af5760035490516001600160a01b039091168152602090f35b919050346103c057806003193601126103c0578060a093833581528360205281812060243582526020522091825492600181015492600282015491600381015493600180891b0391015416938151958652602086015284015260608301526080820152f35b8280fd5b90508234610764576080366003190112610764576001600160a01b03908235828116919082900361076457602480359184831680930361076457604435956064359486600254163303610755578783526020968288528984208785528852898420968a51906370c264df60e11b8252898286818b5afa91821561063f578692610726575b508b51908a8201928c84528d8301526060820152606081526080810167ffffffffffffffff92828210848311176107145781898f8e938380925286519020886001541690631620909560e01b835260848801525afa91821561067c579184918c8b948a936106d9575b50505016036106c9578a516382b2ed1360e01b81528481018490529689888881845afa97881561063f578698610696575b506127106104f460038b01548a6107d0565b04988915610686578501548c51631b20a87760e31b8152908b9082908890829088165afa90811561067c57879161064d575b5061053764e8d4a51000918b6107d0565b049a813b1561064957869291606484928f519586938492634f752fb360e11b84528b840152898d8401528d60448401525af1801561063f57908a94939291610611575b5050906044859392845416918c51948593849263a9059cbb60e01b8452888401528d8a8401525af18015610607576105d4575b508484106105c45750505084519384520390820152f35b634e487b7160e01b825260119052fd5b8681813d8311610600575b6105e98183610784565b810103126103c05751801515036100af57886105ad565b503d6105df565b89513d85823e3d90fd5b90809295969394501161062d578a52929187919060448c61057a565b634e487b7160e01b8252604185528582fd5b8c513d88823e3d90fd5b8680fd5b90508a81813d8311610675575b6106648183610784565b810103126106495751610537610526565b503d61065a565b8d513d89823e3d90fd5b8c51636a2f23b760e01b81528690fd5b9097508981813d83116106c2575b6106ae8183610784565b810103126106be5751968c6104e2565b8580fd5b503d6106a4565b8a516374da7ab160e01b81528490fd5b925092509250813d831161070d575b6106f28185610784565b810103126106be578261070589926107bc565b8e8c816104b1565b503d6106e8565b634e487b7160e01b8852604187528888fd5b9091508981813d831161074e575b61073e8183610784565b810103126106be5751908c610448565b503d610734565b5087516321d0c2eb60e11b8152fd5b80fd5b8490346100af57816003193601126100af578062278d0060209252f35b90601f8019910116810190811067ffffffffffffffff8211176107a657604052565b634e487b7160e01b600052604160045260246000fd5b51906001600160a01b038216820361030557565b80600019048211811515166107e3570290565b634e487b7160e01b600052601160045260246000fdfea2646970667358221220025f913834203d011edf378e92ed4b9011923289bdcdac670e2fa1aa4840b14d64736f6c634300080f0033",
  "devdoc": {
    "kind": "dev",
    "methods": {
      "claim(address,address,uint256,uint256)": {
        "params": {
          "_crToken": "Cover right token address",
          "_generation": "Generation of priority pool (1 if no liquidations occurred)",
          "_poolId": "Pool Id",
          "_user": "User address"
        }
      },
      "newPayout(uint256,uint256,uint256,uint256,address)": {
        "params": {
          "_amount": "Amount of tokens to be registered",
          "_generation": "Generation of priority pool (1 if no liquidations occurred)",
          "_poolAddress": "Address of priority pool",
          "_poolId": "Pool Id",
          "_ratio": "Current ratio payout has been registered at"
        }
      }
    },
    "version": 1
  },
  "userdoc": {
    "kind": "user",
    "methods": {
      "claim(address,address,uint256,uint256)": {
        "notice": "Claim payout for a user"
      },
      "newPayout(uint256,uint256,uint256,uint256,address)": {
        "notice": "Registers new Payout in Payout Pool"
      }
    },
    "notice": "Payout Pool         Every time there is a report passed, some assets will be moved to this pool         It is stored as a Payout struct         - amount       Total amount of this payout         - remaining    Remaining amount         - endTimestamp After this timestamp, no more claims         - ratio        Max ratio of a user's crToken",
    "version": 1
  },
  "storageLayout": {
    "storage": [
      {
        "astId": 16253,
        "contract": "src/pools/PayoutPool.sol:PayoutPool",
        "label": "shield",
        "offset": 0,
        "slot": "0",
        "type": "t_address"
      },
      {
        "astId": 16255,
        "contract": "src/pools/PayoutPool.sol:PayoutPool",
        "label": "crFactory",
        "offset": 0,
        "slot": "1",
        "type": "t_address"
      },
      {
        "astId": 16257,
        "contract": "src/pools/PayoutPool.sol:PayoutPool",
        "label": "policyCenter",
        "offset": 0,
        "slot": "2",
        "type": "t_address"
      },
      {
        "astId": 16259,
        "contract": "src/pools/PayoutPool.sol:PayoutPool",
        "label": "priorityPoolFactory",
        "offset": 0,
        "slot": "3",
        "type": "t_address"
      },
      {
        "astId": 16277,
        "contract": "src/pools/PayoutPool.sol:PayoutPool",
        "label": "payouts",
        "offset": 0,
        "slot": "4",
        "type": "t_mapping(t_uint256,t_mapping(t_uint256,t_struct(Payout)16270_storage))"
      }
    ],
    "types": {
      "t_address": {
        "encoding": "inplace",
        "label": "address",
        "numberOfBytes": "20"
      },
      "t_mapping(t_uint256,t_mapping(t_uint256,t_struct(Payout)16270_storage))": {
        "encoding": "mapping",
        "key": "t_uint256",
        "label": "mapping(uint256 => mapping(uint256 => struct PayoutPool.Payout))",
        "numberOfBytes": "32",
        "value": "t_mapping(t_uint256,t_struct(Payout)16270_storage)"
      },
      "t_mapping(t_uint256,t_struct(Payout)16270_storage)": {
        "encoding": "mapping",
        "key": "t_uint256",
        "label": "mapping(uint256 => struct PayoutPool.Payout)",
        "numberOfBytes": "32",
        "value": "t_struct(Payout)16270_storage"
      },
      "t_struct(Payout)16270_storage": {
        "encoding": "inplace",
        "label": "struct PayoutPool.Payout",
        "members": [
          {
            "astId": 16261,
            "contract": "src/pools/PayoutPool.sol:PayoutPool",
            "label": "amount",
            "offset": 0,
            "slot": "0",
            "type": "t_uint256"
          },
          {
            "astId": 16263,
            "contract": "src/pools/PayoutPool.sol:PayoutPool",
            "label": "remaining",
            "offset": 0,
            "slot": "1",
            "type": "t_uint256"
          },
          {
            "astId": 16265,
            "contract": "src/pools/PayoutPool.sol:PayoutPool",
            "label": "endTiemstamp",
            "offset": 0,
            "slot": "2",
            "type": "t_uint256"
          },
          {
            "astId": 16267,
            "contract": "src/pools/PayoutPool.sol:PayoutPool",
            "label": "ratio",
            "offset": 0,
            "slot": "3",
            "type": "t_uint256"
          },
          {
            "astId": 16269,
            "contract": "src/pools/PayoutPool.sol:PayoutPool",
            "label": "priorityPool",
            "offset": 0,
            "slot": "4",
            "type": "t_address"
          }
        ],
        "numberOfBytes": "160"
      },
      "t_uint256": {
        "encoding": "inplace",
        "label": "uint256",
        "numberOfBytes": "32"
      }
    }
  }
}