{
  "address": "0x9607DD6CF8fB62b9bF6a557cB9660665B1B05Dc1",
  "abi": [
    {
      "inputs": [
        {
          "internalType": "address",
          "name": "_deg",
          "type": "address"
        },
        {
          "internalType": "address",
          "name": "_veDeg",
          "type": "address"
        },
        {
          "internalType": "address",
          "name": "_shield",
          "type": "address"
        },
        {
          "internalType": "address",
          "name": "_protectionPool",
          "type": "address"
        },
        {
          "internalType": "address",
          "name": "_USDC",
          "type": "address"
        }
      ],
      "stateMutability": "nonpayable",
      "type": "constructor"
    },
    {
      "inputs": [],
      "name": "PolicyCenter__AlreadyClaimedPayout",
      "type": "error"
    },
    {
      "inputs": [],
      "name": "PolicyCenter__BadLength",
      "type": "error"
    },
    {
      "inputs": [],
      "name": "PolicyCenter__CoverAmountTooSmall",
      "type": "error"
    },
    {
      "inputs": [],
      "name": "PolicyCenter__InsufficientCapacity",
      "type": "error"
    },
    {
      "inputs": [],
      "name": "PolicyCenter__InvalidPremiumSplit",
      "type": "error"
    },
    {
      "inputs": [],
      "name": "PolicyCenter__NoExchange",
      "type": "error"
    },
    {
      "inputs": [],
      "name": "PolicyCenter__NoLiquidity",
      "type": "error"
    },
    {
      "inputs": [],
      "name": "PolicyCenter__NoPayout",
      "type": "error"
    },
    {
      "inputs": [],
      "name": "PolicyCenter__NonExistentPool",
      "type": "error"
    },
    {
      "inputs": [],
      "name": "PolicyCenter__OnlyPriorityPoolFactory",
      "type": "error"
    },
    {
      "inputs": [],
      "name": "PolicyCenter__OnlyTreasury",
      "type": "error"
    },
    {
      "inputs": [],
      "name": "PolicyCenter__PoolPaused",
      "type": "error"
    },
    {
      "inputs": [],
      "name": "PolicyCenter__PremiumTooHigh",
      "type": "error"
    },
    {
      "inputs": [],
      "name": "PolicyCenter__WrongPriorityPoolID",
      "type": "error"
    },
    {
      "inputs": [],
      "name": "PolicyCenter__ZeroAmount",
      "type": "error"
    },
    {
      "inputs": [],
      "name": "PolicyCenter__ZeroPremium",
      "type": "error"
    },
    {
      "anonymous": false,
      "inputs": [
        {
          "indexed": true,
          "internalType": "address",
          "name": "buyer",
          "type": "address"
        },
        {
          "indexed": true,
          "internalType": "uint256",
          "name": "poolId",
          "type": "uint256"
        },
        {
          "indexed": false,
          "internalType": "uint256",
          "name": "coverDuration",
          "type": "uint256"
        },
        {
          "indexed": false,
          "internalType": "uint256",
          "name": "coverAmount",
          "type": "uint256"
        },
        {
          "indexed": false,
          "internalType": "uint256",
          "name": "premiumInShield",
          "type": "uint256"
        }
      ],
      "name": "CoverBought",
      "type": "event"
    },
    {
      "anonymous": false,
      "inputs": [
        {
          "indexed": true,
          "internalType": "address",
          "name": "user",
          "type": "address"
        },
        {
          "indexed": false,
          "internalType": "uint256",
          "name": "amount",
          "type": "uint256"
        }
      ],
      "name": "LiquidityProvided",
      "type": "event"
    },
    {
      "anonymous": false,
      "inputs": [
        {
          "indexed": true,
          "internalType": "address",
          "name": "user",
          "type": "address"
        },
        {
          "indexed": false,
          "internalType": "uint256",
          "name": "amount",
          "type": "uint256"
        }
      ],
      "name": "LiquidityRemoved",
      "type": "event"
    },
    {
      "anonymous": false,
      "inputs": [
        {
          "indexed": true,
          "internalType": "address",
          "name": "user",
          "type": "address"
        },
        {
          "indexed": true,
          "internalType": "uint256",
          "name": "poolId",
          "type": "uint256"
        },
        {
          "indexed": false,
          "internalType": "uint256",
          "name": "amount",
          "type": "uint256"
        }
      ],
      "name": "LiquidityStaked",
      "type": "event"
    },
    {
      "anonymous": false,
      "inputs": [
        {
          "indexed": true,
          "internalType": "address",
          "name": "user",
          "type": "address"
        },
        {
          "indexed": true,
          "internalType": "uint256",
          "name": "poolId",
          "type": "uint256"
        },
        {
          "indexed": false,
          "internalType": "uint256",
          "name": "amount",
          "type": "uint256"
        }
      ],
      "name": "LiquidityStakedWithoutFarming",
      "type": "event"
    },
    {
      "anonymous": false,
      "inputs": [
        {
          "indexed": true,
          "internalType": "address",
          "name": "user",
          "type": "address"
        },
        {
          "indexed": true,
          "internalType": "uint256",
          "name": "poolId",
          "type": "uint256"
        },
        {
          "indexed": false,
          "internalType": "address",
          "name": "priorityLP",
          "type": "address"
        },
        {
          "indexed": false,
          "internalType": "uint256",
          "name": "amount",
          "type": "uint256"
        }
      ],
      "name": "LiquidityUnstaked",
      "type": "event"
    },
    {
      "anonymous": false,
      "inputs": [
        {
          "indexed": true,
          "internalType": "address",
          "name": "user",
          "type": "address"
        },
        {
          "indexed": true,
          "internalType": "uint256",
          "name": "poolId",
          "type": "uint256"
        },
        {
          "indexed": false,
          "internalType": "address",
          "name": "priorityLP",
          "type": "address"
        },
        {
          "indexed": false,
          "internalType": "uint256",
          "name": "amount",
          "type": "uint256"
        }
      ],
      "name": "LiquidityUnstakedWithoutFarming",
      "type": "event"
    },
    {
      "anonymous": false,
      "inputs": [
        {
          "indexed": true,
          "internalType": "address",
          "name": "previousOwner",
          "type": "address"
        },
        {
          "indexed": true,
          "internalType": "address",
          "name": "newOwner",
          "type": "address"
        }
      ],
      "name": "OwnershipTransferred",
      "type": "event"
    },
    {
      "anonymous": false,
      "inputs": [
        {
          "indexed": true,
          "internalType": "address",
          "name": "user",
          "type": "address"
        },
        {
          "indexed": false,
          "internalType": "uint256",
          "name": "amount",
          "type": "uint256"
        }
      ],
      "name": "PayoutClaimed",
      "type": "event"
    },
    {
      "anonymous": false,
      "inputs": [
        {
          "indexed": false,
          "internalType": "uint256",
          "name": "toPriority",
          "type": "uint256"
        },
        {
          "indexed": false,
          "internalType": "uint256",
          "name": "toProtection",
          "type": "uint256"
        },
        {
          "indexed": false,
          "internalType": "uint256",
          "name": "toTreasury",
          "type": "uint256"
        }
      ],
      "name": "PremiumSplitted",
      "type": "event"
    },
    {
      "anonymous": false,
      "inputs": [
        {
          "indexed": false,
          "internalType": "address",
          "name": "fromToken",
          "type": "address"
        },
        {
          "indexed": false,
          "internalType": "uint256",
          "name": "amount",
          "type": "uint256"
        },
        {
          "indexed": false,
          "internalType": "uint256",
          "name": "received",
          "type": "uint256"
        }
      ],
      "name": "PremiumSwapped",
      "type": "event"
    },
    {
      "inputs": [],
      "name": "USDC",
      "outputs": [
        {
          "internalType": "address",
          "name": "",
          "type": "address"
        }
      ],
      "stateMutability": "view",
      "type": "function"
    },
    {
      "inputs": [
        {
          "internalType": "address",
          "name": "_token",
          "type": "address"
        }
      ],
      "name": "approvePoolToken",
      "outputs": [],
      "stateMutability": "nonpayable",
      "type": "function"
    },
    {
      "inputs": [
        {
          "internalType": "uint256",
          "name": "_poolId",
          "type": "uint256"
        },
        {
          "internalType": "uint256",
          "name": "_coverAmount",
          "type": "uint256"
        },
        {
          "internalType": "uint256",
          "name": "_coverDuration",
          "type": "uint256"
        },
        {
          "internalType": "uint256",
          "name": "_maxPayment",
          "type": "uint256"
        }
      ],
      "name": "buyCover",
      "outputs": [
        {
          "internalType": "address",
          "name": "",
          "type": "address"
        }
      ],
      "stateMutability": "nonpayable",
      "type": "function"
    },
    {
      "inputs": [
        {
          "internalType": "uint256",
          "name": "_poolId",
          "type": "uint256"
        },
        {
          "internalType": "address",
          "name": "_crToken",
          "type": "address"
        },
        {
          "internalType": "uint256",
          "name": "_generation",
          "type": "uint256"
        }
      ],
      "name": "claimPayout",
      "outputs": [],
      "stateMutability": "nonpayable",
      "type": "function"
    },
    {
      "inputs": [],
      "name": "coverRightTokenFactory",
      "outputs": [
        {
          "internalType": "address",
          "name": "",
          "type": "address"
        }
      ],
      "stateMutability": "view",
      "type": "function"
    },
    {
      "inputs": [
        {
          "internalType": "uint256",
          "name": "_poolId",
          "type": "uint256"
        }
      ],
      "name": "currentLPAddress",
      "outputs": [
        {
          "internalType": "address",
          "name": "lpAddress",
          "type": "address"
        }
      ],
      "stateMutability": "view",
      "type": "function"
    },
    {
      "inputs": [],
      "name": "exchange",
      "outputs": [
        {
          "internalType": "address",
          "name": "",
          "type": "address"
        }
      ],
      "stateMutability": "view",
      "type": "function"
    },
    {
      "inputs": [],
      "name": "getPremiumSplits",
      "outputs": [
        {
          "internalType": "uint256",
          "name": "",
          "type": "uint256"
        },
        {
          "internalType": "uint256",
          "name": "",
          "type": "uint256"
        }
      ],
      "stateMutability": "view",
      "type": "function"
    },
    {
      "inputs": [],
      "name": "owner",
      "outputs": [
        {
          "internalType": "address",
          "name": "",
          "type": "address"
        }
      ],
      "stateMutability": "view",
      "type": "function"
    },
    {
      "inputs": [],
      "name": "payoutPool",
      "outputs": [
        {
          "internalType": "address",
          "name": "",
          "type": "address"
        }
      ],
      "stateMutability": "view",
      "type": "function"
    },
    {
      "inputs": [
        {
          "internalType": "uint256",
          "name": "",
          "type": "uint256"
        }
      ],
      "name": "premiumSplits",
      "outputs": [
        {
          "internalType": "uint256",
          "name": "",
          "type": "uint256"
        }
      ],
      "stateMutability": "view",
      "type": "function"
    },
    {
      "inputs": [],
      "name": "priceGetter",
      "outputs": [
        {
          "internalType": "address",
          "name": "",
          "type": "address"
        }
      ],
      "stateMutability": "view",
      "type": "function"
    },
    {
      "inputs": [],
      "name": "priorityPoolFactory",
      "outputs": [
        {
          "internalType": "address",
          "name": "",
          "type": "address"
        }
      ],
      "stateMutability": "view",
      "type": "function"
    },
    {
      "inputs": [
        {
          "internalType": "uint256",
          "name": "",
          "type": "uint256"
        }
      ],
      "name": "priorityPools",
      "outputs": [
        {
          "internalType": "address",
          "name": "",
          "type": "address"
        }
      ],
      "stateMutability": "view",
      "type": "function"
    },
    {
      "inputs": [],
      "name": "protectionPool",
      "outputs": [
        {
          "internalType": "address",
          "name": "",
          "type": "address"
        }
      ],
      "stateMutability": "view",
      "type": "function"
    },
    {
      "inputs": [
        {
          "internalType": "uint256",
          "name": "_amount",
          "type": "uint256"
        }
      ],
      "name": "provideLiquidity",
      "outputs": [],
      "stateMutability": "nonpayable",
      "type": "function"
    },
    {
      "inputs": [
        {
          "internalType": "uint256",
          "name": "_amount",
          "type": "uint256"
        }
      ],
      "name": "removeLiquidity",
      "outputs": [],
      "stateMutability": "nonpayable",
      "type": "function"
    },
    {
      "inputs": [],
      "name": "renounceOwnership",
      "outputs": [],
      "stateMutability": "nonpayable",
      "type": "function"
    },
    {
      "inputs": [
        {
          "internalType": "address",
          "name": "_coverRightTokenFactory",
          "type": "address"
        }
      ],
      "name": "setCoverRightTokenFactory",
      "outputs": [],
      "stateMutability": "nonpayable",
      "type": "function"
    },
    {
      "inputs": [
        {
          "internalType": "address",
          "name": "_exchange",
          "type": "address"
        }
      ],
      "name": "setExchange",
      "outputs": [],
      "stateMutability": "nonpayable",
      "type": "function"
    },
    {
      "inputs": [
        {
          "internalType": "address",
          "name": "_payoutPool",
          "type": "address"
        }
      ],
      "name": "setPayoutPool",
      "outputs": [],
      "stateMutability": "nonpayable",
      "type": "function"
    },
    {
      "inputs": [
        {
          "internalType": "uint256",
          "name": "_priority",
          "type": "uint256"
        },
        {
          "internalType": "uint256",
          "name": "_protection",
          "type": "uint256"
        }
      ],
      "name": "setPremiumSplit",
      "outputs": [],
      "stateMutability": "nonpayable",
      "type": "function"
    },
    {
      "inputs": [
        {
          "internalType": "address",
          "name": "_priceGetter",
          "type": "address"
        }
      ],
      "name": "setPriceGetter",
      "outputs": [],
      "stateMutability": "nonpayable",
      "type": "function"
    },
    {
      "inputs": [
        {
          "internalType": "address",
          "name": "_priorityPoolFactory",
          "type": "address"
        }
      ],
      "name": "setPriorityPoolFactory",
      "outputs": [],
      "stateMutability": "nonpayable",
      "type": "function"
    },
    {
      "inputs": [
        {
          "internalType": "address",
          "name": "_protectionPool",
          "type": "address"
        }
      ],
      "name": "setProtectionPool",
      "outputs": [],
      "stateMutability": "nonpayable",
      "type": "function"
    },
    {
      "inputs": [
        {
          "internalType": "address",
          "name": "_treasury",
          "type": "address"
        }
      ],
      "name": "setTreasury",
      "outputs": [],
      "stateMutability": "nonpayable",
      "type": "function"
    },
    {
      "inputs": [
        {
          "internalType": "address",
          "name": "_weightedFarmingPool",
          "type": "address"
        }
      ],
      "name": "setWeightedFarmingPool",
      "outputs": [],
      "stateMutability": "nonpayable",
      "type": "function"
    },
    {
      "inputs": [
        {
          "internalType": "uint256",
          "name": "_poolId",
          "type": "uint256"
        },
        {
          "internalType": "uint256",
          "name": "_amount",
          "type": "uint256"
        }
      ],
      "name": "stakeLiquidity",
      "outputs": [],
      "stateMutability": "nonpayable",
      "type": "function"
    },
    {
      "inputs": [
        {
          "internalType": "uint256",
          "name": "_poolId",
          "type": "uint256"
        },
        {
          "internalType": "uint256",
          "name": "_amount",
          "type": "uint256"
        }
      ],
      "name": "stakeLiquidityWithoutFarming",
      "outputs": [],
      "stateMutability": "nonpayable",
      "type": "function"
    },
    {
      "inputs": [
        {
          "internalType": "address",
          "name": "_pool",
          "type": "address"
        },
        {
          "internalType": "address",
          "name": "_token",
          "type": "address"
        },
        {
          "internalType": "uint256",
          "name": "_poolId",
          "type": "uint256"
        }
      ],
      "name": "storePoolInformation",
      "outputs": [],
      "stateMutability": "nonpayable",
      "type": "function"
    },
    {
      "inputs": [
        {
          "internalType": "uint256",
          "name": "",
          "type": "uint256"
        }
      ],
      "name": "tokenByPoolId",
      "outputs": [
        {
          "internalType": "address",
          "name": "",
          "type": "address"
        }
      ],
      "stateMutability": "view",
      "type": "function"
    },
    {
      "inputs": [
        {
          "internalType": "address",
          "name": "newOwner",
          "type": "address"
        }
      ],
      "name": "transferOwnership",
      "outputs": [],
      "stateMutability": "nonpayable",
      "type": "function"
    },
    {
      "inputs": [],
      "name": "treasury",
      "outputs": [
        {
          "internalType": "address",
          "name": "",
          "type": "address"
        }
      ],
      "stateMutability": "view",
      "type": "function"
    },
    {
      "inputs": [
        {
          "internalType": "uint256",
          "name": "_poolId",
          "type": "uint256"
        },
        {
          "internalType": "address",
          "name": "_priorityLP",
          "type": "address"
        },
        {
          "internalType": "uint256",
          "name": "_amount",
          "type": "uint256"
        }
      ],
      "name": "unstakeLiquidity",
      "outputs": [],
      "stateMutability": "nonpayable",
      "type": "function"
    },
    {
      "inputs": [
        {
          "internalType": "uint256",
          "name": "_poolId",
          "type": "uint256"
        },
        {
          "internalType": "address",
          "name": "_priorityLP",
          "type": "address"
        },
        {
          "internalType": "uint256",
          "name": "_amount",
          "type": "uint256"
        }
      ],
      "name": "unstakeLiquidityWithoutFarming",
      "outputs": [],
      "stateMutability": "nonpayable",
      "type": "function"
    },
    {
      "inputs": [],
      "name": "weightedFarmingPool",
      "outputs": [
        {
          "internalType": "address",
          "name": "",
          "type": "address"
        }
      ],
      "stateMutability": "view",
      "type": "function"
    }
  ],
  "transactionHash": "0x67aca280d526510bbadef5f48e31c21a6a42eca07409ed7332ee77acaac06d44",
  "args": [
    "0xA19329481A6f1Bd765e65a1Df5085438657aD15e",
    "0xCe9819C1dD7D315C0B25dF8a38321e33ade9401E",
    "0xd97FC6E67C4a2195be6c54B5a459DaC4DD795Ab3",
    "0x0Aa1BeD84f4B1c60A6C1F7Cb8055cc7F232d4a1E",
    "0x5C10357D21286c13658b097635CAb6F9a7B7609C"
  ],
  "numDeployments": 2,
  "solcInputHash": "6f21418f71e57af3298e19e94a630568",
  "bytecode": "0x61010060409080825234620002295760a0816200343280380380916200002682856200022e565b83398101031262000229576200003c8162000268565b60206200004b81840162000268565b916200005985850162000268565b906200007660806200006e6060880162000268565b960162000268565b6001600160a01b0391821660805293811660a05290811660c0819052600080546001600160a01b03199081163317825581805260098552878220805482169785169788179055600a85528782208054821690931790925560018054909216909517815585519193918087016001600160401b038111828210176200021557875261119481526113888482015283929190600b9087905b60028210620001fc57505050508060e05260448460c05116868851968794859363095ea7b360e01b855260048501526000196024850152165af18015620001f257620001b1575b83516131b490816200027e823960805181505060a05181505060c0518181816103b2015281816110e0015281816116800152818161170c0152818161186e01526118d9015260e051818181610cd6015281816115c701526116cc0152f35b81813d8311620001ea575b620001c881836200022e565b81010312620001e6575180151503620001e357808062000153565b80fd5b5080fd5b503d620001bc565b84513d85823e3d90fd5b805161ffff16835586959284019291840191016200010c565b634e487b7160e01b87526041600452602487fd5b600080fd5b601f909101601f19168101906001600160401b038211908210176200025257604052565b634e487b7160e01b600052604160045260246000fd5b51906001600160a01b0382168203620002295756fe6080604052600436101561001257600080fd5b6000803560e01c80630121cff514612369578063056d7e5814612336578063298d4dd0146122ed57806339827304146122495780633f81ff26146122005780634ea4c6b31461201057806358bf0f2c14611fc757806361d027b314611f9e5780636273106a14611f755780636549920d1461104a57806367b1f5df1461100157806367c0dd8214610eb257806367e03b5414610e895780636c1b700f14610e605780636f8a6e4314610e37578063715018a614610dd057806372306c7c14610d0557806389a3027114610cc05780638da5cb5b14610c995780639030b54214610c6c5780639c8f9f2314610baa578063a8bf604d14610b74578063aa139d5b14610b2b578063ab07211e146109ea578063ad35e1dc146109a1578063b567dc6a14610978578063b6cccdd0146108ec578063bef1e500146105d7578063c2260f48146104da578063ceed1b90146104b1578063d2f7265a14610488578063eb521a4c1461031a578063f02bbc52146102e7578063f0f442601461029e578063f2fde38b146101d05763f42c2b49146101a957600080fd5b346101cd57806003193601126101cd576040600b54600c5482519182526020820152f35b80fd5b50346101cd5760203660031901126101cd576101ea6123b2565b81546001600160a01b03918291610204908316331461246b565b16801561024a57600054816040519382167f8be0079c531659141344cd1fd0a4f28419497f9722a3daafe3b4186f6b6457e0600086a36001600160a01b03191617600055f35b60405162461bcd60e51b815260206004820152602660248201527f4f776e61626c653a206e6577206f776e657220697320746865207a65726f206160448201526564647265737360d01b6064820152608490fd5b50346101cd5760203660031901126101cd576102b86123b2565b81546001600160a01b0391906102d1908316331461246b565b1660018060a01b03196008541617600855604051f35b50346101cd5760203660031901126101cd576020906004358152600a8252604060018060a01b0391205416604051908152f35b50346101cd5760203660031901126101cd576004358015610476576001546001600160a01b03908116803b15610472576040516344abf1a960e01b81526004810184905233602482015290849081908390604490829084905af191821561046557849261044a575b5050602090826103ae9360015416866040518096819582946323b872dd60e01b845233600485016124f3565b03927f0000000000000000000000000000000000000000000000000000000000000000165af1801561043f57610411575b506040519081527fccb2ae3a2936bf4c94fa4e12cdf0cdad6ed0e4888a044cef89afa60f2e4b92d360203392a2604051f35b6104319060203d8111610438575b6104298183612436565b8101906124db565b50386103df565b503d61041f565b6040513d85823e3d90fd5b610455919250612408565b61046157818338610382565b8280fd5b50604051903d90823e3d90fd5b8380fd5b604051631613633b60e01b8152600490fd5b50346101cd57806003193601126101cd576006546040516001600160a01b039091168152602090f35b50346101cd57806003193601126101cd576002546040516001600160a01b039091168152602090f35b50346101cd576104e9366123de565b828452600960205260408420546001600160a01b03908116156105c55781156104765784908482526009602052604082205416803b156105c1576040516301733ea560e41b81526001600160a01b0385166004820152602481018490523360448201529082908290606490829084905af180156105b6576105a2575b505061059a7fe44f6895444d7e27100c9f3a39dbf225380f26b7b7ad7cf0cebff9f7e00d5ab091604051918291339583612515565b0390a3604051f35b6105ab90612408565b610472578338610565565b6040513d84823e3d90fd5b5080fd5b604051635824d49b60e01b8152600490fd5b50346101cd576105e6366123de565b909180845260206009815260018060a01b039081604087205416156105c55782156105c5578594602494868460035416604051978880926315895f4760e31b82528960048301525afa9182156108e157879687936108b9575b50604085608481600754169383519a8b938492631357a41960e11b845233600485015216958660248401528b60448401528760648401525af1968715610870578890899861087b575b50600493929185916040519081527fec68461f5d4cc45c89e914cb8826a966c73dd35e5f97815ece0a01ffa4a025a6833392a26040516370c264df60e11b815294859182905afa928315610870578893610835575b5090816106eb89949361261d565b50866106fb6201518085046129cb565b5061070a848785999499612728565b968988161561077e575b5050505050505090501691823b156107795760405163020da84160e61b8152600481019290925233602483015260448201529082908290606490829084905af180156105b657610765575b50604051f35b61076e90612408565b6101cd57803861075f565b505050fd5b88969750906107986107926107a8936130bb565b916130bb565b6107a1866130bb565b918761262c565b936107cf89600454169460405198899788968795636c1020a160e01b8752600487016126ee565b03925af191821561082a5786926107f0575b50508038808086898280610714565b90809250813d8311610823575b6108078183612436565b8101031261081f5761081890612457565b38806107e1565b8480fd5b503d6107fd565b6040513d88823e3d90fd5b8480929399508194503d8311610869575b6108508183612436565b8101031261086457905187969091876106dd565b600080fd5b503d610846565b6040513d8a823e3d90fd5b600494939298508591506108a69060403d6040116108b2575b61089e8183612436565b810190612607565b98909150919293610688565b503d610894565b6108d69193503d8089833e6108ce8183612436565b810190612580565b50505050913861063f565b6040513d89823e3d90fd5b50346101cd5760603660031901126101cd576109066123b2565b6001600160a01b039060243590828216808303610864578360035416330361096657610961936044358652600a6020526040862060018060a01b03199283825416179055600960205260408620921690825416179055612884565b604051f35b604051632b29402d60e21b8152600490fd5b50346101cd57806003193601126101cd576005546040516001600160a01b039091168152602090f35b50346101cd5760203660031901126101cd576109bb6123b2565b81546001600160a01b0391906109d4908316331461246b565b1660018060a01b03196003541617600355604051f35b50346101cd576109f9366123de565b828452600960205260408420546001600160a01b03908116156105c55781156104765780859160055416803b15610461576040516316858d7960e21b8152600481018790526001600160a01b0386166024820152604481018590523360648201529083908290608490829084905af190811561043f578391610b17575b508590526009602052604082205416803b156105c1576040516301733ea560e41b81526001600160a01b0385166004820152602481018490523360448201529082908290606490829084905af180156105b657610b03575b505061059a7f2dbdab27a2d16e827c458789b39587a960ef326f381f784ffa198426f367519791604051918291339583612515565b610b0c90612408565b610472578338610ace565b610b2090612408565b6105c1578138610a76565b50346101cd5760203660031901126101cd57610b456123b2565b81546001600160a01b039190610b5e908316331461246b565b1660018060a01b03196004541617600455604051f35b50346101cd5760203660031901126101cd57610961610b916123b2565b610ba560018060a01b03845416331461246b565b612884565b50346101cd576020806003193601126105c15760043590811561047657600154604051636d40d7d760e11b8152600481018490523360248201529082908290604490829088906001600160a01b03165af18015610c6157610c37575b507fc2c3f06e49b9f15e7b4af9055e183b0d73362e033ad82a07dec9bf9840171719906040519283523392a2604051f35b8190813d8311610c5a575b610c4c8183612436565b810103126108645738610c06565b503d610c42565b6040513d86823e3d90fd5b50346101cd5760203660031901126101cd5760043560028110156105c157602090600b0154604051908152f35b50346101cd57806003193601126101cd57546040516001600160a01b039091168152602090f35b50346101cd57806003193601126101cd576040517f00000000000000000000000000000000000000000000000000000000000000006001600160a01b03168152602090f35b50346101cd57610d14366123c8565b90610d2960018060a01b03845416331461246b565b80158015610dc8575b8015610db4575b610da25760405190604082018281106001600160401b03821117610d8c57604052815260209182820152600b9183915b60028310610d775784604051f35b60018282829351875501940192019192610d69565b634e487b7160e01b600052604160045260246000fd5b604051639f0d205b60e01b8152600490fd5b50612710610dc283836124a4565b11610d39565b508115610d32565b50346101cd57806003193601126101cd5780546001600160a01b0390610df9908216331461246b565b60005460006040519282167f8be0079c531659141344cd1fd0a4f28419497f9722a3daafe3b4186f6b6457e08285a36001600160a01b031916600055f35b50346101cd57806003193601126101cd576003546040516001600160a01b039091168152602090f35b50346101cd57806003193601126101cd576001546040516001600160a01b039091168152602090f35b50346101cd57806003193601126101cd576004546040516001600160a01b039091168152602090f35b50346101cd57610ec1366123c8565b8183526009602090815260408420546001600160a01b0391908216156105c557821561047657838552600981526040808620549051630a43eeed60e11b8152600481018590523360248201529083169282826044818a885af19182156108e1578592610fbc575b5090610f539383926001541690886040518097819582946323b872dd60e01b845233600485016124f3565b03925af1918215610fb1577f6ed71e479f5286ad6192bfdc2b224afa6073276d8f9a0e5028400f589fbb39cc92610f94575b506040519283523392a3604051f35b610faa90823d8411610438576104298183612436565b5038610f85565b6040513d87823e3d90fd5b9091508281813d8311610ffa575b610fd48183612436565b81010312610ff657610f53938392610fec8793612457565b5091925093610f28565b8680fd5b503d610fca565b50346101cd5760203660031901126101cd5761101b6123b2565b81546001600160a01b039190611034908316331461246b565b1660018060a01b03196006541617600655604051f35b50346101cd5760803660031901126101cd576004358152600960205260408120546001600160a01b0316156105c5576305f5e10060243510611f6357604435151580611f56575b15611f4457600435156105c5576004803582526009602090815260408084205460015491516370a0823160e01b81526001600160a01b03928316948101949094528116929190829060249082907f0000000000000000000000000000000000000000000000000000000000000000165afa90811561043f578391611f12575b506040516359b6a0c960e01b8152602081600481865afa908115610c61578491611ede575b506127106111476020926004946124c8565b049260405192838092636835185f60e11b82525afa801561043f578390611eaa575b61117691506024356124a4565b11611e9857600435815260096020526044604060018060a01b038184205416815192838092638905faeb60e01b82526024356004830152823560248301525afa9081156105b65782908392611e76575b506064358111611e64576111de6201518042046129cb565b915050600160443510611e5057601960001960443501911015611e2c575b61121661120d6201518042046129cb565b938493916124a4565b9060018210611c6f5761123190600c600019840104906124a4565b90600119600c60001983010611611c6f579261127792611272926001600c61128397600019010601916112648383612ffa565b809111611e24575b50612d9f565b6124b0565b620151804206906124a4565b428110610472576201518061129891046129cb565b506112b26112726112ab83859795612ffa565b8387612d9f565b9062014370198211611b1c57610dd41962014370830111611b1c57603b1962015144830111611b1c576003546040516315895f4760e31b81526004803590820152908790829060249082906001600160a01b03165afa9283156108e15760049388928991611e00575b50604051630b90ca9160e11b81529460209186919082906001600160a01b03165afa938415610870578894611dc9575b506201517f019161135f8484600435612728565b966001600160a01b03881615611d1a575b50505050506001600160a01b0383163b156104725760405163020da84160e61b815260048035908201523360248083019190915235604482015284908181606481836001600160a01b038a165af180156105b657611d06575b50508115611cf457600480358552600a602090815260408087205460025491516302c68be360e31b81526001600160a01b03918216948101859052949291859160249183918b91165af192831561082a578693611cc0575b5060405163313ce56760e01b8152602081600481865afa80156108e1578790611c83575b60ff91501660068110611c6f578460001904670de0b6b3a764000011600116611b1c57604d600519820160ff1611611c6f57611495906005190160ff16600a0a670de0b6b3a764000086026124c8565b8315611c59576115406040518880602083016323b872dd60e01b81526114d4846114c68b89043033602485016124f3565b03601f198101865285612436565b604051936114e18561241b565b602085527f5361666545524332303a206c6f772d6c6576656c2063616c6c206661696c65646020860152519082895af13d15611c51573d9061152282612530565b916115306040519384612436565b82523d8b602084013e5b866127e7565b80519081611bdc575b50508381046000190461119411848204151516611b1c5761157661271061119486840402048583046127dc565b90604051918260608101106001600160401b03606085011117610d8c5760608301604052600283526040366020850137825115611bc657846020840152825160011015611bc6576001600160a01b037f000000000000000000000000000000000000000000000000000000000000000081166040850152600654166000198290046127061182151516611b1c576001194211611bb2579260405180946338ed173960e01b82528b60a48301856004850152612710612706870204602485015260a060448501528451809152602060c48501950190825b818110611b895750505082908160209530606483015260014201608483015203925af1928315611b7e578993611b4a575b507f00000000000000000000000000000000000000000000000000000000000000006001600160a01b03163b15611b465788604051636f0372af60e01b81526001600482015260018060a01b037f000000000000000000000000000000000000000000000000000000000000000016602482015284604482015284606482015281816084818360018060a01b037f0000000000000000000000000000000000000000000000000000000000000000165af180156105b657611b32575b505060607f57f3d153693ba34ad2f1603ab743de3caf14b05ffa2fdfae8e9d0947a17c7ca391604051908782526020820152846040820152a181600019046113881182151516611b1c57879485602061182161179d61157c611388880204876127dc565b60408051612710611194888a040204815261157c6113888a020460208201529081018290529098907fe59d21244ca3bff81515b705214dab78cc9f978c1939e610874429ffa47380b290606090a160055460405163a9059cbb60e01b815294859384928391906127108a8c046111940204906001600160a01b031660048401612515565b03925af180156108e157611afd575b5060015460405163a9059cbb60e01b815290602090829081906118699061157c6113888a0204906001600160a01b031660048401612515565b03818a7f00000000000000000000000000000000000000000000000000000000000000006001600160a01b03165af180156108e157611ade575b5060085460405163a9059cbb60e01b815290602090829081906118d4908a906001600160a01b031660048401612515565b03818a7f00000000000000000000000000000000000000000000000000000000000000006001600160a01b03165af180156108e157611abf575b506001546001600160a01b031690813b15610ff65760405163bf59705960e01b815261271091909304611194020460048301526044803560248401528201849052859082908183816064810103925af1908115610fb1578591611aab575b50506004358452600960205260408420546001600160a01b031691823b1561081f57608485928361157c95611388946040519788968795630aadb77760e01b8752602435600488015202046024850152604435604485015260648401525af190811561043f578391611a97575b50506008546001600160a01b0316803b1561046157604483926040519485938492635b97d36760e01b8452600435600485015260248401525af18015610c6157611a83575b60208383604051907f308dab4150a765534b441eef3367b2732d18bfdcd4b5ffe2a7084e1b169905156004359280611a6e3394602435604435846040919493926060820195825260208201520152565b0390a36040516001600160a01b039091168152f35b611a8d8491612408565b6104615782611a1e565b611aa090612408565b6105c15781386119d9565b611ab490612408565b61047257833861196c565b611ad79060203d602011610438576104298183612436565b503861190e565b611af69060203d602011610438576104298183612436565b50386118a3565b611b159060203d602011610438576104298183612436565b5038611830565b634e487b7160e01b600052601160045260246000fd5b611b3b90612408565b611b46578838611739565b8880fd5b9092506020813d602011611b76575b81611b6660209383612436565b810103126108645751913861167d565b3d9150611b59565b6040513d8b823e3d90fd5b92509294600191945060208091838060a01b038751168152019401910190879394928e9261164c565b634e487b7160e01b8a52601160045260248afd5b634e487b7160e01b600052603260045260246000fd5b602080611bed9383010191016124db565b15611bf9573880611549565b60405162461bcd60e51b815260206004820152602a60248201527f5361666545524332303a204552433230206f7065726174696f6e20646964206e6044820152691bdd081cdd58d8d9595960b21b6064820152608490fd5b60609061153a565b634e487b7160e01b600052601260045260246000fd5b634e487b7160e01b87526011600452602487fd5b506020813d602011611cb8575b81611c9d60209383612436565b81010312610ff6575160ff81168103610ff65760ff90611445565b3d9150611c90565b9092506020813d602011611cec575b81611cdc60209383612436565b8101031261086457519138611421565b3d9150611ccf565b60405163720794bf60e01b8152600490fd5b611d0f90612408565b6104725783386113c9565b60209495975090611d30610792611d40936130bb565b611d39876130bb565b918461262c565b8760018060a01b036004541692611d7160405197889687958694636c1020a160e01b865260043590600487016126ee565b03925af1908115610c61578491611d8f575b50913880808080611370565b90506020813d602011611dc1575b81611daa60209383612436565b8101031261047257611dbb90612457565b38611d83565b3d9150611d9d565b9093506020813d602011611df8575b81611de560209383612436565b810103126108645751926201517f61134b565b3d9150611dd8565b60209350611e1891503d808b833e6108ce8183612436565b5050509290929061131b565b92503861126c565b60011910611e3c576044356111fc565b634e487b7160e01b83526011600452602483fd5b634e487b7160e01b84526011600452602484fd5b60405163855e507b60e01b8152600490fd5b9050611e91915060403d6040116108b25761089e8183612436565b90386111c6565b604051637730dc0b60e01b8152600490fd5b506020813d602011611ed6575b81611ec460209383612436565b81010312610864576111769051611169565b3d9150611eb7565b90506020813d602011611f0a575b81611ef960209383612436565b810103126108645751612710611135565b3d9150611eec565b90506020813d602011611f3c575b81611f2d60209383612436565b81010312610864575138611110565b3d9150611f20565b6040516307aaabcb60e21b8152600490fd5b5060036044351115611091565b604051635827c18760e01b8152600490fd5b50346101cd57806003193601126101cd576007546040516001600160a01b039091168152602090f35b50346101cd57806003193601126101cd576008546040516001600160a01b039091168152602090f35b50346101cd5760203660031901126101cd57611fe16123b2565b81546001600160a01b039190611ffa908316331461246b565b1660018060a01b03196005541617600555604051f35b50346101cd5761201f366123c8565b8183526009602090815260408420546001600160a01b03908116156105c557821561047657838552600982526040808620549051630a43eeed60e11b8152600481018590523060248201529190811683836044818a855af19283156108e1578491869189956121c0575b50906120b492918460015416908a6040518096819582946323b872dd60e01b845233600485016124f3565b03925af180156108e1576121a3575b508060055416803b15610ff657604051635a12fc9360e11b8152600481018790526001600160a01b0384166024820152604481018690523360648201529087908290608490829084905af180156108e157612186575b5091838192848861214596600554169160405180988196829563a9059cbb60e01b845260048401612515565b0393165af1918215610fb1577f1e54d7530dad81af38adb8ca9db02add3130668375f37be85396403616fc3d4992610f9457506040519283523392a3604051f35b83926121459492976121988793612408565b979250929350612119565b6121b990843d8611610438576104298183612436565b50386120c3565b92839195508092503d83116121f9575b6121da8183612436565b81010312610ff65783856121f06120b493612457565b94909192612089565b503d6121d0565b50346101cd5760203660031901126101cd5761221a6123b2565b81546001600160a01b039190612233908316331461246b565b1660018060a01b03196007541617600755604051f35b50346101cd57602090816003193601126101cd57600480358252600983526040808320549051634e75827160e01b81526001600160a01b0392909185918391829086165afa9283156122e15780936122a7575b505060405191168152f35b909192508382813d83116122da575b6122c08183612436565b810103126101cd57506122d290612457565b90388061229c565b503d6122b6565b604051903d90823e3d90fd5b50346101cd5760203660031901126101cd576123076123b2565b81546001600160a01b039190612320908316331461246b565b1660018060a01b03196002541617600255604051f35b50346101cd5760203660031901126101cd57602090600435815260098252604060018060a01b0391205416604051908152f35b50346101cd5760203660031901126101cd576123836123b2565b81546001600160a01b03919061239c908316331461246b565b1660018060a01b03196001541617600155604051f35b600435906001600160a01b038216820361086457565b6040906003190112610864576004359060243590565b606090600319011261086457600435906024356001600160a01b0381168103610864579060443590565b6001600160401b038111610d8c57604052565b604081019081106001600160401b03821117610d8c57604052565b90601f801991011681019081106001600160401b03821117610d8c57604052565b51906001600160a01b038216820361086457565b1561247257565b60405162461bcd60e51b815260206004820152600a60248201526927b7363c9037bbb732b960b11b6044820152606490fd5b81198111611b1c570190565b62015180908060001904821181151516611b1c570290565b8060001904821181151516611b1c570290565b90816020910312610864575180151581036108645790565b6001600160a01b03918216815291166020820152604081019190915260600190565b6001600160a01b039091168152602081019190915260400190565b6001600160401b038111610d8c57601f01601f191660200190565b918091926000905b82821061256b575011612564575050565b6000910152565b91508060209183015181860152018291612553565b9060a0828203126108645781516001600160401b03811161086457820181601f820112156108645780516125b381612530565b926125c16040519485612436565b81845260208284010111610864576125df916020808501910161254b565b916125ec60208301612457565b916125f960408201612457565b916080606083015192015190565b9190826040910312610864576020825192015190565b6000198114611b1c5760010190565b60279194936126c7936040519687936243522d60e81b602086015261265b81518092602060238901910161254b565b840190602d60f81b9182602382015261267e82518093602060248501910161254b565b0190602482015261269982518093602060258501910161254b565b01612d4760f01b60258201526126b8825180936020878501910161254b565b01036007810185520183612436565b565b906020916126e28151809281855285808601910161254b565b601f01601f1916010190565b9160809361270b61271e939897969860a0865260a08601906126c9565b91602085015283820360408501526126c9565b9460608201520152565b916040519160208301938452604083015260608201526060815260808101918183106001600160401b03841117610d8c5782602481602093816040528551902060018060a01b036004541690631620909560e01b835260848701525afa9081156127d05760009161279a575b50905090565b602090813d81116127c9575b6127b08186612436565b810103126101cd57506127c290612457565b8038612794565b503d6127a6565b6040513d6000823e3d90fd5b818110611b1c570390565b9192901561284957508151156127fb575090565b3b156128045790565b60405162461bcd60e51b815260206004820152601d60248201527f416464726573733a2063616c6c20746f206e6f6e2d636f6e74726163740000006044820152606490fd5b82519091501561285c5750805190602001fd5b60405162461bcd60e51b8152602060048201529081906128809060248301906126c9565b0390fd5b6006546001600160a01b03919082169081156128e95760446020926000604051958694859363095ea7b360e01b8552600485015282196024850152165af180156127d0576128cf5750565b6128e69060203d8111610438576104298183612436565b50565b6040516307bb995d60e41b8152600490fd5b6000811280156001600160ff1b03839003841316611b1c57600160ff1b829003831216611b1c570190565b6105b560008083136001600160ff1b038490048311166001166129765760017fffe9924f8d0dd7b2e6f174df9576f9de01c091c8faeb2605f522de8852b47aa88412828512161661297657500290565b634e487b7160e01b81526011600452602490fd5b600e600160ff1b018112600116611b1c57600d190190565b600082128015600160ff1b8401831216611b1c576001600160ff1b038301821316611b1c570390565b6000916001600160ff1b039162010bd990848112818503811581851316611c6f57600160ff1b938385039283821216612d8b5787908401129162010bd819908162253d8c93018313841516612d7757011316612d63576226496501936001936004918587830484118289131616612d5057808712600760fd1b8812168616612d505762023ab196878160021b0597878985048211848b131616612d2a57877fffffc694f94337079d130ab45dff8e0f9ea161331bb1c93dea871de6fec83ce28a12848b121616612d2a578802828112818503600313811516612d3d5781870360031216612d2a5790846003612ac2930105906129a2565b928184128484038813811516612cde57848603881216612ccb57868401610fa08882860482118584131616612cf157887ffff7ced916872b020c49ba5e353f7ced916872b020c49ba5e353f7ced916872c83128584121616612cf157612b3b9162164b099102059482612b3487612926565b05906129a2565b828112818503601f13811516612cf157818703601f1216612cde57601f019680888504605011848a131616612cde57807ffe666666666666666666666666666666666666666666666666666666666666678912848a121616612cde5761098f9788816050020590828287048b118684131616612d175784821299837ffff29be1739a4fb805dbcd5d6c7d1f7d6fd627208942391f124ee1c3f307026884128c1616612d045790605083612bf0930205906129a2565b98600b820597828703600213821516612d045782900360021216612cf15781878604600c118589131616612cf157817ff55555555555555555555555555555555555555555555555555555555555555688128589121616612cf157612c5c90600288600c0291016129a2565b986031600160ff1b0181128216612cf1578190603019018095046064118486131616612cde577ffeb851eb851eb851eb851eb851eb851eb851eb851eb851eb851eb851eb851eb984128385121616612ccb575050612cc69291612cc1916064026128fb565b6128fb565b929190565b634e487b7160e01b825260119052602490fd5b634e487b7160e01b835260118252602483fd5b634e487b7160e01b845260118352602484fd5b634e487b7160e01b865260118552602486fd5b634e487b7160e01b855260118452602485fd5b634e487b7160e01b835260118552602483fd5b634e487b7160e01b845260118652602484fd5b634e487b7160e01b815260118352602490fd5b634e487b7160e01b85526011600452602485fd5b634e487b7160e01b89526011600452602489fd5b634e487b7160e01b88526011600452602488fd5b9291926107b2811061086457600191617d4b600160ff1b0185128316611b1c576000918281128015926001600160ff1b03929182840391906112c08381138716612d8b57600160ff1b859003908181128316612d7757612e1c98999a9b612e2d91612e2160049b8c92600c612e138a61298a565b05908b016128fb565b612926565b0590617d4a19016128fb565b6002600160ff1b0184128b16612fe757600c612e488561298a565b058b7f0aaaaaaaaaaaaaaaaaaaaaaaaaaaaaaaaaaaaaaaaaaaaaaaaaaaaaaaaaaaaaaa82118c83131616612fd4578b7ff55555555555555555555555555555555555555555555555555555555555555682128c83121616612fd457612eb490600c0260011986016129a2565b61016f8c828a0482118d84131616612fc1578c7fffa6b6c1eb12d573186a06f9b8d9a287530217b7747d8eff4d6d83d625aae63183128d84121616612fc157612f039291600c910205906128fb565b9661132494851316612fae57831216612f9b578792606492600c612f29612f319461298a565b0591016128fb565b058092046003118583131616612cf157847fd55555555555555555555555555555555555555555555555555555555555555682128583121616612cf1579082612f7e9260030205906129a2565b9262253d8c600160ff1b01841216612ccb57505062253d8b190190565b634e487b7160e01b875260118652602487fd5b634e487b7160e01b895260118852602489fd5b634e487b7160e01b8c5260118b5260248cfd5b634e487b7160e01b8b5260118a5260248bfd5b634e487b7160e01b8a526011895260248afd5b906001811480156130b1575b80156130a7575b801561309d575b8015613093575b8015613089575b801561307f575b15613035575050601f90565b6002146130425750601e90565b60038116159081613072575b8115613065575b501561306057601d90565b601c90565b6101909150061538613055565b606481061515915061304e565b50600c8114613029565b50600a8114613022565b506008811461301b565b5060078114613014565b506005811461300d565b5060038114613006565b801561316057600081805b61314c57506130d481612530565b906130e26040519283612436565b808252601f196130f182612530565b013660208401375b8083156131455760018110611b1c576000190192600a91828206603081198111611b1c578551871015611bc6570160f81b6001600160f81b03191660001a908401601f015304916130f9565b5050905090565b90613158600a9161261d565b9104806130c6565b5060405161316d8161241b565b60018152600360fc1b60208201529056fea2646970667358221220286282324c0008445a048f2ad4745416734f797e94872c6a5c2bda0adbaf02af64736f6c634300080f0033",
  "devdoc": {
    "author": "Eric Lee (ylikp.ust@gmail.com) & Primata (primata@375labs.org)",
    "kind": "dev",
    "methods": {
      "approvePoolToken(address)": {
        "params": {
          "_token": "Address of the approved token"
        }
      },
      "buyCover(uint256,uint256,uint256,uint256)": {
        "params": {
          "_coverAmount": "Amount to cover",
          "_coverDuration": "Cover duration in month (1 ~ 3)",
          "_maxPayment": "Maximum payment user can accept",
          "_poolId": "Pool id"
        },
        "returns": {
          "_0": "crToken CR token address"
        }
      },
      "claimPayout(uint256,address,uint256)": {
        "params": {
          "_crToken": "Cover right token address",
          "_generation": "Generation of the priority pool",
          "_poolId": "Pool id"
        }
      },
      "currentLPAddress(uint256)": {
        "params": {
          "_poolId": "Priority Pool ID"
        },
        "returns": {
          "lpAddress": "Current LP token address"
        }
      },
      "getPremiumSplits()": {
        "returns": {
          "_0": "toPriorityPool   Premium split to priority pool in bps",
          "_1": "toProtectionPool Premium split to protection pool in bps"
        }
      },
      "owner()": {
        "details": "Returns the address of the current owner."
      },
      "provideLiquidity(uint256)": {
        "params": {
          "_amount": "Amount of liquidity(shield) to provide"
        }
      },
      "removeLiquidity(uint256)": {
        "params": {
          "_amount": "Amount of liquidity to provide"
        }
      },
      "renounceOwnership()": {
        "details": "Leaves the contract without owner. It will not be possible to call `onlyOwner` functions anymore. Can only be called by the current owner. NOTE: Renouncing ownership will leave the contract without an owner, thereby removing any functionality that is only available to the owner."
      },
      "setPremiumSplit(uint256,uint256)": {
        "params": {
          "_priority": "Split for priority pool in bps",
          "_protection": "Split for protection pool in bps"
        }
      },
      "stakeLiquidity(uint256,uint256)": {
        "params": {
          "_amount": "Amount of PRO-LP tokens to stake",
          "_poolId": "Pool id"
        }
      },
      "stakeLiquidityWithoutFarming(uint256,uint256)": {
        "params": {
          "_amount": "Amount of PRO-LP amount",
          "_poolId": "Pool id"
        }
      },
      "storePoolInformation(address,address,uint256)": {
        "params": {
          "_pool": "Address of the priority pool",
          "_poolId": "Pool id",
          "_token": "Address of the priority pool's native token"
        }
      },
      "transferOwnership(address)": {
        "details": "Transfers ownership of the contract to a new account (`newOwner`). Can only be called by the current owner."
      },
      "unstakeLiquidity(uint256,address,uint256)": {
        "params": {
          "_amount": "Amount of LP(priority lp) tokens to withdraw",
          "_poolId": "Pool id",
          "_priorityLP": "Priority lp token address to withdraw"
        }
      },
      "unstakeLiquidityWithoutFarming(uint256,address,uint256)": {
        "params": {
          "_amount": "PRI-LP token amount to remove",
          "_poolId": "Pool id",
          "_priorityLP": "PRI-LP token address"
        }
      }
    },
    "title": "Policy Center",
    "version": 1
  },
  "userdoc": {
    "kind": "user",
    "methods": {
      "approvePoolToken(address)": {
        "notice": "Approve the exchange to swap tokens"
      },
      "buyCover(uint256,uint256,uint256,uint256)": {
        "notice": "Buy new cover for a given pool         Select a pool with parameter \"poolId\"         Cover amount is in shield and duration is in month         The premium ratio may be dynamic so \"maxPayment\" is similar to \"slippage\""
      },
      "claimPayout(uint256,address,uint256)": {
        "notice": "Claim payout         Need to use a specific crToken address as parameter"
      },
      "currentLPAddress(uint256)": {
        "notice": "Returns the current LP address for a Pool ID"
      },
      "getPremiumSplits()": {
        "notice": "Returns premium split used by Policy Center"
      },
      "provideLiquidity(uint256)": {
        "notice": "Provide liquidity to Protection Pool"
      },
      "removeLiquidity(uint256)": {
        "notice": "Remove liquidity from protection pool"
      },
      "setPremiumSplit(uint256,uint256)": {
        "notice": "Sets the premium splits used by Policy Center"
      },
      "stakeLiquidity(uint256,uint256)": {
        "notice": "Stake Protection Pool LP (PRO-LP) into priority pools         And automatically stake the PRI-LP tokens into weighted farming pool         With this function, no need for approval of PRI-LP tokens         If you want to hold the PRI-LP tokens for other usage         Call \"stakeLiquidityWithoutFarming\""
      },
      "stakeLiquidityWithoutFarming(uint256,uint256)": {
        "notice": "Stake liquidity to priority pool without depositing into farming"
      },
      "storePoolInformation(address,address,uint256)": {
        "notice": "Store new pool information"
      },
      "unstakeLiquidity(uint256,address,uint256)": {
        "notice": "Unstake Protection Pool LP from priority pools         There may be different generations of priority lp tokens         This function will first remove the PRI-LP token from farming pool         Ensure that your PRI-LP tokens are inside the farming pool         If the PRI-LP tokens are in your own wallet, use \"unstakeLiquidityWithoutFarming\""
      },
      "unstakeLiquidityWithoutFarming(uint256,address,uint256)": {
        "notice": "Unstake liquidity without removing PRI-LP from farming"
      }
    },
    "notice": "This is the policy center for degis Protocol Protection         Users can buy policies and get payoff here         Sellers can provide liquidity and choose the pools to cover",
    "version": 1
  },
  "storageLayout": {
    "storage": [
      {
        "astId": 21498,
        "contract": "src/core/PolicyCenter.sol:PolicyCenter",
        "label": "_owner",
        "offset": 0,
        "slot": "0",
        "type": "t_address"
      },
      {
        "astId": 12097,
        "contract": "src/core/PolicyCenter.sol:PolicyCenter",
        "label": "protectionPool",
        "offset": 0,
        "slot": "1",
        "type": "t_address"
      },
      {
        "astId": 12099,
        "contract": "src/core/PolicyCenter.sol:PolicyCenter",
        "label": "priceGetter",
        "offset": 0,
        "slot": "2",
        "type": "t_address"
      },
      {
        "astId": 12101,
        "contract": "src/core/PolicyCenter.sol:PolicyCenter",
        "label": "priorityPoolFactory",
        "offset": 0,
        "slot": "3",
        "type": "t_address"
      },
      {
        "astId": 12103,
        "contract": "src/core/PolicyCenter.sol:PolicyCenter",
        "label": "coverRightTokenFactory",
        "offset": 0,
        "slot": "4",
        "type": "t_address"
      },
      {
        "astId": 12105,
        "contract": "src/core/PolicyCenter.sol:PolicyCenter",
        "label": "weightedFarmingPool",
        "offset": 0,
        "slot": "5",
        "type": "t_address"
      },
      {
        "astId": 12107,
        "contract": "src/core/PolicyCenter.sol:PolicyCenter",
        "label": "exchange",
        "offset": 0,
        "slot": "6",
        "type": "t_address"
      },
      {
        "astId": 12109,
        "contract": "src/core/PolicyCenter.sol:PolicyCenter",
        "label": "payoutPool",
        "offset": 0,
        "slot": "7",
        "type": "t_address"
      },
      {
        "astId": 12111,
        "contract": "src/core/PolicyCenter.sol:PolicyCenter",
        "label": "treasury",
        "offset": 0,
        "slot": "8",
        "type": "t_address"
      },
      {
        "astId": 10610,
        "contract": "src/core/PolicyCenter.sol:PolicyCenter",
        "label": "priorityPools",
        "offset": 0,
        "slot": "9",
        "type": "t_mapping(t_uint256,t_address)"
      },
      {
        "astId": 10614,
        "contract": "src/core/PolicyCenter.sol:PolicyCenter",
        "label": "tokenByPoolId",
        "offset": 0,
        "slot": "10",
        "type": "t_mapping(t_uint256,t_address)"
      },
      {
        "astId": 10618,
        "contract": "src/core/PolicyCenter.sol:PolicyCenter",
        "label": "premiumSplits",
        "offset": 0,
        "slot": "11",
        "type": "t_array(t_uint256)2_storage"
      },
      {
        "astId": 10624,
        "contract": "src/core/PolicyCenter.sol:PolicyCenter",
        "label": "coverInMonth",
        "offset": 0,
        "slot": "13",
        "type": "t_mapping(t_uint256,t_mapping(t_uint256,t_uint256))"
      }
    ],
    "types": {
      "t_address": {
        "encoding": "inplace",
        "label": "address",
        "numberOfBytes": "20"
      },
      "t_array(t_uint256)2_storage": {
        "base": "t_uint256",
        "encoding": "inplace",
        "label": "uint256[2]",
        "numberOfBytes": "64"
      },
      "t_mapping(t_uint256,t_address)": {
        "encoding": "mapping",
        "key": "t_uint256",
        "label": "mapping(uint256 => address)",
        "numberOfBytes": "32",
        "value": "t_address"
      },
      "t_mapping(t_uint256,t_mapping(t_uint256,t_uint256))": {
        "encoding": "mapping",
        "key": "t_uint256",
        "label": "mapping(uint256 => mapping(uint256 => uint256))",
        "numberOfBytes": "32",
        "value": "t_mapping(t_uint256,t_uint256)"
      },
      "t_mapping(t_uint256,t_uint256)": {
        "encoding": "mapping",
        "key": "t_uint256",
        "label": "mapping(uint256 => uint256)",
        "numberOfBytes": "32",
        "value": "t_uint256"
      },
      "t_uint256": {
        "encoding": "inplace",
        "label": "uint256",
        "numberOfBytes": "32"
      }
    }
  }
}