{
  "address": "0xD43641ddE5a60c45c398E659D51272Fd1576FdED",
  "abi": [
    {
      "inputs": [],
      "stateMutability": "nonpayable",
      "type": "constructor"
    },
    {
      "anonymous": false,
      "inputs": [
        {
          "indexed": false,
          "internalType": "uint80",
          "name": "roundID",
          "type": "uint80"
        },
        {
          "indexed": false,
          "internalType": "int256",
          "name": "price",
          "type": "int256"
        },
        {
          "indexed": false,
          "internalType": "uint256",
          "name": "startedAt",
          "type": "uint256"
        },
        {
          "indexed": false,
          "internalType": "uint256",
          "name": "timeStamp",
          "type": "uint256"
        },
        {
          "indexed": false,
          "internalType": "uint80",
          "name": "answeredInRound",
          "type": "uint80"
        }
      ],
      "name": "LatestPriceGet",
      "type": "event"
    },
    {
      "anonymous": false,
      "inputs": [
        {
          "indexed": true,
          "internalType": "address",
          "name": "previousOwner",
          "type": "address"
        },
        {
          "indexed": true,
          "internalType": "address",
          "name": "newOwner",
          "type": "address"
        }
      ],
      "name": "OwnershipTransferred",
      "type": "event"
    },
    {
      "anonymous": false,
      "inputs": [
        {
          "indexed": false,
          "internalType": "string",
          "name": "tokenName",
          "type": "string"
        },
        {
          "indexed": false,
          "internalType": "address",
          "name": "tokenAddress",
          "type": "address"
        },
        {
          "indexed": false,
          "internalType": "address",
          "name": "feedAddress",
          "type": "address"
        },
        {
          "indexed": false,
          "internalType": "uint256",
          "name": "decimals",
          "type": "uint256"
        }
      ],
      "name": "PriceFeedChanged",
      "type": "event"
    },
    {
      "inputs": [
        {
          "internalType": "address",
          "name": "_tokenAddress",
          "type": "address"
        }
      ],
      "name": "getLatestPrice",
      "outputs": [
        {
          "internalType": "uint256",
          "name": "finalPrice",
          "type": "uint256"
        }
      ],
      "stateMutability": "nonpayable",
      "type": "function"
    },
    {
      "inputs": [
        {
          "internalType": "string",
          "name": "_tokenName",
          "type": "string"
        }
      ],
      "name": "getLatestPrice",
      "outputs": [
        {
          "internalType": "uint256",
          "name": "",
          "type": "uint256"
        }
      ],
      "stateMutability": "nonpayable",
      "type": "function"
    },
    {
      "inputs": [
        {
          "internalType": "string",
          "name": "",
          "type": "string"
        }
      ],
      "name": "nameToAddress",
      "outputs": [
        {
          "internalType": "address",
          "name": "",
          "type": "address"
        }
      ],
      "stateMutability": "view",
      "type": "function"
    },
    {
      "inputs": [],
      "name": "owner",
      "outputs": [
        {
          "internalType": "address",
          "name": "",
          "type": "address"
        }
      ],
      "stateMutability": "view",
      "type": "function"
    },
    {
      "inputs": [
        {
          "internalType": "address",
          "name": "",
          "type": "address"
        }
      ],
      "name": "priceFeedInfo",
      "outputs": [
        {
          "internalType": "address",
          "name": "priceFeedAddress",
          "type": "address"
        },
        {
          "internalType": "uint256",
          "name": "decimals",
          "type": "uint256"
        }
      ],
      "stateMutability": "view",
      "type": "function"
    },
    {
      "inputs": [],
      "name": "renounceOwnership",
      "outputs": [],
      "stateMutability": "nonpayable",
      "type": "function"
    },
    {
      "inputs": [
        {
          "internalType": "string",
          "name": "_tokenName",
          "type": "string"
        },
        {
          "internalType": "address",
          "name": "_tokenAddress",
          "type": "address"
        },
        {
          "internalType": "address",
          "name": "_feedAddress",
          "type": "address"
        },
        {
          "internalType": "uint256",
          "name": "_decimals",
          "type": "uint256"
        }
      ],
      "name": "setPriceFeed",
      "outputs": [],
      "stateMutability": "nonpayable",
      "type": "function"
    },
    {
      "inputs": [
        {
          "internalType": "address",
          "name": "newOwner",
          "type": "address"
        }
      ],
      "name": "transferOwnership",
      "outputs": [],
      "stateMutability": "nonpayable",
      "type": "function"
    }
  ],
  "transactionHash": "0x417dfdb71418c2d3ae79274f1d5dcd81469cee8cf62b47ddb42a2d9c8866e614",
  "args": [],
  "numDeployments": 3,
  "solcInputHash": "26838be735a5c3399f71c0686e2278ca",
  "bytecode": "0x6080806040523461002857600080546001600160a01b031916331790556107f5908161002e8239f35b600080fdfe6040608081526004908136101561001557600080fd5b6000803560e01c806308d88aad1461047c57806316345f1814610456578063715018a6146103f657806377def8d4146102245780638da5cb5b146101f8578063a9ff6c0f146101b4578063f2fde38b146100e95763f66a1b711461007857600080fd5b346100e65760203660031901126100e65782359067ffffffffffffffff82116100e657506100ae6020936100df9236910161051c565b836100c184519283815193849201610578565b600290820190815281900384019020546001600160a01b0316610613565b9051908152f35b80fd5b5091346101b05760203660031901126101b0576101046105ad565b83546001600160a01b0380821694919261011f3387146105c3565b1692831561015f5750829051937f8be0079c531659141344cd1fd0a4f28419497f9722a3daafe3b4186f6b6457e08686a36001600160a01b031916178255f35b6020608492519162461bcd60e51b8352820152602660248201527f4f776e61626c653a206e6577206f776e657220697320746865207a65726f206160448201526564647265737360d01b6064820152fd5b8280fd5b50346100e65760203660031901126100e6576001600160a01b03906001908390836101dd6105ad565b16815282602052209182541691015482519182526020820152f35b509034610220578160031936011261022057905490516001600160a01b039091168152602090f35b5080fd5b5091346101b05760803660031901126101b05767ffffffffffffffff9080358281116103f257610257903690830161051c565b916001600160a01b0391602435838116908190036103ee57604435918483168093036103ea576064359361028f868a541633146105c3565b83156103b85760128511610381578751918289019182118383101761036e575092610350959260a095927fae6fc5315f41d4c4e0f943524e6ce313a0b92e68d1f72bc87205ce434f7571dd98958a5282815260016020820195858752838d52816020528b8d209251169581808a1b031996878454161783555191015588519381865195602081818a019861032481838c610578565b810160028152030190209182541617905588519687956080875251809581608089015288880190610578565b6020850152878401526060830152601f01601f19168101030190a151f35b634e487b7160e01b8a5260419052602489fd5b875162461bcd60e51b81526020818401526011602482015270546f6f206d616e7920646563696d616c7360781b6044820152606490fd5b875162461bcd60e51b8152602081840152600c60248201526b5a65726f206164647265737360a01b6044820152606490fd5b8780fd5b8680fd5b8480fd5b50903461022057816003193601126102205781546001600160a01b0381169183906104223385146105c3565b51927f8be0079c531659141344cd1fd0a4f28419497f9722a3daafe3b4186f6b6457e08285a36001600160a01b0319168255f35b509034610220576020366003190112610220576020906100df6104776105ad565b610613565b50346100e65760203660031901126100e65782359067ffffffffffffffff82116100e657506020926104b09136910161051c565b826104c383519283815193849201610578565b6002908201908152819003830190205490516001600160a01b039091168152f35b90601f8019910116810190811067ffffffffffffffff82111761050657604052565b634e487b7160e01b600052604160045260246000fd5b81601f820112156105735780359067ffffffffffffffff82116105065760405192610551601f8401601f1916602001856104e4565b8284526020838301011161057357816000926020809301838601378301015290565b600080fd5b918091926000905b828210610598575011610591575050565b6000910152565b91508060209183015181860152018291610580565b600435906001600160a01b038216820361057357565b156105ca57565b60405162461bcd60e51b815260206004820152600a60248201526927b7363c9037bbb732b960b11b6044820152606490fd5b519069ffffffffffffffffffff8216820361057357565b6001600160a01b039081166000908152600160205260408082208151929383830167ffffffffffffffff8111858210176107ab57916020600160a093869560049897528354169283875201549401938452825194858092633fabe5a360e21b82525afa80156107a15784908594868791889361073d575b50878712610735575b845169ffffffffffffffffffff9485168152602081018890529485015260608401521660808201527fc7851f2a8f2b8a66cfb8738f664e014401b6b82af7958036c58001411ed923e49060a090a1518060121061072157601203604d811161072157600a0a91816000190483118215151661070d57500290565b634e487b7160e01b81526011600452602490fd5b634e487b7160e01b83526011600452602483fd5b879650610693565b96505050505060a0833d8211610799575b8161075b60a093836104e4565b810103126107955761076c836105fc565b9260208101519082810151946107896080606084015193016105fc565b9092959190913861068a565b8380fd5b3d915061074e565b81513d86823e3d90fd5b634e487b7160e01b86526041600452602486fdfea2646970667358221220ad8d161696dbb4f43277251d858b5b6de9873ff53869174432a87334108cb43f64736f6c634300080f0033",
  "devdoc": {
    "details": "The price from chainlink priceFeed has different decimals, be careful.",
    "kind": "dev",
    "methods": {
      "getLatestPrice(address)": {
        "params": {
          "_tokenAddress": "Address of the token"
        },
        "returns": {
          "finalPrice": "The latest price"
        }
      },
      "getLatestPrice(string)": {
        "params": {
          "_tokenName": "Name of the token"
        },
        "returns": {
          "_0": "price The latest price"
        }
      },
      "owner()": {
        "details": "Returns the address of the current owner."
      },
      "renounceOwnership()": {
        "details": "Leaves the contract without owner. It will not be possible to call `onlyOwner` functions anymore. Can only be called by the current owner. NOTE: Renouncing ownership will leave the contract without an owner, thereby removing any functionality that is only available to the owner."
      },
      "setPriceFeed(string,address,address,uint256)": {
        "details": "Only callable by the owner      The price result decimal should be less than 18",
        "params": {
          "_decimals": "Decimals of this price feed service",
          "_feedAddress": "Price feed oracle address",
          "_tokenName": "Address of the token"
        }
      },
      "transferOwnership(address)": {
        "details": "Transfers ownership of the contract to a new account (`newOwner`). Can only be called by the current owner."
      }
    },
    "title": "Price Getter",
    "version": 1
  },
  "userdoc": {
    "kind": "user",
    "methods": {
      "getLatestPrice(address)": {
        "notice": "Get latest price of a token"
      },
      "getLatestPrice(string)": {
        "notice": "Get latest price of a token"
      },
      "setPriceFeed(string,address,address,uint256)": {
        "notice": "Set a price feed oracle address for a token"
      }
    },
    "notice": "This is the contract for getting price feed from chainlink.         The contract will keep a record from tokenName => priceFeed Address.         Got the sponsorship and collaboration with Chainlink.",
    "version": 1
  },
  "storageLayout": {
    "storage": [
      {
        "astId": 21746,
        "contract": "src/util/PriceGetter.sol:PriceGetter",
        "label": "_owner",
        "offset": 0,
        "slot": "0",
        "type": "t_address"
      },
      {
        "astId": 21892,
        "contract": "src/util/PriceGetter.sol:PriceGetter",
        "label": "priceFeedInfo",
        "offset": 0,
        "slot": "1",
        "type": "t_mapping(t_address,t_struct(PriceFeedInfo)21887_storage)"
      },
      {
        "astId": 21896,
        "contract": "src/util/PriceGetter.sol:PriceGetter",
        "label": "nameToAddress",
        "offset": 0,
        "slot": "2",
        "type": "t_mapping(t_string_memory_ptr,t_address)"
      }
    ],
    "types": {
      "t_address": {
        "encoding": "inplace",
        "label": "address",
        "numberOfBytes": "20"
      },
      "t_mapping(t_address,t_struct(PriceFeedInfo)21887_storage)": {
        "encoding": "mapping",
        "key": "t_address",
        "label": "mapping(address => struct PriceGetter.PriceFeedInfo)",
        "numberOfBytes": "32",
        "value": "t_struct(PriceFeedInfo)21887_storage"
      },
      "t_mapping(t_string_memory_ptr,t_address)": {
        "encoding": "mapping",
        "key": "t_string_memory_ptr",
        "label": "mapping(string => address)",
        "numberOfBytes": "32",
        "value": "t_address"
      },
      "t_string_memory_ptr": {
        "encoding": "bytes",
        "label": "string",
        "numberOfBytes": "32"
      },
      "t_struct(PriceFeedInfo)21887_storage": {
        "encoding": "inplace",
        "label": "struct PriceGetter.PriceFeedInfo",
        "members": [
          {
            "astId": 21884,
            "contract": "src/util/PriceGetter.sol:PriceGetter",
            "label": "priceFeedAddress",
            "offset": 0,
            "slot": "0",
            "type": "t_address"
          },
          {
            "astId": 21886,
            "contract": "src/util/PriceGetter.sol:PriceGetter",
            "label": "decimals",
            "offset": 0,
            "slot": "1",
            "type": "t_uint256"
          }
        ],
        "numberOfBytes": "64"
      },
      "t_uint256": {
        "encoding": "inplace",
        "label": "uint256",
        "numberOfBytes": "32"
      }
    }
  }
}