{
  "address": "0xfe6590039dA26b82C016c745cFcd80Ebf8360Efd",
  "abi": [
    {
      "inputs": [
        {
          "internalType": "address",
          "name": "_deg",
          "type": "address"
        },
        {
          "internalType": "address",
          "name": "_veDeg",
          "type": "address"
        },
        {
          "internalType": "address",
          "name": "_shield",
          "type": "address"
        },
        {
          "internalType": "address",
          "name": "_protectionPool",
          "type": "address"
        }
      ],
      "stateMutability": "nonpayable",
      "type": "constructor"
    },
    {
      "inputs": [],
      "name": "PriorityPoolFactory__AlreadyDynamicPool",
      "type": "error"
    },
    {
      "inputs": [],
      "name": "PriorityPoolFactory__NotOwnerOrFactory",
      "type": "error"
    },
    {
      "inputs": [],
      "name": "PriorityPoolFactory__OnlyExecutor",
      "type": "error"
    },
    {
      "inputs": [],
      "name": "PriorityPoolFactory__OnlyIncidentReportOrExecutor",
      "type": "error"
    },
    {
      "inputs": [],
      "name": "PriorityPoolFactory__OnlyOwnerOrExecutor",
      "type": "error"
    },
    {
      "inputs": [],
      "name": "PriorityPoolFactory__OnlyPolicyCenter",
      "type": "error"
    },
    {
      "inputs": [],
      "name": "PriorityPoolFactory__OnlyPriorityPool",
      "type": "error"
    },
    {
      "inputs": [],
      "name": "PriorityPoolFactory__PoolNotRegistered",
      "type": "error"
    },
    {
      "inputs": [],
      "name": "PriorityPoolFactory__TokenAlreadyRegistered",
      "type": "error"
    },
    {
      "inputs": [],
      "name": "PriorityPoolFactory__WrongLPToken",
      "type": "error"
    },
    {
      "anonymous": false,
      "inputs": [
        {
          "indexed": false,
          "internalType": "uint256",
          "name": "poolId",
          "type": "uint256"
        },
        {
          "indexed": false,
          "internalType": "address",
          "name": "pool",
          "type": "address"
        },
        {
          "indexed": false,
          "internalType": "uint256",
          "name": "dynamicPoolCounter",
          "type": "uint256"
        }
      ],
      "name": "DynamicPoolUpdate",
      "type": "event"
    },
    {
      "anonymous": false,
      "inputs": [
        {
          "indexed": false,
          "internalType": "uint256",
          "name": "totalMaxCapacity",
          "type": "uint256"
        }
      ],
      "name": "MaxCapacityUpdated",
      "type": "event"
    },
    {
      "anonymous": false,
      "inputs": [
        {
          "indexed": true,
          "internalType": "address",
          "name": "previousOwner",
          "type": "address"
        },
        {
          "indexed": true,
          "internalType": "address",
          "name": "newOwner",
          "type": "address"
        }
      ],
      "name": "OwnershipTransferred",
      "type": "event"
    },
    {
      "anonymous": false,
      "inputs": [
        {
          "indexed": false,
          "internalType": "uint256",
          "name": "poolId",
          "type": "uint256"
        },
        {
          "indexed": false,
          "internalType": "address",
          "name": "poolAddress",
          "type": "address"
        },
        {
          "indexed": false,
          "internalType": "string",
          "name": "protocolName",
          "type": "string"
        },
        {
          "indexed": false,
          "internalType": "address",
          "name": "protocolToken",
          "type": "address"
        },
        {
          "indexed": false,
          "internalType": "uint256",
          "name": "maxCapacity",
          "type": "uint256"
        },
        {
          "indexed": false,
          "internalType": "uint256",
          "name": "basePremiumRatio",
          "type": "uint256"
        }
      ],
      "name": "PoolCreated",
      "type": "event"
    },
    {
      "inputs": [
        {
          "internalType": "string",
          "name": "_name",
          "type": "string"
        },
        {
          "internalType": "address",
          "name": "_protocolToken",
          "type": "address"
        },
        {
          "internalType": "uint256",
          "name": "_maxCapacity",
          "type": "uint256"
        },
        {
          "internalType": "uint256",
          "name": "_basePremiumRatio",
          "type": "uint256"
        }
      ],
      "name": "deployPool",
      "outputs": [
        {
          "internalType": "address",
          "name": "",
          "type": "address"
        }
      ],
      "stateMutability": "nonpayable",
      "type": "function"
    },
    {
      "inputs": [
        {
          "internalType": "address",
          "name": "",
          "type": "address"
        }
      ],
      "name": "dynamic",
      "outputs": [
        {
          "internalType": "bool",
          "name": "",
          "type": "bool"
        }
      ],
      "stateMutability": "view",
      "type": "function"
    },
    {
      "inputs": [],
      "name": "dynamicPoolCounter",
      "outputs": [
        {
          "internalType": "uint256",
          "name": "",
          "type": "uint256"
        }
      ],
      "stateMutability": "view",
      "type": "function"
    },
    {
      "inputs": [],
      "name": "executor",
      "outputs": [
        {
          "internalType": "address",
          "name": "",
          "type": "address"
        }
      ],
      "stateMutability": "view",
      "type": "function"
    },
    {
      "inputs": [],
      "name": "getPoolAddressList",
      "outputs": [
        {
          "internalType": "address[]",
          "name": "",
          "type": "address[]"
        }
      ],
      "stateMutability": "view",
      "type": "function"
    },
    {
      "inputs": [
        {
          "internalType": "uint256",
          "name": "_poolId",
          "type": "uint256"
        }
      ],
      "name": "getPoolInfo",
      "outputs": [
        {
          "components": [
            {
              "internalType": "string",
              "name": "protocolName",
              "type": "string"
            },
            {
              "internalType": "address",
              "name": "poolAddress",
              "type": "address"
            },
            {
              "internalType": "address",
              "name": "protocolToken",
              "type": "address"
            },
            {
              "internalType": "uint256",
              "name": "maxCapacity",
              "type": "uint256"
            },
            {
              "internalType": "uint256",
              "name": "basePremiumRatio",
              "type": "uint256"
            }
          ],
          "internalType": "struct PriorityPoolFactory.PoolInfo",
          "name": "",
          "type": "tuple"
        }
      ],
      "stateMutability": "view",
      "type": "function"
    },
    {
      "inputs": [],
      "name": "owner",
      "outputs": [
        {
          "internalType": "address",
          "name": "",
          "type": "address"
        }
      ],
      "stateMutability": "view",
      "type": "function"
    },
    {
      "inputs": [
        {
          "internalType": "uint256",
          "name": "_poolId",
          "type": "uint256"
        },
        {
          "internalType": "bool",
          "name": "_paused",
          "type": "bool"
        }
      ],
      "name": "pausePriorityPool",
      "outputs": [],
      "stateMutability": "nonpayable",
      "type": "function"
    },
    {
      "inputs": [
        {
          "internalType": "address",
          "name": "",
          "type": "address"
        }
      ],
      "name": "poolAddressToId",
      "outputs": [
        {
          "internalType": "uint256",
          "name": "",
          "type": "uint256"
        }
      ],
      "stateMutability": "view",
      "type": "function"
    },
    {
      "inputs": [],
      "name": "poolCounter",
      "outputs": [
        {
          "internalType": "uint256",
          "name": "",
          "type": "uint256"
        }
      ],
      "stateMutability": "view",
      "type": "function"
    },
    {
      "inputs": [
        {
          "internalType": "address",
          "name": "",
          "type": "address"
        }
      ],
      "name": "poolRegistered",
      "outputs": [
        {
          "internalType": "bool",
          "name": "",
          "type": "bool"
        }
      ],
      "stateMutability": "view",
      "type": "function"
    },
    {
      "inputs": [
        {
          "internalType": "uint256",
          "name": "",
          "type": "uint256"
        }
      ],
      "name": "pools",
      "outputs": [
        {
          "internalType": "string",
          "name": "protocolName",
          "type": "string"
        },
        {
          "internalType": "address",
          "name": "poolAddress",
          "type": "address"
        },
        {
          "internalType": "address",
          "name": "protocolToken",
          "type": "address"
        },
        {
          "internalType": "uint256",
          "name": "maxCapacity",
          "type": "uint256"
        },
        {
          "internalType": "uint256",
          "name": "basePremiumRatio",
          "type": "uint256"
        }
      ],
      "stateMutability": "view",
      "type": "function"
    },
    {
      "inputs": [],
      "name": "renounceOwnership",
      "outputs": [],
      "stateMutability": "nonpayable",
      "type": "function"
    },
    {
      "inputs": [
        {
          "internalType": "address",
          "name": "_executor",
          "type": "address"
        }
      ],
      "name": "setExecutor",
      "outputs": [],
      "stateMutability": "nonpayable",
      "type": "function"
    },
    {
      "inputs": [
        {
          "internalType": "address",
          "name": "_incidentReport",
          "type": "address"
        }
      ],
      "name": "setIncidentReport",
      "outputs": [],
      "stateMutability": "nonpayable",
      "type": "function"
    },
    {
      "inputs": [
        {
          "internalType": "address",
          "name": "_payoutPool",
          "type": "address"
        }
      ],
      "name": "setPayoutPool",
      "outputs": [],
      "stateMutability": "nonpayable",
      "type": "function"
    },
    {
      "inputs": [
        {
          "internalType": "address",
          "name": "_policyCenter",
          "type": "address"
        }
      ],
      "name": "setPolicyCenter",
      "outputs": [],
      "stateMutability": "nonpayable",
      "type": "function"
    },
    {
      "inputs": [
        {
          "internalType": "address",
          "name": "_protectionPool",
          "type": "address"
        }
      ],
      "name": "setProtectionPool",
      "outputs": [],
      "stateMutability": "nonpayable",
      "type": "function"
    },
    {
      "inputs": [
        {
          "internalType": "address",
          "name": "_weightedFarmingPool",
          "type": "address"
        }
      ],
      "name": "setWeightedFarmingPool",
      "outputs": [],
      "stateMutability": "nonpayable",
      "type": "function"
    },
    {
      "inputs": [
        {
          "internalType": "address",
          "name": "",
          "type": "address"
        }
      ],
      "name": "tokenRegistered",
      "outputs": [
        {
          "internalType": "bool",
          "name": "",
          "type": "bool"
        }
      ],
      "stateMutability": "view",
      "type": "function"
    },
    {
      "inputs": [],
      "name": "totalMaxCapacity",
      "outputs": [
        {
          "internalType": "uint256",
          "name": "",
          "type": "uint256"
        }
      ],
      "stateMutability": "view",
      "type": "function"
    },
    {
      "inputs": [
        {
          "internalType": "address",
          "name": "newOwner",
          "type": "address"
        }
      ],
      "name": "transferOwnership",
      "outputs": [],
      "stateMutability": "nonpayable",
      "type": "function"
    },
    {
      "inputs": [
        {
          "internalType": "uint256",
          "name": "_poolId",
          "type": "uint256"
        }
      ],
      "name": "updateDynamicPool",
      "outputs": [],
      "stateMutability": "nonpayable",
      "type": "function"
    },
    {
      "inputs": [
        {
          "internalType": "bool",
          "name": "_isUp",
          "type": "bool"
        },
        {
          "internalType": "uint256",
          "name": "_diff",
          "type": "uint256"
        }
      ],
      "name": "updateMaxCapaity",
      "outputs": [],
      "stateMutability": "nonpayable",
      "type": "function"
    }
  ],
  "transactionHash": "0xcdbe93fac760f030758470519a241acb67d2542a022562334cde52f9ff0fa84f",
  "args": [
    "0xDCdA705958c68423d1923D00818DAA519f59fc26",
    "0xBD724dB7AaF655137AC03163001ce1e58211affe",
    "0x62494723BD679476E4a11d243B832dA918d0F79F",
    "0x32f2EB421B11414EF13de9a4759450FCCCb61d57"
  ],
  "numDeployments": 5,
  "solcInputHash": "014ec466cdfeca04e202ae583a8afb99",
  "bytecode": "0x60e03462000345576001600160401b03601f19601f62006201388190039182018316850191848311868410176200034a5780869260809460405283398101031262000345576200004f8362000360565b926200005e6020820162000360565b6200007a6060620000726040850162000360565b930162000360565b6001600160a01b0395861660805290851660a090815291851660c081905260008054336001600160a01b0319918216178255600380549490981693168317909655818652600d60209081526040808820805460ff199081166001908117909255848a52600e90935281892080549093161790915551949092850185811082821117620003315760e08601818110838211176200031d57604052600e81526d141c9bdd1958dd1a5bdb941bdbdb60921b60c087015285526020850191825260408501928352606085019386855286608087015286805260076020526040872096865190815193841162000309578854600181811c91168015620002fe575b6020821014620002ea57601f8111620002a0575b50602092601f8511600114620002305750926080969492819260049997959262000224575b50508160011b916000199060031b1c19161787555b516001870180546001600160a01b03199081166001600160a01b0393841617909155915160028801805490931691161790555160038501550151910155604051615e8b908162000376823960805181505060a05181505060c051815050f35b015190503880620001b0565b84939291931689845260208420935b81811062000287575092600192859260049a989660809a9896106200026d575b505050811b018755620001c5565b015160001960f88460031b161c191690553880806200025f565b929360206001819287860151815501950193016200023f565b89825260208220601f860160051c81019160208710620002df575b601f0160051c01905b818110620002d357506200018b565b828155600101620002c4565b9091508190620002bb565b634e487b7160e01b82526022600452602482fd5b90607f169062000177565b634e487b7160e01b81526041600452602490fd5b634e487b7160e01b88526041600452602488fd5b634e487b7160e01b87526041600452602487fd5b600080fd5b634e487b7160e01b600052604160045260246000fd5b51906001600160a01b0382168203620003455756fe6080604052600436101562000014575b600080fd5b60003560e01c80630121cff5146200023a5780631b352789146200022f5780631c3c0ea814620002245780632a50489a14620002195780632dd57bb0146200020e5780632f380b3514620002035780633f81ff2614620001f85780634124974514620001ed57806358bf0f2c14620001e25780636bdbd19514620001d7578063715018a614620001cc578063746376ee14620001c15780638da5cb5b14620001b65780639e3079cb14620001ab578063a2e1ce6214620001a0578063a7e9f1c71462000195578063ac4afa38146200018a578063bb9febaf146200017f578063c34c08e51462000174578063d98a254c1462000169578063e3356ccf146200015e578063ef3722981462000153578063f2fde38b14620001485763f6cb90ab146200013e57600080fd5b6200000f62000f4d565b506200000f62000eab565b506200000f62000e6c565b506200000f62000e19565b506200000f62000d60565b506200000f62000d34565b506200000f62000ca8565b506200000f62000c24565b506200000f62000a9c565b506200000f62000a58565b506200000f62000a37565b506200000f62000a0b565b506200000f620009c7565b506200000f62000961565b506200000f62000894565b506200000f620007ef565b506200000f620007ab565b506200000f62000758565b506200000f620006aa565b506200000f620005aa565b506200000f620004dc565b506200000f62000489565b506200000f620002e6565b506200000f62000273565b600435906001600160a01b03821682036200000f57565b602435906001600160a01b03821682036200000f57565b50346200000f5760203660031901126200000f576200029162000245565b6000546001600160a01b039190620002ad908316331462001014565b60038054919092166001600160a01b0319909116179055005b6024359081151582036200000f57565b6004359081151582036200000f57565b50346200000f5760403660031901126200000f5762000304620002c6565b60045462000322906001600160a01b03165b6001600160a01b031690565b3314158062000468575b62000456576200036462000316620003166001620003566004356000526007602052604060002090565b01546001600160a01b031690565b803b156200000f576040516305e5fe2360e41b81528215156004820152600092839290919083908290602490829084905af1801562000446575b6200042f575b50600354620003be9062000316906001600160a01b031681565b90813b156200042b5760405163a8a2b43160e01b8152901515600482015291908290602490829084905af180156200041b575b620003fd575b50604051f35b806200040d620004149262000b11565b8062000842565b38620003f7565b6200042562001287565b620003f1565b5050fd5b806200040d6200043f9262000b11565b38620003a4565b6200045062001287565b6200039e565b60405163570d52bd60e11b8152600490fd5b5060015462000480906001600160a01b031662000316565b3314156200032c565b50346200000f5760203660031901126200000f57620004a762000245565b6000546001600160a01b039190620004c3908316331462001014565b60018054919092166001600160a01b0319909116179055005b50346200000f5760203660031901126200000f576000338152600d602052604060ff8183205416156200059a57338252600b60205260ff81832054166200058a57338252600b602052808220805460ff191660011790556200054962000544600c5460010190565b600c55565b600c548151600435815233602082015260408101919091527fa16172101044efd65843cd11b767b8aa758d7da7be12573e0c897b52b71444fd90606090a151f35b516334c8f8b960e01b8152600490fd5b51630fc64fb960e21b8152600490fd5b50346200000f5760203660031901126200000f57620005c862000245565b6000546001600160a01b039190620005e4908316331462001014565b60028054919092166001600160a01b0319909116179055005b918091926000905b8282106200061f57501162000618575050565b6000910152565b9150806020918301518186015201829162000605565b906020916200065081518092818552858086019101620005fd565b601f01601f1916010190565b6020815260a060806200067b845183602086015260c085019062000635565b93600180841b038060208301511660408601526040820151166060850152606081015182850152015191015290565b50346200000f5760203660031901126200000f576200075460408060808151620006d48162000b34565b6060815260009181836020819401528285820152826060820152015260043581526007602052209060048151926200070c8462000b34565b620007178162000b72565b845260018101546001600160a01b03908116602086015260028201541683850152600381015460608501520154608083015251918291826200065c565b0390f35b50346200000f5760203660031901126200000f576200077662000245565b6000546001600160a01b03919062000792908316331462001014565b60068054919092166001600160a01b0319909116179055005b50346200000f5760203660031901126200000f576001600160a01b03620007d162000245565b16600052600b602052602060ff604060002054166040519015158152f35b50346200000f5760203660031901126200000f576200080d62000245565b6000546001600160a01b03919062000829908316331462001014565b60058054919092166001600160a01b0319909116179055005b60009103126200000f57565b6020908160408183019282815285518094520193019160005b82811062000876575050505090565b83516001600160a01b03168552938101939281019260010162000867565b50346200000f576000806003193601126200095e576009549060011982116200094e575b600180920190620008c98262000fbf565b91604091620008db8351948562000b50565b818452601f19620008ec8362000fbf565b016020903682870137815b8381106200090e578451806200075488826200084e565b8083526007825284832087015487919062000947906001600160a01b031662000938838a62000fe9565b6001600160a01b039091169052565b01620008f7565b6200095862000f6e565b620008b8565b80fd5b50346200000f576000806003193601126200095e5780546001600160a01b038116906200099033831462001014565b82604051927f8be0079c531659141344cd1fd0a4f28419497f9722a3daafe3b4186f6b6457e08285a36001600160a01b0319168255f35b50346200000f5760203660031901126200000f576001600160a01b03620009ed62000245565b16600052600d602052602060ff604060002054166040519015158152f35b50346200000f5760003660031901126200000f576000546040516001600160a01b039091168152602090f35b50346200000f5760003660031901126200000f576020600954604051908152f35b50346200000f5760203660031901126200000f576001600160a01b0362000a7e62000245565b16600052600e602052602060ff604060002054166040519015158152f35b50346200000f5760003660031901126200000f576020600c54604051908152f35b90600182811c9216801562000aef575b602083101462000ad957565b634e487b7160e01b600052602260045260246000fd5b91607f169162000acd565b50634e487b7160e01b600052604160045260246000fd5b6001600160401b03811162000b2557604052565b62000b2f62000afa565b604052565b60a081019081106001600160401b0382111762000b2557604052565b90601f801991011681019081106001600160401b0382111762000b2557604052565b906040519182600082549262000b888462000abd565b90818452600194858116908160001462000bff575060011462000bb8575b505062000bb69250038362000b50565b565b9093915060005260209081600020936000915b81831062000be657505062000bb69350820101388062000ba6565b8554888401850152948501948794509183019162000bcb565b91505062000bb694506020925060ff191682840152151560051b820101388062000ba6565b50346200000f5760203660031901126200000f57600435600052600760205262000c8f604060002062000c578162000b72565b9060018060a01b0390816001820154169160028201541690600460038201549101549160405195869560a0875260a087019062000635565b9360208601526040850152606084015260808301520390f35b50346200000f5760803660031901126200000f576001600160401b036004358181116200000f57366023820112156200000f5780600401359182116200000f5736602483830101116200000f57620007549162000d1a9162000d096200025c565b6064359260246044359301620012e3565b6040516001600160a01b0390911681529081906020820190565b50346200000f5760003660031901126200000f576001546040516001600160a01b039091168152602090f35b50346200000f5760403660031901126200000f5762000d7e620002d6565b6024359033600052600d60205260ff604060002054161562000e07571562000de15762000dae90600a5462000f85565b600a555b7f8b8564868e5db4ac945b0fd897338876dcc0c95a5f183b340f47285ebbcb6af16020600a54604051908152a1005b600a5481811062000df7575b03600a5562000db2565b62000e0162000f6e565b62000ded565b604051630fc64fb960e21b8152600490fd5b50346200000f5760203660031901126200000f5762000e3762000245565b6000546001600160a01b03919062000e53908316331462001014565b60048054919092166001600160a01b0319909116179055005b50346200000f5760203660031901126200000f576001600160a01b0362000e9262000245565b1660005260086020526020604060002054604051908152f35b50346200000f5760203660031901126200000f5762000ec962000245565b6000546001600160a01b039062000ee4908216331462001014565b81161562000ef95762000ef7906200178b565b005b60405162461bcd60e51b815260206004820152602660248201527f4f776e61626c653a206e6577206f776e657220697320746865207a65726f206160448201526564647265737360d01b6064820152608490fd5b50346200000f5760003660031901126200000f576020600a54604051908152f35b50634e487b7160e01b600052601160045260246000fd5b8119811162000f92570190565b62000f9c62000f6e565b0190565b6040519062000bb68262000b34565b9062000bb6604051928362000b50565b6020906001600160401b03811162000fd9575b60051b0190565b62000fe362000afa565b62000fd2565b805182101562000ffe5760209160051b010190565b634e487b7160e01b600052603260045260246000fd5b156200101c57565b60405162461bcd60e51b815260206004820152600a60248201526927b7363c9037bbb732b960b11b6044820152606490fd5b600190600019811462000f92570190565b9291926001600160401b038211620010aa575b604051916200108c601f8201601f19166020018462000b50565b8294818452818301116200000f578281602093846000960137010152565b620010b462000afa565b62001072565b90601f8111620010c957505050565b600091825260208220906020601f850160051c8301941062001108575b601f0160051c01915b828110620010fc57505050565b818155600101620010ef565b9092508290620010e6565b90805180516001600160401b03811162001277575b620011408162001139865462000abd565b86620010ba565b6020918290601f8311600114620011f6576080938360049694620011b3946200119094600092620011ea575b50508160011b916000199060031b1c19161787555b8301516001600160a01b031690565b6001860180546001600160a01b0319166001600160a01b03909216919091179055565b60408101516002850180546001600160a01b0319166001600160a01b03909216919091179055606081015160038501550151910155565b0151905038806200116c565b90601f198316916200120d87600052602060002090565b9260005b8181106200125f575084620011b39462001190946080989460049a986001951062001245575b505050811b01875562001181565b015160001960f88460031b161c1916905538808062001237565b92938660018192878601518155019501930162001211565b6200128162000afa565b62001128565b506040513d6000823e3d90fd5b938060a0969998979460e0938752600180891b03809516602088015260c060408801528160c0880152838701376000828287010152601f80199101168401019616606083015260808201520152565b600080549095919491939192906001600160a01b031633141580620015c0575b620015ae576001600160a01b0382166000908152600e602052604090205460ff166200159c57620013406200133b84600a5462000f85565b600a55565b6200134d6009546200104e565b946200135886600955565b620013738585856200136c3687876200105f565b8a6200167d565b96620013d66200138262000fa0565b6200138f3686866200105f565b81526001600160a01b038a1660208201526001600160a01b0386166040820152866060820152876080820152620013d0896000526007602052604060002090565b62001113565b6001600160a01b0384166000908152600e6020526040902062001401905b805460ff19166001179055565b6001600160a01b0388166000908152600d602052604090206200142490620013f4565b6001600160a01b0388166000908152600860205260409020879055600254620014589062000316906001600160a01b031681565b803b156200159857604051630b6cccdd60e41b81526001600160a01b038a8116600483015286166024820152604481018990529082908290606490829084905af1801562001588575b62001571575b50600554620014c19062000316906001600160a01b031681565b90813b156200095e5760405163d914cd4b60e01b81526001600160a01b03861660048201527f6f92dd7fd4aaa286bc76a2ea88bede9a5077443cccc9b4aece620689e3fc63de988a98909762001544979196909591949093919291908290602490829084905af1801562001561575b6200154a575b506040519788978862001294565b0390a190565b806200040d6200155a9262000b11565b3862001536565b6200156b62001287565b62001530565b806200040d620015819262000b11565b38620014a7565b6200159262001287565b620014a1565b5080fd5b6040516308ba7c3f60e31b8152600490fd5b604051636adaa0f960e01b8152600490fd5b50600154620015d8906001600160a01b031662000316565b33141562001303565b9062000f9c60209282815194859201620005fd565b6020929181526200161082518093858085019101620005fd565b010190565b989394966060936200163f6101209a948c949e9d999e855261014080602087015285019062000635565b9c60018060a01b03998a9889978896878096166040820152015260808d01521660a08b01521660c08901521660e08701521661010085015216910152565b926200175a92620017616200176e93620017496200177498976200173c61468295620016ac6020880162000faf565b96808852620017d46020890139604051976020890189620016cf888784620015f6565b0399620016e5601f199b8c810183528262000b50565b519020600054600554919d916001600160a01b0391821691166003549091906001600160a01b03166002549093906001600160a01b03166006549095906001600160a01b0316966040519b8c9a60208c0162001615565b0385810183528262000b50565b6040519586936020850190620015e1565b90620015e1565b0390810183528262000b50565b62001777565b90565b6020815191016000f590813b156200000f57565b60005460018060a01b03809216809282167f8be0079c531659141344cd1fd0a4f28419497f9722a3daafe3b4186f6b6457e06000604051a36001600160a01b0319161760005556fe6101208060405234620006f0576000620046828038038091620000238286620006f5565b843982019161014081840312620006ec57805160208201516001600160401b038111620006e857820184601f82011215620006e85780519062000066826200072f565b95620000766040519788620006f5565b82875260208383010111620006e457906200009891602080880191016200074b565b620000a66040830162000783565b936060830151608084015190620000c060a0860162000783565b96620000cf60c0870162000783565b93620000de60e0880162000783565b95620000fd610120620000f56101008b0162000783565b990162000783565b60c09a909a52610100528051906001600160401b0382116200058b5781906200012860055462000798565b601f811162000693575b50602090601f83116001146200061c578a9262000610575b50508160011b916000199060031b1c1916176005555b600780546001600160a01b0319166001600160a01b03929092169190911790556008554260095560e0526003608052600160a052600654620001a290620007d5565b80600655620001b46101005162000822565b620001bf8262000822565b6040518092665052492d4c502d60c81b6020830152620001ea8151809260206027860191016200074b565b8101602d60f81b6027820152889060055490620002078262000798565b9160018116908115620005ea57506001146200059f575b505090620002579282612d4760f01b600294526200024682518093602087850191016200074b565b0103601d19810184520182620006f5565b604051610acf808201906001600160401b038211838310176200058b57602083926200028e9262003b9385398181520184620007fb565b039087f09182156200058057808752600f6020526040872080546001600160a01b0319166001600160a01b0385811691909117909155610100519085163b156200057c5760405160016224184f60e11b0319815260048101919091526001600160a01b03848116602483015264e8d4a51000604483015288908290606490829084908a165af18015620005715762000540575b5060018060a01b0383168752601160205264e8d4a5100060408820556010602052604087209160ff199260018482541617905561010051916040519260a084528994600554620003718162000798565b918260a088015260018216918260001462000520575050600114620004d5575b50938392620003d4927f5bc145acec26384dc09c6269c9e569c69db21ad88cbd81319958b05998b83b5b96602086015260408501528382036060850152620007fb565b6001600160a01b03851660808301520390a16001600160a01b0390811685526011602052604080862064e8d4a510009055612710600a55600180546001600160a01b0319908116331790915560038054821694841694909417909355600280548416948316949094179093558454610100600160a81b03191660089490941b610100600160a81b03169390931790935560048054909316939091169290921790555161325e908162000935823960805181505060a05181505060c0518181816102c1015261073d015260e051818181610271015281816122e9015261245f01526101005181818161087c01528181610e4b0152818161160d01526124fa0152f35b60058b52939450928990600080516020620046628339815191525b81831062000508575050840160c00193928362000391565b805460c08489010152602090920191600101620004f0565b1660c08781019190915291151560051b8601909101955084905062000391565b9096906001600160401b0381116200055d57604052953862000321565b634e487b7160e01b82526041600452602482fd5b6040513d8a823e3d90fd5b8780fd5b6040513d88823e3d90fd5b634e487b7160e01b89526041600452602489fd5b60058b5290915089600080516020620046628339815191525b838210620005cf575050016028018260026200021e565b805460288385010152869450602090910190600101620005b8565b60ff1916602883810191909152831515909302909101909101915083905060026200021e565b0151905038806200014a565b60058b52600080516020620046628339815191529250601f1984168b5b8181106200067a575090846001959493921062000660575b505050811b0160055562000160565b015160001960f88460031b161c1916905538808062000651565b9293602060018192878601518155019501930162000639565b90915060058a5260208a20601f840160051c810160208510620006dc575b90601f8594930160051c01905b818110620006cd575062000132565b8b8155849350600101620006be565b5080620006b1565b8480fd5b8380fd5b5080fd5b600080fd5b601f909101601f19168101906001600160401b038211908210176200071957604052565b634e487b7160e01b600052604160045260246000fd5b6001600160401b0381116200071957601f01601f191660200190565b918091926000905b8282106200076d57501162000766575050565b6000910152565b9150806020918301518186015201829162000753565b51906001600160a01b0382168203620006f057565b90600182811c92168015620007ca575b6020831014620007b457565b634e487b7160e01b600052602260045260246000fd5b91607f1691620007a8565b6000198114620007e55760010190565b634e487b7160e01b600052601160045260246000fd5b9060209162000816815180928185528580860191016200074b565b601f01601f1916010190565b80156200090557600081805b620008ee57506200083f816200072f565b916200084f6040519384620006f5565b818352601f1962000860836200072f565b01918160209336858701375b620008775750505090565b60018110620007e5576000190190600a90603082820680198211620007e5578651851015620008d8570160f81b7fff000000000000000000000000000000000000000000000000000000000000001660001a8584018501530490816200086c565b634e487b7160e01b600052603260045260246000fd5b90620008fc600a91620007d5565b9104806200082e565b50604080519081016001600160401b03811182821017620007195760405260018152600360fc1b60208201529056fe604060808152600490813610156200001657600080fd5b600091823560e01c9081630aadb77714620015265781630b92b5e414620014f157816310b72d681462000cc85781631487ddda1462000b92578163172195221462000b715781631733ea5014620009685781632440f3e914620008ca5781632b796968146200089f5781633e0dc34e14620008625781634d05124c146200081b5781634e75827114620007e557816359b6a0c914620007c45781635c975abb14620007a05781635e5fe230146200071357816378e9792514620006f257816379e25f3a14620006b65781638905faeb14620004835781638a9be828146200045c57839082639926878e146200042d578263a6f1c7c914620003f4578263b1fead0b14620003c5578263d06a30be146200039d578263d90543b8146200037c578263e17739b514620002945750508063e2e7c36614620002585763f3466dfa146200015f57600080fd5b3462000254578160031936011262000254578051908260055462000183816200175d565b80855290600190818116908115620002295750600114620001cb575b505050620001b482620001c7940383620017c5565b5191829160208352602083019062001820565b0390f35b60058352602095507f036b6384b5eca791c62761152d0c79bb0604c104a5fb6f4eb0703f3154bb3db05b828410620002155750505082620001c794620001b492820101946200019f565b8054868501880152928601928101620001f5565b620001c79750620001b49450602092508693915060ff191682840152151560051b820101946200019f565b5080fd5b50346200025457816003193601126200025457602090517f00000000000000000000000000000000000000000000000000000000000000008152f35b909150346200025457826003193601126200025457620002b362001736565b6001600160a01b03916024357f00000000000000000000000000000000000000000000000000000000000000008416330362000365578060085582600014620003695780620003029162001847565b925b60015416803b156200036557849283604492885196879586946349e51b2560e01b865215159085015260248401525af1801562000358576200034557505051f35b62000350906200179a565b620002545751f35b50505051903d90823e3d90fd5b8480fd5b80620003759162001847565b9262000304565b5082346200025457816003193601126200025457602090600a549051908152f35b5082346200025457816003193601126200025457602090620003be62002105565b9051908152f35b508234620002545780602092620003dc3662001746565b908252600c8552828220908252845220549051908152f35b839034620004295760203660031901126200042957358252600e6020908152918190205490516001600160a01b039091168152f35b8280fd5b508234620002545780602092620004443662001746565b908252600b8552828220908252845220549051908152f35b82843462000480576020366003190112620004805750620003be6020923562002192565b80fd5b905082346200048057620004973662001746565b62989680829492106200067357620004af8462002192565b92620151809182420490620004c482620019b6565b939150506001821062000660576000199160198382019410156200064a575b50620004f3620004ff91620019b6565b948594929391620018d2565b600181106200063757600c916200051c91019282840490620018d2565b910660011981116200062457926200055e92620005589260016200056896019162000548838362002031565b8091116200061b575b5062001db4565b62001884565b83420690620018d2565b90428210620004805750620005876200059b92620005589204620019b6565b5062000594818362002031565b9162001db4565b90620143701982116200060657610dd419620143708301116200060657603b196201514483011162000606575064496cebb80091620005f2620005e9620005f8936201517f42910162001847565b9485926200189d565b6200189d565b049082519182526020820152f35b601190634e487b7160e01b6000525260246000fd5b92508c62000551565b634e487b7160e01b855260118752602485fd5b634e487b7160e01b865260118852602486fd5b909260011910620006605791620004f3620004e3565b634e487b7160e01b845260118652602484fd5b845162461bcd60e51b8152602081840152601a60248201527f556e646572206d696e696d756d20636f76657220616d6f756e740000000000006044820152606490fd5b50503462000254576020366003190112620002545760209181906001600160a01b03620006e26200171f565b1681526011845220549051908152f35b50503462000254578160031936011262000254576020906009549051908152f35b9050346200042957602036600319011262000429576200073262001736565b9060018060a01b03807f000000000000000000000000000000000000000000000000000000000000000016331415908162000790575b5062000782575060ff801960005416911515161760005551f35b8251633d769c1160e21b8152fd5b9050600154163314153862000768565b505034620002545781600319360112620002545760ff602092541690519015158152f35b50503462000254578160031936011262000254576020906008549051908152f35b50503462000254578160031936011262000254576006548252600f6020908152918190205490516001600160a01b039091168152f35b8284346200048057806003193601126200048057506200083a62002105565b91612710908360001904821184151516620006065750600854602093620003be9202620018b1565b5050346200025457816003193601126200025457602090517f00000000000000000000000000000000000000000000000000000000000000008152f35b505034620002545781600319360112620002545760075490516001600160a01b039091168152602090f35b905034620004295760203660031901126200042957600254813591906001600160a01b031633036200092e57507f98f8638d7fcb95eacabcf74919bde278d0b069a0579c6784d9bba8f93a4f62ee82600a548151908152836020820152a1600a5551f35b606490602084519162461bcd60e51b8352820152601460248201527313db9b1e481c1c9bdd1958dd1a5bdb881c1bdbdb60621b6044820152fd5b905034620004295760603660031901126200042957620009876200171f565b60243591604435916001600160a01b0390818416840362000b6c57818754620009b460ff82161562002482565b60081c16330362000b5c578116908187526020906010825260ff87892054161562000b4c57818894939262000a478693620009ee620024b8565b8585526011835264e8d4a5100062000a0a8b8d8820546200189d565b6002548d5163a9059cbb60e01b81526001600160a01b038d168b820190815293909204602084015290968794919093169284929091839160400190565b03925af1801562000b425762000b08575b5050803b1562000429578551632770a7eb60e21b81526001600160a01b03851692810192835260208301869052918391839182908490829060400103925af1801562000afe5762000ae2575b505082519182526001600160a01b031660208201527fad77d19b2b77e0dfe7bf3e9cd2c87dc639cc1e223d58cf3d69603478f684064590604090a151f35b62000aed906200179a565b62000afa57833862000aa4565b8380fd5b85513d84823e3d90fd5b81813d831162000b3a575b62000b1f8183620017c5565b8101031262000afa5751801515036200042957388062000a58565b503d62000b13565b88513d87823e3d90fd5b8651631f05e71b60e31b81528490fd5b855163e3dfb17f60e01b81528390fd5b600080fd5b50503462000254578160031936011262000254576020906006549051908152f35b90503462000429578160031936011262000429576001600160a01b039060243590803590838316830362000b6c5783865462000bd260ff82161562002482565b60081c16330362000cba5762000be7620024b8565b6006548652600f6020528584868220541691823b15620002545786516340c10f1960e01b81526001600160a01b0386169181019182526020820185905292839182908490829060400103925af1801562000cb05762000c98575b5083519081526001600160a01b03919091166020808301919091529383917ff02b701fc10bff0958891c152c9eeabe4286e300c7ec9a0b08f64456ad941f7990604090a16006548152600f85522054169051908152f35b62000ca486916200179a565b62000365573862000c41565b85513d88823e3d90fd5b845163e3dfb17f60e01b8152fd5b90503462000429576020908160031936011262000afa57803560018060a01b0392600183828683541688519283809263c34c08e560e01b82525afa8015620014e75786918991620014a6575b50163303620014965786856002541687516370a0823160e01b815230878201528481602481855afa9081156200140f5783916200145f575b508851638e15f47360e01b81528986828a8188885af1801562001455578792869162001419575b5062000d8a9062000d848a62001869565b620018b1565b9383851015620012f85789549151636d40d7d760e11b8152808b01868152928c166001600160a01b0316602084015294959394938492839190829060400103925af1908115620012ee578591620012bf575b505062000d8462000df262000df8938362001847565b62001869565b6006548852600f8352858789205416885260118352868820555b62000e1c62002105565b15620012b75762000e4262000e318462001869565b62000e3b62002105565b90620018b1565b905b87868654167f00000000000000000000000000000000000000000000000000000000000000009360065491803b1562000afa5760a48985889381958f51978896879563c773a2d160e01b875286015260248501528c604485015260648401523060848401525af1801562001295576200129f575b50506006548852600f8352878688822054168760035416818352601186528983205490803b1562000afa5760648985889381958f51978896879563c65323f160e01b8752860152602485015260448401525af18015620012955762001279575b505085600354169562000f2d60065462002575565b8060065562000f3c84620025a2565b9162000f4882620025a2565b8a518094665052492d4c502d60c81b8983015262000f70815180928b602786019101620017e8565b8101602d60f81b60278201528d80916005549162000f8e836200175d565b928a81169081156200125057506001146200120c575b5050509062000fdd9282612d4760f01b6002945262000fcc825180938d8785019101620017e8565b0103601d19810186520184620017c5565b8951610acf8082019082821067ffffffffffffffff831117620011f95788839262001013926200273a8539818152018662001820565b03908cf08015620011ef57828c52600f87528a8c2080546001600160a01b031916929091169182179055978a813b1562000480578a98868a5191637fdbe7b160e11b83528201528a602482015281816064818364e8d4a51000978860448401525af18015620011e557620011c4575b5089905260118652878b205560108552868a209360ff1994848682541617905587519460a086528b94600554620010b9816200175d565b928360a08a015282821691826000146200119257505060011462001145575b5050849384937fd2f6618ba448f8b76ee0e823f8bb8c568b748f1687e1bc6bd625306fc4fb50359a936200112c9389600080516020620032098339815191529901528a860152848203606086015262001820565b9060808301520390a1600654908351928352820152a151f35b60058d52878d209295508c925b8284106200117a57505050840160c001928060008051602062003209833981519152620010d8565b805488850160c001528c9a5092880192810162001152565b1660c0808a019190915292151560051b88019092019550829150600080516020620032098339815191529050620010d8565b620011d2919299506200179a565b620011e15788968a3862001082565b8980fd5b8a513d84823e3d90fd5b8a513d8d823e3d90fd5b634e487b7160e01b8e5260418b5260248efd5b90919250600581528a898183205b858410620012345750505050016028018260028f62000fa4565b8054858501602801528a965092909101918c918b91016200121a565b60ff19166028848101919091528415159094029092019092019250849150600290508f62000fa4565b62001284906200179a565b6200129157873862000f18565b8780fd5b89513d84823e3d90fd5b620012aa906200179a565b6200129157873862000eb8565b869062000e44565b813d8311620012e6575b620012d58183620017c5565b8101031262000b6c57833862000ddc565b503d620012c9565b89513d8c823e3d90fd5b9051636d40d7d760e11b81528981019384523060208501529093509182908190604001038186865af19081156200140f578391620013d4575b506200133e908662001847565b87875416823b1562000afa57895163329b1a9360e21b81528089019283526001600160a01b03909116602083015291839183919082908490829060400103925af18015620013ca57620013ae575b50506006548752600f8252848688205416875260118252868681205562000e12565b620013b9906200179a565b620013c65786386200138c565b8680fd5b88513d84823e3d90fd5b809350858092503d831162001407575b620013f08183620017c5565b8101031262000b6c576200133e8992519062001331565b503d620013e4565b89513d85823e3d90fd5b9550505083813d83116200144d575b620014348183620017c5565b8101031262000b6c57848962000d8a8c95519062000d73565b503d62001428565b81513d87823e3d90fd5b809350858092503d83116200148e575b6200147b8183620017c5565b8101031262000b6c578891513862000d4c565b503d6200146f565b8551633f77a45b60e01b81528490fd5b809250848092503d8311620014df575b620014c28183620017c5565b810103126200129157518581168103620012915785903862000d14565b503d620014b6565b87513d8a823e3d90fd5b905034620004295760203660031901126200042957358252600f6020908152918190205490516001600160a01b039091168152f35b83915034620002545760031960803682011262000429578254604435928035926200155560ff84161562002482565b6001600160a01b039260081c83163303620017105762001574620024b8565b620151804204936200158685620019b6565b509088915b888310620016c75750505050620015a7606435602435620018b1565b92620015b386620026b6565b95620015ca620015c382620026b6565b96620019b6565b509089915b8383106200168557505050506003541693843b15620013c657869492620016576200164797959387938b51998a988997889663341922c160e01b88527f000000000000000000000000000000000000000000000000000000000000000090880152602487015260806044870152608486019062002703565b9184830301606485015262002703565b03925af180156200167b576200166c57509051f35b62001677906200179a565b9051f35b83513d84823e3d90fd5b8162001692848c620026ee565b5280620016a0848b620026ee565b52600180910192600c8411620016b9575b0191620015cf565b9250809101908092620016b1565b818a526020600b81528b8b2090828c52528a8a20620016e8858254620018d2565b9055600180910192600c841162001702575b01916200158b565b9250809101908092620016fa565b50855163e3dfb17f60e01b8152fd5b600435906001600160a01b038216820362000b6c57565b60043590811515820362000b6c57565b604090600319011262000b6c576004359060243590565b90600182811c921680156200178f575b60208310146200177957565b634e487b7160e01b600052602260045260246000fd5b91607f16916200176d565b67ffffffffffffffff8111620017af57604052565b634e487b7160e01b600052604160045260246000fd5b90601f8019910116810190811067ffffffffffffffff821117620017af57604052565b918091926000905b8282106200180a57501162001803575050565b6000910152565b91508060209183015181860152018291620017f0565b906020916200183b81518092818552858086019101620017e8565b601f01601f1916010190565b81811062001853570390565b634e487b7160e01b600052601160045260246000fd5b64e8d4a5100090806000190482118115151662001853570290565b6201518090806000190482118115151662001853570290565b806000190482118115151662001853570290565b8115620018bc570490565b634e487b7160e01b600052601260045260246000fd5b8119811162001853570190565b6000811280156001600160ff1b038390038413166200185357600160ff1b82900383121662001853570190565b6105b560008083136001600160ff1b038490048311166001166200195e5760017fffe9924f8d0dd7b2e6f174df9576f9de01c091c8faeb2605f522de8852b47aa8841282851216166200195e57500290565b634e487b7160e01b81526011600452602490fd5b600e600160ff1b0181126001166200185357600d190190565b600082128015600160ff1b840183121662001853576001600160ff1b03830182131662001853570390565b6000916001600160ff1b039162010bd99084811281850381158185131662001da057600160ff1b93838503928382121662001d8c5787908401129162010bd819908162253d8c9301831384151662001d785701131662001d6457622649650193600193600491858783048411828913161662001d5157808712600760fd1b881216861662001d515762023ab196878160021b0597878985048211848b13161662001d3e57877fffffc694f94337079d130ab45dff8e0f9ea161331bb1c93dea871de6fec83ce28a12848b12161662001d3e57880282811281850360031381151662000660578187036003121662001d3e579084600362001ab9930105906200198b565b92818412848403881381151662001cf25784860388121662001cdf57868401610fa0888286048211858413161662001d0557887ffff7ced916872b020c49ba5e353f7ced916872b020c49ba5e353f7ced916872c8312858412161662001d055762001b3a9162164b09910205948262001b32876200190c565b05906200198b565b828112818503601f1381151662001d0557818703601f121662001cf257601f019680888504605011848a13161662001cf257807ffe666666666666666666666666666666666666666666666666666666666666678912848a12161662001cf25761098f9788816050020590828287048b11868413161662001d2b5784821299837ffff29be1739a4fb805dbcd5d6c7d1f7d6fd627208942391f124ee1c3f307026884128c161662001d18579060508362001bf7930205906200198b565b98600b82059782870360021382151662001d18578290036002121662001d055781878604600c11858913161662001d0557817ff5555555555555555555555555555555555555555555555555555555555555568812858912161662001d055762001c6990600288600c0291016200198b565b986031600160ff1b018112821662001d0557819060301901809504606411848613161662001cf2577ffeb851eb851eb851eb851eb851eb851eb851eb851eb851eb851eb851eb851eb98412838512161662001cdf57505062001cda929162001cd491606402620018df565b620018df565b929190565b634e487b7160e01b825260119052602490fd5b634e487b7160e01b835260118252602483fd5b634e487b7160e01b845260118352602484fd5b634e487b7160e01b865260118552602486fd5b634e487b7160e01b855260118452602485fd5b634e487b7160e01b835260118552602483fd5b634e487b7160e01b815260118352602490fd5b634e487b7160e01b85526011600452602485fd5b634e487b7160e01b89526011600452602489fd5b634e487b7160e01b88526011600452602488fd5b634e487b7160e01b87526011600452602487fd5b9291926107b2811062000b6c57600191617d4b600160ff1b018512831662001853576000918281128015926001600160ff1b03929182840391906112c0838113871662001d8c57600160ff1b85900390818112831662001d785762001e3b98999a9b62001e4e9162001e4160049b8c92600c62001e318a62001972565b05908b01620018df565b6200190c565b0590617d4a1901620018df565b6002600160ff1b0184128b166200201e57600c62001e6c8562001972565b058b7f0aaaaaaaaaaaaaaaaaaaaaaaaaaaaaaaaaaaaaaaaaaaaaaaaaaaaaaaaaaaaaaa82118c831316166200200b578b7ff55555555555555555555555555555555555555555555555555555555555555682128c831216166200200b5762001edc90600c0260011986016200198b565b61016f8c828a0482118d8413161662001ff8578c7fffa6b6c1eb12d573186a06f9b8d9a287530217b7747d8eff4d6d83d625aae63183128d8412161662001ff85762001f2f9291600c91020590620018df565b966113249485131662001fe55783121662001fd2578792606492600c62001f5a62001f639462001972565b059101620018df565b05809204600311858313161662001d0557847fd5555555555555555555555555555555555555555555555555555555555555568212858312161662001d0557908262001fb49260030205906200198b565b9262253d8c600160ff1b0184121662001cdf57505062253d8b190190565b634e487b7160e01b875260118652602487fd5b634e487b7160e01b895260118852602489fd5b634e487b7160e01b8c5260118b5260248cfd5b634e487b7160e01b8b5260118a5260248bfd5b634e487b7160e01b8a526011895260248afd5b90600181148015620020fa575b8015620020ef575b8015620020e4575b8015620020d9575b8015620020ce575b8015620020c3575b1562002073575050601f90565b600214620020815750601e90565b60038116159081620020b5575b8115620020a7575b5015620020a257601d90565b601c90565b610190915006153862002096565b60648106151591506200208e565b50600c811462002066565b50600a81146200205e565b506008811462002056565b50600781146200204e565b506005811462002046565b50600381146200203e565b60008062002118620151804204620019b6565b50919081905b600382106200214157505050506200213d61271091600a54906200189d565b0490565b9091929362002168908285526020600b8152604090818720908888525285205490620018d2565b93600180910192600c841162002184575b01929192906200211e565b925080910190809262002179565b9062093a80620021a56009544262001847565b11156200245d57620021c562000df283620021bf62002105565b620018d2565b60025460408051633f14610f60e21b81526004956001600160a01b0394929385169260209290919083818a81885afa9081156200241c5760009162002427575b5062002217929162000e3b91620018d2565b91600654600052600f825284846000205416845183818a816318160ddd60e01b958682525afa9081156200241c57908491600091620023e5575b506200225d9062001869565b918987518095819382525afa918215620023da5790889392916000926200239d575b5082916200228d91620018b1565b956001541685519384809263a7e9f1c760e01b82525afa93841562002393575060009362002359575b505081620022c4916200189d565b9064e8d4a510001990818311620023445762002315906200230e64e8d4a510008095017f00000000000000000000000000000000000000000000000000000000000000006200189d565b946200189d565b9081116200232f576200232c9394500190620018b1565b90565b601185634e487b7160e01b6000525260246000fd5b601186634e487b7160e01b6000525260246000fd5b8181949293943d83116200238b575b620023748183620017c5565b810103126200048057505190620022c438620022b6565b503d62002368565b513d6000823e3d90fd5b91909280945082813d8311620023d2575b620023ba8183620017c5565b81010312620004805750518792916200228d6200227f565b503d620023ae565b85513d6000823e3d90fd5b9182813d831162002414575b620023fd8183620017c5565b810103126200048057505183906200225d62002251565b503d620023f1565b86513d6000823e3d90fd5b908482813d831162002455575b620024408183620017c5565b81010312620004805750516200221762002205565b503d62002434565b7f00000000000000000000000000000000000000000000000000000000000000009150565b156200248a57565b60405162461bcd60e51b815260206004820152600660248201526514185d5cd95960d21b6044820152606490fd5b60ff600d541615806200255b575b620024cd57565b6001546001600160a01b0316803b1562000b6c5760008091602460405180948193631528244d60e11b83527f000000000000000000000000000000000000000000000000000000000000000060048401525af180156200254f576200253d575b50600160ff19600d541617600d55565b62002548906200179a565b386200252d565b6040513d6000823e3d90fd5b5062093a806200256e6009544262001847565b11620024c6565b6000198114620018535760010190565b67ffffffffffffffff8111620017af57601f01601f191660200190565b80156200266d57600081805b620026565750620025bf8162002585565b91620025cf6040519384620017c5565b818352601f19620025e08362002585565b01918160209336858701375b620025f75750505090565b6001811062001853576000190190600a906030828206801982116200185357865185101562002640570160f81b6001600160f81b03191660001a858401850153049081620025ec565b634e487b7160e01b600052603260045260246000fd5b9062002664600a9162002575565b910480620025ae565b506040516040810181811067ffffffffffffffff821117620017af5760405260018152600360fc1b602082015290565b67ffffffffffffffff8111620017af5760051b60200190565b90620026c2826200269d565b620026d16040519182620017c5565b8281528092620026e4601f19916200269d565b0190602036910137565b8051821015620026405760209160051b010190565b90815180825260208080930193019160005b82811062002724575050505090565b8351855293810193928101926001016200271556fe6080604052346200038a5762000acf803803806200001d816200038f565b928339810160209182818303126200038a5780516001600160401b03918282116200038a570192601f908382860112156200038a5784518381116200027957601f199562000071828501881684016200038f565b958287528383830101116200038a578183916000905b8282106200037057501162000361575b50506040519460408601868110858211176200027957604052600686526505052492d4c560d41b82870152845184811162000279576000546001968782811c9216801562000356575b858310146200025857818684931162000300575b5084908683116001146200029b576000926200028f575b5050600019600383901b1c191690861b176000555b8551938411620002795784548581811c911680156200026e575b8382101462000258578381116200020d575b5081928411600114620001a95750508192936000926200019d575b5050600019600383901b1c191690821b1790555b600580546001600160a01b031916331790556040516107199081620003b68239f35b01519050388062000167565b6000858152828120918516969193925b878210620001f557505083859610620001db575b505050811b0190556200017b565b015160001960f88460031b161c19169055388080620001cd565b808785968294968601518155019501930190620001b9565b85600052826000208480870160051c8201928588106200024e575b0160051c019086905b828110620002415750506200014c565b6000815501869062000231565b9250819262000228565b634e487b7160e01b600052602260045260246000fd5b90607f16906200013a565b634e487b7160e01b600052604160045260246000fd5b0151905038806200010b565b90848994169160008052866000209260005b88828210620002e95750508411620002cf575b505050811b0160005562000120565b015160001960f88460031b161c19169055388080620002c0565b8385015186558c97909501949384019301620002ad565b90915060008052846000208680850160051c8201928786106200034c575b918a91869594930160051c01915b8281106200033c575050620000f4565b600081558594508a91016200032c565b925081926200031e565b91607f1691620000e0565b60009186010152388162000097565b92809250818401015182828a010152018290849262000087565b600080fd5b6040519190601f01601f191682016001600160401b03811183821017620002795760405256fe6080604081815260048036101561001557600080fd5b600092833560e01c90816306fdde031461050357508063095ea7b31461049557806318160ddd1461047657806323b872dd146103b2578063313ce5671461039657806340c10f191461030a57806370a08231146102d257806395d89b41146101ce5780639dc29fac1461015d578063a9059cbb146100e75763dd62ed3e1461009c57600080fd5b346100e357816003193601126100e35760209282916100b9610630565b6100c161064b565b6001600160a01b03918216845291865283832091168252845220549051908152f35b8280fd5b505034610159578060031936011261015957602091610104610630565b82602435913384526003865281842061011e848254610661565b90556001600160a01b0316808452600386529220805482019055825190815233906000805160206106c4833981519152908590a35160018152f35b5080fd5b50503461015957806003193601126101595781610178610630565b6000805160206106c483398151915260206024359260018060a01b03906101a482600554163314610682565b1692838552600382528585206101bb828254610661565b905580600254036002558551908152a351f35b5091903461015957816003193601126101595780519082600180549081811c908083169283156102c8575b60209384841081146102b5578388529081156102995750600114610261575b505050829003601f01601f191682019267ffffffffffffffff84118385101761024e575082918261024a9252826105d9565b0390f35b634e487b7160e01b815260418552602490fd5b809293508652828620918387935b8385106102855750505050830101388080610218565b80548886018301529301928490820161026f565b60ff1916878501525050151560051b8401019050388080610218565b634e487b7160e01b895260228a52602489fd5b91607f16916101f9565b5050346101595760203660031901126101595760209181906001600160a01b036102fa610630565b1681526003845220549051908152f35b50346100e357816003193601126100e357610323610630565b600554602435926001600160a01b0392916103419084163314610682565b6002549084198211610383575085926000805160206106c48339815191529285602093016002551693848452600382528584208181540190558551908152a351f35b634e487b7160e01b875260119052602486fd5b5050346101595781600319360112610159576020905160068152f35b509134610473576060366003190112610473576103cd610630565b6000805160206106c48339815191526103e461064b565b6001600160a01b0392831680855260208781528686203387528152868620549097919488936044359389938560018201610450575b50505086885260038552828820610431858254610661565b9055169586815260038452208181540190558551908152a35160018152f35b61045991610661565b90888a528652838920338a52865283892055388085610419565b80fd5b5050346101595781600319360112610159576020906002549051908152f35b50346100e357816003193601126100e3576020926104b1610630565b918360243592839233825287528181209460018060a01b0316948582528752205582519081527f8c5be1e5ebec7d5bd14f71427d1e84f3dd0314c0f7b2291e5b200ac8c7c3b925843392a35160018152f35b84915083346100e357826003193601126100e357828354600181811c908083169283156105cf575b60209384841081146102b5578388529081156105b3575060011461057b57505050829003601f01601f191682019267ffffffffffffffff84118385101761024e575082918261024a9252826105d9565b919250858052828620918387935b83851061059f5750505050830101858080610218565b805488860183015293019284908201610589565b60ff1916878501525050151560051b8401019050858080610218565b91607f169161052b565b919091602080825283519081818401526000945b82861061061a57505080604093941161060d575b601f01601f1916010190565b6000838284010152610601565b85810182015184870160400152948101946105ed565b600435906001600160a01b038216820361064657565b600080fd5b602435906001600160a01b038216820361064657565b81811061066c570390565b634e487b7160e01b600052601160045260246000fd5b1561068957565b60405162461bcd60e51b815260206004820152601260248201527113db9b1e481c1c9a5bdc9a5d1e481c1bdbdb60721b6044820152606490fdfeddf252ad1be2c89b69c2b068fc378daa952ba7f163c4a11628f55a4df523b3efa264697066735822122063a94a166b8567507b4c8fc9060cc03ed9f9cacf63f6e1e9e52f9d501654a5ee64736f6c634300080f00335bc145acec26384dc09c6269c9e569c69db21ad88cbd81319958b05998b83b5ba264697066735822122057b7ae6a5540a054736b4cbbfc9c63588925ba7d663a2c0963b6cdbc8b506d3a64736f6c634300080f00336080604052346200038a5762000acf803803806200001d816200038f565b928339810160209182818303126200038a5780516001600160401b03918282116200038a570192601f908382860112156200038a5784518381116200027957601f199562000071828501881684016200038f565b958287528383830101116200038a578183916000905b8282106200037057501162000361575b50506040519460408601868110858211176200027957604052600686526505052492d4c560d41b82870152845184811162000279576000546001968782811c9216801562000356575b858310146200025857818684931162000300575b5084908683116001146200029b576000926200028f575b5050600019600383901b1c191690861b176000555b8551938411620002795784548581811c911680156200026e575b8382101462000258578381116200020d575b5081928411600114620001a95750508192936000926200019d575b5050600019600383901b1c191690821b1790555b600580546001600160a01b031916331790556040516107199081620003b68239f35b01519050388062000167565b6000858152828120918516969193925b878210620001f557505083859610620001db575b505050811b0190556200017b565b015160001960f88460031b161c19169055388080620001cd565b808785968294968601518155019501930190620001b9565b85600052826000208480870160051c8201928588106200024e575b0160051c019086905b828110620002415750506200014c565b6000815501869062000231565b9250819262000228565b634e487b7160e01b600052602260045260246000fd5b90607f16906200013a565b634e487b7160e01b600052604160045260246000fd5b0151905038806200010b565b90848994169160008052866000209260005b88828210620002e95750508411620002cf575b505050811b0160005562000120565b015160001960f88460031b161c19169055388080620002c0565b8385015186558c97909501949384019301620002ad565b90915060008052846000208680850160051c8201928786106200034c575b918a91869594930160051c01915b8281106200033c575050620000f4565b600081558594508a91016200032c565b925081926200031e565b91607f1691620000e0565b60009186010152388162000097565b92809250818401015182828a010152018290849262000087565b600080fd5b6040519190601f01601f191682016001600160401b03811183821017620002795760405256fe6080604081815260048036101561001557600080fd5b600092833560e01c90816306fdde031461050357508063095ea7b31461049557806318160ddd1461047657806323b872dd146103b2578063313ce5671461039657806340c10f191461030a57806370a08231146102d257806395d89b41146101ce5780639dc29fac1461015d578063a9059cbb146100e75763dd62ed3e1461009c57600080fd5b346100e357816003193601126100e35760209282916100b9610630565b6100c161064b565b6001600160a01b03918216845291865283832091168252845220549051908152f35b8280fd5b505034610159578060031936011261015957602091610104610630565b82602435913384526003865281842061011e848254610661565b90556001600160a01b0316808452600386529220805482019055825190815233906000805160206106c4833981519152908590a35160018152f35b5080fd5b50503461015957806003193601126101595781610178610630565b6000805160206106c483398151915260206024359260018060a01b03906101a482600554163314610682565b1692838552600382528585206101bb828254610661565b905580600254036002558551908152a351f35b5091903461015957816003193601126101595780519082600180549081811c908083169283156102c8575b60209384841081146102b5578388529081156102995750600114610261575b505050829003601f01601f191682019267ffffffffffffffff84118385101761024e575082918261024a9252826105d9565b0390f35b634e487b7160e01b815260418552602490fd5b809293508652828620918387935b8385106102855750505050830101388080610218565b80548886018301529301928490820161026f565b60ff1916878501525050151560051b8401019050388080610218565b634e487b7160e01b895260228a52602489fd5b91607f16916101f9565b5050346101595760203660031901126101595760209181906001600160a01b036102fa610630565b1681526003845220549051908152f35b50346100e357816003193601126100e357610323610630565b600554602435926001600160a01b0392916103419084163314610682565b6002549084198211610383575085926000805160206106c48339815191529285602093016002551693848452600382528584208181540190558551908152a351f35b634e487b7160e01b875260119052602486fd5b5050346101595781600319360112610159576020905160068152f35b509134610473576060366003190112610473576103cd610630565b6000805160206106c48339815191526103e461064b565b6001600160a01b0392831680855260208781528686203387528152868620549097919488936044359389938560018201610450575b50505086885260038552828820610431858254610661565b9055169586815260038452208181540190558551908152a35160018152f35b61045991610661565b90888a528652838920338a52865283892055388085610419565b80fd5b5050346101595781600319360112610159576020906002549051908152f35b50346100e357816003193601126100e3576020926104b1610630565b918360243592839233825287528181209460018060a01b0316948582528752205582519081527f8c5be1e5ebec7d5bd14f71427d1e84f3dd0314c0f7b2291e5b200ac8c7c3b925843392a35160018152f35b84915083346100e357826003193601126100e357828354600181811c908083169283156105cf575b60209384841081146102b5578388529081156105b3575060011461057b57505050829003601f01601f191682019267ffffffffffffffff84118385101761024e575082918261024a9252826105d9565b919250858052828620918387935b83851061059f5750505050830101858080610218565b805488860183015293019284908201610589565b60ff1916878501525050151560051b8401019050858080610218565b91607f169161052b565b919091602080825283519081818401526000945b82861061061a57505080604093941161060d575b601f01601f1916010190565b6000838284010152610601565b85810182015184870160400152948101946105ed565b600435906001600160a01b038216820361064657565b600080fd5b602435906001600160a01b038216820361064657565b81811061066c570390565b634e487b7160e01b600052601160045260246000fd5b1561068957565b60405162461bcd60e51b815260206004820152601260248201527113db9b1e481c1c9a5bdc9a5d1e481c1bdbdb60721b6044820152606490fdfeddf252ad1be2c89b69c2b068fc378daa952ba7f163c4a11628f55a4df523b3efa264697066735822122063a94a166b8567507b4c8fc9060cc03ed9f9cacf63f6e1e9e52f9d501654a5ee64736f6c634300080f0033036b6384b5eca791c62761152d0c79bb0604c104a5fb6f4eb0703f3154bb3db0a2646970667358221220940fc8480a1b39e08432666fa2dc74be834342a0d38f4b2cc36aaa5475b3b51064736f6c634300080f0033",
  "devdoc": {
    "author": "Eric Lee (ylikp.ust@gmail.com)",
    "kind": "dev",
    "methods": {
      "deployPool(string,address,uint256,uint256)": {
        "params": {
          "_basePremiumRatio": "Initial policy price per shield",
          "_maxCapacity": "Maximum capacity of the pool",
          "_name": "Name of the protocol",
          "_protocolToken": "Address of the token used for the protocol"
        },
        "returns": {
          "_0": "address Address of the new insurance pool"
        }
      },
      "getPoolAddressList()": {
        "returns": {
          "_0": "List of pool addresses"
        }
      },
      "getPoolInfo(uint256)": {
        "params": {
          "_poolId": "Pool id"
        }
      },
      "owner()": {
        "details": "Returns the address of the current owner."
      },
      "renounceOwnership()": {
        "details": "Leaves the contract without owner. It will not be possible to call `onlyOwner` functions anymore. Can only be called by the current owner. NOTE: Renouncing ownership will leave the contract without an owner, thereby removing any functionality that is only available to the owner."
      },
      "transferOwnership(address)": {
        "details": "Transfers ownership of the contract to a new account (`newOwner`). Can only be called by the current owner."
      },
      "updateDynamicPool(uint256)": {
        "params": {
          "_poolId": "Pool id"
        }
      }
    },
    "title": "Insurance Pool Factory",
    "version": 1
  },
  "userdoc": {
    "kind": "user",
    "methods": {
      "deployPool(string,address,uint256,uint256)": {
        "notice": "Create a new priority pool         Called by executor when an onboard proposal has passed"
      },
      "getPoolAddressList()": {
        "notice": "Get the pool address list"
      },
      "getPoolInfo(uint256)": {
        "notice": "Get the pool information by pool id"
      },
      "updateDynamicPool(uint256)": {
        "notice": "Update a priority pool status to dynamic         Only sent from priority pool         \"Dynamic\" means:                  The priority pool will be counted in the dynamic premium formula"
      }
    },
    "notice": "This is the factory contract for deploying new insurance pools         Each pool represents a project that has joined Degis Protocol Protection         Liquidity providers of Protection Pool can stake their LP tokens into priority pools         Benefit:             - Share the 45% part of the premium income (in native token form)         Risk:             - Will be liquidated first to pay for the claim amount",
    "version": 1
  },
  "storageLayout": {
    "storage": [
      {
        "astId": 21739,
        "contract": "src/pools/priorityPool/PriorityPoolFactory.sol:PriorityPoolFactory",
        "label": "_owner",
        "offset": 0,
        "slot": "0",
        "type": "t_address"
      },
      {
        "astId": 18919,
        "contract": "src/pools/priorityPool/PriorityPoolFactory.sol:PriorityPoolFactory",
        "label": "executor",
        "offset": 0,
        "slot": "1",
        "type": "t_address"
      },
      {
        "astId": 18921,
        "contract": "src/pools/priorityPool/PriorityPoolFactory.sol:PriorityPoolFactory",
        "label": "policyCenter",
        "offset": 0,
        "slot": "2",
        "type": "t_address"
      },
      {
        "astId": 18923,
        "contract": "src/pools/priorityPool/PriorityPoolFactory.sol:PriorityPoolFactory",
        "label": "protectionPool",
        "offset": 0,
        "slot": "3",
        "type": "t_address"
      },
      {
        "astId": 18925,
        "contract": "src/pools/priorityPool/PriorityPoolFactory.sol:PriorityPoolFactory",
        "label": "incidentReport",
        "offset": 0,
        "slot": "4",
        "type": "t_address"
      },
      {
        "astId": 18927,
        "contract": "src/pools/priorityPool/PriorityPoolFactory.sol:PriorityPoolFactory",
        "label": "weightedFarmingPool",
        "offset": 0,
        "slot": "5",
        "type": "t_address"
      },
      {
        "astId": 18929,
        "contract": "src/pools/priorityPool/PriorityPoolFactory.sol:PriorityPoolFactory",
        "label": "payoutPool",
        "offset": 0,
        "slot": "6",
        "type": "t_address"
      },
      {
        "astId": 18413,
        "contract": "src/pools/priorityPool/PriorityPoolFactory.sol:PriorityPoolFactory",
        "label": "pools",
        "offset": 0,
        "slot": "7",
        "type": "t_mapping(t_uint256,t_struct(PoolInfo)18408_storage)"
      },
      {
        "astId": 18417,
        "contract": "src/pools/priorityPool/PriorityPoolFactory.sol:PriorityPoolFactory",
        "label": "poolAddressToId",
        "offset": 0,
        "slot": "8",
        "type": "t_mapping(t_address,t_uint256)"
      },
      {
        "astId": 18419,
        "contract": "src/pools/priorityPool/PriorityPoolFactory.sol:PriorityPoolFactory",
        "label": "poolCounter",
        "offset": 0,
        "slot": "9",
        "type": "t_uint256"
      },
      {
        "astId": 18421,
        "contract": "src/pools/priorityPool/PriorityPoolFactory.sol:PriorityPoolFactory",
        "label": "totalMaxCapacity",
        "offset": 0,
        "slot": "10",
        "type": "t_uint256"
      },
      {
        "astId": 18425,
        "contract": "src/pools/priorityPool/PriorityPoolFactory.sol:PriorityPoolFactory",
        "label": "dynamic",
        "offset": 0,
        "slot": "11",
        "type": "t_mapping(t_address,t_bool)"
      },
      {
        "astId": 18427,
        "contract": "src/pools/priorityPool/PriorityPoolFactory.sol:PriorityPoolFactory",
        "label": "dynamicPoolCounter",
        "offset": 0,
        "slot": "12",
        "type": "t_uint256"
      },
      {
        "astId": 18431,
        "contract": "src/pools/priorityPool/PriorityPoolFactory.sol:PriorityPoolFactory",
        "label": "poolRegistered",
        "offset": 0,
        "slot": "13",
        "type": "t_mapping(t_address,t_bool)"
      },
      {
        "astId": 18435,
        "contract": "src/pools/priorityPool/PriorityPoolFactory.sol:PriorityPoolFactory",
        "label": "tokenRegistered",
        "offset": 0,
        "slot": "14",
        "type": "t_mapping(t_address,t_bool)"
      }
    ],
    "types": {
      "t_address": {
        "encoding": "inplace",
        "label": "address",
        "numberOfBytes": "20"
      },
      "t_bool": {
        "encoding": "inplace",
        "label": "bool",
        "numberOfBytes": "1"
      },
      "t_mapping(t_address,t_bool)": {
        "encoding": "mapping",
        "key": "t_address",
        "label": "mapping(address => bool)",
        "numberOfBytes": "32",
        "value": "t_bool"
      },
      "t_mapping(t_address,t_uint256)": {
        "encoding": "mapping",
        "key": "t_address",
        "label": "mapping(address => uint256)",
        "numberOfBytes": "32",
        "value": "t_uint256"
      },
      "t_mapping(t_uint256,t_struct(PoolInfo)18408_storage)": {
        "encoding": "mapping",
        "key": "t_uint256",
        "label": "mapping(uint256 => struct PriorityPoolFactory.PoolInfo)",
        "numberOfBytes": "32",
        "value": "t_struct(PoolInfo)18408_storage"
      },
      "t_string_storage": {
        "encoding": "bytes",
        "label": "string",
        "numberOfBytes": "32"
      },
      "t_struct(PoolInfo)18408_storage": {
        "encoding": "inplace",
        "label": "struct PriorityPoolFactory.PoolInfo",
        "members": [
          {
            "astId": 18399,
            "contract": "src/pools/priorityPool/PriorityPoolFactory.sol:PriorityPoolFactory",
            "label": "protocolName",
            "offset": 0,
            "slot": "0",
            "type": "t_string_storage"
          },
          {
            "astId": 18401,
            "contract": "src/pools/priorityPool/PriorityPoolFactory.sol:PriorityPoolFactory",
            "label": "poolAddress",
            "offset": 0,
            "slot": "1",
            "type": "t_address"
          },
          {
            "astId": 18403,
            "contract": "src/pools/priorityPool/PriorityPoolFactory.sol:PriorityPoolFactory",
            "label": "protocolToken",
            "offset": 0,
            "slot": "2",
            "type": "t_address"
          },
          {
            "astId": 18405,
            "contract": "src/pools/priorityPool/PriorityPoolFactory.sol:PriorityPoolFactory",
            "label": "maxCapacity",
            "offset": 0,
            "slot": "3",
            "type": "t_uint256"
          },
          {
            "astId": 18407,
            "contract": "src/pools/priorityPool/PriorityPoolFactory.sol:PriorityPoolFactory",
            "label": "basePremiumRatio",
            "offset": 0,
            "slot": "4",
            "type": "t_uint256"
          }
        ],
        "numberOfBytes": "160"
      },
      "t_uint256": {
        "encoding": "inplace",
        "label": "uint256",
        "numberOfBytes": "32"
      }
    }
  }
}