{
  "address": "0xA0e55f2bafB6a9FF4c8767328D0Ac4B394752442",
  "abi": [
    {
      "inputs": [
        {
          "internalType": "address",
          "name": "_shield",
          "type": "address"
        },
        {
          "internalType": "address",
          "name": "_executor",
          "type": "address"
        },
        {
          "internalType": "address",
          "name": "_policyCenter",
          "type": "address"
        }
      ],
      "stateMutability": "nonpayable",
      "type": "constructor"
    },
    {
      "anonymous": false,
      "inputs": [
        {
          "indexed": false,
          "internalType": "uint256",
          "name": "amount",
          "type": "uint256"
        }
      ],
      "name": "ClaimedByOwner",
      "type": "event"
    },
    {
      "anonymous": false,
      "inputs": [
        {
          "indexed": true,
          "internalType": "uint256",
          "name": "poolId",
          "type": "uint256"
        },
        {
          "indexed": false,
          "internalType": "uint256",
          "name": "amount",
          "type": "uint256"
        }
      ],
      "name": "NewIncomeToTreasury",
      "type": "event"
    },
    {
      "anonymous": false,
      "inputs": [
        {
          "indexed": true,
          "internalType": "address",
          "name": "reporter",
          "type": "address"
        },
        {
          "indexed": false,
          "internalType": "uint256",
          "name": "amount",
          "type": "uint256"
        }
      ],
      "name": "ReporterRewarded",
      "type": "event"
    },
    {
      "inputs": [],
      "name": "REPORTER_REWARD",
      "outputs": [
        {
          "internalType": "uint256",
          "name": "",
          "type": "uint256"
        }
      ],
      "stateMutability": "view",
      "type": "function"
    },
    {
      "inputs": [
        {
          "internalType": "uint256",
          "name": "_amount",
          "type": "uint256"
        }
      ],
      "name": "claim",
      "outputs": [],
      "stateMutability": "nonpayable",
      "type": "function"
    },
    {
      "inputs": [],
      "name": "executor",
      "outputs": [
        {
          "internalType": "address",
          "name": "",
          "type": "address"
        }
      ],
      "stateMutability": "view",
      "type": "function"
    },
    {
      "inputs": [],
      "name": "owner",
      "outputs": [
        {
          "internalType": "address",
          "name": "",
          "type": "address"
        }
      ],
      "stateMutability": "view",
      "type": "function"
    },
    {
      "inputs": [],
      "name": "policyCenter",
      "outputs": [
        {
          "internalType": "address",
          "name": "",
          "type": "address"
        }
      ],
      "stateMutability": "view",
      "type": "function"
    },
    {
      "inputs": [
        {
          "internalType": "uint256",
          "name": "",
          "type": "uint256"
        }
      ],
      "name": "poolIncome",
      "outputs": [
        {
          "internalType": "uint256",
          "name": "",
          "type": "uint256"
        }
      ],
      "stateMutability": "view",
      "type": "function"
    },
    {
      "inputs": [
        {
          "internalType": "uint256",
          "name": "_poolId",
          "type": "uint256"
        },
        {
          "internalType": "uint256",
          "name": "_amount",
          "type": "uint256"
        }
      ],
      "name": "premiumIncome",
      "outputs": [],
      "stateMutability": "nonpayable",
      "type": "function"
    },
    {
      "inputs": [
        {
          "internalType": "uint256",
          "name": "_poolId",
          "type": "uint256"
        },
        {
          "internalType": "address",
          "name": "_reporter",
          "type": "address"
        }
      ],
      "name": "rewardReporter",
      "outputs": [],
      "stateMutability": "nonpayable",
      "type": "function"
    },
    {
      "inputs": [],
      "name": "shield",
      "outputs": [
        {
          "internalType": "address",
          "name": "",
          "type": "address"
        }
      ],
      "stateMutability": "view",
      "type": "function"
    }
  ],
  "transactionHash": "0x58841e9576bb4608279160263c305fc9483cdc03509f712aa7b2a6ae14ca8d76",
  "args": [
    "0xF4e5d6516899aE2d38af527D711be539e3ACF588",
    "0xcC18BE6995613623198691945dC1d2f211fA8BB8",
    "0x0D1d726142BaA3b18b692b263072026Ce5F6ea27"
  ],
  "numDeployments": 9,
  "solcInputHash": "23a421d40a1af53a58a9d36919d18925",
  "bytecode": "0x6080346100a957601f61060438819003918201601f19168301916001600160401b038311848410176100ae578084926060946040528339810103126100a957610047816100c4565b61005f6040610058602085016100c4565b93016100c4565b60018060a01b0380928160018060a01b0319951685600154161760015516836003541617600355168160025416176002553390600054161760005560405161052b90816100d98239f35b600080fd5b634e487b7160e01b600052604160045260246000fd5b51906001600160a01b03821682036100a95756fe608060408181526004918236101561001657600080fd5b600092833560e01c9182630627c88b1461033f57508163379607f5146102335781635b97d3671461017457816370d39cff1461014b5781638da5cb5b14610123578163c34c08e5146100fa578163d5647cc7146100cf57508063e8adbf2f146100a75763fd1238061461008857600080fd5b346100a357816003193601126100a357602090516103e88152f35b5080fd5b50346100a357816003193601126100a35760025490516001600160a01b039091168152602090f35b9050346100f65760203660031901126100f657602092818392358252845220549051908152f35b8280fd5b5050346100a357816003193601126100a35760015490516001600160a01b039091168152602090f35b5050346100a357816003193601126100a357905490516001600160a01b039091168152602090f35b5050346100a357816003193601126100a35760035490516001600160a01b039091168152602090f35b9050346100f657816003193601126100f657600254813591602435916001600160a01b031633036101fb578285528060205283852090815490831982116101e857508201905582519081527fbcdf08e43ded44076dd939f7e98f8bc0059c0b6e8bbc9a1c83a62432c43a739190602090a251f35b634e487b7160e01b875260119052602486fd5b606490602085519162461bcd60e51b8352820152601260248201527127b7363c903837b634b1bc9031b2b73a32b960711b6044820152fd5b8383346100a3576020806003193601126100f65782548435906001600160a01b03908116903382900361030f57600354855163a9059cbb60e01b81526001600160a01b039093169783019788526020880184905295969495919484928692169082908990829060400103925af1928315610305577f150afe1a4f039206f87a38d65a16f6a7c76f285e29a4b2b5eab4e8a917b40ca1936102d8575b508351908152a151f35b6102f790833d85116102fe575b6102ef81836104a0565b8101906104d8565b50856102ce565b503d6102e5565b84513d87823e3d90fd5b845162461bcd60e51b8152808801859052600a60248201526927b7363c9037bbb732b960b11b6044820152606490fd5b838591346100f657816003193601126100f6576001600160a01b03602435818116928635919084820361049c578360015416330361046b5750818652602092878452858720546103e890806000190482118115151661045857906127109102049287528784528587208054848110610458578490039055600354865163a9059cbb60e01b81526001600160a01b039390931698830198895260208901849052969795969495919484928692908390036040019183918b91165af192831561044e577fc8ae12e13c66cfdc817755aaebcef528a42f8e59ac8ece9bc1e61625f752094d93610431575b508451908152a251f35b61044790833d85116102fe576102ef81836104a0565b5086610427565b85513d88823e3d90fd5b634e487b7160e01b895260118a52602489fd5b62461bcd60e51b8152602088820152600d60248201526c27b7363c9032bc32b1baba37b960991b6044820152606490fd5b8680fd5b90601f8019910116810190811067ffffffffffffffff8211176104c257604052565b634e487b7160e01b600052604160045260246000fd5b908160209103126104f0575180151581036104f05790565b600080fdfea26469706673582212208183b60a0a41f4e1a10314cc23d92afd1159361920ec6182aae9c3872486728964736f6c634300080f0033",
  "devdoc": {
    "kind": "dev",
    "methods": {
      "claim(uint256)": {
        "params": {
          "_amount": "Amount to claim"
        }
      },
      "premiumIncome(uint256,uint256)": {
        "params": {
          "_amount": "Premium amount (shield)",
          "_poolId": "Pool id"
        }
      },
      "rewardReporter(uint256,address)": {
        "params": {
          "_poolId": "Pool id",
          "_reporter": "Reporter address"
        }
      }
    },
    "version": 1
  },
  "userdoc": {
    "kind": "user",
    "methods": {
      "claim(uint256)": {
        "notice": "Claim shield by the owner"
      },
      "premiumIncome(uint256,uint256)": {
        "notice": "Record when receiving new premium income         Only called from policy center"
      },
      "rewardReporter(uint256,address)": {
        "notice": "Reward the correct reporter         Part of the priority pool income will be given to the reporter         Only called from executor when executing a report"
      }
    },
    "notice": "Treasury Contract         Treasury will receive 5% of the premium income from policyCenter.         They are counted as different pools.         When a reporter gives a correct report (passed voting and executed),         he will get 10% of the income of that project pool.",
    "version": 1
  },
  "storageLayout": {
    "storage": [
      {
        "astId": 16856,
        "contract": "src/pools/Treasury.sol:Treasury",
        "label": "owner",
        "offset": 0,
        "slot": "0",
        "type": "t_address"
      },
      {
        "astId": 16858,
        "contract": "src/pools/Treasury.sol:Treasury",
        "label": "executor",
        "offset": 0,
        "slot": "1",
        "type": "t_address"
      },
      {
        "astId": 16860,
        "contract": "src/pools/Treasury.sol:Treasury",
        "label": "policyCenter",
        "offset": 0,
        "slot": "2",
        "type": "t_address"
      },
      {
        "astId": 16862,
        "contract": "src/pools/Treasury.sol:Treasury",
        "label": "shield",
        "offset": 0,
        "slot": "3",
        "type": "t_address"
      },
      {
        "astId": 16866,
        "contract": "src/pools/Treasury.sol:Treasury",
        "label": "poolIncome",
        "offset": 0,
        "slot": "4",
        "type": "t_mapping(t_uint256,t_uint256)"
      }
    ],
    "types": {
      "t_address": {
        "encoding": "inplace",
        "label": "address",
        "numberOfBytes": "20"
      },
      "t_mapping(t_uint256,t_uint256)": {
        "encoding": "mapping",
        "key": "t_uint256",
        "label": "mapping(uint256 => uint256)",
        "numberOfBytes": "32",
        "value": "t_uint256"
      },
      "t_uint256": {
        "encoding": "inplace",
        "label": "uint256",
        "numberOfBytes": "32"
      }
    }
  }
}