{
  "address": "0x82da431B7279524E3632d7E997e96059A05935af",
  "abi": [
    {
      "inputs": [
        {
          "internalType": "address",
          "name": "_policyCenter",
          "type": "address"
        },
        {
          "internalType": "address",
          "name": "_priorityPoolFactory",
          "type": "address"
        }
      ],
      "stateMutability": "nonpayable",
      "type": "constructor"
    },
    {
      "inputs": [],
      "name": "WeightedFarmingPool__AlreadySupported",
      "type": "error"
    },
    {
      "inputs": [],
      "name": "WeightedFarmingPool__InexistentPool",
      "type": "error"
    },
    {
      "inputs": [],
      "name": "WeightedFarmingPool__NoPendingRewards",
      "type": "error"
    },
    {
      "inputs": [],
      "name": "WeightedFarmingPool__NotInPool",
      "type": "error"
    },
    {
      "inputs": [],
      "name": "WeightedFarmingPool__OnlyPolicyCenter",
      "type": "error"
    },
    {
      "inputs": [],
      "name": "WeightedFarmingPool__WrongDateLength",
      "type": "error"
    },
    {
      "inputs": [],
      "name": "WeightedFarmingPool__WrongWeightLength",
      "type": "error"
    },
    {
      "inputs": [],
      "name": "WeightedFarmingPool__ZeroAmount",
      "type": "error"
    },
    {
      "anonymous": false,
      "inputs": [
        {
          "indexed": false,
          "internalType": "uint256",
          "name": "poolId",
          "type": "uint256"
        },
        {
          "indexed": false,
          "internalType": "address",
          "name": "user",
          "type": "address"
        },
        {
          "indexed": false,
          "internalType": "address",
          "name": "receiver",
          "type": "address"
        },
        {
          "indexed": false,
          "internalType": "uint256",
          "name": "reward",
          "type": "uint256"
        }
      ],
      "name": "Harvest",
      "type": "event"
    },
    {
      "anonymous": false,
      "inputs": [
        {
          "indexed": false,
          "internalType": "uint256",
          "name": "poolId",
          "type": "uint256"
        },
        {
          "indexed": false,
          "internalType": "address",
          "name": "token",
          "type": "address"
        },
        {
          "indexed": false,
          "internalType": "uint256",
          "name": "weight",
          "type": "uint256"
        }
      ],
      "name": "NewTokenAdded",
      "type": "event"
    },
    {
      "anonymous": false,
      "inputs": [
        {
          "indexed": false,
          "internalType": "uint256",
          "name": "poolId",
          "type": "uint256"
        },
        {
          "indexed": false,
          "internalType": "address",
          "name": "token",
          "type": "address"
        }
      ],
      "name": "PoolAdded",
      "type": "event"
    },
    {
      "anonymous": false,
      "inputs": [
        {
          "indexed": false,
          "internalType": "uint256",
          "name": "poolId",
          "type": "uint256"
        },
        {
          "indexed": false,
          "internalType": "uint256",
          "name": "accRewardPerShare",
          "type": "uint256"
        }
      ],
      "name": "PoolUpdated",
      "type": "event"
    },
    {
      "anonymous": false,
      "inputs": [
        {
          "indexed": false,
          "internalType": "uint256",
          "name": "poolId",
          "type": "uint256"
        }
      ],
      "name": "WeightChanged",
      "type": "event"
    },
    {
      "inputs": [],
      "name": "SCALE",
      "outputs": [
        {
          "internalType": "uint256",
          "name": "",
          "type": "uint256"
        }
      ],
      "stateMutability": "view",
      "type": "function"
    },
    {
      "inputs": [
        {
          "internalType": "address",
          "name": "_rewardToken",
          "type": "address"
        }
      ],
      "name": "addPool",
      "outputs": [],
      "stateMutability": "nonpayable",
      "type": "function"
    },
    {
      "inputs": [
        {
          "internalType": "uint256",
          "name": "_id",
          "type": "uint256"
        },
        {
          "internalType": "address",
          "name": "_token",
          "type": "address"
        },
        {
          "internalType": "uint256",
          "name": "_weight",
          "type": "uint256"
        }
      ],
      "name": "addToken",
      "outputs": [],
      "stateMutability": "nonpayable",
      "type": "function"
    },
    {
      "inputs": [],
      "name": "counter",
      "outputs": [
        {
          "internalType": "uint256",
          "name": "",
          "type": "uint256"
        }
      ],
      "stateMutability": "view",
      "type": "function"
    },
    {
      "inputs": [
        {
          "internalType": "uint256",
          "name": "_id",
          "type": "uint256"
        },
        {
          "internalType": "address",
          "name": "_token",
          "type": "address"
        },
        {
          "internalType": "uint256",
          "name": "_amount",
          "type": "uint256"
        },
        {
          "internalType": "address",
          "name": "_user",
          "type": "address"
        }
      ],
      "name": "deposit",
      "outputs": [],
      "stateMutability": "nonpayable",
      "type": "function"
    },
    {
      "inputs": [
        {
          "internalType": "uint256",
          "name": "_id",
          "type": "uint256"
        },
        {
          "internalType": "address",
          "name": "_token",
          "type": "address"
        },
        {
          "internalType": "uint256",
          "name": "_amount",
          "type": "uint256"
        },
        {
          "internalType": "address",
          "name": "_user",
          "type": "address"
        }
      ],
      "name": "depositFromPolicyCenter",
      "outputs": [],
      "stateMutability": "nonpayable",
      "type": "function"
    },
    {
      "inputs": [
        {
          "internalType": "uint256",
          "name": "_poolId",
          "type": "uint256"
        }
      ],
      "name": "getPoolArrays",
      "outputs": [
        {
          "internalType": "address[]",
          "name": "",
          "type": "address[]"
        },
        {
          "internalType": "uint256[]",
          "name": "",
          "type": "uint256[]"
        },
        {
          "internalType": "uint256[]",
          "name": "",
          "type": "uint256[]"
        }
      ],
      "stateMutability": "view",
      "type": "function"
    },
    {
      "inputs": [
        {
          "internalType": "uint256",
          "name": "_poolId",
          "type": "uint256"
        },
        {
          "internalType": "address",
          "name": "_user",
          "type": "address"
        }
      ],
      "name": "getUserLPAmount",
      "outputs": [
        {
          "internalType": "uint256[]",
          "name": "",
          "type": "uint256[]"
        }
      ],
      "stateMutability": "view",
      "type": "function"
    },
    {
      "inputs": [
        {
          "internalType": "uint256",
          "name": "_id",
          "type": "uint256"
        },
        {
          "internalType": "address",
          "name": "_to",
          "type": "address"
        }
      ],
      "name": "harvest",
      "outputs": [],
      "stateMutability": "nonpayable",
      "type": "function"
    },
    {
      "inputs": [
        {
          "internalType": "uint256",
          "name": "_id",
          "type": "uint256"
        },
        {
          "internalType": "address",
          "name": "_user",
          "type": "address"
        }
      ],
      "name": "pendingReward",
      "outputs": [
        {
          "internalType": "uint256",
          "name": "pending",
          "type": "uint256"
        }
      ],
      "stateMutability": "view",
      "type": "function"
    },
    {
      "inputs": [],
      "name": "policyCenter",
      "outputs": [
        {
          "internalType": "address",
          "name": "",
          "type": "address"
        }
      ],
      "stateMutability": "view",
      "type": "function"
    },
    {
      "inputs": [
        {
          "internalType": "uint256",
          "name": "",
          "type": "uint256"
        }
      ],
      "name": "pools",
      "outputs": [
        {
          "internalType": "uint256",
          "name": "shares",
          "type": "uint256"
        },
        {
          "internalType": "address",
          "name": "rewardToken",
          "type": "address"
        },
        {
          "internalType": "uint256",
          "name": "lastRewardTimestamp",
          "type": "uint256"
        },
        {
          "internalType": "uint256",
          "name": "accRewardPerShare",
          "type": "uint256"
        }
      ],
      "stateMutability": "view",
      "type": "function"
    },
    {
      "inputs": [],
      "name": "priorityPoolFactory",
      "outputs": [
        {
          "internalType": "address",
          "name": "",
          "type": "address"
        }
      ],
      "stateMutability": "view",
      "type": "function"
    },
    {
      "inputs": [
        {
          "internalType": "address",
          "name": "_policyCenter",
          "type": "address"
        }
      ],
      "name": "setPolicyCenter",
      "outputs": [],
      "stateMutability": "nonpayable",
      "type": "function"
    },
    {
      "inputs": [
        {
          "internalType": "address",
          "name": "_priorityPoolFactory",
          "type": "address"
        }
      ],
      "name": "setPriorityPoolFactory",
      "outputs": [],
      "stateMutability": "nonpayable",
      "type": "function"
    },
    {
      "inputs": [
        {
          "internalType": "uint256",
          "name": "_id",
          "type": "uint256"
        },
        {
          "internalType": "uint256[]",
          "name": "_weights",
          "type": "uint256[]"
        }
      ],
      "name": "setWeight",
      "outputs": [],
      "stateMutability": "nonpayable",
      "type": "function"
    },
    {
      "inputs": [
        {
          "internalType": "bytes32",
          "name": "",
          "type": "bytes32"
        }
      ],
      "name": "supported",
      "outputs": [
        {
          "internalType": "bool",
          "name": "",
          "type": "bool"
        }
      ],
      "stateMutability": "view",
      "type": "function"
    },
    {
      "inputs": [
        {
          "internalType": "uint256",
          "name": "_id",
          "type": "uint256"
        }
      ],
      "name": "updatePool",
      "outputs": [],
      "stateMutability": "nonpayable",
      "type": "function"
    },
    {
      "inputs": [
        {
          "internalType": "uint256",
          "name": "_id",
          "type": "uint256"
        },
        {
          "internalType": "uint256",
          "name": "_newSpeed",
          "type": "uint256"
        },
        {
          "internalType": "uint256[]",
          "name": "_years",
          "type": "uint256[]"
        },
        {
          "internalType": "uint256[]",
          "name": "_months",
          "type": "uint256[]"
        }
      ],
      "name": "updateRewardSpeed",
      "outputs": [],
      "stateMutability": "nonpayable",
      "type": "function"
    },
    {
      "inputs": [
        {
          "internalType": "uint256",
          "name": "_id",
          "type": "uint256"
        },
        {
          "internalType": "address",
          "name": "_token",
          "type": "address"
        },
        {
          "internalType": "uint256",
          "name": "_newWeight",
          "type": "uint256"
        }
      ],
      "name": "updateWeight",
      "outputs": [],
      "stateMutability": "nonpayable",
      "type": "function"
    },
    {
      "inputs": [
        {
          "internalType": "uint256",
          "name": "",
          "type": "uint256"
        },
        {
          "internalType": "address",
          "name": "",
          "type": "address"
        }
      ],
      "name": "users",
      "outputs": [
        {
          "internalType": "uint256",
          "name": "share",
          "type": "uint256"
        },
        {
          "internalType": "uint256",
          "name": "rewardDebt",
          "type": "uint256"
        }
      ],
      "stateMutability": "view",
      "type": "function"
    },
    {
      "inputs": [
        {
          "internalType": "uint256",
          "name": "_id",
          "type": "uint256"
        },
        {
          "internalType": "address",
          "name": "_token",
          "type": "address"
        },
        {
          "internalType": "uint256",
          "name": "_amount",
          "type": "uint256"
        }
      ],
      "name": "withdraw",
      "outputs": [],
      "stateMutability": "nonpayable",
      "type": "function"
    },
    {
      "inputs": [
        {
          "internalType": "uint256",
          "name": "_id",
          "type": "uint256"
        },
        {
          "internalType": "address",
          "name": "_token",
          "type": "address"
        },
        {
          "internalType": "uint256",
          "name": "_amount",
          "type": "uint256"
        },
        {
          "internalType": "address",
          "name": "_user",
          "type": "address"
        }
      ],
      "name": "withdrawFromPolicyCenter",
      "outputs": [],
      "stateMutability": "nonpayable",
      "type": "function"
    }
  ],
  "transactionHash": "0x6ab89650e149d02bd3403b8d4e1f4fb8eff240c7d924628894fd7b5ac9074ed0",
  "args": [
    "0x77921b0ace205b30C97B63542a2CE50C03BA771b",
    "0xfe6590039dA26b82C016c745cFcd80Ebf8360Efd"
  ],
  "numDeployments": 4,
  "solcInputHash": "014ec466cdfeca04e202ae583a8afb99",
  "bytecode": "0x6080346200009657601f6200219c38819003918201601f19168301916001600160401b038311848410176200009b57808492604094855283398101031262000096576200005a60206200005283620000b1565b9201620000b1565b600080546001600160a01b039384166001600160a01b031991821617909155600180549290931691161790556040516120d59081620000c78239f35b600080fd5b634e487b7160e01b600052604160045260246000fd5b51906001600160a01b0382168203620000965756fe6040608081526004908136101561001557600080fd5b600091823560e01c806318fccc7614610acf5780632dd57bb014610a98578063341922c1146109d85780633593aa921461093057806351eb05a6146109145780635a1635e4146108e057806361bc221a146108c15780636f8a6e43146108985780637193f2f01461086c57806398969e8214610730578063a4b5909414610645578063ac4afa38146105f2578063ad35e1dc146105bb578063b425f92614610577578063b9d02df41461052a578063c65323f1146104d2578063cd88af6e1461044d578063d914cd4b146103af578063e63697c814610391578063e8adbf2f14610369578063eced552614610345578063fee0833e146102ea5763ffb7cf621461011e57600080fd5b346102e65761012c36610d02565b919260018060a01b0380600154169186518093633a31bb7760e11b8252338383015281602460209687935afa9081156102dc5789916102af575b501561027757865183810190878252838616956bffffffffffffffffffffffff199060601b16898201526034815261019d81610bde565b5190208089526006845260ff888a20541661026857885260068352868820805460ff1916600117905585885260038352868820805491600160401b83101561025557509184610219837fd7856221235dd5b0aca9663e69d6d13572bcc04b1bb87358b1ef62a23cc09e6a999795600160609a9896018155610e39565b909283549160031b90811b9283911b1691191617905583885260038152610245836002898b2001610e67565b865193845283015284820152a151f35b634e487b7160e01b8a5260419052602489fd5b50865163bf1f752f60e01b8152fd5b865162461bcd60e51b8152908101839052601260248201527113db9b1e48141c9a5bdc9a5d1e48141bdbdb60721b6044820152606490fd5b6102cf9150843d86116102d5575b6102c78183610c0f565b810190610e21565b38610166565b503d6102bd565b88513d8b823e3d90fd5b8280fd5b50346102e657816003193601126102e657816103419361032e9261030c610bad565b90358252600560209081528383206001600160a01b0390921683525220610d2c565b9051918291602083526020830190610c96565b0390f35b5050346103655781600319360112610365576020905164e8d4a510008152f35b5080fd5b505034610365578160031936011261036557905490516001600160a01b039091168152602090f35b505034610365576103ac6103a436610d02565b903392611082565b51f35b50346102e65760203660031901126102e6576103c9610bc8565b600254600019811461043a5760010160028190558085526003602090815284862090930180546001600160a01b0319166001600160a01b0390931692831790558351908152918201527f1f1f6396247a5ba59b7b1e094ec3a8e439d4dace0c5ac4fe3ecfde3e68e03a8a908290a151f35b634e487b7160e01b855260118352602485fd5b50346102e657602061047191606461046436610cca565b9082819694989398610ed2565b86865195869485936323b872dd60e01b85523390850152306024850152604484015260018060a01b03165af180156104c6576104ab575051f35b6104c29060203d81116102d5576102c78183610c0f565b5051f35b505051903d90823e3d90fd5b505034610365576103ac6104fc61050f6104eb36610d02565b93906104f683611224565b82611f95565b9086526003602052600285872001610e39565b90919082549060031b600019811b9283911b16911916179055565b50346102e657816003193601126102e657918192610546610bad565b9035825260056020528282209060018060a01b03168252602052206002600182015491015482519182526020820152f35b509190346103655761058836610cca565b85549093919291906001600160a01b031633036105ab576103ac94959650610ed2565b8451636f2b51a560e11b81528790fd5b505034610365576020366003190112610365576001600160a01b036105de610bc8565b1660018060a01b0319600154161760015551f35b5090346102e65760203660031901126102e657806080938335815260036020522060038101549260018060a01b039082015416916006600583015492015492815194855260208501528301526060820152f35b50346102e657816003193601126102e6578035906001600160401b03906024803583811161072c573660238201121561072c578083013593841161072c57600592368386861b84010111610728578588526003602052600287892001908154860361071a5750875b8581106106e35788887f61378e0f43f3c62e317cdbe9d6bf50295ceba5fb596196f5c109302ee750b4a760208a8351908152a151f35b806107146106f360019385610e39565b87848a1b880101359082549060031b600019811b9283911b16911916179055565b016106ad565b87516312fee3c960e31b8152fd5b8780fd5b8680fd5b50346102e657816003193601126102e65780359261074c610bad565b848252602094600386528483209185519260e08401926001600160401b03938581108582111761085957885261078182610d7d565b855261078f60018301610d2c565b8986015261079f60028301610d2c565b888601526003820154606086015260c0600660018060a01b0393848a820154166080890152600581015460a0890152015495019485528552600588528685209116845286528483209285519460608601928684109084111761084657505061083f939264e8d4a510009261083692875261081882610d2c565b8552866002600184015493848b890152015495019485525190610e03565b04905190610e16565b9051908152f35b634e487b7160e01b825260419052602490fd5b634e487b7160e01b875260418852602487fd5b50346102e65760203660031901126102e6578160209360ff923581526006855220541690519015158152f35b50503461036557816003193601126103655760015490516001600160a01b039091168152602090f35b5050346103655781600319360112610365576020906002549051908152f35b50919034610365576108f136610cca565b85549093919291906001600160a01b031633036105ab576103ac94959650611082565b50346102e65760203660031901126102e6576103ac9035611224565b5091903461036557602092836003193601126102e65735825260038352808220929161095b84610d7d565b600193610975600261096e878901610d2c565b9701610d2c565b928451956060870160608852845180915283608089019501925b8181106109bc575087850384890152878061034189896109af8a8f610c96565b9184830390850152610c96565b83516001600160a01b031686529484019492840192820161098f565b50346102e65760803660031901126102e657803590602435906001600160401b039060443582811161072c57610a119036908301610c30565b9160643590811161072c57610a299036908301610c30565b918051835103610a8957805194875b868110610a4457888851f35b600190828a526020858152898b20610a5c8387610e8a565b518c528152898b2090610a6f8389610e8a565b518c5252888a20610a81888254610e9e565b905501610a38565b508451634bbeeee160e01b8152fd5b505034610365576020366003190112610365576001600160a01b03610abb610bc8565b83546001600160a01b031916911617825551f35b50346102e657816003193601126102e657610b39813591610aee610bad565b90610af884611224565b8386526003602052848620916005602052858720338852602052858720946001860192835494610b456002600683019764e8d4a51000998a918a5490610e03565b04990198895490610e16565b918215610b9f570154610b999594936000805160206120808339815191529390929091610b8d91610b809185906001600160a01b0316611cd9565b8a51938493339085610eaa565b0390a154905490610e03565b04905551f35b8951638ec63eab60e01b8152fd5b602435906001600160a01b0382168203610bc357565b600080fd5b600435906001600160a01b0382168203610bc357565b606081019081106001600160401b03821117610bf957604052565b634e487b7160e01b600052604160045260246000fd5b90601f801991011681019081106001600160401b03821117610bf957604052565b9080601f83011215610bc3578135906001600160401b038211610bf9578160051b60405193602093610c6485840187610c0f565b85528380860192820101928311610bc3578301905b828210610c87575050505090565b81358152908301908301610c79565b90815180825260208080930193019160005b828110610cb6575050505090565b835185529381019392810192600101610ca8565b6080906003190112610bc357600435906001600160a01b036024358181168103610bc35791604435916064359081168103610bc35790565b6060906003190112610bc357600435906024356001600160a01b0381168103610bc3579060443590565b9060405191828154918282526020928383019160005283600020936000905b828210610d6357505050610d6192500383610c0f565b565b855484526001958601958895509381019390910190610d4b565b9060405191828154918282526020928383019160005283600020936000905b828210610db257505050610d6192500383610c0f565b85546001600160a01b031684526001958601958895509381019390910190610d9c565b62015180908060001904821181151516610ded570290565b634e487b7160e01b600052601160045260246000fd5b8060001904821181151516610ded570290565b818110610ded570390565b90816020910312610bc357518015158103610bc35790565b8054821015610e515760005260206000200190600090565b634e487b7160e01b600052603260045260246000fd5b80549190600160401b831015610bf9578261050f916001610d6195018155610e39565b8051821015610e515760209160051b010190565b81198111610ded570190565b9081526001600160a01b03918216602082015291166040820152606081019190915260800190565b909192831561107057600254821161105e57610eed82611224565b81600052600360205260406000206005602052604060002091600160a01b600190039283821660005260205260406000209586600181019184835483811515610f70610f6260029d64e8d4a510009d610fe39d60069c610fd99b610f809a610fca9a610f9999610ff8575b5050505050611f95565b8381945415610fe957610e39565b610f808783548360031b1c610e9e565b9082549060031b600019811b9283911b16911916179055565b610fbf610fb8610fab838e8c01610e39565b90549060031b1c86610e03565b8754610e9e565b865560018801610e39565b91909283548360031b1c610e9e565b5491015490610e03565b04910155565b610ff38282610e67565b610e39565b60029464e8d4a51000600661103f956000805160206120808339815191529860049361102c8a97611036958a015490610e03565b0491015490610e16565b93015416611cd9565b90611051604051928284938785610eaa565b0390a13880878f82610f58565b604051631eccb30960e31b8152600490fd5b604051633a8410f160e01b8152600490fd5b9190811561107057600254831161105e5761109c83611224565b826000526003602052604092611110846000209460056020528060002060018060a01b038816600052602052602085826000209860018a01548a8a826111c6575b5050845163a9059cbb60e01b81526001600160a01b03909216600483015250602481019190915292839081906044820190565b038160006001600160a01b0389165af19081156111bc575061118464e8d4a5100095611177611152610fe39760029a9760069761118e9761119d575b50611f95565b61116f61115f828d610e39565b610f808683548360031b1c610e16565b898701610e39565b90549060031b1c90610e03565b6001880154610e16565b91826001880155015490610e03565b6111b59060203d6020116102d5576102c78183610c0f565b503861114c565b513d6000823e3d90fd5b6111f661121992600264e8d4a5100061102c60008051602061208083398151915297600661120b97015490610e03565b60048d015485906001600160a01b0316611cd9565b865191829185808c85610eaa565b0390a1388a8a6110dd565b80600052600360205260406000209060058201544211156116865760038201541561167d576000600560406000200154611279611260826118f1565b90939190849061126f426118f1565b5095909686610e16565b806113385750505050916112c3916112956112c9959442610e16565b9186600052600460205260406000209060005260205260406000209060005260205260406000205490610e03565b90610e9e565b905b6003830154918215611322578361130c60409460067f7fa9647ec1cc14e3822b46d05a2b9d4e019bde8875c0088c46b6503d71bf1722970193048354610e9e565b80925560054291015582519182526020820152a1565b634e487b7160e01b600052601260045260246000fd5b9297955092959350976000935b6001198311610ded576001830185101561166f57846114b5576107b28810610bc357617d4b600160ff1b018412600116610ded5761142361141e6114198a60046114128f61140c6064918c6113ba6114066114006113d26113a58b6116ff565b948a6113c66113c1600c98896113ba8c61168a565b059061175d565b611788565b0590617d4a190161175d565b846113ba6113fb6113e2896116a2565b6113f5846113ef8c61168a565b056117ec565b906116d6565b611851565b9861172e565b9261168a565b056118a1565b05906116d6565b6116ba565b610dd5565b62014370198111610ded57610dd41962014370820111610ded57603b1962015144820111610ded576001916112c36114638a6201517f6114919501610e16565b89600052600460205260406000208c6000526020528d60406000209060005260205260406000205490610e03565b995b0193600c85116114a8575b6001019398611345565b600197880197945061149e565b848303611546576107b28810610bc35760046114dc6113c18c600c6113ba6114068e6116ff565b05617d4a600160ff1b018112600116610ded576001916112c361146361153a61141e8f8e6004611412606461140c85600c6113ba6114066115409f611400908461152e6113fb6113e26114199f6116a2565b0590617d49190161175d565b42610e16565b99611493565b60018a148015611665575b801561165b575b8015611651575b8015611647575b801561163d575b8015611633575b156115e157601f5b7dc22e450672894ab6cd8efb11d33f5617839a5bc7dea00c22e450672894ab8111600116610ded576001916112c36115409289600052600460205260406000208c6000526020528d604060002090600052602052604060002054906201518002610e03565b60028a146115f057601e61157c565b600388161580611627575b801561161b575b156116125760ff601d5b1661157c565b60ff601c61160c565b50610190880615611602565b506064880615156115fb565b50600c8a14611574565b50600a8a1461156d565b5060088a14611566565b5060078a1461155f565b5060058a14611558565b5060038a14611551565b9650975050505090506112cb565b50600542910155565b5050565b600e600160ff1b018112600116610ded57600d190190565b6002600160ff1b018112600116610ded576001190190565b62253d8c600160ff1b018112600116610ded5762253d8b190190565b600082128015600160ff1b8401831216610ded576001600160ff1b038301821316610ded570390565b6112c0906000811280156001600160ff1b03839003841316610ded57600160ff1b829003831216610ded570190565b611324906000811280156001600160ff1b03839003841316610ded57600160ff1b829003831216610ded570190565b6000811280156001600160ff1b03839003841316610ded57600160ff1b829003831216610ded570190565b6105b560008083136001600160ff1b038490048311166001166117d85760017fffe9924f8d0dd7b2e6f174df9576f9de01c091c8faeb2605f522de8852b47aa8841282851216166117d857500290565b634e487b7160e01b81526011600452602490fd5b600060017f0aaaaaaaaaaaaaaaaaaaaaaaaaaaaaaaaaaaaaaaaaaaaaaaaaaaaaaaaaaaaaaa831182841316166117d85760017ff555555555555555555555555555555555555555555555555555555555555556831282841216166117d85750600c0290565b61016f60008083136001600160ff1b038490048311166001166117d85760017fffa6b6c1eb12d573186a06f9b8d9a287530217b7747d8eff4d6d83d625aae631841282851216166117d857500290565b60008082136001600160ff1b03839004600311166001166117d85760017fd555555555555555555555555555555555555555555555555555555555555556831282841216166117d8575060030290565b6001600160ff1b039060009062010bd990620151809004828112818503811581851316611cc557600160ff1b938385039283821216611cb15785908401129162010bd819908162253d8c93018313841516611c9d57011316611c89576226496501916001936004918585830484118287131616611c7657808512600760fd1b8612168616611c765762023ab194858160021b05958787850482118489131616611c5057877fffffc694f94337079d130ab45dff8e0f9ea161331bb1c93dea871de6fec83ce288128489121616611c50578602828112818503600313811516611c635781870360031216611c5057908460036119ee930105906116d6565b928184128484038813811516611c0457848603881216611bf157868401610fa08882860482118584131616611c1757887ffff7ced916872b020c49ba5e353f7ced916872b020c49ba5e353f7ced916872c83128584121616611c1757611a609162164b09910205948261141287611788565b828112818503601f13811516611c1757818703601f1216611c0457601f019680888504605011848a131616611c0457807ffe666666666666666666666666666666666666666666666666666666666666678912848a121616611c045761098f9788816050020590828287048b118684131616611c3d5784821299837ffff29be1739a4fb805dbcd5d6c7d1f7d6fd627208942391f124ee1c3f307026884128c1616611c2a5790605083611b15930205906116d6565b98600b820597828703600213821516611c2a5782900360021216611c175781878604600c118589131616611c1757817ff55555555555555555555555555555555555555555555555555555555555555688128589121616611c1757611b8190600288600c0291016116d6565b966031600160ff1b0181128216611c17578190603019018095046064118486131616611c04577ffeb851eb851eb851eb851eb851eb851eb851eb851eb851eb851eb851eb851eb984128385121616611bf1575050611beb9291611be69160640261175d565b61175d565b91909192565b634e487b7160e01b825260119052602490fd5b634e487b7160e01b835260118252602483fd5b634e487b7160e01b845260118352602484fd5b634e487b7160e01b865260118552602486fd5b634e487b7160e01b855260118452602485fd5b634e487b7160e01b835260118552602483fd5b634e487b7160e01b845260118652602484fd5b634e487b7160e01b815260118352602490fd5b634e487b7160e01b83526011600452602483fd5b634e487b7160e01b87526011600452602487fd5b634e487b7160e01b86526011600452602486fd5b634e487b7160e01b85526011600452602485fd5b604080516370a0823160e01b81523060048201526001600160a01b03909216949360209391929084826024818a5afa918215611eaa57600092611e78575b5081811115611e705750945b825163a9059cbb60e01b8582019081526001600160a01b039390931660248201526044808201889052815290601f1990611d5e606484610c0f565b8451928584016001600160401b039585821087831117610bf957600092839289528987527f5361666545524332303a206c6f772d6c6576656c2063616c6c206661696c65648a880152519082855af1903d15611e62573d948511610bf957611de194611dd388885195601f8401160185610c0f565b83523d60008885013e611eb5565b80519081611df0575b50505050565b8380611e00938301019101610e21565b15611e0c578080611dea565b60849250519062461bcd60e51b82526004820152602a60248201527f5361666545524332303a204552433230206f7065726174696f6e20646964206e6044820152691bdd081cdd58d8d9595960b21b6064820152fd5b611de1945060609250611eb5565b905094611d23565b90918582813d8311611ea3575b611e8f8183610c0f565b81010312611ea05750519038611d17565b80fd5b503d611e85565b84513d6000823e3d90fd5b91929015611f175750815115611ec9575090565b3b15611ed25790565b60405162461bcd60e51b815260206004820152601d60248201527f416464726573733a2063616c6c20746f206e6f6e2d636f6e74726163740000006044820152606490fd5b825190915015611f2a5750805190602001fd5b6040519062461bcd60e51b82528160208060048301528251928360248401526000915b848310611f7c575050918060449311611f6f575b601f01601f19168101030190fd5b6000838284010152611f61565b8183018101518684016044015285935091820191611f4d565b9060009182526003602052611fac60408320610d7d565b91825192604051918080602085019463f5b1bba960e01b865287602482015260248152611fd881610bde565b516a636f6e736f6c652e6c6f6795865afa5081511561206b57808060018060a01b039485602086015116604051602081019163161765e160e11b835260248201526024815261202681610bde565b51915afa505b8481111561204657604051633411aee560e01b8152600490fd5b826120518284610e8a565b5116838516146120635760010161202c565b935050505090565b634e487b7160e01b81526032600452602490fdfe1ec92956b13869de207e232e60c65e35826c5e12b7fdc6d70b083b5a4fd26703a26469706673582212200ce23c6460b8eb89c617e82c5e36ff84ceab75f77f395a495a0808cc82b13d7264736f6c634300080f0033",
  "devdoc": {
    "kind": "dev",
    "methods": {
      "addPool(address)": {
        "params": {
          "_rewardToken": "Reward token address (protocol native token)"
        }
      },
      "addToken(uint256,address,uint256)": {
        "params": {
          "_id": "Pool Id",
          "_token": "Priority pool lp token address",
          "_weight": "Weight of the token in the pool"
        }
      },
      "pendingReward(uint256,address)": {
        "params": {
          "_id": "Pool id",
          "_user": "User's address to claim the reward"
        }
      },
      "setWeight(uint256,uint256[])": {
        "params": {
          "_id": "Pool Id",
          "_weights": "Array of weights of the tokens in the pool"
        }
      },
      "updateWeight(uint256,address,uint256)": {
        "params": {
          "_id": "Pool Id",
          "_newWeight": "New weight of the token in the pool",
          "_token": "Token address"
        }
      }
    },
    "version": 1
  },
  "userdoc": {
    "kind": "user",
    "methods": {
      "addPool(address)": {
        "notice": "Register a new famring pool for priority pool"
      },
      "addToken(uint256,address,uint256)": {
        "notice": "Register Pri-LP token"
      },
      "deposit(uint256,address,uint256,address)": {
        "notice": "Directly deposit (need approval)"
      },
      "depositFromPolicyCenter(uint256,address,uint256,address)": {
        "notice": "Deposit from Policy Center         No need for approval"
      },
      "pendingReward(uint256,address)": {
        "notice": "Return the user's pending reward"
      },
      "setWeight(uint256,uint256[])": {
        "notice": "Sets the weight for a given array of tokens in a given pool"
      },
      "updateWeight(uint256,address,uint256)": {
        "notice": "Updates the weight of a token in a given pool"
      }
    },
    "notice": "Weighted Farming Pool         Weighted farming pool support multiple tokens to earn the same reward         Different tokens will have different weights when calculating rewards         Native token premiums will be transferred to this pool         The distribution is in the way of \"farming\" but with multiple tokens         Different generations of PRI-LP-1-JOE-G1",
    "version": 1
  },
  "storageLayout": {
    "storage": [
      {
        "astId": 20181,
        "contract": "src/reward/WeightedFarmingPool.sol:WeightedFarmingPool",
        "label": "policyCenter",
        "offset": 0,
        "slot": "0",
        "type": "t_address"
      },
      {
        "astId": 20183,
        "contract": "src/reward/WeightedFarmingPool.sol:WeightedFarmingPool",
        "label": "priorityPoolFactory",
        "offset": 0,
        "slot": "1",
        "type": "t_address"
      },
      {
        "astId": 20185,
        "contract": "src/reward/WeightedFarmingPool.sol:WeightedFarmingPool",
        "label": "counter",
        "offset": 0,
        "slot": "2",
        "type": "t_uint256"
      },
      {
        "astId": 20208,
        "contract": "src/reward/WeightedFarmingPool.sol:WeightedFarmingPool",
        "label": "pools",
        "offset": 0,
        "slot": "3",
        "type": "t_mapping(t_uint256,t_struct(PoolInfo)20203_storage)"
      },
      {
        "astId": 20216,
        "contract": "src/reward/WeightedFarmingPool.sol:WeightedFarmingPool",
        "label": "speed",
        "offset": 0,
        "slot": "4",
        "type": "t_mapping(t_uint256,t_mapping(t_uint256,t_mapping(t_uint256,t_uint256)))"
      },
      {
        "astId": 20231,
        "contract": "src/reward/WeightedFarmingPool.sol:WeightedFarmingPool",
        "label": "users",
        "offset": 0,
        "slot": "5",
        "type": "t_mapping(t_uint256,t_mapping(t_address,t_struct(UserInfo)20224_storage))"
      },
      {
        "astId": 20235,
        "contract": "src/reward/WeightedFarmingPool.sol:WeightedFarmingPool",
        "label": "supported",
        "offset": 0,
        "slot": "6",
        "type": "t_mapping(t_bytes32,t_bool)"
      }
    ],
    "types": {
      "t_address": {
        "encoding": "inplace",
        "label": "address",
        "numberOfBytes": "20"
      },
      "t_array(t_address)dyn_storage": {
        "base": "t_address",
        "encoding": "dynamic_array",
        "label": "address[]",
        "numberOfBytes": "32"
      },
      "t_array(t_uint256)dyn_storage": {
        "base": "t_uint256",
        "encoding": "dynamic_array",
        "label": "uint256[]",
        "numberOfBytes": "32"
      },
      "t_bool": {
        "encoding": "inplace",
        "label": "bool",
        "numberOfBytes": "1"
      },
      "t_bytes32": {
        "encoding": "inplace",
        "label": "bytes32",
        "numberOfBytes": "32"
      },
      "t_mapping(t_address,t_struct(UserInfo)20224_storage)": {
        "encoding": "mapping",
        "key": "t_address",
        "label": "mapping(address => struct WeightedFarmingPool.UserInfo)",
        "numberOfBytes": "32",
        "value": "t_struct(UserInfo)20224_storage"
      },
      "t_mapping(t_bytes32,t_bool)": {
        "encoding": "mapping",
        "key": "t_bytes32",
        "label": "mapping(bytes32 => bool)",
        "numberOfBytes": "32",
        "value": "t_bool"
      },
      "t_mapping(t_uint256,t_mapping(t_address,t_struct(UserInfo)20224_storage))": {
        "encoding": "mapping",
        "key": "t_uint256",
        "label": "mapping(uint256 => mapping(address => struct WeightedFarmingPool.UserInfo))",
        "numberOfBytes": "32",
        "value": "t_mapping(t_address,t_struct(UserInfo)20224_storage)"
      },
      "t_mapping(t_uint256,t_mapping(t_uint256,t_mapping(t_uint256,t_uint256)))": {
        "encoding": "mapping",
        "key": "t_uint256",
        "label": "mapping(uint256 => mapping(uint256 => mapping(uint256 => uint256)))",
        "numberOfBytes": "32",
        "value": "t_mapping(t_uint256,t_mapping(t_uint256,t_uint256))"
      },
      "t_mapping(t_uint256,t_mapping(t_uint256,t_uint256))": {
        "encoding": "mapping",
        "key": "t_uint256",
        "label": "mapping(uint256 => mapping(uint256 => uint256))",
        "numberOfBytes": "32",
        "value": "t_mapping(t_uint256,t_uint256)"
      },
      "t_mapping(t_uint256,t_struct(PoolInfo)20203_storage)": {
        "encoding": "mapping",
        "key": "t_uint256",
        "label": "mapping(uint256 => struct WeightedFarmingPool.PoolInfo)",
        "numberOfBytes": "32",
        "value": "t_struct(PoolInfo)20203_storage"
      },
      "t_mapping(t_uint256,t_uint256)": {
        "encoding": "mapping",
        "key": "t_uint256",
        "label": "mapping(uint256 => uint256)",
        "numberOfBytes": "32",
        "value": "t_uint256"
      },
      "t_struct(PoolInfo)20203_storage": {
        "encoding": "inplace",
        "label": "struct WeightedFarmingPool.PoolInfo",
        "members": [
          {
            "astId": 20188,
            "contract": "src/reward/WeightedFarmingPool.sol:WeightedFarmingPool",
            "label": "tokens",
            "offset": 0,
            "slot": "0",
            "type": "t_array(t_address)dyn_storage"
          },
          {
            "astId": 20191,
            "contract": "src/reward/WeightedFarmingPool.sol:WeightedFarmingPool",
            "label": "amount",
            "offset": 0,
            "slot": "1",
            "type": "t_array(t_uint256)dyn_storage"
          },
          {
            "astId": 20194,
            "contract": "src/reward/WeightedFarmingPool.sol:WeightedFarmingPool",
            "label": "weight",
            "offset": 0,
            "slot": "2",
            "type": "t_array(t_uint256)dyn_storage"
          },
          {
            "astId": 20196,
            "contract": "src/reward/WeightedFarmingPool.sol:WeightedFarmingPool",
            "label": "shares",
            "offset": 0,
            "slot": "3",
            "type": "t_uint256"
          },
          {
            "astId": 20198,
            "contract": "src/reward/WeightedFarmingPool.sol:WeightedFarmingPool",
            "label": "rewardToken",
            "offset": 0,
            "slot": "4",
            "type": "t_address"
          },
          {
            "astId": 20200,
            "contract": "src/reward/WeightedFarmingPool.sol:WeightedFarmingPool",
            "label": "lastRewardTimestamp",
            "offset": 0,
            "slot": "5",
            "type": "t_uint256"
          },
          {
            "astId": 20202,
            "contract": "src/reward/WeightedFarmingPool.sol:WeightedFarmingPool",
            "label": "accRewardPerShare",
            "offset": 0,
            "slot": "6",
            "type": "t_uint256"
          }
        ],
        "numberOfBytes": "224"
      },
      "t_struct(UserInfo)20224_storage": {
        "encoding": "inplace",
        "label": "struct WeightedFarmingPool.UserInfo",
        "members": [
          {
            "astId": 20219,
            "contract": "src/reward/WeightedFarmingPool.sol:WeightedFarmingPool",
            "label": "amount",
            "offset": 0,
            "slot": "0",
            "type": "t_array(t_uint256)dyn_storage"
          },
          {
            "astId": 20221,
            "contract": "src/reward/WeightedFarmingPool.sol:WeightedFarmingPool",
            "label": "share",
            "offset": 0,
            "slot": "1",
            "type": "t_uint256"
          },
          {
            "astId": 20223,
            "contract": "src/reward/WeightedFarmingPool.sol:WeightedFarmingPool",
            "label": "rewardDebt",
            "offset": 0,
            "slot": "2",
            "type": "t_uint256"
          }
        ],
        "numberOfBytes": "96"
      },
      "t_uint256": {
        "encoding": "inplace",
        "label": "uint256",
        "numberOfBytes": "32"
      }
    }
  }
}