{
  "address": "0x31a31A4b06939d6D9EF42075C7780bB3ec604F2c",
  "abi": [
    {
      "inputs": [
        {
          "internalType": "address",
          "name": "_premiumRewardPool",
          "type": "address"
        }
      ],
      "stateMutability": "nonpayable",
      "type": "constructor"
    },
    {
      "inputs": [],
      "name": "WeightedFarmingPool__AlreadySupported",
      "type": "error"
    },
    {
      "inputs": [],
      "name": "WeightedFarmingPool__InexistentPool",
      "type": "error"
    },
    {
      "inputs": [],
      "name": "WeightedFarmingPool__NoPendingRewards",
      "type": "error"
    },
    {
      "inputs": [],
      "name": "WeightedFarmingPool__NotInPool",
      "type": "error"
    },
    {
      "inputs": [],
      "name": "WeightedFarmingPool__OnlyPolicyCenter",
      "type": "error"
    },
    {
      "inputs": [],
      "name": "WeightedFarmingPool__WrongDateLength",
      "type": "error"
    },
    {
      "inputs": [],
      "name": "WeightedFarmingPool__WrongWeightLength",
      "type": "error"
    },
    {
      "inputs": [],
      "name": "WeightedFarmingPool__ZeroAmount",
      "type": "error"
    },
    {
      "anonymous": false,
      "inputs": [
        {
          "indexed": false,
          "internalType": "uint256",
          "name": "poolId",
          "type": "uint256"
        },
        {
          "indexed": false,
          "internalType": "address",
          "name": "user",
          "type": "address"
        },
        {
          "indexed": false,
          "internalType": "address",
          "name": "receiver",
          "type": "address"
        },
        {
          "indexed": false,
          "internalType": "uint256",
          "name": "reward",
          "type": "uint256"
        }
      ],
      "name": "Harvest",
      "type": "event"
    },
    {
      "anonymous": false,
      "inputs": [
        {
          "indexed": false,
          "internalType": "uint256",
          "name": "poolId",
          "type": "uint256"
        },
        {
          "indexed": false,
          "internalType": "address",
          "name": "token",
          "type": "address"
        },
        {
          "indexed": false,
          "internalType": "uint256",
          "name": "weight",
          "type": "uint256"
        }
      ],
      "name": "NewTokenAdded",
      "type": "event"
    },
    {
      "anonymous": false,
      "inputs": [
        {
          "indexed": false,
          "internalType": "uint256",
          "name": "poolId",
          "type": "uint256"
        },
        {
          "indexed": false,
          "internalType": "address",
          "name": "token",
          "type": "address"
        }
      ],
      "name": "PoolAdded",
      "type": "event"
    },
    {
      "anonymous": false,
      "inputs": [
        {
          "indexed": false,
          "internalType": "uint256",
          "name": "poolId",
          "type": "uint256"
        },
        {
          "indexed": false,
          "internalType": "uint256",
          "name": "accRewardPerShare",
          "type": "uint256"
        }
      ],
      "name": "PoolUpdated",
      "type": "event"
    },
    {
      "anonymous": false,
      "inputs": [
        {
          "indexed": false,
          "internalType": "uint256",
          "name": "poolId",
          "type": "uint256"
        }
      ],
      "name": "WeightChanged",
      "type": "event"
    },
    {
      "inputs": [],
      "name": "BASE_WEIGHT",
      "outputs": [
        {
          "internalType": "uint256",
          "name": "",
          "type": "uint256"
        }
      ],
      "stateMutability": "view",
      "type": "function"
    },
    {
      "inputs": [],
      "name": "SCALE",
      "outputs": [
        {
          "internalType": "uint256",
          "name": "",
          "type": "uint256"
        }
      ],
      "stateMutability": "view",
      "type": "function"
    },
    {
      "inputs": [
        {
          "internalType": "address",
          "name": "_rewardToken",
          "type": "address"
        }
      ],
      "name": "addPool",
      "outputs": [],
      "stateMutability": "nonpayable",
      "type": "function"
    },
    {
      "inputs": [
        {
          "internalType": "uint256",
          "name": "_id",
          "type": "uint256"
        },
        {
          "internalType": "address",
          "name": "_token",
          "type": "address"
        },
        {
          "internalType": "uint256",
          "name": "_weight",
          "type": "uint256"
        }
      ],
      "name": "addToken",
      "outputs": [],
      "stateMutability": "nonpayable",
      "type": "function"
    },
    {
      "inputs": [],
      "name": "counter",
      "outputs": [
        {
          "internalType": "uint256",
          "name": "",
          "type": "uint256"
        }
      ],
      "stateMutability": "view",
      "type": "function"
    },
    {
      "inputs": [
        {
          "internalType": "uint256",
          "name": "_id",
          "type": "uint256"
        },
        {
          "internalType": "address",
          "name": "_token",
          "type": "address"
        },
        {
          "internalType": "uint256",
          "name": "_amount",
          "type": "uint256"
        },
        {
          "internalType": "address",
          "name": "_user",
          "type": "address"
        }
      ],
      "name": "deposit",
      "outputs": [],
      "stateMutability": "nonpayable",
      "type": "function"
    },
    {
      "inputs": [
        {
          "internalType": "uint256",
          "name": "_id",
          "type": "uint256"
        },
        {
          "internalType": "address",
          "name": "_token",
          "type": "address"
        },
        {
          "internalType": "uint256",
          "name": "_amount",
          "type": "uint256"
        },
        {
          "internalType": "address",
          "name": "_user",
          "type": "address"
        }
      ],
      "name": "depositFromPolicyCenter",
      "outputs": [],
      "stateMutability": "nonpayable",
      "type": "function"
    },
    {
      "inputs": [
        {
          "internalType": "uint256",
          "name": "_poolId",
          "type": "uint256"
        }
      ],
      "name": "getPoolArrays",
      "outputs": [
        {
          "internalType": "address[]",
          "name": "",
          "type": "address[]"
        },
        {
          "internalType": "uint256[]",
          "name": "",
          "type": "uint256[]"
        },
        {
          "internalType": "uint256[]",
          "name": "",
          "type": "uint256[]"
        }
      ],
      "stateMutability": "view",
      "type": "function"
    },
    {
      "inputs": [
        {
          "internalType": "uint256",
          "name": "_poolId",
          "type": "uint256"
        },
        {
          "internalType": "address",
          "name": "_user",
          "type": "address"
        }
      ],
      "name": "getUserLPAmount",
      "outputs": [
        {
          "internalType": "uint256[]",
          "name": "",
          "type": "uint256[]"
        }
      ],
      "stateMutability": "view",
      "type": "function"
    },
    {
      "inputs": [
        {
          "internalType": "uint256",
          "name": "_id",
          "type": "uint256"
        },
        {
          "internalType": "address",
          "name": "_to",
          "type": "address"
        }
      ],
      "name": "harvest",
      "outputs": [],
      "stateMutability": "nonpayable",
      "type": "function"
    },
    {
      "inputs": [
        {
          "internalType": "uint256",
          "name": "_id",
          "type": "uint256"
        },
        {
          "internalType": "address",
          "name": "_user",
          "type": "address"
        }
      ],
      "name": "pendingReward",
      "outputs": [
        {
          "internalType": "uint256",
          "name": "pending",
          "type": "uint256"
        }
      ],
      "stateMutability": "view",
      "type": "function"
    },
    {
      "inputs": [],
      "name": "policyCenter",
      "outputs": [
        {
          "internalType": "address",
          "name": "",
          "type": "address"
        }
      ],
      "stateMutability": "view",
      "type": "function"
    },
    {
      "inputs": [
        {
          "internalType": "uint256",
          "name": "",
          "type": "uint256"
        }
      ],
      "name": "pools",
      "outputs": [
        {
          "internalType": "uint256",
          "name": "shares",
          "type": "uint256"
        },
        {
          "internalType": "address",
          "name": "rewardToken",
          "type": "address"
        },
        {
          "internalType": "uint256",
          "name": "lastRewardTimestamp",
          "type": "uint256"
        },
        {
          "internalType": "uint256",
          "name": "accRewardPerShare",
          "type": "uint256"
        }
      ],
      "stateMutability": "view",
      "type": "function"
    },
    {
      "inputs": [],
      "name": "premiumRewardPool",
      "outputs": [
        {
          "internalType": "address",
          "name": "",
          "type": "address"
        }
      ],
      "stateMutability": "view",
      "type": "function"
    },
    {
      "inputs": [
        {
          "internalType": "address",
          "name": "_policyCenter",
          "type": "address"
        }
      ],
      "name": "setPolicyCenter",
      "outputs": [],
      "stateMutability": "nonpayable",
      "type": "function"
    },
    {
      "inputs": [
        {
          "internalType": "uint256",
          "name": "_id",
          "type": "uint256"
        },
        {
          "internalType": "uint256[]",
          "name": "_weights",
          "type": "uint256[]"
        }
      ],
      "name": "setWeight",
      "outputs": [],
      "stateMutability": "nonpayable",
      "type": "function"
    },
    {
      "inputs": [
        {
          "internalType": "bytes32",
          "name": "",
          "type": "bytes32"
        }
      ],
      "name": "supported",
      "outputs": [
        {
          "internalType": "bool",
          "name": "",
          "type": "bool"
        }
      ],
      "stateMutability": "view",
      "type": "function"
    },
    {
      "inputs": [
        {
          "internalType": "uint256",
          "name": "_id",
          "type": "uint256"
        }
      ],
      "name": "updatePool",
      "outputs": [],
      "stateMutability": "nonpayable",
      "type": "function"
    },
    {
      "inputs": [
        {
          "internalType": "uint256",
          "name": "_id",
          "type": "uint256"
        },
        {
          "internalType": "uint256",
          "name": "_newSpeed",
          "type": "uint256"
        },
        {
          "internalType": "uint256[]",
          "name": "_years",
          "type": "uint256[]"
        },
        {
          "internalType": "uint256[]",
          "name": "_months",
          "type": "uint256[]"
        }
      ],
      "name": "updateRewardSpeed",
      "outputs": [],
      "stateMutability": "nonpayable",
      "type": "function"
    },
    {
      "inputs": [
        {
          "internalType": "uint256",
          "name": "_id",
          "type": "uint256"
        },
        {
          "internalType": "address",
          "name": "_token",
          "type": "address"
        },
        {
          "internalType": "uint256",
          "name": "_newWeight",
          "type": "uint256"
        }
      ],
      "name": "updateWeight",
      "outputs": [],
      "stateMutability": "nonpayable",
      "type": "function"
    },
    {
      "inputs": [
        {
          "internalType": "uint256",
          "name": "",
          "type": "uint256"
        },
        {
          "internalType": "address",
          "name": "",
          "type": "address"
        }
      ],
      "name": "users",
      "outputs": [
        {
          "internalType": "uint256",
          "name": "share",
          "type": "uint256"
        },
        {
          "internalType": "uint256",
          "name": "rewardDebt",
          "type": "uint256"
        }
      ],
      "stateMutability": "view",
      "type": "function"
    },
    {
      "inputs": [
        {
          "internalType": "uint256",
          "name": "_id",
          "type": "uint256"
        },
        {
          "internalType": "address",
          "name": "_token",
          "type": "address"
        },
        {
          "internalType": "uint256",
          "name": "_amount",
          "type": "uint256"
        }
      ],
      "name": "withdraw",
      "outputs": [],
      "stateMutability": "nonpayable",
      "type": "function"
    },
    {
      "inputs": [
        {
          "internalType": "uint256",
          "name": "_id",
          "type": "uint256"
        },
        {
          "internalType": "address",
          "name": "_token",
          "type": "address"
        },
        {
          "internalType": "uint256",
          "name": "_amount",
          "type": "uint256"
        },
        {
          "internalType": "address",
          "name": "_user",
          "type": "address"
        }
      ],
      "name": "withdrawFromPolicyCenter",
      "outputs": [],
      "stateMutability": "nonpayable",
      "type": "function"
    }
  ],
  "transactionHash": "0xd8278cf78405b25cce797a02f37d6cc6d0014b2750a2a82528109baa05e7f91b",
  "args": [
    "0x3c11BCf54d0f316914bf3752111F2904093E09F3"
  ],
  "numDeployments": 1,
  "solcInputHash": "6f21418f71e57af3298e19e94a630568",
  "bytecode": "0x60803461007457601f61219f38819003918201601f19168301916001600160401b038311848410176100795780849260209460405283398101031261007457516001600160a01b0381169081900361007457600080546001600160a01b03191691909117905560405161210f90816100908239f35b600080fd5b634e487b7160e01b600052604160045260246000fdfe6040608081526004908136101561001557600080fd5b600091823560e01c806318fccc7614610a245780632dd57bb0146109ed578063341922c11461092d5780633593aa921461088557806351eb05a6146108695780635a1635e41461083457806361bc221a146108155780637193f2f0146107e957806398969e82146106ad578063a4b59094146105c2578063a606a6071461059a578063ac4afa3814610547578063b425f92614610502578063b9d02df4146104b5578063c65323f11461045d578063cd88af6e146103c8578063d914cd4b1461032a578063e16fd0ec1461030d578063e63697c8146102ef578063e8adbf2f146102c6578063eced5526146102a2578063fee0833e146102475763ffb7cf621461011e57600080fd5b346102435761012c36610c57565b9192845160209182820186815260018060a01b0392838616956bffffffffffffffffffffffff199060601b16898201526034815261016981610b33565b5190208089526006845260ff888a20541661023457885260068352868820805460ff1916600117905585885260038352868820805491600160401b831015610221575091846101e5837fd7856221235dd5b0aca9663e69d6d13572bcc04b1bb87358b1ef62a23cc09e6a999795600160609a9896018155610d76565b909283549160031b90811b9283911b1691191617905583885260038152610211836002898b2001610da4565b865193845283015284820152a151f35b634e487b7160e01b8a5260419052602489fd5b50865163bf1f752f60e01b8152fd5b8280fd5b50346102435781600319360112610243578161029e9361028b92610269610b02565b90358252600560209081528383206001600160a01b0390921683525220610c81565b9051918291602083526020830190610beb565b0390f35b5050346102c257816003193601126102c2576020905164e8d4a510008152f35b5080fd5b5050346102c257816003193601126102c25760015490516001600160a01b039091168152602090f35b5050346102c25761030a61030236610c57565b903392610fb5565b51f35b5050346102c257816003193601126102c257602090516127108152f35b503461024357602036600319011261024357610344610b1d565b60025460001981146103b55760010160028190558085526003602090815284862090930180546001600160a01b0319166001600160a01b0390931692831790558351908152918201527f1f1f6396247a5ba59b7b1e094ec3a8e439d4dace0c5ac4fe3ecfde3e68e03a8a908290a151f35b634e487b7160e01b855260118352602485fd5b50346102435760206103ec9160646103df36610c1f565b9082819694989398610e27565b86865195869485936323b872dd60e01b85523390850152306024850152604484015260018060a01b03165af1801561045157610426575051f35b6104469060203d811161044a575b61043e8183610b64565b810190610de7565b5051f35b503d610434565b505051903d90823e3d90fd5b5050346102c25761030a61048761049a61047636610c57565b93906104818361114a565b82611fcf565b9086526003602052600285872001610d76565b90919082549060031b600019811b9283911b16911916179055565b50346102435781600319360112610243579181926104d1610b02565b9035825260056020528282209060018060a01b03168252602052206002600182015491015482519182526020820152f35b509190346102c25761051336610c1f565b6001549093919291906001600160a01b031633036105375761030a94959650610e27565b8451636f2b51a560e11b81528790fd5b50903461024357602036600319011261024357806080938335815260036020522060038101549260018060a01b039082015416916006600583015492015492815194855260208501528301526060820152f35b5050346102c257816003193601126102c257905490516001600160a01b039091168152602090f35b50346102435781600319360112610243578035906001600160401b0390602480358381116106a957366023820112156106a957808301359384116106a957600592368386861b840101116106a557858852600360205260028789200190815486036106975750875b8581106106605788887f61378e0f43f3c62e317cdbe9d6bf50295ceba5fb596196f5c109302ee750b4a760208a8351908152a151f35b8061069161067060019385610d76565b87848a1b880101359082549060031b600019811b9283911b16911916179055565b0161062a565b87516312fee3c960e31b8152fd5b8780fd5b8680fd5b50346102435781600319360112610243578035926106c9610b02565b848252602094600386528483209185519260e08401926001600160401b0393858110858211176107d65788526106fe82610cd2565b855261070c60018301610c81565b8986015261071c60028301610c81565b888601526003820154606086015260c0600660018060a01b0393848a820154166080890152600581015460a089015201549501948552855260058852868520911684528652848320928551946060860192868410908411176107c35750506107bc939264e8d4a51000926107b392875261079582610c81565b8552866002600184015493848b890152015495019485525190610d58565b04905190610d6b565b9051908152f35b634e487b7160e01b825260419052602490fd5b634e487b7160e01b875260418852602487fd5b5034610243576020366003190112610243578160209360ff923581526006855220541690519015158152f35b5050346102c257816003193601126102c2576020906002549051908152f35b509190346102c25761084536610c1f565b6001549093919291906001600160a01b031633036105375761030a94959650610fb5565b50346102435760203660031901126102435761030a903561114a565b509190346102c25760209283600319360112610243573582526003835280822092916108b084610cd2565b6001936108ca60026108c3878901610c81565b9701610c81565b928451956060870160608852845180915283608089019501925b818110610911575087850384890152878061029e89896109048a8f610beb565b9184830390850152610beb565b83516001600160a01b03168652948401949284019282016108e4565b503461024357608036600319011261024357803590602435906001600160401b03906044358281116106a9576109669036908301610b85565b916064359081116106a95761097e9036908301610b85565b9180518351036109de57805194875b86811061099957888851f35b600190828a526020858152898b206109b18387610dc7565b518c528152898b20906109c48389610dc7565b518c5252888a206109d6888254610ddb565b90550161098d565b508451634bbeeee160e01b8152fd5b5050346102c25760203660031901126102c2576001600160a01b03610a10610b1d565b1660018060a01b0319600154161760015551f35b5034610243578160031936011261024357610a8e813591610a43610b02565b90610a4d8461114a565b8386526003602052848620916005602052858720338852602052858720946001860192835494610a9a6002600683019764e8d4a51000998a918a5490610d58565b04990198895490610d6b565b918215610af4570154610aee9594936000805160206120ba8339815191529390929091610ae291610ad59185906001600160a01b0316611ca3565b8a51938493339085610dff565b0390a154905490610d58565b04905551f35b8951638ec63eab60e01b8152fd5b602435906001600160a01b0382168203610b1857565b600080fd5b600435906001600160a01b0382168203610b1857565b606081019081106001600160401b03821117610b4e57604052565b634e487b7160e01b600052604160045260246000fd5b90601f801991011681019081106001600160401b03821117610b4e57604052565b9080601f83011215610b18578135906001600160401b038211610b4e578160051b60405193602093610bb985840187610b64565b85528380860192820101928311610b18578301905b828210610bdc575050505090565b81358152908301908301610bce565b90815180825260208080930193019160005b828110610c0b575050505090565b835185529381019392810192600101610bfd565b6080906003190112610b1857600435906001600160a01b036024358181168103610b185791604435916064359081168103610b185790565b6060906003190112610b1857600435906024356001600160a01b0381168103610b18579060443590565b9060405191828154918282526020928383019160005283600020936000905b828210610cb857505050610cb692500383610b64565b565b855484526001958601958895509381019390910190610ca0565b9060405191828154918282526020928383019160005283600020936000905b828210610d0757505050610cb692500383610b64565b85546001600160a01b031684526001958601958895509381019390910190610cf1565b62015180908060001904821181151516610d42570290565b634e487b7160e01b600052601160045260246000fd5b8060001904821181151516610d42570290565b818110610d42570390565b8054821015610d8e5760005260206000200190600090565b634e487b7160e01b600052603260045260246000fd5b80549190600160401b831015610b4e578261049a916001610cb695018155610d76565b8051821015610d8e5760209160051b010190565b81198111610d42570190565b90816020910312610b1857518015158103610b185790565b9081526001600160a01b03918216602082015291166040820152606081019190915260800190565b9091928315610fa3576002548211610f9157610e428261114a565b8160005260036020526040600020936005602052604060002091600160a01b600190039283821660005260205260406000209586816001820194855483811515610ec6610eb860029d64e8d4a510009d610f169d60069c610f0b9b610f049b610ef79a610eef99610f2b575b5050505050611fcf565b8381945415610f1c57610d76565b610ed68683548360031b1c610ddb565b9082549060031b600019811b9283911b16911916179055565b8a8601610d76565b90549060031b1c90610d58565b8454610ddb565b809355015490610d58565b04910155565b610f268282610da4565b610d76565b60029464e8d4a510006006610f72956000805160206120ba83398151915298600493610f5f8a97610f69958a015490610d58565b0491015490610d6b565b93015416611ca3565b90610f84604051928284938785610dff565b0390a13880878d82610eae565b604051631eccb30960e31b8152600490fd5b604051633a8410f160e01b8152600490fd5b91908115610fa3576002548311610f9157610fcf8361114a565b826000526003602052604092611043846000209460056020528060002060018060a01b038816600052602052602085826000209860018a01548a8a826110ec575b5050845163a9059cbb60e01b81526001600160a01b03909216600483015250602481019190915292839081906044820190565b038160006001600160a01b0389165af19081156110e257506110aa64e8d4a5100095610ef7611085610f169760029a976006976110b4976110c3575b50611fcf565b6110a2611092828d610d76565b610ed68683548360031b1c610d6b565b898701610d76565b6001880154610d6b565b91826001880155015490610d58565b6110db9060203d60201161044a5761043e8183610b64565b503861107f565b513d6000823e3d90fd5b61111c61113f92600264e8d4a51000610f5f6000805160206120ba83398151915297600661113197015490610d58565b60048d015485906001600160a01b0316611ca3565b865191829185808c85610dff565b0390a1388a8a611010565b8060005260036020526040600020906005820154421115611650576003820154156116475760009060406000209160058301546111a2611189826118bb565b909391908490611198426118bb565b5095909686610d6b565b806112e15750505050916111ec916111be6111f2959442610d6b565b9186600052600460205260406000209060005260205260406000209060005260205260406000205490610d58565b90610ddb565b915b600054600491909101546001600160a01b039081169116803b15610b1857604051630595397d60e31b81526001600160a01b03929092166004830152602482018490526000908290604490829084905af180156112d5576112be575b5060038301549182156112a8578361129260409460067f7fa9647ec1cc14e3822b46d05a2b9d4e019bde8875c0088c46b6503d71bf1722970193048354610ddb565b80925560054291015582519182526020820152a1565b634e487b7160e01b600052601260045260246000fd5b6001600160401b038111610b4e5760405238611250565b6040513d6000823e3d90fd5b93979695509350989096976000945b6001198411610d4257600184018610156116375785611462576107b28910610b1857617d4b600160ff1b018512600116610d42576113ce6113c96113c48b60048f60646113b76113bd928d6113656113b16113ab61137d6113508b6116c9565b948a61137161136c600c98896113658c611654565b0590611727565b611752565b0590617d4a1901611727565b846113656113a661138d8961166c565b6113a08461139a8c611654565b056117b6565b906116a0565b61181b565b986116f8565b92611654565b0561186b565b05906116a0565b611684565b610d2a565b62014370198111610d4257610dd41962014370820111610d4257603b1962015144820111610d42576001916111ec8d61140f8c6201517f61143e9601610d6b565b908b60005260046020528d60406000209060005260205260406000209060005260205260406000205490610d58565b9a5b0194600c8611611455575b60010194996112f0565b600198890198955061144b565b85840361150d576107b28910610b1857600461148961136c8d600c6113656113b18f6116c9565b05617d4a600160ff1b018112600116610d42576001916111ec8d61140f6115016113c98f6113c49060046113bd60646113b76114f66114f06115079e600c6114e46113a68f6113a08461139a6114de8461166c565b93611654565b0590617d491901611727565b956116f8565b600c6113658c611654565b42610d6b565b9a611440565b60018b14801561162d575b8015611623575b8015611619575b801561160f575b8015611605575b80156115fb575b156115a957601f5b7dc22e450672894ab6cd8efb11d33f5617839a5bc7dea00c22e450672894ab8111600116610d42576001916111ec611507928e8b60005260046020528d604060002090600052602052604060002090600052602052604060002054906201518002610d58565b60028b146115b857601e611543565b6003891615806115ef575b80156115e3575b156115da5760ff601d5b16611543565b60ff601c6115d4565b506101908906156115ca565b506064890615156115c3565b50600c8b1461153b565b50600a8b14611534565b5060088b1461152d565b5060078b14611526565b5060058b1461151f565b5060038b14611518565b97509794955097505050506111f4565b50600542910155565b5050565b600e600160ff1b018112600116610d4257600d190190565b6002600160ff1b018112600116610d42576001190190565b62253d8c600160ff1b018112600116610d425762253d8b190190565b600082128015600160ff1b8401831216610d42576001600160ff1b038301821316610d42570390565b6112c0906000811280156001600160ff1b03839003841316610d4257600160ff1b829003831216610d42570190565b611324906000811280156001600160ff1b03839003841316610d4257600160ff1b829003831216610d42570190565b6000811280156001600160ff1b03839003841316610d4257600160ff1b829003831216610d42570190565b6105b560008083136001600160ff1b038490048311166001166117a25760017fffe9924f8d0dd7b2e6f174df9576f9de01c091c8faeb2605f522de8852b47aa8841282851216166117a257500290565b634e487b7160e01b81526011600452602490fd5b600060017f0aaaaaaaaaaaaaaaaaaaaaaaaaaaaaaaaaaaaaaaaaaaaaaaaaaaaaaaaaaaaaaa831182841316166117a25760017ff555555555555555555555555555555555555555555555555555555555555556831282841216166117a25750600c0290565b61016f60008083136001600160ff1b038490048311166001166117a25760017fffa6b6c1eb12d573186a06f9b8d9a287530217b7747d8eff4d6d83d625aae631841282851216166117a257500290565b60008082136001600160ff1b03839004600311166001166117a25760017fd555555555555555555555555555555555555555555555555555555555555556831282841216166117a2575060030290565b6001600160ff1b039060009062010bd990620151809004828112818503811581851316611c8f57600160ff1b938385039283821216611c7b5785908401129162010bd819908162253d8c93018313841516611c6757011316611c53576226496501916001936004918585830484118287131616611c4057808512600760fd1b8612168616611c405762023ab194858160021b05958787850482118489131616611c1a57877fffffc694f94337079d130ab45dff8e0f9ea161331bb1c93dea871de6fec83ce288128489121616611c1a578602828112818503600313811516611c2d5781870360031216611c1a57908460036119b8930105906116a0565b928184128484038813811516611bce57848603881216611bbb57868401610fa08882860482118584131616611be157887ffff7ced916872b020c49ba5e353f7ced916872b020c49ba5e353f7ced916872c83128584121616611be157611a2a9162164b0991020594826113bd87611752565b828112818503601f13811516611be157818703601f1216611bce57601f019680888504605011848a131616611bce57807ffe666666666666666666666666666666666666666666666666666666666666678912848a121616611bce5761098f9788816050020590828287048b118684131616611c075784821299837ffff29be1739a4fb805dbcd5d6c7d1f7d6fd627208942391f124ee1c3f307026884128c1616611bf45790605083611adf930205906116a0565b98600b820597828703600213821516611bf45782900360021216611be15781878604600c118589131616611be157817ff55555555555555555555555555555555555555555555555555555555555555688128589121616611be157611b4b90600288600c0291016116a0565b966031600160ff1b0181128216611be1578190603019018095046064118486131616611bce577ffeb851eb851eb851eb851eb851eb851eb851eb851eb851eb851eb851eb851eb984128385121616611bbb575050611bb59291611bb091606402611727565b611727565b91909192565b634e487b7160e01b825260119052602490fd5b634e487b7160e01b835260118252602483fd5b634e487b7160e01b845260118352602484fd5b634e487b7160e01b865260118552602486fd5b634e487b7160e01b855260118452602485fd5b634e487b7160e01b835260118552602483fd5b634e487b7160e01b845260118652602484fd5b634e487b7160e01b815260118352602490fd5b634e487b7160e01b83526011600452602483fd5b634e487b7160e01b87526011600452602487fd5b634e487b7160e01b86526011600452602486fd5b634e487b7160e01b85526011600452602485fd5b604080516370a0823160e01b81523060048201526001600160a01b0390921694936020936024939091858286818b5afa918215611ee457600092611eb2575b508115611e805781811115611e785750955b825163a9059cbb60e01b8682019081526001600160a01b039093168582019081526020810189905281906040010391611d35601f1993848101845283610b64565b8451936001600160401b039285870184811187821017611e635787528886527f5361666545524332303a206c6f772d6c6576656c2063616c6c206661696c6564868a01525160009182919082855af1913d15611e53573d908111611e3e5790611dbc94939291611dae89885195601f8401160185610b64565b83523d60008985013e611eef565b80519081611dcc575b5050505050565b8480611ddc938301019101610de7565b15611de8578080611dc5565b5162461bcd60e51b81526004810192909252602a908201527f5361666545524332303a204552433230206f7065726174696f6e20646964206e6044820152691bdd081cdd58d8d9595960b21b6064820152608490fd5b86634e487b7160e01b60005260416004526000fd5b5090611dbc939250606091611eef565b88634e487b7160e01b60005260416004526000fd5b905095611cf4565b835162461bcd60e51b815260048101879052600c818701526b5a65726f2062616c616e636560a01b6044820152606490fd5b90918682813d8311611edd575b611ec98183610b64565b81010312611eda5750519038611ce2565b80fd5b503d611ebf565b84513d6000823e3d90fd5b91929015611f515750815115611f03575090565b3b15611f0c5790565b60405162461bcd60e51b815260206004820152601d60248201527f416464726573733a2063616c6c20746f206e6f6e2d636f6e74726163740000006044820152606490fd5b825190915015611f645750805190602001fd5b6040519062461bcd60e51b82528160208060048301528251928360248401526000915b848310611fb6575050918060449311611fa9575b601f01601f19168101030190fd5b6000838284010152611f9b565b8183018101518684016044015285935091820191611f87565b9060009182526003602052611fe660408320610cd2565b91825192604051918080602085019463f5b1bba960e01b86528760248201526024815261201281610b33565b516a636f6e736f6c652e6c6f6795865afa508151156120a557808060018060a01b039485602086015116604051602081019163161765e160e11b835260248201526024815261206081610b33565b51915afa505b8481111561208057604051633411aee560e01b8152600490fd5b8261208b8284610dc7565b51168385161461209d57600101612066565b935050505090565b634e487b7160e01b81526032600452602490fdfe1ec92956b13869de207e232e60c65e35826c5e12b7fdc6d70b083b5a4fd26703a26469706673582212205390068da23d622016912c8cd04e5f4c911d2ebea8c4c8deab746bb2ebcc980964736f6c634300080f0033",
  "devdoc": {
    "kind": "dev",
    "methods": {
      "addPool(address)": {
        "params": {
          "_rewardToken": "Reward token address to be given to users"
        }
      },
      "addToken(uint256,address,uint256)": {
        "params": {
          "_id": "Pool Id",
          "_token": "Cover Right Token address",
          "_weight": "Weight of the token in the pool"
        }
      },
      "pendingReward(uint256,address)": {
        "params": {
          "_id": "Pool id",
          "_user": "User's address to claim the reward"
        }
      },
      "setWeight(uint256,uint256[])": {
        "params": {
          "_id": "Pool Id",
          "_weights": "Array of weights of the tokens in the pool"
        }
      },
      "updateWeight(uint256,address,uint256)": {
        "params": {
          "_id": "Pool Id",
          "_newWeight": "New weight of the token in the pool",
          "_token": "Token address"
        }
      }
    },
    "version": 1
  },
  "userdoc": {
    "kind": "user",
    "methods": {
      "addPool(address)": {
        "notice": "Registers PRI-LP token in Weighted Farming Pool"
      },
      "addToken(uint256,address,uint256)": {
        "notice": "Registers Cover Right Token to a given pool"
      },
      "deposit(uint256,address,uint256,address)": {
        "notice": "Directly deposit (need approval)"
      },
      "depositFromPolicyCenter(uint256,address,uint256,address)": {
        "notice": "Deposit from Policy Center         No need for approval"
      },
      "pendingReward(uint256,address)": {
        "notice": "Return the user's pending reward"
      },
      "setWeight(uint256,uint256[])": {
        "notice": "Sets the weight for a given array of tokens in a given pool"
      },
      "updateWeight(uint256,address,uint256)": {
        "notice": "Updates the weight of a token in a given pool"
      }
    },
    "notice": "Weighted Farming Pool         Weighted farming pool support multiple tokens to earn the same reward         Different tokens will have different weights when calculating rewards         Native token premiums will be transferred to this pool         The distribution is in the way of \"farming\" but with multiple tokens         Different generations of PRI-LP-1-JOE-G1",
    "version": 1
  },
  "storageLayout": {
    "storage": [
      {
        "astId": 19965,
        "contract": "src/reward/WeightedFarmingPool.sol:WeightedFarmingPool",
        "label": "premiumRewardPool",
        "offset": 0,
        "slot": "0",
        "type": "t_address"
      },
      {
        "astId": 19967,
        "contract": "src/reward/WeightedFarmingPool.sol:WeightedFarmingPool",
        "label": "policyCenter",
        "offset": 0,
        "slot": "1",
        "type": "t_address"
      },
      {
        "astId": 19969,
        "contract": "src/reward/WeightedFarmingPool.sol:WeightedFarmingPool",
        "label": "counter",
        "offset": 0,
        "slot": "2",
        "type": "t_uint256"
      },
      {
        "astId": 19992,
        "contract": "src/reward/WeightedFarmingPool.sol:WeightedFarmingPool",
        "label": "pools",
        "offset": 0,
        "slot": "3",
        "type": "t_mapping(t_uint256,t_struct(PoolInfo)19987_storage)"
      },
      {
        "astId": 20000,
        "contract": "src/reward/WeightedFarmingPool.sol:WeightedFarmingPool",
        "label": "speed",
        "offset": 0,
        "slot": "4",
        "type": "t_mapping(t_uint256,t_mapping(t_uint256,t_mapping(t_uint256,t_uint256)))"
      },
      {
        "astId": 20015,
        "contract": "src/reward/WeightedFarmingPool.sol:WeightedFarmingPool",
        "label": "users",
        "offset": 0,
        "slot": "5",
        "type": "t_mapping(t_uint256,t_mapping(t_address,t_struct(UserInfo)20008_storage))"
      },
      {
        "astId": 20019,
        "contract": "src/reward/WeightedFarmingPool.sol:WeightedFarmingPool",
        "label": "supported",
        "offset": 0,
        "slot": "6",
        "type": "t_mapping(t_bytes32,t_bool)"
      }
    ],
    "types": {
      "t_address": {
        "encoding": "inplace",
        "label": "address",
        "numberOfBytes": "20"
      },
      "t_array(t_address)dyn_storage": {
        "base": "t_address",
        "encoding": "dynamic_array",
        "label": "address[]",
        "numberOfBytes": "32"
      },
      "t_array(t_uint256)dyn_storage": {
        "base": "t_uint256",
        "encoding": "dynamic_array",
        "label": "uint256[]",
        "numberOfBytes": "32"
      },
      "t_bool": {
        "encoding": "inplace",
        "label": "bool",
        "numberOfBytes": "1"
      },
      "t_bytes32": {
        "encoding": "inplace",
        "label": "bytes32",
        "numberOfBytes": "32"
      },
      "t_mapping(t_address,t_struct(UserInfo)20008_storage)": {
        "encoding": "mapping",
        "key": "t_address",
        "label": "mapping(address => struct WeightedFarmingPool.UserInfo)",
        "numberOfBytes": "32",
        "value": "t_struct(UserInfo)20008_storage"
      },
      "t_mapping(t_bytes32,t_bool)": {
        "encoding": "mapping",
        "key": "t_bytes32",
        "label": "mapping(bytes32 => bool)",
        "numberOfBytes": "32",
        "value": "t_bool"
      },
      "t_mapping(t_uint256,t_mapping(t_address,t_struct(UserInfo)20008_storage))": {
        "encoding": "mapping",
        "key": "t_uint256",
        "label": "mapping(uint256 => mapping(address => struct WeightedFarmingPool.UserInfo))",
        "numberOfBytes": "32",
        "value": "t_mapping(t_address,t_struct(UserInfo)20008_storage)"
      },
      "t_mapping(t_uint256,t_mapping(t_uint256,t_mapping(t_uint256,t_uint256)))": {
        "encoding": "mapping",
        "key": "t_uint256",
        "label": "mapping(uint256 => mapping(uint256 => mapping(uint256 => uint256)))",
        "numberOfBytes": "32",
        "value": "t_mapping(t_uint256,t_mapping(t_uint256,t_uint256))"
      },
      "t_mapping(t_uint256,t_mapping(t_uint256,t_uint256))": {
        "encoding": "mapping",
        "key": "t_uint256",
        "label": "mapping(uint256 => mapping(uint256 => uint256))",
        "numberOfBytes": "32",
        "value": "t_mapping(t_uint256,t_uint256)"
      },
      "t_mapping(t_uint256,t_struct(PoolInfo)19987_storage)": {
        "encoding": "mapping",
        "key": "t_uint256",
        "label": "mapping(uint256 => struct WeightedFarmingPool.PoolInfo)",
        "numberOfBytes": "32",
        "value": "t_struct(PoolInfo)19987_storage"
      },
      "t_mapping(t_uint256,t_uint256)": {
        "encoding": "mapping",
        "key": "t_uint256",
        "label": "mapping(uint256 => uint256)",
        "numberOfBytes": "32",
        "value": "t_uint256"
      },
      "t_struct(PoolInfo)19987_storage": {
        "encoding": "inplace",
        "label": "struct WeightedFarmingPool.PoolInfo",
        "members": [
          {
            "astId": 19972,
            "contract": "src/reward/WeightedFarmingPool.sol:WeightedFarmingPool",
            "label": "tokens",
            "offset": 0,
            "slot": "0",
            "type": "t_array(t_address)dyn_storage"
          },
          {
            "astId": 19975,
            "contract": "src/reward/WeightedFarmingPool.sol:WeightedFarmingPool",
            "label": "amount",
            "offset": 0,
            "slot": "1",
            "type": "t_array(t_uint256)dyn_storage"
          },
          {
            "astId": 19978,
            "contract": "src/reward/WeightedFarmingPool.sol:WeightedFarmingPool",
            "label": "weight",
            "offset": 0,
            "slot": "2",
            "type": "t_array(t_uint256)dyn_storage"
          },
          {
            "astId": 19980,
            "contract": "src/reward/WeightedFarmingPool.sol:WeightedFarmingPool",
            "label": "shares",
            "offset": 0,
            "slot": "3",
            "type": "t_uint256"
          },
          {
            "astId": 19982,
            "contract": "src/reward/WeightedFarmingPool.sol:WeightedFarmingPool",
            "label": "rewardToken",
            "offset": 0,
            "slot": "4",
            "type": "t_address"
          },
          {
            "astId": 19984,
            "contract": "src/reward/WeightedFarmingPool.sol:WeightedFarmingPool",
            "label": "lastRewardTimestamp",
            "offset": 0,
            "slot": "5",
            "type": "t_uint256"
          },
          {
            "astId": 19986,
            "contract": "src/reward/WeightedFarmingPool.sol:WeightedFarmingPool",
            "label": "accRewardPerShare",
            "offset": 0,
            "slot": "6",
            "type": "t_uint256"
          }
        ],
        "numberOfBytes": "224"
      },
      "t_struct(UserInfo)20008_storage": {
        "encoding": "inplace",
        "label": "struct WeightedFarmingPool.UserInfo",
        "members": [
          {
            "astId": 20003,
            "contract": "src/reward/WeightedFarmingPool.sol:WeightedFarmingPool",
            "label": "amount",
            "offset": 0,
            "slot": "0",
            "type": "t_array(t_uint256)dyn_storage"
          },
          {
            "astId": 20005,
            "contract": "src/reward/WeightedFarmingPool.sol:WeightedFarmingPool",
            "label": "share",
            "offset": 0,
            "slot": "1",
            "type": "t_uint256"
          },
          {
            "astId": 20007,
            "contract": "src/reward/WeightedFarmingPool.sol:WeightedFarmingPool",
            "label": "rewardDebt",
            "offset": 0,
            "slot": "2",
            "type": "t_uint256"
          }
        ],
        "numberOfBytes": "96"
      },
      "t_uint256": {
        "encoding": "inplace",
        "label": "uint256",
        "numberOfBytes": "32"
      }
    }
  }
}