{
  "address": "0xe9c44d0521B19189dc549F98E8f4696f3df09bE6",
  "abi": [
    {
      "inputs": [],
      "name": "PayoutPool__NoPayout",
      "type": "error"
    },
    {
      "inputs": [],
      "name": "PayoutPool__NotPolicyCenter",
      "type": "error"
    },
    {
      "inputs": [],
      "name": "PayoutPool__OnlyPriorityPool",
      "type": "error"
    },
    {
      "inputs": [],
      "name": "PayoutPool__WrongCRToken",
      "type": "error"
    },
    {
      "anonymous": false,
      "inputs": [
        {
          "indexed": false,
          "internalType": "uint8",
          "name": "version",
          "type": "uint8"
        }
      ],
      "name": "Initialized",
      "type": "event"
    },
    {
      "anonymous": false,
      "inputs": [
        {
          "indexed": true,
          "internalType": "uint256",
          "name": "_poolId",
          "type": "uint256"
        },
        {
          "indexed": false,
          "internalType": "uint256",
          "name": "_generation",
          "type": "uint256"
        },
        {
          "indexed": false,
          "internalType": "uint256",
          "name": "_amount",
          "type": "uint256"
        },
        {
          "indexed": false,
          "internalType": "uint256",
          "name": "_ratio",
          "type": "uint256"
        }
      ],
      "name": "NewPayout",
      "type": "event"
    },
    {
      "inputs": [],
      "name": "CLAIM_PERIOD",
      "outputs": [
        {
          "internalType": "uint256",
          "name": "",
          "type": "uint256"
        }
      ],
      "stateMutability": "view",
      "type": "function"
    },
    {
      "inputs": [],
      "name": "SCALE",
      "outputs": [
        {
          "internalType": "uint256",
          "name": "",
          "type": "uint256"
        }
      ],
      "stateMutability": "view",
      "type": "function"
    },
    {
      "inputs": [],
      "name": "USDC",
      "outputs": [
        {
          "internalType": "address",
          "name": "",
          "type": "address"
        }
      ],
      "stateMutability": "view",
      "type": "function"
    },
    {
      "inputs": [
        {
          "internalType": "address",
          "name": "_user",
          "type": "address"
        },
        {
          "internalType": "address",
          "name": "_crToken",
          "type": "address"
        },
        {
          "internalType": "uint256",
          "name": "_poolId",
          "type": "uint256"
        },
        {
          "internalType": "uint256",
          "name": "_generation",
          "type": "uint256"
        }
      ],
      "name": "claim",
      "outputs": [
        {
          "internalType": "uint256",
          "name": "claimed",
          "type": "uint256"
        },
        {
          "internalType": "uint256",
          "name": "newGenerationCRAmount",
          "type": "uint256"
        }
      ],
      "stateMutability": "nonpayable",
      "type": "function"
    },
    {
      "inputs": [],
      "name": "crFactory",
      "outputs": [
        {
          "internalType": "address",
          "name": "",
          "type": "address"
        }
      ],
      "stateMutability": "view",
      "type": "function"
    },
    {
      "inputs": [
        {
          "internalType": "address",
          "name": "_policyCenter",
          "type": "address"
        },
        {
          "internalType": "address",
          "name": "_crFactory",
          "type": "address"
        },
        {
          "internalType": "address",
          "name": "_priorityPoolFactory",
          "type": "address"
        }
      ],
      "name": "initialize",
      "outputs": [],
      "stateMutability": "nonpayable",
      "type": "function"
    },
    {
      "inputs": [
        {
          "internalType": "uint256",
          "name": "_poolId",
          "type": "uint256"
        },
        {
          "internalType": "uint256",
          "name": "_generation",
          "type": "uint256"
        },
        {
          "internalType": "uint256",
          "name": "_amount",
          "type": "uint256"
        },
        {
          "internalType": "uint256",
          "name": "_ratio",
          "type": "uint256"
        },
        {
          "internalType": "uint256",
          "name": "_coverIndex",
          "type": "uint256"
        },
        {
          "internalType": "address",
          "name": "_poolAddress",
          "type": "address"
        }
      ],
      "name": "newPayout",
      "outputs": [],
      "stateMutability": "nonpayable",
      "type": "function"
    },
    {
      "inputs": [
        {
          "internalType": "uint256",
          "name": "",
          "type": "uint256"
        },
        {
          "internalType": "uint256",
          "name": "",
          "type": "uint256"
        }
      ],
      "name": "payouts",
      "outputs": [
        {
          "internalType": "uint256",
          "name": "amount",
          "type": "uint256"
        },
        {
          "internalType": "uint256",
          "name": "remaining",
          "type": "uint256"
        },
        {
          "internalType": "uint256",
          "name": "endTiemstamp",
          "type": "uint256"
        },
        {
          "internalType": "uint256",
          "name": "ratio",
          "type": "uint256"
        },
        {
          "internalType": "uint256",
          "name": "coverIndex",
          "type": "uint256"
        },
        {
          "internalType": "address",
          "name": "priorityPool",
          "type": "address"
        }
      ],
      "stateMutability": "view",
      "type": "function"
    },
    {
      "inputs": [],
      "name": "policyCenter",
      "outputs": [
        {
          "internalType": "address",
          "name": "",
          "type": "address"
        }
      ],
      "stateMutability": "view",
      "type": "function"
    },
    {
      "inputs": [],
      "name": "priorityPoolFactory",
      "outputs": [
        {
          "internalType": "address",
          "name": "",
          "type": "address"
        }
      ],
      "stateMutability": "view",
      "type": "function"
    }
  ],
  "transactionHash": "0xfdb55f576b93b1a59d001f2f1c798df62356365150f2c7cdd5d7c6eaae422afd",
  "args": [],
  "numDeployments": 3,
  "solcInputHash": "6b9a20a2312638400b48edb20ccbe878",
  "bytecode": "0x6080806040523461001657610a7a908161001c8239f35b600080fdfe608060408181526004918236101561001657600080fd5b600092833560e01c91826321241dfe146108b35750816326af4832146104a5578163304de873146104345781636f8a6e431461040b57816389a30271146103dc5781639661994514610291578163c0c53b8b1461010857508063e8adbf2f146100e0578063eced5526146100c15763f4ecd0911461009357600080fd5b346100bd57816003193601126100bd579054905160109190911c6001600160a01b03168152602090f35b5080fd5b50346100bd57816003193601126100bd576020905164e8d4a510008152f35b50346100bd57816003193601126100bd5760015490516001600160a01b039091168152602090f35b90503461028d57606036600319011261028d576101236108d0565b9061012c6108e6565b906044356001600160a01b038181169182900361028857865460ff8160081c16159384809561027b575b8015610264575b1561020a575060ff1981166001178855836101f9575b5060018060a01b0319941684600154161760015585549262010000600160b01b039060101b16938462010000600160b01b0319851617875560025416176002556101bc57505051f35b610100600160b01b0319161782558051600181527f7f26b83ff96e1f2b6a682f133852f6798a09c465da95921460cefb384740249890602090a151f35b61ffff191661010117875538610173565b608490602089519162461bcd60e51b8352820152602e60248201527f496e697469616c697a61626c653a20636f6e747261637420697320616c72656160448201526d191e481a5b9a5d1a585b1a5e995960921b6064820152fd5b50303b15801561015d5750600160ff83161461015d565b50600160ff831610610156565b600080fd5b8280fd5b90503461028d5760c036600319011261028d5780359060243590606435906044359060a4356001600160a01b038181169291839003610288578089602492600254168a51938480926315895f4760e31b82528c888301525afa9182156103d2578a926103a9575b503391160361039b5785885260036020528688208589526020528688209083825562278d00194211610388574262278d00016002830155600382018590556084359082015560050180546001600160a01b031916909117905584519283526020830152818401527fd303ba41003252f101801d7b067a3b4ccab80e936da6462f7ead1a40c1eb941d90606090a251f35b634e487b7160e01b895260119052602488fd5b865163f6c16f2960e01b8152fd5b6103c69192503d808c833e6103be8183610926565b81019061095c565b505050905090386102f8565b89513d8c823e3d90fd5b5050346100bd57816003193601126100bd57602090517323d0cddc1ea9fcc5ca9ec6b5fc77e304bce8d4c38152f35b5050346100bd57816003193601126100bd5760025490516001600160a01b039091168152602090f35b9190503461028d578060031936011261028d578060c09383358152600360205281812060243582526020522080549260018201549260028301549060038401549284015493600560018060a01b039101541694815196875260208701528501526060840152608083015260a0820152f35b8284346108b05760803660031901126108b0576104c06108d0565b926104c96108e6565b93604435926064359060018060a01b0393846001541633036108a2578582526020956003875287832084845287528588842099168851916370c264df60e11b835288838581855afa928315610898578593610869575b50895189810196828852848c830152606082015260608152608081019681881067ffffffffffffffff891117610856578a888092818f52845190208c8a5460101c1690631620909560e01b8352608486015260249a8b915afa91821561084c57918a918c86948a93610811575b50505016036108015789516382b2ed1360e01b81529688168488018190529289888881865afa9788156107f75786986107b3575b5064e8d4a510006105d560038e01548a610a1b565b049889156107a35787876127108e9f8d8a6105f292015490610a1b565b049d83600254169051928380926315895f4760e31b8252888c8301525afa90811561079957889161077a575b501690813b15610776578b604488928f84905195869485936377f2c84b60e01b85528c8501528d8401525af1801561076c57610759575b50813b15610755578491606483928d519485938492634f752fb360e11b845289840152878b8401528b60448401525af1801561074b57908491610737575b505088519063a9059cbb60e01b82528282015287848201528681604481867323d0cddc1ea9fcc5ca9ec6b5fc77e304bce8d4c35af1801561072d576106fa575b508484106106ea5750505084519384520390820152f35b634e487b7160e01b825260119052fd5b8681813d8311610726575b61070f8183610926565b8101031261028d5751801515036100bd57886106d3565b503d610705565b89513d85823e3d90fd5b610740906108fc565b61028d57828a610693565b8a513d86823e3d90fd5b8480fd5b610765909591956108fc565b938b610655565b8c513d88823e3d90fd5b8680fd5b61078e91503d808a833e6103be8183610926565b50505090508e61061e565b8e513d8a823e3d90fd5b8b51636a2f23b760e01b81528690fd5b9b9a99809998508c813d83116107f0575b6107ce8183610926565b810103126107ec579a51999a9899979896979664e8d4a510006105c0565b8580fd5b503d6107c4565b8b513d88823e3d90fd5b89516374da7ab160e01b81528490fd5b925092509250813d8311610845575b61082a8185610926565b810103126107ec578861083d8492610948565b8e8c8161058c565b503d610820565b8c513d89823e3d90fd5b634e487b7160e01b875260418652602487fd5b9092508881813d8311610891575b6108818183610926565b810103126107555751918b61051f565b503d610877565b8a513d87823e3d90fd5b86516321d0c2eb60e11b8152fd5b80fd5b8490346100bd57816003193601126100bd578062278d0060209252f35b600435906001600160a01b038216820361028857565b602435906001600160a01b038216820361028857565b67ffffffffffffffff811161091057604052565b634e487b7160e01b600052604160045260246000fd5b90601f8019910116810190811067ffffffffffffffff82111761091057604052565b51906001600160a01b038216820361028857565b909160a08284031261028857815167ffffffffffffffff908181116102885783019084601f8301121561028857815190811161091057604051916020956109ac87601f19601f8601160185610926565b828452868383010111610288579190856000935b828510610a065750816109dd94116109f8575b5050938301610948565b916109ea60408201610948565b916080606083015192015190565b6000918301015238856109d3565b848101820151848601830152938101936109c0565b8060001904821181151516610a2e570290565b634e487b7160e01b600052601160045260246000fdfea264697066735822122027bb97f83cda053ce42c2069a3ef4ceef4a164b0892c6db62dd05fb1bf18eef364736f6c634300080f0033",
  "devdoc": {
    "kind": "dev",
    "methods": {
      "claim(address,address,uint256,uint256)": {
        "params": {
          "_crToken": "Cover right token address",
          "_generation": "Generation of priority pool (started at 1)",
          "_poolId": "Pool Id",
          "_user": "User address"
        },
        "returns": {
          "claimed": "              The actual amount transferred to the user",
          "newGenerationCRAmount": "New generation crToken minted to the user"
        }
      },
      "newPayout(uint256,uint256,uint256,uint256,uint256,address)": {
        "params": {
          "_amount": "Total amount to be claimed",
          "_generation": "Generation of priority pool (start at 1)",
          "_poolAddress": "Address of priority pool",
          "_poolId": "Pool Id",
          "_ratio": "Payout ratio of this payout (users can only use part of their crTokens to claim)"
        }
      }
    },
    "version": 1
  },
  "userdoc": {
    "kind": "user",
    "methods": {
      "claim(address,address,uint256,uint256)": {
        "notice": "Claim payout for a user         Only callable from policy center         Need provide certain crToken address and generation"
      },
      "newPayout(uint256,uint256,uint256,uint256,uint256,address)": {
        "notice": "New payout comes in         Only callable from one of the priority pools         After the pool's report is passed and executed,         part of the assets will be moved to this pool."
      }
    },
    "notice": "Payout Pool         Every time there is a report passed, some assets will be moved to this pool         It is stored as a Payout struct         - amount       Total amount of this payout         - remaining    Remaining amount         - endTimestamp After this timestamp, no more claims         - ratio        Max ratio of a user's crToken",
    "version": 1
  },
  "storageLayout": {
    "storage": [
      {
        "astId": 184,
        "contract": "src/pools/payoutPool/PayoutPool.sol:PayoutPool",
        "label": "_initialized",
        "offset": 0,
        "slot": "0",
        "type": "t_uint8"
      },
      {
        "astId": 187,
        "contract": "src/pools/payoutPool/PayoutPool.sol:PayoutPool",
        "label": "_initializing",
        "offset": 1,
        "slot": "0",
        "type": "t_bool"
      },
      {
        "astId": 10675,
        "contract": "src/pools/payoutPool/PayoutPool.sol:PayoutPool",
        "label": "crFactory",
        "offset": 2,
        "slot": "0",
        "type": "t_address"
      },
      {
        "astId": 10677,
        "contract": "src/pools/payoutPool/PayoutPool.sol:PayoutPool",
        "label": "policyCenter",
        "offset": 0,
        "slot": "1",
        "type": "t_address"
      },
      {
        "astId": 10679,
        "contract": "src/pools/payoutPool/PayoutPool.sol:PayoutPool",
        "label": "priorityPoolFactory",
        "offset": 0,
        "slot": "2",
        "type": "t_address"
      },
      {
        "astId": 10699,
        "contract": "src/pools/payoutPool/PayoutPool.sol:PayoutPool",
        "label": "payouts",
        "offset": 0,
        "slot": "3",
        "type": "t_mapping(t_uint256,t_mapping(t_uint256,t_struct(Payout)10692_storage))"
      }
    ],
    "types": {
      "t_address": {
        "encoding": "inplace",
        "label": "address",
        "numberOfBytes": "20"
      },
      "t_bool": {
        "encoding": "inplace",
        "label": "bool",
        "numberOfBytes": "1"
      },
      "t_mapping(t_uint256,t_mapping(t_uint256,t_struct(Payout)10692_storage))": {
        "encoding": "mapping",
        "key": "t_uint256",
        "label": "mapping(uint256 => mapping(uint256 => struct PayoutPool.Payout))",
        "numberOfBytes": "32",
        "value": "t_mapping(t_uint256,t_struct(Payout)10692_storage)"
      },
      "t_mapping(t_uint256,t_struct(Payout)10692_storage)": {
        "encoding": "mapping",
        "key": "t_uint256",
        "label": "mapping(uint256 => struct PayoutPool.Payout)",
        "numberOfBytes": "32",
        "value": "t_struct(Payout)10692_storage"
      },
      "t_struct(Payout)10692_storage": {
        "encoding": "inplace",
        "label": "struct PayoutPool.Payout",
        "members": [
          {
            "astId": 10681,
            "contract": "src/pools/payoutPool/PayoutPool.sol:PayoutPool",
            "label": "amount",
            "offset": 0,
            "slot": "0",
            "type": "t_uint256"
          },
          {
            "astId": 10683,
            "contract": "src/pools/payoutPool/PayoutPool.sol:PayoutPool",
            "label": "remaining",
            "offset": 0,
            "slot": "1",
            "type": "t_uint256"
          },
          {
            "astId": 10685,
            "contract": "src/pools/payoutPool/PayoutPool.sol:PayoutPool",
            "label": "endTiemstamp",
            "offset": 0,
            "slot": "2",
            "type": "t_uint256"
          },
          {
            "astId": 10687,
            "contract": "src/pools/payoutPool/PayoutPool.sol:PayoutPool",
            "label": "ratio",
            "offset": 0,
            "slot": "3",
            "type": "t_uint256"
          },
          {
            "astId": 10689,
            "contract": "src/pools/payoutPool/PayoutPool.sol:PayoutPool",
            "label": "coverIndex",
            "offset": 0,
            "slot": "4",
            "type": "t_uint256"
          },
          {
            "astId": 10691,
            "contract": "src/pools/payoutPool/PayoutPool.sol:PayoutPool",
            "label": "priorityPool",
            "offset": 0,
            "slot": "5",
            "type": "t_address"
          }
        ],
        "numberOfBytes": "192"
      },
      "t_uint256": {
        "encoding": "inplace",
        "label": "uint256",
        "numberOfBytes": "32"
      },
      "t_uint8": {
        "encoding": "inplace",
        "label": "uint8",
        "numberOfBytes": "1"
      }
    }
  }
}