{
  "address": "0x353F24A05BD7BDE6bFb7e7F38EDE920581EE635D",
  "abi": [
    {
      "inputs": [],
      "name": "PolicyCenter__AlreadyClaimedPayout",
      "type": "error"
    },
    {
      "inputs": [],
      "name": "PolicyCenter__BadLength",
      "type": "error"
    },
    {
      "inputs": [],
      "name": "PolicyCenter__InsufficientCapacity",
      "type": "error"
    },
    {
      "inputs": [],
      "name": "PolicyCenter__InvalidPremiumSplit",
      "type": "error"
    },
    {
      "inputs": [],
      "name": "PolicyCenter__NoExchange",
      "type": "error"
    },
    {
      "inputs": [],
      "name": "PolicyCenter__NoLiquidity",
      "type": "error"
    },
    {
      "inputs": [],
      "name": "PolicyCenter__NoPayout",
      "type": "error"
    },
    {
      "inputs": [],
      "name": "PolicyCenter__NonExistentPool",
      "type": "error"
    },
    {
      "inputs": [],
      "name": "PolicyCenter__OnlyPriorityPoolFactory",
      "type": "error"
    },
    {
      "inputs": [],
      "name": "PolicyCenter__OnlyTreasury",
      "type": "error"
    },
    {
      "inputs": [],
      "name": "PolicyCenter__PoolPaused",
      "type": "error"
    },
    {
      "inputs": [],
      "name": "PolicyCenter__PremiumTooHigh",
      "type": "error"
    },
    {
      "inputs": [],
      "name": "PolicyCenter__WrongPath",
      "type": "error"
    },
    {
      "inputs": [],
      "name": "PolicyCenter__WrongPriorityPoolID",
      "type": "error"
    },
    {
      "inputs": [],
      "name": "PolicyCenter__ZeroAmount",
      "type": "error"
    },
    {
      "inputs": [],
      "name": "PolicyCenter__ZeroPremium",
      "type": "error"
    },
    {
      "anonymous": false,
      "inputs": [
        {
          "indexed": true,
          "internalType": "address",
          "name": "buyer",
          "type": "address"
        },
        {
          "indexed": true,
          "internalType": "uint256",
          "name": "poolId",
          "type": "uint256"
        },
        {
          "indexed": false,
          "internalType": "uint256",
          "name": "coverDuration",
          "type": "uint256"
        },
        {
          "indexed": false,
          "internalType": "uint256",
          "name": "coverAmount",
          "type": "uint256"
        },
        {
          "indexed": false,
          "internalType": "uint256",
          "name": "premiumInUSDC",
          "type": "uint256"
        }
      ],
      "name": "CoverBought",
      "type": "event"
    },
    {
      "anonymous": false,
      "inputs": [
        {
          "indexed": false,
          "internalType": "uint8",
          "name": "version",
          "type": "uint8"
        }
      ],
      "name": "Initialized",
      "type": "event"
    },
    {
      "anonymous": false,
      "inputs": [
        {
          "indexed": true,
          "internalType": "address",
          "name": "user",
          "type": "address"
        },
        {
          "indexed": false,
          "internalType": "uint256",
          "name": "amount",
          "type": "uint256"
        }
      ],
      "name": "LiquidityProvided",
      "type": "event"
    },
    {
      "anonymous": false,
      "inputs": [
        {
          "indexed": true,
          "internalType": "address",
          "name": "user",
          "type": "address"
        },
        {
          "indexed": false,
          "internalType": "uint256",
          "name": "amount",
          "type": "uint256"
        }
      ],
      "name": "LiquidityRemoved",
      "type": "event"
    },
    {
      "anonymous": false,
      "inputs": [
        {
          "indexed": true,
          "internalType": "address",
          "name": "user",
          "type": "address"
        },
        {
          "indexed": true,
          "internalType": "uint256",
          "name": "poolId",
          "type": "uint256"
        },
        {
          "indexed": false,
          "internalType": "uint256",
          "name": "amount",
          "type": "uint256"
        }
      ],
      "name": "LiquidityStaked",
      "type": "event"
    },
    {
      "anonymous": false,
      "inputs": [
        {
          "indexed": true,
          "internalType": "address",
          "name": "user",
          "type": "address"
        },
        {
          "indexed": true,
          "internalType": "uint256",
          "name": "poolId",
          "type": "uint256"
        },
        {
          "indexed": false,
          "internalType": "uint256",
          "name": "amount",
          "type": "uint256"
        }
      ],
      "name": "LiquidityStakedWithoutFarming",
      "type": "event"
    },
    {
      "anonymous": false,
      "inputs": [
        {
          "indexed": true,
          "internalType": "address",
          "name": "user",
          "type": "address"
        },
        {
          "indexed": true,
          "internalType": "uint256",
          "name": "poolId",
          "type": "uint256"
        },
        {
          "indexed": false,
          "internalType": "address",
          "name": "priorityLP",
          "type": "address"
        },
        {
          "indexed": false,
          "internalType": "uint256",
          "name": "amount",
          "type": "uint256"
        }
      ],
      "name": "LiquidityUnstaked",
      "type": "event"
    },
    {
      "anonymous": false,
      "inputs": [
        {
          "indexed": true,
          "internalType": "address",
          "name": "user",
          "type": "address"
        },
        {
          "indexed": true,
          "internalType": "uint256",
          "name": "poolId",
          "type": "uint256"
        },
        {
          "indexed": false,
          "internalType": "address",
          "name": "priorityLP",
          "type": "address"
        },
        {
          "indexed": false,
          "internalType": "uint256",
          "name": "amount",
          "type": "uint256"
        }
      ],
      "name": "LiquidityUnstakedWithoutFarming",
      "type": "event"
    },
    {
      "anonymous": false,
      "inputs": [
        {
          "indexed": true,
          "internalType": "address",
          "name": "previousOwner",
          "type": "address"
        },
        {
          "indexed": true,
          "internalType": "address",
          "name": "newOwner",
          "type": "address"
        }
      ],
      "name": "OwnershipTransferred",
      "type": "event"
    },
    {
      "anonymous": false,
      "inputs": [
        {
          "indexed": true,
          "internalType": "address",
          "name": "user",
          "type": "address"
        },
        {
          "indexed": false,
          "internalType": "uint256",
          "name": "amount",
          "type": "uint256"
        }
      ],
      "name": "PayoutClaimed",
      "type": "event"
    },
    {
      "anonymous": false,
      "inputs": [
        {
          "indexed": false,
          "internalType": "uint256",
          "name": "toPriority",
          "type": "uint256"
        },
        {
          "indexed": false,
          "internalType": "uint256",
          "name": "toProtection",
          "type": "uint256"
        },
        {
          "indexed": false,
          "internalType": "uint256",
          "name": "toTreasury",
          "type": "uint256"
        }
      ],
      "name": "PremiumSplitted",
      "type": "event"
    },
    {
      "anonymous": false,
      "inputs": [
        {
          "indexed": false,
          "internalType": "address",
          "name": "fromToken",
          "type": "address"
        },
        {
          "indexed": false,
          "internalType": "uint256",
          "name": "amount",
          "type": "uint256"
        },
        {
          "indexed": false,
          "internalType": "uint256",
          "name": "received",
          "type": "uint256"
        }
      ],
      "name": "PremiumSwapped",
      "type": "event"
    },
    {
      "inputs": [],
      "name": "USDC",
      "outputs": [
        {
          "internalType": "address",
          "name": "",
          "type": "address"
        }
      ],
      "stateMutability": "view",
      "type": "function"
    },
    {
      "inputs": [
        {
          "internalType": "address",
          "name": "_token",
          "type": "address"
        }
      ],
      "name": "approvePoolToken",
      "outputs": [],
      "stateMutability": "nonpayable",
      "type": "function"
    },
    {
      "inputs": [
        {
          "internalType": "uint256",
          "name": "_poolId",
          "type": "uint256"
        },
        {
          "internalType": "uint256",
          "name": "_coverAmount",
          "type": "uint256"
        },
        {
          "internalType": "uint256",
          "name": "_coverDuration",
          "type": "uint256"
        },
        {
          "internalType": "uint256",
          "name": "_maxPayment",
          "type": "uint256"
        },
        {
          "internalType": "address[]",
          "name": "path",
          "type": "address[]"
        }
      ],
      "name": "buyCover",
      "outputs": [
        {
          "internalType": "address",
          "name": "",
          "type": "address"
        }
      ],
      "stateMutability": "nonpayable",
      "type": "function"
    },
    {
      "inputs": [
        {
          "internalType": "uint256",
          "name": "_poolId",
          "type": "uint256"
        },
        {
          "internalType": "address",
          "name": "_crToken",
          "type": "address"
        },
        {
          "internalType": "uint256",
          "name": "_generation",
          "type": "uint256"
        }
      ],
      "name": "claimPayout",
      "outputs": [],
      "stateMutability": "nonpayable",
      "type": "function"
    },
    {
      "inputs": [],
      "name": "coverRightTokenFactory",
      "outputs": [
        {
          "internalType": "address",
          "name": "",
          "type": "address"
        }
      ],
      "stateMutability": "view",
      "type": "function"
    },
    {
      "inputs": [
        {
          "internalType": "uint256",
          "name": "_poolId",
          "type": "uint256"
        }
      ],
      "name": "currentLPAddress",
      "outputs": [
        {
          "internalType": "address",
          "name": "lpAddress",
          "type": "address"
        }
      ],
      "stateMutability": "view",
      "type": "function"
    },
    {
      "inputs": [],
      "name": "dexPriceGetter",
      "outputs": [
        {
          "internalType": "address",
          "name": "",
          "type": "address"
        }
      ],
      "stateMutability": "view",
      "type": "function"
    },
    {
      "inputs": [],
      "name": "exchange",
      "outputs": [
        {
          "internalType": "address",
          "name": "",
          "type": "address"
        }
      ],
      "stateMutability": "view",
      "type": "function"
    },
    {
      "inputs": [
        {
          "internalType": "address",
          "name": "",
          "type": "address"
        }
      ],
      "name": "exchangeByToken",
      "outputs": [
        {
          "internalType": "address",
          "name": "",
          "type": "address"
        }
      ],
      "stateMutability": "view",
      "type": "function"
    },
    {
      "inputs": [
        {
          "internalType": "address",
          "name": "_deg",
          "type": "address"
        },
        {
          "internalType": "address",
          "name": "_veDeg",
          "type": "address"
        },
        {
          "internalType": "address",
          "name": "_protectionPool",
          "type": "address"
        }
      ],
      "name": "initialize",
      "outputs": [],
      "stateMutability": "nonpayable",
      "type": "function"
    },
    {
      "inputs": [
        {
          "internalType": "address",
          "name": "",
          "type": "address"
        }
      ],
      "name": "oracleType",
      "outputs": [
        {
          "internalType": "uint256",
          "name": "",
          "type": "uint256"
        }
      ],
      "stateMutability": "view",
      "type": "function"
    },
    {
      "inputs": [],
      "name": "owner",
      "outputs": [
        {
          "internalType": "address",
          "name": "",
          "type": "address"
        }
      ],
      "stateMutability": "view",
      "type": "function"
    },
    {
      "inputs": [],
      "name": "payoutPool",
      "outputs": [
        {
          "internalType": "address",
          "name": "",
          "type": "address"
        }
      ],
      "stateMutability": "view",
      "type": "function"
    },
    {
      "inputs": [],
      "name": "priceGetter",
      "outputs": [
        {
          "internalType": "address",
          "name": "",
          "type": "address"
        }
      ],
      "stateMutability": "view",
      "type": "function"
    },
    {
      "inputs": [],
      "name": "priorityPoolFactory",
      "outputs": [
        {
          "internalType": "address",
          "name": "",
          "type": "address"
        }
      ],
      "stateMutability": "view",
      "type": "function"
    },
    {
      "inputs": [
        {
          "internalType": "uint256",
          "name": "",
          "type": "uint256"
        }
      ],
      "name": "priorityPools",
      "outputs": [
        {
          "internalType": "address",
          "name": "",
          "type": "address"
        }
      ],
      "stateMutability": "view",
      "type": "function"
    },
    {
      "inputs": [],
      "name": "protectionPool",
      "outputs": [
        {
          "internalType": "address",
          "name": "",
          "type": "address"
        }
      ],
      "stateMutability": "view",
      "type": "function"
    },
    {
      "inputs": [
        {
          "internalType": "uint256",
          "name": "_amount",
          "type": "uint256"
        }
      ],
      "name": "provideLiquidity",
      "outputs": [],
      "stateMutability": "nonpayable",
      "type": "function"
    },
    {
      "inputs": [
        {
          "internalType": "uint256",
          "name": "_amount",
          "type": "uint256"
        }
      ],
      "name": "removeLiquidity",
      "outputs": [],
      "stateMutability": "nonpayable",
      "type": "function"
    },
    {
      "inputs": [],
      "name": "renounceOwnership",
      "outputs": [],
      "stateMutability": "nonpayable",
      "type": "function"
    },
    {
      "inputs": [
        {
          "internalType": "address",
          "name": "_coverRightTokenFactory",
          "type": "address"
        }
      ],
      "name": "setCoverRightTokenFactory",
      "outputs": [],
      "stateMutability": "nonpayable",
      "type": "function"
    },
    {
      "inputs": [
        {
          "internalType": "address",
          "name": "_dexPriceGetter",
          "type": "address"
        }
      ],
      "name": "setDexPriceGetter",
      "outputs": [],
      "stateMutability": "nonpayable",
      "type": "function"
    },
    {
      "inputs": [
        {
          "internalType": "address",
          "name": "_exchange",
          "type": "address"
        }
      ],
      "name": "setExchange",
      "outputs": [],
      "stateMutability": "nonpayable",
      "type": "function"
    },
    {
      "inputs": [
        {
          "internalType": "address",
          "name": "_token",
          "type": "address"
        },
        {
          "internalType": "address",
          "name": "_exchange",
          "type": "address"
        }
      ],
      "name": "setExchangeByToken",
      "outputs": [],
      "stateMutability": "nonpayable",
      "type": "function"
    },
    {
      "inputs": [
        {
          "internalType": "address",
          "name": "_token",
          "type": "address"
        },
        {
          "internalType": "uint256",
          "name": "_type",
          "type": "uint256"
        }
      ],
      "name": "setOracleType",
      "outputs": [],
      "stateMutability": "nonpayable",
      "type": "function"
    },
    {
      "inputs": [
        {
          "internalType": "address",
          "name": "_payoutPool",
          "type": "address"
        }
      ],
      "name": "setPayoutPool",
      "outputs": [],
      "stateMutability": "nonpayable",
      "type": "function"
    },
    {
      "inputs": [
        {
          "internalType": "address",
          "name": "_priceGetter",
          "type": "address"
        }
      ],
      "name": "setPriceGetter",
      "outputs": [],
      "stateMutability": "nonpayable",
      "type": "function"
    },
    {
      "inputs": [
        {
          "internalType": "address",
          "name": "_priorityPoolFactory",
          "type": "address"
        }
      ],
      "name": "setPriorityPoolFactory",
      "outputs": [],
      "stateMutability": "nonpayable",
      "type": "function"
    },
    {
      "inputs": [
        {
          "internalType": "address",
          "name": "_protectionPool",
          "type": "address"
        }
      ],
      "name": "setProtectionPool",
      "outputs": [],
      "stateMutability": "nonpayable",
      "type": "function"
    },
    {
      "inputs": [
        {
          "internalType": "address",
          "name": "_treasury",
          "type": "address"
        }
      ],
      "name": "setTreasury",
      "outputs": [],
      "stateMutability": "nonpayable",
      "type": "function"
    },
    {
      "inputs": [
        {
          "internalType": "address",
          "name": "_weightedFarmingPool",
          "type": "address"
        }
      ],
      "name": "setWeightedFarmingPool",
      "outputs": [],
      "stateMutability": "nonpayable",
      "type": "function"
    },
    {
      "inputs": [
        {
          "internalType": "uint256",
          "name": "_poolId",
          "type": "uint256"
        },
        {
          "internalType": "uint256",
          "name": "_amount",
          "type": "uint256"
        }
      ],
      "name": "stakeLiquidity",
      "outputs": [],
      "stateMutability": "nonpayable",
      "type": "function"
    },
    {
      "inputs": [
        {
          "internalType": "uint256",
          "name": "_poolId",
          "type": "uint256"
        },
        {
          "internalType": "uint256",
          "name": "_amount",
          "type": "uint256"
        }
      ],
      "name": "stakeLiquidityWithoutFarming",
      "outputs": [],
      "stateMutability": "nonpayable",
      "type": "function"
    },
    {
      "inputs": [
        {
          "internalType": "address",
          "name": "_pool",
          "type": "address"
        },
        {
          "internalType": "address",
          "name": "_token",
          "type": "address"
        },
        {
          "internalType": "uint256",
          "name": "_poolId",
          "type": "uint256"
        }
      ],
      "name": "storePoolInformation",
      "outputs": [],
      "stateMutability": "nonpayable",
      "type": "function"
    },
    {
      "inputs": [
        {
          "internalType": "uint256",
          "name": "",
          "type": "uint256"
        }
      ],
      "name": "tokenByPoolId",
      "outputs": [
        {
          "internalType": "address",
          "name": "",
          "type": "address"
        }
      ],
      "stateMutability": "view",
      "type": "function"
    },
    {
      "inputs": [
        {
          "internalType": "address",
          "name": "newOwner",
          "type": "address"
        }
      ],
      "name": "transferOwnership",
      "outputs": [],
      "stateMutability": "nonpayable",
      "type": "function"
    },
    {
      "inputs": [],
      "name": "treasury",
      "outputs": [
        {
          "internalType": "address",
          "name": "",
          "type": "address"
        }
      ],
      "stateMutability": "view",
      "type": "function"
    },
    {
      "inputs": [
        {
          "internalType": "uint256",
          "name": "_poolId",
          "type": "uint256"
        },
        {
          "internalType": "address",
          "name": "_priorityLP",
          "type": "address"
        },
        {
          "internalType": "uint256",
          "name": "_amount",
          "type": "uint256"
        }
      ],
      "name": "unstakeLiquidity",
      "outputs": [],
      "stateMutability": "nonpayable",
      "type": "function"
    },
    {
      "inputs": [
        {
          "internalType": "uint256",
          "name": "_poolId",
          "type": "uint256"
        },
        {
          "internalType": "address",
          "name": "_priorityLP",
          "type": "address"
        },
        {
          "internalType": "uint256",
          "name": "_amount",
          "type": "uint256"
        }
      ],
      "name": "unstakeLiquidityWithoutFarming",
      "outputs": [],
      "stateMutability": "nonpayable",
      "type": "function"
    },
    {
      "inputs": [],
      "name": "weightedFarmingPool",
      "outputs": [
        {
          "internalType": "address",
          "name": "",
          "type": "address"
        }
      ],
      "stateMutability": "view",
      "type": "function"
    }
  ],
  "transactionHash": "0x99c77faf9666631f884b6ba0619f3434bb9b9f4b6430a1c84fa620410e357dd3",
  "args": [],
  "numDeployments": 3,
  "solcInputHash": "b57206096d9df9b6206c56f30245a8a6",
  "bytecode": "0x608080604052346100165761380e908161001c8239f35b600080fdfe6080604052600436101561001257600080fd5b6000803560e01c80625971b11461287d5780630121cff514612834578063056d7e58146128015780631b96666e146127c8578063298d4dd01461277f57806339827304146126db5780633f81ff26146126925780634ea4c6b31461242457806357ad8f0b146123c657806358bf0f2c1461237d57806361d027b3146123545780636273106a1461232b57806367b1f5df146122e257806367c0dd821461214257806367e03b54146121195780636c1b700f146120f05780636f8a6e43146120c7578063715018a61461205857806389a30271146120295780638da5cb5b14611ffe5780639549bd9a14611fd55780639c8f9f2314611f1e578063a4fd14b314611ee3578063a8bf604d14611eaa578063aa139d5b14611e61578063ab07211e14611cb6578063ad35e1dc14611c6d578063b0db637e14611c1b578063b567dc6a14611bf2578063b6cccdd014611b4f578063bee7fd9214610b02578063bef1e500146107da578063c0c53b8b14610606578063c2260f481461049f578063ceed1b9014610476578063d2f7265a1461044d578063eb521a4c146102ed578063f02bbc52146102ba578063f0f44260146102715763f2fde38b146101d457600080fd5b3461026e57602036600319011261026e576101ed6128c6565b60018060a01b0361020581845460101c1633146129ac565b81161561021a5761021590613778565b604051f35b60405162461bcd60e51b815260206004820152602660248201527f4f776e61626c653a206e6577206f776e657220697320746865207a65726f206160448201526564647265737360d01b6064820152608490fd5b80fd5b503461026e57602036600319011261026e5761028b6128c6565b60018060a01b03906102a482845460101c1633146129ac565b1660018060a01b0319603b541617603b55604051f35b503461026e57602036600319011261026e576020906004358152603e8252604060018060a01b0391205416604051908152f35b503461026e57602036600319011261026e57600435801561043b576034546001600160a01b03908116803b15610437576040516344abf1a960e01b81526004810184905233602482015290849081908390604490829084905af191821561042a57849261040f575b50506034546040516323b872dd60e01b8152926020928492839261037f92911633600485016129fd565b0381867323d0cddc1ea9fcc5ca9ec6b5fc77e304bce8d4c35af18015610404576103d6575b506040519081527fccb2ae3a2936bf4c94fa4e12cdf0cdad6ed0e4888a044cef89afa60f2e4b92d360203392a2604051f35b6103f69060203d81116103fd575b6103ee8183612960565b8101906129e5565b50386103a4565b503d6103e4565b6040513d85823e3d90fd5b61041a919250612932565b61042657818338610355565b8280fd5b50604051903d90823e3d90fd5b8380fd5b604051631613633b60e01b8152600490fd5b503461026e578060031936011261026e576039546040516001600160a01b039091168152602090f35b503461026e578060031936011261026e576035546040516001600160a01b039091168152602090f35b503461026e576104ae36612908565b821580156105e9575b6105d757801561043b57828452603d602052604084205484906001600160a01b03908116803b15610426576040516301733ea560e41b81526001600160a01b0386166004820152602481018590523360448201529083908290606490829084905af19081156104045783916105c3575b505060345416803b156105bf57818091604460405180948193630dfa376d60e01b83528160048401528860248401525af180156105b4576105a0575b50506105987fe44f6895444d7e27100c9f3a39dbf225380f26b7b7ad7cf0cebff9f7e00d5ab091604051918291339583612a1f565b0390a3604051f35b6105a990612932565b610437578338610563565b6040513d84823e3d90fd5b5080fd5b6105cc90612932565b6105bf578138610527565b604051635824d49b60e01b8152600490fd5b50828452603d60205260408420546001600160a01b0316156104b7565b503461026e57606036600319011261026e576106206128c6565b6106286128dc565b906044356001600160a01b0381811692918390036107d55784549360ff8560081c1615948580966107c8575b80156107b1575b156107555760ff198116600117875585610744575b5061068a60ff875460081c1661068581612e69565b612e69565b61069333613778565b6106a360ff875460081c16612e69565b8160018060a01b0319931683603254161760325516816033541617603355838052603d602052604084208282825416179055603e602052604084207323d0cddc1ea9fcc5ca9ec6b5fc77e304bce8d4c382825416179055603454161760345561070b57604051f35b61ff001981541681557f7f26b83ff96e1f2b6a682f133852f6798a09c465da95921460cefb3847402498602060405160018152a1604051f35b61ffff191661010117865538610670565b60405162461bcd60e51b815260206004820152602e60248201527f496e697469616c697a61626c653a20636f6e747261637420697320616c72656160448201526d191e481a5b9a5d1a585b1a5e995960921b6064820152608490fd5b50303b15801561065b5750600160ff82161461065b565b50600160ff821610610654565b600080fd5b503461026e576107e936612908565b909180158015610ae5575b6105d7576036546040516315895f4760e31b81526004810183905285946001600160a01b039286908390602490829087165afa8015610a2f5786928391610abf575b50604084608481603a54169483519687938492631357a41960e11b845233600485015216968760248401528a60448401528b60648401525af1958615610ab45787938897610a7d575b506040519384526020937fec68461f5d4cc45c89e914cb8826a966c73dd35e5f97815ece0a01ffa4a025a6853392a2866108ba575b87604051f35b83600493604051948580926370c264df60e11b82525afa928315610a72578893610a3a575b50906108ec889392612b27565b866108fb620151808504612f99565b5061090a848785999499612c32565b9689881615610983575b5050505050505090501691823b1561097e5760405163020da84160e61b8152600481019290925233602483015260448201529082908290606490829084905af180156105b45761096a575b8080808080806108b4565b61097390612932565b61026e57803861095f565b505050fd5b889697509061099d6109976109ad936136b5565b916136b5565b6109a6866136b5565b9187612b36565b936109d489603754169460405198899788968795636c1020a160e01b875260048701612bf8565b03925af1918215610a2f5786926109f5575b50508038808086898280610914565b90809250813d8311610a28575b610a0c8183612960565b81010312610a2457610a1d90612998565b38806109e6565b8480fd5b503d610a02565b6040513d88823e3d90fd5b8480929399508194503d8311610a6b575b610a558183612960565b810103126107d5579051879690916108ec6108df565b503d610a4b565b6040513d8a823e3d90fd5b909650610aa391935060403d604011610aad575b610a9b8183612960565b810190612b11565b929092953861087f565b503d610a91565b6040513d89823e3d90fd5b610adb91503d8085833e610ad38183612960565b810190612a8a565b5050505038610836565b50808452603d60205260408420546001600160a01b0316156107f4565b503461026e5760a036600319011261026e576084356001600160401b0381116105bf57366023820112156105bf57806004013590610b3f82612981565b90610b4d6040519283612960565b82825260208201906024829460051b8201019036821161154057602401915b818310611b2f57505050600435158015611b10575b6105d757604435151580611b03575b15611af157600480358452603d602090815260408086205460345491516370a0823160e01b81526001600160a01b0392831694810194909452169190816024817323d0cddc1ea9fcc5ca9ec6b5fc77e304bce8d4c35afa908115611a80578591611abf575b506040516359b6a0c960e01b8152602081600481865afa908115610a2f578691611a8b575b50612710610c2c602092600494612cfe565b049260405192838092636835185f60e11b82525afa8015611a80578590611a4c575b610c5b9150602435612d1c565b11611a3a576044906004358452603d602052604060018060a01b038186205416815193848092638905faeb60e01b82526024356004830152823560248301525afa80156115095784928591611a15575b506064358311611a0357610cc3620151804204612f99565b9150506001604435106119ef576019600019604435019110156119cb575b610cfb610cf2620151804204612f99565b93849391612d1c565b6001811061174057610d17600c91600019019282840490612d1c565b910660011981116117405792610d5092610d4b926001610d5c960191610d3d83836135b4565b8091116119c3575b50613359565b612ce6565b62015180420690612d1c565b4281106115405762015180610d719104612f99565b50610d8b610d4b610d84838599956135b4565b8389613359565b906201437019821161159f57610dd4196201437083011161159f57603b196201514483011161159f576036546040516315895f4760e31b81526004803590820152908990829060249082906001600160a01b03165afa928315611794576004938a928b9161199f575b50604051630b90ca9160e11b81529460209186919082906001600160a01b03165afa938415611994578a9461195d575b506201517f0191610e388484600435612c32565b986001600160a01b038a16156118ae575b50505050506001600160a01b0385163b156115405760405163020da84160e61b815260048035908201523360248083019190915235604482015286908181606481836001600160a01b038c165af180156105b45761189a575b50508315611888576004358652603e60205260018060a01b0360408720541691828752603f6020526040872054156000146117d1576035546040516302c68be360e31b81526004810185905290602090829060249082908c906001600160a01b03165af1908115610a7257889161179f575b505b60405163313ce56760e01b8152602081600481885afa908115611794578991611754575b50600660ff821610611740578660001904670de0b6b3a76400001160011661159f57604d60ff82811660051901161161174057610f8e9060ff9081166005190116600a0a670de0b6b3a76400008802612cfe565b811561172a576040516323b872dd60e01b6020820152610fc781610fb98585043033602485016129fd565b03601f198101835282612960565b604051610fd381612945565b602081527f5361666545524332303a206c6f772d6c6576656c2063616c6c206661696c65646020820152863b156116e5578a8083602061104195519101828b5af13d156116dd573d9061102582612a3a565b916110336040519384612960565b82523d8d602084013e613675565b80519081611668575b50506111949382820460001904851183830415151661159f57611077612710868585040204848404612d11565b9680519160018310611654577323d0cddc1ea9fcc5ca9ec6b5fc77e304bce8d4c36001600160a01b036110ae600019860185612d28565b51160361162c5781511561163e57516001600160a01b031687900361162c576040518060608101106001600160401b036060830111176116165780606060409201825260028152602036910137868b52604060205260018060a01b0360408c205416908b604051809363d06ca61f60e01b82528b600483015260406024830152818061113d6044820187612db5565b03915afa91821561160b578c926115ee575b506039546001600160a01b03169161116c90600019850190612d28565b519081600019046126ac118215151661159f5760011942116115da576126ac612710938e93848d6111c98296604051998a97889687956338ed173960e01b875260048701520204602484015260a0604484015260a4830190612db5565b30606483015260014201608483015203925af1801561042a577f57f3d153693ba34ad2f1603ab743de3caf14b05ffa2fdfae8e9d0947a17c7ca3936060938361121e94936115b5575b50506000190190612d28565b5197604051908882526020820152886040820152a18560001904611388118615151661159f57856112e0602061125d61157c6113888e9b020484612d11565b604080516127108888048b0204815261157c61138887020460208201529081018290529098907fe59d21244ca3bff81515b705214dab78cc9f978c1939e610874429ffa47380b290606090a160385460405163a9059cbb60e01b81529384929183918d918391906127108c8c048f0204906001600160a01b031660048401612a1f565b03925af18015610a725761157c9260209261138892611582575b5060345460405163a9059cbb60e01b8152948593849361132d93910291909104906001600160a01b031660048401612a1f565b03818a7323d0cddc1ea9fcc5ca9ec6b5fc77e304bce8d4c35af18015610ab457611563575b50603b5460405163a9059cbb60e01b81529060209082908190611383908a906001600160a01b031660048401612a1f565b03818a7323d0cddc1ea9fcc5ca9ec6b5fc77e304bce8d4c35af18015610ab457611544575b506034546001600160a01b0316803b1561152857868091600460405180948193621e432b60e81b83525af1908115610ab457879161152c575b50506004358652603d60205260408620546001600160a01b031690813b15611528578660849281956127106040519889978896630aadb77760e01b885260243560048901520402046024850152604435604485015260648401525af1908115610404578391611514575b5050603b546001600160a01b0316803b1561042657604483926040519485938492635b97d36760e01b8452600435600485015260248401525af18015611509576114f5575b60208383604051907f308dab4150a765534b441eef3367b2732d18bfdcd4b5ffe2a7084e1b1699051560043592806114e03394602435604435846040919493926060820195825260208201520152565b0390a36040516001600160a01b039091168152f35b6114ff8491612932565b6104265782611490565b6040513d86823e3d90fd5b61151d90612932565b6105bf57813861144b565b8680fd5b61153590612932565b6115405785386113e1565b8580fd5b61155c9060203d6020116103fd576103ee8183612960565b50386113a8565b61157b9060203d6020116103fd576103ee8183612960565b5038611352565b61159890843d86116103fd576103ee8183612960565b50386112fa565b634e487b7160e01b600052601160045260246000fd5b6115d29293503d8091833e6115ca8183612960565b810190612d3c565b90388e611212565b634e487b7160e01b8d52601160045260248dfd5b6116049192508c3d8091833e6115ca8183612960565b903861114f565b6040513d8e823e3d90fd5b634e487b7160e01b600052604160045260246000fd5b6040516310bc08dd60e01b8152600490fd5b634e487b7160e01b600052603260045260246000fd5b634e487b7160e01b8c52601160045260248cfd5b6020806116799383010191016129e5565b1561168557388061104a565b60405162461bcd60e51b815260206004820152602a60248201527f5361666545524332303a204552433230206f7065726174696f6e20646964206e6044820152691bdd081cdd58d8d9595960b21b6064820152608490fd5b606090613675565b60405162461bcd60e51b815260206004820152601d60248201527f416464726573733a2063616c6c20746f206e6f6e2d636f6e74726163740000006044820152606490fd5b634e487b7160e01b600052601260045260246000fd5b634e487b7160e01b89526011600452602489fd5b90506020813d60201161178c575b8161176f60209383612960565b81010312611788575160ff811681036117885738610f3a565b8880fd5b3d9150611762565b6040513d8b823e3d90fd5b90506020813d6020116117c9575b816117ba60209383612960565b810103126107d5575138610f14565b3d91506117ad565b604087205460010361185257603c546040516302c68be360e31b81526004810185905290602090829060249082908c906001600160a01b03165af1908115610a72578891611820575b50610f16565b90506020813d60201161184a575b8161183b60209383612960565b810103126107d557513861181a565b3d915061182e565b60405162461bcd60e51b815260206004820152600a60248201526957726f6e67207479706560b01b6044820152606490fd5b0390fd5b60405163720794bf60e01b8152600490fd5b6118a390612932565b611540578538610ea2565b602094959950906118c46109976118d4936136b5565b6118cd876136b5565b9184612b36565b8960018060a01b03603754169261190560405197889687958694636c1020a160e01b86526004359060048701612bf8565b03925af1908115610a2f578691611923575b50933880808080610e49565b90506020813d602011611955575b8161193e60209383612960565b810103126115405761194f90612998565b38611917565b3d9150611931565b9093506020813d60201161198c575b8161197960209383612960565b810103126107d55751926201517f610e24565b3d915061196c565b6040513d8c823e3d90fd5b602093506119b791503d808d833e610ad38183612960565b50505092909290610df4565b925038610d45565b600119106119db57604435610ce1565b634e487b7160e01b85526011600452602485fd5b634e487b7160e01b86526011600452602486fd5b60405163855e507b60e01b8152600490fd5b9050611a3191925060403d604011610aad57610a9b8183612960565b91909138610cab565b604051637730dc0b60e01b8152600490fd5b506020813d602011611a78575b81611a6660209383612960565b810103126107d557610c5b9051610c4e565b3d9150611a59565b6040513d87823e3d90fd5b90506020813d602011611ab7575b81611aa660209383612960565b810103126107d55751612710610c1a565b3d9150611a99565b90506020813d602011611ae9575b81611ada60209383612960565b810103126107d5575138610bf5565b3d9150611acd565b6040516307aaabcb60e21b8152600490fd5b5060036044351115610b90565b506004358352603d60205260408320546001600160a01b031615610b81565b82356001600160a01b03811681036107d557815260209283019201610b6c565b503461026e57606036600319011261026e57611b696128c6565b90611b726128dc565b60365460443593906001600160a01b039081163303611be0578415611bcc5783946102159452603e602052604085209060018060a01b03199181851683825416179055603d60205260408620921690825416179055612df2565b634e487b7160e01b84526001600452602484fd5b604051632b29402d60e21b8152600490fd5b503461026e578060031936011261026e576038546040516001600160a01b039091168152602090f35b503461026e57604036600319011261026e57611c356128c6565b6024359060018060a01b0390611c5282855460101c1633146129ac565b600283101561185257168252603f6020526040822055604051f35b503461026e57602036600319011261026e57611c876128c6565b60018060a01b0390611ca082845460101c1633146129ac565b1660018060a01b03196036541617603655604051f35b503461026e57611cc536612908565b82158015611e44575b6105d757801561043b5760385484906001600160a01b03908116803b15610426576040516316858d7960e21b8152600481018790526001600160a01b0386166024820152604481018590523360648201529083908290608490829084905af1908115610404578391611e30575b50859052603d60205280604083205416803b15610426576040516301733ea560e41b81526001600160a01b0386166004820152602481018590523360448201529083908290606490829084905af1908115610404578391611e1c575b505060345416803b156105bf57818091604460405180948193630dfa376d60e01b83528160048401528860248401525af180156105b457611e08575b50506105987f2dbdab27a2d16e827c458789b39587a960ef326f381f784ffa198426f367519791604051918291339583612a1f565b611e1190612932565b610437578338611dd3565b611e2590612932565b6105bf578138611d97565b611e3990612932565b6105bf578138611d3b565b50828452603d60205260408420546001600160a01b031615611cce565b503461026e57602036600319011261026e57611e7b6128c6565b60018060a01b0390611e9482845460101c1633146129ac565b1660018060a01b03196037541617603755604051f35b503461026e57602036600319011261026e57610215611ec76128c6565b611ede60018060a01b03845460101c1633146129ac565b612df2565b503461026e57602036600319011261026e576020906001600160a01b039060409082611f0d6128c6565b168152818452205416604051908152f35b503461026e576020806003193601126105bf5760043590811561043b57603454604051636d40d7d760e11b8152600481018490523360248201529082908290604490829088906001600160a01b03165af1801561150957611fab575b507fc2c3f06e49b9f15e7b4af9055e183b0d73362e033ad82a07dec9bf9840171719906040519283523392a2604051f35b8190813d8311611fce575b611fc08183612960565b810103126107d55738611f7a565b503d611fb6565b503461026e578060031936011261026e57603c546040516001600160a01b039091168152602090f35b503461026e578060031936011261026e575460405160109190911c6001600160a01b03168152602090f35b503461026e578060031936011261026e5760206040517323d0cddc1ea9fcc5ca9ec6b5fc77e304bce8d4c38152f35b503461026e578060031936011261026e5780546001600160a01b03906120849060101c821633146129ac565b6000546000604051928260101c167f8be0079c531659141344cd1fd0a4f28419497f9722a3daafe3b4186f6b6457e08285a362010000600160b01b031916600055f35b503461026e578060031936011261026e576036546040516001600160a01b039091168152602090f35b503461026e578060031936011261026e576034546040516001600160a01b039091168152602090f35b503461026e578060031936011261026e576037546040516001600160a01b039091168152602090f35b503461026e57612151366128f2565b811580156122c5575b6105d757801561043b57818352603d60209081526040808520549051630a43eeed60e11b81526004810184905233602482015285916001600160a01b0391908216848260448187855af18015611509578591879161228a575b6121dc9350846034541690866040518096819582946323b872dd60e01b845233600485016129fd565b03925af180156104045761226d575b5060345416803b156105bf57818091604460405180948193630dfa376d60e01b8352600160048401528960248401525af180156105b457612259575b50507f6ed71e479f5286ad6192bfdc2b224afa6073276d8f9a0e5028400f589fbb39cc906040519283523392a3604051f35b61226290612932565b610437578338612227565b61228390843d86116103fd576103ee8183612960565b50386121eb565b91905082813d83116122be575b6122a18183612960565b81010312610437578585916122b86121dc94612998565b506121b3565b503d612297565b50818352603d60205260408320546001600160a01b03161561215a565b503461026e57602036600319011261026e576122fc6128c6565b60018060a01b039061231582845460101c1633146129ac565b1660018060a01b03196039541617603955604051f35b503461026e578060031936011261026e57603a546040516001600160a01b039091168152602090f35b503461026e578060031936011261026e57603b546040516001600160a01b039091168152602090f35b503461026e57602036600319011261026e576123976128c6565b60018060a01b03906123b082845460101c1633146129ac565b1660018060a01b03196038541617603855604051f35b503461026e57604036600319011261026e576123e06128c6565b6123e86128dc565b9060018060a01b03809161240382865460101c1633146129ac565b168352604060205260408320911660018060a01b0319825416179055604051f35b503461026e57612433366128f2565b81158015612675575b6105d757801561043b57818352603d60209081526040808520549051630a43eeed60e11b8152600481018490523060248201526001600160a01b03929183169082816044818a865af1908115610ab457858491899361263b575b506124c092938660345416908a6040518096819582946323b872dd60e01b845233600485016129fd565b03925af18015610ab45761261e575b50858360345416803b156105bf578190604460405180948193630dfa376d60e01b8352600160048401528a60248401525af18015610ab45761260b575b50826038541692833b1561152857604051635a12fc9360e11b8152600481018790526001600160a01b03831660248201526044810186905233606482015293879081908690608490829084905af194851561042a5786956125f2575b50918184936125939693603854169160405180988196829563a9059cbb60e01b845260048401612a1f565b0393165af1918215611a80577f1e54d7530dad81af38adb8ca9db02add3130668375f37be85396403616fc3d49926125d5575b506040519283523392a3604051f35b6125eb90823d84116103fd576103ee8183612960565b50386125c6565b6125fe91929550612932565b6115405783928638612568565b61261790969196612932565b943861250c565b61263490833d85116103fd576103ee8183612960565b50386124cf565b92505081813d831161266e575b6126528183612960565b810103126115285782856126686124c093612998565b92612496565b503d612648565b50818352603d60205260408320546001600160a01b03161561243c565b503461026e57602036600319011261026e576126ac6128c6565b60018060a01b03906126c582845460101c1633146129ac565b1660018060a01b0319603a541617603a55604051f35b503461026e576020908160031936011261026e57600480358252603d83526040808320549051634e75827160e01b81526001600160a01b0392909185918391829086165afa928315612773578093612739575b505060405191168152f35b909192508382813d831161276c575b6127528183612960565b8101031261026e575061276490612998565b90388061272e565b503d612748565b604051903d90823e3d90fd5b503461026e57602036600319011261026e576127996128c6565b60018060a01b03906127b282845460101c1633146129ac565b1660018060a01b03196035541617603555604051f35b503461026e57602036600319011261026e576020906040906001600160a01b036127f06128c6565b168152603f83522054604051908152f35b503461026e57602036600319011261026e576020906004358152603d8252604060018060a01b0391205416604051908152f35b503461026e57602036600319011261026e5761284e6128c6565b60018060a01b039061286782845460101c1633146129ac565b1660018060a01b03196034541617603455604051f35b503461026e57602036600319011261026e576128976128c6565b60018060a01b03906128b082845460101c1633146129ac565b1660018060a01b0319603c541617603c55604051f35b600435906001600160a01b03821682036107d557565b602435906001600160a01b03821682036107d557565b60409060031901126107d5576004359060243590565b60609060031901126107d557600435906024356001600160a01b03811681036107d5579060443590565b6001600160401b03811161161657604052565b604081019081106001600160401b0382111761161657604052565b90601f801991011681019081106001600160401b0382111761161657604052565b6001600160401b0381116116165760051b60200190565b51906001600160a01b03821682036107d557565b156129b357565b60405162461bcd60e51b815260206004820152600a60248201526927b7363c9037bbb732b960b11b6044820152606490fd5b908160209103126107d5575180151581036107d55790565b6001600160a01b03918216815291166020820152604081019190915260600190565b6001600160a01b039091168152602081019190915260400190565b6001600160401b03811161161657601f01601f191660200190565b918091926000905b828210612a75575011612a6e575050565b6000910152565b91508060209183015181860152018291612a5d565b9060a0828203126107d55781516001600160401b0381116107d557820181601f820112156107d5578051612abd81612a3a565b92612acb6040519485612960565b818452602082840101116107d557612ae99160208085019101612a55565b91612af660208301612998565b91612b0360408201612998565b916080606083015192015190565b91908260409103126107d5576020825192015190565b600019811461159f5760010190565b6027919493612bd1936040519687936243522d60e81b6020860152612b65815180926020602389019101612a55565b840190602d60f81b91826023820152612b88825180936020602485019101612a55565b01906024820152612ba3825180936020602585019101612a55565b01612d4760f01b6025820152612bc28251809360208785019101612a55565b01036007810185520183612960565b565b90602091612bec81518092818552858086019101612a55565b601f01601f1916010190565b91608093612c15612c28939897969860a0865260a0860190612bd3565b9160208501528382036040850152612bd3565b9460608201520152565b916040519160208301938452604083015260608201526060815260808101918183106001600160401b038411176116165782602481602093816040528551902060018060a01b036037541690631620909560e01b835260848701525afa908115612cda57600091612ca4575b50905090565b602090813d8111612cd3575b612cba8186612960565b8101031261026e5750612ccc90612998565b8038612c9e565b503d612cb0565b6040513d6000823e3d90fd5b6201518090806000190482118115151661159f570290565b806000190482118115151661159f570290565b81811061159f570390565b8119811161159f570190565b805182101561163e5760209160051b010190565b60209081818403126107d5578051906001600160401b0382116107d557019180601f840112156107d5578251612d7181612981565b93612d7f6040519586612960565b818552838086019260051b8201019283116107d5578301905b828210612da6575050505090565b81518152908301908301612d98565b90815180825260208080930193019160005b828110612dd5575050505090565b83516001600160a01b031685529381019392810192600101612dc7565b6039546001600160a01b0391908216908115612e575760446020926000604051958694859363095ea7b360e01b8552600485015282196024850152165af18015612cda57612e3d5750565b612e549060203d81116103fd576103ee8183612960565b50565b6040516307bb995d60e41b8152600490fd5b15612e7057565b60405162461bcd60e51b815260206004820152602b60248201527f496e697469616c697a61626c653a20636f6e7472616374206973206e6f74206960448201526a6e697469616c697a696e6760a81b6064820152608490fd5b6000811280156001600160ff1b0383900384131661159f57600160ff1b82900383121661159f570190565b6105b560008083136001600160ff1b03849004831116600116612f445760017fffe9924f8d0dd7b2e6f174df9576f9de01c091c8faeb2605f522de8852b47aa884128285121616612f4457500290565b634e487b7160e01b81526011600452602490fd5b600e600160ff1b01811260011661159f57600d190190565b600082128015600160ff1b840183121661159f576001600160ff1b03830182131661159f570390565b6000916001600160ff1b039162010bd99084811281850381158185131661334557600160ff1b9383850392838212166133315787908401129162010bd819908162253d8c93018313841516611740570113166119db57622649650193600193600491858783048411828913161661331e57808712600760fd1b881216861661331e5762023ab196878160021b0597878985048211848b1316166132f857877fffffc694f94337079d130ab45dff8e0f9ea161331bb1c93dea871de6fec83ce28a12848b1216166132f857880282811281850360031381151661330b57818703600312166132f8579084600361309093010590612f70565b9281841284840388138115166132ac5784860388121661329957868401610fa088828604821185841316166132bf57887ffff7ced916872b020c49ba5e353f7ced916872b020c49ba5e353f7ced916872c831285841216166132bf576131099162164b09910205948261310287612ef4565b0590612f70565b828112818503601f138115166132bf57818703601f12166132ac57601f019680888504605011848a1316166132ac57807ffe666666666666666666666666666666666666666666666666666666666666678912848a1216166132ac5761098f9788816050020590828287048b1186841316166132e55784821299837ffff29be1739a4fb805dbcd5d6c7d1f7d6fd627208942391f124ee1c3f307026884128c16166132d257906050836131be93020590612f70565b98600b8205978287036002138215166132d257829003600212166132bf5781878604600c1185891316166132bf57817ff555555555555555555555555555555555555555555555555555555555555556881285891216166132bf5761322a90600288600c029101612f70565b986031600160ff1b01811282166132bf5781906030190180950460641184861316166132ac577ffeb851eb851eb851eb851eb851eb851eb851eb851eb851eb851eb851eb851eb984128385121616613299575050613294929161328f91606402612ec9565b612ec9565b929190565b634e487b7160e01b825260119052602490fd5b634e487b7160e01b835260118252602483fd5b634e487b7160e01b845260118352602484fd5b634e487b7160e01b865260118552602486fd5b634e487b7160e01b855260118452602485fd5b634e487b7160e01b835260118552602483fd5b634e487b7160e01b845260118652602484fd5b634e487b7160e01b815260118352602490fd5b634e487b7160e01b88526011600452602488fd5b634e487b7160e01b87526011600452602487fd5b9291926107b281106107d557600191617d4b600160ff1b018512831661159f576000918281128015926001600160ff1b03929182840391906112c0838113871661333157600160ff1b859003908181128316611740576133d698999a9b6133e7916133db60049b8c92600c6133cd8a612f58565b05908b01612ec9565b612ef4565b0590617d4a1901612ec9565b6002600160ff1b0184128b166135a157600c61340285612f58565b058b7f0aaaaaaaaaaaaaaaaaaaaaaaaaaaaaaaaaaaaaaaaaaaaaaaaaaaaaaaaaaaaaaa82118c8313161661358e578b7ff55555555555555555555555555555555555555555555555555555555555555682128c8312161661358e5761346e90600c026001198601612f70565b61016f8c828a0482118d8413161661357b578c7fffa6b6c1eb12d573186a06f9b8d9a287530217b7747d8eff4d6d83d625aae63183128d8412161661357b576134bd9291600c91020590612ec9565b966113249485131661356857831216613555578792606492600c6134e36134eb94612f58565b059101612ec9565b0580920460031185831316166132bf57847fd555555555555555555555555555555555555555555555555555555555555556821285831216166132bf579082613538926003020590612f70565b9262253d8c600160ff1b0184121661329957505062253d8b190190565b634e487b7160e01b875260118652602487fd5b634e487b7160e01b895260118852602489fd5b634e487b7160e01b8c5260118b5260248cfd5b634e487b7160e01b8b5260118a5260248bfd5b634e487b7160e01b8a526011895260248afd5b9060018114801561366b575b8015613661575b8015613657575b801561364d575b8015613643575b8015613639575b156135ef575050601f90565b6002146135fc5750601e90565b6003811615908161362c575b811561361f575b501561361a57601d90565b601c90565b610190915006153861360f565b6064810615159150613608565b50600c81146135e3565b50600a81146135dc565b50600881146135d5565b50600781146135ce565b50600581146135c7565b50600381146135c0565b90919015613681575090565b8151156136915750805190602001fd5b60405162461bcd60e51b815260206004820152908190611884906024830190612bd3565b801561375a57600081805b61374657506136ce81612a3a565b906136dc6040519283612960565b808252601f196136eb82612a3a565b013660208401375b80831561373f576001811061159f576000190192600a9182820660308119811161159f57855187101561163e570160f81b6001600160f81b03191660001a908401601f015304916136f3565b5050905090565b90613752600a91612b27565b9104806136c0565b5060405161376781612945565b60018152600360fc1b602082015290565b6000549060018060a01b03808216908360101c167f8be0079c531659141344cd1fd0a4f28419497f9722a3daafe3b4186f6b6457e06000604051a362010000600160b01b031990911660109190911b62010000600160b01b03161760005556fea264697066735822122021f3050d4f13adff951a2fb95f0866f1faa80943144b7fb62ceed7eeb480767664736f6c634300080f0033",
  "devdoc": {
    "author": "Eric Lee (ylikp.ust@gmail.com) & Primata (primata@375labs.org)",
    "kind": "dev",
    "methods": {
      "approvePoolToken(address)": {
        "params": {
          "_token": "Address of the approved token"
        }
      },
      "buyCover(uint256,uint256,uint256,uint256,address[])": {
        "params": {
          "_coverAmount": "Amount to cover",
          "_coverDuration": "Cover duration in month (1 ~ 3)",
          "_maxPayment": "Maximum payment user can accept",
          "_poolId": "Pool id"
        },
        "returns": {
          "_0": "crToken CR token address"
        }
      },
      "claimPayout(uint256,address,uint256)": {
        "params": {
          "_crToken": "Cover right token address",
          "_generation": "Generation of the priority pool",
          "_poolId": "Pool id"
        }
      },
      "currentLPAddress(uint256)": {
        "params": {
          "_poolId": "Priority Pool ID"
        },
        "returns": {
          "lpAddress": "Current generation LP token address"
        }
      },
      "owner()": {
        "details": "Returns the address of the current owner."
      },
      "provideLiquidity(uint256)": {
        "params": {
          "_amount": "Amount of liquidity (usdc) to provide"
        }
      },
      "removeLiquidity(uint256)": {
        "params": {
          "_amount": "Amount of liquidity to provide"
        }
      },
      "renounceOwnership()": {
        "details": "Leaves the contract without owner. It will not be possible to call `onlyOwner` functions anymore. Can only be called by the current owner. NOTE: Renouncing ownership will leave the contract without an owner, thereby removing any functionality that is only available to the owner."
      },
      "stakeLiquidity(uint256,uint256)": {
        "params": {
          "_amount": "Amount of PRO-LP tokens to stake",
          "_poolId": "Pool id"
        }
      },
      "stakeLiquidityWithoutFarming(uint256,uint256)": {
        "params": {
          "_amount": "Amount of PRO-LP amount",
          "_poolId": "Pool id"
        }
      },
      "storePoolInformation(address,address,uint256)": {
        "params": {
          "_pool": "Address of the priority pool",
          "_poolId": "Pool id",
          "_token": "Address of the priority pool's native token"
        }
      },
      "transferOwnership(address)": {
        "details": "Transfers ownership of the contract to a new account (`newOwner`). Can only be called by the current owner."
      },
      "unstakeLiquidity(uint256,address,uint256)": {
        "params": {
          "_amount": "Amount of LP(priority lp) tokens to withdraw",
          "_poolId": "Pool id",
          "_priorityLP": "Priority lp token address to withdraw"
        }
      },
      "unstakeLiquidityWithoutFarming(uint256,address,uint256)": {
        "params": {
          "_amount": "PRI-LP token amount to remove",
          "_poolId": "Pool id",
          "_priorityLP": "PRI-LP token address"
        }
      }
    },
    "title": "Policy Center",
    "version": 1
  },
  "userdoc": {
    "kind": "user",
    "methods": {
      "approvePoolToken(address)": {
        "notice": "Approve the exchange to swap tokens"
      },
      "buyCover(uint256,uint256,uint256,uint256,address[])": {
        "notice": "Buy new cover for a given pool         Select a pool with parameter \"poolId\"         Cover amount is in usdc and duration is in month         The premium ratio may be dynamic so \"maxPayment\" is similar to \"slippage\""
      },
      "claimPayout(uint256,address,uint256)": {
        "notice": "Claim payout         Need to use a specific crToken address as parameter"
      },
      "currentLPAddress(uint256)": {
        "notice": "Returns the current LP address for a Pool ID         \"Current\" means the LP address that is currently being used         Because each priority pool may have several generations of LP tokens         Once reported and paid out, the LP generation will be updated"
      },
      "provideLiquidity(uint256)": {
        "notice": "Provide liquidity to Protection Pool"
      },
      "removeLiquidity(uint256)": {
        "notice": "Remove liquidity from protection pool"
      },
      "stakeLiquidity(uint256,uint256)": {
        "notice": "Stake Protection Pool LP (PRO-LP) into priority pools         And automatically stake the PRI-LP tokens into weighted farming pool         With this function, no need for approval of PRI-LP tokens         If you want to hold the PRI-LP tokens for other usage         Call \"stakeLiquidityWithoutFarming\""
      },
      "stakeLiquidityWithoutFarming(uint256,uint256)": {
        "notice": "Stake liquidity to priority pool without depositing into farming"
      },
      "storePoolInformation(address,address,uint256)": {
        "notice": "Store new pool information"
      },
      "unstakeLiquidity(uint256,address,uint256)": {
        "notice": "Unstake Protection Pool LP from priority pools         There may be different generations of priority lp tokens         This function will first remove the PRI-LP token from farming pool         Ensure that your PRI-LP tokens are inside the farming pool         If the PRI-LP tokens are in your own wallet, use \"unstakeLiquidityWithoutFarming\""
      },
      "unstakeLiquidityWithoutFarming(uint256,address,uint256)": {
        "notice": "Unstake liquidity without removing PRI-LP from farming"
      }
    },
    "notice": "This is the policy center for degis Protocol Protection         Users can buy policies and get payoff here         Sellers can provide liquidity and choose the pools to cover",
    "version": 1
  },
  "storageLayout": {
    "storage": [
      {
        "astId": 184,
        "contract": "src/core/PolicyCenter.sol:PolicyCenter",
        "label": "_initialized",
        "offset": 0,
        "slot": "0",
        "type": "t_uint8"
      },
      {
        "astId": 187,
        "contract": "src/core/PolicyCenter.sol:PolicyCenter",
        "label": "_initializing",
        "offset": 1,
        "slot": "0",
        "type": "t_bool"
      },
      {
        "astId": 17658,
        "contract": "src/core/PolicyCenter.sol:PolicyCenter",
        "label": "_owner",
        "offset": 2,
        "slot": "0",
        "type": "t_address"
      },
      {
        "astId": 17765,
        "contract": "src/core/PolicyCenter.sol:PolicyCenter",
        "label": "__gap",
        "offset": 0,
        "slot": "1",
        "type": "t_array(t_uint256)49_storage"
      },
      {
        "astId": 6169,
        "contract": "src/core/PolicyCenter.sol:PolicyCenter",
        "label": "deg",
        "offset": 0,
        "slot": "50",
        "type": "t_contract(IDegisToken)6285"
      },
      {
        "astId": 6172,
        "contract": "src/core/PolicyCenter.sol:PolicyCenter",
        "label": "veDeg",
        "offset": 0,
        "slot": "51",
        "type": "t_contract(IVeDEG)7449"
      },
      {
        "astId": 5324,
        "contract": "src/core/PolicyCenter.sol:PolicyCenter",
        "label": "protectionPool",
        "offset": 0,
        "slot": "52",
        "type": "t_address"
      },
      {
        "astId": 5326,
        "contract": "src/core/PolicyCenter.sol:PolicyCenter",
        "label": "priceGetter",
        "offset": 0,
        "slot": "53",
        "type": "t_address"
      },
      {
        "astId": 5328,
        "contract": "src/core/PolicyCenter.sol:PolicyCenter",
        "label": "priorityPoolFactory",
        "offset": 0,
        "slot": "54",
        "type": "t_address"
      },
      {
        "astId": 5330,
        "contract": "src/core/PolicyCenter.sol:PolicyCenter",
        "label": "coverRightTokenFactory",
        "offset": 0,
        "slot": "55",
        "type": "t_address"
      },
      {
        "astId": 5332,
        "contract": "src/core/PolicyCenter.sol:PolicyCenter",
        "label": "weightedFarmingPool",
        "offset": 0,
        "slot": "56",
        "type": "t_address"
      },
      {
        "astId": 5334,
        "contract": "src/core/PolicyCenter.sol:PolicyCenter",
        "label": "exchange",
        "offset": 0,
        "slot": "57",
        "type": "t_address"
      },
      {
        "astId": 5336,
        "contract": "src/core/PolicyCenter.sol:PolicyCenter",
        "label": "payoutPool",
        "offset": 0,
        "slot": "58",
        "type": "t_address"
      },
      {
        "astId": 5338,
        "contract": "src/core/PolicyCenter.sol:PolicyCenter",
        "label": "treasury",
        "offset": 0,
        "slot": "59",
        "type": "t_address"
      },
      {
        "astId": 5340,
        "contract": "src/core/PolicyCenter.sol:PolicyCenter",
        "label": "dexPriceGetter",
        "offset": 0,
        "slot": "60",
        "type": "t_address"
      },
      {
        "astId": 3771,
        "contract": "src/core/PolicyCenter.sol:PolicyCenter",
        "label": "priorityPools",
        "offset": 0,
        "slot": "61",
        "type": "t_mapping(t_uint256,t_address)"
      },
      {
        "astId": 3775,
        "contract": "src/core/PolicyCenter.sol:PolicyCenter",
        "label": "tokenByPoolId",
        "offset": 0,
        "slot": "62",
        "type": "t_mapping(t_uint256,t_address)"
      },
      {
        "astId": 3779,
        "contract": "src/core/PolicyCenter.sol:PolicyCenter",
        "label": "oracleType",
        "offset": 0,
        "slot": "63",
        "type": "t_mapping(t_address,t_uint256)"
      },
      {
        "astId": 3783,
        "contract": "src/core/PolicyCenter.sol:PolicyCenter",
        "label": "exchangeByToken",
        "offset": 0,
        "slot": "64",
        "type": "t_mapping(t_address,t_address)"
      }
    ],
    "types": {
      "t_address": {
        "encoding": "inplace",
        "label": "address",
        "numberOfBytes": "20"
      },
      "t_array(t_uint256)49_storage": {
        "base": "t_uint256",
        "encoding": "inplace",
        "label": "uint256[49]",
        "numberOfBytes": "1568"
      },
      "t_bool": {
        "encoding": "inplace",
        "label": "bool",
        "numberOfBytes": "1"
      },
      "t_contract(IDegisToken)6285": {
        "encoding": "inplace",
        "label": "contract IDegisToken",
        "numberOfBytes": "20"
      },
      "t_contract(IVeDEG)7449": {
        "encoding": "inplace",
        "label": "contract IVeDEG",
        "numberOfBytes": "20"
      },
      "t_mapping(t_address,t_address)": {
        "encoding": "mapping",
        "key": "t_address",
        "label": "mapping(address => address)",
        "numberOfBytes": "32",
        "value": "t_address"
      },
      "t_mapping(t_address,t_uint256)": {
        "encoding": "mapping",
        "key": "t_address",
        "label": "mapping(address => uint256)",
        "numberOfBytes": "32",
        "value": "t_uint256"
      },
      "t_mapping(t_uint256,t_address)": {
        "encoding": "mapping",
        "key": "t_uint256",
        "label": "mapping(uint256 => address)",
        "numberOfBytes": "32",
        "value": "t_address"
      },
      "t_uint256": {
        "encoding": "inplace",
        "label": "uint256",
        "numberOfBytes": "32"
      },
      "t_uint8": {
        "encoding": "inplace",
        "label": "uint8",
        "numberOfBytes": "1"
      }
    }
  }
}