{
  "address": "0x5e0bD7219bccfd2ECe9ee4aFC026b34964c2d5a7",
  "abi": [
    {
      "inputs": [],
      "name": "IncidentReport__AlreadyClaimed",
      "type": "error"
    },
    {
      "inputs": [],
      "name": "IncidentReport__AlreadyPaid",
      "type": "error"
    },
    {
      "inputs": [],
      "name": "IncidentReport__AlreadyReported",
      "type": "error"
    },
    {
      "inputs": [],
      "name": "IncidentReport__AlreadySettled",
      "type": "error"
    },
    {
      "inputs": [],
      "name": "IncidentReport__ChooseBothSides",
      "type": "error"
    },
    {
      "inputs": [],
      "name": "IncidentReport__NoReward",
      "type": "error"
    },
    {
      "inputs": [],
      "name": "IncidentReport__NotEnoughVeDEG",
      "type": "error"
    },
    {
      "inputs": [],
      "name": "IncidentReport__NotSettled",
      "type": "error"
    },
    {
      "inputs": [],
      "name": "IncidentReport__NotWrongChoice",
      "type": "error"
    },
    {
      "inputs": [],
      "name": "IncidentReport__OnlyExecutor",
      "type": "error"
    },
    {
      "inputs": [],
      "name": "IncidentReport__PayoutExceedCovered",
      "type": "error"
    },
    {
      "inputs": [],
      "name": "IncidentReport__PoolNotExist",
      "type": "error"
    },
    {
      "inputs": [],
      "name": "IncidentReport__QuorumRatioTooBig",
      "type": "error"
    },
    {
      "inputs": [],
      "name": "IncidentReport__WrongChoice",
      "type": "error"
    },
    {
      "inputs": [],
      "name": "IncidentReport__WrongPeriod",
      "type": "error"
    },
    {
      "inputs": [],
      "name": "IncidentReport__WrongStatus",
      "type": "error"
    },
    {
      "inputs": [],
      "name": "IncidentReport__ZeroAmount",
      "type": "error"
    },
    {
      "anonymous": false,
      "inputs": [
        {
          "indexed": false,
          "internalType": "address",
          "name": "payer",
          "type": "address"
        },
        {
          "indexed": false,
          "internalType": "address",
          "name": "user",
          "type": "address"
        },
        {
          "indexed": false,
          "internalType": "uint256",
          "name": "debt",
          "type": "uint256"
        },
        {
          "indexed": false,
          "internalType": "uint256",
          "name": "unlockAmount",
          "type": "uint256"
        }
      ],
      "name": "DebtPaid",
      "type": "event"
    },
    {
      "anonymous": false,
      "inputs": [
        {
          "indexed": false,
          "internalType": "uint8",
          "name": "version",
          "type": "uint8"
        }
      ],
      "name": "Initialized",
      "type": "event"
    },
    {
      "anonymous": false,
      "inputs": [
        {
          "indexed": true,
          "internalType": "address",
          "name": "previousOwner",
          "type": "address"
        },
        {
          "indexed": true,
          "internalType": "address",
          "name": "newOwner",
          "type": "address"
        }
      ],
      "name": "OwnershipTransferred",
      "type": "event"
    },
    {
      "anonymous": false,
      "inputs": [
        {
          "indexed": false,
          "internalType": "uint256",
          "name": "reportId",
          "type": "uint256"
        },
        {
          "indexed": false,
          "internalType": "uint256",
          "name": "closeTimestamp",
          "type": "uint256"
        }
      ],
      "name": "ReportClosed",
      "type": "event"
    },
    {
      "anonymous": false,
      "inputs": [
        {
          "indexed": false,
          "internalType": "uint256",
          "name": "reportId",
          "type": "uint256"
        },
        {
          "indexed": true,
          "internalType": "uint256",
          "name": "poolId",
          "type": "uint256"
        },
        {
          "indexed": false,
          "internalType": "uint256",
          "name": "reportTimestamp",
          "type": "uint256"
        },
        {
          "indexed": true,
          "internalType": "address",
          "name": "reporter",
          "type": "address"
        },
        {
          "indexed": false,
          "internalType": "uint256",
          "name": "payout",
          "type": "uint256"
        }
      ],
      "name": "ReportCreated",
      "type": "event"
    },
    {
      "anonymous": false,
      "inputs": [
        {
          "indexed": false,
          "internalType": "uint256",
          "name": "reportId",
          "type": "uint256"
        },
        {
          "indexed": false,
          "internalType": "uint256",
          "name": "round",
          "type": "uint256"
        }
      ],
      "name": "ReportExtended",
      "type": "event"
    },
    {
      "anonymous": false,
      "inputs": [
        {
          "indexed": false,
          "internalType": "uint256",
          "name": "reportId",
          "type": "uint256"
        }
      ],
      "name": "ReportFailed",
      "type": "event"
    },
    {
      "anonymous": false,
      "inputs": [
        {
          "indexed": false,
          "internalType": "uint256",
          "name": "reportId",
          "type": "uint256"
        },
        {
          "indexed": false,
          "internalType": "uint256",
          "name": "result",
          "type": "uint256"
        }
      ],
      "name": "ReportSettled",
      "type": "event"
    },
    {
      "anonymous": false,
      "inputs": [
        {
          "indexed": false,
          "internalType": "uint256",
          "name": "reportId",
          "type": "uint256"
        },
        {
          "indexed": true,
          "internalType": "address",
          "name": "user",
          "type": "address"
        },
        {
          "indexed": false,
          "internalType": "uint256",
          "name": "voteFor",
          "type": "uint256"
        },
        {
          "indexed": false,
          "internalType": "uint256",
          "name": "amount",
          "type": "uint256"
        }
      ],
      "name": "ReportVoted",
      "type": "event"
    },
    {
      "anonymous": false,
      "inputs": [
        {
          "indexed": false,
          "internalType": "uint256",
          "name": "reportId",
          "type": "uint256"
        },
        {
          "indexed": false,
          "internalType": "uint256",
          "name": "startTimestamp",
          "type": "uint256"
        }
      ],
      "name": "ReportVotingStart",
      "type": "event"
    },
    {
      "anonymous": false,
      "inputs": [
        {
          "indexed": false,
          "internalType": "uint256",
          "name": "reportId",
          "type": "uint256"
        },
        {
          "indexed": false,
          "internalType": "uint256",
          "name": "totalRewardToVoters",
          "type": "uint256"
        }
      ],
      "name": "VotingRewardSettled",
      "type": "event"
    },
    {
      "inputs": [],
      "name": "COOLDOWN_WRONG_REPORT",
      "outputs": [
        {
          "internalType": "uint256",
          "name": "",
          "type": "uint256"
        }
      ],
      "stateMutability": "view",
      "type": "function"
    },
    {
      "inputs": [],
      "name": "DEBT_RATIO",
      "outputs": [
        {
          "internalType": "uint256",
          "name": "",
          "type": "uint256"
        }
      ],
      "stateMutability": "view",
      "type": "function"
    },
    {
      "inputs": [],
      "name": "EXTEND_PERIOD",
      "outputs": [
        {
          "internalType": "uint256",
          "name": "",
          "type": "uint256"
        }
      ],
      "stateMutability": "view",
      "type": "function"
    },
    {
      "inputs": [],
      "name": "INCIDENT_VOTING_PERIOD",
      "outputs": [
        {
          "internalType": "uint256",
          "name": "",
          "type": "uint256"
        }
      ],
      "stateMutability": "view",
      "type": "function"
    },
    {
      "inputs": [],
      "name": "MAX_EXTEND_ROUND",
      "outputs": [
        {
          "internalType": "uint256",
          "name": "",
          "type": "uint256"
        }
      ],
      "stateMutability": "view",
      "type": "function"
    },
    {
      "inputs": [],
      "name": "PENDING_PERIOD",
      "outputs": [
        {
          "internalType": "uint256",
          "name": "",
          "type": "uint256"
        }
      ],
      "stateMutability": "view",
      "type": "function"
    },
    {
      "inputs": [],
      "name": "REPORTER_REWARD",
      "outputs": [
        {
          "internalType": "uint256",
          "name": "",
          "type": "uint256"
        }
      ],
      "stateMutability": "view",
      "type": "function"
    },
    {
      "inputs": [],
      "name": "REPORT_THRESHOLD",
      "outputs": [
        {
          "internalType": "uint256",
          "name": "",
          "type": "uint256"
        }
      ],
      "stateMutability": "view",
      "type": "function"
    },
    {
      "inputs": [],
      "name": "RESERVE_RATIO",
      "outputs": [
        {
          "internalType": "uint256",
          "name": "",
          "type": "uint256"
        }
      ],
      "stateMutability": "view",
      "type": "function"
    },
    {
      "inputs": [],
      "name": "REWARD_RATIO",
      "outputs": [
        {
          "internalType": "uint256",
          "name": "",
          "type": "uint256"
        }
      ],
      "stateMutability": "view",
      "type": "function"
    },
    {
      "inputs": [],
      "name": "SAMPLE_PERIOD",
      "outputs": [
        {
          "internalType": "uint256",
          "name": "",
          "type": "uint256"
        }
      ],
      "stateMutability": "view",
      "type": "function"
    },
    {
      "inputs": [
        {
          "internalType": "uint256",
          "name": "_id",
          "type": "uint256"
        }
      ],
      "name": "claimReward",
      "outputs": [],
      "stateMutability": "nonpayable",
      "type": "function"
    },
    {
      "inputs": [
        {
          "internalType": "uint256",
          "name": "_id",
          "type": "uint256"
        }
      ],
      "name": "closeReport",
      "outputs": [],
      "stateMutability": "nonpayable",
      "type": "function"
    },
    {
      "inputs": [
        {
          "internalType": "uint256",
          "name": "_reportId",
          "type": "uint256"
        }
      ],
      "name": "executed",
      "outputs": [],
      "stateMutability": "nonpayable",
      "type": "function"
    },
    {
      "inputs": [],
      "name": "executor",
      "outputs": [
        {
          "internalType": "address",
          "name": "",
          "type": "address"
        }
      ],
      "stateMutability": "view",
      "type": "function"
    },
    {
      "inputs": [
        {
          "internalType": "uint256",
          "name": "_poolId",
          "type": "uint256"
        }
      ],
      "name": "getPoolReports",
      "outputs": [
        {
          "internalType": "uint256[]",
          "name": "",
          "type": "uint256[]"
        }
      ],
      "stateMutability": "view",
      "type": "function"
    },
    {
      "inputs": [
        {
          "internalType": "uint256",
          "name": "_poolId",
          "type": "uint256"
        }
      ],
      "name": "getPoolReportsAmount",
      "outputs": [
        {
          "internalType": "uint256",
          "name": "",
          "type": "uint256"
        }
      ],
      "stateMutability": "view",
      "type": "function"
    },
    {
      "inputs": [
        {
          "internalType": "uint256",
          "name": "_id",
          "type": "uint256"
        }
      ],
      "name": "getReport",
      "outputs": [
        {
          "components": [
            {
              "internalType": "uint256",
              "name": "poolId",
              "type": "uint256"
            },
            {
              "internalType": "uint256",
              "name": "reportTimestamp",
              "type": "uint256"
            },
            {
              "internalType": "address",
              "name": "reporter",
              "type": "address"
            },
            {
              "internalType": "uint256",
              "name": "voteTimestamp",
              "type": "uint256"
            },
            {
              "internalType": "uint256",
              "name": "numFor",
              "type": "uint256"
            },
            {
              "internalType": "uint256",
              "name": "numAgainst",
              "type": "uint256"
            },
            {
              "internalType": "uint256",
              "name": "round",
              "type": "uint256"
            },
            {
              "internalType": "uint256",
              "name": "status",
              "type": "uint256"
            },
            {
              "internalType": "uint256",
              "name": "result",
              "type": "uint256"
            },
            {
              "internalType": "uint256",
              "name": "votingReward",
              "type": "uint256"
            },
            {
              "internalType": "uint256",
              "name": "payout",
              "type": "uint256"
            }
          ],
          "internalType": "struct IncidentReport.Report",
          "name": "",
          "type": "tuple"
        }
      ],
      "stateMutability": "view",
      "type": "function"
    },
    {
      "inputs": [
        {
          "internalType": "uint256",
          "name": "_poolId",
          "type": "uint256"
        }
      ],
      "name": "getTempResult",
      "outputs": [
        {
          "components": [
            {
              "internalType": "uint256",
              "name": "result",
              "type": "uint256"
            },
            {
              "internalType": "uint256",
              "name": "sampleTimestamp",
              "type": "uint256"
            },
            {
              "internalType": "bool",
              "name": "hasChanged",
              "type": "bool"
            }
          ],
          "internalType": "struct IncidentReport.TempResult",
          "name": "",
          "type": "tuple"
        }
      ],
      "stateMutability": "view",
      "type": "function"
    },
    {
      "inputs": [
        {
          "internalType": "address",
          "name": "_user",
          "type": "address"
        },
        {
          "internalType": "uint256",
          "name": "_poolId",
          "type": "uint256"
        }
      ],
      "name": "getUserVote",
      "outputs": [
        {
          "components": [
            {
              "internalType": "uint256",
              "name": "choice",
              "type": "uint256"
            },
            {
              "internalType": "uint256",
              "name": "amount",
              "type": "uint256"
            },
            {
              "internalType": "bool",
              "name": "claimed",
              "type": "bool"
            },
            {
              "internalType": "bool",
              "name": "paid",
              "type": "bool"
            }
          ],
          "internalType": "struct IncidentReport.UserVote",
          "name": "",
          "type": "tuple"
        }
      ],
      "stateMutability": "view",
      "type": "function"
    },
    {
      "inputs": [
        {
          "internalType": "address",
          "name": "_deg",
          "type": "address"
        },
        {
          "internalType": "address",
          "name": "_veDeg",
          "type": "address"
        },
        {
          "internalType": "address",
          "name": "_shield",
          "type": "address"
        }
      ],
      "name": "initialize",
      "outputs": [],
      "stateMutability": "nonpayable",
      "type": "function"
    },
    {
      "inputs": [],
      "name": "owner",
      "outputs": [
        {
          "internalType": "address",
          "name": "",
          "type": "address"
        }
      ],
      "stateMutability": "view",
      "type": "function"
    },
    {
      "inputs": [
        {
          "internalType": "uint256",
          "name": "_id",
          "type": "uint256"
        },
        {
          "internalType": "address",
          "name": "_user",
          "type": "address"
        }
      ],
      "name": "payDebt",
      "outputs": [],
      "stateMutability": "nonpayable",
      "type": "function"
    },
    {
      "inputs": [
        {
          "internalType": "uint256",
          "name": "",
          "type": "uint256"
        },
        {
          "internalType": "uint256",
          "name": "",
          "type": "uint256"
        }
      ],
      "name": "poolReports",
      "outputs": [
        {
          "internalType": "uint256",
          "name": "",
          "type": "uint256"
        }
      ],
      "stateMutability": "view",
      "type": "function"
    },
    {
      "inputs": [],
      "name": "priorityPoolFactory",
      "outputs": [
        {
          "internalType": "contract IPriorityPoolFactory",
          "name": "",
          "type": "address"
        }
      ],
      "stateMutability": "view",
      "type": "function"
    },
    {
      "inputs": [],
      "name": "quorumRatio",
      "outputs": [
        {
          "internalType": "uint256",
          "name": "",
          "type": "uint256"
        }
      ],
      "stateMutability": "view",
      "type": "function"
    },
    {
      "inputs": [],
      "name": "renounceOwnership",
      "outputs": [],
      "stateMutability": "nonpayable",
      "type": "function"
    },
    {
      "inputs": [
        {
          "internalType": "uint256",
          "name": "_poolId",
          "type": "uint256"
        },
        {
          "internalType": "uint256",
          "name": "_payout",
          "type": "uint256"
        }
      ],
      "name": "report",
      "outputs": [],
      "stateMutability": "nonpayable",
      "type": "function"
    },
    {
      "inputs": [],
      "name": "reportCounter",
      "outputs": [
        {
          "internalType": "uint256",
          "name": "",
          "type": "uint256"
        }
      ],
      "stateMutability": "view",
      "type": "function"
    },
    {
      "inputs": [
        {
          "internalType": "uint256",
          "name": "",
          "type": "uint256"
        }
      ],
      "name": "reported",
      "outputs": [
        {
          "internalType": "bool",
          "name": "",
          "type": "bool"
        }
      ],
      "stateMutability": "view",
      "type": "function"
    },
    {
      "inputs": [
        {
          "internalType": "uint256",
          "name": "",
          "type": "uint256"
        }
      ],
      "name": "reports",
      "outputs": [
        {
          "internalType": "uint256",
          "name": "poolId",
          "type": "uint256"
        },
        {
          "internalType": "uint256",
          "name": "reportTimestamp",
          "type": "uint256"
        },
        {
          "internalType": "address",
          "name": "reporter",
          "type": "address"
        },
        {
          "internalType": "uint256",
          "name": "voteTimestamp",
          "type": "uint256"
        },
        {
          "internalType": "uint256",
          "name": "numFor",
          "type": "uint256"
        },
        {
          "internalType": "uint256",
          "name": "numAgainst",
          "type": "uint256"
        },
        {
          "internalType": "uint256",
          "name": "round",
          "type": "uint256"
        },
        {
          "internalType": "uint256",
          "name": "status",
          "type": "uint256"
        },
        {
          "internalType": "uint256",
          "name": "result",
          "type": "uint256"
        },
        {
          "internalType": "uint256",
          "name": "votingReward",
          "type": "uint256"
        },
        {
          "internalType": "uint256",
          "name": "payout",
          "type": "uint256"
        }
      ],
      "stateMutability": "view",
      "type": "function"
    },
    {
      "inputs": [
        {
          "internalType": "address",
          "name": "_executor",
          "type": "address"
        }
      ],
      "name": "setExecutor",
      "outputs": [],
      "stateMutability": "nonpayable",
      "type": "function"
    },
    {
      "inputs": [
        {
          "internalType": "address",
          "name": "_priorityPoolFactory",
          "type": "address"
        }
      ],
      "name": "setPriorityPoolFactory",
      "outputs": [],
      "stateMutability": "nonpayable",
      "type": "function"
    },
    {
      "inputs": [
        {
          "internalType": "uint256",
          "name": "_ratio",
          "type": "uint256"
        }
      ],
      "name": "setQuorumRatio",
      "outputs": [],
      "stateMutability": "nonpayable",
      "type": "function"
    },
    {
      "inputs": [
        {
          "internalType": "uint256",
          "name": "_id",
          "type": "uint256"
        }
      ],
      "name": "settle",
      "outputs": [],
      "stateMutability": "nonpayable",
      "type": "function"
    },
    {
      "inputs": [
        {
          "internalType": "uint256",
          "name": "_id",
          "type": "uint256"
        }
      ],
      "name": "startVoting",
      "outputs": [],
      "stateMutability": "nonpayable",
      "type": "function"
    },
    {
      "inputs": [
        {
          "internalType": "uint256",
          "name": "",
          "type": "uint256"
        }
      ],
      "name": "tempResults",
      "outputs": [
        {
          "internalType": "uint256",
          "name": "result",
          "type": "uint256"
        },
        {
          "internalType": "uint256",
          "name": "sampleTimestamp",
          "type": "uint256"
        },
        {
          "internalType": "bool",
          "name": "hasChanged",
          "type": "bool"
        }
      ],
      "stateMutability": "view",
      "type": "function"
    },
    {
      "inputs": [
        {
          "internalType": "address",
          "name": "newOwner",
          "type": "address"
        }
      ],
      "name": "transferOwnership",
      "outputs": [],
      "stateMutability": "nonpayable",
      "type": "function"
    },
    {
      "inputs": [
        {
          "internalType": "uint256",
          "name": "_poolId",
          "type": "uint256"
        }
      ],
      "name": "unpausePools",
      "outputs": [],
      "stateMutability": "nonpayable",
      "type": "function"
    },
    {
      "inputs": [
        {
          "internalType": "uint256",
          "name": "_id",
          "type": "uint256"
        },
        {
          "internalType": "uint256",
          "name": "_isFor",
          "type": "uint256"
        },
        {
          "internalType": "uint256",
          "name": "_amount",
          "type": "uint256"
        }
      ],
      "name": "vote",
      "outputs": [],
      "stateMutability": "nonpayable",
      "type": "function"
    },
    {
      "inputs": [
        {
          "internalType": "address",
          "name": "",
          "type": "address"
        },
        {
          "internalType": "uint256",
          "name": "",
          "type": "uint256"
        }
      ],
      "name": "votes",
      "outputs": [
        {
          "internalType": "uint256",
          "name": "choice",
          "type": "uint256"
        },
        {
          "internalType": "uint256",
          "name": "amount",
          "type": "uint256"
        },
        {
          "internalType": "bool",
          "name": "claimed",
          "type": "bool"
        },
        {
          "internalType": "bool",
          "name": "paid",
          "type": "bool"
        }
      ],
      "stateMutability": "view",
      "type": "function"
    }
  ],
  "transactionHash": "0x3c85d6179e01b68337dc9abd5fd24a309516eb2baef47ac7e48c364394ee4389",
  "args": [],
  "numDeployments": 1,
  "solcInputHash": "6c8c5ea14df0b547d5a44b6b5485a838",
  "bytecode": "0x6080806040523461001657612271908161001c8239f35b600080fdfe608060405260048036101561001357600080fd5b6000803560e01c91826312d5cc86146106385782631c3c0ea814611d3f57826320731ab814611d215782633d2f5bda14611c9f57826343a5ada214611c015782634a13a0ee14611bc15782634aa0644714611bb65782634e7f9b1914611a5b5782636530db98146119895782636f8a6e4314611960578263715018a6146118fa578263753c0985146115515782637aaf11c714611529578263805a219f1461150d5782638a6655d61461114d5782638da5cb5b146111225782638df8280014610cce5782639418ce1714610c82578263966d8a5f14610c055782639e17215514610be75782639f2524ee14610b79578263a01bc01f14610ac4578263ad35e1dc14610a7b578263ae169a50146108e6578263af5283491461030c578263b4643d29146108c8578263b9bc38f2146108aa578263c0c53b8b1461070d578263c34c08e5146106e4578263c942adf714610643578263ce4f29fc14610638578263d3ecebd7146105dd578263d6069060146105b0578263d92747cc14610591578263d9dc8f1d14610317578263e37dbfd91461030c578263e7d918e2146102da578263f2fde38b1461023f578263fc6e85d3146101f65750508063fd123806146101ed5763fe131778146101e5575b600080fd5b6101e0611d88565b506101e0611e17565b3461023b57602036600319011261023b57606091604091358152603b6020522080549060ff600260018301549201541690604051928352602083015215156040820152f35b5080fd5b3461023b57602036600319011261023b57610258611da7565b9060018060a01b0361027181855460101c163314611e5a565b821615610287575061028290611e93565b604051f35b60849060206040519162461bcd60e51b8352820152602660248201527f4f776e61626c653a206e6577206f776e657220697320746865207a65726f206160448201526564647265737360d01b6064820152fd5b3461023b57602036600319011261023b576102829061030660018060a01b03845460101c163314611e5a565b35612116565b5050506101e0611e3d565b3461023b57604036600319011261023b578035610332611dbd565b9060018060a01b0380831691828652602093603c8552604087208288528552604087209560405161036281611fb3565b875481526002600189015498888301998a5201549060ff82161515604082015260ff606082019260081c1615158252848a5260398852600860408b200154908115610580578184915114918215610575575b821561056b575b505061055b575161054c578651806000190460501181151516610537579061271060508a94930204948060325416803b15610510576040805163342c6d4d60e11b815233858201908152602081018a90529092879284928391859183910103925af190811561052c578591610514575b505060335416885190803b156105105760408051634bdc2db560e11b81526001600160a01b039095169385019384526020840192909252849284928391859183910103925af18015610505576104e5575b5094839291608095947fb4b7f3a9d727d0ac344f696304df335d2936ce3b0a58d52600c692632c9fa7259752603c85526040882090885284526002604088200161010061ff001982541617905551916040519333855284015260408301526060820152a1604051f35b6104f3909594939295611f85565b61050157909192858761047c565b8580fd5b6040513d84823e3d90fd5b8480fd5b61051d90611f85565b61052857838b61042b565b8380fd5b6040513d87823e3d90fd5b601182634e487b7160e01b6000525260246000fd5b604051631abf06a960e21b8152fd5b50604051631ae2961d60e01b8152fd5b149050828b6103bb565b6003811492506103b4565b60405163403ba18960e01b81528490fd5b50346105ad57806003193601126105ad57602060405160028152f35b80fd5b3461023b57602036600319011261023b57604060209260ff92358152603d84522054166040519015158152f35b3461023b57602036600319011261023b576036546001600160a01b031633036106295735815260396020526102826040822054808352603d6020526040832060ff198154169055612116565b6040516324bba59760e21b8152fd5b5050506101e0611d88565b3461023b57602036600319011261023b57604061016092823581526039602052209081549160018101549160018060a01b03600283015416906003830154908301546005840154600685015491600786015493600887015495600a6009890154980154986040519a8b5260208b015260408a01526060890152608088015260a087015260c086015260e0850152610100840152610120830152610140820152f35b50346105ad57806003193601126105ad576036546040516001600160a01b039091168152602090f35b3461023b57606036600319011261023b57610726611da7565b9061072f611dbd565b916044356001600160a01b0381811692918390036101e057855460ff8160081c16159485809661089d575b8015610886575b1561082b575060ff19811660011787558461081a575b5061079160ff875460081c1661078c81611ef3565b611ef3565b61079a33611e93565b8554946107ac60ff8760081c16611ef3565b8160018060a01b0319931683603254161760325516816033541617603355603454161760345560326038556107e2575b50604051f35b61ff00191681557f7f26b83ff96e1f2b6a682f133852f6798a09c465da95921460cefb3847402498602060405160018152a1816107dc565b61ffff191661010117865586610777565b60849060206040519162461bcd60e51b8352820152602e60248201527f496e697469616c697a61626c653a20636f6e747261637420697320616c72656160448201526d191e481a5b9a5d1a585b1a5e995960921b6064820152fd5b50303b1580156107615750600160ff831614610761565b50600160ff83161061075a565b50346105ad57806003193601126105ad576020603754604051908152f35b50346105ad57806003193601126105ad576020603854604051908152f35b3461023b57602080600319360112610a7757813591338452603c8252604084208385528252604084209060405161091c81611fb3565b82548152600260018401549385830194855201549060ff60408201928181161515845260081c16151560608201528587526039855260086040882001549182156105805751610a665751869291908103610a2557508482526039845261098b6009604084200154845190612099565b6032546001600160a01b031691823b15610528576040805163168ece7360e31b81523392810192835264e8d4a5100090930460208301529192849284928391859183910103925af1801561050557610a11575b50506109eb905133612193565b338352603c8152604083209183525260026040822001600160ff19825416179055604051f35b610a1a90611f85565b6105285783856109de565b9080925060038214918215610a5c575b505015610a4d5750610a48905133612193565b6109eb565b60405163158f1f4160e11b8152fd5b1490508187610a35565b60405163961e9b0d60e01b81528390fd5b8280fd5b50346105ad5760203660031901126105ad57610a95611da7565b60018060a01b0390610aae82845460101c163314611e5a565b1660018060a01b03196035541617603555604051f35b50346105ad5760403660031901126105ad576040608091610ae3611da7565b8160608451610af181611fb3565b8281528260208201528286820152015260018060a01b03168152603c60205281812060243582526020522060405190610b2982611fb3565b80549182815260026001830154926020830193845201549160ff6060604084019382861615158552019360081c161515835260405193845251602084015251151560408301525115156060820152f35b50346105ad5760403660031901126105ad576080906040906001600160a01b03610ba1611da7565b168152603c60205281812060243582526020522060ff815491600260018201549101549060405193845260208401528181161515604084015260081c1615156060820152f35b50346105ad57806003193601126105ad57602060405162093a808152f35b3461023b57602036600319011261023b5781604091606093838051610c2981611f98565b8281528260208201520152358152603b60205220604051610c4981611f98565b815491828252604060ff600260018401549360208601948552015416920191151582526040519283525160208301525115156040820152f35b3461023b57602036600319011261023b57803590610cad60018060a01b03845460101c163314611e5a565b6064821015610cbf5750603855604051f35b604051633f18bddf60e01b8152fd5b3461023b5760209081600319360112610a775780359081845260398352604084209260078401916002908184540361111357600686019182549460038801546203f48019811161110057610d30906203f480610d2989612051565b910161202f565b42106110ef57600888019384546110de57908992918397898552603b88528360ff816040882001541691826110d4575b5050156110b0578884526039875260066040852001600181540190555b8715611060575060039055610d9a8389015460058a01549061202f565b6033546040516318160ddd60e01b81526001600160a01b0396929188908290889082908b165afa90811561052c57859161102b575b50610ddf60649160385490612099565b0411610fd857869060018214998a15610fa6575b505586825260398552604082209280840154946005850154998490600014610ee6575080603254169285015416823b15610528576044849283604051958694859363168ece7360e31b855284015269043c33c193756480000060248401525af1801561050557610ec4575b50506040809594939260008051602061221c833981519152926009610ea7612710610e976000805160206121fc8339815191529c612069565b0493610ea28561207f565b6120ac565b9101555b81519086825284820152a18351928352820152a1604051f35b610ed2909695949396611f85565b610ee25786889592939495610e5e565b8680fd5b969798999592919350508714610f25575b50505050916000805160206121fc833981519152939160008051602061221c83398151915260408095610eab565b6127109192939450610f3690612069565b049069021e19e0c9bab24000009082198211610f935750604095936000805160206121fc8339815191529795936009610f8560008051602061221c833981519152958a950193610ea28561207f565b910155939583959750610ef7565b634e487b7160e01b895260119052602488fd5b54610fb081612116565b8452603d87526040842060ff198154169055603a8752610fd260408520611fef565b8b610df3565b92935050507f1dcabc7d01df1ee725f7c437ce5ec43e00015579d266f8a65d0911c4eb36ad909592949350555461100e81612116565b8452603d82526040808520805460ff1916905551908152a1604051f35b809550888092503d8311611059575b6110448183611fce565b810103126101e05792518a9390610ddf610dcf565b503d61103a565b94505091507fb7891e9b049f460b1641e0a0556e45b1d2adfb12bd2c6459ea5a5d645d40179d96508594509460409552603b83528487200160ff19815416905554908351928352820152a1604051f35b9650603986526110ce846040852001546005604086200154906120e2565b96610d7d565b109050838d610d60565b60405163037d379160e11b81528490fd5b6040516324b1a7e960e01b81528390fd5b634e487b7160e01b8a526011845260248afd5b60405163363bbdfd60e01b8152fd5b50346105ad57806003193601126105ad575460405160109190911c6001600160a01b03168152602090f35b90346105ad5760603660031901126105ad5781356024928335604435918385526020906039825260026007604088200154036111135783156114fe5760018314918215806114f3575b6114e3576033546040516370a0823160e01b815233848201526001600160a01b039091169082818b81855afa9081156114d85789916114ab575b5060405163cbf9fe5f60e01b815233858201529083828c81865afa9182156114a0578a92611471575b5081811061145d5703861161144c57803b156114485760408051633c56aa6160e11b8152338582019081526020810189905290928a9284928391859183910103925af1801561143d57908891611429575b5050338752603c81526040808820878952825287206001810180549091869115611423575403611412575b61128086825461202f565b9055858752603981526040872092156113fc578183016112a186825461202f565b90555b858752603b815260ff6002604089200154161580611357575b7f025e12b9cbba227587ada73c57f6b6b6a70272d7ed782681793125ec29afc77b96979850611307575b5050604080519586526020860192909252508301523391606090a2604051f35b603b60056113249385015494015491888a525260408820926120e2565b81548061133d575b5081556001429101558580806112e7565b600283019060ff801983541691841415161790558761132c565b5060038301546006840154906203f4801981116113ea576203f480611398910161139261138c61138685612051565b8361202f565b93612051565b9061202f565b6201518081106113ea577f025e12b9cbba227587ada73c57f6b6b6a70272d7ed782681793125ec29afc77b979899506201517f1901421190816113e0575b50889796506112bd565b90504210896113d6565b634e487b7160e01b8952601184528989fd5b6005830161140b86825461202f565b90556112a4565b6040516346bdda4560e11b81528390fd5b55611275565b61143290611f85565b610ee257868961124a565b6040513d8a823e3d90fd5b8780fd5b60405163729aeac360e01b81528390fd5b8a601186634e487b7160e01b600052526000fd5b9091508381813d8311611499575b6114898183611fce565b810103126101e05751908b6111f9565b503d61147f565b6040513d8c823e3d90fd5b90508281813d83116114d1575b6114c28183611fce565b810103126101e057518a6111d0565b503d6114b8565b6040513d8b823e3d90fd5b50604051631422ca1d60e31b8152fd5b506002841415611196565b60405163583202e160e01b8152fd5b50346105ad57806003193601126105ad57602060405160508152f35b3461023b57602036600319011261023b57602091604091358152603a83522054604051908152f35b90346105ad5761156036611dd3565b6035546040516315895f4760e31b81528086018490526001600160a01b03959392916024919086908290849082908b165afa9081156118ef579087918791611805575b50169384156117f657838652602094603d865260ff6040882054166117e65785829160405192838092636835185f60e11b82525afa9081156117db5787916117ae575b50831161179f57838652603d855260408620805460ff19166001908117909155603754600019989089811461178d57820196876037558789526039815285600a60408b208981554286820155600281013360018060a01b031982541617905585600782015501558160325416803b156117895789809160446040518094819363342c6d4d60e11b8352338b84015269021e19e0c9bab24000008c8401525af180156114a057611775575b50868952603a90526040882080549990600160401b8b101561176357976116c28b8b9c9a86849d9a9b9c018155611de9565b909283549160031b90811b9283911b1691191617905560355416803b156105105784928360449289946040519788968795631b35278960e01b87528601528401525af180156105055761174f575b50506040805193845242602085015283015233917fe4af8b66d6c4b132955627bb2e4e80a62c544714e2f19dafec934a3b156cbe9390606090a3604051f35b61175890611f85565b610528578385611710565b634e487b7160e01b8a5260418552858afd5b98611782603a929a611f85565b9890611690565b8980fd5b634e487b7160e01b8952601184528489fd5b60405163cab1fa1b60e01b8152fd5b90508581813d83116117d4575b6117c58183611fce565b81010312610ee25751886115e6565b503d6117bb565b6040513d89823e3d90fd5b506040516360b2438960e01b8152fd5b60405163148115cf60e21b8152fd5b9150503d8087833e6118178183611fce565b810160a082820312610ee25781516001600160401b03908181116118eb57830182601f820112156118eb5780519182116118d9576040519060209361186585601f19601f8701160184611fce565b838352848483010111611789579189918b95949383905b8382106118be57509284836118ab96936118a495604097116118b2575b505050508401612102565b9201612102565b50886115a3565b0101528a818e80611899565b8181018601518284018701528d97508c94509085019061187c565b634e487b7160e01b8952604188528489fd5b8880fd5b6040513d88823e3d90fd5b50346105ad57806003193601126105ad578054601081901c6001600160a01b031690611927338314611e5a565b82604051927f8be0079c531659141344cd1fd0a4f28419497f9722a3daafe3b4186f6b6457e08285a362010000600160b01b0319168255f35b50346105ad57806003193601126105ad576035546040516001600160a01b039091168152602090f35b3461023b57602036600319011261023b578035906119b460018060a01b03845460101c163314611e5a565b8183526039602052604083209060078201906001825403611113576119dc60018401546120cc565b611a4c575091611a3b6040926101947f17b76cf2012024f7fe05b4a8b036b188464d5b49b7c8532e95c5c67a4b792eb29555828652603d60205283862060ff19815416905580548652603a602052611a35848720611fef565b54612116565b8151908152426020820152a1604051f35b6040516324b1a7e960e01b8152fd5b3461023b57602036600319011261023b5761014061016092604051611a7f81611f53565b8181528160208201528160408201528160608201528160808201528160a08201528160c08201528160e08201526040610100928084840152808561012094828682015201528535815260396020522091600a60405193611ade85611f53565b8054968786526001820154602087015260018060a01b036002830154166040870152600382015460608701528101546080860152600581015460a0860152600681015460c0860152600781015460e08601526008810154838601526009810154848601520154848401526040519485526020830151602086015260018060a01b036040840151166040860152606083015160608601526080830151608086015260a083015160a086015260c083015160c086015260e083015160e0860152808301519085015280820151908401520151610140820152f35b5050506101e0611e17565b50346105ad57611bd036611dd3565b91908152603a602052604081209081548310156105ad576020611bf38484611de9565b90546040519160031b1c8152f35b3461023b5760209081600319360112610a7757358252603a81526040822060405192838383549182815201908193835284832090835b818110611c8b5750505084611c4d910385611fce565b60405193838594850191818652518092526040850193925b828110611c7457505050500390f35b835185528695509381019392810192600101611c65565b825484529286019260019283019201611c37565b3461023b57602036600319011261023b57803590818352603960205260408320906007820190600182540361111357611cdb60018401546120cc565b15611a4c57509160409160027fde7965c8d6f24b73501e8bcad1a4f03937db4f902bfda3bee08b335accf0749694556003429101558151908152426020820152a1604051f35b50346105ad57806003193601126105ad5760206040516203f4808152f35b50346105ad5760203660031901126105ad57611d59611da7565b60018060a01b0390611d7282845460101c163314611e5a565b1660018060a01b03196036541617603655604051f35b50346101e05760003660031901126101e0576020604051620151808152f35b600435906001600160a01b03821682036101e057565b602435906001600160a01b03821682036101e057565b60409060031901126101e0576004359060243590565b8054821015611e015760005260206000200190600090565b634e487b7160e01b600052603260045260246000fd5b50346101e05760003660031901126101e057602060405169021e19e0c9bab24000008152f35b50346101e05760003660031901126101e057602060405160288152f35b15611e6157565b60405162461bcd60e51b815260206004820152600a60248201526927b7363c9037bbb732b960b11b6044820152606490fd5b6000549060018060a01b03808216908360101c167f8be0079c531659141344cd1fd0a4f28419497f9722a3daafe3b4186f6b6457e06000604051a362010000600160b01b031990911660109190911b62010000600160b01b031617600055565b15611efa57565b60405162461bcd60e51b815260206004820152602b60248201527f496e697469616c697a61626c653a20636f6e7472616374206973206e6f74206960448201526a6e697469616c697a696e6760a81b6064820152608490fd5b61016081019081106001600160401b03821117611f6f57604052565b634e487b7160e01b600052604160045260246000fd5b6001600160401b038111611f6f57604052565b606081019081106001600160401b03821117611f6f57604052565b608081019081106001600160401b03821117611f6f57604052565b90601f801991011681019081106001600160401b03821117611f6f57604052565b805490811561201957600019918201916120098383611de9565b909182549160031b1b1916905555565b634e487b7160e01b600052603160045260246000fd5b8119811161203b570190565b634e487b7160e01b600052601160045260246000fd5b6201518090806000190482118115151661203b570290565b80600019046028118115151661203b5760280290565b64e8d4a5100090806000190482118115151661203b570290565b806000190482118115151661203b570290565b81156120b6570490565b634e487b7160e01b600052601260045260246000fd5b6201518019811161203b57620151800142101590565b818111156120f25750506001905b565b10156120fd57600290565b600390565b51906001600160a01b03821682036101e057565b6035546001600160a01b031690813b156101e057604051918291631b35278960e01b835260048301528160446000938480948160248401525af180156121865761215e575050565b6001600160401b0382116121725750604052565b634e487b7160e01b81526041600452602490fd5b50604051903d90823e3d90fd5b6033546001600160a01b031691823b156101e057604051634bdc2db560e11b81526001600160a01b039290921660048301526024820152906000908290604490829084905af180156121ef576121e65750565b6120f090611f85565b6040513d6000823e3d90fdfe30922d3a94c33e0ce3f99be437cbdf00f141e304f742a1cbd0df5cc5b490cd45bf97c766fd98feb70e7d5cc384ac953bcce9a7ca082cf57da33a199d67f7b7aba2646970667358221220d86b27a6497ba11e8c16a88d2d38bec473e958d58a6a866f6b859927c5e0a86664736f6c634300080f0033",
  "devdoc": {
    "kind": "dev",
    "methods": {
      "claimReward(uint256)": {
        "params": {
          "_id": "Report id"
        }
      },
      "closeReport(uint256)": {
        "params": {
          "_id": "Report id"
        }
      },
      "executed(uint256)": {
        "params": {
          "_reportId": "Report id"
        }
      },
      "owner()": {
        "details": "Returns the address of the current owner."
      },
      "payDebt(uint256,address)": {
        "params": {
          "_id": "Report id",
          "_user": "User address (can pay debt for another user)"
        }
      },
      "renounceOwnership()": {
        "details": "Leaves the contract without owner. It will not be possible to call `onlyOwner` functions anymore. Can only be called by the current owner. NOTE: Renouncing ownership will leave the contract without an owner, thereby removing any functionality that is only available to the owner."
      },
      "report(uint256,uint256)": {
        "params": {
          "_payout": "Payout amount of this report",
          "_poolId": "Pool id to report incident"
        }
      },
      "settle(uint256)": {
        "params": {
          "_id": "Report id"
        }
      },
      "startVoting(uint256)": {
        "params": {
          "_id": "Report id"
        }
      },
      "transferOwnership(address)": {
        "details": "Transfers ownership of the contract to a new account (`newOwner`). Can only be called by the current owner."
      },
      "vote(uint256,uint256,uint256)": {
        "params": {
          "_amount": "Amount of veDEG used for this vote",
          "_id": "Id of the report to be voted on",
          "_isFor": "The user's choice (1: vote for, 2: vote against)"
        }
      }
    },
    "version": 1
  },
  "userdoc": {
    "kind": "user",
    "methods": {
      "claimReward(uint256)": {
        "notice": "Claim the voting reward         Only callable through proposal center"
      },
      "closeReport(uint256)": {
        "notice": "Close a pending report         Only owner can close a pending report         Can only be closed before the pending period ends         Will change the status from PENDING to CLOSED"
      },
      "executed(uint256)": {
        "notice": "Update status after execution         Only callable by executor"
      },
      "payDebt(uint256,address)": {
        "notice": "Pay debt to get back veDEG         For those who made a wrong voting choice         The paid DEG will be burned and the veDEG will be unlocked         Can not call this function when result is TIED or choose the correct side"
      },
      "report(uint256,uint256)": {
        "notice": "Start a new incident report         1000 DEG tokens are staked to start a report         If the report is correct, reporter gets back 1000DEG + 10% shield income + extra 1000DEG         If the report is wrong, reporter loses 1000DEG to those who vote against         Only callable through proposal center"
      },
      "settle(uint256)": {
        "notice": "Settle the final result for a report"
      },
      "startVoting(uint256)": {
        "notice": "Start the voting process         Can only be started after the pending period         Will change the status from PENDING to VOTING"
      },
      "vote(uint256,uint256,uint256)": {
        "notice": "Vote on current reports         Voting power is decided by the (unlocked) balance of veDEG         Once voted, those veDEG will be locked         Rewarded if votes with majority         Punished if votes against majority"
      }
    },
    "notice": "Incident Report Contract         New reports for project hacks are handled inside this contract         Timeline for a report is:         |-----------------------|----------------------|-------|-------|               Pending Period         Voting Period       Extend Period         When a new report is proposed, it start with PENDING_STATUS.         The person who start the report need to deposit REPORT_THRESHOLD DEG tokens.         During PENDING_STATUS, users & security companies can look at the report event.         After PENDING_PERIOD, the voting can be started and status transfer to VOTING_STATUS.         Users can vote for or against the report with veDeg tokens.         VeDeg tokens used for voting will be tentatively locked until the voting is settled.         After VOTING_PERIOD, the voting can be settled and status transfer to SETTLED_STATUS.         Depending on the votes of each side, the result can be PASSED, REJECTED or TIED.         Different results for their veDeg tokens will be set depending on the result.         If the result has changes during the last 24 hours of voting, the voting will be extended.         The time can only be extended twice.         For voters:              PASSED: Who vote for will get all veDeg tokens from the opposite side              REJECTED: Who vote against will get all veDeg tokens from the opposite side              TIED: Users can unlock their veDeg tokens         For reporter:              PASSED: Get back REPORT_THRESHOLD and get extra REPORT_REWARD & 10% of total treasury income              REJECTED: Lose REPORT_THRESHOLD to whom vote against              TIED: Lose REPORT_THRESHOLD         When an incident report has passed and been executed         The corresponding priority pool will be liquidated which means:             - Move out some assets for users to claim             - Deploy new generation of crTokens and PRI-LP tokens             - Update the farming weights for the priority farming pool",
    "version": 1
  },
  "storageLayout": {
    "storage": [
      {
        "astId": 184,
        "contract": "src/voting/incidentReport/IncidentReport.sol:IncidentReport",
        "label": "_initialized",
        "offset": 0,
        "slot": "0",
        "type": "t_uint8"
      },
      {
        "astId": 187,
        "contract": "src/voting/incidentReport/IncidentReport.sol:IncidentReport",
        "label": "_initializing",
        "offset": 1,
        "slot": "0",
        "type": "t_bool"
      },
      {
        "astId": 17625,
        "contract": "src/voting/incidentReport/IncidentReport.sol:IncidentReport",
        "label": "_owner",
        "offset": 2,
        "slot": "0",
        "type": "t_address"
      },
      {
        "astId": 17732,
        "contract": "src/voting/incidentReport/IncidentReport.sol:IncidentReport",
        "label": "__gap",
        "offset": 0,
        "slot": "1",
        "type": "t_array(t_uint256)49_storage"
      },
      {
        "astId": 6132,
        "contract": "src/voting/incidentReport/IncidentReport.sol:IncidentReport",
        "label": "deg",
        "offset": 0,
        "slot": "50",
        "type": "t_contract(IDegisToken)6259"
      },
      {
        "astId": 6135,
        "contract": "src/voting/incidentReport/IncidentReport.sol:IncidentReport",
        "label": "veDeg",
        "offset": 0,
        "slot": "51",
        "type": "t_contract(IVeDEG)7416"
      },
      {
        "astId": 6138,
        "contract": "src/voting/incidentReport/IncidentReport.sol:IncidentReport",
        "label": "shield",
        "offset": 0,
        "slot": "52",
        "type": "t_contract(IShield)7371"
      },
      {
        "astId": 19618,
        "contract": "src/voting/incidentReport/IncidentReport.sol:IncidentReport",
        "label": "priorityPoolFactory",
        "offset": 0,
        "slot": "53",
        "type": "t_contract(IPriorityPoolFactory)7293"
      },
      {
        "astId": 19620,
        "contract": "src/voting/incidentReport/IncidentReport.sol:IncidentReport",
        "label": "executor",
        "offset": 0,
        "slot": "54",
        "type": "t_address"
      },
      {
        "astId": 18116,
        "contract": "src/voting/incidentReport/IncidentReport.sol:IncidentReport",
        "label": "reportCounter",
        "offset": 0,
        "slot": "55",
        "type": "t_uint256"
      },
      {
        "astId": 18118,
        "contract": "src/voting/incidentReport/IncidentReport.sol:IncidentReport",
        "label": "quorumRatio",
        "offset": 0,
        "slot": "56",
        "type": "t_uint256"
      },
      {
        "astId": 18146,
        "contract": "src/voting/incidentReport/IncidentReport.sol:IncidentReport",
        "label": "reports",
        "offset": 0,
        "slot": "57",
        "type": "t_mapping(t_uint256,t_struct(Report)18141_storage)"
      },
      {
        "astId": 18151,
        "contract": "src/voting/incidentReport/IncidentReport.sol:IncidentReport",
        "label": "poolReports",
        "offset": 0,
        "slot": "58",
        "type": "t_mapping(t_uint256,t_array(t_uint256)dyn_storage)"
      },
      {
        "astId": 18163,
        "contract": "src/voting/incidentReport/IncidentReport.sol:IncidentReport",
        "label": "tempResults",
        "offset": 0,
        "slot": "59",
        "type": "t_mapping(t_uint256,t_struct(TempResult)18158_storage)"
      },
      {
        "astId": 18179,
        "contract": "src/voting/incidentReport/IncidentReport.sol:IncidentReport",
        "label": "votes",
        "offset": 0,
        "slot": "60",
        "type": "t_mapping(t_address,t_mapping(t_uint256,t_struct(UserVote)18172_storage))"
      },
      {
        "astId": 18183,
        "contract": "src/voting/incidentReport/IncidentReport.sol:IncidentReport",
        "label": "reported",
        "offset": 0,
        "slot": "61",
        "type": "t_mapping(t_uint256,t_bool)"
      }
    ],
    "types": {
      "t_address": {
        "encoding": "inplace",
        "label": "address",
        "numberOfBytes": "20"
      },
      "t_array(t_uint256)49_storage": {
        "base": "t_uint256",
        "encoding": "inplace",
        "label": "uint256[49]",
        "numberOfBytes": "1568"
      },
      "t_array(t_uint256)dyn_storage": {
        "base": "t_uint256",
        "encoding": "dynamic_array",
        "label": "uint256[]",
        "numberOfBytes": "32"
      },
      "t_bool": {
        "encoding": "inplace",
        "label": "bool",
        "numberOfBytes": "1"
      },
      "t_contract(IDegisToken)6259": {
        "encoding": "inplace",
        "label": "contract IDegisToken",
        "numberOfBytes": "20"
      },
      "t_contract(IPriorityPoolFactory)7293": {
        "encoding": "inplace",
        "label": "contract IPriorityPoolFactory",
        "numberOfBytes": "20"
      },
      "t_contract(IShield)7371": {
        "encoding": "inplace",
        "label": "contract IShield",
        "numberOfBytes": "20"
      },
      "t_contract(IVeDEG)7416": {
        "encoding": "inplace",
        "label": "contract IVeDEG",
        "numberOfBytes": "20"
      },
      "t_mapping(t_address,t_mapping(t_uint256,t_struct(UserVote)18172_storage))": {
        "encoding": "mapping",
        "key": "t_address",
        "label": "mapping(address => mapping(uint256 => struct IncidentReport.UserVote))",
        "numberOfBytes": "32",
        "value": "t_mapping(t_uint256,t_struct(UserVote)18172_storage)"
      },
      "t_mapping(t_uint256,t_array(t_uint256)dyn_storage)": {
        "encoding": "mapping",
        "key": "t_uint256",
        "label": "mapping(uint256 => uint256[])",
        "numberOfBytes": "32",
        "value": "t_array(t_uint256)dyn_storage"
      },
      "t_mapping(t_uint256,t_bool)": {
        "encoding": "mapping",
        "key": "t_uint256",
        "label": "mapping(uint256 => bool)",
        "numberOfBytes": "32",
        "value": "t_bool"
      },
      "t_mapping(t_uint256,t_struct(Report)18141_storage)": {
        "encoding": "mapping",
        "key": "t_uint256",
        "label": "mapping(uint256 => struct IncidentReport.Report)",
        "numberOfBytes": "32",
        "value": "t_struct(Report)18141_storage"
      },
      "t_mapping(t_uint256,t_struct(TempResult)18158_storage)": {
        "encoding": "mapping",
        "key": "t_uint256",
        "label": "mapping(uint256 => struct IncidentReport.TempResult)",
        "numberOfBytes": "32",
        "value": "t_struct(TempResult)18158_storage"
      },
      "t_mapping(t_uint256,t_struct(UserVote)18172_storage)": {
        "encoding": "mapping",
        "key": "t_uint256",
        "label": "mapping(uint256 => struct IncidentReport.UserVote)",
        "numberOfBytes": "32",
        "value": "t_struct(UserVote)18172_storage"
      },
      "t_struct(Report)18141_storage": {
        "encoding": "inplace",
        "label": "struct IncidentReport.Report",
        "members": [
          {
            "astId": 18120,
            "contract": "src/voting/incidentReport/IncidentReport.sol:IncidentReport",
            "label": "poolId",
            "offset": 0,
            "slot": "0",
            "type": "t_uint256"
          },
          {
            "astId": 18122,
            "contract": "src/voting/incidentReport/IncidentReport.sol:IncidentReport",
            "label": "reportTimestamp",
            "offset": 0,
            "slot": "1",
            "type": "t_uint256"
          },
          {
            "astId": 18124,
            "contract": "src/voting/incidentReport/IncidentReport.sol:IncidentReport",
            "label": "reporter",
            "offset": 0,
            "slot": "2",
            "type": "t_address"
          },
          {
            "astId": 18126,
            "contract": "src/voting/incidentReport/IncidentReport.sol:IncidentReport",
            "label": "voteTimestamp",
            "offset": 0,
            "slot": "3",
            "type": "t_uint256"
          },
          {
            "astId": 18128,
            "contract": "src/voting/incidentReport/IncidentReport.sol:IncidentReport",
            "label": "numFor",
            "offset": 0,
            "slot": "4",
            "type": "t_uint256"
          },
          {
            "astId": 18130,
            "contract": "src/voting/incidentReport/IncidentReport.sol:IncidentReport",
            "label": "numAgainst",
            "offset": 0,
            "slot": "5",
            "type": "t_uint256"
          },
          {
            "astId": 18132,
            "contract": "src/voting/incidentReport/IncidentReport.sol:IncidentReport",
            "label": "round",
            "offset": 0,
            "slot": "6",
            "type": "t_uint256"
          },
          {
            "astId": 18134,
            "contract": "src/voting/incidentReport/IncidentReport.sol:IncidentReport",
            "label": "status",
            "offset": 0,
            "slot": "7",
            "type": "t_uint256"
          },
          {
            "astId": 18136,
            "contract": "src/voting/incidentReport/IncidentReport.sol:IncidentReport",
            "label": "result",
            "offset": 0,
            "slot": "8",
            "type": "t_uint256"
          },
          {
            "astId": 18138,
            "contract": "src/voting/incidentReport/IncidentReport.sol:IncidentReport",
            "label": "votingReward",
            "offset": 0,
            "slot": "9",
            "type": "t_uint256"
          },
          {
            "astId": 18140,
            "contract": "src/voting/incidentReport/IncidentReport.sol:IncidentReport",
            "label": "payout",
            "offset": 0,
            "slot": "10",
            "type": "t_uint256"
          }
        ],
        "numberOfBytes": "352"
      },
      "t_struct(TempResult)18158_storage": {
        "encoding": "inplace",
        "label": "struct IncidentReport.TempResult",
        "members": [
          {
            "astId": 18153,
            "contract": "src/voting/incidentReport/IncidentReport.sol:IncidentReport",
            "label": "result",
            "offset": 0,
            "slot": "0",
            "type": "t_uint256"
          },
          {
            "astId": 18155,
            "contract": "src/voting/incidentReport/IncidentReport.sol:IncidentReport",
            "label": "sampleTimestamp",
            "offset": 0,
            "slot": "1",
            "type": "t_uint256"
          },
          {
            "astId": 18157,
            "contract": "src/voting/incidentReport/IncidentReport.sol:IncidentReport",
            "label": "hasChanged",
            "offset": 0,
            "slot": "2",
            "type": "t_bool"
          }
        ],
        "numberOfBytes": "96"
      },
      "t_struct(UserVote)18172_storage": {
        "encoding": "inplace",
        "label": "struct IncidentReport.UserVote",
        "members": [
          {
            "astId": 18165,
            "contract": "src/voting/incidentReport/IncidentReport.sol:IncidentReport",
            "label": "choice",
            "offset": 0,
            "slot": "0",
            "type": "t_uint256"
          },
          {
            "astId": 18167,
            "contract": "src/voting/incidentReport/IncidentReport.sol:IncidentReport",
            "label": "amount",
            "offset": 0,
            "slot": "1",
            "type": "t_uint256"
          },
          {
            "astId": 18169,
            "contract": "src/voting/incidentReport/IncidentReport.sol:IncidentReport",
            "label": "claimed",
            "offset": 0,
            "slot": "2",
            "type": "t_bool"
          },
          {
            "astId": 18171,
            "contract": "src/voting/incidentReport/IncidentReport.sol:IncidentReport",
            "label": "paid",
            "offset": 1,
            "slot": "2",
            "type": "t_bool"
          }
        ],
        "numberOfBytes": "96"
      },
      "t_uint256": {
        "encoding": "inplace",
        "label": "uint256",
        "numberOfBytes": "32"
      },
      "t_uint8": {
        "encoding": "inplace",
        "label": "uint8",
        "numberOfBytes": "1"
      }
    }
  }
}