{
  "address": "0x79951530601a2FE518919A93968344724C92D136",
  "abi": [
    {
      "inputs": [],
      "name": "ProtectionPool__ExceededTotalSupply",
      "type": "error"
    },
    {
      "inputs": [],
      "name": "ProtectionPool__NotAllowedToPause",
      "type": "error"
    },
    {
      "inputs": [],
      "name": "ProtectionPool__NotEnoughBalance",
      "type": "error"
    },
    {
      "inputs": [],
      "name": "ProtectionPool__NotEnoughLiquidity",
      "type": "error"
    },
    {
      "inputs": [],
      "name": "ProtectionPool__OnlyPolicyCenter",
      "type": "error"
    },
    {
      "inputs": [],
      "name": "ProtectionPool__OnlyPriorityPool",
      "type": "error"
    },
    {
      "inputs": [],
      "name": "ProtectionPool__OnlyPriorityPoolOrPolicyCenter",
      "type": "error"
    },
    {
      "anonymous": false,
      "inputs": [
        {
          "indexed": true,
          "internalType": "address",
          "name": "owner",
          "type": "address"
        },
        {
          "indexed": true,
          "internalType": "address",
          "name": "spender",
          "type": "address"
        },
        {
          "indexed": false,
          "internalType": "uint256",
          "name": "value",
          "type": "uint256"
        }
      ],
      "name": "Approval",
      "type": "event"
    },
    {
      "anonymous": false,
      "inputs": [
        {
          "indexed": true,
          "internalType": "address",
          "name": "lender",
          "type": "address"
        },
        {
          "indexed": true,
          "internalType": "address",
          "name": "borrower",
          "type": "address"
        },
        {
          "indexed": true,
          "internalType": "address",
          "name": "stablecoin",
          "type": "address"
        },
        {
          "indexed": false,
          "internalType": "uint256",
          "name": "amount",
          "type": "uint256"
        },
        {
          "indexed": false,
          "internalType": "uint256",
          "name": "fee",
          "type": "uint256"
        }
      ],
      "name": "FlashLoanBorrowed",
      "type": "event"
    },
    {
      "anonymous": false,
      "inputs": [
        {
          "indexed": false,
          "internalType": "uint8",
          "name": "version",
          "type": "uint8"
        }
      ],
      "name": "Initialized",
      "type": "event"
    },
    {
      "anonymous": false,
      "inputs": [
        {
          "indexed": false,
          "internalType": "uint256",
          "name": "shieldAmount",
          "type": "uint256"
        },
        {
          "indexed": false,
          "internalType": "uint256",
          "name": "lpAmount",
          "type": "uint256"
        },
        {
          "indexed": false,
          "internalType": "address",
          "name": "sender",
          "type": "address"
        }
      ],
      "name": "LiquidityProvided",
      "type": "event"
    },
    {
      "anonymous": false,
      "inputs": [
        {
          "indexed": false,
          "internalType": "uint256",
          "name": "lpAmount",
          "type": "uint256"
        },
        {
          "indexed": false,
          "internalType": "uint256",
          "name": "shieldAmount",
          "type": "uint256"
        },
        {
          "indexed": false,
          "internalType": "address",
          "name": "sender",
          "type": "address"
        }
      ],
      "name": "LiquidityRemoved",
      "type": "event"
    },
    {
      "anonymous": false,
      "inputs": [
        {
          "indexed": false,
          "internalType": "address",
          "name": "pool",
          "type": "address"
        },
        {
          "indexed": false,
          "internalType": "uint256",
          "name": "amount",
          "type": "uint256"
        }
      ],
      "name": "LiquidityRemovedWhenClaimed",
      "type": "event"
    },
    {
      "anonymous": false,
      "inputs": [
        {
          "indexed": true,
          "internalType": "address",
          "name": "previousOwner",
          "type": "address"
        },
        {
          "indexed": true,
          "internalType": "address",
          "name": "newOwner",
          "type": "address"
        }
      ],
      "name": "OwnershipTransferred",
      "type": "event"
    },
    {
      "anonymous": false,
      "inputs": [
        {
          "indexed": false,
          "internalType": "uint256",
          "name": "price",
          "type": "uint256"
        }
      ],
      "name": "PriceUpdated",
      "type": "event"
    },
    {
      "anonymous": false,
      "inputs": [
        {
          "indexed": false,
          "internalType": "uint256",
          "name": "totalReward",
          "type": "uint256"
        }
      ],
      "name": "RewardUpdated",
      "type": "event"
    },
    {
      "anonymous": false,
      "inputs": [
        {
          "indexed": true,
          "internalType": "address",
          "name": "from",
          "type": "address"
        },
        {
          "indexed": true,
          "internalType": "address",
          "name": "to",
          "type": "address"
        },
        {
          "indexed": false,
          "internalType": "uint256",
          "name": "value",
          "type": "uint256"
        }
      ],
      "name": "Transfer",
      "type": "event"
    },
    {
      "inputs": [],
      "name": "FEE",
      "outputs": [
        {
          "internalType": "uint256",
          "name": "",
          "type": "uint256"
        }
      ],
      "stateMutability": "view",
      "type": "function"
    },
    {
      "inputs": [
        {
          "internalType": "address",
          "name": "owner",
          "type": "address"
        },
        {
          "internalType": "address",
          "name": "spender",
          "type": "address"
        }
      ],
      "name": "allowance",
      "outputs": [
        {
          "internalType": "uint256",
          "name": "",
          "type": "uint256"
        }
      ],
      "stateMutability": "view",
      "type": "function"
    },
    {
      "inputs": [
        {
          "internalType": "address",
          "name": "spender",
          "type": "address"
        },
        {
          "internalType": "uint256",
          "name": "amount",
          "type": "uint256"
        }
      ],
      "name": "approve",
      "outputs": [
        {
          "internalType": "bool",
          "name": "",
          "type": "bool"
        }
      ],
      "stateMutability": "nonpayable",
      "type": "function"
    },
    {
      "inputs": [
        {
          "internalType": "address",
          "name": "account",
          "type": "address"
        }
      ],
      "name": "balanceOf",
      "outputs": [
        {
          "internalType": "uint256",
          "name": "",
          "type": "uint256"
        }
      ],
      "stateMutability": "view",
      "type": "function"
    },
    {
      "inputs": [
        {
          "internalType": "uint256",
          "name": "_amountToRemove",
          "type": "uint256"
        }
      ],
      "name": "checkEnoughLiquidity",
      "outputs": [],
      "stateMutability": "view",
      "type": "function"
    },
    {
      "inputs": [],
      "name": "decimals",
      "outputs": [
        {
          "internalType": "uint8",
          "name": "",
          "type": "uint8"
        }
      ],
      "stateMutability": "pure",
      "type": "function"
    },
    {
      "inputs": [
        {
          "internalType": "address",
          "name": "spender",
          "type": "address"
        },
        {
          "internalType": "uint256",
          "name": "subtractedValue",
          "type": "uint256"
        }
      ],
      "name": "decreaseAllowance",
      "outputs": [
        {
          "internalType": "bool",
          "name": "",
          "type": "bool"
        }
      ],
      "stateMutability": "nonpayable",
      "type": "function"
    },
    {
      "inputs": [
        {
          "internalType": "address",
          "name": "_token",
          "type": "address"
        },
        {
          "internalType": "uint256",
          "name": "_amount",
          "type": "uint256"
        }
      ],
      "name": "flashFee",
      "outputs": [
        {
          "internalType": "uint256",
          "name": "",
          "type": "uint256"
        }
      ],
      "stateMutability": "view",
      "type": "function"
    },
    {
      "inputs": [
        {
          "internalType": "contract IERC3156FlashBorrower",
          "name": "_receiver",
          "type": "address"
        },
        {
          "internalType": "address",
          "name": "_token",
          "type": "address"
        },
        {
          "internalType": "uint256",
          "name": "_amount",
          "type": "uint256"
        },
        {
          "internalType": "bytes",
          "name": "_data",
          "type": "bytes"
        }
      ],
      "name": "flashLoan",
      "outputs": [
        {
          "internalType": "bool",
          "name": "",
          "type": "bool"
        }
      ],
      "stateMutability": "nonpayable",
      "type": "function"
    },
    {
      "inputs": [],
      "name": "getLatestPrice",
      "outputs": [
        {
          "internalType": "uint256",
          "name": "",
          "type": "uint256"
        }
      ],
      "stateMutability": "nonpayable",
      "type": "function"
    },
    {
      "inputs": [],
      "name": "getTotalActiveCovered",
      "outputs": [
        {
          "internalType": "uint256",
          "name": "activeCovered",
          "type": "uint256"
        }
      ],
      "stateMutability": "view",
      "type": "function"
    },
    {
      "inputs": [],
      "name": "getTotalCovered",
      "outputs": [
        {
          "internalType": "uint256",
          "name": "totalCovered",
          "type": "uint256"
        }
      ],
      "stateMutability": "view",
      "type": "function"
    },
    {
      "inputs": [],
      "name": "incidentReport",
      "outputs": [
        {
          "internalType": "address",
          "name": "",
          "type": "address"
        }
      ],
      "stateMutability": "view",
      "type": "function"
    },
    {
      "inputs": [
        {
          "internalType": "address",
          "name": "spender",
          "type": "address"
        },
        {
          "internalType": "uint256",
          "name": "addedValue",
          "type": "uint256"
        }
      ],
      "name": "increaseAllowance",
      "outputs": [
        {
          "internalType": "bool",
          "name": "",
          "type": "bool"
        }
      ],
      "stateMutability": "nonpayable",
      "type": "function"
    },
    {
      "inputs": [
        {
          "internalType": "address",
          "name": "_deg",
          "type": "address"
        },
        {
          "internalType": "address",
          "name": "_veDeg",
          "type": "address"
        },
        {
          "internalType": "address",
          "name": "_shield",
          "type": "address"
        }
      ],
      "name": "initialize",
      "outputs": [],
      "stateMutability": "nonpayable",
      "type": "function"
    },
    {
      "inputs": [],
      "name": "lastRewardTimestamp",
      "outputs": [
        {
          "internalType": "uint256",
          "name": "",
          "type": "uint256"
        }
      ],
      "stateMutability": "view",
      "type": "function"
    },
    {
      "inputs": [
        {
          "internalType": "address",
          "name": "_token",
          "type": "address"
        }
      ],
      "name": "maxFlashLoan",
      "outputs": [
        {
          "internalType": "uint256",
          "name": "",
          "type": "uint256"
        }
      ],
      "stateMutability": "view",
      "type": "function"
    },
    {
      "inputs": [],
      "name": "minAssetRequirement",
      "outputs": [
        {
          "internalType": "uint256",
          "name": "minRequirement",
          "type": "uint256"
        }
      ],
      "stateMutability": "view",
      "type": "function"
    },
    {
      "inputs": [],
      "name": "miningToken",
      "outputs": [
        {
          "internalType": "address",
          "name": "",
          "type": "address"
        }
      ],
      "stateMutability": "view",
      "type": "function"
    },
    {
      "inputs": [],
      "name": "name",
      "outputs": [
        {
          "internalType": "string",
          "name": "",
          "type": "string"
        }
      ],
      "stateMutability": "view",
      "type": "function"
    },
    {
      "inputs": [],
      "name": "owner",
      "outputs": [
        {
          "internalType": "address",
          "name": "",
          "type": "address"
        }
      ],
      "stateMutability": "view",
      "type": "function"
    },
    {
      "inputs": [
        {
          "internalType": "bool",
          "name": "_paused",
          "type": "bool"
        }
      ],
      "name": "pauseProtectionPool",
      "outputs": [],
      "stateMutability": "nonpayable",
      "type": "function"
    },
    {
      "inputs": [],
      "name": "paused",
      "outputs": [
        {
          "internalType": "bool",
          "name": "",
          "type": "bool"
        }
      ],
      "stateMutability": "view",
      "type": "function"
    },
    {
      "inputs": [],
      "name": "policyCenter",
      "outputs": [
        {
          "internalType": "address",
          "name": "",
          "type": "address"
        }
      ],
      "stateMutability": "view",
      "type": "function"
    },
    {
      "inputs": [],
      "name": "price",
      "outputs": [
        {
          "internalType": "uint256",
          "name": "",
          "type": "uint256"
        }
      ],
      "stateMutability": "view",
      "type": "function"
    },
    {
      "inputs": [],
      "name": "priorityPoolFactory",
      "outputs": [
        {
          "internalType": "address",
          "name": "",
          "type": "address"
        }
      ],
      "stateMutability": "view",
      "type": "function"
    },
    {
      "inputs": [
        {
          "internalType": "uint256",
          "name": "_amount",
          "type": "uint256"
        },
        {
          "internalType": "address",
          "name": "_provider",
          "type": "address"
        }
      ],
      "name": "providedLiquidity",
      "outputs": [],
      "stateMutability": "nonpayable",
      "type": "function"
    },
    {
      "inputs": [
        {
          "internalType": "uint256",
          "name": "_amount",
          "type": "uint256"
        },
        {
          "internalType": "address",
          "name": "_provider",
          "type": "address"
        }
      ],
      "name": "removedLiquidity",
      "outputs": [
        {
          "internalType": "uint256",
          "name": "shieldToTransfer",
          "type": "uint256"
        }
      ],
      "stateMutability": "nonpayable",
      "type": "function"
    },
    {
      "inputs": [
        {
          "internalType": "uint256",
          "name": "_amount",
          "type": "uint256"
        },
        {
          "internalType": "address",
          "name": "_to",
          "type": "address"
        }
      ],
      "name": "removedLiquidityWhenClaimed",
      "outputs": [],
      "stateMutability": "nonpayable",
      "type": "function"
    },
    {
      "inputs": [],
      "name": "renounceOwnership",
      "outputs": [],
      "stateMutability": "nonpayable",
      "type": "function"
    },
    {
      "inputs": [
        {
          "internalType": "uint256",
          "name": "",
          "type": "uint256"
        },
        {
          "internalType": "uint256",
          "name": "",
          "type": "uint256"
        }
      ],
      "name": "rewardSpeed",
      "outputs": [
        {
          "internalType": "uint256",
          "name": "",
          "type": "uint256"
        }
      ],
      "stateMutability": "view",
      "type": "function"
    },
    {
      "inputs": [
        {
          "internalType": "address",
          "name": "_incidentReport",
          "type": "address"
        }
      ],
      "name": "setIncidentReport",
      "outputs": [],
      "stateMutability": "nonpayable",
      "type": "function"
    },
    {
      "inputs": [
        {
          "internalType": "address",
          "name": "_miningToken",
          "type": "address"
        }
      ],
      "name": "setMiningToken",
      "outputs": [],
      "stateMutability": "nonpayable",
      "type": "function"
    },
    {
      "inputs": [
        {
          "internalType": "address",
          "name": "_policyCenter",
          "type": "address"
        }
      ],
      "name": "setPolicyCenter",
      "outputs": [],
      "stateMutability": "nonpayable",
      "type": "function"
    },
    {
      "inputs": [
        {
          "internalType": "address",
          "name": "_priorityPoolFactory",
          "type": "address"
        }
      ],
      "name": "setPriorityPoolFactory",
      "outputs": [],
      "stateMutability": "nonpayable",
      "type": "function"
    },
    {
      "inputs": [],
      "name": "stakedSupply",
      "outputs": [
        {
          "internalType": "uint256",
          "name": "",
          "type": "uint256"
        }
      ],
      "stateMutability": "view",
      "type": "function"
    },
    {
      "inputs": [],
      "name": "startTime",
      "outputs": [
        {
          "internalType": "uint256",
          "name": "",
          "type": "uint256"
        }
      ],
      "stateMutability": "view",
      "type": "function"
    },
    {
      "inputs": [],
      "name": "symbol",
      "outputs": [
        {
          "internalType": "string",
          "name": "",
          "type": "string"
        }
      ],
      "stateMutability": "view",
      "type": "function"
    },
    {
      "inputs": [],
      "name": "token",
      "outputs": [
        {
          "internalType": "address",
          "name": "",
          "type": "address"
        }
      ],
      "stateMutability": "view",
      "type": "function"
    },
    {
      "inputs": [],
      "name": "totalSupply",
      "outputs": [
        {
          "internalType": "uint256",
          "name": "",
          "type": "uint256"
        }
      ],
      "stateMutability": "view",
      "type": "function"
    },
    {
      "inputs": [
        {
          "internalType": "address",
          "name": "to",
          "type": "address"
        },
        {
          "internalType": "uint256",
          "name": "amount",
          "type": "uint256"
        }
      ],
      "name": "transfer",
      "outputs": [
        {
          "internalType": "bool",
          "name": "",
          "type": "bool"
        }
      ],
      "stateMutability": "nonpayable",
      "type": "function"
    },
    {
      "inputs": [
        {
          "internalType": "address",
          "name": "from",
          "type": "address"
        },
        {
          "internalType": "address",
          "name": "to",
          "type": "address"
        },
        {
          "internalType": "uint256",
          "name": "amount",
          "type": "uint256"
        }
      ],
      "name": "transferFrom",
      "outputs": [
        {
          "internalType": "bool",
          "name": "",
          "type": "bool"
        }
      ],
      "stateMutability": "nonpayable",
      "type": "function"
    },
    {
      "inputs": [
        {
          "internalType": "address",
          "name": "newOwner",
          "type": "address"
        }
      ],
      "name": "transferOwnership",
      "outputs": [],
      "stateMutability": "nonpayable",
      "type": "function"
    },
    {
      "inputs": [],
      "name": "updateIndexCut",
      "outputs": [],
      "stateMutability": "nonpayable",
      "type": "function"
    },
    {
      "inputs": [
        {
          "internalType": "bool",
          "name": "_isStake",
          "type": "bool"
        },
        {
          "internalType": "uint256",
          "name": "_amount",
          "type": "uint256"
        }
      ],
      "name": "updateStakedSupply",
      "outputs": [],
      "stateMutability": "nonpayable",
      "type": "function"
    },
    {
      "inputs": [],
      "name": "updateWhenBuy",
      "outputs": [],
      "stateMutability": "nonpayable",
      "type": "function"
    }
  ],
  "transactionHash": "0x8306fe8fb904f860bca5d80e28e693e428f53492713c5289b52a7e08e444d343",
  "args": [],
  "numDeployments": 1,
  "solcInputHash": "d5c2a862a854f546a723a586560470aa",
  "bytecode": "0x6080806040523461001657612b16908161001c8239f35b600080fdfe608080604052600436101561001357600080fd5b600090813560e01c90816306fdde031461210457508063095ea7b3146120dd5780630dfa376d146120875780630f89b77d1461205e57806318160ddd146120405780631d23a7ad14611e755780631e432b0014611e4a57806323b872dd14611d905780632dd57bb014611d46578063313ce56714611d2a5780633950935114611cda57806344abf1a914611b4e578063484aaa9914611b315780634d05124c14611b165780635c975abb14611af35780635cffe9de1461172a578063613255ab1461165857806369cf7ac31461162f5780636f8a6e431461160657806370a08231146115cd578063715018a61461156a57806378e979251461154c5780638da5cb5b146115235780638e15f473146114fd57806395d89b41146114335780639fdf057f146113e9578063a035b1fe146113cb578063a457c2d714611326578063a8a2b431146112a3578063a9059cbb14611271578063ad35e1dc14611227578063b1fead0b146111f3578063c0c53b8b14610d2f578063c57981b514610d13578063ca6c6a4c14610b75578063d41ce4b114610b57578063d9d98ce414610b27578063da81afae146107a0578063dd5625c314610543578063dd62ed3e146104f4578063e3356ccf146104aa578063e8adbf2f14610481578063f2fde38b146103e5578063f8077fae146103c7578063fc0c546a1461039e5763fc51843c1461021b57600080fd5b3461039b578060031936011261039b5760cd54604051639e3079cb60e01b8152602092916001600160a01b039081169183908581600481875afa908115610390578291610363575b50815b818110610277578686604051908152f35b600119811161034f57600101946040516315895f4760e31b81528660048201528381602481895afa90811561031d5785929189918691610328575b50600460405180958193636835185f60e11b8352165afa90811561031d5784916102e7575b6102e192506122ce565b94610266565b90508782813d8311610316575b6102fe81836122ad565b81010312610311576102e19151906102d7565b600080fd5b503d6102f4565b6040513d86823e3d90fd5b61034491503d8088833e61033c81836122ad565b8101906125b5565b5050509050386102b2565b634e487b7160e01b83526011600452602483fd5b90508581813d8311610389575b61037a81836122ad565b81010312610311575138610263565b503d610370565b6040513d84823e3d90fd5b80fd5b503461039b578060031936011261039b576065546040516001600160a01b039091168152602090f35b503461039b578060031936011261039b57602060d154604051908152f35b503461039b57602036600319011261039b576103ff6121f4565b6066546001600160a01b0390610418908216331461265f565b81161561042d5761042890612a38565b604051f35b60405162461bcd60e51b815260206004820152602660248201527f4f776e61626c653a206e6577206f776e657220697320746865207a65726f206160448201526564647265737360d01b6064820152608490fd5b503461039b578060031936011261039b5760ce546040516001600160a01b039091168152602090f35b503461039b57602036600319011261039b576104c46121f4565b6066546001600160a01b0391906104de908316331461265f565b1660018060a01b031960cf54161760cf55604051f35b503461039b57604036600319011261039b5761050e6121f4565b604061051861220a565b9260018060a01b03809316815260346020522091166000526020526020604060002054604051908152f35b503461039b578060031936011261039b5760cd54604051639e3079cb60e01b81526001600160a01b039182169291602091908282600481885afa91821561031d57908391859361076f575b5060cc546040516370a0823160e01b8152306004820152946024949186908690829086165afa948515610764578695610735575b50855b8181106105d25786604051f35b6001198111610722576001016040516315895f4760e31b8152816004820152878187818c5afa9081156106a7579084918991610703575b5016604051631341449360e21b81528581600481855afa9081156106f85789916106cb575b5087811161063e575b50506105c5565b61271088600019048111891515166106b6579061065c9189026126b2565b813b156106b25788918783926040519485938492632440f3e960e01b845260048401525af180156106a757908891156106375761069890612269565b6106a3578638610637565b8680fd5b6040513d8a823e3d90fd5b8880fd5b87634e487b7160e01b60005260116004526000fd5b90508581813d83116106f1575b6106e281836122ad565b8101031261031157513861062e565b503d6106d8565b6040513d8b823e3d90fd5b61071791503d808b833e61033c81836122ad565b505050905038610609565b634e487b7160e01b875260116004528487fd5b9094508281813d831161075d575b61074d81836122ad565b81010312610311575193386105c2565b503d610743565b6040513d88823e3d90fd5b8281939294503d8311610799575b61078781836122ad565b8101031261031157829051913861058e565b503d61077d565b503461039b57604036600319011261039b576004356107bd61220a565b9160ff60985416610af95760ce546001600160a01b039290831633141580610a98575b610a86576035548111610a74576107f561290f565b60d2548160001904811182151516610a5e5764e8d4a5100090820204928060ce5416331480610a50575b15610a495784915b8183169586156109fa578685526020966033885260408620548381106109aa579083879282845260338b52036040832055610864846035546126ed565b603555600080516020612aa183398151915289604051868152a38260cc541687604051809263a9059cbb60e01b82528189816108a48d89600484016126d2565b03925af180156107645787927f0c54fc223ffd1a8f36652b5e83db4fff50f5ae151b11ceb56d5499b9f6e1fa1894926109069261097d575b506040805193845260208401949094526001600160a01b0316928201929092529081906060820190565b0390a18060ce54163314610920575b505050604051908152f35b60d4541690813b15610979578361095092849283604051809681958294632770a7eb60e21b8452600484016126d2565b03925af1801561039057610965575b80610915565b61096f8291612269565b61039b578061095f565b8280fd5b61099c908b3d8d116109a3575b61099481836122ad565b810190612647565b50386108dc565b503d61098a565b60405162461bcd60e51b8152600481018a9052602260248201527f45524332303a206275726e20616d6f756e7420657863656564732062616c616e604482015261636560f01b6064820152608490fd5b60405162461bcd60e51b815260206004820152602160248201527f45524332303a206275726e2066726f6d20746865207a65726f206164647265736044820152607360f81b6064820152608490fd5b3391610827565b610a59856126f8565b61081f565b634e487b7160e01b600052601160045260246000fd5b60405163d6e1271b60e01b8152600490fd5b60405163acfbdf9160e01b8152600490fd5b50602460208460cd541660405192838092633a31bb7760e11b82523360048301525afa908115610aee578391610ad0575b50156107e0565b610ae8915060203d81116109a35761099481836122ad565b38610ac9565b6040513d85823e3d90fd5b60405162461bcd60e51b815260206004820152600660248201526514185d5cd95960d21b6044820152606490fd5b503461039b57604036600319011261039b576020610b4f610b466121f4565b602435906129d5565b604051908152f35b503461039b578060031936011261039b57602060d354604051908152f35b503461039b57604036600319011261039b57600435610b9261220a565b60cd54604051633a31bb7760e11b8152336004820152919260209290916001600160a01b03919084908290602490829086165afa908115610764578691610cf6575b5015610ce45760cc54166040516370a0823160e01b81523060048201528381602481855afa908115610764578691610cb7575b508211610ca557818391610c32958760405180988195829463a9059cbb60e01b8452600484016126d2565b03925af191821561031d577f9c125d89aedad0c6838010bd5646efbf0d93daa2dcc78e414b4daee16abb6c7d93610c7f93610c87575b5050610c7261290f565b60405191829133836126d2565b0390a1604051f35b81610c9d92903d106109a35761099481836122ad565b503880610c68565b604051633ced52eb60e11b8152600490fd5b90508381813d8311610cdd575b610cce81836122ad565b81010312610311575138610c07565b503d610cc4565b6040516379b0b85160e01b8152600490fd5b610d0d9150843d86116109a35761099481836122ad565b38610bd4565b503461039b578060031936011261039b576020604051600a8152f35b503461039b57606036600319011261039b57610d496121f4565b610d5161220a565b604435906001600160a01b03821682036103115783549160ff8360081c1615928380946111e6575b80156111cf575b156111735760ff198116600117865583611162575b50604051610da281612292565b600e81526d141c9bdd1958dd1a5bdb941bdbdb60921b602082015260405190610dca82612292565b6006825265050524f2d4c560d41b6020830152610df660ff885460081c16610df181612541565b612541565b8051906001600160401b03821161114e578190610e1460365461222f565b601f81116110f5575b50602090601f831160011461107f578992611074575b50508160011b916000199060031b1c1916176036555b8051906001600160401b038211611060578190610e6760375461222f565b601f8111611004575b50602090601f8311600114610f93578892610f88575b50508160011b916000199060031b1c1916176037555b60ff855460081c1691610eae83612541565b606580546001600160a01b03199081166001600160a01b0385161790915592610eda90610df181612541565b610ee333612a38565b855494610f1160ff8760081c16610ef981612541565b610f0281612541565b60ff1960985416609855612541565b60ca805485166001600160a01b0392831617905560cb805485169282169290921790915560cc805490931691161790554260d055610f50575b50604051f35b61ff00191681557f7f26b83ff96e1f2b6a682f133852f6798a09c465da95921460cefb3847402498602060405160018152a138610f4a565b015190503880610e86565b60378952600080516020612ac18339815191529250601f198416895b818110610fec5750908460019594939210610fd3575b505050811b01603755610e9c565b015160001960f88460031b161c19169055388080610fc5565b92936020600181928786015181550195019301610faf565b60378952909150600080516020612ac1833981519152601f840160051c81019160208510611056575b90601f859493920160051c01905b8181106110485750610e70565b89815584935060010161103b565b909150819061102d565b634e487b7160e01b87526041600452602487fd5b015190503880610e33565b60368a52899350600080516020612a8183398151915291905b601f19841685106110da576001945083601f198116106110c1575b505050811b01603655610e49565b015160001960f88460031b161c191690553880806110b3565b81810151835560209485019460019093019290910190611098565b60368a52909150600080516020612a81833981519152601f840160051c810160208510611147575b90849392915b601f830160051c82018110611139575050610e1d565b8b8155859450600101611123565b508061111d565b634e487b7160e01b88526041600452602488fd5b61ffff191661010117855538610d95565b60405162461bcd60e51b815260206004820152602e60248201527f496e697469616c697a61626c653a20636f6e747261637420697320616c72656160448201526d191e481a5b9a5d1a585b1a5e995960921b6064820152608490fd5b50303b158015610d805750600160ff821614610d80565b50600160ff821610610d79565b503461039b57604036600319011261039b576040602091600435815260d58352818120602435825283522054604051908152f35b503461039b57602036600319011261039b576112416121f4565b6066546001600160a01b03919061125b908316331461265f565b1660018060a01b031960cd54161760cd55604051f35b503461039b57604036600319011261039b5761129861128e6121f4565b60243590336122da565b602060405160018152f35b503461039b57602036600319011261039b576112bd612220565b606654336001600160a01b0391821614159081611316575b81611307575b506112f55760ff8019609854169115151617609855604051f35b604051631b6a6b5b60e11b8152600490fd5b905060cd5416331415386112db565b80915060cf5416331415906112d5565b503461039b57604036600319011261039b576113406121f4565b60406024359233815260346020522060018060a01b03821660005260205260406000205491808310611378576112989203903361243f565b60405162461bcd60e51b815260206004820152602560248201527f45524332303a2064656372656173656420616c6c6f77616e63652062656c6f77604482015264207a65726f60d81b6064820152608490fd5b503461039b578060031936011261039b57602060d254604051908152f35b503461039b57602036600319011261039b576114036121f4565b6066546001600160a01b03919061141d908316331461265f565b1660018060a01b031960d454161760d455604051f35b503461039b578060031936011261039b57604051816037546114548161222f565b808452906001908181169081156114d5575060011461148e575b61148a8461147e818803826122ad565b604051918291826121c8565b0390f35b6037835260209450600080516020612ac18339815191525b8284106114c2575050508161148a9361147e928201019361146e565b80548585018701529285019281016114a6565b61148a965061147e9450602092508593915060ff191682840152151560051b8201019361146e565b503461039b578060031936011261039b5761151661290f565b602060d254604051908152f35b503461039b578060031936011261039b576066546040516001600160a01b039091168152602090f35b503461039b578060031936011261039b57602060d054604051908152f35b503461039b578060031936011261039b576066546001600160a01b0381169061159433831461265f565b6000604051927f8be0079c531659141344cd1fd0a4f28419497f9722a3daafe3b4186f6b6457e08285a36001600160a01b031916606655f35b503461039b57602036600319011261039b576020906040906001600160a01b036115f56121f4565b168152603383522054604051908152f35b503461039b578060031936011261039b5760cd546040516001600160a01b039091168152602090f35b503461039b578060031936011261039b5760d4546040516001600160a01b039091168152602090f35b503461039b576020908160031936011261039b576116746121f4565b6065546001600160a01b0390811691168190036116f75782602491604051928380926370a0823160e01b82523060048301525afa9182156116eb57916116be575b50604051908152f35b90508181813d83116116e4575b6116d581836122ad565b810103126103115751386116b5565b503d6116cb565b604051903d90823e3d90fd5b60405162461bcd60e51b815260048101849052600b60248201526a1bdb9b1e481cda1a595b1960aa1b6044820152606490fd5b503461039b57608036600319011261039b576001600160a01b039060043582811690819003611aef5761175b61220a565b604435906064356001600160401b0395868211611aeb5736602383011215611aeb578160040135968711611aeb573660248884010111611aeb578315611ab8576117a584846129d5565b921694604051916370a0823160e01b9081845230600485015260209889856024818c5afa94851561031d578495611a89575b506117fc8a888b8b8860405180968195829463a9059cbb60e01b8452600484016126d2565b03925af18015611a7e578a8c936024959360c493611a61575b508060405196879586946323e30c8b60e01b8652336004870152828601528d60448601528c606486015260a060848601528260a486015201848401378181018301889052601f01601f19168101030181868b5af18015610aee578390611a14575b7f439148f0bbc682ca079e46d6e2c2f0c1e3b820f1a291b069d8882abf8cf18dd99150036119d3576118a884866122ce565b604051906323b872dd60e01b825287600483015230602483015260448201528881606481868c5af18015610aee576119b6575b5060405190815230600482015287816024818a5afa9182156116eb5790849192611984575b5061190b91926122ce565b1161194957604051918252848201527f2640247c2a780a1283695dd939b212be6c2e62a7182ef366efa28aa696f23d4c60403092a460405160018152f35b60405162461bcd60e51b81526004810186905260136024820152724e6f7420656e6f75676820706179206261636b60681b6044820152606490fd5b809250888092503d83116119af575b61199d81836122ad565b8101031261031157518261190b611900565b503d611993565b6119cc90893d8b116109a35761099481836122ad565b50386118db565b60405162461bcd60e51b815260048101899052601960248201527812515490cccc4d4d8e8810d85b1b189858dac819985a5b1959603a1b6044820152606490fd5b508881813d8311611a5a575b611a2a81836122ad565b81010312610979577f439148f0bbc682ca079e46d6e2c2f0c1e3b820f1a291b069d8882abf8cf18dd99051611876565b503d611a20565b611a7790863d88116109a35761099481836122ad565b5038611815565b6040513d87823e3d90fd5b9094508981813d8311611ab1575b611aa181836122ad565b81010312610311575193386117d7565b503d611a97565b60405162461bcd60e51b815260206004820152600b60248201526a16995c9bc8185b5bdd5b9d60aa1b6044820152606490fd5b8580fd5b5080fd5b503461039b578060031936011261039b57602060ff609854166040519015158152f35b503461039b578060031936011261039b576020610b4f6127a1565b503461039b57602036600319011261039b576104286004356126f8565b503461039b57604036600319011261039b57600435611b6b61220a565b60ce549091906001600160a01b039081163303611cc857611b8a61290f565b611b9f611b9683612698565b60d254906126b2565b90808416928315611c8357827fe198de8e85cdfd7f4510617c4cd12de7263b31eef6cb83924c620d8a080144a9918795611bdb836035546122ce565b603555808752603360205260408720611bf58482546122ce565b905586600080516020612aa18339815191526020604051868152a36040805191825260208201929092526001600160a01b03871691810191909152606090a160d45416803b1561097957611c6093836040518096819582946340c10f1960e01b8452600484016126d2565b03925af1801561039057611c745750604051f35b611c7d90612269565b38610f4a565b60405162461bcd60e51b815260206004820152601f60248201527f45524332303a206d696e7420746f20746865207a65726f2061646472657373006044820152606490fd5b6040516311bee39d60e31b8152600490fd5b503461039b57604036600319011261039b5761129890611d23611cfb6121f4565b9133815260346020526040812060018060a01b038416825260205260406024359120546122ce565b903361243f565b503461039b578060031936011261039b57602060405160068152f35b503461039b57602036600319011261039b57611d606121f4565b6066546001600160a01b039190611d7a908316331461265f565b1660018060a01b031960ce54161760ce55604051f35b503461039b57606036600319011261039b57611daa6121f4565b90611db361220a565b60406044359260018060a01b038516815260346020528181203382526020522054926000198403611de9575b61129893506122da565b828410611e0557611e00836112989503338361243f565b611ddf565b60405162461bcd60e51b815260206004820152601d60248201527f45524332303a20696e73756666696369656e7420616c6c6f77616e63650000006044820152606490fd5b503461039b578060031936011261039b5760ce546001600160a01b03163303611cc85761042861290f565b503461039b578060031936011261039b5760cd54604051639e3079cb60e01b81526020929182916001600160a01b03918216908581600481855afa90811561031d57849161200f575b50835b818110611ed2578686604051908152f35b6001198111611ffb576001016040516315895f4760e31b815281600482015260249086818381885afa908115611fd15786918a918991611fdc575b50604051634124974560e01b815292166004830181905292829081885afa908115611fd157908992918891611fb4575b50611f4a575b5050611ec1565b604051636835185f60e11b81529297929190829060049082905afa908115610764578691611f85575b50611f7d916122ce565b948638611f43565b90508781813d8311611fad575b611f9c81836122ad565b81010312611aeb5751611f7d611f73565b503d611f92565b611fcb9150833d85116109a35761099481836122ad565b38611f3d565b6040513d89823e3d90fd5b611ff091503d808b833e61033c81836122ad565b505050905038611f0d565b634e487b7160e01b85526011600452602485fd5b90508581813d8311612039575b61202681836122ad565b81010312612035575138611ebe565b8380fd5b503d61201c565b503461039b578060031936011261039b576020603554604051908152f35b503461039b578060031936011261039b5760cf546040516001600160a01b039091168152602090f35b503461039b57604036600319011261039b576120a1612220565b60ce5460243591906001600160a01b03163303611cc857156120d1576120c99060d3546122ce565b60d355604051f35b6120c99060d3546126ed565b503461039b57604036600319011261039b576112986120fa6121f4565b602435903361243f565b905034611aef5781600319360112611aef57816036546121238161222f565b808452906001908181169081156114d5575060011461214c5761148a8461147e818803826122ad565b6036835260209450600080516020612a818339815191525b828410612180575050508161148a9361147e928201019361146e565b8054858501870152928501928101612164565b918091926000905b8282106121b35750116121ac575050565b6000910152565b9150806020918301518186015201829161219b565b604091602082526121e88151809281602086015260208686019101612193565b601f01601f1916010190565b600435906001600160a01b038216820361031157565b602435906001600160a01b038216820361031157565b60043590811515820361031157565b90600182811c9216801561225f575b602083101461224957565b634e487b7160e01b600052602260045260246000fd5b91607f169161223e565b6001600160401b03811161227c57604052565b634e487b7160e01b600052604160045260246000fd5b604081019081106001600160401b0382111761227c57604052565b90601f801991011681019081106001600160401b0382111761227c57604052565b81198111610a5e570190565b6001600160a01b039081169182156123ec571691821561239b57600082815260336020526040812054918083106123475760408282600080516020612aa18339815191529587602096526033865203828220558681522061233c8282546122ce565b9055604051908152a3565b60405162461bcd60e51b815260206004820152602660248201527f45524332303a207472616e7366657220616d6f756e7420657863656564732062604482015265616c616e636560d01b6064820152608490fd5b60405162461bcd60e51b815260206004820152602360248201527f45524332303a207472616e7366657220746f20746865207a65726f206164647260448201526265737360e81b6064820152608490fd5b60405162461bcd60e51b815260206004820152602560248201527f45524332303a207472616e736665722066726f6d20746865207a65726f206164604482015264647265737360d81b6064820152608490fd5b6001600160a01b039081169182156124f057169182156124a05760207f8c5be1e5ebec7d5bd14f71427d1e84f3dd0314c0f7b2291e5b200ac8c7c3b925918360005260348252604060002085600052825280604060002055604051908152a3565b60405162461bcd60e51b815260206004820152602260248201527f45524332303a20617070726f766520746f20746865207a65726f206164647265604482015261737360f01b6064820152608490fd5b60405162461bcd60e51b8152602060048201526024808201527f45524332303a20617070726f76652066726f6d20746865207a65726f206164646044820152637265737360e01b6064820152608490fd5b1561254857565b60405162461bcd60e51b815260206004820152602b60248201527f496e697469616c697a61626c653a20636f6e7472616374206973206e6f74206960448201526a6e697469616c697a696e6760a81b6064820152608490fd5b51906001600160a01b038216820361031157565b9060a0828203126103115781516001600160401b03908181116103115783019082601f8301121561031157815190811161227c5760405192612601601f8301601f1916602001856122ad565b818452602082840101116103115761261f9160208085019101612193565b9161262c602083016125a1565b91612639604082016125a1565b916080606083015192015190565b90816020910312610311575180151581036103115790565b1561266657565b60405162461bcd60e51b815260206004820152600a60248201526927b7363c9037bbb732b960b11b6044820152606490fd5b64e8d4a51000908060001904821181151516610a5e570290565b81156126bc570490565b634e487b7160e01b600052601260045260246000fd5b6001600160a01b039091168152602081019190915260400190565b818110610a5e570390565b6024906127036127a1565b60cc546040516370a0823160e01b81523060048201529360209185919082906001600160a01b03165afa92831561279557600093612760575b5090612747916122ce565b1161274e57565b60405163ed9d9d3360e01b8152600490fd5b90926020823d821161278d575b8161277a602093836122ad565b8101031261039b5750519161274761273c565b3d915061276d565b6040513d6000823e3d90fd5b60cd5460408051639e3079cb60e01b8152600093926001600160a01b039081169291859190602090600490828183818a5afa9081156129055785916128d4575b50845b8181106127f5575050505050505050565b60011981116128c1576001019886516315895f4760e31b81528a8482015286816024818c5afa90811561289857869291869189916128a2575b50858a5180958193631341449360e21b8352165afa918215612898578792612869575b508082111561286257505b986127e4565b905061285c565b9091508481813d8311612891575b61288181836122ad565b810103126106a357519038612851565b503d612877565b88513d89823e3d90fd5b6128b691503d808b833e61033c81836122ad565b50505090503861282e565b634e487b7160e01b865260118352602486fd5b90508281813d83116128fe575b6128eb81836122ad565b810103126128fa5751386127e1565b8480fd5b503d6128e1565b86513d87823e3d90fd5b60355480156129c95760cc546040516370a0823160e01b815230600482015290602090829060249082906001600160a01b03165afa90811561279557600091612996575b506129897f66cbca4f3c64fecf1dcb9ce094abcf7f68c3450a1d4e3a8e917dd621edb4ebe092612984602093612698565b6126b2565b8060d255604051908152a1565b906020823d82116129c1575b816129af602093836122ad565b8101031261039b575051612989612953565b3d91506129a2565b5064e8d4a5100060d255565b6065546001600160a01b03908116911603612a05578060001904600a1181151516610a5e57600a61271091020490565b60405162461bcd60e51b815260206004820152600b60248201526a13db9b1e481cda1a595b1960aa1b6044820152606490fd5b60665460018060a01b03809216809282167f8be0079c531659141344cd1fd0a4f28419497f9722a3daafe3b4186f6b6457e06000604051a36001600160a01b0319161760665556fe4a11f94e20a93c79f6ec743a1954ec4fc2c08429ae2122118bf234b2185c81b8ddf252ad1be2c89b69c2b068fc378daa952ba7f163c4a11628f55a4df523b3ef42a7b7dd785cd69714a189dffb3fd7d7174edc9ece837694ce50f7078f7c31aea2646970667358221220e7024f56a2df4ad08747b285e26ae70077d6a3bd3d482511770a826881308d3764736f6c634300080f0033",
  "devdoc": {
    "author": "Eric Lee (ylikp.ust@gmail.com) & Primata (primata@375labs.org)",
    "kind": "dev",
    "methods": {
      "allowance(address,address)": {
        "details": "See {IERC20-allowance}."
      },
      "approve(address,uint256)": {
        "details": "See {IERC20-approve}. NOTE: If `amount` is the maximum `uint256`, the allowance is not updated on `transferFrom`. This is semantically equivalent to an infinite approval. Requirements: - `spender` cannot be the zero address."
      },
      "balanceOf(address)": {
        "details": "See {IERC20-balanceOf}."
      },
      "decimals()": {
        "details": "Returns the number of decimals used to get its user representation. For example, if `decimals` equals `2`, a balance of `505` tokens should be displayed to a user as `5.05` (`505 / 10 ** 2`). Tokens usually opt for a value of 18, imitating the relationship between Ether and Wei. This is the value {ERC20} uses, unless this function is overridden; NOTE: This information is only used for _display_ purposes: it in no way affects any of the arithmetic of the contract, including {IERC20-balanceOf} and {IERC20-transfer}."
      },
      "decreaseAllowance(address,uint256)": {
        "details": "Atomically decreases the allowance granted to `spender` by the caller. This is an alternative to {approve} that can be used as a mitigation for problems described in {IERC20-approve}. Emits an {Approval} event indicating the updated allowance. Requirements: - `spender` cannot be the zero address. - `spender` must have allowance for the caller of at least `subtractedValue`."
      },
      "getTotalActiveCovered()": {
        "returns": {
          "activeCovered": "Covered amount"
        }
      },
      "increaseAllowance(address,uint256)": {
        "details": "Atomically increases the allowance granted to `spender` by the caller. This is an alternative to {approve} that can be used as a mitigation for problems described in {IERC20-approve}. Emits an {Approval} event indicating the updated allowance. Requirements: - `spender` cannot be the zero address."
      },
      "name()": {
        "details": "Returns the name of the token."
      },
      "owner()": {
        "details": "Returns the address of the current owner."
      },
      "pauseProtectionPool(bool)": {
        "params": {
          "_paused": "True for pause, false for unpause"
        }
      },
      "providedLiquidity(uint256,address)": {
        "params": {
          "_amount": "Liquidity amount (shield)",
          "_provider": "Provider address"
        }
      },
      "removedLiquidity(uint256,address)": {
        "params": {
          "_amount": "Liquidity to remove (LP token amount)",
          "_provider": "Provider address"
        }
      },
      "removedLiquidityWhenClaimed(uint256,address)": {
        "params": {
          "_amount": "Amount of liquidity to remove",
          "_to": "Address to transfer the liquidity to"
        }
      },
      "renounceOwnership()": {
        "details": "Leaves the contract without owner. It will not be possible to call `onlyOwner` functions anymore. Can only be called by the current owner. NOTE: Renouncing ownership will leave the contract without an owner, thereby removing any functionality that is only available to the owner."
      },
      "symbol()": {
        "details": "Returns the symbol of the token, usually a shorter version of the name."
      },
      "totalSupply()": {
        "details": "See {IERC20-totalSupply}."
      },
      "transfer(address,uint256)": {
        "details": "See {IERC20-transfer}. Requirements: - `to` cannot be the zero address. - the caller must have a balance of at least `amount`."
      },
      "transferFrom(address,address,uint256)": {
        "details": "See {IERC20-transferFrom}. Emits an {Approval} event indicating the updated allowance. This is not required by the EIP. See the note at the beginning of {ERC20}. NOTE: Does not update the allowance if the current allowance is the maximum `uint256`. Requirements: - `from` and `to` cannot be the zero address. - `from` must have a balance of at least `amount`. - the caller must have allowance for ``from``'s tokens of at least `amount`."
      },
      "transferOwnership(address)": {
        "details": "Transfers ownership of the contract to a new account (`newOwner`). Can only be called by the current owner."
      }
    },
    "title": "Protection Pool",
    "version": 1
  },
  "userdoc": {
    "kind": "user",
    "methods": {
      "getLatestPrice()": {
        "notice": "Updates and retrieves latest price to provide liquidity to Protection Pool"
      },
      "getTotalActiveCovered()": {
        "notice": "Get total active cover amount of all pools         Only calculate those \"already dynamic\" pools"
      },
      "pauseProtectionPool(bool)": {
        "notice": "Set paused state of the protection pool"
      },
      "providedLiquidity(uint256,address)": {
        "notice": "Finish providing liquidity         Only callable through policyCenter"
      },
      "removedLiquidity(uint256,address)": {
        "notice": "Finish removing liquidity         Only callable through          1) policyCenter (by user removing liquidity)         2)          "
      },
      "removedLiquidityWhenClaimed(uint256,address)": {
        "notice": "Removes liquidity when a claim is made"
      },
      "updateIndexCut()": {
        "notice": "Update index cut when claim happened"
      },
      "updateWhenBuy()": {
        "notice": "Update when new cover is bought"
      }
    },
    "notice": "This is the protection pool contract for Degis Protocol Protection         Users can provide liquidity to protection pool and get PRO-LP token         If the priority pool is unable to fulfil the cover amount,         Protection Pool will be able to provide the remaining part",
    "version": 1
  },
  "storageLayout": {
    "storage": [
      {
        "astId": 184,
        "contract": "src/pools/protectionPool/ProtectionPool.sol:ProtectionPool",
        "label": "_initialized",
        "offset": 0,
        "slot": "0",
        "type": "t_uint8"
      },
      {
        "astId": 187,
        "contract": "src/pools/protectionPool/ProtectionPool.sol:ProtectionPool",
        "label": "_initializing",
        "offset": 1,
        "slot": "0",
        "type": "t_bool"
      },
      {
        "astId": 1326,
        "contract": "src/pools/protectionPool/ProtectionPool.sol:ProtectionPool",
        "label": "__gap",
        "offset": 0,
        "slot": "1",
        "type": "t_array(t_uint256)50_storage"
      },
      {
        "astId": 347,
        "contract": "src/pools/protectionPool/ProtectionPool.sol:ProtectionPool",
        "label": "_balances",
        "offset": 0,
        "slot": "51",
        "type": "t_mapping(t_address,t_uint256)"
      },
      {
        "astId": 353,
        "contract": "src/pools/protectionPool/ProtectionPool.sol:ProtectionPool",
        "label": "_allowances",
        "offset": 0,
        "slot": "52",
        "type": "t_mapping(t_address,t_mapping(t_address,t_uint256))"
      },
      {
        "astId": 355,
        "contract": "src/pools/protectionPool/ProtectionPool.sol:ProtectionPool",
        "label": "_totalSupply",
        "offset": 0,
        "slot": "53",
        "type": "t_uint256"
      },
      {
        "astId": 357,
        "contract": "src/pools/protectionPool/ProtectionPool.sol:ProtectionPool",
        "label": "_name",
        "offset": 0,
        "slot": "54",
        "type": "t_string_storage"
      },
      {
        "astId": 359,
        "contract": "src/pools/protectionPool/ProtectionPool.sol:ProtectionPool",
        "label": "_symbol",
        "offset": 0,
        "slot": "55",
        "type": "t_string_storage"
      },
      {
        "astId": 938,
        "contract": "src/pools/protectionPool/ProtectionPool.sol:ProtectionPool",
        "label": "__gap",
        "offset": 0,
        "slot": "56",
        "type": "t_array(t_uint256)45_storage"
      },
      {
        "astId": 17319,
        "contract": "src/pools/protectionPool/ProtectionPool.sol:ProtectionPool",
        "label": "token",
        "offset": 0,
        "slot": "101",
        "type": "t_address"
      },
      {
        "astId": 17625,
        "contract": "src/pools/protectionPool/ProtectionPool.sol:ProtectionPool",
        "label": "_owner",
        "offset": 0,
        "slot": "102",
        "type": "t_address"
      },
      {
        "astId": 17732,
        "contract": "src/pools/protectionPool/ProtectionPool.sol:ProtectionPool",
        "label": "__gap",
        "offset": 0,
        "slot": "103",
        "type": "t_array(t_uint256)49_storage"
      },
      {
        "astId": 17774,
        "contract": "src/pools/protectionPool/ProtectionPool.sol:ProtectionPool",
        "label": "_paused",
        "offset": 0,
        "slot": "152",
        "type": "t_bool"
      },
      {
        "astId": 17828,
        "contract": "src/pools/protectionPool/ProtectionPool.sol:ProtectionPool",
        "label": "__gap",
        "offset": 0,
        "slot": "153",
        "type": "t_array(t_uint256)49_storage"
      },
      {
        "astId": 6132,
        "contract": "src/pools/protectionPool/ProtectionPool.sol:ProtectionPool",
        "label": "deg",
        "offset": 0,
        "slot": "202",
        "type": "t_contract(IDegisToken)6259"
      },
      {
        "astId": 6135,
        "contract": "src/pools/protectionPool/ProtectionPool.sol:ProtectionPool",
        "label": "veDeg",
        "offset": 0,
        "slot": "203",
        "type": "t_contract(IVeDEG)7416"
      },
      {
        "astId": 6138,
        "contract": "src/pools/protectionPool/ProtectionPool.sol:ProtectionPool",
        "label": "shield",
        "offset": 0,
        "slot": "204",
        "type": "t_contract(IShield)7371"
      },
      {
        "astId": 14212,
        "contract": "src/pools/protectionPool/ProtectionPool.sol:ProtectionPool",
        "label": "priorityPoolFactory",
        "offset": 0,
        "slot": "205",
        "type": "t_address"
      },
      {
        "astId": 14214,
        "contract": "src/pools/protectionPool/ProtectionPool.sol:ProtectionPool",
        "label": "policyCenter",
        "offset": 0,
        "slot": "206",
        "type": "t_address"
      },
      {
        "astId": 14216,
        "contract": "src/pools/protectionPool/ProtectionPool.sol:ProtectionPool",
        "label": "incidentReport",
        "offset": 0,
        "slot": "207",
        "type": "t_address"
      },
      {
        "astId": 13422,
        "contract": "src/pools/protectionPool/ProtectionPool.sol:ProtectionPool",
        "label": "startTime",
        "offset": 0,
        "slot": "208",
        "type": "t_uint256"
      },
      {
        "astId": 13424,
        "contract": "src/pools/protectionPool/ProtectionPool.sol:ProtectionPool",
        "label": "lastRewardTimestamp",
        "offset": 0,
        "slot": "209",
        "type": "t_uint256"
      },
      {
        "astId": 13426,
        "contract": "src/pools/protectionPool/ProtectionPool.sol:ProtectionPool",
        "label": "price",
        "offset": 0,
        "slot": "210",
        "type": "t_uint256"
      },
      {
        "astId": 13428,
        "contract": "src/pools/protectionPool/ProtectionPool.sol:ProtectionPool",
        "label": "stakedSupply",
        "offset": 0,
        "slot": "211",
        "type": "t_uint256"
      },
      {
        "astId": 13430,
        "contract": "src/pools/protectionPool/ProtectionPool.sol:ProtectionPool",
        "label": "miningToken",
        "offset": 0,
        "slot": "212",
        "type": "t_address"
      },
      {
        "astId": 13436,
        "contract": "src/pools/protectionPool/ProtectionPool.sol:ProtectionPool",
        "label": "rewardSpeed",
        "offset": 0,
        "slot": "213",
        "type": "t_mapping(t_uint256,t_mapping(t_uint256,t_uint256))"
      }
    ],
    "types": {
      "t_address": {
        "encoding": "inplace",
        "label": "address",
        "numberOfBytes": "20"
      },
      "t_array(t_uint256)45_storage": {
        "base": "t_uint256",
        "encoding": "inplace",
        "label": "uint256[45]",
        "numberOfBytes": "1440"
      },
      "t_array(t_uint256)49_storage": {
        "base": "t_uint256",
        "encoding": "inplace",
        "label": "uint256[49]",
        "numberOfBytes": "1568"
      },
      "t_array(t_uint256)50_storage": {
        "base": "t_uint256",
        "encoding": "inplace",
        "label": "uint256[50]",
        "numberOfBytes": "1600"
      },
      "t_bool": {
        "encoding": "inplace",
        "label": "bool",
        "numberOfBytes": "1"
      },
      "t_contract(IDegisToken)6259": {
        "encoding": "inplace",
        "label": "contract IDegisToken",
        "numberOfBytes": "20"
      },
      "t_contract(IShield)7371": {
        "encoding": "inplace",
        "label": "contract IShield",
        "numberOfBytes": "20"
      },
      "t_contract(IVeDEG)7416": {
        "encoding": "inplace",
        "label": "contract IVeDEG",
        "numberOfBytes": "20"
      },
      "t_mapping(t_address,t_mapping(t_address,t_uint256))": {
        "encoding": "mapping",
        "key": "t_address",
        "label": "mapping(address => mapping(address => uint256))",
        "numberOfBytes": "32",
        "value": "t_mapping(t_address,t_uint256)"
      },
      "t_mapping(t_address,t_uint256)": {
        "encoding": "mapping",
        "key": "t_address",
        "label": "mapping(address => uint256)",
        "numberOfBytes": "32",
        "value": "t_uint256"
      },
      "t_mapping(t_uint256,t_mapping(t_uint256,t_uint256))": {
        "encoding": "mapping",
        "key": "t_uint256",
        "label": "mapping(uint256 => mapping(uint256 => uint256))",
        "numberOfBytes": "32",
        "value": "t_mapping(t_uint256,t_uint256)"
      },
      "t_mapping(t_uint256,t_uint256)": {
        "encoding": "mapping",
        "key": "t_uint256",
        "label": "mapping(uint256 => uint256)",
        "numberOfBytes": "32",
        "value": "t_uint256"
      },
      "t_string_storage": {
        "encoding": "bytes",
        "label": "string",
        "numberOfBytes": "32"
      },
      "t_uint256": {
        "encoding": "inplace",
        "label": "uint256",
        "numberOfBytes": "32"
      },
      "t_uint8": {
        "encoding": "inplace",
        "label": "uint8",
        "numberOfBytes": "1"
      }
    }
  }
}