{
  "address": "0xaD952940f66de94f99B02093F79Bc4CCB8AFD774",
  "abi": [
    {
      "inputs": [
        {
          "internalType": "address",
          "name": "_policyCenter",
          "type": "address"
        },
        {
          "internalType": "address",
          "name": "_incidentReport",
          "type": "address"
        }
      ],
      "stateMutability": "nonpayable",
      "type": "constructor"
    },
    {
      "anonymous": false,
      "inputs": [
        {
          "indexed": false,
          "internalType": "uint256",
          "name": "poolId",
          "type": "uint256"
        },
        {
          "indexed": false,
          "internalType": "string",
          "name": "tokenName",
          "type": "string"
        },
        {
          "indexed": false,
          "internalType": "uint256",
          "name": "expiry",
          "type": "uint256"
        },
        {
          "indexed": false,
          "internalType": "uint256",
          "name": "generation",
          "type": "uint256"
        },
        {
          "indexed": false,
          "internalType": "address",
          "name": "tokenAddress",
          "type": "address"
        }
      ],
      "name": "NewCRTokenDeployed",
      "type": "event"
    },
    {
      "anonymous": false,
      "inputs": [
        {
          "indexed": true,
          "internalType": "address",
          "name": "previousOwner",
          "type": "address"
        },
        {
          "indexed": true,
          "internalType": "address",
          "name": "newOwner",
          "type": "address"
        }
      ],
      "name": "OwnershipTransferred",
      "type": "event"
    },
    {
      "inputs": [
        {
          "internalType": "string",
          "name": "_poolName",
          "type": "string"
        },
        {
          "internalType": "uint256",
          "name": "_poolId",
          "type": "uint256"
        },
        {
          "internalType": "string",
          "name": "_tokenName",
          "type": "string"
        },
        {
          "internalType": "uint256",
          "name": "_expiry",
          "type": "uint256"
        },
        {
          "internalType": "uint256",
          "name": "_generation",
          "type": "uint256"
        }
      ],
      "name": "deployCRToken",
      "outputs": [
        {
          "internalType": "address",
          "name": "newCRToken",
          "type": "address"
        }
      ],
      "stateMutability": "nonpayable",
      "type": "function"
    },
    {
      "inputs": [
        {
          "internalType": "bytes32",
          "name": "",
          "type": "bytes32"
        }
      ],
      "name": "deployed",
      "outputs": [
        {
          "internalType": "bool",
          "name": "",
          "type": "bool"
        }
      ],
      "stateMutability": "view",
      "type": "function"
    },
    {
      "inputs": [
        {
          "internalType": "bytes32",
          "name": "",
          "type": "bytes32"
        }
      ],
      "name": "generation",
      "outputs": [
        {
          "internalType": "uint256",
          "name": "",
          "type": "uint256"
        }
      ],
      "stateMutability": "view",
      "type": "function"
    },
    {
      "inputs": [
        {
          "internalType": "uint256",
          "name": "_poolId",
          "type": "uint256"
        },
        {
          "internalType": "uint256",
          "name": "_expiry",
          "type": "uint256"
        },
        {
          "internalType": "uint256",
          "name": "_generation",
          "type": "uint256"
        }
      ],
      "name": "getCRTokenAddress",
      "outputs": [
        {
          "internalType": "address",
          "name": "crToken",
          "type": "address"
        }
      ],
      "stateMutability": "view",
      "type": "function"
    },
    {
      "inputs": [],
      "name": "incidentReport",
      "outputs": [
        {
          "internalType": "address",
          "name": "",
          "type": "address"
        }
      ],
      "stateMutability": "view",
      "type": "function"
    },
    {
      "inputs": [],
      "name": "owner",
      "outputs": [
        {
          "internalType": "address",
          "name": "",
          "type": "address"
        }
      ],
      "stateMutability": "view",
      "type": "function"
    },
    {
      "inputs": [],
      "name": "payoutPool",
      "outputs": [
        {
          "internalType": "address",
          "name": "",
          "type": "address"
        }
      ],
      "stateMutability": "view",
      "type": "function"
    },
    {
      "inputs": [],
      "name": "policyCenter",
      "outputs": [
        {
          "internalType": "address",
          "name": "",
          "type": "address"
        }
      ],
      "stateMutability": "view",
      "type": "function"
    },
    {
      "inputs": [],
      "name": "renounceOwnership",
      "outputs": [],
      "stateMutability": "nonpayable",
      "type": "function"
    },
    {
      "inputs": [
        {
          "internalType": "bytes32",
          "name": "",
          "type": "bytes32"
        }
      ],
      "name": "saltToAddress",
      "outputs": [
        {
          "internalType": "address",
          "name": "",
          "type": "address"
        }
      ],
      "stateMutability": "view",
      "type": "function"
    },
    {
      "inputs": [
        {
          "internalType": "address",
          "name": "_incidentReport",
          "type": "address"
        }
      ],
      "name": "setIncidentReport",
      "outputs": [],
      "stateMutability": "nonpayable",
      "type": "function"
    },
    {
      "inputs": [
        {
          "internalType": "address",
          "name": "_payoutPool",
          "type": "address"
        }
      ],
      "name": "setPayoutPool",
      "outputs": [],
      "stateMutability": "nonpayable",
      "type": "function"
    },
    {
      "inputs": [
        {
          "internalType": "address",
          "name": "_policyCenter",
          "type": "address"
        }
      ],
      "name": "setPolicyCenter",
      "outputs": [],
      "stateMutability": "nonpayable",
      "type": "function"
    },
    {
      "inputs": [
        {
          "internalType": "address",
          "name": "newOwner",
          "type": "address"
        }
      ],
      "name": "transferOwnership",
      "outputs": [],
      "stateMutability": "nonpayable",
      "type": "function"
    }
  ],
  "transactionHash": "0xe699636bff11259298d46e8ee189a4717362cf4157e6d4646103bba7a8a98263",
  "args": [
    "0x716c41D7578C46824c5C91bA05137871CA05A664",
    "0x0b42B41457b34A458a26b7115b9753eDDba4F063"
  ],
  "numDeployments": 9,
  "solcInputHash": "279f608c4a65608360de1fe1c16a2103",
  "bytecode": "0x60803461009257601f612d8738819003918201601f19168301916001600160401b0383118484101761009757808492604094855283398101031261009257610052602061004b836100ad565b92016100ad565b9060018060a01b0319913383600054161760005560018060a01b0380921683600154161760015516906002541617600255604051612cc590816100c28239f35b600080fd5b634e487b7160e01b600052604160045260246000fd5b51906001600160a01b03821682036100925756fe6080604052600436101562000014575b600080fd5b60003560e01c80630f89b77d14620001545780631158c64c146200014957806316209095146200013e5780632dd57bb014620001335780633f07b28214620001285780633f81ff26146200011d5780636273106a14620001125780636a6cc25814620001075780636c1020a114620000fc578063715018a614620000f15780638da5cb5b14620000e6578063e3356ccf14620000db578063e8adbf2f14620000d05763f2fde38b14620000c657600080fd5b6200000f62000687565b506200000f6200065b565b506200000f62000614565b506200000f620005e8565b506200000f6200057f565b506200000f620003a3565b506200000f62000343565b506200000f62000317565b506200000f620002d0565b506200000f6200025a565b506200000f62000213565b506200000f620001bd565b506200000f62000193565b50346200000f5760003660031901126200000f576002546040516001600160a01b039091168152602090f35b60209060031901126200000f5760043590565b50346200000f57620001a53662000180565b60005260066020526020604060002054604051908152f35b50346200000f57620001cf3662000180565b6000526005602052602060018060a01b0360406000205416604051908152f35b60209060031901126200000f576004356001600160a01b03811681036200000f5790565b50346200000f576200022536620001ef565b6000546001600160a01b03919062000241908316331462000796565b60018054919092166001600160a01b0319909116179055005b50346200000f5760603660031901126200000f576040516020810190620002ad816200029e6044356024356004358791606093918352602083015260408201520190565b03601f19810183528262000764565b5190206000526005602052602060018060a01b0360406000205416604051908152f35b50346200000f57620002e236620001ef565b6000546001600160a01b039190620002fe908316331462000796565b60038054919092166001600160a01b0319909116179055005b50346200000f5760003660031901126200000f576003546040516001600160a01b039091168152602090f35b50346200000f57620003553662000180565b6000526004602052602060ff604060002054166040519015158152f35b9181601f840112156200000f5782359167ffffffffffffffff83116200000f57602083818601950101116200000f57565b50346200000f5760a03660031901126200000f5767ffffffffffffffff6004358181116200000f57620003db90369060040162000372565b9190602435926044359283116200000f576200057b936200055e7f30aea988271444d9893c99d63b763479d038c4b2756b3ede0182f293d5beda91936200042b6200053296369060040162000372565b600154919560843592606435929162000551916200051e91906200045a906001600160a01b03163314620007d0565b6200046785151562000812565b6200051886868c8c62000511620005076040516020810190620004a1816200029e8a8a898791606093918352602083015260408201520190565b5190209d8e98620004d9620004d3620004cf620004c88d6000526004602052604060002090565b5460ff1690565b1590565b62000852565b620004ff620004f28b6000526004602052604060002090565b805460ff19166001179055565b369162000892565b928a369162000892565b91620009b0565b62000a8a565b809a81966000526005602052604060002090565b80546001600160a01b0319166001600160a01b03909216919091179055565b60405196879687620008ee565b0390a16040516001600160a01b0390911681529081906020820190565b0390f35b50346200000f57600080600319360112620005e55780546001600160a01b03811690620005ae33831462000796565b82604051927f8be0079c531659141344cd1fd0a4f28419497f9722a3daafe3b4186f6b6457e08285a36001600160a01b0319168255f35b80fd5b50346200000f5760003660031901126200000f576000546040516001600160a01b039091168152602090f35b50346200000f576200062636620001ef565b6000546001600160a01b03919062000642908316331462000796565b60028054919092166001600160a01b0319909116179055005b50346200000f5760003660031901126200000f576001546040516001600160a01b039091168152602090f35b50346200000f576200069936620001ef565b600054906001600160a01b0380831691620006b633841462000796565b168015620006f95760009281604051937f8be0079c531659141344cd1fd0a4f28419497f9722a3daafe3b4186f6b6457e08686a36001600160a01b031916178255f35b60405162461bcd60e51b815260206004820152602660248201527f4f776e61626c653a206e6577206f776e657220697320746865207a65726f206160448201526564647265737360d01b6064820152608490fd5b50634e487b7160e01b600052604160045260246000fd5b90601f8019910116810190811067ffffffffffffffff8211176200078757604052565b620007916200074d565b604052565b156200079e57565b60405162461bcd60e51b815260206004820152600a60248201526927b7363c9037bbb732b960b11b6044820152606490fd5b15620007d857565b60405162461bcd60e51b815260206004820152601260248201527127b7363c903837b634b1bc9031b2b73a32b960711b6044820152606490fd5b156200081a57565b60405162461bcd60e51b815260206004820152601060248201526f5a65726f20657870697279206461746560801b6044820152606490fd5b156200085a57565b60405162461bcd60e51b815260206004820152601060248201526f185b1c9958591e4819195c1b1bde595960821b6044820152606490fd5b92919267ffffffffffffffff8211620008de575b60405191620008c0601f8201601f19166020018462000764565b8294818452818301116200000f578281602093846000960137010152565b620008e86200074d565b620008a6565b9491928060809598979460c093885260a060208901528160a0890152838801376000828288010152601f8019910116850101956040850152606084015260018060a01b0316910152565b918091926000905b8282106200095a57501162000953575050565b6000910152565b9150806020918301518186015201829162000940565b906020916200098b8151809281855285808601910162000938565b601f01601f1916010190565b90620009ac6020928281519485920162000938565b0190565b919062000a3d62000a6262000a7a9262000a879662000a73986121f19660405197620009e0602082018a62000764565b80895262000a9f60208a013960018060a01b038060015416816002541691600354169360405198899762000a23610100968760208c01526101208b019062000970565b9060408a0152601f199d8e8a83030160608b015262000970565b95608088015260a087015260c086015260e08501528301520385810183528262000764565b604051958693602085019062000997565b9062000997565b0390810183528262000764565b90565b6020815191016000f590813b156200000f5756fe604060e08152346200056957620021f1803803806200001e816200056e565b92833981019061010081830312620005695780516001600160401b03908181116200056957836200005191840162000594565b6020918284015194868501519082821162000569576200007391860162000594565b946060850151956080860151926200008e60a0880162000617565b94620000ab60e0620000a360c08b0162000617565b990162000617565b968a51918b83018381108582111762000469578c52600783526631b92a37b5b2b760c91b8284015284519184831162000469576003938454936001978886811c961680156200055e575b8487101462000548578190601f96878111620004f2575b5084908783116001146200048b576000926200047f575b505060001982881b1c191690881b1785555b8051868111620004695760049182548981811c911680156200045e575b858210146200044957908187849311620003f3575b5084908783116001146200038c5760009262000380575b505060001982881b1c191690881b1781555b8660055560018060a01b03199c8d3390600654161760065560a05282519586116200036b57600a54908782811c9216801562000360575b838310146200034b5750838111620002ff575b50809285116001146200028f575093839491849260009562000283575b50501b92600019911b1c191617600a555b60c05260805260018060a01b039283809216856007541617600755168360085416176008551690600954161760095551611bc490816200062d823960805181818161124b0152611954015260a05181818161034e01528181610e280152611477015260c0518181816105220152818161107b01526118f00152f35b015193503880620001f7565b92919084601f198116600a60005285600020956000905b89838310620002e45750505010620002c9575b50505050811b01600a5562000208565b01519060f884600019921b161c1916905538808080620002b9565b858701518955909701969485019488935090810190620002a6565b600a600052816000208480880160051c82019284891062000341575b0160051c019087905b82811062000334575050620001da565b6000815501879062000324565b925081926200031b565b602290634e487b7160e01b6000525260246000fd5b91607f1691620001c7565b604190634e487b7160e01b6000525260246000fd5b0151905038806200017e565b908a9350601f1983169185600052866000209260005b88828210620003dc5750508411620003c3575b505050811b01815562000190565b0151600019838a1b60f8161c19169055388080620003b5565b8385015186558e97909501949384019301620003a2565b90915083600052846000208780850160051c8201928786106200043f575b918c91869594930160051c01915b8281106200042f57505062000167565b600081558594508c91016200041f565b9250819262000411565b602284634e487b7160e01b6000525260246000fd5b90607f169062000152565b634e487b7160e01b600052604160045260246000fd5b01519050388062000123565b908a9350601f1983169189600052866000209260005b88828210620004db5750508411620004c2575b505050811b01855562000135565b0151600019838a1b60f8161c19169055388080620004b4565b8385015186558e97909501949384019301620004a1565b90915087600052846000208780850160051c8201928786106200053e575b918c91869594930160051c01915b8281106200052e5750506200010c565b600081558594508c91016200051e565b9250819262000510565b634e487b7160e01b600052602260045260246000fd5b95607f1695620000f5565b600080fd5b6040519190601f01601f191682016001600160401b038111838210176200046957604052565b81601f8201121562000569578051906001600160401b0382116200046957602090620005c9601f8401601f191683016200056e565b93838552828483010111620005695782906000905b83838310620005fe57505011620005f457505090565b6000918301015290565b81935082819392010151828288010152018391620005de565b51906001600160a01b0382168203620005695756fe608080604052600436101561001357600080fd5b60003560e01c90816306fdde03146112bd57508063095ea7b3146112975780630f89b77d1461126e578063172195221461123357806318160ddd1461121557806323b872dd146111575780632dd57bb01461110b578063313ce567146110ef578063395093511461109e5780633e0dc34e146110635780636273106a1461103a57806370a0823114611000578063715018a614610f9b5780638253b82614610f5357806382b2ed1314610f30578063836a10401461077b5780638da5cb5b1461075257806395d89b41146106af5780639eea5f66146104e2578063a457c2d71461043b578063a9059cbb1461040a578063b39d2bab146103ee578063d89232da146103c2578063dd62ed3e14610371578063e184c9be14610336578063e8adbf2f1461030d578063f2fde38b146102425763f3466dfa1461015357600080fd5b3461023d57600036600319011261023d57604051600090600a54600181811c90808316928315610233575b602093848410811461021d578386529081156101fd57506001146101bd575b6101b9846101ad8188038261140a565b6040519182918261135d565b0390f35b919350600a60005283600020916000925b8284106101ea57505050816101b9936101ad928201019361019d565b80548585018701529285019281016101ce565b60ff1916858501525050151560051b82010191506101ad816101b961019d565b634e487b7160e01b600052602260045260246000fd5b91607f169161017e565b600080fd5b3461023d57602036600319011261023d5761025b6113b4565b600654906001600160a01b0380831691610276338414611748565b1680156102b95760009281604051937f8be0079c531659141344cd1fd0a4f28419497f9722a3daafe3b4186f6b6457e08686a36001600160a01b03191617600655f35b60405162461bcd60e51b815260206004820152602660248201527f4f776e61626c653a206e6577206f776e657220697320746865207a65726f206160448201526564647265737360d01b6064820152608490fd5b3461023d57600036600319011261023d576007546040516001600160a01b039091168152602090f35b3461023d57600036600319011261023d5760206040517f00000000000000000000000000000000000000000000000000000000000000008152f35b3461023d57604036600319011261023d5761038a6113b4565b6103926113ca565b9060018060a01b038091166000526001602052604060002091166000526020526020604060002054604051908152f35b3461023d57602036600319011261023d576103db6113b4565b5060206103e66118dd565b604051908152f35b3461023d57600036600319011261023d57602060405160008152f35b3461023d57604036600319011261023d576104306104266113b4565b602435903361144e565b602060405160018152f35b3461023d57604036600319011261023d576104546113b4565b60243590336000526001602052604060002060018060a01b0382166000526020526040600020549180831061048f5761043092039033611646565b60405162461bcd60e51b815260206004820152602560248201527f45524332303a2064656372656173656420616c6c6f77616e63652062656c6f77604482015264207a65726f60d81b6064820152608490fd5b3461023d576105476104f3366113e0565b60075490936001600160a01b039384939284168061069e575b50610515611838565b6105208615156117c2565b7f0000000000000000000000000000000000000000000000000000000000000000146117fc565b1690811580159061064f5780610647575b6105fd575b50806000526000602052604060002054918083106105ad57602081600080516020611b6f833981519152926000958587528684520360408620558060025403600255604051908152a36001600555005b60405162461bcd60e51b815260206004820152602260248201527f45524332303a206275726e20616d6f756e7420657863656564732062616c616e604482015261636560f01b6064820152608490fd5b6007541661060b578261055d565b60405162461bcd60e51b815260206004820152601460248201527327b7363c903a37903837b634b1bca1b2b73a32b960611b6044820152606490fd5b506000610558565b60405162461bcd60e51b815260206004820152602160248201527f45524332303a206275726e2066726f6d20746865207a65726f206164647265736044820152607360f81b6064820152608490fd5b6106a9903314611781565b8661050c565b3461023d57600036600319011261023d57604051600090600454600181811c90808316928315610748575b602093848410811461021d578386529081156101fd5750600114610708576101b9846101ad8188038261140a565b919350600460005283600020916000925b82841061073557505050816101b9936101ad928201019361019d565b8054858501870152928501928101610719565b91607f16916106da565b3461023d57600036600319011261023d576006546040516001600160a01b039091168152602090f35b3461023d576107b761078c366113e0565b60075490939192906001600160a01b031680610f1f575b506107ac611838565b6105208415156117c2565b620151804204600081126001600160ff1b0382900362010bd9821582821316610f0957600160ff1b8490039283821216610f09576000908401129162010bd819908162253d8c93018313841516610f0957011316610f09576226496501600081136001600160ff1b0382900460041116600116610f095760008112600760fd1b821216600116610f095762023ab16001600283901b8290056001600160ff1b03819004831160009091131616610f095760017fffffc694f94337079d130ab45dff8e0f9ea161331bb1c93dea871de6fec83ce2828460021b05126000838560021b05121616610f0957600282901b81900581026000811280156001600160ff1b0383900360031316610f0957600160ff1b82900360031216610f0957600460036108e392010583611aca565b906000821280156001600160ff1b0384900360011316610f0957600160ff1b83900360011216610f0957600182810192610fa091600085136001600160ff1b0386900484111616610f095760017ffff7ced916872b020c49ba5e353f7ced916872b020c49ba5e353f7ced916872c8512600086121616610f095761097a90600461097362164b0987860205611b1e565b0590611aca565b6000811280156001600160ff1b03839003601f1316610f0957600160ff1b829003601f1216610f0957601f0192600084136001600160ff1b0385900460501116600116610f095760017ffe666666666666666666666666666666666666666666666666666666666666678512600086121616610f095761098f605085028190059390600085136001600160ff1b03869004821116600116610f0957600085129560017ffff29be1739a4fb805dbcd5d6c7d1f7d6fd627208942391f124ee1c3f30702688712881616610f0957605086610a5593020590611aca565b9480156001600160ff1b0386900360021316610f0957600160ff1b85900360021216610f09576001600b85056001600160ff1b03819004600c1160009091131616610f095760017ff555555555555555555555555555555555555555555555555555555555555556600b8605126000600b8705121616610f0957610ae2600b8505600c0260028601611aca565b956031600160ff1b01600282901b83900512600116610f09576001603019600283901b849005016001600160ff1b0381900460641160009091131616610f09576000600282901b839005603019019081127ffeb851eb851eb851eb851eb851eb851eb851eb851eb851eb851eb851eb851eb990911216600116610f095762164b09610b8393600b610b889705950205916030199160021b0501606402611af3565b611af3565b906107b2821061023d57617d4b600160ff1b018112600116610f095760008212156001600160ff1b038390036112c01316610f095760008212600160ff1b8390036112c01216610f0957610c05906004610bf9610bf4600c610be988611ab2565b056112c08701611af3565b611b1e565b0590617d4a1901611af3565b6002600160ff1b018312600116610f0957600c610c2184611ab2565b0560017f0aaaaaaaaaaaaaaaaaaaaaaaaaaaaaaaaaaaaaaaaaaaaaaaaaaaaaaaaaaaaaaa8211600083131616610f095760017ff5555555555555555555555555555555555555555555555555555555555555568212600083121616610f0957610c9190600c026001198501611aca565b90600082136001600160ff1b0383900461016f1116600116610f095760017fffa6b6c1eb12d573186a06f9b8d9a287530217b7747d8eff4d6d83d625aae6318312600084121616610f0957600c610ced9261016f020590611af3565b916113249160008112156001600160ff1b03829003841316610f095760008112600160ff1b829003841216610f0957606492600c610d2d610d3594611ab2565b059101611af3565b0590600082136001600160ff1b0383900460031116600116610f095760017fd5555555555555555555555555555555555555555555555555555555555555568312600084121616610f09576004610d90926003020590611aca565b62253d8c600160ff1b018112600116610f095762253d8b1901801515600019829004620151801116610f095762015180029062014370198211610f0957610dd41962014370830111610f0957603b1962015144830111610f095760018060a01b03169182600052602091600b83526201517f6040600020910160005282526040600020610e1e828254611442565b90558215610ec4577f00000000000000000000000000000000000000000000000000000000000000004211610e8d5760009181610e6c600080516020611b6f83398151915293600254611442565b60025584845283825260408420818154019055604051908152a36001600555005b60405162461bcd60e51b815260048101839052600f60248201526e22bc3834b932b21031b92a37b5b2b760891b6044820152606490fd5b60405162461bcd60e51b815260048101839052601f60248201527f45524332303a206d696e7420746f20746865207a65726f2061646472657373006044820152606490fd5b634e487b7160e01b600052601160045260246000fd5b610f2a903314611781565b846107a3565b3461023d57602036600319011261023d5760206103e6610f4e6113b4565b61188e565b3461023d57604036600319011261023d576001600160a01b03610f746113b4565b16600052600b60205260406000206024356000526020526020604060002054604051908152f35b3461023d57600036600319011261023d576006546000906001600160a01b03811690610fc8338314611748565b82604051927f8be0079c531659141344cd1fd0a4f28419497f9722a3daafe3b4186f6b6457e08285a36001600160a01b031916600655f35b3461023d57602036600319011261023d576001600160a01b036110216113b4565b1660005260006020526020604060002054604051908152f35b3461023d57600036600319011261023d576009546040516001600160a01b039091168152602090f35b3461023d57600036600319011261023d5760206040517f00000000000000000000000000000000000000000000000000000000000000008152f35b3461023d57604036600319011261023d576104306110ba6113b4565b336000526001602052604060002060018060a01b0382166000526020526110e8602435604060002054611442565b9033611646565b3461023d57600036600319011261023d57602060405160068152f35b3461023d57602036600319011261023d576111246113b4565b6006546001600160a01b03919061113e9083163314611748565b60078054919092166001600160a01b0319909116179055005b3461023d57606036600319011261023d576111706113b4565b6111786113ca565b6044359060018060a01b03831660005260016020526040600020336000526020526040600020549260001984036111b4575b610430935061144e565b8284106111d0576111cb8361043095033383611646565b6111aa565b60405162461bcd60e51b815260206004820152601d60248201527f45524332303a20696e73756666696369656e7420616c6c6f77616e63650000006044820152606490fd5b3461023d57600036600319011261023d576020600254604051908152f35b3461023d57600036600319011261023d5760206040517f00000000000000000000000000000000000000000000000000000000000000008152f35b3461023d57600036600319011261023d576008546040516001600160a01b039091168152602090f35b3461023d57604036600319011261023d576104306112b36113b4565b6024359033611646565b3461023d57600036600319011261023d57600090600354600181811c90808316928315611353575b602093848410811461021d578386529081156101fd5750600114611313576101b9846101ad8188038261140a565b919350600360005283600020916000925b82841061134057505050816101b9936101ad928201019361019d565b8054858501870152928501928101611324565b91607f16916112e5565b919091602080825283519081818401526000945b82861061139e575050806040939411611391575b601f01601f1916010190565b6000838284010152611385565b8581018201518487016040015294810194611371565b600435906001600160a01b038216820361023d57565b602435906001600160a01b038216820361023d57565b606090600319011261023d57600435906024356001600160a01b038116810361023d579060443590565b90601f8019910116810190811067ffffffffffffffff82111761142c57604052565b634e487b7160e01b600052604160045260246000fd5b81198111610f09570190565b6001600160a01b0390811680158015949193919291906115f35781169384158015906115a257807f00000000000000000000000000000000000000000000000000000000000000004211611561575b5081611559575b50611549575b506000828152806020526040812054918083106114f55760408282600080516020611b6f833981519152958760209652828652038282205586815220818154019055604051908152a3565b60405162461bcd60e51b815260206004820152602660248201527f45524332303a207472616e7366657220616d6f756e7420657863656564732062604482015265616c616e636560d01b6064820152608490fd5b60075416830361060b57386114aa565b9050386114a4565b61156b578061149d565b60405162461bcd60e51b815260206004820152600f60248201526e22bc3834b932b21031b92a37b5b2b760891b6044820152606490fd5b60405162461bcd60e51b815260206004820152602360248201527f45524332303a207472616e7366657220746f20746865207a65726f206164647260448201526265737360e81b6064820152608490fd5b60405162461bcd60e51b815260206004820152602560248201527f45524332303a207472616e736665722066726f6d20746865207a65726f206164604482015264647265737360d81b6064820152608490fd5b6001600160a01b039081169182156116f757169182156116a75760207f8c5be1e5ebec7d5bd14f71427d1e84f3dd0314c0f7b2291e5b200ac8c7c3b925918360005260018252604060002085600052825280604060002055604051908152a3565b60405162461bcd60e51b815260206004820152602260248201527f45524332303a20617070726f766520746f20746865207a65726f206164647265604482015261737360f01b6064820152608490fd5b60405162461bcd60e51b8152602060048201526024808201527f45524332303a20617070726f76652066726f6d20746865207a65726f206164646044820152637265737360e01b6064820152608490fd5b1561174f57565b60405162461bcd60e51b815260206004820152600a60248201526927b7363c9037bbb732b960b11b6044820152606490fd5b1561178857565b60405162461bcd60e51b815260206004820152601260248201527127b7363c903837b634b1bc9031b2b73a32b960711b6044820152606490fd5b156117c957565b60405162461bcd60e51b815260206004820152600b60248201526a16995c9bc8105b5bdd5b9d60aa1b6044820152606490fd5b1561180357565b60405162461bcd60e51b815260206004820152600d60248201526c15dc9bdb99c81c1bdbdb081a59609a1b6044820152606490fd5b600260055414611849576002600555565b60405162461bcd60e51b815260206004820152601f60248201527f5265656e7472616e637947756172643a207265656e7472616e742063616c6c006044820152606490fd5b6118966118dd565b60009160018060a01b031682528160205260408220548082116000146118bb57505090565b90918282106118c957500390565b634e487b7160e01b81526011600452602490fd5b60085460408051637aaf11c760e01b81527f0000000000000000000000000000000000000000000000000000000000000000600482018190526000949385936001600160a01b03939092918416916020918281602481875afa908115611aa8578791611a77575b50611952575b505050505050565b7f000000000000000000000000000000000000000000000000000000000000000060018110611a63578451632509d07760e11b815260048101929092526000190160248201528181604481865afa918215611a59578692611a27575b5050825191829163c942adf760e01b835260048301528160246101609384935afa8015611a1d576119e0575b8061194a565b81813d8311611a16575b6119f4818361140a565b81010312611a1257015190811603611a0f57808080806119da565b80fd5b8380fd5b503d6119ea565b83513d87823e3d90fd5b90809250813d8311611a52575b611a3e818361140a565b81010312611a4e575138806119ae565b8480fd5b503d611a34565b84513d88823e3d90fd5b634e487b7160e01b87526011600452602487fd5b90508281813d8311611aa1575b611a8e818361140a565b81010312611a9d575138611944565b8680fd5b503d611a84565b85513d89823e3d90fd5b600e600160ff1b018112600116610f0957600d190190565b600082128015600160ff1b8401831216610f09576001600160ff1b038301821316610f09570390565b6000811280156001600160ff1b03839003841316610f0957600160ff1b829003831216610f09570190565b6105b560008083136001600160ff1b038490048311166001166118c95760017fffe9924f8d0dd7b2e6f174df9576f9de01c091c8faeb2605f522de8852b47aa8841282851216166118c95750029056feddf252ad1be2c89b69c2b068fc378daa952ba7f163c4a11628f55a4df523b3efa26469706673582212209d889cbc3302c168b0ad675c27317e591e7240e41838231eae33e27c9045e58e64736f6c634300080f0033a2646970667358221220e1f3be33a2bb6a03bd3d49ce5efc2ed8ae5816eac40b693581a33f933db1cf4e64736f6c634300080f0033",
  "devdoc": {
    "kind": "dev",
    "methods": {
      "deployCRToken(string,uint256,string,uint256,uint256)": {
        "params": {
          "_expiry": "Expiry date of cover right token",
          "_generation": "Generation of priority pool (1 if no liquidations occurred)",
          "_poolId": "Pool Id",
          "_poolName": "Name of Priority Pool",
          "_tokenName": "Name of insured token (e.g. DEG)"
        }
      },
      "owner()": {
        "details": "Returns the address of the current owner."
      },
      "renounceOwnership()": {
        "details": "Leaves the contract without owner. It will not be possible to call `onlyOwner` functions anymore. Can only be called by the current owner. NOTE: Renouncing ownership will leave the contract without an owner, thereby removing any functionality that is only available to the owner."
      },
      "transferOwnership(address)": {
        "details": "Transfers ownership of the contract to a new account (`newOwner`). Can only be called by the current owner."
      }
    },
    "version": 1
  },
  "userdoc": {
    "kind": "user",
    "methods": {
      "deployCRToken(string,uint256,string,uint256,uint256)": {
        "notice": "Deploy Cover Right Token for a given pool"
      }
    },
    "notice": "Factory for deploying crTokens         Salt as index for cover right tokens:             salt = keccak256(poolId, expiry, genration)         Factory will record whether a crToken has been deployed         Also record the generation of a specific crToken         And find the address of the crToken with its salt",
    "version": 1
  },
  "storageLayout": {
    "storage": [
      {
        "astId": 21730,
        "contract": "src/crTokens/CoverRightTokenFactory.sol:CoverRightTokenFactory",
        "label": "_owner",
        "offset": 0,
        "slot": "0",
        "type": "t_address"
      },
      {
        "astId": 12744,
        "contract": "src/crTokens/CoverRightTokenFactory.sol:CoverRightTokenFactory",
        "label": "policyCenter",
        "offset": 0,
        "slot": "1",
        "type": "t_address"
      },
      {
        "astId": 12746,
        "contract": "src/crTokens/CoverRightTokenFactory.sol:CoverRightTokenFactory",
        "label": "incidentReport",
        "offset": 0,
        "slot": "2",
        "type": "t_address"
      },
      {
        "astId": 12748,
        "contract": "src/crTokens/CoverRightTokenFactory.sol:CoverRightTokenFactory",
        "label": "payoutPool",
        "offset": 0,
        "slot": "3",
        "type": "t_address"
      },
      {
        "astId": 12752,
        "contract": "src/crTokens/CoverRightTokenFactory.sol:CoverRightTokenFactory",
        "label": "deployed",
        "offset": 0,
        "slot": "4",
        "type": "t_mapping(t_bytes32,t_bool)"
      },
      {
        "astId": 12756,
        "contract": "src/crTokens/CoverRightTokenFactory.sol:CoverRightTokenFactory",
        "label": "saltToAddress",
        "offset": 0,
        "slot": "5",
        "type": "t_mapping(t_bytes32,t_address)"
      },
      {
        "astId": 12760,
        "contract": "src/crTokens/CoverRightTokenFactory.sol:CoverRightTokenFactory",
        "label": "generation",
        "offset": 0,
        "slot": "6",
        "type": "t_mapping(t_bytes32,t_uint256)"
      }
    ],
    "types": {
      "t_address": {
        "encoding": "inplace",
        "label": "address",
        "numberOfBytes": "20"
      },
      "t_bool": {
        "encoding": "inplace",
        "label": "bool",
        "numberOfBytes": "1"
      },
      "t_bytes32": {
        "encoding": "inplace",
        "label": "bytes32",
        "numberOfBytes": "32"
      },
      "t_mapping(t_bytes32,t_address)": {
        "encoding": "mapping",
        "key": "t_bytes32",
        "label": "mapping(bytes32 => address)",
        "numberOfBytes": "32",
        "value": "t_address"
      },
      "t_mapping(t_bytes32,t_bool)": {
        "encoding": "mapping",
        "key": "t_bytes32",
        "label": "mapping(bytes32 => bool)",
        "numberOfBytes": "32",
        "value": "t_bool"
      },
      "t_mapping(t_bytes32,t_uint256)": {
        "encoding": "mapping",
        "key": "t_bytes32",
        "label": "mapping(bytes32 => uint256)",
        "numberOfBytes": "32",
        "value": "t_uint256"
      },
      "t_uint256": {
        "encoding": "inplace",
        "label": "uint256",
        "numberOfBytes": "32"
      }
    }
  }
}