{
  "address": "0xb33348b9316E1D472430aB5C2ea8f865323512B0",
  "abi": [
    {
      "inputs": [
        {
          "internalType": "address",
          "name": "_policyCenter",
          "type": "address"
        }
      ],
      "stateMutability": "nonpayable",
      "type": "constructor"
    },
    {
      "anonymous": false,
      "inputs": [
        {
          "indexed": false,
          "internalType": "uint256",
          "name": "poolId",
          "type": "uint256"
        },
        {
          "indexed": false,
          "internalType": "string",
          "name": "tokenName",
          "type": "string"
        },
        {
          "indexed": false,
          "internalType": "uint256",
          "name": "expiry",
          "type": "uint256"
        },
        {
          "indexed": false,
          "internalType": "uint256",
          "name": "generation",
          "type": "uint256"
        },
        {
          "indexed": false,
          "internalType": "address",
          "name": "tokenAddress",
          "type": "address"
        }
      ],
      "name": "NewCRTokenDeployed",
      "type": "event"
    },
    {
      "anonymous": false,
      "inputs": [
        {
          "indexed": true,
          "internalType": "address",
          "name": "previousOwner",
          "type": "address"
        },
        {
          "indexed": true,
          "internalType": "address",
          "name": "newOwner",
          "type": "address"
        }
      ],
      "name": "OwnershipTransferred",
      "type": "event"
    },
    {
      "inputs": [
        {
          "internalType": "string",
          "name": "_poolName",
          "type": "string"
        },
        {
          "internalType": "uint256",
          "name": "_poolId",
          "type": "uint256"
        },
        {
          "internalType": "string",
          "name": "_tokenName",
          "type": "string"
        },
        {
          "internalType": "uint256",
          "name": "_expiry",
          "type": "uint256"
        },
        {
          "internalType": "uint256",
          "name": "_generation",
          "type": "uint256"
        }
      ],
      "name": "deployCRToken",
      "outputs": [
        {
          "internalType": "address",
          "name": "newCRToken",
          "type": "address"
        }
      ],
      "stateMutability": "nonpayable",
      "type": "function"
    },
    {
      "inputs": [
        {
          "internalType": "bytes32",
          "name": "",
          "type": "bytes32"
        }
      ],
      "name": "deployed",
      "outputs": [
        {
          "internalType": "bool",
          "name": "",
          "type": "bool"
        }
      ],
      "stateMutability": "view",
      "type": "function"
    },
    {
      "inputs": [
        {
          "internalType": "bytes32",
          "name": "",
          "type": "bytes32"
        }
      ],
      "name": "generation",
      "outputs": [
        {
          "internalType": "uint256",
          "name": "",
          "type": "uint256"
        }
      ],
      "stateMutability": "view",
      "type": "function"
    },
    {
      "inputs": [],
      "name": "owner",
      "outputs": [
        {
          "internalType": "address",
          "name": "",
          "type": "address"
        }
      ],
      "stateMutability": "view",
      "type": "function"
    },
    {
      "inputs": [],
      "name": "policyCenter",
      "outputs": [
        {
          "internalType": "address",
          "name": "",
          "type": "address"
        }
      ],
      "stateMutability": "view",
      "type": "function"
    },
    {
      "inputs": [],
      "name": "renounceOwnership",
      "outputs": [],
      "stateMutability": "nonpayable",
      "type": "function"
    },
    {
      "inputs": [
        {
          "internalType": "bytes32",
          "name": "",
          "type": "bytes32"
        }
      ],
      "name": "saltToAddress",
      "outputs": [
        {
          "internalType": "address",
          "name": "",
          "type": "address"
        }
      ],
      "stateMutability": "view",
      "type": "function"
    },
    {
      "inputs": [
        {
          "internalType": "address",
          "name": "_policyCenter",
          "type": "address"
        }
      ],
      "name": "setPolicyCenter",
      "outputs": [],
      "stateMutability": "nonpayable",
      "type": "function"
    },
    {
      "inputs": [
        {
          "internalType": "address",
          "name": "newOwner",
          "type": "address"
        }
      ],
      "name": "transferOwnership",
      "outputs": [],
      "stateMutability": "nonpayable",
      "type": "function"
    }
  ],
  "transactionHash": "0xdb7b1a31aa8ba26a5e66cd0914e7162d556750bf9b4a775b7354737e7290bdac",
  "args": [
    "0xC3284aB7960b40b77efc599d1263733055fea77A"
  ],
  "numDeployments": 1,
  "solcInputHash": "01077e49f4c60637e514cb7d936557f5",
  "bytecode": "0x60803461007a57601f612ac338819003918201601f19168301916001600160401b0383118484101761007f5780849260209460405283398101031261007a57516001600160a01b0381169081900361007a5760018060a01b0319338160005416176000556004541617600455604051612a2d90816100968239f35b600080fd5b634e487b7160e01b600052604160045260246000fdfe6080604052600436101562000014575b600080fd5b60003560e01c80631158c64c14620000e15780631620909514620000d65780632dd57bb014620000cb5780636a6cc25814620000c05780636c1020a114620000b5578063715018a614620000aa5780638da5cb5b146200009f578063e8adbf2f14620000945763f2fde38b146200008a57600080fd5b6200000f620004e8565b506200000f620004bc565b506200000f62000490565b506200000f62000427565b506200000f62000219565b506200000f620001b9565b506200000f62000172565b506200000f6200011c565b346200000f57620000f23662000109565b600052600360205260406000205460805260206080f35b60209060031901126200000f5760043590565b50346200000f576200012e3662000109565b6000526002602052602060018060a01b0360406000205416604051908152f35b60209060031901126200000f576004356001600160a01b03811681036200000f5790565b50346200000f5762000184366200014e565b6000546001600160a01b039190620001a09083163314620005ae565b60048054919092166001600160a01b0319909116179055005b50346200000f57620001cb3662000109565b6000526001602052602060ff604060002054166040519015158152f35b9181601f840112156200000f5782359167ffffffffffffffff83116200000f57602083818601950101116200000f57565b50346200000f5760a03660031901126200000f5767ffffffffffffffff6004358181116200000f5762000251903690600401620001e8565b91602435906044359081116200000f5762000271903690600401620001e8565b9160643593608435958515620003ef5786867f30aea988271444d9893c99d63b763479d038c4b2756b3ede0182f293d5beda9196620003c16200038e620003ce96620003886200037797620003eb9e620003a29e8d8d6200038160405160208101906200030481620002f58989888791606093918352602083015260408201520190565b03601f198101835282620005ff565b5190209d8e986200033c62000336620003326200032b8d6000526001602052604060002090565b5460ff1690565b1590565b62000631565b62000362620003558b6000526001602052604060002090565b805460ff19166001179055565b6004546001600160a01b031697369162000671565b928b369162000671565b916200078f565b62000852565b809a81966000526002602052604060002090565b80546001600160a01b0319166001600160a01b03909216919091179055565b60405196879687620006cd565b0390a16040516001600160a01b0390911681529081906020820190565b0390f35b60405162461bcd60e51b815260206004820152601060248201526f5a65726f20657870697279206461746560801b6044820152606490fd5b50346200000f576000806003193601126200048d5780546001600160a01b0381169062000456338314620005ae565b82604051927f8be0079c531659141344cd1fd0a4f28419497f9722a3daafe3b4186f6b6457e08285a36001600160a01b0319168255f35b80fd5b50346200000f5760003660031901126200000f576000546040516001600160a01b039091168152602090f35b50346200000f5760003660031901126200000f576004546040516001600160a01b039091168152602090f35b50346200000f57620004fa366200014e565b600054906001600160a01b038083169162000517338414620005ae565b1680156200055a5760009281604051937f8be0079c531659141344cd1fd0a4f28419497f9722a3daafe3b4186f6b6457e08686a36001600160a01b031916178255f35b60405162461bcd60e51b815260206004820152602660248201527f4f776e61626c653a206e6577206f776e657220697320746865207a65726f206160448201526564647265737360d01b6064820152608490fd5b15620005b657565b60405162461bcd60e51b815260206004820152600a60248201526927b7363c9037bbb732b960b11b6044820152606490fd5b50634e487b7160e01b600052604160045260246000fd5b90601f8019910116810190811067ffffffffffffffff8211176200062257604052565b6200062c620005e8565b604052565b156200063957565b60405162461bcd60e51b815260206004820152601060248201526f185b1c9958591e4819195c1b1bde595960821b6044820152606490fd5b92919267ffffffffffffffff8211620006bd575b604051916200069f601f8201601f191660200184620005ff565b8294818452818301116200000f578281602093846000960137010152565b620006c7620005e8565b62000685565b9491928060809598979460c093885260a060208901528160a0890152838801376000828288010152601f8019910116850101956040850152606084015260018060a01b0316910152565b918091926000905b8282106200073957501162000732575050565b6000910152565b915080602091830151818601520182916200071f565b906020916200076a8151809281855285808601910162000717565b601f01601f1916010190565b906200078b6020928281519485920162000717565b0190565b926200082a620008429293620007e8926200083b986200084f98620008026121919860405199620007c4602082018c620005ff565b808b526200086760208c013960405197889660c0602089015260e08801906200074f565b906040870152601f199a8b8783030160608801526200074f565b608085019390935260a08401526001600160a01b031660c083015203858101835282620005ff565b604051958693602085019062000776565b9062000776565b03908101835282620005ff565b90565b6020815191016000f590813b156200000f5756fe604060c0815234620005135762002191803803806200001e8162000518565b928339810160c082820312620005135781516001600160401b039290838111620005135782620000509183016200053e565b91602093848301519186840151908282116200051357620000739185016200053e565b9060608401519460a060808601519501519660018060a01b03881680980362000513578851918983018381108582111762000413578a52600783526631b92a37b5b2b760c91b8284015284519184831162000413576003938454936001978886811c9616801562000508575b84871014620004f2578190601f968781116200049c575b508490878311600114620004355760009262000429575b505060001982881b1c191690881b1785555b8051868111620004135760049182548981811c9116801562000408575b85821014620003f3579081878493116200039d575b50849087831160011462000336576000926200032a575b505060001982881b1c191690881b1781555b8660055560018060a01b031999338b600654161760065560095582519586116200031557600a54908782811c921680156200030a575b83831014620002f55750838111620002a9575b50809285116001146200023957509383949184926000956200022d575b50501b92600019911b1c191617600a555b60a052608052600854161760085551611bcf9081620005c2823960805181610ad8015260a05181818161027b0152818161044c01526112a50152f35b015193503880620001e0565b92919084601f198116600a60005285600020956000905b898383106200028e575050501062000273575b50505050811b01600a55620001f1565b01519060f884600019921b161c191690553880808062000263565b85870151895590970196948501948893509081019062000250565b600a600052816000208480880160051c820192848910620002eb575b0160051c019087905b828110620002de575050620001c3565b60008155018790620002ce565b92508192620002c5565b602290634e487b7160e01b6000525260246000fd5b91607f1691620001b0565b604190634e487b7160e01b6000525260246000fd5b01519050388062000168565b908a9350601f1983169185600052866000209260005b888282106200038657505084116200036d575b505050811b0181556200017a565b0151600019838a1b60f8161c191690553880806200035f565b8385015186558e979095019493840193016200034c565b90915083600052846000208780850160051c820192878610620003e9575b918c91869594930160051c01915b828110620003d957505062000151565b600081558594508c9101620003c9565b92508192620003bb565b602284634e487b7160e01b6000525260246000fd5b90607f16906200013c565b634e487b7160e01b600052604160045260246000fd5b0151905038806200010d565b908a9350601f1983169189600052866000209260005b888282106200048557505084116200046c575b505050811b0185556200011f565b0151600019838a1b60f8161c191690553880806200045e565b8385015186558e979095019493840193016200044b565b90915087600052846000208780850160051c820192878610620004e8575b918c91869594930160051c01915b828110620004d8575050620000f6565b600081558594508c9101620004c8565b92508192620004ba565b634e487b7160e01b600052602260045260246000fd5b95607f1695620000df565b600080fd5b6040519190601f01601f191682016001600160401b038111838210176200041357604052565b81601f8201121562000513578051906001600160401b038211620004135760209062000573601f8401601f1916830162000518565b93838552828483010111620005135782906000905b83838310620005a8575050116200059e57505090565b6000918301015290565b819350828193920101518282880101520183916200058856fe6080604081815260048036101561001557600080fd5b600092833560e01c90816306fdde0314610c2457508063095ea7b314610bfa5780630c13175714610b245780630f89b77d14610afb5780631721952214610ac057806318160ddd14610aa157806323b872dd146109d75780632dd57bb01461098e578063313ce56714610972578063395093511461092257806370a08231146108eb578063715018a6146108895780638253b8261461084857806382b2ed1314610822578063836a1040146106cd5780638da5cb5b146106a457806395d89b41146105bd5780639eea5f6614610408578063a457c2d714610361578063a9059cbb14610330578063b39d2bab14610314578063d89232da146102e7578063dd62ed3e1461029e578063e0d7d0e914610263578063e184c9be14610244578063e8adbf2f146102175763f2fde38b1461014c57600080fd5b3461021357602036600319011261021357610165610d1d565b6006546001600160a01b038082169491926101813387146110ea565b169283156101c25750829051937f8be0079c531659141344cd1fd0a4f28419497f9722a3daafe3b4186f6b6457e08686a36001600160a01b03191617600655f35b6020608492519162461bcd60e51b8352820152602660248201527f4f776e61626c653a206e6577206f776e657220697320746865207a65726f206160448201526564647265737360d01b6064820152fd5b8280fd5b50503461024057816003193601126102405760085490516001600160a01b039091168152602090f35b5080fd5b5050346102405781600319360112610240576020906009549051908152f35b505034610240578160031936011261024057602090517f00000000000000000000000000000000000000000000000000000000000000008152f35b505034610240578060031936011261024057806020926102bc610d1d565b6102c4610d38565b6001600160a01b0391821683526001865283832091168252845220549051908152f35b5050346102405760203660031901126102405760209061030d610308610d1d565b611292565b9051908152f35b5050346102405781600319360112610240576020905160028152f35b50503461024057806003193601126102405760209061035a610350610d1d565b6024359033610dd2565b5160018152f35b50823461040557826003193601126104055761037b610d1d565b918360243592338152600160205281812060018060a01b03861682526020522054908282106103b45760208561035a8585038733610fe8565b608490602086519162461bcd60e51b8352820152602560248201527f45524332303a2064656372656173656420616c6c6f77616e63652062656c6f77604482015264207a65726f60d81b6064820152fd5b80fd5b5034610213576104719061041b36610d86565b92919060018060a01b0394859261043784600854163314611123565b61043f6111f2565b61044a861515611164565b7f00000000000000000000000000000000000000000000000000000000000000001461119e565b169283158015906105705780610569575b610521575b508285528460205283852054908282106104d357506020828493600080516020611b7a8339815191529388968752868452038686205580600254036002558551908152a3600160055551f35b608490602086519162461bcd60e51b8352820152602260248201527f45524332303a206275726e20616d6f756e7420657863656564732062616c616e604482015261636560f01b6064820152fd5b6008541661052f5738610487565b606490602085519162461bcd60e51b8352820152601460248201527327b7363c903a37903837b634b1bca1b2b73a32b960611b6044820152fd5b5085610482565b855162461bcd60e51b8152602081850152602160248201527f45524332303a206275726e2066726f6d20746865207a65726f206164647265736044820152607360f81b6064820152608490fd5b50919034610240578160031936011261024057805191809380549160019083821c9282851694851561069a575b6020958686108114610687578589529081156106635750600114610628575b610624878761061a828c0383610d4e565b5191829182610cc6565b0390f35b9080949750528583205b82841061065057505050826106249461061a92820101943880610609565b8054868501880152928601928101610632565b60ff19168887015250505050151560051b830101925061061a826106243880610609565b634e487b7160e01b845260228352602484fd5b93607f16936105ea565b50503461024057816003193601126102405760065490516001600160a01b039091168152602090f35b5034610213576106dc36610d86565b909161070b60018060a01b03916106f883600854163314611123565b6107006111f2565b61044a841515611164565b6202a30019421161080f576107246202a3004201611490565b921692838652602092600b84528587209087528352848620610747838254610db0565b905583156107cc5760095442116107975750849181610777600080516020611b7a83398151915293600254610db0565b6002558484528382528584208181540190558551908152a3600160055551f35b845162461bcd60e51b8152908101839052600f60248201526e22bc3834b932b21031b92a37b5b2b760891b6044820152606490fd5b845162461bcd60e51b8152908101839052601f60248201527f45524332303a206d696e7420746f20746865207a65726f2061646472657373006044820152606490fd5b634e487b7160e01b865260118452602486fd5b5050346102405760203660031901126102405760209061030d610843610d1d565b611253565b50503461024057806003193601126102405760209181906001600160a01b0361086f610d1d565b168152600b84528181206024358252845220549051908152f35b5050346102405781600319360112610240576006546001600160a01b0381169183906108b63385146110ea565b51927f8be0079c531659141344cd1fd0a4f28419497f9722a3daafe3b4186f6b6457e08285a36001600160a01b031916600655f35b5050346102405760203660031901126102405760209181906001600160a01b03610913610d1d565b16815280845220549051908152f35b50503461024057806003193601126102405761035a60209261096b610945610d1d565b338352600186528483206001600160a01b03821684528652918490205460243590610db0565b9033610fe8565b5050346102405781600319360112610240576020905160128152f35b505034610240576020366003190112610240576109a9610d1d565b6006546001600160a01b0391906109c390831633146110ea565b1660018060a01b0319600854161760085551f35b50829034610240576060366003190112610240576109f3610d1d565b6109fb610d38565b91846044359460018060a01b038416815260016020528181203382526020522054906000198203610a35575b60208661035a878787610dd2565b848210610a5e5750918391610a536020969561035a95033383610fe8565b919394819350610a27565b606490602087519162461bcd60e51b8352820152601d60248201527f45524332303a20696e73756666696369656e7420616c6c6f77616e63650000006044820152fd5b5050346102405781600319360112610240576020906002549051908152f35b505034610240578160031936011261024057602090517f00000000000000000000000000000000000000000000000000000000000000008152f35b50503461024057816003193601126102405760075490516001600160a01b039091168152602090f35b50903461021357826003193601126102135780519183600a549060019082821c928281168015610bf0575b6020958686108214610bdd5750848852908115610bbb5750600114610b80575b610624868661061a828b0383610d4e565b929550600a83528583205b828410610ba857505050826106249461061a928201019438610b6f565b8054868501880152928601928101610b8b565b60ff191687860152505050151560051b830101925061061a8261062438610b6f565b634e487b7160e01b845260229052602483fd5b93607f1693610b4f565b50503461024057806003193601126102405760209061035a610c1a610d1d565b6024359033610fe8565b9291905034610cc25783600319360112610cc257600354600181811c9186908281168015610cb8575b6020958686108214610bdd5750848852908115610bbb5750600114610c7d57610624868661061a828b0383610d4e565b929550600383528583205b828410610ca557505050826106249461061a928201019438610b6f565b8054868501880152928601928101610c88565b93607f1693610c4d565b8380fd5b919091602080825283519081818401526000945b828610610d07575050806040939411610cfa575b601f01601f1916010190565b6000838284010152610cee565b8581018201518487016040015294810194610cda565b600435906001600160a01b0382168203610d3357565b600080fd5b602435906001600160a01b0382168203610d3357565b90601f8019910116810190811067ffffffffffffffff821117610d7057604052565b634e487b7160e01b600052604160045260246000fd5b6060906003190112610d3357600435906024356001600160a01b0381168103610d33579060443590565b81198111610dbc570190565b634e487b7160e01b600052601160045260246000fd5b6001600160a01b039081168015801594919391929190610f95578116938415801590610f4457806009544211610f03575b5081610efb575b50610eaf575b50600082815280602052604081205491808310610e5b5760408282600080516020611b7a833981519152958760209652828652038282205586815220818154019055604051908152a3565b60405162461bcd60e51b815260206004820152602660248201527f45524332303a207472616e7366657220616d6f756e7420657863656564732062604482015265616c616e636560d01b6064820152608490fd5b600854168303610ebf5738610e10565b60405162461bcd60e51b815260206004820152601460248201527327b7363c903a37903837b634b1bca1b2b73a32b960611b6044820152606490fd5b905038610e0a565b610f0d5780610e03565b60405162461bcd60e51b815260206004820152600f60248201526e22bc3834b932b21031b92a37b5b2b760891b6044820152606490fd5b60405162461bcd60e51b815260206004820152602360248201527f45524332303a207472616e7366657220746f20746865207a65726f206164647260448201526265737360e81b6064820152608490fd5b60405162461bcd60e51b815260206004820152602560248201527f45524332303a207472616e736665722066726f6d20746865207a65726f206164604482015264647265737360d81b6064820152608490fd5b6001600160a01b0390811691821561109957169182156110495760207f8c5be1e5ebec7d5bd14f71427d1e84f3dd0314c0f7b2291e5b200ac8c7c3b925918360005260018252604060002085600052825280604060002055604051908152a3565b60405162461bcd60e51b815260206004820152602260248201527f45524332303a20617070726f766520746f20746865207a65726f206164647265604482015261737360f01b6064820152608490fd5b60405162461bcd60e51b8152602060048201526024808201527f45524332303a20617070726f76652066726f6d20746865207a65726f206164646044820152637265737360e01b6064820152608490fd5b156110f157565b60405162461bcd60e51b815260206004820152600a60248201526927b7363c9037bbb732b960b11b6044820152606490fd5b1561112a57565b60405162461bcd60e51b815260206004820152601260248201527127b7363c903837b634b1bc9031b2b73a32b960711b6044820152606490fd5b1561116b57565b60405162461bcd60e51b815260206004820152600b60248201526a16995c9bc8105b5bdd5b9d60aa1b6044820152606490fd5b156111a557565b60405162461bcd60e51b815260206004820152600d60248201526c15dc9bdb99c81c1bdbdb081a59609a1b6044820152606490fd5b62015180908060001904821181151516610dbc570290565b600260055414611203576002600555565b60405162461bcd60e51b815260206004820152601f60248201527f5265656e7472616e637947756172643a207265656e7472616e742063616c6c006044820152606490fd5b818110610dbc570390565b61125c81611292565b6001600160a01b039091166000908152602081905260409020549081811115611286575050600090565b61128f91611248565b90565b60075460408051637aaf11c760e01b81527f0000000000000000000000000000000000000000000000000000000000000000600482018190526000959491936001600160a01b0390811693928792909160209182886024818a5afa978815611412578598611461575b5060019788811061144d578651632509d07760e11b8152600481019290925260001901602482015282816044818a5afa90811561141257859161141c575b50855196879163c942adf760e01b83526004830152816024610160998a935afa9687156114125785976113d3575b505095949392919082965b60028810611384575050505050505050565b9091929394956113c5889a6113aa6113a561139f859c6111da565b8b611248565b611490565b8487168852600b865288882090885285528787205490610db0565b990196959493929190611372565b9080929750813d831161140b575b6113eb8183610d4e565b81010312610cc2578481015186811603610cc25760600151943880611367565b503d6113e1565b86513d87823e3d90fd5b90508281813d8311611446575b6114338183610d4e565b81010312611442575138611339565b8480fd5b503d611429565b634e487b7160e01b86526011600452602486fd5b9097508281813d8311611489575b6114798183610d4e565b81010312611442575196386112fb565b503d61146f565b62010bd9906000906001600160ff1b0390620151809004828112818303811581871316611a9557600160ff1b95838703928382121661144d5785908401129162010bd819908162253d8c93018313841516611a8157011316611a6d5762264965016001916004948383830487118685131616611a5a57848312600760fd1b8412168416611a5a5762023ab192838160021b05938585850482118887131616611a3457857fffffc694f94337079d130ab45dff8e0f9ea161331bb1c93dea871de6fec83ce286128887121616611a345784028681128185036003138115166119bd5781840360031216611a34579087600361158c93010590611ac1565b908582128284038613811516611a3457828203861216611a4757848201610fa086828604821189841316166119bd57867ffff7ced916872b020c49ba5e353f7ced916872b020c49ba5e353f7ced916872c831289841216166119bd576116059162164b0991020592886115fe85611b15565b0590611ac1565b868112818503601f138115166119bd57818303601f1216611a3457601f0191858385046050118885131616611a3457857ffe6666666666666666666666666666666666666666666666666666666666666784128885121616611a345761098f94858460500205938785870488118a87131616611a0a5788851296887ffff29be1739a4fb805dbcd5d6c7d1f7d6fd627208942391f124ee1c3f307026887128916166119d057906050866116ba93020590611ac1565b95600b8505908587036002138115166119d05785850360021216611a0a57600c928882880485118b841316166119d0577ff55555555555555555555555555555555555555555555555555555555555555695898784128c85121616611a21576117299060028487029101611ac1565b926031600160ff1b0181128a16611a2157603019018a8113818904606411168a16611a2157897ffeb851eb851eb851eb851eb851eb851eb851eb851eb851eb851eb851eb851eb982128c83121616611a2157611791929161178c91606402611aea565b611aea565b936107b28510611a1d57617d4b600160ff1b0187128816611a0a5784860393898612918215986112c0928784138b166119e3578890039283811285166119e357908d6117f56117f0611801948a6117e78b611aa9565b05908d01611aea565b611b15565b0590617d4a1901611aea565b906002600160ff1b0185128b166119f7578561181c86611aa9565b05908c82137f0aaaaaaaaaaaaaaaaaaaaaaaaaaaaaaaaaaaaaaaaaaaaaaaaaaaaaaaaaaaaaaa8311168c166119e3578b9082128d831216166119f7576118689086026001198601611ac1565b61016f8c8213828b048211168c166119e3578c82127fffa6b6c1eb12d573186a06f9b8d9a287530217b7747d8eff4d6d83d625aae6318312168c166119e3576118b692918791020590611aea565b97611324958613166119d0578412166119bd57926064926118e3926118db8996611aa9565b059101611aea565b0580920460031185831316166119aa57827fd555555555555555555555555555555555555555555555555555555555555556821285831216166119aa579084611930926003020590611ac1565b9062253d8c600160ff1b01821216611997576119519062253d8b19016111da565b916201437019831161198457610dd4196201437084011161198457603b19620151448401116119845750506201517f0190565b634e487b7160e01b825260119052602490fd5b506011602492634e487b7160e01b835252fd5b634e487b7160e01b845260118552602484fd5b634e487b7160e01b885260118952602488fd5b634e487b7160e01b8a5260118b5260248afd5b50634e487b7160e01b8c5260118d5260248cfd5b634e487b7160e01b8c5260118d5260248cfd5b634e487b7160e01b895260118a52602489fd5b8880fd5b634e487b7160e01b8b5260118c5260248bfd5b634e487b7160e01b875260118852602487fd5b634e487b7160e01b865260118752602486fd5b634e487b7160e01b855260118652602485fd5b634e487b7160e01b83526011600452602483fd5b634e487b7160e01b87526011600452602487fd5b634e487b7160e01b85526011600452602485fd5b600e600160ff1b018112600116610dbc57600d190190565b600082128015600160ff1b8401831216610dbc576001600160ff1b038301821316610dbc570390565b6000811280156001600160ff1b03839003841316610dbc57600160ff1b829003831216610dbc570190565b6105b560008083136001600160ff1b03849004831116600116611b655760017fffe9924f8d0dd7b2e6f174df9576f9de01c091c8faeb2605f522de8852b47aa884128285121616611b6557500290565b634e487b7160e01b81526011600452602490fdfeddf252ad1be2c89b69c2b068fc378daa952ba7f163c4a11628f55a4df523b3efa26469706673582212201476555b9dcda83be8253f1c2ab442cc183fd136bcfbbc0c87455dea7dc7af2364736f6c634300080f0033a26469706673582212201b97e1d2b5536cdcb04aa85653234240a1c68240e84a3ab554a40a8d36e2eff364736f6c634300080f0033",
  "devdoc": {
    "kind": "dev",
    "methods": {
      "deployCRToken(string,uint256,string,uint256,uint256)": {
        "params": {
          "_expiry": "Expiry date of cover right token",
          "_generation": "Generation of priority pool (1 if no liquidations occurred)",
          "_poolId": "Pool Id",
          "_poolName": "Name of Priority Pool",
          "_tokenName": "Name of insured token (e.g. DEG)"
        }
      },
      "owner()": {
        "details": "Returns the address of the current owner."
      },
      "renounceOwnership()": {
        "details": "Leaves the contract without owner. It will not be possible to call `onlyOwner` functions anymore. Can only be called by the current owner. NOTE: Renouncing ownership will leave the contract without an owner, thereby removing any functionality that is only available to the owner."
      },
      "transferOwnership(address)": {
        "details": "Transfers ownership of the contract to a new account (`newOwner`). Can only be called by the current owner."
      }
    },
    "version": 1
  },
  "userdoc": {
    "kind": "user",
    "methods": {
      "deployCRToken(string,uint256,string,uint256,uint256)": {
        "notice": "Deploy Cover Right Token for a given pool"
      }
    },
    "notice": "Factory for deploying crTokens",
    "version": 1
  },
  "storageLayout": {
    "storage": [
      {
        "astId": 21667,
        "contract": "src/crTokens/CoverRightTokenFactory.sol:CoverRightTokenFactory",
        "label": "_owner",
        "offset": 0,
        "slot": "0",
        "type": "t_address"
      },
      {
        "astId": 12624,
        "contract": "src/crTokens/CoverRightTokenFactory.sol:CoverRightTokenFactory",
        "label": "deployed",
        "offset": 0,
        "slot": "1",
        "type": "t_mapping(t_bytes32,t_bool)"
      },
      {
        "astId": 12628,
        "contract": "src/crTokens/CoverRightTokenFactory.sol:CoverRightTokenFactory",
        "label": "saltToAddress",
        "offset": 0,
        "slot": "2",
        "type": "t_mapping(t_bytes32,t_address)"
      },
      {
        "astId": 12632,
        "contract": "src/crTokens/CoverRightTokenFactory.sol:CoverRightTokenFactory",
        "label": "generation",
        "offset": 0,
        "slot": "3",
        "type": "t_mapping(t_bytes32,t_uint256)"
      },
      {
        "astId": 12634,
        "contract": "src/crTokens/CoverRightTokenFactory.sol:CoverRightTokenFactory",
        "label": "policyCenter",
        "offset": 0,
        "slot": "4",
        "type": "t_address"
      }
    ],
    "types": {
      "t_address": {
        "encoding": "inplace",
        "label": "address",
        "numberOfBytes": "20"
      },
      "t_bool": {
        "encoding": "inplace",
        "label": "bool",
        "numberOfBytes": "1"
      },
      "t_bytes32": {
        "encoding": "inplace",
        "label": "bytes32",
        "numberOfBytes": "32"
      },
      "t_mapping(t_bytes32,t_address)": {
        "encoding": "mapping",
        "key": "t_bytes32",
        "label": "mapping(bytes32 => address)",
        "numberOfBytes": "32",
        "value": "t_address"
      },
      "t_mapping(t_bytes32,t_bool)": {
        "encoding": "mapping",
        "key": "t_bytes32",
        "label": "mapping(bytes32 => bool)",
        "numberOfBytes": "32",
        "value": "t_bool"
      },
      "t_mapping(t_bytes32,t_uint256)": {
        "encoding": "mapping",
        "key": "t_bytes32",
        "label": "mapping(bytes32 => uint256)",
        "numberOfBytes": "32",
        "value": "t_uint256"
      },
      "t_uint256": {
        "encoding": "inplace",
        "label": "uint256",
        "numberOfBytes": "32"
      }
    }
  }
}