{
  "address": "0xEdD3feD8f4C93B9Dd667A8EaEdE5bfDd88adb340",
  "abi": [
    {
      "anonymous": false,
      "inputs": [
        {
          "indexed": false,
          "internalType": "uint8",
          "name": "version",
          "type": "uint8"
        }
      ],
      "name": "Initialized",
      "type": "event"
    },
    {
      "anonymous": false,
      "inputs": [
        {
          "indexed": false,
          "internalType": "uint256",
          "name": "poolId",
          "type": "uint256"
        },
        {
          "indexed": false,
          "internalType": "string",
          "name": "tokenName",
          "type": "string"
        },
        {
          "indexed": false,
          "internalType": "uint256",
          "name": "expiry",
          "type": "uint256"
        },
        {
          "indexed": false,
          "internalType": "uint256",
          "name": "generation",
          "type": "uint256"
        },
        {
          "indexed": false,
          "internalType": "address",
          "name": "tokenAddress",
          "type": "address"
        }
      ],
      "name": "NewCRTokenDeployed",
      "type": "event"
    },
    {
      "anonymous": false,
      "inputs": [
        {
          "indexed": true,
          "internalType": "address",
          "name": "previousOwner",
          "type": "address"
        },
        {
          "indexed": true,
          "internalType": "address",
          "name": "newOwner",
          "type": "address"
        }
      ],
      "name": "OwnershipTransferred",
      "type": "event"
    },
    {
      "inputs": [
        {
          "internalType": "string",
          "name": "_poolName",
          "type": "string"
        },
        {
          "internalType": "uint256",
          "name": "_poolId",
          "type": "uint256"
        },
        {
          "internalType": "string",
          "name": "_tokenName",
          "type": "string"
        },
        {
          "internalType": "uint256",
          "name": "_expiry",
          "type": "uint256"
        },
        {
          "internalType": "uint256",
          "name": "_generation",
          "type": "uint256"
        }
      ],
      "name": "deployCRToken",
      "outputs": [
        {
          "internalType": "address",
          "name": "newCRToken",
          "type": "address"
        }
      ],
      "stateMutability": "nonpayable",
      "type": "function"
    },
    {
      "inputs": [
        {
          "internalType": "bytes32",
          "name": "",
          "type": "bytes32"
        }
      ],
      "name": "deployed",
      "outputs": [
        {
          "internalType": "bool",
          "name": "",
          "type": "bool"
        }
      ],
      "stateMutability": "view",
      "type": "function"
    },
    {
      "inputs": [
        {
          "internalType": "bytes32",
          "name": "",
          "type": "bytes32"
        }
      ],
      "name": "generation",
      "outputs": [
        {
          "internalType": "uint256",
          "name": "",
          "type": "uint256"
        }
      ],
      "stateMutability": "view",
      "type": "function"
    },
    {
      "inputs": [
        {
          "internalType": "uint256",
          "name": "_poolId",
          "type": "uint256"
        },
        {
          "internalType": "uint256",
          "name": "_expiry",
          "type": "uint256"
        },
        {
          "internalType": "uint256",
          "name": "_generation",
          "type": "uint256"
        }
      ],
      "name": "getCRTokenAddress",
      "outputs": [
        {
          "internalType": "address",
          "name": "crToken",
          "type": "address"
        }
      ],
      "stateMutability": "view",
      "type": "function"
    },
    {
      "inputs": [],
      "name": "incidentReport",
      "outputs": [
        {
          "internalType": "address",
          "name": "",
          "type": "address"
        }
      ],
      "stateMutability": "view",
      "type": "function"
    },
    {
      "inputs": [
        {
          "internalType": "address",
          "name": "_policyCenter",
          "type": "address"
        },
        {
          "internalType": "address",
          "name": "_incidentReport",
          "type": "address"
        }
      ],
      "name": "initialize",
      "outputs": [],
      "stateMutability": "nonpayable",
      "type": "function"
    },
    {
      "inputs": [],
      "name": "owner",
      "outputs": [
        {
          "internalType": "address",
          "name": "",
          "type": "address"
        }
      ],
      "stateMutability": "view",
      "type": "function"
    },
    {
      "inputs": [],
      "name": "payoutPool",
      "outputs": [
        {
          "internalType": "address",
          "name": "",
          "type": "address"
        }
      ],
      "stateMutability": "view",
      "type": "function"
    },
    {
      "inputs": [],
      "name": "policyCenter",
      "outputs": [
        {
          "internalType": "address",
          "name": "",
          "type": "address"
        }
      ],
      "stateMutability": "view",
      "type": "function"
    },
    {
      "inputs": [],
      "name": "renounceOwnership",
      "outputs": [],
      "stateMutability": "nonpayable",
      "type": "function"
    },
    {
      "inputs": [
        {
          "internalType": "bytes32",
          "name": "",
          "type": "bytes32"
        }
      ],
      "name": "saltToAddress",
      "outputs": [
        {
          "internalType": "address",
          "name": "",
          "type": "address"
        }
      ],
      "stateMutability": "view",
      "type": "function"
    },
    {
      "inputs": [
        {
          "internalType": "address",
          "name": "_incidentReport",
          "type": "address"
        }
      ],
      "name": "setIncidentReport",
      "outputs": [],
      "stateMutability": "nonpayable",
      "type": "function"
    },
    {
      "inputs": [
        {
          "internalType": "address",
          "name": "_payoutPool",
          "type": "address"
        }
      ],
      "name": "setPayoutPool",
      "outputs": [],
      "stateMutability": "nonpayable",
      "type": "function"
    },
    {
      "inputs": [
        {
          "internalType": "address",
          "name": "_policyCenter",
          "type": "address"
        }
      ],
      "name": "setPolicyCenter",
      "outputs": [],
      "stateMutability": "nonpayable",
      "type": "function"
    },
    {
      "inputs": [
        {
          "internalType": "address",
          "name": "newOwner",
          "type": "address"
        }
      ],
      "name": "transferOwnership",
      "outputs": [],
      "stateMutability": "nonpayable",
      "type": "function"
    }
  ],
  "transactionHash": "0xaafa9e0890031649c3de3c3d98198fd78fc5c1f290998ba8b4ce5017e0c840de",
  "args": [],
  "numDeployments": 1,
  "solcInputHash": "e1ba30aa7fe1764f1fb0e486bbf521c6",
  "bytecode": "0x6080806040523461001657612e42908161001c8239f35b600080fdfe6080604052600436101562000014575b600080fd5b60003560e01c80630f89b77d146200016b5780631158c64c14620001605780631620909514620001555780632dd57bb0146200014a5780633f07b282146200013f5780633f81ff261462000134578063485cc95514620001295780636273106a146200011e5780636a6cc25814620001135780636c1020a11462000108578063715018a614620000fd5780638da5cb5b14620000f2578063e3356ccf14620000e7578063e8adbf2f14620000dc5763f2fde38b14620000d257600080fd5b6200000f620007df565b506200000f620007b3565b506200000f62000760565b506200000f62000730565b506200000f620006c1565b506200000f620004e5565b506200000f62000485565b506200000f62000459565b506200000f62000350565b506200000f620002fd565b506200000f62000287565b506200000f62000234565b506200000f620001d4565b506200000f620001aa565b50346200000f5760003660031901126200000f576033546040516001600160a01b039091168152602090f35b60209060031901126200000f5760043590565b50346200000f57620001bc3662000197565b60005260376020526020604060002054604051908152f35b50346200000f57620001e63662000197565b6000526036602052602060018060a01b0360406000205416604051908152f35b600435906001600160a01b03821682036200000f57565b602435906001600160a01b03821682036200000f57565b50346200000f5760203660031901126200000f576200025262000206565b60018060a01b03906200026e8260005460101c16331462000984565b60328054919092166001600160a01b0319909116179055005b50346200000f5760603660031901126200000f576040516020810190620002da81620002cb6044356024356004358791606093918352602083015260408201520190565b03601f19810183528262000952565b5190206000526036602052602060018060a01b0360406000205416604051908152f35b50346200000f5760203660031901126200000f576200031b62000206565b60018060a01b0390620003378260005460101c16331462000984565b60348054919092166001600160a01b0319909116179055005b50346200000f5760403660031901126200000f576200036e62000206565b620003c46200037c6200021d565b60005492620003a560ff8560081c1615809581966200044a575b811562000427575b506200087f565b83620003b9600160ff196000541617600055565b6200040c57620008e3565b620003cc575b005b620003dd61ff001960005416600055565b604051600181527f7f26b83ff96e1f2b6a682f133852f6798a09c465da95921460cefb384740249890602090a1005b6200042161010061ff00196000541617600055565b620008e3565b303b159150816200043b575b50386200039e565b6001915060ff16143862000433565b600160ff821610915062000396565b50346200000f5760003660031901126200000f576034546040516001600160a01b039091168152602090f35b50346200000f57620004973662000197565b6000526035602052602060ff604060002054166040519015158152f35b9181601f840112156200000f5782359167ffffffffffffffff83116200000f57602083818601950101116200000f57565b50346200000f5760a03660031901126200000f5767ffffffffffffffff6004358181116200000f576200051d903690600401620004b4565b9190602435926044359283116200000f57620006bd93620006a07f30aea988271444d9893c99d63b763479d038c4b2756b3ede0182f293d5beda91936200056d62000674963690600401620004b4565b603254919560843592606435929162000693916200066091906200059c906001600160a01b03163314620009be565b620005a985151562000a00565b6200065a86868c8c62000653620006496040516020810190620005e381620002cb8a8a898791606093918352602083015260408201520190565b5190209d8e986200061b62000615620006116200060a8d6000526035602052604060002090565b5460ff1690565b1590565b62000a40565b62000641620006348b6000526035602052604060002090565b805460ff19166001179055565b369162000a80565b928a369162000a80565b9162000b9e565b62000c78565b809a81966000526036602052604060002090565b80546001600160a01b0319166001600160a01b03909216919091179055565b6040519687968762000adc565b0390a16040516001600160a01b0390911681529081906020820190565b0390f35b50346200000f576000806003193601126200072d578054601081901c6001600160a01b031690620006f433831462000984565b82604051927f8be0079c531659141344cd1fd0a4f28419497f9722a3daafe3b4186f6b6457e08285a362010000600160b01b0319168255f35b80fd5b50346200000f5760003660031901126200000f5760005460405160109190911c6001600160a01b03168152602090f35b50346200000f5760203660031901126200000f576200077e62000206565b60018060a01b03906200079a8260005460101c16331462000984565b60338054919092166001600160a01b0319909116179055005b50346200000f5760003660031901126200000f576032546040516001600160a01b039091168152602090f35b50346200000f5760203660031901126200000f57620007fd62000206565b60018060a01b03620008188160005460101c16331462000984565b8116156200082b57620003ca9062000ced565b60405162461bcd60e51b815260206004820152602660248201527f4f776e61626c653a206e6577206f776e657220697320746865207a65726f206160448201526564647265737360d01b6064820152608490fd5b156200088757565b60405162461bcd60e51b815260206004820152602e60248201527f496e697469616c697a61626c653a20636f6e747261637420697320616c72656160448201526d191e481a5b9a5d1a585b1a5e995960921b6064820152608490fd5b906200090260ff60005460081c16620008fc8162000c8c565b62000c8c565b6200090d3362000ced565b603280546001600160a01b039384166001600160a01b03199182161790915560338054929093169116179055565b50634e487b7160e01b600052604160045260246000fd5b90601f8019910116810190811067ffffffffffffffff8211176200097557604052565b6200097f6200093b565b604052565b156200098c57565b60405162461bcd60e51b815260206004820152600a60248201526927b7363c9037bbb732b960b11b6044820152606490fd5b15620009c657565b60405162461bcd60e51b815260206004820152601260248201527127b7363c903837b634b1bc9031b2b73a32b960711b6044820152606490fd5b1562000a0857565b60405162461bcd60e51b815260206004820152601060248201526f5a65726f20657870697279206461746560801b6044820152606490fd5b1562000a4857565b60405162461bcd60e51b815260206004820152601060248201526f185b1c9958591e4819195c1b1bde595960821b6044820152606490fd5b92919267ffffffffffffffff821162000acc575b6040519162000aae601f8201601f19166020018462000952565b8294818452818301116200000f578281602093846000960137010152565b62000ad66200093b565b62000a94565b9491928060809598979460c093885260a060208901528160a0890152838801376000828288010152601f8019910116850101956040850152606084015260018060a01b0316910152565b918091926000905b82821062000b4857501162000b41575050565b6000910152565b9150806020918301518186015201829162000b2e565b9060209162000b798151809281855285808601910162000b26565b601f01601f1916010190565b9062000b9a6020928281519485920162000b26565b0190565b919062000c2b62000c5062000c689262000c759662000c61986120bf966040519762000bce602082018a62000952565b80895262000d4e60208a013960018060a01b038060325416816033541691603454169360405198899762000c11610100968760208c01526101208b019062000b5e565b9060408a0152601f199d8e8a83030160608b015262000b5e565b95608088015260a087015260c086015260e08501528301520385810183528262000952565b604051958693602085019062000b85565b9062000b85565b0390810183528262000952565b90565b6020815191016000f590813b156200000f57565b1562000c9457565b60405162461bcd60e51b815260206004820152602b60248201527f496e697469616c697a61626c653a20636f6e7472616374206973206e6f74206960448201526a6e697469616c697a696e6760a81b6064820152608490fd5b6000549060018060a01b03808216908360101c167f8be0079c531659141344cd1fd0a4f28419497f9722a3daafe3b4186f6b6457e06000604051a362010000600160b01b031990911660109190911b62010000600160b01b03161760005556fe604060e08152346200055d57620020bf803803806200001e8162000562565b928339810190610100818303126200055d5780516001600160401b03908181116200055d57836200005191840162000588565b90602093848401519086850151908382116200055d576200007491860162000588565b6060850151926080860151936200008e60a088016200060b565b97620000ab60e0620000a360c08b016200060b565b99016200060b565b968a51918b8301838110868211176200045d578c52600783526631b92a37b5b2b760c91b818401528551928584116200045d576003948554946001988987811c9716801562000552575b858810146200053c578190601f97888111620004e6575b5085908883116001146200047f5760009262000473575b505060001982891b1c191690891b1786555b81518781116200045d5760049283548a81811c9116801562000452575b868210146200043d57908188849311620003e7575b508590888311600114620003805760009262000374575b505060001982891b1c191690891b1782555b8760055560a05282519586116200035f57600954908782811c9216801562000354575b838310146200033f5750838111620002f3575b508092851160011462000283575093839491849260009562000277575b50501b92600019911b1c1916176009555b60c05260805260018060a01b0380928160018060a01b03199516856006541617600655168360075416176007551690600854161760085551611a9e9081620006218239608051818181611158015261181a015260a05181818161026d01528181610d500152611384015260c05181818161045001528181610f9a01526117b60152f35b015193503880620001e3565b92919084601f198116600960005285600020956000905b89838310620002d85750505010620002bd575b50505050811b01600955620001f4565b01519060f884600019921b161c1916905538808080620002ad565b8587015189559097019694850194889350908101906200029a565b6009600052816000208480880160051c82019284891062000335575b0160051c019087905b82811062000328575050620001c6565b6000815501879062000318565b925081926200030f565b602290634e487b7160e01b6000525260246000fd5b91607f1691620001b3565b604190634e487b7160e01b6000525260246000fd5b0151905038806200017e565b908b9350601f1983169186600052876000209260005b89828210620003d05750508411620003b7575b505050811b01825562000190565b0151600019838b1b60f8161c19169055388080620003a9565b8385015186558f9790950194938401930162000396565b90915084600052856000208880850160051c82019288861062000433575b918d91869594930160051c01915b8281106200042357505062000167565b600081558594508d910162000413565b9250819262000405565b602285634e487b7160e01b6000525260246000fd5b90607f169062000152565b634e487b7160e01b600052604160045260246000fd5b01519050388062000123565b908b9350601f198316918a600052876000209260005b89828210620004cf5750508411620004b6575b505050811b01865562000135565b0151600019838b1b60f8161c19169055388080620004a8565b8385015186558f9790950194938401930162000495565b90915088600052856000208880850160051c82019288861062000532575b918d91869594930160051c01915b828110620005225750506200010c565b600081558594508d910162000512565b9250819262000504565b634e487b7160e01b600052602260045260246000fd5b96607f1696620000f5565b600080fd5b6040519190601f01601f191682016001600160401b038111838210176200045d57604052565b81601f820112156200055d578051906001600160401b0382116200045d57602090620005bd601f8401601f1916830162000562565b938385528284830101116200055d5782906000905b83838310620005f257505011620005e857505090565b6000918301015290565b81935082819392010151828288010152018391620005d2565b51906001600160a01b03821682036200055d5756fe608080604052600436101561001357600080fd5b60003560e01c90816306fdde03146111ca57508063095ea7b3146111a45780630f89b77d1461117b578063172195221461114057806318160ddd1461112257806323b872dd146110645780632dd57bb01461102a578063313ce5671461100e5780633950935114610fbd5780633e0dc34e14610f825780633f81ff2614610f485780636273106a14610f1f57806370a0823114610ee55780638253b82614610e9d57806382b2ed1314610e7a578063836a10401461069757806395d89b41146105f45780639eea5f6614610401578063a457c2d71461035a578063a9059cbb14610329578063b39d2bab1461030d578063d89232da146102e1578063dd62ed3e14610290578063e184c9be14610255578063e8adbf2f1461022c5763f3466dfa1461013d57600080fd5b3461022757600036600319011261022757604051600090600954600181811c9080831692831561021d575b6020938484108114610207578386529081156101e757506001146101a7575b6101a38461019781880382611317565b6040519182918261126a565b0390f35b919350600960005283600020916000925b8284106101d457505050816101a3936101979282010193610187565b80548585018701529285019281016101b8565b60ff1916858501525050151560051b8201019150610197816101a3610187565b634e487b7160e01b600052602260045260246000fd5b91607f1691610168565b600080fd5b34610227576000366003190112610227576006546040516001600160a01b039091168152602090f35b346102275760003660031901126102275760206040517f00000000000000000000000000000000000000000000000000000000000000008152f35b34610227576040366003190112610227576102a96112c1565b6102b16112d7565b9060018060a01b038091166000526001602052604060002091166000526020526020604060002054604051908152f35b34610227576020366003190112610227576102fa6112c1565b5060206103056117a3565b604051908152f35b3461022757600036600319011261022757602060405160008152f35b346102275760403660031901126102275761034f6103456112c1565b602435903361135b565b602060405160018152f35b34610227576040366003190112610227576103736112c1565b60243590336000526001602052604060002060018060a01b038216600052602052604060002054918083106103ae5761034f9203903361155a565b60405162461bcd60e51b815260206004820152602560248201527f45524332303a2064656372656173656420616c6c6f77616e63652062656c6f77604482015264207a65726f60d81b6064820152608490fd5b346102275761040f366112ed565b60065490926001600160a01b03918216801515939161047591856105cf575b5061043e60026005541415611698565b600260055561044e8615156116e4565b7f00000000000000000000000000000000000000000000000000000000000000001461171e565b169081158015906105805780610578575b610532575b50806000526000602052604060002054918083106104e257602081600080516020611a49833981519152926000958587528684520360408620556104d18160025461175a565b600255604051908152a36001600555005b60405162461bcd60e51b815260206004820152602260248201527f45524332303a206275726e20616d6f756e7420657863656564732062616c616e604482015261636560f01b6064820152608490fd5b61053c578261048b565b60405162461bcd60e51b815260206004820152601460248201527327b7363c903a37903837b634b1bca1b2b73a32b960611b6044820152606490fd5b506000610486565b60405162461bcd60e51b815260206004820152602160248201527f45524332303a206275726e2066726f6d20746865207a65726f206164647265736044820152607360f81b6064820152608490fd5b331480156105e7575b6105e19061165c565b8661042e565b50600854841633146105d8565b3461022757600036600319011261022757604051600090600454600181811c9080831692831561068d575b6020938484108114610207578386529081156101e7575060011461064d576101a38461019781880382611317565b919350600460005283600020916000925b82841061067a57505050816101a3936101979282010193610187565b805485850187015292850192810161065e565b91607f169161061f565b34610227576106df6106a8366112ed565b60065490939192906001600160a01b031680610e4e575b506106cf60026005541415611698565b600260055561044e8415156116e4565b620151804204600081126001600160ff1b0382900362010bd9821582821316610e3857600160ff1b8490039283821216610e38576000908401129162010bd819908162253d8c93018313841516610e3857011316610e38576226496501600081136001600160ff1b0382900460041116600116610e385760008112600760fd1b821216600116610e385762023ab16001600283901b8290056001600160ff1b03819004831160009091131616610e385760017fffffc694f94337079d130ab45dff8e0f9ea161331bb1c93dea871de6fec83ce2828460021b05126000838560021b05121616610e3857600282901b81900581026000811280156001600160ff1b0383900360031316610e3857600160ff1b82900360031216610e38576004600361080b92010583611990565b906000821280156001600160ff1b0384900360011316610e3857600160ff1b83900360011216610e3857600182810192610fa091600085136001600160ff1b0386900484111616610e385760017ffff7ced916872b020c49ba5e353f7ced916872b020c49ba5e353f7ced916872c8512600086121616610e38576108a290600461089b62164b09878602056119e4565b0590611990565b6000811280156001600160ff1b03839003601f1316610e3857600160ff1b829003601f1216610e3857601f0192600084136001600160ff1b0385900460501116600116610e385760017ffe666666666666666666666666666666666666666666666666666666666666678512600086121616610e385761098f605085028190059390600085136001600160ff1b03869004821116600116610e3857600085129560017ffff29be1739a4fb805dbcd5d6c7d1f7d6fd627208942391f124ee1c3f30702688712881616610e385760508661097d93020590611990565b9480156001600160ff1b0386900360021316610e3857600160ff1b85900360021216610e38576001600b85056001600160ff1b03819004600c1160009091131616610e385760017ff555555555555555555555555555555555555555555555555555555555555556600b8605126000600b8705121616610e3857610a0a600b8505600c0260028601611990565b956031600160ff1b01600282901b83900512600116610e38576001603019600283901b849005016001600160ff1b0381900460641160009091131616610e38576000600282901b839005603019019081127ffeb851eb851eb851eb851eb851eb851eb851eb851eb851eb851eb851eb851eb990911216600116610e385762164b09610aab93600b610ab09705950205916030199160021b05016064026119b9565b6119b9565b906107b2821061022757617d4b600160ff1b018112600116610e385760008212156001600160ff1b038390036112c01316610e385760008212600160ff1b8390036112c01216610e3857610b2d906004610b21610b1c600c610b1188611978565b056112c087016119b9565b6119e4565b0590617d4a19016119b9565b6002600160ff1b018312600116610e3857600c610b4984611978565b0560017f0aaaaaaaaaaaaaaaaaaaaaaaaaaaaaaaaaaaaaaaaaaaaaaaaaaaaaaaaaaaaaaa8211600083131616610e385760017ff5555555555555555555555555555555555555555555555555555555555555568212600083121616610e3857610bb990600c026001198501611990565b90600082136001600160ff1b0383900461016f1116600116610e385760017fffa6b6c1eb12d573186a06f9b8d9a287530217b7747d8eff4d6d83d625aae6318312600084121616610e3857600c610c159261016f0205906119b9565b916113249160008112156001600160ff1b03829003841316610e385760008112600160ff1b829003841216610e3857606492600c610c55610c5d94611978565b0591016119b9565b0590600082136001600160ff1b0383900460031116600116610e385760017fd5555555555555555555555555555555555555555555555555555555555555568312600084121616610e38576004610cb8926003020590611990565b62253d8c600160ff1b018112600116610e385762253d8b1901801515600019829004620151801116610e385762015180029062014370198211610e3857610dd41962014370830111610e3857603b1962015144830111610e385760018060a01b03169182600052602091600a83526201517f6040600020910160005282526040600020610d4682825461134f565b90558215610df3577f00000000000000000000000000000000000000000000000000000000000000004211610dbc5760009181610d94600080516020611a498339815191529360025461134f565b60025584845283825260408420610dac82825461134f565b9055604051908152a36001600555005b60405162461bcd60e51b815260048101839052600f60248201526e22bc3834b932b21031b92a37b5b2b760891b6044820152606490fd5b60405162461bcd60e51b815260048101839052601f60248201527f45524332303a206d696e7420746f20746865207a65726f2061646472657373006044820152606490fd5b634e487b7160e01b600052601160045260246000fd5b33148015610e66575b610e609061165c565b846106bf565b506008546001600160a01b03163314610e57565b34610227576020366003190112610227576020610305610e986112c1565b611765565b34610227576040366003190112610227576001600160a01b03610ebe6112c1565b16600052600a60205260406000206024356000526020526020604060002054604051908152f35b34610227576020366003190112610227576001600160a01b03610f066112c1565b1660005260006020526020604060002054604051908152f35b34610227576000366003190112610227576008546040516001600160a01b039091168152602090f35b34610227576020366003190112610227576001600160a01b03610f696112c1565b60088054919092166001600160a01b0319909116179055005b346102275760003660031901126102275760206040517f00000000000000000000000000000000000000000000000000000000000000008152f35b346102275760403660031901126102275761034f610fd96112c1565b336000526001602052604060002060018060a01b03821660005260205261100760243560406000205461134f565b903361155a565b3461022757600036600319011261022757602060405160068152f35b34610227576020366003190112610227576001600160a01b0361104b6112c1565b60068054919092166001600160a01b0319909116179055005b346102275760603660031901126102275761107d6112c1565b6110856112d7565b6044359060018060a01b03831660005260016020526040600020336000526020526040600020549260001984036110c1575b61034f935061135b565b8284106110dd576110d88361034f9503338361155a565b6110b7565b60405162461bcd60e51b815260206004820152601d60248201527f45524332303a20696e73756666696369656e7420616c6c6f77616e63650000006044820152606490fd5b34610227576000366003190112610227576020600254604051908152f35b346102275760003660031901126102275760206040517f00000000000000000000000000000000000000000000000000000000000000008152f35b34610227576000366003190112610227576007546040516001600160a01b039091168152602090f35b346102275760403660031901126102275761034f6111c06112c1565b602435903361155a565b3461022757600036600319011261022757600090600354600181811c90808316928315611260575b6020938484108114610207578386529081156101e75750600114611220576101a38461019781880382611317565b919350600360005283600020916000925b82841061124d57505050816101a3936101979282010193610187565b8054858501870152928501928101611231565b91607f16916111f2565b919091602080825283519081818401526000945b8286106112ab57505080604093941161129e575b601f01601f1916010190565b6000838284010152611292565b858101820151848701604001529481019461127e565b600435906001600160a01b038216820361022757565b602435906001600160a01b038216820361022757565b606090600319011261022757600435906024356001600160a01b0381168103610227579060443590565b90601f8019910116810190811067ffffffffffffffff82111761133957604052565b634e487b7160e01b600052604160045260246000fd5b81198111610e38570190565b6001600160a01b0390811680158015949193919291906115075781169384158015906114b657807f00000000000000000000000000000000000000000000000000000000000000004211611475575b508161146d575b5061145d575b506000828152806020526040812054918083106114095760408282600080516020611a498339815191529587602096528286520382822055868152206113fe82825461134f565b9055604051908152a3565b60405162461bcd60e51b815260206004820152602660248201527f45524332303a207472616e7366657220616d6f756e7420657863656564732062604482015265616c616e636560d01b6064820152608490fd5b60065416830361053c57386113b7565b9050386113b1565b61147f57806113aa565b60405162461bcd60e51b815260206004820152600f60248201526e22bc3834b932b21031b92a37b5b2b760891b6044820152606490fd5b60405162461bcd60e51b815260206004820152602360248201527f45524332303a207472616e7366657220746f20746865207a65726f206164647260448201526265737360e81b6064820152608490fd5b60405162461bcd60e51b815260206004820152602560248201527f45524332303a207472616e736665722066726f6d20746865207a65726f206164604482015264647265737360d81b6064820152608490fd5b6001600160a01b0390811691821561160b57169182156115bb5760207f8c5be1e5ebec7d5bd14f71427d1e84f3dd0314c0f7b2291e5b200ac8c7c3b925918360005260018252604060002085600052825280604060002055604051908152a3565b60405162461bcd60e51b815260206004820152602260248201527f45524332303a20617070726f766520746f20746865207a65726f206164647265604482015261737360f01b6064820152608490fd5b60405162461bcd60e51b8152602060048201526024808201527f45524332303a20617070726f76652066726f6d20746865207a65726f206164646044820152637265737360e01b6064820152608490fd5b1561166357565b60405162461bcd60e51b815260206004820152600d60248201526c139bdd081c195c9b5a5d1d1959609a1b6044820152606490fd5b1561169f57565b60405162461bcd60e51b815260206004820152601f60248201527f5265656e7472616e637947756172643a207265656e7472616e742063616c6c006044820152606490fd5b156116eb57565b60405162461bcd60e51b815260206004820152600b60248201526a16995c9bc8105b5bdd5b9d60aa1b6044820152606490fd5b1561172557565b60405162461bcd60e51b815260206004820152600d60248201526c15dc9bdb99c81c1bdbdb081a59609a1b6044820152606490fd5b818110610e38570390565b61176d6117a3565b6001600160a01b039091166000908152602081905260409020549081811115611797575050600090565b6117a09161175a565b90565b60075460408051637aaf11c760e01b81527f0000000000000000000000000000000000000000000000000000000000000000600482018190526000949385936001600160a01b03939092918416916020918281602481875afa90811561196e57879161193d575b50611818575b505050505050565b7f000000000000000000000000000000000000000000000000000000000000000060028110611929578451632509d07760e11b815260048101929092526001190160248201528181604481865afa91821561191f5786926118ed575b5050825191829163c942adf760e01b835260048301528160246101609384935afa80156118e3576118a6575b80611810565b81813d83116118dc575b6118ba8183611317565b810103126118d8570151908116036118d557808080806118a0565b80fd5b8380fd5b503d6118b0565b83513d87823e3d90fd5b90809250813d8311611918575b6119048183611317565b8101031261191457513880611874565b8480fd5b503d6118fa565b84513d88823e3d90fd5b634e487b7160e01b87526011600452602487fd5b90508281813d8311611967575b6119548183611317565b8101031261196357513861180a565b8680fd5b503d61194a565b85513d89823e3d90fd5b600e600160ff1b018112600116610e3857600d190190565b600082128015600160ff1b8401831216610e38576001600160ff1b038301821316610e38570390565b6000811280156001600160ff1b03839003841316610e3857600160ff1b829003831216610e38570190565b6105b560008083136001600160ff1b03849004831116600116611a345760017fffe9924f8d0dd7b2e6f174df9576f9de01c091c8faeb2605f522de8852b47aa884128285121616611a3457500290565b634e487b7160e01b81526011600452602490fdfeddf252ad1be2c89b69c2b068fc378daa952ba7f163c4a11628f55a4df523b3efa2646970667358221220e268e0a6d10d260056dad72fe5f8b9783f33c47272fa97baa7c4477eaa7bd56a64736f6c634300080f0033a2646970667358221220ef6f54eba5ccbccf697d0df2a676b3db835065abd524887acfb7870d4e9189cc64736f6c634300080f0033",
  "devdoc": {
    "kind": "dev",
    "methods": {
      "deployCRToken(string,uint256,string,uint256,uint256)": {
        "params": {
          "_expiry": "Expiry date of cover right token",
          "_generation": "Generation of priority pool & crToken (1 if no liquidations occurred)",
          "_poolId": "Pool Id",
          "_poolName": "Name of Priority Pool",
          "_tokenName": "Name of insured token (e.g. DEG)"
        },
        "returns": {
          "newCRToken": "New deployed crToken address"
        }
      },
      "getCRTokenAddress(uint256,uint256,uint256)": {
        "params": {
          "_expiry": "Expiry timestamp",
          "_generation": "Generation of the crToken",
          "_poolId": "Pool id"
        },
        "returns": {
          "crToken": "CRToken address"
        }
      },
      "owner()": {
        "details": "Returns the address of the current owner."
      },
      "renounceOwnership()": {
        "details": "Leaves the contract without owner. It will not be possible to call `onlyOwner` functions anymore. Can only be called by the current owner. NOTE: Renouncing ownership will leave the contract without an owner, thereby removing any functionality that is only available to the owner."
      },
      "transferOwnership(address)": {
        "details": "Transfers ownership of the contract to a new account (`newOwner`). Can only be called by the current owner."
      }
    },
    "version": 1
  },
  "userdoc": {
    "kind": "user",
    "methods": {
      "deployCRToken(string,uint256,string,uint256,uint256)": {
        "notice": "Deploy Cover Right Token for a given pool"
      },
      "getCRTokenAddress(uint256,uint256,uint256)": {
        "notice": "Get crToken address"
      }
    },
    "notice": "Factory for deploying crTokens         Salt as index for cover right tokens:             salt = keccak256(poolId, expiry, genration)         Factory will record whether a crToken has been deployed         Also record the generation of a specific crToken         And find the address of the crToken with its salt",
    "version": 1
  },
  "storageLayout": {
    "storage": [
      {
        "astId": 52,
        "contract": "src/crTokens/CoverRightTokenFactory.sol:CoverRightTokenFactory",
        "label": "_initialized",
        "offset": 0,
        "slot": "0",
        "type": "t_uint8"
      },
      {
        "astId": 55,
        "contract": "src/crTokens/CoverRightTokenFactory.sol:CoverRightTokenFactory",
        "label": "_initializing",
        "offset": 1,
        "slot": "0",
        "type": "t_bool"
      },
      {
        "astId": 23413,
        "contract": "src/crTokens/CoverRightTokenFactory.sol:CoverRightTokenFactory",
        "label": "_owner",
        "offset": 2,
        "slot": "0",
        "type": "t_address"
      },
      {
        "astId": 23520,
        "contract": "src/crTokens/CoverRightTokenFactory.sol:CoverRightTokenFactory",
        "label": "__gap",
        "offset": 0,
        "slot": "1",
        "type": "t_array(t_uint256)49_storage"
      },
      {
        "astId": 13725,
        "contract": "src/crTokens/CoverRightTokenFactory.sol:CoverRightTokenFactory",
        "label": "policyCenter",
        "offset": 0,
        "slot": "50",
        "type": "t_address"
      },
      {
        "astId": 13727,
        "contract": "src/crTokens/CoverRightTokenFactory.sol:CoverRightTokenFactory",
        "label": "incidentReport",
        "offset": 0,
        "slot": "51",
        "type": "t_address"
      },
      {
        "astId": 13729,
        "contract": "src/crTokens/CoverRightTokenFactory.sol:CoverRightTokenFactory",
        "label": "payoutPool",
        "offset": 0,
        "slot": "52",
        "type": "t_address"
      },
      {
        "astId": 13733,
        "contract": "src/crTokens/CoverRightTokenFactory.sol:CoverRightTokenFactory",
        "label": "deployed",
        "offset": 0,
        "slot": "53",
        "type": "t_mapping(t_bytes32,t_bool)"
      },
      {
        "astId": 13737,
        "contract": "src/crTokens/CoverRightTokenFactory.sol:CoverRightTokenFactory",
        "label": "saltToAddress",
        "offset": 0,
        "slot": "54",
        "type": "t_mapping(t_bytes32,t_address)"
      },
      {
        "astId": 13741,
        "contract": "src/crTokens/CoverRightTokenFactory.sol:CoverRightTokenFactory",
        "label": "generation",
        "offset": 0,
        "slot": "55",
        "type": "t_mapping(t_bytes32,t_uint256)"
      }
    ],
    "types": {
      "t_address": {
        "encoding": "inplace",
        "label": "address",
        "numberOfBytes": "20"
      },
      "t_array(t_uint256)49_storage": {
        "base": "t_uint256",
        "encoding": "inplace",
        "label": "uint256[49]",
        "numberOfBytes": "1568"
      },
      "t_bool": {
        "encoding": "inplace",
        "label": "bool",
        "numberOfBytes": "1"
      },
      "t_bytes32": {
        "encoding": "inplace",
        "label": "bytes32",
        "numberOfBytes": "32"
      },
      "t_mapping(t_bytes32,t_address)": {
        "encoding": "mapping",
        "key": "t_bytes32",
        "label": "mapping(bytes32 => address)",
        "numberOfBytes": "32",
        "value": "t_address"
      },
      "t_mapping(t_bytes32,t_bool)": {
        "encoding": "mapping",
        "key": "t_bytes32",
        "label": "mapping(bytes32 => bool)",
        "numberOfBytes": "32",
        "value": "t_bool"
      },
      "t_mapping(t_bytes32,t_uint256)": {
        "encoding": "mapping",
        "key": "t_bytes32",
        "label": "mapping(bytes32 => uint256)",
        "numberOfBytes": "32",
        "value": "t_uint256"
      },
      "t_uint256": {
        "encoding": "inplace",
        "label": "uint256",
        "numberOfBytes": "32"
      },
      "t_uint8": {
        "encoding": "inplace",
        "label": "uint8",
        "numberOfBytes": "1"
      }
    }
  }
}