{
  "address": "0x660A339Eb163dBB1BA6521A2699ec9626B72F4F0",
  "abi": [
    {
      "inputs": [],
      "stateMutability": "nonpayable",
      "type": "constructor"
    },
    {
      "inputs": [
        {
          "internalType": "uint256",
          "name": "amountIn",
          "type": "uint256"
        },
        {
          "internalType": "uint256",
          "name": "reserveIn",
          "type": "uint256"
        },
        {
          "internalType": "uint256",
          "name": "reserveOut",
          "type": "uint256"
        }
      ],
      "name": "getAmountOut",
      "outputs": [
        {
          "internalType": "uint256",
          "name": "",
          "type": "uint256"
        }
      ],
      "stateMutability": "pure",
      "type": "function"
    },
    {
      "inputs": [],
      "name": "name",
      "outputs": [
        {
          "internalType": "string",
          "name": "",
          "type": "string"
        }
      ],
      "stateMutability": "view",
      "type": "function"
    },
    {
      "inputs": [
        {
          "internalType": "uint256",
          "name": "amountIn",
          "type": "uint256"
        },
        {
          "internalType": "uint256",
          "name": "amountOutMin",
          "type": "uint256"
        },
        {
          "internalType": "address[]",
          "name": "path",
          "type": "address[]"
        },
        {
          "internalType": "address",
          "name": "to",
          "type": "address"
        },
        {
          "internalType": "uint256",
          "name": "deadline",
          "type": "uint256"
        }
      ],
      "name": "swapExactTokensForTokens",
      "outputs": [
        {
          "internalType": "uint256",
          "name": "amountOut",
          "type": "uint256"
        }
      ],
      "stateMutability": "nonpayable",
      "type": "function"
    },
    {
      "inputs": [
        {
          "internalType": "uint256",
          "name": "amountOut",
          "type": "uint256"
        },
        {
          "internalType": "uint256",
          "name": "amountInMax",
          "type": "uint256"
        },
        {
          "internalType": "address[]",
          "name": "path",
          "type": "address[]"
        },
        {
          "internalType": "address",
          "name": "to",
          "type": "address"
        },
        {
          "internalType": "uint256",
          "name": "deadline",
          "type": "uint256"
        }
      ],
      "name": "swapTokensForExactTokens",
      "outputs": [
        {
          "internalType": "uint256",
          "name": "amount",
          "type": "uint256"
        }
      ],
      "stateMutability": "nonpayable",
      "type": "function"
    }
  ],
  "transactionHash": "0x39226d457a0379020b4ac9217d90153cf3fc2f39a2865f82ab1844000d6f1dcb",
  "args": [],
  "numDeployments": 1,
  "solcInputHash": "d90ecb1c88e931ac1edfc4a8a4e5491d",
  "bytecode": "0x608060405234801561001057600080fd5b506040805180820190915260088082526765786368616e676560c01b602090920191825261004091600091610046565b50610119565b828054610052906100df565b90600052602060002090601f01602090048101928261007457600085556100ba565b82601f1061008d57805160ff19168380011785556100ba565b828001600101855582156100ba579182015b828111156100ba57825182559160200191906001019061009f565b506100c69291506100ca565b5090565b5b808211156100c657600081556001016100cb565b600181811c908216806100f357607f821691505b60208210810361011357634e487b7160e01b600052602260045260246000fd5b50919050565b61061f806101286000396000f3fe608060405234801561001057600080fd5b506004361061004c5760003560e01c8063054d50d41461005157806306fdde031461007757806338ed17391461008c5780638803dbee1461009f575b600080fd5b61006461005f3660046103c7565b6100b2565b6040519081526020015b60405180910390f35b61007f6100d3565b60405161006e91906103f3565b61006461009a366004610464565b610161565b6100646100ad366004610464565b6102b9565b600060646100c1856063610506565b6100cb9190610533565b949350505050565b600080546100e090610555565b80601f016020809104026020016040519081016040528092919081815260200182805461010c90610555565b80156101595780601f1061012e57610100808354040283529160200191610159565b820191906000526020600020905b81548152906001019060200180831161013c57829003601f168201915b505050505081565b6000848460008181106101765761017661058f565b905060200201602081019061018b91906105a5565b6040516323b872dd60e01b8152336004820152306024820152604481018990526001600160a01b0391909116906323b872dd906064016020604051808303816000875af11580156101e0573d6000803e3d6000fd5b505050506040513d601f19601f8201168201806040525081019061020491906105c7565b506102108787886100b2565b9050848460018181106102255761022561058f565b905060200201602081019061023a91906105a5565b60405163a9059cbb60e01b8152336004820152602481018390526001600160a01b03919091169063a9059cbb906044015b6020604051808303816000875af115801561028a573d6000803e3d6000fd5b505050506040513d601f19601f820116820180604052508101906102ae91906105c7565b509695505050505050565b6000848460008181106102ce576102ce61058f565b90506020020160208101906102e391906105a5565b6040516323b872dd60e01b8152336004820152306024820152604481018890526001600160a01b0391909116906323b872dd906064016020604051808303816000875af1158015610338573d6000803e3d6000fd5b505050506040513d601f19601f8201168201806040525081019061035c91906105c7565b506103688688896100b2565b90508484600181811061037d5761037d61058f565b905060200201602081019061039291906105a5565b60405163a9059cbb60e01b8152336004820152602481018990526001600160a01b03919091169063a9059cbb9060440161026b565b6000806000606084860312156103dc57600080fd5b505081359360208301359350604090920135919050565b600060208083528351808285015260005b8181101561042057858101830151858201604001528201610404565b81811115610432576000604083870101525b50601f01601f1916929092016040019392505050565b80356001600160a01b038116811461045f57600080fd5b919050565b60008060008060008060a0878903121561047d57600080fd5b8635955060208701359450604087013567ffffffffffffffff808211156104a357600080fd5b818901915089601f8301126104b757600080fd5b8135818111156104c657600080fd5b8a60208260051b85010111156104db57600080fd5b6020830196508095505050506104f360608801610448565b9150608087013590509295509295509295565b600081600019048311821515161561052e57634e487b7160e01b600052601160045260246000fd5b500290565b60008261055057634e487b7160e01b600052601260045260246000fd5b500490565b600181811c9082168061056957607f821691505b60208210810361058957634e487b7160e01b600052602260045260246000fd5b50919050565b634e487b7160e01b600052603260045260246000fd5b6000602082840312156105b757600080fd5b6105c082610448565b9392505050565b6000602082840312156105d957600080fd5b815180151581146105c057600080fdfea26469706673582212200037307666bb5cebcc4af0771f6ee69f534f4134002fae59139cb8a1c076a09e64736f6c634300080d0033",
  "devdoc": {
    "kind": "dev",
    "methods": {},
    "version": 1
  },
  "userdoc": {
    "kind": "user",
    "methods": {},
    "version": 1
  },
  "storageLayout": {
    "storage": [
      {
        "astId": 14039,
        "contract": "src/mock/MockExchange.sol:Exchange",
        "label": "name",
        "offset": 0,
        "slot": "0",
        "type": "t_string_storage"
      }
    ],
    "types": {
      "t_string_storage": {
        "encoding": "bytes",
        "label": "string",
        "numberOfBytes": "32"
      }
    }
  }
}