{
  "address": "0x8E1A63d1e0163Aa0C469Ae6DFA0D425eC2cf4529",
  "abi": [
    {
      "inputs": [],
      "stateMutability": "nonpayable",
      "type": "constructor"
    },
    {
      "anonymous": false,
      "inputs": [
        {
          "indexed": false,
          "internalType": "address",
          "name": "poolAddress",
          "type": "address"
        },
        {
          "indexed": false,
          "internalType": "uint256",
          "name": "proposalId",
          "type": "uint256"
        },
        {
          "indexed": false,
          "internalType": "address",
          "name": "protocol",
          "type": "address"
        }
      ],
      "name": "NewPoolEecuted",
      "type": "event"
    },
    {
      "anonymous": false,
      "inputs": [
        {
          "indexed": true,
          "internalType": "address",
          "name": "previousOwner",
          "type": "address"
        },
        {
          "indexed": true,
          "internalType": "address",
          "name": "newOwner",
          "type": "address"
        }
      ],
      "name": "OwnershipTransferred",
      "type": "event"
    },
    {
      "anonymous": false,
      "inputs": [
        {
          "indexed": false,
          "internalType": "address",
          "name": "pool",
          "type": "address"
        },
        {
          "indexed": false,
          "internalType": "uint256",
          "name": "poolId",
          "type": "uint256"
        },
        {
          "indexed": false,
          "internalType": "uint256",
          "name": "reportId",
          "type": "uint256"
        }
      ],
      "name": "ReportExecuted",
      "type": "event"
    },
    {
      "inputs": [
        {
          "internalType": "uint256",
          "name": "_proposalId",
          "type": "uint256"
        }
      ],
      "name": "executeProposal",
      "outputs": [
        {
          "internalType": "address",
          "name": "",
          "type": "address"
        }
      ],
      "stateMutability": "nonpayable",
      "type": "function"
    },
    {
      "inputs": [
        {
          "internalType": "uint256",
          "name": "_reportId",
          "type": "uint256"
        }
      ],
      "name": "executeReport",
      "outputs": [],
      "stateMutability": "nonpayable",
      "type": "function"
    },
    {
      "inputs": [],
      "name": "incidentReport",
      "outputs": [
        {
          "internalType": "address",
          "name": "",
          "type": "address"
        }
      ],
      "stateMutability": "view",
      "type": "function"
    },
    {
      "inputs": [],
      "name": "insurancePoolFactory",
      "outputs": [
        {
          "internalType": "address",
          "name": "",
          "type": "address"
        }
      ],
      "stateMutability": "view",
      "type": "function"
    },
    {
      "inputs": [],
      "name": "onboardProposal",
      "outputs": [
        {
          "internalType": "address",
          "name": "",
          "type": "address"
        }
      ],
      "stateMutability": "view",
      "type": "function"
    },
    {
      "inputs": [],
      "name": "owner",
      "outputs": [
        {
          "internalType": "address",
          "name": "",
          "type": "address"
        }
      ],
      "stateMutability": "view",
      "type": "function"
    },
    {
      "inputs": [],
      "name": "policyCenter",
      "outputs": [
        {
          "internalType": "address",
          "name": "",
          "type": "address"
        }
      ],
      "stateMutability": "view",
      "type": "function"
    },
    {
      "inputs": [],
      "name": "poolBuffer",
      "outputs": [
        {
          "internalType": "uint256",
          "name": "",
          "type": "uint256"
        }
      ],
      "stateMutability": "view",
      "type": "function"
    },
    {
      "inputs": [],
      "name": "reinsurancePool",
      "outputs": [
        {
          "internalType": "address",
          "name": "",
          "type": "address"
        }
      ],
      "stateMutability": "view",
      "type": "function"
    },
    {
      "inputs": [],
      "name": "renounceOwnership",
      "outputs": [],
      "stateMutability": "nonpayable",
      "type": "function"
    },
    {
      "inputs": [],
      "name": "reportBuffer",
      "outputs": [
        {
          "internalType": "uint256",
          "name": "",
          "type": "uint256"
        }
      ],
      "stateMutability": "view",
      "type": "function"
    },
    {
      "inputs": [
        {
          "internalType": "uint256",
          "name": "_poolBuffer",
          "type": "uint256"
        },
        {
          "internalType": "uint256",
          "name": "_reportBuffer",
          "type": "uint256"
        }
      ],
      "name": "setBuffers",
      "outputs": [],
      "stateMutability": "nonpayable",
      "type": "function"
    },
    {
      "inputs": [
        {
          "internalType": "address",
          "name": "_incidentReport",
          "type": "address"
        }
      ],
      "name": "setIncidentReport",
      "outputs": [],
      "stateMutability": "nonpayable",
      "type": "function"
    },
    {
      "inputs": [
        {
          "internalType": "address",
          "name": "_insurancePoolFactory",
          "type": "address"
        }
      ],
      "name": "setInsurancePoolFactory",
      "outputs": [],
      "stateMutability": "nonpayable",
      "type": "function"
    },
    {
      "inputs": [
        {
          "internalType": "address",
          "name": "_onboardProposal",
          "type": "address"
        }
      ],
      "name": "setOnboardProposal",
      "outputs": [],
      "stateMutability": "nonpayable",
      "type": "function"
    },
    {
      "inputs": [
        {
          "internalType": "address",
          "name": "_policyCenter",
          "type": "address"
        }
      ],
      "name": "setPolicyCenter",
      "outputs": [],
      "stateMutability": "nonpayable",
      "type": "function"
    },
    {
      "inputs": [
        {
          "internalType": "address",
          "name": "_reinsurancePool",
          "type": "address"
        }
      ],
      "name": "setReinsurancePool",
      "outputs": [],
      "stateMutability": "nonpayable",
      "type": "function"
    },
    {
      "inputs": [
        {
          "internalType": "address",
          "name": "newOwner",
          "type": "address"
        }
      ],
      "name": "transferOwnership",
      "outputs": [],
      "stateMutability": "nonpayable",
      "type": "function"
    }
  ],
  "transactionHash": "0x1c2b3eb19fd8f47e5c6ebf5265f52a976711a58f42bffcbd2998f253d99f3b38",
  "args": [],
  "numDeployments": 1,
  "solcInputHash": "3b142f385c2d196ab672870bff51b77b",
  "bytecode": "0x608060405234801561001057600080fd5b503361001b81610021565b50610073565b600580546001600160a01b038381166001600160a01b0319831681179093556040519116919082907f8be0079c531659141344cd1fd0a4f28419497f9722a3daafe3b4186f6b6457e090600090a35050565b610d69806100826000396000f3fe608060405234801561001057600080fd5b50600436106101165760003560e01c80634d658ef0116100a25780638da5cb5b116100715780638da5cb5b14610230578063a0ba213014610241578063e3356ccf1461024a578063e8adbf2f1461025d578063f2fde38b1461027057600080fd5b80634d658ef0146101e95780635e0403e1146101fc578063715018a61461020f578063763a32811461021757600080fd5b806313070d00116100e957806313070d0014610186578063250c4dc61461019d5780632dd57bb0146101b05780632fbac6d7146101c357806345ac7890146101d657600080fd5b8063084b97631461011b5780630a2c433d1461014b5780630d61b519146101605780630f89b77d14610173575b600080fd5b60045461012e906001600160a01b031681565b6040516001600160a01b0390911681526020015b60405180910390f35b61015e6101593660046109fb565b610283565b005b61012e61016e366004610a1f565b6102ac565b60035461012e906001600160a01b031681565b61018f60065481565b604051908152602001610142565b60025461012e906001600160a01b031681565b61015e6101be3660046109fb565b61049a565b60015461012e906001600160a01b031681565b61015e6101e43660046109fb565b6104c0565b61015e6101f73660046109fb565b6104e6565b61015e61020a366004610a1f565b61050c565b61015e61087b565b61015e610225366004610a38565b600791909155600655565b6005546001600160a01b031661012e565b61018f60075481565b61015e6102583660046109fb565b61088f565b60005461012e906001600160a01b031681565b61015e61027e3660046109fb565b6108b5565b61028b61092b565b600180546001600160a01b0319166001600160a01b03831617905550565b50565b600480546040516318feeb1560e31b815291820183905260009182916001600160a01b03169063c7f758a890602401600060405180830381865afa1580156102f8573d6000803e3d6000fd5b505050506040513d6000823e601f3d908101601f191682016040526103209190810190610b62565b905060038161012001511461036a5760405162461bcd60e51b815260206004820152600b60248201526a139bdd081cd95d1d1b195960aa1b60448201526064015b60405180910390fd5b8061014001516001146103b75760405162461bcd60e51b815260206004820152601560248201527412185cc81b9bdd081899595b88185c1c1c9bdd9959605a1b6044820152606401610361565b6002548151602083015160c084015160e085015160405163bb9febaf60e01b81526000956001600160a01b03169463bb9febaf946103fb9491939092600401610c47565b6020604051808303816000875af115801561041a573d6000803e3d6000fd5b505050506040513d601f19601f8201168201806040525081019061043e9190610c97565b602080840151604080516001600160a01b03808616825293810189905292909116908201529091507f5ba6f852ab306370a8a63b95dcf9bc10b95f07520935a8d307e72d75551f61279060600160405180910390a19392505050565b6104a261092b565b600080546001600160a01b0319166001600160a01b03831617905550565b6104c861092b565b600480546001600160a01b0319166001600160a01b03831617905550565b6104ee61092b565b600280546001600160a01b0319166001600160a01b03831617905550565b60035460405163c942adf760e01b8152600481018390526000918291829182916001600160a01b039091169063c942adf79060240161014060405180830381865afa15801561055f573d6000803e3d6000fd5b505050506040513d601f19601f820116820180604052508101906105839190610cb4565b5098509850505050509450509350600382146105ec5760405162461bcd60e51b815260206004820152602260248201527f5265706f7274206973206e6f7420726561647920746f20626520657865637574604482015261195960f21b6064820152608401610361565b806001146106335760405162461bcd60e51b815260206004820152601460248201527314995c1bdc9d081a5cc81b9bdd081c185cdcd95960621b6044820152606401610361565b6000805460405163502dd62160e11b8152600481018790526001600160a01b039091169063a05bac4290602401602060405180830381865afa15801561067d573d6000803e3d6000fd5b505050506040513d601f19601f820116820180604052508101906106a19190610c97565b60008054604051637815de2960e11b81526004810189905292935090916001600160a01b039091169063f02bbc5290602401602060405180830381865afa1580156106f0573d6000803e3d6000fd5b505050506040513d601f19601f820116820180604052508101906107149190610c97565b6000546040516306a7a8d360e31b81526001600160a01b03888116600483015292935091169063353d469890602401600060405180830381600087803b15801561075d57600080fd5b505af1158015610771573d6000803e3d6000fd5b50505050816001600160a01b031663908078076040518163ffffffff1660e01b8152600401600060405180830381600087803b1580156107b057600080fd5b505af11580156107c4573d6000803e3d6000fd5b505060025460405163292a03b560e11b81526001600160a01b0385811660048301529091169250635254076a9150602401600060405180830381600087803b15801561080f57600080fd5b505af1158015610823573d6000803e3d6000fd5b5050604080516001600160a01b0386168152602081018a90529081018a90527f8fa9381fba721fd6948edce4a010404fc0032dc4dc0c1602636306c4965f5cf69250606001905060405180910390a150505050505050565b61088361092b565b61088d6000610994565b565b61089761092b565b600380546001600160a01b0319166001600160a01b03831617905550565b6108bd61092b565b6001600160a01b0381166109225760405162461bcd60e51b815260206004820152602660248201527f4f776e61626c653a206e6577206f776e657220697320746865207a65726f206160448201526564647265737360d01b6064820152608401610361565b6102a981610994565b3361093e6005546001600160a01b031690565b6001600160a01b03161461088d5760405162461bcd60e51b815260206004820181905260248201527f4f776e61626c653a2063616c6c6572206973206e6f7420746865206f776e65726044820152606401610361565b600580546001600160a01b038381166001600160a01b0319831681179093556040519116919082907f8be0079c531659141344cd1fd0a4f28419497f9722a3daafe3b4186f6b6457e090600090a35050565b6001600160a01b03811681146102a957600080fd5b600060208284031215610a0d57600080fd5b8135610a18816109e6565b9392505050565b600060208284031215610a3157600080fd5b5035919050565b60008060408385031215610a4b57600080fd5b50508035926020909101359150565b634e487b7160e01b600052604160045260246000fd5b604051610160810167ffffffffffffffff81118282101715610a9457610a94610a5a565b60405290565b60005b83811015610ab5578181015183820152602001610a9d565b83811115610ac4576000848401525b50505050565b600082601f830112610adb57600080fd5b815167ffffffffffffffff80821115610af657610af6610a5a565b604051601f8301601f19908116603f01168101908282118183101715610b1e57610b1e610a5a565b81604052838152866020858801011115610b3757600080fd5b610b48846020830160208901610a9a565b9695505050505050565b8051610b5d816109e6565b919050565b600060208284031215610b7457600080fd5b815167ffffffffffffffff80821115610b8c57600080fd5b908301906101608286031215610ba157600080fd5b610ba9610a70565b825182811115610bb857600080fd5b610bc487828601610aca565b825250610bd360208401610b52565b6020820152610be460408401610b52565b6040820152606083810151908201526080808401519082015260a0808401519082015260c0808401519082015260e08084015190820152610100808401519082015261012080840151908201526101409283015192810192909252509392505050565b6080815260008551806080840152610c668160a0850160208a01610a9a565b6001600160a01b03959095166020830152506040810192909252606082015260a0601f909201601f19160101919050565b600060208284031215610ca957600080fd5b8151610a18816109e6565b6000806000806000806000806000806101408b8d031215610cd457600080fd5b8a51995060208b0151985060408b0151610ced816109e6565b8098505060608b0151965060808b0151955060a08b0151945060c08b0151935060e08b015192506101008b015191506101208b015190509295989b9194979a509295985056fea26469706673582212206d936fa20b407cc30db3899db057a08189ddd9af6759c60d798655d24733d96464736f6c634300080d0033",
  "devdoc": {
    "author": "Eric Lee (ylikp.ust@gmail.com) & Primata (primata@375labs.org)",
    "kind": "dev",
    "methods": {
      "executeProposal(uint256)": {
        "params": {
          "_proposalId": "Proposal id"
        }
      },
      "executeReport(uint256)": {
        "params": {
          "_reportId": "_id of the report to be executed"
        }
      },
      "owner()": {
        "details": "Returns the address of the current owner."
      },
      "renounceOwnership()": {
        "details": "Leaves the contract without owner. It will not be possible to call `onlyOwner` functions anymore. Can only be called by the current owner. NOTE: Renouncing ownership will leave the contract without an owner, thereby removing any functionality that is only available to the owner."
      },
      "setBuffers(uint256,uint256)": {
        "params": {
          "_poolBuffer": "time in unix",
          "_reportBuffer": "time in unix"
        }
      },
      "transferOwnership(address)": {
        "details": "Transfers ownership of the contract to a new account (`newOwner`). Can only be called by the current owner."
      }
    },
    "title": "Executor",
    "version": 1
  },
  "userdoc": {
    "kind": "user",
    "methods": {
      "executeProposal(uint256)": {
        "notice": "Settle the proposal"
      },
      "executeReport(uint256)": {
        "notice": "executes a report already settled by vote"
      },
      "setBuffers(uint256,uint256)": {
        "notice": "sets pool and report time buffers"
      }
    },
    "notice": "This is the executor for degis Protocol Protection         The executor is responsible for the execution of the reports and pool proposals         Both administrators or users can execute proposals and reports out of self interest",
    "version": 1
  },
  "storageLayout": {
    "storage": [
      {
        "astId": 11691,
        "contract": "src/core/Executor.sol:Executor",
        "label": "policyCenter",
        "offset": 0,
        "slot": "0",
        "type": "t_address"
      },
      {
        "astId": 11693,
        "contract": "src/core/Executor.sol:Executor",
        "label": "reinsurancePool",
        "offset": 0,
        "slot": "1",
        "type": "t_address"
      },
      {
        "astId": 11695,
        "contract": "src/core/Executor.sol:Executor",
        "label": "insurancePoolFactory",
        "offset": 0,
        "slot": "2",
        "type": "t_address"
      },
      {
        "astId": 11697,
        "contract": "src/core/Executor.sol:Executor",
        "label": "incidentReport",
        "offset": 0,
        "slot": "3",
        "type": "t_address"
      },
      {
        "astId": 11699,
        "contract": "src/core/Executor.sol:Executor",
        "label": "onboardProposal",
        "offset": 0,
        "slot": "4",
        "type": "t_address"
      },
      {
        "astId": 16364,
        "contract": "src/core/Executor.sol:Executor",
        "label": "_owner",
        "offset": 0,
        "slot": "5",
        "type": "t_address"
      },
      {
        "astId": 9975,
        "contract": "src/core/Executor.sol:Executor",
        "label": "reportBuffer",
        "offset": 0,
        "slot": "6",
        "type": "t_uint256"
      },
      {
        "astId": 9977,
        "contract": "src/core/Executor.sol:Executor",
        "label": "poolBuffer",
        "offset": 0,
        "slot": "7",
        "type": "t_uint256"
      }
    ],
    "types": {
      "t_address": {
        "encoding": "inplace",
        "label": "address",
        "numberOfBytes": "20"
      },
      "t_uint256": {
        "encoding": "inplace",
        "label": "uint256",
        "numberOfBytes": "32"
      }
    }
  }
}