{
  "address": "0x19f690e4003fA9C8b2458f988E3439b8ba781c9d",
  "abi": [
    {
      "inputs": [],
      "name": "Executor__AlreadyExecuted",
      "type": "error"
    },
    {
      "inputs": [],
      "name": "Executor__ProposalNotPassed",
      "type": "error"
    },
    {
      "inputs": [],
      "name": "Executor__ProposalNotSettled",
      "type": "error"
    },
    {
      "inputs": [],
      "name": "Executor__ReportNotPassed",
      "type": "error"
    },
    {
      "inputs": [],
      "name": "Executor__ReportNotSettled",
      "type": "error"
    },
    {
      "anonymous": false,
      "inputs": [
        {
          "indexed": false,
          "internalType": "uint8",
          "name": "version",
          "type": "uint8"
        }
      ],
      "name": "Initialized",
      "type": "event"
    },
    {
      "anonymous": false,
      "inputs": [
        {
          "indexed": false,
          "internalType": "address",
          "name": "poolAddress",
          "type": "address"
        },
        {
          "indexed": false,
          "internalType": "uint256",
          "name": "proposalId",
          "type": "uint256"
        },
        {
          "indexed": false,
          "internalType": "address",
          "name": "protocol",
          "type": "address"
        }
      ],
      "name": "NewPoolExecuted",
      "type": "event"
    },
    {
      "anonymous": false,
      "inputs": [
        {
          "indexed": true,
          "internalType": "address",
          "name": "previousOwner",
          "type": "address"
        },
        {
          "indexed": true,
          "internalType": "address",
          "name": "newOwner",
          "type": "address"
        }
      ],
      "name": "OwnershipTransferred",
      "type": "event"
    },
    {
      "anonymous": false,
      "inputs": [
        {
          "indexed": false,
          "internalType": "address",
          "name": "pool",
          "type": "address"
        },
        {
          "indexed": false,
          "internalType": "uint256",
          "name": "poolId",
          "type": "uint256"
        },
        {
          "indexed": false,
          "internalType": "uint256",
          "name": "reportId",
          "type": "uint256"
        }
      ],
      "name": "ReportExecuted",
      "type": "event"
    },
    {
      "inputs": [
        {
          "internalType": "uint256",
          "name": "_proposalId",
          "type": "uint256"
        }
      ],
      "name": "executeProposal",
      "outputs": [
        {
          "internalType": "address",
          "name": "newPriorityPool",
          "type": "address"
        }
      ],
      "stateMutability": "nonpayable",
      "type": "function"
    },
    {
      "inputs": [
        {
          "internalType": "uint256",
          "name": "_reportId",
          "type": "uint256"
        }
      ],
      "name": "executeReport",
      "outputs": [],
      "stateMutability": "nonpayable",
      "type": "function"
    },
    {
      "inputs": [],
      "name": "incidentReport",
      "outputs": [
        {
          "internalType": "address",
          "name": "",
          "type": "address"
        }
      ],
      "stateMutability": "view",
      "type": "function"
    },
    {
      "inputs": [],
      "name": "initialize",
      "outputs": [],
      "stateMutability": "nonpayable",
      "type": "function"
    },
    {
      "inputs": [],
      "name": "onboardProposal",
      "outputs": [
        {
          "internalType": "address",
          "name": "",
          "type": "address"
        }
      ],
      "stateMutability": "view",
      "type": "function"
    },
    {
      "inputs": [],
      "name": "owner",
      "outputs": [
        {
          "internalType": "address",
          "name": "",
          "type": "address"
        }
      ],
      "stateMutability": "view",
      "type": "function"
    },
    {
      "inputs": [],
      "name": "priorityPoolFactory",
      "outputs": [
        {
          "internalType": "address",
          "name": "",
          "type": "address"
        }
      ],
      "stateMutability": "view",
      "type": "function"
    },
    {
      "inputs": [
        {
          "internalType": "uint256",
          "name": "",
          "type": "uint256"
        }
      ],
      "name": "proposalExecuted",
      "outputs": [
        {
          "internalType": "bool",
          "name": "",
          "type": "bool"
        }
      ],
      "stateMutability": "view",
      "type": "function"
    },
    {
      "inputs": [],
      "name": "renounceOwnership",
      "outputs": [],
      "stateMutability": "nonpayable",
      "type": "function"
    },
    {
      "inputs": [
        {
          "internalType": "uint256",
          "name": "",
          "type": "uint256"
        }
      ],
      "name": "reportExecuted",
      "outputs": [
        {
          "internalType": "bool",
          "name": "",
          "type": "bool"
        }
      ],
      "stateMutability": "view",
      "type": "function"
    },
    {
      "inputs": [
        {
          "internalType": "address",
          "name": "_incidentReport",
          "type": "address"
        }
      ],
      "name": "setIncidentReport",
      "outputs": [],
      "stateMutability": "nonpayable",
      "type": "function"
    },
    {
      "inputs": [
        {
          "internalType": "address",
          "name": "_onboardProposal",
          "type": "address"
        }
      ],
      "name": "setOnboardProposal",
      "outputs": [],
      "stateMutability": "nonpayable",
      "type": "function"
    },
    {
      "inputs": [
        {
          "internalType": "address",
          "name": "_priorityPoolFactory",
          "type": "address"
        }
      ],
      "name": "setPriorityPoolFactory",
      "outputs": [],
      "stateMutability": "nonpayable",
      "type": "function"
    },
    {
      "inputs": [
        {
          "internalType": "address",
          "name": "_treasury",
          "type": "address"
        }
      ],
      "name": "setTreasury",
      "outputs": [],
      "stateMutability": "nonpayable",
      "type": "function"
    },
    {
      "inputs": [
        {
          "internalType": "address",
          "name": "newOwner",
          "type": "address"
        }
      ],
      "name": "transferOwnership",
      "outputs": [],
      "stateMutability": "nonpayable",
      "type": "function"
    },
    {
      "inputs": [],
      "name": "treasury",
      "outputs": [
        {
          "internalType": "address",
          "name": "",
          "type": "address"
        }
      ],
      "stateMutability": "view",
      "type": "function"
    }
  ],
  "transactionHash": "0x5174da68e6d1e18336f3ea7f1b959797d419054a187b616f398aaada0be3acaa",
  "args": [],
  "numDeployments": 1,
  "solcInputHash": "b87c56c62ddcad85a0f1be1c56a702e9",
  "bytecode": "0x6080806040523461001657610e5b908161001c8239f35b600080fdfe6080604081815260048036101561001557600080fd5b60009260e08435811c918263084b976314610c18575081630d61b5191461091f5781630f89b77d146108f5578163103616e8146108c857816345ac7890146108795781635e0403e1146104b45750806361d027b31461048b5780636f8a6e4314610462578063715018a6146103f35780638129fc1c146102c35780638da5cb5b14610293578063ad35e1dc14610245578063d4fe01c514610219578063e3356ccf146101cb578063f0f44260146101795763f2fde38b146100d557600080fd5b34610175576020366003190112610175578035906001600160a01b03808316908184036101715761010d90865460101c163314610c3d565b1561011f575061011c90610dc5565b51f35b608490602084519162461bcd60e51b8352820152602660248201527f4f776e61626c653a206e6577206f776e657220697320746865207a65726f206160448201526564647265737360d01b6064820152fd5b8580fd5b8280fd5b503461017557602036600319011261017557356001600160a01b03818116918290036101c7576101b090845460101c163314610c3d565b603580546001600160a01b03191691909117905551f35b8380fd5b503461017557602036600319011261017557356001600160a01b03818116918290036101c75761020290845460101c163314610c3d565b603380546001600160a01b03191691909117905551f35b5034610175576020366003190112610175578160209360ff923581526036855220541690519015158152f35b503461017557602036600319011261017557356001600160a01b03818116918290036101c75761027c90845460101c163314610c3d565b603280546001600160a01b03191691909117905551f35b5050346102bf57816003193601126102bf579054905160109190911c6001600160a01b03168152602090f35b5080fd5b5034610175578260031936011261017557825460ff8160081c1615918280936103e6575b80156103cf575b15610375575060ff198116600117845581610364575b5061031e60ff845460081c1661031981610d65565b610d65565b61032733610dc5565b61032e5751f35b61ff001982541682557f7f26b83ff96e1f2b6a682f133852f6798a09c465da95921460cefb38474024986020825160018152a151f35b61ffff191661010117835538610304565b608490602085519162461bcd60e51b8352820152602e60248201527f496e697469616c697a61626c653a20636f6e747261637420697320616c72656160448201526d191e481a5b9a5d1a585b1a5e995960921b6064820152fd5b50303b1580156102ee5750600160ff8316146102ee565b50600160ff8316106102e7565b5050346102bf57816003193601126102bf5781546001600160a01b0391906104219060101c83163314610c3d565b600080549151928260101c167f8be0079c531659141344cd1fd0a4f28419497f9722a3daafe3b4186f6b6457e08285a362010000600160b01b031916600055f35b5050346102bf57816003193601126102bf5760325490516001600160a01b039091168152602090f35b5050346102bf57816003193601126102bf5760355490516001600160a01b039091168152602090f35b9050346101c75760209182600319360112610712578035908186526036845260ff858720541661086b5781865260368452848620805460ff191660011790556033548551634e7f9b1960e01b81528083018490526024949092916001600160a01b03919082169061016080868981865afa958615610861578b96610791575b50508401516002190161078157600161010085015103610771578089913b156102bf578190878a518094819363d3ecebd760e01b83528a898401525af1801561076757610752575b5090818892603554168451828a87015116823b156101715760448692838d519586948593630627c88b60e01b85528a8501528d8401525af190811561071657849161073e575b505080603254168451813b1561071257895190631b35278960e01b8252848201528488820152848160448183865af1908115610734578591610720575b508551888b51809481936315895f4760e31b8352888301525afa9081156107165784916106ba575b50169461014084015191863b156101c75783918951938492630216e5ad60e31b84528301528183895af180156106b057610696575b5050907f8fa9381fba721fd6948edce4a010404fc0032dc4dc0c1602636306c4965f5cf693606093925190865193845283015284820152a151f35b6106a39094939294610c76565b610171579091853861065b565b87513d84823e3d90fd5b90503d8085833e6106cb8183610ca0565b810160a0828203126107125781519067ffffffffffffffff8211610171576106f4918301610d10565b5061070b896107048a8401610cc2565b9201610cc2565b5038610626565b8480fd5b89513d86823e3d90fd5b61072990610c76565b6101c75783386105fe565b8a513d87823e3d90fd5b61074790610c76565b6101755782386105c1565b61075f9098919298610c76565b96903861057b565b88513d8b823e3d90fd5b87516354b3680560e11b81528390fd5b87516317dbbab560e11b81528390fd5b908092965081813d831161085a575b6107aa8183610ca0565b8101031261085657895191820182811067ffffffffffffffff821117610844578a52805182528881015189830152600391906107e78b8201610cc2565b8b830152606081015160608301526080810151608083015260a081015160a083015260c081015160c08301528681015187830152610100808201519083015261012080820151908301526101408091015190820152949038610533565b634e487b7160e01b8c5260418652888cfd5b8a80fd5b503d6107a0565b8a513d8d823e3d90fd5b8451638a59351b60e01b8152fd5b50503461017557602036600319011261017557356001600160a01b03818116918290036101c7576108b190845460101c163314610c3d565b603480546001600160a01b03191691909117905551f35b505034610175576020366003190112610175578160209360ff923581526037855220541690519015158152f35b505050346102bf57816003193601126102bf5760335490516001600160a01b039091168152602090f35b82848634610acb57602093846003193601126102bf578335938483526037865260ff8484205416610c0a5784835260378652838320805460ff1916600117905560345484516318feeb1560e31b81528281018790526001600160a01b0393909185908390602490829088165afa918215610c00578592610b00575b50600361014083015103610af057600161016083015103610ae0578790846032541660808760a4865197868801986101008b8b5116978a01519901518d51998a988997889563bb9febaf60e01b8752860152610a04845180958160848901528d8989019101610cdb565b602485015260448401526064830152601f01601f191681010301925af1938415610ad5578094610a72575b505091816060927f72dad87e42def859d57ce9b5e0ad99cc0b3c3e13ef9147ee80afa2b5a9f103749451169085519216958683528783015284820152a151908152f35b909193508682813d8311610ace575b610a8b8183610ca0565b81010312610acb57509181606092610ac37f72dad87e42def859d57ce9b5e0ad99cc0b3c3e13ef9147ee80afa2b5a9f1037495610cc2565b945092610a2f565b80fd5b503d610a81565b8551903d90823e3d90fd5b855163057c9ceb60e01b81528390fd5b855163c0e8dfe360e01b81528390fd5b9091503d8086833e610b128183610ca0565b8101888282031261017157815167ffffffffffffffff92838211610be9570190610180928383830312610be957885193840184811082821117610bed5789528251908111610be95790610b66918301610d10565b8252610b73898201610cc2565b89830152610b82878201610cc2565b87830152606081015160608301526080810151608083015260a081015160a083015260c081015160c083015282810151838301526101008082015190830152610120808201519083015261014080820151908301526101608091015190820152908861099a565b8780fd5b634e487b7160e01b895260418752602489fd5b86513d87823e3d90fd5b8351638a59351b60e01b8152fd5b8590346102bf57816003193601126102bf576034546001600160a01b03168152602090f35b15610c4457565b60405162461bcd60e51b815260206004820152600a60248201526927b7363c9037bbb732b960b11b6044820152606490fd5b67ffffffffffffffff8111610c8a57604052565b634e487b7160e01b600052604160045260246000fd5b90601f8019910116810190811067ffffffffffffffff821117610c8a57604052565b51906001600160a01b0382168203610cd657565b600080fd5b918091926000905b828210610cfb575011610cf4575050565b6000910152565b91508060209183015181860152018291610ce3565b81601f82011215610cd657805167ffffffffffffffff8111610c8a5760405192610d44601f8301601f191660200185610ca0565b81845260208284010111610cd657610d629160208085019101610cdb565b90565b15610d6c57565b60405162461bcd60e51b815260206004820152602b60248201527f496e697469616c697a61626c653a20636f6e7472616374206973206e6f74206960448201526a6e697469616c697a696e6760a81b6064820152608490fd5b6000549060018060a01b03808216908360101c167f8be0079c531659141344cd1fd0a4f28419497f9722a3daafe3b4186f6b6457e06000604051a362010000600160b01b031990911660109190911b62010000600160b01b03161760005556fea2646970667358221220440b2035b43492cfadc43b2f47a7925a1eb11d31d822197907e920e5356899ba64736f6c634300080f0033",
  "devdoc": {
    "author": "Eric Lee (ylikp.ust@gmail.com) & Primata (primata@375labs.org)",
    "kind": "dev",
    "methods": {
      "executeProposal(uint256)": {
        "params": {
          "_proposalId": "Proposal id"
        }
      },
      "executeReport(uint256)": {
        "params": {
          "_reportId": "Id of the report to be executed"
        }
      },
      "owner()": {
        "details": "Returns the address of the current owner."
      },
      "renounceOwnership()": {
        "details": "Leaves the contract without owner. It will not be possible to call `onlyOwner` functions anymore. Can only be called by the current owner. NOTE: Renouncing ownership will leave the contract without an owner, thereby removing any functionality that is only available to the owner."
      },
      "transferOwnership(address)": {
        "details": "Transfers ownership of the contract to a new account (`newOwner`). Can only be called by the current owner."
      }
    },
    "title": "Executor",
    "version": 1
  },
  "userdoc": {
    "kind": "user",
    "methods": {
      "executeProposal(uint256)": {
        "notice": "Execute the proposal         The proposal must already been settled and the result is PASSED         New priority pool will be deployed with parameters"
      },
      "executeReport(uint256)": {
        "notice": "Execute a report         The report must already been settled and the result is PASSED         Execution means:             1) Give 10% of protocol income to reporter (SHIELD)             2) Move the total payout amount out of the priority pool (to payout pool)             3) Deploy new generations of CRTokens and PRI-LP tokens         Can not execute a report before the previous liquidation ended"
      }
    },
    "notice": "This is the executor for degis Protocol Protection         The executor is responsible for the execution of the reports and pool proposals         Both administrators or users can execute proposals and reports",
    "version": 1
  },
  "storageLayout": {
    "storage": [
      {
        "astId": 52,
        "contract": "src/core/Executor.sol:Executor",
        "label": "_initialized",
        "offset": 0,
        "slot": "0",
        "type": "t_uint8"
      },
      {
        "astId": 55,
        "contract": "src/core/Executor.sol:Executor",
        "label": "_initializing",
        "offset": 1,
        "slot": "0",
        "type": "t_bool"
      },
      {
        "astId": 23474,
        "contract": "src/core/Executor.sol:Executor",
        "label": "_owner",
        "offset": 2,
        "slot": "0",
        "type": "t_address"
      },
      {
        "astId": 23581,
        "contract": "src/core/Executor.sol:Executor",
        "label": "__gap",
        "offset": 0,
        "slot": "1",
        "type": "t_array(t_uint256)49_storage"
      },
      {
        "astId": 13089,
        "contract": "src/core/Executor.sol:Executor",
        "label": "priorityPoolFactory",
        "offset": 0,
        "slot": "50",
        "type": "t_address"
      },
      {
        "astId": 13091,
        "contract": "src/core/Executor.sol:Executor",
        "label": "incidentReport",
        "offset": 0,
        "slot": "51",
        "type": "t_address"
      },
      {
        "astId": 13093,
        "contract": "src/core/Executor.sol:Executor",
        "label": "onboardProposal",
        "offset": 0,
        "slot": "52",
        "type": "t_address"
      },
      {
        "astId": 13095,
        "contract": "src/core/Executor.sol:Executor",
        "label": "treasury",
        "offset": 0,
        "slot": "53",
        "type": "t_address"
      },
      {
        "astId": 11448,
        "contract": "src/core/Executor.sol:Executor",
        "label": "reportExecuted",
        "offset": 0,
        "slot": "54",
        "type": "t_mapping(t_uint256,t_bool)"
      },
      {
        "astId": 11452,
        "contract": "src/core/Executor.sol:Executor",
        "label": "proposalExecuted",
        "offset": 0,
        "slot": "55",
        "type": "t_mapping(t_uint256,t_bool)"
      }
    ],
    "types": {
      "t_address": {
        "encoding": "inplace",
        "label": "address",
        "numberOfBytes": "20"
      },
      "t_array(t_uint256)49_storage": {
        "base": "t_uint256",
        "encoding": "inplace",
        "label": "uint256[49]",
        "numberOfBytes": "1568"
      },
      "t_bool": {
        "encoding": "inplace",
        "label": "bool",
        "numberOfBytes": "1"
      },
      "t_mapping(t_uint256,t_bool)": {
        "encoding": "mapping",
        "key": "t_uint256",
        "label": "mapping(uint256 => bool)",
        "numberOfBytes": "32",
        "value": "t_bool"
      },
      "t_uint256": {
        "encoding": "inplace",
        "label": "uint256",
        "numberOfBytes": "32"
      },
      "t_uint8": {
        "encoding": "inplace",
        "label": "uint8",
        "numberOfBytes": "1"
      }
    }
  }
}