{
  "address": "0xAd2495803847b0380BcE0ed34e3e1Ab45a86681A",
  "abi": [
    {
      "inputs": [
        {
          "internalType": "address",
          "name": "_deg",
          "type": "address"
        },
        {
          "internalType": "address",
          "name": "_veDeg",
          "type": "address"
        },
        {
          "internalType": "address",
          "name": "_shield",
          "type": "address"
        }
      ],
      "stateMutability": "nonpayable",
      "type": "constructor"
    },
    {
      "inputs": [],
      "name": "IncidentReport__AlreadyClaimed",
      "type": "error"
    },
    {
      "inputs": [],
      "name": "IncidentReport__AlreadyReported",
      "type": "error"
    },
    {
      "inputs": [],
      "name": "IncidentReport__AlreadySettled",
      "type": "error"
    },
    {
      "inputs": [],
      "name": "IncidentReport__ChooseBothSides",
      "type": "error"
    },
    {
      "inputs": [],
      "name": "IncidentReport__NoReward",
      "type": "error"
    },
    {
      "inputs": [],
      "name": "IncidentReport__NotEnoughVeDEG",
      "type": "error"
    },
    {
      "inputs": [],
      "name": "IncidentReport__NotSettled",
      "type": "error"
    },
    {
      "inputs": [],
      "name": "IncidentReport__NotWrongChoice",
      "type": "error"
    },
    {
      "inputs": [],
      "name": "IncidentReport__PoolNotExist",
      "type": "error"
    },
    {
      "inputs": [],
      "name": "IncidentReport__WrongChoice",
      "type": "error"
    },
    {
      "inputs": [],
      "name": "IncidentReport__WrongPeriod",
      "type": "error"
    },
    {
      "inputs": [],
      "name": "IncidentReport__WrongStatus",
      "type": "error"
    },
    {
      "inputs": [],
      "name": "IncidentReport__ZeroAmount",
      "type": "error"
    },
    {
      "anonymous": false,
      "inputs": [
        {
          "indexed": false,
          "internalType": "address",
          "name": "payer",
          "type": "address"
        },
        {
          "indexed": false,
          "internalType": "address",
          "name": "user",
          "type": "address"
        },
        {
          "indexed": false,
          "internalType": "uint256",
          "name": "debt",
          "type": "uint256"
        },
        {
          "indexed": false,
          "internalType": "uint256",
          "name": "unlockAmount",
          "type": "uint256"
        }
      ],
      "name": "DebtPaid",
      "type": "event"
    },
    {
      "anonymous": false,
      "inputs": [
        {
          "indexed": true,
          "internalType": "address",
          "name": "previousOwner",
          "type": "address"
        },
        {
          "indexed": true,
          "internalType": "address",
          "name": "newOwner",
          "type": "address"
        }
      ],
      "name": "OwnershipTransferred",
      "type": "event"
    },
    {
      "anonymous": false,
      "inputs": [
        {
          "indexed": false,
          "internalType": "uint256",
          "name": "reportId",
          "type": "uint256"
        },
        {
          "indexed": false,
          "internalType": "uint256",
          "name": "closeTimestamp",
          "type": "uint256"
        }
      ],
      "name": "ReportClosed",
      "type": "event"
    },
    {
      "anonymous": false,
      "inputs": [
        {
          "indexed": false,
          "internalType": "uint256",
          "name": "reportId",
          "type": "uint256"
        },
        {
          "indexed": true,
          "internalType": "uint256",
          "name": "poolId",
          "type": "uint256"
        },
        {
          "indexed": false,
          "internalType": "uint256",
          "name": "reportTimestamp",
          "type": "uint256"
        },
        {
          "indexed": true,
          "internalType": "address",
          "name": "reporter",
          "type": "address"
        },
        {
          "indexed": false,
          "internalType": "uint256",
          "name": "payout",
          "type": "uint256"
        }
      ],
      "name": "ReportCreated",
      "type": "event"
    },
    {
      "anonymous": false,
      "inputs": [
        {
          "indexed": false,
          "internalType": "uint256",
          "name": "reportId",
          "type": "uint256"
        },
        {
          "indexed": false,
          "internalType": "uint256",
          "name": "round",
          "type": "uint256"
        }
      ],
      "name": "ReportExtended",
      "type": "event"
    },
    {
      "anonymous": false,
      "inputs": [
        {
          "indexed": false,
          "internalType": "uint256",
          "name": "reportId",
          "type": "uint256"
        }
      ],
      "name": "ReportFailed",
      "type": "event"
    },
    {
      "anonymous": false,
      "inputs": [
        {
          "indexed": false,
          "internalType": "uint256",
          "name": "reportId",
          "type": "uint256"
        },
        {
          "indexed": false,
          "internalType": "uint256",
          "name": "result",
          "type": "uint256"
        }
      ],
      "name": "ReportSettled",
      "type": "event"
    },
    {
      "anonymous": false,
      "inputs": [
        {
          "indexed": false,
          "internalType": "uint256",
          "name": "reportId",
          "type": "uint256"
        },
        {
          "indexed": true,
          "internalType": "address",
          "name": "user",
          "type": "address"
        },
        {
          "indexed": false,
          "internalType": "uint256",
          "name": "voteFor",
          "type": "uint256"
        },
        {
          "indexed": false,
          "internalType": "uint256",
          "name": "amount",
          "type": "uint256"
        }
      ],
      "name": "ReportVoted",
      "type": "event"
    },
    {
      "anonymous": false,
      "inputs": [
        {
          "indexed": false,
          "internalType": "uint256",
          "name": "reportId",
          "type": "uint256"
        },
        {
          "indexed": false,
          "internalType": "uint256",
          "name": "startTimestamp",
          "type": "uint256"
        }
      ],
      "name": "ReportVotingStart",
      "type": "event"
    },
    {
      "anonymous": false,
      "inputs": [
        {
          "indexed": false,
          "internalType": "uint256",
          "name": "reportId",
          "type": "uint256"
        },
        {
          "indexed": false,
          "internalType": "uint256",
          "name": "totalRewardToVoters",
          "type": "uint256"
        }
      ],
      "name": "VotingRewardSettled",
      "type": "event"
    },
    {
      "inputs": [],
      "name": "COOLDOWN_WRONG_REPORT",
      "outputs": [
        {
          "internalType": "uint256",
          "name": "",
          "type": "uint256"
        }
      ],
      "stateMutability": "view",
      "type": "function"
    },
    {
      "inputs": [
        {
          "internalType": "uint256",
          "name": "_id",
          "type": "uint256"
        }
      ],
      "name": "claimReward",
      "outputs": [],
      "stateMutability": "nonpayable",
      "type": "function"
    },
    {
      "inputs": [
        {
          "internalType": "uint256",
          "name": "_id",
          "type": "uint256"
        }
      ],
      "name": "closeReport",
      "outputs": [],
      "stateMutability": "nonpayable",
      "type": "function"
    },
    {
      "inputs": [
        {
          "internalType": "uint256",
          "name": "_poolId",
          "type": "uint256"
        }
      ],
      "name": "getPoolReports",
      "outputs": [
        {
          "internalType": "uint256[]",
          "name": "",
          "type": "uint256[]"
        }
      ],
      "stateMutability": "view",
      "type": "function"
    },
    {
      "inputs": [
        {
          "internalType": "uint256",
          "name": "_poolId",
          "type": "uint256"
        }
      ],
      "name": "getPoolReportsAmount",
      "outputs": [
        {
          "internalType": "uint256",
          "name": "",
          "type": "uint256"
        }
      ],
      "stateMutability": "view",
      "type": "function"
    },
    {
      "inputs": [
        {
          "internalType": "uint256",
          "name": "_id",
          "type": "uint256"
        }
      ],
      "name": "getReport",
      "outputs": [
        {
          "components": [
            {
              "internalType": "uint256",
              "name": "poolId",
              "type": "uint256"
            },
            {
              "internalType": "uint256",
              "name": "reportTimestamp",
              "type": "uint256"
            },
            {
              "internalType": "address",
              "name": "reporter",
              "type": "address"
            },
            {
              "internalType": "uint256",
              "name": "voteTimestamp",
              "type": "uint256"
            },
            {
              "internalType": "uint256",
              "name": "numFor",
              "type": "uint256"
            },
            {
              "internalType": "uint256",
              "name": "numAgainst",
              "type": "uint256"
            },
            {
              "internalType": "uint256",
              "name": "round",
              "type": "uint256"
            },
            {
              "internalType": "uint256",
              "name": "status",
              "type": "uint256"
            },
            {
              "internalType": "uint256",
              "name": "result",
              "type": "uint256"
            },
            {
              "internalType": "uint256",
              "name": "votingReward",
              "type": "uint256"
            },
            {
              "internalType": "uint256",
              "name": "payout",
              "type": "uint256"
            }
          ],
          "internalType": "struct IncidentReport.Report",
          "name": "",
          "type": "tuple"
        }
      ],
      "stateMutability": "view",
      "type": "function"
    },
    {
      "inputs": [
        {
          "internalType": "uint256",
          "name": "_poolId",
          "type": "uint256"
        }
      ],
      "name": "getTempResult",
      "outputs": [
        {
          "components": [
            {
              "internalType": "uint256",
              "name": "result",
              "type": "uint256"
            },
            {
              "internalType": "uint256",
              "name": "sampleTimestamp",
              "type": "uint256"
            },
            {
              "internalType": "bool",
              "name": "hasChanged",
              "type": "bool"
            }
          ],
          "internalType": "struct IncidentReport.TempResult",
          "name": "",
          "type": "tuple"
        }
      ],
      "stateMutability": "view",
      "type": "function"
    },
    {
      "inputs": [
        {
          "internalType": "address",
          "name": "_user",
          "type": "address"
        },
        {
          "internalType": "uint256",
          "name": "_poolId",
          "type": "uint256"
        }
      ],
      "name": "getUserVote",
      "outputs": [
        {
          "components": [
            {
              "internalType": "uint256",
              "name": "choice",
              "type": "uint256"
            },
            {
              "internalType": "uint256",
              "name": "amount",
              "type": "uint256"
            },
            {
              "internalType": "bool",
              "name": "claimed",
              "type": "bool"
            }
          ],
          "internalType": "struct IncidentReport.UserVote",
          "name": "",
          "type": "tuple"
        }
      ],
      "stateMutability": "view",
      "type": "function"
    },
    {
      "inputs": [],
      "name": "owner",
      "outputs": [
        {
          "internalType": "address",
          "name": "",
          "type": "address"
        }
      ],
      "stateMutability": "view",
      "type": "function"
    },
    {
      "inputs": [
        {
          "internalType": "uint256",
          "name": "_id",
          "type": "uint256"
        },
        {
          "internalType": "address",
          "name": "_user",
          "type": "address"
        }
      ],
      "name": "payDebt",
      "outputs": [],
      "stateMutability": "nonpayable",
      "type": "function"
    },
    {
      "inputs": [
        {
          "internalType": "uint256",
          "name": "",
          "type": "uint256"
        },
        {
          "internalType": "uint256",
          "name": "",
          "type": "uint256"
        }
      ],
      "name": "poolReports",
      "outputs": [
        {
          "internalType": "uint256",
          "name": "",
          "type": "uint256"
        }
      ],
      "stateMutability": "view",
      "type": "function"
    },
    {
      "inputs": [],
      "name": "priorityPoolFactory",
      "outputs": [
        {
          "internalType": "contract IPriorityPoolFactory",
          "name": "",
          "type": "address"
        }
      ],
      "stateMutability": "view",
      "type": "function"
    },
    {
      "inputs": [],
      "name": "renounceOwnership",
      "outputs": [],
      "stateMutability": "nonpayable",
      "type": "function"
    },
    {
      "inputs": [
        {
          "internalType": "uint256",
          "name": "_poolId",
          "type": "uint256"
        },
        {
          "internalType": "uint256",
          "name": "_payout",
          "type": "uint256"
        }
      ],
      "name": "report",
      "outputs": [],
      "stateMutability": "nonpayable",
      "type": "function"
    },
    {
      "inputs": [],
      "name": "reportCounter",
      "outputs": [
        {
          "internalType": "uint256",
          "name": "",
          "type": "uint256"
        }
      ],
      "stateMutability": "view",
      "type": "function"
    },
    {
      "inputs": [
        {
          "internalType": "address",
          "name": "",
          "type": "address"
        }
      ],
      "name": "reported",
      "outputs": [
        {
          "internalType": "bool",
          "name": "",
          "type": "bool"
        }
      ],
      "stateMutability": "view",
      "type": "function"
    },
    {
      "inputs": [
        {
          "internalType": "uint256",
          "name": "",
          "type": "uint256"
        }
      ],
      "name": "reports",
      "outputs": [
        {
          "internalType": "uint256",
          "name": "poolId",
          "type": "uint256"
        },
        {
          "internalType": "uint256",
          "name": "reportTimestamp",
          "type": "uint256"
        },
        {
          "internalType": "address",
          "name": "reporter",
          "type": "address"
        },
        {
          "internalType": "uint256",
          "name": "voteTimestamp",
          "type": "uint256"
        },
        {
          "internalType": "uint256",
          "name": "numFor",
          "type": "uint256"
        },
        {
          "internalType": "uint256",
          "name": "numAgainst",
          "type": "uint256"
        },
        {
          "internalType": "uint256",
          "name": "round",
          "type": "uint256"
        },
        {
          "internalType": "uint256",
          "name": "status",
          "type": "uint256"
        },
        {
          "internalType": "uint256",
          "name": "result",
          "type": "uint256"
        },
        {
          "internalType": "uint256",
          "name": "votingReward",
          "type": "uint256"
        },
        {
          "internalType": "uint256",
          "name": "payout",
          "type": "uint256"
        }
      ],
      "stateMutability": "view",
      "type": "function"
    },
    {
      "inputs": [
        {
          "internalType": "address",
          "name": "_priorityPoolFactory",
          "type": "address"
        }
      ],
      "name": "setPriorityPoolFactory",
      "outputs": [],
      "stateMutability": "nonpayable",
      "type": "function"
    },
    {
      "inputs": [
        {
          "internalType": "uint256",
          "name": "_id",
          "type": "uint256"
        }
      ],
      "name": "settle",
      "outputs": [],
      "stateMutability": "nonpayable",
      "type": "function"
    },
    {
      "inputs": [
        {
          "internalType": "uint256",
          "name": "_id",
          "type": "uint256"
        }
      ],
      "name": "startVoting",
      "outputs": [],
      "stateMutability": "nonpayable",
      "type": "function"
    },
    {
      "inputs": [
        {
          "internalType": "uint256",
          "name": "",
          "type": "uint256"
        }
      ],
      "name": "tempResults",
      "outputs": [
        {
          "internalType": "uint256",
          "name": "result",
          "type": "uint256"
        },
        {
          "internalType": "uint256",
          "name": "sampleTimestamp",
          "type": "uint256"
        },
        {
          "internalType": "bool",
          "name": "hasChanged",
          "type": "bool"
        }
      ],
      "stateMutability": "view",
      "type": "function"
    },
    {
      "inputs": [
        {
          "internalType": "address",
          "name": "newOwner",
          "type": "address"
        }
      ],
      "name": "transferOwnership",
      "outputs": [],
      "stateMutability": "nonpayable",
      "type": "function"
    },
    {
      "inputs": [
        {
          "internalType": "uint256",
          "name": "_poolId",
          "type": "uint256"
        }
      ],
      "name": "unpausePools",
      "outputs": [],
      "stateMutability": "nonpayable",
      "type": "function"
    },
    {
      "inputs": [
        {
          "internalType": "uint256",
          "name": "_id",
          "type": "uint256"
        },
        {
          "internalType": "uint256",
          "name": "_isFor",
          "type": "uint256"
        },
        {
          "internalType": "uint256",
          "name": "_amount",
          "type": "uint256"
        }
      ],
      "name": "vote",
      "outputs": [],
      "stateMutability": "nonpayable",
      "type": "function"
    },
    {
      "inputs": [
        {
          "internalType": "address",
          "name": "",
          "type": "address"
        },
        {
          "internalType": "uint256",
          "name": "",
          "type": "uint256"
        }
      ],
      "name": "votes",
      "outputs": [
        {
          "internalType": "uint256",
          "name": "choice",
          "type": "uint256"
        },
        {
          "internalType": "uint256",
          "name": "amount",
          "type": "uint256"
        },
        {
          "internalType": "bool",
          "name": "claimed",
          "type": "bool"
        }
      ],
      "stateMutability": "view",
      "type": "function"
    }
  ],
  "transactionHash": "0x95f6219d87501bdc6af554db50abfe0eeea8304fe6d010f178a92428caa4464b",
  "args": [
    "0x4Efd5a9269a328b1bf8873dC6d9EB5fF321aba09",
    "0xF98f0dE58c9a78B8e42def3cc49f02C2B35b81C9",
    "0x2afE704De753dDD32DC39f41C5F9D5df4bFc71F0"
  ],
  "numDeployments": 1,
  "solcInputHash": "796df1947fc64d2442e1fa634003784c",
  "bytecode": "0x60e034620000e557601f62001e1938819003918201601f19168301916001600160401b03831184841017620000ea57808492606094604052833981010312620000e5576200004d8162000100565b620000696040620000616020850162000100565b930162000100565b6001600160a01b0391821660805291811660a0521660c052600080546001600160a01b03191633179055604051611d03908162000116823960805181818161031f0152818161060301528181610a08015261122b015260a0518181816103850152818161098501528181610db00152611c09015260c051815050f35b600080fd5b634e487b7160e01b600052604160045260246000fd5b51906001600160a01b0382168203620000e55756fe60808060405260048036101561001457600080fd5b600091823560e01c9081633d2f5bda14611828575080633eaa91f5146117e957806343a5ada21461174b5780634a13a0ee1461170c5780634e7f9b19146115b05780636530db98146115015780636f8a6e43146114d8578063715018a614611471578063753c09851461115f5780637aaf11c7146111375780638a6655d614610d4e5780638da5cb5b14610d275780638df8280014610897578063966d8a5f146108655780639e172155146108475780639f2524ee146107db578063a01bc01f14610769578063ad35e1dc14610720578063ae169a501461057e578063b9bc38f21461055d578063c942adf7146104bb578063d9dc8f1d14610293578063e7d918e21461025e578063f2fde38b1461018e5763fc6e85d31461013557600080fd5b3461018a57602036600319011261018a5790604091358152600560205220805461018660ff600260018501549401541660405193849384919260409194936060840195845260208401521515910152565b0390f35b5080fd5b503461018a57602036600319011261018a576101a8611952565b82546001600160a01b03929183916101c390831633146119ac565b1690811561020b5750600054816040519382167f8be0079c531659141344cd1fd0a4f28419497f9722a3daafe3b4186f6b6457e0600086a36001600160a01b03191617600055f35b60849060206040519162461bcd60e51b8352820152602660248201527f4f776e61626c653a206e6577206f776e657220697320746865207a65726f206160448201526564647265737360d01b6064820152fd5b503461018a57602036600319011261018a5761028e9061028860018060a01b0384541633146119ac565b35611b89565b604051f35b503461018a57604036600319011261018a576001600160a01b0390602435828116919081358382036104b6578386526006602052604086208187526020526102dd60408720611a89565b9086526003602052600860408720015480156104a5578151146104945760200191825180600019046050118115151661047f57906127106050889493020495807f000000000000000000000000000000000000000000000000000000000000000016803b1561045c576040805163342c6d4d60e11b815233858201908152602081018b90529092879284928391859183910103925af1908115610474578591610460575b50507f000000000000000000000000000000000000000000000000000000000000000016845190803b1561045c5760408051634bdc2db560e11b81526001600160a01b039095169385019384526020840192909252849284928391859183910103925af1801561045157610435575b507fb4b7f3a9d727d0ac344f696304df335d2936ce3b0a58d52600c692632c9fa7256080848685519060405192338452602084015260408301526060820152a1604051f35b610441909392936119e5565b61044d579083386103f0565b8380fd5b6040513d84823e3d90fd5b8480fd5b610469906119e5565b61044d578338610381565b6040513d87823e3d90fd5b601182634e487b7160e01b6000525260246000fd5b604051631ae2961d60e01b81528390fd5b60405163403ba18960e01b81528490fd5b600080fd5b503461018a57602036600319011261018a57604061016092823581526003602052209081549160018101549160018060a01b03600283015416906003830154908301546005840154600685015491600786015493600887015495600a6009890154980154986040519a8b5260208b015260408a01526060890152608088015260a087015260c086015260e0850152610100840152610120830152610140820152f35b823461057b578060031936011261057b576020600254604051908152f35b80fd5b503461018a5760208060031936011261071c57813591338452600682526040842083855282526105b060408520611a89565b90838552600383526008604086200154801561070c5760408301516106fc57825181036106d357508385526003835282600960408720015492019182519080600019048211811515166106be57869291907f00000000000000000000000000000000000000000000000000000000000000006001600160a01b0316803b1561045c576040805163168ece7360e31b81523395810195865264e8d4a5100094909302939093046020850152909284928492918391859183910103925af18015610451576106aa575b5050610684905133611c07565b33835260068152604083209183525260026040822001600160ff19825416179055604051f35b6106b3906119e5565b61044d578338610677565b601183634e487b7160e01b6000525260246000fd5b6003036106ed5750816106e891015133611c07565b610684565b60405163158f1f4160e11b8152fd5b5060405163961e9b0d60e01b8152fd5b5060405163403ba18960e01b8152fd5b8280fd5b823461057b57602036600319011261057b5761073a611952565b81546001600160a01b03919061075390831633146119ac565b1660018060a01b03196001541617600155604051f35b823461057b57604036600319011261057b576107b6604060609261078b611952565b610793611a6a565b506001600160a01b03168152600660209081528282206024358352905220611a89565b6107d9604051809260408091805184526020810151602085015201511515910152565bf35b823461057b57604036600319011261057b576040906001600160a01b03610800611952565b1681526006602052818120602435825260205220805461018660ff600260018501549401541660405193849384919260409194936060840195845260208401521515910152565b823461057b578060031936011261057b57602060405162093a808152f35b503461018a57602036600319011261018a5760406060926107b692610888611a6a565b50358152600560205220611a89565b50903461057b576020918260031936011261018a578035928383526003938482526040842092600784019560029081885403610d16576006860190815498818801546203f480198111610d03576108fc906203f4806108f58d611ad8565b9101611ab6565b4210610cf25760088801928354610ce157899a8560ff8160408e8d9e9f8d9e60059150829f835252200154169182610cd7575b505015610cb457868b52828952600660408c2001600181540190555b8715610c6357508190556109678489015460058a015490611ab6565b6040516318160ddd60e01b81526001600160a01b03939190898188817f000000000000000000000000000000000000000000000000000000000000000089165afa908115610c58578c91610c2b575b508060001904601e1181151516610c16576064601e919091020411610bd55786905584895286526040882091838301549360058401549260088501548b9060018114600014610b0b57505090818b93927f0000000000000000000000000000000000000000000000000000000000000000169286015416823b1561044d576044849283604051958694859363168ece7360e31b855284015269043c33c193756480000060248401525af1801561045157610ae9575b5050600195600080516020611cae83398151915260408095600080516020611c8e83398151915297956009610ab56064610aa58d99611aef565b0493610ab085611b05565b611b1f565b9101555b81519086825284820152a18351928352820152a103610ad9575b50604051f35b610ae39054611b89565b38610ad3565b610af8909593959492946119e5565b610b0757918738949294610a6b565b8780fd5b909b9a9996929593915014610b4d575b50505050600080516020611c8e8339815191529183604092600080516020611cae83398151915284600198999a610ab9565b60649192939950610b5d90611aef565b0469021e19e0c9bab240000081198111610bc2576001979899506040600080516020611c8e833981519152969488946009610baf849996600080516020611cae833981519152960193610ab085611b05565b9101559a99985050839550819450610b1b565b634e487b7160e01b895260118a52602489fd5b915050610c0a9394507f1dcabc7d01df1ee725f7c437ce5ec43e00015579d266f8a65d0911c4eb36ad90969291505554611b89565b604051908152a1604051f35b601187634e487b7160e01b6000525260246000fd5b90508981813d8311610c51575b610c428183611a48565b810103126104b65751386109b6565b503d610c38565b6040513d8e823e3d90fd5b94505050507fb7891e9b049f460b1641e0a0556e45b1d2adfb12bd2c6459ea5a5d645d40179d9550826040959394508752600583528487200160ff19815416905554908351928352820152a1604051f35b9650818852610cd18560408c200154600560408d20015490611b55565b9661094b565b109050853861092f565b60405163037d379160e11b81528690fd5b6040516324b1a7e960e01b81528590fd5b634e487b7160e01b8a526011865260248afd5b60405163363bbdfd60e01b81528390fd5b823461057b578060031936011261057b57546040516001600160a01b039091168152602090f35b50903461057b57606036600319011261057b57813560249283356044359183855260209060038252600260076040882001540361112857831561111957600183149182158061110e575b6110fe576040516370a0823160e01b815233838201527f00000000000000000000000000000000000000000000000000000000000000006001600160a01b03169082818b81855afa9081156110f35789916110c6575b5060405163cbf9fe5f60e01b815233858201529083828c81865afa9182156110bb578a9261108c575b508181106110785703861161106757803b15610b075760408051633c56aa6160e11b8152338582019081526020810189905290928a9284928391859183910103925af1801561105c57908891611044575b505033875260068152604080882087895282528720600181018054909186911561103e57540361102d575b610e9e868254611ab6565b90558587526003815260408720921561101757818301610ebf868254611ab6565b90555b8587526005815260ff6002604089200154161580610f74575b7f025e12b9cbba227587ada73c57f6b6b6a70272d7ed782681793125ec29afc77b96979850610f25575b5050604080519586526020860192909252508301523391606090a2604051f35b600580610f419385015494015491888a52526040882092611b55565b815480610f5a575b508155600142910155388080610f05565b600283019060ff8019835416918414151617905538610f49565b5060038301546006840154906203f480198111611005576203f480610fb59101610faf610fa9610fa385611ad8565b83611ab6565b93611ad8565b90611ab6565b610e108110611005577f025e12b9cbba227587ada73c57f6b6b6a70272d7ed782681793125ec29afc77b97989950610e0f190142119081610ffb575b5088979650610edb565b9050421038610ff1565b634e487b7160e01b8952601184528989fd5b60058301611026868254611ab6565b9055610ec2565b6040516346bdda4560e11b81528390fd5b55610e93565b61104d906119e5565b611058578638610e68565b8680fd5b6040513d8a823e3d90fd5b60405163729aeac360e01b81528390fd5b8a601186634e487b7160e01b600052526000fd5b9091508381813d83116110b4575b6110a48183611a48565b810103126104b657519038610e17565b503d61109a565b6040513d8c823e3d90fd5b90508281813d83116110ec575b6110dd8183611a48565b810103126104b6575138610dee565b503d6110d3565b6040513d8b823e3d90fd5b50604051631422ca1d60e31b8152fd5b506002841415610d98565b60405163583202e160e01b8152fd5b60405163363bbdfd60e01b8152fd5b503461018a57602036600319011261018a576020918160409235825283522054604051908152f35b503461018a5761116e36611968565b600180546040516315895f4760e31b81528086018590526001600160a01b0395918790829060249082908a165afa80156114665786918891611376575b5016801561136657808752600760205260ff604088205416611356578652600760205260408620805460ff19168317905560025460001992908381146113435781016002818155818952600360205260408920878155428185015590810180546001600160a01b0319163317905560078101839055600a018590559587907f000000000000000000000000000000000000000000000000000000000000000016803b1561018a5781809160446040518094819363342c6d4d60e11b8352338a84015269021e19e0c9bab240000060248401525af180156104515761132f575b50859052816020526040872090815492600160401b84101561131c57506112dd83611314959389937fe4af8b66d6c4b132955627bb2e4e80a62c544714e2f19dafec934a3b156cbe93989601815561197e565b909283549160031b90811b9283911b1691191617905560405191829133964290846040919493926060820195825260208201520152565b0390a3604051f35b634e487b7160e01b895260419052602488fd5b611338906119e5565b61105857863861128a565b634e487b7160e01b885260118352602488fd5b506040516360b2438960e01b8152fd5b5060405163148115cf60e21b8152fd5b9150503d8088833e6113888183611a48565b810160a082820312610b0757815167ffffffffffffffff9081811161146257830182601f8201121561146257805191821161144f57604051906020936113d785601f19601f8701160184611a48565b83835284848301011161144b57918a918a95949383905b838210611430575092848361141d96936114169560409711611424575b505050508401611b75565b9201611b75565b50386111ab565b0101528b81388061140b565b8181018601518284018701528c97508d9450908501906113ee565b8a80fd5b634e487b7160e01b8a526041855260248afd5b8980fd5b6040513d89823e3d90fd5b823461057b578060031936011261057b5780546001600160a01b039061149a90821633146119ac565b60005460006040519282167f8be0079c531659141344cd1fd0a4f28419497f9722a3daafe3b4186f6b6457e08285a36001600160a01b031916600055f35b823461057b578060031936011261057b576001546040516001600160a01b039091168152602090f35b503461018a57602036600319011261018a5780359061152a60018060a01b0384541633146119ac565b81835260036020526040832090600782019160018354036115a0576001611552910154611b3f565b61159157507f17b76cf2012024f7fe05b4a8b036b188464d5b49b7c8532e95c5c67a4b792eb291610194604092558151908152426020820152a1604051f35b6040516324b1a7e960e01b8152fd5b5060405163363bbdfd60e01b8152fd5b503461018a57602036600319011261018a57610140610160926040516115d581611a0f565b8181528160208201528160408201528160608201528160808201528160a08201528160c08201528160e08201526040610100928084840152808561012094828682015201528535815260036020522091600a6040519361163485611a0f565b8054968786526001820154602087015260018060a01b036002830154166040870152600382015460608701528101546080860152600581015460a0860152600681015460c0860152600781015460e08601526008810154838601526009810154848601520154848401526040519485526020830151602086015260018060a01b036040840151166040860152606083015160608601526080830151608086015260a083015160a086015260c083015160c086015260e083015160e0860152808301519085015280820151908401520151610140820152f35b50903461057b5761171c36611968565b929082526020526040812090815483101561057b57602061173d848461197e565b90546040519160031b1c8152f35b503461018a576020908160031936011261071c578035835281526040822060405192838383549182815201908193835284832090835b8181106117d55750505084611797910385611a48565b60405193838594850191818652518092526040850193925b8281106117be57505050500390f35b8351855286955093810193928101926001016117af565b825484529286019260019283019201611781565b823461057b57602036600319011261057b5760209060ff906040906001600160a01b03611814611952565b168152600784522054166040519015158152f35b9190503461071c57602036600319011261071c57803591828452600360205260408420906007820190600182540361194457506118686001830154611b3f565b156119335760029055426003820155546001546001600160a01b031691849190833b1561071c57604490836040519586948593631b35278960e01b8552840152600160248401525af18015611928576118f2575b5060407fde7965c8d6f24b73501e8bcad1a4f03937db4f902bfda3bee08b335accf07496918151908152426020820152a1604051f35b7fde7965c8d6f24b73501e8bcad1a4f03937db4f902bfda3bee08b335accf0749691926119206040926119e5565b9291506118bc565b6040513d85823e3d90fd5b6040516324b1a7e960e01b81528390fd5b63363bbdfd60e01b81528390fd5b600435906001600160a01b03821682036104b657565b60409060031901126104b6576004359060243590565b80548210156119965760005260206000200190600090565b634e487b7160e01b600052603260045260246000fd5b156119b357565b60405162461bcd60e51b815260206004820152600a60248201526927b7363c9037bbb732b960b11b6044820152606490fd5b67ffffffffffffffff81116119f957604052565b634e487b7160e01b600052604160045260246000fd5b610160810190811067ffffffffffffffff8211176119f957604052565b6060810190811067ffffffffffffffff8211176119f957604052565b90601f8019910116810190811067ffffffffffffffff8211176119f957604052565b60405190611a7782611a2c565b60006040838281528260208201520152565b90604051611a9681611a2c565b604060ff6002839580548552600181015460208601520154161515910152565b81198111611ac2570190565b634e487b7160e01b600052601160045260246000fd5b610e10908060001904821181151516611ac2570290565b806000190460281181151516611ac25760280290565b64e8d4a51000908060001904821181151516611ac2570290565b8115611b29570490565b634e487b7160e01b600052601260045260246000fd5b6203f480198111611ac2576203f4800142101590565b81811115611b655750506001905b565b1015611b7057600290565b600390565b51906001600160a01b03821682036104b657565b6001546001600160a01b031690813b156104b657604051918291631b35278960e01b835260048301528160446000938480948160248401525af18015611bfa57611bd1575050565b67ffffffffffffffff8211611be65750604052565b634e487b7160e01b81526041600452602490fd5b50604051903d90823e3d90fd5b7f00000000000000000000000000000000000000000000000000000000000000006001600160a01b031691823b156104b657604051634bdc2db560e11b81526001600160a01b039290921660048301526024820152906000908290604490829084905af18015611c8157611c785750565b611b63906119e5565b6040513d6000823e3d90fdfe30922d3a94c33e0ce3f99be437cbdf00f141e304f742a1cbd0df5cc5b490cd45bf97c766fd98feb70e7d5cc384ac953bcce9a7ca082cf57da33a199d67f7b7aba2646970667358221220f1ba19b60f4f3f3e8b2fede4eefbf5b8681c3e26994e9c3897a8288f231cddea64736f6c634300080f0033",
  "devdoc": {
    "kind": "dev",
    "methods": {
      "claimReward(uint256)": {
        "params": {
          "_id": "Report id"
        }
      },
      "closeReport(uint256)": {
        "params": {
          "_id": "Report id"
        }
      },
      "owner()": {
        "details": "Returns the address of the current owner."
      },
      "payDebt(uint256,address)": {
        "params": {
          "_id": "Report id",
          "_user": "User address (can pay debt for another user)"
        }
      },
      "renounceOwnership()": {
        "details": "Leaves the contract without owner. It will not be possible to call `onlyOwner` functions anymore. Can only be called by the current owner. NOTE: Renouncing ownership will leave the contract without an owner, thereby removing any functionality that is only available to the owner."
      },
      "report(uint256,uint256)": {
        "params": {
          "_payout": "Payout amount of this report",
          "_poolId": "Pool id to report incident"
        }
      },
      "settle(uint256)": {
        "params": {
          "_id": "Report id"
        }
      },
      "startVoting(uint256)": {
        "params": {
          "_id": "Report id"
        }
      },
      "transferOwnership(address)": {
        "details": "Transfers ownership of the contract to a new account (`newOwner`). Can only be called by the current owner."
      },
      "vote(uint256,uint256,uint256)": {
        "params": {
          "_amount": "Amount of veDEG used for this vote",
          "_id": "Id of the report to be voted on",
          "_isFor": "The user's choice (1: vote for, 2: vote against)"
        }
      }
    },
    "version": 1
  },
  "userdoc": {
    "kind": "user",
    "methods": {
      "claimReward(uint256)": {
        "notice": "Claim the voting reward         Only callable through proposal center"
      },
      "closeReport(uint256)": {
        "notice": "Close a pending report         Only owner can close a pending report         Can only be closed before the pending period ends         Will change the status from PENDING to CLOSED"
      },
      "payDebt(uint256,address)": {
        "notice": "Pay debt to get back veDEG         For those who made a wrong voting choice         The paid DEG will be burned and the veDEG will be unlocked"
      },
      "report(uint256,uint256)": {
        "notice": "Start a new incident report         1000 DEG tokens are staked to start a report         If the report is correct, reporter gets back 1000DEG + 10% shield income + extra 1000DEG         If the report is wrong, reporter loses 1000DEG to those who vote against         Only callable through proposal center"
      },
      "settle(uint256)": {
        "notice": "Settle the final result for a report"
      },
      "startVoting(uint256)": {
        "notice": "Start the voting process         Can only be started after the pending period         Will change the status from PENDING to VOTING"
      },
      "vote(uint256,uint256,uint256)": {
        "notice": "Vote on current reports         Voting power is decided by the (unlocked) balance of veDEG         Once voted, those veDEG will be locked         Rewarded if votes with majority         Punished if votes against majority"
      }
    },
    "notice": "Incident Report Contract         New reports for project hacks are handled inside this contract         Timeline for a report is:         |-----------------------|----------------------|-------|-------|               Pending Period         Voting Period       Extend Period         When a new report is proposed, it start with PENDING_STATUS.         The person who start the report need to deposit REPORT_THRESHOLD DEG tokens.         During PENDING_STATUS, users & security companies can look at the report event.         After PENDING_PERIOD, the voting can be started and status transfer to VOTING_STATUS.         Users can vote for or against the report with veDeg tokens.         VeDeg tokens used for voting will be tentatively locked until the voting is settled.         After VOTING_PERIOD, the voting can be settled and status transfer to SETTLED_STATUS.         Depending on the votes of each side, the result can be PASSED, REJECTED or TIED.         Different results for their veDeg tokens will be set depending on the result.         If the result has changes during the last 24 hours of voting, the voting will be extended.         The time can only be extended twice.         For voters:              PASSED: Who vote for will get all veDeg tokens from the opposite side              REJECTED: Who vote against will get all veDeg tokens from the opposite side              TIED: Users can unlock their veDeg tokens         For reporter:              PASSED: Get back REPORT_THRESHOLD and get extra REPORT_REWARD & 10% of total treasury income              REJECTED: Lose REPORT_THRESHOLD to whom vote against              TIED: Lose REPORT_THRESHOLD         When an incident report has passed and been executed         The corresponding priority pool will be liquidated which means:             - Move out some assets for users to claim             - Deploy new generation of crTokens and PRI-LP tokens             - Update the farming weights for the priority farming pool",
    "version": 1
  },
  "storageLayout": {
    "storage": [
      {
        "astId": 21667,
        "contract": "src/voting/incidentReport/IncidentReport.sol:IncidentReport",
        "label": "_owner",
        "offset": 0,
        "slot": "0",
        "type": "t_address"
      },
      {
        "astId": 23347,
        "contract": "src/voting/incidentReport/IncidentReport.sol:IncidentReport",
        "label": "priorityPoolFactory",
        "offset": 0,
        "slot": "1",
        "type": "t_contract(IPriorityPoolFactory)14366"
      },
      {
        "astId": 22013,
        "contract": "src/voting/incidentReport/IncidentReport.sol:IncidentReport",
        "label": "reportCounter",
        "offset": 0,
        "slot": "2",
        "type": "t_uint256"
      },
      {
        "astId": 22041,
        "contract": "src/voting/incidentReport/IncidentReport.sol:IncidentReport",
        "label": "reports",
        "offset": 0,
        "slot": "3",
        "type": "t_mapping(t_uint256,t_struct(Report)22036_storage)"
      },
      {
        "astId": 22046,
        "contract": "src/voting/incidentReport/IncidentReport.sol:IncidentReport",
        "label": "poolReports",
        "offset": 0,
        "slot": "4",
        "type": "t_mapping(t_uint256,t_array(t_uint256)dyn_storage)"
      },
      {
        "astId": 22058,
        "contract": "src/voting/incidentReport/IncidentReport.sol:IncidentReport",
        "label": "tempResults",
        "offset": 0,
        "slot": "5",
        "type": "t_mapping(t_uint256,t_struct(TempResult)22053_storage)"
      },
      {
        "astId": 22072,
        "contract": "src/voting/incidentReport/IncidentReport.sol:IncidentReport",
        "label": "votes",
        "offset": 0,
        "slot": "6",
        "type": "t_mapping(t_address,t_mapping(t_uint256,t_struct(UserVote)22065_storage))"
      },
      {
        "astId": 22076,
        "contract": "src/voting/incidentReport/IncidentReport.sol:IncidentReport",
        "label": "reported",
        "offset": 0,
        "slot": "7",
        "type": "t_mapping(t_address,t_bool)"
      }
    ],
    "types": {
      "t_address": {
        "encoding": "inplace",
        "label": "address",
        "numberOfBytes": "20"
      },
      "t_array(t_uint256)dyn_storage": {
        "base": "t_uint256",
        "encoding": "dynamic_array",
        "label": "uint256[]",
        "numberOfBytes": "32"
      },
      "t_bool": {
        "encoding": "inplace",
        "label": "bool",
        "numberOfBytes": "1"
      },
      "t_contract(IPriorityPoolFactory)14366": {
        "encoding": "inplace",
        "label": "contract IPriorityPoolFactory",
        "numberOfBytes": "20"
      },
      "t_mapping(t_address,t_bool)": {
        "encoding": "mapping",
        "key": "t_address",
        "label": "mapping(address => bool)",
        "numberOfBytes": "32",
        "value": "t_bool"
      },
      "t_mapping(t_address,t_mapping(t_uint256,t_struct(UserVote)22065_storage))": {
        "encoding": "mapping",
        "key": "t_address",
        "label": "mapping(address => mapping(uint256 => struct IncidentReport.UserVote))",
        "numberOfBytes": "32",
        "value": "t_mapping(t_uint256,t_struct(UserVote)22065_storage)"
      },
      "t_mapping(t_uint256,t_array(t_uint256)dyn_storage)": {
        "encoding": "mapping",
        "key": "t_uint256",
        "label": "mapping(uint256 => uint256[])",
        "numberOfBytes": "32",
        "value": "t_array(t_uint256)dyn_storage"
      },
      "t_mapping(t_uint256,t_struct(Report)22036_storage)": {
        "encoding": "mapping",
        "key": "t_uint256",
        "label": "mapping(uint256 => struct IncidentReport.Report)",
        "numberOfBytes": "32",
        "value": "t_struct(Report)22036_storage"
      },
      "t_mapping(t_uint256,t_struct(TempResult)22053_storage)": {
        "encoding": "mapping",
        "key": "t_uint256",
        "label": "mapping(uint256 => struct IncidentReport.TempResult)",
        "numberOfBytes": "32",
        "value": "t_struct(TempResult)22053_storage"
      },
      "t_mapping(t_uint256,t_struct(UserVote)22065_storage)": {
        "encoding": "mapping",
        "key": "t_uint256",
        "label": "mapping(uint256 => struct IncidentReport.UserVote)",
        "numberOfBytes": "32",
        "value": "t_struct(UserVote)22065_storage"
      },
      "t_struct(Report)22036_storage": {
        "encoding": "inplace",
        "label": "struct IncidentReport.Report",
        "members": [
          {
            "astId": 22015,
            "contract": "src/voting/incidentReport/IncidentReport.sol:IncidentReport",
            "label": "poolId",
            "offset": 0,
            "slot": "0",
            "type": "t_uint256"
          },
          {
            "astId": 22017,
            "contract": "src/voting/incidentReport/IncidentReport.sol:IncidentReport",
            "label": "reportTimestamp",
            "offset": 0,
            "slot": "1",
            "type": "t_uint256"
          },
          {
            "astId": 22019,
            "contract": "src/voting/incidentReport/IncidentReport.sol:IncidentReport",
            "label": "reporter",
            "offset": 0,
            "slot": "2",
            "type": "t_address"
          },
          {
            "astId": 22021,
            "contract": "src/voting/incidentReport/IncidentReport.sol:IncidentReport",
            "label": "voteTimestamp",
            "offset": 0,
            "slot": "3",
            "type": "t_uint256"
          },
          {
            "astId": 22023,
            "contract": "src/voting/incidentReport/IncidentReport.sol:IncidentReport",
            "label": "numFor",
            "offset": 0,
            "slot": "4",
            "type": "t_uint256"
          },
          {
            "astId": 22025,
            "contract": "src/voting/incidentReport/IncidentReport.sol:IncidentReport",
            "label": "numAgainst",
            "offset": 0,
            "slot": "5",
            "type": "t_uint256"
          },
          {
            "astId": 22027,
            "contract": "src/voting/incidentReport/IncidentReport.sol:IncidentReport",
            "label": "round",
            "offset": 0,
            "slot": "6",
            "type": "t_uint256"
          },
          {
            "astId": 22029,
            "contract": "src/voting/incidentReport/IncidentReport.sol:IncidentReport",
            "label": "status",
            "offset": 0,
            "slot": "7",
            "type": "t_uint256"
          },
          {
            "astId": 22031,
            "contract": "src/voting/incidentReport/IncidentReport.sol:IncidentReport",
            "label": "result",
            "offset": 0,
            "slot": "8",
            "type": "t_uint256"
          },
          {
            "astId": 22033,
            "contract": "src/voting/incidentReport/IncidentReport.sol:IncidentReport",
            "label": "votingReward",
            "offset": 0,
            "slot": "9",
            "type": "t_uint256"
          },
          {
            "astId": 22035,
            "contract": "src/voting/incidentReport/IncidentReport.sol:IncidentReport",
            "label": "payout",
            "offset": 0,
            "slot": "10",
            "type": "t_uint256"
          }
        ],
        "numberOfBytes": "352"
      },
      "t_struct(TempResult)22053_storage": {
        "encoding": "inplace",
        "label": "struct IncidentReport.TempResult",
        "members": [
          {
            "astId": 22048,
            "contract": "src/voting/incidentReport/IncidentReport.sol:IncidentReport",
            "label": "result",
            "offset": 0,
            "slot": "0",
            "type": "t_uint256"
          },
          {
            "astId": 22050,
            "contract": "src/voting/incidentReport/IncidentReport.sol:IncidentReport",
            "label": "sampleTimestamp",
            "offset": 0,
            "slot": "1",
            "type": "t_uint256"
          },
          {
            "astId": 22052,
            "contract": "src/voting/incidentReport/IncidentReport.sol:IncidentReport",
            "label": "hasChanged",
            "offset": 0,
            "slot": "2",
            "type": "t_bool"
          }
        ],
        "numberOfBytes": "96"
      },
      "t_struct(UserVote)22065_storage": {
        "encoding": "inplace",
        "label": "struct IncidentReport.UserVote",
        "members": [
          {
            "astId": 22060,
            "contract": "src/voting/incidentReport/IncidentReport.sol:IncidentReport",
            "label": "choice",
            "offset": 0,
            "slot": "0",
            "type": "t_uint256"
          },
          {
            "astId": 22062,
            "contract": "src/voting/incidentReport/IncidentReport.sol:IncidentReport",
            "label": "amount",
            "offset": 0,
            "slot": "1",
            "type": "t_uint256"
          },
          {
            "astId": 22064,
            "contract": "src/voting/incidentReport/IncidentReport.sol:IncidentReport",
            "label": "claimed",
            "offset": 0,
            "slot": "2",
            "type": "t_bool"
          }
        ],
        "numberOfBytes": "96"
      },
      "t_uint256": {
        "encoding": "inplace",
        "label": "uint256",
        "numberOfBytes": "32"
      }
    }
  }
}