{
  "address": "0x03b0aE656FcAC50D0E237DDB6Cb11007b2f509B0",
  "abi": [
    {
      "inputs": [],
      "name": "IncidentReport__AlreadyClaimed",
      "type": "error"
    },
    {
      "inputs": [],
      "name": "IncidentReport__AlreadyPaid",
      "type": "error"
    },
    {
      "inputs": [],
      "name": "IncidentReport__AlreadyReported",
      "type": "error"
    },
    {
      "inputs": [],
      "name": "IncidentReport__AlreadySettled",
      "type": "error"
    },
    {
      "inputs": [],
      "name": "IncidentReport__ChooseBothSides",
      "type": "error"
    },
    {
      "inputs": [],
      "name": "IncidentReport__NoReward",
      "type": "error"
    },
    {
      "inputs": [],
      "name": "IncidentReport__NotEnoughVeDEG",
      "type": "error"
    },
    {
      "inputs": [],
      "name": "IncidentReport__NotSettled",
      "type": "error"
    },
    {
      "inputs": [],
      "name": "IncidentReport__NotWrongChoice",
      "type": "error"
    },
    {
      "inputs": [],
      "name": "IncidentReport__OnlyExecutor",
      "type": "error"
    },
    {
      "inputs": [],
      "name": "IncidentReport__PayoutExceedCovered",
      "type": "error"
    },
    {
      "inputs": [],
      "name": "IncidentReport__PoolNotExist",
      "type": "error"
    },
    {
      "inputs": [],
      "name": "IncidentReport__QuorumRatioTooBig",
      "type": "error"
    },
    {
      "inputs": [],
      "name": "IncidentReport__WrongChoice",
      "type": "error"
    },
    {
      "inputs": [],
      "name": "IncidentReport__WrongPeriod",
      "type": "error"
    },
    {
      "inputs": [],
      "name": "IncidentReport__WrongStatus",
      "type": "error"
    },
    {
      "inputs": [],
      "name": "IncidentReport__ZeroAmount",
      "type": "error"
    },
    {
      "anonymous": false,
      "inputs": [
        {
          "indexed": false,
          "internalType": "address",
          "name": "payer",
          "type": "address"
        },
        {
          "indexed": false,
          "internalType": "address",
          "name": "user",
          "type": "address"
        },
        {
          "indexed": false,
          "internalType": "uint256",
          "name": "debt",
          "type": "uint256"
        },
        {
          "indexed": false,
          "internalType": "uint256",
          "name": "unlockAmount",
          "type": "uint256"
        }
      ],
      "name": "DebtPaid",
      "type": "event"
    },
    {
      "anonymous": false,
      "inputs": [
        {
          "indexed": false,
          "internalType": "uint8",
          "name": "version",
          "type": "uint8"
        }
      ],
      "name": "Initialized",
      "type": "event"
    },
    {
      "anonymous": false,
      "inputs": [
        {
          "indexed": true,
          "internalType": "address",
          "name": "previousOwner",
          "type": "address"
        },
        {
          "indexed": true,
          "internalType": "address",
          "name": "newOwner",
          "type": "address"
        }
      ],
      "name": "OwnershipTransferred",
      "type": "event"
    },
    {
      "anonymous": false,
      "inputs": [
        {
          "indexed": false,
          "internalType": "uint256",
          "name": "reportId",
          "type": "uint256"
        },
        {
          "indexed": false,
          "internalType": "uint256",
          "name": "closeTimestamp",
          "type": "uint256"
        }
      ],
      "name": "ReportClosed",
      "type": "event"
    },
    {
      "anonymous": false,
      "inputs": [
        {
          "indexed": false,
          "internalType": "uint256",
          "name": "reportId",
          "type": "uint256"
        },
        {
          "indexed": true,
          "internalType": "uint256",
          "name": "poolId",
          "type": "uint256"
        },
        {
          "indexed": false,
          "internalType": "uint256",
          "name": "reportTimestamp",
          "type": "uint256"
        },
        {
          "indexed": true,
          "internalType": "address",
          "name": "reporter",
          "type": "address"
        },
        {
          "indexed": false,
          "internalType": "uint256",
          "name": "payout",
          "type": "uint256"
        }
      ],
      "name": "ReportCreated",
      "type": "event"
    },
    {
      "anonymous": false,
      "inputs": [
        {
          "indexed": false,
          "internalType": "uint256",
          "name": "reportId",
          "type": "uint256"
        },
        {
          "indexed": false,
          "internalType": "uint256",
          "name": "round",
          "type": "uint256"
        }
      ],
      "name": "ReportExtended",
      "type": "event"
    },
    {
      "anonymous": false,
      "inputs": [
        {
          "indexed": false,
          "internalType": "uint256",
          "name": "reportId",
          "type": "uint256"
        }
      ],
      "name": "ReportFailed",
      "type": "event"
    },
    {
      "anonymous": false,
      "inputs": [
        {
          "indexed": false,
          "internalType": "uint256",
          "name": "reportId",
          "type": "uint256"
        },
        {
          "indexed": false,
          "internalType": "uint256",
          "name": "result",
          "type": "uint256"
        }
      ],
      "name": "ReportSettled",
      "type": "event"
    },
    {
      "anonymous": false,
      "inputs": [
        {
          "indexed": false,
          "internalType": "uint256",
          "name": "reportId",
          "type": "uint256"
        },
        {
          "indexed": true,
          "internalType": "address",
          "name": "user",
          "type": "address"
        },
        {
          "indexed": false,
          "internalType": "uint256",
          "name": "voteFor",
          "type": "uint256"
        },
        {
          "indexed": false,
          "internalType": "uint256",
          "name": "amount",
          "type": "uint256"
        }
      ],
      "name": "ReportVoted",
      "type": "event"
    },
    {
      "anonymous": false,
      "inputs": [
        {
          "indexed": false,
          "internalType": "uint256",
          "name": "reportId",
          "type": "uint256"
        },
        {
          "indexed": false,
          "internalType": "uint256",
          "name": "startTimestamp",
          "type": "uint256"
        }
      ],
      "name": "ReportVotingStart",
      "type": "event"
    },
    {
      "anonymous": false,
      "inputs": [
        {
          "indexed": false,
          "internalType": "uint256",
          "name": "reportId",
          "type": "uint256"
        },
        {
          "indexed": false,
          "internalType": "uint256",
          "name": "totalRewardToVoters",
          "type": "uint256"
        }
      ],
      "name": "VotingRewardSettled",
      "type": "event"
    },
    {
      "inputs": [],
      "name": "COOLDOWN_WRONG_REPORT",
      "outputs": [
        {
          "internalType": "uint256",
          "name": "",
          "type": "uint256"
        }
      ],
      "stateMutability": "view",
      "type": "function"
    },
    {
      "inputs": [],
      "name": "DEBT_RATIO",
      "outputs": [
        {
          "internalType": "uint256",
          "name": "",
          "type": "uint256"
        }
      ],
      "stateMutability": "view",
      "type": "function"
    },
    {
      "inputs": [],
      "name": "EXTEND_PERIOD",
      "outputs": [
        {
          "internalType": "uint256",
          "name": "",
          "type": "uint256"
        }
      ],
      "stateMutability": "view",
      "type": "function"
    },
    {
      "inputs": [],
      "name": "INCIDENT_VOTING_PERIOD",
      "outputs": [
        {
          "internalType": "uint256",
          "name": "",
          "type": "uint256"
        }
      ],
      "stateMutability": "view",
      "type": "function"
    },
    {
      "inputs": [],
      "name": "MAX_EXTEND_ROUND",
      "outputs": [
        {
          "internalType": "uint256",
          "name": "",
          "type": "uint256"
        }
      ],
      "stateMutability": "view",
      "type": "function"
    },
    {
      "inputs": [],
      "name": "PENDING_PERIOD",
      "outputs": [
        {
          "internalType": "uint256",
          "name": "",
          "type": "uint256"
        }
      ],
      "stateMutability": "view",
      "type": "function"
    },
    {
      "inputs": [],
      "name": "REPORTER_REWARD",
      "outputs": [
        {
          "internalType": "uint256",
          "name": "",
          "type": "uint256"
        }
      ],
      "stateMutability": "view",
      "type": "function"
    },
    {
      "inputs": [],
      "name": "REPORT_THRESHOLD",
      "outputs": [
        {
          "internalType": "uint256",
          "name": "",
          "type": "uint256"
        }
      ],
      "stateMutability": "view",
      "type": "function"
    },
    {
      "inputs": [],
      "name": "RESERVE_RATIO",
      "outputs": [
        {
          "internalType": "uint256",
          "name": "",
          "type": "uint256"
        }
      ],
      "stateMutability": "view",
      "type": "function"
    },
    {
      "inputs": [],
      "name": "REWARD_RATIO",
      "outputs": [
        {
          "internalType": "uint256",
          "name": "",
          "type": "uint256"
        }
      ],
      "stateMutability": "view",
      "type": "function"
    },
    {
      "inputs": [],
      "name": "SAMPLE_PERIOD",
      "outputs": [
        {
          "internalType": "uint256",
          "name": "",
          "type": "uint256"
        }
      ],
      "stateMutability": "view",
      "type": "function"
    },
    {
      "inputs": [
        {
          "internalType": "uint256",
          "name": "_id",
          "type": "uint256"
        }
      ],
      "name": "claimReward",
      "outputs": [],
      "stateMutability": "nonpayable",
      "type": "function"
    },
    {
      "inputs": [
        {
          "internalType": "uint256",
          "name": "_id",
          "type": "uint256"
        }
      ],
      "name": "closeReport",
      "outputs": [],
      "stateMutability": "nonpayable",
      "type": "function"
    },
    {
      "inputs": [
        {
          "internalType": "uint256",
          "name": "_reportId",
          "type": "uint256"
        }
      ],
      "name": "executed",
      "outputs": [],
      "stateMutability": "nonpayable",
      "type": "function"
    },
    {
      "inputs": [],
      "name": "executor",
      "outputs": [
        {
          "internalType": "address",
          "name": "",
          "type": "address"
        }
      ],
      "stateMutability": "view",
      "type": "function"
    },
    {
      "inputs": [
        {
          "internalType": "uint256",
          "name": "_poolId",
          "type": "uint256"
        }
      ],
      "name": "getPoolReports",
      "outputs": [
        {
          "internalType": "uint256[]",
          "name": "",
          "type": "uint256[]"
        }
      ],
      "stateMutability": "view",
      "type": "function"
    },
    {
      "inputs": [
        {
          "internalType": "uint256",
          "name": "_poolId",
          "type": "uint256"
        }
      ],
      "name": "getPoolReportsAmount",
      "outputs": [
        {
          "internalType": "uint256",
          "name": "",
          "type": "uint256"
        }
      ],
      "stateMutability": "view",
      "type": "function"
    },
    {
      "inputs": [
        {
          "internalType": "uint256",
          "name": "_id",
          "type": "uint256"
        }
      ],
      "name": "getReport",
      "outputs": [
        {
          "components": [
            {
              "internalType": "uint256",
              "name": "poolId",
              "type": "uint256"
            },
            {
              "internalType": "uint256",
              "name": "reportTimestamp",
              "type": "uint256"
            },
            {
              "internalType": "address",
              "name": "reporter",
              "type": "address"
            },
            {
              "internalType": "uint256",
              "name": "voteTimestamp",
              "type": "uint256"
            },
            {
              "internalType": "uint256",
              "name": "numFor",
              "type": "uint256"
            },
            {
              "internalType": "uint256",
              "name": "numAgainst",
              "type": "uint256"
            },
            {
              "internalType": "uint256",
              "name": "round",
              "type": "uint256"
            },
            {
              "internalType": "uint256",
              "name": "status",
              "type": "uint256"
            },
            {
              "internalType": "uint256",
              "name": "result",
              "type": "uint256"
            },
            {
              "internalType": "uint256",
              "name": "votingReward",
              "type": "uint256"
            },
            {
              "internalType": "uint256",
              "name": "payout",
              "type": "uint256"
            }
          ],
          "internalType": "struct IncidentReport.Report",
          "name": "",
          "type": "tuple"
        }
      ],
      "stateMutability": "view",
      "type": "function"
    },
    {
      "inputs": [
        {
          "internalType": "uint256",
          "name": "_poolId",
          "type": "uint256"
        }
      ],
      "name": "getTempResult",
      "outputs": [
        {
          "components": [
            {
              "internalType": "uint256",
              "name": "result",
              "type": "uint256"
            },
            {
              "internalType": "uint256",
              "name": "sampleTimestamp",
              "type": "uint256"
            },
            {
              "internalType": "bool",
              "name": "hasChanged",
              "type": "bool"
            }
          ],
          "internalType": "struct IncidentReport.TempResult",
          "name": "",
          "type": "tuple"
        }
      ],
      "stateMutability": "view",
      "type": "function"
    },
    {
      "inputs": [
        {
          "internalType": "address",
          "name": "_user",
          "type": "address"
        },
        {
          "internalType": "uint256",
          "name": "_poolId",
          "type": "uint256"
        }
      ],
      "name": "getUserVote",
      "outputs": [
        {
          "components": [
            {
              "internalType": "uint256",
              "name": "choice",
              "type": "uint256"
            },
            {
              "internalType": "uint256",
              "name": "amount",
              "type": "uint256"
            },
            {
              "internalType": "bool",
              "name": "claimed",
              "type": "bool"
            },
            {
              "internalType": "bool",
              "name": "paid",
              "type": "bool"
            }
          ],
          "internalType": "struct IncidentReport.UserVote",
          "name": "",
          "type": "tuple"
        }
      ],
      "stateMutability": "view",
      "type": "function"
    },
    {
      "inputs": [
        {
          "internalType": "address",
          "name": "_deg",
          "type": "address"
        },
        {
          "internalType": "address",
          "name": "_veDeg",
          "type": "address"
        },
        {
          "internalType": "address",
          "name": "_shield",
          "type": "address"
        }
      ],
      "name": "initialize",
      "outputs": [],
      "stateMutability": "nonpayable",
      "type": "function"
    },
    {
      "inputs": [],
      "name": "owner",
      "outputs": [
        {
          "internalType": "address",
          "name": "",
          "type": "address"
        }
      ],
      "stateMutability": "view",
      "type": "function"
    },
    {
      "inputs": [
        {
          "internalType": "uint256",
          "name": "_id",
          "type": "uint256"
        },
        {
          "internalType": "address",
          "name": "_user",
          "type": "address"
        }
      ],
      "name": "payDebt",
      "outputs": [],
      "stateMutability": "nonpayable",
      "type": "function"
    },
    {
      "inputs": [
        {
          "internalType": "uint256",
          "name": "",
          "type": "uint256"
        },
        {
          "internalType": "uint256",
          "name": "",
          "type": "uint256"
        }
      ],
      "name": "poolReports",
      "outputs": [
        {
          "internalType": "uint256",
          "name": "",
          "type": "uint256"
        }
      ],
      "stateMutability": "view",
      "type": "function"
    },
    {
      "inputs": [],
      "name": "priorityPoolFactory",
      "outputs": [
        {
          "internalType": "contract IPriorityPoolFactory",
          "name": "",
          "type": "address"
        }
      ],
      "stateMutability": "view",
      "type": "function"
    },
    {
      "inputs": [],
      "name": "quorumRatio",
      "outputs": [
        {
          "internalType": "uint256",
          "name": "",
          "type": "uint256"
        }
      ],
      "stateMutability": "view",
      "type": "function"
    },
    {
      "inputs": [],
      "name": "renounceOwnership",
      "outputs": [],
      "stateMutability": "nonpayable",
      "type": "function"
    },
    {
      "inputs": [
        {
          "internalType": "uint256",
          "name": "_poolId",
          "type": "uint256"
        },
        {
          "internalType": "uint256",
          "name": "_payout",
          "type": "uint256"
        }
      ],
      "name": "report",
      "outputs": [],
      "stateMutability": "nonpayable",
      "type": "function"
    },
    {
      "inputs": [],
      "name": "reportCounter",
      "outputs": [
        {
          "internalType": "uint256",
          "name": "",
          "type": "uint256"
        }
      ],
      "stateMutability": "view",
      "type": "function"
    },
    {
      "inputs": [
        {
          "internalType": "uint256",
          "name": "",
          "type": "uint256"
        }
      ],
      "name": "reported",
      "outputs": [
        {
          "internalType": "bool",
          "name": "",
          "type": "bool"
        }
      ],
      "stateMutability": "view",
      "type": "function"
    },
    {
      "inputs": [
        {
          "internalType": "uint256",
          "name": "",
          "type": "uint256"
        }
      ],
      "name": "reports",
      "outputs": [
        {
          "internalType": "uint256",
          "name": "poolId",
          "type": "uint256"
        },
        {
          "internalType": "uint256",
          "name": "reportTimestamp",
          "type": "uint256"
        },
        {
          "internalType": "address",
          "name": "reporter",
          "type": "address"
        },
        {
          "internalType": "uint256",
          "name": "voteTimestamp",
          "type": "uint256"
        },
        {
          "internalType": "uint256",
          "name": "numFor",
          "type": "uint256"
        },
        {
          "internalType": "uint256",
          "name": "numAgainst",
          "type": "uint256"
        },
        {
          "internalType": "uint256",
          "name": "round",
          "type": "uint256"
        },
        {
          "internalType": "uint256",
          "name": "status",
          "type": "uint256"
        },
        {
          "internalType": "uint256",
          "name": "result",
          "type": "uint256"
        },
        {
          "internalType": "uint256",
          "name": "votingReward",
          "type": "uint256"
        },
        {
          "internalType": "uint256",
          "name": "payout",
          "type": "uint256"
        }
      ],
      "stateMutability": "view",
      "type": "function"
    },
    {
      "inputs": [
        {
          "internalType": "address",
          "name": "_executor",
          "type": "address"
        }
      ],
      "name": "setExecutor",
      "outputs": [],
      "stateMutability": "nonpayable",
      "type": "function"
    },
    {
      "inputs": [
        {
          "internalType": "address",
          "name": "_priorityPoolFactory",
          "type": "address"
        }
      ],
      "name": "setPriorityPoolFactory",
      "outputs": [],
      "stateMutability": "nonpayable",
      "type": "function"
    },
    {
      "inputs": [
        {
          "internalType": "uint256",
          "name": "_ratio",
          "type": "uint256"
        }
      ],
      "name": "setQuorumRatio",
      "outputs": [],
      "stateMutability": "nonpayable",
      "type": "function"
    },
    {
      "inputs": [
        {
          "internalType": "uint256",
          "name": "_id",
          "type": "uint256"
        }
      ],
      "name": "setReported",
      "outputs": [],
      "stateMutability": "nonpayable",
      "type": "function"
    },
    {
      "inputs": [
        {
          "internalType": "uint256",
          "name": "_id",
          "type": "uint256"
        }
      ],
      "name": "settle",
      "outputs": [],
      "stateMutability": "nonpayable",
      "type": "function"
    },
    {
      "inputs": [
        {
          "internalType": "uint256",
          "name": "_id",
          "type": "uint256"
        }
      ],
      "name": "startVoting",
      "outputs": [],
      "stateMutability": "nonpayable",
      "type": "function"
    },
    {
      "inputs": [
        {
          "internalType": "uint256",
          "name": "",
          "type": "uint256"
        }
      ],
      "name": "tempResults",
      "outputs": [
        {
          "internalType": "uint256",
          "name": "result",
          "type": "uint256"
        },
        {
          "internalType": "uint256",
          "name": "sampleTimestamp",
          "type": "uint256"
        },
        {
          "internalType": "bool",
          "name": "hasChanged",
          "type": "bool"
        }
      ],
      "stateMutability": "view",
      "type": "function"
    },
    {
      "inputs": [
        {
          "internalType": "address",
          "name": "newOwner",
          "type": "address"
        }
      ],
      "name": "transferOwnership",
      "outputs": [],
      "stateMutability": "nonpayable",
      "type": "function"
    },
    {
      "inputs": [
        {
          "internalType": "uint256",
          "name": "_poolId",
          "type": "uint256"
        }
      ],
      "name": "unpausePools",
      "outputs": [],
      "stateMutability": "nonpayable",
      "type": "function"
    },
    {
      "inputs": [
        {
          "internalType": "uint256",
          "name": "_id",
          "type": "uint256"
        },
        {
          "internalType": "uint256",
          "name": "_isFor",
          "type": "uint256"
        },
        {
          "internalType": "uint256",
          "name": "_amount",
          "type": "uint256"
        }
      ],
      "name": "vote",
      "outputs": [],
      "stateMutability": "nonpayable",
      "type": "function"
    },
    {
      "inputs": [
        {
          "internalType": "address",
          "name": "",
          "type": "address"
        },
        {
          "internalType": "uint256",
          "name": "",
          "type": "uint256"
        }
      ],
      "name": "votes",
      "outputs": [
        {
          "internalType": "uint256",
          "name": "choice",
          "type": "uint256"
        },
        {
          "internalType": "uint256",
          "name": "amount",
          "type": "uint256"
        },
        {
          "internalType": "bool",
          "name": "claimed",
          "type": "bool"
        },
        {
          "internalType": "bool",
          "name": "paid",
          "type": "bool"
        }
      ],
      "stateMutability": "view",
      "type": "function"
    }
  ],
  "transactionHash": "0x8bed7ae3a41ec6509f5b22958cc22dc0cdfe945e34c7d9c391143dce4f36f918",
  "args": [],
  "numDeployments": 1,
  "solcInputHash": "4ab17a497cd30664118e2fb4196ee729",
  "bytecode": "0x6080806040523461001657612266908161001c8239f35b600080fdfe6080604052600480361015610014575b600080fd5b600090813560e01c90816312d5cc86146106635781631c3c0ea814611d7c57816320731ab814611d5f5781633d2f5bda14611cdb57816343a5ada214611c3b5781634a13a0ee14611bfb5781634aa0644714611bf05781634e7f9b1914611a935781636530db98146119d35781636f8a6e43146119aa578163715018a614611944578163753c09851461159b5781637aaf11c714611571578163805a219f146115555781638a6655d61461119b5781638da5cb5b146111705781638df8280014610d2e5781639418ce1714610ce0578163966d8a5f14610c615781639e17215514610c435781639f2524ee14610bd5578163a01bc01f14610b20578163ad35e1dc14610ad7578163ae169a5014610940578163af52834914610334578163b4643d2914610922578163b9bc38f214610904578163c0c53b8b14610765578163c34c08e51461073c578163c583777b14610711578163c942adf71461066e578163ce4f29fc14610663578163d3ecebd714610606578163d6069060146105d7578163d92747cc146105bb578163d9dc8f1d1461033f578163e37dbfd914610334578163e7d918e214610300578163f2fde38b14610263578163fc6e85d31461021857508063fd1238061461020e5763fe131778146101f057600080fd5b3461020b578060031936011261020b576020604051603c8152f35b80fd5b505061000f611e52565b90503461025f57602036600319011261025f57606091604091358152603b6020522080549060ff600260018301549201541690604051928352602083015215156040820152f35b5080fd5b90503461025f57602036600319011261025f5761027e611de2565b9060018060a01b0361029781855460101c163314611e95565b8216156102ad57506102a890611ece565b604051f35b60849060206040519162461bcd60e51b8352820152602660248201527f4f776e61626c653a206e6577206f776e657220697320746865207a65726f206160448201526564647265737360d01b6064820152fd5b90503461025f57602036600319011261025f576102a89061032e60018060a01b03845460101c163314611e95565b3561210b565b50505061000f611e78565b90503461025f57604036600319011261025f57803561035c611df8565b9060018060a01b0380831691828652602093603c8552604087208288528552604087209560405161038c81611fee565b875481526002600189015498888301998a5201549060ff82161515604082015260ff606082019260081c1615158252848a5260398852600860408b2001549081156105aa57818491511491821561059f575b8215610595575b50506105855751610576578651806000190460501181151516610561579061271060508a94930204948060325416803b1561053a576040805163342c6d4d60e11b815233858201908152602081018a90529092879284928391859183910103925af190811561055657859161053e575b505060335416885190803b1561053a5760408051634bdc2db560e11b81526001600160a01b039095169385019384526020840192909252849284928391859183910103925af1801561052f5761050f575b5094839291608095947fb4b7f3a9d727d0ac344f696304df335d2936ce3b0a58d52600c692632c9fa7259752603c85526040882090885284526002604088200161010061ff001982541617905551916040519333855284015260408301526060820152a1604051f35b61051d909594939295611fc0565b61052b5790919285386104a6565b8580fd5b6040513d84823e3d90fd5b8480fd5b61054790611fc0565b610552578338610455565b8380fd5b6040513d87823e3d90fd5b601182634e487b7160e01b6000525260246000fd5b604051631abf06a960e21b8152fd5b50604051631ae2961d60e01b8152fd5b14905082386103e5565b6003811492506103de565b60405163403ba18960e01b81528490fd5b823461020b578060031936011261020b57602060405160028152f35b90503461025f57602036600319011261025f57604060209260ff92358152603d84522054166040519015158152f35b90503461025f57602036600319011261025f576036546001600160a01b031633036106545735815260396020526102a86040822054808352603d6020526040832060ff19815416905561210b565b6040516324bba59760e21b8152fd5b50505061000f611dc5565b90503461025f57602036600319011261025f57604061016092823581526039602052209081549160018101549160018060a01b03600283015416906003830154908301546005840154600685015491600786015493600887015495600a6009890154980154986040519a8b5260208b015260408a01526060890152608088015260a087015260c086015260e0850152610100840152610120830152610140820152f35b90503461025f57602036600319011261025f57358152603d6020526040808220805460ff1916905551f35b823461020b578060031936011261020b576036546040516001600160a01b039091168152602090f35b90503461025f57606036600319011261025f57610780611de2565b90610789611df8565b916044356001600160a01b03818116929183900361000f57855460ff8160081c1615948580966108f7575b80156108e0575b15610885575060ff198116600117875584610874575b506107eb60ff875460081c166107e681611f2e565b611f2e565b6107f433611ece565b85549461080660ff8760081c16611f2e565b8160018060a01b03199316836032541617603255168160335416176033556034541617603455603260385561083c575b50604051f35b61ff00191681557f7f26b83ff96e1f2b6a682f133852f6798a09c465da95921460cefb3847402498602060405160018152a138610836565b61ffff1916610101178655386107d1565b60849060206040519162461bcd60e51b8352820152602e60248201527f496e697469616c697a61626c653a20636f6e747261637420697320616c72656160448201526d191e481a5b9a5d1a585b1a5e995960921b6064820152fd5b50303b1580156107bb5750600160ff8316146107bb565b50600160ff8316106107b4565b823461020b578060031936011261020b576020603754604051908152f35b823461020b578060031936011261020b576020603854604051908152f35b90503461025f57602080600319360112610ad357813591338452603c8252604084208385528252604084209060405161097881611fee565b82548152600260018401549385830194855201549060ff60408201928181161515845260081c16151560608201528587526039855260086040882001549182156105aa5751610ac25751869291908103610a815750848252603984526109e76009604084200154845190612092565b6032546001600160a01b031691823b15610552576040805163168ece7360e31b81523392810192835264e8d4a5100090930460208301529192849284928391859183910103925af1801561052f57610a6d575b5050610a47905133612188565b338352603c8152604083209183525260026040822001600160ff19825416179055604051f35b610a7690611fc0565b610552578338610a3a565b9080925060038214918215610ab8575b505015610aa95750610aa4905133612188565b610a47565b60405163158f1f4160e11b8152fd5b1490508138610a91565b60405163961e9b0d60e01b81528390fd5b8280fd5b823461020b57602036600319011261020b57610af1611de2565b60018060a01b0390610b0a82845460101c163314611e95565b1660018060a01b03196035541617603555604051f35b823461020b57604036600319011261020b576040608091610b3f611de2565b8160608451610b4d81611fee565b8281528260208201528286820152015260018060a01b03168152603c60205281812060243582526020522060405190610b8582611fee565b80549182815260026001830154926020830193845201549160ff6060604084019382861615158552019360081c161515835260405193845251602084015251151560408301525115156060820152f35b823461020b57604036600319011261020b576080906040906001600160a01b03610bfd611de2565b168152603c60205281812060243582526020522060ff815491600260018201549101549060405193845260208401528181161515604084015260081c1615156060820152f35b823461020b578060031936011261020b57602060405162093a808152f35b90503461025f57602036600319011261025f5781604091606093838051610c8781611fd3565b8281528260208201520152358152603b60205220604051610ca781611fd3565b815491828252604060ff600260018401549360208601948552015416920191151582526040519283525160208301525115156040820152f35b90503461025f57602036600319011261025f57803590610d0d60018060a01b03845460101c163314611e95565b6064821015610d1f5750603855604051f35b604051633f18bddf60e01b8152fd5b90503461025f5760209081600319360112610ad357803590818452603983526040842092600784019160029081845403611161576006860191825494600388015461012c19811161114e57610d909061012c610d898961204c565b910161202a565b421061113d576008880193845461112c57908992918397898552603b88528360ff81604088200154169182611122575b5050156110fe578884526039875260066040852001600181540190555b87156110ae575060039055610dfa8389015460058a01549061202a565b6033546040516318160ddd60e01b81526001600160a01b0396929188908290889082908b165afa908115610556578591611079575b50610e3f60649160385490612092565b041161102657869060018214998a15611004575b505586825260398552604082209280840154946005850154998490600014610f45575080603254169285015416823b15610552576044849283604051958694859363168ece7360e31b855284015269043c33c193756480000060248401525af1801561052f57610f23575b505060408095949392600080516020612211833981519152926009610f066064610ef66000805160206121f18339815191529c612062565b0493610f0185612078565b6120a5565b9101555b81519086825284820152a18351928352820152a1604051f35b610f31909695949396611fc0565b610f415786389592939495610ebe565b8680fd5b969798999592919350508714610f84575b50505050916000805160206121f1833981519152939160008051602061221183398151915260408095610f0a565b60649192939450610f9490612062565b049069021e19e0c9bab24000009082198211610ff15750604095936000805160206121f18339815191529795936009610fe3600080516020612211833981519152958a950193610f0185612078565b910155939583959750610f56565b634e487b7160e01b895260119052602488fd5b5461100e8161210b565b8452603d875260408420805460ff1916905538610e53565b92935050507f1dcabc7d01df1ee725f7c437ce5ec43e00015579d266f8a65d0911c4eb36ad909592949350555461105c8161210b565b8452603d82526040808520805460ff1916905551908152a1604051f35b809550888092503d83116110a7575b6110928183612009565b8101031261000f5792518a9390610e3f610e2f565b503d611088565b94505091507fb7891e9b049f460b1641e0a0556e45b1d2adfb12bd2c6459ea5a5d645d40179d96508594509460409552603b83528487200160ff19815416905554908351928352820152a1604051f35b96506039865261111c846040852001546005604086200154906120d7565b96610ddd565b1090508338610dc0565b60405163037d379160e11b81528490fd5b6040516324b1a7e960e01b81528390fd5b634e487b7160e01b8a526011845260248afd5b60405163363bbdfd60e01b8152fd5b823461020b578060031936011261020b575460405160109190911c6001600160a01b03168152602090f35b823461020b57606036600319011261020b57813560249283356044359183855260209060398252600260076040882001540361116157831561154657600183149182158061153b575b61152b576033546040516370a0823160e01b815233848201526001600160a01b039091169082818b81855afa9081156115205789916114f3575b5060405163cbf9fe5f60e01b815233858201529083828c81865afa9182156114e8578a926114b9575b508181106114a55703861161149457803b156114905760408051633c56aa6160e11b8152338582019081526020810189905290928a9284928391859183910103925af1801561148557908891611471575b5050338752603c8152604080882087895282528720600181018054909186911561146b57540361145a575b6112ce86825461202a565b905585875260398152604087209215611444578183016112ef86825461202a565b90555b858752603b815260ff60026040892001541615806113a5575b7f025e12b9cbba227587ada73c57f6b6b6a70272d7ed782681793125ec29afc77b96979850611355575b5050604080519586526020860192909252508301523391606090a2604051f35b603b60056113729385015494015491888a525260408820926120d7565b81548061138b575b508155600142910155858080611335565b600283019060ff801983541691841415161790558761137a565b50600383015460068401549061012c1981116114325761012c6113e491016113de6113d86113d28561204c565b8361202a565b9361204c565b9061202a565b60788110611432577f025e12b9cbba227587ada73c57f6b6b6a70272d7ed782681793125ec29afc77b979899506077190142119081611428575b508897965061130b565b905042108961141e565b634e487b7160e01b8952601184528989fd5b6005830161145386825461202a565b90556112f2565b6040516346bdda4560e11b81528390fd5b556112c3565b61147a90611fc0565b610f41578689611298565b6040513d8a823e3d90fd5b8780fd5b60405163729aeac360e01b81528390fd5b8a601186634e487b7160e01b600052526000fd5b9091508381813d83116114e1575b6114d18183612009565b8101031261000f5751908b611247565b503d6114c7565b6040513d8c823e3d90fd5b90508281813d8311611519575b61150a8183612009565b8101031261000f57518a61121e565b503d611500565b6040513d8b823e3d90fd5b50604051631422ca1d60e31b8152fd5b5060028414156111e4565b60405163583202e160e01b8152fd5b823461020b578060031936011261020b57602060405160508152f35b90503461025f57602036600319011261025f57602091604091358152603a83522054604051908152f35b823461020b576115aa36611e0e565b6035546040516315895f4760e31b81528086018490526001600160a01b03959392916024919086908290849082908b165afa90811561193957908791879161184f575b501693841561184057838652602094603d865260ff6040882054166118305785829160405192838092636835185f60e11b82525afa9081156118255787916117f8575b5083116117e957838652603d855260408620805460ff1916600190811790915560375460001998908981146117d757820196876037558789526039815285600a60408b208981554286820155600281013360018060a01b031982541617905585600782015501558160325416803b156117d35789809160446040518094819363342c6d4d60e11b8352338b84015269021e19e0c9bab24000008c8401525af180156114e8576117bf575b50868952603a90526040882080549990600160401b8b10156117ad579761170c8b8b9c9a86849d9a9b9c018155611e24565b909283549160031b90811b9283911b1691191617905560355416803b1561053a5784928360449289946040519788968795631b35278960e01b87528601528401525af1801561052f57611799575b50506040805193845242602085015283015233917fe4af8b66d6c4b132955627bb2e4e80a62c544714e2f19dafec934a3b156cbe9390606090a3604051f35b6117a290611fc0565b61055257838561175a565b634e487b7160e01b8a5260418552858afd5b986117cc603a929a611fc0565b98906116da565b8980fd5b634e487b7160e01b8952601184528489fd5b60405163cab1fa1b60e01b8152fd5b90508581813d831161181e575b61180f8183612009565b81010312610f41575188611630565b503d611805565b6040513d89823e3d90fd5b506040516360b2438960e01b8152fd5b60405163148115cf60e21b8152fd5b9150503d8087833e6118618183612009565b810160a082820312610f415781516001600160401b039081811161193557830182601f8201121561193557805191821161192357604051906020936118af85601f19601f8701160184612009565b8383528484830101116117d3579189918b95949383905b83821061190857509284836118f596936118ee95604097116118fc575b5050505084016120f7565b92016120f7565b50886115ed565b0101528a818e806118e3565b8181018601518284018701528d97508c9450908501906118c6565b634e487b7160e01b8952604188528489fd5b8880fd5b6040513d88823e3d90fd5b823461020b578060031936011261020b578054601081901c6001600160a01b031690611971338314611e95565b82604051927f8be0079c531659141344cd1fd0a4f28419497f9722a3daafe3b4186f6b6457e08285a362010000600160b01b0319168255f35b823461020b578060031936011261020b576035546040516001600160a01b039091168152602090f35b90503461025f57602036600319011261025f57803590611a0060018060a01b03845460101c163314611e95565b818352603960205260408320906007820190600182540361116157611a2860018401546120c5565b611a84575091611a736040926101947f17b76cf2012024f7fe05b4a8b036b188464d5b49b7c8532e95c5c67a4b792eb29555828652603d60205283862060ff1981541690555461210b565b8151908152426020820152a1604051f35b6040516324b1a7e960e01b8152fd5b90503461025f57602036600319011261025f5761014061016092604051611ab981611f8e565b8181528160208201528160408201528160608201528160808201528160a08201528160c08201528160e08201526040610100928084840152808561012094828682015201528535815260396020522091600a60405193611b1885611f8e565b8054968786526001820154602087015260018060a01b036002830154166040870152600382015460608701528101546080860152600581015460a0860152600681015460c0860152600781015460e08601526008810154838601526009810154848601520154848401526040519485526020830151602086015260018060a01b036040840151166040860152606083015160608601526080830151608086015260a083015160a086015260c083015160c086015260e083015160e0860152808301519085015280820151908401520151610140820152f35b50505061000f611e52565b823461020b57611c0a36611e0e565b91908152603a6020526040812090815483101561020b576020611c2d8484611e24565b90546040519160031b1c8152f35b90503461025f5760209081600319360112610ad357358252603a81526040822060405192838383549182815201908193835284832090835b818110611cc75750505084611c89910385612009565b60405193838594850191818652518092526040850193925b828110611cb057505050500390f35b835185528695509381019392810192600101611ca1565b825484529286019260019283019201611c73565b90503461025f57602036600319011261025f57803590818352603960205260408320906007820190600182540361116157611d1960018401546120c5565b15611a8457509160409160027fde7965c8d6f24b73501e8bcad1a4f03937db4f902bfda3bee08b335accf0749694556003429101558151908152426020820152a1604051f35b823461020b578060031936011261020b57602060405161012c8152f35b823461020b57602036600319011261020b57611d96611de2565b60018060a01b0390611daf82845460101c163314611e95565b1660018060a01b03196036541617603655604051f35b503461000f57600036600319011261000f57602060405160788152f35b600435906001600160a01b038216820361000f57565b602435906001600160a01b038216820361000f57565b604090600319011261000f576004359060243590565b8054821015611e3c5760005260206000200190600090565b634e487b7160e01b600052603260045260246000fd5b503461000f57600036600319011261000f57602060405169021e19e0c9bab24000008152f35b503461000f57600036600319011261000f57602060405160288152f35b15611e9c57565b60405162461bcd60e51b815260206004820152600a60248201526927b7363c9037bbb732b960b11b6044820152606490fd5b6000549060018060a01b03808216908360101c167f8be0079c531659141344cd1fd0a4f28419497f9722a3daafe3b4186f6b6457e06000604051a362010000600160b01b031990911660109190911b62010000600160b01b031617600055565b15611f3557565b60405162461bcd60e51b815260206004820152602b60248201527f496e697469616c697a61626c653a20636f6e7472616374206973206e6f74206960448201526a6e697469616c697a696e6760a81b6064820152608490fd5b61016081019081106001600160401b03821117611faa57604052565b634e487b7160e01b600052604160045260246000fd5b6001600160401b038111611faa57604052565b606081019081106001600160401b03821117611faa57604052565b608081019081106001600160401b03821117611faa57604052565b90601f801991011681019081106001600160401b03821117611faa57604052565b81198111612036570190565b634e487b7160e01b600052601160045260246000fd5b8060001904607811811515166120365760780290565b8060001904602811811515166120365760280290565b64e8d4a51000908060001904821181151516612036570290565b8060001904821181151516612036570290565b81156120af570490565b634e487b7160e01b600052601260045260246000fd5b603c19811161203657603c0142101590565b818111156120e75750506001905b565b10156120f257600290565b600390565b51906001600160a01b038216820361000f57565b6035546001600160a01b031690813b1561000f57604051918291631b35278960e01b835260048301528160446000938480948160248401525af1801561217b57612153575050565b6001600160401b0382116121675750604052565b634e487b7160e01b81526041600452602490fd5b50604051903d90823e3d90fd5b6033546001600160a01b031691823b1561000f57604051634bdc2db560e11b81526001600160a01b039290921660048301526024820152906000908290604490829084905af180156121e4576121db5750565b6120e590611fc0565b6040513d6000823e3d90fdfe30922d3a94c33e0ce3f99be437cbdf00f141e304f742a1cbd0df5cc5b490cd45bf97c766fd98feb70e7d5cc384ac953bcce9a7ca082cf57da33a199d67f7b7aba26469706673582212200ff498a67769a61c54d064157cd703fb5fe3a6fb6be71cb573aa61645b48563f64736f6c634300080f0033",
  "devdoc": {
    "kind": "dev",
    "methods": {
      "claimReward(uint256)": {
        "params": {
          "_id": "Report id"
        }
      },
      "closeReport(uint256)": {
        "params": {
          "_id": "Report id"
        }
      },
      "executed(uint256)": {
        "params": {
          "_reportId": "Report id"
        }
      },
      "owner()": {
        "details": "Returns the address of the current owner."
      },
      "payDebt(uint256,address)": {
        "params": {
          "_id": "Report id",
          "_user": "User address (can pay debt for another user)"
        }
      },
      "renounceOwnership()": {
        "details": "Leaves the contract without owner. It will not be possible to call `onlyOwner` functions anymore. Can only be called by the current owner. NOTE: Renouncing ownership will leave the contract without an owner, thereby removing any functionality that is only available to the owner."
      },
      "report(uint256,uint256)": {
        "params": {
          "_payout": "Payout amount of this report",
          "_poolId": "Pool id to report incident"
        }
      },
      "settle(uint256)": {
        "params": {
          "_id": "Report id"
        }
      },
      "startVoting(uint256)": {
        "params": {
          "_id": "Report id"
        }
      },
      "transferOwnership(address)": {
        "details": "Transfers ownership of the contract to a new account (`newOwner`). Can only be called by the current owner."
      },
      "vote(uint256,uint256,uint256)": {
        "params": {
          "_amount": "Amount of veDEG used for this vote",
          "_id": "Id of the report to be voted on",
          "_isFor": "The user's choice (1: vote for, 2: vote against)"
        }
      }
    },
    "version": 1
  },
  "userdoc": {
    "kind": "user",
    "methods": {
      "claimReward(uint256)": {
        "notice": "Claim the voting reward         Only callable through proposal center"
      },
      "closeReport(uint256)": {
        "notice": "Close a pending report         Only owner can close a pending report         Can only be closed before the pending period ends         Will change the status from PENDING to CLOSED"
      },
      "executed(uint256)": {
        "notice": "Update status after execution         Only callable by executor"
      },
      "payDebt(uint256,address)": {
        "notice": "Pay debt to get back veDEG         For those who made a wrong voting choice         The paid DEG will be burned and the veDEG will be unlocked         Can not call this function when result is TIED or choose the correct side"
      },
      "report(uint256,uint256)": {
        "notice": "Start a new incident report         1000 DEG tokens are staked to start a report         If the report is correct, reporter gets back 1000DEG + 10% shield income + extra 1000DEG         If the report is wrong, reporter loses 1000DEG to those who vote against         Only callable through proposal center"
      },
      "settle(uint256)": {
        "notice": "Settle the final result for a report"
      },
      "startVoting(uint256)": {
        "notice": "Start the voting process         Can only be started after the pending period         Will change the status from PENDING to VOTING"
      },
      "vote(uint256,uint256,uint256)": {
        "notice": "Vote on current reports         Voting power is decided by the (unlocked) balance of veDEG         Once voted, those veDEG will be locked         Rewarded if votes with majority         Punished if votes against majority"
      }
    },
    "notice": "Incident Report Contract         New reports for project hacks are handled inside this contract         Timeline for a report is:         |-----------------------|----------------------|-------|-------|               Pending Period         Voting Period       Extend Period         When a new report is proposed, it start with PENDING_STATUS.         The person who start the report need to deposit REPORT_THRESHOLD DEG tokens.         During PENDING_STATUS, users & security companies can look at the report event.         After PENDING_PERIOD, the voting can be started and status transfer to VOTING_STATUS.         Users can vote for or against the report with veDeg tokens.         VeDeg tokens used for voting will be tentatively locked until the voting is settled.         After VOTING_PERIOD, the voting can be settled and status transfer to SETTLED_STATUS.         Depending on the votes of each side, the result can be PASSED, REJECTED or TIED.         Different results for their veDeg tokens will be set depending on the result.         If the result has changes during the last 24 hours of voting, the voting will be extended.         The time can only be extended twice.         For voters:              PASSED: Who vote for will get all veDeg tokens from the opposite side              REJECTED: Who vote against will get all veDeg tokens from the opposite side              TIED: Users can unlock their veDeg tokens         For reporter:              PASSED: Get back REPORT_THRESHOLD and get extra REPORT_REWARD & 10% of total treasury income              REJECTED: Lose REPORT_THRESHOLD to whom vote against              TIED: Lose REPORT_THRESHOLD         When an incident report has passed and been executed         The corresponding priority pool will be liquidated which means:             - Move out some assets for users to claim             - Deploy new generation of crTokens and PRI-LP tokens             - Update the farming weights for the priority farming pool",
    "version": 1
  },
  "storageLayout": {
    "storage": [
      {
        "astId": 52,
        "contract": "src/voting/incidentReport/IncidentReport.sol:IncidentReport",
        "label": "_initialized",
        "offset": 0,
        "slot": "0",
        "type": "t_uint8"
      },
      {
        "astId": 55,
        "contract": "src/voting/incidentReport/IncidentReport.sol:IncidentReport",
        "label": "_initializing",
        "offset": 1,
        "slot": "0",
        "type": "t_bool"
      },
      {
        "astId": 23319,
        "contract": "src/voting/incidentReport/IncidentReport.sol:IncidentReport",
        "label": "_owner",
        "offset": 2,
        "slot": "0",
        "type": "t_address"
      },
      {
        "astId": 23426,
        "contract": "src/voting/incidentReport/IncidentReport.sol:IncidentReport",
        "label": "__gap",
        "offset": 0,
        "slot": "1",
        "type": "t_array(t_uint256)49_storage"
      },
      {
        "astId": 14000,
        "contract": "src/voting/incidentReport/IncidentReport.sol:IncidentReport",
        "label": "deg",
        "offset": 0,
        "slot": "50",
        "type": "t_contract(IDegisToken)14127"
      },
      {
        "astId": 14003,
        "contract": "src/voting/incidentReport/IncidentReport.sol:IncidentReport",
        "label": "veDeg",
        "offset": 0,
        "slot": "51",
        "type": "t_contract(IVeDEG)15276"
      },
      {
        "astId": 14006,
        "contract": "src/voting/incidentReport/IncidentReport.sol:IncidentReport",
        "label": "shield",
        "offset": 0,
        "slot": "52",
        "type": "t_contract(IShield)15231"
      },
      {
        "astId": 25302,
        "contract": "src/voting/incidentReport/IncidentReport.sol:IncidentReport",
        "label": "priorityPoolFactory",
        "offset": 0,
        "slot": "53",
        "type": "t_contract(IPriorityPoolFactory)15153"
      },
      {
        "astId": 25304,
        "contract": "src/voting/incidentReport/IncidentReport.sol:IncidentReport",
        "label": "executor",
        "offset": 0,
        "slot": "54",
        "type": "t_address"
      },
      {
        "astId": 23811,
        "contract": "src/voting/incidentReport/IncidentReport.sol:IncidentReport",
        "label": "reportCounter",
        "offset": 0,
        "slot": "55",
        "type": "t_uint256"
      },
      {
        "astId": 23813,
        "contract": "src/voting/incidentReport/IncidentReport.sol:IncidentReport",
        "label": "quorumRatio",
        "offset": 0,
        "slot": "56",
        "type": "t_uint256"
      },
      {
        "astId": 23841,
        "contract": "src/voting/incidentReport/IncidentReport.sol:IncidentReport",
        "label": "reports",
        "offset": 0,
        "slot": "57",
        "type": "t_mapping(t_uint256,t_struct(Report)23836_storage)"
      },
      {
        "astId": 23846,
        "contract": "src/voting/incidentReport/IncidentReport.sol:IncidentReport",
        "label": "poolReports",
        "offset": 0,
        "slot": "58",
        "type": "t_mapping(t_uint256,t_array(t_uint256)dyn_storage)"
      },
      {
        "astId": 23858,
        "contract": "src/voting/incidentReport/IncidentReport.sol:IncidentReport",
        "label": "tempResults",
        "offset": 0,
        "slot": "59",
        "type": "t_mapping(t_uint256,t_struct(TempResult)23853_storage)"
      },
      {
        "astId": 23874,
        "contract": "src/voting/incidentReport/IncidentReport.sol:IncidentReport",
        "label": "votes",
        "offset": 0,
        "slot": "60",
        "type": "t_mapping(t_address,t_mapping(t_uint256,t_struct(UserVote)23867_storage))"
      },
      {
        "astId": 23878,
        "contract": "src/voting/incidentReport/IncidentReport.sol:IncidentReport",
        "label": "reported",
        "offset": 0,
        "slot": "61",
        "type": "t_mapping(t_uint256,t_bool)"
      }
    ],
    "types": {
      "t_address": {
        "encoding": "inplace",
        "label": "address",
        "numberOfBytes": "20"
      },
      "t_array(t_uint256)49_storage": {
        "base": "t_uint256",
        "encoding": "inplace",
        "label": "uint256[49]",
        "numberOfBytes": "1568"
      },
      "t_array(t_uint256)dyn_storage": {
        "base": "t_uint256",
        "encoding": "dynamic_array",
        "label": "uint256[]",
        "numberOfBytes": "32"
      },
      "t_bool": {
        "encoding": "inplace",
        "label": "bool",
        "numberOfBytes": "1"
      },
      "t_contract(IDegisToken)14127": {
        "encoding": "inplace",
        "label": "contract IDegisToken",
        "numberOfBytes": "20"
      },
      "t_contract(IPriorityPoolFactory)15153": {
        "encoding": "inplace",
        "label": "contract IPriorityPoolFactory",
        "numberOfBytes": "20"
      },
      "t_contract(IShield)15231": {
        "encoding": "inplace",
        "label": "contract IShield",
        "numberOfBytes": "20"
      },
      "t_contract(IVeDEG)15276": {
        "encoding": "inplace",
        "label": "contract IVeDEG",
        "numberOfBytes": "20"
      },
      "t_mapping(t_address,t_mapping(t_uint256,t_struct(UserVote)23867_storage))": {
        "encoding": "mapping",
        "key": "t_address",
        "label": "mapping(address => mapping(uint256 => struct IncidentReport.UserVote))",
        "numberOfBytes": "32",
        "value": "t_mapping(t_uint256,t_struct(UserVote)23867_storage)"
      },
      "t_mapping(t_uint256,t_array(t_uint256)dyn_storage)": {
        "encoding": "mapping",
        "key": "t_uint256",
        "label": "mapping(uint256 => uint256[])",
        "numberOfBytes": "32",
        "value": "t_array(t_uint256)dyn_storage"
      },
      "t_mapping(t_uint256,t_bool)": {
        "encoding": "mapping",
        "key": "t_uint256",
        "label": "mapping(uint256 => bool)",
        "numberOfBytes": "32",
        "value": "t_bool"
      },
      "t_mapping(t_uint256,t_struct(Report)23836_storage)": {
        "encoding": "mapping",
        "key": "t_uint256",
        "label": "mapping(uint256 => struct IncidentReport.Report)",
        "numberOfBytes": "32",
        "value": "t_struct(Report)23836_storage"
      },
      "t_mapping(t_uint256,t_struct(TempResult)23853_storage)": {
        "encoding": "mapping",
        "key": "t_uint256",
        "label": "mapping(uint256 => struct IncidentReport.TempResult)",
        "numberOfBytes": "32",
        "value": "t_struct(TempResult)23853_storage"
      },
      "t_mapping(t_uint256,t_struct(UserVote)23867_storage)": {
        "encoding": "mapping",
        "key": "t_uint256",
        "label": "mapping(uint256 => struct IncidentReport.UserVote)",
        "numberOfBytes": "32",
        "value": "t_struct(UserVote)23867_storage"
      },
      "t_struct(Report)23836_storage": {
        "encoding": "inplace",
        "label": "struct IncidentReport.Report",
        "members": [
          {
            "astId": 23815,
            "contract": "src/voting/incidentReport/IncidentReport.sol:IncidentReport",
            "label": "poolId",
            "offset": 0,
            "slot": "0",
            "type": "t_uint256"
          },
          {
            "astId": 23817,
            "contract": "src/voting/incidentReport/IncidentReport.sol:IncidentReport",
            "label": "reportTimestamp",
            "offset": 0,
            "slot": "1",
            "type": "t_uint256"
          },
          {
            "astId": 23819,
            "contract": "src/voting/incidentReport/IncidentReport.sol:IncidentReport",
            "label": "reporter",
            "offset": 0,
            "slot": "2",
            "type": "t_address"
          },
          {
            "astId": 23821,
            "contract": "src/voting/incidentReport/IncidentReport.sol:IncidentReport",
            "label": "voteTimestamp",
            "offset": 0,
            "slot": "3",
            "type": "t_uint256"
          },
          {
            "astId": 23823,
            "contract": "src/voting/incidentReport/IncidentReport.sol:IncidentReport",
            "label": "numFor",
            "offset": 0,
            "slot": "4",
            "type": "t_uint256"
          },
          {
            "astId": 23825,
            "contract": "src/voting/incidentReport/IncidentReport.sol:IncidentReport",
            "label": "numAgainst",
            "offset": 0,
            "slot": "5",
            "type": "t_uint256"
          },
          {
            "astId": 23827,
            "contract": "src/voting/incidentReport/IncidentReport.sol:IncidentReport",
            "label": "round",
            "offset": 0,
            "slot": "6",
            "type": "t_uint256"
          },
          {
            "astId": 23829,
            "contract": "src/voting/incidentReport/IncidentReport.sol:IncidentReport",
            "label": "status",
            "offset": 0,
            "slot": "7",
            "type": "t_uint256"
          },
          {
            "astId": 23831,
            "contract": "src/voting/incidentReport/IncidentReport.sol:IncidentReport",
            "label": "result",
            "offset": 0,
            "slot": "8",
            "type": "t_uint256"
          },
          {
            "astId": 23833,
            "contract": "src/voting/incidentReport/IncidentReport.sol:IncidentReport",
            "label": "votingReward",
            "offset": 0,
            "slot": "9",
            "type": "t_uint256"
          },
          {
            "astId": 23835,
            "contract": "src/voting/incidentReport/IncidentReport.sol:IncidentReport",
            "label": "payout",
            "offset": 0,
            "slot": "10",
            "type": "t_uint256"
          }
        ],
        "numberOfBytes": "352"
      },
      "t_struct(TempResult)23853_storage": {
        "encoding": "inplace",
        "label": "struct IncidentReport.TempResult",
        "members": [
          {
            "astId": 23848,
            "contract": "src/voting/incidentReport/IncidentReport.sol:IncidentReport",
            "label": "result",
            "offset": 0,
            "slot": "0",
            "type": "t_uint256"
          },
          {
            "astId": 23850,
            "contract": "src/voting/incidentReport/IncidentReport.sol:IncidentReport",
            "label": "sampleTimestamp",
            "offset": 0,
            "slot": "1",
            "type": "t_uint256"
          },
          {
            "astId": 23852,
            "contract": "src/voting/incidentReport/IncidentReport.sol:IncidentReport",
            "label": "hasChanged",
            "offset": 0,
            "slot": "2",
            "type": "t_bool"
          }
        ],
        "numberOfBytes": "96"
      },
      "t_struct(UserVote)23867_storage": {
        "encoding": "inplace",
        "label": "struct IncidentReport.UserVote",
        "members": [
          {
            "astId": 23860,
            "contract": "src/voting/incidentReport/IncidentReport.sol:IncidentReport",
            "label": "choice",
            "offset": 0,
            "slot": "0",
            "type": "t_uint256"
          },
          {
            "astId": 23862,
            "contract": "src/voting/incidentReport/IncidentReport.sol:IncidentReport",
            "label": "amount",
            "offset": 0,
            "slot": "1",
            "type": "t_uint256"
          },
          {
            "astId": 23864,
            "contract": "src/voting/incidentReport/IncidentReport.sol:IncidentReport",
            "label": "claimed",
            "offset": 0,
            "slot": "2",
            "type": "t_bool"
          },
          {
            "astId": 23866,
            "contract": "src/voting/incidentReport/IncidentReport.sol:IncidentReport",
            "label": "paid",
            "offset": 1,
            "slot": "2",
            "type": "t_bool"
          }
        ],
        "numberOfBytes": "96"
      },
      "t_uint256": {
        "encoding": "inplace",
        "label": "uint256",
        "numberOfBytes": "32"
      },
      "t_uint8": {
        "encoding": "inplace",
        "label": "uint8",
        "numberOfBytes": "1"
      }
    }
  }
}