{
  "address": "0x23aB66EDe2F24db30D892F24AeB11248aF786873",
  "abi": [
    {
      "inputs": [],
      "name": "IncidentReport__AlreadyClaimed",
      "type": "error"
    },
    {
      "inputs": [],
      "name": "IncidentReport__AlreadyPaid",
      "type": "error"
    },
    {
      "inputs": [],
      "name": "IncidentReport__AlreadyReported",
      "type": "error"
    },
    {
      "inputs": [],
      "name": "IncidentReport__AlreadySettled",
      "type": "error"
    },
    {
      "inputs": [],
      "name": "IncidentReport__ChooseBothSides",
      "type": "error"
    },
    {
      "inputs": [],
      "name": "IncidentReport__NoReward",
      "type": "error"
    },
    {
      "inputs": [],
      "name": "IncidentReport__NotEnoughVeDEG",
      "type": "error"
    },
    {
      "inputs": [],
      "name": "IncidentReport__NotSettled",
      "type": "error"
    },
    {
      "inputs": [],
      "name": "IncidentReport__NotWrongChoice",
      "type": "error"
    },
    {
      "inputs": [],
      "name": "IncidentReport__OnlyExecutor",
      "type": "error"
    },
    {
      "inputs": [],
      "name": "IncidentReport__PayoutExceedCovered",
      "type": "error"
    },
    {
      "inputs": [],
      "name": "IncidentReport__PoolNotExist",
      "type": "error"
    },
    {
      "inputs": [],
      "name": "IncidentReport__QuorumRatioTooBig",
      "type": "error"
    },
    {
      "inputs": [],
      "name": "IncidentReport__WrongChoice",
      "type": "error"
    },
    {
      "inputs": [],
      "name": "IncidentReport__WrongPeriod",
      "type": "error"
    },
    {
      "inputs": [],
      "name": "IncidentReport__WrongStatus",
      "type": "error"
    },
    {
      "inputs": [],
      "name": "IncidentReport__ZeroAmount",
      "type": "error"
    },
    {
      "anonymous": false,
      "inputs": [
        {
          "indexed": false,
          "internalType": "address",
          "name": "payer",
          "type": "address"
        },
        {
          "indexed": false,
          "internalType": "address",
          "name": "user",
          "type": "address"
        },
        {
          "indexed": false,
          "internalType": "uint256",
          "name": "debt",
          "type": "uint256"
        },
        {
          "indexed": false,
          "internalType": "uint256",
          "name": "unlockAmount",
          "type": "uint256"
        }
      ],
      "name": "DebtPaid",
      "type": "event"
    },
    {
      "anonymous": false,
      "inputs": [
        {
          "indexed": false,
          "internalType": "uint8",
          "name": "version",
          "type": "uint8"
        }
      ],
      "name": "Initialized",
      "type": "event"
    },
    {
      "anonymous": false,
      "inputs": [
        {
          "indexed": true,
          "internalType": "address",
          "name": "previousOwner",
          "type": "address"
        },
        {
          "indexed": true,
          "internalType": "address",
          "name": "newOwner",
          "type": "address"
        }
      ],
      "name": "OwnershipTransferred",
      "type": "event"
    },
    {
      "anonymous": false,
      "inputs": [
        {
          "indexed": false,
          "internalType": "uint256",
          "name": "reportId",
          "type": "uint256"
        },
        {
          "indexed": false,
          "internalType": "uint256",
          "name": "closeTimestamp",
          "type": "uint256"
        }
      ],
      "name": "ReportClosed",
      "type": "event"
    },
    {
      "anonymous": false,
      "inputs": [
        {
          "indexed": false,
          "internalType": "uint256",
          "name": "reportId",
          "type": "uint256"
        },
        {
          "indexed": true,
          "internalType": "uint256",
          "name": "poolId",
          "type": "uint256"
        },
        {
          "indexed": false,
          "internalType": "uint256",
          "name": "reportTimestamp",
          "type": "uint256"
        },
        {
          "indexed": true,
          "internalType": "address",
          "name": "reporter",
          "type": "address"
        },
        {
          "indexed": false,
          "internalType": "uint256",
          "name": "payout",
          "type": "uint256"
        }
      ],
      "name": "ReportCreated",
      "type": "event"
    },
    {
      "anonymous": false,
      "inputs": [
        {
          "indexed": false,
          "internalType": "uint256",
          "name": "reportId",
          "type": "uint256"
        },
        {
          "indexed": false,
          "internalType": "uint256",
          "name": "round",
          "type": "uint256"
        }
      ],
      "name": "ReportExtended",
      "type": "event"
    },
    {
      "anonymous": false,
      "inputs": [
        {
          "indexed": false,
          "internalType": "uint256",
          "name": "reportId",
          "type": "uint256"
        }
      ],
      "name": "ReportFailed",
      "type": "event"
    },
    {
      "anonymous": false,
      "inputs": [
        {
          "indexed": false,
          "internalType": "uint256",
          "name": "reportId",
          "type": "uint256"
        },
        {
          "indexed": false,
          "internalType": "uint256",
          "name": "result",
          "type": "uint256"
        }
      ],
      "name": "ReportSettled",
      "type": "event"
    },
    {
      "anonymous": false,
      "inputs": [
        {
          "indexed": false,
          "internalType": "uint256",
          "name": "reportId",
          "type": "uint256"
        },
        {
          "indexed": true,
          "internalType": "address",
          "name": "user",
          "type": "address"
        },
        {
          "indexed": false,
          "internalType": "uint256",
          "name": "voteFor",
          "type": "uint256"
        },
        {
          "indexed": false,
          "internalType": "uint256",
          "name": "amount",
          "type": "uint256"
        }
      ],
      "name": "ReportVoted",
      "type": "event"
    },
    {
      "anonymous": false,
      "inputs": [
        {
          "indexed": false,
          "internalType": "uint256",
          "name": "reportId",
          "type": "uint256"
        },
        {
          "indexed": false,
          "internalType": "uint256",
          "name": "startTimestamp",
          "type": "uint256"
        }
      ],
      "name": "ReportVotingStart",
      "type": "event"
    },
    {
      "anonymous": false,
      "inputs": [
        {
          "indexed": false,
          "internalType": "uint256",
          "name": "reportId",
          "type": "uint256"
        },
        {
          "indexed": false,
          "internalType": "uint256",
          "name": "totalRewardToVoters",
          "type": "uint256"
        }
      ],
      "name": "VotingRewardSettled",
      "type": "event"
    },
    {
      "inputs": [],
      "name": "COOLDOWN_WRONG_REPORT",
      "outputs": [
        {
          "internalType": "uint256",
          "name": "",
          "type": "uint256"
        }
      ],
      "stateMutability": "view",
      "type": "function"
    },
    {
      "inputs": [],
      "name": "DEBT_RATIO",
      "outputs": [
        {
          "internalType": "uint256",
          "name": "",
          "type": "uint256"
        }
      ],
      "stateMutability": "view",
      "type": "function"
    },
    {
      "inputs": [],
      "name": "EXTEND_PERIOD",
      "outputs": [
        {
          "internalType": "uint256",
          "name": "",
          "type": "uint256"
        }
      ],
      "stateMutability": "view",
      "type": "function"
    },
    {
      "inputs": [],
      "name": "INCIDENT_VOTING_PERIOD",
      "outputs": [
        {
          "internalType": "uint256",
          "name": "",
          "type": "uint256"
        }
      ],
      "stateMutability": "view",
      "type": "function"
    },
    {
      "inputs": [],
      "name": "MAX_EXTEND_ROUND",
      "outputs": [
        {
          "internalType": "uint256",
          "name": "",
          "type": "uint256"
        }
      ],
      "stateMutability": "view",
      "type": "function"
    },
    {
      "inputs": [],
      "name": "PENDING_PERIOD",
      "outputs": [
        {
          "internalType": "uint256",
          "name": "",
          "type": "uint256"
        }
      ],
      "stateMutability": "view",
      "type": "function"
    },
    {
      "inputs": [],
      "name": "REPORTER_REWARD",
      "outputs": [
        {
          "internalType": "uint256",
          "name": "",
          "type": "uint256"
        }
      ],
      "stateMutability": "view",
      "type": "function"
    },
    {
      "inputs": [],
      "name": "REPORT_THRESHOLD",
      "outputs": [
        {
          "internalType": "uint256",
          "name": "",
          "type": "uint256"
        }
      ],
      "stateMutability": "view",
      "type": "function"
    },
    {
      "inputs": [],
      "name": "RESERVE_RATIO",
      "outputs": [
        {
          "internalType": "uint256",
          "name": "",
          "type": "uint256"
        }
      ],
      "stateMutability": "view",
      "type": "function"
    },
    {
      "inputs": [],
      "name": "REWARD_RATIO",
      "outputs": [
        {
          "internalType": "uint256",
          "name": "",
          "type": "uint256"
        }
      ],
      "stateMutability": "view",
      "type": "function"
    },
    {
      "inputs": [],
      "name": "SAMPLE_PERIOD",
      "outputs": [
        {
          "internalType": "uint256",
          "name": "",
          "type": "uint256"
        }
      ],
      "stateMutability": "view",
      "type": "function"
    },
    {
      "inputs": [
        {
          "internalType": "uint256",
          "name": "_id",
          "type": "uint256"
        }
      ],
      "name": "claimReward",
      "outputs": [],
      "stateMutability": "nonpayable",
      "type": "function"
    },
    {
      "inputs": [
        {
          "internalType": "uint256",
          "name": "_id",
          "type": "uint256"
        }
      ],
      "name": "closeReport",
      "outputs": [],
      "stateMutability": "nonpayable",
      "type": "function"
    },
    {
      "inputs": [
        {
          "internalType": "uint256",
          "name": "_reportId",
          "type": "uint256"
        }
      ],
      "name": "executed",
      "outputs": [],
      "stateMutability": "nonpayable",
      "type": "function"
    },
    {
      "inputs": [],
      "name": "executor",
      "outputs": [
        {
          "internalType": "address",
          "name": "",
          "type": "address"
        }
      ],
      "stateMutability": "view",
      "type": "function"
    },
    {
      "inputs": [
        {
          "internalType": "uint256",
          "name": "_poolId",
          "type": "uint256"
        }
      ],
      "name": "getPoolReports",
      "outputs": [
        {
          "internalType": "uint256[]",
          "name": "",
          "type": "uint256[]"
        }
      ],
      "stateMutability": "view",
      "type": "function"
    },
    {
      "inputs": [
        {
          "internalType": "uint256",
          "name": "_poolId",
          "type": "uint256"
        }
      ],
      "name": "getPoolReportsAmount",
      "outputs": [
        {
          "internalType": "uint256",
          "name": "",
          "type": "uint256"
        }
      ],
      "stateMutability": "view",
      "type": "function"
    },
    {
      "inputs": [
        {
          "internalType": "uint256",
          "name": "_id",
          "type": "uint256"
        }
      ],
      "name": "getReport",
      "outputs": [
        {
          "components": [
            {
              "internalType": "uint256",
              "name": "poolId",
              "type": "uint256"
            },
            {
              "internalType": "uint256",
              "name": "reportTimestamp",
              "type": "uint256"
            },
            {
              "internalType": "address",
              "name": "reporter",
              "type": "address"
            },
            {
              "internalType": "uint256",
              "name": "voteTimestamp",
              "type": "uint256"
            },
            {
              "internalType": "uint256",
              "name": "numFor",
              "type": "uint256"
            },
            {
              "internalType": "uint256",
              "name": "numAgainst",
              "type": "uint256"
            },
            {
              "internalType": "uint256",
              "name": "round",
              "type": "uint256"
            },
            {
              "internalType": "uint256",
              "name": "status",
              "type": "uint256"
            },
            {
              "internalType": "uint256",
              "name": "result",
              "type": "uint256"
            },
            {
              "internalType": "uint256",
              "name": "votingReward",
              "type": "uint256"
            },
            {
              "internalType": "uint256",
              "name": "payout",
              "type": "uint256"
            }
          ],
          "internalType": "struct IncidentReport.Report",
          "name": "",
          "type": "tuple"
        }
      ],
      "stateMutability": "view",
      "type": "function"
    },
    {
      "inputs": [
        {
          "internalType": "uint256",
          "name": "_poolId",
          "type": "uint256"
        }
      ],
      "name": "getTempResult",
      "outputs": [
        {
          "components": [
            {
              "internalType": "uint256",
              "name": "result",
              "type": "uint256"
            },
            {
              "internalType": "uint256",
              "name": "sampleTimestamp",
              "type": "uint256"
            },
            {
              "internalType": "bool",
              "name": "hasChanged",
              "type": "bool"
            }
          ],
          "internalType": "struct IncidentReport.TempResult",
          "name": "",
          "type": "tuple"
        }
      ],
      "stateMutability": "view",
      "type": "function"
    },
    {
      "inputs": [
        {
          "internalType": "address",
          "name": "_user",
          "type": "address"
        },
        {
          "internalType": "uint256",
          "name": "_poolId",
          "type": "uint256"
        }
      ],
      "name": "getUserVote",
      "outputs": [
        {
          "components": [
            {
              "internalType": "uint256",
              "name": "choice",
              "type": "uint256"
            },
            {
              "internalType": "uint256",
              "name": "amount",
              "type": "uint256"
            },
            {
              "internalType": "bool",
              "name": "claimed",
              "type": "bool"
            },
            {
              "internalType": "bool",
              "name": "paid",
              "type": "bool"
            }
          ],
          "internalType": "struct IncidentReport.UserVote",
          "name": "",
          "type": "tuple"
        }
      ],
      "stateMutability": "view",
      "type": "function"
    },
    {
      "inputs": [
        {
          "internalType": "address",
          "name": "_deg",
          "type": "address"
        },
        {
          "internalType": "address",
          "name": "_veDeg",
          "type": "address"
        },
        {
          "internalType": "address",
          "name": "_shield",
          "type": "address"
        }
      ],
      "name": "initialize",
      "outputs": [],
      "stateMutability": "nonpayable",
      "type": "function"
    },
    {
      "inputs": [],
      "name": "owner",
      "outputs": [
        {
          "internalType": "address",
          "name": "",
          "type": "address"
        }
      ],
      "stateMutability": "view",
      "type": "function"
    },
    {
      "inputs": [
        {
          "internalType": "uint256",
          "name": "_id",
          "type": "uint256"
        },
        {
          "internalType": "address",
          "name": "_user",
          "type": "address"
        }
      ],
      "name": "payDebt",
      "outputs": [],
      "stateMutability": "nonpayable",
      "type": "function"
    },
    {
      "inputs": [
        {
          "internalType": "uint256",
          "name": "",
          "type": "uint256"
        },
        {
          "internalType": "uint256",
          "name": "",
          "type": "uint256"
        }
      ],
      "name": "poolReports",
      "outputs": [
        {
          "internalType": "uint256",
          "name": "",
          "type": "uint256"
        }
      ],
      "stateMutability": "view",
      "type": "function"
    },
    {
      "inputs": [],
      "name": "priorityPoolFactory",
      "outputs": [
        {
          "internalType": "contract IPriorityPoolFactory",
          "name": "",
          "type": "address"
        }
      ],
      "stateMutability": "view",
      "type": "function"
    },
    {
      "inputs": [],
      "name": "quorumRatio",
      "outputs": [
        {
          "internalType": "uint256",
          "name": "",
          "type": "uint256"
        }
      ],
      "stateMutability": "view",
      "type": "function"
    },
    {
      "inputs": [],
      "name": "renounceOwnership",
      "outputs": [],
      "stateMutability": "nonpayable",
      "type": "function"
    },
    {
      "inputs": [
        {
          "internalType": "uint256",
          "name": "_poolId",
          "type": "uint256"
        },
        {
          "internalType": "uint256",
          "name": "_payout",
          "type": "uint256"
        }
      ],
      "name": "report",
      "outputs": [],
      "stateMutability": "nonpayable",
      "type": "function"
    },
    {
      "inputs": [],
      "name": "reportCounter",
      "outputs": [
        {
          "internalType": "uint256",
          "name": "",
          "type": "uint256"
        }
      ],
      "stateMutability": "view",
      "type": "function"
    },
    {
      "inputs": [
        {
          "internalType": "uint256",
          "name": "",
          "type": "uint256"
        }
      ],
      "name": "reported",
      "outputs": [
        {
          "internalType": "bool",
          "name": "",
          "type": "bool"
        }
      ],
      "stateMutability": "view",
      "type": "function"
    },
    {
      "inputs": [
        {
          "internalType": "uint256",
          "name": "",
          "type": "uint256"
        }
      ],
      "name": "reports",
      "outputs": [
        {
          "internalType": "uint256",
          "name": "poolId",
          "type": "uint256"
        },
        {
          "internalType": "uint256",
          "name": "reportTimestamp",
          "type": "uint256"
        },
        {
          "internalType": "address",
          "name": "reporter",
          "type": "address"
        },
        {
          "internalType": "uint256",
          "name": "voteTimestamp",
          "type": "uint256"
        },
        {
          "internalType": "uint256",
          "name": "numFor",
          "type": "uint256"
        },
        {
          "internalType": "uint256",
          "name": "numAgainst",
          "type": "uint256"
        },
        {
          "internalType": "uint256",
          "name": "round",
          "type": "uint256"
        },
        {
          "internalType": "uint256",
          "name": "status",
          "type": "uint256"
        },
        {
          "internalType": "uint256",
          "name": "result",
          "type": "uint256"
        },
        {
          "internalType": "uint256",
          "name": "votingReward",
          "type": "uint256"
        },
        {
          "internalType": "uint256",
          "name": "payout",
          "type": "uint256"
        }
      ],
      "stateMutability": "view",
      "type": "function"
    },
    {
      "inputs": [
        {
          "internalType": "address",
          "name": "_executor",
          "type": "address"
        }
      ],
      "name": "setExecutor",
      "outputs": [],
      "stateMutability": "nonpayable",
      "type": "function"
    },
    {
      "inputs": [
        {
          "internalType": "address",
          "name": "_priorityPoolFactory",
          "type": "address"
        }
      ],
      "name": "setPriorityPoolFactory",
      "outputs": [],
      "stateMutability": "nonpayable",
      "type": "function"
    },
    {
      "inputs": [
        {
          "internalType": "uint256",
          "name": "_ratio",
          "type": "uint256"
        }
      ],
      "name": "setQuorumRatio",
      "outputs": [],
      "stateMutability": "nonpayable",
      "type": "function"
    },
    {
      "inputs": [
        {
          "internalType": "uint256",
          "name": "_id",
          "type": "uint256"
        }
      ],
      "name": "settle",
      "outputs": [],
      "stateMutability": "nonpayable",
      "type": "function"
    },
    {
      "inputs": [
        {
          "internalType": "uint256",
          "name": "_id",
          "type": "uint256"
        }
      ],
      "name": "startVoting",
      "outputs": [],
      "stateMutability": "nonpayable",
      "type": "function"
    },
    {
      "inputs": [
        {
          "internalType": "uint256",
          "name": "",
          "type": "uint256"
        }
      ],
      "name": "tempResults",
      "outputs": [
        {
          "internalType": "uint256",
          "name": "result",
          "type": "uint256"
        },
        {
          "internalType": "uint256",
          "name": "sampleTimestamp",
          "type": "uint256"
        },
        {
          "internalType": "bool",
          "name": "hasChanged",
          "type": "bool"
        }
      ],
      "stateMutability": "view",
      "type": "function"
    },
    {
      "inputs": [
        {
          "internalType": "address",
          "name": "newOwner",
          "type": "address"
        }
      ],
      "name": "transferOwnership",
      "outputs": [],
      "stateMutability": "nonpayable",
      "type": "function"
    },
    {
      "inputs": [
        {
          "internalType": "uint256",
          "name": "_poolId",
          "type": "uint256"
        }
      ],
      "name": "unpausePools",
      "outputs": [],
      "stateMutability": "nonpayable",
      "type": "function"
    },
    {
      "inputs": [
        {
          "internalType": "uint256",
          "name": "_id",
          "type": "uint256"
        },
        {
          "internalType": "uint256",
          "name": "_isFor",
          "type": "uint256"
        },
        {
          "internalType": "uint256",
          "name": "_amount",
          "type": "uint256"
        }
      ],
      "name": "vote",
      "outputs": [],
      "stateMutability": "nonpayable",
      "type": "function"
    },
    {
      "inputs": [
        {
          "internalType": "address",
          "name": "",
          "type": "address"
        },
        {
          "internalType": "uint256",
          "name": "",
          "type": "uint256"
        }
      ],
      "name": "votes",
      "outputs": [
        {
          "internalType": "uint256",
          "name": "choice",
          "type": "uint256"
        },
        {
          "internalType": "uint256",
          "name": "amount",
          "type": "uint256"
        },
        {
          "internalType": "bool",
          "name": "claimed",
          "type": "bool"
        },
        {
          "internalType": "bool",
          "name": "paid",
          "type": "bool"
        }
      ],
      "stateMutability": "view",
      "type": "function"
    }
  ],
  "transactionHash": "0xe61fe84163dec3cd5ccd2f964846c1a00f897a0add6159148992a3e9f2f54cfe",
  "args": [],
  "numDeployments": 1,
  "solcInputHash": "a9f814f8c1a56482494c3fb982c2c012",
  "bytecode": "0x60808060405234610016576121c3908161001c8239f35b600080fdfe608060405260048036101561001357600080fd5b6000803560e01c91826312d5cc86146106245782631c3c0ea814611cd557826320731ab814611cb85782633d2f5bda14611c3657826343a5ada214611b985782634a13a0ee14611b585782634aa0644714611b4d5782634e7f9b19146119f25782636530db98146119345782636f8a6e431461190b578263715018a6146118a5578263753c0985146114fc5782637aaf11c7146114d4578263805a219f146114b85782638a6655d6146110fc5782638da5cb5b146110d15782638df8280014610ca35782639418ce1714610c57578263966d8a5f14610bda5782639e17215514610bbc5782639f2524ee14610b4e578263a01bc01f14610a99578263ad35e1dc14610a50578263ae169a50146108d2578263af5283491461030c578263b4643d29146108b4578263b9bc38f214610896578263c0c53b8b146106f9578263c34c08e5146106d0578263c942adf71461062f578263ce4f29fc14610624578263d3ecebd7146105c9578263d60690601461059c578263d92747cc1461057d578263d9dc8f1d14610317578263e37dbfd91461030c578263e7d918e2146102da578263f2fde38b1461023f578263fc6e85d3146101f65750508063fd123806146101ed5763fe131778146101e5575b600080fd5b6101e0611d1e565b506101e0611dac565b3461023b57602036600319011261023b57606091604091358152603b6020522080549060ff600260018301549201541690604051928352602083015215156040820152f35b5080fd5b3461023b57602036600319011261023b57610258611d3c565b9060018060a01b0361027181855460101c163314611def565b821615610287575061028290611e28565b604051f35b60849060206040519162461bcd60e51b8352820152602660248201527f4f776e61626c653a206e6577206f776e657220697320746865207a65726f206160448201526564647265737360d01b6064820152fd5b3461023b57602036600319011261023b576102829061030660018060a01b03845460101c163314611def565b35612068565b5050506101e0611dd2565b3461023b57604036600319011261023b578035610332611d52565b9060018060a01b0380831691828652602093603c8552604087208288528552604087209560405161036281611f48565b875481526002600189015498888301998a5201549060ff82161515604082015260ff606082019260081c1615158252848a5260398852600860408b20015490811561056c57518114908115610561575b50610551575161054257865180600019046050118115151661052d579061271060508a94930204948060325416803b15610506576040805163342c6d4d60e11b815233858201908152602081018a90529092879284928391859183910103925af190811561052257859161050a575b505060335416885190803b156105065760408051634bdc2db560e11b81526001600160a01b039095169385019384526020840192909252849284928391859183910103925af180156104fb576104db575b5094839291608095947fb4b7f3a9d727d0ac344f696304df335d2936ce3b0a58d52600c692632c9fa7259752603c85526040882090885284526002604088200161010061ff001982541617905551916040519333855284015260408301526060820152a1604051f35b6104e9909594939295611f1a565b6104f7579091928587610472565b8580fd5b6040513d84823e3d90fd5b8480fd5b61051390611f1a565b61051e57838b610421565b8380fd5b6040513d87823e3d90fd5b601182634e487b7160e01b6000525260246000fd5b604051631abf06a960e21b8152fd5b50604051631ae2961d60e01b8152fd5b60039150148a6103b2565b60405163403ba18960e01b81528490fd5b5034610599578060031936011261059957602060405160028152f35b80fd5b3461023b57602036600319011261023b57604060209260ff92358152603d84522054166040519015158152f35b3461023b57602036600319011261023b576036546001600160a01b031633036106155735815260396020526102826040822054808352603d6020526040832060ff198154169055612068565b6040516324bba59760e21b8152fd5b5050506101e0611d1e565b3461023b57602036600319011261023b57604061016092823581526039602052209081549160018101549160018060a01b03600283015416906003830154908301546005840154600685015491600786015493600887015495600a6009890154980154986040519a8b5260208b015260408a01526060890152608088015260a087015260c086015260e0850152610100840152610120830152610140820152f35b50346105995780600319360112610599576036546040516001600160a01b039091168152602090f35b3461023b57606036600319011261023b57610712611d3c565b9061071b611d52565b916044356001600160a01b0381811692918390036101e057855460ff8160081c161594858096610889575b8015610872575b15610817575060ff198116600117875584610806575b5061077d60ff875460081c1661077881611e88565b611e88565b61078633611e28565b85549461079860ff8760081c16611e88565b8160018060a01b0319931683603254161760325516816033541617603355603454161760345560326038556107ce575b50604051f35b61ff00191681557f7f26b83ff96e1f2b6a682f133852f6798a09c465da95921460cefb3847402498602060405160018152a1816107c8565b61ffff191661010117865586610763565b60849060206040519162461bcd60e51b8352820152602e60248201527f496e697469616c697a61626c653a20636f6e747261637420697320616c72656160448201526d191e481a5b9a5d1a585b1a5e995960921b6064820152fd5b50303b15801561074d5750600160ff83161461074d565b50600160ff831610610746565b50346105995780600319360112610599576020603754604051908152f35b50346105995780600319360112610599576020603854604051908152f35b3461023b57602080600319360112610a4c57813591338452603c8252604084208385528252604084209060405161090881611f48565b82548152600260018401549385830194855201549060ff60408201928181161515845260081c161515606082015285875260398552600860408820015491821561056c5751610a3b5751869291908103610a115750848252603984526109776009604084200154845190611fed565b6032546001600160a01b031691823b1561051e576040805163168ece7360e31b81523392810192835264e8d4a5100090930460208301529192849284928391859183910103925af180156104fb576109fd575b50506109d79051336120e5565b338352603c8152604083209183525260026040822001600160ff19825416179055604051f35b610a0690611f1a565b61051e5783856109ca565b909150600303610a2c5750610a279051336120e5565b6109d7565b60405163158f1f4160e11b8152fd5b60405163961e9b0d60e01b81528390fd5b8280fd5b503461059957602036600319011261059957610a6a611d3c565b60018060a01b0390610a8382845460101c163314611def565b1660018060a01b03196035541617603555604051f35b5034610599576040366003190112610599576040608091610ab8611d3c565b8160608451610ac681611f48565b8281528260208201528286820152015260018060a01b03168152603c60205281812060243582526020522060405190610afe82611f48565b80549182815260026001830154926020830193845201549160ff6060604084019382861615158552019360081c161515835260405193845251602084015251151560408301525115156060820152f35b5034610599576040366003190112610599576080906040906001600160a01b03610b76611d3c565b168152603c60205281812060243582526020522060ff815491600260018201549101549060405193845260208401528181161515604084015260081c1615156060820152f35b5034610599578060031936011261059957602060405162093a808152f35b3461023b57602036600319011261023b5781604091606093838051610bfe81611f2d565b8281528260208201520152358152603b60205220604051610c1e81611f2d565b815491828252604060ff600260018401549360208601948552015416920191151582526040519283525160208301525115156040820152f35b3461023b57602036600319011261023b57803590610c8260018060a01b03845460101c163314611def565b6064821015610c945750603855604051f35b604051633f18bddf60e01b8152fd5b3461023b5760209081600319360112610a4c578035908184526039835260408420926007840191600290818454036110c257600686019182549460038801546103841981116110af57610d0390610384610cfc89611fa6565b9101611f84565b421061109e576008880193845461108d57908992918397898552603b88528360ff81604088200154169182611083575b50501561105f578884526039875260066040852001600181540190555b871561100f575060039055610d6d8389015460058a015490611f84565b6033546040516318160ddd60e01b81526001600160a01b0396929188908290889082908b165afa908115610522578591610fda575b50610db260649160385490611fed565b0411610f9957869060018214998a15610f77575b505586825260398552604082209280840154946005850154998490600014610eb8575080603254169285015416823b1561051e576044849283604051958694859363168ece7360e31b855284015269043c33c193756480000060248401525af180156104fb57610e96575b50506040809594939260008051602061216e833981519152926009610e796064610e6960008051602061214e8339815191529c611fbd565b0493610e7485611fd3565b612000565b9101555b81519086825284820152a18351928352820152a1604051f35b610ea4909695949396611f1a565b610eb45786889592939495610e31565b8680fd5b969798999592919350508714610ef7575b505050509160008051602061214e833981519152939160008051602061216e83398151915260408095610e7d565b60649192939450610f0790611fbd565b049069021e19e0c9bab24000009082198211610f6457506040959360008051602061214e8339815191529795936009610f5660008051602061216e833981519152958a950193610e7485611fd3565b910155939583959750610ec9565b634e487b7160e01b895260119052602488fd5b54610f8181612068565b8452603d875260408420805460ff191690558b610dc6565b915050610fce939594507f1dcabc7d01df1ee725f7c437ce5ec43e00015579d266f8a65d0911c4eb36ad909692505554612068565b604051908152a1604051f35b809550888092503d8311611008575b610ff38183611f63565b810103126101e05792518a9390610db2610da2565b503d610fe9565b94505091507fb7891e9b049f460b1641e0a0556e45b1d2adfb12bd2c6459ea5a5d645d40179d96508594509460409552603b83528487200160ff19815416905554908351928352820152a1604051f35b96506039865261107d84604085200154600560408620015490612034565b96610d50565b109050838d610d33565b60405163037d379160e11b81528490fd5b6040516324b1a7e960e01b81528390fd5b634e487b7160e01b8a526011845260248afd5b60405163363bbdfd60e01b8152fd5b50346105995780600319360112610599575460405160109190911c6001600160a01b03168152602090f35b90346105995760603660031901126105995781356024928335604435918385526020906039825260026007604088200154036110c25783156114a957600183149182158061149e575b61148e576033546040516370a0823160e01b815233848201526001600160a01b039091169082818b81855afa908115611483578991611456575b5060405163cbf9fe5f60e01b815233858201529083828c81865afa91821561144b578a9261141c575b50818110611408570386116113f757803b156113f35760408051633c56aa6160e11b8152338582019081526020810189905290928a9284928391859183910103925af180156113e8579088916113d4575b5050338752603c815260408088208789528252872060018101805490918691156113ce5754036113bd575b61122f868254611f84565b9055858752603981526040872092156113a757818301611250868254611f84565b90555b858752603b815260ff6002604089200154161580611306575b7f025e12b9cbba227587ada73c57f6b6b6a70272d7ed782681793125ec29afc77b969798506112b6575b5050604080519586526020860192909252508301523391606090a2604051f35b603b60056112d39385015494015491888a52526040882092612034565b8154806112ec575b508155600142910155858080611296565b600283019060ff80198354169184141516179055876112db565b50600383015460068401549061038419811161139557610384611345910161133f61133961133385611fa6565b83611f84565b93611fa6565b90611f84565b61012c8110611395577f025e12b9cbba227587ada73c57f6b6b6a70272d7ed782681793125ec29afc77b9798995061012b19014211908161138b575b508897965061126c565b9050421089611381565b634e487b7160e01b8952601184528989fd5b600583016113b6868254611f84565b9055611253565b6040516346bdda4560e11b81528390fd5b55611224565b6113dd90611f1a565b610eb45786896111f9565b6040513d8a823e3d90fd5b8780fd5b60405163729aeac360e01b81528390fd5b8a601186634e487b7160e01b600052526000fd5b9091508381813d8311611444575b6114348183611f63565b810103126101e05751908b6111a8565b503d61142a565b6040513d8c823e3d90fd5b90508281813d831161147c575b61146d8183611f63565b810103126101e057518a61117f565b503d611463565b6040513d8b823e3d90fd5b50604051631422ca1d60e31b8152fd5b506002841415611145565b60405163583202e160e01b8152fd5b5034610599578060031936011261059957602060405160508152f35b3461023b57602036600319011261023b57602091604091358152603a83522054604051908152f35b90346105995761150b36611d68565b6035546040516315895f4760e31b81528086018490526001600160a01b03959392916024919086908290849082908b165afa90811561189a5790879187916117b0575b50169384156117a157838652602094603d865260ff6040882054166117915785829160405192838092636835185f60e11b82525afa908115611786578791611759575b50831161174a57838652603d855260408620805460ff19166001908117909155603754600019989089811461173857820196876037558789526039815285600a60408b208981554286820155600281013360018060a01b031982541617905585600782015501558160325416803b156117345789809160446040518094819363342c6d4d60e11b8352338b84015269021e19e0c9bab24000008c8401525af1801561144b57611720575b50868952603a90526040882080549990600160401b8b101561170e579761166d8b8b9c9a86849d9a9b9c018155611d7e565b909283549160031b90811b9283911b1691191617905560355416803b156105065784928360449289946040519788968795631b35278960e01b87528601528401525af180156104fb576116fa575b50506040805193845242602085015283015233917fe4af8b66d6c4b132955627bb2e4e80a62c544714e2f19dafec934a3b156cbe9390606090a3604051f35b61170390611f1a565b61051e5783856116bb565b634e487b7160e01b8a5260418552858afd5b9861172d603a929a611f1a565b989061163b565b8980fd5b634e487b7160e01b8952601184528489fd5b60405163cab1fa1b60e01b8152fd5b90508581813d831161177f575b6117708183611f63565b81010312610eb4575188611591565b503d611766565b6040513d89823e3d90fd5b506040516360b2438960e01b8152fd5b60405163148115cf60e21b8152fd5b9150503d8087833e6117c28183611f63565b810160a082820312610eb45781516001600160401b039081811161189657830182601f82011215611896578051918211611884576040519060209361181085601f19601f8701160184611f63565b838352848483010111611734579189918b95949383905b8382106118695750928483611856969361184f956040971161185d575b505050508401612054565b9201612054565b508861154e565b0101528a818e80611844565b8181018601518284018701528d97508c945090850190611827565b634e487b7160e01b8952604188528489fd5b8880fd5b6040513d88823e3d90fd5b50346105995780600319360112610599578054601081901c6001600160a01b0316906118d2338314611def565b82604051927f8be0079c531659141344cd1fd0a4f28419497f9722a3daafe3b4186f6b6457e08285a362010000600160b01b0319168255f35b50346105995780600319360112610599576035546040516001600160a01b039091168152602090f35b3461023b57602036600319011261023b5780359061195f60018060a01b03845460101c163314611def565b81835260396020526040832090600782019060018254036110c2576119876001840154612020565b6119e35750916119d26040926101947f17b76cf2012024f7fe05b4a8b036b188464d5b49b7c8532e95c5c67a4b792eb29555828652603d60205283862060ff19815416905554612068565b8151908152426020820152a1604051f35b6040516324b1a7e960e01b8152fd5b3461023b57602036600319011261023b5761014061016092604051611a1681611ee8565b8181528160208201528160408201528160608201528160808201528160a08201528160c08201528160e08201526040610100928084840152808561012094828682015201528535815260396020522091600a60405193611a7585611ee8565b8054968786526001820154602087015260018060a01b036002830154166040870152600382015460608701528101546080860152600581015460a0860152600681015460c0860152600781015460e08601526008810154838601526009810154848601520154848401526040519485526020830151602086015260018060a01b036040840151166040860152606083015160608601526080830151608086015260a083015160a086015260c083015160c086015260e083015160e0860152808301519085015280820151908401520151610140820152f35b5050506101e0611dac565b503461059957611b6736611d68565b91908152603a60205260408120908154831015610599576020611b8a8484611d7e565b90546040519160031b1c8152f35b3461023b5760209081600319360112610a4c57358252603a81526040822060405192838383549182815201908193835284832090835b818110611c225750505084611be4910385611f63565b60405193838594850191818652518092526040850193925b828110611c0b57505050500390f35b835185528695509381019392810192600101611bfc565b825484529286019260019283019201611bce565b3461023b57602036600319011261023b5780359081835260396020526040832090600782019060018254036110c257611c726001840154612020565b156119e357509160409160027fde7965c8d6f24b73501e8bcad1a4f03937db4f902bfda3bee08b335accf0749694556003429101558151908152426020820152a1604051f35b503461059957806003193601126105995760206040516103848152f35b503461059957602036600319011261059957611cef611d3c565b60018060a01b0390611d0882845460101c163314611def565b1660018060a01b03196036541617603655604051f35b50346101e05760003660031901126101e057602060405161012c8152f35b600435906001600160a01b03821682036101e057565b602435906001600160a01b03821682036101e057565b60409060031901126101e0576004359060243590565b8054821015611d965760005260206000200190600090565b634e487b7160e01b600052603260045260246000fd5b50346101e05760003660031901126101e057602060405169021e19e0c9bab24000008152f35b50346101e05760003660031901126101e057602060405160288152f35b15611df657565b60405162461bcd60e51b815260206004820152600a60248201526927b7363c9037bbb732b960b11b6044820152606490fd5b6000549060018060a01b03808216908360101c167f8be0079c531659141344cd1fd0a4f28419497f9722a3daafe3b4186f6b6457e06000604051a362010000600160b01b031990911660109190911b62010000600160b01b031617600055565b15611e8f57565b60405162461bcd60e51b815260206004820152602b60248201527f496e697469616c697a61626c653a20636f6e7472616374206973206e6f74206960448201526a6e697469616c697a696e6760a81b6064820152608490fd5b61016081019081106001600160401b03821117611f0457604052565b634e487b7160e01b600052604160045260246000fd5b6001600160401b038111611f0457604052565b606081019081106001600160401b03821117611f0457604052565b608081019081106001600160401b03821117611f0457604052565b90601f801991011681019081106001600160401b03821117611f0457604052565b81198111611f90570190565b634e487b7160e01b600052601160045260246000fd5b61012c908060001904821181151516611f90570290565b806000190460281181151516611f905760280290565b64e8d4a51000908060001904821181151516611f90570290565b8060001904821181151516611f90570290565b811561200a570490565b634e487b7160e01b600052601260045260246000fd5b61012c198111611f905761012c0142101590565b818111156120445750506001905b565b101561204f57600290565b600390565b51906001600160a01b03821682036101e057565b6035546001600160a01b031690813b156101e057604051918291631b35278960e01b835260048301528160446000938480948160248401525af180156120d8576120b0575050565b6001600160401b0382116120c45750604052565b634e487b7160e01b81526041600452602490fd5b50604051903d90823e3d90fd5b6033546001600160a01b031691823b156101e057604051634bdc2db560e11b81526001600160a01b039290921660048301526024820152906000908290604490829084905af18015612141576121385750565b61204290611f1a565b6040513d6000823e3d90fdfe30922d3a94c33e0ce3f99be437cbdf00f141e304f742a1cbd0df5cc5b490cd45bf97c766fd98feb70e7d5cc384ac953bcce9a7ca082cf57da33a199d67f7b7aba264697066735822122044733b9886934672ad0d5c134581ca033fd2d50c83711dcbdf5ac1c6f047fba064736f6c634300080f0033",
  "devdoc": {
    "kind": "dev",
    "methods": {
      "claimReward(uint256)": {
        "params": {
          "_id": "Report id"
        }
      },
      "closeReport(uint256)": {
        "params": {
          "_id": "Report id"
        }
      },
      "executed(uint256)": {
        "params": {
          "_reportId": "Report id"
        }
      },
      "owner()": {
        "details": "Returns the address of the current owner."
      },
      "payDebt(uint256,address)": {
        "params": {
          "_id": "Report id",
          "_user": "User address (can pay debt for another user)"
        }
      },
      "renounceOwnership()": {
        "details": "Leaves the contract without owner. It will not be possible to call `onlyOwner` functions anymore. Can only be called by the current owner. NOTE: Renouncing ownership will leave the contract without an owner, thereby removing any functionality that is only available to the owner."
      },
      "report(uint256,uint256)": {
        "params": {
          "_payout": "Payout amount of this report",
          "_poolId": "Pool id to report incident"
        }
      },
      "settle(uint256)": {
        "params": {
          "_id": "Report id"
        }
      },
      "startVoting(uint256)": {
        "params": {
          "_id": "Report id"
        }
      },
      "transferOwnership(address)": {
        "details": "Transfers ownership of the contract to a new account (`newOwner`). Can only be called by the current owner."
      },
      "vote(uint256,uint256,uint256)": {
        "params": {
          "_amount": "Amount of veDEG used for this vote",
          "_id": "Id of the report to be voted on",
          "_isFor": "The user's choice (1: vote for, 2: vote against)"
        }
      }
    },
    "version": 1
  },
  "userdoc": {
    "kind": "user",
    "methods": {
      "claimReward(uint256)": {
        "notice": "Claim the voting reward         Only callable through proposal center"
      },
      "closeReport(uint256)": {
        "notice": "Close a pending report         Only owner can close a pending report         Can only be closed before the pending period ends         Will change the status from PENDING to CLOSED"
      },
      "executed(uint256)": {
        "notice": "Update status after execution         Only callable by executor"
      },
      "payDebt(uint256,address)": {
        "notice": "Pay debt to get back veDEG         For those who made a wrong voting choice         The paid DEG will be burned and the veDEG will be unlocked         Can not call this function when result is TIED or choose the correct side"
      },
      "report(uint256,uint256)": {
        "notice": "Start a new incident report         1000 DEG tokens are staked to start a report         If the report is correct, reporter gets back 1000DEG + 10% shield income + extra 1000DEG         If the report is wrong, reporter loses 1000DEG to those who vote against         Only callable through proposal center"
      },
      "settle(uint256)": {
        "notice": "Settle the final result for a report"
      },
      "startVoting(uint256)": {
        "notice": "Start the voting process         Can only be started after the pending period         Will change the status from PENDING to VOTING"
      },
      "vote(uint256,uint256,uint256)": {
        "notice": "Vote on current reports         Voting power is decided by the (unlocked) balance of veDEG         Once voted, those veDEG will be locked         Rewarded if votes with majority         Punished if votes against majority"
      }
    },
    "notice": "Incident Report Contract         New reports for project hacks are handled inside this contract         Timeline for a report is:         |-----------------------|----------------------|-------|-------|               Pending Period         Voting Period       Extend Period         When a new report is proposed, it start with PENDING_STATUS.         The person who start the report need to deposit REPORT_THRESHOLD DEG tokens.         During PENDING_STATUS, users & security companies can look at the report event.         After PENDING_PERIOD, the voting can be started and status transfer to VOTING_STATUS.         Users can vote for or against the report with veDeg tokens.         VeDeg tokens used for voting will be tentatively locked until the voting is settled.         After VOTING_PERIOD, the voting can be settled and status transfer to SETTLED_STATUS.         Depending on the votes of each side, the result can be PASSED, REJECTED or TIED.         Different results for their veDeg tokens will be set depending on the result.         If the result has changes during the last 24 hours of voting, the voting will be extended.         The time can only be extended twice.         For voters:              PASSED: Who vote for will get all veDeg tokens from the opposite side              REJECTED: Who vote against will get all veDeg tokens from the opposite side              TIED: Users can unlock their veDeg tokens         For reporter:              PASSED: Get back REPORT_THRESHOLD and get extra REPORT_REWARD & 10% of total treasury income              REJECTED: Lose REPORT_THRESHOLD to whom vote against              TIED: Lose REPORT_THRESHOLD         When an incident report has passed and been executed         The corresponding priority pool will be liquidated which means:             - Move out some assets for users to claim             - Deploy new generation of crTokens and PRI-LP tokens             - Update the farming weights for the priority farming pool",
    "version": 1
  },
  "storageLayout": {
    "storage": [
      {
        "astId": 52,
        "contract": "src/voting/incidentReport/IncidentReport.sol:IncidentReport",
        "label": "_initialized",
        "offset": 0,
        "slot": "0",
        "type": "t_uint8"
      },
      {
        "astId": 55,
        "contract": "src/voting/incidentReport/IncidentReport.sol:IncidentReport",
        "label": "_initializing",
        "offset": 1,
        "slot": "0",
        "type": "t_bool"
      },
      {
        "astId": 22927,
        "contract": "src/voting/incidentReport/IncidentReport.sol:IncidentReport",
        "label": "_owner",
        "offset": 2,
        "slot": "0",
        "type": "t_address"
      },
      {
        "astId": 23034,
        "contract": "src/voting/incidentReport/IncidentReport.sol:IncidentReport",
        "label": "__gap",
        "offset": 0,
        "slot": "1",
        "type": "t_array(t_uint256)49_storage"
      },
      {
        "astId": 13963,
        "contract": "src/voting/incidentReport/IncidentReport.sol:IncidentReport",
        "label": "deg",
        "offset": 0,
        "slot": "50",
        "type": "t_contract(IDegisToken)14090"
      },
      {
        "astId": 13966,
        "contract": "src/voting/incidentReport/IncidentReport.sol:IncidentReport",
        "label": "veDeg",
        "offset": 0,
        "slot": "51",
        "type": "t_contract(IVeDEG)15232"
      },
      {
        "astId": 13969,
        "contract": "src/voting/incidentReport/IncidentReport.sol:IncidentReport",
        "label": "shield",
        "offset": 0,
        "slot": "52",
        "type": "t_contract(IShield)15187"
      },
      {
        "astId": 24880,
        "contract": "src/voting/incidentReport/IncidentReport.sol:IncidentReport",
        "label": "priorityPoolFactory",
        "offset": 0,
        "slot": "53",
        "type": "t_contract(IPriorityPoolFactory)15109"
      },
      {
        "astId": 24882,
        "contract": "src/voting/incidentReport/IncidentReport.sol:IncidentReport",
        "label": "executor",
        "offset": 0,
        "slot": "54",
        "type": "t_address"
      },
      {
        "astId": 23419,
        "contract": "src/voting/incidentReport/IncidentReport.sol:IncidentReport",
        "label": "reportCounter",
        "offset": 0,
        "slot": "55",
        "type": "t_uint256"
      },
      {
        "astId": 23421,
        "contract": "src/voting/incidentReport/IncidentReport.sol:IncidentReport",
        "label": "quorumRatio",
        "offset": 0,
        "slot": "56",
        "type": "t_uint256"
      },
      {
        "astId": 23449,
        "contract": "src/voting/incidentReport/IncidentReport.sol:IncidentReport",
        "label": "reports",
        "offset": 0,
        "slot": "57",
        "type": "t_mapping(t_uint256,t_struct(Report)23444_storage)"
      },
      {
        "astId": 23454,
        "contract": "src/voting/incidentReport/IncidentReport.sol:IncidentReport",
        "label": "poolReports",
        "offset": 0,
        "slot": "58",
        "type": "t_mapping(t_uint256,t_array(t_uint256)dyn_storage)"
      },
      {
        "astId": 23466,
        "contract": "src/voting/incidentReport/IncidentReport.sol:IncidentReport",
        "label": "tempResults",
        "offset": 0,
        "slot": "59",
        "type": "t_mapping(t_uint256,t_struct(TempResult)23461_storage)"
      },
      {
        "astId": 23482,
        "contract": "src/voting/incidentReport/IncidentReport.sol:IncidentReport",
        "label": "votes",
        "offset": 0,
        "slot": "60",
        "type": "t_mapping(t_address,t_mapping(t_uint256,t_struct(UserVote)23475_storage))"
      },
      {
        "astId": 23486,
        "contract": "src/voting/incidentReport/IncidentReport.sol:IncidentReport",
        "label": "reported",
        "offset": 0,
        "slot": "61",
        "type": "t_mapping(t_uint256,t_bool)"
      }
    ],
    "types": {
      "t_address": {
        "encoding": "inplace",
        "label": "address",
        "numberOfBytes": "20"
      },
      "t_array(t_uint256)49_storage": {
        "base": "t_uint256",
        "encoding": "inplace",
        "label": "uint256[49]",
        "numberOfBytes": "1568"
      },
      "t_array(t_uint256)dyn_storage": {
        "base": "t_uint256",
        "encoding": "dynamic_array",
        "label": "uint256[]",
        "numberOfBytes": "32"
      },
      "t_bool": {
        "encoding": "inplace",
        "label": "bool",
        "numberOfBytes": "1"
      },
      "t_contract(IDegisToken)14090": {
        "encoding": "inplace",
        "label": "contract IDegisToken",
        "numberOfBytes": "20"
      },
      "t_contract(IPriorityPoolFactory)15109": {
        "encoding": "inplace",
        "label": "contract IPriorityPoolFactory",
        "numberOfBytes": "20"
      },
      "t_contract(IShield)15187": {
        "encoding": "inplace",
        "label": "contract IShield",
        "numberOfBytes": "20"
      },
      "t_contract(IVeDEG)15232": {
        "encoding": "inplace",
        "label": "contract IVeDEG",
        "numberOfBytes": "20"
      },
      "t_mapping(t_address,t_mapping(t_uint256,t_struct(UserVote)23475_storage))": {
        "encoding": "mapping",
        "key": "t_address",
        "label": "mapping(address => mapping(uint256 => struct IncidentReport.UserVote))",
        "numberOfBytes": "32",
        "value": "t_mapping(t_uint256,t_struct(UserVote)23475_storage)"
      },
      "t_mapping(t_uint256,t_array(t_uint256)dyn_storage)": {
        "encoding": "mapping",
        "key": "t_uint256",
        "label": "mapping(uint256 => uint256[])",
        "numberOfBytes": "32",
        "value": "t_array(t_uint256)dyn_storage"
      },
      "t_mapping(t_uint256,t_bool)": {
        "encoding": "mapping",
        "key": "t_uint256",
        "label": "mapping(uint256 => bool)",
        "numberOfBytes": "32",
        "value": "t_bool"
      },
      "t_mapping(t_uint256,t_struct(Report)23444_storage)": {
        "encoding": "mapping",
        "key": "t_uint256",
        "label": "mapping(uint256 => struct IncidentReport.Report)",
        "numberOfBytes": "32",
        "value": "t_struct(Report)23444_storage"
      },
      "t_mapping(t_uint256,t_struct(TempResult)23461_storage)": {
        "encoding": "mapping",
        "key": "t_uint256",
        "label": "mapping(uint256 => struct IncidentReport.TempResult)",
        "numberOfBytes": "32",
        "value": "t_struct(TempResult)23461_storage"
      },
      "t_mapping(t_uint256,t_struct(UserVote)23475_storage)": {
        "encoding": "mapping",
        "key": "t_uint256",
        "label": "mapping(uint256 => struct IncidentReport.UserVote)",
        "numberOfBytes": "32",
        "value": "t_struct(UserVote)23475_storage"
      },
      "t_struct(Report)23444_storage": {
        "encoding": "inplace",
        "label": "struct IncidentReport.Report",
        "members": [
          {
            "astId": 23423,
            "contract": "src/voting/incidentReport/IncidentReport.sol:IncidentReport",
            "label": "poolId",
            "offset": 0,
            "slot": "0",
            "type": "t_uint256"
          },
          {
            "astId": 23425,
            "contract": "src/voting/incidentReport/IncidentReport.sol:IncidentReport",
            "label": "reportTimestamp",
            "offset": 0,
            "slot": "1",
            "type": "t_uint256"
          },
          {
            "astId": 23427,
            "contract": "src/voting/incidentReport/IncidentReport.sol:IncidentReport",
            "label": "reporter",
            "offset": 0,
            "slot": "2",
            "type": "t_address"
          },
          {
            "astId": 23429,
            "contract": "src/voting/incidentReport/IncidentReport.sol:IncidentReport",
            "label": "voteTimestamp",
            "offset": 0,
            "slot": "3",
            "type": "t_uint256"
          },
          {
            "astId": 23431,
            "contract": "src/voting/incidentReport/IncidentReport.sol:IncidentReport",
            "label": "numFor",
            "offset": 0,
            "slot": "4",
            "type": "t_uint256"
          },
          {
            "astId": 23433,
            "contract": "src/voting/incidentReport/IncidentReport.sol:IncidentReport",
            "label": "numAgainst",
            "offset": 0,
            "slot": "5",
            "type": "t_uint256"
          },
          {
            "astId": 23435,
            "contract": "src/voting/incidentReport/IncidentReport.sol:IncidentReport",
            "label": "round",
            "offset": 0,
            "slot": "6",
            "type": "t_uint256"
          },
          {
            "astId": 23437,
            "contract": "src/voting/incidentReport/IncidentReport.sol:IncidentReport",
            "label": "status",
            "offset": 0,
            "slot": "7",
            "type": "t_uint256"
          },
          {
            "astId": 23439,
            "contract": "src/voting/incidentReport/IncidentReport.sol:IncidentReport",
            "label": "result",
            "offset": 0,
            "slot": "8",
            "type": "t_uint256"
          },
          {
            "astId": 23441,
            "contract": "src/voting/incidentReport/IncidentReport.sol:IncidentReport",
            "label": "votingReward",
            "offset": 0,
            "slot": "9",
            "type": "t_uint256"
          },
          {
            "astId": 23443,
            "contract": "src/voting/incidentReport/IncidentReport.sol:IncidentReport",
            "label": "payout",
            "offset": 0,
            "slot": "10",
            "type": "t_uint256"
          }
        ],
        "numberOfBytes": "352"
      },
      "t_struct(TempResult)23461_storage": {
        "encoding": "inplace",
        "label": "struct IncidentReport.TempResult",
        "members": [
          {
            "astId": 23456,
            "contract": "src/voting/incidentReport/IncidentReport.sol:IncidentReport",
            "label": "result",
            "offset": 0,
            "slot": "0",
            "type": "t_uint256"
          },
          {
            "astId": 23458,
            "contract": "src/voting/incidentReport/IncidentReport.sol:IncidentReport",
            "label": "sampleTimestamp",
            "offset": 0,
            "slot": "1",
            "type": "t_uint256"
          },
          {
            "astId": 23460,
            "contract": "src/voting/incidentReport/IncidentReport.sol:IncidentReport",
            "label": "hasChanged",
            "offset": 0,
            "slot": "2",
            "type": "t_bool"
          }
        ],
        "numberOfBytes": "96"
      },
      "t_struct(UserVote)23475_storage": {
        "encoding": "inplace",
        "label": "struct IncidentReport.UserVote",
        "members": [
          {
            "astId": 23468,
            "contract": "src/voting/incidentReport/IncidentReport.sol:IncidentReport",
            "label": "choice",
            "offset": 0,
            "slot": "0",
            "type": "t_uint256"
          },
          {
            "astId": 23470,
            "contract": "src/voting/incidentReport/IncidentReport.sol:IncidentReport",
            "label": "amount",
            "offset": 0,
            "slot": "1",
            "type": "t_uint256"
          },
          {
            "astId": 23472,
            "contract": "src/voting/incidentReport/IncidentReport.sol:IncidentReport",
            "label": "claimed",
            "offset": 0,
            "slot": "2",
            "type": "t_bool"
          },
          {
            "astId": 23474,
            "contract": "src/voting/incidentReport/IncidentReport.sol:IncidentReport",
            "label": "paid",
            "offset": 1,
            "slot": "2",
            "type": "t_bool"
          }
        ],
        "numberOfBytes": "96"
      },
      "t_uint256": {
        "encoding": "inplace",
        "label": "uint256",
        "numberOfBytes": "32"
      },
      "t_uint8": {
        "encoding": "inplace",
        "label": "uint8",
        "numberOfBytes": "1"
      }
    }
  }
}