{
  "address": "0xa5E07EF2D0Ef7E2a326cA55fB8a4ea650734718D",
  "abi": [
    {
      "inputs": [
        {
          "internalType": "address",
          "name": "_deg",
          "type": "address"
        },
        {
          "internalType": "address",
          "name": "_veDeg",
          "type": "address"
        },
        {
          "internalType": "address",
          "name": "_shield",
          "type": "address"
        }
      ],
      "stateMutability": "nonpayable",
      "type": "constructor"
    },
    {
      "inputs": [],
      "name": "IncidentReport__AlreadyClaimed",
      "type": "error"
    },
    {
      "inputs": [],
      "name": "IncidentReport__AlreadyReported",
      "type": "error"
    },
    {
      "inputs": [],
      "name": "IncidentReport__AlreadySettled",
      "type": "error"
    },
    {
      "inputs": [],
      "name": "IncidentReport__ChooseBothSides",
      "type": "error"
    },
    {
      "inputs": [],
      "name": "IncidentReport__NoReward",
      "type": "error"
    },
    {
      "inputs": [],
      "name": "IncidentReport__NotEnoughVeDEG",
      "type": "error"
    },
    {
      "inputs": [],
      "name": "IncidentReport__NotSettled",
      "type": "error"
    },
    {
      "inputs": [],
      "name": "IncidentReport__NotWrongChoice",
      "type": "error"
    },
    {
      "inputs": [],
      "name": "IncidentReport__PoolNotExist",
      "type": "error"
    },
    {
      "inputs": [],
      "name": "IncidentReport__WrongChoice",
      "type": "error"
    },
    {
      "inputs": [],
      "name": "IncidentReport__WrongPeriod",
      "type": "error"
    },
    {
      "inputs": [],
      "name": "IncidentReport__WrongStatus",
      "type": "error"
    },
    {
      "inputs": [],
      "name": "IncidentReport__ZeroAmount",
      "type": "error"
    },
    {
      "anonymous": false,
      "inputs": [
        {
          "indexed": false,
          "internalType": "address",
          "name": "payer",
          "type": "address"
        },
        {
          "indexed": false,
          "internalType": "address",
          "name": "user",
          "type": "address"
        },
        {
          "indexed": false,
          "internalType": "uint256",
          "name": "debt",
          "type": "uint256"
        },
        {
          "indexed": false,
          "internalType": "uint256",
          "name": "unlockAmount",
          "type": "uint256"
        }
      ],
      "name": "DebtPaid",
      "type": "event"
    },
    {
      "anonymous": false,
      "inputs": [
        {
          "indexed": true,
          "internalType": "address",
          "name": "previousOwner",
          "type": "address"
        },
        {
          "indexed": true,
          "internalType": "address",
          "name": "newOwner",
          "type": "address"
        }
      ],
      "name": "OwnershipTransferred",
      "type": "event"
    },
    {
      "anonymous": false,
      "inputs": [
        {
          "indexed": false,
          "internalType": "uint256",
          "name": "reportId",
          "type": "uint256"
        },
        {
          "indexed": false,
          "internalType": "uint256",
          "name": "closeTimestamp",
          "type": "uint256"
        }
      ],
      "name": "ReportClosed",
      "type": "event"
    },
    {
      "anonymous": false,
      "inputs": [
        {
          "indexed": false,
          "internalType": "uint256",
          "name": "reportId",
          "type": "uint256"
        },
        {
          "indexed": true,
          "internalType": "uint256",
          "name": "poolId",
          "type": "uint256"
        },
        {
          "indexed": false,
          "internalType": "uint256",
          "name": "reportTimestamp",
          "type": "uint256"
        },
        {
          "indexed": true,
          "internalType": "address",
          "name": "reporter",
          "type": "address"
        },
        {
          "indexed": false,
          "internalType": "uint256",
          "name": "payout",
          "type": "uint256"
        }
      ],
      "name": "ReportCreated",
      "type": "event"
    },
    {
      "anonymous": false,
      "inputs": [
        {
          "indexed": false,
          "internalType": "uint256",
          "name": "reportId",
          "type": "uint256"
        },
        {
          "indexed": false,
          "internalType": "uint256",
          "name": "round",
          "type": "uint256"
        }
      ],
      "name": "ReportExtended",
      "type": "event"
    },
    {
      "anonymous": false,
      "inputs": [
        {
          "indexed": false,
          "internalType": "uint256",
          "name": "reportId",
          "type": "uint256"
        }
      ],
      "name": "ReportFailed",
      "type": "event"
    },
    {
      "anonymous": false,
      "inputs": [
        {
          "indexed": false,
          "internalType": "uint256",
          "name": "reportId",
          "type": "uint256"
        },
        {
          "indexed": false,
          "internalType": "uint256",
          "name": "result",
          "type": "uint256"
        }
      ],
      "name": "ReportSettled",
      "type": "event"
    },
    {
      "anonymous": false,
      "inputs": [
        {
          "indexed": false,
          "internalType": "uint256",
          "name": "reportId",
          "type": "uint256"
        },
        {
          "indexed": true,
          "internalType": "address",
          "name": "user",
          "type": "address"
        },
        {
          "indexed": false,
          "internalType": "uint256",
          "name": "voteFor",
          "type": "uint256"
        },
        {
          "indexed": false,
          "internalType": "uint256",
          "name": "amount",
          "type": "uint256"
        }
      ],
      "name": "ReportVoted",
      "type": "event"
    },
    {
      "anonymous": false,
      "inputs": [
        {
          "indexed": false,
          "internalType": "uint256",
          "name": "reportId",
          "type": "uint256"
        },
        {
          "indexed": false,
          "internalType": "uint256",
          "name": "startTimestamp",
          "type": "uint256"
        }
      ],
      "name": "ReportVotingStart",
      "type": "event"
    },
    {
      "anonymous": false,
      "inputs": [
        {
          "indexed": false,
          "internalType": "uint256",
          "name": "reportId",
          "type": "uint256"
        },
        {
          "indexed": false,
          "internalType": "uint256",
          "name": "totalRewardToVoters",
          "type": "uint256"
        }
      ],
      "name": "VotingRewardSettled",
      "type": "event"
    },
    {
      "inputs": [],
      "name": "COOLDOWN_WRONG_REPORT",
      "outputs": [
        {
          "internalType": "uint256",
          "name": "",
          "type": "uint256"
        }
      ],
      "stateMutability": "view",
      "type": "function"
    },
    {
      "inputs": [
        {
          "internalType": "uint256",
          "name": "_id",
          "type": "uint256"
        }
      ],
      "name": "claimReward",
      "outputs": [],
      "stateMutability": "nonpayable",
      "type": "function"
    },
    {
      "inputs": [
        {
          "internalType": "uint256",
          "name": "_id",
          "type": "uint256"
        }
      ],
      "name": "closeReport",
      "outputs": [],
      "stateMutability": "nonpayable",
      "type": "function"
    },
    {
      "inputs": [
        {
          "internalType": "uint256",
          "name": "_poolId",
          "type": "uint256"
        }
      ],
      "name": "getPoolReports",
      "outputs": [
        {
          "internalType": "uint256[]",
          "name": "",
          "type": "uint256[]"
        }
      ],
      "stateMutability": "view",
      "type": "function"
    },
    {
      "inputs": [
        {
          "internalType": "uint256",
          "name": "_poolId",
          "type": "uint256"
        }
      ],
      "name": "getPoolReportsAmount",
      "outputs": [
        {
          "internalType": "uint256",
          "name": "",
          "type": "uint256"
        }
      ],
      "stateMutability": "view",
      "type": "function"
    },
    {
      "inputs": [
        {
          "internalType": "uint256",
          "name": "_id",
          "type": "uint256"
        }
      ],
      "name": "getReport",
      "outputs": [
        {
          "components": [
            {
              "internalType": "uint256",
              "name": "poolId",
              "type": "uint256"
            },
            {
              "internalType": "uint256",
              "name": "reportTimestamp",
              "type": "uint256"
            },
            {
              "internalType": "address",
              "name": "reporter",
              "type": "address"
            },
            {
              "internalType": "uint256",
              "name": "voteTimestamp",
              "type": "uint256"
            },
            {
              "internalType": "uint256",
              "name": "numFor",
              "type": "uint256"
            },
            {
              "internalType": "uint256",
              "name": "numAgainst",
              "type": "uint256"
            },
            {
              "internalType": "uint256",
              "name": "round",
              "type": "uint256"
            },
            {
              "internalType": "uint256",
              "name": "status",
              "type": "uint256"
            },
            {
              "internalType": "uint256",
              "name": "result",
              "type": "uint256"
            },
            {
              "internalType": "uint256",
              "name": "votingReward",
              "type": "uint256"
            },
            {
              "internalType": "uint256",
              "name": "payout",
              "type": "uint256"
            }
          ],
          "internalType": "struct IncidentReport.Report",
          "name": "",
          "type": "tuple"
        }
      ],
      "stateMutability": "view",
      "type": "function"
    },
    {
      "inputs": [
        {
          "internalType": "uint256",
          "name": "_poolId",
          "type": "uint256"
        }
      ],
      "name": "getTempResult",
      "outputs": [
        {
          "components": [
            {
              "internalType": "uint256",
              "name": "result",
              "type": "uint256"
            },
            {
              "internalType": "uint256",
              "name": "sampleTimestamp",
              "type": "uint256"
            },
            {
              "internalType": "bool",
              "name": "hasChanged",
              "type": "bool"
            }
          ],
          "internalType": "struct IncidentReport.TempResult",
          "name": "",
          "type": "tuple"
        }
      ],
      "stateMutability": "view",
      "type": "function"
    },
    {
      "inputs": [
        {
          "internalType": "address",
          "name": "_user",
          "type": "address"
        },
        {
          "internalType": "uint256",
          "name": "_poolId",
          "type": "uint256"
        }
      ],
      "name": "getUserVote",
      "outputs": [
        {
          "components": [
            {
              "internalType": "uint256",
              "name": "choice",
              "type": "uint256"
            },
            {
              "internalType": "uint256",
              "name": "amount",
              "type": "uint256"
            },
            {
              "internalType": "bool",
              "name": "claimed",
              "type": "bool"
            }
          ],
          "internalType": "struct IncidentReport.UserVote",
          "name": "",
          "type": "tuple"
        }
      ],
      "stateMutability": "view",
      "type": "function"
    },
    {
      "inputs": [],
      "name": "owner",
      "outputs": [
        {
          "internalType": "address",
          "name": "",
          "type": "address"
        }
      ],
      "stateMutability": "view",
      "type": "function"
    },
    {
      "inputs": [
        {
          "internalType": "uint256",
          "name": "_id",
          "type": "uint256"
        },
        {
          "internalType": "address",
          "name": "_user",
          "type": "address"
        }
      ],
      "name": "payDebt",
      "outputs": [],
      "stateMutability": "nonpayable",
      "type": "function"
    },
    {
      "inputs": [
        {
          "internalType": "uint256",
          "name": "",
          "type": "uint256"
        },
        {
          "internalType": "uint256",
          "name": "",
          "type": "uint256"
        }
      ],
      "name": "poolReports",
      "outputs": [
        {
          "internalType": "uint256",
          "name": "",
          "type": "uint256"
        }
      ],
      "stateMutability": "view",
      "type": "function"
    },
    {
      "inputs": [],
      "name": "priorityPoolFactory",
      "outputs": [
        {
          "internalType": "contract IPriorityPoolFactory",
          "name": "",
          "type": "address"
        }
      ],
      "stateMutability": "view",
      "type": "function"
    },
    {
      "inputs": [],
      "name": "renounceOwnership",
      "outputs": [],
      "stateMutability": "nonpayable",
      "type": "function"
    },
    {
      "inputs": [
        {
          "internalType": "uint256",
          "name": "_poolId",
          "type": "uint256"
        },
        {
          "internalType": "uint256",
          "name": "_payout",
          "type": "uint256"
        }
      ],
      "name": "report",
      "outputs": [],
      "stateMutability": "nonpayable",
      "type": "function"
    },
    {
      "inputs": [],
      "name": "reportCounter",
      "outputs": [
        {
          "internalType": "uint256",
          "name": "",
          "type": "uint256"
        }
      ],
      "stateMutability": "view",
      "type": "function"
    },
    {
      "inputs": [
        {
          "internalType": "address",
          "name": "",
          "type": "address"
        }
      ],
      "name": "reported",
      "outputs": [
        {
          "internalType": "bool",
          "name": "",
          "type": "bool"
        }
      ],
      "stateMutability": "view",
      "type": "function"
    },
    {
      "inputs": [
        {
          "internalType": "uint256",
          "name": "",
          "type": "uint256"
        }
      ],
      "name": "reports",
      "outputs": [
        {
          "internalType": "uint256",
          "name": "poolId",
          "type": "uint256"
        },
        {
          "internalType": "uint256",
          "name": "reportTimestamp",
          "type": "uint256"
        },
        {
          "internalType": "address",
          "name": "reporter",
          "type": "address"
        },
        {
          "internalType": "uint256",
          "name": "voteTimestamp",
          "type": "uint256"
        },
        {
          "internalType": "uint256",
          "name": "numFor",
          "type": "uint256"
        },
        {
          "internalType": "uint256",
          "name": "numAgainst",
          "type": "uint256"
        },
        {
          "internalType": "uint256",
          "name": "round",
          "type": "uint256"
        },
        {
          "internalType": "uint256",
          "name": "status",
          "type": "uint256"
        },
        {
          "internalType": "uint256",
          "name": "result",
          "type": "uint256"
        },
        {
          "internalType": "uint256",
          "name": "votingReward",
          "type": "uint256"
        },
        {
          "internalType": "uint256",
          "name": "payout",
          "type": "uint256"
        }
      ],
      "stateMutability": "view",
      "type": "function"
    },
    {
      "inputs": [
        {
          "internalType": "address",
          "name": "_priorityPoolFactory",
          "type": "address"
        }
      ],
      "name": "setPriorityPoolFactory",
      "outputs": [],
      "stateMutability": "nonpayable",
      "type": "function"
    },
    {
      "inputs": [
        {
          "internalType": "uint256",
          "name": "_id",
          "type": "uint256"
        }
      ],
      "name": "settle",
      "outputs": [],
      "stateMutability": "nonpayable",
      "type": "function"
    },
    {
      "inputs": [
        {
          "internalType": "uint256",
          "name": "_id",
          "type": "uint256"
        }
      ],
      "name": "startVoting",
      "outputs": [],
      "stateMutability": "nonpayable",
      "type": "function"
    },
    {
      "inputs": [
        {
          "internalType": "uint256",
          "name": "",
          "type": "uint256"
        }
      ],
      "name": "tempResults",
      "outputs": [
        {
          "internalType": "uint256",
          "name": "result",
          "type": "uint256"
        },
        {
          "internalType": "uint256",
          "name": "sampleTimestamp",
          "type": "uint256"
        },
        {
          "internalType": "bool",
          "name": "hasChanged",
          "type": "bool"
        }
      ],
      "stateMutability": "view",
      "type": "function"
    },
    {
      "inputs": [
        {
          "internalType": "address",
          "name": "newOwner",
          "type": "address"
        }
      ],
      "name": "transferOwnership",
      "outputs": [],
      "stateMutability": "nonpayable",
      "type": "function"
    },
    {
      "inputs": [
        {
          "internalType": "uint256",
          "name": "_poolId",
          "type": "uint256"
        }
      ],
      "name": "unpausePools",
      "outputs": [],
      "stateMutability": "nonpayable",
      "type": "function"
    },
    {
      "inputs": [
        {
          "internalType": "uint256",
          "name": "_id",
          "type": "uint256"
        },
        {
          "internalType": "uint256",
          "name": "_isFor",
          "type": "uint256"
        },
        {
          "internalType": "uint256",
          "name": "_amount",
          "type": "uint256"
        }
      ],
      "name": "vote",
      "outputs": [],
      "stateMutability": "nonpayable",
      "type": "function"
    },
    {
      "inputs": [
        {
          "internalType": "address",
          "name": "",
          "type": "address"
        },
        {
          "internalType": "uint256",
          "name": "",
          "type": "uint256"
        }
      ],
      "name": "votes",
      "outputs": [
        {
          "internalType": "uint256",
          "name": "choice",
          "type": "uint256"
        },
        {
          "internalType": "uint256",
          "name": "amount",
          "type": "uint256"
        },
        {
          "internalType": "bool",
          "name": "claimed",
          "type": "bool"
        }
      ],
      "stateMutability": "view",
      "type": "function"
    }
  ],
  "transactionHash": "0xc2ad2c9985ba6023cb0700a8b24e723a7509e450921e0c526a1cbd209143b5de",
  "args": [
    "0x02acc516ac3Bf3c8E07E2fDF42A4A4F8Dd045EDD",
    "0xE2803140adDc261822DCEb1B28Cca568297197b8",
    "0x5CCC562D1b4ED7c75dFd22B63fe3ab8b8F2001dD"
  ],
  "numDeployments": 6,
  "solcInputHash": "a72266a9511da4ed10aaff2bef53d9af",
  "bytecode": "0x60e034620000e557601f62001da938819003918201601f19168301916001600160401b03831184841017620000ea57808492606094604052833981010312620000e5576200004d8162000100565b620000696040620000616020850162000100565b930162000100565b6001600160a01b0391821660805291811660a0521660c052600080546001600160a01b03191633179055604051611c93908162000116823960805181818161031f0152818161060301528181610a06015261122d015260a0518181816103850152818161098301528181610dae0152611b99015260c051815050f35b600080fd5b634e487b7160e01b600052604160045260246000fd5b51906001600160a01b0382168203620000e55756fe60808060405260048036101561001457600080fd5b600091823560e01c9081633d2f5bda14611852575080633eaa91f51461181357806343a5ada2146117755780634a13a0ee146117365780634e7f9b19146115da5780636530db981461152b5780636f8a6e4314611502578063715018a6146114a2578063753c09851461115b5780637aaf11c7146111335780638a6655d614610d4c5780638da5cb5b14610d255780638df8280014610897578063966d8a5f146108655780639e172155146108475780639f2524ee146107db578063a01bc01f14610769578063ad35e1dc14610720578063ae169a501461057e578063b9bc38f21461055d578063c942adf7146104bb578063d9dc8f1d14610293578063e7d918e21461025e578063f2fde38b1461018e5763fc6e85d31461013557600080fd5b3461018a57602036600319011261018a5790604091358152600560205220805461018660ff600260018501549401541660405193849384919260409194936060840195845260208401521515910152565b0390f35b5080fd5b503461018a57602036600319011261018a576101a86118e4565b82546001600160a01b03929183916101c3908316331461193e565b1690811561020b5750600054816040519382167f8be0079c531659141344cd1fd0a4f28419497f9722a3daafe3b4186f6b6457e0600086a36001600160a01b03191617600055f35b60849060206040519162461bcd60e51b8352820152602660248201527f4f776e61626c653a206e6577206f776e657220697320746865207a65726f206160448201526564647265737360d01b6064820152fd5b503461018a57602036600319011261018a5761028e9061028860018060a01b03845416331461193e565b35611b19565b604051f35b503461018a57604036600319011261018a576001600160a01b0390602435828116919081358382036104b6578386526006602052604086208187526020526102dd60408720611a1b565b9086526003602052600860408720015480156104a5578151146104945760200191825180600019046050118115151661047f57906127106050889493020495807f000000000000000000000000000000000000000000000000000000000000000016803b1561045c576040805163342c6d4d60e11b815233858201908152602081018b90529092879284928391859183910103925af1908115610474578591610460575b50507f000000000000000000000000000000000000000000000000000000000000000016845190803b1561045c5760408051634bdc2db560e11b81526001600160a01b039095169385019384526020840192909252849284928391859183910103925af1801561045157610435575b507fb4b7f3a9d727d0ac344f696304df335d2936ce3b0a58d52600c692632c9fa7256080848685519060405192338452602084015260408301526060820152a1604051f35b610441909392936119aa565b61044d579083386103f0565b8380fd5b6040513d84823e3d90fd5b8480fd5b610469906119aa565b61044d578338610381565b6040513d87823e3d90fd5b601182634e487b7160e01b6000525260246000fd5b604051631ae2961d60e01b81528390fd5b60405163403ba18960e01b81528490fd5b600080fd5b503461018a57602036600319011261018a57604061016092823581526003602052209081549160018101549160018060a01b03600283015416906003830154908301546005840154600685015491600786015493600887015495600a6009890154980154986040519a8b5260208b015260408a01526060890152608088015260a087015260c086015260e0850152610100840152610120830152610140820152f35b823461057b578060031936011261057b576020600254604051908152f35b80fd5b503461018a5760208060031936011261071c57813591338452600682526040842083855282526105b060408520611a1b565b90838552600383526008604086200154801561070c5760408301516106fc57825181036106d357508385526003835282600960408720015492019182519080600019048211811515166106be57869291907f00000000000000000000000000000000000000000000000000000000000000006001600160a01b0316803b1561045c576040805163168ece7360e31b81523395810195865264e8d4a5100094909302939093046020850152909284928492918391859183910103925af18015610451576106aa575b5050610684905133611b97565b33835260068152604083209183525260026040822001600160ff19825416179055604051f35b6106b3906119aa565b61044d578338610677565b601183634e487b7160e01b6000525260246000fd5b6003036106ed5750816106e891015133611b97565b610684565b60405163158f1f4160e11b8152fd5b5060405163961e9b0d60e01b8152fd5b5060405163403ba18960e01b8152fd5b8280fd5b823461057b57602036600319011261057b5761073a6118e4565b81546001600160a01b039190610753908316331461193e565b1660018060a01b03196001541617600155604051f35b823461057b57604036600319011261057b576107b6604060609261078b6118e4565b6107936119fc565b506001600160a01b03168152600660209081528282206024358352905220611a1b565b6107d9604051809260408091805184526020810151602085015201511515910152565bf35b823461057b57604036600319011261057b576040906001600160a01b036108006118e4565b1681526006602052818120602435825260205220805461018660ff600260018501549401541660405193849384919260409194936060840195845260208401521515910152565b823461057b578060031936011261057b57602060405162093a808152f35b503461018a57602036600319011261018a5760406060926107b6926108886119fc565b50358152600560205220611a1b565b50903461057b576020918260031936011261018a578035928383526003938482526040842092600784019560029081885403610d1457600686019081549881880154611c20198111610d01576108fa90611c206108f38d611a6a565b9101611a48565b4210610cf05760088801928354610cdf57899a8560ff8160408e8d9e9f8d9e60059150829f835252200154169182610cd5575b505015610cb257868b52828952600660408c2001600181540190555b8715610c6157508190556109658489015460058a015490611a48565b6040516318160ddd60e01b81526001600160a01b03939190898188817f000000000000000000000000000000000000000000000000000000000000000089165afa908115610c56578c91610c29575b508060001904600a1181151516610c14576064600a919091020411610bd35786905584895286526040882091838301549360058401549260088501548b9060018114600014610b0957505090818b93927f0000000000000000000000000000000000000000000000000000000000000000169286015416823b1561044d576044849283604051958694859363168ece7360e31b855284015269043c33c193756480000060248401525af1801561045157610ae7575b5050600195600080516020611c3e83398151915260408095600080516020611c1e83398151915297956009610ab36064610aa38d99611a81565b0493610aae85611a97565b611ab1565b9101555b81519086825284820152a18351928352820152a103610ad7575b50604051f35b610ae19054611b19565b38610ad1565b610af6909593959492946119aa565b610b0557918738949294610a69565b8780fd5b909b9a9996929593915014610b4b575b50505050600080516020611c1e8339815191529183604092600080516020611c3e83398151915284600198999a610ab7565b60649192939950610b5b90611a81565b0469021e19e0c9bab240000081198111610bc0576001979899506040600080516020611c1e833981519152969488946009610bad849996600080516020611c3e833981519152960193610aae85611a97565b9101559a99985050839550819450610b19565b634e487b7160e01b895260118a52602489fd5b915050610c089394507f1dcabc7d01df1ee725f7c437ce5ec43e00015579d266f8a65d0911c4eb36ad90969291505554611b19565b604051908152a1604051f35b601187634e487b7160e01b6000525260246000fd5b90508981813d8311610c4f575b610c4081836119da565b810103126104b65751386109b4565b503d610c36565b6040513d8e823e3d90fd5b94505050507fb7891e9b049f460b1641e0a0556e45b1d2adfb12bd2c6459ea5a5d645d40179d9550826040959394508752600583528487200160ff19815416905554908351928352820152a1604051f35b9650818852610ccf8560408c200154600560408d20015490611ae5565b96610949565b109050853861092d565b60405163037d379160e11b81528690fd5b6040516324b1a7e960e01b81528590fd5b634e487b7160e01b8a526011865260248afd5b60405163363bbdfd60e01b81528390fd5b823461057b578060031936011261057b57546040516001600160a01b039091168152602090f35b50903461057b57606036600319011261057b57813560249283356044359183855260209060038252600260076040882001540361112457831561111557600183149182158061110a575b6110fa576040516370a0823160e01b815233838201527f00000000000000000000000000000000000000000000000000000000000000006001600160a01b03169082818b81855afa9081156110ef5789916110c2575b5060405163cbf9fe5f60e01b815233858201529083828c81865afa9182156110b7578a92611088575b508181106110745703861161106357803b15610b055760408051633c56aa6160e11b8152338582019081526020810189905290928a9284928391859183910103925af1801561105857908891611040575b505033875260068152604080882087895282528720600181018054909186911561103a575403611029575b610e9c868254611a48565b90558587526003815260408720921561101357818301610ebd868254611a48565b90555b8587526005815260ff6002604089200154161580610f72575b7f025e12b9cbba227587ada73c57f6b6b6a70272d7ed782681793125ec29afc77b96979850610f23575b5050604080519586526020860192909252508301523391606090a2604051f35b600580610f3f9385015494015491888a52526040882092611ae5565b815480610f58575b508155600142910155388080610f03565b600283019060ff8019835416918414151617905538610f47565b506003830154600684015490611c2019811161100157611c20610fb19101610fab610fa5610f9f85611a6a565b83611a48565b93611a6a565b90611a48565b610e108110611001577f025e12b9cbba227587ada73c57f6b6b6a70272d7ed782681793125ec29afc77b97989950610e0f190142119081610ff7575b5088979650610ed9565b9050421038610fed565b634e487b7160e01b8952601184528989fd5b60058301611022868254611a48565b9055610ec0565b6040516346bdda4560e11b81528390fd5b55610e91565b611049906119aa565b611054578638610e66565b8680fd5b6040513d8a823e3d90fd5b60405163729aeac360e01b81528390fd5b8a601186634e487b7160e01b600052526000fd5b9091508381813d83116110b0575b6110a081836119da565b810103126104b657519038610e15565b503d611096565b6040513d8c823e3d90fd5b90508281813d83116110e8575b6110d981836119da565b810103126104b6575138610dec565b503d6110cf565b6040513d8b823e3d90fd5b50604051631422ca1d60e31b8152fd5b506002841415610d96565b60405163583202e160e01b8152fd5b60405163363bbdfd60e01b8152fd5b503461018a57602036600319011261018a576020918160409235825283522054604051908152f35b50903461057b5761116b366118fa565b600180546040516315895f4760e31b815280870185905291956001600160a01b0394939260249287908290859082908a165afa9081156114975790869188916113ba575b501680156113aa57808752600760205260ff60408820541661139a578652600760205260408620805460ff19168817905560025460001997908881146113885781016002818155818952600360205260408920878155428185015590810180546001600160a01b0319163317905560078101839055600a01859055957f00000000000000000000000000000000000000000000000000000000000000008116803b156113845788809160446040518094819363342c6d4d60e11b8352338a84015269021e19e0c9bab24000008b8401525af180156110ef57611371575b5085885260208390526040882080549990600160401b8b101561135f57976112bf8b8b9c9a86849d9a9b9c018155611910565b909283549160031b90811b9283911b16911916179055815416803b1561045c5784928360449289946040519788968795631b35278960e01b87528601528401525af180156104515761134b575b50506040805193845242602085015283015233917fe4af8b66d6c4b132955627bb2e4e80a62c544714e2f19dafec934a3b156cbe9390606090a3604051f35b611354906119aa565b61044d57833861130c565b634e487b7160e01b8a5260418552858afd5b61137d909891986119aa565b963861128c565b8880fd5b634e487b7160e01b8852601183528388fd5b506040516360b2438960e01b8152fd5b5060405163148115cf60e21b8152fd5b9150503d8088833e6113cc81836119da565b810160a082820312610b0557815167ffffffffffffffff9081811161149357830182601f8201121561149357805191821161135f576040519060209361141b85601f19601f87011601846119da565b83835284848301011161148f57918a918a95949383905b8382106114745750928483611461969361145a9560409711611468575b505050508401611b05565b9201611b05565b50386111af565b0101528b81388061144f565b8181018601518284018701528c97508d945090850190611432565b8a80fd5b8980fd5b6040513d89823e3d90fd5b823461057b578060031936011261057b5780546001600160a01b038116906114cb33831461193e565b82604051927f8be0079c531659141344cd1fd0a4f28419497f9722a3daafe3b4186f6b6457e08285a36001600160a01b0319168255f35b823461057b578060031936011261057b576001546040516001600160a01b039091168152602090f35b503461018a57602036600319011261018a5780359061155460018060a01b03845416331461193e565b81835260036020526040832090600782019160018354036115ca57600161157c910154611ad1565b6115bb57507f17b76cf2012024f7fe05b4a8b036b188464d5b49b7c8532e95c5c67a4b792eb291610194604092558151908152426020820152a1604051f35b6040516324b1a7e960e01b8152fd5b5060405163363bbdfd60e01b8152fd5b503461018a57602036600319011261018a57610140610160926040516115ff81611977565b8181528160208201528160408201528160608201528160808201528160a08201528160c08201528160e08201526040610100928084840152808561012094828682015201528535815260036020522091600a6040519361165e85611977565b8054968786526001820154602087015260018060a01b036002830154166040870152600382015460608701528101546080860152600581015460a0860152600681015460c0860152600781015460e08601526008810154838601526009810154848601520154848401526040519485526020830151602086015260018060a01b036040840151166040860152606083015160608601526080830151608086015260a083015160a086015260c083015160c086015260e083015160e0860152808301519085015280820151908401520151610140820152f35b50903461057b57611746366118fa565b929082526020526040812090815483101561057b5760206117678484611910565b90546040519160031b1c8152f35b503461018a576020908160031936011261071c578035835281526040822060405192838383549182815201908193835284832090835b8181106117ff57505050846117c19103856119da565b60405193838594850191818652518092526040850193925b8281106117e857505050500390f35b8351855286955093810193928101926001016117d9565b8254845292860192600192830192016117ab565b823461057b57602036600319011261057b5760209060ff906040906001600160a01b0361183e6118e4565b168152600784522054166040519015158152f35b9190503461071c57602036600319011261071c5780359182845260036020526040842091600783019160018354036118d857506118926001840154611ad1565b156115bb57509160409160027fde7965c8d6f24b73501e8bcad1a4f03937db4f902bfda3bee08b335accf0749694556003429101558151908152426020820152a1604051f35b63363bbdfd60e01b8152fd5b600435906001600160a01b03821682036104b657565b60409060031901126104b6576004359060243590565b80548210156119285760005260206000200190600090565b634e487b7160e01b600052603260045260246000fd5b1561194557565b60405162461bcd60e51b815260206004820152600a60248201526927b7363c9037bbb732b960b11b6044820152606490fd5b610160810190811067ffffffffffffffff82111761199457604052565b634e487b7160e01b600052604160045260246000fd5b67ffffffffffffffff811161199457604052565b6060810190811067ffffffffffffffff82111761199457604052565b90601f8019910116810190811067ffffffffffffffff82111761199457604052565b60405190611a09826119be565b60006040838281528260208201520152565b90604051611a28816119be565b604060ff6002839580548552600181015460208601520154161515910152565b81198111611a54570190565b634e487b7160e01b600052601160045260246000fd5b610e10908060001904821181151516611a54570290565b806000190460281181151516611a545760280290565b64e8d4a51000908060001904821181151516611a54570290565b8115611abb570490565b634e487b7160e01b600052601260045260246000fd5b611c20198111611a5457611c200142101590565b81811115611af55750506001905b565b1015611b0057600290565b600390565b51906001600160a01b03821682036104b657565b6001546001600160a01b031690813b156104b657604051918291631b35278960e01b835260048301528160446000938480948160248401525af18015611b8a57611b61575050565b67ffffffffffffffff8211611b765750604052565b634e487b7160e01b81526041600452602490fd5b50604051903d90823e3d90fd5b7f00000000000000000000000000000000000000000000000000000000000000006001600160a01b031691823b156104b657604051634bdc2db560e11b81526001600160a01b039290921660048301526024820152906000908290604490829084905af18015611c1157611c085750565b611af3906119aa565b6040513d6000823e3d90fdfe30922d3a94c33e0ce3f99be437cbdf00f141e304f742a1cbd0df5cc5b490cd45bf97c766fd98feb70e7d5cc384ac953bcce9a7ca082cf57da33a199d67f7b7aba264697066735822122098672861bbfe8c68a9d9e8bc2e9e49f4503a3d95fd62c60b44c8a74674ba9ad264736f6c634300080f0033",
  "devdoc": {
    "kind": "dev",
    "methods": {
      "claimReward(uint256)": {
        "params": {
          "_id": "Report id"
        }
      },
      "closeReport(uint256)": {
        "params": {
          "_id": "Report id"
        }
      },
      "owner()": {
        "details": "Returns the address of the current owner."
      },
      "payDebt(uint256,address)": {
        "params": {
          "_id": "Report id",
          "_user": "User address (can pay debt for another user)"
        }
      },
      "renounceOwnership()": {
        "details": "Leaves the contract without owner. It will not be possible to call `onlyOwner` functions anymore. Can only be called by the current owner. NOTE: Renouncing ownership will leave the contract without an owner, thereby removing any functionality that is only available to the owner."
      },
      "report(uint256,uint256)": {
        "params": {
          "_payout": "Payout amount of this report",
          "_poolId": "Pool id to report incident"
        }
      },
      "settle(uint256)": {
        "params": {
          "_id": "Report id"
        }
      },
      "startVoting(uint256)": {
        "params": {
          "_id": "Report id"
        }
      },
      "transferOwnership(address)": {
        "details": "Transfers ownership of the contract to a new account (`newOwner`). Can only be called by the current owner."
      },
      "vote(uint256,uint256,uint256)": {
        "params": {
          "_amount": "Amount of veDEG used for this vote",
          "_id": "Id of the report to be voted on",
          "_isFor": "The user's choice (1: vote for, 2: vote against)"
        }
      }
    },
    "version": 1
  },
  "userdoc": {
    "kind": "user",
    "methods": {
      "claimReward(uint256)": {
        "notice": "Claim the voting reward         Only callable through proposal center"
      },
      "closeReport(uint256)": {
        "notice": "Close a pending report         Only owner can close a pending report         Can only be closed before the pending period ends         Will change the status from PENDING to CLOSED"
      },
      "payDebt(uint256,address)": {
        "notice": "Pay debt to get back veDEG         For those who made a wrong voting choice         The paid DEG will be burned and the veDEG will be unlocked"
      },
      "report(uint256,uint256)": {
        "notice": "Start a new incident report         1000 DEG tokens are staked to start a report         If the report is correct, reporter gets back 1000DEG + 10% shield income + extra 1000DEG         If the report is wrong, reporter loses 1000DEG to those who vote against         Only callable through proposal center"
      },
      "settle(uint256)": {
        "notice": "Settle the final result for a report"
      },
      "startVoting(uint256)": {
        "notice": "Start the voting process         Can only be started after the pending period         Will change the status from PENDING to VOTING"
      },
      "vote(uint256,uint256,uint256)": {
        "notice": "Vote on current reports         Voting power is decided by the (unlocked) balance of veDEG         Once voted, those veDEG will be locked         Rewarded if votes with majority         Punished if votes against majority"
      }
    },
    "notice": "Incident Report Contract         New reports for project hacks are handled inside this contract         Timeline for a report is:         |-----------------------|----------------------|-------|-------|               Pending Period         Voting Period       Extend Period         When a new report is proposed, it start with PENDING_STATUS.         The person who start the report need to deposit REPORT_THRESHOLD DEG tokens.         During PENDING_STATUS, users & security companies can look at the report event.         After PENDING_PERIOD, the voting can be started and status transfer to VOTING_STATUS.         Users can vote for or against the report with veDeg tokens.         VeDeg tokens used for voting will be tentatively locked until the voting is settled.         After VOTING_PERIOD, the voting can be settled and status transfer to SETTLED_STATUS.         Depending on the votes of each side, the result can be PASSED, REJECTED or TIED.         Different results for their veDeg tokens will be set depending on the result.         If the result has changes during the last 24 hours of voting, the voting will be extended.         The time can only be extended twice.         For voters:              PASSED: Who vote for will get all veDeg tokens from the opposite side              REJECTED: Who vote against will get all veDeg tokens from the opposite side              TIED: Users can unlock their veDeg tokens         For reporter:              PASSED: Get back REPORT_THRESHOLD and get extra REPORT_REWARD & 10% of total treasury income              REJECTED: Lose REPORT_THRESHOLD to whom vote against              TIED: Lose REPORT_THRESHOLD         When an incident report has passed and been executed         The corresponding priority pool will be liquidated which means:             - Move out some assets for users to claim             - Deploy new generation of crTokens and PRI-LP tokens             - Update the farming weights for the priority farming pool",
    "version": 1
  },
  "storageLayout": {
    "storage": [
      {
        "astId": 21429,
        "contract": "src/voting/incidentReport/IncidentReport.sol:IncidentReport",
        "label": "_owner",
        "offset": 0,
        "slot": "0",
        "type": "t_address"
      },
      {
        "astId": 23108,
        "contract": "src/voting/incidentReport/IncidentReport.sol:IncidentReport",
        "label": "priorityPoolFactory",
        "offset": 0,
        "slot": "1",
        "type": "t_contract(IPriorityPoolFactory)14066"
      },
      {
        "astId": 21775,
        "contract": "src/voting/incidentReport/IncidentReport.sol:IncidentReport",
        "label": "reportCounter",
        "offset": 0,
        "slot": "2",
        "type": "t_uint256"
      },
      {
        "astId": 21803,
        "contract": "src/voting/incidentReport/IncidentReport.sol:IncidentReport",
        "label": "reports",
        "offset": 0,
        "slot": "3",
        "type": "t_mapping(t_uint256,t_struct(Report)21798_storage)"
      },
      {
        "astId": 21808,
        "contract": "src/voting/incidentReport/IncidentReport.sol:IncidentReport",
        "label": "poolReports",
        "offset": 0,
        "slot": "4",
        "type": "t_mapping(t_uint256,t_array(t_uint256)dyn_storage)"
      },
      {
        "astId": 21820,
        "contract": "src/voting/incidentReport/IncidentReport.sol:IncidentReport",
        "label": "tempResults",
        "offset": 0,
        "slot": "5",
        "type": "t_mapping(t_uint256,t_struct(TempResult)21815_storage)"
      },
      {
        "astId": 21834,
        "contract": "src/voting/incidentReport/IncidentReport.sol:IncidentReport",
        "label": "votes",
        "offset": 0,
        "slot": "6",
        "type": "t_mapping(t_address,t_mapping(t_uint256,t_struct(UserVote)21827_storage))"
      },
      {
        "astId": 21838,
        "contract": "src/voting/incidentReport/IncidentReport.sol:IncidentReport",
        "label": "reported",
        "offset": 0,
        "slot": "7",
        "type": "t_mapping(t_address,t_bool)"
      }
    ],
    "types": {
      "t_address": {
        "encoding": "inplace",
        "label": "address",
        "numberOfBytes": "20"
      },
      "t_array(t_uint256)dyn_storage": {
        "base": "t_uint256",
        "encoding": "dynamic_array",
        "label": "uint256[]",
        "numberOfBytes": "32"
      },
      "t_bool": {
        "encoding": "inplace",
        "label": "bool",
        "numberOfBytes": "1"
      },
      "t_contract(IPriorityPoolFactory)14066": {
        "encoding": "inplace",
        "label": "contract IPriorityPoolFactory",
        "numberOfBytes": "20"
      },
      "t_mapping(t_address,t_bool)": {
        "encoding": "mapping",
        "key": "t_address",
        "label": "mapping(address => bool)",
        "numberOfBytes": "32",
        "value": "t_bool"
      },
      "t_mapping(t_address,t_mapping(t_uint256,t_struct(UserVote)21827_storage))": {
        "encoding": "mapping",
        "key": "t_address",
        "label": "mapping(address => mapping(uint256 => struct IncidentReport.UserVote))",
        "numberOfBytes": "32",
        "value": "t_mapping(t_uint256,t_struct(UserVote)21827_storage)"
      },
      "t_mapping(t_uint256,t_array(t_uint256)dyn_storage)": {
        "encoding": "mapping",
        "key": "t_uint256",
        "label": "mapping(uint256 => uint256[])",
        "numberOfBytes": "32",
        "value": "t_array(t_uint256)dyn_storage"
      },
      "t_mapping(t_uint256,t_struct(Report)21798_storage)": {
        "encoding": "mapping",
        "key": "t_uint256",
        "label": "mapping(uint256 => struct IncidentReport.Report)",
        "numberOfBytes": "32",
        "value": "t_struct(Report)21798_storage"
      },
      "t_mapping(t_uint256,t_struct(TempResult)21815_storage)": {
        "encoding": "mapping",
        "key": "t_uint256",
        "label": "mapping(uint256 => struct IncidentReport.TempResult)",
        "numberOfBytes": "32",
        "value": "t_struct(TempResult)21815_storage"
      },
      "t_mapping(t_uint256,t_struct(UserVote)21827_storage)": {
        "encoding": "mapping",
        "key": "t_uint256",
        "label": "mapping(uint256 => struct IncidentReport.UserVote)",
        "numberOfBytes": "32",
        "value": "t_struct(UserVote)21827_storage"
      },
      "t_struct(Report)21798_storage": {
        "encoding": "inplace",
        "label": "struct IncidentReport.Report",
        "members": [
          {
            "astId": 21777,
            "contract": "src/voting/incidentReport/IncidentReport.sol:IncidentReport",
            "label": "poolId",
            "offset": 0,
            "slot": "0",
            "type": "t_uint256"
          },
          {
            "astId": 21779,
            "contract": "src/voting/incidentReport/IncidentReport.sol:IncidentReport",
            "label": "reportTimestamp",
            "offset": 0,
            "slot": "1",
            "type": "t_uint256"
          },
          {
            "astId": 21781,
            "contract": "src/voting/incidentReport/IncidentReport.sol:IncidentReport",
            "label": "reporter",
            "offset": 0,
            "slot": "2",
            "type": "t_address"
          },
          {
            "astId": 21783,
            "contract": "src/voting/incidentReport/IncidentReport.sol:IncidentReport",
            "label": "voteTimestamp",
            "offset": 0,
            "slot": "3",
            "type": "t_uint256"
          },
          {
            "astId": 21785,
            "contract": "src/voting/incidentReport/IncidentReport.sol:IncidentReport",
            "label": "numFor",
            "offset": 0,
            "slot": "4",
            "type": "t_uint256"
          },
          {
            "astId": 21787,
            "contract": "src/voting/incidentReport/IncidentReport.sol:IncidentReport",
            "label": "numAgainst",
            "offset": 0,
            "slot": "5",
            "type": "t_uint256"
          },
          {
            "astId": 21789,
            "contract": "src/voting/incidentReport/IncidentReport.sol:IncidentReport",
            "label": "round",
            "offset": 0,
            "slot": "6",
            "type": "t_uint256"
          },
          {
            "astId": 21791,
            "contract": "src/voting/incidentReport/IncidentReport.sol:IncidentReport",
            "label": "status",
            "offset": 0,
            "slot": "7",
            "type": "t_uint256"
          },
          {
            "astId": 21793,
            "contract": "src/voting/incidentReport/IncidentReport.sol:IncidentReport",
            "label": "result",
            "offset": 0,
            "slot": "8",
            "type": "t_uint256"
          },
          {
            "astId": 21795,
            "contract": "src/voting/incidentReport/IncidentReport.sol:IncidentReport",
            "label": "votingReward",
            "offset": 0,
            "slot": "9",
            "type": "t_uint256"
          },
          {
            "astId": 21797,
            "contract": "src/voting/incidentReport/IncidentReport.sol:IncidentReport",
            "label": "payout",
            "offset": 0,
            "slot": "10",
            "type": "t_uint256"
          }
        ],
        "numberOfBytes": "352"
      },
      "t_struct(TempResult)21815_storage": {
        "encoding": "inplace",
        "label": "struct IncidentReport.TempResult",
        "members": [
          {
            "astId": 21810,
            "contract": "src/voting/incidentReport/IncidentReport.sol:IncidentReport",
            "label": "result",
            "offset": 0,
            "slot": "0",
            "type": "t_uint256"
          },
          {
            "astId": 21812,
            "contract": "src/voting/incidentReport/IncidentReport.sol:IncidentReport",
            "label": "sampleTimestamp",
            "offset": 0,
            "slot": "1",
            "type": "t_uint256"
          },
          {
            "astId": 21814,
            "contract": "src/voting/incidentReport/IncidentReport.sol:IncidentReport",
            "label": "hasChanged",
            "offset": 0,
            "slot": "2",
            "type": "t_bool"
          }
        ],
        "numberOfBytes": "96"
      },
      "t_struct(UserVote)21827_storage": {
        "encoding": "inplace",
        "label": "struct IncidentReport.UserVote",
        "members": [
          {
            "astId": 21822,
            "contract": "src/voting/incidentReport/IncidentReport.sol:IncidentReport",
            "label": "choice",
            "offset": 0,
            "slot": "0",
            "type": "t_uint256"
          },
          {
            "astId": 21824,
            "contract": "src/voting/incidentReport/IncidentReport.sol:IncidentReport",
            "label": "amount",
            "offset": 0,
            "slot": "1",
            "type": "t_uint256"
          },
          {
            "astId": 21826,
            "contract": "src/voting/incidentReport/IncidentReport.sol:IncidentReport",
            "label": "claimed",
            "offset": 0,
            "slot": "2",
            "type": "t_bool"
          }
        ],
        "numberOfBytes": "96"
      },
      "t_uint256": {
        "encoding": "inplace",
        "label": "uint256",
        "numberOfBytes": "32"
      }
    }
  }
}