{
  "address": "0x2c006D2F4CeBF0CD5d8DEd63699F7D035bFcc404",
  "abi": [
    {
      "inputs": [
        {
          "internalType": "address",
          "name": "_deg",
          "type": "address"
        },
        {
          "internalType": "address",
          "name": "_veDeg",
          "type": "address"
        },
        {
          "internalType": "address",
          "name": "_shield",
          "type": "address"
        }
      ],
      "stateMutability": "nonpayable",
      "type": "constructor"
    },
    {
      "anonymous": false,
      "inputs": [
        {
          "indexed": false,
          "internalType": "address",
          "name": "payer",
          "type": "address"
        },
        {
          "indexed": false,
          "internalType": "address",
          "name": "user",
          "type": "address"
        },
        {
          "indexed": false,
          "internalType": "uint256",
          "name": "debt",
          "type": "uint256"
        },
        {
          "indexed": false,
          "internalType": "uint256",
          "name": "unlockAmount",
          "type": "uint256"
        }
      ],
      "name": "DebtPaid",
      "type": "event"
    },
    {
      "anonymous": false,
      "inputs": [
        {
          "indexed": true,
          "internalType": "address",
          "name": "previousOwner",
          "type": "address"
        },
        {
          "indexed": true,
          "internalType": "address",
          "name": "newOwner",
          "type": "address"
        }
      ],
      "name": "OwnershipTransferred",
      "type": "event"
    },
    {
      "anonymous": false,
      "inputs": [
        {
          "indexed": false,
          "internalType": "uint256",
          "name": "reportId",
          "type": "uint256"
        },
        {
          "indexed": false,
          "internalType": "uint256",
          "name": "closeTimestamp",
          "type": "uint256"
        }
      ],
      "name": "ReportClosed",
      "type": "event"
    },
    {
      "anonymous": false,
      "inputs": [
        {
          "indexed": false,
          "internalType": "uint256",
          "name": "reportId",
          "type": "uint256"
        },
        {
          "indexed": true,
          "internalType": "uint256",
          "name": "poolId",
          "type": "uint256"
        },
        {
          "indexed": false,
          "internalType": "uint256",
          "name": "reportTimestamp",
          "type": "uint256"
        },
        {
          "indexed": true,
          "internalType": "address",
          "name": "reporter",
          "type": "address"
        }
      ],
      "name": "ReportCreated",
      "type": "event"
    },
    {
      "anonymous": false,
      "inputs": [
        {
          "indexed": false,
          "internalType": "uint256",
          "name": "reportId",
          "type": "uint256"
        },
        {
          "indexed": false,
          "internalType": "uint256",
          "name": "round",
          "type": "uint256"
        }
      ],
      "name": "ReportExtended",
      "type": "event"
    },
    {
      "anonymous": false,
      "inputs": [
        {
          "indexed": false,
          "internalType": "uint256",
          "name": "reportId",
          "type": "uint256"
        },
        {
          "indexed": false,
          "internalType": "uint256",
          "name": "result",
          "type": "uint256"
        }
      ],
      "name": "ReportSettled",
      "type": "event"
    },
    {
      "anonymous": false,
      "inputs": [
        {
          "indexed": false,
          "internalType": "uint256",
          "name": "reportId",
          "type": "uint256"
        },
        {
          "indexed": true,
          "internalType": "address",
          "name": "user",
          "type": "address"
        },
        {
          "indexed": false,
          "internalType": "uint256",
          "name": "voteFor",
          "type": "uint256"
        },
        {
          "indexed": false,
          "internalType": "uint256",
          "name": "amount",
          "type": "uint256"
        }
      ],
      "name": "ReportVoted",
      "type": "event"
    },
    {
      "anonymous": false,
      "inputs": [
        {
          "indexed": false,
          "internalType": "uint256",
          "name": "reportId",
          "type": "uint256"
        },
        {
          "indexed": false,
          "internalType": "uint256",
          "name": "startTimestamp",
          "type": "uint256"
        }
      ],
      "name": "VotingStart",
      "type": "event"
    },
    {
      "inputs": [],
      "name": "COOLDOWN_WRONG_REPORT",
      "outputs": [
        {
          "internalType": "uint256",
          "name": "",
          "type": "uint256"
        }
      ],
      "stateMutability": "view",
      "type": "function"
    },
    {
      "inputs": [],
      "name": "SCALE",
      "outputs": [
        {
          "internalType": "uint256",
          "name": "",
          "type": "uint256"
        }
      ],
      "stateMutability": "view",
      "type": "function"
    },
    {
      "inputs": [
        {
          "internalType": "uint256",
          "name": "_reportId",
          "type": "uint256"
        }
      ],
      "name": "claimReward",
      "outputs": [],
      "stateMutability": "nonpayable",
      "type": "function"
    },
    {
      "inputs": [
        {
          "internalType": "uint256",
          "name": "_reportId",
          "type": "uint256"
        }
      ],
      "name": "closeReport",
      "outputs": [],
      "stateMutability": "nonpayable",
      "type": "function"
    },
    {
      "inputs": [],
      "name": "deg",
      "outputs": [
        {
          "internalType": "address",
          "name": "",
          "type": "address"
        }
      ],
      "stateMutability": "view",
      "type": "function"
    },
    {
      "inputs": [
        {
          "internalType": "uint256",
          "name": "_id",
          "type": "uint256"
        }
      ],
      "name": "getReport",
      "outputs": [
        {
          "components": [
            {
              "internalType": "uint256",
              "name": "poolId",
              "type": "uint256"
            },
            {
              "internalType": "uint256",
              "name": "reportTimestamp",
              "type": "uint256"
            },
            {
              "internalType": "address",
              "name": "reporter",
              "type": "address"
            },
            {
              "internalType": "uint256",
              "name": "voteTimestamp",
              "type": "uint256"
            },
            {
              "internalType": "uint256",
              "name": "numFor",
              "type": "uint256"
            },
            {
              "internalType": "uint256",
              "name": "numAgainst",
              "type": "uint256"
            },
            {
              "internalType": "uint256",
              "name": "round",
              "type": "uint256"
            },
            {
              "internalType": "uint256",
              "name": "status",
              "type": "uint256"
            },
            {
              "internalType": "uint256",
              "name": "result",
              "type": "uint256"
            },
            {
              "internalType": "uint256",
              "name": "votingReward",
              "type": "uint256"
            }
          ],
          "internalType": "struct IncidentReport.Report",
          "name": "",
          "type": "tuple"
        }
      ],
      "stateMutability": "view",
      "type": "function"
    },
    {
      "inputs": [
        {
          "internalType": "uint256",
          "name": "_poolId",
          "type": "uint256"
        }
      ],
      "name": "getTempResult",
      "outputs": [
        {
          "components": [
            {
              "internalType": "uint256",
              "name": "result",
              "type": "uint256"
            },
            {
              "internalType": "uint256",
              "name": "sampleTimestamp",
              "type": "uint256"
            },
            {
              "internalType": "bool",
              "name": "hasChanged",
              "type": "bool"
            }
          ],
          "internalType": "struct IncidentReport.TempResult",
          "name": "",
          "type": "tuple"
        }
      ],
      "stateMutability": "view",
      "type": "function"
    },
    {
      "inputs": [
        {
          "internalType": "address",
          "name": "_user",
          "type": "address"
        },
        {
          "internalType": "uint256",
          "name": "_poolId",
          "type": "uint256"
        }
      ],
      "name": "getUserVote",
      "outputs": [
        {
          "components": [
            {
              "internalType": "uint256",
              "name": "choice",
              "type": "uint256"
            },
            {
              "internalType": "uint256",
              "name": "amount",
              "type": "uint256"
            },
            {
              "internalType": "bool",
              "name": "claimed",
              "type": "bool"
            }
          ],
          "internalType": "struct IncidentReport.UserVote",
          "name": "",
          "type": "tuple"
        }
      ],
      "stateMutability": "view",
      "type": "function"
    },
    {
      "inputs": [],
      "name": "insurancePoolFactory",
      "outputs": [
        {
          "internalType": "address",
          "name": "",
          "type": "address"
        }
      ],
      "stateMutability": "view",
      "type": "function"
    },
    {
      "inputs": [],
      "name": "owner",
      "outputs": [
        {
          "internalType": "address",
          "name": "",
          "type": "address"
        }
      ],
      "stateMutability": "view",
      "type": "function"
    },
    {
      "inputs": [
        {
          "internalType": "uint256",
          "name": "_reportId",
          "type": "uint256"
        },
        {
          "internalType": "address",
          "name": "_user",
          "type": "address"
        }
      ],
      "name": "payDebt",
      "outputs": [],
      "stateMutability": "nonpayable",
      "type": "function"
    },
    {
      "inputs": [],
      "name": "policyCenter",
      "outputs": [
        {
          "internalType": "address",
          "name": "",
          "type": "address"
        }
      ],
      "stateMutability": "view",
      "type": "function"
    },
    {
      "inputs": [
        {
          "internalType": "address",
          "name": "",
          "type": "address"
        }
      ],
      "name": "poolReported",
      "outputs": [
        {
          "internalType": "bool",
          "name": "",
          "type": "bool"
        }
      ],
      "stateMutability": "view",
      "type": "function"
    },
    {
      "inputs": [],
      "name": "reinsurancePool",
      "outputs": [
        {
          "internalType": "address",
          "name": "",
          "type": "address"
        }
      ],
      "stateMutability": "view",
      "type": "function"
    },
    {
      "inputs": [],
      "name": "renounceOwnership",
      "outputs": [],
      "stateMutability": "nonpayable",
      "type": "function"
    },
    {
      "inputs": [
        {
          "internalType": "uint256",
          "name": "_poolId",
          "type": "uint256"
        }
      ],
      "name": "report",
      "outputs": [],
      "stateMutability": "nonpayable",
      "type": "function"
    },
    {
      "inputs": [],
      "name": "reportCounter",
      "outputs": [
        {
          "internalType": "uint256",
          "name": "",
          "type": "uint256"
        }
      ],
      "stateMutability": "view",
      "type": "function"
    },
    {
      "inputs": [
        {
          "internalType": "uint256",
          "name": "",
          "type": "uint256"
        }
      ],
      "name": "reportTempResults",
      "outputs": [
        {
          "internalType": "uint256",
          "name": "result",
          "type": "uint256"
        },
        {
          "internalType": "uint256",
          "name": "sampleTimestamp",
          "type": "uint256"
        },
        {
          "internalType": "bool",
          "name": "hasChanged",
          "type": "bool"
        }
      ],
      "stateMutability": "view",
      "type": "function"
    },
    {
      "inputs": [
        {
          "internalType": "uint256",
          "name": "",
          "type": "uint256"
        }
      ],
      "name": "reports",
      "outputs": [
        {
          "internalType": "uint256",
          "name": "poolId",
          "type": "uint256"
        },
        {
          "internalType": "uint256",
          "name": "reportTimestamp",
          "type": "uint256"
        },
        {
          "internalType": "address",
          "name": "reporter",
          "type": "address"
        },
        {
          "internalType": "uint256",
          "name": "voteTimestamp",
          "type": "uint256"
        },
        {
          "internalType": "uint256",
          "name": "numFor",
          "type": "uint256"
        },
        {
          "internalType": "uint256",
          "name": "numAgainst",
          "type": "uint256"
        },
        {
          "internalType": "uint256",
          "name": "round",
          "type": "uint256"
        },
        {
          "internalType": "uint256",
          "name": "status",
          "type": "uint256"
        },
        {
          "internalType": "uint256",
          "name": "result",
          "type": "uint256"
        },
        {
          "internalType": "uint256",
          "name": "votingReward",
          "type": "uint256"
        }
      ],
      "stateMutability": "view",
      "type": "function"
    },
    {
      "inputs": [
        {
          "internalType": "address",
          "name": "_insurancePoolFactory",
          "type": "address"
        }
      ],
      "name": "setInsurancePoolFactory",
      "outputs": [],
      "stateMutability": "nonpayable",
      "type": "function"
    },
    {
      "inputs": [
        {
          "internalType": "address",
          "name": "_policyCenter",
          "type": "address"
        }
      ],
      "name": "setPolicyCenter",
      "outputs": [],
      "stateMutability": "nonpayable",
      "type": "function"
    },
    {
      "inputs": [
        {
          "internalType": "address",
          "name": "_reinsurancePool",
          "type": "address"
        }
      ],
      "name": "setReinsurancePool",
      "outputs": [],
      "stateMutability": "nonpayable",
      "type": "function"
    },
    {
      "inputs": [
        {
          "internalType": "uint256",
          "name": "_reportId",
          "type": "uint256"
        }
      ],
      "name": "settle",
      "outputs": [],
      "stateMutability": "nonpayable",
      "type": "function"
    },
    {
      "inputs": [],
      "name": "shield",
      "outputs": [
        {
          "internalType": "address",
          "name": "",
          "type": "address"
        }
      ],
      "stateMutability": "view",
      "type": "function"
    },
    {
      "inputs": [
        {
          "internalType": "uint256",
          "name": "_reportId",
          "type": "uint256"
        }
      ],
      "name": "startVoting",
      "outputs": [],
      "stateMutability": "nonpayable",
      "type": "function"
    },
    {
      "inputs": [
        {
          "internalType": "address",
          "name": "newOwner",
          "type": "address"
        }
      ],
      "name": "transferOwnership",
      "outputs": [],
      "stateMutability": "nonpayable",
      "type": "function"
    },
    {
      "inputs": [
        {
          "internalType": "address",
          "name": "_pool",
          "type": "address"
        }
      ],
      "name": "unpausePools",
      "outputs": [],
      "stateMutability": "nonpayable",
      "type": "function"
    },
    {
      "inputs": [
        {
          "internalType": "address",
          "name": "",
          "type": "address"
        }
      ],
      "name": "userCoolDownUntil",
      "outputs": [
        {
          "internalType": "uint256",
          "name": "",
          "type": "uint256"
        }
      ],
      "stateMutability": "view",
      "type": "function"
    },
    {
      "inputs": [
        {
          "internalType": "address",
          "name": "",
          "type": "address"
        },
        {
          "internalType": "uint256",
          "name": "",
          "type": "uint256"
        }
      ],
      "name": "userReportVotes",
      "outputs": [
        {
          "internalType": "uint256",
          "name": "choice",
          "type": "uint256"
        },
        {
          "internalType": "uint256",
          "name": "amount",
          "type": "uint256"
        },
        {
          "internalType": "bool",
          "name": "claimed",
          "type": "bool"
        }
      ],
      "stateMutability": "view",
      "type": "function"
    },
    {
      "inputs": [],
      "name": "veDeg",
      "outputs": [
        {
          "internalType": "address",
          "name": "",
          "type": "address"
        }
      ],
      "stateMutability": "view",
      "type": "function"
    },
    {
      "inputs": [
        {
          "internalType": "uint256",
          "name": "_reportId",
          "type": "uint256"
        },
        {
          "internalType": "uint256",
          "name": "_isFor",
          "type": "uint256"
        },
        {
          "internalType": "uint256",
          "name": "_amount",
          "type": "uint256"
        }
      ],
      "name": "vote",
      "outputs": [],
      "stateMutability": "nonpayable",
      "type": "function"
    }
  ],
  "transactionHash": "0xe6949be3f6e59cea017d8ceac6b4b175a139b1ff89429a8140a512116d67bc0b",
  "args": [
    "0x4C5fAB0Da4ecB345eb5C52B697970A9236A608a8",
    "0xF3a9BADD378218345FDF9a1bf239f07416eEEc1d",
    "0x4D16BA86A3b4a6aE9EE124bA48BbaD711B26DDfc"
  ],
  "numDeployments": 1,
  "solcInputHash": "bda11fa1b2c6cacdddee83697552c6c8",
  "bytecode": "0x60e06040523480156200001157600080fd5b50604051620024b9380380620024b98339810160408190526200003491620000d2565b6001600160a01b0380841660805280831660a052811660c05233620000598162000063565b505050506200011c565b600380546001600160a01b038381166001600160a01b0319831681179093556040519116919082907f8be0079c531659141344cd1fd0a4f28419497f9722a3daafe3b4186f6b6457e090600090a35050565b80516001600160a01b0381168114620000cd57600080fd5b919050565b600080600060608486031215620000e857600080fd5b620000f384620000b5565b92506200010360208501620000b5565b91506200011360408501620000b5565b90509250925092565b60805160a05160c05161232062000199600039600061033401526000818161044601528181610a07015281816112c301528181611357015281816115bf0152818161189c015281816119280152611ab80152600081816102c701528181610fe2015281816111df0152818161152f0152611cb801526123206000f3fe608060405234801561001057600080fd5b50600436106101e55760003560e01c80638df828001161010f578063c599ebda116100a2578063e79a995011610071578063e79a995014610590578063e8adbf2f146105a3578063eced5526146105b6578063f2fde38b146105c257600080fd5b8063c599ebda14610468578063c942adf714610488578063d5aa5ebe1461054a578063d9dc8f1d1461057d57600080fd5b8063a01bc01f116100de578063a01bc01f14610412578063ae169a5014610425578063b9bc38f214610438578063c3a593b31461044157600080fd5b80638df82800146103b4578063966d8a5f146103c7578063969b1cdb146103e75780639e172155146103fa57600080fd5b80634d658ef011610187578063715018a611610156578063715018a6146103565780637e990e961461035e5780638a6655d6146103905780638da5cb5b146103a357600080fd5b80634d658ef0146102e95780634e7f9b19146102fc5780636530db981461031c57806370d39cff1461032f57600080fd5b80632dd57bb0116101c35780632dd57bb0146102895780632fbac6d71461029c5780633d2f5bda146102af5780634858b300146102c257600080fd5b80630a2c433d146101ea5780631aab4aa5146101ff578063250c4dc61461025e575b600080fd5b6101fd6101f8366004612018565b6105d5565b005b61023c61020d36600461203c565b600760209081526000928352604080842090915290825290208054600182015460029092015490919060ff1683565b6040805193845260208401929092521515908201526060015b60405180910390f35b600254610271906001600160a01b031681565b6040516001600160a01b039091168152602001610255565b6101fd610297366004612018565b6105fe565b600154610271906001600160a01b031681565b6101fd6102bd366004612068565b610624565b6102717f000000000000000000000000000000000000000000000000000000000000000081565b6101fd6102f7366004612018565b610727565b61030f61030a366004612068565b61074d565b6040516102559190612081565b6101fd61032a366004612068565b610838565b6102717f000000000000000000000000000000000000000000000000000000000000000081565b6101fd61092e565b61023c61036c366004612068565b60066020526000908152604090208054600182015460029092015490919060ff1683565b6101fd61039e366004612103565b610942565b6003546001600160a01b0316610271565b6101fd6103c2366004612068565b610bec565b6103da6103d5366004612068565b610dc6565b604051610255919061212f565b6101fd6103f5366004612068565b610e2a565b61040462093a8081565b604051908152602001610255565b6103da61042036600461203c565b61108e565b6101fd610433366004612068565b611108565b61040460045481565b6102717f000000000000000000000000000000000000000000000000000000000000000081565b610404610476366004612018565b60086020526000908152604090205481565b6104f2610496366004612068565b60056020819052600091825260409091208054600182015460028301546003840154600485015495850154600686015460078701546008880154600990980154969895976001600160a01b03909516969395949293919290918a565b604080519a8b5260208b01999099526001600160a01b03909716978901979097526060880194909452608087019290925260a086015260c085015260e084015261010083019190915261012082015261014001610255565b61056d610558366004612018565b60096020526000908152604090205460ff1681565b6040519015158152602001610255565b6101fd61058b366004612152565b6113f6565b6101fd61059e366004612018565b611679565b600054610271906001600160a01b031681565b61040464e8d4a5100081565b6101fd6105d0366004612018565b611732565b6105dd6117a8565b600180546001600160a01b0319166001600160a01b03831617905550565b50565b6106066117a8565b600080546001600160a01b0319166001600160a01b03831617905550565b600081815260056020526040902060078101546001146106805760405162461bcd60e51b81526020600482015260126024820152714e6f742070656e64696e672073746174757360701b60448201526064015b60405180910390fd5b61068d8160010154611811565b6106d95760405162461bcd60e51b815260206004820152601960248201527f4e6f74207061737365642070656e64696e6720706572696f64000000000000006044820152606401610677565b6002600782015542600382018190556040805184815260208101929092527f18f0064aa75324b80d434fd4f33128be705d233804ca8d2df57a2f962e21710591015b60405180910390a15050565b61072f6117a8565b600280546001600160a01b0319166001600160a01b03831617905550565b6107ac604051806101400160405280600081526020016000815260200160006001600160a01b03168152602001600081526020016000815260200160008152602001600081526020016000815260200160008152602001600081525090565b506000908152600560208181526040928390208351610140810185528154815260018201549281019290925260028101546001600160a01b03169382019390935260038301546060820152600483015460808201529082015460a0820152600682015460c0820152600782015460e0820152600882015461010082015260099091015461012082015290565b6108406117a8565b600081815260056020526040902060078101546001146108975760405162461bcd60e51b81526020600482015260126024820152714e6f742070656e64696e672073746174757360701b6044820152606401610677565b6108a48160010154611811565b156108f15760405162461bcd60e51b815260206004820152601d60248201527f416c7265616479207061737365642070656e64696e6720706572696f640000006044820152606401610677565b6101946007820155604080518381524260208201527f17b76cf2012024f7fe05b4a8b036b188464d5b49b7c8532e95c5c67a4b792eb2910161071b565b6109366117a8565b6109406000611828565b565b6000838152600560205260409020600701546002146109975760405162461bcd60e51b81526020600482015260116024820152704e6f7420766f74696e672073746174757360781b6044820152606401610677565b81600114806109a65750816002145b6109e15760405162461bcd60e51b815260206004820152600c60248201526b57726f6e672063686f69636560a01b6044820152606401610677565b6109eb338261187a565b604051633c56aa6160e11b8152336004820152602481018290527f00000000000000000000000000000000000000000000000000000000000000006001600160a01b0316906378ad54c290604401600060405180830381600087803b158015610a5357600080fd5b505af1158015610a67573d6000803e3d6000fd5b505033600090815260076020908152604080832088845290915290206001810154909250159050610ae75780548314610ae25760405162461bcd60e51b815260206004820152601960248201527f43616e206e6f742063686f6f736520626f7468207369646573000000000000006044820152606401610677565b610aeb565b8281555b81816001016000828254610aff9190612198565b909155505060008481526005602052604090206001849003610b3a5782816004016000828254610b2f9190612198565b90915550610b549050565b82816005016000828254610b4e9190612198565b90915550505b60008581526006602052604090206002015460ff16158015610b855750610b83816006015482600101546119e2565b155b15610ba257610ba285826006015483600401548460050154611a1e565b604080518681526020810186905290810184905233907f025e12b9cbba227587ada73c57f6b6b6a70272d7ed782681793125ec29afc77b9060600160405180910390a25050505050565b60008181526005602052604090206007810154600214610c425760405162461bcd60e51b81526020600482015260116024820152704e6f7420766f74696e672073746174757360781b6044820152606401610677565b610c54816006015482600101546119e2565b610c995760405162461bcd60e51b8152602060048201526016602482015275139bdd081c995858da1959081cd95d1d1b195b595b9d60521b6044820152606401610677565b600881015415610cdd5760405162461bcd60e51b815260206004820152600f60248201526e105b1c9958591e481cd95d1d1b1959608a1b6044820152606401610677565b610cf981600501548260040154610cf49190612198565b611ab2565b6000610d09838360060154611b90565b9050610d306040518060400160405280600381526020016252657360e81b81525082611c46565b8015610d8557610d3f83611c8f565b6003600783015560408051848152602081018390527f30922d3a94c33e0ce3f99be437cbdf00f141e304f742a1cbd0df5cc5b490cd4591015b60405180910390a1505050565b60068201546040805185815260208101929092527fb7891e9b049f460b1641e0a0556e45b1d2adfb12bd2c6459ea5a5d645d40179d9101610d78565b505050565b610dec604051806060016040528060008152602001600081526020016000151581525090565b506000908152600660209081526040918290208251606081018452815481526001820154928101929092526002015460ff1615159181019190915290565b6000805460405163502dd62160e11b8152600481018490526001600160a01b039091169063a05bac4290602401602060405180830381865afa158015610e74573d6000803e3d6000fd5b505050506040513d601f19601f82011682018060405250810190610e9891906121b0565b90506001600160a01b038116610ee55760405162461bcd60e51b8152602060048201526012602482015271141bdbdb08191bd95cdb89dd08195e1a5cdd60721b6044820152606401610677565b6001600160a01b03811660009081526009602052604090205460ff1615610f465760405162461bcd60e51b8152602060048201526015602482015274141bdbdb08185b1c9958591e481c995c1bdc9d1959605a1b6044820152606401610677565b6000600460008154610f57906121cd565b91829055506001600160a01b038381166000908152600960209081526040808320805460ff1916600190811790915585845260059092529182902087815542818301556002810180546001600160a01b031916339081179091556007820192909255915163342c6d4d60e11b81526004810191909152683635c9adc5dea000006024820152929350917f000000000000000000000000000000000000000000000000000000000000000090911690636858da9a90604401600060405180830381600087803b15801561102857600080fd5b505af115801561103c573d6000803e3d6000fd5b5050505061104983611ddf565b60045460408051918252426020830152339186917f05a6c2bfc7baf34de453facbc111872ae61639ec92e82f4eeec564e22917f7aa910160405180910390a350505050565b6110b4604051806060016040528060008152602001600081526020016000151581525090565b506001600160a01b03821660009081526007602090815260408083208484528252918290208251606081018452815481526001820154928101929092526002015460ff161515918101919091525b92915050565b336000908152600760209081526040808320848452825280832081516060810183528154815260018201548185015260029091015460ff16151581830152848452600590925290912060080154806111905760405162461bcd60e51b815260206004820152600b60248201526a139bdd081cd95d1d1b195960aa1b6044820152606401610677565b8160400151156111d45760405162461bcd60e51b815260206004820152600f60248201526e105b1c9958591e4818db185a5b5959608a1b6044820152606401610677565b815181900361132d577f00000000000000000000000000000000000000000000000000000000000000006001600160a01b031663b47673983364e8d4a510008560200151600560008981526020019081526020016000206009015461123991906121e6565b6112439190612205565b6040516001600160e01b031960e085901b1681526001600160a01b0390921660048301526024820152604401600060405180830381600087803b15801561128957600080fd5b505af115801561129d573d6000803e3d6000fd5b505050506020820151604051634bdc2db560e11b815233600482015260248101919091527f00000000000000000000000000000000000000000000000000000000000000006001600160a01b0316906397b85b6a906044015b600060405180830381600087803b15801561131057600080fd5b505af1158015611324573d6000803e3d6000fd5b505050506113cb565b6003810361138e576020820151604051634bdc2db560e11b815233600482015260248101919091527f00000000000000000000000000000000000000000000000000000000000000006001600160a01b0316906397b85b6a906044016112f6565b60405162461bcd60e51b81526020600482015260126024820152714e6f2072657761726420746f20636c61696d60701b6044820152606401610677565b505033600090815260076020908152604080832093835292905220600201805460ff19166001179055565b6001600160a01b0381166000908152600760209081526040808320858452825280832081516060810183528154815260018201548185015260029091015460ff16151581830152858452600590925290912060080154806114875760405162461bcd60e51b815260206004820152600b60248201526a139bdd081cd95d1d1b195960aa1b6044820152606401610677565b81518190036114cb5760405162461bcd60e51b815260206004820152601060248201526f4e6f742077726f6e672063686f69636560801b6044820152606401610677565b6000612710605084602001516114e191906121e6565b6114eb9190612205565b9050611513604051806040016040528060048152602001631919589d60e21b81525082611c46565b60405163342c6d4d60e11b8152336004820152602481018290527f00000000000000000000000000000000000000000000000000000000000000006001600160a01b031690636858da9a90604401600060405180830381600087803b15801561157b57600080fd5b505af115801561158f573d6000803e3d6000fd5b505050506020830151604051634bdc2db560e11b81526001600160a01b03868116600483015260248201929092527f0000000000000000000000000000000000000000000000000000000000000000909116906397b85b6a90604401600060405180830381600087803b15801561160557600080fd5b505af1158015611619573d6000803e3d6000fd5b505050602080850151604080513381526001600160a01b03891693810193909352820184905260608201527fb4b7f3a9d727d0ac344f696304df335d2936ce3b0a58d52600c692632c9fa725915060800160405180910390a15050505050565b42816001600160a01b031663064b8cb36040518163ffffffff1660e01b8152600401602060405180830381865afa1580156116b8573d6000803e3d6000fd5b505050506040513d601f19601f820116820180604052508101906116dc9190612227565b106117295760405162461bcd60e51b815260206004820152601e60248201527f706f6f6c206973207374696c6c20696e207061796f757420706572696f6400006044820152606401610677565b6105fb81611e94565b61173a6117a8565b6001600160a01b03811661179f5760405162461bcd60e51b815260206004820152602660248201527f4f776e61626c653a206e6577206f776e657220697320746865207a65726f206160448201526564647265737360d01b6064820152608401610677565b6105fb81611828565b336117bb6003546001600160a01b031690565b6001600160a01b0316146109405760405162461bcd60e51b815260206004820181905260248201527f4f776e61626c653a2063616c6c6572206973206e6f7420746865206f776e65726044820152606401610677565b60006118206203f48083612198565b421192915050565b600380546001600160a01b038381166001600160a01b0319831681179093556040519116919082907f8be0079c531659141344cd1fd0a4f28419497f9722a3daafe3b4186f6b6457e090600090a35050565b60405163cbf9fe5f60e01b81526001600160a01b0383811660048301526000917f00000000000000000000000000000000000000000000000000000000000000009091169063cbf9fe5f90602401602060405180830381865afa1580156118e5573d6000803e3d6000fd5b505050506040513d601f19601f820116820180604052508101906119099190612227565b6040516370a0823160e01b81526001600160a01b0385811660048301527f000000000000000000000000000000000000000000000000000000000000000016906370a0823190602401602060405180830381865afa15801561196f573d6000803e3d6000fd5b505050506040513d601f19601f820116820180604052508101906119939190612227565b61199d9190612240565b905081811015610dc15760405162461bcd60e51b815260206004820152601060248201526f4e6f7420656e6f75676820766544454760801b6044820152606401610677565b6000806119f262015180856121e6565b6203f480611a008186612198565b611a0a9190612198565b611a149190612198565b4211949350505050565b600084815260066020526040902062015180611a3a81866121e6565b600087815260056020526040902060030154611a5a906203f48090612198565b611a649190612198565b611a6e9190612240565b421115611aab576000611a818484611f1f565b825490915015611aa257815460028301805460ff1916918314159190911790555b81554260018201555b5050505050565b6064601e7f00000000000000000000000000000000000000000000000000000000000000006001600160a01b03166318160ddd6040518163ffffffff1660e01b8152600401602060405180830381865afa158015611b14573d6000803e3d6000fd5b505050506040513d601f19601f82011682018060405250810190611b389190612227565b611b4291906121e6565b611b4c9190612205565b8110156105fb5760405162461bcd60e51b81526020600482015260126024820152714e6f7420726561636865642071756f72756d60701b6044820152606401610677565b604080518082018252600b81526a1a185cc818da185b99d95960aa1b6020808301919091526000858152600690915291822060020154611bd3919060ff16611f4a565b60008381526006602052604090206002015460ff16611c175760008381526005602081905260409091206004810154910154611c10918591611f8f565b9050611102565b60008381526006602052604090206002015460ff168015611c385750600282105b156111025761110283611fb8565b611c8b8282604051602401611c5c9291906122a4565b60408051601f198184030181529190526020810180516001600160e01b03166309710a9d60e41b179052611fe2565b5050565b60008181526005602052604090206008810154600103611d965760028101546001600160a01b037f000000000000000000000000000000000000000000000000000000000000000081169163b47673989116611cf4683635c9adc5dea0000080612198565b6040516001600160e01b031960e085901b1681526001600160a01b0390921660048301526024820152604401600060405180830381600087803b158015611d3a57600080fd5b505af1158015611d4e573d6000803e3d6000fd5b50611d5892505050565b600060648260050154611d6b9190612205565b6004830154909150611d8264e8d4a51000836121e6565b611d8c9190612205565b6009830155505050565b8060080154600203611c8b57600060648260040154611db59190612205565b611dc890683635c9adc5dea00000612198565b6005830154909150611d8264e8d4a51000836121e6565b60405163780723d960e01b8152600160048201526001600160a01b0382169063780723d990602401600060405180830381600087803b158015611e2157600080fd5b505af1158015611e35573d6000803e3d6000fd5b505060018054604051633edde9b760e21b815260048101929092526001600160a01b0316925063fb77a6dc91506024015b600060405180830381600087803b158015611e8057600080fd5b505af1158015611aab573d6000803e3d6000fd5b60405163780723d960e01b8152600060048201526001600160a01b0382169063780723d990602401600060405180830381600087803b158015611ed657600080fd5b505af1158015611eea573d6000803e3d6000fd5b5050600154604051633edde9b760e21b8152600060048201526001600160a01b03909116925063fb77a6dc9150602401611e66565b600081831115611f3157506001611102565b81831015611f4157506002611102565b50600392915050565b611c8b8282604051602401611f609291906122c6565b60408051601f198184030181529190526020810180516001600160e01b031663c3b5563560e01b179052611fe2565b6000611f9b8383611f1f565b600094855260056020526040909420600801849055509192915050565b6000818152600560205260408120600601805460019290611fda908490612198565b909155505050565b80516a636f6e736f6c652e6c6f67602083016000808483855afa5050505050565b6001600160a01b03811681146105fb57600080fd5b60006020828403121561202a57600080fd5b813561203581612003565b9392505050565b6000806040838503121561204f57600080fd5b823561205a81612003565b946020939093013593505050565b60006020828403121561207a57600080fd5b5035919050565b600061014082019050825182526020830151602083015260408301516120b260408401826001600160a01b03169052565b50606083015160608301526080830151608083015260a083015160a083015260c083015160c083015260e083015160e083015261010080840151818401525061012080840151818401525092915050565b60008060006060848603121561211857600080fd5b505081359360208301359350604090920135919050565b815181526020808301519082015260408083015115159082015260608101611102565b6000806040838503121561216557600080fd5b82359150602083013561217781612003565b809150509250929050565b634e487b7160e01b600052601160045260246000fd5b600082198211156121ab576121ab612182565b500190565b6000602082840312156121c257600080fd5b815161203581612003565b6000600182016121df576121df612182565b5060010190565b600081600019048311821515161561220057612200612182565b500290565b60008261222257634e487b7160e01b600052601260045260246000fd5b500490565b60006020828403121561223957600080fd5b5051919050565b60008282101561225257612252612182565b500390565b6000815180845260005b8181101561227d57602081850181015186830182015201612261565b8181111561228f576000602083870101525b50601f01601f19169290920160200192915050565b6040815260006122b76040830185612257565b90508260208301529392505050565b6040815260006122d96040830185612257565b90508215156020830152939250505056fea264697066735822122018f30893b8fbbd516b4df1b35bbd378bc04886367b888807c8ded89c92b2d82b64736f6c634300080d0033",
  "devdoc": {
    "kind": "dev",
    "methods": {
      "claimReward(uint256)": {
        "params": {
          "_reportId": "Report id"
        }
      },
      "closeReport(uint256)": {
        "params": {
          "_reportId": "Report id"
        }
      },
      "owner()": {
        "details": "Returns the address of the current owner."
      },
      "payDebt(uint256,address)": {
        "params": {
          "_reportId": "Report id",
          "_user": "User address (can pay debt for another user)"
        }
      },
      "renounceOwnership()": {
        "details": "Leaves the contract without owner. It will not be possible to call `onlyOwner` functions anymore. Can only be called by the current owner. NOTE: Renouncing ownership will leave the contract without an owner, thereby removing any functionality that is only available to the owner."
      },
      "report(uint256)": {
        "params": {
          "_poolId": "Pool id to report incident"
        }
      },
      "settle(uint256)": {
        "params": {
          "_reportId": "Report id"
        }
      },
      "startVoting(uint256)": {
        "params": {
          "_reportId": "Report id"
        }
      },
      "transferOwnership(address)": {
        "details": "Transfers ownership of the contract to a new account (`newOwner`). Can only be called by the current owner."
      },
      "vote(uint256,uint256,uint256)": {
        "params": {
          "_amount": "Amount of veDEG used for this vote",
          "_isFor": "The user's choice (1: vote for, 2: vote against)",
          "_reportId": "Id of the report to be voted on"
        }
      }
    },
    "version": 1
  },
  "userdoc": {
    "kind": "user",
    "methods": {
      "claimReward(uint256)": {
        "notice": "Claim the voting reward"
      },
      "closeReport(uint256)": {
        "notice": "Close a pending report"
      },
      "payDebt(uint256,address)": {
        "notice": "Pay debt to get back veDEG         For those who made a wrong voting choice"
      },
      "report(uint256)": {
        "notice": "Start a new incident report         1000 DEG tokens are staked to start a report         If the report is correct, reporter gets back 1000DEG + 10% shield income + extra 1000DEG         If the report is wrong, reporter loses 1000DEG to those who vote against"
      },
      "settle(uint256)": {
        "notice": "Settle the final result for a report"
      },
      "startVoting(uint256)": {
        "notice": "Start the voting process"
      },
      "vote(uint256,uint256,uint256)": {
        "notice": "Vote on currently pending reports         Voting power is decided by the (unlocked) balance of veDEG         Rewarded if votes with majority         Punished if votes against majority"
      }
    },
    "version": 1
  },
  "storageLayout": {
    "storage": [
      {
        "astId": 20091,
        "contract": "src/voting/IncidentReport.sol:IncidentReport",
        "label": "policyCenter",
        "offset": 0,
        "slot": "0",
        "type": "t_address"
      },
      {
        "astId": 20093,
        "contract": "src/voting/IncidentReport.sol:IncidentReport",
        "label": "reinsurancePool",
        "offset": 0,
        "slot": "1",
        "type": "t_address"
      },
      {
        "astId": 20095,
        "contract": "src/voting/IncidentReport.sol:IncidentReport",
        "label": "insurancePoolFactory",
        "offset": 0,
        "slot": "2",
        "type": "t_address"
      },
      {
        "astId": 16364,
        "contract": "src/voting/IncidentReport.sol:IncidentReport",
        "label": "_owner",
        "offset": 0,
        "slot": "3",
        "type": "t_address"
      },
      {
        "astId": 16638,
        "contract": "src/voting/IncidentReport.sol:IncidentReport",
        "label": "reportCounter",
        "offset": 0,
        "slot": "4",
        "type": "t_uint256"
      },
      {
        "astId": 16664,
        "contract": "src/voting/IncidentReport.sol:IncidentReport",
        "label": "reports",
        "offset": 0,
        "slot": "5",
        "type": "t_mapping(t_uint256,t_struct(Report)16659_storage)"
      },
      {
        "astId": 16676,
        "contract": "src/voting/IncidentReport.sol:IncidentReport",
        "label": "reportTempResults",
        "offset": 0,
        "slot": "6",
        "type": "t_mapping(t_uint256,t_struct(TempResult)16671_storage)"
      },
      {
        "astId": 16690,
        "contract": "src/voting/IncidentReport.sol:IncidentReport",
        "label": "userReportVotes",
        "offset": 0,
        "slot": "7",
        "type": "t_mapping(t_address,t_mapping(t_uint256,t_struct(UserVote)16683_storage))"
      },
      {
        "astId": 16694,
        "contract": "src/voting/IncidentReport.sol:IncidentReport",
        "label": "userCoolDownUntil",
        "offset": 0,
        "slot": "8",
        "type": "t_mapping(t_address,t_uint256)"
      },
      {
        "astId": 16698,
        "contract": "src/voting/IncidentReport.sol:IncidentReport",
        "label": "poolReported",
        "offset": 0,
        "slot": "9",
        "type": "t_mapping(t_address,t_bool)"
      }
    ],
    "types": {
      "t_address": {
        "encoding": "inplace",
        "label": "address",
        "numberOfBytes": "20"
      },
      "t_bool": {
        "encoding": "inplace",
        "label": "bool",
        "numberOfBytes": "1"
      },
      "t_mapping(t_address,t_bool)": {
        "encoding": "mapping",
        "key": "t_address",
        "label": "mapping(address => bool)",
        "numberOfBytes": "32",
        "value": "t_bool"
      },
      "t_mapping(t_address,t_mapping(t_uint256,t_struct(UserVote)16683_storage))": {
        "encoding": "mapping",
        "key": "t_address",
        "label": "mapping(address => mapping(uint256 => struct IncidentReport.UserVote))",
        "numberOfBytes": "32",
        "value": "t_mapping(t_uint256,t_struct(UserVote)16683_storage)"
      },
      "t_mapping(t_address,t_uint256)": {
        "encoding": "mapping",
        "key": "t_address",
        "label": "mapping(address => uint256)",
        "numberOfBytes": "32",
        "value": "t_uint256"
      },
      "t_mapping(t_uint256,t_struct(Report)16659_storage)": {
        "encoding": "mapping",
        "key": "t_uint256",
        "label": "mapping(uint256 => struct IncidentReport.Report)",
        "numberOfBytes": "32",
        "value": "t_struct(Report)16659_storage"
      },
      "t_mapping(t_uint256,t_struct(TempResult)16671_storage)": {
        "encoding": "mapping",
        "key": "t_uint256",
        "label": "mapping(uint256 => struct IncidentReport.TempResult)",
        "numberOfBytes": "32",
        "value": "t_struct(TempResult)16671_storage"
      },
      "t_mapping(t_uint256,t_struct(UserVote)16683_storage)": {
        "encoding": "mapping",
        "key": "t_uint256",
        "label": "mapping(uint256 => struct IncidentReport.UserVote)",
        "numberOfBytes": "32",
        "value": "t_struct(UserVote)16683_storage"
      },
      "t_struct(Report)16659_storage": {
        "encoding": "inplace",
        "label": "struct IncidentReport.Report",
        "members": [
          {
            "astId": 16640,
            "contract": "src/voting/IncidentReport.sol:IncidentReport",
            "label": "poolId",
            "offset": 0,
            "slot": "0",
            "type": "t_uint256"
          },
          {
            "astId": 16642,
            "contract": "src/voting/IncidentReport.sol:IncidentReport",
            "label": "reportTimestamp",
            "offset": 0,
            "slot": "1",
            "type": "t_uint256"
          },
          {
            "astId": 16644,
            "contract": "src/voting/IncidentReport.sol:IncidentReport",
            "label": "reporter",
            "offset": 0,
            "slot": "2",
            "type": "t_address"
          },
          {
            "astId": 16646,
            "contract": "src/voting/IncidentReport.sol:IncidentReport",
            "label": "voteTimestamp",
            "offset": 0,
            "slot": "3",
            "type": "t_uint256"
          },
          {
            "astId": 16648,
            "contract": "src/voting/IncidentReport.sol:IncidentReport",
            "label": "numFor",
            "offset": 0,
            "slot": "4",
            "type": "t_uint256"
          },
          {
            "astId": 16650,
            "contract": "src/voting/IncidentReport.sol:IncidentReport",
            "label": "numAgainst",
            "offset": 0,
            "slot": "5",
            "type": "t_uint256"
          },
          {
            "astId": 16652,
            "contract": "src/voting/IncidentReport.sol:IncidentReport",
            "label": "round",
            "offset": 0,
            "slot": "6",
            "type": "t_uint256"
          },
          {
            "astId": 16654,
            "contract": "src/voting/IncidentReport.sol:IncidentReport",
            "label": "status",
            "offset": 0,
            "slot": "7",
            "type": "t_uint256"
          },
          {
            "astId": 16656,
            "contract": "src/voting/IncidentReport.sol:IncidentReport",
            "label": "result",
            "offset": 0,
            "slot": "8",
            "type": "t_uint256"
          },
          {
            "astId": 16658,
            "contract": "src/voting/IncidentReport.sol:IncidentReport",
            "label": "votingReward",
            "offset": 0,
            "slot": "9",
            "type": "t_uint256"
          }
        ],
        "numberOfBytes": "320"
      },
      "t_struct(TempResult)16671_storage": {
        "encoding": "inplace",
        "label": "struct IncidentReport.TempResult",
        "members": [
          {
            "astId": 16666,
            "contract": "src/voting/IncidentReport.sol:IncidentReport",
            "label": "result",
            "offset": 0,
            "slot": "0",
            "type": "t_uint256"
          },
          {
            "astId": 16668,
            "contract": "src/voting/IncidentReport.sol:IncidentReport",
            "label": "sampleTimestamp",
            "offset": 0,
            "slot": "1",
            "type": "t_uint256"
          },
          {
            "astId": 16670,
            "contract": "src/voting/IncidentReport.sol:IncidentReport",
            "label": "hasChanged",
            "offset": 0,
            "slot": "2",
            "type": "t_bool"
          }
        ],
        "numberOfBytes": "96"
      },
      "t_struct(UserVote)16683_storage": {
        "encoding": "inplace",
        "label": "struct IncidentReport.UserVote",
        "members": [
          {
            "astId": 16678,
            "contract": "src/voting/IncidentReport.sol:IncidentReport",
            "label": "choice",
            "offset": 0,
            "slot": "0",
            "type": "t_uint256"
          },
          {
            "astId": 16680,
            "contract": "src/voting/IncidentReport.sol:IncidentReport",
            "label": "amount",
            "offset": 0,
            "slot": "1",
            "type": "t_uint256"
          },
          {
            "astId": 16682,
            "contract": "src/voting/IncidentReport.sol:IncidentReport",
            "label": "claimed",
            "offset": 0,
            "slot": "2",
            "type": "t_bool"
          }
        ],
        "numberOfBytes": "96"
      },
      "t_uint256": {
        "encoding": "inplace",
        "label": "uint256",
        "numberOfBytes": "32"
      }
    }
  }
}