{
  "address": "0x219d452729E27157e7D55024462886e2d41C70Db",
  "abi": [
    {
      "inputs": [],
      "name": "IncidentReport__AlreadyClaimed",
      "type": "error"
    },
    {
      "inputs": [],
      "name": "IncidentReport__AlreadyPaid",
      "type": "error"
    },
    {
      "inputs": [],
      "name": "IncidentReport__AlreadyReported",
      "type": "error"
    },
    {
      "inputs": [],
      "name": "IncidentReport__AlreadySettled",
      "type": "error"
    },
    {
      "inputs": [],
      "name": "IncidentReport__ChooseBothSides",
      "type": "error"
    },
    {
      "inputs": [],
      "name": "IncidentReport__NoReward",
      "type": "error"
    },
    {
      "inputs": [],
      "name": "IncidentReport__NotEnoughVeDEG",
      "type": "error"
    },
    {
      "inputs": [],
      "name": "IncidentReport__NotSettled",
      "type": "error"
    },
    {
      "inputs": [],
      "name": "IncidentReport__NotWrongChoice",
      "type": "error"
    },
    {
      "inputs": [],
      "name": "IncidentReport__OnlyExecutor",
      "type": "error"
    },
    {
      "inputs": [],
      "name": "IncidentReport__PayoutExceedCovered",
      "type": "error"
    },
    {
      "inputs": [],
      "name": "IncidentReport__PoolNotExist",
      "type": "error"
    },
    {
      "inputs": [],
      "name": "IncidentReport__QuorumRatioTooBig",
      "type": "error"
    },
    {
      "inputs": [],
      "name": "IncidentReport__WrongChoice",
      "type": "error"
    },
    {
      "inputs": [],
      "name": "IncidentReport__WrongPeriod",
      "type": "error"
    },
    {
      "inputs": [],
      "name": "IncidentReport__WrongStatus",
      "type": "error"
    },
    {
      "inputs": [],
      "name": "IncidentReport__ZeroAmount",
      "type": "error"
    },
    {
      "anonymous": false,
      "inputs": [
        {
          "indexed": false,
          "internalType": "address",
          "name": "payer",
          "type": "address"
        },
        {
          "indexed": false,
          "internalType": "address",
          "name": "user",
          "type": "address"
        },
        {
          "indexed": false,
          "internalType": "uint256",
          "name": "debt",
          "type": "uint256"
        },
        {
          "indexed": false,
          "internalType": "uint256",
          "name": "unlockAmount",
          "type": "uint256"
        }
      ],
      "name": "DebtPaid",
      "type": "event"
    },
    {
      "anonymous": false,
      "inputs": [
        {
          "indexed": false,
          "internalType": "uint8",
          "name": "version",
          "type": "uint8"
        }
      ],
      "name": "Initialized",
      "type": "event"
    },
    {
      "anonymous": false,
      "inputs": [
        {
          "indexed": true,
          "internalType": "address",
          "name": "previousOwner",
          "type": "address"
        },
        {
          "indexed": true,
          "internalType": "address",
          "name": "newOwner",
          "type": "address"
        }
      ],
      "name": "OwnershipTransferred",
      "type": "event"
    },
    {
      "anonymous": false,
      "inputs": [
        {
          "indexed": false,
          "internalType": "uint256",
          "name": "reportId",
          "type": "uint256"
        },
        {
          "indexed": false,
          "internalType": "uint256",
          "name": "closeTimestamp",
          "type": "uint256"
        }
      ],
      "name": "ReportClosed",
      "type": "event"
    },
    {
      "anonymous": false,
      "inputs": [
        {
          "indexed": false,
          "internalType": "uint256",
          "name": "reportId",
          "type": "uint256"
        },
        {
          "indexed": true,
          "internalType": "uint256",
          "name": "poolId",
          "type": "uint256"
        },
        {
          "indexed": false,
          "internalType": "uint256",
          "name": "reportTimestamp",
          "type": "uint256"
        },
        {
          "indexed": true,
          "internalType": "address",
          "name": "reporter",
          "type": "address"
        },
        {
          "indexed": false,
          "internalType": "uint256",
          "name": "payout",
          "type": "uint256"
        }
      ],
      "name": "ReportCreated",
      "type": "event"
    },
    {
      "anonymous": false,
      "inputs": [
        {
          "indexed": false,
          "internalType": "uint256",
          "name": "reportId",
          "type": "uint256"
        },
        {
          "indexed": false,
          "internalType": "uint256",
          "name": "round",
          "type": "uint256"
        }
      ],
      "name": "ReportExtended",
      "type": "event"
    },
    {
      "anonymous": false,
      "inputs": [
        {
          "indexed": false,
          "internalType": "uint256",
          "name": "reportId",
          "type": "uint256"
        }
      ],
      "name": "ReportFailed",
      "type": "event"
    },
    {
      "anonymous": false,
      "inputs": [
        {
          "indexed": false,
          "internalType": "uint256",
          "name": "reportId",
          "type": "uint256"
        },
        {
          "indexed": false,
          "internalType": "uint256",
          "name": "result",
          "type": "uint256"
        }
      ],
      "name": "ReportSettled",
      "type": "event"
    },
    {
      "anonymous": false,
      "inputs": [
        {
          "indexed": false,
          "internalType": "uint256",
          "name": "reportId",
          "type": "uint256"
        },
        {
          "indexed": true,
          "internalType": "address",
          "name": "user",
          "type": "address"
        },
        {
          "indexed": false,
          "internalType": "uint256",
          "name": "voteFor",
          "type": "uint256"
        },
        {
          "indexed": false,
          "internalType": "uint256",
          "name": "amount",
          "type": "uint256"
        }
      ],
      "name": "ReportVoted",
      "type": "event"
    },
    {
      "anonymous": false,
      "inputs": [
        {
          "indexed": false,
          "internalType": "uint256",
          "name": "reportId",
          "type": "uint256"
        },
        {
          "indexed": false,
          "internalType": "uint256",
          "name": "startTimestamp",
          "type": "uint256"
        }
      ],
      "name": "ReportVotingStart",
      "type": "event"
    },
    {
      "anonymous": false,
      "inputs": [
        {
          "indexed": false,
          "internalType": "uint256",
          "name": "reportId",
          "type": "uint256"
        },
        {
          "indexed": false,
          "internalType": "uint256",
          "name": "totalRewardToVoters",
          "type": "uint256"
        }
      ],
      "name": "VotingRewardSettled",
      "type": "event"
    },
    {
      "inputs": [],
      "name": "COOLDOWN_WRONG_REPORT",
      "outputs": [
        {
          "internalType": "uint256",
          "name": "",
          "type": "uint256"
        }
      ],
      "stateMutability": "view",
      "type": "function"
    },
    {
      "inputs": [],
      "name": "DEBT_RATIO",
      "outputs": [
        {
          "internalType": "uint256",
          "name": "",
          "type": "uint256"
        }
      ],
      "stateMutability": "view",
      "type": "function"
    },
    {
      "inputs": [],
      "name": "EXTEND_PERIOD",
      "outputs": [
        {
          "internalType": "uint256",
          "name": "",
          "type": "uint256"
        }
      ],
      "stateMutability": "view",
      "type": "function"
    },
    {
      "inputs": [],
      "name": "INCIDENT_VOTING_PERIOD",
      "outputs": [
        {
          "internalType": "uint256",
          "name": "",
          "type": "uint256"
        }
      ],
      "stateMutability": "view",
      "type": "function"
    },
    {
      "inputs": [],
      "name": "MAX_EXTEND_ROUND",
      "outputs": [
        {
          "internalType": "uint256",
          "name": "",
          "type": "uint256"
        }
      ],
      "stateMutability": "view",
      "type": "function"
    },
    {
      "inputs": [],
      "name": "PENDING_PERIOD",
      "outputs": [
        {
          "internalType": "uint256",
          "name": "",
          "type": "uint256"
        }
      ],
      "stateMutability": "view",
      "type": "function"
    },
    {
      "inputs": [],
      "name": "REPORTER_REWARD",
      "outputs": [
        {
          "internalType": "uint256",
          "name": "",
          "type": "uint256"
        }
      ],
      "stateMutability": "view",
      "type": "function"
    },
    {
      "inputs": [],
      "name": "REPORT_THRESHOLD",
      "outputs": [
        {
          "internalType": "uint256",
          "name": "",
          "type": "uint256"
        }
      ],
      "stateMutability": "view",
      "type": "function"
    },
    {
      "inputs": [],
      "name": "RESERVE_RATIO",
      "outputs": [
        {
          "internalType": "uint256",
          "name": "",
          "type": "uint256"
        }
      ],
      "stateMutability": "view",
      "type": "function"
    },
    {
      "inputs": [],
      "name": "REWARD_RATIO",
      "outputs": [
        {
          "internalType": "uint256",
          "name": "",
          "type": "uint256"
        }
      ],
      "stateMutability": "view",
      "type": "function"
    },
    {
      "inputs": [],
      "name": "SAMPLE_PERIOD",
      "outputs": [
        {
          "internalType": "uint256",
          "name": "",
          "type": "uint256"
        }
      ],
      "stateMutability": "view",
      "type": "function"
    },
    {
      "inputs": [
        {
          "internalType": "uint256",
          "name": "_poolId",
          "type": "uint256"
        },
        {
          "internalType": "uint256",
          "name": "_number",
          "type": "uint256"
        }
      ],
      "name": "addPoolReports",
      "outputs": [],
      "stateMutability": "nonpayable",
      "type": "function"
    },
    {
      "inputs": [
        {
          "internalType": "uint256",
          "name": "_id",
          "type": "uint256"
        }
      ],
      "name": "claimReward",
      "outputs": [],
      "stateMutability": "nonpayable",
      "type": "function"
    },
    {
      "inputs": [
        {
          "internalType": "uint256",
          "name": "_id",
          "type": "uint256"
        }
      ],
      "name": "closeReport",
      "outputs": [],
      "stateMutability": "nonpayable",
      "type": "function"
    },
    {
      "inputs": [
        {
          "internalType": "uint256",
          "name": "_reportId",
          "type": "uint256"
        }
      ],
      "name": "executed",
      "outputs": [],
      "stateMutability": "nonpayable",
      "type": "function"
    },
    {
      "inputs": [],
      "name": "executor",
      "outputs": [
        {
          "internalType": "address",
          "name": "",
          "type": "address"
        }
      ],
      "stateMutability": "view",
      "type": "function"
    },
    {
      "inputs": [
        {
          "internalType": "uint256",
          "name": "_poolId",
          "type": "uint256"
        }
      ],
      "name": "getPoolReports",
      "outputs": [
        {
          "internalType": "uint256[]",
          "name": "",
          "type": "uint256[]"
        }
      ],
      "stateMutability": "view",
      "type": "function"
    },
    {
      "inputs": [
        {
          "internalType": "uint256",
          "name": "_poolId",
          "type": "uint256"
        }
      ],
      "name": "getPoolReportsAmount",
      "outputs": [
        {
          "internalType": "uint256",
          "name": "",
          "type": "uint256"
        }
      ],
      "stateMutability": "view",
      "type": "function"
    },
    {
      "inputs": [
        {
          "internalType": "uint256",
          "name": "_id",
          "type": "uint256"
        }
      ],
      "name": "getReport",
      "outputs": [
        {
          "components": [
            {
              "internalType": "uint256",
              "name": "poolId",
              "type": "uint256"
            },
            {
              "internalType": "uint256",
              "name": "reportTimestamp",
              "type": "uint256"
            },
            {
              "internalType": "address",
              "name": "reporter",
              "type": "address"
            },
            {
              "internalType": "uint256",
              "name": "voteTimestamp",
              "type": "uint256"
            },
            {
              "internalType": "uint256",
              "name": "numFor",
              "type": "uint256"
            },
            {
              "internalType": "uint256",
              "name": "numAgainst",
              "type": "uint256"
            },
            {
              "internalType": "uint256",
              "name": "round",
              "type": "uint256"
            },
            {
              "internalType": "uint256",
              "name": "status",
              "type": "uint256"
            },
            {
              "internalType": "uint256",
              "name": "result",
              "type": "uint256"
            },
            {
              "internalType": "uint256",
              "name": "votingReward",
              "type": "uint256"
            },
            {
              "internalType": "uint256",
              "name": "payout",
              "type": "uint256"
            }
          ],
          "internalType": "struct IncidentReport.Report",
          "name": "",
          "type": "tuple"
        }
      ],
      "stateMutability": "view",
      "type": "function"
    },
    {
      "inputs": [
        {
          "internalType": "uint256",
          "name": "_poolId",
          "type": "uint256"
        }
      ],
      "name": "getTempResult",
      "outputs": [
        {
          "components": [
            {
              "internalType": "uint256",
              "name": "result",
              "type": "uint256"
            },
            {
              "internalType": "uint256",
              "name": "sampleTimestamp",
              "type": "uint256"
            },
            {
              "internalType": "bool",
              "name": "hasChanged",
              "type": "bool"
            }
          ],
          "internalType": "struct IncidentReport.TempResult",
          "name": "",
          "type": "tuple"
        }
      ],
      "stateMutability": "view",
      "type": "function"
    },
    {
      "inputs": [
        {
          "internalType": "address",
          "name": "_user",
          "type": "address"
        },
        {
          "internalType": "uint256",
          "name": "_poolId",
          "type": "uint256"
        }
      ],
      "name": "getUserVote",
      "outputs": [
        {
          "components": [
            {
              "internalType": "uint256",
              "name": "choice",
              "type": "uint256"
            },
            {
              "internalType": "uint256",
              "name": "amount",
              "type": "uint256"
            },
            {
              "internalType": "bool",
              "name": "claimed",
              "type": "bool"
            },
            {
              "internalType": "bool",
              "name": "paid",
              "type": "bool"
            }
          ],
          "internalType": "struct IncidentReport.UserVote",
          "name": "",
          "type": "tuple"
        }
      ],
      "stateMutability": "view",
      "type": "function"
    },
    {
      "inputs": [
        {
          "internalType": "address",
          "name": "_deg",
          "type": "address"
        },
        {
          "internalType": "address",
          "name": "_veDeg",
          "type": "address"
        },
        {
          "internalType": "address",
          "name": "_shield",
          "type": "address"
        }
      ],
      "name": "initialize",
      "outputs": [],
      "stateMutability": "nonpayable",
      "type": "function"
    },
    {
      "inputs": [],
      "name": "owner",
      "outputs": [
        {
          "internalType": "address",
          "name": "",
          "type": "address"
        }
      ],
      "stateMutability": "view",
      "type": "function"
    },
    {
      "inputs": [
        {
          "internalType": "uint256",
          "name": "_id",
          "type": "uint256"
        },
        {
          "internalType": "address",
          "name": "_user",
          "type": "address"
        }
      ],
      "name": "payDebt",
      "outputs": [],
      "stateMutability": "nonpayable",
      "type": "function"
    },
    {
      "inputs": [
        {
          "internalType": "uint256",
          "name": "",
          "type": "uint256"
        },
        {
          "internalType": "uint256",
          "name": "",
          "type": "uint256"
        }
      ],
      "name": "poolReports",
      "outputs": [
        {
          "internalType": "uint256",
          "name": "",
          "type": "uint256"
        }
      ],
      "stateMutability": "view",
      "type": "function"
    },
    {
      "inputs": [],
      "name": "priorityPoolFactory",
      "outputs": [
        {
          "internalType": "contract IPriorityPoolFactory",
          "name": "",
          "type": "address"
        }
      ],
      "stateMutability": "view",
      "type": "function"
    },
    {
      "inputs": [],
      "name": "quorumRatio",
      "outputs": [
        {
          "internalType": "uint256",
          "name": "",
          "type": "uint256"
        }
      ],
      "stateMutability": "view",
      "type": "function"
    },
    {
      "inputs": [],
      "name": "renounceOwnership",
      "outputs": [],
      "stateMutability": "nonpayable",
      "type": "function"
    },
    {
      "inputs": [
        {
          "internalType": "uint256",
          "name": "_poolId",
          "type": "uint256"
        },
        {
          "internalType": "uint256",
          "name": "_payout",
          "type": "uint256"
        }
      ],
      "name": "report",
      "outputs": [],
      "stateMutability": "nonpayable",
      "type": "function"
    },
    {
      "inputs": [],
      "name": "reportCounter",
      "outputs": [
        {
          "internalType": "uint256",
          "name": "",
          "type": "uint256"
        }
      ],
      "stateMutability": "view",
      "type": "function"
    },
    {
      "inputs": [
        {
          "internalType": "uint256",
          "name": "",
          "type": "uint256"
        }
      ],
      "name": "reported",
      "outputs": [
        {
          "internalType": "bool",
          "name": "",
          "type": "bool"
        }
      ],
      "stateMutability": "view",
      "type": "function"
    },
    {
      "inputs": [
        {
          "internalType": "uint256",
          "name": "",
          "type": "uint256"
        }
      ],
      "name": "reports",
      "outputs": [
        {
          "internalType": "uint256",
          "name": "poolId",
          "type": "uint256"
        },
        {
          "internalType": "uint256",
          "name": "reportTimestamp",
          "type": "uint256"
        },
        {
          "internalType": "address",
          "name": "reporter",
          "type": "address"
        },
        {
          "internalType": "uint256",
          "name": "voteTimestamp",
          "type": "uint256"
        },
        {
          "internalType": "uint256",
          "name": "numFor",
          "type": "uint256"
        },
        {
          "internalType": "uint256",
          "name": "numAgainst",
          "type": "uint256"
        },
        {
          "internalType": "uint256",
          "name": "round",
          "type": "uint256"
        },
        {
          "internalType": "uint256",
          "name": "status",
          "type": "uint256"
        },
        {
          "internalType": "uint256",
          "name": "result",
          "type": "uint256"
        },
        {
          "internalType": "uint256",
          "name": "votingReward",
          "type": "uint256"
        },
        {
          "internalType": "uint256",
          "name": "payout",
          "type": "uint256"
        }
      ],
      "stateMutability": "view",
      "type": "function"
    },
    {
      "inputs": [
        {
          "internalType": "address",
          "name": "_executor",
          "type": "address"
        }
      ],
      "name": "setExecutor",
      "outputs": [],
      "stateMutability": "nonpayable",
      "type": "function"
    },
    {
      "inputs": [
        {
          "internalType": "address",
          "name": "_priorityPoolFactory",
          "type": "address"
        }
      ],
      "name": "setPriorityPoolFactory",
      "outputs": [],
      "stateMutability": "nonpayable",
      "type": "function"
    },
    {
      "inputs": [
        {
          "internalType": "uint256",
          "name": "_ratio",
          "type": "uint256"
        }
      ],
      "name": "setQuorumRatio",
      "outputs": [],
      "stateMutability": "nonpayable",
      "type": "function"
    },
    {
      "inputs": [
        {
          "internalType": "uint256",
          "name": "_id",
          "type": "uint256"
        }
      ],
      "name": "setReported",
      "outputs": [],
      "stateMutability": "nonpayable",
      "type": "function"
    },
    {
      "inputs": [
        {
          "internalType": "uint256",
          "name": "_id",
          "type": "uint256"
        }
      ],
      "name": "settle",
      "outputs": [],
      "stateMutability": "nonpayable",
      "type": "function"
    },
    {
      "inputs": [
        {
          "internalType": "uint256",
          "name": "_id",
          "type": "uint256"
        }
      ],
      "name": "startVoting",
      "outputs": [],
      "stateMutability": "nonpayable",
      "type": "function"
    },
    {
      "inputs": [
        {
          "internalType": "uint256",
          "name": "",
          "type": "uint256"
        }
      ],
      "name": "tempResults",
      "outputs": [
        {
          "internalType": "uint256",
          "name": "result",
          "type": "uint256"
        },
        {
          "internalType": "uint256",
          "name": "sampleTimestamp",
          "type": "uint256"
        },
        {
          "internalType": "bool",
          "name": "hasChanged",
          "type": "bool"
        }
      ],
      "stateMutability": "view",
      "type": "function"
    },
    {
      "inputs": [
        {
          "internalType": "address",
          "name": "newOwner",
          "type": "address"
        }
      ],
      "name": "transferOwnership",
      "outputs": [],
      "stateMutability": "nonpayable",
      "type": "function"
    },
    {
      "inputs": [
        {
          "internalType": "uint256",
          "name": "_poolId",
          "type": "uint256"
        }
      ],
      "name": "unpausePools",
      "outputs": [],
      "stateMutability": "nonpayable",
      "type": "function"
    },
    {
      "inputs": [
        {
          "internalType": "uint256",
          "name": "_id",
          "type": "uint256"
        },
        {
          "internalType": "uint256",
          "name": "_isFor",
          "type": "uint256"
        },
        {
          "internalType": "uint256",
          "name": "_amount",
          "type": "uint256"
        }
      ],
      "name": "vote",
      "outputs": [],
      "stateMutability": "nonpayable",
      "type": "function"
    },
    {
      "inputs": [
        {
          "internalType": "address",
          "name": "",
          "type": "address"
        },
        {
          "internalType": "uint256",
          "name": "",
          "type": "uint256"
        }
      ],
      "name": "votes",
      "outputs": [
        {
          "internalType": "uint256",
          "name": "choice",
          "type": "uint256"
        },
        {
          "internalType": "uint256",
          "name": "amount",
          "type": "uint256"
        },
        {
          "internalType": "bool",
          "name": "claimed",
          "type": "bool"
        },
        {
          "internalType": "bool",
          "name": "paid",
          "type": "bool"
        }
      ],
      "stateMutability": "view",
      "type": "function"
    }
  ],
  "transactionHash": "0x003753c6d92d42083396e92e2d80059f1df787624f2968f3f039cb94b0ac4344",
  "args": [],
  "numDeployments": 1,
  "solcInputHash": "e1ba30aa7fe1764f1fb0e486bbf521c6",
  "bytecode": "0x608080604052346100165761228f908161001c8239f35b600080fdfe6080604052600480361015610014575b600080fd5b600090813560e01c90816312d5cc861461066e5781631c3c0ea814611d6e57816320731ab814611d5157816321bef21c14611d2e5781633d2f5bda14611caa57816343a5ada214611c0a5781634a13a0ee14611bca5781634aa0644714611bbf5781634e7f9b1914611a625781636530db98146119a25781636f8a6e4314611979578163715018a614611913578163753c0985146115a65781637aaf11c71461157c578163805a219f146115605781638a6655d6146111a65781638da5cb5b1461117b5781638df8280014610d395781639418ce1714610ceb578163966d8a5f14610c6c5781639e17215514610c4e5781639f2524ee14610be0578163a01bc01f14610b2b578163ad35e1dc14610ae2578163ae169a501461094b578163af5283491461033f578163b4643d291461092d578163b9bc38f21461090f578163c0c53b8b14610770578163c34c08e514610747578163c583777b1461071c578163c942adf714610679578163ce4f29fc1461066e578163d3ecebd714610611578163d6069060146105e2578163d92747cc146105c6578163d9dc8f1d1461034a578163e37dbfd91461033f578163e7d918e21461030b578163f2fde38b1461026e578163fc6e85d31461022357508063fd123806146102195763fe131778146101fb57600080fd5b346102165780600319360112610216576020604051603c8152f35b80fd5b505061000f611e44565b90503461026a57602036600319011261026a57606091604091358152603b6020522080549060ff600260018301549201541690604051928352602083015215156040820152f35b5080fd5b90503461026a57602036600319011261026a57610289611dd4565b9060018060a01b036102a281855460101c163314611e87565b8216156102b857506102b390611ec0565b604051f35b60849060206040519162461bcd60e51b8352820152602660248201527f4f776e61626c653a206e6577206f776e657220697320746865207a65726f206160448201526564647265737360d01b6064820152fd5b90503461026a57602036600319011261026a576102b39061033960018060a01b03845460101c163314611e87565b35612134565b50505061000f611e6a565b90503461026a57604036600319011261026a578035610367611dea565b9060018060a01b0380831691828652602093603c8552604087208288528552604087209560405161039781611fe0565b875481526002600189015498888301998a5201549060ff82161515604082015260ff606082019260081c1615158252848a5260398852600860408b2001549081156105b55781849151149182156105aa575b82156105a0575b5050610590575161058157865180600019046050118115151661056c579061271060508a94930204948060325416803b15610545576040805163342c6d4d60e11b815233858201908152602081018a90529092879284928391859183910103925af1908115610561578591610549575b505060335416885190803b156105455760408051634bdc2db560e11b81526001600160a01b039095169385019384526020840192909252849284928391859183910103925af1801561053a5761051a575b5094839291608095947fb4b7f3a9d727d0ac344f696304df335d2936ce3b0a58d52600c692632c9fa7259752603c85526040882090885284526002604088200161010061ff001982541617905551916040519333855284015260408301526060820152a1604051f35b610528909594939295611fb2565b6105365790919285386104b1565b8580fd5b6040513d84823e3d90fd5b8480fd5b61055290611fb2565b61055d578338610460565b8380fd5b6040513d87823e3d90fd5b601182634e487b7160e01b6000525260246000fd5b604051631abf06a960e21b8152fd5b50604051631ae2961d60e01b8152fd5b14905082386103f0565b6003811492506103e9565b60405163403ba18960e01b81528490fd5b8234610216578060031936011261021657602060405160028152f35b90503461026a57602036600319011261026a57604060209260ff92358152603d84522054166040519015158152f35b90503461026a57602036600319011261026a576036546001600160a01b0316330361065f5735815260396020526102b36040822054808352603d6020526040832060ff198154169055612134565b6040516324bba59760e21b8152fd5b50505061000f611db7565b90503461026a57602036600319011261026a57604061016092823581526039602052209081549160018101549160018060a01b03600283015416906003830154908301546005840154600685015491600786015493600887015495600a6009890154980154986040519a8b5260208b015260408a01526060890152608088015260a087015260c086015260e0850152610100840152610120830152610140820152f35b90503461026a57602036600319011261026a57358152603d6020526040808220805460ff1916905551f35b82346102165780600319360112610216576036546040516001600160a01b039091168152602090f35b90503461026a57606036600319011261026a5761078b611dd4565b90610794611dea565b916044356001600160a01b03818116929183900361000f57855460ff8160081c161594858096610902575b80156108eb575b15610890575060ff19811660011787558461087f575b506107f660ff875460081c166107f181611f20565b611f20565b6107ff33611ec0565b85549461081160ff8760081c16611f20565b8160018060a01b031993168360325416176032551681603354161760335560345416176034556032603855610847575b50604051f35b61ff00191681557f7f26b83ff96e1f2b6a682f133852f6798a09c465da95921460cefb3847402498602060405160018152a138610841565b61ffff1916610101178655386107dc565b60849060206040519162461bcd60e51b8352820152602e60248201527f496e697469616c697a61626c653a20636f6e747261637420697320616c72656160448201526d191e481a5b9a5d1a585b1a5e995960921b6064820152fd5b50303b1580156107c65750600160ff8316146107c6565b50600160ff8316106107bf565b82346102165780600319360112610216576020603754604051908152f35b82346102165780600319360112610216576020603854604051908152f35b90503461026a57602080600319360112610ade57813591338452603c8252604084208385528252604084209060405161098381611fe0565b82548152600260018401549385830194855201549060ff60408201928181161515845260081c16151560608201528587526039855260086040882001549182156105b55751610acd5751869291908103610a8c5750848252603984526109f260096040842001548451906120bb565b6032546001600160a01b031691823b1561055d576040805163168ece7360e31b81523392810192835264e8d4a5100090930460208301529192849284928391859183910103925af1801561053a57610a78575b5050610a529051336121b1565b338352603c8152604083209183525260026040822001600160ff19825416179055604051f35b610a8190611fb2565b61055d578338610a45565b9080925060038214918215610ac3575b505015610ab45750610aaf9051336121b1565b610a52565b60405163158f1f4160e11b8152fd5b1490508138610a9c565b60405163961e9b0d60e01b81528390fd5b8280fd5b823461021657602036600319011261021657610afc611dd4565b60018060a01b0390610b1582845460101c163314611e87565b1660018060a01b03196035541617603555604051f35b8234610216576040366003190112610216576040608091610b4a611dd4565b8160608451610b5881611fe0565b8281528260208201528286820152015260018060a01b03168152603c60205281812060243582526020522060405190610b9082611fe0565b80549182815260026001830154926020830193845201549160ff6060604084019382861615158552019360081c161515835260405193845251602084015251151560408301525115156060820152f35b8234610216576040366003190112610216576080906040906001600160a01b03610c08611dd4565b168152603c60205281812060243582526020522060ff815491600260018201549101549060405193845260208401528181161515604084015260081c1615156060820152f35b8234610216578060031936011261021657602060405162093a808152f35b90503461026a57602036600319011261026a5781604091606093838051610c9281611fc5565b8281528260208201520152358152603b60205220604051610cb281611fc5565b815491828252604060ff600260018401549360208601948552015416920191151582526040519283525160208301525115156040820152f35b90503461026a57602036600319011261026a57803590610d1860018060a01b03845460101c163314611e87565b6064821015610d2a5750603855604051f35b604051633f18bddf60e01b8152fd5b90503461026a5760209081600319360112610ade5780359081845260398352604084209260078401916002908184540361116c576006860191825494600388015461012c19811161115957610d9b9061012c610d9489612075565b9101612053565b4210611148576008880193845461113757908992918397898552603b88528360ff8160408820015416918261112d575b505015611109578884526039875260066040852001600181540190555b87156110b9575060039055610e058389015460058a015490612053565b6033546040516318160ddd60e01b81526001600160a01b0396929188908290889082908b165afa908115610561578591611084575b50610e4a606491603854906120bb565b041161103157869060018214998a1561100f575b505586825260398552604082209280840154946005850154998490600014610f50575080603254169285015416823b1561055d576044849283604051958694859363168ece7360e31b855284015269043c33c193756480000060248401525af1801561053a57610f2e575b50506040809594939260008051602061223a833981519152926009610f116064610f0160008051602061221a8339815191529c61208b565b0493610f0c856120a1565b6120ce565b9101555b81519086825284820152a18351928352820152a1604051f35b610f3c909695949396611fb2565b610f4c5786389592939495610ec9565b8680fd5b969798999592919350508714610f8f575b505050509160008051602061221a833981519152939160008051602061223a83398151915260408095610f15565b60649192939450610f9f9061208b565b049069021e19e0c9bab24000009082198211610ffc57506040959360008051602061221a8339815191529795936009610fee60008051602061223a833981519152958a950193610f0c856120a1565b910155939583959750610f61565b634e487b7160e01b895260119052602488fd5b5461101981612134565b8452603d875260408420805460ff1916905538610e5e565b92935050507f1dcabc7d01df1ee725f7c437ce5ec43e00015579d266f8a65d0911c4eb36ad909592949350555461106781612134565b8452603d82526040808520805460ff1916905551908152a1604051f35b809550888092503d83116110b2575b61109d8183611ffb565b8101031261000f5792518a9390610e4a610e3a565b503d611093565b94505091507fb7891e9b049f460b1641e0a0556e45b1d2adfb12bd2c6459ea5a5d645d40179d96508594509460409552603b83528487200160ff19815416905554908351928352820152a1604051f35b96506039865261112784604085200154600560408620015490612100565b96610de8565b1090508338610dcb565b60405163037d379160e11b81528490fd5b6040516324b1a7e960e01b81528390fd5b634e487b7160e01b8a526011845260248afd5b60405163363bbdfd60e01b8152fd5b82346102165780600319360112610216575460405160109190911c6001600160a01b03168152602090f35b823461021657606036600319011261021657813560249283356044359183855260209060398252600260076040882001540361116c578315611551576001831491821580611546575b611536576033546040516370a0823160e01b815233848201526001600160a01b039091169082818b81855afa90811561152b5789916114fe575b5060405163cbf9fe5f60e01b815233858201529083828c81865afa9182156114f3578a926114c4575b508181106114b05703861161149f57803b1561149b5760408051633c56aa6160e11b8152338582019081526020810189905290928a9284928391859183910103925af180156114905790889161147c575b5050338752603c81526040808820878952825287206001810180549091869115611476575403611465575b6112d9868254612053565b90558587526039815260408720921561144f578183016112fa868254612053565b90555b858752603b815260ff60026040892001541615806113b0575b7f025e12b9cbba227587ada73c57f6b6b6a70272d7ed782681793125ec29afc77b96979850611360575b5050604080519586526020860192909252508301523391606090a2604051f35b603b600561137d9385015494015491888a52526040882092612100565b815480611396575b508155600142910155858080611340565b600283019060ff8019835416918414151617905587611385565b50600383015460068401549061012c19811161143d5761012c6113ef91016113e96113e36113dd85612075565b83612053565b93612075565b90612053565b6078811061143d577f025e12b9cbba227587ada73c57f6b6b6a70272d7ed782681793125ec29afc77b979899506077190142119081611433575b5088979650611316565b9050421089611429565b634e487b7160e01b8952601184528989fd5b6005830161145e868254612053565b90556112fd565b6040516346bdda4560e11b81528390fd5b556112ce565b61148590611fb2565b610f4c5786896112a3565b6040513d8a823e3d90fd5b8780fd5b60405163729aeac360e01b81528390fd5b8a601186634e487b7160e01b600052526000fd5b9091508381813d83116114ec575b6114dc8183611ffb565b8101031261000f5751908b611252565b503d6114d2565b6040513d8c823e3d90fd5b90508281813d8311611524575b6115158183611ffb565b8101031261000f57518a611229565b503d61150b565b6040513d8b823e3d90fd5b50604051631422ca1d60e31b8152fd5b5060028414156111ef565b60405163583202e160e01b8152fd5b8234610216578060031936011261021657602060405160508152f35b90503461026a57602036600319011261026a57602091604091358152603a83522054604051908152f35b90503461026a576115b636611e00565b6035546040516315895f4760e31b81528085018490526001600160a01b03949186908290602490829089165afa80156119085785918791611819575b501693841561180957838652602094603d865260ff6040882054166117f85785839160405192838092636835185f60e11b82525afa9081156117ed5787916117c0575b5083116117b057838652603d855260408620805460ff19166001179055603754600019811461179d5760010194856037558587526039815283600a60408920878155426001820155600281013360018060a01b0319825416179055600160078201550155868260325416803b1561026a57819060446040518094819363342c6d4d60e11b8352338a84015269021e19e0c9bab240000060248401525af1801561149057611783575b5090603a879392868552526116f5866040852061201c565b6035541690813b15610ade578460448492836040519586948593631b35278960e01b8552840152600160248401525af1801561053a5761176f575b50506040805193845242602085015283015233917fe4af8b66d6c4b132955627bb2e4e80a62c544714e2f19dafec934a3b156cbe9390606090a3604051f35b61177890611fb2565b61055d578338611730565b96611793603a9894939294611fb2565b96929091926116dd565b634e487b7160e01b875260118352602487fd5b5060405163cab1fa1b60e01b8152fd5b90508581813d83116117e6575b6117d78183611ffb565b81010312610f4c575138611635565b503d6117cd565b6040513d89823e3d90fd5b6040516360b2438960e01b81528390fd5b5060405163148115cf60e21b8152fd5b9150503d8087833e61182b8183611ffb565b810160a082820312610f4c5781516001600160401b039081811161190457830182601f820112156119045780519182116118f1576040519060209361187985601f19601f8701160184611ffb565b8383528484830101116118ed579189918995949383905b8382106118d257509284836118bf96936118b895604097116118c6575b505050508401612120565b9201612120565b50386115f2565b0101528a8138806118ad565b8181018601518284018701528b97508c945090850190611890565b8980fd5b634e487b7160e01b895260418552602489fd5b8880fd5b6040513d88823e3d90fd5b82346102165780600319360112610216578054601081901c6001600160a01b031690611940338314611e87565b82604051927f8be0079c531659141344cd1fd0a4f28419497f9722a3daafe3b4186f6b6457e08285a362010000600160b01b0319168255f35b82346102165780600319360112610216576035546040516001600160a01b039091168152602090f35b90503461026a57602036600319011261026a578035906119cf60018060a01b03845460101c163314611e87565b818352603960205260408320906007820190600182540361116c576119f760018401546120ee565b611a53575091611a426040926101947f17b76cf2012024f7fe05b4a8b036b188464d5b49b7c8532e95c5c67a4b792eb29555828652603d60205283862060ff19815416905554612134565b8151908152426020820152a1604051f35b6040516324b1a7e960e01b8152fd5b90503461026a57602036600319011261026a5761014061016092604051611a8881611f80565b8181528160208201528160408201528160608201528160808201528160a08201528160c08201528160e08201526040610100928084840152808561012094828682015201528535815260396020522091600a60405193611ae785611f80565b8054968786526001820154602087015260018060a01b036002830154166040870152600382015460608701528101546080860152600581015460a0860152600681015460c0860152600781015460e08601526008810154838601526009810154848601520154848401526040519485526020830151602086015260018060a01b036040840151166040860152606083015160608601526080830151608086015260a083015160a086015260c083015160c086015260e083015160e0860152808301519085015280820151908401520151610140820152f35b50505061000f611e44565b823461021657611bd936611e00565b91908152603a60205260408120908154831015610216576020611bfc8484611e16565b90546040519160031b1c8152f35b90503461026a5760209081600319360112610ade57358252603a81526040822060405192838383549182815201908193835284832090835b818110611c965750505084611c58910385611ffb565b60405193838594850191818652518092526040850193925b828110611c7f57505050500390f35b835185528695509381019392810192600101611c70565b825484529286019260019283019201611c42565b90503461026a57602036600319011261026a57803590818352603960205260408320906007820190600182540361116c57611ce860018401546120ee565b15611a5357509160409160027fde7965c8d6f24b73501e8bcad1a4f03937db4f902bfda3bee08b335accf0749694556003429101558151908152426020820152a1604051f35b8234610216576102b3611d4036611e00565b908352603a6020526040832061201c565b8234610216578060031936011261021657602060405161012c8152f35b823461021657602036600319011261021657611d88611dd4565b60018060a01b0390611da182845460101c163314611e87565b1660018060a01b03196036541617603655604051f35b503461000f57600036600319011261000f57602060405160788152f35b600435906001600160a01b038216820361000f57565b602435906001600160a01b038216820361000f57565b604090600319011261000f576004359060243590565b8054821015611e2e5760005260206000200190600090565b634e487b7160e01b600052603260045260246000fd5b503461000f57600036600319011261000f57602060405169021e19e0c9bab24000008152f35b503461000f57600036600319011261000f57602060405160288152f35b15611e8e57565b60405162461bcd60e51b815260206004820152600a60248201526927b7363c9037bbb732b960b11b6044820152606490fd5b6000549060018060a01b03808216908360101c167f8be0079c531659141344cd1fd0a4f28419497f9722a3daafe3b4186f6b6457e06000604051a362010000600160b01b031990911660109190911b62010000600160b01b031617600055565b15611f2757565b60405162461bcd60e51b815260206004820152602b60248201527f496e697469616c697a61626c653a20636f6e7472616374206973206e6f74206960448201526a6e697469616c697a696e6760a81b6064820152608490fd5b61016081019081106001600160401b03821117611f9c57604052565b634e487b7160e01b600052604160045260246000fd5b6001600160401b038111611f9c57604052565b606081019081106001600160401b03821117611f9c57604052565b608081019081106001600160401b03821117611f9c57604052565b90601f801991011681019081106001600160401b03821117611f9c57604052565b8054600160401b811015611f9c5761203991600182018155611e16565b819291549060031b600019811b9283911b16911916179055565b8119811161205f570190565b634e487b7160e01b600052601160045260246000fd5b80600019046078118115151661205f5760780290565b80600019046028118115151661205f5760280290565b64e8d4a5100090806000190482118115151661205f570290565b806000190482118115151661205f570290565b81156120d8570490565b634e487b7160e01b600052601260045260246000fd5b603c19811161205f57603c0142101590565b818111156121105750506001905b565b101561211b57600290565b600390565b51906001600160a01b038216820361000f57565b6035546001600160a01b031690813b1561000f57604051918291631b35278960e01b835260048301528160446000938480948160248401525af180156121a45761217c575050565b6001600160401b0382116121905750604052565b634e487b7160e01b81526041600452602490fd5b50604051903d90823e3d90fd5b6033546001600160a01b031691823b1561000f57604051634bdc2db560e11b81526001600160a01b039290921660048301526024820152906000908290604490829084905af1801561220d576122045750565b61210e90611fb2565b6040513d6000823e3d90fdfe30922d3a94c33e0ce3f99be437cbdf00f141e304f742a1cbd0df5cc5b490cd45bf97c766fd98feb70e7d5cc384ac953bcce9a7ca082cf57da33a199d67f7b7aba2646970667358221220550d9cc0dd25af2bdbdbb8401f3fa12fc959854fbb100999ec7eb4fcd340b68664736f6c634300080f0033",
  "devdoc": {
    "kind": "dev",
    "methods": {
      "claimReward(uint256)": {
        "params": {
          "_id": "Report id"
        }
      },
      "closeReport(uint256)": {
        "params": {
          "_id": "Report id"
        }
      },
      "executed(uint256)": {
        "params": {
          "_reportId": "Report id"
        }
      },
      "owner()": {
        "details": "Returns the address of the current owner."
      },
      "payDebt(uint256,address)": {
        "params": {
          "_id": "Report id",
          "_user": "User address (can pay debt for another user)"
        }
      },
      "renounceOwnership()": {
        "details": "Leaves the contract without owner. It will not be possible to call `onlyOwner` functions anymore. Can only be called by the current owner. NOTE: Renouncing ownership will leave the contract without an owner, thereby removing any functionality that is only available to the owner."
      },
      "report(uint256,uint256)": {
        "params": {
          "_payout": "Payout amount of this report",
          "_poolId": "Pool id to report incident"
        }
      },
      "settle(uint256)": {
        "params": {
          "_id": "Report id"
        }
      },
      "startVoting(uint256)": {
        "params": {
          "_id": "Report id"
        }
      },
      "transferOwnership(address)": {
        "details": "Transfers ownership of the contract to a new account (`newOwner`). Can only be called by the current owner."
      },
      "vote(uint256,uint256,uint256)": {
        "params": {
          "_amount": "Amount of veDEG used for this vote",
          "_id": "Id of the report to be voted on",
          "_isFor": "The user's choice (1: vote for, 2: vote against)"
        }
      }
    },
    "version": 1
  },
  "userdoc": {
    "kind": "user",
    "methods": {
      "claimReward(uint256)": {
        "notice": "Claim the voting reward         Only callable through proposal center"
      },
      "closeReport(uint256)": {
        "notice": "Close a pending report         Only owner can close a pending report         Can only be closed before the pending period ends         Will change the status from PENDING to CLOSED"
      },
      "executed(uint256)": {
        "notice": "Update status after execution         Only callable by executor"
      },
      "payDebt(uint256,address)": {
        "notice": "Pay debt to get back veDEG         For those who made a wrong voting choice         The paid DEG will be burned and the veDEG will be unlocked         Can not call this function when result is TIED or choose the correct side"
      },
      "report(uint256,uint256)": {
        "notice": "Start a new incident report         1000 DEG tokens are staked to start a report         If the report is correct, reporter gets back 1000DEG + 10% shield income + extra 1000DEG         If the report is wrong, reporter loses 1000DEG to those who vote against         Only callable through proposal center"
      },
      "settle(uint256)": {
        "notice": "Settle the final result for a report"
      },
      "startVoting(uint256)": {
        "notice": "Start the voting process         Can only be started after the pending period         Will change the status from PENDING to VOTING"
      },
      "vote(uint256,uint256,uint256)": {
        "notice": "Vote on current reports         Voting power is decided by the (unlocked) balance of veDEG         Once voted, those veDEG will be locked         Rewarded if votes with majority         Punished if votes against majority"
      }
    },
    "notice": "Incident Report Contract         New reports for project hacks are handled inside this contract         Timeline for a report is:         |-----------------------|----------------------|-------|-------|               Pending Period         Voting Period       Extend Period         When a new report is proposed, it start with PENDING_STATUS.         The person who start the report need to deposit REPORT_THRESHOLD DEG tokens.         During PENDING_STATUS, users & security companies can look at the report event.         After PENDING_PERIOD, the voting can be started and status transfer to VOTING_STATUS.         Users can vote for or against the report with veDeg tokens.         VeDeg tokens used for voting will be tentatively locked until the voting is settled.         After VOTING_PERIOD, the voting can be settled and status transfer to SETTLED_STATUS.         Depending on the votes of each side, the result can be PASSED, REJECTED or TIED.         Different results for their veDeg tokens will be set depending on the result.         If the result has changes during the last 24 hours of voting, the voting will be extended.         The time can only be extended twice.         For voters:              PASSED: Who vote for will get all veDeg tokens from the opposite side              REJECTED: Who vote against will get all veDeg tokens from the opposite side              TIED: Users can unlock their veDeg tokens         For reporter:              PASSED: Get back REPORT_THRESHOLD and get extra REPORT_REWARD & 10% of total treasury income              REJECTED: Lose REPORT_THRESHOLD to whom vote against              TIED: Lose REPORT_THRESHOLD         When an incident report has passed and been executed         The corresponding priority pool will be liquidated which means:             - Move out some assets for users to claim             - Deploy new generation of crTokens and PRI-LP tokens             - Update the farming weights for the priority farming pool",
    "version": 1
  },
  "storageLayout": {
    "storage": [
      {
        "astId": 52,
        "contract": "src/voting/incidentReport/IncidentReport.sol:IncidentReport",
        "label": "_initialized",
        "offset": 0,
        "slot": "0",
        "type": "t_uint8"
      },
      {
        "astId": 55,
        "contract": "src/voting/incidentReport/IncidentReport.sol:IncidentReport",
        "label": "_initializing",
        "offset": 1,
        "slot": "0",
        "type": "t_bool"
      },
      {
        "astId": 23413,
        "contract": "src/voting/incidentReport/IncidentReport.sol:IncidentReport",
        "label": "_owner",
        "offset": 2,
        "slot": "0",
        "type": "t_address"
      },
      {
        "astId": 23520,
        "contract": "src/voting/incidentReport/IncidentReport.sol:IncidentReport",
        "label": "__gap",
        "offset": 0,
        "slot": "1",
        "type": "t_array(t_uint256)49_storage"
      },
      {
        "astId": 14000,
        "contract": "src/voting/incidentReport/IncidentReport.sol:IncidentReport",
        "label": "deg",
        "offset": 0,
        "slot": "50",
        "type": "t_contract(IDegisToken)14127"
      },
      {
        "astId": 14003,
        "contract": "src/voting/incidentReport/IncidentReport.sol:IncidentReport",
        "label": "veDeg",
        "offset": 0,
        "slot": "51",
        "type": "t_contract(IVeDEG)15276"
      },
      {
        "astId": 14006,
        "contract": "src/voting/incidentReport/IncidentReport.sol:IncidentReport",
        "label": "shield",
        "offset": 0,
        "slot": "52",
        "type": "t_contract(IShield)15231"
      },
      {
        "astId": 25411,
        "contract": "src/voting/incidentReport/IncidentReport.sol:IncidentReport",
        "label": "priorityPoolFactory",
        "offset": 0,
        "slot": "53",
        "type": "t_contract(IPriorityPoolFactory)15153"
      },
      {
        "astId": 25413,
        "contract": "src/voting/incidentReport/IncidentReport.sol:IncidentReport",
        "label": "executor",
        "offset": 0,
        "slot": "54",
        "type": "t_address"
      },
      {
        "astId": 23905,
        "contract": "src/voting/incidentReport/IncidentReport.sol:IncidentReport",
        "label": "reportCounter",
        "offset": 0,
        "slot": "55",
        "type": "t_uint256"
      },
      {
        "astId": 23907,
        "contract": "src/voting/incidentReport/IncidentReport.sol:IncidentReport",
        "label": "quorumRatio",
        "offset": 0,
        "slot": "56",
        "type": "t_uint256"
      },
      {
        "astId": 23935,
        "contract": "src/voting/incidentReport/IncidentReport.sol:IncidentReport",
        "label": "reports",
        "offset": 0,
        "slot": "57",
        "type": "t_mapping(t_uint256,t_struct(Report)23930_storage)"
      },
      {
        "astId": 23940,
        "contract": "src/voting/incidentReport/IncidentReport.sol:IncidentReport",
        "label": "poolReports",
        "offset": 0,
        "slot": "58",
        "type": "t_mapping(t_uint256,t_array(t_uint256)dyn_storage)"
      },
      {
        "astId": 23952,
        "contract": "src/voting/incidentReport/IncidentReport.sol:IncidentReport",
        "label": "tempResults",
        "offset": 0,
        "slot": "59",
        "type": "t_mapping(t_uint256,t_struct(TempResult)23947_storage)"
      },
      {
        "astId": 23968,
        "contract": "src/voting/incidentReport/IncidentReport.sol:IncidentReport",
        "label": "votes",
        "offset": 0,
        "slot": "60",
        "type": "t_mapping(t_address,t_mapping(t_uint256,t_struct(UserVote)23961_storage))"
      },
      {
        "astId": 23972,
        "contract": "src/voting/incidentReport/IncidentReport.sol:IncidentReport",
        "label": "reported",
        "offset": 0,
        "slot": "61",
        "type": "t_mapping(t_uint256,t_bool)"
      }
    ],
    "types": {
      "t_address": {
        "encoding": "inplace",
        "label": "address",
        "numberOfBytes": "20"
      },
      "t_array(t_uint256)49_storage": {
        "base": "t_uint256",
        "encoding": "inplace",
        "label": "uint256[49]",
        "numberOfBytes": "1568"
      },
      "t_array(t_uint256)dyn_storage": {
        "base": "t_uint256",
        "encoding": "dynamic_array",
        "label": "uint256[]",
        "numberOfBytes": "32"
      },
      "t_bool": {
        "encoding": "inplace",
        "label": "bool",
        "numberOfBytes": "1"
      },
      "t_contract(IDegisToken)14127": {
        "encoding": "inplace",
        "label": "contract IDegisToken",
        "numberOfBytes": "20"
      },
      "t_contract(IPriorityPoolFactory)15153": {
        "encoding": "inplace",
        "label": "contract IPriorityPoolFactory",
        "numberOfBytes": "20"
      },
      "t_contract(IShield)15231": {
        "encoding": "inplace",
        "label": "contract IShield",
        "numberOfBytes": "20"
      },
      "t_contract(IVeDEG)15276": {
        "encoding": "inplace",
        "label": "contract IVeDEG",
        "numberOfBytes": "20"
      },
      "t_mapping(t_address,t_mapping(t_uint256,t_struct(UserVote)23961_storage))": {
        "encoding": "mapping",
        "key": "t_address",
        "label": "mapping(address => mapping(uint256 => struct IncidentReport.UserVote))",
        "numberOfBytes": "32",
        "value": "t_mapping(t_uint256,t_struct(UserVote)23961_storage)"
      },
      "t_mapping(t_uint256,t_array(t_uint256)dyn_storage)": {
        "encoding": "mapping",
        "key": "t_uint256",
        "label": "mapping(uint256 => uint256[])",
        "numberOfBytes": "32",
        "value": "t_array(t_uint256)dyn_storage"
      },
      "t_mapping(t_uint256,t_bool)": {
        "encoding": "mapping",
        "key": "t_uint256",
        "label": "mapping(uint256 => bool)",
        "numberOfBytes": "32",
        "value": "t_bool"
      },
      "t_mapping(t_uint256,t_struct(Report)23930_storage)": {
        "encoding": "mapping",
        "key": "t_uint256",
        "label": "mapping(uint256 => struct IncidentReport.Report)",
        "numberOfBytes": "32",
        "value": "t_struct(Report)23930_storage"
      },
      "t_mapping(t_uint256,t_struct(TempResult)23947_storage)": {
        "encoding": "mapping",
        "key": "t_uint256",
        "label": "mapping(uint256 => struct IncidentReport.TempResult)",
        "numberOfBytes": "32",
        "value": "t_struct(TempResult)23947_storage"
      },
      "t_mapping(t_uint256,t_struct(UserVote)23961_storage)": {
        "encoding": "mapping",
        "key": "t_uint256",
        "label": "mapping(uint256 => struct IncidentReport.UserVote)",
        "numberOfBytes": "32",
        "value": "t_struct(UserVote)23961_storage"
      },
      "t_struct(Report)23930_storage": {
        "encoding": "inplace",
        "label": "struct IncidentReport.Report",
        "members": [
          {
            "astId": 23909,
            "contract": "src/voting/incidentReport/IncidentReport.sol:IncidentReport",
            "label": "poolId",
            "offset": 0,
            "slot": "0",
            "type": "t_uint256"
          },
          {
            "astId": 23911,
            "contract": "src/voting/incidentReport/IncidentReport.sol:IncidentReport",
            "label": "reportTimestamp",
            "offset": 0,
            "slot": "1",
            "type": "t_uint256"
          },
          {
            "astId": 23913,
            "contract": "src/voting/incidentReport/IncidentReport.sol:IncidentReport",
            "label": "reporter",
            "offset": 0,
            "slot": "2",
            "type": "t_address"
          },
          {
            "astId": 23915,
            "contract": "src/voting/incidentReport/IncidentReport.sol:IncidentReport",
            "label": "voteTimestamp",
            "offset": 0,
            "slot": "3",
            "type": "t_uint256"
          },
          {
            "astId": 23917,
            "contract": "src/voting/incidentReport/IncidentReport.sol:IncidentReport",
            "label": "numFor",
            "offset": 0,
            "slot": "4",
            "type": "t_uint256"
          },
          {
            "astId": 23919,
            "contract": "src/voting/incidentReport/IncidentReport.sol:IncidentReport",
            "label": "numAgainst",
            "offset": 0,
            "slot": "5",
            "type": "t_uint256"
          },
          {
            "astId": 23921,
            "contract": "src/voting/incidentReport/IncidentReport.sol:IncidentReport",
            "label": "round",
            "offset": 0,
            "slot": "6",
            "type": "t_uint256"
          },
          {
            "astId": 23923,
            "contract": "src/voting/incidentReport/IncidentReport.sol:IncidentReport",
            "label": "status",
            "offset": 0,
            "slot": "7",
            "type": "t_uint256"
          },
          {
            "astId": 23925,
            "contract": "src/voting/incidentReport/IncidentReport.sol:IncidentReport",
            "label": "result",
            "offset": 0,
            "slot": "8",
            "type": "t_uint256"
          },
          {
            "astId": 23927,
            "contract": "src/voting/incidentReport/IncidentReport.sol:IncidentReport",
            "label": "votingReward",
            "offset": 0,
            "slot": "9",
            "type": "t_uint256"
          },
          {
            "astId": 23929,
            "contract": "src/voting/incidentReport/IncidentReport.sol:IncidentReport",
            "label": "payout",
            "offset": 0,
            "slot": "10",
            "type": "t_uint256"
          }
        ],
        "numberOfBytes": "352"
      },
      "t_struct(TempResult)23947_storage": {
        "encoding": "inplace",
        "label": "struct IncidentReport.TempResult",
        "members": [
          {
            "astId": 23942,
            "contract": "src/voting/incidentReport/IncidentReport.sol:IncidentReport",
            "label": "result",
            "offset": 0,
            "slot": "0",
            "type": "t_uint256"
          },
          {
            "astId": 23944,
            "contract": "src/voting/incidentReport/IncidentReport.sol:IncidentReport",
            "label": "sampleTimestamp",
            "offset": 0,
            "slot": "1",
            "type": "t_uint256"
          },
          {
            "astId": 23946,
            "contract": "src/voting/incidentReport/IncidentReport.sol:IncidentReport",
            "label": "hasChanged",
            "offset": 0,
            "slot": "2",
            "type": "t_bool"
          }
        ],
        "numberOfBytes": "96"
      },
      "t_struct(UserVote)23961_storage": {
        "encoding": "inplace",
        "label": "struct IncidentReport.UserVote",
        "members": [
          {
            "astId": 23954,
            "contract": "src/voting/incidentReport/IncidentReport.sol:IncidentReport",
            "label": "choice",
            "offset": 0,
            "slot": "0",
            "type": "t_uint256"
          },
          {
            "astId": 23956,
            "contract": "src/voting/incidentReport/IncidentReport.sol:IncidentReport",
            "label": "amount",
            "offset": 0,
            "slot": "1",
            "type": "t_uint256"
          },
          {
            "astId": 23958,
            "contract": "src/voting/incidentReport/IncidentReport.sol:IncidentReport",
            "label": "claimed",
            "offset": 0,
            "slot": "2",
            "type": "t_bool"
          },
          {
            "astId": 23960,
            "contract": "src/voting/incidentReport/IncidentReport.sol:IncidentReport",
            "label": "paid",
            "offset": 1,
            "slot": "2",
            "type": "t_bool"
          }
        ],
        "numberOfBytes": "96"
      },
      "t_uint256": {
        "encoding": "inplace",
        "label": "uint256",
        "numberOfBytes": "32"
      },
      "t_uint8": {
        "encoding": "inplace",
        "label": "uint8",
        "numberOfBytes": "1"
      }
    }
  }
}