{
  "address": "0x58921154379d70164172aC7d8d6c35c0808c3FEe",
  "abi": [
    {
      "inputs": [
        {
          "internalType": "address",
          "name": "_deg",
          "type": "address"
        },
        {
          "internalType": "address",
          "name": "_veDeg",
          "type": "address"
        },
        {
          "internalType": "address",
          "name": "_shield",
          "type": "address"
        }
      ],
      "stateMutability": "nonpayable",
      "type": "constructor"
    },
    {
      "inputs": [],
      "name": "IncidentReport__AlreadyClaimed",
      "type": "error"
    },
    {
      "inputs": [],
      "name": "IncidentReport__AlreadyPaid",
      "type": "error"
    },
    {
      "inputs": [],
      "name": "IncidentReport__AlreadyReported",
      "type": "error"
    },
    {
      "inputs": [],
      "name": "IncidentReport__AlreadySettled",
      "type": "error"
    },
    {
      "inputs": [],
      "name": "IncidentReport__ChooseBothSides",
      "type": "error"
    },
    {
      "inputs": [],
      "name": "IncidentReport__NoReward",
      "type": "error"
    },
    {
      "inputs": [],
      "name": "IncidentReport__NotEnoughVeDEG",
      "type": "error"
    },
    {
      "inputs": [],
      "name": "IncidentReport__NotSettled",
      "type": "error"
    },
    {
      "inputs": [],
      "name": "IncidentReport__NotWrongChoice",
      "type": "error"
    },
    {
      "inputs": [],
      "name": "IncidentReport__OnlyExecutor",
      "type": "error"
    },
    {
      "inputs": [],
      "name": "IncidentReport__PayoutExceedCovered",
      "type": "error"
    },
    {
      "inputs": [],
      "name": "IncidentReport__PoolNotExist",
      "type": "error"
    },
    {
      "inputs": [],
      "name": "IncidentReport__WrongChoice",
      "type": "error"
    },
    {
      "inputs": [],
      "name": "IncidentReport__WrongPeriod",
      "type": "error"
    },
    {
      "inputs": [],
      "name": "IncidentReport__WrongStatus",
      "type": "error"
    },
    {
      "inputs": [],
      "name": "IncidentReport__ZeroAmount",
      "type": "error"
    },
    {
      "anonymous": false,
      "inputs": [
        {
          "indexed": false,
          "internalType": "address",
          "name": "payer",
          "type": "address"
        },
        {
          "indexed": false,
          "internalType": "address",
          "name": "user",
          "type": "address"
        },
        {
          "indexed": false,
          "internalType": "uint256",
          "name": "debt",
          "type": "uint256"
        },
        {
          "indexed": false,
          "internalType": "uint256",
          "name": "unlockAmount",
          "type": "uint256"
        }
      ],
      "name": "DebtPaid",
      "type": "event"
    },
    {
      "anonymous": false,
      "inputs": [
        {
          "indexed": true,
          "internalType": "address",
          "name": "previousOwner",
          "type": "address"
        },
        {
          "indexed": true,
          "internalType": "address",
          "name": "newOwner",
          "type": "address"
        }
      ],
      "name": "OwnershipTransferred",
      "type": "event"
    },
    {
      "anonymous": false,
      "inputs": [
        {
          "indexed": false,
          "internalType": "uint256",
          "name": "reportId",
          "type": "uint256"
        },
        {
          "indexed": false,
          "internalType": "uint256",
          "name": "closeTimestamp",
          "type": "uint256"
        }
      ],
      "name": "ReportClosed",
      "type": "event"
    },
    {
      "anonymous": false,
      "inputs": [
        {
          "indexed": false,
          "internalType": "uint256",
          "name": "reportId",
          "type": "uint256"
        },
        {
          "indexed": true,
          "internalType": "uint256",
          "name": "poolId",
          "type": "uint256"
        },
        {
          "indexed": false,
          "internalType": "uint256",
          "name": "reportTimestamp",
          "type": "uint256"
        },
        {
          "indexed": true,
          "internalType": "address",
          "name": "reporter",
          "type": "address"
        },
        {
          "indexed": false,
          "internalType": "uint256",
          "name": "payout",
          "type": "uint256"
        }
      ],
      "name": "ReportCreated",
      "type": "event"
    },
    {
      "anonymous": false,
      "inputs": [
        {
          "indexed": false,
          "internalType": "uint256",
          "name": "reportId",
          "type": "uint256"
        },
        {
          "indexed": false,
          "internalType": "uint256",
          "name": "round",
          "type": "uint256"
        }
      ],
      "name": "ReportExtended",
      "type": "event"
    },
    {
      "anonymous": false,
      "inputs": [
        {
          "indexed": false,
          "internalType": "uint256",
          "name": "reportId",
          "type": "uint256"
        }
      ],
      "name": "ReportFailed",
      "type": "event"
    },
    {
      "anonymous": false,
      "inputs": [
        {
          "indexed": false,
          "internalType": "uint256",
          "name": "reportId",
          "type": "uint256"
        },
        {
          "indexed": false,
          "internalType": "uint256",
          "name": "result",
          "type": "uint256"
        }
      ],
      "name": "ReportSettled",
      "type": "event"
    },
    {
      "anonymous": false,
      "inputs": [
        {
          "indexed": false,
          "internalType": "uint256",
          "name": "reportId",
          "type": "uint256"
        },
        {
          "indexed": true,
          "internalType": "address",
          "name": "user",
          "type": "address"
        },
        {
          "indexed": false,
          "internalType": "uint256",
          "name": "voteFor",
          "type": "uint256"
        },
        {
          "indexed": false,
          "internalType": "uint256",
          "name": "amount",
          "type": "uint256"
        }
      ],
      "name": "ReportVoted",
      "type": "event"
    },
    {
      "anonymous": false,
      "inputs": [
        {
          "indexed": false,
          "internalType": "uint256",
          "name": "reportId",
          "type": "uint256"
        },
        {
          "indexed": false,
          "internalType": "uint256",
          "name": "startTimestamp",
          "type": "uint256"
        }
      ],
      "name": "ReportVotingStart",
      "type": "event"
    },
    {
      "anonymous": false,
      "inputs": [
        {
          "indexed": false,
          "internalType": "uint256",
          "name": "reportId",
          "type": "uint256"
        },
        {
          "indexed": false,
          "internalType": "uint256",
          "name": "totalRewardToVoters",
          "type": "uint256"
        }
      ],
      "name": "VotingRewardSettled",
      "type": "event"
    },
    {
      "inputs": [],
      "name": "COOLDOWN_WRONG_REPORT",
      "outputs": [
        {
          "internalType": "uint256",
          "name": "",
          "type": "uint256"
        }
      ],
      "stateMutability": "view",
      "type": "function"
    },
    {
      "inputs": [],
      "name": "DEBT_RATIO",
      "outputs": [
        {
          "internalType": "uint256",
          "name": "",
          "type": "uint256"
        }
      ],
      "stateMutability": "view",
      "type": "function"
    },
    {
      "inputs": [],
      "name": "EXTEND_PERIOD",
      "outputs": [
        {
          "internalType": "uint256",
          "name": "",
          "type": "uint256"
        }
      ],
      "stateMutability": "view",
      "type": "function"
    },
    {
      "inputs": [],
      "name": "INCIDENT_QUORUM_RATIO",
      "outputs": [
        {
          "internalType": "uint256",
          "name": "",
          "type": "uint256"
        }
      ],
      "stateMutability": "view",
      "type": "function"
    },
    {
      "inputs": [],
      "name": "INCIDENT_VOTING_PERIOD",
      "outputs": [
        {
          "internalType": "uint256",
          "name": "",
          "type": "uint256"
        }
      ],
      "stateMutability": "view",
      "type": "function"
    },
    {
      "inputs": [],
      "name": "MAX_EXTEND_ROUND",
      "outputs": [
        {
          "internalType": "uint256",
          "name": "",
          "type": "uint256"
        }
      ],
      "stateMutability": "view",
      "type": "function"
    },
    {
      "inputs": [],
      "name": "PENDING_PERIOD",
      "outputs": [
        {
          "internalType": "uint256",
          "name": "",
          "type": "uint256"
        }
      ],
      "stateMutability": "view",
      "type": "function"
    },
    {
      "inputs": [],
      "name": "REPORTER_REWARD",
      "outputs": [
        {
          "internalType": "uint256",
          "name": "",
          "type": "uint256"
        }
      ],
      "stateMutability": "view",
      "type": "function"
    },
    {
      "inputs": [],
      "name": "REPORT_THRESHOLD",
      "outputs": [
        {
          "internalType": "uint256",
          "name": "",
          "type": "uint256"
        }
      ],
      "stateMutability": "view",
      "type": "function"
    },
    {
      "inputs": [],
      "name": "RESERVE_RATIO",
      "outputs": [
        {
          "internalType": "uint256",
          "name": "",
          "type": "uint256"
        }
      ],
      "stateMutability": "view",
      "type": "function"
    },
    {
      "inputs": [],
      "name": "REWARD_RATIO",
      "outputs": [
        {
          "internalType": "uint256",
          "name": "",
          "type": "uint256"
        }
      ],
      "stateMutability": "view",
      "type": "function"
    },
    {
      "inputs": [],
      "name": "SAMPLE_PERIOD",
      "outputs": [
        {
          "internalType": "uint256",
          "name": "",
          "type": "uint256"
        }
      ],
      "stateMutability": "view",
      "type": "function"
    },
    {
      "inputs": [
        {
          "internalType": "uint256",
          "name": "_id",
          "type": "uint256"
        }
      ],
      "name": "claimReward",
      "outputs": [],
      "stateMutability": "nonpayable",
      "type": "function"
    },
    {
      "inputs": [
        {
          "internalType": "uint256",
          "name": "_id",
          "type": "uint256"
        }
      ],
      "name": "closeReport",
      "outputs": [],
      "stateMutability": "nonpayable",
      "type": "function"
    },
    {
      "inputs": [
        {
          "internalType": "uint256",
          "name": "_reportId",
          "type": "uint256"
        }
      ],
      "name": "executed",
      "outputs": [],
      "stateMutability": "nonpayable",
      "type": "function"
    },
    {
      "inputs": [],
      "name": "executor",
      "outputs": [
        {
          "internalType": "address",
          "name": "",
          "type": "address"
        }
      ],
      "stateMutability": "view",
      "type": "function"
    },
    {
      "inputs": [
        {
          "internalType": "uint256",
          "name": "_poolId",
          "type": "uint256"
        }
      ],
      "name": "getPoolReports",
      "outputs": [
        {
          "internalType": "uint256[]",
          "name": "",
          "type": "uint256[]"
        }
      ],
      "stateMutability": "view",
      "type": "function"
    },
    {
      "inputs": [
        {
          "internalType": "uint256",
          "name": "_poolId",
          "type": "uint256"
        }
      ],
      "name": "getPoolReportsAmount",
      "outputs": [
        {
          "internalType": "uint256",
          "name": "",
          "type": "uint256"
        }
      ],
      "stateMutability": "view",
      "type": "function"
    },
    {
      "inputs": [
        {
          "internalType": "uint256",
          "name": "_id",
          "type": "uint256"
        }
      ],
      "name": "getReport",
      "outputs": [
        {
          "components": [
            {
              "internalType": "uint256",
              "name": "poolId",
              "type": "uint256"
            },
            {
              "internalType": "uint256",
              "name": "reportTimestamp",
              "type": "uint256"
            },
            {
              "internalType": "address",
              "name": "reporter",
              "type": "address"
            },
            {
              "internalType": "uint256",
              "name": "voteTimestamp",
              "type": "uint256"
            },
            {
              "internalType": "uint256",
              "name": "numFor",
              "type": "uint256"
            },
            {
              "internalType": "uint256",
              "name": "numAgainst",
              "type": "uint256"
            },
            {
              "internalType": "uint256",
              "name": "round",
              "type": "uint256"
            },
            {
              "internalType": "uint256",
              "name": "status",
              "type": "uint256"
            },
            {
              "internalType": "uint256",
              "name": "result",
              "type": "uint256"
            },
            {
              "internalType": "uint256",
              "name": "votingReward",
              "type": "uint256"
            },
            {
              "internalType": "uint256",
              "name": "payout",
              "type": "uint256"
            }
          ],
          "internalType": "struct IncidentReport.Report",
          "name": "",
          "type": "tuple"
        }
      ],
      "stateMutability": "view",
      "type": "function"
    },
    {
      "inputs": [
        {
          "internalType": "uint256",
          "name": "_poolId",
          "type": "uint256"
        }
      ],
      "name": "getTempResult",
      "outputs": [
        {
          "components": [
            {
              "internalType": "uint256",
              "name": "result",
              "type": "uint256"
            },
            {
              "internalType": "uint256",
              "name": "sampleTimestamp",
              "type": "uint256"
            },
            {
              "internalType": "bool",
              "name": "hasChanged",
              "type": "bool"
            }
          ],
          "internalType": "struct IncidentReport.TempResult",
          "name": "",
          "type": "tuple"
        }
      ],
      "stateMutability": "view",
      "type": "function"
    },
    {
      "inputs": [
        {
          "internalType": "address",
          "name": "_user",
          "type": "address"
        },
        {
          "internalType": "uint256",
          "name": "_poolId",
          "type": "uint256"
        }
      ],
      "name": "getUserVote",
      "outputs": [
        {
          "components": [
            {
              "internalType": "uint256",
              "name": "choice",
              "type": "uint256"
            },
            {
              "internalType": "uint256",
              "name": "amount",
              "type": "uint256"
            },
            {
              "internalType": "bool",
              "name": "claimed",
              "type": "bool"
            },
            {
              "internalType": "bool",
              "name": "paid",
              "type": "bool"
            }
          ],
          "internalType": "struct IncidentReport.UserVote",
          "name": "",
          "type": "tuple"
        }
      ],
      "stateMutability": "view",
      "type": "function"
    },
    {
      "inputs": [],
      "name": "owner",
      "outputs": [
        {
          "internalType": "address",
          "name": "",
          "type": "address"
        }
      ],
      "stateMutability": "view",
      "type": "function"
    },
    {
      "inputs": [
        {
          "internalType": "uint256",
          "name": "_id",
          "type": "uint256"
        },
        {
          "internalType": "address",
          "name": "_user",
          "type": "address"
        }
      ],
      "name": "payDebt",
      "outputs": [],
      "stateMutability": "nonpayable",
      "type": "function"
    },
    {
      "inputs": [
        {
          "internalType": "uint256",
          "name": "",
          "type": "uint256"
        },
        {
          "internalType": "uint256",
          "name": "",
          "type": "uint256"
        }
      ],
      "name": "poolReports",
      "outputs": [
        {
          "internalType": "uint256",
          "name": "",
          "type": "uint256"
        }
      ],
      "stateMutability": "view",
      "type": "function"
    },
    {
      "inputs": [],
      "name": "priorityPoolFactory",
      "outputs": [
        {
          "internalType": "contract IPriorityPoolFactory",
          "name": "",
          "type": "address"
        }
      ],
      "stateMutability": "view",
      "type": "function"
    },
    {
      "inputs": [],
      "name": "quorumRatio",
      "outputs": [
        {
          "internalType": "uint256",
          "name": "",
          "type": "uint256"
        }
      ],
      "stateMutability": "view",
      "type": "function"
    },
    {
      "inputs": [],
      "name": "renounceOwnership",
      "outputs": [],
      "stateMutability": "nonpayable",
      "type": "function"
    },
    {
      "inputs": [
        {
          "internalType": "uint256",
          "name": "_poolId",
          "type": "uint256"
        },
        {
          "internalType": "uint256",
          "name": "_payout",
          "type": "uint256"
        }
      ],
      "name": "report",
      "outputs": [],
      "stateMutability": "nonpayable",
      "type": "function"
    },
    {
      "inputs": [],
      "name": "reportCounter",
      "outputs": [
        {
          "internalType": "uint256",
          "name": "",
          "type": "uint256"
        }
      ],
      "stateMutability": "view",
      "type": "function"
    },
    {
      "inputs": [
        {
          "internalType": "uint256",
          "name": "",
          "type": "uint256"
        }
      ],
      "name": "reported",
      "outputs": [
        {
          "internalType": "bool",
          "name": "",
          "type": "bool"
        }
      ],
      "stateMutability": "view",
      "type": "function"
    },
    {
      "inputs": [
        {
          "internalType": "uint256",
          "name": "",
          "type": "uint256"
        }
      ],
      "name": "reports",
      "outputs": [
        {
          "internalType": "uint256",
          "name": "poolId",
          "type": "uint256"
        },
        {
          "internalType": "uint256",
          "name": "reportTimestamp",
          "type": "uint256"
        },
        {
          "internalType": "address",
          "name": "reporter",
          "type": "address"
        },
        {
          "internalType": "uint256",
          "name": "voteTimestamp",
          "type": "uint256"
        },
        {
          "internalType": "uint256",
          "name": "numFor",
          "type": "uint256"
        },
        {
          "internalType": "uint256",
          "name": "numAgainst",
          "type": "uint256"
        },
        {
          "internalType": "uint256",
          "name": "round",
          "type": "uint256"
        },
        {
          "internalType": "uint256",
          "name": "status",
          "type": "uint256"
        },
        {
          "internalType": "uint256",
          "name": "result",
          "type": "uint256"
        },
        {
          "internalType": "uint256",
          "name": "votingReward",
          "type": "uint256"
        },
        {
          "internalType": "uint256",
          "name": "payout",
          "type": "uint256"
        }
      ],
      "stateMutability": "view",
      "type": "function"
    },
    {
      "inputs": [
        {
          "internalType": "address",
          "name": "_executor",
          "type": "address"
        }
      ],
      "name": "setExecutor",
      "outputs": [],
      "stateMutability": "nonpayable",
      "type": "function"
    },
    {
      "inputs": [
        {
          "internalType": "address",
          "name": "_priorityPoolFactory",
          "type": "address"
        }
      ],
      "name": "setPriorityPoolFactory",
      "outputs": [],
      "stateMutability": "nonpayable",
      "type": "function"
    },
    {
      "inputs": [
        {
          "internalType": "uint256",
          "name": "_id",
          "type": "uint256"
        }
      ],
      "name": "settle",
      "outputs": [],
      "stateMutability": "nonpayable",
      "type": "function"
    },
    {
      "inputs": [
        {
          "internalType": "uint256",
          "name": "_id",
          "type": "uint256"
        }
      ],
      "name": "startVoting",
      "outputs": [],
      "stateMutability": "nonpayable",
      "type": "function"
    },
    {
      "inputs": [
        {
          "internalType": "uint256",
          "name": "",
          "type": "uint256"
        }
      ],
      "name": "tempResults",
      "outputs": [
        {
          "internalType": "uint256",
          "name": "result",
          "type": "uint256"
        },
        {
          "internalType": "uint256",
          "name": "sampleTimestamp",
          "type": "uint256"
        },
        {
          "internalType": "bool",
          "name": "hasChanged",
          "type": "bool"
        }
      ],
      "stateMutability": "view",
      "type": "function"
    },
    {
      "inputs": [
        {
          "internalType": "address",
          "name": "newOwner",
          "type": "address"
        }
      ],
      "name": "transferOwnership",
      "outputs": [],
      "stateMutability": "nonpayable",
      "type": "function"
    },
    {
      "inputs": [
        {
          "internalType": "uint256",
          "name": "_poolId",
          "type": "uint256"
        }
      ],
      "name": "unpausePools",
      "outputs": [],
      "stateMutability": "nonpayable",
      "type": "function"
    },
    {
      "inputs": [
        {
          "internalType": "uint256",
          "name": "_id",
          "type": "uint256"
        },
        {
          "internalType": "uint256",
          "name": "_isFor",
          "type": "uint256"
        },
        {
          "internalType": "uint256",
          "name": "_amount",
          "type": "uint256"
        }
      ],
      "name": "vote",
      "outputs": [],
      "stateMutability": "nonpayable",
      "type": "function"
    },
    {
      "inputs": [
        {
          "internalType": "address",
          "name": "",
          "type": "address"
        },
        {
          "internalType": "uint256",
          "name": "",
          "type": "uint256"
        }
      ],
      "name": "votes",
      "outputs": [
        {
          "internalType": "uint256",
          "name": "choice",
          "type": "uint256"
        },
        {
          "internalType": "uint256",
          "name": "amount",
          "type": "uint256"
        },
        {
          "internalType": "bool",
          "name": "claimed",
          "type": "bool"
        },
        {
          "internalType": "bool",
          "name": "paid",
          "type": "bool"
        }
      ],
      "stateMutability": "view",
      "type": "function"
    }
  ],
  "transactionHash": "0x2bae835c47a18fc8f6833dedc90c4b63cd31175b98f69af5736faa6fa0625e44",
  "args": [
    "0x67f355a5074ed599b923C0e08a753063F6F5a234",
    "0xdeA69Cd68b7Ccf8E9a34601be0d640d3D5c384C2",
    "0x77C262060B6643f000e36f78BC15bf2501d065eF"
  ],
  "numDeployments": 15,
  "solcInputHash": "ed2064168829a51c22057f7bc304faa2",
  "bytecode": "0x60e034620000ea57601f6200217138819003918201601f19168301916001600160401b03831184841017620000ef57808492606094604052833981010312620000ea576200004d8162000105565b620000696040620000616020850162000105565b930162000105565b6001600160a01b0391821660805291811660a0521660c052600080546001600160a01b03191633179055603260045560405161205690816200011b823960805181818161042a0152818161086a01528181610cc90152611527015260a05181818161049001528181610c52015281816110600152611f5c015260c051815050f35b600080fd5b634e487b7160e01b600052604160045260246000fd5b51906001600160a01b0382168203620000ea5756fe6080604052600480361015610014575b600080fd5b600090813560e01c90816312d5cc86146106ae5781631c3c0ea814611c2057816320731ab814611c0357816336d1d52714611be75781633d2f5bda14611b6357816343a5ada214611ac35781634a13a0ee14611a835781634aa0644714611a785781634e7f9b191461191b5781636530db981461185e5781636f8a6e4314611835578163715018a6146117d5578163753c09851461142c5781637aaf11c714611402578163805a219f146113e65781638a6655d614610fff5781638da5cb5b14610fd85781638df8280014610b68578163966d8a5f14610ae95781639e17215514610acb5781639f2524ee14610a5d578163a01bc01f146109a8578163ad35e1dc1461095f578163ae169a50146107c1578163af52834914610355578163b4643d29146107a3578163b9bc38f214610785578163c34c08e51461075c578163c942adf7146106b9578163ce4f29fc146106ae578163d3ecebd714610651578163d606906014610622578163d92747cc14610606578163d9dc8f1d14610360578163e37dbfd914610355578163e7d918e21461031f578163f2fde38b1461024e578163fc6e85d31461020357508063fd123806146101f95763fe131778146101da57600080fd5b346101f657806003193601126101f6576020604051611c208152f35b80fd5b505061000f611ce1565b90503461024a57602036600319011261024a5760609160409135815260076020522080549060ff600260018301549201541690604051928352602083015215156040820152f35b5080fd5b90503461024a57602036600319011261024a57610269611c87565b82546001600160a01b03929183916102849083163314611d24565b169081156102cc5750600054816040519382167f8be0079c531659141344cd1fd0a4f28419497f9722a3daafe3b4186f6b6457e0600086a36001600160a01b03191617600055f35b60849060206040519162461bcd60e51b8352820152602660248201527f4f776e61626c653a206e6577206f776e657220697320746865207a65726f206160448201526564647265737360d01b6064820152fd5b90503461024a57602036600319011261024a576103509061034a60018060a01b038454163314611d24565b35611edd565b604051f35b50505061000f611d07565b90503461024a57604036600319011261024a576024356001600160a01b0380821690833582840361000f578286526020936008855260408720828852855260408720956040516103af81611dbd565b875481526002600189015498888301998a5201549060ff82161515604082015260ff606082019260081c1615158252848a5260058852600860408b2001549081156105f5575181149081156105ea575b506105da57516105cb5786518060001904605011811515166105b6579061271060508a9493020494807f000000000000000000000000000000000000000000000000000000000000000016803b1561058f576040805163342c6d4d60e11b815233858201908152602081018a90529092879284928391859183910103925af19081156105ab578591610593575b50507f000000000000000000000000000000000000000000000000000000000000000016885190803b1561058f5760408051634bdc2db560e11b81526001600160a01b039095169385019384526020840192909252849284928391859183910103925af1801561058457610564575b5094839291608095947fb4b7f3a9d727d0ac344f696304df335d2936ce3b0a58d52600c692632c9fa7259752600885526040882090885284526002604088200161010061ff001982541617905551916040519333855284015260408301526060820152a1604051f35b610572909594939295611d8f565b6105805790919285386104fb565b8580fd5b6040513d84823e3d90fd5b8480fd5b61059c90611d8f565b6105a757833861048c565b8380fd5b6040513d87823e3d90fd5b601182634e487b7160e01b6000525260246000fd5b604051631abf06a960e21b8152fd5b50604051631ae2961d60e01b8152fd5b6003915014386103ff565b60405163403ba18960e01b81528490fd5b82346101f657806003193601126101f657602060405160028152f35b90503461024a57602036600319011261024a57604060209260ff92358152600984522054166040519015158152f35b90503461024a57602036600319011261024a576002546001600160a01b0316330361069f573581526005602052610350604082205480835260096020526040832060ff198154169055611edd565b6040516324bba59760e21b8152fd5b50505061000f611c69565b90503461024a57602036600319011261024a57604061016092823581526005602052209081549160018101549160018060a01b03600283015416906003830154908301546005840154600685015491600786015493600887015495600a6009890154980154986040519a8b5260208b015260408a01526060890152608088015260a087015260c086015260e0850152610100840152610120830152610140820152f35b82346101f657806003193601126101f6576002546040516001600160a01b039091168152602090f35b82346101f657806003193601126101f6576020600354604051908152f35b90503461024a578160031936011261024a5760209054604051908152f35b90503461024a5760208060031936011261095b578135913384526008825260408420838552825260408420906040516107f981611dbd565b82548152600260018401549385830194855201549060ff60408201928181161515845260081c16151560608201528587526005855260086040882001549182156105f5575161094a57518692919081036109205750848252600584526108686009604084200154845190611e62565b7f00000000000000000000000000000000000000000000000000000000000000006001600160a01b031691823b156105a7576040805163168ece7360e31b81523392810192835264e8d4a5100090930460208301529192849284928391859183910103925af180156105845761090c575b50506108e6905133611f5a565b33835260088152604083209183525260026040822001600160ff19825416179055604051f35b61091590611d8f565b6105a75783386108d9565b90915060030361093b5750610936905133611f5a565b6108e6565b60405163158f1f4160e11b8152fd5b60405163961e9b0d60e01b81528390fd5b8280fd5b82346101f65760203660031901126101f657610979611c87565b81546001600160a01b0391906109929083163314611d24565b1660018060a01b03196001541617600155604051f35b82346101f65760403660031901126101f65760406080916109c7611c87565b81606084516109d581611dbd565b8281528260208201528286820152015260018060a01b03168152600860205281812060243582526020522060405190610a0d82611dbd565b80549182815260026001830154926020830193845201549160ff6060604084019382861615158552019360081c161515835260405193845251602084015251151560408301525115156060820152f35b82346101f65760403660031901126101f6576080906040906001600160a01b03610a85611c87565b168152600860205281812060243582526020522060ff815491600260018201549101549060405193845260208401528181161515604084015260081c1615156060820152f35b82346101f657806003193601126101f657602060405162093a808152f35b90503461024a57602036600319011261024a5781604091606093838051610b0f81611da2565b8281528260208201520152358152600760205220604051610b2f81611da2565b815491828252604060ff600260018401549360208601948552015416920191151582526040519283525160208301525115156040820152f35b90503461024a576020908160031936011261095b5780359081845260059283815260408520936007850192600280855403610fc85760068701918254956003890154614650198111610fb557610bcb90614650610bc48a611e1b565b9101611df9565b4210610fa55760088901938454610f9457908a93929184988a8652600789528460ff81604089200154169182610f8a575b505015610f685789855286885260066040862001600181540190555b8815610f17575060039055610c34818a0154868b015490611df9565b6040516318160ddd60e01b81526001600160a01b03959190888185817f00000000000000000000000000000000000000000000000000000000000000008b165afa908115610f0c578691610ed7575b50610c92606491855490611e62565b0411610e94578790600182149a8b15610e72575b505587835284865260408320938185015495850154998490600014610db35750807f0000000000000000000000000000000000000000000000000000000000000000169285015416823b156105a7576044849283604051958694859363168ece7360e31b855284015269043c33c193756480000060248401525af1801561058457610d91575b505060408095949392600080516020612001833981519152926009610d746064610d64600080516020611fe18339815191529c611e32565b0493610d6f85611e48565b611e75565b9101555b81519086825284820152a18351928352820152a1604051f35b610d9f909695949396611d8f565b610daf5786389592939495610d2c565b8680fd5b969798999592919350508714610df2575b5050505091600080516020611fe1833981519152939160008051602061200183398151915260408095610d78565b60649192939450610e0290611e32565b049069021e19e0c9bab24000009082198211610e5f575060409593600080516020611fe18339815191529795936009610e51600080516020612001833981519152958a950193610d6f85611e48565b910155939583959750610dc4565b634e487b7160e01b895260119052602488fd5b54610e7c81611edd565b85526009885260408520805460ff1916905538610ca6565b9250925050610ecb939594507f1dcabc7d01df1ee725f7c437ce5ec43e00015579d266f8a65d0911c4eb36ad909692505554611edd565b604051908152a1604051f35b809650898092503d8311610f05575b610ef08183611dd8565b8101031261000f5793518b9490610c92610c83565b503d610ee6565b6040513d88823e3d90fd5b9550505091507fb7891e9b049f460b1641e0a0556e45b1d2adfb12bd2c6459ea5a5d645d40179d96508594509460409552600783528487200160ff19815416905554908351928352820152a1604051f35b9750858752610f84826040862001548760408720015490611ea9565b97610c18565b1090508438610bfc565b60405163037d379160e11b81528390fd5b506040516324b1a7e960e01b8152fd5b634e487b7160e01b8b526011835260248bfd5b5060405163363bbdfd60e01b8152fd5b82346101f657806003193601126101f657546040516001600160a01b039091168152602090f35b82346101f65760603660031901126101f65781356024928335604435918385526020906005825260026007604088200154036113d75783156113c85760018314918215806113bd575b6113ad576040516370a0823160e01b815233838201527f00000000000000000000000000000000000000000000000000000000000000006001600160a01b03169082818b81855afa9081156113a2578991611375575b5060405163cbf9fe5f60e01b815233858201529083828c81865afa91821561136a578a9261133b575b508181106113275703861161131657803b156113125760408051633c56aa6160e11b8152338582019081526020810189905290928a9284928391859183910103925af18015611307579088916112f3575b50503387526008815260408088208789528252872060018101805490918691156112ed5754036112dc575b61114e868254611df9565b9055858752600581526040872092156112c65781830161116f868254611df9565b90555b8587526007815260ff6002604089200154161580611225575b7f025e12b9cbba227587ada73c57f6b6b6a70272d7ed782681793125ec29afc77b969798506111d5575b5050604080519586526020860192909252508301523391606090a2604051f35b600760056111f29385015494015491888a52526040882092611ea9565b81548061120b575b5081556001429101558580806111b5565b600283019060ff80198354169184141516179055876111fa565b5060038301546006840154906146501981116112b457614650611264910161125e61125861125285611e1b565b83611df9565b93611e1b565b90611df9565b610e1081106112b4577f025e12b9cbba227587ada73c57f6b6b6a70272d7ed782681793125ec29afc77b97989950610e0f1901421190816112aa575b508897965061118b565b90504210896112a0565b634e487b7160e01b8952601184528989fd5b600583016112d5868254611df9565b9055611172565b6040516346bdda4560e11b81528390fd5b55611143565b6112fc90611d8f565b610daf578689611118565b6040513d8a823e3d90fd5b8780fd5b60405163729aeac360e01b81528390fd5b8a601186634e487b7160e01b600052526000fd5b9091508381813d8311611363575b6113538183611dd8565b8101031261000f5751908b6110c7565b503d611349565b6040513d8c823e3d90fd5b90508281813d831161139b575b61138c8183611dd8565b8101031261000f57518a61109e565b503d611382565b6040513d8b823e3d90fd5b50604051631422ca1d60e31b8152fd5b506002841415611048565b60405163583202e160e01b8152fd5b60405163363bbdfd60e01b8152fd5b82346101f657806003193601126101f657602060405160508152f35b90503461024a57602036600319011261024a57602091604091358152600683522054604051908152f35b82346101f65761143b36611c9d565b929060018060a01b03938360019386855416604051928380926315895f4760e31b8252878583015260249586915afa9081156117ca5790889188916116f2575b50169485156116e2578487526020956009875260ff6040892054166116d15786839160405192838092636835185f60e11b82525afa9081156113075788916116a4575b508411611694578487526009865260408720805460ff19168217905560035460001998908981146116825782016003819055808952600588526040892087815542818501556002810180546001600160a01b0319163317905560078101849055600a01869055967f00000000000000000000000000000000000000000000000000000000000000008216803b1561167e5789809160446040518094819363342c6d4d60e11b8352338b84015269021e19e0c9bab24000008c8401525af1801561136a5761166a575b50868952600690526040882080549990600160401b8b101561165857976115b88b8b9c9a86849d9a9b9c018155611cb3565b909283549160031b90811b9283911b16911916179055815416803b1561058f5784928360449289946040519788968795631b35278960e01b87528601528401525af1801561058457611644575b50506040805193845242602085015283015233917fe4af8b66d6c4b132955627bb2e4e80a62c544714e2f19dafec934a3b156cbe9390606090a3604051f35b61164d90611d8f565b6105a7578385611605565b634e487b7160e01b8a5260418552858afd5b986116776006929a611d8f565b9890611586565b8980fd5b634e487b7160e01b8952601184528489fd5b5060405163cab1fa1b60e01b8152fd5b90508681813d83116116ca575b6116bb8183611dd8565b810103126113125751896114be565b503d6116b1565b6040516360b2438960e01b81528390fd5b5060405163148115cf60e21b8152fd5b9150503d8088833e6117048183611dd8565b810160a0828203126113125781516001600160401b039081811161167e57830182601f8201121561167e578051918211611658576040519060209361175285601f19601f8701160184611dd8565b8383528484830101116117c657918a918c95949383905b8382106117ab57509284836117989693611791956040971161179f575b505050508401611ec9565b9201611ec9565b508961147b565b0101528b818f80611786565b8181018601518284018701528e97508d945090850190611769565b8a80fd5b6040513d89823e3d90fd5b82346101f657806003193601126101f65780546001600160a01b038116906117fe338314611d24565b82604051927f8be0079c531659141344cd1fd0a4f28419497f9722a3daafe3b4186f6b6457e08285a36001600160a01b0319168255f35b82346101f657806003193601126101f6576001546040516001600160a01b039091168152602090f35b90503461024a57602036600319011261024a5780359061188860018060a01b038454163314611d24565b81835260056020526040832090600782019060018254036113d7576118b06001840154611e95565b61190c5750916118fb6040926101947f17b76cf2012024f7fe05b4a8b036b188464d5b49b7c8532e95c5c67a4b792eb29555828652600960205283862060ff19815416905554611edd565b8151908152426020820152a1604051f35b6040516324b1a7e960e01b8152fd5b90503461024a57602036600319011261024a576101406101609260405161194181611d5d565b8181528160208201528160408201528160608201528160808201528160a08201528160c08201528160e08201526040610100928084840152808561012094828682015201528535815260056020522091600a604051936119a085611d5d565b8054968786526001820154602087015260018060a01b036002830154166040870152600382015460608701528101546080860152600581015460a0860152600681015460c0860152600781015460e08601526008810154838601526009810154848601520154848401526040519485526020830151602086015260018060a01b036040840151166040860152606083015160608601526080830151608086015260a083015160a086015260c083015160c086015260e083015160e0860152808301519085015280820151908401520151610140820152f35b50505061000f611ce1565b82346101f657611a9236611c9d565b919081526006602052604081209081548310156101f6576020611ab58484611cb3565b90546040519160031b1c8152f35b90503461024a576020908160031936011261095b57358252600681526040822060405192838383549182815201908193835284832090835b818110611b4f5750505084611b11910385611dd8565b60405193838594850191818652518092526040850193925b828110611b3857505050500390f35b835185528695509381019392810192600101611b29565b825484529286019260019283019201611afb565b90503461024a57602036600319011261024a5780359081835260056020526040832090600782019060018254036113d757611ba16001840154611e95565b1561190c57509160409160027fde7965c8d6f24b73501e8bcad1a4f03937db4f902bfda3bee08b335accf0749694556003429101558151908152426020820152a1604051f35b82346101f657806003193601126101f6576020604051600a8152f35b82346101f657806003193601126101f65760206040516146508152f35b82346101f65760203660031901126101f657611c3a611c87565b81546001600160a01b039190611c539083163314611d24565b1660018060a01b03196002541617600255604051f35b503461000f57600036600319011261000f576020604051610e108152f35b600435906001600160a01b038216820361000f57565b604090600319011261000f576004359060243590565b8054821015611ccb5760005260206000200190600090565b634e487b7160e01b600052603260045260246000fd5b503461000f57600036600319011261000f57602060405169021e19e0c9bab24000008152f35b503461000f57600036600319011261000f57602060405160288152f35b15611d2b57565b60405162461bcd60e51b815260206004820152600a60248201526927b7363c9037bbb732b960b11b6044820152606490fd5b61016081019081106001600160401b03821117611d7957604052565b634e487b7160e01b600052604160045260246000fd5b6001600160401b038111611d7957604052565b606081019081106001600160401b03821117611d7957604052565b608081019081106001600160401b03821117611d7957604052565b90601f801991011681019081106001600160401b03821117611d7957604052565b81198111611e05570190565b634e487b7160e01b600052601160045260246000fd5b610e10908060001904821181151516611e05570290565b806000190460281181151516611e055760280290565b64e8d4a51000908060001904821181151516611e05570290565b8060001904821181151516611e05570290565b8115611e7f570490565b634e487b7160e01b600052601260045260246000fd5b611c20198111611e0557611c200142101590565b81811115611eb95750506001905b565b1015611ec457600290565b600390565b51906001600160a01b038216820361000f57565b6001546001600160a01b031690813b1561000f57604051918291631b35278960e01b835260048301528160446000938480948160248401525af18015611f4d57611f25575050565b6001600160401b038211611f395750604052565b634e487b7160e01b81526041600452602490fd5b50604051903d90823e3d90fd5b7f00000000000000000000000000000000000000000000000000000000000000006001600160a01b031691823b1561000f57604051634bdc2db560e11b81526001600160a01b039290921660048301526024820152906000908290604490829084905af18015611fd457611fcb5750565b611eb790611d8f565b6040513d6000823e3d90fdfe30922d3a94c33e0ce3f99be437cbdf00f141e304f742a1cbd0df5cc5b490cd45bf97c766fd98feb70e7d5cc384ac953bcce9a7ca082cf57da33a199d67f7b7aba264697066735822122059897e5f58711afa6af0395ffb346611979e19836abbd4654633347b97ff05ec64736f6c634300080f0033",
  "devdoc": {
    "kind": "dev",
    "methods": {
      "claimReward(uint256)": {
        "params": {
          "_id": "Report id"
        }
      },
      "closeReport(uint256)": {
        "params": {
          "_id": "Report id"
        }
      },
      "executed(uint256)": {
        "params": {
          "_reportId": "Report id"
        }
      },
      "owner()": {
        "details": "Returns the address of the current owner."
      },
      "payDebt(uint256,address)": {
        "params": {
          "_id": "Report id",
          "_user": "User address (can pay debt for another user)"
        }
      },
      "renounceOwnership()": {
        "details": "Leaves the contract without owner. It will not be possible to call `onlyOwner` functions anymore. Can only be called by the current owner. NOTE: Renouncing ownership will leave the contract without an owner, thereby removing any functionality that is only available to the owner."
      },
      "report(uint256,uint256)": {
        "params": {
          "_payout": "Payout amount of this report",
          "_poolId": "Pool id to report incident"
        }
      },
      "settle(uint256)": {
        "params": {
          "_id": "Report id"
        }
      },
      "startVoting(uint256)": {
        "params": {
          "_id": "Report id"
        }
      },
      "transferOwnership(address)": {
        "details": "Transfers ownership of the contract to a new account (`newOwner`). Can only be called by the current owner."
      },
      "vote(uint256,uint256,uint256)": {
        "params": {
          "_amount": "Amount of veDEG used for this vote",
          "_id": "Id of the report to be voted on",
          "_isFor": "The user's choice (1: vote for, 2: vote against)"
        }
      }
    },
    "version": 1
  },
  "userdoc": {
    "kind": "user",
    "methods": {
      "claimReward(uint256)": {
        "notice": "Claim the voting reward         Only callable through proposal center"
      },
      "closeReport(uint256)": {
        "notice": "Close a pending report         Only owner can close a pending report         Can only be closed before the pending period ends         Will change the status from PENDING to CLOSED"
      },
      "executed(uint256)": {
        "notice": "Update status after execution         Only callable by executor"
      },
      "payDebt(uint256,address)": {
        "notice": "Pay debt to get back veDEG         For those who made a wrong voting choice         The paid DEG will be burned and the veDEG will be unlocked         Can not call this function when result is TIED or choose the correct side"
      },
      "report(uint256,uint256)": {
        "notice": "Start a new incident report         1000 DEG tokens are staked to start a report         If the report is correct, reporter gets back 1000DEG + 10% shield income + extra 1000DEG         If the report is wrong, reporter loses 1000DEG to those who vote against         Only callable through proposal center"
      },
      "settle(uint256)": {
        "notice": "Settle the final result for a report"
      },
      "startVoting(uint256)": {
        "notice": "Start the voting process         Can only be started after the pending period         Will change the status from PENDING to VOTING"
      },
      "vote(uint256,uint256,uint256)": {
        "notice": "Vote on current reports         Voting power is decided by the (unlocked) balance of veDEG         Once voted, those veDEG will be locked         Rewarded if votes with majority         Punished if votes against majority"
      }
    },
    "notice": "Incident Report Contract         New reports for project hacks are handled inside this contract         Timeline for a report is:         |-----------------------|----------------------|-------|-------|               Pending Period         Voting Period       Extend Period         When a new report is proposed, it start with PENDING_STATUS.         The person who start the report need to deposit REPORT_THRESHOLD DEG tokens.         During PENDING_STATUS, users & security companies can look at the report event.         After PENDING_PERIOD, the voting can be started and status transfer to VOTING_STATUS.         Users can vote for or against the report with veDeg tokens.         VeDeg tokens used for voting will be tentatively locked until the voting is settled.         After VOTING_PERIOD, the voting can be settled and status transfer to SETTLED_STATUS.         Depending on the votes of each side, the result can be PASSED, REJECTED or TIED.         Different results for their veDeg tokens will be set depending on the result.         If the result has changes during the last 24 hours of voting, the voting will be extended.         The time can only be extended twice.         For voters:              PASSED: Who vote for will get all veDeg tokens from the opposite side              REJECTED: Who vote against will get all veDeg tokens from the opposite side              TIED: Users can unlock their veDeg tokens         For reporter:              PASSED: Get back REPORT_THRESHOLD and get extra REPORT_REWARD & 10% of total treasury income              REJECTED: Lose REPORT_THRESHOLD to whom vote against              TIED: Lose REPORT_THRESHOLD         When an incident report has passed and been executed         The corresponding priority pool will be liquidated which means:             - Move out some assets for users to claim             - Deploy new generation of crTokens and PRI-LP tokens             - Update the farming weights for the priority farming pool",
    "version": 1
  },
  "storageLayout": {
    "storage": [
      {
        "astId": 21730,
        "contract": "src/voting/incidentReport/IncidentReport.sol:IncidentReport",
        "label": "_owner",
        "offset": 0,
        "slot": "0",
        "type": "t_address"
      },
      {
        "astId": 23516,
        "contract": "src/voting/incidentReport/IncidentReport.sol:IncidentReport",
        "label": "priorityPoolFactory",
        "offset": 0,
        "slot": "1",
        "type": "t_contract(IPriorityPoolFactory)14158"
      },
      {
        "astId": 23518,
        "contract": "src/voting/incidentReport/IncidentReport.sol:IncidentReport",
        "label": "executor",
        "offset": 0,
        "slot": "2",
        "type": "t_address"
      },
      {
        "astId": 22076,
        "contract": "src/voting/incidentReport/IncidentReport.sol:IncidentReport",
        "label": "reportCounter",
        "offset": 0,
        "slot": "3",
        "type": "t_uint256"
      },
      {
        "astId": 22078,
        "contract": "src/voting/incidentReport/IncidentReport.sol:IncidentReport",
        "label": "quorumRatio",
        "offset": 0,
        "slot": "4",
        "type": "t_uint256"
      },
      {
        "astId": 22106,
        "contract": "src/voting/incidentReport/IncidentReport.sol:IncidentReport",
        "label": "reports",
        "offset": 0,
        "slot": "5",
        "type": "t_mapping(t_uint256,t_struct(Report)22101_storage)"
      },
      {
        "astId": 22111,
        "contract": "src/voting/incidentReport/IncidentReport.sol:IncidentReport",
        "label": "poolReports",
        "offset": 0,
        "slot": "6",
        "type": "t_mapping(t_uint256,t_array(t_uint256)dyn_storage)"
      },
      {
        "astId": 22123,
        "contract": "src/voting/incidentReport/IncidentReport.sol:IncidentReport",
        "label": "tempResults",
        "offset": 0,
        "slot": "7",
        "type": "t_mapping(t_uint256,t_struct(TempResult)22118_storage)"
      },
      {
        "astId": 22139,
        "contract": "src/voting/incidentReport/IncidentReport.sol:IncidentReport",
        "label": "votes",
        "offset": 0,
        "slot": "8",
        "type": "t_mapping(t_address,t_mapping(t_uint256,t_struct(UserVote)22132_storage))"
      },
      {
        "astId": 22143,
        "contract": "src/voting/incidentReport/IncidentReport.sol:IncidentReport",
        "label": "reported",
        "offset": 0,
        "slot": "9",
        "type": "t_mapping(t_uint256,t_bool)"
      }
    ],
    "types": {
      "t_address": {
        "encoding": "inplace",
        "label": "address",
        "numberOfBytes": "20"
      },
      "t_array(t_uint256)dyn_storage": {
        "base": "t_uint256",
        "encoding": "dynamic_array",
        "label": "uint256[]",
        "numberOfBytes": "32"
      },
      "t_bool": {
        "encoding": "inplace",
        "label": "bool",
        "numberOfBytes": "1"
      },
      "t_contract(IPriorityPoolFactory)14158": {
        "encoding": "inplace",
        "label": "contract IPriorityPoolFactory",
        "numberOfBytes": "20"
      },
      "t_mapping(t_address,t_mapping(t_uint256,t_struct(UserVote)22132_storage))": {
        "encoding": "mapping",
        "key": "t_address",
        "label": "mapping(address => mapping(uint256 => struct IncidentReport.UserVote))",
        "numberOfBytes": "32",
        "value": "t_mapping(t_uint256,t_struct(UserVote)22132_storage)"
      },
      "t_mapping(t_uint256,t_array(t_uint256)dyn_storage)": {
        "encoding": "mapping",
        "key": "t_uint256",
        "label": "mapping(uint256 => uint256[])",
        "numberOfBytes": "32",
        "value": "t_array(t_uint256)dyn_storage"
      },
      "t_mapping(t_uint256,t_bool)": {
        "encoding": "mapping",
        "key": "t_uint256",
        "label": "mapping(uint256 => bool)",
        "numberOfBytes": "32",
        "value": "t_bool"
      },
      "t_mapping(t_uint256,t_struct(Report)22101_storage)": {
        "encoding": "mapping",
        "key": "t_uint256",
        "label": "mapping(uint256 => struct IncidentReport.Report)",
        "numberOfBytes": "32",
        "value": "t_struct(Report)22101_storage"
      },
      "t_mapping(t_uint256,t_struct(TempResult)22118_storage)": {
        "encoding": "mapping",
        "key": "t_uint256",
        "label": "mapping(uint256 => struct IncidentReport.TempResult)",
        "numberOfBytes": "32",
        "value": "t_struct(TempResult)22118_storage"
      },
      "t_mapping(t_uint256,t_struct(UserVote)22132_storage)": {
        "encoding": "mapping",
        "key": "t_uint256",
        "label": "mapping(uint256 => struct IncidentReport.UserVote)",
        "numberOfBytes": "32",
        "value": "t_struct(UserVote)22132_storage"
      },
      "t_struct(Report)22101_storage": {
        "encoding": "inplace",
        "label": "struct IncidentReport.Report",
        "members": [
          {
            "astId": 22080,
            "contract": "src/voting/incidentReport/IncidentReport.sol:IncidentReport",
            "label": "poolId",
            "offset": 0,
            "slot": "0",
            "type": "t_uint256"
          },
          {
            "astId": 22082,
            "contract": "src/voting/incidentReport/IncidentReport.sol:IncidentReport",
            "label": "reportTimestamp",
            "offset": 0,
            "slot": "1",
            "type": "t_uint256"
          },
          {
            "astId": 22084,
            "contract": "src/voting/incidentReport/IncidentReport.sol:IncidentReport",
            "label": "reporter",
            "offset": 0,
            "slot": "2",
            "type": "t_address"
          },
          {
            "astId": 22086,
            "contract": "src/voting/incidentReport/IncidentReport.sol:IncidentReport",
            "label": "voteTimestamp",
            "offset": 0,
            "slot": "3",
            "type": "t_uint256"
          },
          {
            "astId": 22088,
            "contract": "src/voting/incidentReport/IncidentReport.sol:IncidentReport",
            "label": "numFor",
            "offset": 0,
            "slot": "4",
            "type": "t_uint256"
          },
          {
            "astId": 22090,
            "contract": "src/voting/incidentReport/IncidentReport.sol:IncidentReport",
            "label": "numAgainst",
            "offset": 0,
            "slot": "5",
            "type": "t_uint256"
          },
          {
            "astId": 22092,
            "contract": "src/voting/incidentReport/IncidentReport.sol:IncidentReport",
            "label": "round",
            "offset": 0,
            "slot": "6",
            "type": "t_uint256"
          },
          {
            "astId": 22094,
            "contract": "src/voting/incidentReport/IncidentReport.sol:IncidentReport",
            "label": "status",
            "offset": 0,
            "slot": "7",
            "type": "t_uint256"
          },
          {
            "astId": 22096,
            "contract": "src/voting/incidentReport/IncidentReport.sol:IncidentReport",
            "label": "result",
            "offset": 0,
            "slot": "8",
            "type": "t_uint256"
          },
          {
            "astId": 22098,
            "contract": "src/voting/incidentReport/IncidentReport.sol:IncidentReport",
            "label": "votingReward",
            "offset": 0,
            "slot": "9",
            "type": "t_uint256"
          },
          {
            "astId": 22100,
            "contract": "src/voting/incidentReport/IncidentReport.sol:IncidentReport",
            "label": "payout",
            "offset": 0,
            "slot": "10",
            "type": "t_uint256"
          }
        ],
        "numberOfBytes": "352"
      },
      "t_struct(TempResult)22118_storage": {
        "encoding": "inplace",
        "label": "struct IncidentReport.TempResult",
        "members": [
          {
            "astId": 22113,
            "contract": "src/voting/incidentReport/IncidentReport.sol:IncidentReport",
            "label": "result",
            "offset": 0,
            "slot": "0",
            "type": "t_uint256"
          },
          {
            "astId": 22115,
            "contract": "src/voting/incidentReport/IncidentReport.sol:IncidentReport",
            "label": "sampleTimestamp",
            "offset": 0,
            "slot": "1",
            "type": "t_uint256"
          },
          {
            "astId": 22117,
            "contract": "src/voting/incidentReport/IncidentReport.sol:IncidentReport",
            "label": "hasChanged",
            "offset": 0,
            "slot": "2",
            "type": "t_bool"
          }
        ],
        "numberOfBytes": "96"
      },
      "t_struct(UserVote)22132_storage": {
        "encoding": "inplace",
        "label": "struct IncidentReport.UserVote",
        "members": [
          {
            "astId": 22125,
            "contract": "src/voting/incidentReport/IncidentReport.sol:IncidentReport",
            "label": "choice",
            "offset": 0,
            "slot": "0",
            "type": "t_uint256"
          },
          {
            "astId": 22127,
            "contract": "src/voting/incidentReport/IncidentReport.sol:IncidentReport",
            "label": "amount",
            "offset": 0,
            "slot": "1",
            "type": "t_uint256"
          },
          {
            "astId": 22129,
            "contract": "src/voting/incidentReport/IncidentReport.sol:IncidentReport",
            "label": "claimed",
            "offset": 0,
            "slot": "2",
            "type": "t_bool"
          },
          {
            "astId": 22131,
            "contract": "src/voting/incidentReport/IncidentReport.sol:IncidentReport",
            "label": "paid",
            "offset": 1,
            "slot": "2",
            "type": "t_bool"
          }
        ],
        "numberOfBytes": "96"
      },
      "t_uint256": {
        "encoding": "inplace",
        "label": "uint256",
        "numberOfBytes": "32"
      }
    }
  }
}