{
  "address": "0x4909a15bd6fB697206e74D87579836B4EDCdB98E",
  "abi": [
    {
      "inputs": [],
      "stateMutability": "nonpayable",
      "type": "constructor"
    },
    {
      "inputs": [
        {
          "internalType": "uint256",
          "name": "amountIn",
          "type": "uint256"
        },
        {
          "internalType": "uint256",
          "name": "",
          "type": "uint256"
        },
        {
          "internalType": "address[]",
          "name": "path",
          "type": "address[]"
        },
        {
          "internalType": "address",
          "name": "to",
          "type": "address"
        },
        {
          "internalType": "uint256",
          "name": "deadline",
          "type": "uint256"
        }
      ],
      "name": "swapExactTokensForTokens",
      "outputs": [
        {
          "internalType": "uint256",
          "name": "amountOut",
          "type": "uint256"
        }
      ],
      "stateMutability": "nonpayable",
      "type": "function"
    }
  ],
  "transactionHash": "0xf3cc9f0baf8f1515e037603c25e5d5c9f1dd9895a2a7d407154529ad47a5de68",
  "args": [],
  "numDeployments": 7,
  "solcInputHash": "3ec71b30c325f104d8ef6c9e1b369bf4",
  "bytecode": "0x6080806040523461001657610376908161001c8239f35b600080fdfe608060408181526004908136101561001657600080fd5b6000803560e01c6338ed17391461002c57600080fd5b346102bb5760a03660031901126102bb5782359060443567ffffffffffffffff948582116102b757366023830112156102b757818101359586116102b7576024938483019036868960051b860101116102b3576001600160a01b03606435818116959193908690036102af5760843542116102af578915610256578a846100b2836102be565b166323b872dd60e01b82523387830152308a83015284604483015260209c8d91818b5a92606493f1801561028757918c6100f4928794610291575b50506102be565b16908851998b8b878163313ce56760e01b968782525afa9a8b1561028757889b610268575b506001101561025657604401988a846101318c6102be565b1692868b518095819382525afa91821561024c578792610218575b5060ff9182169116818110610206570360ff16604d81116101f457600a0a9080600019048211811515166101f45760449261018d8b9695938893029a6102be565b16898951988996879563a9059cbb60e01b87528601528401525af19081156101e957506101bc575b5051908152f35b6101db90843d86116101e2575b6101d381836102d7565b81019061030f565b50386101b5565b503d6101c9565b8351903d90823e3d90fd5b634e487b7160e01b8652601184528686fd5b634e487b7160e01b8752601185528787fd5b60ff91925061023d82918d803d10610245575b61023581836102d7565b810190610327565b92915061014c565b503d61022b565b89513d89823e3d90fd5b634e487b7160e01b8752603285528787fd5b610280919b508c8d3d106102455761023581836102d7565b9938610119565b8a513d8a823e3d90fd5b816102a792903d106101e2576101d381836102d7565b508c386100ed565b8680fd5b8480fd5b8280fd5b80fd5b356001600160a01b03811681036102d25790565b600080fd5b90601f8019910116810190811067ffffffffffffffff8211176102f957604052565b634e487b7160e01b600052604160045260246000fd5b908160209103126102d2575180151581036102d25790565b908160209103126102d2575160ff811681036102d2579056fea26469706673582212206421b76cd94c769475b441bf612c112f96a9e2aa3f161598d4c8aec8be5c6d0964736f6c634300080f0033",
  "devdoc": {
    "kind": "dev",
    "methods": {},
    "version": 1
  },
  "userdoc": {
    "kind": "user",
    "methods": {},
    "version": 1
  },
  "storageLayout": {
    "storage": [],
    "types": null
  }
}