{
  "address": "0x928Fa0Be83F57D62C4df42024d2fd7E01cD44de7",
  "abi": [
    {
      "inputs": [],
      "stateMutability": "nonpayable",
      "type": "constructor"
    },
    {
      "anonymous": false,
      "inputs": [
        {
          "indexed": false,
          "internalType": "address",
          "name": "token",
          "type": "address"
        }
      ],
      "name": "LatestPriceGet",
      "type": "event"
    },
    {
      "anonymous": false,
      "inputs": [
        {
          "indexed": true,
          "internalType": "address",
          "name": "previousOwner",
          "type": "address"
        },
        {
          "indexed": true,
          "internalType": "address",
          "name": "newOwner",
          "type": "address"
        }
      ],
      "name": "OwnershipTransferred",
      "type": "event"
    },
    {
      "inputs": [
        {
          "internalType": "address",
          "name": "_tokenAddress",
          "type": "address"
        }
      ],
      "name": "getLatestPrice",
      "outputs": [
        {
          "internalType": "uint256",
          "name": "",
          "type": "uint256"
        }
      ],
      "stateMutability": "nonpayable",
      "type": "function"
    },
    {
      "inputs": [
        {
          "internalType": "string",
          "name": "_tokenName",
          "type": "string"
        }
      ],
      "name": "getLatestPrice",
      "outputs": [
        {
          "internalType": "uint256",
          "name": "",
          "type": "uint256"
        }
      ],
      "stateMutability": "nonpayable",
      "type": "function"
    },
    {
      "inputs": [
        {
          "internalType": "string",
          "name": "",
          "type": "string"
        }
      ],
      "name": "nameToAddress",
      "outputs": [
        {
          "internalType": "address",
          "name": "",
          "type": "address"
        }
      ],
      "stateMutability": "view",
      "type": "function"
    },
    {
      "inputs": [],
      "name": "owner",
      "outputs": [
        {
          "internalType": "address",
          "name": "",
          "type": "address"
        }
      ],
      "stateMutability": "view",
      "type": "function"
    },
    {
      "inputs": [],
      "name": "renounceOwnership",
      "outputs": [],
      "stateMutability": "nonpayable",
      "type": "function"
    },
    {
      "inputs": [
        {
          "internalType": "address",
          "name": "newOwner",
          "type": "address"
        }
      ],
      "name": "transferOwnership",
      "outputs": [],
      "stateMutability": "nonpayable",
      "type": "function"
    }
  ],
  "transactionHash": "0x05ac24ad0a8d25b9fc6303c0dbfef8926cef448772245cebb5675c7a9d51feef",
  "args": [],
  "numDeployments": 1,
  "solcInputHash": "e1ba30aa7fe1764f1fb0e486bbf521c6",
  "bytecode": "0x6080806040523461002857600080546001600160a01b03191633179055610413908161002e8239f35b600080fdfe604060808152600436101561001357600080fd5b600090813560e01c806308d88aad1461025e57806316345f1814610229578063715018a6146101ca5780638da5cb5b146101a3578063f2fde38b146100d75763f66a1b711461006157600080fd5b346100d35790602091610073366102ca565b81518151909184905b8286106100c05750816100af9495116100b6575b50600190820190815281900384019020546001600160a01b0316610362565b9051908152f35b8183015238610090565b858101870151848701529486019461007c565b5080fd5b50346100d35760203660031901126100d3576004356001600160a01b038181169182900361019f578354908116926101103385146103a4565b821561014d57829051937f8be0079c531659141344cd1fd0a4f28419497f9722a3daafe3b4186f6b6457e08686a36001600160a01b031916178255f35b5162461bcd60e51b815260206004820152602660248201527f4f776e61626c653a206e6577206f776e657220697320746865207a65726f206160448201526564647265737360d01b6064820152608490fd5b8380fd5b50346100d357816003193601126100d357905490516001600160a01b039091168152602090f35b50346100d357816003193601126100d35781546001600160a01b0381169183906101f53385146103a4565b51927f8be0079c531659141344cd1fd0a4f28419497f9722a3daafe3b4186f6b6457e08285a36001600160a01b0319168255f35b50346100d35760203660031901126100d357600435916001600160a01b038316830361025b57506100af602092610362565b80fd5b50346100d357602091610270366102ca565b8251918151809282905b8282106102b45750116102aa575b506001908201908152819003830190205490516001600160a01b039091168152f35b8183015238610288565b915080878092840101518187015201839161027a565b60206003198201126103475767ffffffffffffffff9060043582811161034757816023820112156103475780600401359183831161034c5760405193601f8401601f19908116603f011685019081118582101761034c57604052828452602483830101116103475781600092602460209301838601378301015290565b600080fd5b634e487b7160e01b600052604160045260246000fd5b6040516001600160a01b0390911681527f7764b0c0f18b41907e5f9699603c5869a5815b49b883b849fc6c0a34a2e5e85990602090a1670de0b6b3a764000090565b156103ab57565b60405162461bcd60e51b815260206004820152600a60248201526927b7363c9037bbb732b960b11b6044820152606490fdfea26469706673582212206c0a9ebc52ae5c488cd76c9ae97e82dee9a3763686dc0c254fe57c9747b5805c64736f6c634300080f0033",
  "devdoc": {
    "details": "The price from chainlink priceFeed has different decimals, be careful.",
    "kind": "dev",
    "methods": {
      "owner()": {
        "details": "Returns the address of the current owner."
      },
      "renounceOwnership()": {
        "details": "Leaves the contract without owner. It will not be possible to call `onlyOwner` functions anymore. Can only be called by the current owner. NOTE: Renouncing ownership will leave the contract without an owner, thereby removing any functionality that is only available to the owner."
      },
      "transferOwnership(address)": {
        "details": "Transfers ownership of the contract to a new account (`newOwner`). Can only be called by the current owner."
      }
    },
    "title": "Price Getter",
    "version": 1
  },
  "userdoc": {
    "kind": "user",
    "methods": {},
    "notice": "This is the contract for getting price feed from chainlink.         The contract will keep a record from tokenName => priceFeed Address.         Got the sponsorship and collaboration with Chainlink.",
    "version": 1
  },
  "storageLayout": {
    "storage": [
      {
        "astId": 23313,
        "contract": "src/mock/MockPriceGetter.sol:MockPriceGetter",
        "label": "_owner",
        "offset": 0,
        "slot": "0",
        "type": "t_address"
      },
      {
        "astId": 16853,
        "contract": "src/mock/MockPriceGetter.sol:MockPriceGetter",
        "label": "nameToAddress",
        "offset": 0,
        "slot": "1",
        "type": "t_mapping(t_string_memory_ptr,t_address)"
      }
    ],
    "types": {
      "t_address": {
        "encoding": "inplace",
        "label": "address",
        "numberOfBytes": "20"
      },
      "t_mapping(t_string_memory_ptr,t_address)": {
        "encoding": "mapping",
        "key": "t_string_memory_ptr",
        "label": "mapping(string => address)",
        "numberOfBytes": "32",
        "value": "t_address"
      },
      "t_string_memory_ptr": {
        "encoding": "bytes",
        "label": "string",
        "numberOfBytes": "32"
      }
    }
  }
}