{
  "address": "0xdaE414Dee2aDb6A9f232A10580b6eD4fFFaad78c",
  "abi": [
    {
      "inputs": [
        {
          "internalType": "uint256",
          "name": "_initialAmount",
          "type": "uint256"
        },
        {
          "internalType": "string",
          "name": "_tokenName",
          "type": "string"
        },
        {
          "internalType": "uint8",
          "name": "_decimalUnits",
          "type": "uint8"
        },
        {
          "internalType": "string",
          "name": "_tokenSymbol",
          "type": "string"
        }
      ],
      "stateMutability": "nonpayable",
      "type": "constructor"
    },
    {
      "anonymous": false,
      "inputs": [
        {
          "indexed": true,
          "internalType": "address",
          "name": "owner",
          "type": "address"
        },
        {
          "indexed": true,
          "internalType": "address",
          "name": "spender",
          "type": "address"
        },
        {
          "indexed": false,
          "internalType": "uint256",
          "name": "value",
          "type": "uint256"
        }
      ],
      "name": "Approval",
      "type": "event"
    },
    {
      "anonymous": false,
      "inputs": [
        {
          "indexed": true,
          "internalType": "address",
          "name": "from",
          "type": "address"
        },
        {
          "indexed": true,
          "internalType": "address",
          "name": "to",
          "type": "address"
        },
        {
          "indexed": false,
          "internalType": "uint256",
          "name": "value",
          "type": "uint256"
        }
      ],
      "name": "Transfer",
      "type": "event"
    },
    {
      "inputs": [],
      "name": "MAX_UINT256",
      "outputs": [
        {
          "internalType": "uint256",
          "name": "",
          "type": "uint256"
        }
      ],
      "stateMutability": "view",
      "type": "function"
    },
    {
      "inputs": [],
      "name": "_decimals",
      "outputs": [
        {
          "internalType": "uint8",
          "name": "",
          "type": "uint8"
        }
      ],
      "stateMutability": "view",
      "type": "function"
    },
    {
      "inputs": [
        {
          "internalType": "address",
          "name": "owner",
          "type": "address"
        },
        {
          "internalType": "address",
          "name": "spender",
          "type": "address"
        }
      ],
      "name": "allowance",
      "outputs": [
        {
          "internalType": "uint256",
          "name": "",
          "type": "uint256"
        }
      ],
      "stateMutability": "view",
      "type": "function"
    },
    {
      "inputs": [
        {
          "internalType": "address",
          "name": "",
          "type": "address"
        }
      ],
      "name": "alreadyMinted",
      "outputs": [
        {
          "internalType": "bool",
          "name": "",
          "type": "bool"
        }
      ],
      "stateMutability": "view",
      "type": "function"
    },
    {
      "inputs": [
        {
          "internalType": "address",
          "name": "spender",
          "type": "address"
        },
        {
          "internalType": "uint256",
          "name": "amount",
          "type": "uint256"
        }
      ],
      "name": "approve",
      "outputs": [
        {
          "internalType": "bool",
          "name": "",
          "type": "bool"
        }
      ],
      "stateMutability": "nonpayable",
      "type": "function"
    },
    {
      "inputs": [
        {
          "internalType": "address",
          "name": "account",
          "type": "address"
        }
      ],
      "name": "balanceOf",
      "outputs": [
        {
          "internalType": "uint256",
          "name": "",
          "type": "uint256"
        }
      ],
      "stateMutability": "view",
      "type": "function"
    },
    {
      "inputs": [
        {
          "internalType": "address",
          "name": "_account",
          "type": "address"
        },
        {
          "internalType": "uint256",
          "name": "_amount",
          "type": "uint256"
        }
      ],
      "name": "burnDegis",
      "outputs": [],
      "stateMutability": "nonpayable",
      "type": "function"
    },
    {
      "inputs": [],
      "name": "decimals",
      "outputs": [
        {
          "internalType": "uint8",
          "name": "",
          "type": "uint8"
        }
      ],
      "stateMutability": "view",
      "type": "function"
    },
    {
      "inputs": [
        {
          "internalType": "address",
          "name": "spender",
          "type": "address"
        },
        {
          "internalType": "uint256",
          "name": "subtractedValue",
          "type": "uint256"
        }
      ],
      "name": "decreaseAllowance",
      "outputs": [
        {
          "internalType": "bool",
          "name": "",
          "type": "bool"
        }
      ],
      "stateMutability": "nonpayable",
      "type": "function"
    },
    {
      "inputs": [
        {
          "internalType": "address",
          "name": "spender",
          "type": "address"
        },
        {
          "internalType": "uint256",
          "name": "addedValue",
          "type": "uint256"
        }
      ],
      "name": "increaseAllowance",
      "outputs": [
        {
          "internalType": "bool",
          "name": "",
          "type": "bool"
        }
      ],
      "stateMutability": "nonpayable",
      "type": "function"
    },
    {
      "inputs": [
        {
          "internalType": "address",
          "name": "_account",
          "type": "address"
        },
        {
          "internalType": "uint256",
          "name": "_amount",
          "type": "uint256"
        }
      ],
      "name": "mint",
      "outputs": [],
      "stateMutability": "nonpayable",
      "type": "function"
    },
    {
      "inputs": [
        {
          "internalType": "address",
          "name": "_account",
          "type": "address"
        },
        {
          "internalType": "uint256",
          "name": "_amount",
          "type": "uint256"
        }
      ],
      "name": "mintDegis",
      "outputs": [],
      "stateMutability": "nonpayable",
      "type": "function"
    },
    {
      "inputs": [],
      "name": "name",
      "outputs": [
        {
          "internalType": "string",
          "name": "",
          "type": "string"
        }
      ],
      "stateMutability": "view",
      "type": "function"
    },
    {
      "inputs": [],
      "name": "owner",
      "outputs": [
        {
          "internalType": "address",
          "name": "",
          "type": "address"
        }
      ],
      "stateMutability": "view",
      "type": "function"
    },
    {
      "inputs": [],
      "name": "symbol",
      "outputs": [
        {
          "internalType": "string",
          "name": "",
          "type": "string"
        }
      ],
      "stateMutability": "view",
      "type": "function"
    },
    {
      "inputs": [],
      "name": "totalSupply",
      "outputs": [
        {
          "internalType": "uint256",
          "name": "",
          "type": "uint256"
        }
      ],
      "stateMutability": "view",
      "type": "function"
    },
    {
      "inputs": [
        {
          "internalType": "address",
          "name": "to",
          "type": "address"
        },
        {
          "internalType": "uint256",
          "name": "amount",
          "type": "uint256"
        }
      ],
      "name": "transfer",
      "outputs": [
        {
          "internalType": "bool",
          "name": "",
          "type": "bool"
        }
      ],
      "stateMutability": "nonpayable",
      "type": "function"
    },
    {
      "inputs": [
        {
          "internalType": "address",
          "name": "from",
          "type": "address"
        },
        {
          "internalType": "address",
          "name": "to",
          "type": "address"
        },
        {
          "internalType": "uint256",
          "name": "amount",
          "type": "uint256"
        }
      ],
      "name": "transferFrom",
      "outputs": [
        {
          "internalType": "bool",
          "name": "",
          "type": "bool"
        }
      ],
      "stateMutability": "nonpayable",
      "type": "function"
    }
  ],
  "transactionHash": "0x93f8095570c9103e9f6cc43e6e484f8ecd395860c4ba11b0b2b713f0820e096e",
  "args": [
    0,
    "DegisToken",
    18,
    "DEG"
  ],
  "numDeployments": 1,
  "solcInputHash": "4ab17a497cd30664118e2fb4196ee729",
  "bytecode": "0x60406080815234620002175762001103803803806200001e81620003fe565b92833981019060808183031262000217578051602080830151919290916001600160401b03908181116200021757856200005a91840162000424565b91868101519560ff871680970362000217576060820151838111620002175762000085920162000424565b91805191808311620002fe5760038054936001938486811c96168015620003f3575b88871014620003dd578190601f9687811162000387575b508890878311600114620003205760009262000314575b505060001982841b1c191690841b1781555b8451918211620002fe5760049485548481811c91168015620002f3575b88821014620002de5785811162000293575b50869085841160011462000228579383949184926000956200021c575b50501b92600019911b1c19161782555b6012850362000217573315620001d85750507fddf252ad1be2c89b69c2b068fc378daa952ba7f163c4a11628f55a4df523b3ef6000916200018784600254620004a7565b600255338352828152858320620001a0858254620004a7565b905585519384523393a3600780546001600160a01b031916331790556005805460ff191691909117905551610c389081620004cb8239f35b60649286519262461bcd60e51b845283015260248201527f45524332303a206d696e7420746f20746865207a65726f2061646472657373006044820152fd5b600080fd5b01519350388062000133565b9190601f198416928760005284896000209460005b8b898383106200027b575050501062000260575b50505050811b01825562000143565b01519060f884600019921b161c191690553880808062000251565b8686015189559097019694850194889350016200023d565b86600052876000208680860160051c8201928a8710620002d4575b0160051c019085905b828110620002c757505062000116565b60008155018590620002b7565b92508192620002ae565b602287634e487b7160e01b6000525260246000fd5b90607f169062000104565b634e487b7160e01b600052604160045260246000fd5b015190503880620000d5565b90869350601f19831691856000528a6000209260005b8c82821062000370575050841162000357575b505050811b018155620000e7565b015160001983861b60f8161c1916905538808062000349565b8385015186558a9790950194938401930162000336565b90915083600052886000208780850160051c8201928b8610620003d3575b918891869594930160051c01915b828110620003c3575050620000be565b60008155859450889101620003b3565b92508192620003a5565b634e487b7160e01b600052602260045260246000fd5b95607f1695620000a7565b6040519190601f01601f191682016001600160401b03811183821017620002fe57604052565b81601f8201121562000217578051906001600160401b038211620002fe5760209062000459601f8401601f19168301620003fe565b93838552828483010111620002175782906000905b838383106200048e575050116200048457505090565b6000918301015290565b819350828193920101518282880101520183916200046e565b81198111620004b4570190565b634e487b7160e01b600052601160045260246000fdfe608060408181526004918236101561001657600080fd5b600092833560e01c91826306fdde031461078b57508163095ea7b3146107615781630a398b881461072357816318160ddd1461070457816323b872dd1461063a578163313ce5671461061857816332424aa31461061857816333a581d2146105fb57816339509351146105ab57816340c10f19146104c75781636858da9a1461039857816370a08231146103615781638da5cb5b1461033857816395d89b4114610236578163a457c2d71461018e57508063a9059cbb1461015e578063b4767398146101365763dd62ed3e146100eb57600080fd5b346101325780600319360112610132578060209261010761089d565b61010f6108b8565b6001600160a01b0391821683526001865283832091168252845220549051908152f35b5080fd5b503461013257806003193601126101325761015b61015261089d565b60243590610b55565b51f35b503461013257806003193601126101325760209061018761017d61089d565b60243590336108f0565b5160018152f35b905082346102335782600319360112610233576101a961089d565b918360243592338152600160205281812060018060a01b03861682526020522054908282106101e2576020856101878585038733610a53565b608490602086519162461bcd60e51b8352820152602560248201527f45524332303a2064656372656173656420616c6c6f77616e63652062656c6f77604482015264207a65726f60d81b6064820152fd5b80fd5b838334610132578160031936011261013257805190828454600181811c9080831692831561032e575b602093848410811461031b578388529081156102ff57506001146102c7575b505050829003601f01601f191682019267ffffffffffffffff8411838510176102b457508291826102b0925282610846565b0390f35b634e487b7160e01b815260418552602490fd5b919250868652828620918387935b8385106102eb575050505083010185808061027e565b8054888601830152930192849082016102d5565b60ff1916878501525050151560051b840101905085808061027e565b634e487b7160e01b895260228a52602489fd5b91607f169161025f565b50503461013257816003193601126101325760075490516001600160a01b039091168152602090f35b5050346101325760203660031901126101325760209181906001600160a01b0361038961089d565b16815280845220549051908152f35b9050346104c357816003193601126104c3576103b261089d565b6001600160a01b031690602435908215610476578285528460205283852054828110610428578290848752866020520384862055600254908282106104155750602082869493600080516020610be383398151915293036002558551908152a351f35b634e487b7160e01b865260119052602485fd5b845162461bcd60e51b8152602081840152602260248201527f45524332303a206275726e20616d6f756e7420657863656564732062616c616e604482015261636560f01b6064820152608490fd5b608490602085519162461bcd60e51b8352820152602160248201527f45524332303a206275726e2066726f6d20746865207a65726f206164647265736044820152607360f81b6064820152fd5b8280fd5b8383346101325780600319360112610132576104e161089d565b6007546001600160a01b039460243592918616330361051e575b5061015b929394811685526006602052838520600160ff19825416179055610b55565b69021e19e0c9bab24000008303610579578582168552600660205260ff8486205416156104fb57606490602085519162461bcd60e51b8352820152600e60248201526d105b1c9958591e481b5a5b9d195960921b6044820152fd5b606490602085519162461bcd60e51b8352820152600c60248201526b15dc9bdb99c8185b5bdd5b9d60a21b6044820152fd5b5050346101325780600319360112610132576101876020926105f46105ce61089d565b338352600186528483206001600160a01b038216845286529184902054602435906108ce565b9033610a53565b505034610132578160031936011261013257516000198152602090f35b50503461013257816003193601126101325760209060ff600554169051908152f35b839150346101325760603660031901126101325761065661089d565b61065e6108b8565b91846044359460018060a01b038416815260016020528181203382526020522054906000198203610698575b6020866101878787876108f0565b8482106106c157509183916106b66020969561018795033383610a53565b91939481935061068a565b606490602087519162461bcd60e51b8352820152601d60248201527f45524332303a20696e73756666696369656e7420616c6c6f77616e63650000006044820152fd5b5050346101325781600319360112610132576020906002549051908152f35b5050346101325760203660031901126101325760209160ff9082906001600160a01b0361074e61089d565b1681526006855220541690519015158152f35b50503461013257806003193601126101325760209061018761078161089d565b6024359033610a53565b849084346104c357826003193601126104c35782600354600181811c9080831692831561083c575b602093848410811461031b578388529081156102ff575060011461080357505050829003601f01601f191682019267ffffffffffffffff8411838510176102b457508291826102b0925282610846565b91925060038652828620918387935b838510610828575050505083010185808061027e565b805488860183015293019284908201610812565b91607f16916107b3565b919091602080825283519081818401526000945b82861061088757505080604093941161087a575b601f01601f1916010190565b600083828401015261086e565b858101820151848701604001529481019461085a565b600435906001600160a01b03821682036108b357565b600080fd5b602435906001600160a01b03821682036108b357565b811981116108da570190565b634e487b7160e01b600052601160045260246000fd5b6001600160a01b03908116918215610a0057169182156109af5760008281528060205260408120549180831061095b5760408282600080516020610be38339815191529587602096528286520382822055868152206109508282546108ce565b9055604051908152a3565b60405162461bcd60e51b815260206004820152602660248201527f45524332303a207472616e7366657220616d6f756e7420657863656564732062604482015265616c616e636560d01b6064820152608490fd5b60405162461bcd60e51b815260206004820152602360248201527f45524332303a207472616e7366657220746f20746865207a65726f206164647260448201526265737360e81b6064820152608490fd5b60405162461bcd60e51b815260206004820152602560248201527f45524332303a207472616e736665722066726f6d20746865207a65726f206164604482015264647265737360d81b6064820152608490fd5b6001600160a01b03908116918215610b045716918215610ab45760207f8c5be1e5ebec7d5bd14f71427d1e84f3dd0314c0f7b2291e5b200ac8c7c3b925918360005260018252604060002085600052825280604060002055604051908152a3565b60405162461bcd60e51b815260206004820152602260248201527f45524332303a20617070726f766520746f20746865207a65726f206164647265604482015261737360f01b6064820152608490fd5b60405162461bcd60e51b8152602060048201526024808201527f45524332303a20617070726f76652066726f6d20746865207a65726f206164646044820152637265737360e01b6064820152608490fd5b6001600160a01b0316908115610b9d57600080516020610be3833981519152602082610b856000946002546108ce565b600255848452838252604084206109508282546108ce565b60405162461bcd60e51b815260206004820152601f60248201527f45524332303a206d696e7420746f20746865207a65726f2061646472657373006044820152606490fdfeddf252ad1be2c89b69c2b068fc378daa952ba7f163c4a11628f55a4df523b3efa26469706673582212206b48e60241940998e0306a118bbf080b053039e111b7f2fd788a86218440000664736f6c634300080f0033",
  "devdoc": {
    "kind": "dev",
    "methods": {
      "allowance(address,address)": {
        "details": "See {IERC20-allowance}."
      },
      "approve(address,uint256)": {
        "details": "See {IERC20-approve}. NOTE: If `amount` is the maximum `uint256`, the allowance is not updated on `transferFrom`. This is semantically equivalent to an infinite approval. Requirements: - `spender` cannot be the zero address."
      },
      "balanceOf(address)": {
        "details": "See {IERC20-balanceOf}."
      },
      "decimals()": {
        "details": "Returns the number of decimals used to get its user representation. For example, if `decimals` equals `2`, a balance of `505` tokens should be displayed to a user as `5.05` (`505 / 10 ** 2`). Tokens usually opt for a value of 18, imitating the relationship between Ether and Wei. This is the value {ERC20} uses, unless this function is overridden; NOTE: This information is only used for _display_ purposes: it in no way affects any of the arithmetic of the contract, including {IERC20-balanceOf} and {IERC20-transfer}."
      },
      "decreaseAllowance(address,uint256)": {
        "details": "Atomically decreases the allowance granted to `spender` by the caller. This is an alternative to {approve} that can be used as a mitigation for problems described in {IERC20-approve}. Emits an {Approval} event indicating the updated allowance. Requirements: - `spender` cannot be the zero address. - `spender` must have allowance for the caller of at least `subtractedValue`."
      },
      "increaseAllowance(address,uint256)": {
        "details": "Atomically increases the allowance granted to `spender` by the caller. This is an alternative to {approve} that can be used as a mitigation for problems described in {IERC20-approve}. Emits an {Approval} event indicating the updated allowance. Requirements: - `spender` cannot be the zero address."
      },
      "name()": {
        "details": "Returns the name of the token."
      },
      "symbol()": {
        "details": "Returns the symbol of the token, usually a shorter version of the name."
      },
      "totalSupply()": {
        "details": "See {IERC20-totalSupply}."
      },
      "transfer(address,uint256)": {
        "details": "See {IERC20-transfer}. Requirements: - `to` cannot be the zero address. - the caller must have a balance of at least `amount`."
      },
      "transferFrom(address,address,uint256)": {
        "details": "See {IERC20-transferFrom}. Emits an {Approval} event indicating the updated allowance. This is not required by the EIP. See the note at the beginning of {ERC20}. NOTE: Does not update the allowance if the current allowance is the maximum `uint256`. Requirements: - `from` and `to` cannot be the zero address. - `from` must have a balance of at least `amount`. - the caller must have allowance for ``from``'s tokens of at least `amount`."
      }
    },
    "version": 1
  },
  "userdoc": {
    "kind": "user",
    "methods": {
      "mint(address,uint256)": {
        "notice": "This is for frontend mint"
      },
      "mintDegis(address,uint256)": {
        "notice": "Free mint"
      }
    },
    "version": 1
  },
  "storageLayout": {
    "storage": [
      {
        "astId": 1997,
        "contract": "src/mock/MockDEG.sol:MockDEG",
        "label": "_balances",
        "offset": 0,
        "slot": "0",
        "type": "t_mapping(t_address,t_uint256)"
      },
      {
        "astId": 2003,
        "contract": "src/mock/MockDEG.sol:MockDEG",
        "label": "_allowances",
        "offset": 0,
        "slot": "1",
        "type": "t_mapping(t_address,t_mapping(t_address,t_uint256))"
      },
      {
        "astId": 2005,
        "contract": "src/mock/MockDEG.sol:MockDEG",
        "label": "_totalSupply",
        "offset": 0,
        "slot": "2",
        "type": "t_uint256"
      },
      {
        "astId": 2007,
        "contract": "src/mock/MockDEG.sol:MockDEG",
        "label": "_name",
        "offset": 0,
        "slot": "3",
        "type": "t_string_storage"
      },
      {
        "astId": 2009,
        "contract": "src/mock/MockDEG.sol:MockDEG",
        "label": "_symbol",
        "offset": 0,
        "slot": "4",
        "type": "t_string_storage"
      },
      {
        "astId": 16522,
        "contract": "src/mock/MockDEG.sol:MockDEG",
        "label": "_decimals",
        "offset": 0,
        "slot": "5",
        "type": "t_uint8"
      },
      {
        "astId": 16526,
        "contract": "src/mock/MockDEG.sol:MockDEG",
        "label": "alreadyMinted",
        "offset": 0,
        "slot": "6",
        "type": "t_mapping(t_address,t_bool)"
      },
      {
        "astId": 16528,
        "contract": "src/mock/MockDEG.sol:MockDEG",
        "label": "owner",
        "offset": 0,
        "slot": "7",
        "type": "t_address"
      }
    ],
    "types": {
      "t_address": {
        "encoding": "inplace",
        "label": "address",
        "numberOfBytes": "20"
      },
      "t_bool": {
        "encoding": "inplace",
        "label": "bool",
        "numberOfBytes": "1"
      },
      "t_mapping(t_address,t_bool)": {
        "encoding": "mapping",
        "key": "t_address",
        "label": "mapping(address => bool)",
        "numberOfBytes": "32",
        "value": "t_bool"
      },
      "t_mapping(t_address,t_mapping(t_address,t_uint256))": {
        "encoding": "mapping",
        "key": "t_address",
        "label": "mapping(address => mapping(address => uint256))",
        "numberOfBytes": "32",
        "value": "t_mapping(t_address,t_uint256)"
      },
      "t_mapping(t_address,t_uint256)": {
        "encoding": "mapping",
        "key": "t_address",
        "label": "mapping(address => uint256)",
        "numberOfBytes": "32",
        "value": "t_uint256"
      },
      "t_string_storage": {
        "encoding": "bytes",
        "label": "string",
        "numberOfBytes": "32"
      },
      "t_uint256": {
        "encoding": "inplace",
        "label": "uint256",
        "numberOfBytes": "32"
      },
      "t_uint8": {
        "encoding": "inplace",
        "label": "uint8",
        "numberOfBytes": "1"
      }
    }
  }
}