{
  "address": "0xF98f0dE58c9a78B8e42def3cc49f02C2B35b81C9",
  "abi": [
    {
      "inputs": [
        {
          "internalType": "uint256",
          "name": "_initialAmount",
          "type": "uint256"
        },
        {
          "internalType": "string",
          "name": "_tokenName",
          "type": "string"
        },
        {
          "internalType": "uint8",
          "name": "_decimalUnits",
          "type": "uint8"
        },
        {
          "internalType": "string",
          "name": "_tokenSymbol",
          "type": "string"
        }
      ],
      "stateMutability": "nonpayable",
      "type": "constructor"
    },
    {
      "anonymous": false,
      "inputs": [
        {
          "indexed": true,
          "internalType": "address",
          "name": "owner",
          "type": "address"
        },
        {
          "indexed": true,
          "internalType": "address",
          "name": "spender",
          "type": "address"
        },
        {
          "indexed": false,
          "internalType": "uint256",
          "name": "value",
          "type": "uint256"
        }
      ],
      "name": "Approval",
      "type": "event"
    },
    {
      "anonymous": false,
      "inputs": [
        {
          "indexed": true,
          "internalType": "address",
          "name": "from",
          "type": "address"
        },
        {
          "indexed": true,
          "internalType": "address",
          "name": "to",
          "type": "address"
        },
        {
          "indexed": false,
          "internalType": "uint256",
          "name": "value",
          "type": "uint256"
        }
      ],
      "name": "Transfer",
      "type": "event"
    },
    {
      "inputs": [],
      "name": "MAX_UINT256",
      "outputs": [
        {
          "internalType": "uint256",
          "name": "",
          "type": "uint256"
        }
      ],
      "stateMutability": "view",
      "type": "function"
    },
    {
      "inputs": [],
      "name": "_decimals",
      "outputs": [
        {
          "internalType": "uint8",
          "name": "",
          "type": "uint8"
        }
      ],
      "stateMutability": "view",
      "type": "function"
    },
    {
      "inputs": [
        {
          "internalType": "address",
          "name": "owner",
          "type": "address"
        },
        {
          "internalType": "address",
          "name": "spender",
          "type": "address"
        }
      ],
      "name": "allowance",
      "outputs": [
        {
          "internalType": "uint256",
          "name": "",
          "type": "uint256"
        }
      ],
      "stateMutability": "view",
      "type": "function"
    },
    {
      "inputs": [
        {
          "internalType": "address",
          "name": "spender",
          "type": "address"
        },
        {
          "internalType": "uint256",
          "name": "amount",
          "type": "uint256"
        }
      ],
      "name": "approve",
      "outputs": [
        {
          "internalType": "bool",
          "name": "",
          "type": "bool"
        }
      ],
      "stateMutability": "nonpayable",
      "type": "function"
    },
    {
      "inputs": [
        {
          "internalType": "address",
          "name": "account",
          "type": "address"
        }
      ],
      "name": "balanceOf",
      "outputs": [
        {
          "internalType": "uint256",
          "name": "",
          "type": "uint256"
        }
      ],
      "stateMutability": "view",
      "type": "function"
    },
    {
      "inputs": [],
      "name": "decimals",
      "outputs": [
        {
          "internalType": "uint8",
          "name": "",
          "type": "uint8"
        }
      ],
      "stateMutability": "view",
      "type": "function"
    },
    {
      "inputs": [
        {
          "internalType": "address",
          "name": "spender",
          "type": "address"
        },
        {
          "internalType": "uint256",
          "name": "subtractedValue",
          "type": "uint256"
        }
      ],
      "name": "decreaseAllowance",
      "outputs": [
        {
          "internalType": "bool",
          "name": "",
          "type": "bool"
        }
      ],
      "stateMutability": "nonpayable",
      "type": "function"
    },
    {
      "inputs": [
        {
          "internalType": "address",
          "name": "spender",
          "type": "address"
        },
        {
          "internalType": "uint256",
          "name": "addedValue",
          "type": "uint256"
        }
      ],
      "name": "increaseAllowance",
      "outputs": [
        {
          "internalType": "bool",
          "name": "",
          "type": "bool"
        }
      ],
      "stateMutability": "nonpayable",
      "type": "function"
    },
    {
      "inputs": [
        {
          "internalType": "address",
          "name": "_owner",
          "type": "address"
        },
        {
          "internalType": "uint256",
          "name": "_value",
          "type": "uint256"
        }
      ],
      "name": "lockVeDEG",
      "outputs": [],
      "stateMutability": "nonpayable",
      "type": "function"
    },
    {
      "inputs": [
        {
          "internalType": "address",
          "name": "",
          "type": "address"
        }
      ],
      "name": "locked",
      "outputs": [
        {
          "internalType": "uint256",
          "name": "",
          "type": "uint256"
        }
      ],
      "stateMutability": "view",
      "type": "function"
    },
    {
      "inputs": [
        {
          "internalType": "address",
          "name": "user",
          "type": "address"
        },
        {
          "internalType": "uint256",
          "name": "amount",
          "type": "uint256"
        }
      ],
      "name": "mint",
      "outputs": [],
      "stateMutability": "nonpayable",
      "type": "function"
    },
    {
      "inputs": [],
      "name": "name",
      "outputs": [
        {
          "internalType": "string",
          "name": "",
          "type": "string"
        }
      ],
      "stateMutability": "view",
      "type": "function"
    },
    {
      "inputs": [
        {
          "internalType": "address",
          "name": "_address",
          "type": "address"
        },
        {
          "internalType": "bool",
          "name": "_status",
          "type": "bool"
        }
      ],
      "name": "setWhitelist",
      "outputs": [],
      "stateMutability": "nonpayable",
      "type": "function"
    },
    {
      "inputs": [],
      "name": "symbol",
      "outputs": [
        {
          "internalType": "string",
          "name": "",
          "type": "string"
        }
      ],
      "stateMutability": "view",
      "type": "function"
    },
    {
      "inputs": [],
      "name": "totalSupply",
      "outputs": [
        {
          "internalType": "uint256",
          "name": "",
          "type": "uint256"
        }
      ],
      "stateMutability": "view",
      "type": "function"
    },
    {
      "inputs": [
        {
          "internalType": "address",
          "name": "to",
          "type": "address"
        },
        {
          "internalType": "uint256",
          "name": "amount",
          "type": "uint256"
        }
      ],
      "name": "transfer",
      "outputs": [
        {
          "internalType": "bool",
          "name": "",
          "type": "bool"
        }
      ],
      "stateMutability": "nonpayable",
      "type": "function"
    },
    {
      "inputs": [
        {
          "internalType": "address",
          "name": "from",
          "type": "address"
        },
        {
          "internalType": "address",
          "name": "to",
          "type": "address"
        },
        {
          "internalType": "uint256",
          "name": "amount",
          "type": "uint256"
        }
      ],
      "name": "transferFrom",
      "outputs": [
        {
          "internalType": "bool",
          "name": "",
          "type": "bool"
        }
      ],
      "stateMutability": "nonpayable",
      "type": "function"
    },
    {
      "inputs": [
        {
          "internalType": "address",
          "name": "_owner",
          "type": "address"
        },
        {
          "internalType": "uint256",
          "name": "_value",
          "type": "uint256"
        }
      ],
      "name": "unlockVeDEG",
      "outputs": [],
      "stateMutability": "nonpayable",
      "type": "function"
    },
    {
      "inputs": [
        {
          "internalType": "address",
          "name": "",
          "type": "address"
        }
      ],
      "name": "whitelist",
      "outputs": [
        {
          "internalType": "bool",
          "name": "",
          "type": "bool"
        }
      ],
      "stateMutability": "view",
      "type": "function"
    }
  ],
  "transactionHash": "0x4f94551eb6f571059c9e5a5360d94054a30115456bf3b159cb2ebd497576000d",
  "args": [
    0,
    "VoteEscrowedDegis",
    18,
    "VeDEG"
  ],
  "numDeployments": 5,
  "solcInputHash": "0defec3432563379ae479999b8e13e20",
  "bytecode": "0x60406080815234620004115762001014803803806200001e8162000416565b928339810190608081830312620004115780516020808301519091906001600160401b0390818111620004115785620000599186016200043c565b93868101519560ff87168097036200041157606082015183811162000411576200008492016200043c565b90845190808211620003115760038054926001978885811c9516801562000406575b88861014620003f0578190601f958681116200039a575b508890868311600114620003335760009262000327575b505060001982841b1c191690881b1781555b8351918211620003115760049384548881811c9116801562000306575b88821014620002f1579081858594931162000299575b5087908584116001146200022e5760009362000222575b505082881b92600019911b1c19161782555b3315620001e057506002549082198211620001cb575090806006939201600255336000526000825285600020818154019055855190815260007fddf252ad1be2c89b69c2b068fc378daa952ba7f163c4a11628f55a4df523b3ef833393a360ff19938460055416176005553360005252826000209182541617905551610b549081620004c08239f35b601190634e487b7160e01b6000525260246000fd5b865162461bcd60e51b815291820184905260248201527f45524332303a206d696e7420746f20746865207a65726f206164647265737300604482015260649150fd5b01519150388062000130565b9190899450601f1984169287600052896000209360005b8b82821062000282575050851162000267575b50505050811b01825562000142565b01519060f884600019921b161c191690553880808062000258565b8385015187558d9890960195938401930162000245565b9091925085600052876000208580860160051c8201928a8710620002e7575b918b9187969594930160051c01915b828110620002d757505062000119565b600081558695508b9101620002c7565b92508192620002b8565b602286634e487b7160e01b6000525260246000fd5b90607f169062000103565b634e487b7160e01b600052604160045260246000fd5b015190503880620000d4565b908a9350601f19831691856000528a6000209260005b8c8282106200038357505084116200036a575b505050811b018155620000e6565b015160001983861b60f8161c191690553880806200035c565b8385015186558e9790950194938401930162000349565b90915083600052886000208680850160051c8201928b8610620003e6575b918c91869594930160051c01915b828110620003d6575050620000bd565b600081558594508c9101620003c6565b92508192620003b8565b634e487b7160e01b600052602260045260246000fd5b94607f1694620000a6565b600080fd5b6040519190601f01601f191682016001600160401b038111838210176200031157604052565b81601f8201121562000411578051906001600160401b038211620003115760209062000471601f8401601f1916830162000416565b93838552828483010111620004115782906000905b83838310620004a6575050116200049c57505090565b6000918301015290565b819350828193920101518282880101520183916200048656fe608060408181526004918236101561001657600080fd5b600092833560e01c91826306fdde031461072c57508163095ea7b31461070257816318160ddd146106e357816323b872dd14610619578163313ce567146105f757816332424aa3146105f757816333a581d2146105da578163395093511461058a57816340c10f19146104cc57816353d6fd591461047e57816370a082311461044757816378ad54c21461040857816395d89b41146102e957816397b85b6a1461028e5781639b19251a14610250578163a457c2d7146101a857508063a9059cbb14610178578063cbf9fe5f146101415763dd62ed3e146100f657600080fd5b3461013d578060031936011261013d578060209261011261085b565b61011a610876565b6001600160a01b0391821683526001865283832091168252845220549051908152f35b5080fd5b503461013d57602036600319011261013d5760209181906001600160a01b0361016861085b565b1681526007845220549051908152f35b503461013d578060031936011261013d576020906101a161019761085b565b60243590336108ae565b5160018152f35b9050823461024d578260031936011261024d576101c361085b565b918360243592338152600160205281812060018060a01b03861682526020522054908282106101fc576020856101a18585038733610a1c565b608490602086519162461bcd60e51b8352820152602560248201527f45524332303a2064656372656173656420616c6c6f77616e63652062656c6f77604482015264207a65726f60d81b6064820152fd5b80fd5b50503461013d57602036600319011261013d5760209160ff9082906001600160a01b0361027b61085b565b1681526006855220541690519015158152f35b9050346102e557816003193601126102e5576102a861085b565b6001600160a01b0316835260076020528183208054909160243591908282106102d2575003905551f35b634e487b7160e01b865260119052602485fd5b8280fd5b83833461013d578160031936011261013d57805190828454600181811c908083169283156103fe575b60209384841081146103eb578388529081156103cf575060011461037a575b505050829003601f01601f191682019267ffffffffffffffff8411838510176103675750829182610363925282610804565b0390f35b634e487b7160e01b815260418552602490fd5b8787529192508591837f8a35acfbc15ff81a39ae7d344fd709f28e8600b4aa8c65c6b64bfe7fe36bd19b5b8385106103bb5750505050830101858080610331565b8054888601830152930192849082016103a5565b60ff1916878501525050151560051b8401019050858080610331565b634e487b7160e01b895260228a52602489fd5b91607f1691610312565b50503461013d578060031936011261013d576001600160a01b0361042a61085b565b1682526007602052808220610442602435825461088c565b905551f35b50503461013d57602036600319011261013d5760209181906001600160a01b0361046f61085b565b16815280845220549051908152f35b50503461013d578060031936011261013d5761049861085b565b602435908115158092036104c85760018060a01b0316835260066020528183209060ff8019835416911617905551f35b8380fd5b9050346102e557816003193601126102e5576104e661085b565b6001600160a01b03169060243590821561054757507fddf252ad1be2c89b69c2b068fc378daa952ba7f163c4a11628f55a4df523b3ef60208261052c879460025461088c565b6002558484528382528584208181540190558551908152a351f35b606490602085519162461bcd60e51b8352820152601f60248201527f45524332303a206d696e7420746f20746865207a65726f2061646472657373006044820152fd5b50503461013d578060031936011261013d576101a16020926105d36105ad61085b565b338352600186528483206001600160a01b0382168452865291849020546024359061088c565b9033610a1c565b50503461013d578160031936011261013d57516000198152602090f35b50503461013d578160031936011261013d5760209060ff600554169051908152f35b8391503461013d57606036600319011261013d5761063561085b565b61063d610876565b91846044359460018060a01b038416815260016020528181203382526020522054906000198203610677575b6020866101a18787876108ae565b8482106106a05750918391610695602096956101a195033383610a1c565b919394819350610669565b606490602087519162461bcd60e51b8352820152601d60248201527f45524332303a20696e73756666696369656e7420616c6c6f77616e63650000006044820152fd5b50503461013d578160031936011261013d576020906002549051908152f35b50503461013d578060031936011261013d576020906101a161072261085b565b6024359033610a1c565b849084346102e557826003193601126102e55782600354600181811c908083169283156107fa575b60209384841081146103eb578388529081156103cf57506001146107a457505050829003601f01601f191682019267ffffffffffffffff8411838510176103675750829182610363925282610804565b600387529192508591837fc2575a0e9e593c00f959f8c92f12db2869c3395a3b0502d05e2516446f71f85b5b8385106107e65750505050830101858080610331565b8054888601830152930192849082016107d0565b91607f1691610754565b919091602080825283519081818401526000945b828610610845575050806040939411610838575b601f01601f1916010190565b600083828401015261082c565b8581018201518487016040015294810194610818565b600435906001600160a01b038216820361087157565b600080fd5b602435906001600160a01b038216820361087157565b81198111610898570190565b634e487b7160e01b600052601160045260246000fd5b6001600160a01b039081169182156109c957169182156109785760008281528060205260408120549180831061092457604082827fddf252ad1be2c89b69c2b068fc378daa952ba7f163c4a11628f55a4df523b3ef958760209652828652038282205586815220818154019055604051908152a3565b60405162461bcd60e51b815260206004820152602660248201527f45524332303a207472616e7366657220616d6f756e7420657863656564732062604482015265616c616e636560d01b6064820152608490fd5b60405162461bcd60e51b815260206004820152602360248201527f45524332303a207472616e7366657220746f20746865207a65726f206164647260448201526265737360e81b6064820152608490fd5b60405162461bcd60e51b815260206004820152602560248201527f45524332303a207472616e736665722066726f6d20746865207a65726f206164604482015264647265737360d81b6064820152608490fd5b6001600160a01b03908116918215610acd5716918215610a7d5760207f8c5be1e5ebec7d5bd14f71427d1e84f3dd0314c0f7b2291e5b200ac8c7c3b925918360005260018252604060002085600052825280604060002055604051908152a3565b60405162461bcd60e51b815260206004820152602260248201527f45524332303a20617070726f766520746f20746865207a65726f206164647265604482015261737360f01b6064820152608490fd5b60405162461bcd60e51b8152602060048201526024808201527f45524332303a20617070726f76652066726f6d20746865207a65726f206164646044820152637265737360e01b6064820152608490fdfea264697066735822122034eed3aeaec90d867492c509db50cb5b06c8847b338bc6601bb13590350654fd64736f6c634300080f0033",
  "devdoc": {
    "kind": "dev",
    "methods": {
      "allowance(address,address)": {
        "details": "See {IERC20-allowance}."
      },
      "approve(address,uint256)": {
        "details": "See {IERC20-approve}. NOTE: If `amount` is the maximum `uint256`, the allowance is not updated on `transferFrom`. This is semantically equivalent to an infinite approval. Requirements: - `spender` cannot be the zero address."
      },
      "balanceOf(address)": {
        "details": "See {IERC20-balanceOf}."
      },
      "decimals()": {
        "details": "Returns the number of decimals used to get its user representation. For example, if `decimals` equals `2`, a balance of `505` tokens should be displayed to a user as `5.05` (`505 / 10 ** 2`). Tokens usually opt for a value of 18, imitating the relationship between Ether and Wei. This is the value {ERC20} uses, unless this function is overridden; NOTE: This information is only used for _display_ purposes: it in no way affects any of the arithmetic of the contract, including {IERC20-balanceOf} and {IERC20-transfer}."
      },
      "decreaseAllowance(address,uint256)": {
        "details": "Atomically decreases the allowance granted to `spender` by the caller. This is an alternative to {approve} that can be used as a mitigation for problems described in {IERC20-approve}. Emits an {Approval} event indicating the updated allowance. Requirements: - `spender` cannot be the zero address. - `spender` must have allowance for the caller of at least `subtractedValue`."
      },
      "increaseAllowance(address,uint256)": {
        "details": "Atomically increases the allowance granted to `spender` by the caller. This is an alternative to {approve} that can be used as a mitigation for problems described in {IERC20-approve}. Emits an {Approval} event indicating the updated allowance. Requirements: - `spender` cannot be the zero address."
      },
      "name()": {
        "details": "Returns the name of the token."
      },
      "symbol()": {
        "details": "Returns the symbol of the token, usually a shorter version of the name."
      },
      "totalSupply()": {
        "details": "See {IERC20-totalSupply}."
      },
      "transfer(address,uint256)": {
        "details": "See {IERC20-transfer}. Requirements: - `to` cannot be the zero address. - the caller must have a balance of at least `amount`."
      },
      "transferFrom(address,address,uint256)": {
        "details": "See {IERC20-transferFrom}. Emits an {Approval} event indicating the updated allowance. This is not required by the EIP. See the note at the beginning of {ERC20}. NOTE: Does not update the allowance if the current allowance is the maximum `uint256`. Requirements: - `from` and `to` cannot be the zero address. - `from` must have a balance of at least `amount`. - the caller must have allowance for ``from``'s tokens of at least `amount`."
      }
    },
    "version": 1
  },
  "userdoc": {
    "kind": "user",
    "methods": {},
    "version": 1
  },
  "storageLayout": {
    "storage": [
      {
        "astId": 8925,
        "contract": "src/mock/MockVeDEG.sol:MockVeDEG",
        "label": "_balances",
        "offset": 0,
        "slot": "0",
        "type": "t_mapping(t_address,t_uint256)"
      },
      {
        "astId": 8931,
        "contract": "src/mock/MockVeDEG.sol:MockVeDEG",
        "label": "_allowances",
        "offset": 0,
        "slot": "1",
        "type": "t_mapping(t_address,t_mapping(t_address,t_uint256))"
      },
      {
        "astId": 8933,
        "contract": "src/mock/MockVeDEG.sol:MockVeDEG",
        "label": "_totalSupply",
        "offset": 0,
        "slot": "2",
        "type": "t_uint256"
      },
      {
        "astId": 8935,
        "contract": "src/mock/MockVeDEG.sol:MockVeDEG",
        "label": "_name",
        "offset": 0,
        "slot": "3",
        "type": "t_string_storage"
      },
      {
        "astId": 8937,
        "contract": "src/mock/MockVeDEG.sol:MockVeDEG",
        "label": "_symbol",
        "offset": 0,
        "slot": "4",
        "type": "t_string_storage"
      },
      {
        "astId": 16702,
        "contract": "src/mock/MockVeDEG.sol:MockVeDEG",
        "label": "_decimals",
        "offset": 0,
        "slot": "5",
        "type": "t_uint8"
      },
      {
        "astId": 16706,
        "contract": "src/mock/MockVeDEG.sol:MockVeDEG",
        "label": "whitelist",
        "offset": 0,
        "slot": "6",
        "type": "t_mapping(t_address,t_bool)"
      },
      {
        "astId": 16710,
        "contract": "src/mock/MockVeDEG.sol:MockVeDEG",
        "label": "locked",
        "offset": 0,
        "slot": "7",
        "type": "t_mapping(t_address,t_uint256)"
      }
    ],
    "types": {
      "t_address": {
        "encoding": "inplace",
        "label": "address",
        "numberOfBytes": "20"
      },
      "t_bool": {
        "encoding": "inplace",
        "label": "bool",
        "numberOfBytes": "1"
      },
      "t_mapping(t_address,t_bool)": {
        "encoding": "mapping",
        "key": "t_address",
        "label": "mapping(address => bool)",
        "numberOfBytes": "32",
        "value": "t_bool"
      },
      "t_mapping(t_address,t_mapping(t_address,t_uint256))": {
        "encoding": "mapping",
        "key": "t_address",
        "label": "mapping(address => mapping(address => uint256))",
        "numberOfBytes": "32",
        "value": "t_mapping(t_address,t_uint256)"
      },
      "t_mapping(t_address,t_uint256)": {
        "encoding": "mapping",
        "key": "t_address",
        "label": "mapping(address => uint256)",
        "numberOfBytes": "32",
        "value": "t_uint256"
      },
      "t_string_storage": {
        "encoding": "bytes",
        "label": "string",
        "numberOfBytes": "32"
      },
      "t_uint256": {
        "encoding": "inplace",
        "label": "uint256",
        "numberOfBytes": "32"
      },
      "t_uint8": {
        "encoding": "inplace",
        "label": "uint8",
        "numberOfBytes": "1"
      }
    }
  }
}