{
  "address": "0x2afE704De753dDD32DC39f41C5F9D5df4bFc71F0",
  "abi": [
    {
      "inputs": [
        {
          "internalType": "uint256",
          "name": "_initialAmount",
          "type": "uint256"
        },
        {
          "internalType": "string",
          "name": "_tokenName",
          "type": "string"
        },
        {
          "internalType": "uint8",
          "name": "_decimalUnits",
          "type": "uint8"
        },
        {
          "internalType": "string",
          "name": "_tokenSymbol",
          "type": "string"
        }
      ],
      "stateMutability": "nonpayable",
      "type": "constructor"
    },
    {
      "anonymous": false,
      "inputs": [
        {
          "indexed": true,
          "internalType": "address",
          "name": "owner",
          "type": "address"
        },
        {
          "indexed": true,
          "internalType": "address",
          "name": "spender",
          "type": "address"
        },
        {
          "indexed": false,
          "internalType": "uint256",
          "name": "value",
          "type": "uint256"
        }
      ],
      "name": "Approval",
      "type": "event"
    },
    {
      "anonymous": false,
      "inputs": [
        {
          "indexed": true,
          "internalType": "address",
          "name": "from",
          "type": "address"
        },
        {
          "indexed": true,
          "internalType": "address",
          "name": "to",
          "type": "address"
        },
        {
          "indexed": false,
          "internalType": "uint256",
          "name": "value",
          "type": "uint256"
        }
      ],
      "name": "Transfer",
      "type": "event"
    },
    {
      "inputs": [],
      "name": "MAX_UINT256",
      "outputs": [
        {
          "internalType": "uint256",
          "name": "",
          "type": "uint256"
        }
      ],
      "stateMutability": "view",
      "type": "function"
    },
    {
      "inputs": [],
      "name": "_decimals",
      "outputs": [
        {
          "internalType": "uint8",
          "name": "",
          "type": "uint8"
        }
      ],
      "stateMutability": "view",
      "type": "function"
    },
    {
      "inputs": [
        {
          "internalType": "address",
          "name": "owner",
          "type": "address"
        },
        {
          "internalType": "address",
          "name": "spender",
          "type": "address"
        }
      ],
      "name": "allowance",
      "outputs": [
        {
          "internalType": "uint256",
          "name": "",
          "type": "uint256"
        }
      ],
      "stateMutability": "view",
      "type": "function"
    },
    {
      "inputs": [
        {
          "internalType": "address",
          "name": "spender",
          "type": "address"
        },
        {
          "internalType": "uint256",
          "name": "amount",
          "type": "uint256"
        }
      ],
      "name": "approve",
      "outputs": [
        {
          "internalType": "bool",
          "name": "",
          "type": "bool"
        }
      ],
      "stateMutability": "nonpayable",
      "type": "function"
    },
    {
      "inputs": [
        {
          "internalType": "address",
          "name": "account",
          "type": "address"
        }
      ],
      "name": "balanceOf",
      "outputs": [
        {
          "internalType": "uint256",
          "name": "",
          "type": "uint256"
        }
      ],
      "stateMutability": "view",
      "type": "function"
    },
    {
      "inputs": [
        {
          "internalType": "address",
          "name": "_to",
          "type": "address"
        },
        {
          "internalType": "uint256",
          "name": "_amount",
          "type": "uint256"
        }
      ],
      "name": "burn",
      "outputs": [],
      "stateMutability": "nonpayable",
      "type": "function"
    },
    {
      "inputs": [],
      "name": "decimals",
      "outputs": [
        {
          "internalType": "uint8",
          "name": "",
          "type": "uint8"
        }
      ],
      "stateMutability": "view",
      "type": "function"
    },
    {
      "inputs": [
        {
          "internalType": "address",
          "name": "spender",
          "type": "address"
        },
        {
          "internalType": "uint256",
          "name": "subtractedValue",
          "type": "uint256"
        }
      ],
      "name": "decreaseAllowance",
      "outputs": [
        {
          "internalType": "bool",
          "name": "",
          "type": "bool"
        }
      ],
      "stateMutability": "nonpayable",
      "type": "function"
    },
    {
      "inputs": [
        {
          "internalType": "address",
          "name": "spender",
          "type": "address"
        },
        {
          "internalType": "uint256",
          "name": "addedValue",
          "type": "uint256"
        }
      ],
      "name": "increaseAllowance",
      "outputs": [
        {
          "internalType": "bool",
          "name": "",
          "type": "bool"
        }
      ],
      "stateMutability": "nonpayable",
      "type": "function"
    },
    {
      "inputs": [
        {
          "internalType": "address",
          "name": "_to",
          "type": "address"
        },
        {
          "internalType": "uint256",
          "name": "_amount",
          "type": "uint256"
        }
      ],
      "name": "mint",
      "outputs": [],
      "stateMutability": "nonpayable",
      "type": "function"
    },
    {
      "inputs": [],
      "name": "name",
      "outputs": [
        {
          "internalType": "string",
          "name": "",
          "type": "string"
        }
      ],
      "stateMutability": "view",
      "type": "function"
    },
    {
      "inputs": [],
      "name": "symbol",
      "outputs": [
        {
          "internalType": "string",
          "name": "",
          "type": "string"
        }
      ],
      "stateMutability": "view",
      "type": "function"
    },
    {
      "inputs": [],
      "name": "totalSupply",
      "outputs": [
        {
          "internalType": "uint256",
          "name": "",
          "type": "uint256"
        }
      ],
      "stateMutability": "view",
      "type": "function"
    },
    {
      "inputs": [
        {
          "internalType": "address",
          "name": "to",
          "type": "address"
        },
        {
          "internalType": "uint256",
          "name": "amount",
          "type": "uint256"
        }
      ],
      "name": "transfer",
      "outputs": [
        {
          "internalType": "bool",
          "name": "",
          "type": "bool"
        }
      ],
      "stateMutability": "nonpayable",
      "type": "function"
    },
    {
      "inputs": [
        {
          "internalType": "address",
          "name": "from",
          "type": "address"
        },
        {
          "internalType": "address",
          "name": "to",
          "type": "address"
        },
        {
          "internalType": "uint256",
          "name": "amount",
          "type": "uint256"
        }
      ],
      "name": "transferFrom",
      "outputs": [
        {
          "internalType": "bool",
          "name": "",
          "type": "bool"
        }
      ],
      "stateMutability": "nonpayable",
      "type": "function"
    }
  ],
  "transactionHash": "0xaa2388b93d2ad357f64e98fcdcd7d134fb7c19e8a536b16301cc75e23ae82d64",
  "args": [
    0,
    "Shield",
    6,
    "SHD"
  ],
  "numDeployments": 5,
  "solcInputHash": "0defec3432563379ae479999b8e13e20",
  "bytecode": "0x60406080815234620003e95762000f88803803806200001e81620003ee565b928339810190608081830312620003e9578051602080830151919290916001600160401b0390818111620003e957856200005a91840162000414565b91868101519560ff8716809703620003e9576060820151838111620003e95762000085920162000414565b91805191808311620002e95760038054936001938486811c96168015620003de575b88871014620003c8578190601f9687811162000372575b5088908783116001146200030b57600092620002ff575b505060001982841b1c191690841b1781555b8451918211620002e95760049485548481811c91168015620002de575b88821014620002c9578581116200027e575b508690858411600114620002135793839491849260009562000207575b50501b92600019911b1c19161782555b3315620001c857506002549083198211620001b35750600091837fddf252ad1be2c89b69c2b068fc378daa952ba7f163c4a11628f55a4df523b3ef920160025533835282815285832084815401905585519384523393a360ff19600554161760055551610af09081620004988239f35b601190634e487b7160e01b6000525260246000fd5b60649286519262461bcd60e51b845283015260248201527f45524332303a206d696e7420746f20746865207a65726f2061646472657373006044820152fd5b01519350388062000133565b9190601f198416928760005284896000209460005b8b898383106200026657505050106200024b575b50505050811b01825562000143565b01519060f884600019921b161c19169055388080806200023c565b86860151895590970196948501948893500162000228565b86600052876000208680860160051c8201928a8710620002bf575b0160051c019085905b828110620002b257505062000116565b60008155018590620002a2565b9250819262000299565b602287634e487b7160e01b6000525260246000fd5b90607f169062000104565b634e487b7160e01b600052604160045260246000fd5b015190503880620000d5565b90869350601f19831691856000528a6000209260005b8c8282106200035b575050841162000342575b505050811b018155620000e7565b015160001983861b60f8161c1916905538808062000334565b8385015186558a9790950194938401930162000321565b90915083600052886000208780850160051c8201928b8610620003be575b918891869594930160051c01915b828110620003ae575050620000be565b600081558594508891016200039e565b9250819262000390565b634e487b7160e01b600052602260045260246000fd5b95607f1695620000a7565b600080fd5b6040519190601f01601f191682016001600160401b03811183821017620002e957604052565b81601f82011215620003e9578051906001600160401b038211620002e95760209062000449601f8401601f19168301620003ee565b93838552828483010111620003e95782906000905b838383106200047e575050116200047457505090565b6000918301015290565b819350828193920101518282880101520183916200045e56fe608060408181526004918236101561001657600080fd5b600092833560e01c91826306fdde03146106c857508163095ea7b31461069e57816318160ddd1461067f57816323b872dd146105b5578163313ce5671461059357816332424aa31461059357816333a581d214610576578163395093511461052657816340c10f191461046857816370a082311461043157816395d89b41146103125781639dc29fac146101ed578163a457c2d71461014557508063a9059cbb146101155763dd62ed3e146100ca57600080fd5b34610111578060031936011261011157806020926100e66107f7565b6100ee610812565b6001600160a01b0391821683526001865283832091168252845220549051908152f35b5080fd5b503461011157806003193601126101115760209061013e6101346107f7565b602435903361084a565b5160018152f35b905082346101ea57826003193601126101ea576101606107f7565b918360243592338152600160205281812060018060a01b03861682526020522054908282106101995760208561013e85850387336109b8565b608490602086519162461bcd60e51b8352820152602560248201527f45524332303a2064656372656173656420616c6c6f77616e63652062656c6f77604482015264207a65726f60d81b6064820152fd5b80fd5b90503461030e578160031936011261030e576102076107f7565b6001600160a01b0316906024359082156102c157828552846020528385205490828210610273575060208284937fddf252ad1be2c89b69c2b068fc378daa952ba7f163c4a11628f55a4df523b3ef9388968752868452038686205580600254036002558551908152a351f35b608490602086519162461bcd60e51b8352820152602260248201527f45524332303a206275726e20616d6f756e7420657863656564732062616c616e604482015261636560f01b6064820152fd5b608490602085519162461bcd60e51b8352820152602160248201527f45524332303a206275726e2066726f6d20746865207a65726f206164647265736044820152607360f81b6064820152fd5b8280fd5b838334610111578160031936011261011157805190828454600181811c90808316928315610427575b6020938484108114610414578388529081156103f857506001146103a3575b505050829003601f01601f191682019267ffffffffffffffff841183851017610390575082918261038c9252826107a0565b0390f35b634e487b7160e01b815260418552602490fd5b8787529192508591837f8a35acfbc15ff81a39ae7d344fd709f28e8600b4aa8c65c6b64bfe7fe36bd19b5b8385106103e4575050505083010185808061035a565b8054888601830152930192849082016103ce565b60ff1916878501525050151560051b840101905085808061035a565b634e487b7160e01b895260228a52602489fd5b91607f169161033b565b5050346101115760203660031901126101115760209181906001600160a01b036104596107f7565b16815280845220549051908152f35b90503461030e578160031936011261030e576104826107f7565b6001600160a01b0316906024359082156104e357507fddf252ad1be2c89b69c2b068fc378daa952ba7f163c4a11628f55a4df523b3ef6020826104c88794600254610828565b6002558484528382528584208181540190558551908152a351f35b606490602085519162461bcd60e51b8352820152601f60248201527f45524332303a206d696e7420746f20746865207a65726f2061646472657373006044820152fd5b50503461011157806003193601126101115761013e60209261056f6105496107f7565b338352600186528483206001600160a01b03821684528652918490205460243590610828565b90336109b8565b505034610111578160031936011261011157516000198152602090f35b50503461011157816003193601126101115760209060ff600554169051908152f35b83915034610111576060366003190112610111576105d16107f7565b6105d9610812565b91846044359460018060a01b038416815260016020528181203382526020522054906000198203610613575b60208661013e87878761084a565b84821061063c57509183916106316020969561013e950333836109b8565b919394819350610605565b606490602087519162461bcd60e51b8352820152601d60248201527f45524332303a20696e73756666696369656e7420616c6c6f77616e63650000006044820152fd5b5050346101115781600319360112610111576020906002549051908152f35b50503461011157806003193601126101115760209061013e6106be6107f7565b60243590336109b8565b8490843461030e578260031936011261030e5782600354600181811c90808316928315610796575b6020938484108114610414578388529081156103f8575060011461074057505050829003601f01601f191682019267ffffffffffffffff841183851017610390575082918261038c9252826107a0565b600387529192508591837fc2575a0e9e593c00f959f8c92f12db2869c3395a3b0502d05e2516446f71f85b5b838510610782575050505083010185808061035a565b80548886018301529301928490820161076c565b91607f16916106f0565b919091602080825283519081818401526000945b8286106107e15750508060409394116107d4575b601f01601f1916010190565b60008382840101526107c8565b85810182015184870160400152948101946107b4565b600435906001600160a01b038216820361080d57565b600080fd5b602435906001600160a01b038216820361080d57565b81198111610834570190565b634e487b7160e01b600052601160045260246000fd5b6001600160a01b039081169182156109655716918215610914576000828152806020526040812054918083106108c057604082827fddf252ad1be2c89b69c2b068fc378daa952ba7f163c4a11628f55a4df523b3ef958760209652828652038282205586815220818154019055604051908152a3565b60405162461bcd60e51b815260206004820152602660248201527f45524332303a207472616e7366657220616d6f756e7420657863656564732062604482015265616c616e636560d01b6064820152608490fd5b60405162461bcd60e51b815260206004820152602360248201527f45524332303a207472616e7366657220746f20746865207a65726f206164647260448201526265737360e81b6064820152608490fd5b60405162461bcd60e51b815260206004820152602560248201527f45524332303a207472616e736665722066726f6d20746865207a65726f206164604482015264647265737360d81b6064820152608490fd5b6001600160a01b03908116918215610a695716918215610a195760207f8c5be1e5ebec7d5bd14f71427d1e84f3dd0314c0f7b2291e5b200ac8c7c3b925918360005260018252604060002085600052825280604060002055604051908152a3565b60405162461bcd60e51b815260206004820152602260248201527f45524332303a20617070726f766520746f20746865207a65726f206164647265604482015261737360f01b6064820152608490fd5b60405162461bcd60e51b8152602060048201526024808201527f45524332303a20617070726f76652066726f6d20746865207a65726f206164646044820152637265737360e01b6064820152608490fdfea264697066735822122026f4d9d1a7957baa821a6bbbfc9436adc6a32d7e05a56149054d0597fb5b3d2364736f6c634300080f0033",
  "devdoc": {
    "kind": "dev",
    "methods": {
      "allowance(address,address)": {
        "details": "See {IERC20-allowance}."
      },
      "approve(address,uint256)": {
        "details": "See {IERC20-approve}. NOTE: If `amount` is the maximum `uint256`, the allowance is not updated on `transferFrom`. This is semantically equivalent to an infinite approval. Requirements: - `spender` cannot be the zero address."
      },
      "balanceOf(address)": {
        "details": "See {IERC20-balanceOf}."
      },
      "decimals()": {
        "details": "Returns the number of decimals used to get its user representation. For example, if `decimals` equals `2`, a balance of `505` tokens should be displayed to a user as `5.05` (`505 / 10 ** 2`). Tokens usually opt for a value of 18, imitating the relationship between Ether and Wei. This is the value {ERC20} uses, unless this function is overridden; NOTE: This information is only used for _display_ purposes: it in no way affects any of the arithmetic of the contract, including {IERC20-balanceOf} and {IERC20-transfer}."
      },
      "decreaseAllowance(address,uint256)": {
        "details": "Atomically decreases the allowance granted to `spender` by the caller. This is an alternative to {approve} that can be used as a mitigation for problems described in {IERC20-approve}. Emits an {Approval} event indicating the updated allowance. Requirements: - `spender` cannot be the zero address. - `spender` must have allowance for the caller of at least `subtractedValue`."
      },
      "increaseAllowance(address,uint256)": {
        "details": "Atomically increases the allowance granted to `spender` by the caller. This is an alternative to {approve} that can be used as a mitigation for problems described in {IERC20-approve}. Emits an {Approval} event indicating the updated allowance. Requirements: - `spender` cannot be the zero address."
      },
      "name()": {
        "details": "Returns the name of the token."
      },
      "symbol()": {
        "details": "Returns the symbol of the token, usually a shorter version of the name."
      },
      "totalSupply()": {
        "details": "See {IERC20-totalSupply}."
      },
      "transfer(address,uint256)": {
        "details": "See {IERC20-transfer}. Requirements: - `to` cannot be the zero address. - the caller must have a balance of at least `amount`."
      },
      "transferFrom(address,address,uint256)": {
        "details": "See {IERC20-transferFrom}. Emits an {Approval} event indicating the updated allowance. This is not required by the EIP. See the note at the beginning of {ERC20}. NOTE: Does not update the allowance if the current allowance is the maximum `uint256`. Requirements: - `from` and `to` cannot be the zero address. - `from` must have a balance of at least `amount`. - the caller must have allowance for ``from``'s tokens of at least `amount`."
      }
    },
    "version": 1
  },
  "userdoc": {
    "kind": "user",
    "methods": {},
    "version": 1
  },
  "storageLayout": {
    "storage": [
      {
        "astId": 8925,
        "contract": "src/mock/MockSHIELD.sol:MockSHIELD",
        "label": "_balances",
        "offset": 0,
        "slot": "0",
        "type": "t_mapping(t_address,t_uint256)"
      },
      {
        "astId": 8931,
        "contract": "src/mock/MockSHIELD.sol:MockSHIELD",
        "label": "_allowances",
        "offset": 0,
        "slot": "1",
        "type": "t_mapping(t_address,t_mapping(t_address,t_uint256))"
      },
      {
        "astId": 8933,
        "contract": "src/mock/MockSHIELD.sol:MockSHIELD",
        "label": "_totalSupply",
        "offset": 0,
        "slot": "2",
        "type": "t_uint256"
      },
      {
        "astId": 8935,
        "contract": "src/mock/MockSHIELD.sol:MockSHIELD",
        "label": "_name",
        "offset": 0,
        "slot": "3",
        "type": "t_string_storage"
      },
      {
        "astId": 8937,
        "contract": "src/mock/MockSHIELD.sol:MockSHIELD",
        "label": "_symbol",
        "offset": 0,
        "slot": "4",
        "type": "t_string_storage"
      },
      {
        "astId": 16626,
        "contract": "src/mock/MockSHIELD.sol:MockSHIELD",
        "label": "_decimals",
        "offset": 0,
        "slot": "5",
        "type": "t_uint8"
      }
    ],
    "types": {
      "t_address": {
        "encoding": "inplace",
        "label": "address",
        "numberOfBytes": "20"
      },
      "t_mapping(t_address,t_mapping(t_address,t_uint256))": {
        "encoding": "mapping",
        "key": "t_address",
        "label": "mapping(address => mapping(address => uint256))",
        "numberOfBytes": "32",
        "value": "t_mapping(t_address,t_uint256)"
      },
      "t_mapping(t_address,t_uint256)": {
        "encoding": "mapping",
        "key": "t_address",
        "label": "mapping(address => uint256)",
        "numberOfBytes": "32",
        "value": "t_uint256"
      },
      "t_string_storage": {
        "encoding": "bytes",
        "label": "string",
        "numberOfBytes": "32"
      },
      "t_uint256": {
        "encoding": "inplace",
        "label": "uint256",
        "numberOfBytes": "32"
      },
      "t_uint8": {
        "encoding": "inplace",
        "label": "uint8",
        "numberOfBytes": "1"
      }
    }
  }
}