{
  "address": "0x83D7AeDe0e4fEe7C85D6803fb839E4472cCa7ca2",
  "abi": [
    {
      "inputs": [
        {
          "internalType": "uint256",
          "name": "_initialAmount",
          "type": "uint256"
        },
        {
          "internalType": "string",
          "name": "_tokenName",
          "type": "string"
        },
        {
          "internalType": "uint8",
          "name": "_decimalUnits",
          "type": "uint8"
        },
        {
          "internalType": "string",
          "name": "_tokenSymbol",
          "type": "string"
        }
      ],
      "stateMutability": "nonpayable",
      "type": "constructor"
    },
    {
      "anonymous": false,
      "inputs": [
        {
          "indexed": true,
          "internalType": "address",
          "name": "owner",
          "type": "address"
        },
        {
          "indexed": true,
          "internalType": "address",
          "name": "spender",
          "type": "address"
        },
        {
          "indexed": false,
          "internalType": "uint256",
          "name": "value",
          "type": "uint256"
        }
      ],
      "name": "Approval",
      "type": "event"
    },
    {
      "anonymous": false,
      "inputs": [
        {
          "indexed": true,
          "internalType": "address",
          "name": "from",
          "type": "address"
        },
        {
          "indexed": true,
          "internalType": "address",
          "name": "to",
          "type": "address"
        },
        {
          "indexed": false,
          "internalType": "uint256",
          "name": "value",
          "type": "uint256"
        }
      ],
      "name": "Transfer",
      "type": "event"
    },
    {
      "inputs": [],
      "name": "MAX_UINT256",
      "outputs": [
        {
          "internalType": "uint256",
          "name": "",
          "type": "uint256"
        }
      ],
      "stateMutability": "view",
      "type": "function"
    },
    {
      "inputs": [],
      "name": "_decimals",
      "outputs": [
        {
          "internalType": "uint8",
          "name": "",
          "type": "uint8"
        }
      ],
      "stateMutability": "view",
      "type": "function"
    },
    {
      "inputs": [
        {
          "internalType": "address",
          "name": "owner",
          "type": "address"
        },
        {
          "internalType": "address",
          "name": "spender",
          "type": "address"
        }
      ],
      "name": "allowance",
      "outputs": [
        {
          "internalType": "uint256",
          "name": "",
          "type": "uint256"
        }
      ],
      "stateMutability": "view",
      "type": "function"
    },
    {
      "inputs": [
        {
          "internalType": "address",
          "name": "",
          "type": "address"
        }
      ],
      "name": "alreadyMinted",
      "outputs": [
        {
          "internalType": "bool",
          "name": "",
          "type": "bool"
        }
      ],
      "stateMutability": "view",
      "type": "function"
    },
    {
      "inputs": [
        {
          "internalType": "address",
          "name": "spender",
          "type": "address"
        },
        {
          "internalType": "uint256",
          "name": "amount",
          "type": "uint256"
        }
      ],
      "name": "approve",
      "outputs": [
        {
          "internalType": "bool",
          "name": "",
          "type": "bool"
        }
      ],
      "stateMutability": "nonpayable",
      "type": "function"
    },
    {
      "inputs": [
        {
          "internalType": "address",
          "name": "account",
          "type": "address"
        }
      ],
      "name": "balanceOf",
      "outputs": [
        {
          "internalType": "uint256",
          "name": "",
          "type": "uint256"
        }
      ],
      "stateMutability": "view",
      "type": "function"
    },
    {
      "inputs": [],
      "name": "decimals",
      "outputs": [
        {
          "internalType": "uint8",
          "name": "",
          "type": "uint8"
        }
      ],
      "stateMutability": "view",
      "type": "function"
    },
    {
      "inputs": [
        {
          "internalType": "address",
          "name": "spender",
          "type": "address"
        },
        {
          "internalType": "uint256",
          "name": "subtractedValue",
          "type": "uint256"
        }
      ],
      "name": "decreaseAllowance",
      "outputs": [
        {
          "internalType": "bool",
          "name": "",
          "type": "bool"
        }
      ],
      "stateMutability": "nonpayable",
      "type": "function"
    },
    {
      "inputs": [
        {
          "internalType": "address",
          "name": "spender",
          "type": "address"
        },
        {
          "internalType": "uint256",
          "name": "addedValue",
          "type": "uint256"
        }
      ],
      "name": "increaseAllowance",
      "outputs": [
        {
          "internalType": "bool",
          "name": "",
          "type": "bool"
        }
      ],
      "stateMutability": "nonpayable",
      "type": "function"
    },
    {
      "inputs": [
        {
          "internalType": "address",
          "name": "_owner",
          "type": "address"
        },
        {
          "internalType": "uint256",
          "name": "_value",
          "type": "uint256"
        }
      ],
      "name": "lockVeDEG",
      "outputs": [],
      "stateMutability": "nonpayable",
      "type": "function"
    },
    {
      "inputs": [
        {
          "internalType": "address",
          "name": "",
          "type": "address"
        }
      ],
      "name": "locked",
      "outputs": [
        {
          "internalType": "uint256",
          "name": "",
          "type": "uint256"
        }
      ],
      "stateMutability": "view",
      "type": "function"
    },
    {
      "inputs": [
        {
          "internalType": "address",
          "name": "_user",
          "type": "address"
        },
        {
          "internalType": "uint256",
          "name": "_amount",
          "type": "uint256"
        }
      ],
      "name": "mint",
      "outputs": [],
      "stateMutability": "nonpayable",
      "type": "function"
    },
    {
      "inputs": [],
      "name": "name",
      "outputs": [
        {
          "internalType": "string",
          "name": "",
          "type": "string"
        }
      ],
      "stateMutability": "view",
      "type": "function"
    },
    {
      "inputs": [],
      "name": "owner",
      "outputs": [
        {
          "internalType": "address",
          "name": "",
          "type": "address"
        }
      ],
      "stateMutability": "view",
      "type": "function"
    },
    {
      "inputs": [],
      "name": "symbol",
      "outputs": [
        {
          "internalType": "string",
          "name": "",
          "type": "string"
        }
      ],
      "stateMutability": "view",
      "type": "function"
    },
    {
      "inputs": [],
      "name": "totalSupply",
      "outputs": [
        {
          "internalType": "uint256",
          "name": "",
          "type": "uint256"
        }
      ],
      "stateMutability": "view",
      "type": "function"
    },
    {
      "inputs": [
        {
          "internalType": "address",
          "name": "to",
          "type": "address"
        },
        {
          "internalType": "uint256",
          "name": "amount",
          "type": "uint256"
        }
      ],
      "name": "transfer",
      "outputs": [
        {
          "internalType": "bool",
          "name": "",
          "type": "bool"
        }
      ],
      "stateMutability": "nonpayable",
      "type": "function"
    },
    {
      "inputs": [
        {
          "internalType": "address",
          "name": "from",
          "type": "address"
        },
        {
          "internalType": "address",
          "name": "to",
          "type": "address"
        },
        {
          "internalType": "uint256",
          "name": "amount",
          "type": "uint256"
        }
      ],
      "name": "transferFrom",
      "outputs": [
        {
          "internalType": "bool",
          "name": "",
          "type": "bool"
        }
      ],
      "stateMutability": "nonpayable",
      "type": "function"
    },
    {
      "inputs": [
        {
          "internalType": "address",
          "name": "_owner",
          "type": "address"
        },
        {
          "internalType": "uint256",
          "name": "_value",
          "type": "uint256"
        }
      ],
      "name": "unlockVeDEG",
      "outputs": [],
      "stateMutability": "nonpayable",
      "type": "function"
    }
  ],
  "transactionHash": "0x0fa11485650d256166e0a3f01ccac092efa11b3f69fa972f8fca8162068610a5",
  "args": [
    0,
    "VoteEscrowedDegis",
    18,
    "VeDEG"
  ],
  "numDeployments": 1,
  "solcInputHash": "e1ba30aa7fe1764f1fb0e486bbf521c6",
  "bytecode": "0x6040608081523462000217576200107e803803806200001e81620003fe565b92833981019060808183031262000217578051602080830151919290916001600160401b03908181116200021757856200005a91840162000424565b91868101519560ff871680970362000217576060820151838111620002175762000085920162000424565b91805191808311620002fe5760038054936001938486811c96168015620003f3575b88871014620003dd578190601f9687811162000387575b508890878311600114620003205760009262000314575b505060001982841b1c191690841b1781555b8451918211620002fe5760049485548481811c91168015620002f3575b88821014620002de5785811162000293575b50869085841160011462000228579383949184926000956200021c575b50501b92600019911b1c19161782555b6012850362000217573315620001d85750507fddf252ad1be2c89b69c2b068fc378daa952ba7f163c4a11628f55a4df523b3ef6000916200018784600254620004a7565b600255338352828152858320620001a0858254620004a7565b905585519384523393a36005805460ff1916919091179055600880546001600160a01b0319163317905551610bb39081620004cb8239f35b60649286519262461bcd60e51b845283015260248201527f45524332303a206d696e7420746f20746865207a65726f2061646472657373006044820152fd5b600080fd5b01519350388062000133565b9190601f198416928760005284896000209460005b8b898383106200027b575050501062000260575b50505050811b01825562000143565b01519060f884600019921b161c191690553880808062000251565b8686015189559097019694850194889350016200023d565b86600052876000208680860160051c8201928a8710620002d4575b0160051c019085905b828110620002c757505062000116565b60008155018590620002b7565b92508192620002ae565b602287634e487b7160e01b6000525260246000fd5b90607f169062000104565b634e487b7160e01b600052604160045260246000fd5b015190503880620000d5565b90869350601f19831691856000528a6000209260005b8c82821062000370575050841162000357575b505050811b018155620000e7565b015160001983861b60f8161c1916905538808062000349565b8385015186558a9790950194938401930162000336565b90915083600052886000208780850160051c8201928b8610620003d3575b918891869594930160051c01915b828110620003c3575050620000be565b60008155859450889101620003b3565b92508192620003a5565b634e487b7160e01b600052602260045260246000fd5b95607f1695620000a7565b6040519190601f01601f191682016001600160401b03811183821017620002fe57604052565b81601f8201121562000217578051906001600160401b038211620002fe5760209062000459601f8401601f19168301620003fe565b93838552828483010111620002175782906000905b838383106200048e575050116200048457505090565b6000918301015290565b819350828193920101518282880101520183916200046e565b81198111620004b4570190565b634e487b7160e01b600052601160045260246000fdfe608060408181526004918236101561001657600080fd5b600092833560e01c91826306fdde03146107a157508163095ea7b3146107775781630a398b881461073957816318160ddd1461071a57816323b872dd14610650578163313ce5671461062e57816332424aa31461062e57816333a581d21461061157816339509351146105c157816340c10f191461044c57816370a082311461041557816378ad54c2146103d65781638da5cb5b146103ad57816395d89b41146102ab57816397b85b6a14610250578163a457c2d7146101a857508063a9059cbb14610178578063cbf9fe5f146101415763dd62ed3e146100f657600080fd5b3461013d578060031936011261013d57806020926101126108b3565b61011a6108ce565b6001600160a01b0391821683526001865283832091168252845220549051908152f35b5080fd5b503461013d57602036600319011261013d5760209181906001600160a01b036101686108b3565b1681526006845220549051908152f35b503461013d578060031936011261013d576020906101a16101976108b3565b6024359033610906565b5160018152f35b9050823461024d578260031936011261024d576101c36108b3565b918360243592338152600160205281812060018060a01b03861682526020522054908282106101fc576020856101a18585038733610a7b565b608490602086519162461bcd60e51b8352820152602560248201527f45524332303a2064656372656173656420616c6c6f77616e63652062656c6f77604482015264207a65726f60d81b6064820152fd5b80fd5b9050346102a757816003193601126102a75761026a6108b3565b6001600160a01b031683526006602052818320805490916024359190828210610294575003905551f35b634e487b7160e01b865260119052602485fd5b8280fd5b83833461013d578160031936011261013d57805190828454600181811c908083169283156103a3575b602093848410811461039057838852908115610374575060011461033c575b505050829003601f01601f191682019267ffffffffffffffff841183851017610329575082918261032592528261085c565b0390f35b634e487b7160e01b815260418552602490fd5b919250868652828620918387935b83851061036057505050508301018580806102f3565b80548886018301529301928490820161034a565b60ff1916878501525050151560051b84010190508580806102f3565b634e487b7160e01b895260228a52602489fd5b91607f16916102d4565b50503461013d578160031936011261013d5760085490516001600160a01b039091168152602090f35b50503461013d578060031936011261013d576001600160a01b036103f86108b3565b168252600660205280822061041060243582546108e4565b905551f35b50503461013d57602036600319011261013d5760209181906001600160a01b0361043d6108b3565b16815280845220549051908152f35b9050346102a757816003193601126102a7576104666108b3565b600854602435916001600160a01b039182163303610534575b168085526007602052838520805460ff191660011790559182156104f157507fddf252ad1be2c89b69c2b068fc378daa952ba7f163c4a11628f55a4df523b3ef6020826104cf87946002546108e4565b6002558484528382528584206104e68282546108e4565b90558551908152a351f35b606490602085519162461bcd60e51b8352820152601f60248201527f45524332303a206d696e7420746f20746865207a65726f2061646472657373006044820152fd5b69021e19e0c9bab2400000830361058f578181168652600760205260ff85872054161561047f57845162461bcd60e51b8152602081860152600e60248201526d105b1c9958591e481b5a5b9d195960921b6044820152606490fd5b845162461bcd60e51b8152602081860152600c60248201526b15dc9bdb99c8185b5bdd5b9d60a21b6044820152606490fd5b50503461013d578060031936011261013d576101a160209261060a6105e46108b3565b338352600186528483206001600160a01b038216845286529184902054602435906108e4565b9033610a7b565b50503461013d578160031936011261013d57516000198152602090f35b50503461013d578160031936011261013d5760209060ff600554169051908152f35b8391503461013d57606036600319011261013d5761066c6108b3565b6106746108ce565b91846044359460018060a01b0384168152600160205281812033825260205220549060001982036106ae575b6020866101a1878787610906565b8482106106d757509183916106cc602096956101a195033383610a7b565b9193948193506106a0565b606490602087519162461bcd60e51b8352820152601d60248201527f45524332303a20696e73756666696369656e7420616c6c6f77616e63650000006044820152fd5b50503461013d578160031936011261013d576020906002549051908152f35b50503461013d57602036600319011261013d5760209160ff9082906001600160a01b036107646108b3565b1681526007855220541690519015158152f35b50503461013d578060031936011261013d576020906101a16107976108b3565b6024359033610a7b565b849084346102a757826003193601126102a75782600354600181811c90808316928315610852575b602093848410811461039057838852908115610374575060011461081957505050829003601f01601f191682019267ffffffffffffffff841183851017610329575082918261032592528261085c565b91925060038652828620918387935b83851061083e57505050508301018580806102f3565b805488860183015293019284908201610828565b91607f16916107c9565b919091602080825283519081818401526000945b82861061089d575050806040939411610890575b601f01601f1916010190565b6000838284010152610884565b8581018201518487016040015294810194610870565b600435906001600160a01b03821682036108c957565b600080fd5b602435906001600160a01b03821682036108c957565b811981116108f0570190565b634e487b7160e01b600052601160045260246000fd5b6001600160a01b03908116918215610a2857169182156109d75760008281528060205260408120549180831061098357604082827fddf252ad1be2c89b69c2b068fc378daa952ba7f163c4a11628f55a4df523b3ef9587602096528286520382822055868152206109788282546108e4565b9055604051908152a3565b60405162461bcd60e51b815260206004820152602660248201527f45524332303a207472616e7366657220616d6f756e7420657863656564732062604482015265616c616e636560d01b6064820152608490fd5b60405162461bcd60e51b815260206004820152602360248201527f45524332303a207472616e7366657220746f20746865207a65726f206164647260448201526265737360e81b6064820152608490fd5b60405162461bcd60e51b815260206004820152602560248201527f45524332303a207472616e736665722066726f6d20746865207a65726f206164604482015264647265737360d81b6064820152608490fd5b6001600160a01b03908116918215610b2c5716918215610adc5760207f8c5be1e5ebec7d5bd14f71427d1e84f3dd0314c0f7b2291e5b200ac8c7c3b925918360005260018252604060002085600052825280604060002055604051908152a3565b60405162461bcd60e51b815260206004820152602260248201527f45524332303a20617070726f766520746f20746865207a65726f206164647265604482015261737360f01b6064820152608490fd5b60405162461bcd60e51b8152602060048201526024808201527f45524332303a20617070726f76652066726f6d20746865207a65726f206164646044820152637265737360e01b6064820152608490fdfea26469706673582212209a0257945a863de6d34e94b9d9d5b767c15c7d1ea3c1150976c74e0ece08e4a664736f6c634300080f0033",
  "devdoc": {
    "kind": "dev",
    "methods": {
      "allowance(address,address)": {
        "details": "See {IERC20-allowance}."
      },
      "approve(address,uint256)": {
        "details": "See {IERC20-approve}. NOTE: If `amount` is the maximum `uint256`, the allowance is not updated on `transferFrom`. This is semantically equivalent to an infinite approval. Requirements: - `spender` cannot be the zero address."
      },
      "balanceOf(address)": {
        "details": "See {IERC20-balanceOf}."
      },
      "decimals()": {
        "details": "Returns the number of decimals used to get its user representation. For example, if `decimals` equals `2`, a balance of `505` tokens should be displayed to a user as `5.05` (`505 / 10 ** 2`). Tokens usually opt for a value of 18, imitating the relationship between Ether and Wei. This is the value {ERC20} uses, unless this function is overridden; NOTE: This information is only used for _display_ purposes: it in no way affects any of the arithmetic of the contract, including {IERC20-balanceOf} and {IERC20-transfer}."
      },
      "decreaseAllowance(address,uint256)": {
        "details": "Atomically decreases the allowance granted to `spender` by the caller. This is an alternative to {approve} that can be used as a mitigation for problems described in {IERC20-approve}. Emits an {Approval} event indicating the updated allowance. Requirements: - `spender` cannot be the zero address. - `spender` must have allowance for the caller of at least `subtractedValue`."
      },
      "increaseAllowance(address,uint256)": {
        "details": "Atomically increases the allowance granted to `spender` by the caller. This is an alternative to {approve} that can be used as a mitigation for problems described in {IERC20-approve}. Emits an {Approval} event indicating the updated allowance. Requirements: - `spender` cannot be the zero address."
      },
      "name()": {
        "details": "Returns the name of the token."
      },
      "symbol()": {
        "details": "Returns the symbol of the token, usually a shorter version of the name."
      },
      "totalSupply()": {
        "details": "See {IERC20-totalSupply}."
      },
      "transfer(address,uint256)": {
        "details": "See {IERC20-transfer}. Requirements: - `to` cannot be the zero address. - the caller must have a balance of at least `amount`."
      },
      "transferFrom(address,address,uint256)": {
        "details": "See {IERC20-transferFrom}. Emits an {Approval} event indicating the updated allowance. This is not required by the EIP. See the note at the beginning of {ERC20}. NOTE: Does not update the allowance if the current allowance is the maximum `uint256`. Requirements: - `from` and `to` cannot be the zero address. - `from` must have a balance of at least `amount`. - the caller must have allowance for ``from``'s tokens of at least `amount`."
      }
    },
    "version": 1
  },
  "userdoc": {
    "kind": "user",
    "methods": {},
    "version": 1
  },
  "storageLayout": {
    "storage": [
      {
        "astId": 1997,
        "contract": "src/mock/MockVeDEG.sol:MockVeDEG",
        "label": "_balances",
        "offset": 0,
        "slot": "0",
        "type": "t_mapping(t_address,t_uint256)"
      },
      {
        "astId": 2003,
        "contract": "src/mock/MockVeDEG.sol:MockVeDEG",
        "label": "_allowances",
        "offset": 0,
        "slot": "1",
        "type": "t_mapping(t_address,t_mapping(t_address,t_uint256))"
      },
      {
        "astId": 2005,
        "contract": "src/mock/MockVeDEG.sol:MockVeDEG",
        "label": "_totalSupply",
        "offset": 0,
        "slot": "2",
        "type": "t_uint256"
      },
      {
        "astId": 2007,
        "contract": "src/mock/MockVeDEG.sol:MockVeDEG",
        "label": "_name",
        "offset": 0,
        "slot": "3",
        "type": "t_string_storage"
      },
      {
        "astId": 2009,
        "contract": "src/mock/MockVeDEG.sol:MockVeDEG",
        "label": "_symbol",
        "offset": 0,
        "slot": "4",
        "type": "t_string_storage"
      },
      {
        "astId": 17177,
        "contract": "src/mock/MockVeDEG.sol:MockVeDEG",
        "label": "_decimals",
        "offset": 0,
        "slot": "5",
        "type": "t_uint8"
      },
      {
        "astId": 17181,
        "contract": "src/mock/MockVeDEG.sol:MockVeDEG",
        "label": "locked",
        "offset": 0,
        "slot": "6",
        "type": "t_mapping(t_address,t_uint256)"
      },
      {
        "astId": 17185,
        "contract": "src/mock/MockVeDEG.sol:MockVeDEG",
        "label": "alreadyMinted",
        "offset": 0,
        "slot": "7",
        "type": "t_mapping(t_address,t_bool)"
      },
      {
        "astId": 17187,
        "contract": "src/mock/MockVeDEG.sol:MockVeDEG",
        "label": "owner",
        "offset": 0,
        "slot": "8",
        "type": "t_address"
      }
    ],
    "types": {
      "t_address": {
        "encoding": "inplace",
        "label": "address",
        "numberOfBytes": "20"
      },
      "t_bool": {
        "encoding": "inplace",
        "label": "bool",
        "numberOfBytes": "1"
      },
      "t_mapping(t_address,t_bool)": {
        "encoding": "mapping",
        "key": "t_address",
        "label": "mapping(address => bool)",
        "numberOfBytes": "32",
        "value": "t_bool"
      },
      "t_mapping(t_address,t_mapping(t_address,t_uint256))": {
        "encoding": "mapping",
        "key": "t_address",
        "label": "mapping(address => mapping(address => uint256))",
        "numberOfBytes": "32",
        "value": "t_mapping(t_address,t_uint256)"
      },
      "t_mapping(t_address,t_uint256)": {
        "encoding": "mapping",
        "key": "t_address",
        "label": "mapping(address => uint256)",
        "numberOfBytes": "32",
        "value": "t_uint256"
      },
      "t_string_storage": {
        "encoding": "bytes",
        "label": "string",
        "numberOfBytes": "32"
      },
      "t_uint256": {
        "encoding": "inplace",
        "label": "uint256",
        "numberOfBytes": "32"
      },
      "t_uint8": {
        "encoding": "inplace",
        "label": "uint8",
        "numberOfBytes": "1"
      }
    }
  }
}