{
  "address": "0x55C3b411C19764b81c02EAC698a497f47A354426",
  "abi": [
    {
      "inputs": [
        {
          "internalType": "uint256",
          "name": "_initialAmount",
          "type": "uint256"
        },
        {
          "internalType": "string",
          "name": "_tokenName",
          "type": "string"
        },
        {
          "internalType": "uint8",
          "name": "_decimalUnits",
          "type": "uint8"
        },
        {
          "internalType": "string",
          "name": "_tokenSymbol",
          "type": "string"
        }
      ],
      "stateMutability": "nonpayable",
      "type": "constructor"
    },
    {
      "anonymous": false,
      "inputs": [
        {
          "indexed": true,
          "internalType": "address",
          "name": "owner",
          "type": "address"
        },
        {
          "indexed": true,
          "internalType": "address",
          "name": "spender",
          "type": "address"
        },
        {
          "indexed": false,
          "internalType": "uint256",
          "name": "value",
          "type": "uint256"
        }
      ],
      "name": "Approval",
      "type": "event"
    },
    {
      "anonymous": false,
      "inputs": [
        {
          "indexed": true,
          "internalType": "address",
          "name": "_from",
          "type": "address"
        },
        {
          "indexed": false,
          "internalType": "uint256",
          "name": "_value",
          "type": "uint256"
        }
      ],
      "name": "Deposit",
      "type": "event"
    },
    {
      "anonymous": false,
      "inputs": [
        {
          "indexed": true,
          "internalType": "address",
          "name": "from",
          "type": "address"
        },
        {
          "indexed": true,
          "internalType": "address",
          "name": "to",
          "type": "address"
        },
        {
          "indexed": false,
          "internalType": "uint256",
          "name": "value",
          "type": "uint256"
        }
      ],
      "name": "Transfer",
      "type": "event"
    },
    {
      "inputs": [],
      "name": "MAX_UINT256",
      "outputs": [
        {
          "internalType": "uint256",
          "name": "",
          "type": "uint256"
        }
      ],
      "stateMutability": "view",
      "type": "function"
    },
    {
      "inputs": [],
      "name": "_decimals",
      "outputs": [
        {
          "internalType": "uint8",
          "name": "",
          "type": "uint8"
        }
      ],
      "stateMutability": "view",
      "type": "function"
    },
    {
      "inputs": [
        {
          "internalType": "address",
          "name": "owner",
          "type": "address"
        },
        {
          "internalType": "address",
          "name": "spender",
          "type": "address"
        }
      ],
      "name": "allowance",
      "outputs": [
        {
          "internalType": "uint256",
          "name": "",
          "type": "uint256"
        }
      ],
      "stateMutability": "view",
      "type": "function"
    },
    {
      "inputs": [
        {
          "internalType": "address",
          "name": "",
          "type": "address"
        }
      ],
      "name": "alreadyMinted",
      "outputs": [
        {
          "internalType": "bool",
          "name": "",
          "type": "bool"
        }
      ],
      "stateMutability": "view",
      "type": "function"
    },
    {
      "inputs": [
        {
          "internalType": "address",
          "name": "spender",
          "type": "address"
        },
        {
          "internalType": "uint256",
          "name": "amount",
          "type": "uint256"
        }
      ],
      "name": "approve",
      "outputs": [
        {
          "internalType": "bool",
          "name": "",
          "type": "bool"
        }
      ],
      "stateMutability": "nonpayable",
      "type": "function"
    },
    {
      "inputs": [
        {
          "internalType": "address",
          "name": "account",
          "type": "address"
        }
      ],
      "name": "balanceOf",
      "outputs": [
        {
          "internalType": "uint256",
          "name": "",
          "type": "uint256"
        }
      ],
      "stateMutability": "view",
      "type": "function"
    },
    {
      "inputs": [
        {
          "internalType": "address",
          "name": "_to",
          "type": "address"
        },
        {
          "internalType": "uint256",
          "name": "_amount",
          "type": "uint256"
        }
      ],
      "name": "burn",
      "outputs": [],
      "stateMutability": "nonpayable",
      "type": "function"
    },
    {
      "inputs": [],
      "name": "decimals",
      "outputs": [
        {
          "internalType": "uint8",
          "name": "",
          "type": "uint8"
        }
      ],
      "stateMutability": "view",
      "type": "function"
    },
    {
      "inputs": [
        {
          "internalType": "address",
          "name": "spender",
          "type": "address"
        },
        {
          "internalType": "uint256",
          "name": "subtractedValue",
          "type": "uint256"
        }
      ],
      "name": "decreaseAllowance",
      "outputs": [
        {
          "internalType": "bool",
          "name": "",
          "type": "bool"
        }
      ],
      "stateMutability": "nonpayable",
      "type": "function"
    },
    {
      "inputs": [
        {
          "internalType": "uint256",
          "name": "_type",
          "type": "uint256"
        },
        {
          "internalType": "address",
          "name": "_token",
          "type": "address"
        },
        {
          "internalType": "uint256",
          "name": "_transfer",
          "type": "uint256"
        },
        {
          "internalType": "uint256",
          "name": "_minReceive",
          "type": "uint256"
        }
      ],
      "name": "deposit",
      "outputs": [],
      "stateMutability": "nonpayable",
      "type": "function"
    },
    {
      "inputs": [
        {
          "internalType": "address",
          "name": "spender",
          "type": "address"
        },
        {
          "internalType": "uint256",
          "name": "addedValue",
          "type": "uint256"
        }
      ],
      "name": "increaseAllowance",
      "outputs": [
        {
          "internalType": "bool",
          "name": "",
          "type": "bool"
        }
      ],
      "stateMutability": "nonpayable",
      "type": "function"
    },
    {
      "inputs": [
        {
          "internalType": "address",
          "name": "_to",
          "type": "address"
        },
        {
          "internalType": "uint256",
          "name": "_amount",
          "type": "uint256"
        }
      ],
      "name": "mint",
      "outputs": [],
      "stateMutability": "nonpayable",
      "type": "function"
    },
    {
      "inputs": [],
      "name": "name",
      "outputs": [
        {
          "internalType": "string",
          "name": "",
          "type": "string"
        }
      ],
      "stateMutability": "view",
      "type": "function"
    },
    {
      "inputs": [],
      "name": "owner",
      "outputs": [
        {
          "internalType": "address",
          "name": "",
          "type": "address"
        }
      ],
      "stateMutability": "view",
      "type": "function"
    },
    {
      "inputs": [],
      "name": "symbol",
      "outputs": [
        {
          "internalType": "string",
          "name": "",
          "type": "string"
        }
      ],
      "stateMutability": "view",
      "type": "function"
    },
    {
      "inputs": [],
      "name": "totalSupply",
      "outputs": [
        {
          "internalType": "uint256",
          "name": "",
          "type": "uint256"
        }
      ],
      "stateMutability": "view",
      "type": "function"
    },
    {
      "inputs": [
        {
          "internalType": "address",
          "name": "to",
          "type": "address"
        },
        {
          "internalType": "uint256",
          "name": "amount",
          "type": "uint256"
        }
      ],
      "name": "transfer",
      "outputs": [
        {
          "internalType": "bool",
          "name": "",
          "type": "bool"
        }
      ],
      "stateMutability": "nonpayable",
      "type": "function"
    },
    {
      "inputs": [
        {
          "internalType": "address",
          "name": "from",
          "type": "address"
        },
        {
          "internalType": "address",
          "name": "to",
          "type": "address"
        },
        {
          "internalType": "uint256",
          "name": "amount",
          "type": "uint256"
        }
      ],
      "name": "transferFrom",
      "outputs": [
        {
          "internalType": "bool",
          "name": "",
          "type": "bool"
        }
      ],
      "stateMutability": "nonpayable",
      "type": "function"
    }
  ],
  "transactionHash": "0x3bd204be4c80937a17b37d647f1db71d1f3527ed1735cfa0bb2904e4c0303a1b",
  "args": [
    0,
    "Shield",
    6,
    "SHD"
  ],
  "numDeployments": 1,
  "solcInputHash": "a9f814f8c1a56482494c3fb982c2c012",
  "bytecode": "0x60406080815234620002175762001235803803806200001e81620003fe565b92833981019060808183031262000217578051602080830151919290916001600160401b03908181116200021757856200005a91840162000424565b91868101519560ff871680970362000217576060820151838111620002175762000085920162000424565b91805191808311620002fe5760038054936001938486811c96168015620003f3575b88871014620003dd578190601f9687811162000387575b508890878311600114620003205760009262000314575b505060001982841b1c191690841b1781555b8451918211620002fe5760049485548481811c91168015620002f3575b88821014620002de5785811162000293575b50869085841160011462000228579383949184926000956200021c575b50501b92600019911b1c19161782555b6006850362000217573315620001d85750507fddf252ad1be2c89b69c2b068fc378daa952ba7f163c4a11628f55a4df523b3ef6000916200018784600254620004a7565b600255338352828152858320620001a0858254620004a7565b905585519384523393a3600780546001600160a01b031916331790556005805460ff191691909117905551610d6a9081620004cb8239f35b60649286519262461bcd60e51b845283015260248201527f45524332303a206d696e7420746f20746865207a65726f2061646472657373006044820152fd5b600080fd5b01519350388062000133565b9190601f198416928760005284896000209460005b8b898383106200027b575050501062000260575b50505050811b01825562000143565b01519060f884600019921b161c191690553880808062000251565b8686015189559097019694850194889350016200023d565b86600052876000208680860160051c8201928a8710620002d4575b0160051c019085905b828110620002c757505062000116565b60008155018590620002b7565b92508192620002ae565b602287634e487b7160e01b6000525260246000fd5b90607f169062000104565b634e487b7160e01b600052604160045260246000fd5b015190503880620000d5565b90869350601f19831691856000528a6000209260005b8c82821062000370575050841162000357575b505050811b018155620000e7565b015160001983861b60f8161c1916905538808062000349565b8385015186558a9790950194938401930162000336565b90915083600052886000208780850160051c8201928b8610620003d3575b918891869594930160051c01915b828110620003c3575050620000be565b60008155859450889101620003b3565b92508192620003a5565b634e487b7160e01b600052602260045260246000fd5b95607f1695620000a7565b6040519190601f01601f191682016001600160401b03811183821017620002fe57604052565b81601f8201121562000217578051906001600160401b038211620002fe5760209062000459601f8401601f19168301620003fe565b93838552828483010111620002175782906000905b838383106200048e575050116200048457505090565b6000918301015290565b819350828193920101518282880101520183916200046e565b81198111620004b4570190565b634e487b7160e01b600052601160045260246000fdfe608060408181526004918236101561001657600080fd5b600092833560e01c91826306fdde031461086957508163095ea7b31461083f5781630a398b881461080157816318160ddd146107e257816323b872dd14610718578163313ce567146106f657816332424aa3146106f657816333a581d2146106d9578163395093511461068957816340c10f19146105a75781636f0372af146104bf57816370a08231146104885781638da5cb5b1461045f57816395d89b41146103795781639dc29fac1461020e578163a457c2d71461016657508063a9059cbb146101365763dd62ed3e146100eb57600080fd5b3461013257806003193601126101325780602092610107610997565b61010f6109b2565b6001600160a01b0391821683526001865283832091168252845220549051908152f35b5080fd5b503461013257806003193601126101325760209061015f610155610997565b6024359033610a22565b5160018152f35b9050823461020b578260031936011261020b57610181610997565b918360243592338152600160205281812060018060a01b03861682526020522054908282106101ba5760208561015f8585038733610b85565b608490602086519162461bcd60e51b8352820152602560248201527f45524332303a2064656372656173656420616c6c6f77616e63652062656c6f77604482015264207a65726f60d81b6064820152fd5b80fd5b905034610375578160031936011261037557610228610997565b600754602435916001600160a01b03918216330361034557169182156102f85782855284602052838520548281106102aa578290848752866020520384862055600254908282106102975750602082869493600080516020610d1583398151915293036002558551908152a351f35b634e487b7160e01b865260119052602485fd5b845162461bcd60e51b8152602081840152602260248201527f45524332303a206275726e20616d6f756e7420657863656564732062616c616e604482015261636560f01b6064820152608490fd5b608490602085519162461bcd60e51b8352820152602160248201527f45524332303a206275726e2066726f6d20746865207a65726f206164647265736044820152607360f81b6064820152fd5b845162461bcd60e51b8152602081860152600a60248201526927b7363c9037bbb732b960b11b6044820152606490fd5b8280fd5b838334610132578160031936011261013257805191809380549160019083821c92828516948515610455575b60209586861081146104425785895290811561041e57506001146103e3575b6103df87876103d5828c03836109c8565b5191829182610940565b0390f35b9080949750528583205b82841061040b57505050826103df946103d5928201019486806103c4565b80548685018801529286019281016103ed565b60ff19168887015250505050151560051b83010192506103d5826103df86806103c4565b634e487b7160e01b845260228352602484fd5b93607f16936103a5565b50503461013257816003193601126101325760075490516001600160a01b039091168152602090f35b5050346101325760203660031901126101325760209181906001600160a01b036104b0610997565b16815280845220549051908152f35b905034610375576080366003190112610375576104da6109b2565b90803560010361057757839160646020926104f6823533610c87565b85516323b872dd60e01b8152339181019190915230602482015260448035908201529384928391906001600160a01b03165af1801561056b57610537575051f35b6020813d8211610563575b8161054f602093836109c8565b810103126103755751801515036101325751f35b3d9150610542565b505051903d90823e3d90fd5b606490602084519162461bcd60e51b8352820152600a60248201526957726f6e67207479706560b01b6044820152fd5b8383346101325780600319360112610132576105c1610997565b6007546001600160a01b0394602435929186163303610601575b506105fe929394811685526006602052838520600160ff19825416179055610c87565b51f35b6402540be4008303610657578582168552600660205260ff8486205416156105db57606490602085519162461bcd60e51b8352820152600e60248201526d105b1c9958591e481b5a5b9d195960921b6044820152fd5b606490602085519162461bcd60e51b8352820152600c60248201526b15dc9bdb99c8185b5bdd5b9d60a21b6044820152fd5b50503461013257806003193601126101325761015f6020926106d26106ac610997565b338352600186528483206001600160a01b03821684528652918490205460243590610a00565b9033610b85565b505034610132578160031936011261013257516000198152602090f35b50503461013257816003193601126101325760209060ff600554169051908152f35b8391503461013257606036600319011261013257610734610997565b61073c6109b2565b91846044359460018060a01b038416815260016020528181203382526020522054906000198203610776575b60208661015f878787610a22565b84821061079f57509183916107946020969561015f95033383610b85565b919394819350610768565b606490602087519162461bcd60e51b8352820152601d60248201527f45524332303a20696e73756666696369656e7420616c6c6f77616e63650000006044820152fd5b5050346101325781600319360112610132576020906002549051908152f35b5050346101325760203660031901126101325760209160ff9082906001600160a01b0361082c610997565b1681526006855220541690519015158152f35b50503461013257806003193601126101325760209061015f61085f610997565b6024359033610b85565b9291503461093c578360031936011261093c57600354600181811c9186908281168015610932575b602095868610821461091f57508488529081156108fd57506001146108c2575b6103df86866103d5828b03836109c8565b929550600383528583205b8284106108ea57505050826103df946103d59282010194386108b1565b80548685018801529286019281016108cd565b60ff191687860152505050151560051b83010192506103d5826103df386108b1565b634e487b7160e01b845260229052602483fd5b93607f1693610891565b8380fd5b919091602080825283519081818401526000945b828610610981575050806040939411610974575b601f01601f1916010190565b6000838284010152610968565b8581018201518487016040015294810194610954565b600435906001600160a01b03821682036109ad57565b600080fd5b602435906001600160a01b03821682036109ad57565b90601f8019910116810190811067ffffffffffffffff8211176109ea57604052565b634e487b7160e01b600052604160045260246000fd5b81198111610a0c570190565b634e487b7160e01b600052601160045260246000fd5b6001600160a01b03908116918215610b325716918215610ae157600082815280602052604081205491808310610a8d5760408282600080516020610d15833981519152958760209652828652038282205586815220610a82828254610a00565b9055604051908152a3565b60405162461bcd60e51b815260206004820152602660248201527f45524332303a207472616e7366657220616d6f756e7420657863656564732062604482015265616c616e636560d01b6064820152608490fd5b60405162461bcd60e51b815260206004820152602360248201527f45524332303a207472616e7366657220746f20746865207a65726f206164647260448201526265737360e81b6064820152608490fd5b60405162461bcd60e51b815260206004820152602560248201527f45524332303a207472616e736665722066726f6d20746865207a65726f206164604482015264647265737360d81b6064820152608490fd5b6001600160a01b03908116918215610c365716918215610be65760207f8c5be1e5ebec7d5bd14f71427d1e84f3dd0314c0f7b2291e5b200ac8c7c3b925918360005260018252604060002085600052825280604060002055604051908152a3565b60405162461bcd60e51b815260206004820152602260248201527f45524332303a20617070726f766520746f20746865207a65726f206164647265604482015261737360f01b6064820152608490fd5b60405162461bcd60e51b8152602060048201526024808201527f45524332303a20617070726f76652066726f6d20746865207a65726f206164646044820152637265737360e01b6064820152608490fd5b6001600160a01b0316908115610ccf57600080516020610d15833981519152602082610cb7600094600254610a00565b60025584845283825260408420610a82828254610a00565b60405162461bcd60e51b815260206004820152601f60248201527f45524332303a206d696e7420746f20746865207a65726f2061646472657373006044820152606490fdfeddf252ad1be2c89b69c2b068fc378daa952ba7f163c4a11628f55a4df523b3efa2646970667358221220b8611ce73128da7702b56de085abe84ea71ae1860002edbc846e3120ad48bc7f64736f6c634300080f0033",
  "devdoc": {
    "kind": "dev",
    "methods": {
      "allowance(address,address)": {
        "details": "See {IERC20-allowance}."
      },
      "approve(address,uint256)": {
        "details": "See {IERC20-approve}. NOTE: If `amount` is the maximum `uint256`, the allowance is not updated on `transferFrom`. This is semantically equivalent to an infinite approval. Requirements: - `spender` cannot be the zero address."
      },
      "balanceOf(address)": {
        "details": "See {IERC20-balanceOf}."
      },
      "decimals()": {
        "details": "Returns the number of decimals used to get its user representation. For example, if `decimals` equals `2`, a balance of `505` tokens should be displayed to a user as `5.05` (`505 / 10 ** 2`). Tokens usually opt for a value of 18, imitating the relationship between Ether and Wei. This is the value {ERC20} uses, unless this function is overridden; NOTE: This information is only used for _display_ purposes: it in no way affects any of the arithmetic of the contract, including {IERC20-balanceOf} and {IERC20-transfer}."
      },
      "decreaseAllowance(address,uint256)": {
        "details": "Atomically decreases the allowance granted to `spender` by the caller. This is an alternative to {approve} that can be used as a mitigation for problems described in {IERC20-approve}. Emits an {Approval} event indicating the updated allowance. Requirements: - `spender` cannot be the zero address. - `spender` must have allowance for the caller of at least `subtractedValue`."
      },
      "increaseAllowance(address,uint256)": {
        "details": "Atomically increases the allowance granted to `spender` by the caller. This is an alternative to {approve} that can be used as a mitigation for problems described in {IERC20-approve}. Emits an {Approval} event indicating the updated allowance. Requirements: - `spender` cannot be the zero address."
      },
      "name()": {
        "details": "Returns the name of the token."
      },
      "symbol()": {
        "details": "Returns the symbol of the token, usually a shorter version of the name."
      },
      "totalSupply()": {
        "details": "See {IERC20-totalSupply}."
      },
      "transfer(address,uint256)": {
        "details": "See {IERC20-transfer}. Requirements: - `to` cannot be the zero address. - the caller must have a balance of at least `amount`."
      },
      "transferFrom(address,address,uint256)": {
        "details": "See {IERC20-transferFrom}. Emits an {Approval} event indicating the updated allowance. This is not required by the EIP. See the note at the beginning of {ERC20}. NOTE: Does not update the allowance if the current allowance is the maximum `uint256`. Requirements: - `from` and `to` cannot be the zero address. - `from` must have a balance of at least `amount`. - the caller must have allowance for ``from``'s tokens of at least `amount`."
      }
    },
    "version": 1
  },
  "userdoc": {
    "kind": "user",
    "methods": {},
    "version": 1
  },
  "storageLayout": {
    "storage": [
      {
        "astId": 1997,
        "contract": "src/mock/MockSHIELD.sol:MockSHIELD",
        "label": "_balances",
        "offset": 0,
        "slot": "0",
        "type": "t_mapping(t_address,t_uint256)"
      },
      {
        "astId": 2003,
        "contract": "src/mock/MockSHIELD.sol:MockSHIELD",
        "label": "_allowances",
        "offset": 0,
        "slot": "1",
        "type": "t_mapping(t_address,t_mapping(t_address,t_uint256))"
      },
      {
        "astId": 2005,
        "contract": "src/mock/MockSHIELD.sol:MockSHIELD",
        "label": "_totalSupply",
        "offset": 0,
        "slot": "2",
        "type": "t_uint256"
      },
      {
        "astId": 2007,
        "contract": "src/mock/MockSHIELD.sol:MockSHIELD",
        "label": "_name",
        "offset": 0,
        "slot": "3",
        "type": "t_string_storage"
      },
      {
        "astId": 2009,
        "contract": "src/mock/MockSHIELD.sol:MockSHIELD",
        "label": "_symbol",
        "offset": 0,
        "slot": "4",
        "type": "t_string_storage"
      },
      {
        "astId": 16870,
        "contract": "src/mock/MockSHIELD.sol:MockSHIELD",
        "label": "_decimals",
        "offset": 0,
        "slot": "5",
        "type": "t_uint8"
      },
      {
        "astId": 16874,
        "contract": "src/mock/MockSHIELD.sol:MockSHIELD",
        "label": "alreadyMinted",
        "offset": 0,
        "slot": "6",
        "type": "t_mapping(t_address,t_bool)"
      },
      {
        "astId": 16876,
        "contract": "src/mock/MockSHIELD.sol:MockSHIELD",
        "label": "owner",
        "offset": 0,
        "slot": "7",
        "type": "t_address"
      }
    ],
    "types": {
      "t_address": {
        "encoding": "inplace",
        "label": "address",
        "numberOfBytes": "20"
      },
      "t_bool": {
        "encoding": "inplace",
        "label": "bool",
        "numberOfBytes": "1"
      },
      "t_mapping(t_address,t_bool)": {
        "encoding": "mapping",
        "key": "t_address",
        "label": "mapping(address => bool)",
        "numberOfBytes": "32",
        "value": "t_bool"
      },
      "t_mapping(t_address,t_mapping(t_address,t_uint256))": {
        "encoding": "mapping",
        "key": "t_address",
        "label": "mapping(address => mapping(address => uint256))",
        "numberOfBytes": "32",
        "value": "t_mapping(t_address,t_uint256)"
      },
      "t_mapping(t_address,t_uint256)": {
        "encoding": "mapping",
        "key": "t_address",
        "label": "mapping(address => uint256)",
        "numberOfBytes": "32",
        "value": "t_uint256"
      },
      "t_string_storage": {
        "encoding": "bytes",
        "label": "string",
        "numberOfBytes": "32"
      },
      "t_uint256": {
        "encoding": "inplace",
        "label": "uint256",
        "numberOfBytes": "32"
      },
      "t_uint8": {
        "encoding": "inplace",
        "label": "uint8",
        "numberOfBytes": "1"
      }
    }
  }
}