{
  "address": "0x6a5b46a03294Ef860b4480c3D3dB610DB691aFbe",
  "abi": [
    {
      "inputs": [
        {
          "internalType": "string",
          "name": "_name",
          "type": "string"
        },
        {
          "internalType": "string",
          "name": "_symbol",
          "type": "string"
        },
        {
          "internalType": "uint256",
          "name": "_decimal",
          "type": "uint256"
        }
      ],
      "stateMutability": "nonpayable",
      "type": "constructor"
    },
    {
      "anonymous": false,
      "inputs": [
        {
          "indexed": true,
          "internalType": "address",
          "name": "owner",
          "type": "address"
        },
        {
          "indexed": true,
          "internalType": "address",
          "name": "spender",
          "type": "address"
        },
        {
          "indexed": false,
          "internalType": "uint256",
          "name": "value",
          "type": "uint256"
        }
      ],
      "name": "Approval",
      "type": "event"
    },
    {
      "anonymous": false,
      "inputs": [
        {
          "indexed": true,
          "internalType": "address",
          "name": "from",
          "type": "address"
        },
        {
          "indexed": true,
          "internalType": "address",
          "name": "to",
          "type": "address"
        },
        {
          "indexed": false,
          "internalType": "uint256",
          "name": "value",
          "type": "uint256"
        }
      ],
      "name": "Transfer",
      "type": "event"
    },
    {
      "inputs": [
        {
          "internalType": "address",
          "name": "owner",
          "type": "address"
        },
        {
          "internalType": "address",
          "name": "spender",
          "type": "address"
        }
      ],
      "name": "allowance",
      "outputs": [
        {
          "internalType": "uint256",
          "name": "",
          "type": "uint256"
        }
      ],
      "stateMutability": "view",
      "type": "function"
    },
    {
      "inputs": [
        {
          "internalType": "address",
          "name": "spender",
          "type": "address"
        },
        {
          "internalType": "uint256",
          "name": "amount",
          "type": "uint256"
        }
      ],
      "name": "approve",
      "outputs": [
        {
          "internalType": "bool",
          "name": "",
          "type": "bool"
        }
      ],
      "stateMutability": "nonpayable",
      "type": "function"
    },
    {
      "inputs": [
        {
          "internalType": "address",
          "name": "account",
          "type": "address"
        }
      ],
      "name": "balanceOf",
      "outputs": [
        {
          "internalType": "uint256",
          "name": "",
          "type": "uint256"
        }
      ],
      "stateMutability": "view",
      "type": "function"
    },
    {
      "inputs": [
        {
          "internalType": "address",
          "name": "_to",
          "type": "address"
        },
        {
          "internalType": "uint256",
          "name": "_amount",
          "type": "uint256"
        }
      ],
      "name": "burn",
      "outputs": [],
      "stateMutability": "nonpayable",
      "type": "function"
    },
    {
      "inputs": [],
      "name": "decimals",
      "outputs": [
        {
          "internalType": "uint8",
          "name": "",
          "type": "uint8"
        }
      ],
      "stateMutability": "view",
      "type": "function"
    },
    {
      "inputs": [
        {
          "internalType": "address",
          "name": "spender",
          "type": "address"
        },
        {
          "internalType": "uint256",
          "name": "subtractedValue",
          "type": "uint256"
        }
      ],
      "name": "decreaseAllowance",
      "outputs": [
        {
          "internalType": "bool",
          "name": "",
          "type": "bool"
        }
      ],
      "stateMutability": "nonpayable",
      "type": "function"
    },
    {
      "inputs": [
        {
          "internalType": "address",
          "name": "spender",
          "type": "address"
        },
        {
          "internalType": "uint256",
          "name": "addedValue",
          "type": "uint256"
        }
      ],
      "name": "increaseAllowance",
      "outputs": [
        {
          "internalType": "bool",
          "name": "",
          "type": "bool"
        }
      ],
      "stateMutability": "nonpayable",
      "type": "function"
    },
    {
      "inputs": [
        {
          "internalType": "address",
          "name": "_to",
          "type": "address"
        },
        {
          "internalType": "uint256",
          "name": "_amount",
          "type": "uint256"
        }
      ],
      "name": "mint",
      "outputs": [],
      "stateMutability": "nonpayable",
      "type": "function"
    },
    {
      "inputs": [],
      "name": "name",
      "outputs": [
        {
          "internalType": "string",
          "name": "",
          "type": "string"
        }
      ],
      "stateMutability": "view",
      "type": "function"
    },
    {
      "inputs": [],
      "name": "owner",
      "outputs": [
        {
          "internalType": "address",
          "name": "",
          "type": "address"
        }
      ],
      "stateMutability": "view",
      "type": "function"
    },
    {
      "inputs": [],
      "name": "symbol",
      "outputs": [
        {
          "internalType": "string",
          "name": "",
          "type": "string"
        }
      ],
      "stateMutability": "view",
      "type": "function"
    },
    {
      "inputs": [],
      "name": "totalSupply",
      "outputs": [
        {
          "internalType": "uint256",
          "name": "",
          "type": "uint256"
        }
      ],
      "stateMutability": "view",
      "type": "function"
    },
    {
      "inputs": [
        {
          "internalType": "address",
          "name": "to",
          "type": "address"
        },
        {
          "internalType": "uint256",
          "name": "amount",
          "type": "uint256"
        }
      ],
      "name": "transfer",
      "outputs": [
        {
          "internalType": "bool",
          "name": "",
          "type": "bool"
        }
      ],
      "stateMutability": "nonpayable",
      "type": "function"
    },
    {
      "inputs": [
        {
          "internalType": "address",
          "name": "from",
          "type": "address"
        },
        {
          "internalType": "address",
          "name": "to",
          "type": "address"
        },
        {
          "internalType": "uint256",
          "name": "amount",
          "type": "uint256"
        }
      ],
      "name": "transferFrom",
      "outputs": [
        {
          "internalType": "bool",
          "name": "",
          "type": "bool"
        }
      ],
      "stateMutability": "nonpayable",
      "type": "function"
    }
  ],
  "transactionHash": "0x0966cf605f7531c2624a87791ace8a741b0eb120fd54ab321a4e0ad9d7638ab0",
  "args": [
    "MockUSDC",
    "MockUSDC",
    6
  ],
  "numDeployments": 9,
  "solcInputHash": "492c46c9b84c537d652d667f517d116a",
  "bytecode": "0x608060405234620001715762000ecc803803806200001d816200035b565b9283398101606082820312620001715781516001600160401b03908181116200017157826200004e91850162000381565b906020928385015182811162000171576040916200006e91870162000381565b9401519382518281116200025b576003918254916001958684811c9416801562000350575b888510146200033a578190601f94858111620002e4575b5088908583116001146200027d5760009262000271575b505060001982861b1c191690861b1783555b80519384116200025b5760049586548681811c9116801562000250575b828210146200023b57838111620001f0575b508092851160011462000182575093839491849260009562000176575b50501b92600019911b1c19161790555b600681036200017157600580546001600160a81b0319163360081b610100600160a81b03161760ff92909216919091179055604051610ac79081620004058239f35b600080fd5b0151935038806200011f565b92919084601f1981168860005285600020956000905b89838310620001d55750505010620001ba575b50505050811b0190556200012f565b01519060f884600019921b161c1916905538808080620001ab565b85870151895590970196948501948893509081019062000198565b87600052816000208480880160051c82019284891062000231575b0160051c019087905b8281106200022457505062000102565b6000815501879062000214565b925081926200020b565b602288634e487b7160e01b6000525260246000fd5b90607f1690620000f0565b634e487b7160e01b600052604160045260246000fd5b015190503880620000c1565b90889350601f19831691876000528a6000209260005b8c828210620002cd5750508411620002b4575b505050811b018355620000d3565b015160001983881b60f8161c19169055388080620002a6565b8385015186558c9790950194938401930162000293565b90915085600052886000208580850160051c8201928b861062000330575b918a91869594930160051c01915b82811062000320575050620000aa565b600081558594508a910162000310565b9250819262000302565b634e487b7160e01b600052602260045260246000fd5b93607f169362000093565b6040519190601f01601f191682016001600160401b038111838210176200025b57604052565b81601f8201121562000171578051906001600160401b0382116200025b57602090620003b6601f8401601f191683016200035b565b93838552828483010111620001715782906000905b83838310620003eb57505011620003e157505090565b6000918301015290565b81935082819392010151828288010152018391620003cb56fe608060408181526004918236101561001657600080fd5b600092833560e01c91826306fdde03146106ae57508163095ea7b31461068457816318160ddd1461066557816323b872dd1461059b578163313ce56714610579578163395093511461052957816340c10f191461046e57816370a08231146104375781638da5cb5b1461040a57816395d89b41146103085781639dc29fac146101e2578163a457c2d71461013a57508063a9059cbb1461010a5763dd62ed3e146100bf57600080fd5b34610106578060031936011261010657806020926100db6107c0565b6100e36107db565b6001600160a01b0391821683526001865283832091168252845220549051908152f35b5080fd5b50346101065780600319360112610106576020906101336101296107c0565b6024359033610813565b5160018152f35b905082346101df57826003193601126101df576101556107c0565b918360243592338152600160205281812060018060a01b038616825260205220549082821061018e57602085610133858503873361096f565b608490602086519162461bcd60e51b8352820152602560248201527f45524332303a2064656372656173656420616c6c6f77616e63652062656c6f77604482015264207a65726f60d81b6064820152fd5b80fd5b9050346103045781600319360112610304576101fc6107c0565b600554602435916001600160a01b039160081c8216330361030057169182156102b35782855284602052838520549082821061026557506020828493600080516020610a728339815191529388968752868452038686205580600254036002558551908152a351f35b608490602086519162461bcd60e51b8352820152602260248201527f45524332303a206275726e20616d6f756e7420657863656564732062616c616e604482015261636560f01b6064820152fd5b608490602085519162461bcd60e51b8352820152602160248201527f45524332303a206275726e2066726f6d20746865207a65726f206164647265736044820152607360f81b6064820152fd5b8580fd5b8280fd5b838334610106578160031936011261010657805190828454600181811c90808316928315610400575b60209384841081146103ed578388529081156103d15750600114610399575b505050829003601f01601f191682019267ffffffffffffffff8411838510176103865750829182610382925282610769565b0390f35b634e487b7160e01b815260418552602490fd5b919250868652828620918387935b8385106103bd5750505050830101858080610350565b8054888601830152930192849082016103a7565b60ff1916878501525050151560051b8401019050858080610350565b634e487b7160e01b895260228a52602489fd5b91607f1691610331565b505034610106578160031936011261010657600554905160089190911c6001600160a01b03168152602090f35b5050346101065760203660031901126101065760209181906001600160a01b0361045f6107c0565b16815280845220549051908152f35b9050346103045781600319360112610304576104886107c0565b600554602435916001600160a01b039160081c8216330361030057169182156104e65750600080516020610a728339815191526020826104cb87946002546107f1565b6002558484528382528584208181540190558551908152a351f35b606490602085519162461bcd60e51b8352820152601f60248201527f45524332303a206d696e7420746f20746865207a65726f2061646472657373006044820152fd5b50503461010657806003193601126101065761013360209261057261054c6107c0565b338352600186528483206001600160a01b038216845286529184902054602435906107f1565b903361096f565b50503461010657816003193601126101065760209060ff600554169051908152f35b83915034610106576060366003190112610106576105b76107c0565b6105bf6107db565b91846044359460018060a01b0384168152600160205281812033825260205220549060001982036105f9575b602086610133878787610813565b8482106106225750918391610617602096956101339503338361096f565b9193948193506105eb565b606490602087519162461bcd60e51b8352820152601d60248201527f45524332303a20696e73756666696369656e7420616c6c6f77616e63650000006044820152fd5b5050346101065781600319360112610106576020906002549051908152f35b5050346101065780600319360112610106576020906101336106a46107c0565b602435903361096f565b8490843461030457826003193601126103045782600354600181811c9080831692831561075f575b60209384841081146103ed578388529081156103d1575060011461072657505050829003601f01601f191682019267ffffffffffffffff8411838510176103865750829182610382925282610769565b91925060038652828620918387935b83851061074b5750505050830101858080610350565b805488860183015293019284908201610735565b91607f16916106d6565b919091602080825283519081818401526000945b8286106107aa57505080604093941161079d575b601f01601f1916010190565b6000838284010152610791565b858101820151848701604001529481019461077d565b600435906001600160a01b03821682036107d657565b600080fd5b602435906001600160a01b03821682036107d657565b811981116107fd570190565b634e487b7160e01b600052601160045260246000fd5b6001600160a01b0390811691821561091c57169182156108cb576000828152806020526040812054918083106108775760408282600080516020610a72833981519152958760209652828652038282205586815220818154019055604051908152a3565b60405162461bcd60e51b815260206004820152602660248201527f45524332303a207472616e7366657220616d6f756e7420657863656564732062604482015265616c616e636560d01b6064820152608490fd5b60405162461bcd60e51b815260206004820152602360248201527f45524332303a207472616e7366657220746f20746865207a65726f206164647260448201526265737360e81b6064820152608490fd5b60405162461bcd60e51b815260206004820152602560248201527f45524332303a207472616e736665722066726f6d20746865207a65726f206164604482015264647265737360d81b6064820152608490fd5b6001600160a01b03908116918215610a2057169182156109d05760207f8c5be1e5ebec7d5bd14f71427d1e84f3dd0314c0f7b2291e5b200ac8c7c3b925918360005260018252604060002085600052825280604060002055604051908152a3565b60405162461bcd60e51b815260206004820152602260248201527f45524332303a20617070726f766520746f20746865207a65726f206164647265604482015261737360f01b6064820152608490fd5b60405162461bcd60e51b8152602060048201526024808201527f45524332303a20617070726f76652066726f6d20746865207a65726f206164646044820152637265737360e01b6064820152608490fdfeddf252ad1be2c89b69c2b068fc378daa952ba7f163c4a11628f55a4df523b3efa2646970667358221220e75178d77ed6e583ec724b3e4751dd3abf52c783390f6f15b6967a1e43b2da2e64736f6c634300080f0033",
  "devdoc": {
    "kind": "dev",
    "methods": {
      "allowance(address,address)": {
        "details": "See {IERC20-allowance}."
      },
      "approve(address,uint256)": {
        "details": "See {IERC20-approve}. NOTE: If `amount` is the maximum `uint256`, the allowance is not updated on `transferFrom`. This is semantically equivalent to an infinite approval. Requirements: - `spender` cannot be the zero address."
      },
      "balanceOf(address)": {
        "details": "See {IERC20-balanceOf}."
      },
      "decimals()": {
        "details": "Returns the number of decimals used to get its user representation. For example, if `decimals` equals `2`, a balance of `505` tokens should be displayed to a user as `5.05` (`505 / 10 ** 2`). Tokens usually opt for a value of 18, imitating the relationship between Ether and Wei. This is the value {ERC20} uses, unless this function is overridden; NOTE: This information is only used for _display_ purposes: it in no way affects any of the arithmetic of the contract, including {IERC20-balanceOf} and {IERC20-transfer}."
      },
      "decreaseAllowance(address,uint256)": {
        "details": "Atomically decreases the allowance granted to `spender` by the caller. This is an alternative to {approve} that can be used as a mitigation for problems described in {IERC20-approve}. Emits an {Approval} event indicating the updated allowance. Requirements: - `spender` cannot be the zero address. - `spender` must have allowance for the caller of at least `subtractedValue`."
      },
      "increaseAllowance(address,uint256)": {
        "details": "Atomically increases the allowance granted to `spender` by the caller. This is an alternative to {approve} that can be used as a mitigation for problems described in {IERC20-approve}. Emits an {Approval} event indicating the updated allowance. Requirements: - `spender` cannot be the zero address."
      },
      "name()": {
        "details": "Returns the name of the token."
      },
      "symbol()": {
        "details": "Returns the symbol of the token, usually a shorter version of the name."
      },
      "totalSupply()": {
        "details": "See {IERC20-totalSupply}."
      },
      "transfer(address,uint256)": {
        "details": "See {IERC20-transfer}. Requirements: - `to` cannot be the zero address. - the caller must have a balance of at least `amount`."
      },
      "transferFrom(address,address,uint256)": {
        "details": "See {IERC20-transferFrom}. Emits an {Approval} event indicating the updated allowance. This is not required by the EIP. See the note at the beginning of {ERC20}. NOTE: Does not update the allowance if the current allowance is the maximum `uint256`. Requirements: - `from` and `to` cannot be the zero address. - `from` must have a balance of at least `amount`. - the caller must have allowance for ``from``'s tokens of at least `amount`."
      }
    },
    "version": 1
  },
  "userdoc": {
    "kind": "user",
    "methods": {},
    "version": 1
  },
  "storageLayout": {
    "storage": [
      {
        "astId": 8925,
        "contract": "src/mock/MockUSDC.sol:MockUSDC",
        "label": "_balances",
        "offset": 0,
        "slot": "0",
        "type": "t_mapping(t_address,t_uint256)"
      },
      {
        "astId": 8931,
        "contract": "src/mock/MockUSDC.sol:MockUSDC",
        "label": "_allowances",
        "offset": 0,
        "slot": "1",
        "type": "t_mapping(t_address,t_mapping(t_address,t_uint256))"
      },
      {
        "astId": 8933,
        "contract": "src/mock/MockUSDC.sol:MockUSDC",
        "label": "_totalSupply",
        "offset": 0,
        "slot": "2",
        "type": "t_uint256"
      },
      {
        "astId": 8935,
        "contract": "src/mock/MockUSDC.sol:MockUSDC",
        "label": "_name",
        "offset": 0,
        "slot": "3",
        "type": "t_string_storage"
      },
      {
        "astId": 8937,
        "contract": "src/mock/MockUSDC.sol:MockUSDC",
        "label": "_symbol",
        "offset": 0,
        "slot": "4",
        "type": "t_string_storage"
      },
      {
        "astId": 16078,
        "contract": "src/mock/MockUSDC.sol:MockUSDC",
        "label": "_decimals",
        "offset": 0,
        "slot": "5",
        "type": "t_uint8"
      },
      {
        "astId": 16080,
        "contract": "src/mock/MockUSDC.sol:MockUSDC",
        "label": "owner",
        "offset": 1,
        "slot": "5",
        "type": "t_address"
      }
    ],
    "types": {
      "t_address": {
        "encoding": "inplace",
        "label": "address",
        "numberOfBytes": "20"
      },
      "t_mapping(t_address,t_mapping(t_address,t_uint256))": {
        "encoding": "mapping",
        "key": "t_address",
        "label": "mapping(address => mapping(address => uint256))",
        "numberOfBytes": "32",
        "value": "t_mapping(t_address,t_uint256)"
      },
      "t_mapping(t_address,t_uint256)": {
        "encoding": "mapping",
        "key": "t_address",
        "label": "mapping(address => uint256)",
        "numberOfBytes": "32",
        "value": "t_uint256"
      },
      "t_string_storage": {
        "encoding": "bytes",
        "label": "string",
        "numberOfBytes": "32"
      },
      "t_uint256": {
        "encoding": "inplace",
        "label": "uint256",
        "numberOfBytes": "32"
      },
      "t_uint8": {
        "encoding": "inplace",
        "label": "uint8",
        "numberOfBytes": "1"
      }
    }
  }
}