{
  "address": "0x197c7A1540f38F26E3ebFe598885C2C1fa5dFb06",
  "abi": [
    {
      "inputs": [
        {
          "internalType": "address",
          "name": "_deg",
          "type": "address"
        },
        {
          "internalType": "address",
          "name": "_veDeg",
          "type": "address"
        },
        {
          "internalType": "address",
          "name": "_shield",
          "type": "address"
        }
      ],
      "stateMutability": "nonpayable",
      "type": "constructor"
    },
    {
      "inputs": [],
      "name": "OnboardProposal__AlreadyClaimed",
      "type": "error"
    },
    {
      "inputs": [],
      "name": "OnboardProposal__AlreadyProposed",
      "type": "error"
    },
    {
      "inputs": [],
      "name": "OnboardProposal__AlreadyProtected",
      "type": "error"
    },
    {
      "inputs": [],
      "name": "OnboardProposal__AlreadySettled",
      "type": "error"
    },
    {
      "inputs": [],
      "name": "OnboardProposal__ChooseBothSides",
      "type": "error"
    },
    {
      "inputs": [],
      "name": "OnboardProposal__NotEnoughVeDEG",
      "type": "error"
    },
    {
      "inputs": [],
      "name": "OnboardProposal__NotSettled",
      "type": "error"
    },
    {
      "inputs": [],
      "name": "OnboardProposal__NotWrongChoice",
      "type": "error"
    },
    {
      "inputs": [],
      "name": "OnboardProposal__ProposeNotExist",
      "type": "error"
    },
    {
      "inputs": [],
      "name": "OnboardProposal__WrongCapacity",
      "type": "error"
    },
    {
      "inputs": [],
      "name": "OnboardProposal__WrongChoice",
      "type": "error"
    },
    {
      "inputs": [],
      "name": "OnboardProposal__WrongPeriod",
      "type": "error"
    },
    {
      "inputs": [],
      "name": "OnboardProposal__WrongPremium",
      "type": "error"
    },
    {
      "inputs": [],
      "name": "OnboardProposal__WrongStatus",
      "type": "error"
    },
    {
      "inputs": [],
      "name": "OnboardProposal__ZeroAmount",
      "type": "error"
    },
    {
      "anonymous": false,
      "inputs": [
        {
          "indexed": false,
          "internalType": "uint256",
          "name": "proposalId",
          "type": "uint256"
        },
        {
          "indexed": false,
          "internalType": "address",
          "name": "user",
          "type": "address"
        },
        {
          "indexed": false,
          "internalType": "uint256",
          "name": "amount",
          "type": "uint256"
        }
      ],
      "name": "Claimed",
      "type": "event"
    },
    {
      "anonymous": false,
      "inputs": [
        {
          "indexed": false,
          "internalType": "string",
          "name": "name",
          "type": "string"
        },
        {
          "indexed": false,
          "internalType": "address",
          "name": "token",
          "type": "address"
        },
        {
          "indexed": false,
          "internalType": "address",
          "name": "proposer",
          "type": "address"
        },
        {
          "indexed": false,
          "internalType": "uint256",
          "name": "maxCapacity",
          "type": "uint256"
        },
        {
          "indexed": false,
          "internalType": "uint256",
          "name": "priceRatio",
          "type": "uint256"
        }
      ],
      "name": "NewProposal",
      "type": "event"
    },
    {
      "anonymous": false,
      "inputs": [
        {
          "indexed": true,
          "internalType": "address",
          "name": "previousOwner",
          "type": "address"
        },
        {
          "indexed": true,
          "internalType": "address",
          "name": "newOwner",
          "type": "address"
        }
      ],
      "name": "OwnershipTransferred",
      "type": "event"
    },
    {
      "anonymous": false,
      "inputs": [
        {
          "indexed": false,
          "internalType": "uint256",
          "name": "proposalId",
          "type": "uint256"
        },
        {
          "indexed": false,
          "internalType": "uint256",
          "name": "timestamp",
          "type": "uint256"
        }
      ],
      "name": "ProposalClosed",
      "type": "event"
    },
    {
      "anonymous": false,
      "inputs": [
        {
          "indexed": false,
          "internalType": "uint256",
          "name": "proposalId",
          "type": "uint256"
        }
      ],
      "name": "ProposalFailed",
      "type": "event"
    },
    {
      "anonymous": false,
      "inputs": [
        {
          "indexed": false,
          "internalType": "uint256",
          "name": "proposalId",
          "type": "uint256"
        },
        {
          "indexed": false,
          "internalType": "uint256",
          "name": "result",
          "type": "uint256"
        }
      ],
      "name": "ProposalSettled",
      "type": "event"
    },
    {
      "anonymous": false,
      "inputs": [
        {
          "indexed": false,
          "internalType": "uint256",
          "name": "proposalId",
          "type": "uint256"
        },
        {
          "indexed": true,
          "internalType": "address",
          "name": "user",
          "type": "address"
        },
        {
          "indexed": false,
          "internalType": "uint256",
          "name": "voteFor",
          "type": "uint256"
        },
        {
          "indexed": false,
          "internalType": "uint256",
          "name": "amount",
          "type": "uint256"
        }
      ],
      "name": "ProposalVoted",
      "type": "event"
    },
    {
      "anonymous": false,
      "inputs": [
        {
          "indexed": false,
          "internalType": "uint256",
          "name": "proposalId",
          "type": "uint256"
        },
        {
          "indexed": false,
          "internalType": "uint256",
          "name": "timestamp",
          "type": "uint256"
        }
      ],
      "name": "ProposalVotingStart",
      "type": "event"
    },
    {
      "inputs": [],
      "name": "MAX_CAPACITY_RATIO",
      "outputs": [
        {
          "internalType": "uint256",
          "name": "",
          "type": "uint256"
        }
      ],
      "stateMutability": "view",
      "type": "function"
    },
    {
      "inputs": [],
      "name": "PROPOSAL_QUORUM_RATIO",
      "outputs": [
        {
          "internalType": "uint256",
          "name": "",
          "type": "uint256"
        }
      ],
      "stateMutability": "view",
      "type": "function"
    },
    {
      "inputs": [],
      "name": "PROPOSAL_VOTING_PERIOD",
      "outputs": [
        {
          "internalType": "uint256",
          "name": "",
          "type": "uint256"
        }
      ],
      "stateMutability": "view",
      "type": "function"
    },
    {
      "inputs": [],
      "name": "PROPOSE_THRESHOLD",
      "outputs": [
        {
          "internalType": "uint256",
          "name": "",
          "type": "uint256"
        }
      ],
      "stateMutability": "view",
      "type": "function"
    },
    {
      "inputs": [
        {
          "internalType": "uint256",
          "name": "_id",
          "type": "uint256"
        }
      ],
      "name": "claim",
      "outputs": [],
      "stateMutability": "nonpayable",
      "type": "function"
    },
    {
      "inputs": [
        {
          "internalType": "uint256",
          "name": "_id",
          "type": "uint256"
        }
      ],
      "name": "closeProposal",
      "outputs": [],
      "stateMutability": "nonpayable",
      "type": "function"
    },
    {
      "inputs": [],
      "name": "getAllProposals",
      "outputs": [
        {
          "components": [
            {
              "internalType": "string",
              "name": "name",
              "type": "string"
            },
            {
              "internalType": "address",
              "name": "protocolToken",
              "type": "address"
            },
            {
              "internalType": "address",
              "name": "proposer",
              "type": "address"
            },
            {
              "internalType": "uint256",
              "name": "proposeTimestamp",
              "type": "uint256"
            },
            {
              "internalType": "uint256",
              "name": "voteTimestamp",
              "type": "uint256"
            },
            {
              "internalType": "uint256",
              "name": "numFor",
              "type": "uint256"
            },
            {
              "internalType": "uint256",
              "name": "numAgainst",
              "type": "uint256"
            },
            {
              "internalType": "uint256",
              "name": "maxCapacity",
              "type": "uint256"
            },
            {
              "internalType": "uint256",
              "name": "basePremiumRatio",
              "type": "uint256"
            },
            {
              "internalType": "uint256",
              "name": "poolId",
              "type": "uint256"
            },
            {
              "internalType": "uint256",
              "name": "status",
              "type": "uint256"
            },
            {
              "internalType": "uint256",
              "name": "result",
              "type": "uint256"
            }
          ],
          "internalType": "struct OnboardProposal.Proposal[]",
          "name": "allProposals",
          "type": "tuple[]"
        }
      ],
      "stateMutability": "view",
      "type": "function"
    },
    {
      "inputs": [
        {
          "internalType": "uint256",
          "name": "_proposalId",
          "type": "uint256"
        }
      ],
      "name": "getProposal",
      "outputs": [
        {
          "components": [
            {
              "internalType": "string",
              "name": "name",
              "type": "string"
            },
            {
              "internalType": "address",
              "name": "protocolToken",
              "type": "address"
            },
            {
              "internalType": "address",
              "name": "proposer",
              "type": "address"
            },
            {
              "internalType": "uint256",
              "name": "proposeTimestamp",
              "type": "uint256"
            },
            {
              "internalType": "uint256",
              "name": "voteTimestamp",
              "type": "uint256"
            },
            {
              "internalType": "uint256",
              "name": "numFor",
              "type": "uint256"
            },
            {
              "internalType": "uint256",
              "name": "numAgainst",
              "type": "uint256"
            },
            {
              "internalType": "uint256",
              "name": "maxCapacity",
              "type": "uint256"
            },
            {
              "internalType": "uint256",
              "name": "basePremiumRatio",
              "type": "uint256"
            },
            {
              "internalType": "uint256",
              "name": "poolId",
              "type": "uint256"
            },
            {
              "internalType": "uint256",
              "name": "status",
              "type": "uint256"
            },
            {
              "internalType": "uint256",
              "name": "result",
              "type": "uint256"
            }
          ],
          "internalType": "struct OnboardProposal.Proposal",
          "name": "",
          "type": "tuple"
        }
      ],
      "stateMutability": "view",
      "type": "function"
    },
    {
      "inputs": [
        {
          "internalType": "address",
          "name": "_user",
          "type": "address"
        },
        {
          "internalType": "uint256",
          "name": "_proposalId",
          "type": "uint256"
        }
      ],
      "name": "getUserProposalVote",
      "outputs": [
        {
          "components": [
            {
              "internalType": "uint256",
              "name": "choice",
              "type": "uint256"
            },
            {
              "internalType": "uint256",
              "name": "amount",
              "type": "uint256"
            },
            {
              "internalType": "bool",
              "name": "claimed",
              "type": "bool"
            }
          ],
          "internalType": "struct OnboardProposal.UserVote",
          "name": "",
          "type": "tuple"
        }
      ],
      "stateMutability": "view",
      "type": "function"
    },
    {
      "inputs": [],
      "name": "owner",
      "outputs": [
        {
          "internalType": "address",
          "name": "",
          "type": "address"
        }
      ],
      "stateMutability": "view",
      "type": "function"
    },
    {
      "inputs": [],
      "name": "priorityPoolFactory",
      "outputs": [
        {
          "internalType": "contract IPriorityPoolFactory",
          "name": "",
          "type": "address"
        }
      ],
      "stateMutability": "view",
      "type": "function"
    },
    {
      "inputs": [],
      "name": "proposalCounter",
      "outputs": [
        {
          "internalType": "uint256",
          "name": "",
          "type": "uint256"
        }
      ],
      "stateMutability": "view",
      "type": "function"
    },
    {
      "inputs": [
        {
          "internalType": "uint256",
          "name": "",
          "type": "uint256"
        }
      ],
      "name": "proposals",
      "outputs": [
        {
          "internalType": "string",
          "name": "name",
          "type": "string"
        },
        {
          "internalType": "address",
          "name": "protocolToken",
          "type": "address"
        },
        {
          "internalType": "address",
          "name": "proposer",
          "type": "address"
        },
        {
          "internalType": "uint256",
          "name": "proposeTimestamp",
          "type": "uint256"
        },
        {
          "internalType": "uint256",
          "name": "voteTimestamp",
          "type": "uint256"
        },
        {
          "internalType": "uint256",
          "name": "numFor",
          "type": "uint256"
        },
        {
          "internalType": "uint256",
          "name": "numAgainst",
          "type": "uint256"
        },
        {
          "internalType": "uint256",
          "name": "maxCapacity",
          "type": "uint256"
        },
        {
          "internalType": "uint256",
          "name": "basePremiumRatio",
          "type": "uint256"
        },
        {
          "internalType": "uint256",
          "name": "poolId",
          "type": "uint256"
        },
        {
          "internalType": "uint256",
          "name": "status",
          "type": "uint256"
        },
        {
          "internalType": "uint256",
          "name": "result",
          "type": "uint256"
        }
      ],
      "stateMutability": "view",
      "type": "function"
    },
    {
      "inputs": [
        {
          "internalType": "string",
          "name": "_name",
          "type": "string"
        },
        {
          "internalType": "address",
          "name": "_token",
          "type": "address"
        },
        {
          "internalType": "uint256",
          "name": "_maxCapacity",
          "type": "uint256"
        },
        {
          "internalType": "uint256",
          "name": "_basePremiumRatio",
          "type": "uint256"
        }
      ],
      "name": "propose",
      "outputs": [],
      "stateMutability": "nonpayable",
      "type": "function"
    },
    {
      "inputs": [
        {
          "internalType": "address",
          "name": "",
          "type": "address"
        }
      ],
      "name": "proposed",
      "outputs": [
        {
          "internalType": "bool",
          "name": "",
          "type": "bool"
        }
      ],
      "stateMutability": "view",
      "type": "function"
    },
    {
      "inputs": [],
      "name": "quorumRatio",
      "outputs": [
        {
          "internalType": "uint256",
          "name": "",
          "type": "uint256"
        }
      ],
      "stateMutability": "view",
      "type": "function"
    },
    {
      "inputs": [],
      "name": "renounceOwnership",
      "outputs": [],
      "stateMutability": "nonpayable",
      "type": "function"
    },
    {
      "inputs": [
        {
          "internalType": "address",
          "name": "_priorityPoolFactory",
          "type": "address"
        }
      ],
      "name": "setPriorityPoolFactory",
      "outputs": [],
      "stateMutability": "nonpayable",
      "type": "function"
    },
    {
      "inputs": [
        {
          "internalType": "uint256",
          "name": "_quorumRatio",
          "type": "uint256"
        }
      ],
      "name": "setQuorumRatio",
      "outputs": [],
      "stateMutability": "nonpayable",
      "type": "function"
    },
    {
      "inputs": [
        {
          "internalType": "uint256",
          "name": "_id",
          "type": "uint256"
        }
      ],
      "name": "settle",
      "outputs": [],
      "stateMutability": "nonpayable",
      "type": "function"
    },
    {
      "inputs": [
        {
          "internalType": "uint256",
          "name": "_id",
          "type": "uint256"
        }
      ],
      "name": "startVoting",
      "outputs": [],
      "stateMutability": "nonpayable",
      "type": "function"
    },
    {
      "inputs": [
        {
          "internalType": "address",
          "name": "newOwner",
          "type": "address"
        }
      ],
      "name": "transferOwnership",
      "outputs": [],
      "stateMutability": "nonpayable",
      "type": "function"
    },
    {
      "inputs": [
        {
          "internalType": "uint256",
          "name": "_id",
          "type": "uint256"
        },
        {
          "internalType": "uint256",
          "name": "_isFor",
          "type": "uint256"
        },
        {
          "internalType": "uint256",
          "name": "_amount",
          "type": "uint256"
        }
      ],
      "name": "vote",
      "outputs": [],
      "stateMutability": "nonpayable",
      "type": "function"
    },
    {
      "inputs": [
        {
          "internalType": "address",
          "name": "",
          "type": "address"
        },
        {
          "internalType": "uint256",
          "name": "",
          "type": "uint256"
        }
      ],
      "name": "votes",
      "outputs": [
        {
          "internalType": "uint256",
          "name": "choice",
          "type": "uint256"
        },
        {
          "internalType": "uint256",
          "name": "amount",
          "type": "uint256"
        },
        {
          "internalType": "bool",
          "name": "claimed",
          "type": "bool"
        }
      ],
      "stateMutability": "view",
      "type": "function"
    }
  ],
  "transactionHash": "0x1a9f531328ac3d15e18d6ae0b6d892929294a3197a201e90868ac12a8767ffec",
  "args": [
    "0xcC97E3F740012cFF9741d34EEcd8D9719982C6ea",
    "0xFe513e7651B1E31505a1e8DCf2C142E901424414",
    "0xF8DbE27262e0bB57af2bAE9243Db6Ad7735b1ebB"
  ],
  "numDeployments": 15,
  "solcInputHash": "3df6b06cd16c81eb5067c654f080ada2",
  "bytecode": "0x60e0346100c557601f6200185e38819003918201601f19168301916001600160401b038311848410176100ca578084926060946040528339810103126100c557610048816100e0565b6100606040610059602085016100e0565b93016100e0565b6001600160a01b0391821660805291811660a0521660c052600080546001600160a01b03191633179055601e6003556040516117699081620000f5823960805181610e66015260a051818181610645015281816108940152610c7c015260c051815050f35b600080fd5b634e487b7160e01b600052604160045260246000fd5b51906001600160a01b03821682036100c55756fe6040608081526004908136101561001557600080fd5b60009160e08335811c908163013cf08b146113005781630386a0161461125a5781630c0512e91461123a5781630dba2a9b1461121d5781630def040214611189578163164bfde514610d985781631ff799d214610d72578163379607f514610c255781633d2f5bda14610b9857816344ff823714610b7a5781636f8a6e4314610b50578163715018a614610ae85781638a6655d6146108245781638da5cb5b146107fb5781638df82800146105c75781639418ce17146105995781639f2524ee14610539578163ad35e1dc146104f0578163b4643d29146104d0578163b5e18ce414610491578163b8b8ed6e1461046f578163c7f758a814610399578163cceb68f5146101fc575063f2fde38b1461012c57600080fd5b346101f85760203660031901126101f85761014561157f565b83546001600160a01b03939184916101609083163314611628565b169182156101a757508160005491519382167f8be0079c531659141344cd1fd0a4f28419497f9722a3daafe3b4186f6b6457e0600086a36001600160a01b03191617600055f35b6020608492519162461bcd60e51b8352820152602660248201527f4f776e61626c653a206e6577206f776e657220697320746865207a65726f206160448201526564647265737360d01b6064820152fd5b8280fd5b90508391346101f857826003193601126101f857600280549061021e826116bc565b9361022b87519586611466565b828552601f1961023a846116bc565b01865b818110610382575050855b8381106102ac57875160208082528751818301819052899291600582901b83018c0191818b0191848e015b8287106102805785850386f35b90919293828061029c600193603f198a82030186528851611595565b9601920196019592919092610273565b600119811161036f5761036960019182810192838a52600b6020918983528c8c20908d51936102da85611449565b6102e383611488565b855260018060a01b038092840154169085015288820154168d84015260038101546060840152898101546080840152600581015460a0840152600681015460c084015260078101548784015260088101546101008401526009810154610120840152600a8101546101408401520154610160820152610362828a6116f6565b52876116f6565b50610248565b634e487b7160e01b875260118552602487fd5b60209061038d611661565b82828a0101520161023d565b849391503461046b57602036600319011261046b57600b9082610467956103be611661565b50853581528560205220908351946103d586611449565b6103de83611488565b865260018060a01b0380600185015416602088015260028401541685870152600383015460608701528201546080860152600582015460a0860152600682015460c086015260078201549085015260088101546101008501526009810154610120850152600a810154610140850152015461016083015251918291602083526020830190611595565b0390f35b8380fd5b5050503461048d578160031936011261048d57602090516146508152f35b5080fd5b5050503461048d57602036600319011261048d5760209160ff9082906001600160a01b036104bd61157f565b1681526005855220541690519015158152f35b5050503461048d578160031936011261048d576020906003549051908152f35b5050503461048d57602036600319011261048d5761050c61157f565b82546001600160a01b0391906105259083163314611628565b1660018060a01b0319600154161760015551f35b5050503461048d578060031936011261048d5760609181906001600160a01b0361056161157f565b16815260066020528181206024358252602052209081549160ff60026001830154920154169082519384526020840152151590820152f35b5050346101f85760203660031901126101f8576105c060018060a01b038454163314611628565b3560035551f35b8285853461048d576020806003193601126101f85783358084528482528483852092600a84019360028554036107eb5761060383820154611720565b156107db57600b810180546107cb576005820180549061062960068501928354906116d4565b89516318160ddd60e01b81526001600160a01b039787908290817f00000000000000000000000000000000000000000000000000000000000000008c165afa9081156107c1578c9161078f575b5060035490806000190482118115151661077b578b9c9d92916064919c9b9c0204111560001461072e575091600393917fc3e9e56c21ecd9fd3bcbaf6dd404f67ff375a520220a8edc72194dc096ef1c5099935490549081811160001461071557505060019586925b600184036106f8575b505055558351928352820152a151f35b60010154168b5260058552878b20805460ff191690558b806106e8565b10156107255760029586926106df565b839586926106df565b905060019497507fa9257f9d0c375c52bac8f7010bf9ee592a943ac8f8fbad61dea6a8487e283108989150600392555501541685526005825283852060ff1981541690558351908152a151f35b50634e487b7160e01b8c5260118d5260248cfd5b90508681813d83116107ba575b6107a68183611466565b810103126107b557518d610676565b600080fd5b503d61079c565b8b513d8e823e3d90fd5b86516379618fa360e11b81528490fd5b85516319c4ee9f60e31b81528390fd5b855163200e272960e11b81528390fd5b5050503461048d578160031936011261048d57905490516001600160a01b039091168152602090f35b5050346101f85760603660031901126101f85780359060243560443591838652602090808252858720906002600a83015403610ada576001841490811580610acf575b610ac15761087781840154611720565b610ab3578515610aa55787516370a0823160e01b815233828201527f00000000000000000000000000000000000000000000000000000000000000006001600160a01b0316908581602481855afa908115610a9b578b91610a6e575b50895163cbf9fe5f60e01b81523384820152908682602481865afa9182156107c1578c92610a3f575b50818110610a2c57038711610a1d57808a913b1561048d578951633c56aa6160e11b815233848201908152602081018a90529091839183919082908490829060400103925af18015610a13576109fb575b505033895260068452878920878a5284528789206001810180549092918791156109f45754036109e657505b6109848682546116d4565b9055156109d1576005016109998482546116d4565b90555b8451938452830152828201527ff3709dc32cf1356da6b8a12a5be1401aeb00989556be7b16ae566e65fef7a9df60603392a251f35b6006016109df8482546116d4565b905561099c565b885163fe5e801760e01b8152fd5b5550610979565b610a0490611435565b610a0f57883861094d565b8880fd5b8a513d84823e3d90fd5b508751630840c31d60e11b8152fd5b634e487b7160e01b8c526011845260248cfd5b9091508681813d8311610a67575b610a578183611466565b810103126107b5575190386108fc565b503d610a4d565b90508581813d8311610a94575b610a858183611466565b810103126107b55751386108d3565b503d610a7b565b8a513d8d823e3d90fd5b87516323f2f57960e11b8152fd5b87516319c4ee9f60e31b8152fd5b8751631cc147e360e31b8152fd5b506002851415610867565b865163200e272960e11b8152fd5b5050503461048d578160031936011261048d5781546001600160a01b039190610b149083163314611628565b6000805491519282167f8be0079c531659141344cd1fd0a4f28419497f9722a3daafe3b4186f6b6457e08285a36001600160a01b031916600055f35b5050503461048d578160031936011261048d5760015490516001600160a01b039091168152602090f35b5050503461048d578160031936011261048d57602090516127108152f35b5050346101f85760203660031901126101f857803590610bc260018060a01b038554163314611628565b8184528060205282842090600a82016001815403610c1657917f7612de03d869f469b9967d2920682d83541e890e1a05daa3de481bf10ff25b7a93916002869455429101558151908152426020820152a151f35b50835163200e272960e11b8152fd5b5050346101f85760203660031901126101f8578035808452816020526003600a848620015403610d63573384526006602052828420818552602052828420600281019060ff825416610d53576001018054909386917f00000000000000000000000000000000000000000000000000000000000000006001600160a01b03169190823b1561046b578751634bdc2db560e11b815233928101928352602083019190915291839183919082908490829060400103925af18015610d4957610d2d575b5050805460ff1916600117905590548251918252336020830152818301527f4ec90e965519d92681267467f775ada5bd214aa92c0dc93d90a5e880ce9ed02690606090a151f35b610d3990939293611435565b610d4557908438610ce6565b8480fd5b86513d84823e3d90fd5b845163a584468160e01b81528490fd5b50905163200e272960e11b8152fd5b5050503461048d578160031936011261048d576020905169021e19e0c9bab24000008152f35b5050346101f85760803660031901126101f857803567ffffffffffffffff808211610d455736602383011215610d455781830135908111610d455760249236848385010111611185576001600160a01b03843581811690819003611181576044359160643593600182815416928a518094635170e73160e11b82528685830152818c60209788935afa908115611177578d9161113d575b5061112d5785158015611122575b61111257612710871080159061110a575b6110fa57848c526005845260ff8b8d2054166110ea577f0000000000000000000000000000000000000000000000000000000000000000168b813b156110e75769021e19e0c9bab240000060448c838f51958694859363342c6d4d60e11b8552338b8601528401525af180156107c1576110d4575b50838b5260058352898b20805460ff19168217905560025460001992908381146110c2578201806002558c528352898b2091610eff83546113c9565b601f811161107a575b508b8c601f8a11600114610fe75793899795938997959360c09b8e7f67633902245d09131a2e6d9529b8a71b17851176469cb4cbc512174e3fe7c0379f9e9c969560089692610fda575b50508a831b918b60031b1c19161782555b81810180546001600160a01b0319908116881790915560028301805490911633179055426003830155600a820155600781018690550155895160a080825281018690529788968691018888013785850187018b9052850152338885015260608401526080830152601f01601f19168101030190a151f35b8d01013590508d38610f52565b91601f198a16858452868420935b81811061106357509389979591936008938e7f67633902245d09131a2e6d9529b8a71b17851176469cb4cbc512174e3fe7c0379f9e9c968e60c09f9d9b9910611049575b505050508089811b018255610f63565b60f88d60031b161c19918d01013516905538808d81611039565b8c84018e0135855593850193928701928701610ff5565b838d52848d20601f8a0160051c810191868b106110b8575b601f0160051c019083908e5b8382106110ad57505050610f08565b81550183908e61109e565b9091508190611092565b634e487b7160e01b8d52601182528a8dfd5b6110e0909b919b611435565b9938610ec3565b80fd5b8a516365bd930960e11b81528390fd5b8a516331b2314b60e01b81528390fd5b508615610e4e565b8a51637c2006d960e11b81528390fd5b506127108611610e3d565b8a51634a9caa2b60e01b81528390fd5b90508481813d8311611170575b6111548183611466565b8101031261116c5751801515810361116c5738610e2f565b8c80fd5b503d61114a565b8c513d8f823e3d90fd5b8780fd5b8580fd5b5050503461048d578060031936011261048d57806060926111a861157f565b818380516111b581611403565b828152826020820152015260018060a01b0316815260066020528181206024358252602052209080516111e781611403565b8254928382528260ff60026001840154936020860194855201541692019115158252825193845251602084015251151590820152f35b5050503461048d578160031936011261048d5760209051600a8152f35b5050503461048d578160031936011261048d576020906002549051908152f35b5050346101f85760203660031901126101f85782548135916001600160a01b03916112889083163314611628565b8285528060205283852090600a82019060018254036112f257509160017fbc54f85bee74832b80104d1b6d31c68eb8065057063a1d23f8ed7ce44a47f30294926101948795550154168552600560205281852060ff1981541690558151908152426020820152a151f35b855163200e272960e11b8152fd5b905083346110e75760203660031901126110e75783908335815283602052209061132982611488565b91600160a01b6001900393846001830154169460028301541692600383015491830154906005840154906006850154600786015492600887015494600988015496600a89015498600b0154998d519d8e9d8e9d8e610180908181520161138e9161152e565b9d602001528d015260608c015260808b015260a08a015260c08901528701526101008601526101208501526101408401526101608301520390f35b90600182811c921680156113f9575b60208310146113e357565b634e487b7160e01b600052602260045260246000fd5b91607f16916113d8565b6060810190811067ffffffffffffffff82111761141f57604052565b634e487b7160e01b600052604160045260246000fd5b67ffffffffffffffff811161141f57604052565b610180810190811067ffffffffffffffff82111761141f57604052565b90601f8019910116810190811067ffffffffffffffff82111761141f57604052565b906040519182600082549261149c846113c9565b90818452600194858116908160001461150b57506001146114c8575b50506114c692500383611466565b565b9093915060005260209081600020936000915b8183106114f35750506114c6935082010138806114b8565b855488840185015294850194879450918301916114db565b9150506114c694506020925060ff191682840152151560051b82010138806114b8565b91908251928382526000905b84821061156757509280602093941161155a575b601f01601f1916010190565b600083828401015261154e565b9060209081808285010151908286010152019061153a565b600435906001600160a01b03821682036107b557565b906115a9825161018080845283019061152e565b9160018060a01b038060208301511660208401526040820151166040830152606081015160608301526080810151608083015260a081015160a083015260c081015160c083015260e081015160e08301526101008082015190830152610120808201519083015261014080820151908301526101608091015191015290565b1561162f57565b60405162461bcd60e51b815260206004820152600a60248201526927b7363c9037bbb732b960b11b6044820152606490fd5b6040519061166e82611449565b81606081526101606000918260208201528260408201528260608201528260808201528260a08201528260c08201528260e08201528261010082015282610120820152826101408201520152565b67ffffffffffffffff811161141f5760051b60200190565b811981116116e0570190565b634e487b7160e01b600052601160045260246000fd5b805182101561170a5760209160051b010190565b634e487b7160e01b600052603260045260246000fd5b6146501981116116e0576146500142119056fea26469706673582212206acfc7ff4233ca07f9c8934b1a9077c4e2158c220866e2d60f9a7cff571f4f7f64736f6c634300080f0033",
  "devdoc": {
    "kind": "dev",
    "methods": {
      "claim(uint256)": {
        "params": {
          "_id": "Proposal id"
        }
      },
      "closeProposal(uint256)": {
        "params": {
          "_id": "Proposal id"
        }
      },
      "owner()": {
        "details": "Returns the address of the current owner."
      },
      "propose(string,address,uint256,uint256)": {
        "params": {
          "_basePremiumRatio": "Base annual ratio of the premium",
          "_maxCapacity": "Max capacity ratio for the project pool",
          "_name": "New project name",
          "_token": "Native token address"
        }
      },
      "renounceOwnership()": {
        "details": "Leaves the contract without owner. It will not be possible to call `onlyOwner` functions anymore. Can only be called by the current owner. NOTE: Renouncing ownership will leave the contract without an owner, thereby removing any functionality that is only available to the owner."
      },
      "settle(uint256)": {
        "params": {
          "_id": "Proposal id"
        }
      },
      "startVoting(uint256)": {
        "params": {
          "_id": "Proposal id to start voting"
        }
      },
      "transferOwnership(address)": {
        "details": "Transfers ownership of the contract to a new account (`newOwner`). Can only be called by the current owner."
      },
      "vote(uint256,uint256,uint256)": {
        "params": {
          "_amount": "Amount of veDEG to vote",
          "_id": "Proposal id",
          "_isFor": "Voting choice"
        }
      }
    },
    "version": 1
  },
  "userdoc": {
    "kind": "user",
    "methods": {
      "claim(uint256)": {
        "notice": "Claim back veDEG after voting result settled"
      },
      "closeProposal(uint256)": {
        "notice": "Close a pending proposal         Need the approval of dev team (onlyOwner)"
      },
      "propose(string,address,uint256,uint256)": {
        "notice": "Start a new proposal"
      },
      "settle(uint256)": {
        "notice": "Settle the proposal result"
      },
      "startVoting(uint256)": {
        "notice": "Start the voting process         Need the approval of dev team (onlyOwner)"
      },
      "vote(uint256,uint256,uint256)": {
        "notice": "Vote for a proposal         Voting power is decided by the (unlocked) balance of veDEG         Once voted, those veDEG will be locked"
      }
    },
    "notice": "Onboard Proposal",
    "version": 1
  },
  "storageLayout": {
    "storage": [
      {
        "astId": 21748,
        "contract": "src/voting/onboardProposal/OnboardProposal.sol:OnboardProposal",
        "label": "_owner",
        "offset": 0,
        "slot": "0",
        "type": "t_address"
      },
      {
        "astId": 24580,
        "contract": "src/voting/onboardProposal/OnboardProposal.sol:OnboardProposal",
        "label": "priorityPoolFactory",
        "offset": 0,
        "slot": "1",
        "type": "t_contract(IPriorityPoolFactory)14158"
      },
      {
        "astId": 23739,
        "contract": "src/voting/onboardProposal/OnboardProposal.sol:OnboardProposal",
        "label": "proposalCounter",
        "offset": 0,
        "slot": "2",
        "type": "t_uint256"
      },
      {
        "astId": 23741,
        "contract": "src/voting/onboardProposal/OnboardProposal.sol:OnboardProposal",
        "label": "quorumRatio",
        "offset": 0,
        "slot": "3",
        "type": "t_uint256"
      },
      {
        "astId": 23771,
        "contract": "src/voting/onboardProposal/OnboardProposal.sol:OnboardProposal",
        "label": "proposals",
        "offset": 0,
        "slot": "4",
        "type": "t_mapping(t_uint256,t_struct(Proposal)23766_storage)"
      },
      {
        "astId": 23775,
        "contract": "src/voting/onboardProposal/OnboardProposal.sol:OnboardProposal",
        "label": "proposed",
        "offset": 0,
        "slot": "5",
        "type": "t_mapping(t_address,t_bool)"
      },
      {
        "astId": 23789,
        "contract": "src/voting/onboardProposal/OnboardProposal.sol:OnboardProposal",
        "label": "votes",
        "offset": 0,
        "slot": "6",
        "type": "t_mapping(t_address,t_mapping(t_uint256,t_struct(UserVote)23782_storage))"
      }
    ],
    "types": {
      "t_address": {
        "encoding": "inplace",
        "label": "address",
        "numberOfBytes": "20"
      },
      "t_bool": {
        "encoding": "inplace",
        "label": "bool",
        "numberOfBytes": "1"
      },
      "t_contract(IPriorityPoolFactory)14158": {
        "encoding": "inplace",
        "label": "contract IPriorityPoolFactory",
        "numberOfBytes": "20"
      },
      "t_mapping(t_address,t_bool)": {
        "encoding": "mapping",
        "key": "t_address",
        "label": "mapping(address => bool)",
        "numberOfBytes": "32",
        "value": "t_bool"
      },
      "t_mapping(t_address,t_mapping(t_uint256,t_struct(UserVote)23782_storage))": {
        "encoding": "mapping",
        "key": "t_address",
        "label": "mapping(address => mapping(uint256 => struct OnboardProposal.UserVote))",
        "numberOfBytes": "32",
        "value": "t_mapping(t_uint256,t_struct(UserVote)23782_storage)"
      },
      "t_mapping(t_uint256,t_struct(Proposal)23766_storage)": {
        "encoding": "mapping",
        "key": "t_uint256",
        "label": "mapping(uint256 => struct OnboardProposal.Proposal)",
        "numberOfBytes": "32",
        "value": "t_struct(Proposal)23766_storage"
      },
      "t_mapping(t_uint256,t_struct(UserVote)23782_storage)": {
        "encoding": "mapping",
        "key": "t_uint256",
        "label": "mapping(uint256 => struct OnboardProposal.UserVote)",
        "numberOfBytes": "32",
        "value": "t_struct(UserVote)23782_storage"
      },
      "t_string_storage": {
        "encoding": "bytes",
        "label": "string",
        "numberOfBytes": "32"
      },
      "t_struct(Proposal)23766_storage": {
        "encoding": "inplace",
        "label": "struct OnboardProposal.Proposal",
        "members": [
          {
            "astId": 23743,
            "contract": "src/voting/onboardProposal/OnboardProposal.sol:OnboardProposal",
            "label": "name",
            "offset": 0,
            "slot": "0",
            "type": "t_string_storage"
          },
          {
            "astId": 23745,
            "contract": "src/voting/onboardProposal/OnboardProposal.sol:OnboardProposal",
            "label": "protocolToken",
            "offset": 0,
            "slot": "1",
            "type": "t_address"
          },
          {
            "astId": 23747,
            "contract": "src/voting/onboardProposal/OnboardProposal.sol:OnboardProposal",
            "label": "proposer",
            "offset": 0,
            "slot": "2",
            "type": "t_address"
          },
          {
            "astId": 23749,
            "contract": "src/voting/onboardProposal/OnboardProposal.sol:OnboardProposal",
            "label": "proposeTimestamp",
            "offset": 0,
            "slot": "3",
            "type": "t_uint256"
          },
          {
            "astId": 23751,
            "contract": "src/voting/onboardProposal/OnboardProposal.sol:OnboardProposal",
            "label": "voteTimestamp",
            "offset": 0,
            "slot": "4",
            "type": "t_uint256"
          },
          {
            "astId": 23753,
            "contract": "src/voting/onboardProposal/OnboardProposal.sol:OnboardProposal",
            "label": "numFor",
            "offset": 0,
            "slot": "5",
            "type": "t_uint256"
          },
          {
            "astId": 23755,
            "contract": "src/voting/onboardProposal/OnboardProposal.sol:OnboardProposal",
            "label": "numAgainst",
            "offset": 0,
            "slot": "6",
            "type": "t_uint256"
          },
          {
            "astId": 23757,
            "contract": "src/voting/onboardProposal/OnboardProposal.sol:OnboardProposal",
            "label": "maxCapacity",
            "offset": 0,
            "slot": "7",
            "type": "t_uint256"
          },
          {
            "astId": 23759,
            "contract": "src/voting/onboardProposal/OnboardProposal.sol:OnboardProposal",
            "label": "basePremiumRatio",
            "offset": 0,
            "slot": "8",
            "type": "t_uint256"
          },
          {
            "astId": 23761,
            "contract": "src/voting/onboardProposal/OnboardProposal.sol:OnboardProposal",
            "label": "poolId",
            "offset": 0,
            "slot": "9",
            "type": "t_uint256"
          },
          {
            "astId": 23763,
            "contract": "src/voting/onboardProposal/OnboardProposal.sol:OnboardProposal",
            "label": "status",
            "offset": 0,
            "slot": "10",
            "type": "t_uint256"
          },
          {
            "astId": 23765,
            "contract": "src/voting/onboardProposal/OnboardProposal.sol:OnboardProposal",
            "label": "result",
            "offset": 0,
            "slot": "11",
            "type": "t_uint256"
          }
        ],
        "numberOfBytes": "384"
      },
      "t_struct(UserVote)23782_storage": {
        "encoding": "inplace",
        "label": "struct OnboardProposal.UserVote",
        "members": [
          {
            "astId": 23777,
            "contract": "src/voting/onboardProposal/OnboardProposal.sol:OnboardProposal",
            "label": "choice",
            "offset": 0,
            "slot": "0",
            "type": "t_uint256"
          },
          {
            "astId": 23779,
            "contract": "src/voting/onboardProposal/OnboardProposal.sol:OnboardProposal",
            "label": "amount",
            "offset": 0,
            "slot": "1",
            "type": "t_uint256"
          },
          {
            "astId": 23781,
            "contract": "src/voting/onboardProposal/OnboardProposal.sol:OnboardProposal",
            "label": "claimed",
            "offset": 0,
            "slot": "2",
            "type": "t_bool"
          }
        ],
        "numberOfBytes": "96"
      },
      "t_uint256": {
        "encoding": "inplace",
        "label": "uint256",
        "numberOfBytes": "32"
      }
    }
  }
}