{
  "address": "0x9C66DBD14c0f84Bdf51c78086A270D6c0279918A",
  "abi": [
    {
      "inputs": [
        {
          "internalType": "address",
          "name": "_deg",
          "type": "address"
        },
        {
          "internalType": "address",
          "name": "_veDeg",
          "type": "address"
        },
        {
          "internalType": "address",
          "name": "_shield",
          "type": "address"
        },
        {
          "internalType": "address",
          "name": "_protectionPool",
          "type": "address"
        },
        {
          "internalType": "address",
          "name": "_USDC",
          "type": "address"
        }
      ],
      "stateMutability": "nonpayable",
      "type": "constructor"
    },
    {
      "inputs": [],
      "name": "PolicyCenter__AlreadyClaimedPayout",
      "type": "error"
    },
    {
      "inputs": [],
      "name": "PolicyCenter__BadLength",
      "type": "error"
    },
    {
      "inputs": [],
      "name": "PolicyCenter__CoverAmountTooSmall",
      "type": "error"
    },
    {
      "inputs": [],
      "name": "PolicyCenter__InsufficientCapacity",
      "type": "error"
    },
    {
      "inputs": [],
      "name": "PolicyCenter__InvalidPremiumSplit",
      "type": "error"
    },
    {
      "inputs": [],
      "name": "PolicyCenter__NoExchange",
      "type": "error"
    },
    {
      "inputs": [],
      "name": "PolicyCenter__NoLiquidity",
      "type": "error"
    },
    {
      "inputs": [],
      "name": "PolicyCenter__NoPayout",
      "type": "error"
    },
    {
      "inputs": [],
      "name": "PolicyCenter__NonExistentPool",
      "type": "error"
    },
    {
      "inputs": [],
      "name": "PolicyCenter__OnlyPriorityPoolFactory",
      "type": "error"
    },
    {
      "inputs": [],
      "name": "PolicyCenter__OnlyTreasury",
      "type": "error"
    },
    {
      "inputs": [],
      "name": "PolicyCenter__PoolPaused",
      "type": "error"
    },
    {
      "inputs": [],
      "name": "PolicyCenter__PremiumTooHigh",
      "type": "error"
    },
    {
      "inputs": [],
      "name": "PolicyCenter__WrongPriorityPoolID",
      "type": "error"
    },
    {
      "inputs": [],
      "name": "PolicyCenter__ZeroAmount",
      "type": "error"
    },
    {
      "inputs": [],
      "name": "PolicyCenter__ZeroPremium",
      "type": "error"
    },
    {
      "anonymous": false,
      "inputs": [
        {
          "indexed": true,
          "internalType": "address",
          "name": "buyer",
          "type": "address"
        },
        {
          "indexed": true,
          "internalType": "uint256",
          "name": "poolId",
          "type": "uint256"
        },
        {
          "indexed": false,
          "internalType": "uint256",
          "name": "coverDuration",
          "type": "uint256"
        },
        {
          "indexed": false,
          "internalType": "uint256",
          "name": "coverAmount",
          "type": "uint256"
        },
        {
          "indexed": false,
          "internalType": "uint256",
          "name": "premiumInShield",
          "type": "uint256"
        }
      ],
      "name": "CoverBought",
      "type": "event"
    },
    {
      "anonymous": false,
      "inputs": [
        {
          "indexed": true,
          "internalType": "address",
          "name": "user",
          "type": "address"
        },
        {
          "indexed": false,
          "internalType": "uint256",
          "name": "amount",
          "type": "uint256"
        }
      ],
      "name": "LiquidityProvided",
      "type": "event"
    },
    {
      "anonymous": false,
      "inputs": [
        {
          "indexed": true,
          "internalType": "address",
          "name": "user",
          "type": "address"
        },
        {
          "indexed": false,
          "internalType": "uint256",
          "name": "amount",
          "type": "uint256"
        }
      ],
      "name": "LiquidityRemoved",
      "type": "event"
    },
    {
      "anonymous": false,
      "inputs": [
        {
          "indexed": true,
          "internalType": "address",
          "name": "user",
          "type": "address"
        },
        {
          "indexed": true,
          "internalType": "uint256",
          "name": "poolId",
          "type": "uint256"
        },
        {
          "indexed": false,
          "internalType": "uint256",
          "name": "amount",
          "type": "uint256"
        }
      ],
      "name": "LiquidityStaked",
      "type": "event"
    },
    {
      "anonymous": false,
      "inputs": [
        {
          "indexed": true,
          "internalType": "address",
          "name": "user",
          "type": "address"
        },
        {
          "indexed": true,
          "internalType": "uint256",
          "name": "poolId",
          "type": "uint256"
        },
        {
          "indexed": false,
          "internalType": "uint256",
          "name": "amount",
          "type": "uint256"
        }
      ],
      "name": "LiquidityStakedWithoutFarming",
      "type": "event"
    },
    {
      "anonymous": false,
      "inputs": [
        {
          "indexed": true,
          "internalType": "address",
          "name": "user",
          "type": "address"
        },
        {
          "indexed": true,
          "internalType": "uint256",
          "name": "poolId",
          "type": "uint256"
        },
        {
          "indexed": false,
          "internalType": "address",
          "name": "priorityLP",
          "type": "address"
        },
        {
          "indexed": false,
          "internalType": "uint256",
          "name": "amount",
          "type": "uint256"
        }
      ],
      "name": "LiquidityUnstaked",
      "type": "event"
    },
    {
      "anonymous": false,
      "inputs": [
        {
          "indexed": true,
          "internalType": "address",
          "name": "user",
          "type": "address"
        },
        {
          "indexed": true,
          "internalType": "uint256",
          "name": "poolId",
          "type": "uint256"
        },
        {
          "indexed": false,
          "internalType": "address",
          "name": "priorityLP",
          "type": "address"
        },
        {
          "indexed": false,
          "internalType": "uint256",
          "name": "amount",
          "type": "uint256"
        }
      ],
      "name": "LiquidityUnstakedWithoutFarming",
      "type": "event"
    },
    {
      "anonymous": false,
      "inputs": [
        {
          "indexed": true,
          "internalType": "address",
          "name": "previousOwner",
          "type": "address"
        },
        {
          "indexed": true,
          "internalType": "address",
          "name": "newOwner",
          "type": "address"
        }
      ],
      "name": "OwnershipTransferred",
      "type": "event"
    },
    {
      "anonymous": false,
      "inputs": [
        {
          "indexed": true,
          "internalType": "address",
          "name": "user",
          "type": "address"
        },
        {
          "indexed": false,
          "internalType": "uint256",
          "name": "amount",
          "type": "uint256"
        }
      ],
      "name": "PayoutClaimed",
      "type": "event"
    },
    {
      "anonymous": false,
      "inputs": [
        {
          "indexed": false,
          "internalType": "uint256",
          "name": "toPriority",
          "type": "uint256"
        },
        {
          "indexed": false,
          "internalType": "uint256",
          "name": "toProtection",
          "type": "uint256"
        },
        {
          "indexed": false,
          "internalType": "uint256",
          "name": "toTreasury",
          "type": "uint256"
        }
      ],
      "name": "PremiumSplitted",
      "type": "event"
    },
    {
      "anonymous": false,
      "inputs": [
        {
          "indexed": false,
          "internalType": "address",
          "name": "fromToken",
          "type": "address"
        },
        {
          "indexed": false,
          "internalType": "uint256",
          "name": "amount",
          "type": "uint256"
        },
        {
          "indexed": false,
          "internalType": "uint256",
          "name": "received",
          "type": "uint256"
        }
      ],
      "name": "PremiumSwapped",
      "type": "event"
    },
    {
      "inputs": [],
      "name": "USDC",
      "outputs": [
        {
          "internalType": "address",
          "name": "",
          "type": "address"
        }
      ],
      "stateMutability": "view",
      "type": "function"
    },
    {
      "inputs": [
        {
          "internalType": "address",
          "name": "_token",
          "type": "address"
        }
      ],
      "name": "approvePoolToken",
      "outputs": [],
      "stateMutability": "nonpayable",
      "type": "function"
    },
    {
      "inputs": [
        {
          "internalType": "uint256",
          "name": "_poolId",
          "type": "uint256"
        },
        {
          "internalType": "uint256",
          "name": "_coverAmount",
          "type": "uint256"
        },
        {
          "internalType": "uint256",
          "name": "_coverDuration",
          "type": "uint256"
        },
        {
          "internalType": "uint256",
          "name": "_maxPayment",
          "type": "uint256"
        }
      ],
      "name": "buyCover",
      "outputs": [
        {
          "internalType": "address",
          "name": "",
          "type": "address"
        }
      ],
      "stateMutability": "nonpayable",
      "type": "function"
    },
    {
      "inputs": [
        {
          "internalType": "uint256",
          "name": "_poolId",
          "type": "uint256"
        },
        {
          "internalType": "address",
          "name": "_crToken",
          "type": "address"
        },
        {
          "internalType": "uint256",
          "name": "_generation",
          "type": "uint256"
        }
      ],
      "name": "claimPayout",
      "outputs": [],
      "stateMutability": "nonpayable",
      "type": "function"
    },
    {
      "inputs": [],
      "name": "coverRightTokenFactory",
      "outputs": [
        {
          "internalType": "address",
          "name": "",
          "type": "address"
        }
      ],
      "stateMutability": "view",
      "type": "function"
    },
    {
      "inputs": [
        {
          "internalType": "uint256",
          "name": "_poolId",
          "type": "uint256"
        }
      ],
      "name": "currentLPAddress",
      "outputs": [
        {
          "internalType": "address",
          "name": "lpAddress",
          "type": "address"
        }
      ],
      "stateMutability": "view",
      "type": "function"
    },
    {
      "inputs": [],
      "name": "exchange",
      "outputs": [
        {
          "internalType": "address",
          "name": "",
          "type": "address"
        }
      ],
      "stateMutability": "view",
      "type": "function"
    },
    {
      "inputs": [],
      "name": "getPremiumSplits",
      "outputs": [
        {
          "internalType": "uint256",
          "name": "",
          "type": "uint256"
        },
        {
          "internalType": "uint256",
          "name": "",
          "type": "uint256"
        }
      ],
      "stateMutability": "view",
      "type": "function"
    },
    {
      "inputs": [],
      "name": "owner",
      "outputs": [
        {
          "internalType": "address",
          "name": "",
          "type": "address"
        }
      ],
      "stateMutability": "view",
      "type": "function"
    },
    {
      "inputs": [],
      "name": "payoutPool",
      "outputs": [
        {
          "internalType": "address",
          "name": "",
          "type": "address"
        }
      ],
      "stateMutability": "view",
      "type": "function"
    },
    {
      "inputs": [
        {
          "internalType": "uint256",
          "name": "",
          "type": "uint256"
        }
      ],
      "name": "premiumSplits",
      "outputs": [
        {
          "internalType": "uint256",
          "name": "",
          "type": "uint256"
        }
      ],
      "stateMutability": "view",
      "type": "function"
    },
    {
      "inputs": [],
      "name": "priceGetter",
      "outputs": [
        {
          "internalType": "address",
          "name": "",
          "type": "address"
        }
      ],
      "stateMutability": "view",
      "type": "function"
    },
    {
      "inputs": [],
      "name": "priorityPoolFactory",
      "outputs": [
        {
          "internalType": "address",
          "name": "",
          "type": "address"
        }
      ],
      "stateMutability": "view",
      "type": "function"
    },
    {
      "inputs": [
        {
          "internalType": "uint256",
          "name": "",
          "type": "uint256"
        }
      ],
      "name": "priorityPools",
      "outputs": [
        {
          "internalType": "address",
          "name": "",
          "type": "address"
        }
      ],
      "stateMutability": "view",
      "type": "function"
    },
    {
      "inputs": [],
      "name": "protectionPool",
      "outputs": [
        {
          "internalType": "address",
          "name": "",
          "type": "address"
        }
      ],
      "stateMutability": "view",
      "type": "function"
    },
    {
      "inputs": [
        {
          "internalType": "uint256",
          "name": "_amount",
          "type": "uint256"
        }
      ],
      "name": "provideLiquidity",
      "outputs": [],
      "stateMutability": "nonpayable",
      "type": "function"
    },
    {
      "inputs": [
        {
          "internalType": "uint256",
          "name": "_amount",
          "type": "uint256"
        }
      ],
      "name": "removeLiquidity",
      "outputs": [],
      "stateMutability": "nonpayable",
      "type": "function"
    },
    {
      "inputs": [],
      "name": "renounceOwnership",
      "outputs": [],
      "stateMutability": "nonpayable",
      "type": "function"
    },
    {
      "inputs": [
        {
          "internalType": "address",
          "name": "_coverRightTokenFactory",
          "type": "address"
        }
      ],
      "name": "setCoverRightTokenFactory",
      "outputs": [],
      "stateMutability": "nonpayable",
      "type": "function"
    },
    {
      "inputs": [
        {
          "internalType": "address",
          "name": "_exchange",
          "type": "address"
        }
      ],
      "name": "setExchange",
      "outputs": [],
      "stateMutability": "nonpayable",
      "type": "function"
    },
    {
      "inputs": [
        {
          "internalType": "address",
          "name": "_payoutPool",
          "type": "address"
        }
      ],
      "name": "setPayoutPool",
      "outputs": [],
      "stateMutability": "nonpayable",
      "type": "function"
    },
    {
      "inputs": [
        {
          "internalType": "uint256",
          "name": "_priority",
          "type": "uint256"
        },
        {
          "internalType": "uint256",
          "name": "_protection",
          "type": "uint256"
        }
      ],
      "name": "setPremiumSplit",
      "outputs": [],
      "stateMutability": "nonpayable",
      "type": "function"
    },
    {
      "inputs": [
        {
          "internalType": "address",
          "name": "_priceGetter",
          "type": "address"
        }
      ],
      "name": "setPriceGetter",
      "outputs": [],
      "stateMutability": "nonpayable",
      "type": "function"
    },
    {
      "inputs": [
        {
          "internalType": "address",
          "name": "_priorityPoolFactory",
          "type": "address"
        }
      ],
      "name": "setPriorityPoolFactory",
      "outputs": [],
      "stateMutability": "nonpayable",
      "type": "function"
    },
    {
      "inputs": [
        {
          "internalType": "address",
          "name": "_protectionPool",
          "type": "address"
        }
      ],
      "name": "setProtectionPool",
      "outputs": [],
      "stateMutability": "nonpayable",
      "type": "function"
    },
    {
      "inputs": [
        {
          "internalType": "address",
          "name": "_treasury",
          "type": "address"
        }
      ],
      "name": "setTreasury",
      "outputs": [],
      "stateMutability": "nonpayable",
      "type": "function"
    },
    {
      "inputs": [
        {
          "internalType": "address",
          "name": "_weightedFarmingPool",
          "type": "address"
        }
      ],
      "name": "setWeightedFarmingPool",
      "outputs": [],
      "stateMutability": "nonpayable",
      "type": "function"
    },
    {
      "inputs": [
        {
          "internalType": "uint256",
          "name": "_poolId",
          "type": "uint256"
        },
        {
          "internalType": "uint256",
          "name": "_amount",
          "type": "uint256"
        }
      ],
      "name": "stakeLiquidity",
      "outputs": [],
      "stateMutability": "nonpayable",
      "type": "function"
    },
    {
      "inputs": [
        {
          "internalType": "uint256",
          "name": "_poolId",
          "type": "uint256"
        },
        {
          "internalType": "uint256",
          "name": "_amount",
          "type": "uint256"
        }
      ],
      "name": "stakeLiquidityWithoutFarming",
      "outputs": [],
      "stateMutability": "nonpayable",
      "type": "function"
    },
    {
      "inputs": [
        {
          "internalType": "address",
          "name": "_pool",
          "type": "address"
        },
        {
          "internalType": "address",
          "name": "_token",
          "type": "address"
        },
        {
          "internalType": "uint256",
          "name": "_poolId",
          "type": "uint256"
        }
      ],
      "name": "storePoolInformation",
      "outputs": [],
      "stateMutability": "nonpayable",
      "type": "function"
    },
    {
      "inputs": [
        {
          "internalType": "uint256",
          "name": "",
          "type": "uint256"
        }
      ],
      "name": "tokenByPoolId",
      "outputs": [
        {
          "internalType": "address",
          "name": "",
          "type": "address"
        }
      ],
      "stateMutability": "view",
      "type": "function"
    },
    {
      "inputs": [
        {
          "internalType": "address",
          "name": "newOwner",
          "type": "address"
        }
      ],
      "name": "transferOwnership",
      "outputs": [],
      "stateMutability": "nonpayable",
      "type": "function"
    },
    {
      "inputs": [],
      "name": "treasury",
      "outputs": [
        {
          "internalType": "address",
          "name": "",
          "type": "address"
        }
      ],
      "stateMutability": "view",
      "type": "function"
    },
    {
      "inputs": [
        {
          "internalType": "uint256",
          "name": "_poolId",
          "type": "uint256"
        },
        {
          "internalType": "address",
          "name": "_priorityLP",
          "type": "address"
        },
        {
          "internalType": "uint256",
          "name": "_amount",
          "type": "uint256"
        }
      ],
      "name": "unstakeLiquidity",
      "outputs": [],
      "stateMutability": "nonpayable",
      "type": "function"
    },
    {
      "inputs": [
        {
          "internalType": "uint256",
          "name": "_poolId",
          "type": "uint256"
        },
        {
          "internalType": "address",
          "name": "_priorityLP",
          "type": "address"
        },
        {
          "internalType": "uint256",
          "name": "_amount",
          "type": "uint256"
        }
      ],
      "name": "unstakeLiquidityWithoutFarming",
      "outputs": [],
      "stateMutability": "nonpayable",
      "type": "function"
    },
    {
      "inputs": [],
      "name": "weightedFarmingPool",
      "outputs": [
        {
          "internalType": "address",
          "name": "",
          "type": "address"
        }
      ],
      "stateMutability": "view",
      "type": "function"
    }
  ],
  "transactionHash": "0x8e7f796b9d025f07242aebd7ee6b469ea2401d8293c975558bdc16ef2018e82f",
  "args": [
    "0x7eD154039e7B2Def6a4c23039c686669911AE1cc",
    "0x20D06Ad582Ed1Fb7C21c1EDBd4Ce60D46ca04c76",
    "0x4550512Cf678c82D9c2e08A1950F16AE70B48398",
    "0xf4Ed837bfb4C21C86F7901C11585501f38577B46",
    "0x6a5b46a03294Ef860b4480c3D3dB610DB691aFbe"
  ],
  "numDeployments": 14,
  "solcInputHash": "492c46c9b84c537d652d667f517d116a",
  "bytecode": "0x61010060409080825234620002295760a0816200343480380380916200002682856200022e565b83398101031262000229576200003c8162000268565b60206200004b81840162000268565b916200005985850162000268565b906200007660806200006e6060880162000268565b960162000268565b6001600160a01b0391821660805293811660a05290811660c0819052600080546001600160a01b03199081163317825581805260098552878220805482169785169788179055600a85528782208054821690931790925560018054909216909517815585519193918087016001600160401b038111828210176200021557875261119481526113888482015283929190600b9087905b60028210620001fc57505050508060e05260448460c05116868851968794859363095ea7b360e01b855260048501526000196024850152165af18015620001f257620001b1575b83516131b690816200027e823960805181505060a05181505060c0518181816103b2015281816110e2015281816116820152818161170e0152818161187001526118db015260e051818181610cd9015281816115c901526116ce0152f35b81813d8311620001ea575b620001c881836200022e565b81010312620001e6575180151503620001e357808062000153565b80fd5b5080fd5b503d620001bc565b84513d85823e3d90fd5b805161ffff16835586959284019291840191016200010c565b634e487b7160e01b87526041600452602487fd5b600080fd5b601f909101601f19168101906001600160401b038211908210176200025257604052565b634e487b7160e01b600052604160045260246000fd5b51906001600160a01b0382168203620002295756fe6080604052600436101561001257600080fd5b6000803560e01c80630121cff51461236b578063056d7e5814612338578063298d4dd0146122ef578063398273041461224b5780633f81ff26146122025780634ea4c6b31461201257806358bf0f2c14611fc957806361d027b314611fa05780636273106a14611f775780636549920d1461104d57806367b1f5df1461100457806367c0dd8214610eb557806367e03b5414610e8c5780636c1b700f14610e635780636f8a6e4314610e3a578063715018a614610dd357806372306c7c14610d0857806389a3027114610cc35780638da5cb5b14610c9c5780639030b54214610c6f5780639c8f9f2314610bad578063a8bf604d14610b77578063aa139d5b14610b2e578063ab07211e146109ed578063ad35e1dc146109a4578063b567dc6a1461097b578063b6cccdd0146108ef578063bef1e500146105d7578063c2260f48146104da578063ceed1b90146104b1578063d2f7265a14610488578063eb521a4c1461031a578063f02bbc52146102e7578063f0f442601461029e578063f2fde38b146101d05763f42c2b49146101a957600080fd5b346101cd57806003193601126101cd576040600b54600c5482519182526020820152f35b80fd5b50346101cd5760203660031901126101cd576101ea6123b4565b81546001600160a01b03918291610204908316331461246d565b16801561024a57600054816040519382167f8be0079c531659141344cd1fd0a4f28419497f9722a3daafe3b4186f6b6457e0600086a36001600160a01b03191617600055f35b60405162461bcd60e51b815260206004820152602660248201527f4f776e61626c653a206e6577206f776e657220697320746865207a65726f206160448201526564647265737360d01b6064820152608490fd5b50346101cd5760203660031901126101cd576102b86123b4565b81546001600160a01b0391906102d1908316331461246d565b1660018060a01b03196008541617600855604051f35b50346101cd5760203660031901126101cd576020906004358152600a8252604060018060a01b0391205416604051908152f35b50346101cd5760203660031901126101cd576004358015610476576001546001600160a01b03908116803b15610472576040516344abf1a960e01b81526004810184905233602482015290849081908390604490829084905af191821561046557849261044a575b5050602090826103ae9360015416866040518096819582946323b872dd60e01b845233600485016124f5565b03927f0000000000000000000000000000000000000000000000000000000000000000165af1801561043f57610411575b506040519081527fccb2ae3a2936bf4c94fa4e12cdf0cdad6ed0e4888a044cef89afa60f2e4b92d360203392a2604051f35b6104319060203d8111610438575b6104298183612438565b8101906124dd565b50386103df565b503d61041f565b6040513d85823e3d90fd5b61045591925061240a565b61046157818338610382565b8280fd5b50604051903d90823e3d90fd5b8380fd5b604051631613633b60e01b8152600490fd5b50346101cd57806003193601126101cd576006546040516001600160a01b039091168152602090f35b50346101cd57806003193601126101cd576002546040516001600160a01b039091168152602090f35b50346101cd576104e9366123e0565b828452600960205260408420546001600160a01b03908116156105c55781156104765784908482526009602052604082205416803b156105c1576040516301733ea560e41b81526001600160a01b0385166004820152602481018490523360448201529082908290606490829084905af180156105b6576105a2575b505061059a7fe44f6895444d7e27100c9f3a39dbf225380f26b7b7ad7cf0cebff9f7e00d5ab091604051918291339583612517565b0390a3604051f35b6105ab9061240a565b610472578338610565565b6040513d84823e3d90fd5b5080fd5b604051635824d49b60e01b8152600490fd5b50346101cd576105e6366123e0565b909180845260206009815260018060a01b039081604087205416156105c55782156105c5578594602494868460035416604051978880926315895f4760e31b82528960048301525afa9081156108e457879687926108bc575b50604085608481600754169583519a8b938492631357a41960e11b845233600485015216978860248401528b60448401528660648401525af196871561087d5788908998610888575b506040519081527fec68461f5d4cc45c89e914cb8826a966c73dd35e5f97815ece0a01ffa4a025a6853392a2866106c0575b87604051f35b83600493604051948580926370c264df60e11b82525afa92831561087d578893610842575b5090816106f389949361261f565b50866107036201518085046129cd565b5061071284878599949961272a565b968988161561078b575b5050505050505090501691823b156107865760405163020da84160e61b8152600481019290925233602483015260448201529082908290606490829084905af180156105b657610772575b8080808080806106ba565b61077b9061240a565b6101cd578038610767565b505050fd5b88969750906107a561079f6107b5936130bd565b916130bd565b6107ae866130bd565b918761262e565b936107dc89600454169460405198899788968795636c1020a160e01b8752600487016126f0565b03925af19182156108375786926107fd575b5050803880808689828061071c565b90809250813d8311610830575b6108148183612438565b8101031261082c5761082590612459565b38806107ee565b8480fd5b503d61080a565b6040513d88823e3d90fd5b8480929399508194503d8311610876575b61085d8183612438565b8101031261087157905187969091876106e5565b600080fd5b503d610853565b6040513d8a823e3d90fd5b90506108ad91975060403d6040116108b5575b6108a58183612438565b810190612609565b969038610688565b503d61089b565b6108d99192503d8089833e6108d18183612438565b810190612582565b50505050903861063f565b6040513d89823e3d90fd5b50346101cd5760603660031901126101cd576109096123b4565b6001600160a01b039060243590828216808303610871578360035416330361096957610964936044358652600a6020526040862060018060a01b03199283825416179055600960205260408620921690825416179055612886565b604051f35b604051632b29402d60e21b8152600490fd5b50346101cd57806003193601126101cd576005546040516001600160a01b039091168152602090f35b50346101cd5760203660031901126101cd576109be6123b4565b81546001600160a01b0391906109d7908316331461246d565b1660018060a01b03196003541617600355604051f35b50346101cd576109fc366123e0565b828452600960205260408420546001600160a01b03908116156105c55781156104765780859160055416803b15610461576040516316858d7960e21b8152600481018790526001600160a01b0386166024820152604481018590523360648201529083908290608490829084905af190811561043f578391610b1a575b508590526009602052604082205416803b156105c1576040516301733ea560e41b81526001600160a01b0385166004820152602481018490523360448201529082908290606490829084905af180156105b657610b06575b505061059a7f2dbdab27a2d16e827c458789b39587a960ef326f381f784ffa198426f367519791604051918291339583612517565b610b0f9061240a565b610472578338610ad1565b610b239061240a565b6105c1578138610a79565b50346101cd5760203660031901126101cd57610b486123b4565b81546001600160a01b039190610b61908316331461246d565b1660018060a01b03196004541617600455604051f35b50346101cd5760203660031901126101cd57610964610b946123b4565b610ba860018060a01b03845416331461246d565b612886565b50346101cd576020806003193601126105c15760043590811561047657600154604051636d40d7d760e11b8152600481018490523360248201529082908290604490829088906001600160a01b03165af18015610c6457610c3a575b507fc2c3f06e49b9f15e7b4af9055e183b0d73362e033ad82a07dec9bf9840171719906040519283523392a2604051f35b8190813d8311610c5d575b610c4f8183612438565b810103126108715738610c09565b503d610c45565b6040513d86823e3d90fd5b50346101cd5760203660031901126101cd5760043560028110156105c157602090600b0154604051908152f35b50346101cd57806003193601126101cd57546040516001600160a01b039091168152602090f35b50346101cd57806003193601126101cd576040517f00000000000000000000000000000000000000000000000000000000000000006001600160a01b03168152602090f35b50346101cd57610d17366123ca565b90610d2c60018060a01b03845416331461246d565b80158015610dcb575b8015610db7575b610da55760405190604082018281106001600160401b03821117610d8f57604052815260209182820152600b9183915b60028310610d7a5784604051f35b60018282829351875501940192019192610d6c565b634e487b7160e01b600052604160045260246000fd5b604051639f0d205b60e01b8152600490fd5b50612710610dc583836124a6565b11610d3c565b508115610d35565b50346101cd57806003193601126101cd5780546001600160a01b0390610dfc908216331461246d565b60005460006040519282167f8be0079c531659141344cd1fd0a4f28419497f9722a3daafe3b4186f6b6457e08285a36001600160a01b031916600055f35b50346101cd57806003193601126101cd576003546040516001600160a01b039091168152602090f35b50346101cd57806003193601126101cd576001546040516001600160a01b039091168152602090f35b50346101cd57806003193601126101cd576004546040516001600160a01b039091168152602090f35b50346101cd57610ec4366123ca565b8183526009602090815260408420546001600160a01b0391908216156105c557821561047657838552600981526040808620549051630a43eeed60e11b8152600481018590523360248201529083169282826044818a885af19182156108e4578592610fbf575b5090610f569383926001541690886040518097819582946323b872dd60e01b845233600485016124f5565b03925af1918215610fb4577f6ed71e479f5286ad6192bfdc2b224afa6073276d8f9a0e5028400f589fbb39cc92610f97575b506040519283523392a3604051f35b610fad90823d8411610438576104298183612438565b5038610f88565b6040513d87823e3d90fd5b9091508281813d8311610ffd575b610fd78183612438565b81010312610ff957610f56938392610fef8793612459565b5091925093610f2b565b8680fd5b503d610fcd565b50346101cd5760203660031901126101cd5761101e6123b4565b81546001600160a01b039190611037908316331461246d565b1660018060a01b03196006541617600655604051f35b50346101cd5760803660031901126101cd576004358152600960205260408120546001600160a01b0316156105c5576298968060243510611f6557604435151580611f58575b15611f4657600435156105c5576004803582526009602090815260408084205460015491516370a0823160e01b81526001600160a01b03928316948101949094528116929190829060249082907f0000000000000000000000000000000000000000000000000000000000000000165afa90811561043f578391611f14575b506040516359b6a0c960e01b8152602081600481865afa908115610c64578491611ee0575b506127106111496020926004946124ca565b049260405192838092636835185f60e11b82525afa801561043f578390611eac575b61117891506024356124a6565b11611e9a57600435815260096020526044604060018060a01b038184205416815192838092638905faeb60e01b82526024356004830152823560248301525afa9081156105b65782908392611e78575b506064358111611e66576111e06201518042046129cd565b915050600160443510611e5257601960001960443501911015611e2e575b61121861120f6201518042046129cd565b938493916124a6565b9060018210611c715761123390600c600019840104906124a6565b90600119600c60001983010611611c71579261127992611274926001600c61128597600019010601916112668383612ffc565b809111611e26575b50612da1565b6124b2565b620151804206906124a6565b428110610472576201518061129a91046129cd565b506112b46112746112ad83859795612ffc565b8387612da1565b9062014370198211611b1e57610dd41962014370830111611b1e57603b1962015144830111611b1e576003546040516315895f4760e31b81526004803590820152908790829060249082906001600160a01b03165afa9283156108e45760049388928991611e02575b50604051630b90ca9160e11b81529460209186919082906001600160a01b03165afa93841561087d578894611dcb575b506201517f0191611361848460043561272a565b966001600160a01b03881615611d1c575b50505050506001600160a01b0383163b156104725760405163020da84160e61b815260048035908201523360248083019190915235604482015284908181606481836001600160a01b038a165af180156105b657611d08575b50508115611cf657600480358552600a602090815260408087205460025491516302c68be360e31b81526001600160a01b03918216948101859052949291859160249183918b91165af1928315610837578693611cc2575b5060405163313ce56760e01b8152602081600481865afa80156108e4578790611c85575b60ff91501660068110611c71578460001904670de0b6b3a764000011600116611b1e57604d600519820160ff1611611c7157611497906005190160ff16600a0a670de0b6b3a764000086026124ca565b8315611c5b576115426040518880602083016323b872dd60e01b81526114d6846114c88b89043033602485016124f5565b03601f198101865285612438565b604051936114e38561241d565b602085527f5361666545524332303a206c6f772d6c6576656c2063616c6c206661696c65646020860152519082895af13d15611c53573d9061152482612532565b916115326040519384612438565b82523d8b602084013e5b866127e9565b80519081611bde575b50508381046000190461119411848204151516611b1e5761157861271061119486840402048583046127de565b90604051918260608101106001600160401b03606085011117610d8f5760608301604052600283526040366020850137825115611bc857846020840152825160011015611bc8576001600160a01b037f000000000000000000000000000000000000000000000000000000000000000081166040850152600654166000198290046127061182151516611b1e576001194211611bb4579260405180946338ed173960e01b82528b60a48301856004850152612710612706870204602485015260a060448501528451809152602060c48501950190825b818110611b8b5750505082908160209530606483015260014201608483015203925af1928315611b80578993611b4c575b507f00000000000000000000000000000000000000000000000000000000000000006001600160a01b03163b15611b485788604051636f0372af60e01b81526001600482015260018060a01b037f000000000000000000000000000000000000000000000000000000000000000016602482015284604482015284606482015281816084818360018060a01b037f0000000000000000000000000000000000000000000000000000000000000000165af180156105b657611b34575b505060607f57f3d153693ba34ad2f1603ab743de3caf14b05ffa2fdfae8e9d0947a17c7ca391604051908782526020820152846040820152a181600019046113881182151516611b1e57879485602061182361179f61157c611388880204876127de565b60408051612710611194888a040204815261157c6113888a020460208201529081018290529098907fe59d21244ca3bff81515b705214dab78cc9f978c1939e610874429ffa47380b290606090a160055460405163a9059cbb60e01b815294859384928391906127108a8c046111940204906001600160a01b031660048401612517565b03925af180156108e457611aff575b5060015460405163a9059cbb60e01b8152906020908290819061186b9061157c6113888a0204906001600160a01b031660048401612517565b03818a7f00000000000000000000000000000000000000000000000000000000000000006001600160a01b03165af180156108e457611ae0575b5060085460405163a9059cbb60e01b815290602090829081906118d6908a906001600160a01b031660048401612517565b03818a7f00000000000000000000000000000000000000000000000000000000000000006001600160a01b03165af180156108e457611ac1575b506001546001600160a01b031690813b15610ff95760405163bf59705960e01b815261271091909304611194020460048301526044803560248401528201849052859082908183816064810103925af1908115610fb4578591611aad575b50506004358452600960205260408420546001600160a01b031691823b1561082c57608485928361157c95611388946040519788968795630aadb77760e01b8752602435600488015202046024850152604435604485015260648401525af190811561043f578391611a99575b50506008546001600160a01b0316803b1561046157604483926040519485938492635b97d36760e01b8452600435600485015260248401525af18015610c6457611a85575b60208383604051907f308dab4150a765534b441eef3367b2732d18bfdcd4b5ffe2a7084e1b169905156004359280611a703394602435604435846040919493926060820195825260208201520152565b0390a36040516001600160a01b039091168152f35b611a8f849161240a565b6104615782611a20565b611aa29061240a565b6105c15781386119db565b611ab69061240a565b61047257833861196e565b611ad99060203d602011610438576104298183612438565b5038611910565b611af89060203d602011610438576104298183612438565b50386118a5565b611b179060203d602011610438576104298183612438565b5038611832565b634e487b7160e01b600052601160045260246000fd5b611b3d9061240a565b611b4857883861173b565b8880fd5b9092506020813d602011611b78575b81611b6860209383612438565b810103126108715751913861167f565b3d9150611b5b565b6040513d8b823e3d90fd5b92509294600191945060208091838060a01b038751168152019401910190879394928e9261164e565b634e487b7160e01b8a52601160045260248afd5b634e487b7160e01b600052603260045260246000fd5b602080611bef9383010191016124dd565b15611bfb57388061154b565b60405162461bcd60e51b815260206004820152602a60248201527f5361666545524332303a204552433230206f7065726174696f6e20646964206e6044820152691bdd081cdd58d8d9595960b21b6064820152608490fd5b60609061153c565b634e487b7160e01b600052601260045260246000fd5b634e487b7160e01b87526011600452602487fd5b506020813d602011611cba575b81611c9f60209383612438565b81010312610ff9575160ff81168103610ff95760ff90611447565b3d9150611c92565b9092506020813d602011611cee575b81611cde60209383612438565b8101031261087157519138611423565b3d9150611cd1565b60405163720794bf60e01b8152600490fd5b611d119061240a565b6104725783386113cb565b60209495975090611d3261079f611d42936130bd565b611d3b876130bd565b918461262e565b8760018060a01b036004541692611d7360405197889687958694636c1020a160e01b865260043590600487016126f0565b03925af1908115610c64578491611d91575b50913880808080611372565b90506020813d602011611dc3575b81611dac60209383612438565b8101031261047257611dbd90612459565b38611d85565b3d9150611d9f565b9093506020813d602011611dfa575b81611de760209383612438565b810103126108715751926201517f61134d565b3d9150611dda565b60209350611e1a91503d808b833e6108d18183612438565b5050509290929061131d565b92503861126e565b60011910611e3e576044356111fe565b634e487b7160e01b83526011600452602483fd5b634e487b7160e01b84526011600452602484fd5b60405163855e507b60e01b8152600490fd5b9050611e93915060403d6040116108b5576108a58183612438565b90386111c8565b604051637730dc0b60e01b8152600490fd5b506020813d602011611ed8575b81611ec660209383612438565b8101031261087157611178905161116b565b3d9150611eb9565b90506020813d602011611f0c575b81611efb60209383612438565b810103126108715751612710611137565b3d9150611eee565b90506020813d602011611f3e575b81611f2f60209383612438565b81010312610871575138611112565b3d9150611f22565b6040516307aaabcb60e21b8152600490fd5b5060036044351115611093565b604051635827c18760e01b8152600490fd5b50346101cd57806003193601126101cd576007546040516001600160a01b039091168152602090f35b50346101cd57806003193601126101cd576008546040516001600160a01b039091168152602090f35b50346101cd5760203660031901126101cd57611fe36123b4565b81546001600160a01b039190611ffc908316331461246d565b1660018060a01b03196005541617600555604051f35b50346101cd57612021366123ca565b8183526009602090815260408420546001600160a01b03908116156105c557821561047657838552600982526040808620549051630a43eeed60e11b8152600481018590523060248201529190811683836044818a855af19283156108e4578491869189956121c2575b50906120b692918460015416908a6040518096819582946323b872dd60e01b845233600485016124f5565b03925af180156108e4576121a5575b508060055416803b15610ff957604051635a12fc9360e11b8152600481018790526001600160a01b0384166024820152604481018690523360648201529087908290608490829084905af180156108e457612188575b5091838192848861214796600554169160405180988196829563a9059cbb60e01b845260048401612517565b0393165af1918215610fb4577f1e54d7530dad81af38adb8ca9db02add3130668375f37be85396403616fc3d4992610f9757506040519283523392a3604051f35b839261214794929761219a879361240a565b97925092935061211b565b6121bb90843d8611610438576104298183612438565b50386120c5565b92839195508092503d83116121fb575b6121dc8183612438565b81010312610ff95783856121f26120b693612459565b9490919261208b565b503d6121d2565b50346101cd5760203660031901126101cd5761221c6123b4565b81546001600160a01b039190612235908316331461246d565b1660018060a01b03196007541617600755604051f35b50346101cd57602090816003193601126101cd57600480358252600983526040808320549051634e75827160e01b81526001600160a01b0392909185918391829086165afa9283156122e35780936122a9575b505060405191168152f35b909192508382813d83116122dc575b6122c28183612438565b810103126101cd57506122d490612459565b90388061229e565b503d6122b8565b604051903d90823e3d90fd5b50346101cd5760203660031901126101cd576123096123b4565b81546001600160a01b039190612322908316331461246d565b1660018060a01b03196002541617600255604051f35b50346101cd5760203660031901126101cd57602090600435815260098252604060018060a01b0391205416604051908152f35b50346101cd5760203660031901126101cd576123856123b4565b81546001600160a01b03919061239e908316331461246d565b1660018060a01b03196001541617600155604051f35b600435906001600160a01b038216820361087157565b6040906003190112610871576004359060243590565b606090600319011261087157600435906024356001600160a01b0381168103610871579060443590565b6001600160401b038111610d8f57604052565b604081019081106001600160401b03821117610d8f57604052565b90601f801991011681019081106001600160401b03821117610d8f57604052565b51906001600160a01b038216820361087157565b1561247457565b60405162461bcd60e51b815260206004820152600a60248201526927b7363c9037bbb732b960b11b6044820152606490fd5b81198111611b1e570190565b62015180908060001904821181151516611b1e570290565b8060001904821181151516611b1e570290565b90816020910312610871575180151581036108715790565b6001600160a01b03918216815291166020820152604081019190915260600190565b6001600160a01b039091168152602081019190915260400190565b6001600160401b038111610d8f57601f01601f191660200190565b918091926000905b82821061256d575011612566575050565b6000910152565b91508060209183015181860152018291612555565b9060a0828203126108715781516001600160401b03811161087157820181601f820112156108715780516125b581612532565b926125c36040519485612438565b81845260208284010111610871576125e1916020808501910161254d565b916125ee60208301612459565b916125fb60408201612459565b916080606083015192015190565b9190826040910312610871576020825192015190565b6000198114611b1e5760010190565b60279194936126c9936040519687936243522d60e81b602086015261265d81518092602060238901910161254d565b840190602d60f81b9182602382015261268082518093602060248501910161254d565b0190602482015261269b82518093602060258501910161254d565b01612d4760f01b60258201526126ba825180936020878501910161254d565b01036007810185520183612438565b565b906020916126e48151809281855285808601910161254d565b601f01601f1916010190565b9160809361270d612720939897969860a0865260a08601906126cb565b91602085015283820360408501526126cb565b9460608201520152565b916040519160208301938452604083015260608201526060815260808101918183106001600160401b03841117610d8f5782602481602093816040528551902060018060a01b036004541690631620909560e01b835260848701525afa9081156127d25760009161279c575b50905090565b602090813d81116127cb575b6127b28186612438565b810103126101cd57506127c490612459565b8038612796565b503d6127a8565b6040513d6000823e3d90fd5b818110611b1e570390565b9192901561284b57508151156127fd575090565b3b156128065790565b60405162461bcd60e51b815260206004820152601d60248201527f416464726573733a2063616c6c20746f206e6f6e2d636f6e74726163740000006044820152606490fd5b82519091501561285e5750805190602001fd5b60405162461bcd60e51b8152602060048201529081906128829060248301906126cb565b0390fd5b6006546001600160a01b03919082169081156128eb5760446020926000604051958694859363095ea7b360e01b8552600485015282196024850152165af180156127d2576128d15750565b6128e89060203d8111610438576104298183612438565b50565b6040516307bb995d60e41b8152600490fd5b6000811280156001600160ff1b03839003841316611b1e57600160ff1b829003831216611b1e570190565b6105b560008083136001600160ff1b038490048311166001166129785760017fffe9924f8d0dd7b2e6f174df9576f9de01c091c8faeb2605f522de8852b47aa88412828512161661297857500290565b634e487b7160e01b81526011600452602490fd5b600e600160ff1b018112600116611b1e57600d190190565b600082128015600160ff1b8401831216611b1e576001600160ff1b038301821316611b1e570390565b6000916001600160ff1b039162010bd990848112818503811581851316611c7157600160ff1b938385039283821216612d8d5787908401129162010bd819908162253d8c93018313841516612d7957011316612d65576226496501936001936004918587830484118289131616612d5257808712600760fd1b8812168616612d525762023ab196878160021b0597878985048211848b131616612d2c57877fffffc694f94337079d130ab45dff8e0f9ea161331bb1c93dea871de6fec83ce28a12848b121616612d2c578802828112818503600313811516612d3f5781870360031216612d2c5790846003612ac4930105906129a4565b928184128484038813811516612ce057848603881216612ccd57868401610fa08882860482118584131616612cf357887ffff7ced916872b020c49ba5e353f7ced916872b020c49ba5e353f7ced916872c83128584121616612cf357612b3d9162164b099102059482612b3687612928565b05906129a4565b828112818503601f13811516612cf357818703601f1216612ce057601f019680888504605011848a131616612ce057807ffe666666666666666666666666666666666666666666666666666666666666678912848a121616612ce05761098f9788816050020590828287048b118684131616612d195784821299837ffff29be1739a4fb805dbcd5d6c7d1f7d6fd627208942391f124ee1c3f307026884128c1616612d065790605083612bf2930205906129a4565b98600b820597828703600213821516612d065782900360021216612cf35781878604600c118589131616612cf357817ff55555555555555555555555555555555555555555555555555555555555555688128589121616612cf357612c5e90600288600c0291016129a4565b986031600160ff1b0181128216612cf3578190603019018095046064118486131616612ce0577ffeb851eb851eb851eb851eb851eb851eb851eb851eb851eb851eb851eb851eb984128385121616612ccd575050612cc89291612cc3916064026128fd565b6128fd565b929190565b634e487b7160e01b825260119052602490fd5b634e487b7160e01b835260118252602483fd5b634e487b7160e01b845260118352602484fd5b634e487b7160e01b865260118552602486fd5b634e487b7160e01b855260118452602485fd5b634e487b7160e01b835260118552602483fd5b634e487b7160e01b845260118652602484fd5b634e487b7160e01b815260118352602490fd5b634e487b7160e01b85526011600452602485fd5b634e487b7160e01b89526011600452602489fd5b634e487b7160e01b88526011600452602488fd5b9291926107b2811061087157600191617d4b600160ff1b0185128316611b1e576000918281128015926001600160ff1b03929182840391906112c08381138716612d8d57600160ff1b859003908181128316612d7957612e1e98999a9b612e2f91612e2360049b8c92600c612e158a61298c565b05908b016128fd565b612928565b0590617d4a19016128fd565b6002600160ff1b0184128b16612fe957600c612e4a8561298c565b058b7f0aaaaaaaaaaaaaaaaaaaaaaaaaaaaaaaaaaaaaaaaaaaaaaaaaaaaaaaaaaaaaaa82118c83131616612fd6578b7ff55555555555555555555555555555555555555555555555555555555555555682128c83121616612fd657612eb690600c0260011986016129a4565b61016f8c828a0482118d84131616612fc3578c7fffa6b6c1eb12d573186a06f9b8d9a287530217b7747d8eff4d6d83d625aae63183128d84121616612fc357612f059291600c910205906128fd565b9661132494851316612fb057831216612f9d578792606492600c612f2b612f339461298c565b0591016128fd565b058092046003118583131616612cf357847fd55555555555555555555555555555555555555555555555555555555555555682128583121616612cf3579082612f809260030205906129a4565b9262253d8c600160ff1b01841216612ccd57505062253d8b190190565b634e487b7160e01b875260118652602487fd5b634e487b7160e01b895260118852602489fd5b634e487b7160e01b8c5260118b5260248cfd5b634e487b7160e01b8b5260118a5260248bfd5b634e487b7160e01b8a526011895260248afd5b906001811480156130b3575b80156130a9575b801561309f575b8015613095575b801561308b575b8015613081575b15613037575050601f90565b6002146130445750601e90565b60038116159081613074575b8115613067575b501561306257601d90565b601c90565b6101909150061538613057565b6064810615159150613050565b50600c811461302b565b50600a8114613024565b506008811461301d565b5060078114613016565b506005811461300f565b5060038114613008565b801561316257600081805b61314e57506130d681612532565b906130e46040519283612438565b808252601f196130f382612532565b013660208401375b8083156131475760018110611b1e576000190192600a91828206603081198111611b1e578551871015611bc8570160f81b6001600160f81b03191660001a908401601f015304916130fb565b5050905090565b9061315a600a9161261f565b9104806130c8565b5060405161316f8161241d565b60018152600360fc1b60208201529056fea2646970667358221220b03c8f0192e80d6d4266b76fe5318776cf40bcd55639f420501df931ba8ab10864736f6c634300080f0033",
  "devdoc": {
    "author": "Eric Lee (ylikp.ust@gmail.com) & Primata (primata@375labs.org)",
    "kind": "dev",
    "methods": {
      "approvePoolToken(address)": {
        "params": {
          "_token": "Address of the approved token"
        }
      },
      "buyCover(uint256,uint256,uint256,uint256)": {
        "params": {
          "_coverAmount": "Amount to cover",
          "_coverDuration": "Cover duration in month (1 ~ 3)",
          "_maxPayment": "Maximum payment user can accept",
          "_poolId": "Pool id"
        },
        "returns": {
          "_0": "crToken CR token address"
        }
      },
      "claimPayout(uint256,address,uint256)": {
        "params": {
          "_crToken": "Cover right token address",
          "_generation": "Generation of the priority pool",
          "_poolId": "Pool id"
        }
      },
      "currentLPAddress(uint256)": {
        "params": {
          "_poolId": "Priority Pool ID"
        },
        "returns": {
          "lpAddress": "Current LP token address"
        }
      },
      "getPremiumSplits()": {
        "returns": {
          "_0": "toPriorityPool   Premium split to priority pool in bps",
          "_1": "toProtectionPool Premium split to protection pool in bps"
        }
      },
      "owner()": {
        "details": "Returns the address of the current owner."
      },
      "provideLiquidity(uint256)": {
        "params": {
          "_amount": "Amount of liquidity(shield) to provide"
        }
      },
      "removeLiquidity(uint256)": {
        "params": {
          "_amount": "Amount of liquidity to provide"
        }
      },
      "renounceOwnership()": {
        "details": "Leaves the contract without owner. It will not be possible to call `onlyOwner` functions anymore. Can only be called by the current owner. NOTE: Renouncing ownership will leave the contract without an owner, thereby removing any functionality that is only available to the owner."
      },
      "setPremiumSplit(uint256,uint256)": {
        "params": {
          "_priority": "Split for priority pool in bps",
          "_protection": "Split for protection pool in bps"
        }
      },
      "stakeLiquidity(uint256,uint256)": {
        "params": {
          "_amount": "Amount of PRO-LP tokens to stake",
          "_poolId": "Pool id"
        }
      },
      "stakeLiquidityWithoutFarming(uint256,uint256)": {
        "params": {
          "_amount": "Amount of PRO-LP amount",
          "_poolId": "Pool id"
        }
      },
      "storePoolInformation(address,address,uint256)": {
        "params": {
          "_pool": "Address of the priority pool",
          "_poolId": "Pool id",
          "_token": "Address of the priority pool's native token"
        }
      },
      "transferOwnership(address)": {
        "details": "Transfers ownership of the contract to a new account (`newOwner`). Can only be called by the current owner."
      },
      "unstakeLiquidity(uint256,address,uint256)": {
        "params": {
          "_amount": "Amount of LP(priority lp) tokens to withdraw",
          "_poolId": "Pool id",
          "_priorityLP": "Priority lp token address to withdraw"
        }
      },
      "unstakeLiquidityWithoutFarming(uint256,address,uint256)": {
        "params": {
          "_amount": "PRI-LP token amount to remove",
          "_poolId": "Pool id",
          "_priorityLP": "PRI-LP token address"
        }
      }
    },
    "title": "Policy Center",
    "version": 1
  },
  "userdoc": {
    "kind": "user",
    "methods": {
      "approvePoolToken(address)": {
        "notice": "Approve the exchange to swap tokens"
      },
      "buyCover(uint256,uint256,uint256,uint256)": {
        "notice": "Buy new cover for a given pool         Select a pool with parameter \"poolId\"         Cover amount is in shield and duration is in month         The premium ratio may be dynamic so \"maxPayment\" is similar to \"slippage\""
      },
      "claimPayout(uint256,address,uint256)": {
        "notice": "Claim payout         Need to use a specific crToken address as parameter"
      },
      "currentLPAddress(uint256)": {
        "notice": "Returns the current LP address for a Pool ID"
      },
      "getPremiumSplits()": {
        "notice": "Returns premium split used by Policy Center"
      },
      "provideLiquidity(uint256)": {
        "notice": "Provide liquidity to Protection Pool"
      },
      "removeLiquidity(uint256)": {
        "notice": "Remove liquidity from protection pool"
      },
      "setPremiumSplit(uint256,uint256)": {
        "notice": "Sets the premium splits used by Policy Center"
      },
      "stakeLiquidity(uint256,uint256)": {
        "notice": "Stake Protection Pool LP (PRO-LP) into priority pools         And automatically stake the PRI-LP tokens into weighted farming pool         With this function, no need for approval of PRI-LP tokens         If you want to hold the PRI-LP tokens for other usage         Call \"stakeLiquidityWithoutFarming\""
      },
      "stakeLiquidityWithoutFarming(uint256,uint256)": {
        "notice": "Stake liquidity to priority pool without depositing into farming"
      },
      "storePoolInformation(address,address,uint256)": {
        "notice": "Store new pool information"
      },
      "unstakeLiquidity(uint256,address,uint256)": {
        "notice": "Unstake Protection Pool LP from priority pools         There may be different generations of priority lp tokens         This function will first remove the PRI-LP token from farming pool         Ensure that your PRI-LP tokens are inside the farming pool         If the PRI-LP tokens are in your own wallet, use \"unstakeLiquidityWithoutFarming\""
      },
      "unstakeLiquidityWithoutFarming(uint256,address,uint256)": {
        "notice": "Unstake liquidity without removing PRI-LP from farming"
      }
    },
    "notice": "This is the policy center for degis Protocol Protection         Users can buy policies and get payoff here         Sellers can provide liquidity and choose the pools to cover",
    "version": 1
  },
  "storageLayout": {
    "storage": [
      {
        "astId": 21732,
        "contract": "src/core/PolicyCenter.sol:PolicyCenter",
        "label": "_owner",
        "offset": 0,
        "slot": "0",
        "type": "t_address"
      },
      {
        "astId": 12098,
        "contract": "src/core/PolicyCenter.sol:PolicyCenter",
        "label": "protectionPool",
        "offset": 0,
        "slot": "1",
        "type": "t_address"
      },
      {
        "astId": 12100,
        "contract": "src/core/PolicyCenter.sol:PolicyCenter",
        "label": "priceGetter",
        "offset": 0,
        "slot": "2",
        "type": "t_address"
      },
      {
        "astId": 12102,
        "contract": "src/core/PolicyCenter.sol:PolicyCenter",
        "label": "priorityPoolFactory",
        "offset": 0,
        "slot": "3",
        "type": "t_address"
      },
      {
        "astId": 12104,
        "contract": "src/core/PolicyCenter.sol:PolicyCenter",
        "label": "coverRightTokenFactory",
        "offset": 0,
        "slot": "4",
        "type": "t_address"
      },
      {
        "astId": 12106,
        "contract": "src/core/PolicyCenter.sol:PolicyCenter",
        "label": "weightedFarmingPool",
        "offset": 0,
        "slot": "5",
        "type": "t_address"
      },
      {
        "astId": 12108,
        "contract": "src/core/PolicyCenter.sol:PolicyCenter",
        "label": "exchange",
        "offset": 0,
        "slot": "6",
        "type": "t_address"
      },
      {
        "astId": 12110,
        "contract": "src/core/PolicyCenter.sol:PolicyCenter",
        "label": "payoutPool",
        "offset": 0,
        "slot": "7",
        "type": "t_address"
      },
      {
        "astId": 12112,
        "contract": "src/core/PolicyCenter.sol:PolicyCenter",
        "label": "treasury",
        "offset": 0,
        "slot": "8",
        "type": "t_address"
      },
      {
        "astId": 10617,
        "contract": "src/core/PolicyCenter.sol:PolicyCenter",
        "label": "priorityPools",
        "offset": 0,
        "slot": "9",
        "type": "t_mapping(t_uint256,t_address)"
      },
      {
        "astId": 10621,
        "contract": "src/core/PolicyCenter.sol:PolicyCenter",
        "label": "tokenByPoolId",
        "offset": 0,
        "slot": "10",
        "type": "t_mapping(t_uint256,t_address)"
      },
      {
        "astId": 10625,
        "contract": "src/core/PolicyCenter.sol:PolicyCenter",
        "label": "premiumSplits",
        "offset": 0,
        "slot": "11",
        "type": "t_array(t_uint256)2_storage"
      }
    ],
    "types": {
      "t_address": {
        "encoding": "inplace",
        "label": "address",
        "numberOfBytes": "20"
      },
      "t_array(t_uint256)2_storage": {
        "base": "t_uint256",
        "encoding": "inplace",
        "label": "uint256[2]",
        "numberOfBytes": "64"
      },
      "t_mapping(t_uint256,t_address)": {
        "encoding": "mapping",
        "key": "t_uint256",
        "label": "mapping(uint256 => address)",
        "numberOfBytes": "32",
        "value": "t_address"
      },
      "t_uint256": {
        "encoding": "inplace",
        "label": "uint256",
        "numberOfBytes": "32"
      }
    }
  }
}