{
  "address": "0xC3284aB7960b40b77efc599d1263733055fea77A",
  "abi": [
    {
      "inputs": [
        {
          "internalType": "address",
          "name": "_deg",
          "type": "address"
        },
        {
          "internalType": "address",
          "name": "_veDeg",
          "type": "address"
        },
        {
          "internalType": "address",
          "name": "_shield",
          "type": "address"
        },
        {
          "internalType": "address",
          "name": "_protectionPool",
          "type": "address"
        }
      ],
      "stateMutability": "nonpayable",
      "type": "constructor"
    },
    {
      "inputs": [],
      "name": "PolicyCenter__AlreadyClaimedPayout",
      "type": "error"
    },
    {
      "inputs": [],
      "name": "PolicyCenter__InsufficientCapacity",
      "type": "error"
    },
    {
      "inputs": [],
      "name": "PolicyCenter__NoExchange",
      "type": "error"
    },
    {
      "inputs": [],
      "name": "PolicyCenter__NoLiquidity",
      "type": "error"
    },
    {
      "inputs": [],
      "name": "PolicyCenter__NoPayout",
      "type": "error"
    },
    {
      "inputs": [],
      "name": "PolicyCenter__NonExistentPool",
      "type": "error"
    },
    {
      "inputs": [],
      "name": "PolicyCenter__WrongPriorityPoolID",
      "type": "error"
    },
    {
      "inputs": [],
      "name": "PolicyCenter__ZeroAmount",
      "type": "error"
    },
    {
      "inputs": [],
      "name": "PolicyCenter__ZeroPremium",
      "type": "error"
    },
    {
      "anonymous": false,
      "inputs": [
        {
          "indexed": true,
          "internalType": "address",
          "name": "buyer",
          "type": "address"
        },
        {
          "indexed": true,
          "internalType": "uint256",
          "name": "poolId",
          "type": "uint256"
        },
        {
          "indexed": false,
          "internalType": "uint256",
          "name": "coverDuration",
          "type": "uint256"
        },
        {
          "indexed": false,
          "internalType": "uint256",
          "name": "coverAmount",
          "type": "uint256"
        },
        {
          "indexed": false,
          "internalType": "uint256",
          "name": "premiumInShield",
          "type": "uint256"
        }
      ],
      "name": "CoverBought",
      "type": "event"
    },
    {
      "anonymous": false,
      "inputs": [
        {
          "indexed": true,
          "internalType": "address",
          "name": "user",
          "type": "address"
        },
        {
          "indexed": false,
          "internalType": "uint256",
          "name": "amount",
          "type": "uint256"
        }
      ],
      "name": "LiquidityProvided",
      "type": "event"
    },
    {
      "anonymous": false,
      "inputs": [
        {
          "indexed": true,
          "internalType": "address",
          "name": "user",
          "type": "address"
        },
        {
          "indexed": false,
          "internalType": "uint256",
          "name": "amount",
          "type": "uint256"
        }
      ],
      "name": "LiquidityRemoved",
      "type": "event"
    },
    {
      "anonymous": false,
      "inputs": [
        {
          "indexed": true,
          "internalType": "address",
          "name": "user",
          "type": "address"
        },
        {
          "indexed": true,
          "internalType": "uint256",
          "name": "poolId",
          "type": "uint256"
        },
        {
          "indexed": false,
          "internalType": "uint256",
          "name": "amount",
          "type": "uint256"
        }
      ],
      "name": "LiquidityStaked",
      "type": "event"
    },
    {
      "anonymous": false,
      "inputs": [
        {
          "indexed": true,
          "internalType": "address",
          "name": "user",
          "type": "address"
        },
        {
          "indexed": true,
          "internalType": "uint256",
          "name": "poolId",
          "type": "uint256"
        },
        {
          "indexed": false,
          "internalType": "uint256",
          "name": "amount",
          "type": "uint256"
        }
      ],
      "name": "LiquidityStakedWithoutFarming",
      "type": "event"
    },
    {
      "anonymous": false,
      "inputs": [
        {
          "indexed": true,
          "internalType": "address",
          "name": "user",
          "type": "address"
        },
        {
          "indexed": true,
          "internalType": "uint256",
          "name": "poolId",
          "type": "uint256"
        },
        {
          "indexed": false,
          "internalType": "address",
          "name": "priorityLP",
          "type": "address"
        },
        {
          "indexed": false,
          "internalType": "uint256",
          "name": "amount",
          "type": "uint256"
        }
      ],
      "name": "LiquidityUnstaked",
      "type": "event"
    },
    {
      "anonymous": false,
      "inputs": [
        {
          "indexed": true,
          "internalType": "address",
          "name": "user",
          "type": "address"
        },
        {
          "indexed": true,
          "internalType": "uint256",
          "name": "poolId",
          "type": "uint256"
        },
        {
          "indexed": false,
          "internalType": "address",
          "name": "priorityLP",
          "type": "address"
        },
        {
          "indexed": false,
          "internalType": "uint256",
          "name": "amount",
          "type": "uint256"
        }
      ],
      "name": "LiquidityUnstakedWithoutFarming",
      "type": "event"
    },
    {
      "anonymous": false,
      "inputs": [
        {
          "indexed": true,
          "internalType": "address",
          "name": "previousOwner",
          "type": "address"
        },
        {
          "indexed": true,
          "internalType": "address",
          "name": "newOwner",
          "type": "address"
        }
      ],
      "name": "OwnershipTransferred",
      "type": "event"
    },
    {
      "anonymous": false,
      "inputs": [
        {
          "indexed": true,
          "internalType": "address",
          "name": "user",
          "type": "address"
        },
        {
          "indexed": false,
          "internalType": "uint256",
          "name": "amount",
          "type": "uint256"
        }
      ],
      "name": "PayoutClaimed",
      "type": "event"
    },
    {
      "anonymous": false,
      "inputs": [
        {
          "indexed": false,
          "internalType": "uint256",
          "name": "toPriority",
          "type": "uint256"
        },
        {
          "indexed": false,
          "internalType": "uint256",
          "name": "toProtection",
          "type": "uint256"
        },
        {
          "indexed": false,
          "internalType": "uint256",
          "name": "toTreasury",
          "type": "uint256"
        }
      ],
      "name": "PremiumSplitted",
      "type": "event"
    },
    {
      "anonymous": false,
      "inputs": [
        {
          "indexed": false,
          "internalType": "address",
          "name": "fromToken",
          "type": "address"
        },
        {
          "indexed": false,
          "internalType": "uint256",
          "name": "amount",
          "type": "uint256"
        },
        {
          "indexed": false,
          "internalType": "uint256",
          "name": "received",
          "type": "uint256"
        }
      ],
      "name": "PremiumSwapped",
      "type": "event"
    },
    {
      "inputs": [
        {
          "internalType": "address",
          "name": "_token",
          "type": "address"
        }
      ],
      "name": "approvePoolToken",
      "outputs": [],
      "stateMutability": "nonpayable",
      "type": "function"
    },
    {
      "inputs": [
        {
          "internalType": "uint256",
          "name": "_poolId",
          "type": "uint256"
        },
        {
          "internalType": "uint256",
          "name": "_coverAmount",
          "type": "uint256"
        },
        {
          "internalType": "uint256",
          "name": "_coverDuration",
          "type": "uint256"
        },
        {
          "internalType": "uint256",
          "name": "_maxPayment",
          "type": "uint256"
        }
      ],
      "name": "buyCover",
      "outputs": [
        {
          "internalType": "address",
          "name": "",
          "type": "address"
        }
      ],
      "stateMutability": "nonpayable",
      "type": "function"
    },
    {
      "inputs": [
        {
          "internalType": "uint256",
          "name": "_poolId",
          "type": "uint256"
        },
        {
          "internalType": "address",
          "name": "_crToken",
          "type": "address"
        },
        {
          "internalType": "uint256",
          "name": "_generation",
          "type": "uint256"
        }
      ],
      "name": "claimPayout",
      "outputs": [],
      "stateMutability": "nonpayable",
      "type": "function"
    },
    {
      "inputs": [],
      "name": "coverRightTokenFactory",
      "outputs": [
        {
          "internalType": "address",
          "name": "",
          "type": "address"
        }
      ],
      "stateMutability": "view",
      "type": "function"
    },
    {
      "inputs": [
        {
          "internalType": "uint256",
          "name": "_poolId",
          "type": "uint256"
        }
      ],
      "name": "currentLPAddress",
      "outputs": [
        {
          "internalType": "address",
          "name": "lpAddress",
          "type": "address"
        }
      ],
      "stateMutability": "view",
      "type": "function"
    },
    {
      "inputs": [],
      "name": "exchange",
      "outputs": [
        {
          "internalType": "address",
          "name": "",
          "type": "address"
        }
      ],
      "stateMutability": "view",
      "type": "function"
    },
    {
      "inputs": [],
      "name": "getPremiumSplits",
      "outputs": [
        {
          "internalType": "uint256",
          "name": "",
          "type": "uint256"
        },
        {
          "internalType": "uint256",
          "name": "",
          "type": "uint256"
        }
      ],
      "stateMutability": "view",
      "type": "function"
    },
    {
      "inputs": [],
      "name": "owner",
      "outputs": [
        {
          "internalType": "address",
          "name": "",
          "type": "address"
        }
      ],
      "stateMutability": "view",
      "type": "function"
    },
    {
      "inputs": [],
      "name": "payoutPool",
      "outputs": [
        {
          "internalType": "address",
          "name": "",
          "type": "address"
        }
      ],
      "stateMutability": "view",
      "type": "function"
    },
    {
      "inputs": [
        {
          "internalType": "uint256",
          "name": "",
          "type": "uint256"
        }
      ],
      "name": "premiumSplits",
      "outputs": [
        {
          "internalType": "uint256",
          "name": "",
          "type": "uint256"
        }
      ],
      "stateMutability": "view",
      "type": "function"
    },
    {
      "inputs": [],
      "name": "priceGetter",
      "outputs": [
        {
          "internalType": "address",
          "name": "",
          "type": "address"
        }
      ],
      "stateMutability": "view",
      "type": "function"
    },
    {
      "inputs": [],
      "name": "priorityPoolFactory",
      "outputs": [
        {
          "internalType": "address",
          "name": "",
          "type": "address"
        }
      ],
      "stateMutability": "view",
      "type": "function"
    },
    {
      "inputs": [
        {
          "internalType": "uint256",
          "name": "",
          "type": "uint256"
        }
      ],
      "name": "priorityPools",
      "outputs": [
        {
          "internalType": "address",
          "name": "",
          "type": "address"
        }
      ],
      "stateMutability": "view",
      "type": "function"
    },
    {
      "inputs": [],
      "name": "protectionPool",
      "outputs": [
        {
          "internalType": "address",
          "name": "",
          "type": "address"
        }
      ],
      "stateMutability": "view",
      "type": "function"
    },
    {
      "inputs": [
        {
          "internalType": "uint256",
          "name": "_amount",
          "type": "uint256"
        }
      ],
      "name": "provideLiquidity",
      "outputs": [],
      "stateMutability": "nonpayable",
      "type": "function"
    },
    {
      "inputs": [
        {
          "internalType": "uint256",
          "name": "_amount",
          "type": "uint256"
        }
      ],
      "name": "removeLiquidity",
      "outputs": [],
      "stateMutability": "nonpayable",
      "type": "function"
    },
    {
      "inputs": [],
      "name": "renounceOwnership",
      "outputs": [],
      "stateMutability": "nonpayable",
      "type": "function"
    },
    {
      "inputs": [
        {
          "internalType": "address",
          "name": "_coverRightTokenFactory",
          "type": "address"
        }
      ],
      "name": "setCoverRightTokenFactory",
      "outputs": [],
      "stateMutability": "nonpayable",
      "type": "function"
    },
    {
      "inputs": [
        {
          "internalType": "address",
          "name": "_exchange",
          "type": "address"
        }
      ],
      "name": "setExchange",
      "outputs": [],
      "stateMutability": "nonpayable",
      "type": "function"
    },
    {
      "inputs": [
        {
          "internalType": "address",
          "name": "_payoutPool",
          "type": "address"
        }
      ],
      "name": "setPayoutPool",
      "outputs": [],
      "stateMutability": "nonpayable",
      "type": "function"
    },
    {
      "inputs": [
        {
          "internalType": "uint256",
          "name": "_priority",
          "type": "uint256"
        },
        {
          "internalType": "uint256",
          "name": "_protection",
          "type": "uint256"
        }
      ],
      "name": "setPremiumSplit",
      "outputs": [],
      "stateMutability": "nonpayable",
      "type": "function"
    },
    {
      "inputs": [
        {
          "internalType": "address",
          "name": "_priceGetter",
          "type": "address"
        }
      ],
      "name": "setPriceGetter",
      "outputs": [],
      "stateMutability": "nonpayable",
      "type": "function"
    },
    {
      "inputs": [
        {
          "internalType": "address",
          "name": "_priorityPoolFactory",
          "type": "address"
        }
      ],
      "name": "setPriorityPoolFactory",
      "outputs": [],
      "stateMutability": "nonpayable",
      "type": "function"
    },
    {
      "inputs": [
        {
          "internalType": "address",
          "name": "_protectionPool",
          "type": "address"
        }
      ],
      "name": "setProtectionPool",
      "outputs": [],
      "stateMutability": "nonpayable",
      "type": "function"
    },
    {
      "inputs": [
        {
          "internalType": "address",
          "name": "_treasury",
          "type": "address"
        }
      ],
      "name": "setTreasury",
      "outputs": [],
      "stateMutability": "nonpayable",
      "type": "function"
    },
    {
      "inputs": [
        {
          "internalType": "address",
          "name": "_weightedFarmingPool",
          "type": "address"
        }
      ],
      "name": "setWeightedFarmingPool",
      "outputs": [],
      "stateMutability": "nonpayable",
      "type": "function"
    },
    {
      "inputs": [
        {
          "internalType": "uint256",
          "name": "_poolId",
          "type": "uint256"
        },
        {
          "internalType": "uint256",
          "name": "_amount",
          "type": "uint256"
        }
      ],
      "name": "stakeLiquidity",
      "outputs": [],
      "stateMutability": "nonpayable",
      "type": "function"
    },
    {
      "inputs": [
        {
          "internalType": "uint256",
          "name": "_poolId",
          "type": "uint256"
        },
        {
          "internalType": "uint256",
          "name": "_amount",
          "type": "uint256"
        }
      ],
      "name": "stakeLiquidityWithoutFarming",
      "outputs": [],
      "stateMutability": "nonpayable",
      "type": "function"
    },
    {
      "inputs": [
        {
          "internalType": "address",
          "name": "_pool",
          "type": "address"
        },
        {
          "internalType": "address",
          "name": "_token",
          "type": "address"
        },
        {
          "internalType": "uint256",
          "name": "_poolId",
          "type": "uint256"
        }
      ],
      "name": "storePoolInformation",
      "outputs": [],
      "stateMutability": "nonpayable",
      "type": "function"
    },
    {
      "inputs": [
        {
          "internalType": "uint256",
          "name": "",
          "type": "uint256"
        }
      ],
      "name": "tokenByPoolId",
      "outputs": [
        {
          "internalType": "address",
          "name": "",
          "type": "address"
        }
      ],
      "stateMutability": "view",
      "type": "function"
    },
    {
      "inputs": [
        {
          "internalType": "address",
          "name": "newOwner",
          "type": "address"
        }
      ],
      "name": "transferOwnership",
      "outputs": [],
      "stateMutability": "nonpayable",
      "type": "function"
    },
    {
      "inputs": [],
      "name": "treasury",
      "outputs": [
        {
          "internalType": "address",
          "name": "",
          "type": "address"
        }
      ],
      "stateMutability": "view",
      "type": "function"
    },
    {
      "inputs": [
        {
          "internalType": "uint256",
          "name": "_poolId",
          "type": "uint256"
        },
        {
          "internalType": "address",
          "name": "_priorityLP",
          "type": "address"
        },
        {
          "internalType": "uint256",
          "name": "_amount",
          "type": "uint256"
        }
      ],
      "name": "unstakeLiquidity",
      "outputs": [],
      "stateMutability": "nonpayable",
      "type": "function"
    },
    {
      "inputs": [
        {
          "internalType": "uint256",
          "name": "_poolId",
          "type": "uint256"
        },
        {
          "internalType": "address",
          "name": "_priorityLP",
          "type": "address"
        },
        {
          "internalType": "uint256",
          "name": "_amount",
          "type": "uint256"
        }
      ],
      "name": "unstakeLiquidityWithoutFarming",
      "outputs": [],
      "stateMutability": "nonpayable",
      "type": "function"
    },
    {
      "inputs": [],
      "name": "weightedFarmingPool",
      "outputs": [
        {
          "internalType": "address",
          "name": "",
          "type": "address"
        }
      ],
      "stateMutability": "view",
      "type": "function"
    }
  ],
  "transactionHash": "0xd1f5e4ddb58af4af78e1a601683e3960b94e382d598ec67cbe62b4788d5c6004",
  "args": [
    "0x4Efd5a9269a328b1bf8873dC6d9EB5fF321aba09",
    "0xF98f0dE58c9a78B8e42def3cc49f02C2B35b81C9",
    "0x2afE704De753dDD32DC39f41C5F9D5df4bFc71F0",
    "0x39c0156f420D3Cb8881EEEA9cc40B9065a4ACFB5"
  ],
  "numDeployments": 1,
  "solcInputHash": "2386ce3d155c5ec6e42cfb722b7a311f",
  "bytecode": "0x60e0346200016d57601f6200328838819003918201601f19168301916001600160401b039182841185851017620001725781608092869260409687528339810103126200016d57620000518362000188565b6020916200006183860162000188565b916200007d60606200007587890162000188565b970162000188565b9560018060a01b038094818094166080521660a05216948560c05260018060a01b0319956000933388865416178555848052600986528685209216918288825416179055600a85528584209087825416179055600195865416178555835190848201908282109082111762000159578452611194815261138881840152600b92905b60028310620001415784516130ea90816200019e823960805181505060a05181505060c0518181816103a7015281816112040152818161172c015261178d0152f35b805161ffff16845592850192918501918101620000ff565b634e487b7160e01b83526041600452602483fd5b600080fd5b634e487b7160e01b600052604160045260246000fd5b51906001600160a01b03821682036200016d5756fe6080604052600436101561001257600080fd5b6000803560e01c80630121cff5146122f5578063056d7e58146122c2578063298d4dd01461227957806339827304146121d55780633f81ff261461218c5780634ea4c6b314611f8e57806358bf0f2c14611f4557806361d027b314611f1c5780636273106a14611ef35780636549920d1461116f57806367b1f5df1461112657806367c0dd8214610fd757806367e03b5414610fae5780636c1b700f14610f855780636f8a6e4314610f5c578063715018a614610ef557806372306c7c14610d915780638da5cb5b14610d6a5780639030b54214610d3d5780639c8f9f2314610c7b578063a8bf604d14610c45578063aa139d5b14610bfc578063ab07211e14610a65578063ad35e1dc14610a1c578063b567dc6a146109f3578063b6cccdd01461093b578063bef1e50014610618578063c2260f48146104cf578063ceed1b90146104a6578063d2f7265a1461047d578063eb521a4c1461030f578063f02bbc52146102dc578063f0f4426014610293578063f2fde38b146101c55763f42c2b491461019e57600080fd5b346101c257806003193601126101c2576040600b54600c5482519182526020820152f35b80fd5b50346101c25760203660031901126101c2576101df61233e565b81546001600160a01b039182916101f990831633146123f7565b16801561023f57600054816040519382167f8be0079c531659141344cd1fd0a4f28419497f9722a3daafe3b4186f6b6457e0600086a36001600160a01b03191617600055f35b60405162461bcd60e51b815260206004820152602660248201527f4f776e61626c653a206e6577206f776e657220697320746865207a65726f206160448201526564647265737360d01b6064820152608490fd5b50346101c25760203660031901126101c2576102ad61233e565b81546001600160a01b0391906102c690831633146123f7565b1660018060a01b03196008541617600855604051f35b50346101c25760203660031901126101c2576020906004358152600a8252604060018060a01b0391205416604051908152f35b50346101c25760203660031901126101c257600435801561046b576001546001600160a01b03908116803b15610467576040516344abf1a960e01b81526004810184905233602482015290849081908390604490829084905af191821561045a57849261043f575b5050602090826103a39360015416866040518096819582946323b872dd60e01b8452336004850161246c565b03927f0000000000000000000000000000000000000000000000000000000000000000165af1801561043457610406575b506040519081527fccb2ae3a2936bf4c94fa4e12cdf0cdad6ed0e4888a044cef89afa60f2e4b92d360203392a2604051f35b6104269060203d811161042d575b61041e81836123c2565b810190612454565b50386103d4565b503d610414565b6040513d85823e3d90fd5b61044a919250612394565b61045657818338610377565b8280fd5b50604051903d90823e3d90fd5b8380fd5b604051631613633b60e01b8152600490fd5b50346101c257806003193601126101c2576006546040516001600160a01b039091168152602090f35b50346101c257806003193601126101c2576002546040516001600160a01b039091168152602090f35b50346101c2576104de3661236a565b8284526009602090815260408520546001600160a01b039081161561060657821561046b578486526009825260408087205490516301733ea560e41b81526001600160a01b03861660048201526024810185905233604482015292918291849160649183918b91165af180156105fb5761059f575b5050604080516001600160a01b039093168352602083019190915233917fe44f6895444d7e27100c9f3a39dbf225380f26b7b7ad7cf0cebff9f7e00d5ab091819081015b0390a3604051f35b81813d83116105f4575b6105b381836123c2565b810103126105f0577fe44f6895444d7e27100c9f3a39dbf225380f26b7b7ad7cf0cebff9f7e00d5ab0916105e9610597926123e3565b5091610553565b8480fd5b503d6105a9565b6040513d88823e3d90fd5b604051635824d49b60e01b8152600490fd5b50346101c2576106273661236a565b909180845260206009815260018060a01b03908160408720541615610606578215610929578594602494868460035416604051978880926315895f4760e31b82528960048301525afa91821561091e57879687936108f6575b50604085608481600754169383519a8b938492631357a41960e11b845233600485015216958660248401528b60448401528760648401525af19687156108ad57889089986108b8575b50600493929185916040519081527fec68461f5d4cc45c89e914cb8826a966c73dd35e5f97815ece0a01ffa4a025a6833392a26040516370c264df60e11b815294859182905afa9283156108ad578893610872575b50908161072c89949361257b565b508661073c620151808504612929565b5061074b848785999499612686565b96898816156107ca575b5050505050505090501691823b156107c55760405163020da84160e61b8152600481019290925233602483015260448201529082908290606490829084905af180156107ba576107a6575b50604051f35b6107af90612394565b6101c25780386107a0565b6040513d84823e3d90fd5b505050fd5b88969750906107e46107de6107f493612ff1565b91612ff1565b6107ed86612ff1565b918761258a565b9361081b89600454169460405198899788968795636c1020a160e01b87526004870161264c565b03925af19182156105fb57869261083c575b50508038808086898280610755565b90809250813d831161086b575b61085381836123c2565b810103126105f057610864906123e3565b388061082d565b503d610849565b8480929399508194503d83116108a6575b61088d81836123c2565b810103126108a1579051879690918761071e565b600080fd5b503d610883565b6040513d8a823e3d90fd5b600494939298508591506108e39060403d6040116108ef575b6108db81836123c2565b810190612565565b989091509192936106c9565b503d6108d1565b6109139193503d8089833e61090b81836123c2565b8101906124de565b505050509138610680565b6040513d89823e3d90fd5b6040516367f304bf60e01b8152600490fd5b50346101c25760603660031901126101c25761095561233e565b6001600160a01b0390602435908282168083036108a157836003541633036109b5576109b0936044358652600a6020526040862060018060a01b031992838254161790556009602052604086209216908254161790556127e2565b604051f35b60405162461bcd60e51b81526020600482015260166024820152754f6e6c7920666163746f72792063616e2073746f726560501b6044820152606490fd5b50346101c257806003193601126101c2576005546040516001600160a01b039091168152602090f35b50346101c25760203660031901126101c257610a3661233e565b81546001600160a01b039190610a4f90831633146123f7565b1660018060a01b03196003541617600355604051f35b50346101c257610a743661236a565b8284526009602090815260408520546001600160a01b039081161561060657821561046b57858160055416803b15610bf8576040516316858d7960e21b8152600481018890526001600160a01b0387166024820152604481018690523360648201529082908290608490829084905af180156107ba57610be0575b508590526009825260408087205490516301733ea560e41b81526001600160a01b03861660048201526024810185905233604482015292918291849160649183918b91165af180156105fb57610b88575b5050604080516001600160a01b039093168352602083019190915233917f2dbdab27a2d16e827c458789b39587a960ef326f381f784ffa198426f36751979181908101610597565b81813d8311610bd9575b610b9c81836123c2565b810103126105f0577f2dbdab27a2d16e827c458789b39587a960ef326f381f784ffa198426f367519791610bd2610597926123e3565b5091610b40565b503d610b92565b610be990612394565b610bf4578538610aef565b8580fd5b5080fd5b50346101c25760203660031901126101c257610c1661233e565b81546001600160a01b039190610c2f90831633146123f7565b1660018060a01b03196004541617600455604051f35b50346101c25760203660031901126101c2576109b0610c6261233e565b610c7660018060a01b0384541633146123f7565b6127e2565b50346101c257602080600319360112610bf85760043590811561046b57600154604051636d40d7d760e11b8152600481018490523360248201529082908290604490829088906001600160a01b03165af18015610d3257610d08575b507fc2c3f06e49b9f15e7b4af9055e183b0d73362e033ad82a07dec9bf9840171719906040519283523392a2604051f35b8190813d8311610d2b575b610d1d81836123c2565b810103126108a15738610cd7565b503d610d13565b6040513d86823e3d90fd5b50346101c25760203660031901126101c2576004356002811015610bf857602090600b0154604051908152f35b50346101c257806003193601126101c257546040516001600160a01b039091168152602090f35b50346101c257610da036612354565b90610db560018060a01b0384541633146123f7565b612710610dc28383612430565b11610ec0578015610e7c578115610e385760405190604082018281106001600160401b03821117610e2257604052815260209182820152600b9183915b60028310610e0d5784604051f35b60018282829351875501940192019192610dff565b634e487b7160e01b600052604160045260246000fd5b606460405162461bcd60e51b815260206004820152602060248201527f686173206e6f7420676976656e20612070726f74656374696f6e2073706c69746044820152fd5b606460405162461bcd60e51b815260206004820152602060248201527f686173206e6f7420676976656e20616e20696e737572616e63652073706c69746044820152fd5b60405162461bcd60e51b815260206004820152600d60248201526c125b9d985b1a59081cdc1b1a5d609a1b6044820152606490fd5b50346101c257806003193601126101c25780546001600160a01b0390610f1e90821633146123f7565b60005460006040519282167f8be0079c531659141344cd1fd0a4f28419497f9722a3daafe3b4186f6b6457e08285a36001600160a01b031916600055f35b50346101c257806003193601126101c2576003546040516001600160a01b039091168152602090f35b50346101c257806003193601126101c2576001546040516001600160a01b039091168152602090f35b50346101c257806003193601126101c2576004546040516001600160a01b039091168152602090f35b50346101c257610fe636612354565b8183526009602090815260408420546001600160a01b03919082161561060657821561046b57838552600981526040808620549051630a43eeed60e11b8152600481018590523360248201529083169282826044818a885af191821561091e5785926110e1575b50906110789383926001541690886040518097819582946323b872dd60e01b8452336004850161246c565b03925af19182156110d6577f6ed71e479f5286ad6192bfdc2b224afa6073276d8f9a0e5028400f589fbb39cc926110b9575b506040519283523392a3604051f35b6110cf90823d841161042d5761041e81836123c2565b50386110aa565b6040513d87823e3d90fd5b9091508281813d831161111f575b6110f981836123c2565b8101031261111b5761107893839261111187936123e3565b509192509361104d565b8680fd5b503d6110ef565b50346101c25760203660031901126101c25761114061233e565b81546001600160a01b03919061115990831633146123f7565b1660018060a01b03196006541617600655604051f35b50346101c25760803660031901126101c2576004358152600960205260408120546001600160a01b031615610606576305f5e10060243510611eae57604435151580611ea1575b15611e675760043515611e32576004803582526009602090815260408084205460015491516370a0823160e01b81526001600160a01b039283169481019490945281169190839060249082907f0000000000000000000000000000000000000000000000000000000000000000165afa918215610434578392611dfe575b506040516359b6a0c960e01b8152602081600481855afa908115610d32578491611dcc575b508260001904811183151516611a2a57602060049260405193848092636835185f60e11b82525afa918215610d32578492611d96575b5061129f61271092602435612430565b92020410611d8457600435815260096020526044604060018060a01b038184205416815192838092638905faeb60e01b82526024356004830152823560248301525afa9081156107ba5782908392611d62575b506064358111611d2a576201518080420461130c81612929565b92915050600160443510611d1657601960001960443501921015611cf0575b61133761134091612929565b93849391612430565b60018110611cdc5761135c600c91600019019282840490612430565b91066001198111611cdc57926113959261139092600161139e9601916113828383612f30565b809111611cd4575b50612cd5565b61243c565b82420690612430565b904282106105f0576113b09104612929565b5092906113ca6113906113c38684612f30565b8684612cd5565b9362014370198511611a2a57610dd41962014370860111611a2a57603b1962015144860111611a2a576003546040516315895f4760e31b81526004803590820152908790829060249082906001600160a01b03165afa92831561091e5760049388928991611cb0575b50604051630b90ca9160e11b81529460209186919082906001600160a01b03165afa9384156108ad578894611c7c575b506114718484600435612686565b966001600160a01b03881615611bc8575b50505050506001600160a01b0383163b156104675760405163020da84160e61b815260048035908201523360248083019190915235604482015284908181606481836001600160a01b038a165af180156107ba57611bb4575b50508115611ba2576004358452600a6020528360018060a01b03604082205416602060018060a01b03600254166024604051809581936302c68be360e31b83528660048401525af19182156105fb578692611b6e575b50836000190464e8d4a5100011600116611a2a578115611b58576115f76040518780602083016323b872dd60e01b815261158b8461157d8964e8d4a510008d020430336024850161246c565b03601f1981018652856123c2565b60405193611598856123a7565b602085527f5361666545524332303a206c6f772d6c6576656c2063616c6c206661696c65646020860152519082875af13d15611b50573d906115d98261248e565b916115e760405193846123c2565b82523d8a602084013e5b84612745565b80519081611adb575b505064e8d4a5100084028290046000198190046111941190151516611a2a576116436127106111948464e8d4a5100088020402048364e8d4a5100087020461273a565b90604051918260608101106001600160401b03606085011117610e225760608301604052600283526040366020850137825115611ac557816020840152825160011015611ac557601060408401526006546001600160a01b03168115156000198390046127061116611a2a576001194211611ab1579260405180946338ed173960e01b82528a60a483018560048501526103e8612706870204602485015260a060448501528451809152602060c48501950190825b818110611a8c5750505082908160209530606483015260014201608483015203925af19283156108ad578893611a58575b507f00000000000000000000000000000000000000000000000000000000000000006001600160a01b03163b15611a5457604051636f0372af60e01b81526001600482015260106024820152604481018490526064810184905288908181608481837f00000000000000000000000000000000000000000000000000000000000000006001600160a01b03165af180156107ba57611a40575b50507f57f3d153693ba34ad2f1603ab743de3caf14b05ffa2fdfae8e9d0947a17c7ca3916060916040519182526020820152836040820152a1611388928160001904841182151516611a2a578361182061157c89968502048461273a565b6040805161271061119464e8d4a510008b028990040204815261157c8487020460208201529081018290529094907fe59d21244ca3bff81515b705214dab78cc9f978c1939e610874429ffa47380b290606090a16001546001600160a01b0316803b1561111b5760405163bf59705960e01b815261271064e8d4a510008a0293909304611194029290920460048301526044803560248401528201849052869082908183816064810103925af19081156105fb578691611a16575b50506004358552600960205260408520546001600160a01b0316803b15610bf45761157c938660849281956040519788968795630aadb77760e01b8752602435600488015202046024850152604435604485015260648401525af1908115610434578391611a02575b50506008546001600160a01b0316803b1561045657604483926040519485938492635b97d36760e01b8452600435600485015260248401525af18015610d32576119ee575b60208383604051907f308dab4150a765534b441eef3367b2732d18bfdcd4b5ffe2a7084e1b1699051560043592806119d93394602435604435846040919493926060820195825260208201520152565b0390a36040516001600160a01b039091168152f35b6119f88491612394565b6104565782611989565b611a0b90612394565b610bf8578138611944565b611a1f90612394565b6105f05784386118db565b634e487b7160e01b600052601160045260246000fd5b611a4990612394565b611a545787386117c2565b8780fd5b9092506020813d602011611a84575b81611a74602093836123c2565b810103126108a157519138611729565b3d9150611a67565b82516001600160a01b031687526020968701968a96508f9450909201916001016116f8565b634e487b7160e01b89526011600452602489fd5b634e487b7160e01b600052603260045260246000fd5b602080611aec938301019101612454565b15611af8573880611600565b60405162461bcd60e51b815260206004820152602a60248201527f5361666545524332303a204552433230206f7065726174696f6e20646964206e6044820152691bdd081cdd58d8d9595960b21b6064820152608490fd5b6060906115f1565b634e487b7160e01b600052601260045260246000fd5b9091506020813d602011611b9a575b81611b8a602093836123c2565b810103126108a157519038611531565b3d9150611b7d565b60405163720794bf60e01b8152600490fd5b611bbd90612394565b6104675783386114db565b60209495975090611be36107de6201517f611bf39401612ff1565b611bec87612ff1565b918461258a565b8760018060a01b036004541692611c2460405197889687958694636c1020a160e01b8652600435906004870161264c565b03925af1908115610d32578491611c42575b50913880808080611482565b90506020813d602011611c74575b81611c5d602093836123c2565b8101031261046757611c6e906123e3565b38611c36565b3d9150611c50565b9093506020813d602011611ca8575b81611c98602093836123c2565b810103126108a157519238611463565b3d9150611c8b565b60209350611cc891503d808b833e61090b81836123c2565b50505092909290611433565b92503861138a565b634e487b7160e01b88526011600452602488fd5b9060011910611d02576044359061132b565b634e487b7160e01b85526011600452602485fd5b634e487b7160e01b86526011600452602486fd5b60405162461bcd60e51b815260206004820152601060248201526f0a0e4cadad2eada40e8dede40d0d2ced60831b6044820152606490fd5b9050611d7d915060403d6040116108ef576108db81836123c2565b90386112f2565b604051637730dc0b60e01b8152600490fd5b91506020823d602011611dc4575b81611db1602093836123c2565b810103126108a15790519061129f61128f565b3d9150611da4565b90506020813d602011611df6575b81611de7602093836123c2565b810103126108a1575138611259565b3d9150611dda565b9091506020813d602011611e2a575b81611e1a602093836123c2565b810103126108a157519038611234565b3d9150611e0d565b60405162461bcd60e51b815260206004820152600d60248201526c15dc9bdb99c81c1bdbdb081a59609a1b6044820152606490fd5b60405162461bcd60e51b81526020600482015260126024820152710aee4dedcce40c6deeccae440d8cadccee8d60731b6044820152606490fd5b50600360443511156111b6565b60405162461bcd60e51b815260206004820152601a60248201527f556e646572206d696e696d756d20636f76657220616d6f756e740000000000006044820152606490fd5b50346101c257806003193601126101c2576007546040516001600160a01b039091168152602090f35b50346101c257806003193601126101c2576008546040516001600160a01b039091168152602090f35b50346101c25760203660031901126101c257611f5f61233e565b81546001600160a01b039190611f7890831633146123f7565b1660018060a01b03196005541617600555604051f35b50346101c257611f9d36612354565b8183526009602090815260408420546001600160a01b039081161561060657821561046b57838552600982526040808620549051630a43eeed60e11b8152600481018590523060248201529190811683836044818a855af192831561091e5784918691899561214c575b509061203292918460015416908a6040518096819582946323b872dd60e01b8452336004850161246c565b03925af1801561091e5761212f575b508060055416803b1561111b57604051635a12fc9360e11b8152600481018790526001600160a01b0384166024820152604481018690523360648201529087908290608490829084905af1801561091e57612112575b5060055460405163a9059cbb60e01b81529082166001600160a01b0316600482015260248101859052929182918491908290899082604481015b0393165af19182156110d6577f1e54d7530dad81af38adb8ca9db02add3130668375f37be85396403616fc3d49926110b957506040519283523392a3604051f35b83926120d19492976121248793612394565b979250929350612097565b61214590843d861161042d5761041e81836123c2565b5038612041565b92839195508092503d8311612185575b61216681836123c2565b8101031261111b57838561217c612032936123e3565b94909192612007565b503d61215c565b50346101c25760203660031901126101c2576121a661233e565b81546001600160a01b0391906121bf90831633146123f7565b1660018060a01b03196007541617600755604051f35b50346101c257602090816003193601126101c257600480358252600983526040808320549051634e75827160e01b81526001600160a01b0392909185918391829086165afa92831561226d578093612233575b505060405191168152f35b909192508382813d8311612266575b61224c81836123c2565b810103126101c2575061225e906123e3565b903880612228565b503d612242565b604051903d90823e3d90fd5b50346101c25760203660031901126101c25761229361233e565b81546001600160a01b0391906122ac90831633146123f7565b1660018060a01b03196002541617600255604051f35b50346101c25760203660031901126101c257602090600435815260098252604060018060a01b0391205416604051908152f35b50346101c25760203660031901126101c25761230f61233e565b81546001600160a01b03919061232890831633146123f7565b1660018060a01b03196001541617600155604051f35b600435906001600160a01b03821682036108a157565b60409060031901126108a1576004359060243590565b60609060031901126108a157600435906024356001600160a01b03811681036108a1579060443590565b6001600160401b038111610e2257604052565b604081019081106001600160401b03821117610e2257604052565b90601f801991011681019081106001600160401b03821117610e2257604052565b51906001600160a01b03821682036108a157565b156123fe57565b60405162461bcd60e51b815260206004820152600a60248201526927b7363c9037bbb732b960b11b6044820152606490fd5b81198111611a2a570190565b62015180908060001904821181151516611a2a570290565b908160209103126108a1575180151581036108a15790565b6001600160a01b03918216815291166020820152604081019190915260600190565b6001600160401b038111610e2257601f01601f191660200190565b918091926000905b8282106124c95750116124c2575050565b6000910152565b915080602091830151818601520182916124b1565b9060a0828203126108a15781516001600160401b0381116108a157820181601f820112156108a15780516125118161248e565b9261251f60405194856123c2565b818452602082840101116108a15761253d91602080850191016124a9565b9161254a602083016123e3565b91612557604082016123e3565b916080606083015192015190565b91908260409103126108a1576020825192015190565b6000198114611a2a5760010190565b6027919493612625936040519687936243522d60e81b60208601526125b98151809260206023890191016124a9565b840190602d60f81b918260238201526125dc8251809360206024850191016124a9565b019060248201526125f78251809360206025850191016124a9565b01612d4760f01b602582015261261682518093602087850191016124a9565b010360078101855201836123c2565b565b90602091612640815180928185528580860191016124a9565b601f01601f1916010190565b9160809361266961267c939897969860a0865260a0860190612627565b9160208501528382036040850152612627565b9460608201520152565b916040519160208301938452604083015260608201526060815260808101918183106001600160401b03841117610e225782602481602093816040528551902060018060a01b036004541690631620909560e01b835260848701525afa90811561272e576000916126f8575b50905090565b602090813d8111612727575b61270e81866123c2565b810103126101c25750612720906123e3565b80386126f2565b503d612704565b6040513d6000823e3d90fd5b818110611a2a570390565b919290156127a75750815115612759575090565b3b156127625790565b60405162461bcd60e51b815260206004820152601d60248201527f416464726573733a2063616c6c20746f206e6f6e2d636f6e74726163740000006044820152606490fd5b8251909150156127ba5750805190602001fd5b60405162461bcd60e51b8152602060048201529081906127de906024830190612627565b0390fd5b6006546001600160a01b03919082169081156128475760446020926000604051958694859363095ea7b360e01b8552600485015282196024850152165af1801561272e5761282d5750565b6128449060203d811161042d5761041e81836123c2565b50565b6040516307bb995d60e41b8152600490fd5b6000811280156001600160ff1b03839003841316611a2a57600160ff1b829003831216611a2a570190565b6105b560008083136001600160ff1b038490048311166001166128d45760017fffe9924f8d0dd7b2e6f174df9576f9de01c091c8faeb2605f522de8852b47aa8841282851216166128d457500290565b634e487b7160e01b81526011600452602490fd5b600e600160ff1b018112600116611a2a57600d190190565b600082128015600160ff1b8401831216611a2a576001600160ff1b038301821316611a2a570390565b6000916001600160ff1b039162010bd990848112818503811581851316612cc157600160ff1b938385039283821216611cdc5787908401129162010bd819908162253d8c93018313841516611ab157011316611d02576226496501936001936004918587830484118289131616612cae57808712600760fd1b8812168616612cae5762023ab196878160021b0597878985048211848b131616612c8857877fffffc694f94337079d130ab45dff8e0f9ea161331bb1c93dea871de6fec83ce28a12848b121616612c88578802828112818503600313811516612c9b5781870360031216612c885790846003612a2093010590612900565b928184128484038813811516612c3c57848603881216612c2957868401610fa08882860482118584131616612c4f57887ffff7ced916872b020c49ba5e353f7ced916872b020c49ba5e353f7ced916872c83128584121616612c4f57612a999162164b099102059482612a9287612884565b0590612900565b828112818503601f13811516612c4f57818703601f1216612c3c57601f019680888504605011848a131616612c3c57807ffe666666666666666666666666666666666666666666666666666666666666678912848a121616612c3c5761098f9788816050020590828287048b118684131616612c755784821299837ffff29be1739a4fb805dbcd5d6c7d1f7d6fd627208942391f124ee1c3f307026884128c1616612c625790605083612b4e93020590612900565b98600b820597828703600213821516612c625782900360021216612c4f5781878604600c118589131616612c4f57817ff55555555555555555555555555555555555555555555555555555555555555688128589121616612c4f57612bba90600288600c029101612900565b986031600160ff1b0181128216612c4f578190603019018095046064118486131616612c3c577ffeb851eb851eb851eb851eb851eb851eb851eb851eb851eb851eb851eb851eb984128385121616612c29575050612c249291612c1f91606402612859565b612859565b929190565b634e487b7160e01b825260119052602490fd5b634e487b7160e01b835260118252602483fd5b634e487b7160e01b845260118352602484fd5b634e487b7160e01b865260118552602486fd5b634e487b7160e01b855260118452602485fd5b634e487b7160e01b835260118552602483fd5b634e487b7160e01b845260118652602484fd5b634e487b7160e01b815260118352602490fd5b634e487b7160e01b87526011600452602487fd5b9291926107b281106108a157600191617d4b600160ff1b0185128316611a2a576000918281128015926001600160ff1b03929182840391906112c08381138716611cdc57600160ff1b859003908181128316611ab157612d5298999a9b612d6391612d5760049b8c92600c612d498a6128e8565b05908b01612859565b612884565b0590617d4a1901612859565b6002600160ff1b0184128b16612f1d57600c612d7e856128e8565b058b7f0aaaaaaaaaaaaaaaaaaaaaaaaaaaaaaaaaaaaaaaaaaaaaaaaaaaaaaaaaaaaaaa82118c83131616612f0a578b7ff55555555555555555555555555555555555555555555555555555555555555682128c83121616612f0a57612dea90600c026001198601612900565b61016f8c828a0482118d84131616612ef7578c7fffa6b6c1eb12d573186a06f9b8d9a287530217b7747d8eff4d6d83d625aae63183128d84121616612ef757612e399291600c91020590612859565b9661132494851316612ee457831216612ed1578792606492600c612e5f612e67946128e8565b059101612859565b058092046003118583131616612c4f57847fd55555555555555555555555555555555555555555555555555555555555555682128583121616612c4f579082612eb4926003020590612900565b9262253d8c600160ff1b01841216612c2957505062253d8b190190565b634e487b7160e01b875260118652602487fd5b634e487b7160e01b895260118852602489fd5b634e487b7160e01b8c5260118b5260248cfd5b634e487b7160e01b8b5260118a5260248bfd5b634e487b7160e01b8a526011895260248afd5b90600181148015612fe7575b8015612fdd575b8015612fd3575b8015612fc9575b8015612fbf575b8015612fb5575b15612f6b575050601f90565b600214612f785750601e90565b60038116159081612fa8575b8115612f9b575b5015612f9657601d90565b601c90565b6101909150061538612f8b565b6064810615159150612f84565b50600c8114612f5f565b50600a8114612f58565b5060088114612f51565b5060078114612f4a565b5060058114612f43565b5060038114612f3c565b801561309657600081805b613082575061300a8161248e565b9061301860405192836123c2565b808252601f196130278261248e565b013660208401375b80831561307b5760018110611a2a576000190192600a91828206603081198111611a2a578551871015611ac5570160f81b6001600160f81b03191660001a908401601f0153049161302f565b5050905090565b9061308e600a9161257b565b910480612ffc565b506040516130a3816123a7565b60018152600360fc1b60208201529056fea26469706673582212201f24e4c9a3bf6443e6b65203850250700c0ac84adfabe166ef8bce4406ac7a3b64736f6c634300080f0033",
  "devdoc": {
    "author": "Eric Lee (ylikp.ust@gmail.com) & Primata (primata@375labs.org)",
    "kind": "dev",
    "methods": {
      "approvePoolToken(address)": {
        "params": {
          "_token": "Address of the approved token"
        }
      },
      "buyCover(uint256,uint256,uint256,uint256)": {
        "params": {
          "_coverAmount": "Amount to cover",
          "_coverDuration": "Cover duration in month (1 ~ 3)",
          "_maxPayment": "Maximum payment user can accept",
          "_poolId": "Pool id"
        }
      },
      "claimPayout(uint256,address,uint256)": {
        "params": {
          "_crToken": "Cover right token address",
          "_generation": "Generation of the priority pool",
          "_poolId": "Pool id"
        }
      },
      "currentLPAddress(uint256)": {
        "params": {
          "_poolId": "Priority Pool ID"
        }
      },
      "getPremiumSplits()": {
        "returns": {
          "_0": "toPriorityPool   Premium split to priority pool in bps",
          "_1": "toProtectionPool Premium split to protection pool in bps"
        }
      },
      "owner()": {
        "details": "Returns the address of the current owner."
      },
      "provideLiquidity(uint256)": {
        "params": {
          "_amount": "Amount of liquidity(shield) to provide"
        }
      },
      "removeLiquidity(uint256)": {
        "params": {
          "_amount": "Amount of liquidity to provide"
        }
      },
      "renounceOwnership()": {
        "details": "Leaves the contract without owner. It will not be possible to call `onlyOwner` functions anymore. Can only be called by the current owner. NOTE: Renouncing ownership will leave the contract without an owner, thereby removing any functionality that is only available to the owner."
      },
      "setExchange(address)": {
        "params": {
          "_exchange": "Address of traderjoe contract"
        }
      },
      "setPremiumSplit(uint256,uint256)": {
        "params": {
          "_priority": "Split for priority pool in bps",
          "_protection": "Split for protection pool in bps"
        }
      },
      "stakeLiquidity(uint256,uint256)": {
        "params": {
          "_amount": "Amount of PRO-LP tokens to stake",
          "_poolId": "Pool id"
        }
      },
      "stakeLiquidityWithoutFarming(uint256,uint256)": {
        "params": {
          "_amount": "Amount of PRO-LP amount",
          "_poolId": "Pool id"
        }
      },
      "storePoolInformation(address,address,uint256)": {
        "params": {
          "_pool": "Address of the priority pool",
          "_poolId": "Pool id",
          "_token": "Address of the priority pool's native token"
        }
      },
      "transferOwnership(address)": {
        "details": "Transfers ownership of the contract to a new account (`newOwner`). Can only be called by the current owner."
      },
      "unstakeLiquidity(uint256,address,uint256)": {
        "params": {
          "_amount": "Amount of LP(priority lp) tokens to withdraw",
          "_poolId": "Pool id",
          "_priorityLP": "Priority lp token address to withdraw"
        }
      },
      "unstakeLiquidityWithoutFarming(uint256,address,uint256)": {
        "params": {
          "_amount": "PRI-LP token amount to remove",
          "_poolId": "Pool id",
          "_priorityLP": "PRI-LP token address"
        }
      }
    },
    "title": "Policy Center",
    "version": 1
  },
  "userdoc": {
    "kind": "user",
    "methods": {
      "approvePoolToken(address)": {
        "notice": "Approve the exchange to swap tokens"
      },
      "buyCover(uint256,uint256,uint256,uint256)": {
        "notice": "Buy new cover for a given pool         Select a pool with parameter \"poolId\"         Cover amount is in shield and duration is in month         The premium ratio may be dynamic so \"maxPayment\" is similar to \"slippage\""
      },
      "claimPayout(uint256,address,uint256)": {
        "notice": "Claim payout         Need to use a specific crToken address as parameter"
      },
      "currentLPAddress(uint256)": {
        "notice": "Returns the current LP address for a Pool ID"
      },
      "getPremiumSplits()": {
        "notice": "Returns premium split used by Policy Center"
      },
      "provideLiquidity(uint256)": {
        "notice": "Provide liquidity to Protection Pool"
      },
      "removeLiquidity(uint256)": {
        "notice": "Remove liquidity from protection pool"
      },
      "setExchange(address)": {
        "notice": "Set exchange address to be used for token swaps"
      },
      "setPremiumSplit(uint256,uint256)": {
        "notice": "Sets the premium splits used by Policy Center"
      },
      "stakeLiquidity(uint256,uint256)": {
        "notice": "Stake Protection Pool LP (PRO-LP) into priority pools         And automatically stake the PRI-LP tokens into weighted farming pool         With this function, no need for approval of PRI-LP tokens         If you want to hold the PRI-LP tokens for other usage         Call \"stakeLiquidityWithoutFarming\""
      },
      "stakeLiquidityWithoutFarming(uint256,uint256)": {
        "notice": "Stake liquidity to priority pool without depositing into farming"
      },
      "storePoolInformation(address,address,uint256)": {
        "notice": "Store new pool information"
      },
      "unstakeLiquidity(uint256,address,uint256)": {
        "notice": "Unstake Protection Pool LP from priority pools         There may be different generations of priority lp tokens         This function will first remove the PRI-LP token from farming pool         Ensure that your PRI-LP tokens are inside the farming pool         If the PRI-LP tokens are in your own wallet, use \"unstakeLiquidityWithoutFarming\""
      },
      "unstakeLiquidityWithoutFarming(uint256,address,uint256)": {
        "notice": "Unstake liquidity without removing PRI-LP from farming"
      }
    },
    "notice": "This is the policy center for degis Protocol Protection         Users can buy policies and get payoff here         Sellers can provide liquidity and choose the pools to cover",
    "version": 1
  },
  "storageLayout": {
    "storage": [
      {
        "astId": 21667,
        "contract": "src/core/PolicyCenter.sol:PolicyCenter",
        "label": "_owner",
        "offset": 0,
        "slot": "0",
        "type": "t_address"
      },
      {
        "astId": 12040,
        "contract": "src/core/PolicyCenter.sol:PolicyCenter",
        "label": "protectionPool",
        "offset": 0,
        "slot": "1",
        "type": "t_address"
      },
      {
        "astId": 12042,
        "contract": "src/core/PolicyCenter.sol:PolicyCenter",
        "label": "priceGetter",
        "offset": 0,
        "slot": "2",
        "type": "t_address"
      },
      {
        "astId": 12044,
        "contract": "src/core/PolicyCenter.sol:PolicyCenter",
        "label": "priorityPoolFactory",
        "offset": 0,
        "slot": "3",
        "type": "t_address"
      },
      {
        "astId": 12046,
        "contract": "src/core/PolicyCenter.sol:PolicyCenter",
        "label": "coverRightTokenFactory",
        "offset": 0,
        "slot": "4",
        "type": "t_address"
      },
      {
        "astId": 12048,
        "contract": "src/core/PolicyCenter.sol:PolicyCenter",
        "label": "weightedFarmingPool",
        "offset": 0,
        "slot": "5",
        "type": "t_address"
      },
      {
        "astId": 12050,
        "contract": "src/core/PolicyCenter.sol:PolicyCenter",
        "label": "exchange",
        "offset": 0,
        "slot": "6",
        "type": "t_address"
      },
      {
        "astId": 12052,
        "contract": "src/core/PolicyCenter.sol:PolicyCenter",
        "label": "payoutPool",
        "offset": 0,
        "slot": "7",
        "type": "t_address"
      },
      {
        "astId": 12054,
        "contract": "src/core/PolicyCenter.sol:PolicyCenter",
        "label": "treasury",
        "offset": 0,
        "slot": "8",
        "type": "t_address"
      },
      {
        "astId": 10607,
        "contract": "src/core/PolicyCenter.sol:PolicyCenter",
        "label": "priorityPools",
        "offset": 0,
        "slot": "9",
        "type": "t_mapping(t_uint256,t_address)"
      },
      {
        "astId": 10611,
        "contract": "src/core/PolicyCenter.sol:PolicyCenter",
        "label": "tokenByPoolId",
        "offset": 0,
        "slot": "10",
        "type": "t_mapping(t_uint256,t_address)"
      },
      {
        "astId": 10615,
        "contract": "src/core/PolicyCenter.sol:PolicyCenter",
        "label": "premiumSplits",
        "offset": 0,
        "slot": "11",
        "type": "t_array(t_uint256)2_storage"
      },
      {
        "astId": 10621,
        "contract": "src/core/PolicyCenter.sol:PolicyCenter",
        "label": "coverInMonth",
        "offset": 0,
        "slot": "13",
        "type": "t_mapping(t_uint256,t_mapping(t_uint256,t_uint256))"
      }
    ],
    "types": {
      "t_address": {
        "encoding": "inplace",
        "label": "address",
        "numberOfBytes": "20"
      },
      "t_array(t_uint256)2_storage": {
        "base": "t_uint256",
        "encoding": "inplace",
        "label": "uint256[2]",
        "numberOfBytes": "64"
      },
      "t_mapping(t_uint256,t_address)": {
        "encoding": "mapping",
        "key": "t_uint256",
        "label": "mapping(uint256 => address)",
        "numberOfBytes": "32",
        "value": "t_address"
      },
      "t_mapping(t_uint256,t_mapping(t_uint256,t_uint256))": {
        "encoding": "mapping",
        "key": "t_uint256",
        "label": "mapping(uint256 => mapping(uint256 => uint256))",
        "numberOfBytes": "32",
        "value": "t_mapping(t_uint256,t_uint256)"
      },
      "t_mapping(t_uint256,t_uint256)": {
        "encoding": "mapping",
        "key": "t_uint256",
        "label": "mapping(uint256 => uint256)",
        "numberOfBytes": "32",
        "value": "t_uint256"
      },
      "t_uint256": {
        "encoding": "inplace",
        "label": "uint256",
        "numberOfBytes": "32"
      }
    }
  }
}