{
  "address": "0xD3891907798c72ED3Be093A6f9A7044f47155354",
  "abi": [
    {
      "anonymous": false,
      "inputs": [
        {
          "indexed": false,
          "internalType": "uint8",
          "name": "version",
          "type": "uint8"
        }
      ],
      "name": "Initialized",
      "type": "event"
    },
    {
      "inputs": [
        {
          "internalType": "uint256",
          "name": "poolId",
          "type": "uint256"
        },
        {
          "internalType": "string",
          "name": "_name",
          "type": "string"
        },
        {
          "internalType": "address",
          "name": "_protocolToken",
          "type": "address"
        },
        {
          "internalType": "uint256",
          "name": "_maxCapacity",
          "type": "uint256"
        },
        {
          "internalType": "uint256",
          "name": "_basePremiumRatio",
          "type": "uint256"
        }
      ],
      "name": "deployPool",
      "outputs": [
        {
          "internalType": "address",
          "name": "",
          "type": "address"
        }
      ],
      "stateMutability": "nonpayable",
      "type": "function"
    },
    {
      "inputs": [
        {
          "internalType": "address",
          "name": "_priorityPoolFactory",
          "type": "address"
        },
        {
          "internalType": "address",
          "name": "_weightedFarmingPool",
          "type": "address"
        },
        {
          "internalType": "address",
          "name": "_protectionPool",
          "type": "address"
        },
        {
          "internalType": "address",
          "name": "_policyCenter",
          "type": "address"
        },
        {
          "internalType": "address",
          "name": "_payoutPool",
          "type": "address"
        }
      ],
      "name": "initialize",
      "outputs": [],
      "stateMutability": "nonpayable",
      "type": "function"
    },
    {
      "inputs": [],
      "name": "owner",
      "outputs": [
        {
          "internalType": "address",
          "name": "",
          "type": "address"
        }
      ],
      "stateMutability": "view",
      "type": "function"
    },
    {
      "inputs": [],
      "name": "payoutPool",
      "outputs": [
        {
          "internalType": "address",
          "name": "",
          "type": "address"
        }
      ],
      "stateMutability": "view",
      "type": "function"
    },
    {
      "inputs": [],
      "name": "policyCenter",
      "outputs": [
        {
          "internalType": "address",
          "name": "",
          "type": "address"
        }
      ],
      "stateMutability": "view",
      "type": "function"
    },
    {
      "inputs": [],
      "name": "priorityPoolFactory",
      "outputs": [
        {
          "internalType": "address",
          "name": "",
          "type": "address"
        }
      ],
      "stateMutability": "view",
      "type": "function"
    },
    {
      "inputs": [],
      "name": "protectionPool",
      "outputs": [
        {
          "internalType": "address",
          "name": "",
          "type": "address"
        }
      ],
      "stateMutability": "view",
      "type": "function"
    },
    {
      "inputs": [],
      "name": "weightedFarmingPool",
      "outputs": [
        {
          "internalType": "address",
          "name": "",
          "type": "address"
        }
      ],
      "stateMutability": "view",
      "type": "function"
    }
  ],
  "transactionHash": "0xb96c063cdacf20f6e79bfbf373a99f9e92fd79d56af941c8cfd033fcf7b08100",
  "args": [],
  "numDeployments": 1,
  "solcInputHash": "e1ba30aa7fe1764f1fb0e486bbf521c6",
  "bytecode": "0x60808060405234610016576152e9908161001c8239f35b600080fdfe6080604052600436101562000014575b600080fd5b6000803560e01c9081631459457a14620000cd575080634758ff0114620000c25780636273106a14620000b75780636c1b700f14620000ac5780636f8a6e4314620000a15780638da5cb5b1462000096578063b567dc6a146200008b5763e8adbf2f146200008157600080fd5b6200000f620004b7565b506200000f6200048b565b506200000f6200045b565b506200000f6200042f565b506200000f62000403565b506200000f620003d7565b506200000f62000343565b34620002cd5760a0366003190112620002cd57620000ea620002d0565b620001c9620000f8620002e7565b62000102620002fe565b6200010c62000315565b90620001176200032c565b928654956200014060ff8860081c161580988199620002be575b81156200029b575b50620004e3565b8662000154600160ff196000541617600055565b620002165793919260005462010000600160b01b033360101b169062010000600160b01b0319161760005560018060a01b0380948180948160018060a01b0319991689600154161760015516876002541617600255168560035416176003551683600454161760045516906005541617600555565b620001d357604051f35b620001e461ff001960005416600055565b604051600181527f7f26b83ff96e1f2b6a682f133852f6798a09c465da95921460cefb384740249890602090a1604051f35b6200022b61010061ff00196000541617600055565b93919260005462010000600160b01b033360101b169062010000600160b01b0319161760005560018060a01b0380948180948160018060a01b0319991689600154161760015516876002541617600255168560035416176003551683600454161760045516906005541617600555565b303b15915081620002af575b508a62000139565b6001915060ff16148a620002a7565b600160ff821610915062000131565b80fd5b600435906001600160a01b03821682036200000f57565b602435906001600160a01b03821682036200000f57565b604435906001600160a01b03821682036200000f57565b606435906001600160a01b03821682036200000f57565b608435906001600160a01b03821682036200000f57565b50346200000f5760a03660031901126200000f5767ffffffffffffffff6024358181116200000f57366023820112156200000f5780600401359182116200000f5736602483830101116200000f57620003d391620003b991620003a5620002fe565b6084359260246064359301600435620005a2565b6040516001600160a01b0390911681529081906020820190565b0390f35b50346200000f5760003660031901126200000f576005546040516001600160a01b039091168152602090f35b50346200000f5760003660031901126200000f576003546040516001600160a01b039091168152602090f35b50346200000f5760003660031901126200000f576001546040516001600160a01b039091168152602090f35b50346200000f5760003660031901126200000f5760005460405160109190911c6001600160a01b03168152602090f35b50346200000f5760003660031901126200000f576002546040516001600160a01b039091168152602090f35b50346200000f5760003660031901126200000f576004546040516001600160a01b039091168152602090f35b15620004eb57565b60405162461bcd60e51b815260206004820152602e60248201527f496e697469616c697a61626c653a20636f6e747261637420697320616c72656160448201526d191e481a5b9a5d1a585b1a5e995960921b6064820152608490fd5b50634e487b7160e01b600052604160045260246000fd5b90601f8019910116810190811067ffffffffffffffff8211176200058157604052565b6200058b62000547565b604052565b90620005a060405192836200055e565b565b600154919594939291336001600160a01b039182161490811562000660575b50156200062c5767ffffffffffffffff82116200061c575b60405191620005f3601f8201601f1916602001846200055e565b80835236818801116200000f5760208160009262000619998387013784010152620007a1565b90565b6200062662000547565b620005d9565b60405162461bcd60e51b815260206004820152600c60248201526b4f6e6c7920666163746f727960a01b6044820152606490fd5b905060005460101c16331438620005c1565b918091926000905b828210620006945750116200068d575050565b6000910152565b915080602091830151818601520182916200067a565b90620006bf6020928281519485920162000672565b0190565b602092918152620006dd8251809385808501910162000672565b010190565b989694929b9a99979593919089526101608060208b0152815180918b01526101809181838c019160200191620007189262000672565b601f1990601f01168901019a600160a01b600190031660408901526060880152608087015260a08601620007529160018060a01b03169052565b6001600160a01b031660c08501526001600160a01b031660e08401526001600160a01b03166101008301526001600160a01b03166101208201526001600160a01b039091166101409190910152565b92620008929262000899620008a69362000881620006199897620008746149f995620007d06020880162000590565b96808852620008bb6020890139604051976020890189620007f3888784620006c3565b039962000809601f199b8c81018352826200055e565b519020600054909c9060101c6001600160a01b03166001546001600160a01b03166002546001600160a01b03166003549092906001600160a01b03166004549094906001600160a01b03166005549096906001600160a01b0316976040519c8d9b60208d01620006e2565b038581018352826200055e565b6040519586936020850190620006aa565b90620006aa565b039081018352826200055e565b6020815191016000f590813b156200000f5756fe6101208060405234620006fd576000620049f9803803809162000023828662000702565b843982019161016081840312620006f957805160208201516001600160401b038111620006f557820184601f82011215620006f55780519062000066826200073c565b9562000076604051978862000702565b82875260208383010111620006f1579062000098916020808801910162000758565b620000a66040830162000790565b936060830151946080840151620000c060a0860162000790565b96620000cf60c0870162000790565b92620000de60e0880162000790565b94620000ee610100890162000790565b966200010d610140620001056101208c0162000790565b9a0162000790565b60809b909b5260c0528051906001600160401b0382116200059057819062000137600554620007a5565b601f81116200069d575b50602090601f831160011462000621578b9262000615575b50508160011b916000199060031b1c1916176005555b610100526007554260e05260a0526200018a600654620007e2565b806006556200019b60c0516200082f565b620001a6826200082f565b6040518092665052492d4c502d60c81b6020830152620001d181518092602060278601910162000758565b8101602d60f81b6027820152899060055490620001ee82620007a5565b9160018116908115620005ef5750600114620005a4575b5050906200023e9282612d4760f01b600294526200022d825180936020878501910162000758565b0103601d1981018452018262000702565b604051610acf808201906001600160401b03821183831017620005905760208392620002759262003f0a8539818152018462000808565b039088f09182156200058557808852600b6020526040882080546001600160a01b0319166001600160a01b038581169190911790915560c0519086163b15620005815760405160016224184f60e11b0319815260048101919091526001600160a01b03848116602483015264e8d4a51000604483015289908290606490829084908b165af18015620005765762000545575b5060018060a01b0383168852600d60205264e8d4a510006040892055600c602052604088209160ff199260018482541617905560c051916040519260a084528a946005546200035681620007a5565b918260a088015260018216918260001462000525575050600114620004da575b50938392620003b9927f5bc145acec26384dc09c6269c9e569c69db21ad88cbd81319958b05998b83b5b9660208601526040850152838203606085015262000808565b6001600160a01b03851660808301520390a16001600160a01b039081168652600d602052604080872064e8d4a5100090556127106008908155600180546001600160a01b031990811695851695909517905560038054851695841695909517909455600280548416958316959095179094558554610100600160a81b0319169490921b610100600160a81b031693909317909355600480549092169390921692909217909155516135c89081620009428239608051818181610305015261084c015260a0518181816102b4015281816125f3015281816126f00152612766015260c05181818161098b01528181610f93015281816118d00152612848015260e0518181816107000152818161246c01526128b3015261010051816109c50152f35b60058c52939450928a90600080516020620049d98339815191525b8183106200050d575050840160c00193928362000376565b805460c08489010152602090920191600101620004f5565b1660c08781019190915291151560051b8601909101955084905062000376565b9097906001600160401b0381116200056257604052963862000307565b634e487b7160e01b82526041600452602482fd5b6040513d8b823e3d90fd5b8880fd5b6040513d89823e3d90fd5b634e487b7160e01b8a52604160045260248afd5b60058c529091508a600080516020620049d98339815191525b838210620005d45750500160280182600262000205565b805460288385010152869450602090910190600101620005bd565b60ff19166028838101919091528315159093029091019091019150839050600262000205565b01519050388062000159565b60058c528b9350600080516020620049d983398151915291905b601f198416851062000681576001945083601f1981161062000667575b505050811b016005556200016f565b015160001960f88460031b161c1916905538808062000658565b818101518355602094850194600190930192909101906200063b565b90915060058b5260208b20601f840160051c810160208510620006e9575b90849392915b8d601f840160051c83018210620006db5750505062000141565b8155859450600101620006c1565b5080620006bb565b8480fd5b8380fd5b5080fd5b600080fd5b601f909101601f19168101906001600160401b038211908210176200072657604052565b634e487b7160e01b600052604160045260246000fd5b6001600160401b0381116200072657601f01601f191660200190565b918091926000905b8282106200077a57501162000773575050565b6000910152565b9150806020918301518186015201829162000760565b51906001600160a01b0382168203620006fd57565b90600182811c92168015620007d7575b6020831014620007c157565b634e487b7160e01b600052602260045260246000fd5b91607f1691620007b5565b6000198114620007f25760010190565b634e487b7160e01b600052601160045260246000fd5b90602091620008238151809281855285808601910162000758565b601f01601f1916010190565b80156200091257600081805b620008fb57506200084c816200073c565b916200085c604051938462000702565b818352601f196200086d836200073c565b01918160209336858701375b620008845750505090565b60018110620007f2576000190190600a90603082820680198211620007f2578651851015620008e5570160f81b7fff000000000000000000000000000000000000000000000000000000000000001660001a85840185015304908162000879565b634e487b7160e01b600052603260045260246000fd5b9062000909600a91620007e2565b9104806200083b565b50604080519081016001600160401b03811182821017620007265760405260018152600360fc1b60208201529056fe604060808152600490813610156200001657600080fd5b600091823560e01c9081630aadb777146200178b5781630b92b5e4146200175657816310b72d681462000df25781631487ddda1462000cbc578163172195221462000c9b5781631733ea501462000a925781632440f3e914620009f45781632b79696814620009ae5781633e0dc34e14620009715781634d05124c146200092a5781634e75827114620008f457816359b6a0c914620008d35781635c975abb14620008af5781635e5fe23014620008225781636497587a14620007e057816377f2c84b146200072357816378e9792514620006e657816379e25f3a14620006aa5781638905faeb14620004ba5781638a9be82814620004935781639926878e1462000464578163a775a6fd146200043e578163d06a30be1462000416578163d90543b814620003f5578163e17739b514620002d757508063e2e7c366146200029b578063f3466dfa14620001a55763f60f1491146200017457600080fd5b34620001a15780602092620001893662001a02565b908252600e8552828220908252845220549051908152f35b5080fd5b5034620001a15781600319360112620001a15780519082600554620001ca8162001a19565b8085529060019081811690811562000270575060011462000212575b505050620001fb826200020e94038362001a81565b5191829160208352602083019062001adc565b0390f35b60058352602095507f036b6384b5eca791c62761152d0c79bb0604c104a5fb6f4eb0703f3154bb3db05b8284106200025c57505050826200020e94620001fb9282010194620001e6565b80548685018801529286019281016200023c565b6200020e9750620001fb9450602092508693915060ff191682840152151560051b82010194620001e6565b5034620001a15781600319360112620001a157602090517f00000000000000000000000000000000000000000000000000000000000000008152f35b838334620001a15780600319360112620001a157620002f5620019f2565b602435936001600160a01b0391907f000000000000000000000000000000000000000000000000000000000000000083163303620003c55785859660079695965582600014620003b257806200034b9162001b03565b925b60015416803b15620003ae57849283604492885196879586946349e51b2560e01b865215159085015260248401525af18015620003a1576200038e57505051f35b620003999062001a56565b620001a15751f35b50505051903d90823e3d90fd5b8480fd5b80620003be9162001b03565b926200034d565b606490602085519162461bcd60e51b8352820152600a60248201526927b7363c9037bbb732b960b11b6044820152fd5b505034620001a15781600319360112620001a1576020906008549051908152f35b505034620001a15781600319360112620001a15760209062000437620023c1565b9051908152f35b505034620001a15781600319360112620001a15760209060ff6009541690519015158152f35b505034620001a157806020926200047b3662001a02565b908252600a8552828220908252845220549051908152f35b828434620004b7576020366003190112620004b75750620004376020923562002465565b80fd5b90508234620004b757620004ce3662001a02565b620004db829492620028e0565b620004e68462002465565b92620151809182420490620004fb8262001c72565b9391505060018210620006975760001991601983820194101562000681575b506200052a620005369162001c72565b94859492939162001b8e565b600181106200066e57600c91620005539101928284049062001b8e565b910660011981116200065b579262000595926200058f9260016200059f9601916200057f8383620022ed565b80911162000652575b5062002070565b62001b40565b8342069062001b8e565b90428210620004b75750620005be620005d2926200058f920462001c72565b50620005cb8183620022ed565b9162002070565b90620143701982116200063d57610dd419620143708301116200063d57603b19620151448301116200063d575064496cebb8009162000629620006206200062f936201517f42910162001b03565b94859262001b59565b62001b59565b049082519182526020820152f35b601190634e487b7160e01b6000525260246000fd5b92508c62000588565b634e487b7160e01b855260118752602485fd5b634e487b7160e01b865260118852602486fd5b9092600119106200069757916200052a6200051a565b634e487b7160e01b845260118652602484fd5b505034620001a1576020366003190112620001a15760209181906001600160a01b03620006d6620019db565b168152600d845220549051908152f35b505034620001a15781600319360112620001a157602090517f00000000000000000000000000000000000000000000000000000000000000008152f35b905034620007dc57620007363662001a02565b82549092906001600160a01b03163303620007a65750620151806200075c910462001c72565b5090808552600a6020528385208286526020528385206200077f84825462001b03565b90558452600e602052828420908452602052620007a182842091825462001b03565b905551f35b606490602085519162461bcd60e51b8352820152601060248201526f13db9b1e481c185e5bdd5d081c1bdbdb60821b6044820152fd5b8280fd5b505034620001a1576020366003190112620001a15760209160ff9082906001600160a01b036200080f620019db565b168152600c855220541690519015158152f35b905034620007dc576020366003190112620007dc5762000841620019f2565b9060018060a01b03807f00000000000000000000000000000000000000000000000000000000000000001633141590816200089f575b5062000891575060ff801960005416911515161760005551f35b8251633d769c1160e21b8152fd5b9050600154163314153862000877565b505034620001a15781600319360112620001a15760ff602092541690519015158152f35b505034620001a15781600319360112620001a1576020906007549051908152f35b505034620001a15781600319360112620001a1576006548252600b6020908152918190205490516001600160a01b039091168152f35b828434620004b75780600319360112620004b7575062000949620023c1565b916127109083600019048211841515166200063d575060075460209362000437920262001b6d565b505034620001a15781600319360112620001a157602090517f00000000000000000000000000000000000000000000000000000000000000008152f35b505034620001a15781600319360112620001a157517f00000000000000000000000000000000000000000000000000000000000000006001600160a01b03168152602090f35b905034620007dc576020366003190112620007dc57600254813591906001600160a01b0316330362000a5857507f98f8638d7fcb95eacabcf74919bde278d0b069a0579c6784d9bba8f93a4f62ee826008548151908152836020820152a160085551f35b606490602084519162461bcd60e51b8352820152601460248201527313db9b1e481c1c9bdd1958dd1a5bdb881c1bdbdb60621b6044820152fd5b905034620007dc576060366003190112620007dc5762000ab1620019db565b60243591604435916001600160a01b0390818416840362000c965781875462000ade60ff821615620027d0565b60081c16330362000c8657811690818752602090600c825260ff87892054161562000c7657818894939262000b71869362000b1862002806565b858552600d835264e8d4a5100062000b348b8d88205462001b59565b6002548d5163a9059cbb60e01b81526001600160a01b038d168b820190815293909204602084015290968794919093169284929091839160400190565b03925af1801562000c6c5762000c32575b5050803b15620007dc578551632770a7eb60e21b81526001600160a01b03851692810192835260208301869052918391839182908490829060400103925af1801562000c285762000c0c575b505082519182526001600160a01b031660208201527fad77d19b2b77e0dfe7bf3e9cd2c87dc639cc1e223d58cf3d69603478f684064590604090a151f35b62000c179062001a56565b62000c2457833862000bce565b8380fd5b85513d84823e3d90fd5b81813d831162000c64575b62000c49818362001a81565b8101031262000c24575180151503620007dc57388062000b82565b503d62000c3d565b88513d87823e3d90fd5b8651631f05e71b60e31b81528490fd5b855163e3dfb17f60e01b81528390fd5b600080fd5b505034620001a15781600319360112620001a1576020906006549051908152f35b905034620007dc5781600319360112620007dc576001600160a01b039060243590803590838316830362000c965783865462000cfc60ff821615620027d0565b60081c16330362000de45762000d1162002806565b6006548652600b6020528584868220541691823b15620001a15786516340c10f1960e01b81526001600160a01b0386169181019182526020820185905292839182908490829060400103925af1801562000dda5762000dc2575b5083519081526001600160a01b03919091166020808301919091529383917ff02b701fc10bff0958891c152c9eeabe4286e300c7ec9a0b08f64456ad941f7990604090a16006548152600b85522054169051908152f35b62000dce869162001a56565b620003ae573862000d6b565b85513d88823e3d90fd5b845163e3dfb17f60e01b8152fd5b838334620001a15760209283600319360112620007dc5780359060018060a01b039460019582828289541687519283809263c34c08e560e01b82525afa9081156200174c5790829188916200170b575b50163303620016fb5762000e55620023c1565b841115620016f45762000e67620023c1565b816002541686516370a0823160e01b815230868201528481602481855afa9081156200151f578991620016c1575b508751638e15f47360e01b8152858188818d875af1908115620014f95786918a918c9162001685575b5062000ed59062000ecf8762001b25565b62001b6d565b93838510156200155f5788549151636d40d7d760e11b8152808a018681529288166001600160a01b03166020840152929183919082908e90829060400103925af18015620014f95790869162001530575b505062000ecf62000f3c62000f42938362001b03565b62001b25565b6006548852600b84528287892054168852600d8452868820555b62000f66620023c1565b15620015295762000f8c62000f7b8262001b25565b62000f85620023c1565b9062001b6d565b82855416917f0000000000000000000000000000000000000000000000000000000000000000926006549160085490823b156200150357888c8094889460c4948f519889978896639661994560e01b88528701526024860152604485015288606485015260848401523060a48401525af180156200151f5790899162001507575b50506006548852600b84528287892054169060039184835416818b52600d8752898b2054813b1562001503576064898d809489948f51978896879563c65323f160e01b8752860152602485015260448401525af18015620014f957908a91620014dd575b50908a8593926200108762015180420462001c72565b50919091898d835b8885106200146d5750505050505050505416620010ae600654620028fe565b9889600655620010be836200292b565b620010c98b6200292b565b89518092665052492d4c502d60c81b89830152620010f1815180928b60278601910162001aa4565b8101602d60f81b60278201528c90600554906200110e8262001a19565b9187811690811562001447575060011462001404575b5050906200115c9282612d4760f01b600294526200114b825180938d878501910162001aa4565b0103601d1981018452018262001a81565b8851610acf8082019c919067ffffffffffffffff8e11828f1017620013f1576200119b898e9f9d9e9a9b9c9d849362002ac48539818152018562001adc565b039088f08015620013e757818852600b89528b882080546001600160a01b031916918816918217905593803b15620013d9578b51637fdbe7b160e11b8152868b82015285602482015288816064818364e8d4a51000968760448401525af1908115620013dd578991620013c1575b50859052600d89528b882055600c88528a87209460ff199584878254161790558b519560a087528894600554620012408162001a19565b928360a08b015282821691826000146200139b57505060011462001337575b505092859492620012a39286958b7f5bc145acec26384dc09c6269c9e569c69db21ad88cbd81319958b05998b83b5b9901528d860152848203606086015262001adc565b9060808301520390a160025416803b15620001a157818091879586518094819363dd5625c360e01b83525af180156200132d5762001310575b50506006548251938452908301527fd2f6618ba448f8b76ee0e823f8bb8c568b748f1687e1bc6bd625306fc4fb503591a151f35b6200131e9192935062001a56565b62000c245782908486620012dc565b84513d84823e3d90fd5b60058a528a8a20999897969550919392918891905b8b8284106200137457509899509697509495509293850160c00192909182620012a36200125f565b919496989a819496989a50805460c0858d01015201910190989694928e989694926200134c565b1660c0808b019190915292151560051b89019092019550849150620012a390506200125f565b620013cc9062001a56565b620013d957878e62001209565b8780fd5b8d513d8b823e3d90fd5b8b513d89823e3d90fd5b634e487b7160e01b8d5260418a5260248dfd5b90915060058e528d8a878183205b8584106200142b57505050500160280182600262001124565b80548585016028015288965092909101918c9189910162001412565b60ff19166028838101919091528315159093029091019091019150839050600262001124565b86979899509081868896979895949352600a83528181208482528352600e64e8d4a51000620014a08c8585205462001b59565b0493898352528d828220908583525220550191600c8311620014cf575b019392919093879594898d8f6200108f565b9201918391508190620014bd565b620014e89062001a56565b620014f557888b62001071565b8880fd5b89513d8c823e3d90fd5b8b80fd5b620015129062001a56565b620013d957878a6200100d565b88513d8b823e3d90fd5b8662000f8c565b813d831162001557575b62001546818362001a81565b8101031262000c9657848b62000f26565b503d6200153a565b88548b51636d40d7d760e11b8152808b019586529088166001600160a01b0316602086015290945092839150819060400103818c865af180156200151f5789906200164f575b620015b291508362001b03565b908386541691813b156200164b57885163329b1a9360e21b81528781019182526001600160a01b0390931660208201528991839182908490829060400103925af18015620016415790889162001625575b50506006548752600b83528186882054168752600d8352868681205562000f5c565b620016309062001a56565b6200163d57868962001603565b8680fd5b87513d8a823e3d90fd5b8980fd5b508481813d83116200167d575b62001668818362001a81565b8101031262000c9657620015b29051620015a5565b503d6200165c565b928092508391503d8311620016b9575b620016a1818362001a81565b8101031262000c96578862000ed58792519062000ebe565b503d62001695565b90508481813d8311620016ec575b620016db818362001a81565b8101031262000c9657518a62000e95565b503d620016cf565b8362000e67565b8451633f77a45b60e01b81528390fd5b809250848092503d831162001744575b62001727818362001a81565b810103126200163d575181811681036200163d5781908962000e42565b503d6200171b565b86513d89823e3d90fd5b905034620007dc576020366003190112620007dc57358252600b6020908152918190205490516001600160a01b039091168152f35b83915034620001a157600319608036820112620007dc57813560443592845492620017ba60ff851615620027d0565b6001600160a01b039360081c84163303620019cc57600385118015620019c1575b620019b257620017eb83620028e0565b620017f562002806565b62015180420493620018078562001c72565b6001969291878a106200199f57906200182f9160196000198c019210156200198c5762001b8e565b908952600a6020528989209089526020526200185089892091825462001b8e565b90556200186660643562000ecf60243562001b25565b93620018728762002a40565b9662001889620018828262002a40565b9762001c72565b5089898c925b8584106200194857505050505050506003541693843b156200163d578694926200191a6200190a97959387938b51998a988997889663341922c160e01b88527f000000000000000000000000000000000000000000000000000000000000000090880152602487015260806044870152608486019062002a8d565b9184830301606485015262002a8d565b03925af180156200193e576200192f57509051f35b6200193a9062001a56565b9051f35b83513d84823e3d90fd5b806200196685899594886200195f83899862002a78565b5262002a78565b520191600c83116200197e575b0190898b916200188f565b920191849150819062001973565b906200199890620028fe565b9062001b8e565b634e487b7160e01b8b526011875260248bfd5b508551632afd62f560e21b8152fd5b5060018510620017db565b50855163e3dfb17f60e01b8152fd5b600435906001600160a01b038216820362000c9657565b60043590811515820362000c9657565b604090600319011262000c96576004359060243590565b90600182811c9216801562001a4b575b602083101462001a3557565b634e487b7160e01b600052602260045260246000fd5b91607f169162001a29565b67ffffffffffffffff811162001a6b57604052565b634e487b7160e01b600052604160045260246000fd5b90601f8019910116810190811067ffffffffffffffff82111762001a6b57604052565b918091926000905b82821062001ac657501162001abf575050565b6000910152565b9150806020918301518186015201829162001aac565b9060209162001af78151809281855285808601910162001aa4565b601f01601f1916010190565b81811062001b0f570390565b634e487b7160e01b600052601160045260246000fd5b64e8d4a5100090806000190482118115151662001b0f570290565b6201518090806000190482118115151662001b0f570290565b806000190482118115151662001b0f570290565b811562001b78570490565b634e487b7160e01b600052601260045260246000fd5b8119811162001b0f570190565b6000811280156001600160ff1b0383900384131662001b0f57600160ff1b82900383121662001b0f570190565b6105b560008083136001600160ff1b0384900483111660011662001c1a5760017fffe9924f8d0dd7b2e6f174df9576f9de01c091c8faeb2605f522de8852b47aa88412828512161662001c1a57500290565b634e487b7160e01b81526011600452602490fd5b600e600160ff1b01811260011662001b0f57600d190190565b600082128015600160ff1b840183121662001b0f576001600160ff1b03830182131662001b0f570390565b6000916001600160ff1b039162010bd9908481128185038115818513166200205c57600160ff1b938385039283821216620020485787908401129162010bd819908162253d8c930183138415166200203457011316620020205762264965019360019360049185878304841182891316166200200d57808712600760fd1b88121686166200200d5762023ab196878160021b0597878985048211848b13161662001ffa57877fffffc694f94337079d130ab45dff8e0f9ea161331bb1c93dea871de6fec83ce28a12848b12161662001ffa57880282811281850360031381151662000697578187036003121662001ffa579084600362001d759301059062001c47565b92818412848403881381151662001fae5784860388121662001f9b57868401610fa0888286048211858413161662001fc157887ffff7ced916872b020c49ba5e353f7ced916872b020c49ba5e353f7ced916872c8312858412161662001fc15762001df69162164b09910205948262001dee8762001bc8565b059062001c47565b828112818503601f1381151662001fc157818703601f121662001fae57601f019680888504605011848a13161662001fae57807ffe666666666666666666666666666666666666666666666666666666666666678912848a12161662001fae5761098f9788816050020590828287048b11868413161662001fe75784821299837ffff29be1739a4fb805dbcd5d6c7d1f7d6fd627208942391f124ee1c3f307026884128c161662001fd4579060508362001eb39302059062001c47565b98600b82059782870360021382151662001fd4578290036002121662001fc15781878604600c11858913161662001fc157817ff5555555555555555555555555555555555555555555555555555555555555568812858912161662001fc15762001f2590600288600c02910162001c47565b986031600160ff1b018112821662001fc157819060301901809504606411848613161662001fae577ffeb851eb851eb851eb851eb851eb851eb851eb851eb851eb851eb851eb851eb98412838512161662001f9b57505062001f96929162001f909160640262001b9b565b62001b9b565b929190565b634e487b7160e01b825260119052602490fd5b634e487b7160e01b835260118252602483fd5b634e487b7160e01b845260118352602484fd5b634e487b7160e01b865260118552602486fd5b634e487b7160e01b855260118452602485fd5b634e487b7160e01b835260118552602483fd5b634e487b7160e01b815260118352602490fd5b634e487b7160e01b85526011600452602485fd5b634e487b7160e01b89526011600452602489fd5b634e487b7160e01b88526011600452602488fd5b634e487b7160e01b87526011600452602487fd5b9291926107b2811062000c9657600191617d4b600160ff1b018512831662001b0f576000918281128015926001600160ff1b03929182840391906112c083811387166200204857600160ff1b8590039081811283166200203457620020f798999a9b6200210a91620020fd60049b8c92600c620020ed8a62001c2e565b05908b0162001b9b565b62001bc8565b0590617d4a190162001b9b565b6002600160ff1b0184128b16620022da57600c620021288562001c2e565b058b7f0aaaaaaaaaaaaaaaaaaaaaaaaaaaaaaaaaaaaaaaaaaaaaaaaaaaaaaaaaaaaaaa82118c83131616620022c7578b7ff55555555555555555555555555555555555555555555555555555555555555682128c83121616620022c7576200219890600c02600119860162001c47565b61016f8c828a0482118d84131616620022b4578c7fffa6b6c1eb12d573186a06f9b8d9a287530217b7747d8eff4d6d83d625aae63183128d84121616620022b457620021eb9291600c9102059062001b9b565b9661132494851316620022a1578312166200228e578792606492600c620022166200221f9462001c2e565b05910162001b9b565b05809204600311858313161662001fc157847fd5555555555555555555555555555555555555555555555555555555555555568212858312161662001fc15790826200227092600302059062001c47565b9262253d8c600160ff1b0184121662001f9b57505062253d8b190190565b634e487b7160e01b875260118652602487fd5b634e487b7160e01b895260118852602489fd5b634e487b7160e01b8c5260118b5260248cfd5b634e487b7160e01b8b5260118a5260248bfd5b634e487b7160e01b8a526011895260248afd5b90600181148015620023b6575b8015620023ab575b8015620023a0575b801562002395575b80156200238a575b80156200237f575b156200232f575050601f90565b6002146200233d5750601e90565b6003811615908162002371575b811562002363575b50156200235e57601d90565b601c90565b610190915006153862002352565b60648106151591506200234a565b50600c811462002322565b50600a81146200231a565b506008811462002312565b50600781146200230a565b506005811462002302565b5060038114620022fa565b600080620023d462015180420462001c72565b50919081905b60038210620023fd5750505050620023f9612710916008549062001b59565b0490565b909192936200243b90828552620019986020600a8152604080882089895282528088205491868952600e8152818920908a8a52528720549062001b03565b93600180910192600c841162002457575b0192919290620023da565b92508091019080926200244c565b90620024927f00000000000000000000000000000000000000000000000000000000000000004262001b03565b60025460408051631d23a7ad60e01b81526004956001600160a01b039493851693602092919083838a81895afa928315620027c5576000936200278e575b506102581015620027635790829188959493876001541685519788809263a7e9f1c760e01b82525afa958615620027585760009662002723575b508515158062002719575b15620026ed5762002547899262000f85836200254062000f3c88966200253a620023c1565b62001b8e565b9262001b8e565b96600654600052600b82528460002054168451928380926318160ddd60e01b82525afa908115620026e25790889291600091620026a7575b506200258c829162001b25565b9484519384809263d41ce4b160e01b82525afa9283156200269d57509084929160009262002663575b5050620025c790620025ce9362001b6d565b9362001b59565b9064e8d4a5100019908183116200264e576200261f906200261864e8d4a510008095017f000000000000000000000000000000000000000000000000000000000000000062001b59565b9462001b59565b908111620026395762002636939450019062001b6d565b90565b601185634e487b7160e01b6000525260246000fd5b601186634e487b7160e01b6000525260246000fd5b90809350813d831162002695575b6200267d818362001a81565b81010312620004b7575051829082620025c7620025b5565b503d62002671565b513d6000823e3d90fd5b9180935082813d8311620026da575b620026c2818362001a81565b81010312620004b75750518791906200258c6200257f565b503d620026b6565b83513d6000823e3d90fd5b507f00000000000000000000000000000000000000000000000000000000000000009750505050505050565b5081151562002515565b90958382813d831162002750575b6200273d818362001a81565b81010312620004b757505194386200250a565b503d62002731565b84513d6000823e3d90fd5b507f000000000000000000000000000000000000000000000000000000000000000096505050505050565b90928482813d8311620027bd575b620027a8818362001a81565b81010312620004b757505191610258620024d0565b503d6200279c565b85513d6000823e3d90fd5b15620027d857565b60405162461bcd60e51b815260206004820152600660248201526514185d5cd95960d21b6044820152606490fd5b60ff600954161580620028a9575b6200281b57565b6001546001600160a01b0316803b1562000c965760008091602460405180948193631528244d60e11b83527f000000000000000000000000000000000000000000000000000000000000000060048401525af180156200289d576200288b575b50600160ff196009541617600955565b620028969062001a56565b386200287b565b6040513d6000823e3d90fd5b50610258620028d97f00000000000000000000000000000000000000000000000000000000000000004262001b03565b1162002814565b6298968011620028ec57565b604051630dc1588960e01b8152600490fd5b600019811462001b0f5760010190565b67ffffffffffffffff811162001a6b57601f01601f191660200190565b8015620029f75780816000925b620029de575062002949826200290e565b9162002959604051938462001a81565b80835281601f196200296b836200290e565b013660208601375b6200297d57505090565b806001811062001b0f576000190191600a9182820660308119811162001b0f578651861015620029c8570160f81b6001600160f81b03191660001a908501601f015304908162002973565b634e487b7160e01b600052603260045260246000fd5b9091620029ed600a91620028fe565b9291048062002938565b506040516040810181811067ffffffffffffffff82111762001a6b5760405260018152600360fc1b602082015290565b67ffffffffffffffff811162001a6b5760051b60200190565b9062002a4c8262002a27565b62002a5b604051918262001a81565b828152809262002a6e601f199162002a27565b0190602036910137565b8051821015620029c85760209160051b010190565b90815180825260208080930193019160005b82811062002aae575050505090565b83518552938101939281019260010162002a9f56fe6080604052346200038a5762000acf803803806200001d816200038f565b928339810160209182818303126200038a5780516001600160401b03918282116200038a570192601f908382860112156200038a5784518381116200027957601f199562000071828501881684016200038f565b958287528383830101116200038a578183916000905b8282106200037057501162000361575b50506040519460408601868110858211176200027957604052600686526505052492d4c560d41b82870152845184811162000279576000546001968782811c9216801562000356575b858310146200025857818684931162000300575b5084908683116001146200029b576000926200028f575b5050600019600383901b1c191690861b176000555b8551938411620002795784548581811c911680156200026e575b8382101462000258578381116200020d575b5081928411600114620001a95750508192936000926200019d575b5050600019600383901b1c191690821b1790555b600580546001600160a01b031916331790556040516107199081620003b68239f35b01519050388062000167565b6000858152828120918516969193925b878210620001f557505083859610620001db575b505050811b0190556200017b565b015160001960f88460031b161c19169055388080620001cd565b808785968294968601518155019501930190620001b9565b85600052826000208480870160051c8201928588106200024e575b0160051c019086905b828110620002415750506200014c565b6000815501869062000231565b9250819262000228565b634e487b7160e01b600052602260045260246000fd5b90607f16906200013a565b634e487b7160e01b600052604160045260246000fd5b0151905038806200010b565b90848994169160008052866000209260005b88828210620002e95750508411620002cf575b505050811b0160005562000120565b015160001960f88460031b161c19169055388080620002c0565b8385015186558c97909501949384019301620002ad565b90915060008052846000208680850160051c8201928786106200034c575b918a91869594930160051c01915b8281106200033c575050620000f4565b600081558594508a91016200032c565b925081926200031e565b91607f1691620000e0565b60009186010152388162000097565b92809250818401015182828a010152018290849262000087565b600080fd5b6040519190601f01601f191682016001600160401b03811183821017620002795760405256fe6080604081815260048036101561001557600080fd5b600092833560e01c90816306fdde031461050357508063095ea7b31461049557806318160ddd1461047657806323b872dd146103b2578063313ce5671461039657806340c10f191461030a57806370a08231146102d257806395d89b41146101ce5780639dc29fac1461015d578063a9059cbb146100e75763dd62ed3e1461009c57600080fd5b346100e357816003193601126100e35760209282916100b9610630565b6100c161064b565b6001600160a01b03918216845291865283832091168252845220549051908152f35b8280fd5b505034610159578060031936011261015957602091610104610630565b82602435913384526003865281842061011e8482546106a2565b90556001600160a01b0316808452600386529220805482019055825190815233906000805160206106c4833981519152908590a35160018152f35b5080fd5b50503461015957806003193601126101595781610178610630565b6000805160206106c483398151915260206024359260018060a01b03906101a482600554163314610661565b1692838552600382528585206101bb8282546106a2565b905580600254036002558551908152a351f35b5091903461015957816003193601126101595780519082600180549081811c908083169283156102c8575b60209384841081146102b5578388529081156102995750600114610261575b505050829003601f01601f191682019267ffffffffffffffff84118385101761024e575082918261024a9252826105d9565b0390f35b634e487b7160e01b815260418552602490fd5b809293508652828620918387935b8385106102855750505050830101388080610218565b80548886018301529301928490820161026f565b60ff1916878501525050151560051b8401019050388080610218565b634e487b7160e01b895260228a52602489fd5b91607f16916101f9565b5050346101595760203660031901126101595760209181906001600160a01b036102fa610630565b1681526003845220549051908152f35b50346100e357816003193601126100e357610323610630565b600554602435926001600160a01b0392916103419084163314610661565b6002549084198211610383575085926000805160206106c48339815191529285602093016002551693848452600382528584208181540190558551908152a351f35b634e487b7160e01b875260119052602486fd5b5050346101595781600319360112610159576020905160068152f35b509134610473576060366003190112610473576103cd610630565b6000805160206106c48339815191526103e461064b565b6001600160a01b0392831680855260208781528686203387528152868620549097919488936044359389938560018201610450575b505050868852600385528288206104318582546106a2565b9055169586815260038452208181540190558551908152a35160018152f35b610459916106a2565b90888a528652838920338a52865283892055388085610419565b80fd5b5050346101595781600319360112610159576020906002549051908152f35b50346100e357816003193601126100e3576020926104b1610630565b918360243592839233825287528181209460018060a01b0316948582528752205582519081527f8c5be1e5ebec7d5bd14f71427d1e84f3dd0314c0f7b2291e5b200ac8c7c3b925843392a35160018152f35b84915083346100e357826003193601126100e357828354600181811c908083169283156105cf575b60209384841081146102b5578388529081156105b3575060011461057b57505050829003601f01601f191682019267ffffffffffffffff84118385101761024e575082918261024a9252826105d9565b919250858052828620918387935b83851061059f5750505050830101858080610218565b805488860183015293019284908201610589565b60ff1916878501525050151560051b8401019050858080610218565b91607f169161052b565b919091602080825283519081818401526000945b82861061061a57505080604093941161060d575b601f01601f1916010190565b6000838284010152610601565b85810182015184870160400152948101946105ed565b600435906001600160a01b038216820361064657565b600080fd5b602435906001600160a01b038216820361064657565b1561066857565b60405162461bcd60e51b815260206004820152601260248201527113db9b1e481c1c9a5bdc9a5d1e481c1bdbdb60721b6044820152606490fd5b8181106106ad570390565b634e487b7160e01b600052601160045260246000fdfeddf252ad1be2c89b69c2b068fc378daa952ba7f163c4a11628f55a4df523b3efa26469706673582212209365a280359c5737ec87ab46026728d96f6f2fb7cf565cefd4b436f94831661864736f6c634300080f0033a2646970667358221220f54257ff0e53ee6b297a8dfeb5fc242a858474f320df6403a0f90062816c358464736f6c634300080f00336080604052346200038a5762000acf803803806200001d816200038f565b928339810160209182818303126200038a5780516001600160401b03918282116200038a570192601f908382860112156200038a5784518381116200027957601f199562000071828501881684016200038f565b958287528383830101116200038a578183916000905b8282106200037057501162000361575b50506040519460408601868110858211176200027957604052600686526505052492d4c560d41b82870152845184811162000279576000546001968782811c9216801562000356575b858310146200025857818684931162000300575b5084908683116001146200029b576000926200028f575b5050600019600383901b1c191690861b176000555b8551938411620002795784548581811c911680156200026e575b8382101462000258578381116200020d575b5081928411600114620001a95750508192936000926200019d575b5050600019600383901b1c191690821b1790555b600580546001600160a01b031916331790556040516107199081620003b68239f35b01519050388062000167565b6000858152828120918516969193925b878210620001f557505083859610620001db575b505050811b0190556200017b565b015160001960f88460031b161c19169055388080620001cd565b808785968294968601518155019501930190620001b9565b85600052826000208480870160051c8201928588106200024e575b0160051c019086905b828110620002415750506200014c565b6000815501869062000231565b9250819262000228565b634e487b7160e01b600052602260045260246000fd5b90607f16906200013a565b634e487b7160e01b600052604160045260246000fd5b0151905038806200010b565b90848994169160008052866000209260005b88828210620002e95750508411620002cf575b505050811b0160005562000120565b015160001960f88460031b161c19169055388080620002c0565b8385015186558c97909501949384019301620002ad565b90915060008052846000208680850160051c8201928786106200034c575b918a91869594930160051c01915b8281106200033c575050620000f4565b600081558594508a91016200032c565b925081926200031e565b91607f1691620000e0565b60009186010152388162000097565b92809250818401015182828a010152018290849262000087565b600080fd5b6040519190601f01601f191682016001600160401b03811183821017620002795760405256fe6080604081815260048036101561001557600080fd5b600092833560e01c90816306fdde031461050357508063095ea7b31461049557806318160ddd1461047657806323b872dd146103b2578063313ce5671461039657806340c10f191461030a57806370a08231146102d257806395d89b41146101ce5780639dc29fac1461015d578063a9059cbb146100e75763dd62ed3e1461009c57600080fd5b346100e357816003193601126100e35760209282916100b9610630565b6100c161064b565b6001600160a01b03918216845291865283832091168252845220549051908152f35b8280fd5b505034610159578060031936011261015957602091610104610630565b82602435913384526003865281842061011e8482546106a2565b90556001600160a01b0316808452600386529220805482019055825190815233906000805160206106c4833981519152908590a35160018152f35b5080fd5b50503461015957806003193601126101595781610178610630565b6000805160206106c483398151915260206024359260018060a01b03906101a482600554163314610661565b1692838552600382528585206101bb8282546106a2565b905580600254036002558551908152a351f35b5091903461015957816003193601126101595780519082600180549081811c908083169283156102c8575b60209384841081146102b5578388529081156102995750600114610261575b505050829003601f01601f191682019267ffffffffffffffff84118385101761024e575082918261024a9252826105d9565b0390f35b634e487b7160e01b815260418552602490fd5b809293508652828620918387935b8385106102855750505050830101388080610218565b80548886018301529301928490820161026f565b60ff1916878501525050151560051b8401019050388080610218565b634e487b7160e01b895260228a52602489fd5b91607f16916101f9565b5050346101595760203660031901126101595760209181906001600160a01b036102fa610630565b1681526003845220549051908152f35b50346100e357816003193601126100e357610323610630565b600554602435926001600160a01b0392916103419084163314610661565b6002549084198211610383575085926000805160206106c48339815191529285602093016002551693848452600382528584208181540190558551908152a351f35b634e487b7160e01b875260119052602486fd5b5050346101595781600319360112610159576020905160068152f35b509134610473576060366003190112610473576103cd610630565b6000805160206106c48339815191526103e461064b565b6001600160a01b0392831680855260208781528686203387528152868620549097919488936044359389938560018201610450575b505050868852600385528288206104318582546106a2565b9055169586815260038452208181540190558551908152a35160018152f35b610459916106a2565b90888a528652838920338a52865283892055388085610419565b80fd5b5050346101595781600319360112610159576020906002549051908152f35b50346100e357816003193601126100e3576020926104b1610630565b918360243592839233825287528181209460018060a01b0316948582528752205582519081527f8c5be1e5ebec7d5bd14f71427d1e84f3dd0314c0f7b2291e5b200ac8c7c3b925843392a35160018152f35b84915083346100e357826003193601126100e357828354600181811c908083169283156105cf575b60209384841081146102b5578388529081156105b3575060011461057b57505050829003601f01601f191682019267ffffffffffffffff84118385101761024e575082918261024a9252826105d9565b919250858052828620918387935b83851061059f5750505050830101858080610218565b805488860183015293019284908201610589565b60ff1916878501525050151560051b8401019050858080610218565b91607f169161052b565b919091602080825283519081818401526000945b82861061061a57505080604093941161060d575b601f01601f1916010190565b6000838284010152610601565b85810182015184870160400152948101946105ed565b600435906001600160a01b038216820361064657565b600080fd5b602435906001600160a01b038216820361064657565b1561066857565b60405162461bcd60e51b815260206004820152601260248201527113db9b1e481c1c9a5bdc9a5d1e481c1bdbdb60721b6044820152606490fd5b8181106106ad570390565b634e487b7160e01b600052601160045260246000fdfeddf252ad1be2c89b69c2b068fc378daa952ba7f163c4a11628f55a4df523b3efa26469706673582212209365a280359c5737ec87ab46026728d96f6f2fb7cf565cefd4b436f94831661864736f6c634300080f0033036b6384b5eca791c62761152d0c79bb0604c104a5fb6f4eb0703f3154bb3db0a26469706673582212207d5c325048e841bb042ed1f742ff32f8684deaf24a442f0015c759f5b147bafe64736f6c634300080f0033",
  "devdoc": {
    "kind": "dev",
    "methods": {
      "deployPool(uint256,string,address,uint256,uint256)": {
        "params": {
          "_basePremiumRatio": "Initial policy price per shield",
          "_maxCapacity": "Maximum capacity of the pool",
          "_name": "Name of the protocol",
          "_protocolToken": "Address of the token used for the protocol"
        },
        "returns": {
          "_0": "address Address of the new insurance pool"
        }
      }
    },
    "version": 1
  },
  "userdoc": {
    "kind": "user",
    "methods": {
      "deployPool(uint256,string,address,uint256,uint256)": {
        "notice": "Create a new priority pool         Called by executor when an onboard proposal has passed"
      }
    },
    "version": 1
  },
  "storageLayout": {
    "storage": [
      {
        "astId": 52,
        "contract": "src/pools/priorityPool/PriorityPoolDeployer.sol:PriorityPoolDeployer",
        "label": "_initialized",
        "offset": 0,
        "slot": "0",
        "type": "t_uint8"
      },
      {
        "astId": 55,
        "contract": "src/pools/priorityPool/PriorityPoolDeployer.sol:PriorityPoolDeployer",
        "label": "_initializing",
        "offset": 1,
        "slot": "0",
        "type": "t_bool"
      },
      {
        "astId": 19080,
        "contract": "src/pools/priorityPool/PriorityPoolDeployer.sol:PriorityPoolDeployer",
        "label": "owner",
        "offset": 2,
        "slot": "0",
        "type": "t_address"
      },
      {
        "astId": 19082,
        "contract": "src/pools/priorityPool/PriorityPoolDeployer.sol:PriorityPoolDeployer",
        "label": "priorityPoolFactory",
        "offset": 0,
        "slot": "1",
        "type": "t_address"
      },
      {
        "astId": 19084,
        "contract": "src/pools/priorityPool/PriorityPoolDeployer.sol:PriorityPoolDeployer",
        "label": "weightedFarmingPool",
        "offset": 0,
        "slot": "2",
        "type": "t_address"
      },
      {
        "astId": 19086,
        "contract": "src/pools/priorityPool/PriorityPoolDeployer.sol:PriorityPoolDeployer",
        "label": "protectionPool",
        "offset": 0,
        "slot": "3",
        "type": "t_address"
      },
      {
        "astId": 19088,
        "contract": "src/pools/priorityPool/PriorityPoolDeployer.sol:PriorityPoolDeployer",
        "label": "policyCenter",
        "offset": 0,
        "slot": "4",
        "type": "t_address"
      },
      {
        "astId": 19090,
        "contract": "src/pools/priorityPool/PriorityPoolDeployer.sol:PriorityPoolDeployer",
        "label": "payoutPool",
        "offset": 0,
        "slot": "5",
        "type": "t_address"
      }
    ],
    "types": {
      "t_address": {
        "encoding": "inplace",
        "label": "address",
        "numberOfBytes": "20"
      },
      "t_bool": {
        "encoding": "inplace",
        "label": "bool",
        "numberOfBytes": "1"
      },
      "t_uint8": {
        "encoding": "inplace",
        "label": "uint8",
        "numberOfBytes": "1"
      }
    }
  }
}