{
  "address": "0xaA947294C4297F5f7dC40C14E16531950E40b5b7",
  "abi": [
    {
      "inputs": [
        {
          "internalType": "address",
          "name": "_deg",
          "type": "address"
        },
        {
          "internalType": "address",
          "name": "_veDeg",
          "type": "address"
        },
        {
          "internalType": "address",
          "name": "_shield",
          "type": "address"
        },
        {
          "internalType": "address",
          "name": "_protectionPool",
          "type": "address"
        }
      ],
      "stateMutability": "nonpayable",
      "type": "constructor"
    },
    {
      "inputs": [],
      "name": "PriorityPoolFactory__AlreadyDynamicPool",
      "type": "error"
    },
    {
      "inputs": [],
      "name": "PriorityPoolFactory__NotOwnerOrFactory",
      "type": "error"
    },
    {
      "inputs": [],
      "name": "PriorityPoolFactory__OnlyExecutor",
      "type": "error"
    },
    {
      "inputs": [],
      "name": "PriorityPoolFactory__OnlyIncidentReportOrExecutor",
      "type": "error"
    },
    {
      "inputs": [],
      "name": "PriorityPoolFactory__OnlyOwnerOrExecutor",
      "type": "error"
    },
    {
      "inputs": [],
      "name": "PriorityPoolFactory__OnlyPolicyCenter",
      "type": "error"
    },
    {
      "inputs": [],
      "name": "PriorityPoolFactory__OnlyPriorityPool",
      "type": "error"
    },
    {
      "inputs": [],
      "name": "PriorityPoolFactory__PoolNotRegistered",
      "type": "error"
    },
    {
      "inputs": [],
      "name": "PriorityPoolFactory__TokenAlreadyRegistered",
      "type": "error"
    },
    {
      "inputs": [],
      "name": "PriorityPoolFactory__WrongLPToken",
      "type": "error"
    },
    {
      "anonymous": false,
      "inputs": [
        {
          "indexed": false,
          "internalType": "uint256",
          "name": "poolId",
          "type": "uint256"
        },
        {
          "indexed": false,
          "internalType": "address",
          "name": "pool",
          "type": "address"
        },
        {
          "indexed": false,
          "internalType": "uint256",
          "name": "dynamicPoolCounter",
          "type": "uint256"
        }
      ],
      "name": "DynamicPoolUpdate",
      "type": "event"
    },
    {
      "anonymous": false,
      "inputs": [
        {
          "indexed": false,
          "internalType": "uint256",
          "name": "totalMaxCapacity",
          "type": "uint256"
        }
      ],
      "name": "MaxCapacityUpdated",
      "type": "event"
    },
    {
      "anonymous": false,
      "inputs": [
        {
          "indexed": true,
          "internalType": "address",
          "name": "previousOwner",
          "type": "address"
        },
        {
          "indexed": true,
          "internalType": "address",
          "name": "newOwner",
          "type": "address"
        }
      ],
      "name": "OwnershipTransferred",
      "type": "event"
    },
    {
      "anonymous": false,
      "inputs": [
        {
          "indexed": false,
          "internalType": "uint256",
          "name": "poolId",
          "type": "uint256"
        },
        {
          "indexed": false,
          "internalType": "address",
          "name": "poolAddress",
          "type": "address"
        },
        {
          "indexed": false,
          "internalType": "string",
          "name": "protocolName",
          "type": "string"
        },
        {
          "indexed": false,
          "internalType": "address",
          "name": "protocolToken",
          "type": "address"
        },
        {
          "indexed": false,
          "internalType": "uint256",
          "name": "maxCapacity",
          "type": "uint256"
        },
        {
          "indexed": false,
          "internalType": "uint256",
          "name": "basePremiumRatio",
          "type": "uint256"
        }
      ],
      "name": "PoolCreated",
      "type": "event"
    },
    {
      "inputs": [
        {
          "internalType": "string",
          "name": "_name",
          "type": "string"
        },
        {
          "internalType": "address",
          "name": "_protocolToken",
          "type": "address"
        },
        {
          "internalType": "uint256",
          "name": "_maxCapacity",
          "type": "uint256"
        },
        {
          "internalType": "uint256",
          "name": "_basePremiumRatio",
          "type": "uint256"
        }
      ],
      "name": "deployPool",
      "outputs": [
        {
          "internalType": "address",
          "name": "",
          "type": "address"
        }
      ],
      "stateMutability": "nonpayable",
      "type": "function"
    },
    {
      "inputs": [
        {
          "internalType": "address",
          "name": "",
          "type": "address"
        }
      ],
      "name": "dynamic",
      "outputs": [
        {
          "internalType": "bool",
          "name": "",
          "type": "bool"
        }
      ],
      "stateMutability": "view",
      "type": "function"
    },
    {
      "inputs": [],
      "name": "getPoolAddressList",
      "outputs": [
        {
          "internalType": "address[]",
          "name": "",
          "type": "address[]"
        }
      ],
      "stateMutability": "view",
      "type": "function"
    },
    {
      "inputs": [
        {
          "internalType": "uint256",
          "name": "_poolId",
          "type": "uint256"
        }
      ],
      "name": "getPoolInfo",
      "outputs": [
        {
          "components": [
            {
              "internalType": "string",
              "name": "protocolName",
              "type": "string"
            },
            {
              "internalType": "address",
              "name": "poolAddress",
              "type": "address"
            },
            {
              "internalType": "address",
              "name": "protocolToken",
              "type": "address"
            },
            {
              "internalType": "uint256",
              "name": "maxCapacity",
              "type": "uint256"
            },
            {
              "internalType": "uint256",
              "name": "basePremiumRatio",
              "type": "uint256"
            }
          ],
          "internalType": "struct PriorityPoolFactory.PoolInfo",
          "name": "",
          "type": "tuple"
        }
      ],
      "stateMutability": "view",
      "type": "function"
    },
    {
      "inputs": [],
      "name": "owner",
      "outputs": [
        {
          "internalType": "address",
          "name": "",
          "type": "address"
        }
      ],
      "stateMutability": "view",
      "type": "function"
    },
    {
      "inputs": [
        {
          "internalType": "uint256",
          "name": "_poolId",
          "type": "uint256"
        },
        {
          "internalType": "bool",
          "name": "_paused",
          "type": "bool"
        }
      ],
      "name": "pausePriorityPool",
      "outputs": [],
      "stateMutability": "nonpayable",
      "type": "function"
    },
    {
      "inputs": [
        {
          "internalType": "address",
          "name": "",
          "type": "address"
        }
      ],
      "name": "poolAddressToId",
      "outputs": [
        {
          "internalType": "uint256",
          "name": "",
          "type": "uint256"
        }
      ],
      "stateMutability": "view",
      "type": "function"
    },
    {
      "inputs": [],
      "name": "poolCounter",
      "outputs": [
        {
          "internalType": "uint256",
          "name": "",
          "type": "uint256"
        }
      ],
      "stateMutability": "view",
      "type": "function"
    },
    {
      "inputs": [
        {
          "internalType": "address",
          "name": "",
          "type": "address"
        }
      ],
      "name": "poolRegistered",
      "outputs": [
        {
          "internalType": "bool",
          "name": "",
          "type": "bool"
        }
      ],
      "stateMutability": "view",
      "type": "function"
    },
    {
      "inputs": [
        {
          "internalType": "uint256",
          "name": "",
          "type": "uint256"
        }
      ],
      "name": "pools",
      "outputs": [
        {
          "internalType": "string",
          "name": "protocolName",
          "type": "string"
        },
        {
          "internalType": "address",
          "name": "poolAddress",
          "type": "address"
        },
        {
          "internalType": "address",
          "name": "protocolToken",
          "type": "address"
        },
        {
          "internalType": "uint256",
          "name": "maxCapacity",
          "type": "uint256"
        },
        {
          "internalType": "uint256",
          "name": "basePremiumRatio",
          "type": "uint256"
        }
      ],
      "stateMutability": "view",
      "type": "function"
    },
    {
      "inputs": [],
      "name": "renounceOwnership",
      "outputs": [],
      "stateMutability": "nonpayable",
      "type": "function"
    },
    {
      "inputs": [
        {
          "internalType": "address",
          "name": "_executor",
          "type": "address"
        }
      ],
      "name": "setExecutor",
      "outputs": [],
      "stateMutability": "nonpayable",
      "type": "function"
    },
    {
      "inputs": [
        {
          "internalType": "address",
          "name": "_incidentReport",
          "type": "address"
        }
      ],
      "name": "setIncidentReport",
      "outputs": [],
      "stateMutability": "nonpayable",
      "type": "function"
    },
    {
      "inputs": [
        {
          "internalType": "address",
          "name": "_payoutPool",
          "type": "address"
        }
      ],
      "name": "setPayoutPool",
      "outputs": [],
      "stateMutability": "nonpayable",
      "type": "function"
    },
    {
      "inputs": [
        {
          "internalType": "address",
          "name": "_policyCenter",
          "type": "address"
        }
      ],
      "name": "setPolicyCenter",
      "outputs": [],
      "stateMutability": "nonpayable",
      "type": "function"
    },
    {
      "inputs": [
        {
          "internalType": "address",
          "name": "_premiumRewardPool",
          "type": "address"
        }
      ],
      "name": "setPremiumRewardPool",
      "outputs": [],
      "stateMutability": "nonpayable",
      "type": "function"
    },
    {
      "inputs": [
        {
          "internalType": "address",
          "name": "_protectionPool",
          "type": "address"
        }
      ],
      "name": "setProtectionPool",
      "outputs": [],
      "stateMutability": "nonpayable",
      "type": "function"
    },
    {
      "inputs": [
        {
          "internalType": "address",
          "name": "_weightedFarmingPool",
          "type": "address"
        }
      ],
      "name": "setWeightedFarmingPool",
      "outputs": [],
      "stateMutability": "nonpayable",
      "type": "function"
    },
    {
      "inputs": [
        {
          "internalType": "address",
          "name": "",
          "type": "address"
        }
      ],
      "name": "tokenRegistered",
      "outputs": [
        {
          "internalType": "bool",
          "name": "",
          "type": "bool"
        }
      ],
      "stateMutability": "view",
      "type": "function"
    },
    {
      "inputs": [],
      "name": "totalMaxCapacity",
      "outputs": [
        {
          "internalType": "uint256",
          "name": "",
          "type": "uint256"
        }
      ],
      "stateMutability": "view",
      "type": "function"
    },
    {
      "inputs": [
        {
          "internalType": "address",
          "name": "newOwner",
          "type": "address"
        }
      ],
      "name": "transferOwnership",
      "outputs": [],
      "stateMutability": "nonpayable",
      "type": "function"
    },
    {
      "inputs": [
        {
          "internalType": "uint256",
          "name": "_poolId",
          "type": "uint256"
        }
      ],
      "name": "updateDynamicPool",
      "outputs": [],
      "stateMutability": "nonpayable",
      "type": "function"
    },
    {
      "inputs": [
        {
          "internalType": "bool",
          "name": "_isUp",
          "type": "bool"
        },
        {
          "internalType": "uint256",
          "name": "_diff",
          "type": "uint256"
        }
      ],
      "name": "updateMaxCapaity",
      "outputs": [],
      "stateMutability": "nonpayable",
      "type": "function"
    }
  ],
  "transactionHash": "0x07c42f33c71a7552b6e2f3e1d3b7f1a746a3eb17de95b561d4c26bed2ca0239b",
  "args": [
    "0x4Efd5a9269a328b1bf8873dC6d9EB5fF321aba09",
    "0xF98f0dE58c9a78B8e42def3cc49f02C2B35b81C9",
    "0x2afE704De753dDD32DC39f41C5F9D5df4bFc71F0",
    "0x39c0156f420D3Cb8881EEEA9cc40B9065a4ACFB5"
  ],
  "numDeployments": 1,
  "solcInputHash": "0dddc3636222744e934c227d9f13fb40",
  "bytecode": "0x60e03462000345576001600160401b03601f19601f620062a1388190039182018316850191848311868410176200034a5780869260809460405283398101031262000345576200004f8362000360565b926200005e6020820162000360565b6200007a6060620000726040850162000360565b930162000360565b6001600160a01b0395861660805290851660a090815291851660c081905260008054336001600160a01b0319918216178255600380549490981693168317909655818652600e60209081526040808820805460ff199081166001908117909255848a52600f90935281892080549093161790915551949092850185811082821117620003315760e08601818110838211176200031d57604052600e81526d141c9bdd1958dd1a5bdb941bdbdb60921b60c087015285526020850191825260408501928352606085019386855286608087015286805260086020526040872096865190815193841162000309578854600181811c91168015620002fe575b6020821014620002ea57601f8111620002a0575b50602092601f8511600114620002305750926080969492819260049997959262000224575b50508160011b916000199060031b1c19161787555b516001870180546001600160a01b03199081166001600160a01b0393841617909155915160028801805490931691161790555160038501550151910155604051615f2b908162000376823960805181505060a05181505060c051815050f35b015190503880620001b0565b84939291931689845260208420935b81811062000287575092600192859260049a989660809a9896106200026d575b505050811b018755620001c5565b015160001960f88460031b161c191690553880806200025f565b929360206001819287860151815501950193016200023f565b89825260208220601f860160051c81019160208710620002df575b601f0160051c01905b818110620002d357506200018b565b828155600101620002c4565b9091508190620002bb565b634e487b7160e01b82526022600452602482fd5b90607f169062000177565b634e487b7160e01b81526041600452602490fd5b634e487b7160e01b88526041600452602488fd5b634e487b7160e01b87526041600452602487fd5b600080fd5b634e487b7160e01b600052604160045260246000fd5b51906001600160a01b0382168203620003455756fe6080604052600436101562000014575b600080fd5b60003560e01c80630121cff514620002235780631b35278914620002185780631c3c0ea8146200020d5780632a50489a14620002025780632dd57bb014620001f75780632f380b3514620001ec5780633f81ff2614620001e15780634124974514620001d657806358bf0f2c14620001cb5780636bdbd19514620001c0578063715018a614620001b5578063746376ee14620001aa5780638da5cb5b146200019f5780639e3079cb1462000194578063a2e1ce621462000189578063ac4afa38146200017e578063bb9febaf1462000173578063d98a254c1462000168578063e3356ccf146200015d578063e5249a101462000152578063ef3722981462000147578063f2fde38b146200013c5763f6cb90ab146200013257600080fd5b6200000f62000f3c565b506200000f62000e9a565b506200000f62000e5b565b506200000f62000e08565b506200000f62000db5565b506200000f62000cfc565b506200000f62000c70565b506200000f62000bec565b506200000f62000a41565b506200000f62000a20565b506200000f620009f4565b506200000f620009b0565b506200000f6200094a565b506200000f6200087d565b506200000f620007d8565b506200000f62000794565b506200000f62000741565b506200000f62000693565b506200000f62000593565b506200000f620004c5565b506200000f62000472565b506200000f620002cf565b506200000f6200025c565b600435906001600160a01b03821682036200000f57565b602435906001600160a01b03821682036200000f57565b50346200000f5760203660031901126200000f576200027a6200022e565b6000546001600160a01b03919062000296908316331462001003565b60038054919092166001600160a01b0319909116179055005b6024359081151582036200000f57565b6004359081151582036200000f57565b50346200000f5760403660031901126200000f57620002ed620002af565b6004546200030b906001600160a01b03165b6001600160a01b031690565b3314158062000451575b6200043f576200034d620002ff620002ff60016200033f6004356000526008602052604060002090565b01546001600160a01b031690565b803b156200000f576040516305e5fe2360e41b81528215156004820152600092839290919083908290602490829084905af180156200042f575b62000418575b50600354620003a790620002ff906001600160a01b031681565b90813b15620004145760405163a8a2b43160e01b8152901515600482015291908290602490829084905af1801562000404575b620003e6575b50604051f35b80620003f6620003fd9262000ad9565b806200082b565b38620003e0565b6200040e62001276565b620003da565b5050fd5b80620003f6620004289262000ad9565b386200038d565b6200043962001276565b62000387565b60405163570d52bd60e11b8152600490fd5b5060015462000469906001600160a01b0316620002ff565b33141562000315565b50346200000f5760203660031901126200000f57620004906200022e565b6000546001600160a01b039190620004ac908316331462001003565b60018054919092166001600160a01b0319909116179055005b50346200000f5760203660031901126200000f576000338152600e602052604060ff8183205416156200058357338252600c60205260ff81832054166200057357338252600c602052808220805460ff19166001179055620005326200052d600d5460010190565b600d55565b600d548151600435815233602082015260408101919091527fa16172101044efd65843cd11b767b8aa758d7da7be12573e0c897b52b71444fd90606090a151f35b516334c8f8b960e01b8152600490fd5b51630fc64fb960e21b8152600490fd5b50346200000f5760203660031901126200000f57620005b16200022e565b6000546001600160a01b039190620005cd908316331462001003565b60028054919092166001600160a01b0319909116179055005b918091926000905b8282106200060857501162000601575050565b6000910152565b91508060209183015181860152018291620005ee565b906020916200063981518092818552858086019101620005e6565b601f01601f1916010190565b6020815260a0608062000664845183602086015260c08501906200061e565b93600180841b038060208301511660408601526040820151166060850152606081015182850152015191015290565b50346200000f5760203660031901126200000f576200073d60408060808151620006bd8162000afc565b606081526000918183602081940152828582015282606082015201526004358152600860205220906004815192620006f58462000afc565b620007008162000b3a565b845260018101546001600160a01b039081166020860152600282015416838501526003810154606085015201546080830152519182918262000645565b0390f35b50346200000f5760203660031901126200000f576200075f6200022e565b6000546001600160a01b0391906200077b908316331462001003565b60078054919092166001600160a01b0319909116179055005b50346200000f5760203660031901126200000f576001600160a01b03620007ba6200022e565b16600052600c602052602060ff604060002054166040519015158152f35b50346200000f5760203660031901126200000f57620007f66200022e565b6000546001600160a01b03919062000812908316331462001003565b60068054919092166001600160a01b0319909116179055005b60009103126200000f57565b6020908160408183019282815285518094520193019160005b8281106200085f575050505090565b83516001600160a01b03168552938101939281019260010162000850565b50346200000f576000806003193601126200094757600a5490600119821162000937575b600180920190620008b28262000fae565b91604091620008c48351948562000b18565b818452601f19620008d58362000fae565b016020903682870137815b838110620008f7578451806200073d888262000837565b8083526008825284832087015487919062000930906001600160a01b031662000921838a62000fd8565b6001600160a01b039091169052565b01620008e0565b6200094162000f5d565b620008a1565b80fd5b50346200000f57600080600319360112620009475780546001600160a01b038116906200097933831462001003565b82604051927f8be0079c531659141344cd1fd0a4f28419497f9722a3daafe3b4186f6b6457e08285a36001600160a01b0319168255f35b50346200000f5760203660031901126200000f576001600160a01b03620009d66200022e565b16600052600e602052602060ff604060002054166040519015158152f35b50346200000f5760003660031901126200000f576000546040516001600160a01b039091168152602090f35b50346200000f5760003660031901126200000f576020600a54604051908152f35b50346200000f5760203660031901126200000f576001600160a01b0362000a676200022e565b16600052600f602052602060ff604060002054166040519015158152f35b90600182811c9216801562000ab7575b602083101462000aa157565b634e487b7160e01b600052602260045260246000fd5b91607f169162000a95565b50634e487b7160e01b600052604160045260246000fd5b6001600160401b03811162000aed57604052565b62000af762000ac2565b604052565b60a081019081106001600160401b0382111762000aed57604052565b90601f801991011681019081106001600160401b0382111762000aed57604052565b906040519182600082549262000b508462000a85565b90818452600194858116908160001462000bc7575060011462000b80575b505062000b7e9250038362000b18565b565b9093915060005260209081600020936000915b81831062000bae57505062000b7e9350820101388062000b6e565b8554888401850152948501948794509183019162000b93565b91505062000b7e94506020925060ff191682840152151560051b820101388062000b6e565b50346200000f5760203660031901126200000f57600435600052600860205262000c57604060002062000c1f8162000b3a565b9060018060a01b0390816001820154169160028201541690600460038201549101549160405195869560a0875260a08701906200061e565b9360208601526040850152606084015260808301520390f35b50346200000f5760803660031901126200000f576001600160401b036004358181116200000f57366023820112156200000f5780600401359182116200000f5736602483830101116200000f576200073d9162000ce29162000cd162000245565b6064359260246044359301620012d2565b6040516001600160a01b0390911681529081906020820190565b50346200000f5760403660031901126200000f5762000d1a620002bf565b6024359033600052600e60205260ff604060002054161562000da3571562000d7d5762000d4a90600b5462000f74565b600b555b7f8b8564868e5db4ac945b0fd897338876dcc0c95a5f183b340f47285ebbcb6af16020600b54604051908152a1005b600b5481811062000d93575b03600b5562000d4e565b62000d9d62000f5d565b62000d89565b604051630fc64fb960e21b8152600490fd5b50346200000f5760203660031901126200000f5762000dd36200022e565b6000546001600160a01b03919062000def908316331462001003565b60048054919092166001600160a01b0319909116179055005b50346200000f5760203660031901126200000f5762000e266200022e565b6000546001600160a01b03919062000e42908316331462001003565b60058054919092166001600160a01b0319909116179055005b50346200000f5760203660031901126200000f576001600160a01b0362000e816200022e565b1660005260096020526020604060002054604051908152f35b50346200000f5760203660031901126200000f5762000eb86200022e565b6000546001600160a01b039062000ed3908216331462001003565b81161562000ee85762000ee69062001803565b005b60405162461bcd60e51b815260206004820152602660248201527f4f776e61626c653a206e6577206f776e657220697320746865207a65726f206160448201526564647265737360d01b6064820152608490fd5b50346200000f5760003660031901126200000f576020600b54604051908152f35b50634e487b7160e01b600052601160045260246000fd5b8119811162000f81570190565b62000f8b62000f5d565b0190565b6040519062000b7e8262000afc565b9062000b7e604051928362000b18565b6020906001600160401b03811162000fc8575b60051b0190565b62000fd262000ac2565b62000fc1565b805182101562000fed5760209160051b010190565b634e487b7160e01b600052603260045260246000fd5b156200100b57565b60405162461bcd60e51b815260206004820152600a60248201526927b7363c9037bbb732b960b11b6044820152606490fd5b600190600019811462000f81570190565b9291926001600160401b03821162001099575b604051916200107b601f8201601f19166020018462000b18565b8294818452818301116200000f578281602093846000960137010152565b620010a362000ac2565b62001061565b90601f8111620010b857505050565b600091825260208220906020601f850160051c83019410620010f7575b601f0160051c01915b828110620010eb57505050565b818155600101620010de565b9092508290620010d5565b90805180516001600160401b03811162001266575b6200112f8162001128865462000a85565b86620010a9565b6020918290601f8311600114620011e5576080938360049694620011a2946200117f94600092620011d9575b50508160011b916000199060031b1c19161787555b8301516001600160a01b031690565b6001860180546001600160a01b0319166001600160a01b03909216919091179055565b60408101516002850180546001600160a01b0319166001600160a01b03909216919091179055606081015160038501550151910155565b0151905038806200115b565b90601f19831691620011fc87600052602060002090565b9260005b8181106200124e575084620011a2946200117f946080989460049a986001951062001234575b505050811b01875562001170565b015160001960f88460031b161c1916905538808062001226565b92938660018192878601518155019501930162001200565b6200127062000ac2565b62001117565b506040513d6000823e3d90fd5b938060a0969998979460e0938752600180891b03809516602088015260c060408801528160c0880152838701376000828287010152601f80199101168401019616606083015260808201520152565b600080549095919491939192906001600160a01b03163314158062001638575b62001626576001600160a01b0382166000908152600f602052604090205460ff1662001614576200132f6200132a84600b5462000f74565b600b55565b6200133c600a546200103d565b946200134786600a55565b620013628585856200135b3687876200104e565b8a620016f5565b96620013c56200137162000f8f565b6200137e3686866200104e565b81526001600160a01b038a1660208201526001600160a01b0386166040820152866060820152876080820152620013bf896000526008602052604060002090565b62001102565b6001600160a01b0384166000908152600f60205260409020620013f0905b805460ff19166001179055565b6001600160a01b0388166000908152600e602052604090206200141390620013e3565b6001600160a01b03881660009081526009602052604090208790556002546200144790620002ff906001600160a01b031681565b803b15620015e957604051630b6cccdd60e41b81526001600160a01b038a8116600483015286166024820152604481018990529082908290606490829084905af1801562001604575b620015ed575b50600554620014b090620002ff906001600160a01b031681565b803b15620015e957604051632a99dcd560e21b81526001600160a01b038a81166004830152861660248201529082908290604490829084905af18015620015d9575b620015c2575b506006546200151290620002ff906001600160a01b031681565b90813b15620009475760405163d914cd4b60e01b81526001600160a01b03861660048201527f6f92dd7fd4aaa286bc76a2ea88bede9a5077443cccc9b4aece620689e3fc63de988a98909762001595979196909591949093919291908290602490829084905af18015620015b2575b6200159b575b506040519788978862001283565b0390a190565b80620003f6620015ab9262000ad9565b3862001587565b620015bc62001276565b62001581565b80620003f6620015d29262000ad9565b38620014f8565b620015e362001276565b620014f2565b5080fd5b80620003f6620015fd9262000ad9565b3862001496565b6200160e62001276565b62001490565b6040516308ba7c3f60e31b8152600490fd5b604051636adaa0f960e01b8152600490fd5b5060015462001650906001600160a01b0316620002ff565b331415620012f2565b9062000f8b60209282815194859201620005e6565b6020929181526200168882518093858085019101620005e6565b010190565b98939496606093620016b76101209a948c949e9d999e85526101408060208701528501906200061e565b9c60018060a01b03998a9889978896878096166040820152015260808d01521660a08b01521660c08901521660e08701521661010085015216910152565b92620017d292620017d9620017e693620017c1620017ec9897620017b46146aa95620017246020880162000f9e565b968088526200184c6020890139604051976020890189620017478887846200166e565b03996200175d601f199b8c810183528262000b18565b519020600054600654919d916001600160a01b0391821691166003549091906001600160a01b03166002549093906001600160a01b03166007549095906001600160a01b0316966040519b8c9a60208c016200168d565b0385810183528262000b18565b604051958693602085019062001659565b9062001659565b0390810183528262000b18565b620017ef565b90565b6020815191016000f590813b156200000f57565b60005460018060a01b03809216809282167f8be0079c531659141344cd1fd0a4f28419497f9722a3daafe3b4186f6b6457e06000604051a36001600160a01b0319161760005556fe6101208060405234620006e3576000620046aa8038038091620000238286620006e8565b843982019161014081840312620006df57805160208201516001600160401b038111620006db57820184601f82011215620006db57805190620000668262000722565b95620000766040519788620006e8565b82875260208383010111620006d757906200009891602080880191016200073e565b620000a66040830162000776565b936060830151608084015190620000c060a0860162000776565b96620000cf60c0870162000776565b93620000de60e0880162000776565b95620000fd610120620000f56101008b0162000776565b990162000776565b60c09a909a52610100528051906001600160401b0382116200057e578190620001286005546200078b565b601f811162000686575b50602090601f83116001146200060f578a9262000603575b50508160011b916000199060031b1c1916176005555b600780546001600160a01b0319166001600160a01b03929092169190911790556008554260095560e0526003608052600160a052600654620001a290620007c8565b80600655620001b46101005162000815565b620001bf8262000815565b6040518092665052492d4c502d60c81b6020830152620001ea8151809260206027860191016200073e565b8101602d60f81b602782015288906005549062000207826200078b565b9160018116908115620005dd575060011462000592575b505090620002579282612d4760f01b600294526200024682518093602087850191016200073e565b0103601d19810184520182620006e8565b604051610acf808201906001600160401b038211838310176200057e57602083926200028e9262003bbb85398181520184620007ee565b039087f09182156200057357808752600f6020908152604080892080546001600160a01b0319166001600160a01b0387811691821790925561010051908b526011909352908920549086163b156200056f5760405191637fdbe7b160e11b8352600483015260018060a01b0385166024830152604482015287816064818360018060a01b038a165af18015620005645762000533575b5060018060a01b03831687526010602052604087209160ff199260018482541617905561010051916040519260a08452899460055462000364816200078b565b918260a088015260018216918260001462000513575050600114620004c8575b50938392620003c7927f5bc145acec26384dc09c6269c9e569c69db21ad88cbd81319958b05998b83b5b96602086015260408501528382036060850152620007ee565b6001600160a01b03851660808301520390a16001600160a01b0390811685526011602052604080862064e8d4a510009055612710600a55600180546001600160a01b0319908116331790915560038054821694841694909417909355600280548416948316949094179093558454610100600160a81b03191660089490941b610100600160a81b031693909317909355600480549093169390911692909217905551613293908162000928823960805181505060a05181505060c0518181816102c10152610750015260e0518181816102710152818161231e015261249401526101005181818161088f01528181610e5e01528181611642015261252f0152f35b60058b529394509289906000805160206200468a8339815191525b818310620004fb575050840160c00193928362000384565b805460c08489010152602090920191600101620004e3565b1660c08781019190915291151560051b8601909101955084905062000384565b9096906001600160401b0381116200055057604052953862000324565b634e487b7160e01b82526041600452602482fd5b6040513d8a823e3d90fd5b8880fd5b6040513d88823e3d90fd5b634e487b7160e01b89526041600452602489fd5b60058b52909150896000805160206200468a8339815191525b838210620005c2575050016028018260026200021e565b805460288385010152869450602090910190600101620005ab565b60ff1916602883810191909152831515909302909101909101915083905060026200021e565b0151905038806200014a565b60058b526000805160206200468a8339815191529250601f1984168b5b8181106200066d575090846001959493921062000653575b505050811b0160055562000160565b015160001960f88460031b161c1916905538808062000644565b929360206001819287860151815501950193016200062c565b90915060058a5260208a20601f840160051c810160208510620006cf575b90601f8594930160051c01905b818110620006c0575062000132565b8b8155849350600101620006b1565b5080620006a4565b8480fd5b8380fd5b5080fd5b600080fd5b601f909101601f19168101906001600160401b038211908210176200070c57604052565b634e487b7160e01b600052604160045260246000fd5b6001600160401b0381116200070c57601f01601f191660200190565b918091926000905b8282106200076057501162000759575050565b6000910152565b9150806020918301518186015201829162000746565b51906001600160a01b0382168203620006e357565b90600182811c92168015620007bd575b6020831014620007a757565b634e487b7160e01b600052602260045260246000fd5b91607f16916200079b565b6000198114620007d85760010190565b634e487b7160e01b600052601160045260246000fd5b9060209162000809815180928185528580860191016200073e565b601f01601f1916010190565b8015620008f857600081805b620008e15750620008328162000722565b91620008426040519384620006e8565b818352601f19620008538362000722565b01918160209336858701375b6200086a5750505090565b60018110620007d8576000190190600a90603082820680198211620007d8578651851015620008cb570160f81b7fff000000000000000000000000000000000000000000000000000000000000001660001a8584018501530490816200085f565b634e487b7160e01b600052603260045260246000fd5b90620008ef600a91620007c8565b91048062000821565b50604080519081016001600160401b038111828210176200070c5760405260018152600360fc1b60208201529056fe604060808152600490813610156200001657600080fd5b600091823560e01c9081630aadb777146200155b5781630b92b5e4146200152657816310b72d681462000cdb5781631487ddda1462000ba5578163172195221462000b845781631733ea50146200097b5781632440f3e914620008dd5781632b79696814620008b25781633e0dc34e14620008755781634d05124c146200082e5781634e75827114620007f857816359b6a0c914620007d75781635c975abb14620007b35781635e5fe230146200072657816378e97925146200070557816379e25f3a14620006c95781638905faeb14620004835781638a9be828146200045c57839082639926878e146200042d578263a6f1c7c914620003f4578263b1fead0b14620003c5578263d06a30be146200039d578263d90543b8146200037c578263e17739b514620002945750508063e2e7c36614620002585763f3466dfa146200015f57600080fd5b34620002545781600319360112620002545780519082600554620001838162001792565b80855290600190818116908115620002295750600114620001cb575b505050620001b482620001c7940383620017fa565b5191829160208352602083019062001855565b0390f35b60058352602095507f036b6384b5eca791c62761152d0c79bb0604c104a5fb6f4eb0703f3154bb3db05b828410620002155750505082620001c794620001b492820101946200019f565b8054868501880152928601928101620001f5565b620001c79750620001b49450602092508693915060ff191682840152151560051b820101946200019f565b5080fd5b50346200025457816003193601126200025457602090517f00000000000000000000000000000000000000000000000000000000000000008152f35b909150346200025457826003193601126200025457620002b36200176b565b6001600160a01b03916024357f0000000000000000000000000000000000000000000000000000000000000000841633036200036557806008558260001462000369578062000302916200187c565b925b60015416803b156200036557849283604492885196879586946349e51b2560e01b865215159085015260248401525af1801562000358576200034557505051f35b6200035090620017cf565b620002545751f35b50505051903d90823e3d90fd5b8480fd5b8062000375916200187c565b9262000304565b5082346200025457816003193601126200025457602090600a549051908152f35b5082346200025457816003193601126200025457602090620003be6200213a565b9051908152f35b508234620002545780602092620003dc366200177b565b908252600c8552828220908252845220549051908152f35b839034620004295760203660031901126200042957358252600e6020908152918190205490516001600160a01b039091168152f35b8280fd5b50823462000254578060209262000444366200177b565b908252600b8552828220908252845220549051908152f35b82843462000480576020366003190112620004805750620003be60209235620021c7565b80fd5b90508234620004805762000497366200177b565b62989680829492106200068657620004af84620021c7565b92620151809182420490620004c482620019eb565b939150506001821062000673576000199160198382019410156200065d575b50620004f3620004ff91620019eb565b94859492939162001907565b600181106200064a57600c916200051c9101928284049062001907565b910660011981116200063757926200055e92620005589260016200056896019162000548838362002066565b8091116200062e575b5062001de9565b620018b9565b8342069062001907565b90428210620004805750620005886200055893926200059f9204620019eb565b5093908462000598818362002066565b9162001de9565b620143701981116200061957610dd41962014370820111620006195762015144603b1991011162000604575064496cebb80091620005f0620005e7620005f69342906200187c565b948592620018d2565b620018d2565b049082519182526020820152f35b601190634e487b7160e01b6000525260246000fd5b601182634e487b7160e01b6000525260246000fd5b92508c62000551565b634e487b7160e01b855260118752602485fd5b634e487b7160e01b865260118852602486fd5b909260011910620006735791620004f3620004e3565b634e487b7160e01b845260118652602484fd5b845162461bcd60e51b8152602081840152601a60248201527f556e646572206d696e696d756d20636f76657220616d6f756e740000000000006044820152606490fd5b50503462000254576020366003190112620002545760209181906001600160a01b03620006f562001754565b1681526011845220549051908152f35b50503462000254578160031936011262000254576020906009549051908152f35b905034620004295760203660031901126200042957620007456200176b565b9060018060a01b03807f0000000000000000000000000000000000000000000000000000000000000000163314159081620007a3575b5062000795575060ff801960005416911515161760005551f35b8251633d769c1160e21b8152fd5b905060015416331415386200077b565b505034620002545781600319360112620002545760ff602092541690519015158152f35b50503462000254578160031936011262000254576020906008549051908152f35b50503462000254578160031936011262000254576006548252600f6020908152918190205490516001600160a01b039091168152f35b8284346200048057806003193601126200048057506200084d6200213a565b91612710908360001904821184151516620006045750600854602093620003be9202620018e6565b5050346200025457816003193601126200025457602090517f00000000000000000000000000000000000000000000000000000000000000008152f35b505034620002545781600319360112620002545760075490516001600160a01b039091168152602090f35b905034620004295760203660031901126200042957600254813591906001600160a01b031633036200094157507f98f8638d7fcb95eacabcf74919bde278d0b069a0579c6784d9bba8f93a4f62ee82600a548151908152836020820152a1600a5551f35b606490602084519162461bcd60e51b8352820152601460248201527313db9b1e481c1c9bdd1958dd1a5bdb881c1bdbdb60621b6044820152fd5b9050346200042957606036600319011262000429576200099a62001754565b60243591604435916001600160a01b0390818416840362000b7f57818754620009c760ff821615620024b7565b60081c16330362000b6f578116908187526020906010825260ff87892054161562000b5f57818894939262000a5a869362000a01620024ed565b8585526011835264e8d4a5100062000a1d8b8d882054620018d2565b6002548d5163a9059cbb60e01b81526001600160a01b038d168b820190815293909204602084015290968794919093169284929091839160400190565b03925af1801562000b555762000b1b575b5050803b1562000429578551632770a7eb60e21b81526001600160a01b03851692810192835260208301869052918391839182908490829060400103925af1801562000b115762000af5575b505082519182526001600160a01b031660208201527fad77d19b2b77e0dfe7bf3e9cd2c87dc639cc1e223d58cf3d69603478f684064590604090a151f35b62000b0090620017cf565b62000b0d57833862000ab7565b8380fd5b85513d84823e3d90fd5b81813d831162000b4d575b62000b328183620017fa565b8101031262000b0d5751801515036200042957388062000a6b565b503d62000b26565b88513d87823e3d90fd5b8651631f05e71b60e31b81528490fd5b855163e3dfb17f60e01b81528390fd5b600080fd5b50503462000254578160031936011262000254576020906006549051908152f35b90503462000429578160031936011262000429576001600160a01b039060243590803590838316830362000b7f5783865462000be560ff821615620024b7565b60081c16330362000ccd5762000bfa620024ed565b6006548652600f6020528584868220541691823b15620002545786516340c10f1960e01b81526001600160a01b0386169181019182526020820185905292839182908490829060400103925af1801562000cc35762000cab575b5083519081526001600160a01b03919091166020808301919091529383917ff02b701fc10bff0958891c152c9eeabe4286e300c7ec9a0b08f64456ad941f7990604090a16006548152600f85522054169051908152f35b62000cb78691620017cf565b62000365573862000c54565b85513d88823e3d90fd5b845163e3dfb17f60e01b8152fd5b90503462000429576020908160031936011262000b0d57803560018060a01b0392600183828683541688519283809263c34c08e560e01b82525afa80156200151c5786918991620014db575b50163303620014cb5786856002541687516370a0823160e01b815230878201528481602481855afa9081156200144457839162001494575b508851638e15f47360e01b81528986828a8188885af180156200148a57879286916200144e575b5062000d9d9062000d978a6200189e565b620018e6565b93838510156200132d5789549151636d40d7d760e11b8152808b01868152928c166001600160a01b0316602084015294959394938492839190829060400103925af190811562001323578591620012f4575b505062000d9762000e0562000e0b93836200187c565b6200189e565b6006548852600f8352858789205416885260118352868820555b62000e2f6200213a565b15620012ec5762000e5562000e44846200189e565b62000e4e6200213a565b90620018e6565b905b87868654167f00000000000000000000000000000000000000000000000000000000000000009360065491803b1562000b0d5760a48985889381958f51978896879563c773a2d160e01b875286015260248501528c604485015260648401523060848401525af180156200122457620012d4575b50506006548852600f8352878688822054168760035416818352601186528983205491813b1562000b0d578a5163c65323f160e01b8152808a018781526001600160a01b03909216602083015260408201939093528391839182908490829060600103925af180156200122457620012b8575b505085600354169562000f53600654620025aa565b8060065562000f6284620025d7565b9162000f6e82620025d7565b8a518094665052492d4c502d60c81b8983015262000f96815180928b6027860191016200181d565b8101602d60f81b60278201528d80916005549162000fb48362001792565b928a81169081156200128f57506001146200124b575b50505090620010039282612d4760f01b6002945262000ff2825180938d87850191016200181d565b0103601d19810186520184620017fa565b8951610acf8082019082821067ffffffffffffffff8311176200123857916200103d898f95949383946200276f8539818152018762001855565b039083f080156200122e57838352600f88528b832080546001600160a01b031916929091169182179055808252601187528a8220549099803b1562000429578b5160016224184f60e11b03198152998a018781526001600160a01b038c16602082015260408101929092528b99918391839182908490829060600103925af18015620012245762001203575b5088905260108552868a209360ff1994848682541617905587519460a086528b94600554620010f88162001792565b928360a08a01528282169182600014620011d157505060011462001184575b5050849384937fd2f6618ba448f8b76ee0e823f8bb8c568b748f1687e1bc6bd625306fc4fb50359a936200116b93896000805160206200323e8339815191529901528a860152848203606086015262001855565b9060808301520390a1600654908351928352820152a151f35b60058d52878d209295508c925b828410620011b957505050840160c00192806000805160206200323e83398151915262001117565b805488850160c001528c9a5092880192810162001191565b1660c0808a019190915292151560051b880190920195508291506000805160206200323e833981519152905062001117565b6200121191929850620017cf565b620012205787958938620010c9565b8880fd5b89513d84823e3d90fd5b8b513d84823e3d90fd5b634e487b7160e01b8e5260418b5260248efd5b90919250600581528a898183205b858410620012735750505050016028018260028f62000fca565b8054858501602801528a965092909101918c918b910162001259565b60ff19166028848101919091528415159094029092019092019250849150600290508f62000fca565b620012c390620017cf565b620012d057873862000f3e565b8780fd5b620012df90620017cf565b620012d057873862000ecb565b869062000e57565b813d83116200131b575b6200130a8183620017fa565b8101031262000b7f57833862000def565b503d620012fe565b89513d8c823e3d90fd5b9051636d40d7d760e11b81528981019384523060208501529093509182908190604001038186865af19081156200144457839162001409575b506200137390866200187c565b87875416823b1562000b0d57895163329b1a9360e21b81528089019283526001600160a01b03909116602083015291839183919082908490829060400103925af18015620013ff57620013e3575b50506006548752600f8252848688205416875260118252868681205562000e25565b620013ee90620017cf565b620013fb578638620013c1565b8680fd5b88513d84823e3d90fd5b809350858092503d83116200143c575b620014258183620017fa565b8101031262000b7f57620013738992519062001366565b503d62001419565b89513d85823e3d90fd5b9550505083813d831162001482575b620014698183620017fa565b8101031262000b7f57848962000d9d8c95519062000d86565b503d6200145d565b81513d87823e3d90fd5b809350858092503d8311620014c3575b620014b08183620017fa565b8101031262000b7f578891513862000d5f565b503d620014a4565b8551633f77a45b60e01b81528490fd5b809250848092503d831162001514575b620014f78183620017fa565b81010312620012d057518581168103620012d05785903862000d27565b503d620014eb565b87513d8a823e3d90fd5b905034620004295760203660031901126200042957358252600f6020908152918190205490516001600160a01b039091168152f35b83915034620002545760031960803682011262000429578254604435928035926200158a60ff841615620024b7565b6001600160a01b039260081c831633036200174557620015a9620024ed565b62015180420493620015bb85620019eb565b509088915b888310620016fc5750505050620015dc606435602435620018e6565b92620015e886620026eb565b95620015ff620015f882620026eb565b96620019eb565b509089915b838310620016ba57505050506003541693843b15620013fb578694926200168c6200167c97959387938b51998a988997889663341922c160e01b88527f000000000000000000000000000000000000000000000000000000000000000090880152602487015260806044870152608486019062002738565b9184830301606485015262002738565b03925af18015620016b057620016a157509051f35b620016ac90620017cf565b9051f35b83513d84823e3d90fd5b81620016c7848c62002723565b5280620016d5848b62002723565b52600180910192600c8411620016ee575b019162001604565b9250809101908092620016e6565b818a526020600b81528b8b2090828c52528a8a206200171d85825462001907565b9055600180910192600c841162001737575b0191620015c0565b92508091019080926200172f565b50855163e3dfb17f60e01b8152fd5b600435906001600160a01b038216820362000b7f57565b60043590811515820362000b7f57565b604090600319011262000b7f576004359060243590565b90600182811c92168015620017c4575b6020831014620017ae57565b634e487b7160e01b600052602260045260246000fd5b91607f1691620017a2565b67ffffffffffffffff8111620017e457604052565b634e487b7160e01b600052604160045260246000fd5b90601f8019910116810190811067ffffffffffffffff821117620017e457604052565b918091926000905b8282106200183f57501162001838575050565b6000910152565b9150806020918301518186015201829162001825565b9060209162001870815180928185528580860191016200181d565b601f01601f1916010190565b81811062001888570390565b634e487b7160e01b600052601160045260246000fd5b64e8d4a5100090806000190482118115151662001888570290565b6201518090806000190482118115151662001888570290565b806000190482118115151662001888570290565b8115620018f1570490565b634e487b7160e01b600052601260045260246000fd5b8119811162001888570190565b6000811280156001600160ff1b038390038413166200188857600160ff1b82900383121662001888570190565b6105b560008083136001600160ff1b03849004831116600116620019935760017fffe9924f8d0dd7b2e6f174df9576f9de01c091c8faeb2605f522de8852b47aa8841282851216166200199357500290565b634e487b7160e01b81526011600452602490fd5b600e600160ff1b0181126001166200188857600d190190565b600082128015600160ff1b840183121662001888576001600160ff1b03830182131662001888570390565b6000916001600160ff1b039162010bd99084811281850381158185131662001dd557600160ff1b93838503928382121662001dc15787908401129162010bd819908162253d8c9301831384151662001dad5701131662001d9957622649650193600193600491858783048411828913161662001d8657808712600760fd1b881216861662001d865762023ab196878160021b0597878985048211848b13161662001d7357877fffffc694f94337079d130ab45dff8e0f9ea161331bb1c93dea871de6fec83ce28a12848b12161662001d7357880282811281850360031381151662000673578187036003121662001d73579084600362001aee93010590620019c0565b92818412848403881381151662001d275784860388121662001d1457868401610fa0888286048211858413161662001d3a57887ffff7ced916872b020c49ba5e353f7ced916872b020c49ba5e353f7ced916872c8312858412161662001d3a5762001b6f9162164b09910205948262001b678762001941565b0590620019c0565b828112818503601f1381151662001d3a57818703601f121662001d2757601f019680888504605011848a13161662001d2757807ffe666666666666666666666666666666666666666666666666666666666666678912848a12161662001d275761098f9788816050020590828287048b11868413161662001d605784821299837ffff29be1739a4fb805dbcd5d6c7d1f7d6fd627208942391f124ee1c3f307026884128c161662001d4d579060508362001c2c93020590620019c0565b98600b82059782870360021382151662001d4d578290036002121662001d3a5781878604600c11858913161662001d3a57817ff5555555555555555555555555555555555555555555555555555555555555568812858912161662001d3a5762001c9e90600288600c029101620019c0565b986031600160ff1b018112821662001d3a57819060301901809504606411848613161662001d27577ffeb851eb851eb851eb851eb851eb851eb851eb851eb851eb851eb851eb851eb98412838512161662001d1457505062001d0f929162001d099160640262001914565b62001914565b929190565b634e487b7160e01b825260119052602490fd5b634e487b7160e01b835260118252602483fd5b634e487b7160e01b845260118352602484fd5b634e487b7160e01b865260118552602486fd5b634e487b7160e01b855260118452602485fd5b634e487b7160e01b835260118552602483fd5b634e487b7160e01b815260118352602490fd5b634e487b7160e01b85526011600452602485fd5b634e487b7160e01b89526011600452602489fd5b634e487b7160e01b88526011600452602488fd5b634e487b7160e01b87526011600452602487fd5b9291926107b2811062000b7f57600191617d4b600160ff1b018512831662001888576000918281128015926001600160ff1b03929182840391906112c0838113871662001dc157600160ff1b85900390818112831662001dad5762001e7098999a9b62001e839162001e7660049b8c92600c62001e668a620019a7565b05908b0162001914565b62001941565b0590617d4a190162001914565b6002600160ff1b0184128b166200205357600c62001ea185620019a7565b058b7f0aaaaaaaaaaaaaaaaaaaaaaaaaaaaaaaaaaaaaaaaaaaaaaaaaaaaaaaaaaaaaaa82118c8313161662002040578b7ff55555555555555555555555555555555555555555555555555555555555555682128c83121616620020405762001f1190600c026001198601620019c0565b61016f8c828a0482118d841316166200202d578c7fffa6b6c1eb12d573186a06f9b8d9a287530217b7747d8eff4d6d83d625aae63183128d841216166200202d5762001f649291600c9102059062001914565b96611324948513166200201a5783121662002007578792606492600c62001f8f62001f9894620019a7565b05910162001914565b05809204600311858313161662001d3a57847fd5555555555555555555555555555555555555555555555555555555555555568212858312161662001d3a57908262001fe9926003020590620019c0565b9262253d8c600160ff1b0184121662001d1457505062253d8b190190565b634e487b7160e01b875260118652602487fd5b634e487b7160e01b895260118852602489fd5b634e487b7160e01b8c5260118b5260248cfd5b634e487b7160e01b8b5260118a5260248bfd5b634e487b7160e01b8a526011895260248afd5b906001811480156200212f575b801562002124575b801562002119575b80156200210e575b801562002103575b8015620020f8575b15620020a8575050601f90565b600214620020b65750601e90565b60038116159081620020ea575b8115620020dc575b5015620020d757601d90565b601c90565b6101909150061538620020cb565b6064810615159150620020c3565b50600c81146200209b565b50600a811462002093565b50600881146200208b565b506007811462002083565b50600581146200207b565b506003811462002073565b6000806200214d620151804204620019eb565b50919081905b600382106200217657505050506200217261271091600a5490620018d2565b0490565b909192936200219d908285526020600b815260409081872090888852528520549062001907565b93600180910192600c8411620021b9575b019291929062002153565b9250809101908092620021ae565b9062093a80620021da600954426200187c565b11156200249257620021fa62000e0583620021f46200213a565b62001907565b60025460408051633f14610f60e21b81526004956001600160a01b0394929385169260209290919083818a81885afa90811562002451576000916200245c575b506200224c929162000e4e9162001907565b91600654600052600f825284846000205416845183818a816318160ddd60e01b958682525afa90811562002451579084916000916200241a575b5062002292906200189e565b918987518095819382525afa9182156200240f579088939291600092620023d2575b508291620022c291620018e6565b956001541685519384809263a7e9f1c760e01b82525afa938415620023c857506000936200238e575b505081620022f991620018d2565b9064e8d4a51000199081831162002379576200234a906200234364e8d4a510008095017f0000000000000000000000000000000000000000000000000000000000000000620018d2565b94620018d2565b9081116200236457620023619394500190620018e6565b90565b601185634e487b7160e01b6000525260246000fd5b601186634e487b7160e01b6000525260246000fd5b8181949293943d8311620023c0575b620023a98183620017fa565b810103126200048057505190620022f938620022eb565b503d6200239d565b513d6000823e3d90fd5b91909280945082813d831162002407575b620023ef8183620017fa565b8101031262000480575051879291620022c2620022b4565b503d620023e3565b85513d6000823e3d90fd5b9182813d831162002449575b620024328183620017fa565b810103126200048057505183906200229262002286565b503d62002426565b86513d6000823e3d90fd5b908482813d83116200248a575b620024758183620017fa565b81010312620004805750516200224c6200223a565b503d62002469565b7f00000000000000000000000000000000000000000000000000000000000000009150565b15620024bf57565b60405162461bcd60e51b815260206004820152600660248201526514185d5cd95960d21b6044820152606490fd5b60ff600d5416158062002590575b6200250257565b6001546001600160a01b0316803b1562000b7f5760008091602460405180948193631528244d60e11b83527f000000000000000000000000000000000000000000000000000000000000000060048401525af18015620025845762002572575b50600160ff19600d541617600d55565b6200257d90620017cf565b3862002562565b6040513d6000823e3d90fd5b5062093a80620025a3600954426200187c565b11620024fb565b6000198114620018885760010190565b67ffffffffffffffff8111620017e457601f01601f191660200190565b8015620026a257600081805b6200268b5750620025f481620025ba565b90620026046040519283620017fa565b808252601f196200261582620025ba565b013660208401375b80831562002684576001811062001888576000190192600a91828206603081198111620018885785518710156200266e570160f81b6001600160f81b03191660001a908401601f015304916200261d565b634e487b7160e01b600052603260045260246000fd5b5050905090565b9062002699600a91620025aa565b910480620025e3565b506040516040810181811067ffffffffffffffff821117620017e45760405260018152600360fc1b602082015290565b67ffffffffffffffff8111620017e45760051b60200190565b90620026f782620026d2565b620027066040519182620017fa565b828152809262002719601f1991620026d2565b0190602036910137565b80518210156200266e5760209160051b010190565b90815180825260208080930193019160005b82811062002759575050505090565b8351855293810193928101926001016200274a56fe6080604052346200038a5762000acf803803806200001d816200038f565b928339810160209182818303126200038a5780516001600160401b03918282116200038a570192601f908382860112156200038a5784518381116200027957601f199562000071828501881684016200038f565b958287528383830101116200038a578183916000905b8282106200037057501162000361575b50506040519460408601868110858211176200027957604052600686526505052492d4c560d41b82870152845184811162000279576000546001968782811c9216801562000356575b858310146200025857818684931162000300575b5084908683116001146200029b576000926200028f575b5050600019600383901b1c191690861b176000555b8551938411620002795784548581811c911680156200026e575b8382101462000258578381116200020d575b5081928411600114620001a95750508192936000926200019d575b5050600019600383901b1c191690821b1790555b600580546001600160a01b031916331790556040516107199081620003b68239f35b01519050388062000167565b6000858152828120918516969193925b878210620001f557505083859610620001db575b505050811b0190556200017b565b015160001960f88460031b161c19169055388080620001cd565b808785968294968601518155019501930190620001b9565b85600052826000208480870160051c8201928588106200024e575b0160051c019086905b828110620002415750506200014c565b6000815501869062000231565b9250819262000228565b634e487b7160e01b600052602260045260246000fd5b90607f16906200013a565b634e487b7160e01b600052604160045260246000fd5b0151905038806200010b565b90848994169160008052866000209260005b88828210620002e95750508411620002cf575b505050811b0160005562000120565b015160001960f88460031b161c19169055388080620002c0565b8385015186558c97909501949384019301620002ad565b90915060008052846000208680850160051c8201928786106200034c575b918a91869594930160051c01915b8281106200033c575050620000f4565b600081558594508a91016200032c565b925081926200031e565b91607f1691620000e0565b60009186010152388162000097565b92809250818401015182828a010152018290849262000087565b600080fd5b6040519190601f01601f191682016001600160401b03811183821017620002795760405256fe6080604081815260048036101561001557600080fd5b600092833560e01c90816306fdde031461050357508063095ea7b31461049557806318160ddd1461047657806323b872dd146103b2578063313ce5671461039657806340c10f191461030a57806370a08231146102d257806395d89b41146101ce5780639dc29fac1461015d578063a9059cbb146100e75763dd62ed3e1461009c57600080fd5b346100e357816003193601126100e35760209282916100b9610630565b6100c161064b565b6001600160a01b03918216845291865283832091168252845220549051908152f35b8280fd5b505034610159578060031936011261015957602091610104610630565b82602435913384526003865281842061011e848254610661565b90556001600160a01b0316808452600386529220805482019055825190815233906000805160206106c4833981519152908590a35160018152f35b5080fd5b50503461015957806003193601126101595781610178610630565b6000805160206106c483398151915260206024359260018060a01b03906101a482600554163314610682565b1692838552600382528585206101bb828254610661565b905580600254036002558551908152a351f35b5091903461015957816003193601126101595780519082600180549081811c908083169283156102c8575b60209384841081146102b5578388529081156102995750600114610261575b505050829003601f01601f191682019267ffffffffffffffff84118385101761024e575082918261024a9252826105d9565b0390f35b634e487b7160e01b815260418552602490fd5b809293508652828620918387935b8385106102855750505050830101388080610218565b80548886018301529301928490820161026f565b60ff1916878501525050151560051b8401019050388080610218565b634e487b7160e01b895260228a52602489fd5b91607f16916101f9565b5050346101595760203660031901126101595760209181906001600160a01b036102fa610630565b1681526003845220549051908152f35b50346100e357816003193601126100e357610323610630565b600554602435926001600160a01b0392916103419084163314610682565b6002549084198211610383575085926000805160206106c48339815191529285602093016002551693848452600382528584208181540190558551908152a351f35b634e487b7160e01b875260119052602486fd5b5050346101595781600319360112610159576020905160068152f35b509134610473576060366003190112610473576103cd610630565b6000805160206106c48339815191526103e461064b565b6001600160a01b0392831680855260208781528686203387528152868620549097919488936044359389938560018201610450575b50505086885260038552828820610431858254610661565b9055169586815260038452208181540190558551908152a35160018152f35b61045991610661565b90888a528652838920338a52865283892055388085610419565b80fd5b5050346101595781600319360112610159576020906002549051908152f35b50346100e357816003193601126100e3576020926104b1610630565b918360243592839233825287528181209460018060a01b0316948582528752205582519081527f8c5be1e5ebec7d5bd14f71427d1e84f3dd0314c0f7b2291e5b200ac8c7c3b925843392a35160018152f35b84915083346100e357826003193601126100e357828354600181811c908083169283156105cf575b60209384841081146102b5578388529081156105b3575060011461057b57505050829003601f01601f191682019267ffffffffffffffff84118385101761024e575082918261024a9252826105d9565b919250858052828620918387935b83851061059f5750505050830101858080610218565b805488860183015293019284908201610589565b60ff1916878501525050151560051b8401019050858080610218565b91607f169161052b565b919091602080825283519081818401526000945b82861061061a57505080604093941161060d575b601f01601f1916010190565b6000838284010152610601565b85810182015184870160400152948101946105ed565b600435906001600160a01b038216820361064657565b600080fd5b602435906001600160a01b038216820361064657565b81811061066c570390565b634e487b7160e01b600052601160045260246000fd5b1561068957565b60405162461bcd60e51b815260206004820152601260248201527113db9b1e481c1c9a5bdc9a5d1e481c1bdbdb60721b6044820152606490fdfeddf252ad1be2c89b69c2b068fc378daa952ba7f163c4a11628f55a4df523b3efa264697066735822122071dd5b2ecdad4f901f98e9c862ea9d567d16528ba8a301e75e025d6ba3ceeebb64736f6c634300080f00335bc145acec26384dc09c6269c9e569c69db21ad88cbd81319958b05998b83b5ba2646970667358221220e2fd3931d038fd52fc636ef01112cf750c310eb0d84ef77b3be27b450de81c9264736f6c634300080f00336080604052346200038a5762000acf803803806200001d816200038f565b928339810160209182818303126200038a5780516001600160401b03918282116200038a570192601f908382860112156200038a5784518381116200027957601f199562000071828501881684016200038f565b958287528383830101116200038a578183916000905b8282106200037057501162000361575b50506040519460408601868110858211176200027957604052600686526505052492d4c560d41b82870152845184811162000279576000546001968782811c9216801562000356575b858310146200025857818684931162000300575b5084908683116001146200029b576000926200028f575b5050600019600383901b1c191690861b176000555b8551938411620002795784548581811c911680156200026e575b8382101462000258578381116200020d575b5081928411600114620001a95750508192936000926200019d575b5050600019600383901b1c191690821b1790555b600580546001600160a01b031916331790556040516107199081620003b68239f35b01519050388062000167565b6000858152828120918516969193925b878210620001f557505083859610620001db575b505050811b0190556200017b565b015160001960f88460031b161c19169055388080620001cd565b808785968294968601518155019501930190620001b9565b85600052826000208480870160051c8201928588106200024e575b0160051c019086905b828110620002415750506200014c565b6000815501869062000231565b9250819262000228565b634e487b7160e01b600052602260045260246000fd5b90607f16906200013a565b634e487b7160e01b600052604160045260246000fd5b0151905038806200010b565b90848994169160008052866000209260005b88828210620002e95750508411620002cf575b505050811b0160005562000120565b015160001960f88460031b161c19169055388080620002c0565b8385015186558c97909501949384019301620002ad565b90915060008052846000208680850160051c8201928786106200034c575b918a91869594930160051c01915b8281106200033c575050620000f4565b600081558594508a91016200032c565b925081926200031e565b91607f1691620000e0565b60009186010152388162000097565b92809250818401015182828a010152018290849262000087565b600080fd5b6040519190601f01601f191682016001600160401b03811183821017620002795760405256fe6080604081815260048036101561001557600080fd5b600092833560e01c90816306fdde031461050357508063095ea7b31461049557806318160ddd1461047657806323b872dd146103b2578063313ce5671461039657806340c10f191461030a57806370a08231146102d257806395d89b41146101ce5780639dc29fac1461015d578063a9059cbb146100e75763dd62ed3e1461009c57600080fd5b346100e357816003193601126100e35760209282916100b9610630565b6100c161064b565b6001600160a01b03918216845291865283832091168252845220549051908152f35b8280fd5b505034610159578060031936011261015957602091610104610630565b82602435913384526003865281842061011e848254610661565b90556001600160a01b0316808452600386529220805482019055825190815233906000805160206106c4833981519152908590a35160018152f35b5080fd5b50503461015957806003193601126101595781610178610630565b6000805160206106c483398151915260206024359260018060a01b03906101a482600554163314610682565b1692838552600382528585206101bb828254610661565b905580600254036002558551908152a351f35b5091903461015957816003193601126101595780519082600180549081811c908083169283156102c8575b60209384841081146102b5578388529081156102995750600114610261575b505050829003601f01601f191682019267ffffffffffffffff84118385101761024e575082918261024a9252826105d9565b0390f35b634e487b7160e01b815260418552602490fd5b809293508652828620918387935b8385106102855750505050830101388080610218565b80548886018301529301928490820161026f565b60ff1916878501525050151560051b8401019050388080610218565b634e487b7160e01b895260228a52602489fd5b91607f16916101f9565b5050346101595760203660031901126101595760209181906001600160a01b036102fa610630565b1681526003845220549051908152f35b50346100e357816003193601126100e357610323610630565b600554602435926001600160a01b0392916103419084163314610682565b6002549084198211610383575085926000805160206106c48339815191529285602093016002551693848452600382528584208181540190558551908152a351f35b634e487b7160e01b875260119052602486fd5b5050346101595781600319360112610159576020905160068152f35b509134610473576060366003190112610473576103cd610630565b6000805160206106c48339815191526103e461064b565b6001600160a01b0392831680855260208781528686203387528152868620549097919488936044359389938560018201610450575b50505086885260038552828820610431858254610661565b9055169586815260038452208181540190558551908152a35160018152f35b61045991610661565b90888a528652838920338a52865283892055388085610419565b80fd5b5050346101595781600319360112610159576020906002549051908152f35b50346100e357816003193601126100e3576020926104b1610630565b918360243592839233825287528181209460018060a01b0316948582528752205582519081527f8c5be1e5ebec7d5bd14f71427d1e84f3dd0314c0f7b2291e5b200ac8c7c3b925843392a35160018152f35b84915083346100e357826003193601126100e357828354600181811c908083169283156105cf575b60209384841081146102b5578388529081156105b3575060011461057b57505050829003601f01601f191682019267ffffffffffffffff84118385101761024e575082918261024a9252826105d9565b919250858052828620918387935b83851061059f5750505050830101858080610218565b805488860183015293019284908201610589565b60ff1916878501525050151560051b8401019050858080610218565b91607f169161052b565b919091602080825283519081818401526000945b82861061061a57505080604093941161060d575b601f01601f1916010190565b6000838284010152610601565b85810182015184870160400152948101946105ed565b600435906001600160a01b038216820361064657565b600080fd5b602435906001600160a01b038216820361064657565b81811061066c570390565b634e487b7160e01b600052601160045260246000fd5b1561068957565b60405162461bcd60e51b815260206004820152601260248201527113db9b1e481c1c9a5bdc9a5d1e481c1bdbdb60721b6044820152606490fdfeddf252ad1be2c89b69c2b068fc378daa952ba7f163c4a11628f55a4df523b3efa264697066735822122071dd5b2ecdad4f901f98e9c862ea9d567d16528ba8a301e75e025d6ba3ceeebb64736f6c634300080f0033036b6384b5eca791c62761152d0c79bb0604c104a5fb6f4eb0703f3154bb3db0a2646970667358221220718aebc061dd92e198fbc1fe868c4bdb576472762dd6956c006ade34799adf5064736f6c634300080f0033",
  "devdoc": {
    "author": "Eric Lee (ylikp.ust@gmail.com)",
    "kind": "dev",
    "methods": {
      "deployPool(string,address,uint256,uint256)": {
        "params": {
          "_basePremiumRatio": "Initial policy price per shield",
          "_maxCapacity": "Maximum capacity of the pool",
          "_name": "Name of the protocol",
          "_protocolToken": "Address of the token used for the protocol"
        },
        "returns": {
          "_0": "address Address of the new insurance pool"
        }
      },
      "getPoolAddressList()": {
        "returns": {
          "_0": "List of pool addresses"
        }
      },
      "getPoolInfo(uint256)": {
        "params": {
          "_poolId": "Pool id"
        }
      },
      "owner()": {
        "details": "Returns the address of the current owner."
      },
      "renounceOwnership()": {
        "details": "Leaves the contract without owner. It will not be possible to call `onlyOwner` functions anymore. Can only be called by the current owner. NOTE: Renouncing ownership will leave the contract without an owner, thereby removing any functionality that is only available to the owner."
      },
      "transferOwnership(address)": {
        "details": "Transfers ownership of the contract to a new account (`newOwner`). Can only be called by the current owner."
      },
      "updateDynamicPool(uint256)": {
        "params": {
          "_poolId": "Pool id"
        }
      }
    },
    "title": "Insurance Pool Factory",
    "version": 1
  },
  "userdoc": {
    "kind": "user",
    "methods": {
      "deployPool(string,address,uint256,uint256)": {
        "notice": "Create a new priority pool         Called by executor when an onboard proposal has passed"
      },
      "getPoolAddressList()": {
        "notice": "Get the pool address list"
      },
      "getPoolInfo(uint256)": {
        "notice": "Get the pool information by pool id"
      },
      "updateDynamicPool(uint256)": {
        "notice": "Update a priority pool status to dynamic         Only sent from priority pool         \"Dynamic\" means:                  The priority pool will be counted in the dynamic premium formula"
      }
    },
    "notice": "This is the factory contract for deploying new insurance pools         Each pool represents a project that has joined Degis Protocol Protection         Liquidity providers of Protection Pool can stake their LP tokens into priority pools         Benefit:             - Share the 45% part of the premium income (in native token form)         Risk:             - Will be liquidated first to pay for the claim amount",
    "version": 1
  },
  "storageLayout": {
    "storage": [
      {
        "astId": 21667,
        "contract": "src/pools/priorityPool/PriorityPoolFactory.sol:PriorityPoolFactory",
        "label": "_owner",
        "offset": 0,
        "slot": "0",
        "type": "t_address"
      },
      {
        "astId": 18952,
        "contract": "src/pools/priorityPool/PriorityPoolFactory.sol:PriorityPoolFactory",
        "label": "executor",
        "offset": 0,
        "slot": "1",
        "type": "t_address"
      },
      {
        "astId": 18954,
        "contract": "src/pools/priorityPool/PriorityPoolFactory.sol:PriorityPoolFactory",
        "label": "policyCenter",
        "offset": 0,
        "slot": "2",
        "type": "t_address"
      },
      {
        "astId": 18956,
        "contract": "src/pools/priorityPool/PriorityPoolFactory.sol:PriorityPoolFactory",
        "label": "protectionPool",
        "offset": 0,
        "slot": "3",
        "type": "t_address"
      },
      {
        "astId": 18958,
        "contract": "src/pools/priorityPool/PriorityPoolFactory.sol:PriorityPoolFactory",
        "label": "incidentReport",
        "offset": 0,
        "slot": "4",
        "type": "t_address"
      },
      {
        "astId": 18960,
        "contract": "src/pools/priorityPool/PriorityPoolFactory.sol:PriorityPoolFactory",
        "label": "premiumRewardPool",
        "offset": 0,
        "slot": "5",
        "type": "t_address"
      },
      {
        "astId": 18962,
        "contract": "src/pools/priorityPool/PriorityPoolFactory.sol:PriorityPoolFactory",
        "label": "weightedFarmingPool",
        "offset": 0,
        "slot": "6",
        "type": "t_address"
      },
      {
        "astId": 18964,
        "contract": "src/pools/priorityPool/PriorityPoolFactory.sol:PriorityPoolFactory",
        "label": "payoutPool",
        "offset": 0,
        "slot": "7",
        "type": "t_address"
      },
      {
        "astId": 18426,
        "contract": "src/pools/priorityPool/PriorityPoolFactory.sol:PriorityPoolFactory",
        "label": "pools",
        "offset": 0,
        "slot": "8",
        "type": "t_mapping(t_uint256,t_struct(PoolInfo)18421_storage)"
      },
      {
        "astId": 18430,
        "contract": "src/pools/priorityPool/PriorityPoolFactory.sol:PriorityPoolFactory",
        "label": "poolAddressToId",
        "offset": 0,
        "slot": "9",
        "type": "t_mapping(t_address,t_uint256)"
      },
      {
        "astId": 18432,
        "contract": "src/pools/priorityPool/PriorityPoolFactory.sol:PriorityPoolFactory",
        "label": "poolCounter",
        "offset": 0,
        "slot": "10",
        "type": "t_uint256"
      },
      {
        "astId": 18434,
        "contract": "src/pools/priorityPool/PriorityPoolFactory.sol:PriorityPoolFactory",
        "label": "totalMaxCapacity",
        "offset": 0,
        "slot": "11",
        "type": "t_uint256"
      },
      {
        "astId": 18438,
        "contract": "src/pools/priorityPool/PriorityPoolFactory.sol:PriorityPoolFactory",
        "label": "dynamic",
        "offset": 0,
        "slot": "12",
        "type": "t_mapping(t_address,t_bool)"
      },
      {
        "astId": 18440,
        "contract": "src/pools/priorityPool/PriorityPoolFactory.sol:PriorityPoolFactory",
        "label": "dynamicPoolCounter",
        "offset": 0,
        "slot": "13",
        "type": "t_uint256"
      },
      {
        "astId": 18444,
        "contract": "src/pools/priorityPool/PriorityPoolFactory.sol:PriorityPoolFactory",
        "label": "poolRegistered",
        "offset": 0,
        "slot": "14",
        "type": "t_mapping(t_address,t_bool)"
      },
      {
        "astId": 18448,
        "contract": "src/pools/priorityPool/PriorityPoolFactory.sol:PriorityPoolFactory",
        "label": "tokenRegistered",
        "offset": 0,
        "slot": "15",
        "type": "t_mapping(t_address,t_bool)"
      }
    ],
    "types": {
      "t_address": {
        "encoding": "inplace",
        "label": "address",
        "numberOfBytes": "20"
      },
      "t_bool": {
        "encoding": "inplace",
        "label": "bool",
        "numberOfBytes": "1"
      },
      "t_mapping(t_address,t_bool)": {
        "encoding": "mapping",
        "key": "t_address",
        "label": "mapping(address => bool)",
        "numberOfBytes": "32",
        "value": "t_bool"
      },
      "t_mapping(t_address,t_uint256)": {
        "encoding": "mapping",
        "key": "t_address",
        "label": "mapping(address => uint256)",
        "numberOfBytes": "32",
        "value": "t_uint256"
      },
      "t_mapping(t_uint256,t_struct(PoolInfo)18421_storage)": {
        "encoding": "mapping",
        "key": "t_uint256",
        "label": "mapping(uint256 => struct PriorityPoolFactory.PoolInfo)",
        "numberOfBytes": "32",
        "value": "t_struct(PoolInfo)18421_storage"
      },
      "t_string_storage": {
        "encoding": "bytes",
        "label": "string",
        "numberOfBytes": "32"
      },
      "t_struct(PoolInfo)18421_storage": {
        "encoding": "inplace",
        "label": "struct PriorityPoolFactory.PoolInfo",
        "members": [
          {
            "astId": 18412,
            "contract": "src/pools/priorityPool/PriorityPoolFactory.sol:PriorityPoolFactory",
            "label": "protocolName",
            "offset": 0,
            "slot": "0",
            "type": "t_string_storage"
          },
          {
            "astId": 18414,
            "contract": "src/pools/priorityPool/PriorityPoolFactory.sol:PriorityPoolFactory",
            "label": "poolAddress",
            "offset": 0,
            "slot": "1",
            "type": "t_address"
          },
          {
            "astId": 18416,
            "contract": "src/pools/priorityPool/PriorityPoolFactory.sol:PriorityPoolFactory",
            "label": "protocolToken",
            "offset": 0,
            "slot": "2",
            "type": "t_address"
          },
          {
            "astId": 18418,
            "contract": "src/pools/priorityPool/PriorityPoolFactory.sol:PriorityPoolFactory",
            "label": "maxCapacity",
            "offset": 0,
            "slot": "3",
            "type": "t_uint256"
          },
          {
            "astId": 18420,
            "contract": "src/pools/priorityPool/PriorityPoolFactory.sol:PriorityPoolFactory",
            "label": "basePremiumRatio",
            "offset": 0,
            "slot": "4",
            "type": "t_uint256"
          }
        ],
        "numberOfBytes": "160"
      },
      "t_uint256": {
        "encoding": "inplace",
        "label": "uint256",
        "numberOfBytes": "32"
      }
    }
  }
}