{
  "address": "0x39c0156f420D3Cb8881EEEA9cc40B9065a4ACFB5",
  "abi": [
    {
      "inputs": [
        {
          "internalType": "address",
          "name": "_deg",
          "type": "address"
        },
        {
          "internalType": "address",
          "name": "_veDeg",
          "type": "address"
        },
        {
          "internalType": "address",
          "name": "_shield",
          "type": "address"
        }
      ],
      "stateMutability": "nonpayable",
      "type": "constructor"
    },
    {
      "inputs": [],
      "name": "ProtectionPool__ExceededTotalSupply",
      "type": "error"
    },
    {
      "inputs": [],
      "name": "ProtectionPool__NotAllowedToPause",
      "type": "error"
    },
    {
      "inputs": [],
      "name": "ProtectionPool__NotEnoughBalance",
      "type": "error"
    },
    {
      "inputs": [],
      "name": "ProtectionPool__NotEnoughLiquidity",
      "type": "error"
    },
    {
      "inputs": [],
      "name": "ProtectionPool__OnlyPolicyCenter",
      "type": "error"
    },
    {
      "inputs": [],
      "name": "ProtectionPool__OnlyPriorityPool",
      "type": "error"
    },
    {
      "inputs": [],
      "name": "ProtectionPool__OnlyPriorityPoolOrPolicyCenter",
      "type": "error"
    },
    {
      "anonymous": false,
      "inputs": [
        {
          "indexed": true,
          "internalType": "address",
          "name": "owner",
          "type": "address"
        },
        {
          "indexed": true,
          "internalType": "address",
          "name": "spender",
          "type": "address"
        },
        {
          "indexed": false,
          "internalType": "uint256",
          "name": "value",
          "type": "uint256"
        }
      ],
      "name": "Approval",
      "type": "event"
    },
    {
      "anonymous": false,
      "inputs": [
        {
          "indexed": true,
          "internalType": "address",
          "name": "lender",
          "type": "address"
        },
        {
          "indexed": true,
          "internalType": "address",
          "name": "borrower",
          "type": "address"
        },
        {
          "indexed": true,
          "internalType": "address",
          "name": "stablecoin",
          "type": "address"
        },
        {
          "indexed": false,
          "internalType": "uint256",
          "name": "amount",
          "type": "uint256"
        },
        {
          "indexed": false,
          "internalType": "uint256",
          "name": "fee",
          "type": "uint256"
        }
      ],
      "name": "FlashLoanBorrowed",
      "type": "event"
    },
    {
      "anonymous": false,
      "inputs": [
        {
          "indexed": false,
          "internalType": "uint256",
          "name": "shieldAmount",
          "type": "uint256"
        },
        {
          "indexed": false,
          "internalType": "uint256",
          "name": "lpAmount",
          "type": "uint256"
        },
        {
          "indexed": false,
          "internalType": "address",
          "name": "sender",
          "type": "address"
        }
      ],
      "name": "LiquidityProvided",
      "type": "event"
    },
    {
      "anonymous": false,
      "inputs": [
        {
          "indexed": false,
          "internalType": "uint256",
          "name": "lpAmount",
          "type": "uint256"
        },
        {
          "indexed": false,
          "internalType": "uint256",
          "name": "shieldAmount",
          "type": "uint256"
        },
        {
          "indexed": false,
          "internalType": "address",
          "name": "sender",
          "type": "address"
        }
      ],
      "name": "LiquidityRemoved",
      "type": "event"
    },
    {
      "anonymous": false,
      "inputs": [
        {
          "indexed": false,
          "internalType": "address",
          "name": "pool",
          "type": "address"
        },
        {
          "indexed": false,
          "internalType": "uint256",
          "name": "amount",
          "type": "uint256"
        }
      ],
      "name": "LiquidityRemovedWhenClaimed",
      "type": "event"
    },
    {
      "anonymous": false,
      "inputs": [
        {
          "indexed": true,
          "internalType": "address",
          "name": "previousOwner",
          "type": "address"
        },
        {
          "indexed": true,
          "internalType": "address",
          "name": "newOwner",
          "type": "address"
        }
      ],
      "name": "OwnershipTransferred",
      "type": "event"
    },
    {
      "anonymous": false,
      "inputs": [
        {
          "indexed": false,
          "internalType": "address",
          "name": "account",
          "type": "address"
        }
      ],
      "name": "Paused",
      "type": "event"
    },
    {
      "anonymous": false,
      "inputs": [
        {
          "indexed": false,
          "internalType": "uint256",
          "name": "price",
          "type": "uint256"
        }
      ],
      "name": "PriceUpdated",
      "type": "event"
    },
    {
      "anonymous": false,
      "inputs": [
        {
          "indexed": false,
          "internalType": "uint256",
          "name": "totalReward",
          "type": "uint256"
        }
      ],
      "name": "RewardUpdated",
      "type": "event"
    },
    {
      "anonymous": false,
      "inputs": [
        {
          "indexed": true,
          "internalType": "address",
          "name": "from",
          "type": "address"
        },
        {
          "indexed": true,
          "internalType": "address",
          "name": "to",
          "type": "address"
        },
        {
          "indexed": false,
          "internalType": "uint256",
          "name": "value",
          "type": "uint256"
        }
      ],
      "name": "Transfer",
      "type": "event"
    },
    {
      "anonymous": false,
      "inputs": [
        {
          "indexed": false,
          "internalType": "address",
          "name": "account",
          "type": "address"
        }
      ],
      "name": "Unpaused",
      "type": "event"
    },
    {
      "inputs": [],
      "name": "FEE",
      "outputs": [
        {
          "internalType": "uint256",
          "name": "",
          "type": "uint256"
        }
      ],
      "stateMutability": "view",
      "type": "function"
    },
    {
      "inputs": [],
      "name": "SCALE",
      "outputs": [
        {
          "internalType": "uint256",
          "name": "",
          "type": "uint256"
        }
      ],
      "stateMutability": "view",
      "type": "function"
    },
    {
      "inputs": [],
      "name": "SHIELD",
      "outputs": [
        {
          "internalType": "address",
          "name": "",
          "type": "address"
        }
      ],
      "stateMutability": "view",
      "type": "function"
    },
    {
      "inputs": [
        {
          "internalType": "address",
          "name": "owner",
          "type": "address"
        },
        {
          "internalType": "address",
          "name": "spender",
          "type": "address"
        }
      ],
      "name": "allowance",
      "outputs": [
        {
          "internalType": "uint256",
          "name": "",
          "type": "uint256"
        }
      ],
      "stateMutability": "view",
      "type": "function"
    },
    {
      "inputs": [
        {
          "internalType": "address",
          "name": "spender",
          "type": "address"
        },
        {
          "internalType": "uint256",
          "name": "amount",
          "type": "uint256"
        }
      ],
      "name": "approve",
      "outputs": [
        {
          "internalType": "bool",
          "name": "",
          "type": "bool"
        }
      ],
      "stateMutability": "nonpayable",
      "type": "function"
    },
    {
      "inputs": [
        {
          "internalType": "address",
          "name": "account",
          "type": "address"
        }
      ],
      "name": "balanceOf",
      "outputs": [
        {
          "internalType": "uint256",
          "name": "",
          "type": "uint256"
        }
      ],
      "stateMutability": "view",
      "type": "function"
    },
    {
      "inputs": [],
      "name": "decimals",
      "outputs": [
        {
          "internalType": "uint8",
          "name": "",
          "type": "uint8"
        }
      ],
      "stateMutability": "view",
      "type": "function"
    },
    {
      "inputs": [
        {
          "internalType": "address",
          "name": "spender",
          "type": "address"
        },
        {
          "internalType": "uint256",
          "name": "subtractedValue",
          "type": "uint256"
        }
      ],
      "name": "decreaseAllowance",
      "outputs": [
        {
          "internalType": "bool",
          "name": "",
          "type": "bool"
        }
      ],
      "stateMutability": "nonpayable",
      "type": "function"
    },
    {
      "inputs": [],
      "name": "deg",
      "outputs": [
        {
          "internalType": "contract IDegisToken",
          "name": "",
          "type": "address"
        }
      ],
      "stateMutability": "view",
      "type": "function"
    },
    {
      "inputs": [
        {
          "internalType": "address",
          "name": "_token",
          "type": "address"
        },
        {
          "internalType": "uint256",
          "name": "_amount",
          "type": "uint256"
        }
      ],
      "name": "flashFee",
      "outputs": [
        {
          "internalType": "uint256",
          "name": "",
          "type": "uint256"
        }
      ],
      "stateMutability": "pure",
      "type": "function"
    },
    {
      "inputs": [
        {
          "internalType": "contract IERC3156FlashBorrower",
          "name": "_receiver",
          "type": "address"
        },
        {
          "internalType": "address",
          "name": "_token",
          "type": "address"
        },
        {
          "internalType": "uint256",
          "name": "_amount",
          "type": "uint256"
        },
        {
          "internalType": "bytes",
          "name": "_data",
          "type": "bytes"
        }
      ],
      "name": "flashLoan",
      "outputs": [
        {
          "internalType": "bool",
          "name": "",
          "type": "bool"
        }
      ],
      "stateMutability": "nonpayable",
      "type": "function"
    },
    {
      "inputs": [],
      "name": "getLatestPrice",
      "outputs": [
        {
          "internalType": "uint256",
          "name": "",
          "type": "uint256"
        }
      ],
      "stateMutability": "nonpayable",
      "type": "function"
    },
    {
      "inputs": [],
      "name": "getTotalCovered",
      "outputs": [
        {
          "internalType": "uint256",
          "name": "covered",
          "type": "uint256"
        }
      ],
      "stateMutability": "view",
      "type": "function"
    },
    {
      "inputs": [],
      "name": "incidentReport",
      "outputs": [
        {
          "internalType": "address",
          "name": "",
          "type": "address"
        }
      ],
      "stateMutability": "view",
      "type": "function"
    },
    {
      "inputs": [
        {
          "internalType": "address",
          "name": "spender",
          "type": "address"
        },
        {
          "internalType": "uint256",
          "name": "addedValue",
          "type": "uint256"
        }
      ],
      "name": "increaseAllowance",
      "outputs": [
        {
          "internalType": "bool",
          "name": "",
          "type": "bool"
        }
      ],
      "stateMutability": "nonpayable",
      "type": "function"
    },
    {
      "inputs": [],
      "name": "lastRewardTimestamp",
      "outputs": [
        {
          "internalType": "uint256",
          "name": "",
          "type": "uint256"
        }
      ],
      "stateMutability": "view",
      "type": "function"
    },
    {
      "inputs": [
        {
          "internalType": "address",
          "name": "_token",
          "type": "address"
        }
      ],
      "name": "maxFlashLoan",
      "outputs": [
        {
          "internalType": "uint256",
          "name": "",
          "type": "uint256"
        }
      ],
      "stateMutability": "view",
      "type": "function"
    },
    {
      "inputs": [],
      "name": "name",
      "outputs": [
        {
          "internalType": "string",
          "name": "",
          "type": "string"
        }
      ],
      "stateMutability": "view",
      "type": "function"
    },
    {
      "inputs": [],
      "name": "owner",
      "outputs": [
        {
          "internalType": "address",
          "name": "",
          "type": "address"
        }
      ],
      "stateMutability": "view",
      "type": "function"
    },
    {
      "inputs": [
        {
          "internalType": "bool",
          "name": "_paused",
          "type": "bool"
        }
      ],
      "name": "pauseProtectionPool",
      "outputs": [],
      "stateMutability": "nonpayable",
      "type": "function"
    },
    {
      "inputs": [],
      "name": "paused",
      "outputs": [
        {
          "internalType": "bool",
          "name": "",
          "type": "bool"
        }
      ],
      "stateMutability": "view",
      "type": "function"
    },
    {
      "inputs": [],
      "name": "policyCenter",
      "outputs": [
        {
          "internalType": "address",
          "name": "",
          "type": "address"
        }
      ],
      "stateMutability": "view",
      "type": "function"
    },
    {
      "inputs": [],
      "name": "premiumRewardPool",
      "outputs": [
        {
          "internalType": "address",
          "name": "",
          "type": "address"
        }
      ],
      "stateMutability": "view",
      "type": "function"
    },
    {
      "inputs": [],
      "name": "price",
      "outputs": [
        {
          "internalType": "uint256",
          "name": "",
          "type": "uint256"
        }
      ],
      "stateMutability": "view",
      "type": "function"
    },
    {
      "inputs": [],
      "name": "priorityPoolFactory",
      "outputs": [
        {
          "internalType": "address",
          "name": "",
          "type": "address"
        }
      ],
      "stateMutability": "view",
      "type": "function"
    },
    {
      "inputs": [
        {
          "internalType": "uint256",
          "name": "_amount",
          "type": "uint256"
        },
        {
          "internalType": "address",
          "name": "_provider",
          "type": "address"
        }
      ],
      "name": "providedLiquidity",
      "outputs": [],
      "stateMutability": "nonpayable",
      "type": "function"
    },
    {
      "inputs": [
        {
          "internalType": "uint256",
          "name": "_amount",
          "type": "uint256"
        },
        {
          "internalType": "address",
          "name": "_provider",
          "type": "address"
        }
      ],
      "name": "removedLiquidity",
      "outputs": [
        {
          "internalType": "uint256",
          "name": "shieldToTransfer",
          "type": "uint256"
        }
      ],
      "stateMutability": "nonpayable",
      "type": "function"
    },
    {
      "inputs": [
        {
          "internalType": "uint256",
          "name": "_amount",
          "type": "uint256"
        },
        {
          "internalType": "address",
          "name": "_to",
          "type": "address"
        }
      ],
      "name": "removedLiquidityWhenClaimed",
      "outputs": [],
      "stateMutability": "nonpayable",
      "type": "function"
    },
    {
      "inputs": [],
      "name": "renounceOwnership",
      "outputs": [],
      "stateMutability": "nonpayable",
      "type": "function"
    },
    {
      "inputs": [
        {
          "internalType": "uint256",
          "name": "",
          "type": "uint256"
        },
        {
          "internalType": "uint256",
          "name": "",
          "type": "uint256"
        }
      ],
      "name": "rewardSpeed",
      "outputs": [
        {
          "internalType": "uint256",
          "name": "",
          "type": "uint256"
        }
      ],
      "stateMutability": "view",
      "type": "function"
    },
    {
      "inputs": [
        {
          "internalType": "address",
          "name": "_incidentReport",
          "type": "address"
        }
      ],
      "name": "setIncidentReport",
      "outputs": [],
      "stateMutability": "nonpayable",
      "type": "function"
    },
    {
      "inputs": [
        {
          "internalType": "address",
          "name": "_policyCenter",
          "type": "address"
        }
      ],
      "name": "setPolicyCenter",
      "outputs": [],
      "stateMutability": "nonpayable",
      "type": "function"
    },
    {
      "inputs": [
        {
          "internalType": "address",
          "name": "_premiumRewardPool",
          "type": "address"
        }
      ],
      "name": "setPremiumRewardPool",
      "outputs": [],
      "stateMutability": "nonpayable",
      "type": "function"
    },
    {
      "inputs": [
        {
          "internalType": "address",
          "name": "_priorityPoolFactory",
          "type": "address"
        }
      ],
      "name": "setPriorityPoolFactory",
      "outputs": [],
      "stateMutability": "nonpayable",
      "type": "function"
    },
    {
      "inputs": [],
      "name": "shield",
      "outputs": [
        {
          "internalType": "contract IShield",
          "name": "",
          "type": "address"
        }
      ],
      "stateMutability": "view",
      "type": "function"
    },
    {
      "inputs": [],
      "name": "startTime",
      "outputs": [
        {
          "internalType": "uint256",
          "name": "",
          "type": "uint256"
        }
      ],
      "stateMutability": "view",
      "type": "function"
    },
    {
      "inputs": [],
      "name": "symbol",
      "outputs": [
        {
          "internalType": "string",
          "name": "",
          "type": "string"
        }
      ],
      "stateMutability": "view",
      "type": "function"
    },
    {
      "inputs": [],
      "name": "totalSupply",
      "outputs": [
        {
          "internalType": "uint256",
          "name": "",
          "type": "uint256"
        }
      ],
      "stateMutability": "view",
      "type": "function"
    },
    {
      "inputs": [
        {
          "internalType": "address",
          "name": "to",
          "type": "address"
        },
        {
          "internalType": "uint256",
          "name": "amount",
          "type": "uint256"
        }
      ],
      "name": "transfer",
      "outputs": [
        {
          "internalType": "bool",
          "name": "",
          "type": "bool"
        }
      ],
      "stateMutability": "nonpayable",
      "type": "function"
    },
    {
      "inputs": [
        {
          "internalType": "address",
          "name": "from",
          "type": "address"
        },
        {
          "internalType": "address",
          "name": "to",
          "type": "address"
        },
        {
          "internalType": "uint256",
          "name": "amount",
          "type": "uint256"
        }
      ],
      "name": "transferFrom",
      "outputs": [
        {
          "internalType": "bool",
          "name": "",
          "type": "bool"
        }
      ],
      "stateMutability": "nonpayable",
      "type": "function"
    },
    {
      "inputs": [
        {
          "internalType": "address",
          "name": "newOwner",
          "type": "address"
        }
      ],
      "name": "transferOwnership",
      "outputs": [],
      "stateMutability": "nonpayable",
      "type": "function"
    },
    {
      "inputs": [],
      "name": "updateIndexCut",
      "outputs": [],
      "stateMutability": "nonpayable",
      "type": "function"
    },
    {
      "inputs": [
        {
          "internalType": "uint256",
          "name": "_premium",
          "type": "uint256"
        },
        {
          "internalType": "uint256",
          "name": "_length",
          "type": "uint256"
        },
        {
          "internalType": "uint256",
          "name": "_timestampLength",
          "type": "uint256"
        }
      ],
      "name": "updateWhenBuy",
      "outputs": [],
      "stateMutability": "nonpayable",
      "type": "function"
    },
    {
      "inputs": [],
      "name": "veDeg",
      "outputs": [
        {
          "internalType": "contract IVeDEG",
          "name": "",
          "type": "address"
        }
      ],
      "stateMutability": "view",
      "type": "function"
    }
  ],
  "transactionHash": "0xa40a22445a29926db73f86363c730caf7bcccb6e3007b8922ebeae5e38bdf389",
  "args": [
    "0x4Efd5a9269a328b1bf8873dC6d9EB5fF321aba09",
    "0xF98f0dE58c9a78B8e42def3cc49f02C2B35b81C9",
    "0x2afE704De753dDD32DC39f41C5F9D5df4bFc71F0"
  ],
  "numDeployments": 1,
  "solcInputHash": "16d356017fcf7ccebd1e8c716a50ed04",
  "bytecode": "0x60e034620003f357601f19601f6001600160401b036200334e3881900383810185168601919083831187841017620002f757808792606094604052833981010312620003f357620000508462000418565b926020916200006f60406200006785890162000418565b970162000418565b936200007a620003f8565b600e81526d141c9bdd1958dd1a5bdb941bdbdb60921b858201526200009e620003f8565b916006835265050524f2d4c560d41b86840152815192848411620002f75760039384546001948582811c92168015620003e8575b8a831014620003d25781858493116200037c575b50899085831160011462000319576000926200030d575b505060001982871b1c191690841b1784555b8051948511620002f75760049687548481811c91168015620002ec575b82821014620002d7578381116200028c575b50809286116001146200022057508495509084929160009562000214575b50501b92600019911b1c19161790555b600554604051936001600160a01b03938492839190338382167f8be0079c531659141344cd1fd0a4f28419497f9722a3daafe3b4186f6b6457e060008ba36001600160a81b0319163360ff60a01b191617600555166080521660a0521660c05242600a55612f2090816200042e823960805181611738015260a05181610c68015260c05181818161048f0152818161070001528181610ac3015281816111ad01526121e80152f35b0151935038806200015c565b939295859081168860005285600020956000905b8983831062000271575050501062000256575b50505050811b0190556200016c565b01519060f884600019921b161c191690553880808062000247565b85870151895590970196948501948893509081019062000234565b88600052816000208480890160051c820192848a10620002cd575b0160051c019085905b828110620002c05750506200013e565b60008155018590620002b0565b92508192620002a7565b602289634e487b7160e01b6000525260246000fd5b90607f16906200012c565b634e487b7160e01b600052604160045260246000fd5b015190503880620000fd565b908987941691886000528b6000209260005b8d8282106200036557505084116200034c575b505050811b0184556200010f565b015160001983891b60f8161c191690553880806200033e565b8385015186558a979095019493840193016200032b565b90915086600052896000208580850160051c8201928c8610620003c8575b918891869594930160051c01915b828110620003b8575050620000e6565b60008155859450889101620003a8565b925081926200039a565b634e487b7160e01b600052602260045260246000fd5b91607f1691620000d2565b600080fd5b60408051919082016001600160401b03811183821017620002f757604052565b51906001600160a01b0382168203620003f35756fe608060408181526004918236101561001657600080fd5b600092833560e01c91826306fdde0314611a9e57508163095ea7b314611a745781630f89b77d14611a4b57816318160ddd14611a2c57816323b872dd146119625781632dd57bb014611921578163313ce5671461190557816339509351146118b557816344abf1a9146117675781634858b300146117235781635b2725ed146117075781635c975abb146116e05781635cffe9de146112db578163613255ab1461123c5781636f8a6e431461121357816370a08231146111dc57816370d39cff14611198578163715018a61461113857816378e97925146111195781638da5cb5b146110f05781638e15f473146110c957816395d89b4114610fc6578163a035b1fe14610fa7578163a457c2d714610eff578163a606a60714610ed6578163a8a2b43114610dee578163a9059cbb14610dbd578163ad35e1dc14610d7c578163b1fead0b14610d4b578163bf59705914610c97578163c3a593b314610c53578163c57981b514610c37578163ca6c6a4c14610a61578163d9d98ce414610a38578163da81afae1461068a578163dd5625c31461042c578163dd62ed3e146103e3578163e3356ccf146103a2578163e5249a1014610361578163e8adbf2f14610338578163eced552614610318578163f2fde38b1461024d57508063f8077fae1461022f5763fc51843c1461020957600080fd5b3461022b578160031936011261022b57602090610224611fae565b9051908152f35b5080fd5b503461022b578160031936011261022b57602090600b549051908152f35b90503461031457602036600319011261031457610268611bf4565b610270612e92565b6001600160a01b039081169182156102c2575060055492826001600160601b0360a01b8516176005555192167f8be0079c531659141344cd1fd0a4f28419497f9722a3daafe3b4186f6b6457e08484a3f35b608490602085519162461bcd60e51b8352820152602660248201527f4f776e61626c653a206e6577206f776e657220697320746865207a65726f206160448201526564647265737360d01b6064820152fd5b8280fd5b50503461022b578160031936011261022b576020905164e8d4a510008152f35b50503461022b578160031936011261022b5760075490516001600160a01b039091168152602090f35b50503461022b57602036600319011261022b5761037c611bf4565b610384612e92565b60018060a01b03166001600160601b0360a01b600954161760095551f35b50503461022b57602036600319011261022b576103bd611bf4565b6103c5612e92565b60018060a01b03166001600160601b0360a01b600854161760085551f35b50503461022b578060031936011261022b5780602092610401611bf4565b610409611c0f565b6001600160a01b0391821683526001865283832091168252845220549051908152f35b9050346103145782600319360112610314576006548251639e3079cb60e01b81526001600160a01b03918216929091602080848481885afa93841561068057879461064d575b508551916370a0823160e01b8352308484015260249582848881857f0000000000000000000000000000000000000000000000000000000000000000165afa938415610643578994610610575b50885b8681106104ce57898951f35b8989516315895f4760e31b8152828882015281818b81875afa801561060657859183916105df575b50168a51631341449360e21b815286818a81855afa9081156105d55783916105a8575b5087811161052d575b5050506001016104c2565b61053f9061053a8961215f565b6121a4565b90803b15610314578a83928d519485938492632440f3e960e01b84528d8401525af1801561059e57610574575b808b91610522565b67ffffffffffffffff811161058c578952600161056c565b634e487b7160e01b8b5260418752888bfd5b8a513d8d823e3d90fd5b90508681813d83116105ce575b6105bf8183611c25565b81010312610314575138610519565b503d6105b5565b8c513d85823e3d90fd5b6105fb91503d8085833e6105f38183611c25565b810190611f03565b5050509050386104f6565b8b513d84823e3d90fd5b9093508281813d831161063c575b6106288183611c25565b81010312610638575192386104bf565b8880fd5b503d61061e565b88513d8b823e3d90fd5b9080945081813d8311610679575b6106658183611c25565b8101031261067557519238610472565b8680fd5b503d61065b565b86513d89823e3d90fd5b9190503461031457806003193601126103145781356106a7611c0f565b60ff60055460a01c16610a02576007546001600160a01b0395908616331415806109a4575b610994576002548311610984576106e16122b5565b6106e96121c4565b64e8d4a510006106fb600c5485612191565b0494867f000000000000000000000000000000000000000000000000000000000000000016908551976370a0823160e01b895230828a01526020988981602481875afa90811561097a578591610949575b5061075e89610759611fae565b611c5d565b1161093a57841680156108ed578084528389528684205486811061089f579285858b9481857fddf252ad1be2c89b69c2b068fc378daa952ba7f163c4a11628f55a4df523b3ef888f988f8f869d6107fc9f938294528785520381872055816002540360025551908152a38a5163a9059cbb60e01b81526001600160a01b03909316908301908152602081019490945290958693849291839160400190565b03925af1908115610894575085927f0c54fc223ffd1a8f36652b5e83db4fff50f5ae151b11ceb56d5499b9f6e1fa18949261085e92610867575b50855192835260208301939093526001600160a01b0390921660408201529081906060820190565b0390a151908152f35b61088690893d8b1161088d575b61087e8183611c25565b810190611f96565b5038610836565b503d610874565b8551903d90823e3d90fd5b875162461bcd60e51b81528084018b9052602260248201527f45524332303a206275726e20616d6f756e7420657863656564732062616c616e604482015261636560f01b6064820152608490fd5b865162461bcd60e51b81528083018a9052602160248201527f45524332303a206275726e2066726f6d20746865207a65726f206164647265736044820152607360f81b6064820152608490fd5b50855163ed9d9d3360e01b8152fd5b90508981813d8311610973575b6109608183611c25565b8101031261096f57513861074c565b8480fd5b503d610956565b88513d87823e3d90fd5b5050505163d6e1271b60e01b8152fd5b5050505163acfbdf9160e01b8152fd5b50602460208760065416865192838092633a31bb7760e11b8252338b8301525afa9081156109f85782916109da575b50156106cc565b6109f2915060203d811161088d5761087e8183611c25565b386109d3565b85513d84823e3d90fd5b825162461bcd60e51b8152602081860152601060248201526f14185d5cd8589b194e881c185d5cd95960821b6044820152606490fd5b50503461022b578060031936011261022b57602090610224610a58611bf4565b60243590612e62565b83833461022b578060031936011261022b578235610a7d611c0f565b6006548351633a31bb7760e11b8152338782015260209392916001600160a01b03919085908290602490829086165afa908115610680578791610c1a575b5015610c0a577f0000000000000000000000000000000000000000000000000000000000000000169084516370a0823160e01b815230888201528481602481865afa908115610680578791610bdd575b508311610bcd57845163a9059cbb60e01b81526001600160a01b039091169681019687526020870183905294959394938391859182908990829060400103925af1918215610bc3577f9c125d89aedad0c6838010bd5646efbf0d93daa2dcc78e414b4daee16abb6c7d93610b9f93610ba5575b5050610b886121c4565b835133815260208101919091529081906040820190565b0390a151f35b81610bbb92903d1061088d5761087e8183611c25565b508580610b7e565b84513d87823e3d90fd5b8451633ced52eb60e11b81528790fd5b90508481813d8311610c03575b610bf48183611c25565b81010312610675575188610b0b565b503d610bea565b84516379b0b85160e01b81528790fd5b610c319150853d871161088d5761087e8183611c25565b88610abb565b50503461022b578160031936011261022b5760209051600a8152f35b50503461022b578160031936011261022b57517f00000000000000000000000000000000000000000000000000000000000000006001600160a01b03168152602090f35b9050346103145760603660031901126103145760075460243591906001600160a01b03163303610d3d57610cdf90610ccd6122b5565b610cd56121c4565b60443590356121a4565b610ce842612a40565b509185925b848410610cf957868651f35b8287526020600d81528688209082895252858720610d18838254611c5d565b9055600180910193600c8511610d30575b0192610ced565b9350809201918093610d29565b82516311bee39d60e31b8152fd5b9050346103145781600319360112610314576020928291358152600d84528181206024358252845220549051908152f35b50503461022b57602036600319011261022b57610d97611bf4565b610d9f612e92565b60018060a01b03166001600160601b0360a01b600654161760065551f35b50503461022b578060031936011261022b57602090610de7610ddd611bf4565b6024359033611c7f565b5160018152f35b9050346103145760203660031901126103145780359081151580830361096f57600554916001600160a01b038084163314159081610ec6575b81610eb7575b50610ea9575060ff60a01b1990911660a09190911b60ff60a01b161760055515610e7d577f62e78cea01bee320cd4e420270b5ea74000d11b0c9f74754ebdbfc544b05a25860208251338152a151f35b7f5db9ee0a495bf2e6ff9c91a7834c1ba4fdd244a5e8aa4e537bd38aeae4b073aa60208251338152a151f35b8451631b6a6b5b60e11b8152fd5b90506006541633141538610e2d565b8091506008541633141590610e27565b50503461022b578160031936011261022b5760095490516001600160a01b039091168152602090f35b90508234610fa45782600319360112610fa457610f1a611bf4565b918360243592338152600160205281812060018060a01b0386168252602052205490828210610f5357602085610de78585038733611ded565b608490602086519162461bcd60e51b8352820152602560248201527f45524332303a2064656372656173656420616c6c6f77616e63652062656c6f77604482015264207a65726f60d81b6064820152fd5b80fd5b50503461022b578160031936011261022b57602090600c549051908152f35b83833461022b578160031936011261022b57805191809380549160019083821c928285169485156110bf575b60209586861081146110ac578589529081156110885750600114611030575b61102c8787611022828c0383611c25565b5191829182611bc8565b0390f35b81529295507f8a35acfbc15ff81a39ae7d344fd709f28e8600b4aa8c65c6b64bfe7fe36bd19b5b828410611075575050508261102c9461102292820101948680611011565b8054868501880152928601928101611057565b60ff19168887015250505050151560051b83010192506110228261102c8680611011565b634e487b7160e01b845260228352602484fd5b93607f1693610ff2565b50503461022b578160031936011261022b576020906110e66121c4565b600c549051908152f35b50503461022b578160031936011261022b5760055490516001600160a01b039091168152602090f35b50503461022b578160031936011261022b57602090600a549051908152f35b50503461022b578160031936011261022b57611152612e92565b600580546001600160a01b0319811690915590519082906001600160a01b03167f8be0079c531659141344cd1fd0a4f28419497f9722a3daafe3b4186f6b6457e08284a3f35b50503461022b578160031936011261022b57517f00000000000000000000000000000000000000000000000000000000000000006001600160a01b03168152602090f35b50503461022b57602036600319011261022b5760209181906001600160a01b03611204611bf4565b16815280845220549051908152f35b50503461022b578160031936011261022b5760065490516001600160a01b039091168152602090f35b83833461022b57602092836003193601126103145761126d60106001600160a01b03611266611bf4565b1614612e28565b8151906370a0823160e01b82523090820152838160248160105afa9283156112d057809361129e575b505051908152f35b909192508382813d83116112c9575b6112b78183611c25565b81010312610fa4575051908380611296565b503d6112ad565b8251903d90823e3d90fd5b828434610fa4576080366003190112610fa4576001600160a01b0392803584811691908290036103145761130d611c0f565b604435916064359667ffffffffffffffff90818911610675573660238a011215610675578883013591821161067557366024838b0101116106755784156116af576113588585612e62565b9316958751916370a0823160e01b90818452308585015260209a8b856024818d5afa9485156116a557888b8b8f938f8b918a9b611664575b505163a9059cbb60e01b81526001600160a01b03909216908201908152602081019390935292918391908290899082906040015b03925af1801561165a5787848f94958f8f95976024918f9960c49761163d575b505198899788966323e30c8b60e01b885233908801528387015260448601528d606486015260a060848601528260a486015201848401378181018301889052601f01601f19168101030181868c5af180156115a35783906115f0575b7f439148f0bbc682ca079e46d6e2c2f0c1e3b820f1a291b069d8882abf8cf18dd99150036115ad576114728587611c5d565b8951906323b872dd60e01b8252888683015230602483015260448201528a81606481868d5af180156115a357611586575b508851908152308482015289816024818b5afa91821561157b579081869293611547575b50506114d39192611c5d565b1161150e57508451918252858201527f2640247c2a780a1283695dd939b212be6c2e62a7182ef366efa28aa696f23d4c843092a45160018152f35b855162461bcd60e51b815290810187905260136024820152724e6f7420656e6f75676820706179206261636b60681b6044820152606490fd5b915091508982813d8311611574575b6115608183611c25565b81010312610fa4575051836114d38b6114c7565b503d611556565b8951903d90823e3d90fd5b61159c908b3d8d1161088d5761087e8183611c25565b508a6114a3565b8a513d85823e3d90fd5b885162461bcd60e51b81528085018b9052601960248201527f49455243333135363a2043616c6c6261636b206661696c6564000000000000006044820152606490fd5b508a81813d8311611636575b6116068183611c25565b81010312610314577f439148f0bbc682ca079e46d6e2c2f0c1e3b820f1a291b069d8882abf8cf18dd99051611440565b503d6115fc565b611653908a3d8c1161088d5761087e8183611c25565b50386113e4565b8c513d87823e3d90fd5b969798999a50505050505081813d831161169e575b6116838183611c25565b8101031261096f5751939291908b888b8b898f6113c4611390565b503d611679565b8b513d86823e3d90fd5b875162461bcd60e51b8152602081850152600b60248201526a16995c9bc8185b5bdd5b9d60aa1b6044820152606490fd5b50503461022b578160031936011261022b5760209060ff60055460a01c1690519015158152f35b50503461022b578160031936011261022b576020905160108152f35b50503461022b578160031936011261022b57517f00000000000000000000000000000000000000000000000000000000000000006001600160a01b03168152602090f35b83833461022b578060031936011261022b57823592611784611c0f565b60075490946001600160a01b03929091831633036118a7576117a46122b5565b6117ac6121c4565b6117c16117b88361215f565b600c54906121a4565b92861690811561186457507fe198de8e85cdfd7f4510617c4cd12de7263b31eef6cb83924c620d8a080144a9939495610b9f9161180085600254611c5d565b60025580885287602052868820858154019055877fddf252ad1be2c89b69c2b068fc378daa952ba7f163c4a11628f55a4df523b3ef60208951888152a3855192835260208301939093526001600160a01b0390921660408201529081906060820190565b606490602086519162461bcd60e51b8352820152601f60248201527f45524332303a206d696e7420746f20746865207a65726f2061646472657373006044820152fd5b83516311bee39d60e31b8152fd5b50503461022b578060031936011261022b57610de76020926118fe6118d8611bf4565b338352600186528483206001600160a01b03821684528652918490205460243590611c5d565b9033611ded565b50503461022b578160031936011261022b576020905160128152f35b50503461022b57602036600319011261022b5761193c611bf4565b611944612e92565b60018060a01b03166001600160601b0360a01b600754161760075551f35b8391503461022b57606036600319011261022b5761197e611bf4565b611986611c0f565b91846044359460018060a01b0384168152600160205281812033825260205220549060001982036119c0575b602086610de7878787611c7f565b8482106119e957509183916119de60209695610de795033383611ded565b9193948193506119b2565b606490602087519162461bcd60e51b8352820152601d60248201527f45524332303a20696e73756666696369656e7420616c6c6f77616e63650000006044820152fd5b50503461022b578160031936011261022b576020906002549051908152f35b50503461022b578160031936011261022b5760085490516001600160a01b039091168152602090f35b50503461022b578060031936011261022b57602090610de7611a94611bf4565b6024359033611ded565b92915034611b8f5783600319360112611b8f57600354600181811c9186908281168015611b85575b6020958686108214611b725750848852908115611b505750600114611af7575b61102c8686611022828b0383611c25565b929550600383527fc2575a0e9e593c00f959f8c92f12db2869c3395a3b0502d05e2516446f71f85b5b828410611b3d575050508261102c94611022928201019438611ae6565b8054868501880152928601928101611b20565b60ff191687860152505050151560051b83010192506110228261102c38611ae6565b634e487b7160e01b845260229052602483fd5b93607f1693611ac6565b8380fd5b918091926000905b828210611bb3575011611bac575050565b6000910152565b91508060209183015181860152018291611b9b565b60409160208252611be88151809281602086015260208686019101611b93565b601f01601f1916010190565b600435906001600160a01b0382168203611c0a57565b600080fd5b602435906001600160a01b0382168203611c0a57565b90601f8019910116810190811067ffffffffffffffff821117611c4757604052565b634e487b7160e01b600052604160045260246000fd5b81198111611c69570190565b634e487b7160e01b600052601160045260246000fd5b6001600160a01b03908116918215611d9a5716918215611d4957600082815280602052604081205491808310611cf557604082827fddf252ad1be2c89b69c2b068fc378daa952ba7f163c4a11628f55a4df523b3ef958760209652828652038282205586815220818154019055604051908152a3565b60405162461bcd60e51b815260206004820152602660248201527f45524332303a207472616e7366657220616d6f756e7420657863656564732062604482015265616c616e636560d01b6064820152608490fd5b60405162461bcd60e51b815260206004820152602360248201527f45524332303a207472616e7366657220746f20746865207a65726f206164647260448201526265737360e81b6064820152608490fd5b60405162461bcd60e51b815260206004820152602560248201527f45524332303a207472616e736665722066726f6d20746865207a65726f206164604482015264647265737360d81b6064820152608490fd5b6001600160a01b03908116918215611e9e5716918215611e4e5760207f8c5be1e5ebec7d5bd14f71427d1e84f3dd0314c0f7b2291e5b200ac8c7c3b925918360005260018252604060002085600052825280604060002055604051908152a3565b60405162461bcd60e51b815260206004820152602260248201527f45524332303a20617070726f766520746f20746865207a65726f206164647265604482015261737360f01b6064820152608490fd5b60405162461bcd60e51b8152602060048201526024808201527f45524332303a20617070726f76652066726f6d20746865207a65726f206164646044820152637265737360e01b6064820152608490fd5b51906001600160a01b0382168203611c0a57565b9060a082820312611c0a57815167ffffffffffffffff90818111611c0a5783019082601f83011215611c0a578151908111611c475760405192611f50601f8301601f191660200185611c25565b81845260208284010111611c0a57611f6e9160208085019101611b93565b91611f7b60208301611eef565b91611f8860408201611eef565b916080606083015192015190565b90816020910312611c0a57518015158103611c0a5790565b60065460408051639e3079cb60e01b81526000939290919060049085906020906001600160a01b039081169082878681855afa968715612155578497612126575b50835b878110612003575050505050505050565b86516315895f4760e31b815286810182905260249086818381885afa9081156120fd57849187918991612107575b508a51634124974560e01b8152921689830181905292829081885afa9081156120fd5787916120e0575b5061206a575b50600101611ff2565b848791899c939c5192838092636835185f60e11b82525afa9081156120d65786916120a4575b5061209d90600192611c5d565b9990612061565b90508481813d83116120cf575b6120bb8183611c25565b810103126120cb57516001612090565b8580fd5b503d6120b1565b88513d88823e3d90fd5b6120f79150863d881161088d5761087e8183611c25565b3861205b565b89513d89823e3d90fd5b61211b91503d808b833e6105f38183611c25565b505050905038612031565b9096508281813d831161214e575b61213e8183611c25565b81010312611b8f57519538611fef565b503d612134565b86513d86823e3d90fd5b64e8d4a51000908060001904821181151516611c69570290565b62015180908060001904821181151516611c69570290565b8060001904821181151516611c69570290565b81156121ae570490565b634e487b7160e01b600052601260045260246000fd5b600254801561229e576040516370a0823160e01b81523060048201526020816024817f00000000000000000000000000000000000000000000000000000000000000006001600160a01b03165afa9081156122925760009161225f575b506122527f66cbca4f3c64fecf1dcb9ce094abcf7f68c3450a1d4e3a8e917dd621edb4ebe09261053a60209361215f565b80600c55604051908152a1565b906020823d821161228a575b8161227860209383611c25565b81010312610fa4575051612252612221565b3d915061226b565b6040513d6000823e3d90fd5b5064e8d4a51000600c55565b818110611c69570390565b6122de600b546122c481612a40565b939192909283946122d442612a40565b50949095856122aa565b9160009683156000146123815750505050917fcb94909754d27c309adf4167150f1f7aa04de40b6a0e6bb98b2ae80a2bf438f6939160209382600052600d85526040600020826000528552604060002054612341575b5050505b604051908152a1565b91612373916123546123799594426122aa565b91600052600d8652604060002090600052855260406000205490612191565b90611c5d565b388080612334565b9697969550600194509287929091908581016001198211875b6123d2575b5050505050505050509060207fcb94909754d27c309adf4167150f1f7aa04de40b6a0e6bb98b2ae80a2bf438f691612338565b80611c6957818610156127d4578515806127b1575b15612554576107b28710611c0a57617d4b600160ff1b0184128816611c69576124616124b26124ad6124a88a886124a18f61249b6064916124278661284e565b61244961249561248f60049d8e998a612455612450600c98896124498c6127d9565b05906128ac565b6128d7565b0590617d4a19016128ac565b8461244961248a612471896127f1565b6124848461247e8c6127d9565b0561293b565b90612825565b6129a0565b9861287d565b926127d9565b056129f0565b0590612825565b612809565b612179565b906201437019821161253f57610dd4196201437083011161253f57603b196201514483011161253f57508861251a8b9c9d612373839d6124f88b6201517f8798016122aa565b908d600052602090600d82526040918260002091600052526000205490612191565b9b5b0196600c8811612532575b0195989a999a61239a565b9701968896508690612527565b601190634e487b7160e01b6000525260246000fd5b8286148061278e575b1561262a576107b28710611c0a576125748761284e565b6124498a61258d6124506004948593600c9586916127d9565b05617d4a600160ff1b0181128b16612615578b9c9d6123738d6124f88e9f8f978f6124a8906124ad926124a1606461249b8d8f9e6125f961260f9f826125ed61248a8e6126099f6125ff9761247e6125e7612484936127f1565b936127d9565b0590617d4919016128ac565b9661287d565b906124498c6127d9565b426122aa565b9b61251c565b601183634e487b7160e01b6000525260246000fd5b60009a98999a888b148015612784575b801561277a575b8015612770575b8015612766575b801561275c575b8015612752575b156126fb5750601f5b87600052600d9060208281526040908d826000209060005281528160002054612698575b505050508780809a9b61251c565b9091929a9b7dc22e450672894ab6cd8efb11d33f5617839a5bc7dea00c22e450672894ab84118d16611c69576123738d9c948f948e96956126f4958f978998600052815282600020916000525260002054906201518002612191565b9a3861268a565b60028b1461270b5750601e612666565b60038816159081612745575b8115612738575b501561272f5760ff601d5b16612666565b60ff601c612729565b610190890615915061271e565b6064890615159150612717565b50600c8b1461265d565b50600a8b14612656565b5060088b1461264f565b5060078b14612648565b5060058b14612641565b5060038b1461263a565b50866000526020600d815260409081600020908b6000525260002054151561255d565b50866000526020600d815260409081600020908b600052526000205415156123e7565b61239f565b600e600160ff1b018112600116611c6957600d190190565b6002600160ff1b018112600116611c69576001190190565b62253d8c600160ff1b018112600116611c695762253d8b190190565b600082128015600160ff1b8401831216611c69576001600160ff1b038301821316611c69570390565b6112c0906000811280156001600160ff1b03839003841316611c6957600160ff1b829003831216611c69570190565b611324906000811280156001600160ff1b03839003841316611c6957600160ff1b829003831216611c69570190565b6000811280156001600160ff1b03839003841316611c6957600160ff1b829003831216611c69570190565b6105b560008083136001600160ff1b038490048311166001166129275760017fffe9924f8d0dd7b2e6f174df9576f9de01c091c8faeb2605f522de8852b47aa88412828512161661292757500290565b634e487b7160e01b81526011600452602490fd5b600060017f0aaaaaaaaaaaaaaaaaaaaaaaaaaaaaaaaaaaaaaaaaaaaaaaaaaaaaaaaaaaaaaa831182841316166129275760017ff555555555555555555555555555555555555555555555555555555555555556831282841216166129275750600c0290565b61016f60008083136001600160ff1b038490048311166001166129275760017fffa6b6c1eb12d573186a06f9b8d9a287530217b7747d8eff4d6d83d625aae6318412828512161661292757500290565b60008082136001600160ff1b03839004600311166001166129275760017fd55555555555555555555555555555555555555555555555555555555555555683128284121616612927575060030290565b6001600160ff1b039060009062010bd990620151809004828112818503811581851316612e1457600160ff1b938385039283821216612e005785908401129162010bd819908162253d8c93018313841516612dec57011316612dd8576226496501916001936004918585830484118287131616612dc557808512600760fd1b8612168616612dc55762023ab194858160021b05958787850482118489131616612d9f57877fffffc694f94337079d130ab45dff8e0f9ea161331bb1c93dea871de6fec83ce288128489121616612d9f578602828112818503600313811516612db25781870360031216612d9f5790846003612b3d93010590612825565b928184128484038813811516612d5357848603881216612d4057868401610fa08882860482118584131616612d6657887ffff7ced916872b020c49ba5e353f7ced916872b020c49ba5e353f7ced916872c83128584121616612d6657612baf9162164b0991020594826124a1876128d7565b828112818503601f13811516612d6657818703601f1216612d5357601f019680888504605011848a131616612d5357807ffe666666666666666666666666666666666666666666666666666666666666678912848a121616612d535761098f9788816050020590828287048b118684131616612d8c5784821299837ffff29be1739a4fb805dbcd5d6c7d1f7d6fd627208942391f124ee1c3f307026884128c1616612d795790605083612c6493020590612825565b98600b820597828703600213821516612d795782900360021216612d665781878604600c118589131616612d6657817ff55555555555555555555555555555555555555555555555555555555555555688128589121616612d6657612cd090600288600c029101612825565b966031600160ff1b0181128216612d66578190603019018095046064118486131616612d53577ffeb851eb851eb851eb851eb851eb851eb851eb851eb851eb851eb851eb851eb984128385121616612d40575050612d3a9291612d35916064026128ac565b6128ac565b91909192565b634e487b7160e01b825260119052602490fd5b634e487b7160e01b835260118252602483fd5b634e487b7160e01b845260118352602484fd5b634e487b7160e01b865260118552602486fd5b634e487b7160e01b855260118452602485fd5b634e487b7160e01b835260118552602483fd5b634e487b7160e01b845260118652602484fd5b634e487b7160e01b815260118352602490fd5b634e487b7160e01b83526011600452602483fd5b634e487b7160e01b87526011600452602487fd5b634e487b7160e01b86526011600452602486fd5b634e487b7160e01b85526011600452602485fd5b15612e2f57565b60405162461bcd60e51b815260206004820152600b60248201526a1bdb9b1e481cda1a595b1960aa1b6044820152606490fd5b612e77906001600160a01b0316601014612e28565b8060001904600a1181151516611c6957600a61271091020490565b6005546001600160a01b03163303612ea657565b606460405162461bcd60e51b815260206004820152602060248201527f4f776e61626c653a2063616c6c6572206973206e6f7420746865206f776e65726044820152fdfea2646970667358221220a8a0c6cd2ff53f848adbf0b386b27b66cf986d8d9e904116f27297f7ff9f3f0a64736f6c634300080f0033",
  "devdoc": {
    "author": "Eric Lee (ylikp.ust@gmail.com) & Primata (primata@375labs.org)",
    "kind": "dev",
    "methods": {
      "allowance(address,address)": {
        "details": "See {IERC20-allowance}."
      },
      "approve(address,uint256)": {
        "details": "See {IERC20-approve}. NOTE: If `amount` is the maximum `uint256`, the allowance is not updated on `transferFrom`. This is semantically equivalent to an infinite approval. Requirements: - `spender` cannot be the zero address."
      },
      "balanceOf(address)": {
        "details": "See {IERC20-balanceOf}."
      },
      "decimals()": {
        "details": "Returns the number of decimals used to get its user representation. For example, if `decimals` equals `2`, a balance of `505` tokens should be displayed to a user as `5.05` (`505 / 10 ** 2`). Tokens usually opt for a value of 18, imitating the relationship between Ether and Wei. This is the value {ERC20} uses, unless this function is overridden; NOTE: This information is only used for _display_ purposes: it in no way affects any of the arithmetic of the contract, including {IERC20-balanceOf} and {IERC20-transfer}."
      },
      "decreaseAllowance(address,uint256)": {
        "details": "Atomically decreases the allowance granted to `spender` by the caller. This is an alternative to {approve} that can be used as a mitigation for problems described in {IERC20-approve}. Emits an {Approval} event indicating the updated allowance. Requirements: - `spender` cannot be the zero address. - `spender` must have allowance for the caller of at least `subtractedValue`."
      },
      "getTotalCovered()": {
        "returns": {
          "covered": "Covered amount"
        }
      },
      "increaseAllowance(address,uint256)": {
        "details": "Atomically increases the allowance granted to `spender` by the caller. This is an alternative to {approve} that can be used as a mitigation for problems described in {IERC20-approve}. Emits an {Approval} event indicating the updated allowance. Requirements: - `spender` cannot be the zero address."
      },
      "name()": {
        "details": "Returns the name of the token."
      },
      "owner()": {
        "details": "Returns the address of the current owner."
      },
      "pauseProtectionPool(bool)": {
        "params": {
          "_paused": "True for pause, false for unpause"
        }
      },
      "paused()": {
        "details": "Returns true if the contract is paused, and false otherwise."
      },
      "providedLiquidity(uint256,address)": {
        "params": {
          "_amount": "Liquidity amount (shield)",
          "_provider": "Provider address"
        }
      },
      "removedLiquidity(uint256,address)": {
        "params": {
          "_amount": "Liquidity to remove (LP token amount)",
          "_provider": "Provider address"
        }
      },
      "removedLiquidityWhenClaimed(uint256,address)": {
        "params": {
          "_amount": "Amount of liquidity to remove",
          "_to": "Address to transfer the liquidity to"
        }
      },
      "renounceOwnership()": {
        "details": "Leaves the contract without owner. It will not be possible to call `onlyOwner` functions anymore. Can only be called by the current owner. NOTE: Renouncing ownership will leave the contract without an owner, thereby removing any functionality that is only available to the owner."
      },
      "symbol()": {
        "details": "Returns the symbol of the token, usually a shorter version of the name."
      },
      "totalSupply()": {
        "details": "See {IERC20-totalSupply}."
      },
      "transfer(address,uint256)": {
        "details": "See {IERC20-transfer}. Requirements: - `to` cannot be the zero address. - the caller must have a balance of at least `amount`."
      },
      "transferFrom(address,address,uint256)": {
        "details": "See {IERC20-transferFrom}. Emits an {Approval} event indicating the updated allowance. This is not required by the EIP. See the note at the beginning of {ERC20}. NOTE: Does not update the allowance if the current allowance is the maximum `uint256`. Requirements: - `from` and `to` cannot be the zero address. - `from` must have a balance of at least `amount`. - the caller must have allowance for ``from``'s tokens of at least `amount`."
      },
      "transferOwnership(address)": {
        "details": "Transfers ownership of the contract to a new account (`newOwner`). Can only be called by the current owner."
      },
      "updateWhenBuy(uint256,uint256,uint256)": {
        "params": {
          "_length": "Length in month",
          "_premium": "Premium of the cover to be distributed to Protection Pool",
          "_timestampLength": "Length in seconds"
        }
      }
    },
    "title": "Protection Pool",
    "version": 1
  },
  "userdoc": {
    "kind": "user",
    "methods": {
      "getLatestPrice()": {
        "notice": "Updates and retrieves latest price to provide liquidity to Protection Pool"
      },
      "getTotalCovered()": {
        "notice": "Get total active cover amount of all pools         Only calculate those \"already dynamic\" pools"
      },
      "pauseProtectionPool(bool)": {
        "notice": "Set paused state of the protection pool"
      },
      "providedLiquidity(uint256,address)": {
        "notice": "Finish providing liquidity         Only callable through policyCenter"
      },
      "removedLiquidity(uint256,address)": {
        "notice": "Finish removing liquidity         Only callable through policyCenter"
      },
      "removedLiquidityWhenClaimed(uint256,address)": {
        "notice": "Removes liquidity when a claim is made"
      },
      "updateIndexCut()": {
        "notice": "Update index cut when claim happened"
      },
      "updateWhenBuy(uint256,uint256,uint256)": {
        "notice": "Update when new cover is bought"
      }
    },
    "notice": "This is the protection pool contract for Degis Protocol Protection         Users can provide liquidity to protection pool and get PRO-LP token         If the priority pool is unable to fulfil the cover amount,         Protection Pool will be able to provide the remaining part",
    "version": 1
  },
  "storageLayout": {
    "storage": [
      {
        "astId": 8925,
        "contract": "src/pools/protectionPool/ProtectionPool.sol:ProtectionPool",
        "label": "_balances",
        "offset": 0,
        "slot": "0",
        "type": "t_mapping(t_address,t_uint256)"
      },
      {
        "astId": 8931,
        "contract": "src/pools/protectionPool/ProtectionPool.sol:ProtectionPool",
        "label": "_allowances",
        "offset": 0,
        "slot": "1",
        "type": "t_mapping(t_address,t_mapping(t_address,t_uint256))"
      },
      {
        "astId": 8933,
        "contract": "src/pools/protectionPool/ProtectionPool.sol:ProtectionPool",
        "label": "_totalSupply",
        "offset": 0,
        "slot": "2",
        "type": "t_uint256"
      },
      {
        "astId": 8935,
        "contract": "src/pools/protectionPool/ProtectionPool.sol:ProtectionPool",
        "label": "_name",
        "offset": 0,
        "slot": "3",
        "type": "t_string_storage"
      },
      {
        "astId": 8937,
        "contract": "src/pools/protectionPool/ProtectionPool.sol:ProtectionPool",
        "label": "_symbol",
        "offset": 0,
        "slot": "4",
        "type": "t_string_storage"
      },
      {
        "astId": 21926,
        "contract": "src/pools/protectionPool/ProtectionPool.sol:ProtectionPool",
        "label": "_owner",
        "offset": 0,
        "slot": "5",
        "type": "t_address"
      },
      {
        "astId": 22047,
        "contract": "src/pools/protectionPool/ProtectionPool.sol:ProtectionPool",
        "label": "_paused",
        "offset": 20,
        "slot": "5",
        "type": "t_bool"
      },
      {
        "astId": 20211,
        "contract": "src/pools/protectionPool/ProtectionPool.sol:ProtectionPool",
        "label": "priorityPoolFactory",
        "offset": 0,
        "slot": "6",
        "type": "t_address"
      },
      {
        "astId": 20213,
        "contract": "src/pools/protectionPool/ProtectionPool.sol:ProtectionPool",
        "label": "policyCenter",
        "offset": 0,
        "slot": "7",
        "type": "t_address"
      },
      {
        "astId": 20215,
        "contract": "src/pools/protectionPool/ProtectionPool.sol:ProtectionPool",
        "label": "incidentReport",
        "offset": 0,
        "slot": "8",
        "type": "t_address"
      },
      {
        "astId": 20217,
        "contract": "src/pools/protectionPool/ProtectionPool.sol:ProtectionPool",
        "label": "premiumRewardPool",
        "offset": 0,
        "slot": "9",
        "type": "t_address"
      },
      {
        "astId": 19408,
        "contract": "src/pools/protectionPool/ProtectionPool.sol:ProtectionPool",
        "label": "startTime",
        "offset": 0,
        "slot": "10",
        "type": "t_uint256"
      },
      {
        "astId": 19410,
        "contract": "src/pools/protectionPool/ProtectionPool.sol:ProtectionPool",
        "label": "lastRewardTimestamp",
        "offset": 0,
        "slot": "11",
        "type": "t_uint256"
      },
      {
        "astId": 19412,
        "contract": "src/pools/protectionPool/ProtectionPool.sol:ProtectionPool",
        "label": "price",
        "offset": 0,
        "slot": "12",
        "type": "t_uint256"
      },
      {
        "astId": 19418,
        "contract": "src/pools/protectionPool/ProtectionPool.sol:ProtectionPool",
        "label": "rewardSpeed",
        "offset": 0,
        "slot": "13",
        "type": "t_mapping(t_uint256,t_mapping(t_uint256,t_uint256))"
      }
    ],
    "types": {
      "t_address": {
        "encoding": "inplace",
        "label": "address",
        "numberOfBytes": "20"
      },
      "t_bool": {
        "encoding": "inplace",
        "label": "bool",
        "numberOfBytes": "1"
      },
      "t_mapping(t_address,t_mapping(t_address,t_uint256))": {
        "encoding": "mapping",
        "key": "t_address",
        "label": "mapping(address => mapping(address => uint256))",
        "numberOfBytes": "32",
        "value": "t_mapping(t_address,t_uint256)"
      },
      "t_mapping(t_address,t_uint256)": {
        "encoding": "mapping",
        "key": "t_address",
        "label": "mapping(address => uint256)",
        "numberOfBytes": "32",
        "value": "t_uint256"
      },
      "t_mapping(t_uint256,t_mapping(t_uint256,t_uint256))": {
        "encoding": "mapping",
        "key": "t_uint256",
        "label": "mapping(uint256 => mapping(uint256 => uint256))",
        "numberOfBytes": "32",
        "value": "t_mapping(t_uint256,t_uint256)"
      },
      "t_mapping(t_uint256,t_uint256)": {
        "encoding": "mapping",
        "key": "t_uint256",
        "label": "mapping(uint256 => uint256)",
        "numberOfBytes": "32",
        "value": "t_uint256"
      },
      "t_string_storage": {
        "encoding": "bytes",
        "label": "string",
        "numberOfBytes": "32"
      },
      "t_uint256": {
        "encoding": "inplace",
        "label": "uint256",
        "numberOfBytes": "32"
      }
    }
  }
}