{
  "address": "0x92c045b45567888FbA78a946eC67D23D18bF8271",
  "abi": [
    {
      "inputs": [
        {
          "internalType": "address",
          "name": "_deg",
          "type": "address"
        },
        {
          "internalType": "address",
          "name": "_veDeg",
          "type": "address"
        },
        {
          "internalType": "address",
          "name": "_shield",
          "type": "address"
        }
      ],
      "stateMutability": "nonpayable",
      "type": "constructor"
    },
    {
      "inputs": [],
      "name": "ProtectionPool__ExceededTotalSupply",
      "type": "error"
    },
    {
      "inputs": [],
      "name": "ProtectionPool__NotAllowedToPause",
      "type": "error"
    },
    {
      "inputs": [],
      "name": "ProtectionPool__NotEnoughBalance",
      "type": "error"
    },
    {
      "inputs": [],
      "name": "ProtectionPool__NotEnoughLiquidity",
      "type": "error"
    },
    {
      "inputs": [],
      "name": "ProtectionPool__OnlyPolicyCenter",
      "type": "error"
    },
    {
      "inputs": [],
      "name": "ProtectionPool__OnlyPriorityPool",
      "type": "error"
    },
    {
      "inputs": [],
      "name": "ProtectionPool__OnlyPriorityPoolOrPolicyCenter",
      "type": "error"
    },
    {
      "anonymous": false,
      "inputs": [
        {
          "indexed": true,
          "internalType": "address",
          "name": "owner",
          "type": "address"
        },
        {
          "indexed": true,
          "internalType": "address",
          "name": "spender",
          "type": "address"
        },
        {
          "indexed": false,
          "internalType": "uint256",
          "name": "value",
          "type": "uint256"
        }
      ],
      "name": "Approval",
      "type": "event"
    },
    {
      "anonymous": false,
      "inputs": [
        {
          "indexed": true,
          "internalType": "address",
          "name": "lender",
          "type": "address"
        },
        {
          "indexed": true,
          "internalType": "address",
          "name": "borrower",
          "type": "address"
        },
        {
          "indexed": true,
          "internalType": "address",
          "name": "stablecoin",
          "type": "address"
        },
        {
          "indexed": false,
          "internalType": "uint256",
          "name": "amount",
          "type": "uint256"
        },
        {
          "indexed": false,
          "internalType": "uint256",
          "name": "fee",
          "type": "uint256"
        }
      ],
      "name": "FlashLoanBorrowed",
      "type": "event"
    },
    {
      "anonymous": false,
      "inputs": [
        {
          "indexed": false,
          "internalType": "uint256",
          "name": "shieldAmount",
          "type": "uint256"
        },
        {
          "indexed": false,
          "internalType": "uint256",
          "name": "lpAmount",
          "type": "uint256"
        },
        {
          "indexed": false,
          "internalType": "address",
          "name": "sender",
          "type": "address"
        }
      ],
      "name": "LiquidityProvided",
      "type": "event"
    },
    {
      "anonymous": false,
      "inputs": [
        {
          "indexed": false,
          "internalType": "uint256",
          "name": "lpAmount",
          "type": "uint256"
        },
        {
          "indexed": false,
          "internalType": "uint256",
          "name": "shieldAmount",
          "type": "uint256"
        },
        {
          "indexed": false,
          "internalType": "address",
          "name": "sender",
          "type": "address"
        }
      ],
      "name": "LiquidityRemoved",
      "type": "event"
    },
    {
      "anonymous": false,
      "inputs": [
        {
          "indexed": false,
          "internalType": "address",
          "name": "pool",
          "type": "address"
        },
        {
          "indexed": false,
          "internalType": "uint256",
          "name": "amount",
          "type": "uint256"
        }
      ],
      "name": "LiquidityRemovedWhenClaimed",
      "type": "event"
    },
    {
      "anonymous": false,
      "inputs": [
        {
          "indexed": true,
          "internalType": "address",
          "name": "previousOwner",
          "type": "address"
        },
        {
          "indexed": true,
          "internalType": "address",
          "name": "newOwner",
          "type": "address"
        }
      ],
      "name": "OwnershipTransferred",
      "type": "event"
    },
    {
      "anonymous": false,
      "inputs": [
        {
          "indexed": false,
          "internalType": "uint256",
          "name": "price",
          "type": "uint256"
        }
      ],
      "name": "PriceUpdated",
      "type": "event"
    },
    {
      "anonymous": false,
      "inputs": [
        {
          "indexed": false,
          "internalType": "uint256",
          "name": "totalReward",
          "type": "uint256"
        }
      ],
      "name": "RewardUpdated",
      "type": "event"
    },
    {
      "anonymous": false,
      "inputs": [
        {
          "indexed": true,
          "internalType": "address",
          "name": "from",
          "type": "address"
        },
        {
          "indexed": true,
          "internalType": "address",
          "name": "to",
          "type": "address"
        },
        {
          "indexed": false,
          "internalType": "uint256",
          "name": "value",
          "type": "uint256"
        }
      ],
      "name": "Transfer",
      "type": "event"
    },
    {
      "inputs": [],
      "name": "FEE",
      "outputs": [
        {
          "internalType": "uint256",
          "name": "",
          "type": "uint256"
        }
      ],
      "stateMutability": "view",
      "type": "function"
    },
    {
      "inputs": [],
      "name": "SHIELD",
      "outputs": [
        {
          "internalType": "address",
          "name": "",
          "type": "address"
        }
      ],
      "stateMutability": "view",
      "type": "function"
    },
    {
      "inputs": [
        {
          "internalType": "address",
          "name": "owner",
          "type": "address"
        },
        {
          "internalType": "address",
          "name": "spender",
          "type": "address"
        }
      ],
      "name": "allowance",
      "outputs": [
        {
          "internalType": "uint256",
          "name": "",
          "type": "uint256"
        }
      ],
      "stateMutability": "view",
      "type": "function"
    },
    {
      "inputs": [
        {
          "internalType": "address",
          "name": "spender",
          "type": "address"
        },
        {
          "internalType": "uint256",
          "name": "amount",
          "type": "uint256"
        }
      ],
      "name": "approve",
      "outputs": [
        {
          "internalType": "bool",
          "name": "",
          "type": "bool"
        }
      ],
      "stateMutability": "nonpayable",
      "type": "function"
    },
    {
      "inputs": [
        {
          "internalType": "address",
          "name": "account",
          "type": "address"
        }
      ],
      "name": "balanceOf",
      "outputs": [
        {
          "internalType": "uint256",
          "name": "",
          "type": "uint256"
        }
      ],
      "stateMutability": "view",
      "type": "function"
    },
    {
      "inputs": [],
      "name": "decimals",
      "outputs": [
        {
          "internalType": "uint8",
          "name": "",
          "type": "uint8"
        }
      ],
      "stateMutability": "pure",
      "type": "function"
    },
    {
      "inputs": [
        {
          "internalType": "address",
          "name": "spender",
          "type": "address"
        },
        {
          "internalType": "uint256",
          "name": "subtractedValue",
          "type": "uint256"
        }
      ],
      "name": "decreaseAllowance",
      "outputs": [
        {
          "internalType": "bool",
          "name": "",
          "type": "bool"
        }
      ],
      "stateMutability": "nonpayable",
      "type": "function"
    },
    {
      "inputs": [
        {
          "internalType": "address",
          "name": "_token",
          "type": "address"
        },
        {
          "internalType": "uint256",
          "name": "_amount",
          "type": "uint256"
        }
      ],
      "name": "flashFee",
      "outputs": [
        {
          "internalType": "uint256",
          "name": "",
          "type": "uint256"
        }
      ],
      "stateMutability": "pure",
      "type": "function"
    },
    {
      "inputs": [
        {
          "internalType": "contract IERC3156FlashBorrower",
          "name": "_receiver",
          "type": "address"
        },
        {
          "internalType": "address",
          "name": "_token",
          "type": "address"
        },
        {
          "internalType": "uint256",
          "name": "_amount",
          "type": "uint256"
        },
        {
          "internalType": "bytes",
          "name": "_data",
          "type": "bytes"
        }
      ],
      "name": "flashLoan",
      "outputs": [
        {
          "internalType": "bool",
          "name": "",
          "type": "bool"
        }
      ],
      "stateMutability": "nonpayable",
      "type": "function"
    },
    {
      "inputs": [],
      "name": "getLatestPrice",
      "outputs": [
        {
          "internalType": "uint256",
          "name": "",
          "type": "uint256"
        }
      ],
      "stateMutability": "nonpayable",
      "type": "function"
    },
    {
      "inputs": [],
      "name": "getTotalCovered",
      "outputs": [
        {
          "internalType": "uint256",
          "name": "covered",
          "type": "uint256"
        }
      ],
      "stateMutability": "view",
      "type": "function"
    },
    {
      "inputs": [],
      "name": "incidentReport",
      "outputs": [
        {
          "internalType": "address",
          "name": "",
          "type": "address"
        }
      ],
      "stateMutability": "view",
      "type": "function"
    },
    {
      "inputs": [
        {
          "internalType": "address",
          "name": "spender",
          "type": "address"
        },
        {
          "internalType": "uint256",
          "name": "addedValue",
          "type": "uint256"
        }
      ],
      "name": "increaseAllowance",
      "outputs": [
        {
          "internalType": "bool",
          "name": "",
          "type": "bool"
        }
      ],
      "stateMutability": "nonpayable",
      "type": "function"
    },
    {
      "inputs": [],
      "name": "lastRewardTimestamp",
      "outputs": [
        {
          "internalType": "uint256",
          "name": "",
          "type": "uint256"
        }
      ],
      "stateMutability": "view",
      "type": "function"
    },
    {
      "inputs": [
        {
          "internalType": "address",
          "name": "_token",
          "type": "address"
        }
      ],
      "name": "maxFlashLoan",
      "outputs": [
        {
          "internalType": "uint256",
          "name": "",
          "type": "uint256"
        }
      ],
      "stateMutability": "view",
      "type": "function"
    },
    {
      "inputs": [],
      "name": "name",
      "outputs": [
        {
          "internalType": "string",
          "name": "",
          "type": "string"
        }
      ],
      "stateMutability": "view",
      "type": "function"
    },
    {
      "inputs": [],
      "name": "owner",
      "outputs": [
        {
          "internalType": "address",
          "name": "",
          "type": "address"
        }
      ],
      "stateMutability": "view",
      "type": "function"
    },
    {
      "inputs": [
        {
          "internalType": "bool",
          "name": "_paused",
          "type": "bool"
        }
      ],
      "name": "pauseProtectionPool",
      "outputs": [],
      "stateMutability": "nonpayable",
      "type": "function"
    },
    {
      "inputs": [],
      "name": "paused",
      "outputs": [
        {
          "internalType": "bool",
          "name": "",
          "type": "bool"
        }
      ],
      "stateMutability": "view",
      "type": "function"
    },
    {
      "inputs": [],
      "name": "policyCenter",
      "outputs": [
        {
          "internalType": "address",
          "name": "",
          "type": "address"
        }
      ],
      "stateMutability": "view",
      "type": "function"
    },
    {
      "inputs": [],
      "name": "price",
      "outputs": [
        {
          "internalType": "uint256",
          "name": "",
          "type": "uint256"
        }
      ],
      "stateMutability": "view",
      "type": "function"
    },
    {
      "inputs": [],
      "name": "priorityPoolFactory",
      "outputs": [
        {
          "internalType": "address",
          "name": "",
          "type": "address"
        }
      ],
      "stateMutability": "view",
      "type": "function"
    },
    {
      "inputs": [
        {
          "internalType": "uint256",
          "name": "_amount",
          "type": "uint256"
        },
        {
          "internalType": "address",
          "name": "_provider",
          "type": "address"
        }
      ],
      "name": "providedLiquidity",
      "outputs": [],
      "stateMutability": "nonpayable",
      "type": "function"
    },
    {
      "inputs": [
        {
          "internalType": "uint256",
          "name": "_amount",
          "type": "uint256"
        },
        {
          "internalType": "address",
          "name": "_provider",
          "type": "address"
        }
      ],
      "name": "removedLiquidity",
      "outputs": [
        {
          "internalType": "uint256",
          "name": "shieldToTransfer",
          "type": "uint256"
        }
      ],
      "stateMutability": "nonpayable",
      "type": "function"
    },
    {
      "inputs": [
        {
          "internalType": "uint256",
          "name": "_amount",
          "type": "uint256"
        },
        {
          "internalType": "address",
          "name": "_to",
          "type": "address"
        }
      ],
      "name": "removedLiquidityWhenClaimed",
      "outputs": [],
      "stateMutability": "nonpayable",
      "type": "function"
    },
    {
      "inputs": [],
      "name": "renounceOwnership",
      "outputs": [],
      "stateMutability": "nonpayable",
      "type": "function"
    },
    {
      "inputs": [
        {
          "internalType": "uint256",
          "name": "",
          "type": "uint256"
        },
        {
          "internalType": "uint256",
          "name": "",
          "type": "uint256"
        }
      ],
      "name": "rewardSpeed",
      "outputs": [
        {
          "internalType": "uint256",
          "name": "",
          "type": "uint256"
        }
      ],
      "stateMutability": "view",
      "type": "function"
    },
    {
      "inputs": [
        {
          "internalType": "address",
          "name": "_incidentReport",
          "type": "address"
        }
      ],
      "name": "setIncidentReport",
      "outputs": [],
      "stateMutability": "nonpayable",
      "type": "function"
    },
    {
      "inputs": [
        {
          "internalType": "address",
          "name": "_policyCenter",
          "type": "address"
        }
      ],
      "name": "setPolicyCenter",
      "outputs": [],
      "stateMutability": "nonpayable",
      "type": "function"
    },
    {
      "inputs": [
        {
          "internalType": "address",
          "name": "_priorityPoolFactory",
          "type": "address"
        }
      ],
      "name": "setPriorityPoolFactory",
      "outputs": [],
      "stateMutability": "nonpayable",
      "type": "function"
    },
    {
      "inputs": [],
      "name": "startTime",
      "outputs": [
        {
          "internalType": "uint256",
          "name": "",
          "type": "uint256"
        }
      ],
      "stateMutability": "view",
      "type": "function"
    },
    {
      "inputs": [],
      "name": "symbol",
      "outputs": [
        {
          "internalType": "string",
          "name": "",
          "type": "string"
        }
      ],
      "stateMutability": "view",
      "type": "function"
    },
    {
      "inputs": [],
      "name": "totalSupply",
      "outputs": [
        {
          "internalType": "uint256",
          "name": "",
          "type": "uint256"
        }
      ],
      "stateMutability": "view",
      "type": "function"
    },
    {
      "inputs": [
        {
          "internalType": "address",
          "name": "to",
          "type": "address"
        },
        {
          "internalType": "uint256",
          "name": "amount",
          "type": "uint256"
        }
      ],
      "name": "transfer",
      "outputs": [
        {
          "internalType": "bool",
          "name": "",
          "type": "bool"
        }
      ],
      "stateMutability": "nonpayable",
      "type": "function"
    },
    {
      "inputs": [
        {
          "internalType": "address",
          "name": "from",
          "type": "address"
        },
        {
          "internalType": "address",
          "name": "to",
          "type": "address"
        },
        {
          "internalType": "uint256",
          "name": "amount",
          "type": "uint256"
        }
      ],
      "name": "transferFrom",
      "outputs": [
        {
          "internalType": "bool",
          "name": "",
          "type": "bool"
        }
      ],
      "stateMutability": "nonpayable",
      "type": "function"
    },
    {
      "inputs": [
        {
          "internalType": "address",
          "name": "newOwner",
          "type": "address"
        }
      ],
      "name": "transferOwnership",
      "outputs": [],
      "stateMutability": "nonpayable",
      "type": "function"
    },
    {
      "inputs": [],
      "name": "updateIndexCut",
      "outputs": [],
      "stateMutability": "nonpayable",
      "type": "function"
    },
    {
      "inputs": [
        {
          "internalType": "uint256",
          "name": "_premium",
          "type": "uint256"
        },
        {
          "internalType": "uint256",
          "name": "_length",
          "type": "uint256"
        },
        {
          "internalType": "uint256",
          "name": "_timestampLength",
          "type": "uint256"
        }
      ],
      "name": "updateWhenBuy",
      "outputs": [],
      "stateMutability": "nonpayable",
      "type": "function"
    }
  ],
  "transactionHash": "0xf51d6ca2a0b2703d8b5c72013858e34dce0fd979733069d11c281986ef14022d",
  "args": [
    "0x02acc516ac3Bf3c8E07E2fDF42A4A4F8Dd045EDD",
    "0xE2803140adDc261822DCEb1B28Cca568297197b8",
    "0x5CCC562D1b4ED7c75dFd22B63fe3ab8b8F2001dD"
  ],
  "numDeployments": 6,
  "solcInputHash": "a72266a9511da4ed10aaff2bef53d9af",
  "bytecode": "0x60e034620003b357601f601f196001600160401b036200311c3881900384810184168601919083831187841017620002b757808792606094604052833981010312620003b3576200005084620003d8565b916020916200006f604062000067858901620003d8565b9701620003d8565b946200007a620003b8565b600e81526d141c9bdd1958dd1a5bdb941bdbdb60921b858201526200009e620003b8565b916006835265050524f2d4c560d41b86840152815192848411620002b75760039384546001948582811c92168015620003a8575b8a831014620003925781858493116200033c575b508990858311600114620002d957600092620002cd575b505060001982871b1c191690841b1784555b8051948511620002b75760049687548481811c91168015620002ac575b8282101462000297578381116200024c575b5080928611600114620001e0575084955090849291600095620001d4575b50501b92600019911b1c19161790555b600580546001600160a01b031916331790556001600160a01b0390811660805291821660a0521660c05242600955604051612d2e9081620003ee823960805181505060a05181505060c0518181816103f60152818161066701528181610a230152611fe00152f35b0151935038806200015c565b939295859081168860005285600020956000905b8983831062000231575050501062000216575b50505050811b0190556200016c565b01519060f884600019921b161c191690553880808062000207565b858701518955909701969485019488935090810190620001f4565b88600052816000208480890160051c820192848a106200028d575b0160051c019085905b828110620002805750506200013e565b6000815501859062000270565b9250819262000267565b602289634e487b7160e01b6000525260246000fd5b90607f16906200012c565b634e487b7160e01b600052604160045260246000fd5b015190503880620000fd565b908987941691886000528b6000209260005b8d8282106200032557505084116200030c575b505050811b0184556200010f565b015160001983891b60f8161c19169055388080620002fe565b8385015186558a97909501949384019301620002eb565b90915086600052896000208580850160051c8201928c861062000388575b918891869594930160051c01915b82811062000378575050620000e6565b6000815585945088910162000368565b925081926200035a565b634e487b7160e01b600052602260045260246000fd5b91607f1691620000d2565b600080fd5b60408051919082016001600160401b03811183821017620002b757604052565b51906001600160a01b0382168203620003b35756fe608060408181526004918236101561001657600080fd5b600092833560e01c91826306fdde031461189157508163095ea7b3146118675781630f89b77d1461183e57816318160ddd1461181f57816323b872dd146117555781632dd57bb01461170c578163313ce567146116f057816339509351146116a057816344abf1a9146115645781635b2725ed146115485781635c975abb146115215781635cffe9de14611120578163613255ab146110815781636f8a6e431461105857816370a0823114611021578163715018a614610fbf57816378e9792514610fa05781638da5cb5b14610f775781638e15f47314610f5057816395d89b4114610e6a578163a035b1fe14610e4b578163a457c2d714610da3578163a8a2b43114610d12578163a9059cbb14610ce1578163ad35e1dc14610c98578163b1fead0b14610c67578163bf59705914610bb3578163c57981b514610b97578163ca6c6a4c146109c1578163d9d98ce414610998578163da81afae146105f1578163dd5625c314610393578163dd62ed3e1461034a578163e3356ccf14610301578163e8adbf2f146102d8578163f2fde38b1461020b57508063f8077fae146101ed5763fc51843c146101c757600080fd5b346101e957816003193601126101e9576020906101e2611d6d565b9051908152f35b5080fd5b50346101e957816003193601126101e957602090600a549051908152f35b9050346102d45760203660031901126102d4576102266119c5565b6005546001600160a01b03808216949192610242338714611f1e565b169283156102835750829051937f8be0079c531659141344cd1fd0a4f28419497f9722a3daafe3b4186f6b6457e08686a36001600160a01b03191617600555f35b6020608492519162461bcd60e51b8352820152602660248201527f4f776e61626c653a206e6577206f776e657220697320746865207a65726f206160448201526564647265737360d01b6064820152fd5b8280fd5b5050346101e957816003193601126101e95760075490516001600160a01b039091168152602090f35b5050346101e95760203660031901126101e95761031c6119c5565b6005546001600160a01b0391906103369083163314611f1e565b1660018060a01b0319600854161760085551f35b5050346101e957806003193601126101e957806020926103686119c5565b6103706119e0565b6001600160a01b0391821683526001865283832091168252845220549051908152f35b9050346102d457826003193601126102d4576006548251639e3079cb60e01b81526001600160a01b03918216929091602080848481885afa9384156105e75787946105b4575b508551916370a0823160e01b8352308484015260249582848881857f0000000000000000000000000000000000000000000000000000000000000000165afa9384156105aa578994610577575b50885b86811061043557898951f35b8989516315895f4760e31b8152828882015281818b81875afa801561056d5785918391610546575b50168a51631341449360e21b815286818a81855afa90811561053c57839161050f575b50878111610494575b505050600101610429565b6104a6906104a189611f57565b611f9c565b90803b156102d4578a83928d519485938492632440f3e960e01b84528d8401525af18015610505576104db575b808b91610489565b67ffffffffffffffff81116104f357895260016104d3565b634e487b7160e01b8b5260418752888bfd5b8a513d8d823e3d90fd5b90508681813d8311610535575b61052681836119f6565b810103126102d4575138610480565b503d61051c565b8c513d85823e3d90fd5b61056291503d8085833e61055a81836119f6565b810190611cc2565b50505090503861045d565b8b513d84823e3d90fd5b9093508281813d83116105a3575b61058f81836119f6565b8101031261059f57519238610426565b8880fd5b503d610585565b88513d8b823e3d90fd5b9080945081813d83116105e0575b6105cc81836119f6565b810103126105dc575192386103d9565b8680fd5b503d6105c2565b86513d89823e3d90fd5b919050346102d457806003193601126102d457813561060e6119e0565b60ff60055460a01c1661096c576007546001600160a01b03959086163314158061090e575b6108fe5760025483116108ee576106486120ad565b610650611fbc565b64e8d4a51000610662600b5485611f89565b0494867f000000000000000000000000000000000000000000000000000000000000000016908551976370a0823160e01b895230828a01526020988981602481875afa9081156108e45785916108b3575b506106c5896106c0611d6d565b611a2e565b116108a4578060075416331460001461089e57845b1680156108515780845283895286842054868110610803579285858b948185600080516020612cd9833981519152888f988f8f869d6107609f938294528785520381872055816002540360025551908152a38a5163a9059cbb60e01b81526001600160a01b03909316908301908152602081019490945290958693849291839160400190565b03925af19081156107f8575085927f0c54fc223ffd1a8f36652b5e83db4fff50f5ae151b11ceb56d5499b9f6e1fa1894926107c2926107cb575b50855192835260208301939093526001600160a01b0390921660408201529081906060820190565b0390a151908152f35b6107ea90893d8b116107f1575b6107e281836119f6565b810190611d55565b503861079a565b503d6107d8565b8551903d90823e3d90fd5b875162461bcd60e51b81528084018b9052602260248201527f45524332303a206275726e20616d6f756e7420657863656564732062616c616e604482015261636560f01b6064820152608490fd5b865162461bcd60e51b81528083018a9052602160248201527f45524332303a206275726e2066726f6d20746865207a65726f206164647265736044820152607360f81b6064820152608490fd5b336106da565b50855163ed9d9d3360e01b8152fd5b90508981813d83116108dd575b6108ca81836119f6565b810103126108d95751386106b3565b8480fd5b503d6108c0565b88513d87823e3d90fd5b5050505163d6e1271b60e01b8152fd5b5050505163acfbdf9160e01b8152fd5b50602460208760065416865192838092633a31bb7760e11b8252338b8301525afa908115610962578291610944575b5015610633565b61095c915060203d81116107f1576107e281836119f6565b3861093d565b85513d84823e3d90fd5b825162461bcd60e51b8152602081860152600660248201526514185d5cd95960d21b6044820152606490fd5b5050346101e957806003193601126101e9576020906101e26109b86119c5565b60243590612ca8565b8383346101e957806003193601126101e95782356109dd6119e0565b6006548351633a31bb7760e11b8152338782015260209392916001600160a01b03919085908290602490829086165afa9081156105e7578791610b7a575b5015610b6a577f0000000000000000000000000000000000000000000000000000000000000000169084516370a0823160e01b815230888201528481602481865afa9081156105e7578791610b3d575b508311610b2d57845163a9059cbb60e01b81526001600160a01b039091169681019687526020870183905294959394938391859182908990829060400103925af1918215610b23577f9c125d89aedad0c6838010bd5646efbf0d93daa2dcc78e414b4daee16abb6c7d93610aff93610b05575b5050610ae8611fbc565b835133815260208101919091529081906040820190565b0390a151f35b81610b1b92903d106107f1576107e281836119f6565b508580610ade565b84513d87823e3d90fd5b8451633ced52eb60e11b81528790fd5b90508481813d8311610b63575b610b5481836119f6565b810103126105dc575188610a6b565b503d610b4a565b84516379b0b85160e01b81528790fd5b610b919150853d87116107f1576107e281836119f6565b88610a1b565b5050346101e957816003193601126101e95760209051600a8152f35b9050346102d45760603660031901126102d45760075460243591906001600160a01b03163303610c5957610bfb90610be96120ad565b610bf1611fbc565b6044359035611f9c565b610c0442612886565b509185925b848410610c1557868651f35b828752600c93602085815287892090838a5252868820610c36848254611a2e565b90556001809201948511610c4c575b0192610c09565b9350809201918093610c45565b82516311bee39d60e31b8152fd5b9050346102d457816003193601126102d4576020928291358152600c84528181206024358252845220549051908152f35b5050346101e95760203660031901126101e957610cb36119c5565b6005546001600160a01b039190610ccd9083163314611f1e565b1660018060a01b0319600654161760065551f35b5050346101e957806003193601126101e957602090610d0b610d016119c5565b6024359033611a50565b5160018152f35b9050346102d45760203660031901126102d4578035801515809103610d9f57600554916001600160a01b038084163314159081610d8f575b81610d80575b50610d72575060ff60a01b1990911660a09190911b60ff60a01b161760055551f35b8351631b6a6b5b60e11b8152fd5b90506006541633141538610d50565b8091506008541633141590610d4a565b8380fd5b90508234610e485782600319360112610e4857610dbe6119c5565b918360243592338152600160205281812060018060a01b0386168252602052205490828210610df757602085610d0b8585038733611bac565b608490602086519162461bcd60e51b8352820152602560248201527f45524332303a2064656372656173656420616c6c6f77616e63652062656c6f77604482015264207a65726f60d81b6064820152fd5b80fd5b5050346101e957816003193601126101e957602090600b549051908152f35b8383346101e957816003193601126101e957805191809380549160019083821c92828516948515610f46575b6020958686108114610f3357858952908115610f0f5750600114610ed4575b610ed08787610ec6828c03836119f6565b5191829182611999565b0390f35b9080949750528583205b828410610efc5750505082610ed094610ec692820101948680610eb5565b8054868501880152928601928101610ede565b60ff19168887015250505050151560051b8301019250610ec682610ed08680610eb5565b634e487b7160e01b845260228352602484fd5b93607f1693610e96565b5050346101e957816003193601126101e957602090610f6d611fbc565b600b549051908152f35b5050346101e957816003193601126101e95760055490516001600160a01b039091168152602090f35b5050346101e957816003193601126101e9576020906009549051908152f35b5050346101e957816003193601126101e9576005546001600160a01b038116918390610fec338514611f1e565b51927f8be0079c531659141344cd1fd0a4f28419497f9722a3daafe3b4186f6b6457e08285a36001600160a01b031916600555f35b5050346101e95760203660031901126101e95760209181906001600160a01b036110496119c5565b16815280845220549051908152f35b5050346101e957816003193601126101e95760065490516001600160a01b039091168152602090f35b8383346101e957602092836003193601126102d4576110b260106001600160a01b036110ab6119c5565b1614612c6e565b8151906370a0823160e01b82523090820152838160248160105afa9283156111155780936110e3575b505051908152f35b909192508382813d831161110e575b6110fc81836119f6565b81010312610e485750519083806110db565b503d6110f2565b8251903d90823e3d90fd5b828434610e48576080366003190112610e48576001600160a01b0392803584811691908290036102d4576111526119e0565b604435916064359667ffffffffffffffff908189116105dc573660238a0112156105dc57888301359182116105dc57366024838b0101116105dc5784156114f05761119d8585612ca8565b9316958751916370a0823160e01b90818452308585015260209a8b856024818d5afa9485156114e657888b8b8f938f8b918a9b6114a5575b505163a9059cbb60e01b81526001600160a01b03909216908201908152602081019390935292918391908290899082906040015b03925af1801561149b5787848f94958f8f95976024918f9960c49761147e575b505198899788966323e30c8b60e01b885233908801528387015260448601528d606486015260a060848601528260a486015201848401378181018301889052601f01601f19168101030181868c5af180156113e8578390611431575b7f439148f0bbc682ca079e46d6e2c2f0c1e3b820f1a291b069d8882abf8cf18dd99150036113f2576112b78587611a2e565b8951906323b872dd60e01b8252888683015230602483015260448201528a81606481868d5af180156113e8576113cb575b508851908152308482015289816024818b5afa9182156113c057908186929361138c575b50506113189192611a2e565b1161135357508451918252858201527f2640247c2a780a1283695dd939b212be6c2e62a7182ef366efa28aa696f23d4c843092a45160018152f35b855162461bcd60e51b815290810187905260136024820152724e6f7420656e6f75676820706179206261636b60681b6044820152606490fd5b915091508982813d83116113b9575b6113a581836119f6565b81010312610e48575051836113188b61130c565b503d61139b565b8951903d90823e3d90fd5b6113e1908b3d8d116107f1576107e281836119f6565b508a6112e8565b8a513d85823e3d90fd5b885162461bcd60e51b81528085018b9052601960248201527812515490cccc4d4d8e8810d85b1b189858dac819985a5b1959603a1b6044820152606490fd5b508a81813d8311611477575b61144781836119f6565b810103126102d4577f439148f0bbc682ca079e46d6e2c2f0c1e3b820f1a291b069d8882abf8cf18dd99051611285565b503d61143d565b611494908a3d8c116107f1576107e281836119f6565b5038611229565b8c513d87823e3d90fd5b969798999a50505050505081813d83116114df575b6114c481836119f6565b810103126108d95751939291908b888b8b898f6112096111d5565b503d6114ba565b8b513d86823e3d90fd5b875162461bcd60e51b8152602081850152600b60248201526a16995c9bc8185b5bdd5b9d60aa1b6044820152606490fd5b5050346101e957816003193601126101e95760209060ff60055460a01c1690519015158152f35b5050346101e957816003193601126101e9576020905160108152f35b8383346101e957806003193601126101e9578235926115816119e0565b60075490946001600160a01b0392909183163303611692576115a16120ad565b6115a9611fbc565b6115be6115b583611f57565b600b5490611f9c565b92861690811561164f57507fe198de8e85cdfd7f4510617c4cd12de7263b31eef6cb83924c620d8a080144a9939495610aff916115fd85600254611a2e565b6002558088528760205286882085815401905587600080516020612cd983398151915260208951888152a3855192835260208301939093526001600160a01b0390921660408201529081906060820190565b606490602086519162461bcd60e51b8352820152601f60248201527f45524332303a206d696e7420746f20746865207a65726f2061646472657373006044820152fd5b83516311bee39d60e31b8152fd5b5050346101e957806003193601126101e957610d0b6020926116e96116c36119c5565b338352600186528483206001600160a01b03821684528652918490205460243590611a2e565b9033611bac565b5050346101e957816003193601126101e9576020905160068152f35b5050346101e95760203660031901126101e9576117276119c5565b6005546001600160a01b0391906117419083163314611f1e565b1660018060a01b0319600754161760075551f35b839150346101e95760603660031901126101e9576117716119c5565b6117796119e0565b91846044359460018060a01b0384168152600160205281812033825260205220549060001982036117b3575b602086610d0b878787611a50565b8482106117dc57509183916117d160209695610d0b95033383611bac565b9193948193506117a5565b606490602087519162461bcd60e51b8352820152601d60248201527f45524332303a20696e73756666696369656e7420616c6c6f77616e63650000006044820152fd5b5050346101e957816003193601126101e9576020906002549051908152f35b5050346101e957816003193601126101e95760085490516001600160a01b039091168152602090f35b5050346101e957806003193601126101e957602090610d0b6118876119c5565b6024359033611bac565b92915034610d9f5783600319360112610d9f57600354600181811c918690828116801561195a575b6020958686108214611947575084885290811561192557506001146118ea575b610ed08686610ec6828b03836119f6565b929550600383528583205b8284106119125750505082610ed094610ec69282010194386118d9565b80548685018801529286019281016118f5565b60ff191687860152505050151560051b8301019250610ec682610ed0386118d9565b634e487b7160e01b845260229052602483fd5b93607f16936118b9565b918091926000905b82821061198457501161197d575050565b6000910152565b9150806020918301518186015201829161196c565b604091602082526119b98151809281602086015260208686019101611964565b601f01601f1916010190565b600435906001600160a01b03821682036119db57565b600080fd5b602435906001600160a01b03821682036119db57565b90601f8019910116810190811067ffffffffffffffff821117611a1857604052565b634e487b7160e01b600052604160045260246000fd5b81198111611a3a570190565b634e487b7160e01b600052601160045260246000fd5b6001600160a01b03908116918215611b595716918215611b0857600082815280602052604081205491808310611ab45760408282600080516020612cd9833981519152958760209652828652038282205586815220818154019055604051908152a3565b60405162461bcd60e51b815260206004820152602660248201527f45524332303a207472616e7366657220616d6f756e7420657863656564732062604482015265616c616e636560d01b6064820152608490fd5b60405162461bcd60e51b815260206004820152602360248201527f45524332303a207472616e7366657220746f20746865207a65726f206164647260448201526265737360e81b6064820152608490fd5b60405162461bcd60e51b815260206004820152602560248201527f45524332303a207472616e736665722066726f6d20746865207a65726f206164604482015264647265737360d81b6064820152608490fd5b6001600160a01b03908116918215611c5d5716918215611c0d5760207f8c5be1e5ebec7d5bd14f71427d1e84f3dd0314c0f7b2291e5b200ac8c7c3b925918360005260018252604060002085600052825280604060002055604051908152a3565b60405162461bcd60e51b815260206004820152602260248201527f45524332303a20617070726f766520746f20746865207a65726f206164647265604482015261737360f01b6064820152608490fd5b60405162461bcd60e51b8152602060048201526024808201527f45524332303a20617070726f76652066726f6d20746865207a65726f206164646044820152637265737360e01b6064820152608490fd5b51906001600160a01b03821682036119db57565b9060a0828203126119db57815167ffffffffffffffff908181116119db5783019082601f830112156119db578151908111611a185760405192611d0f601f8301601f1916602001856119f6565b818452602082840101116119db57611d2d9160208085019101611964565b91611d3a60208301611cae565b91611d4760408201611cae565b916080606083015192015190565b908160209103126119db575180151581036119db5790565b60065460408051639e3079cb60e01b81526000939290919060049085906020906001600160a01b039081169082878681855afa968715611f14578497611ee5575b50835b878110611dc2575050505050505050565b86516315895f4760e31b815286810182905260249086818381885afa908115611ebc57849187918991611ec6575b508a51634124974560e01b8152921689830181905292829081885afa908115611ebc578791611e9f575b50611e29575b50600101611db1565b848791899c939c5192838092636835185f60e11b82525afa908115611e95578691611e63575b50611e5c90600192611a2e565b9990611e20565b90508481813d8311611e8e575b611e7a81836119f6565b81010312611e8a57516001611e4f565b8580fd5b503d611e70565b88513d88823e3d90fd5b611eb69150863d88116107f1576107e281836119f6565b38611e1a565b89513d89823e3d90fd5b611eda91503d808b833e61055a81836119f6565b505050905038611df0565b9096508281813d8311611f0d575b611efd81836119f6565b81010312610d9f57519538611dae565b503d611ef3565b86513d86823e3d90fd5b15611f2557565b60405162461bcd60e51b815260206004820152600a60248201526927b7363c9037bbb732b960b11b6044820152606490fd5b64e8d4a51000908060001904821181151516611a3a570290565b62015180908060001904821181151516611a3a570290565b8060001904821181151516611a3a570290565b8115611fa6570490565b634e487b7160e01b600052601260045260246000fd5b6002548015612096576040516370a0823160e01b81523060048201526020816024817f00000000000000000000000000000000000000000000000000000000000000006001600160a01b03165afa90811561208a57600091612057575b5061204a7f66cbca4f3c64fecf1dcb9ce094abcf7f68c3450a1d4e3a8e917dd621edb4ebe0926104a1602093611f57565b80600b55604051908152a1565b906020823d8211612082575b81612070602093836119f6565b81010312610e4857505161204a612019565b3d9150612063565b6040513d6000823e3d90fd5b5064e8d4a51000600b55565b818110611a3a570390565b600a8054906120d96120be83612886565b94919390939084916120cf42612886565b50959096866120a2565b92600097841560001461217d575050505050917fcb94909754d27c309adf4167150f1f7aa04de40b6a0e6bb98b2ae80a2bf438f6939160209382600052600c8552604060002082600052855260406000205461213d575b5050505b604051908152a1565b9161216f916121506121759594426120a2565b91600052600c8652604060002090600052855260406000205490611f89565b90611a2e565b388080612130565b929395509550928697969260011986119560018097818301915b6121d0575b505050505050505050509060207fcb94909754d27c309adf4167150f1f7aa04de40b6a0e6bb98b2ae80a2bf438f691612134565b80611a3a578187101561261a578615806125f7575b1561236b576107b288106119db57617d4b600160ff1b0186128916611a3a578961220e89612694565b89600480938193600c958691826122248561261f565b0561222e916126f2565b6122379061271d565b612248919005617d4a198e016126f2565b8161225284612637565b8161225c8661261f565b0561226690612781565b61226f9161266b565b612278906127e6565b05612282916126f2565b9361228c906126c3565b916122969061261f565b056122a0916126f2565b606490056122ad90612836565b056122b79161266b565b6122c09061264f565b6122c990611f71565b906201437019821161235657610dd4196201437083011161235657603b196201514483011161235657506123318c9d9e61216f8c8e9f958f966123128d6201517f8a99016120a2565b9260005260209182526040918260002091600052526000205490611f89565b9c5b0197600c8911612349575b0196999b9a9b612197565b980197899750879061233e565b601190634e487b7160e01b6000525260246000fd5b828714806125d4575b15612472576107b288106119db576123a461238e89612694565b8b6123b06123ab6004938493600c96879161261f565b05906126f2565b61271d565b05617d4a600160ff1b0181128c1661245d578c9d9e61216f8c8e9f958f9661231261245161244c6124478b9a61241e6124579b8861241261240d8a612407846124016123fb84612637565b9361261f565b05612781565b9061266b565b6127e6565b0590617d4919016126f2565b90612440606461243a6124308c6126c3565b8b6123a48c61261f565b05612836565b059061266b565b61264f565b611f71565b426120a2565b9c612333565b601182634e487b7160e01b6000525260246000fd5b60009b999a9b898c1480156125ca575b80156125c0575b80156125b6575b80156125ac575b80156125a3575b8015612599575b156125425750601f5b88600052600c908c60208381526040918260002090600052815281600020546124e0575b505050508880809b9c612333565b9091929b9c8d7dc22e450672894ab6cd8efb11d33f5617839a5bc7dea00c22e450672894ab851116611a3a5761216f8f948f9e948f968f95889761253b97600052815282600020916000525260002054906201518002611f89565b9b386124d2565b60028c146125525750601e6124ae565b6003891615908161258c575b811561257f575b50156125765760ff601d5b166124ae565b60ff601c612570565b6101908a06159150612565565b60648a061515915061255e565b50600c8c146124a5565b50848c1461249e565b5060088c14612497565b5060078c14612490565b5060058c14612489565b5060038c14612482565b50876000526020600c815260409081600020908c60005252600020541515612374565b50876000526020600c815260409081600020908c600052526000205415156121e5565b61219c565b600e600160ff1b018112600116611a3a57600d190190565b6002600160ff1b018112600116611a3a576001190190565b62253d8c600160ff1b018112600116611a3a5762253d8b190190565b600082128015600160ff1b8401831216611a3a576001600160ff1b038301821316611a3a570390565b6112c0906000811280156001600160ff1b03839003841316611a3a57600160ff1b829003831216611a3a570190565b611324906000811280156001600160ff1b03839003841316611a3a57600160ff1b829003831216611a3a570190565b6000811280156001600160ff1b03839003841316611a3a57600160ff1b829003831216611a3a570190565b6105b560008083136001600160ff1b0384900483111660011661276d5760017fffe9924f8d0dd7b2e6f174df9576f9de01c091c8faeb2605f522de8852b47aa88412828512161661276d57500290565b634e487b7160e01b81526011600452602490fd5b600060017f0aaaaaaaaaaaaaaaaaaaaaaaaaaaaaaaaaaaaaaaaaaaaaaaaaaaaaaaaaaaaaaa8311828413161661276d5760017ff5555555555555555555555555555555555555555555555555555555555555568312828412161661276d5750600c0290565b61016f60008083136001600160ff1b0384900483111660011661276d5760017fffa6b6c1eb12d573186a06f9b8d9a287530217b7747d8eff4d6d83d625aae6318412828512161661276d57500290565b60008082136001600160ff1b038390046003111660011661276d5760017fd5555555555555555555555555555555555555555555555555555555555555568312828412161661276d575060030290565b6001600160ff1b039060009062010bd990620151809004828112818503811581851316612c5a57600160ff1b938385039283821216612c465785908401129162010bd819908162253d8c93018313841516612c3257011316612c1e576226496501916001936004918585830484118287131616612c0b57808512600760fd1b8612168616612c0b5762023ab194858160021b05958787850482118489131616612be557877fffffc694f94337079d130ab45dff8e0f9ea161331bb1c93dea871de6fec83ce288128489121616612be5578602828112818503600313811516612bf85781870360031216612be557908460036129839301059061266b565b928184128484038813811516612b9957848603881216612b8657868401610fa08882860482118584131616612bac57887ffff7ced916872b020c49ba5e353f7ced916872b020c49ba5e353f7ced916872c83128584121616612bac576129f59162164b0991020594826124408761271d565b828112818503601f13811516612bac57818703601f1216612b9957601f019680888504605011848a131616612b9957807ffe666666666666666666666666666666666666666666666666666666666666678912848a121616612b995761098f9788816050020590828287048b118684131616612bd25784821299837ffff29be1739a4fb805dbcd5d6c7d1f7d6fd627208942391f124ee1c3f307026884128c1616612bbf5790605083612aaa9302059061266b565b98600b820597828703600213821516612bbf5782900360021216612bac5781878604600c118589131616612bac57817ff55555555555555555555555555555555555555555555555555555555555555688128589121616612bac57612b1690600288600c02910161266b565b966031600160ff1b0181128216612bac578190603019018095046064118486131616612b99577ffeb851eb851eb851eb851eb851eb851eb851eb851eb851eb851eb851eb851eb984128385121616612b86575050612b809291612b7b916064026126f2565b6126f2565b91909192565b634e487b7160e01b825260119052602490fd5b634e487b7160e01b835260118252602483fd5b634e487b7160e01b845260118352602484fd5b634e487b7160e01b865260118552602486fd5b634e487b7160e01b855260118452602485fd5b634e487b7160e01b835260118552602483fd5b634e487b7160e01b845260118652602484fd5b634e487b7160e01b815260118352602490fd5b634e487b7160e01b83526011600452602483fd5b634e487b7160e01b87526011600452602487fd5b634e487b7160e01b86526011600452602486fd5b634e487b7160e01b85526011600452602485fd5b15612c7557565b60405162461bcd60e51b815260206004820152600b60248201526a1bdb9b1e481cda1a595b1960aa1b6044820152606490fd5b612cbd906001600160a01b0316601014612c6e565b8060001904600a1181151516611a3a57600a6127109102049056feddf252ad1be2c89b69c2b068fc378daa952ba7f163c4a11628f55a4df523b3efa26469706673582212207d5b2b41ca97bb439e1a4fa9c22fd4a4cf3b74f3c0caf130dc6d2b3f579c2c7b64736f6c634300080f0033",
  "devdoc": {
    "author": "Eric Lee (ylikp.ust@gmail.com) & Primata (primata@375labs.org)",
    "kind": "dev",
    "methods": {
      "allowance(address,address)": {
        "details": "See {IERC20-allowance}."
      },
      "approve(address,uint256)": {
        "details": "See {IERC20-approve}. NOTE: If `amount` is the maximum `uint256`, the allowance is not updated on `transferFrom`. This is semantically equivalent to an infinite approval. Requirements: - `spender` cannot be the zero address."
      },
      "balanceOf(address)": {
        "details": "See {IERC20-balanceOf}."
      },
      "decimals()": {
        "details": "Returns the number of decimals used to get its user representation. For example, if `decimals` equals `2`, a balance of `505` tokens should be displayed to a user as `5.05` (`505 / 10 ** 2`). Tokens usually opt for a value of 18, imitating the relationship between Ether and Wei. This is the value {ERC20} uses, unless this function is overridden; NOTE: This information is only used for _display_ purposes: it in no way affects any of the arithmetic of the contract, including {IERC20-balanceOf} and {IERC20-transfer}."
      },
      "decreaseAllowance(address,uint256)": {
        "details": "Atomically decreases the allowance granted to `spender` by the caller. This is an alternative to {approve} that can be used as a mitigation for problems described in {IERC20-approve}. Emits an {Approval} event indicating the updated allowance. Requirements: - `spender` cannot be the zero address. - `spender` must have allowance for the caller of at least `subtractedValue`."
      },
      "getTotalCovered()": {
        "returns": {
          "covered": "Covered amount"
        }
      },
      "increaseAllowance(address,uint256)": {
        "details": "Atomically increases the allowance granted to `spender` by the caller. This is an alternative to {approve} that can be used as a mitigation for problems described in {IERC20-approve}. Emits an {Approval} event indicating the updated allowance. Requirements: - `spender` cannot be the zero address."
      },
      "name()": {
        "details": "Returns the name of the token."
      },
      "owner()": {
        "details": "Returns the address of the current owner."
      },
      "pauseProtectionPool(bool)": {
        "params": {
          "_paused": "True for pause, false for unpause"
        }
      },
      "providedLiquidity(uint256,address)": {
        "params": {
          "_amount": "Liquidity amount (shield)",
          "_provider": "Provider address"
        }
      },
      "removedLiquidity(uint256,address)": {
        "params": {
          "_amount": "Liquidity to remove (LP token amount)",
          "_provider": "Provider address"
        }
      },
      "removedLiquidityWhenClaimed(uint256,address)": {
        "params": {
          "_amount": "Amount of liquidity to remove",
          "_to": "Address to transfer the liquidity to"
        }
      },
      "renounceOwnership()": {
        "details": "Leaves the contract without owner. It will not be possible to call `onlyOwner` functions anymore. Can only be called by the current owner. NOTE: Renouncing ownership will leave the contract without an owner, thereby removing any functionality that is only available to the owner."
      },
      "symbol()": {
        "details": "Returns the symbol of the token, usually a shorter version of the name."
      },
      "totalSupply()": {
        "details": "See {IERC20-totalSupply}."
      },
      "transfer(address,uint256)": {
        "details": "See {IERC20-transfer}. Requirements: - `to` cannot be the zero address. - the caller must have a balance of at least `amount`."
      },
      "transferFrom(address,address,uint256)": {
        "details": "See {IERC20-transferFrom}. Emits an {Approval} event indicating the updated allowance. This is not required by the EIP. See the note at the beginning of {ERC20}. NOTE: Does not update the allowance if the current allowance is the maximum `uint256`. Requirements: - `from` and `to` cannot be the zero address. - `from` must have a balance of at least `amount`. - the caller must have allowance for ``from``'s tokens of at least `amount`."
      },
      "transferOwnership(address)": {
        "details": "Transfers ownership of the contract to a new account (`newOwner`). Can only be called by the current owner."
      },
      "updateWhenBuy(uint256,uint256,uint256)": {
        "params": {
          "_length": "Length in month",
          "_premium": "Premium of the cover to be distributed to Protection Pool",
          "_timestampLength": "Length in seconds"
        }
      }
    },
    "title": "Protection Pool",
    "version": 1
  },
  "userdoc": {
    "kind": "user",
    "methods": {
      "getLatestPrice()": {
        "notice": "Updates and retrieves latest price to provide liquidity to Protection Pool"
      },
      "getTotalCovered()": {
        "notice": "Get total active cover amount of all pools         Only calculate those \"already dynamic\" pools"
      },
      "pauseProtectionPool(bool)": {
        "notice": "Set paused state of the protection pool"
      },
      "providedLiquidity(uint256,address)": {
        "notice": "Finish providing liquidity         Only callable through policyCenter"
      },
      "removedLiquidity(uint256,address)": {
        "notice": "Finish removing liquidity         Only callable through policyCenter"
      },
      "removedLiquidityWhenClaimed(uint256,address)": {
        "notice": "Removes liquidity when a claim is made"
      },
      "updateIndexCut()": {
        "notice": "Update index cut when claim happened"
      },
      "updateWhenBuy(uint256,uint256,uint256)": {
        "notice": "Update when new cover is bought"
      }
    },
    "notice": "This is the protection pool contract for Degis Protocol Protection         Users can provide liquidity to protection pool and get PRO-LP token         If the priority pool is unable to fulfil the cover amount,         Protection Pool will be able to provide the remaining part",
    "version": 1
  },
  "storageLayout": {
    "storage": [
      {
        "astId": 8925,
        "contract": "src/pools/protectionPool/ProtectionPool.sol:ProtectionPool",
        "label": "_balances",
        "offset": 0,
        "slot": "0",
        "type": "t_mapping(t_address,t_uint256)"
      },
      {
        "astId": 8931,
        "contract": "src/pools/protectionPool/ProtectionPool.sol:ProtectionPool",
        "label": "_allowances",
        "offset": 0,
        "slot": "1",
        "type": "t_mapping(t_address,t_mapping(t_address,t_uint256))"
      },
      {
        "astId": 8933,
        "contract": "src/pools/protectionPool/ProtectionPool.sol:ProtectionPool",
        "label": "_totalSupply",
        "offset": 0,
        "slot": "2",
        "type": "t_uint256"
      },
      {
        "astId": 8935,
        "contract": "src/pools/protectionPool/ProtectionPool.sol:ProtectionPool",
        "label": "_name",
        "offset": 0,
        "slot": "3",
        "type": "t_string_storage"
      },
      {
        "astId": 8937,
        "contract": "src/pools/protectionPool/ProtectionPool.sol:ProtectionPool",
        "label": "_symbol",
        "offset": 0,
        "slot": "4",
        "type": "t_string_storage"
      },
      {
        "astId": 21429,
        "contract": "src/pools/protectionPool/ProtectionPool.sol:ProtectionPool",
        "label": "_owner",
        "offset": 0,
        "slot": "5",
        "type": "t_address"
      },
      {
        "astId": 21526,
        "contract": "src/pools/protectionPool/ProtectionPool.sol:ProtectionPool",
        "label": "_paused",
        "offset": 20,
        "slot": "5",
        "type": "t_bool"
      },
      {
        "astId": 19649,
        "contract": "src/pools/protectionPool/ProtectionPool.sol:ProtectionPool",
        "label": "priorityPoolFactory",
        "offset": 0,
        "slot": "6",
        "type": "t_address"
      },
      {
        "astId": 19651,
        "contract": "src/pools/protectionPool/ProtectionPool.sol:ProtectionPool",
        "label": "policyCenter",
        "offset": 0,
        "slot": "7",
        "type": "t_address"
      },
      {
        "astId": 19653,
        "contract": "src/pools/protectionPool/ProtectionPool.sol:ProtectionPool",
        "label": "incidentReport",
        "offset": 0,
        "slot": "8",
        "type": "t_address"
      },
      {
        "astId": 18788,
        "contract": "src/pools/protectionPool/ProtectionPool.sol:ProtectionPool",
        "label": "startTime",
        "offset": 0,
        "slot": "9",
        "type": "t_uint256"
      },
      {
        "astId": 18790,
        "contract": "src/pools/protectionPool/ProtectionPool.sol:ProtectionPool",
        "label": "lastRewardTimestamp",
        "offset": 0,
        "slot": "10",
        "type": "t_uint256"
      },
      {
        "astId": 18792,
        "contract": "src/pools/protectionPool/ProtectionPool.sol:ProtectionPool",
        "label": "price",
        "offset": 0,
        "slot": "11",
        "type": "t_uint256"
      },
      {
        "astId": 18798,
        "contract": "src/pools/protectionPool/ProtectionPool.sol:ProtectionPool",
        "label": "rewardSpeed",
        "offset": 0,
        "slot": "12",
        "type": "t_mapping(t_uint256,t_mapping(t_uint256,t_uint256))"
      }
    ],
    "types": {
      "t_address": {
        "encoding": "inplace",
        "label": "address",
        "numberOfBytes": "20"
      },
      "t_bool": {
        "encoding": "inplace",
        "label": "bool",
        "numberOfBytes": "1"
      },
      "t_mapping(t_address,t_mapping(t_address,t_uint256))": {
        "encoding": "mapping",
        "key": "t_address",
        "label": "mapping(address => mapping(address => uint256))",
        "numberOfBytes": "32",
        "value": "t_mapping(t_address,t_uint256)"
      },
      "t_mapping(t_address,t_uint256)": {
        "encoding": "mapping",
        "key": "t_address",
        "label": "mapping(address => uint256)",
        "numberOfBytes": "32",
        "value": "t_uint256"
      },
      "t_mapping(t_uint256,t_mapping(t_uint256,t_uint256))": {
        "encoding": "mapping",
        "key": "t_uint256",
        "label": "mapping(uint256 => mapping(uint256 => uint256))",
        "numberOfBytes": "32",
        "value": "t_mapping(t_uint256,t_uint256)"
      },
      "t_mapping(t_uint256,t_uint256)": {
        "encoding": "mapping",
        "key": "t_uint256",
        "label": "mapping(uint256 => uint256)",
        "numberOfBytes": "32",
        "value": "t_uint256"
      },
      "t_string_storage": {
        "encoding": "bytes",
        "label": "string",
        "numberOfBytes": "32"
      },
      "t_uint256": {
        "encoding": "inplace",
        "label": "uint256",
        "numberOfBytes": "32"
      }
    }
  }
}