{
  "address": "0xcF264604eb9b41dbc2c4d6AbA4baa160ee2035C0",
  "abi": [
    {
      "inputs": [],
      "name": "ProtectionPool__ExceededTotalSupply",
      "type": "error"
    },
    {
      "inputs": [],
      "name": "ProtectionPool__NotAllowedToPause",
      "type": "error"
    },
    {
      "inputs": [],
      "name": "ProtectionPool__NotEnoughBalance",
      "type": "error"
    },
    {
      "inputs": [],
      "name": "ProtectionPool__NotEnoughLiquidity",
      "type": "error"
    },
    {
      "inputs": [],
      "name": "ProtectionPool__OnlyPolicyCenter",
      "type": "error"
    },
    {
      "inputs": [],
      "name": "ProtectionPool__OnlyPriorityPool",
      "type": "error"
    },
    {
      "inputs": [],
      "name": "ProtectionPool__OnlyPriorityPoolOrPolicyCenter",
      "type": "error"
    },
    {
      "anonymous": false,
      "inputs": [
        {
          "indexed": true,
          "internalType": "address",
          "name": "owner",
          "type": "address"
        },
        {
          "indexed": true,
          "internalType": "address",
          "name": "spender",
          "type": "address"
        },
        {
          "indexed": false,
          "internalType": "uint256",
          "name": "value",
          "type": "uint256"
        }
      ],
      "name": "Approval",
      "type": "event"
    },
    {
      "anonymous": false,
      "inputs": [
        {
          "indexed": true,
          "internalType": "address",
          "name": "lender",
          "type": "address"
        },
        {
          "indexed": true,
          "internalType": "address",
          "name": "borrower",
          "type": "address"
        },
        {
          "indexed": true,
          "internalType": "address",
          "name": "stablecoin",
          "type": "address"
        },
        {
          "indexed": false,
          "internalType": "uint256",
          "name": "amount",
          "type": "uint256"
        },
        {
          "indexed": false,
          "internalType": "uint256",
          "name": "fee",
          "type": "uint256"
        }
      ],
      "name": "FlashLoanBorrowed",
      "type": "event"
    },
    {
      "anonymous": false,
      "inputs": [
        {
          "indexed": false,
          "internalType": "uint8",
          "name": "version",
          "type": "uint8"
        }
      ],
      "name": "Initialized",
      "type": "event"
    },
    {
      "anonymous": false,
      "inputs": [
        {
          "indexed": false,
          "internalType": "uint256",
          "name": "shieldAmount",
          "type": "uint256"
        },
        {
          "indexed": false,
          "internalType": "uint256",
          "name": "lpAmount",
          "type": "uint256"
        },
        {
          "indexed": false,
          "internalType": "address",
          "name": "sender",
          "type": "address"
        }
      ],
      "name": "LiquidityProvided",
      "type": "event"
    },
    {
      "anonymous": false,
      "inputs": [
        {
          "indexed": false,
          "internalType": "uint256",
          "name": "lpAmount",
          "type": "uint256"
        },
        {
          "indexed": false,
          "internalType": "uint256",
          "name": "shieldAmount",
          "type": "uint256"
        },
        {
          "indexed": false,
          "internalType": "address",
          "name": "sender",
          "type": "address"
        }
      ],
      "name": "LiquidityRemoved",
      "type": "event"
    },
    {
      "anonymous": false,
      "inputs": [
        {
          "indexed": false,
          "internalType": "address",
          "name": "pool",
          "type": "address"
        },
        {
          "indexed": false,
          "internalType": "uint256",
          "name": "amount",
          "type": "uint256"
        }
      ],
      "name": "LiquidityRemovedWhenClaimed",
      "type": "event"
    },
    {
      "anonymous": false,
      "inputs": [
        {
          "indexed": true,
          "internalType": "address",
          "name": "previousOwner",
          "type": "address"
        },
        {
          "indexed": true,
          "internalType": "address",
          "name": "newOwner",
          "type": "address"
        }
      ],
      "name": "OwnershipTransferred",
      "type": "event"
    },
    {
      "anonymous": false,
      "inputs": [
        {
          "indexed": false,
          "internalType": "uint256",
          "name": "price",
          "type": "uint256"
        }
      ],
      "name": "PriceUpdated",
      "type": "event"
    },
    {
      "anonymous": false,
      "inputs": [
        {
          "indexed": false,
          "internalType": "uint256",
          "name": "totalReward",
          "type": "uint256"
        }
      ],
      "name": "RewardUpdated",
      "type": "event"
    },
    {
      "anonymous": false,
      "inputs": [
        {
          "indexed": true,
          "internalType": "address",
          "name": "from",
          "type": "address"
        },
        {
          "indexed": true,
          "internalType": "address",
          "name": "to",
          "type": "address"
        },
        {
          "indexed": false,
          "internalType": "uint256",
          "name": "value",
          "type": "uint256"
        }
      ],
      "name": "Transfer",
      "type": "event"
    },
    {
      "inputs": [],
      "name": "FEE",
      "outputs": [
        {
          "internalType": "uint256",
          "name": "",
          "type": "uint256"
        }
      ],
      "stateMutability": "view",
      "type": "function"
    },
    {
      "inputs": [
        {
          "internalType": "address",
          "name": "owner",
          "type": "address"
        },
        {
          "internalType": "address",
          "name": "spender",
          "type": "address"
        }
      ],
      "name": "allowance",
      "outputs": [
        {
          "internalType": "uint256",
          "name": "",
          "type": "uint256"
        }
      ],
      "stateMutability": "view",
      "type": "function"
    },
    {
      "inputs": [
        {
          "internalType": "address",
          "name": "spender",
          "type": "address"
        },
        {
          "internalType": "uint256",
          "name": "amount",
          "type": "uint256"
        }
      ],
      "name": "approve",
      "outputs": [
        {
          "internalType": "bool",
          "name": "",
          "type": "bool"
        }
      ],
      "stateMutability": "nonpayable",
      "type": "function"
    },
    {
      "inputs": [
        {
          "internalType": "address",
          "name": "account",
          "type": "address"
        }
      ],
      "name": "balanceOf",
      "outputs": [
        {
          "internalType": "uint256",
          "name": "",
          "type": "uint256"
        }
      ],
      "stateMutability": "view",
      "type": "function"
    },
    {
      "inputs": [
        {
          "internalType": "uint256",
          "name": "_amountToRemove",
          "type": "uint256"
        }
      ],
      "name": "checkEnoughLiquidity",
      "outputs": [],
      "stateMutability": "view",
      "type": "function"
    },
    {
      "inputs": [],
      "name": "decimals",
      "outputs": [
        {
          "internalType": "uint8",
          "name": "",
          "type": "uint8"
        }
      ],
      "stateMutability": "pure",
      "type": "function"
    },
    {
      "inputs": [
        {
          "internalType": "address",
          "name": "spender",
          "type": "address"
        },
        {
          "internalType": "uint256",
          "name": "subtractedValue",
          "type": "uint256"
        }
      ],
      "name": "decreaseAllowance",
      "outputs": [
        {
          "internalType": "bool",
          "name": "",
          "type": "bool"
        }
      ],
      "stateMutability": "nonpayable",
      "type": "function"
    },
    {
      "inputs": [
        {
          "internalType": "address",
          "name": "_token",
          "type": "address"
        },
        {
          "internalType": "uint256",
          "name": "_amount",
          "type": "uint256"
        }
      ],
      "name": "flashFee",
      "outputs": [
        {
          "internalType": "uint256",
          "name": "",
          "type": "uint256"
        }
      ],
      "stateMutability": "view",
      "type": "function"
    },
    {
      "inputs": [
        {
          "internalType": "contract IERC3156FlashBorrower",
          "name": "_receiver",
          "type": "address"
        },
        {
          "internalType": "address",
          "name": "_token",
          "type": "address"
        },
        {
          "internalType": "uint256",
          "name": "_amount",
          "type": "uint256"
        },
        {
          "internalType": "bytes",
          "name": "_data",
          "type": "bytes"
        }
      ],
      "name": "flashLoan",
      "outputs": [
        {
          "internalType": "bool",
          "name": "",
          "type": "bool"
        }
      ],
      "stateMutability": "nonpayable",
      "type": "function"
    },
    {
      "inputs": [],
      "name": "getLatestPrice",
      "outputs": [
        {
          "internalType": "uint256",
          "name": "",
          "type": "uint256"
        }
      ],
      "stateMutability": "nonpayable",
      "type": "function"
    },
    {
      "inputs": [],
      "name": "getTotalActiveCovered",
      "outputs": [
        {
          "internalType": "uint256",
          "name": "activeCovered",
          "type": "uint256"
        }
      ],
      "stateMutability": "view",
      "type": "function"
    },
    {
      "inputs": [],
      "name": "getTotalCovered",
      "outputs": [
        {
          "internalType": "uint256",
          "name": "totalCovered",
          "type": "uint256"
        }
      ],
      "stateMutability": "view",
      "type": "function"
    },
    {
      "inputs": [],
      "name": "incidentReport",
      "outputs": [
        {
          "internalType": "address",
          "name": "",
          "type": "address"
        }
      ],
      "stateMutability": "view",
      "type": "function"
    },
    {
      "inputs": [
        {
          "internalType": "address",
          "name": "spender",
          "type": "address"
        },
        {
          "internalType": "uint256",
          "name": "addedValue",
          "type": "uint256"
        }
      ],
      "name": "increaseAllowance",
      "outputs": [
        {
          "internalType": "bool",
          "name": "",
          "type": "bool"
        }
      ],
      "stateMutability": "nonpayable",
      "type": "function"
    },
    {
      "inputs": [
        {
          "internalType": "address",
          "name": "_deg",
          "type": "address"
        },
        {
          "internalType": "address",
          "name": "_veDeg",
          "type": "address"
        },
        {
          "internalType": "address",
          "name": "_shield",
          "type": "address"
        }
      ],
      "name": "initialize",
      "outputs": [],
      "stateMutability": "nonpayable",
      "type": "function"
    },
    {
      "inputs": [],
      "name": "lastRewardTimestamp",
      "outputs": [
        {
          "internalType": "uint256",
          "name": "",
          "type": "uint256"
        }
      ],
      "stateMutability": "view",
      "type": "function"
    },
    {
      "inputs": [
        {
          "internalType": "address",
          "name": "_token",
          "type": "address"
        }
      ],
      "name": "maxFlashLoan",
      "outputs": [
        {
          "internalType": "uint256",
          "name": "",
          "type": "uint256"
        }
      ],
      "stateMutability": "view",
      "type": "function"
    },
    {
      "inputs": [],
      "name": "minAssetRequirement",
      "outputs": [
        {
          "internalType": "uint256",
          "name": "minRequirement",
          "type": "uint256"
        }
      ],
      "stateMutability": "view",
      "type": "function"
    },
    {
      "inputs": [],
      "name": "name",
      "outputs": [
        {
          "internalType": "string",
          "name": "",
          "type": "string"
        }
      ],
      "stateMutability": "view",
      "type": "function"
    },
    {
      "inputs": [],
      "name": "owner",
      "outputs": [
        {
          "internalType": "address",
          "name": "",
          "type": "address"
        }
      ],
      "stateMutability": "view",
      "type": "function"
    },
    {
      "inputs": [
        {
          "internalType": "bool",
          "name": "_paused",
          "type": "bool"
        }
      ],
      "name": "pauseProtectionPool",
      "outputs": [],
      "stateMutability": "nonpayable",
      "type": "function"
    },
    {
      "inputs": [],
      "name": "paused",
      "outputs": [
        {
          "internalType": "bool",
          "name": "",
          "type": "bool"
        }
      ],
      "stateMutability": "view",
      "type": "function"
    },
    {
      "inputs": [],
      "name": "policyCenter",
      "outputs": [
        {
          "internalType": "address",
          "name": "",
          "type": "address"
        }
      ],
      "stateMutability": "view",
      "type": "function"
    },
    {
      "inputs": [],
      "name": "price",
      "outputs": [
        {
          "internalType": "uint256",
          "name": "",
          "type": "uint256"
        }
      ],
      "stateMutability": "view",
      "type": "function"
    },
    {
      "inputs": [],
      "name": "priorityPoolFactory",
      "outputs": [
        {
          "internalType": "address",
          "name": "",
          "type": "address"
        }
      ],
      "stateMutability": "view",
      "type": "function"
    },
    {
      "inputs": [
        {
          "internalType": "uint256",
          "name": "_amount",
          "type": "uint256"
        },
        {
          "internalType": "address",
          "name": "_provider",
          "type": "address"
        }
      ],
      "name": "providedLiquidity",
      "outputs": [],
      "stateMutability": "nonpayable",
      "type": "function"
    },
    {
      "inputs": [
        {
          "internalType": "uint256",
          "name": "_amount",
          "type": "uint256"
        },
        {
          "internalType": "address",
          "name": "_provider",
          "type": "address"
        }
      ],
      "name": "removedLiquidity",
      "outputs": [
        {
          "internalType": "uint256",
          "name": "shieldToTransfer",
          "type": "uint256"
        }
      ],
      "stateMutability": "nonpayable",
      "type": "function"
    },
    {
      "inputs": [
        {
          "internalType": "uint256",
          "name": "_amount",
          "type": "uint256"
        },
        {
          "internalType": "address",
          "name": "_to",
          "type": "address"
        }
      ],
      "name": "removedLiquidityWhenClaimed",
      "outputs": [],
      "stateMutability": "nonpayable",
      "type": "function"
    },
    {
      "inputs": [],
      "name": "renounceOwnership",
      "outputs": [],
      "stateMutability": "nonpayable",
      "type": "function"
    },
    {
      "inputs": [
        {
          "internalType": "uint256",
          "name": "",
          "type": "uint256"
        },
        {
          "internalType": "uint256",
          "name": "",
          "type": "uint256"
        }
      ],
      "name": "rewardSpeed",
      "outputs": [
        {
          "internalType": "uint256",
          "name": "",
          "type": "uint256"
        }
      ],
      "stateMutability": "view",
      "type": "function"
    },
    {
      "inputs": [
        {
          "internalType": "address",
          "name": "_incidentReport",
          "type": "address"
        }
      ],
      "name": "setIncidentReport",
      "outputs": [],
      "stateMutability": "nonpayable",
      "type": "function"
    },
    {
      "inputs": [
        {
          "internalType": "address",
          "name": "_policyCenter",
          "type": "address"
        }
      ],
      "name": "setPolicyCenter",
      "outputs": [],
      "stateMutability": "nonpayable",
      "type": "function"
    },
    {
      "inputs": [
        {
          "internalType": "address",
          "name": "_priorityPoolFactory",
          "type": "address"
        }
      ],
      "name": "setPriorityPoolFactory",
      "outputs": [],
      "stateMutability": "nonpayable",
      "type": "function"
    },
    {
      "inputs": [],
      "name": "stakedSupply",
      "outputs": [
        {
          "internalType": "uint256",
          "name": "",
          "type": "uint256"
        }
      ],
      "stateMutability": "view",
      "type": "function"
    },
    {
      "inputs": [],
      "name": "startTime",
      "outputs": [
        {
          "internalType": "uint256",
          "name": "",
          "type": "uint256"
        }
      ],
      "stateMutability": "view",
      "type": "function"
    },
    {
      "inputs": [],
      "name": "symbol",
      "outputs": [
        {
          "internalType": "string",
          "name": "",
          "type": "string"
        }
      ],
      "stateMutability": "view",
      "type": "function"
    },
    {
      "inputs": [],
      "name": "token",
      "outputs": [
        {
          "internalType": "address",
          "name": "",
          "type": "address"
        }
      ],
      "stateMutability": "view",
      "type": "function"
    },
    {
      "inputs": [],
      "name": "totalSupply",
      "outputs": [
        {
          "internalType": "uint256",
          "name": "",
          "type": "uint256"
        }
      ],
      "stateMutability": "view",
      "type": "function"
    },
    {
      "inputs": [
        {
          "internalType": "address",
          "name": "to",
          "type": "address"
        },
        {
          "internalType": "uint256",
          "name": "amount",
          "type": "uint256"
        }
      ],
      "name": "transfer",
      "outputs": [
        {
          "internalType": "bool",
          "name": "",
          "type": "bool"
        }
      ],
      "stateMutability": "nonpayable",
      "type": "function"
    },
    {
      "inputs": [
        {
          "internalType": "address",
          "name": "from",
          "type": "address"
        },
        {
          "internalType": "address",
          "name": "to",
          "type": "address"
        },
        {
          "internalType": "uint256",
          "name": "amount",
          "type": "uint256"
        }
      ],
      "name": "transferFrom",
      "outputs": [
        {
          "internalType": "bool",
          "name": "",
          "type": "bool"
        }
      ],
      "stateMutability": "nonpayable",
      "type": "function"
    },
    {
      "inputs": [
        {
          "internalType": "address",
          "name": "newOwner",
          "type": "address"
        }
      ],
      "name": "transferOwnership",
      "outputs": [],
      "stateMutability": "nonpayable",
      "type": "function"
    },
    {
      "inputs": [],
      "name": "updateIndexCut",
      "outputs": [],
      "stateMutability": "nonpayable",
      "type": "function"
    },
    {
      "inputs": [
        {
          "internalType": "bool",
          "name": "_isStake",
          "type": "bool"
        },
        {
          "internalType": "uint256",
          "name": "_amount",
          "type": "uint256"
        }
      ],
      "name": "updateStakedSupply",
      "outputs": [],
      "stateMutability": "nonpayable",
      "type": "function"
    },
    {
      "inputs": [],
      "name": "updateWhenBuy",
      "outputs": [],
      "stateMutability": "nonpayable",
      "type": "function"
    }
  ],
  "transactionHash": "0xa4eaa18173ffe6610fb83c1a945f59b7cad6bc21e27aff5edb9118b7900cfaf9",
  "args": [],
  "numDeployments": 1,
  "solcInputHash": "51375066a20f58b2861396e3c77139c3",
  "bytecode": "0x608080604052346100165761294e908161001c8239f35b600080fdfe608080604052600436101561001357600080fd5b60003560e01c90816306fdde0314611f8457508063095ea7b314611f5e5780630dfa376d14611f0c5780630f89b77d14611ee357806318160ddd14611ec55780631d23a7ad14611d195780631e432b0014611cee57806323b872dd14611c305780632dd57bb014611be4578063313ce56714611bc85780633950935114611b7757806344abf1a914611a35578063484aaa9914611a195780634d05124c146119fe5780635c975abb146119db5780635cffe9de1461161b578063613255ab146115555780636f8a6e431461152c57806370a08231146114f2578063715018a61461148d57806378e979251461146f5780638da5cb5b146114465780638e15f4731461142057806395d89b4114611354578063a035b1fe14611336578063a457c2d71461128f578063a8a2b4311461120b578063a9059cbb146111da578063ad35e1dc1461118e578063b1fead0b14611154578063c0c53b8b14610c9a578063c57981b514610c7e578063ca6c6a4c14610acc578063d41ce4b114610aae578063d9d98ce414610a7f578063da81afae14610778578063dd5625c314610528578063dd62ed3e146104d7578063e3356ccf1461048b578063e8adbf2f14610462578063f2fde38b146103ca578063f8077fae146103ac578063fc0c546a146103835763fc51843c1461020357600080fd5b346103005760003660031901126103005760cd54604051639e3079cb60e01b81526020916000916001600160a01b0391821691908481600481865afa90811561030c57600091610356575b5060005b818110610263578585604051908152f35b60011981116103405760010193604051906315895f4760e31b8252856004830152600082602481885afa91821561030c5784928891600091610318575b50600460405180958193636835185f60e11b8352165afa90811561030c576000916102d6575b6102d09250612126565b93610252565b90508682813d8311610305575b6102ed8183612105565b81010312610300576102d09151906102c6565b600080fd5b503d6102e3565b6040513d6000823e3d90fd5b61033591503d806000833e61032d8183612105565b81019061240d565b5050509050386102a0565b634e487b7160e01b600052601160045260246000fd5b90508481813d831161037c575b61036d8183612105565b8101031261030057513861024e565b503d610363565b34610300576000366003190112610300576065546040516001600160a01b039091168152602090f35b3461030057600036600319011261030057602060d154604051908152f35b34610300576020366003190112610300576103e3612075565b6066546001600160a01b03906103fc90821633146124b7565b81161561040e5761040c90612870565b005b60405162461bcd60e51b815260206004820152602660248201527f4f776e61626c653a206e6577206f776e657220697320746865207a65726f206160448201526564647265737360d01b6064820152608490fd5b346103005760003660031901126103005760ce546040516001600160a01b039091168152602090f35b34610300576020366003190112610300576104a4612075565b6066546001600160a01b0391906104be90831633146124b7565b60cf8054919092166001600160a01b0319909116179055005b34610300576040366003190112610300576104f0612075565b6104f861208b565b9060018060a01b038091166000526034602052604060002091166000526020526020604060002054604051908152f35b346103005760003660031901126103005760cd54604051639e3079cb60e01b81526001600160a01b03918216916020918281600481875afa91821561030c578391600093610747575b5060cc546040516370a0823160e01b8152306004820152946024949186908690829086165afa94851561030c57600095610718575b5060005b8181106105b357005b6001198111610703576001016040516315895f4760e31b815281600482015260008187818b5afa801561030c5784916000916106e3575b5016604051631341449360e21b81528581600481855afa90811561030c576000916106b6575b50878111610620575b50506105aa565b61271088600019048111891515166106a1579061063e91890261250a565b813b15610300576000918783926040519485938492632440f3e960e01b845260048401525af1801561030c57610675575b80610619565b6001600160401b03811161068c576040528761066f565b85634e487b7160e01b60005260416004526000fd5b87634e487b7160e01b60005260116004526000fd5b90508581813d83116106dc575b6106cd8183612105565b81010312610300575189610610565b503d6106c3565b6106f891503d806000833e61032d8183612105565b5050509050896105ea565b84634e487b7160e01b60005260116004526000fd5b9094508281813d8311610740575b6107308183612105565b81010312610300575193866105a6565b503d610726565b8281939294503d8311610771575b61075f8183612105565b81010312610300578290519185610571565b503d610755565b346103005760403660031901126103005760043561079461208b565b9060ff60985416610a515760ce546001600160a01b0392908316331415806109fa575b6109e85760355482116109d6576107cc612747565b60d25482600019048111831515166103405764e8d4a5100090830204918360ce54163314806109c8575b156109c15783825b169384156109725784600052602094603386526040600020548381106109225790836000928284526033895203604083205561083c8460355461252a565b6035556000805160206128d983398151915287604051868152a360cc5460405163a9059cbb60e01b81526001600160a01b0385166004820152602481018690529291869184916044918391600091165af1801561030c577f0c54fc223ffd1a8f36652b5e83db4fff50f5ae151b11ceb56d5499b9f6e1fa189385936108ea926108f5575b506040805193845260208401949094526001600160a01b0316928201929092529081906060820190565b0390a1604051908152f35b61091490883d8a1161091b575b61090c8183612105565b81019061249f565b50876108c0565b503d610902565b60405162461bcd60e51b815260048101889052602260248201527f45524332303a206275726e20616d6f756e7420657863656564732062616c616e604482015261636560f01b6064820152608490fd5b60405162461bcd60e51b815260206004820152602160248201527f45524332303a206275726e2066726f6d20746865207a65726f206164647265736044820152607360f81b6064820152608490fd5b83336107fe565b6109d184612535565b6107f6565b60405163d6e1271b60e01b8152600490fd5b60405163acfbdf9160e01b8152600490fd5b50602460208460cd541660405192838092633a31bb7760e11b82523360048301525afa90811561030c57600091610a33575b50156107b7565b610a4b915060203d811161091b5761090c8183612105565b84610a2c565b60405162461bcd60e51b815260206004820152600660248201526514185d5cd95960d21b6044820152606490fd5b34610300576040366003190112610300576020610aa6610a9d612075565b6024359061280d565b604051908152f35b3461030057600036600319011261030057602060d354604051908152f35b3461030057604036600319011261030057600435610ae861208b565b60cd54604051633a31bb7760e11b8152336004820152919260209290916001600160a01b03919084908290602490829086165afa90811561030c57600091610c61575b5015610c4f5760cc54166040516370a0823160e01b81523060048201528381602481855afa90811561030c57600091610c22575b508211610c105760405163a9059cbb60e01b81526001600160a01b03949094166004850152602484018290528290849060449082906000905af191821561030c577f9c125d89aedad0c6838010bd5646efbf0d93daa2dcc78e414b4daee16abb6c7d93610bed93610bf2575b5050610bd5612747565b60408051338152602081019290925290918291820190565b0390a1005b81610c0892903d1061091b5761090c8183612105565b508380610bcb565b604051633ced52eb60e11b8152600490fd5b90508381813d8311610c48575b610c398183612105565b81010312610300575185610b5f565b503d610c2f565b6040516379b0b85160e01b8152600490fd5b610c789150843d861161091b5761090c8183612105565b85610b2b565b34610300576000366003190112610300576020604051600a8152f35b3461030057606036600319011261030057610cb3612075565b610cbb61208b565b604435906001600160a01b0382168203610300576000549160ff8360081c161592838094611147575b8015611130575b156110d45760ff198116600117600055836110c2575b50604051610d0e816120ea565b600e81526d141c9bdd1958dd1a5bdb941bdbdb60921b602082015260405190610d36826120ea565b6006825265050524f2d4c560d41b6020830152610d6360ff60005460081c16610d5e81612399565b612399565b8051906001600160401b038211610fce578190610d816036546120b0565b601f8111611067575b50602090601f8311600114610fef57600092610fe4575b50508160011b916000199060031b1c1916176036555b8051906001600160401b038211610fce578190610dd56037546120b0565b601f8111610f70575b50602090601f8311600114610efc57600092610ef1575b50508160011b916000199060031b1c1916176037555b60ff60005460081c1691610e1e83612399565b606580546001600160a01b03199081166001600160a01b0385161790915592610e4a90610d5e81612399565b610e5333612870565b60005494610e8260ff8760081c16610e6a81612399565b610e7381612399565b60ff1960985416609855612399565b60ca805485166001600160a01b0392831617905560cb805485169282169290921790915560cc805490931691161790554260d055610ebc57005b61ff0019166000557f7f26b83ff96e1f2b6a682f133852f6798a09c465da95921460cefb3847402498602060405160018152a1005b015190508680610df5565b603760009081526000805160206128f98339815191529350601f198516905b818110610f585750908460019594939210610f3f575b505050811b01603755610e0b565b015160001960f88460031b161c19169055868080610f31565b92936020600181928786015181550195019301610f1b565b60376000529091506000805160206128f9833981519152601f840160051c81019160208510610fc4575b90601f859493920160051c01905b818110610fb55750610dde565b60008155849350600101610fa8565b9091508190610f9a565b634e487b7160e01b600052604160045260246000fd5b015190508780610da1565b6036600090815293506000805160206128b983398151915291905b601f198416851061104c576001945083601f19811610611033575b505050811b01603655610db7565b015160001960f88460031b161c19169055878080611025565b8181015183556020948501946001909301929091019061100a565b60366000529091506000805160206128b9833981519152601f840160051c8101602085106110bb575b90849392915b601f830160051c820181106110ac575050610d8a565b60008155859450600101611096565b5080611090565b61ffff19166101011760005584610d01565b60405162461bcd60e51b815260206004820152602e60248201527f496e697469616c697a61626c653a20636f6e747261637420697320616c72656160448201526d191e481a5b9a5d1a585b1a5e995960921b6064820152608490fd5b50303b158015610ceb5750600160ff821614610ceb565b50600160ff821610610ce4565b346103005760403660031901126103005760043560005260d460205260406000206024356000526020526020604060002054604051908152f35b34610300576020366003190112610300576111a7612075565b6066546001600160a01b0391906111c190831633146124b7565b60cd8054919092166001600160a01b0319909116179055005b34610300576040366003190112610300576112006111f6612075565b6024359033612132565b602060405160018152f35b34610300576020366003190112610300576112246120a1565b606654336001600160a01b039182161415908161127f575b81611270575b5061125e5760ff80196098541691151516176098556000604051f35b604051631b6a6b5b60e11b8152600490fd5b905060cd541633141582611242565b80915060cf54163314159061123c565b34610300576040366003190112610300576112a8612075565b60243590336000526034602052604060002060018060a01b038216600052602052604060002054918083106112e35761120092039033612297565b60405162461bcd60e51b815260206004820152602560248201527f45524332303a2064656372656173656420616c6c6f77616e63652062656c6f77604482015264207a65726f60d81b6064820152608490fd5b3461030057600036600319011261030057602060d254604051908152f35b3461030057600036600319011261030057604051600090603754611377816120b0565b8083526001918083169081156113f857506001146113b0575b6113ac836113a081870382612105565b60405191829182612049565b0390f35b6037600090815260209450916000805160206128f98339815191525b8284106113e5575050508101909101906113a081611390565b80548585018701529285019281016113cc565b6113ac95506113a093506020915091849260ff191682840152151560051b8201019350611390565b3461030057600036600319011261030057611439612747565b602060d254604051908152f35b34610300576000366003190112610300576066546040516001600160a01b039091168152602090f35b3461030057600036600319011261030057602060d054604051908152f35b34610300576000366003190112610300576066546000906001600160a01b038116906114ba3383146124b7565b82604051927f8be0079c531659141344cd1fd0a4f28419497f9722a3daafe3b4186f6b6457e08285a36001600160a01b031916606655f35b34610300576020366003190112610300576001600160a01b03611513612075565b1660005260336020526020604060002054604051908152f35b346103005760003660031901126103005760cd546040516001600160a01b039091168152602090f35b34610300576020806003193601126103005761156f612075565b6065546001600160a01b0390811691168190036115e85781602491604051928380926370a0823160e01b82523060048301525afa90811561030c576000916115bb575b50604051908152f35b90508181813d83116115e1575b6115d28183612105565b810103126103005751826115b2565b503d6115c8565b60405162461bcd60e51b815260048101839052600b60248201526a1bdb9b1e481cda1a595b1960aa1b6044820152606490fd5b34610300576080366003190112610300576001600160a01b03600435818116908190036103005761164a61208b565b90604435606435926001600160401b039485851161030057366023860112156103005784600401359586116103005736602487870101116103005782156119a857611695838361280d565b911693604051906370a0823160e01b9081835230600484015260209788846024818b5afa93841561030c57600094611979575b5060405163a9059cbb60e01b81526001600160a01b03881660048201526024810187905291898360448160008d5af192831561030c57898b9360c49260249661195c575b508060405196879586946323e30c8b60e01b8652336004870152828601528c60448601528b606486015260a060848601528260a486015201848401376000838284010152601f8019910116810103018160008a5af1801561030c5760009061190f575b7f439148f0bbc682ca079e46d6e2c2f0c1e3b820f1a291b069d8882abf8cf18dd99150036118ce576117a18385612126565b604051906323b872dd60e01b82528660048301523060248301526044820152878160648160008b5af1801561030c576118b1575b506040519081523060048201528681602481895afa90811561030c57839060009261187f575b506118069192612126565b1161184457604051918252848201527f2640247c2a780a1283695dd939b212be6c2e62a7182ef366efa28aa696f23d4c60403092a460405160018152f35b60405162461bcd60e51b81526004810186905260136024820152724e6f7420656e6f75676820706179206261636b60681b6044820152606490fd5b809250888092503d83116118aa575b6118988183612105565b810103126103005751826118066117fb565b503d61188e565b6118c790883d8a1161091b5761090c8183612105565b50876117d5565b60405162461bcd60e51b815260048101889052601960248201527812515490cccc4d4d8e8810d85b1b189858dac819985a5b1959603a1b6044820152606490fd5b508781813d8311611955575b6119258183612105565b81010312610300577f439148f0bbc682ca079e46d6e2c2f0c1e3b820f1a291b069d8882abf8cf18dd9905161176f565b503d61191b565b61197290863d881161091b5761090c8183612105565b508d61170c565b9093508881813d83116119a1575b6119918183612105565b81010312610300575192896116c8565b503d611987565b60405162461bcd60e51b815260206004820152600b60248201526a16995c9bc8185b5bdd5b9d60aa1b6044820152606490fd5b3461030057600036600319011261030057602060ff609854166040519015158152f35b34610300576000366003190112610300576020610aa66125d5565b346103005760203660031901126103005761040c600435612535565b3461030057604036600319011261030057600435611a5161208b565b60ce5490916001600160a01b039182163303611b6557611a6f612747565b611a84611a7b826124f0565b60d2549061250a565b9183168015611b20577fe198de8e85cdfd7f4510617c4cd12de7263b31eef6cb83924c620d8a080144a993610bed91611abf85603554612126565b6035558060005260336020526040600020611adb868254612126565b905560006000805160206128d98339815191526020604051888152a36040805193845260208401949094526001600160a01b0316928201929092529081906060820190565b60405162461bcd60e51b815260206004820152601f60248201527f45524332303a206d696e7420746f20746865207a65726f2061646472657373006044820152606490fd5b6040516311bee39d60e31b8152600490fd5b3461030057604036600319011261030057611200611b93612075565b336000526034602052604060002060018060a01b038216600052602052611bc1602435604060002054612126565b9033612297565b3461030057600036600319011261030057602060405160068152f35b3461030057602036600319011261030057611bfd612075565b6066546001600160a01b039190611c1790831633146124b7565b60ce8054919092166001600160a01b0319909116179055005b3461030057606036600319011261030057611c49612075565b611c5161208b565b6044359060018060a01b0383166000526034602052604060002033600052602052604060002054926000198403611c8d575b6112009350612132565b828410611ca957611ca48361120095033383612297565b611c83565b60405162461bcd60e51b815260206004820152601d60248201527f45524332303a20696e73756666696369656e7420616c6c6f77616e63650000006044820152606490fd5b346103005760003660031901126103005760ce546001600160a01b03163303611b655761040c612747565b346103005760003660031901126103005760cd54604051639e3079cb60e01b81526020916000916001600160a01b03918216908481600481855afa90811561030c57600091611e98575b5060005b818110611d78578585604051908152f35b6001198111610340576001016040516315895f4760e31b815281600482015260246000828281885afa91821561030c5786928991600091611e78575b50604051634124974560e01b815293166004840181905291839081885afa801561030c578892600091611e5b575b50611def575b5050611d67565b604051636835185f60e11b815292969190839060049082905afa90811561030c57600091611e2a575b611e229250612126565b938587611de8565b90508682813d8311611e54575b611e418183612105565b8101031261030057611e22915190611e18565b503d611e37565b611e729150833d851161091b5761090c8183612105565b89611de2565b611e8d91503d806000833e61032d8183612105565b50505090508a611db4565b90508481813d8311611ebe575b611eaf8183612105565b81010312610300575185611d63565b503d611ea5565b34610300576000366003190112610300576020603554604051908152f35b346103005760003660031901126103005760cf546040516001600160a01b039091168152602090f35b3461030057604036600319011261030057611f256120a1565b60ce5460243591906001600160a01b03163303611b655715611f5257611f4d9060d354612126565b60d355005b611f4d9060d35461252a565b3461030057604036600319011261030057611200611f7a612075565b6024359033612297565b3461030057600036600319011261030057600090603654611fa4816120b0565b8083526001918083169081156113f85750600114611fcc576113ac836113a081870382612105565b6036600090815260209450916000805160206128b98339815191525b828410612001575050508101909101906113a081611390565b8054858501870152928501928101611fe8565b918091926000905b82821061203457501161202d575050565b6000910152565b9150806020918301518186015201829161201c565b604091602082526120698151809281602086015260208686019101612014565b601f01601f1916010190565b600435906001600160a01b038216820361030057565b602435906001600160a01b038216820361030057565b60043590811515820361030057565b90600182811c921680156120e0575b60208310146120ca57565b634e487b7160e01b600052602260045260246000fd5b91607f16916120bf565b604081019081106001600160401b03821117610fce57604052565b90601f801991011681019081106001600160401b03821117610fce57604052565b81198111610340570190565b6001600160a01b0390811691821561224457169182156121f3576000828152603360205260408120549180831061219f57604082826000805160206128d983398151915295876020965260338652038282205586815220612194828254612126565b9055604051908152a3565b60405162461bcd60e51b815260206004820152602660248201527f45524332303a207472616e7366657220616d6f756e7420657863656564732062604482015265616c616e636560d01b6064820152608490fd5b60405162461bcd60e51b815260206004820152602360248201527f45524332303a207472616e7366657220746f20746865207a65726f206164647260448201526265737360e81b6064820152608490fd5b60405162461bcd60e51b815260206004820152602560248201527f45524332303a207472616e736665722066726f6d20746865207a65726f206164604482015264647265737360d81b6064820152608490fd5b6001600160a01b0390811691821561234857169182156122f85760207f8c5be1e5ebec7d5bd14f71427d1e84f3dd0314c0f7b2291e5b200ac8c7c3b925918360005260348252604060002085600052825280604060002055604051908152a3565b60405162461bcd60e51b815260206004820152602260248201527f45524332303a20617070726f766520746f20746865207a65726f206164647265604482015261737360f01b6064820152608490fd5b60405162461bcd60e51b8152602060048201526024808201527f45524332303a20617070726f76652066726f6d20746865207a65726f206164646044820152637265737360e01b6064820152608490fd5b156123a057565b60405162461bcd60e51b815260206004820152602b60248201527f496e697469616c697a61626c653a20636f6e7472616374206973206e6f74206960448201526a6e697469616c697a696e6760a81b6064820152608490fd5b51906001600160a01b038216820361030057565b9060a0828203126103005781516001600160401b03908181116103005783019082601f83011215610300578151908111610fce5760405192612459601f8301601f191660200185612105565b81845260208284010111610300576124779160208085019101612014565b91612484602083016123f9565b91612491604082016123f9565b916080606083015192015190565b90816020910312610300575180151581036103005790565b156124be57565b60405162461bcd60e51b815260206004820152600a60248201526927b7363c9037bbb732b960b11b6044820152606490fd5b64e8d4a51000908060001904821181151516610340570290565b8115612514570490565b634e487b7160e01b600052601260045260246000fd5b818110610340570390565b6024906125406125d5565b60cc546040516370a0823160e01b81523060048201529360209185919082906001600160a01b03165afa92831561030c5760009361259d575b509061258491612126565b1161258b57565b60405163ed9d9d3360e01b8152600490fd5b90926020823d82116125cd575b816125b760209383612105565b810103126125ca57505191612584612579565b80fd5b3d91506125aa565b60cd5460408051639e3079cb60e01b8152600093926001600160a01b039081169291859190602090600490828183818a5afa90811561273d57859161270c575b50845b818110612629575050505050505050565b60011981116126f9576001019886516315895f4760e31b81528a8482015286816024818c5afa9081156126d057869291869189916126da575b50858a5180958193631341449360e21b8352165afa9182156126d057879261269d575b508082111561269657505b98612618565b9050612690565b9091508481813d83116126c9575b6126b58183612105565b810103126126c557519038612685565b8680fd5b503d6126ab565b88513d89823e3d90fd5b6126ee91503d808b833e61032d8183612105565b505050905038612662565b634e487b7160e01b865260118352602486fd5b90508281813d8311612736575b6127238183612105565b81010312612732575138612615565b8480fd5b503d612719565b86513d87823e3d90fd5b60355480156128015760cc546040516370a0823160e01b815230600482015290602090829060249082906001600160a01b03165afa90811561030c576000916127ce575b506127c17f66cbca4f3c64fecf1dcb9ce094abcf7f68c3450a1d4e3a8e917dd621edb4ebe0926127bc6020936124f0565b61250a565b8060d255604051908152a1565b906020823d82116127f9575b816127e760209383612105565b810103126125ca5750516127c161278b565b3d91506127da565b5064e8d4a5100060d255565b6065546001600160a01b0390811691160361283d578060001904600a118115151661034057600a61271091020490565b60405162461bcd60e51b815260206004820152600b60248201526a13db9b1e481cda1a595b1960aa1b6044820152606490fd5b60665460018060a01b03809216809282167f8be0079c531659141344cd1fd0a4f28419497f9722a3daafe3b4186f6b6457e06000604051a36001600160a01b0319161760665556fe4a11f94e20a93c79f6ec743a1954ec4fc2c08429ae2122118bf234b2185c81b8ddf252ad1be2c89b69c2b068fc378daa952ba7f163c4a11628f55a4df523b3ef42a7b7dd785cd69714a189dffb3fd7d7174edc9ece837694ce50f7078f7c31aea2646970667358221220b93a2fd937afc993340848b0580d3cab62a64d3712fa9d595e2b4a48eab7314c64736f6c634300080f0033",
  "devdoc": {
    "author": "Eric Lee (ylikp.ust@gmail.com) & Primata (primata@375labs.org)",
    "kind": "dev",
    "methods": {
      "allowance(address,address)": {
        "details": "See {IERC20-allowance}."
      },
      "approve(address,uint256)": {
        "details": "See {IERC20-approve}. NOTE: If `amount` is the maximum `uint256`, the allowance is not updated on `transferFrom`. This is semantically equivalent to an infinite approval. Requirements: - `spender` cannot be the zero address."
      },
      "balanceOf(address)": {
        "details": "See {IERC20-balanceOf}."
      },
      "decimals()": {
        "details": "Returns the number of decimals used to get its user representation. For example, if `decimals` equals `2`, a balance of `505` tokens should be displayed to a user as `5.05` (`505 / 10 ** 2`). Tokens usually opt for a value of 18, imitating the relationship between Ether and Wei. This is the value {ERC20} uses, unless this function is overridden; NOTE: This information is only used for _display_ purposes: it in no way affects any of the arithmetic of the contract, including {IERC20-balanceOf} and {IERC20-transfer}."
      },
      "decreaseAllowance(address,uint256)": {
        "details": "Atomically decreases the allowance granted to `spender` by the caller. This is an alternative to {approve} that can be used as a mitigation for problems described in {IERC20-approve}. Emits an {Approval} event indicating the updated allowance. Requirements: - `spender` cannot be the zero address. - `spender` must have allowance for the caller of at least `subtractedValue`."
      },
      "getTotalActiveCovered()": {
        "returns": {
          "activeCovered": "Covered amount"
        }
      },
      "increaseAllowance(address,uint256)": {
        "details": "Atomically increases the allowance granted to `spender` by the caller. This is an alternative to {approve} that can be used as a mitigation for problems described in {IERC20-approve}. Emits an {Approval} event indicating the updated allowance. Requirements: - `spender` cannot be the zero address."
      },
      "name()": {
        "details": "Returns the name of the token."
      },
      "owner()": {
        "details": "Returns the address of the current owner."
      },
      "pauseProtectionPool(bool)": {
        "params": {
          "_paused": "True for pause, false for unpause"
        }
      },
      "providedLiquidity(uint256,address)": {
        "params": {
          "_amount": "Liquidity amount (shield)",
          "_provider": "Provider address"
        }
      },
      "removedLiquidity(uint256,address)": {
        "params": {
          "_amount": "Liquidity to remove (LP token amount)",
          "_provider": "Provider address"
        }
      },
      "removedLiquidityWhenClaimed(uint256,address)": {
        "params": {
          "_amount": "Amount of liquidity to remove",
          "_to": "Address to transfer the liquidity to"
        }
      },
      "renounceOwnership()": {
        "details": "Leaves the contract without owner. It will not be possible to call `onlyOwner` functions anymore. Can only be called by the current owner. NOTE: Renouncing ownership will leave the contract without an owner, thereby removing any functionality that is only available to the owner."
      },
      "symbol()": {
        "details": "Returns the symbol of the token, usually a shorter version of the name."
      },
      "totalSupply()": {
        "details": "See {IERC20-totalSupply}."
      },
      "transfer(address,uint256)": {
        "details": "See {IERC20-transfer}. Requirements: - `to` cannot be the zero address. - the caller must have a balance of at least `amount`."
      },
      "transferFrom(address,address,uint256)": {
        "details": "See {IERC20-transferFrom}. Emits an {Approval} event indicating the updated allowance. This is not required by the EIP. See the note at the beginning of {ERC20}. NOTE: Does not update the allowance if the current allowance is the maximum `uint256`. Requirements: - `from` and `to` cannot be the zero address. - `from` must have a balance of at least `amount`. - the caller must have allowance for ``from``'s tokens of at least `amount`."
      },
      "transferOwnership(address)": {
        "details": "Transfers ownership of the contract to a new account (`newOwner`). Can only be called by the current owner."
      }
    },
    "title": "Protection Pool",
    "version": 1
  },
  "userdoc": {
    "kind": "user",
    "methods": {
      "getLatestPrice()": {
        "notice": "Updates and retrieves latest price to provide liquidity to Protection Pool"
      },
      "getTotalActiveCovered()": {
        "notice": "Get total active cover amount of all pools         Only calculate those \"already dynamic\" pools"
      },
      "pauseProtectionPool(bool)": {
        "notice": "Set paused state of the protection pool"
      },
      "providedLiquidity(uint256,address)": {
        "notice": "Finish providing liquidity         Only callable through policyCenter"
      },
      "removedLiquidity(uint256,address)": {
        "notice": "Finish removing liquidity         Only callable through policyCenter"
      },
      "removedLiquidityWhenClaimed(uint256,address)": {
        "notice": "Removes liquidity when a claim is made"
      },
      "updateIndexCut()": {
        "notice": "Update index cut when claim happened"
      },
      "updateWhenBuy()": {
        "notice": "Update when new cover is bought"
      }
    },
    "notice": "This is the protection pool contract for Degis Protocol Protection         Users can provide liquidity to protection pool and get PRO-LP token         If the priority pool is unable to fulfil the cover amount,         Protection Pool will be able to provide the remaining part",
    "version": 1
  },
  "storageLayout": {
    "storage": [
      {
        "astId": 52,
        "contract": "src/pools/protectionPool/ProtectionPool.sol:ProtectionPool",
        "label": "_initialized",
        "offset": 0,
        "slot": "0",
        "type": "t_uint8"
      },
      {
        "astId": 55,
        "contract": "src/pools/protectionPool/ProtectionPool.sol:ProtectionPool",
        "label": "_initializing",
        "offset": 1,
        "slot": "0",
        "type": "t_bool"
      },
      {
        "astId": 1194,
        "contract": "src/pools/protectionPool/ProtectionPool.sol:ProtectionPool",
        "label": "__gap",
        "offset": 0,
        "slot": "1",
        "type": "t_array(t_uint256)50_storage"
      },
      {
        "astId": 215,
        "contract": "src/pools/protectionPool/ProtectionPool.sol:ProtectionPool",
        "label": "_balances",
        "offset": 0,
        "slot": "51",
        "type": "t_mapping(t_address,t_uint256)"
      },
      {
        "astId": 221,
        "contract": "src/pools/protectionPool/ProtectionPool.sol:ProtectionPool",
        "label": "_allowances",
        "offset": 0,
        "slot": "52",
        "type": "t_mapping(t_address,t_mapping(t_address,t_uint256))"
      },
      {
        "astId": 223,
        "contract": "src/pools/protectionPool/ProtectionPool.sol:ProtectionPool",
        "label": "_totalSupply",
        "offset": 0,
        "slot": "53",
        "type": "t_uint256"
      },
      {
        "astId": 225,
        "contract": "src/pools/protectionPool/ProtectionPool.sol:ProtectionPool",
        "label": "_name",
        "offset": 0,
        "slot": "54",
        "type": "t_string_storage"
      },
      {
        "astId": 227,
        "contract": "src/pools/protectionPool/ProtectionPool.sol:ProtectionPool",
        "label": "_symbol",
        "offset": 0,
        "slot": "55",
        "type": "t_string_storage"
      },
      {
        "astId": 806,
        "contract": "src/pools/protectionPool/ProtectionPool.sol:ProtectionPool",
        "label": "__gap",
        "offset": 0,
        "slot": "56",
        "type": "t_array(t_uint256)45_storage"
      },
      {
        "astId": 23111,
        "contract": "src/pools/protectionPool/ProtectionPool.sol:ProtectionPool",
        "label": "token",
        "offset": 0,
        "slot": "101",
        "type": "t_address"
      },
      {
        "astId": 23417,
        "contract": "src/pools/protectionPool/ProtectionPool.sol:ProtectionPool",
        "label": "_owner",
        "offset": 0,
        "slot": "102",
        "type": "t_address"
      },
      {
        "astId": 23524,
        "contract": "src/pools/protectionPool/ProtectionPool.sol:ProtectionPool",
        "label": "__gap",
        "offset": 0,
        "slot": "103",
        "type": "t_array(t_uint256)49_storage"
      },
      {
        "astId": 23566,
        "contract": "src/pools/protectionPool/ProtectionPool.sol:ProtectionPool",
        "label": "_paused",
        "offset": 0,
        "slot": "152",
        "type": "t_bool"
      },
      {
        "astId": 23620,
        "contract": "src/pools/protectionPool/ProtectionPool.sol:ProtectionPool",
        "label": "__gap",
        "offset": 0,
        "slot": "153",
        "type": "t_array(t_uint256)49_storage"
      },
      {
        "astId": 14004,
        "contract": "src/pools/protectionPool/ProtectionPool.sol:ProtectionPool",
        "label": "deg",
        "offset": 0,
        "slot": "202",
        "type": "t_contract(IDegisToken)14131"
      },
      {
        "astId": 14007,
        "contract": "src/pools/protectionPool/ProtectionPool.sol:ProtectionPool",
        "label": "veDeg",
        "offset": 0,
        "slot": "203",
        "type": "t_contract(IVeDEG)15280"
      },
      {
        "astId": 14010,
        "contract": "src/pools/protectionPool/ProtectionPool.sol:ProtectionPool",
        "label": "shield",
        "offset": 0,
        "slot": "204",
        "type": "t_contract(IShield)15235"
      },
      {
        "astId": 20783,
        "contract": "src/pools/protectionPool/ProtectionPool.sol:ProtectionPool",
        "label": "priorityPoolFactory",
        "offset": 0,
        "slot": "205",
        "type": "t_address"
      },
      {
        "astId": 20785,
        "contract": "src/pools/protectionPool/ProtectionPool.sol:ProtectionPool",
        "label": "policyCenter",
        "offset": 0,
        "slot": "206",
        "type": "t_address"
      },
      {
        "astId": 20787,
        "contract": "src/pools/protectionPool/ProtectionPool.sol:ProtectionPool",
        "label": "incidentReport",
        "offset": 0,
        "slot": "207",
        "type": "t_address"
      },
      {
        "astId": 20044,
        "contract": "src/pools/protectionPool/ProtectionPool.sol:ProtectionPool",
        "label": "startTime",
        "offset": 0,
        "slot": "208",
        "type": "t_uint256"
      },
      {
        "astId": 20046,
        "contract": "src/pools/protectionPool/ProtectionPool.sol:ProtectionPool",
        "label": "lastRewardTimestamp",
        "offset": 0,
        "slot": "209",
        "type": "t_uint256"
      },
      {
        "astId": 20048,
        "contract": "src/pools/protectionPool/ProtectionPool.sol:ProtectionPool",
        "label": "price",
        "offset": 0,
        "slot": "210",
        "type": "t_uint256"
      },
      {
        "astId": 20050,
        "contract": "src/pools/protectionPool/ProtectionPool.sol:ProtectionPool",
        "label": "stakedSupply",
        "offset": 0,
        "slot": "211",
        "type": "t_uint256"
      },
      {
        "astId": 20056,
        "contract": "src/pools/protectionPool/ProtectionPool.sol:ProtectionPool",
        "label": "rewardSpeed",
        "offset": 0,
        "slot": "212",
        "type": "t_mapping(t_uint256,t_mapping(t_uint256,t_uint256))"
      }
    ],
    "types": {
      "t_address": {
        "encoding": "inplace",
        "label": "address",
        "numberOfBytes": "20"
      },
      "t_array(t_uint256)45_storage": {
        "base": "t_uint256",
        "encoding": "inplace",
        "label": "uint256[45]",
        "numberOfBytes": "1440"
      },
      "t_array(t_uint256)49_storage": {
        "base": "t_uint256",
        "encoding": "inplace",
        "label": "uint256[49]",
        "numberOfBytes": "1568"
      },
      "t_array(t_uint256)50_storage": {
        "base": "t_uint256",
        "encoding": "inplace",
        "label": "uint256[50]",
        "numberOfBytes": "1600"
      },
      "t_bool": {
        "encoding": "inplace",
        "label": "bool",
        "numberOfBytes": "1"
      },
      "t_contract(IDegisToken)14131": {
        "encoding": "inplace",
        "label": "contract IDegisToken",
        "numberOfBytes": "20"
      },
      "t_contract(IShield)15235": {
        "encoding": "inplace",
        "label": "contract IShield",
        "numberOfBytes": "20"
      },
      "t_contract(IVeDEG)15280": {
        "encoding": "inplace",
        "label": "contract IVeDEG",
        "numberOfBytes": "20"
      },
      "t_mapping(t_address,t_mapping(t_address,t_uint256))": {
        "encoding": "mapping",
        "key": "t_address",
        "label": "mapping(address => mapping(address => uint256))",
        "numberOfBytes": "32",
        "value": "t_mapping(t_address,t_uint256)"
      },
      "t_mapping(t_address,t_uint256)": {
        "encoding": "mapping",
        "key": "t_address",
        "label": "mapping(address => uint256)",
        "numberOfBytes": "32",
        "value": "t_uint256"
      },
      "t_mapping(t_uint256,t_mapping(t_uint256,t_uint256))": {
        "encoding": "mapping",
        "key": "t_uint256",
        "label": "mapping(uint256 => mapping(uint256 => uint256))",
        "numberOfBytes": "32",
        "value": "t_mapping(t_uint256,t_uint256)"
      },
      "t_mapping(t_uint256,t_uint256)": {
        "encoding": "mapping",
        "key": "t_uint256",
        "label": "mapping(uint256 => uint256)",
        "numberOfBytes": "32",
        "value": "t_uint256"
      },
      "t_string_storage": {
        "encoding": "bytes",
        "label": "string",
        "numberOfBytes": "32"
      },
      "t_uint256": {
        "encoding": "inplace",
        "label": "uint256",
        "numberOfBytes": "32"
      },
      "t_uint8": {
        "encoding": "inplace",
        "label": "uint8",
        "numberOfBytes": "1"
      }
    }
  }
}