{
  "address": "0x273d94d4A7650FB55467232De554dC9336011436",
  "abi": [
    {
      "inputs": [
        {
          "internalType": "address",
          "name": "_deg",
          "type": "address"
        },
        {
          "internalType": "address",
          "name": "_veDeg",
          "type": "address"
        },
        {
          "internalType": "address",
          "name": "_shield",
          "type": "address"
        }
      ],
      "stateMutability": "nonpayable",
      "type": "constructor"
    },
    {
      "anonymous": false,
      "inputs": [
        {
          "indexed": false,
          "internalType": "uint256",
          "name": "amount",
          "type": "uint256"
        }
      ],
      "name": "AccRewardsPerShareUpdated",
      "type": "event"
    },
    {
      "anonymous": false,
      "inputs": [
        {
          "indexed": true,
          "internalType": "address",
          "name": "owner",
          "type": "address"
        },
        {
          "indexed": true,
          "internalType": "address",
          "name": "spender",
          "type": "address"
        },
        {
          "indexed": false,
          "internalType": "uint256",
          "name": "value",
          "type": "uint256"
        }
      ],
      "name": "Approval",
      "type": "event"
    },
    {
      "anonymous": false,
      "inputs": [
        {
          "indexed": true,
          "internalType": "address",
          "name": "user",
          "type": "address"
        },
        {
          "indexed": false,
          "internalType": "uint256",
          "name": "amount",
          "type": "uint256"
        }
      ],
      "name": "Deposit",
      "type": "event"
    },
    {
      "anonymous": false,
      "inputs": [
        {
          "indexed": false,
          "internalType": "uint256",
          "name": "newEmissionRate",
          "type": "uint256"
        },
        {
          "indexed": false,
          "internalType": "uint256",
          "name": "newEmissionEndTime",
          "type": "uint256"
        }
      ],
      "name": "EmissionRateUpdated",
      "type": "event"
    },
    {
      "anonymous": false,
      "inputs": [
        {
          "indexed": false,
          "internalType": "uint256",
          "name": "amount",
          "type": "uint256"
        },
        {
          "indexed": false,
          "internalType": "address",
          "name": "sender",
          "type": "address"
        }
      ],
      "name": "LiquidityProvision",
      "type": "event"
    },
    {
      "anonymous": false,
      "inputs": [
        {
          "indexed": false,
          "internalType": "uint256",
          "name": "amount",
          "type": "uint256"
        },
        {
          "indexed": false,
          "internalType": "address",
          "name": "sender",
          "type": "address"
        }
      ],
      "name": "LiquidityRemoved",
      "type": "event"
    },
    {
      "anonymous": false,
      "inputs": [
        {
          "indexed": false,
          "internalType": "uint256",
          "name": "poolId",
          "type": "uint256"
        },
        {
          "indexed": false,
          "internalType": "uint256",
          "name": "amount",
          "type": "uint256"
        }
      ],
      "name": "MoveLiquidity",
      "type": "event"
    },
    {
      "anonymous": false,
      "inputs": [
        {
          "indexed": true,
          "internalType": "address",
          "name": "previousOwner",
          "type": "address"
        },
        {
          "indexed": true,
          "internalType": "address",
          "name": "newOwner",
          "type": "address"
        }
      ],
      "name": "OwnershipTransferred",
      "type": "event"
    },
    {
      "anonymous": false,
      "inputs": [
        {
          "indexed": true,
          "internalType": "address",
          "name": "from",
          "type": "address"
        },
        {
          "indexed": true,
          "internalType": "address",
          "name": "to",
          "type": "address"
        },
        {
          "indexed": false,
          "internalType": "uint256",
          "name": "value",
          "type": "uint256"
        }
      ],
      "name": "Transfer",
      "type": "event"
    },
    {
      "anonymous": false,
      "inputs": [
        {
          "indexed": true,
          "internalType": "address",
          "name": "user",
          "type": "address"
        },
        {
          "indexed": false,
          "internalType": "uint256",
          "name": "amount",
          "type": "uint256"
        }
      ],
      "name": "Withdraw",
      "type": "event"
    },
    {
      "inputs": [],
      "name": "DISTRIBUTION_PERIOD",
      "outputs": [
        {
          "internalType": "uint256",
          "name": "",
          "type": "uint256"
        }
      ],
      "stateMutability": "view",
      "type": "function"
    },
    {
      "inputs": [],
      "name": "SCALE",
      "outputs": [
        {
          "internalType": "uint256",
          "name": "",
          "type": "uint256"
        }
      ],
      "stateMutability": "view",
      "type": "function"
    },
    {
      "inputs": [],
      "name": "accumulatedRewardPerShare",
      "outputs": [
        {
          "internalType": "uint256",
          "name": "",
          "type": "uint256"
        }
      ],
      "stateMutability": "view",
      "type": "function"
    },
    {
      "inputs": [
        {
          "internalType": "address",
          "name": "owner",
          "type": "address"
        },
        {
          "internalType": "address",
          "name": "spender",
          "type": "address"
        }
      ],
      "name": "allowance",
      "outputs": [
        {
          "internalType": "uint256",
          "name": "",
          "type": "uint256"
        }
      ],
      "stateMutability": "view",
      "type": "function"
    },
    {
      "inputs": [
        {
          "internalType": "address",
          "name": "spender",
          "type": "address"
        },
        {
          "internalType": "uint256",
          "name": "amount",
          "type": "uint256"
        }
      ],
      "name": "approve",
      "outputs": [
        {
          "internalType": "bool",
          "name": "",
          "type": "bool"
        }
      ],
      "stateMutability": "nonpayable",
      "type": "function"
    },
    {
      "inputs": [
        {
          "internalType": "address",
          "name": "account",
          "type": "address"
        }
      ],
      "name": "balanceOf",
      "outputs": [
        {
          "internalType": "uint256",
          "name": "",
          "type": "uint256"
        }
      ],
      "stateMutability": "view",
      "type": "function"
    },
    {
      "inputs": [
        {
          "internalType": "uint256",
          "name": "_amount",
          "type": "uint256"
        },
        {
          "internalType": "uint256",
          "name": "_userDebt",
          "type": "uint256"
        }
      ],
      "name": "calculateReward",
      "outputs": [
        {
          "internalType": "uint256",
          "name": "",
          "type": "uint256"
        }
      ],
      "stateMutability": "view",
      "type": "function"
    },
    {
      "inputs": [],
      "name": "decimals",
      "outputs": [
        {
          "internalType": "uint8",
          "name": "",
          "type": "uint8"
        }
      ],
      "stateMutability": "view",
      "type": "function"
    },
    {
      "inputs": [
        {
          "internalType": "address",
          "name": "spender",
          "type": "address"
        },
        {
          "internalType": "uint256",
          "name": "subtractedValue",
          "type": "uint256"
        }
      ],
      "name": "decreaseAllowance",
      "outputs": [
        {
          "internalType": "bool",
          "name": "",
          "type": "bool"
        }
      ],
      "stateMutability": "nonpayable",
      "type": "function"
    },
    {
      "inputs": [],
      "name": "deg",
      "outputs": [
        {
          "internalType": "address",
          "name": "",
          "type": "address"
        }
      ],
      "stateMutability": "view",
      "type": "function"
    },
    {
      "inputs": [],
      "name": "emissionEndTime",
      "outputs": [
        {
          "internalType": "uint256",
          "name": "",
          "type": "uint256"
        }
      ],
      "stateMutability": "view",
      "type": "function"
    },
    {
      "inputs": [],
      "name": "emissionRate",
      "outputs": [
        {
          "internalType": "uint256",
          "name": "",
          "type": "uint256"
        }
      ],
      "stateMutability": "view",
      "type": "function"
    },
    {
      "inputs": [],
      "name": "endLiquidationPeriod",
      "outputs": [],
      "stateMutability": "nonpayable",
      "type": "function"
    },
    {
      "inputs": [],
      "name": "incidentReport",
      "outputs": [
        {
          "internalType": "address",
          "name": "",
          "type": "address"
        }
      ],
      "stateMutability": "view",
      "type": "function"
    },
    {
      "inputs": [
        {
          "internalType": "address",
          "name": "spender",
          "type": "address"
        },
        {
          "internalType": "uint256",
          "name": "addedValue",
          "type": "uint256"
        }
      ],
      "name": "increaseAllowance",
      "outputs": [
        {
          "internalType": "bool",
          "name": "",
          "type": "bool"
        }
      ],
      "stateMutability": "nonpayable",
      "type": "function"
    },
    {
      "inputs": [],
      "name": "insurancePoolFactory",
      "outputs": [
        {
          "internalType": "address",
          "name": "",
          "type": "address"
        }
      ],
      "stateMutability": "view",
      "type": "function"
    },
    {
      "inputs": [],
      "name": "insurancePoolLiquidated",
      "outputs": [
        {
          "internalType": "bool",
          "name": "",
          "type": "bool"
        }
      ],
      "stateMutability": "view",
      "type": "function"
    },
    {
      "inputs": [],
      "name": "lastRewardTimestamp",
      "outputs": [
        {
          "internalType": "uint256",
          "name": "",
          "type": "uint256"
        }
      ],
      "stateMutability": "view",
      "type": "function"
    },
    {
      "inputs": [],
      "name": "maxCapacity",
      "outputs": [
        {
          "internalType": "uint256",
          "name": "",
          "type": "uint256"
        }
      ],
      "stateMutability": "view",
      "type": "function"
    },
    {
      "inputs": [
        {
          "internalType": "uint256",
          "name": "_poolId",
          "type": "uint256"
        },
        {
          "internalType": "uint256",
          "name": "_amount",
          "type": "uint256"
        }
      ],
      "name": "moveLiquidity",
      "outputs": [],
      "stateMutability": "nonpayable",
      "type": "function"
    },
    {
      "inputs": [],
      "name": "name",
      "outputs": [
        {
          "internalType": "string",
          "name": "",
          "type": "string"
        }
      ],
      "stateMutability": "view",
      "type": "function"
    },
    {
      "inputs": [],
      "name": "owner",
      "outputs": [
        {
          "internalType": "address",
          "name": "",
          "type": "address"
        }
      ],
      "stateMutability": "view",
      "type": "function"
    },
    {
      "inputs": [
        {
          "internalType": "bool",
          "name": "_paused",
          "type": "bool"
        }
      ],
      "name": "pauseReinsurancePool",
      "outputs": [],
      "stateMutability": "nonpayable",
      "type": "function"
    },
    {
      "inputs": [],
      "name": "paused",
      "outputs": [
        {
          "internalType": "bool",
          "name": "",
          "type": "bool"
        }
      ],
      "stateMutability": "view",
      "type": "function"
    },
    {
      "inputs": [],
      "name": "policyCenter",
      "outputs": [
        {
          "internalType": "address",
          "name": "",
          "type": "address"
        }
      ],
      "stateMutability": "view",
      "type": "function"
    },
    {
      "inputs": [],
      "name": "poolInfo",
      "outputs": [
        {
          "internalType": "bool",
          "name": "",
          "type": "bool"
        },
        {
          "internalType": "uint256",
          "name": "",
          "type": "uint256"
        },
        {
          "internalType": "uint256",
          "name": "",
          "type": "uint256"
        },
        {
          "internalType": "uint256",
          "name": "",
          "type": "uint256"
        },
        {
          "internalType": "uint256",
          "name": "",
          "type": "uint256"
        },
        {
          "internalType": "uint256",
          "name": "",
          "type": "uint256"
        }
      ],
      "stateMutability": "view",
      "type": "function"
    },
    {
      "inputs": [
        {
          "internalType": "uint256",
          "name": "_amount",
          "type": "uint256"
        },
        {
          "internalType": "address",
          "name": "_provider",
          "type": "address"
        }
      ],
      "name": "provideLiquidity",
      "outputs": [],
      "stateMutability": "nonpayable",
      "type": "function"
    },
    {
      "inputs": [
        {
          "internalType": "uint256",
          "name": "_amount",
          "type": "uint256"
        },
        {
          "internalType": "address",
          "name": "_provider",
          "type": "address"
        }
      ],
      "name": "removeLiquidity",
      "outputs": [],
      "stateMutability": "nonpayable",
      "type": "function"
    },
    {
      "inputs": [],
      "name": "renounceOwnership",
      "outputs": [],
      "stateMutability": "nonpayable",
      "type": "function"
    },
    {
      "inputs": [
        {
          "internalType": "address",
          "name": "_incidentReport",
          "type": "address"
        }
      ],
      "name": "setIncidentReport",
      "outputs": [],
      "stateMutability": "nonpayable",
      "type": "function"
    },
    {
      "inputs": [
        {
          "internalType": "address",
          "name": "_insurancePoolFactory",
          "type": "address"
        }
      ],
      "name": "setInsurancePoolFactory",
      "outputs": [],
      "stateMutability": "nonpayable",
      "type": "function"
    },
    {
      "inputs": [
        {
          "internalType": "address",
          "name": "_policyCenter",
          "type": "address"
        }
      ],
      "name": "setPolicyCenter",
      "outputs": [],
      "stateMutability": "nonpayable",
      "type": "function"
    },
    {
      "inputs": [],
      "name": "shield",
      "outputs": [
        {
          "internalType": "address",
          "name": "",
          "type": "address"
        }
      ],
      "stateMutability": "view",
      "type": "function"
    },
    {
      "inputs": [],
      "name": "startTime",
      "outputs": [
        {
          "internalType": "uint256",
          "name": "",
          "type": "uint256"
        }
      ],
      "stateMutability": "view",
      "type": "function"
    },
    {
      "inputs": [],
      "name": "symbol",
      "outputs": [
        {
          "internalType": "string",
          "name": "",
          "type": "string"
        }
      ],
      "stateMutability": "view",
      "type": "function"
    },
    {
      "inputs": [],
      "name": "totalSupply",
      "outputs": [
        {
          "internalType": "uint256",
          "name": "",
          "type": "uint256"
        }
      ],
      "stateMutability": "view",
      "type": "function"
    },
    {
      "inputs": [
        {
          "internalType": "address",
          "name": "to",
          "type": "address"
        },
        {
          "internalType": "uint256",
          "name": "amount",
          "type": "uint256"
        }
      ],
      "name": "transfer",
      "outputs": [
        {
          "internalType": "bool",
          "name": "",
          "type": "bool"
        }
      ],
      "stateMutability": "nonpayable",
      "type": "function"
    },
    {
      "inputs": [
        {
          "internalType": "address",
          "name": "from",
          "type": "address"
        },
        {
          "internalType": "address",
          "name": "to",
          "type": "address"
        },
        {
          "internalType": "uint256",
          "name": "amount",
          "type": "uint256"
        }
      ],
      "name": "transferFrom",
      "outputs": [
        {
          "internalType": "bool",
          "name": "",
          "type": "bool"
        }
      ],
      "stateMutability": "nonpayable",
      "type": "function"
    },
    {
      "inputs": [
        {
          "internalType": "address",
          "name": "newOwner",
          "type": "address"
        }
      ],
      "name": "transferOwnership",
      "outputs": [],
      "stateMutability": "nonpayable",
      "type": "function"
    },
    {
      "inputs": [
        {
          "internalType": "uint256",
          "name": "_premium",
          "type": "uint256"
        }
      ],
      "name": "updateEmissionRate",
      "outputs": [],
      "stateMutability": "nonpayable",
      "type": "function"
    },
    {
      "inputs": [],
      "name": "updateRewards",
      "outputs": [],
      "stateMutability": "nonpayable",
      "type": "function"
    },
    {
      "inputs": [],
      "name": "veDeg",
      "outputs": [
        {
          "internalType": "address",
          "name": "",
          "type": "address"
        }
      ],
      "stateMutability": "view",
      "type": "function"
    }
  ],
  "transactionHash": "0x7e60976f9df25488cccec35e6c05afb2b38daf2b0fae8e30f412805ee460f7ed",
  "args": [
    "0x4C5fAB0Da4ecB345eb5C52B697970A9236A608a8",
    "0xF3a9BADD378218345FDF9a1bf239f07416eEEc1d",
    "0x4D16BA86A3b4a6aE9EE124bA48BbaD711B26DDfc"
  ],
  "numDeployments": 2,
  "solcInputHash": "956b409f68b3ada64a122d1f78e0ed4a",
  "bytecode": "0x60e06040523480156200001157600080fd5b5060405162001c9538038062001c958339810160408190526200003491620001f3565b338383836040518060400160405280600f81526020016e14995a5b9cdd5c985b98d9541bdbdb608a1b81525060405180604001604052806002815260200161052560f41b81525081600390805190602001906200009392919062000130565b508051620000a990600490602084019062000130565b5050506001600160a01b0392831660805290821660a0521660c052620000cf81620000de565b505042600a5550620002799050565b600880546001600160a01b038381166001600160a01b0319831681179093556040519116919082907f8be0079c531659141344cd1fd0a4f28419497f9722a3daafe3b4186f6b6457e090600090a35050565b8280546200013e906200023d565b90600052602060002090601f016020900481019282620001625760008555620001ad565b82601f106200017d57805160ff1916838001178555620001ad565b82800160010185558215620001ad579182015b82811115620001ad57825182559160200191906001019062000190565b50620001bb929150620001bf565b5090565b5b80821115620001bb5760008155600101620001c0565b80516001600160a01b0381168114620001ee57600080fd5b919050565b6000806000606084860312156200020957600080fd5b6200021484620001d6565b92506200022460208501620001d6565b91506200023460408501620001d6565b90509250925092565b600181811c908216806200025257607f821691505b6020821081036200027357634e487b7160e01b600052602260045260246000fd5b50919050565b60805160a05160c0516119e5620002b0600039600081816104980152610ae401526000610533015260006103b701526119e56000f3fe608060405234801561001057600080fd5b506004361061025e5760003560e01c80636732755411610146578063a9059cbb116100c3578063e3356ccf11610087578063e3356ccf14610568578063e8adbf2f1461057b578063eced55261461058e578063f2fde38b1461059a578063f8077fae146105ad578063fb77a6dc146105b657600080fd5b8063a9059cbb14610508578063ad8913c61461051b578063b092deb114610524578063c3a593b31461052e578063dd62ed3e1461055557600080fd5b80638da5cb5b1161010a5780638da5cb5b146104cb5780638def335d146104dc57806395d89b41146104e457806396afc450146104ec578063a457c2d7146104f557600080fd5b8063673275541461045657806370a082311461046a57806370d39cff14610493578063715018a6146104ba57806378e97925146104c257600080fd5b80632de0239b116101df5780634317e3d4116101a35780634317e3d41461039f5780634858b300146103b25780634d658ef0146103d957806359b6a0c9146103ec5780635a2f3d09146103f55780635c975abb1461044257600080fd5b80632de0239b14610359578063313ce5671461036c57806336d421951461037b57806339509351146103845780633e158b0c1461039757600080fd5b806313ed08461161022657806313ed0846146102f757806318160ddd1461031857806323b872dd14610320578063250c4dc6146103335780632dd57bb01461034657600080fd5b806305fe138b1461026357806306fdde0314610278578063095ea7b3146102965780630ba84cd2146102b95780630f89b77d146102cc575b600080fd5b61027661027136600461170b565b6105c9565b005b61028061079c565b60405161028d919061173b565b60405180910390f35b6102a96102a4366004611790565b61082e565b604051901515815260200161028d565b6102766102c73660046117bc565b610848565b6007546102df906001600160a01b031681565b6040516001600160a01b03909116815260200161028d565b61030a6103053660046117d5565b6108c2565b60405190815260200161028d565b60025461030a565b6102a961032e3660046117f7565b61095f565b6005546102df906001600160a01b031681565b610276610354366004611838565b610983565b6102766103673660046117d5565b6109a9565b6040516012815260200161028d565b61030a600b5481565b6102a9610392366004611790565b610b91565b610276610bb3565b6102766103ad36600461170b565b610c25565b6102df7f000000000000000000000000000000000000000000000000000000000000000081565b6102766103e7366004611838565b610d33565b61030a60095481565b600854600b54600c54600d54600e54600954600160a81b90950460ff16946040805196151587526020870195909552938501929092526060840152608083015260a082015260c00161028d565b6008546102a990600160a81b900460ff1681565b6008546102a990600160a01b900460ff1681565b61030a610478366004611838565b6001600160a01b031660009081526020819052604090205490565b6102df7f000000000000000000000000000000000000000000000000000000000000000081565b610276610d59565b61030a600a5481565b6008546001600160a01b03166102df565b610276610d6b565b610280610d82565b61030a600e5481565b6102a9610503366004611790565b610d91565b6102a9610516366004611790565b610e0c565b61030a600d5481565b61030a62278d0081565b6102df7f000000000000000000000000000000000000000000000000000000000000000081565b61030a61056336600461185c565b610e1a565b610276610576366004611838565b610e45565b6006546102df906001600160a01b031681565b61030a64e8d4a5100081565b6102766105a8366004611838565b610e6b565b61030a600c5481565b6102766105c4366004611898565b610ee1565b6002548211156106205760405162461bcd60e51b815260206004820152601a60248201527f616d6f756e74206578636565647320746f74616c537570706c7900000000000060448201526064015b60405180910390fd5b600082116106705760405162461bcd60e51b815260206004820152601f60248201527f616d6f756e742073686f756c642062652067726561746572207468616e2030006044820152606401610617565b6006546001600160a01b031633146106e65760405162461bcd60e51b815260206004820152603360248201527f6c69717569646974792063616e206f6e6c792062652070726f766964652074686044820152723937bab3b4103837b634b1bc9031b2b73a32b960691b6064820152608401610617565b600854600160a81b900460ff161561074c5760405162461bcd60e51b8152602060048201526024808201527f63616e6e6f742072656d6f7665206c6971756964697479207768696c652070616044820152631d5cd95960e21b6064820152608401610617565b6107568183610f8b565b604080518381526001600160a01b03831660208201527f17a63db1a9a8665c388fd097b279eb78a8145c270157a550a610252132edbebe91015b60405180910390a15050565b6060600380546107ab906118b5565b80601f01602080910402602001604051908101604052809291908181526020018280546107d7906118b5565b80156108245780601f106107f957610100808354040283529160200191610824565b820191906000526020600020905b81548152906001019060200180831161080757829003601f168201915b5050505050905090565b60003361083c8185856110be565b60019150505b92915050565b6006546001600160a01b031633146108b65760405162461bcd60e51b815260206004820152602b60248201527f4f6e6c7920706f6c6c69637943656e7465722063616e2075706461746520656d60448201526a697373696f6e207261746560a81b6064820152608401610617565b6108bf816111da565b50565b60006108cd60025490565b6000036108dc57506000610842565b6000600e54600c54426108ef9190611905565b6108f9919061191c565b9050600061090660025490565b61091564e8d4a510008461191c565b61091f919061193b565b600b5461092c919061195d565b905060008464e8d4a51000610941848961191c565b61094b919061193b565b6109559190611905565b9695505050505050565b60003361096d8582856112a2565b61097885858561131c565b506001949350505050565b61098b6114c0565b600680546001600160a01b0319166001600160a01b03831617905550565b6109b16114c0565b60008111610a015760405162461bcd60e51b815260206004820152601d60248201527f416d6f756e74206d7573742062652067726561746572207468616e20300000006044820152606401610617565b60065460405163502dd62160e11b8152600481018490526000916001600160a01b03169063a05bac4290602401602060405180830381865afa158015610a4b573d6000803e3d6000fd5b505050506040513d601f19601f82011682018060405250810190610a6f9190611975565b90506001600160a01b038116610ab85760405162461bcd60e51b815260206004820152600e60248201526d141bdbdb081b9bdd08199bdd5b9960921b6044820152606401610617565b6040516323b872dd60e01b81523060048201526001600160a01b038281166024830152604482018490527f000000000000000000000000000000000000000000000000000000000000000016906323b872dd906064016020604051808303816000875af1158015610b2d573d6000803e3d6000fd5b505050506040513d601f19601f82011682018060405250810190610b519190611992565b5060408051848152602081018490527faf62d6e59ad2e54c778a490827e6cb28b1d30794092c7367fdbb261b11de033691015b60405180910390a1505050565b60003361083c818585610ba48383610e1a565b610bae919061195d565b6110be565b6006546001600160a01b03163314610c1b5760405162461bcd60e51b815260206004820152602560248201527f4f6e6c7920706f6c6c69637943656e7465722063616e20757064617465207265604482015264776172647360d81b6064820152608401610617565b610c23611529565b565b60008211610c755760405162461bcd60e51b815260206004820152601f60248201527f616d6f756e742073686f756c642062652067726561746572207468616e2030006044820152606401610617565b6006546001600160a01b03163314610ceb5760405162461bcd60e51b815260206004820152603360248201527f63616e6e6f742070726f76696465206c6971756964697479206469726563746c6044820152721e481d1bc81a5b9cdd5c985b98d9481c1bdbdb606a1b6064820152608401610617565b610cf581836115e5565b604080518381526001600160a01b03831660208201527f2fab008f593b573f234e491ae40dce937f18be981fa9ae4eac7507bc28c0d9339101610790565b610d3b6114c0565b600580546001600160a01b0319166001600160a01b03831617905550565b610d616114c0565b610c2360006116a4565b610d736114c0565b6008805460ff60a01b19169055565b6060600480546107ab906118b5565b60003381610d9f8286610e1a565b905083811015610dff5760405162461bcd60e51b815260206004820152602560248201527f45524332303a2064656372656173656420616c6c6f77616e63652062656c6f77604482015264207a65726f60d81b6064820152608401610617565b61097882868684036110be565b60003361083c81858561131c565b6001600160a01b03918216600090815260016020908152604080832093909416825291909152205490565b610e4d6114c0565b600780546001600160a01b0319166001600160a01b03831617905550565b610e736114c0565b6001600160a01b038116610ed85760405162461bcd60e51b815260206004820152602660248201527f4f776e61626c653a206e6577206f776e657220697320746865207a65726f206160448201526564647265737360d01b6064820152608401610617565b6108bf816116a4565b6008546001600160a01b0316331480610f0457506007546001600160a01b031633145b610f6d5760405162461bcd60e51b815260206004820152603460248201527f4f6e6c79206f776e6572206f7220496e636964656e74205265706f7274206361604482015273371031b0b636103a3434b990333ab731ba34b7b760611b6064820152608401610617565b60088054911515600160a81b0260ff60a81b19909216919091179055565b6001600160a01b038216610feb5760405162461bcd60e51b815260206004820152602160248201527f45524332303a206275726e2066726f6d20746865207a65726f206164647265736044820152607360f81b6064820152608401610617565b6001600160a01b0382166000908152602081905260409020548181101561105f5760405162461bcd60e51b815260206004820152602260248201527f45524332303a206275726e20616d6f756e7420657863656564732062616c616e604482015261636560f01b6064820152608401610617565b6001600160a01b0383166000818152602081815260408083208686039055600280548790039055518581529192917fddf252ad1be2c89b69c2b068fc378daa952ba7f163c4a11628f55a4df523b3ef91015b60405180910390a3505050565b6001600160a01b0383166111205760405162461bcd60e51b8152602060048201526024808201527f45524332303a20617070726f76652066726f6d20746865207a65726f206164646044820152637265737360e01b6064820152608401610617565b6001600160a01b0382166111815760405162461bcd60e51b815260206004820152602260248201527f45524332303a20617070726f766520746f20746865207a65726f206164647265604482015261737360f01b6064820152608401610617565b6001600160a01b0383811660008181526001602090815260408083209487168084529482529182902085905590518481527f8c5be1e5ebec7d5bd14f71427d1e84f3dd0314c0f7b2291e5b200ac8c7c3b92591016110b1565b6111e2611529565b600042600d54116111f4576000611202565b42600d546112029190611905565b905080156112395762278d008282600e5461121d919061191c565b611227919061195d565b611231919061193b565b600e5561124a565b61124662278d008361193b565b600e555b61125a62278d006201518061191c565b611264904261195d565b600d819055600e546040517f144d30c57e277deb14c5d686b95cf61cfea257d9d551cef4288b2f7db418f87a92610790928252602082015260400190565b60006112ae8484610e1a565b9050600019811461131657818110156113095760405162461bcd60e51b815260206004820152601d60248201527f45524332303a20696e73756666696369656e7420616c6c6f77616e63650000006044820152606401610617565b61131684848484036110be565b50505050565b6001600160a01b0383166113805760405162461bcd60e51b815260206004820152602560248201527f45524332303a207472616e736665722066726f6d20746865207a65726f206164604482015264647265737360d81b6064820152608401610617565b6001600160a01b0382166113e25760405162461bcd60e51b815260206004820152602360248201527f45524332303a207472616e7366657220746f20746865207a65726f206164647260448201526265737360e81b6064820152608401610617565b6001600160a01b0383166000908152602081905260409020548181101561145a5760405162461bcd60e51b815260206004820152602660248201527f45524332303a207472616e7366657220616d6f756e7420657863656564732062604482015265616c616e636560d01b6064820152608401610617565b6001600160a01b03848116600081815260208181526040808320878703905593871680835291849020805487019055925185815290927fddf252ad1be2c89b69c2b068fc378daa952ba7f163c4a11628f55a4df523b3ef910160405180910390a3611316565b336114d36008546001600160a01b031690565b6001600160a01b031614610c235760405162461bcd60e51b815260206004820181905260248201527f4f776e61626c653a2063616c6c6572206973206e6f7420746865206f776e65726044820152606401610617565b60025415806115385750600d54155b156115435742600c55565b600042600d54106115545742611558565b600d545b90506000600c548261156a9190611905565b9050600062015180600e5483611580919061191c565b61158a919061193b565b905061159560025490565b61159f908261193b565b600b546115ac919061195d565b600b81905542600c556040519081527fe75561565db6793e979ed98ca01ef534d8c11d811bd56003eb4344c959079c1f90602001610b84565b6001600160a01b03821661163b5760405162461bcd60e51b815260206004820152601f60248201527f45524332303a206d696e7420746f20746865207a65726f2061646472657373006044820152606401610617565b806002600082825461164d919061195d565b90915550506001600160a01b038216600081815260208181526040808320805486019055518481527fddf252ad1be2c89b69c2b068fc378daa952ba7f163c4a11628f55a4df523b3ef910160405180910390a35050565b600880546001600160a01b038381166001600160a01b0319831681179093556040519116919082907f8be0079c531659141344cd1fd0a4f28419497f9722a3daafe3b4186f6b6457e090600090a35050565b6001600160a01b03811681146108bf57600080fd5b6000806040838503121561171e57600080fd5b823591506020830135611730816116f6565b809150509250929050565b600060208083528351808285015260005b818110156117685785810183015185820160400152820161174c565b8181111561177a576000604083870101525b50601f01601f1916929092016040019392505050565b600080604083850312156117a357600080fd5b82356117ae816116f6565b946020939093013593505050565b6000602082840312156117ce57600080fd5b5035919050565b600080604083850312156117e857600080fd5b50508035926020909101359150565b60008060006060848603121561180c57600080fd5b8335611817816116f6565b92506020840135611827816116f6565b929592945050506040919091013590565b60006020828403121561184a57600080fd5b8135611855816116f6565b9392505050565b6000806040838503121561186f57600080fd5b823561187a816116f6565b91506020830135611730816116f6565b80151581146108bf57600080fd5b6000602082840312156118aa57600080fd5b81356118558161188a565b600181811c908216806118c957607f821691505b6020821081036118e957634e487b7160e01b600052602260045260246000fd5b50919050565b634e487b7160e01b600052601160045260246000fd5b600082821015611917576119176118ef565b500390565b6000816000190483118215151615611936576119366118ef565b500290565b60008261195857634e487b7160e01b600052601260045260246000fd5b500490565b60008219821115611970576119706118ef565b500190565b60006020828403121561198757600080fd5b8151611855816116f6565b6000602082840312156119a457600080fd5b81516118558161188a56fea2646970667358221220544761667c12ecd3ba059eda042e31426d79a747ecf4bc4b8ceb8e1c1701d4f364736f6c634300080d0033",
  "devdoc": {
    "author": "Eric Lee (ylikp.ust@gmail.com) & Primata (primata@375labs.org)",
    "kind": "dev",
    "methods": {
      "allowance(address,address)": {
        "details": "See {IERC20-allowance}."
      },
      "approve(address,uint256)": {
        "details": "See {IERC20-approve}. NOTE: If `amount` is the maximum `uint256`, the allowance is not updated on `transferFrom`. This is semantically equivalent to an infinite approval. Requirements: - `spender` cannot be the zero address."
      },
      "balanceOf(address)": {
        "details": "See {IERC20-balanceOf}."
      },
      "calculateReward(uint256,uint256)": {
        "params": {
          "_amount": "Amount of liquidity provided by the user",
          "_userDebt": "Amount of debt the user has to the pool"
        },
        "returns": {
          "_0": "reward Reward amount"
        }
      },
      "decimals()": {
        "details": "Returns the number of decimals used to get its user representation. For example, if `decimals` equals `2`, a balance of `505` tokens should be displayed to a user as `5.05` (`505 / 10 ** 2`). Tokens usually opt for a value of 18, imitating the relationship between Ether and Wei. This is the value {ERC20} uses, unless this function is overridden; NOTE: This information is only used for _display_ purposes: it in no way affects any of the arithmetic of the contract, including {IERC20-balanceOf} and {IERC20-transfer}."
      },
      "decreaseAllowance(address,uint256)": {
        "details": "Atomically decreases the allowance granted to `spender` by the caller. This is an alternative to {approve} that can be used as a mitigation for problems described in {IERC20-approve}. Emits an {Approval} event indicating the updated allowance. Requirements: - `spender` cannot be the zero address. - `spender` must have allowance for the caller of at least `subtractedValue`."
      },
      "increaseAllowance(address,uint256)": {
        "details": "Atomically increases the allowance granted to `spender` by the caller. This is an alternative to {approve} that can be used as a mitigation for problems described in {IERC20-approve}. Emits an {Approval} event indicating the updated allowance. Requirements: - `spender` cannot be the zero address."
      },
      "moveLiquidity(uint256,uint256)": {
        "params": {
          "_amount": "Amount of liquidity to transfer to insurance pool",
          "_poolId": "Id of the pool to move the liquidity to."
        }
      },
      "name()": {
        "details": "Returns the name of the token."
      },
      "owner()": {
        "details": "Returns the address of the current owner."
      },
      "pauseReinsurancePool(bool)": {
        "params": {
          "_paused": "true if paused, false if not."
        }
      },
      "provideLiquidity(uint256,address)": {
        "params": {
          "_amount": "Liquidity amount (shield)"
        }
      },
      "removeLiquidity(uint256,address)": {
        "params": {
          "_amount": "token being insured",
          "_provider": "liquidity provider adress"
        }
      },
      "renounceOwnership()": {
        "details": "Leaves the contract without owner. It will not be possible to call `onlyOwner` functions anymore. Can only be called by the current owner. NOTE: Renouncing ownership will leave the contract without an owner, thereby removing any functionality that is only available to the owner."
      },
      "symbol()": {
        "details": "Returns the symbol of the token, usually a shorter version of the name."
      },
      "totalSupply()": {
        "details": "See {IERC20-totalSupply}."
      },
      "transfer(address,uint256)": {
        "details": "See {IERC20-transfer}. Requirements: - `to` cannot be the zero address. - the caller must have a balance of at least `amount`."
      },
      "transferFrom(address,address,uint256)": {
        "details": "See {IERC20-transferFrom}. Emits an {Approval} event indicating the updated allowance. This is not required by the EIP. See the note at the beginning of {ERC20}. NOTE: Does not update the allowance if the current allowance is the maximum `uint256`. Requirements: - `from` and `to` cannot be the zero address. - `from` must have a balance of at least `amount`. - the caller must have allowance for ``from``'s tokens of at least `amount`."
      },
      "transferOwnership(address)": {
        "details": "Transfers ownership of the contract to a new account (`newOwner`). Can only be called by the current owner."
      },
      "updateEmissionRate(uint256)": {
        "params": {
          "_premium": "premium given to liquidity providers"
        }
      }
    },
    "title": "Reinsurance Pool",
    "version": 1
  },
  "userdoc": {
    "kind": "user",
    "methods": {
      "calculateReward(uint256,uint256)": {
        "notice": "Returns the to be rewarded by reinsurance pool"
      },
      "endLiquidationPeriod()": {
        "notice": "terminate liquidation period on reinsurance pool only"
      },
      "moveLiquidity(uint256,uint256)": {
        "notice": "Move liquidity to another pool to be used for reinsurance, reducing gas costs during liquidation period."
      },
      "pauseReinsurancePool(bool)": {
        "notice": "Sets paused state of the reinsurance pool"
      },
      "poolInfo()": {
        "notice": "returns pool information"
      },
      "provideLiquidity(uint256,address)": {
        "notice": "mints liquidity tokens. Only callable through policyCenter"
      },
      "removeLiquidity(uint256,address)": {
        "notice": "burns liquidity tokens. Only callable through policyCenter"
      },
      "updateEmissionRate(uint256)": {
        "notice": "Update emission rate based on new premium comission to liquidity providers"
      },
      "updateRewards()": {
        "notice": "Called when liqudity is provided, removed or coverage is bought. updates all state variables to reflect current reward emission."
      }
    },
    "notice": "This is the reinsurance pool contract for degis Protocol Protection         Users can provide liquidity to it through the Policy Center.         If the insurance pool is unable to fulfil the insurance, the reinsurance pool         will be able to provide the insurance to the user.",
    "version": 1
  },
  "storageLayout": {
    "storage": [
      {
        "astId": 8875,
        "contract": "src/pools/ReinsurancePool.sol:ReinsurancePool",
        "label": "_balances",
        "offset": 0,
        "slot": "0",
        "type": "t_mapping(t_address,t_uint256)"
      },
      {
        "astId": 8881,
        "contract": "src/pools/ReinsurancePool.sol:ReinsurancePool",
        "label": "_allowances",
        "offset": 0,
        "slot": "1",
        "type": "t_mapping(t_address,t_mapping(t_address,t_uint256))"
      },
      {
        "astId": 8883,
        "contract": "src/pools/ReinsurancePool.sol:ReinsurancePool",
        "label": "_totalSupply",
        "offset": 0,
        "slot": "2",
        "type": "t_uint256"
      },
      {
        "astId": 8885,
        "contract": "src/pools/ReinsurancePool.sol:ReinsurancePool",
        "label": "_name",
        "offset": 0,
        "slot": "3",
        "type": "t_string_storage"
      },
      {
        "astId": 8887,
        "contract": "src/pools/ReinsurancePool.sol:ReinsurancePool",
        "label": "_symbol",
        "offset": 0,
        "slot": "4",
        "type": "t_string_storage"
      },
      {
        "astId": 16149,
        "contract": "src/pools/ReinsurancePool.sol:ReinsurancePool",
        "label": "insurancePoolFactory",
        "offset": 0,
        "slot": "5",
        "type": "t_address"
      },
      {
        "astId": 16151,
        "contract": "src/pools/ReinsurancePool.sol:ReinsurancePool",
        "label": "policyCenter",
        "offset": 0,
        "slot": "6",
        "type": "t_address"
      },
      {
        "astId": 16153,
        "contract": "src/pools/ReinsurancePool.sol:ReinsurancePool",
        "label": "incidentReport",
        "offset": 0,
        "slot": "7",
        "type": "t_address"
      },
      {
        "astId": 16364,
        "contract": "src/pools/ReinsurancePool.sol:ReinsurancePool",
        "label": "_owner",
        "offset": 0,
        "slot": "8",
        "type": "t_address"
      },
      {
        "astId": 15514,
        "contract": "src/pools/ReinsurancePool.sol:ReinsurancePool",
        "label": "insurancePoolLiquidated",
        "offset": 20,
        "slot": "8",
        "type": "t_bool"
      },
      {
        "astId": 15516,
        "contract": "src/pools/ReinsurancePool.sol:ReinsurancePool",
        "label": "paused",
        "offset": 21,
        "slot": "8",
        "type": "t_bool"
      },
      {
        "astId": 15518,
        "contract": "src/pools/ReinsurancePool.sol:ReinsurancePool",
        "label": "maxCapacity",
        "offset": 0,
        "slot": "9",
        "type": "t_uint256"
      },
      {
        "astId": 15520,
        "contract": "src/pools/ReinsurancePool.sol:ReinsurancePool",
        "label": "startTime",
        "offset": 0,
        "slot": "10",
        "type": "t_uint256"
      },
      {
        "astId": 15522,
        "contract": "src/pools/ReinsurancePool.sol:ReinsurancePool",
        "label": "accumulatedRewardPerShare",
        "offset": 0,
        "slot": "11",
        "type": "t_uint256"
      },
      {
        "astId": 15524,
        "contract": "src/pools/ReinsurancePool.sol:ReinsurancePool",
        "label": "lastRewardTimestamp",
        "offset": 0,
        "slot": "12",
        "type": "t_uint256"
      },
      {
        "astId": 15526,
        "contract": "src/pools/ReinsurancePool.sol:ReinsurancePool",
        "label": "emissionEndTime",
        "offset": 0,
        "slot": "13",
        "type": "t_uint256"
      },
      {
        "astId": 15528,
        "contract": "src/pools/ReinsurancePool.sol:ReinsurancePool",
        "label": "emissionRate",
        "offset": 0,
        "slot": "14",
        "type": "t_uint256"
      }
    ],
    "types": {
      "t_address": {
        "encoding": "inplace",
        "label": "address",
        "numberOfBytes": "20"
      },
      "t_bool": {
        "encoding": "inplace",
        "label": "bool",
        "numberOfBytes": "1"
      },
      "t_mapping(t_address,t_mapping(t_address,t_uint256))": {
        "encoding": "mapping",
        "key": "t_address",
        "label": "mapping(address => mapping(address => uint256))",
        "numberOfBytes": "32",
        "value": "t_mapping(t_address,t_uint256)"
      },
      "t_mapping(t_address,t_uint256)": {
        "encoding": "mapping",
        "key": "t_address",
        "label": "mapping(address => uint256)",
        "numberOfBytes": "32",
        "value": "t_uint256"
      },
      "t_string_storage": {
        "encoding": "bytes",
        "label": "string",
        "numberOfBytes": "32"
      },
      "t_uint256": {
        "encoding": "inplace",
        "label": "uint256",
        "numberOfBytes": "32"
      }
    }
  }
}