{
  "address": "0xC7D01ac8fC2a23cE4A43b6c74e860931a0CFfAdF",
  "abi": [
    {
      "inputs": [
        {
          "internalType": "address",
          "name": "_premiumRewardPool",
          "type": "address"
        }
      ],
      "stateMutability": "nonpayable",
      "type": "constructor"
    },
    {
      "anonymous": false,
      "inputs": [
        {
          "indexed": false,
          "internalType": "uint256",
          "name": "poolId",
          "type": "uint256"
        },
        {
          "indexed": false,
          "internalType": "address",
          "name": "user",
          "type": "address"
        },
        {
          "indexed": false,
          "internalType": "address",
          "name": "receiver",
          "type": "address"
        },
        {
          "indexed": false,
          "internalType": "uint256",
          "name": "reward",
          "type": "uint256"
        }
      ],
      "name": "Harvest",
      "type": "event"
    },
    {
      "anonymous": false,
      "inputs": [
        {
          "indexed": false,
          "internalType": "uint256",
          "name": "poolId",
          "type": "uint256"
        },
        {
          "indexed": false,
          "internalType": "address",
          "name": "token",
          "type": "address"
        },
        {
          "indexed": false,
          "internalType": "uint256",
          "name": "weight",
          "type": "uint256"
        }
      ],
      "name": "NewTokenAdded",
      "type": "event"
    },
    {
      "anonymous": false,
      "inputs": [
        {
          "indexed": false,
          "internalType": "uint256",
          "name": "poolId",
          "type": "uint256"
        },
        {
          "indexed": false,
          "internalType": "address",
          "name": "token",
          "type": "address"
        }
      ],
      "name": "PoolAdded",
      "type": "event"
    },
    {
      "anonymous": false,
      "inputs": [
        {
          "indexed": false,
          "internalType": "uint256",
          "name": "poolId",
          "type": "uint256"
        },
        {
          "indexed": false,
          "internalType": "uint256",
          "name": "accRewardPerShare",
          "type": "uint256"
        }
      ],
      "name": "PoolUpdated",
      "type": "event"
    },
    {
      "anonymous": false,
      "inputs": [
        {
          "indexed": false,
          "internalType": "uint256",
          "name": "poolId",
          "type": "uint256"
        }
      ],
      "name": "WeightChanged",
      "type": "event"
    },
    {
      "inputs": [],
      "name": "BASE_WEIGHT",
      "outputs": [
        {
          "internalType": "uint256",
          "name": "",
          "type": "uint256"
        }
      ],
      "stateMutability": "view",
      "type": "function"
    },
    {
      "inputs": [],
      "name": "SCALE",
      "outputs": [
        {
          "internalType": "uint256",
          "name": "",
          "type": "uint256"
        }
      ],
      "stateMutability": "view",
      "type": "function"
    },
    {
      "inputs": [
        {
          "internalType": "address",
          "name": "_rewardToken",
          "type": "address"
        }
      ],
      "name": "addPool",
      "outputs": [],
      "stateMutability": "nonpayable",
      "type": "function"
    },
    {
      "inputs": [
        {
          "internalType": "uint256",
          "name": "_id",
          "type": "uint256"
        },
        {
          "internalType": "address",
          "name": "_token",
          "type": "address"
        },
        {
          "internalType": "uint256",
          "name": "_weight",
          "type": "uint256"
        }
      ],
      "name": "addToken",
      "outputs": [],
      "stateMutability": "nonpayable",
      "type": "function"
    },
    {
      "inputs": [],
      "name": "counter",
      "outputs": [
        {
          "internalType": "uint256",
          "name": "",
          "type": "uint256"
        }
      ],
      "stateMutability": "view",
      "type": "function"
    },
    {
      "inputs": [
        {
          "internalType": "uint256",
          "name": "_id",
          "type": "uint256"
        },
        {
          "internalType": "address",
          "name": "_token",
          "type": "address"
        },
        {
          "internalType": "uint256",
          "name": "_amount",
          "type": "uint256"
        },
        {
          "internalType": "address",
          "name": "_user",
          "type": "address"
        }
      ],
      "name": "deposit",
      "outputs": [],
      "stateMutability": "nonpayable",
      "type": "function"
    },
    {
      "inputs": [
        {
          "internalType": "uint256",
          "name": "_id",
          "type": "uint256"
        },
        {
          "internalType": "address",
          "name": "_token",
          "type": "address"
        },
        {
          "internalType": "uint256",
          "name": "_amount",
          "type": "uint256"
        },
        {
          "internalType": "address",
          "name": "_user",
          "type": "address"
        }
      ],
      "name": "depositFromPolicyCenter",
      "outputs": [],
      "stateMutability": "nonpayable",
      "type": "function"
    },
    {
      "inputs": [
        {
          "internalType": "uint256",
          "name": "_id",
          "type": "uint256"
        },
        {
          "internalType": "address",
          "name": "_to",
          "type": "address"
        }
      ],
      "name": "harvest",
      "outputs": [],
      "stateMutability": "nonpayable",
      "type": "function"
    },
    {
      "inputs": [
        {
          "internalType": "uint256",
          "name": "_id",
          "type": "uint256"
        },
        {
          "internalType": "address",
          "name": "_user",
          "type": "address"
        }
      ],
      "name": "pendingReward",
      "outputs": [
        {
          "internalType": "uint256",
          "name": "pending",
          "type": "uint256"
        }
      ],
      "stateMutability": "view",
      "type": "function"
    },
    {
      "inputs": [],
      "name": "policyCenter",
      "outputs": [
        {
          "internalType": "address",
          "name": "",
          "type": "address"
        }
      ],
      "stateMutability": "view",
      "type": "function"
    },
    {
      "inputs": [
        {
          "internalType": "uint256",
          "name": "",
          "type": "uint256"
        }
      ],
      "name": "pools",
      "outputs": [
        {
          "internalType": "uint256",
          "name": "shares",
          "type": "uint256"
        },
        {
          "internalType": "address",
          "name": "rewardToken",
          "type": "address"
        },
        {
          "internalType": "uint256",
          "name": "lastRewardTimestamp",
          "type": "uint256"
        },
        {
          "internalType": "uint256",
          "name": "accRewardPerShare",
          "type": "uint256"
        }
      ],
      "stateMutability": "view",
      "type": "function"
    },
    {
      "inputs": [],
      "name": "premiumRewardPool",
      "outputs": [
        {
          "internalType": "address",
          "name": "",
          "type": "address"
        }
      ],
      "stateMutability": "view",
      "type": "function"
    },
    {
      "inputs": [
        {
          "internalType": "address",
          "name": "_policyCenter",
          "type": "address"
        }
      ],
      "name": "setPolicyCenter",
      "outputs": [],
      "stateMutability": "nonpayable",
      "type": "function"
    },
    {
      "inputs": [
        {
          "internalType": "uint256",
          "name": "_id",
          "type": "uint256"
        },
        {
          "internalType": "uint256[]",
          "name": "_weights",
          "type": "uint256[]"
        }
      ],
      "name": "setWeight",
      "outputs": [],
      "stateMutability": "nonpayable",
      "type": "function"
    },
    {
      "inputs": [
        {
          "internalType": "bytes32",
          "name": "",
          "type": "bytes32"
        }
      ],
      "name": "supported",
      "outputs": [
        {
          "internalType": "bool",
          "name": "",
          "type": "bool"
        }
      ],
      "stateMutability": "view",
      "type": "function"
    },
    {
      "inputs": [
        {
          "internalType": "uint256",
          "name": "_id",
          "type": "uint256"
        }
      ],
      "name": "updatePool",
      "outputs": [],
      "stateMutability": "nonpayable",
      "type": "function"
    },
    {
      "inputs": [
        {
          "internalType": "uint256",
          "name": "_id",
          "type": "uint256"
        },
        {
          "internalType": "uint256",
          "name": "_newSpeed",
          "type": "uint256"
        },
        {
          "internalType": "uint256[]",
          "name": "_years",
          "type": "uint256[]"
        },
        {
          "internalType": "uint256[]",
          "name": "_months",
          "type": "uint256[]"
        }
      ],
      "name": "updateRewardSpeed",
      "outputs": [],
      "stateMutability": "nonpayable",
      "type": "function"
    },
    {
      "inputs": [
        {
          "internalType": "uint256",
          "name": "_id",
          "type": "uint256"
        },
        {
          "internalType": "address",
          "name": "_token",
          "type": "address"
        },
        {
          "internalType": "uint256",
          "name": "_newWeight",
          "type": "uint256"
        }
      ],
      "name": "updateWeight",
      "outputs": [],
      "stateMutability": "nonpayable",
      "type": "function"
    },
    {
      "inputs": [
        {
          "internalType": "uint256",
          "name": "",
          "type": "uint256"
        },
        {
          "internalType": "address",
          "name": "",
          "type": "address"
        }
      ],
      "name": "users",
      "outputs": [
        {
          "internalType": "uint256",
          "name": "share",
          "type": "uint256"
        },
        {
          "internalType": "uint256",
          "name": "rewardDebt",
          "type": "uint256"
        }
      ],
      "stateMutability": "view",
      "type": "function"
    },
    {
      "inputs": [
        {
          "internalType": "uint256",
          "name": "_id",
          "type": "uint256"
        },
        {
          "internalType": "address",
          "name": "_token",
          "type": "address"
        },
        {
          "internalType": "uint256",
          "name": "_amount",
          "type": "uint256"
        }
      ],
      "name": "withdraw",
      "outputs": [],
      "stateMutability": "nonpayable",
      "type": "function"
    },
    {
      "inputs": [
        {
          "internalType": "uint256",
          "name": "_id",
          "type": "uint256"
        },
        {
          "internalType": "address",
          "name": "_token",
          "type": "address"
        },
        {
          "internalType": "uint256",
          "name": "_amount",
          "type": "uint256"
        },
        {
          "internalType": "address",
          "name": "_user",
          "type": "address"
        }
      ],
      "name": "withdrawFromPolicyCenter",
      "outputs": [],
      "stateMutability": "nonpayable",
      "type": "function"
    }
  ],
  "transactionHash": "0xf8dc46f6efaedf87ece06056e83dfaf91634c98bfe7608e3b5a44809eb0dd24b",
  "args": [
    "0x903372bCa5c7c264e419BeB9a4Bcd3B4B1770d9d"
  ],
  "numDeployments": 1,
  "solcInputHash": "62b44c09cd02ce1fee5fae4282e4d8a8",
  "bytecode": "0x60803461007457601f61214938819003918201601f19168301916001600160401b038311848410176100795780849260209460405283398101031261007457516001600160a01b0381169081900361007457600080546001600160a01b0319169190911790556040516120b990816100908239f35b600080fd5b634e487b7160e01b600052604160045260246000fdfe6040608081526004908136101561001557600080fd5b600091823560e01c806318fccc761461098e5780632dd57bb014610957578063341922c11461087457806351eb05a6146108585780635a1635e41461082757806361bc221a146108085780637193f2f0146107dc57806398969e82146106a0578063a4b590941461058b578063a606a60714610563578063ac4afa3814610510578063b425f926146104df578063b9d02df414610492578063c65323f11461043a578063cd88af6e146103a5578063d914cd4b14610307578063e16fd0ec146102ea578063e63697c8146102cc578063e8adbf2f146102a3578063eced55261461027f5763ffb7cf621461010857600080fd5b3461027b5761011636610b9b565b919284516020918282019186835260018060a01b0392838616956bffffffffffffffffffffffff199060601b16898301526034825260608201908282106001600160401b0383111761026857818a528251902091828b526006865260ff8a8c205416610234575050885260068352868820805460ff1916600117905585885260038352868820805491600160401b831015610221575091846101e5837fd7856221235dd5b0aca9663e69d6d13572bcc04b1bb87358b1ef62a23cc09e6a999795600160609a9896018155610cba565b909283549160031b90811b9283911b1691191617905583885260038152610211836002898b2001610ce8565b865193845283015284820152a151f35b634e487b7160e01b8a5260419052602489fd5b9070105b1c9958591e481cdd5c1c1bdc9d1959607a1b60a46064938862461bcd60e51b855285820152601160848201520152fd5b634e487b7160e01b8b526041845260248bfd5b8280fd5b50503461029f578160031936011261029f576020905164e8d4a510008152f35b5080fd5b50503461029f578160031936011261029f5760015490516001600160a01b039091168152602090f35b50503461029f576102e76102df36610b9b565b903392610fb8565b51f35b50503461029f578160031936011261029f57602090516127108152f35b503461027b57602036600319011261027b57610321610ab0565b60025460001981146103925760010160028190558085526003602090815284862090930180546001600160a01b0319166001600160a01b0390931692831790558351908152918201527f1f1f6396247a5ba59b7b1e094ec3a8e439d4dace0c5ac4fe3ecfde3e68e03a8a908290a151f35b634e487b7160e01b855260118352602485fd5b503461027b5760206103c99160646103bc36610b63565b9082819694989398610e42565b86865195869485936323b872dd60e01b85523390850152306024850152604484015260018060a01b03165af1801561042e57610403575051f35b6104239060203d8111610427575b61041b8183610ac6565b810190610d8a565b5051f35b503d610411565b505051903d90823e3d90fd5b50503461029f576102e761046461047761045336610b9b565b939061045e83611157565b82611fdc565b9086526003602052600285872001610cba565b90919082549060031b600019811b9283911b16911916179055565b503461027b578160031936011261027b579181926104ae610a95565b9035825260056020528282209060018060a01b03168252602052206002600182015491015482519182526020820152f35b50503461029f576102e76104f236610b63565b9261050b60018060a09594951b03600154163314610d2b565b610e42565b50903461027b57602036600319011261027b57806080938335815260036020522060038101549260018060a01b039082015416916006600583015492015492815194855260208501528301526060820152f35b50503461029f578160031936011261029f57905490516001600160a01b039091168152602090f35b503461027b578160031936011261027b578035906001600160401b03906024803583811161069c573660238201121561069c578083013593841161069c57600592368386861b8401011161069857858852600360205260028789200190815486036106605750875b8581106106295788887f61378e0f43f3c62e317cdbe9d6bf50295ceba5fb596196f5c109302ee750b4a760208a8351908152a151f35b8061065a61063960019385610cba565b87848a1b880101359082549060031b600019811b9283911b16911916179055565b016105f3565b60649060138560208b519362461bcd60e51b8552840152820152720aee4dedcce40eecad2ced0e840d8cadccee8d606b1b6044820152fd5b8780fd5b8680fd5b503461027b578160031936011261027b578035926106bc610a95565b848252602094600386528483209185519260e08401926001600160401b0393858110858211176107c95788526106f182610bc5565b85526106ff60018301610c1f565b8986015261070f60028301610c1f565b888601526003820154606086015260c0600660018060a01b0393848a820154166080890152600581015460a089015201549501948552855260058852868520911684528652848320928551946060860192868410908411176107b65750506107af939264e8d4a51000926107a692875261078882610c1f565b8552866002600184015493848b890152015495019485525190610c9c565b04905190610caf565b9051908152f35b634e487b7160e01b825260419052602490fd5b634e487b7160e01b875260418852602487fd5b503461027b57602036600319011261027b578160209360ff923581526006855220541690519015158152f35b50503461029f578160031936011261029f576020906002549051908152f35b50503461029f576102e761083a36610b63565b9261085360018060a09594951b03600154163314610d2b565b610fb8565b503461027b57602036600319011261027b576102e79035611157565b503461027b57608036600319011261027b57803590602435906001600160401b039060443582811161069c576108ad9036908301610afd565b9160643590811161069c576108c59036908301610afd565b91805183510361092557805194875b8681106108e057888851f35b600190828a526020858152898b206108f88387610d0b565b518c528152898b209061090b8389610d0b565b518c5252888a2061091d888254610d1f565b9055016108d4565b855162461bcd60e51b8152602081840152600c60248201526b0aee4dedcce40d8cadccee8d60a31b6044820152606490fd5b50503461029f57602036600319011261029f576001600160a01b0361097a610ab0565b1660018060a01b0319600154161760015551f35b503461027b578160031936011261027b576109f88135916109ad610a95565b906109b784611157565b8386526003602052848620916005602052858720338852602052858720946001860192835494610a046002600683019764e8d4a51000998a918a5490610c9c565b04990198895490610caf565b918215610a5e570154610a589594936000805160206120648339815191529390929091610a4c91610a3f9185906001600160a01b0316611cb0565b8a51938493339085610e1a565b0390a154905490610c9c565b04905551f35b60649060208b519162461bcd60e51b83528201526011602482015270139bc81c195b991a5b99c81c995dd85c99607a1b6044820152fd5b602435906001600160a01b0382168203610aab57565b600080fd5b600435906001600160a01b0382168203610aab57565b90601f801991011681019081106001600160401b03821117610ae757604052565b634e487b7160e01b600052604160045260246000fd5b9080601f83011215610aab578135906001600160401b038211610ae7578160051b60405193602093610b3185840187610ac6565b85528380860192820101928311610aab578301905b828210610b54575050505090565b81358152908301908301610b46565b6080906003190112610aab57600435906001600160a01b036024358181168103610aab5791604435916064359081168103610aab5790565b6060906003190112610aab57600435906024356001600160a01b0381168103610aab579060443590565b9060405191828154918282526020928383019160005283600020936000905b828210610bfc57505050610bfa92500383610ac6565b565b85546001600160a01b031684526001958601958895509381019390910190610be4565b9060405191828154918282526020928383019160005283600020936000905b828210610c5457505050610bfa92500383610ac6565b855484526001958601958895509381019390910190610c3e565b62015180908060001904821181151516610c86570290565b634e487b7160e01b600052601160045260246000fd5b8060001904821181151516610c86570290565b818110610c86570390565b8054821015610cd25760005260206000200190600090565b634e487b7160e01b600052603260045260246000fd5b80549190600160401b831015610ae75782610477916001610bfa95018155610cba565b8051821015610cd25760209160051b010190565b81198111610c86570190565b15610d3257565b60405162461bcd60e51b815260206004820152602a60248201527f4f6e6c7920706f6c69637943656e7465722063616e2063616c6c207374616b65604482015269644c697175696469747960b01b6064820152608490fd5b90816020910312610aab57518015158103610aab5790565b15610da957565b60405162461bcd60e51b815260206004820152600b60248201526a16995c9bc8185b5bdd5b9d60aa1b6044820152606490fd5b15610de357565b60405162461bcd60e51b815260206004820152600f60248201526e506f6f6c206e6f742065786973747360881b6044820152606490fd5b9081526001600160a01b03918216602082015291166040820152606081019190915260800190565b909192831515610e5190610da2565b600254821115610e6090610ddc565b610e6982611157565b8160005260036020526040600020936005602052604060002091600160a01b600190039283821660005260205260406000209586816001820194855483811515610eed610edf60029d64e8d4a510009d610f3d9d60069c610f329b610f2b9b610f1e9a610f1699610f52575b5050505050611fdc565b8381945415610f4357610cba565b610efd8683548360031b1c610d1f565b9082549060031b600019811b9283911b16911916179055565b8a8601610cba565b90549060031b1c90610c9c565b8454610d1f565b809355015490610c9c565b04910155565b610f4d8282610ce8565b610cba565b60029464e8d4a510006006610f999560008051602061206483398151915298600493610f868a97610f90958a015490610c9c565b0491015490610caf565b93015416611cb0565b90610fab604051928284938785610e1a565b0390a13880878d82610ed5565b9190610fc5821515610da2565b610fd3600254841115610ddc565b610fdc83611157565b826000526003602052604092611050846000209460056020528060002060018060a01b038816600052602052602085826000209860018a01548a8a826110f9575b5050845163a9059cbb60e01b81526001600160a01b03909216600483015250602481019190915292839081906044820190565b038160006001600160a01b0389165af19081156110ef57506110b764e8d4a5100095610f1e611092610f3d9760029a976006976110c1976110d0575b50611fdc565b6110af61109f828d610cba565b610efd8683548360031b1c610caf565b898701610cba565b6001880154610caf565b91826001880155015490610c9c565b6110e89060203d6020116104275761041b8183610ac6565b503861108c565b513d6000823e3d90fd5b61112961114c92600264e8d4a51000610f8660008051602061206483398151915297600661113e97015490610c9c565b60048d015485906001600160a01b0316611cb0565b865191829185808c85610e1a565b0390a1388a8a61101d565b806000526003602052604060002090600582015442111561165d576003820154156116545760009060406000209160058301546111af611196826118c8565b9093919084906111a5426118c8565b5095909686610caf565b806112ee5750505050916111f9916111cb6111ff959442610caf565b9186600052600460205260406000209060005260205260406000209060005260205260406000205490610c9c565b90610d1f565b915b600054600491909101546001600160a01b039081169116803b15610aab57604051630595397d60e31b81526001600160a01b03929092166004830152602482018490526000908290604490829084905af180156112e2576112cb575b5060038301549182156112b5578361129f60409460067f7fa9647ec1cc14e3822b46d05a2b9d4e019bde8875c0088c46b6503d71bf1722970193048354610d1f565b80925560054291015582519182526020820152a1565b634e487b7160e01b600052601260045260246000fd5b6001600160401b038111610ae7576040523861125d565b6040513d6000823e3d90fd5b93979695509350989096976000945b6001198411610c865760018401861015611644578561146f576107b28910610aab57617d4b600160ff1b018512600116610c86576113db6113d66113d18b60048f60646113c46113ca928d6113726113be6113b861138a61135d8b6116d6565b948a61137e611379600c98896113728c611661565b0590611734565b61175f565b0590617d4a1901611734565b846113726113b361139a89611679565b6113ad846113a78c611661565b056117c3565b906116ad565b611828565b98611705565b92611661565b05611878565b05906116ad565b611691565b610c6e565b62014370198111610c8657610dd41962014370820111610c8657603b1962015144820111610c86576001916111f98d61141c8c6201517f61144b9601610caf565b908b60005260046020528d60406000209060005260205260406000209060005260205260406000205490610c9c565b9a5b0194600c8611611462575b60010194996112fd565b6001988901989550611458565b85840361151a576107b28910610aab5760046114966113798d600c6113726113be8f6116d6565b05617d4a600160ff1b018112600116610c86576001916111f98d61141c61150e6113d68f6113d19060046113ca60646113c46115036114fd6115149e600c6114f16113b38f6113ad846113a76114eb84611679565b93611661565b0590617d491901611734565b95611705565b600c6113728c611661565b42610caf565b9a61144d565b60018b14801561163a575b8015611630575b8015611626575b801561161c575b8015611612575b8015611608575b156115b657601f5b7dc22e450672894ab6cd8efb11d33f5617839a5bc7dea00c22e450672894ab8111600116610c86576001916111f9611514928e8b60005260046020528d604060002090600052602052604060002090600052602052604060002054906201518002610c9c565b60028b146115c557601e611550565b6003891615806115fc575b80156115f0575b156115e75760ff601d5b16611550565b60ff601c6115e1565b506101908906156115d7565b506064890615156115d0565b50600c8b14611548565b50600a8b14611541565b5060088b1461153a565b5060078b14611533565b5060058b1461152c565b5060038b14611525565b9750979495509750505050611201565b50600542910155565b5050565b600e600160ff1b018112600116610c8657600d190190565b6002600160ff1b018112600116610c86576001190190565b62253d8c600160ff1b018112600116610c865762253d8b190190565b600082128015600160ff1b8401831216610c86576001600160ff1b038301821316610c86570390565b6112c0906000811280156001600160ff1b03839003841316610c8657600160ff1b829003831216610c86570190565b611324906000811280156001600160ff1b03839003841316610c8657600160ff1b829003831216610c86570190565b6000811280156001600160ff1b03839003841316610c8657600160ff1b829003831216610c86570190565b6105b560008083136001600160ff1b038490048311166001166117af5760017fffe9924f8d0dd7b2e6f174df9576f9de01c091c8faeb2605f522de8852b47aa8841282851216166117af57500290565b634e487b7160e01b81526011600452602490fd5b600060017f0aaaaaaaaaaaaaaaaaaaaaaaaaaaaaaaaaaaaaaaaaaaaaaaaaaaaaaaaaaaaaaa831182841316166117af5760017ff555555555555555555555555555555555555555555555555555555555555556831282841216166117af5750600c0290565b61016f60008083136001600160ff1b038490048311166001166117af5760017fffa6b6c1eb12d573186a06f9b8d9a287530217b7747d8eff4d6d83d625aae631841282851216166117af57500290565b60008082136001600160ff1b03839004600311166001166117af5760017fd555555555555555555555555555555555555555555555555555555555555556831282841216166117af575060030290565b6001600160ff1b039060009062010bd990620151809004828112818503811581851316611c9c57600160ff1b938385039283821216611c885785908401129162010bd819908162253d8c93018313841516611c7457011316611c60576226496501916001936004918585830484118287131616611c4d57808512600760fd1b8612168616611c4d5762023ab194858160021b05958787850482118489131616611c2757877fffffc694f94337079d130ab45dff8e0f9ea161331bb1c93dea871de6fec83ce288128489121616611c27578602828112818503600313811516611c3a5781870360031216611c2757908460036119c5930105906116ad565b928184128484038813811516611bdb57848603881216611bc857868401610fa08882860482118584131616611bee57887ffff7ced916872b020c49ba5e353f7ced916872b020c49ba5e353f7ced916872c83128584121616611bee57611a379162164b0991020594826113ca8761175f565b828112818503601f13811516611bee57818703601f1216611bdb57601f019680888504605011848a131616611bdb57807ffe666666666666666666666666666666666666666666666666666666666666678912848a121616611bdb5761098f9788816050020590828287048b118684131616611c145784821299837ffff29be1739a4fb805dbcd5d6c7d1f7d6fd627208942391f124ee1c3f307026884128c1616611c015790605083611aec930205906116ad565b98600b820597828703600213821516611c015782900360021216611bee5781878604600c118589131616611bee57817ff55555555555555555555555555555555555555555555555555555555555555688128589121616611bee57611b5890600288600c0291016116ad565b966031600160ff1b0181128216611bee578190603019018095046064118486131616611bdb577ffeb851eb851eb851eb851eb851eb851eb851eb851eb851eb851eb851eb851eb984128385121616611bc8575050611bc29291611bbd91606402611734565b611734565b91909192565b634e487b7160e01b825260119052602490fd5b634e487b7160e01b835260118252602483fd5b634e487b7160e01b845260118352602484fd5b634e487b7160e01b865260118552602486fd5b634e487b7160e01b855260118452602485fd5b634e487b7160e01b835260118552602483fd5b634e487b7160e01b845260118652602484fd5b634e487b7160e01b815260118352602490fd5b634e487b7160e01b83526011600452602483fd5b634e487b7160e01b87526011600452602487fd5b634e487b7160e01b86526011600452602486fd5b634e487b7160e01b85526011600452602485fd5b604080516370a0823160e01b81523060048201526001600160a01b0390921694936020936024939091858286818b5afa918215611ef157600092611ebf575b508115611e8d5781811115611e855750955b825163a9059cbb60e01b8682019081526001600160a01b039093168582019081526020810189905281906040010391611d42601f1993848101845283610ac6565b8451936001600160401b039285870184811187821017611e705787528886527f5361666545524332303a206c6f772d6c6576656c2063616c6c206661696c6564868a01525160009182919082855af1913d15611e60573d908111611e4b5790611dc994939291611dbb89885195601f8401160185610ac6565b83523d60008985013e611efc565b80519081611dd9575b5050505050565b8480611de9938301019101610d8a565b15611df5578080611dd2565b5162461bcd60e51b81526004810192909252602a908201527f5361666545524332303a204552433230206f7065726174696f6e20646964206e6044820152691bdd081cdd58d8d9595960b21b6064820152608490fd5b86634e487b7160e01b60005260416004526000fd5b5090611dc9939250606091611efc565b88634e487b7160e01b60005260416004526000fd5b905095611d01565b835162461bcd60e51b815260048101879052600c818701526b5a65726f2062616c616e636560a01b6044820152606490fd5b90918682813d8311611eea575b611ed68183610ac6565b81010312611ee75750519038611cef565b80fd5b503d611ecc565b84513d6000823e3d90fd5b91929015611f5e5750815115611f10575090565b3b15611f195790565b60405162461bcd60e51b815260206004820152601d60248201527f416464726573733a2063616c6c20746f206e6f6e2d636f6e74726163740000006044820152606490fd5b825190915015611f715750805190602001fd5b6040519062461bcd60e51b82528160208060048301528251928360248401526000915b848310611fc3575050918060449311611fb6575b601f01601f19168101030190fd5b6000838284010152611fa8565b8183018101518684016044015285935091820191611f94565b6000526003602052611ff16040600020610bc5565b9081519160005b838111156120375760405162461bcd60e51b815260206004820152600f60248201526e139bdd081a5b881d1a19481c1bdbdb608a1b6044820152606490fd5b6001600160a01b038061204a8385610d0b565b51169084161461205c57600101611ff8565b925050509056fe1ec92956b13869de207e232e60c65e35826c5e12b7fdc6d70b083b5a4fd26703a26469706673582212209c11be57d55445b3190f96c1c787ad65c20813d1333247433396301b48ae7ba664736f6c634300080f0033",
  "devdoc": {
    "kind": "dev",
    "methods": {
      "addPool(address)": {
        "params": {
          "_rewardToken": "Reward token address to be given to users"
        }
      },
      "addToken(uint256,address,uint256)": {
        "params": {
          "_id": "Pool Id",
          "_token": "Cover Right Token address",
          "_weight": "Weight of the token in the pool"
        }
      },
      "pendingReward(uint256,address)": {
        "params": {
          "_id": "Pool id",
          "_user": "User's address to claim the reward"
        }
      },
      "setWeight(uint256,uint256[])": {
        "params": {
          "_id": "Pool Id",
          "_weights": "Array of weights of the tokens in the pool"
        }
      },
      "updateWeight(uint256,address,uint256)": {
        "params": {
          "_id": "Pool Id",
          "_newWeight": "New weight of the token in the pool",
          "_token": "Token address"
        }
      }
    },
    "version": 1
  },
  "userdoc": {
    "kind": "user",
    "methods": {
      "addPool(address)": {
        "notice": "Registers PRI-LP token in Weighted Farming Pool"
      },
      "addToken(uint256,address,uint256)": {
        "notice": "Registers Cover Right Token to a given pool"
      },
      "deposit(uint256,address,uint256,address)": {
        "notice": "Directly deposit (need approval)"
      },
      "depositFromPolicyCenter(uint256,address,uint256,address)": {
        "notice": "Deposit from Policy Center         No need for approval"
      },
      "pendingReward(uint256,address)": {
        "notice": "Return the user's pending reward"
      },
      "setWeight(uint256,uint256[])": {
        "notice": "Sets the weight for a given array of tokens in a given pool"
      },
      "updateWeight(uint256,address,uint256)": {
        "notice": "Updates the weight of a token in a given pool"
      }
    },
    "notice": "Weighted Farming Pool         Weighted farming pool support multiple tokens to earn the same reward         Different tokens will have different weights when calculating rewards         Native token premiums will be transferred to this pool         The distribution is in the way of \"farming\" but with multiple tokens         Different generations of PRI-LP-1-JOE-G1",
    "version": 1
  },
  "storageLayout": {
    "storage": [
      {
        "astId": 20210,
        "contract": "src/reward/WeightedFarmingPool.sol:WeightedFarmingPool",
        "label": "premiumRewardPool",
        "offset": 0,
        "slot": "0",
        "type": "t_address"
      },
      {
        "astId": 20212,
        "contract": "src/reward/WeightedFarmingPool.sol:WeightedFarmingPool",
        "label": "policyCenter",
        "offset": 0,
        "slot": "1",
        "type": "t_address"
      },
      {
        "astId": 20214,
        "contract": "src/reward/WeightedFarmingPool.sol:WeightedFarmingPool",
        "label": "counter",
        "offset": 0,
        "slot": "2",
        "type": "t_uint256"
      },
      {
        "astId": 20237,
        "contract": "src/reward/WeightedFarmingPool.sol:WeightedFarmingPool",
        "label": "pools",
        "offset": 0,
        "slot": "3",
        "type": "t_mapping(t_uint256,t_struct(PoolInfo)20232_storage)"
      },
      {
        "astId": 20245,
        "contract": "src/reward/WeightedFarmingPool.sol:WeightedFarmingPool",
        "label": "speed",
        "offset": 0,
        "slot": "4",
        "type": "t_mapping(t_uint256,t_mapping(t_uint256,t_mapping(t_uint256,t_uint256)))"
      },
      {
        "astId": 20260,
        "contract": "src/reward/WeightedFarmingPool.sol:WeightedFarmingPool",
        "label": "users",
        "offset": 0,
        "slot": "5",
        "type": "t_mapping(t_uint256,t_mapping(t_address,t_struct(UserInfo)20253_storage))"
      },
      {
        "astId": 20264,
        "contract": "src/reward/WeightedFarmingPool.sol:WeightedFarmingPool",
        "label": "supported",
        "offset": 0,
        "slot": "6",
        "type": "t_mapping(t_bytes32,t_bool)"
      }
    ],
    "types": {
      "t_address": {
        "encoding": "inplace",
        "label": "address",
        "numberOfBytes": "20"
      },
      "t_array(t_address)dyn_storage": {
        "base": "t_address",
        "encoding": "dynamic_array",
        "label": "address[]",
        "numberOfBytes": "32"
      },
      "t_array(t_uint256)dyn_storage": {
        "base": "t_uint256",
        "encoding": "dynamic_array",
        "label": "uint256[]",
        "numberOfBytes": "32"
      },
      "t_bool": {
        "encoding": "inplace",
        "label": "bool",
        "numberOfBytes": "1"
      },
      "t_bytes32": {
        "encoding": "inplace",
        "label": "bytes32",
        "numberOfBytes": "32"
      },
      "t_mapping(t_address,t_struct(UserInfo)20253_storage)": {
        "encoding": "mapping",
        "key": "t_address",
        "label": "mapping(address => struct WeightedFarmingPool.UserInfo)",
        "numberOfBytes": "32",
        "value": "t_struct(UserInfo)20253_storage"
      },
      "t_mapping(t_bytes32,t_bool)": {
        "encoding": "mapping",
        "key": "t_bytes32",
        "label": "mapping(bytes32 => bool)",
        "numberOfBytes": "32",
        "value": "t_bool"
      },
      "t_mapping(t_uint256,t_mapping(t_address,t_struct(UserInfo)20253_storage))": {
        "encoding": "mapping",
        "key": "t_uint256",
        "label": "mapping(uint256 => mapping(address => struct WeightedFarmingPool.UserInfo))",
        "numberOfBytes": "32",
        "value": "t_mapping(t_address,t_struct(UserInfo)20253_storage)"
      },
      "t_mapping(t_uint256,t_mapping(t_uint256,t_mapping(t_uint256,t_uint256)))": {
        "encoding": "mapping",
        "key": "t_uint256",
        "label": "mapping(uint256 => mapping(uint256 => mapping(uint256 => uint256)))",
        "numberOfBytes": "32",
        "value": "t_mapping(t_uint256,t_mapping(t_uint256,t_uint256))"
      },
      "t_mapping(t_uint256,t_mapping(t_uint256,t_uint256))": {
        "encoding": "mapping",
        "key": "t_uint256",
        "label": "mapping(uint256 => mapping(uint256 => uint256))",
        "numberOfBytes": "32",
        "value": "t_mapping(t_uint256,t_uint256)"
      },
      "t_mapping(t_uint256,t_struct(PoolInfo)20232_storage)": {
        "encoding": "mapping",
        "key": "t_uint256",
        "label": "mapping(uint256 => struct WeightedFarmingPool.PoolInfo)",
        "numberOfBytes": "32",
        "value": "t_struct(PoolInfo)20232_storage"
      },
      "t_mapping(t_uint256,t_uint256)": {
        "encoding": "mapping",
        "key": "t_uint256",
        "label": "mapping(uint256 => uint256)",
        "numberOfBytes": "32",
        "value": "t_uint256"
      },
      "t_struct(PoolInfo)20232_storage": {
        "encoding": "inplace",
        "label": "struct WeightedFarmingPool.PoolInfo",
        "members": [
          {
            "astId": 20217,
            "contract": "src/reward/WeightedFarmingPool.sol:WeightedFarmingPool",
            "label": "tokens",
            "offset": 0,
            "slot": "0",
            "type": "t_array(t_address)dyn_storage"
          },
          {
            "astId": 20220,
            "contract": "src/reward/WeightedFarmingPool.sol:WeightedFarmingPool",
            "label": "amount",
            "offset": 0,
            "slot": "1",
            "type": "t_array(t_uint256)dyn_storage"
          },
          {
            "astId": 20223,
            "contract": "src/reward/WeightedFarmingPool.sol:WeightedFarmingPool",
            "label": "weight",
            "offset": 0,
            "slot": "2",
            "type": "t_array(t_uint256)dyn_storage"
          },
          {
            "astId": 20225,
            "contract": "src/reward/WeightedFarmingPool.sol:WeightedFarmingPool",
            "label": "shares",
            "offset": 0,
            "slot": "3",
            "type": "t_uint256"
          },
          {
            "astId": 20227,
            "contract": "src/reward/WeightedFarmingPool.sol:WeightedFarmingPool",
            "label": "rewardToken",
            "offset": 0,
            "slot": "4",
            "type": "t_address"
          },
          {
            "astId": 20229,
            "contract": "src/reward/WeightedFarmingPool.sol:WeightedFarmingPool",
            "label": "lastRewardTimestamp",
            "offset": 0,
            "slot": "5",
            "type": "t_uint256"
          },
          {
            "astId": 20231,
            "contract": "src/reward/WeightedFarmingPool.sol:WeightedFarmingPool",
            "label": "accRewardPerShare",
            "offset": 0,
            "slot": "6",
            "type": "t_uint256"
          }
        ],
        "numberOfBytes": "224"
      },
      "t_struct(UserInfo)20253_storage": {
        "encoding": "inplace",
        "label": "struct WeightedFarmingPool.UserInfo",
        "members": [
          {
            "astId": 20248,
            "contract": "src/reward/WeightedFarmingPool.sol:WeightedFarmingPool",
            "label": "amount",
            "offset": 0,
            "slot": "0",
            "type": "t_array(t_uint256)dyn_storage"
          },
          {
            "astId": 20250,
            "contract": "src/reward/WeightedFarmingPool.sol:WeightedFarmingPool",
            "label": "share",
            "offset": 0,
            "slot": "1",
            "type": "t_uint256"
          },
          {
            "astId": 20252,
            "contract": "src/reward/WeightedFarmingPool.sol:WeightedFarmingPool",
            "label": "rewardDebt",
            "offset": 0,
            "slot": "2",
            "type": "t_uint256"
          }
        ],
        "numberOfBytes": "96"
      },
      "t_uint256": {
        "encoding": "inplace",
        "label": "uint256",
        "numberOfBytes": "32"
      }
    }
  }
}