{
  "address": "0xD2Ffc4a201fE2A21B2257804fe52Af87CD042841",
  "abi": [
    {
      "inputs": [
        {
          "internalType": "address",
          "name": "_policyCenter",
          "type": "address"
        },
        {
          "internalType": "address",
          "name": "_priorityPoolFactory",
          "type": "address"
        }
      ],
      "stateMutability": "nonpayable",
      "type": "constructor"
    },
    {
      "inputs": [],
      "name": "WeightedFarmingPool__AlreadySupported",
      "type": "error"
    },
    {
      "inputs": [],
      "name": "WeightedFarmingPool__InexistentPool",
      "type": "error"
    },
    {
      "inputs": [],
      "name": "WeightedFarmingPool__NoPendingRewards",
      "type": "error"
    },
    {
      "inputs": [],
      "name": "WeightedFarmingPool__NotInPool",
      "type": "error"
    },
    {
      "inputs": [],
      "name": "WeightedFarmingPool__OnlyPolicyCenter",
      "type": "error"
    },
    {
      "inputs": [],
      "name": "WeightedFarmingPool__WrongDateLength",
      "type": "error"
    },
    {
      "inputs": [],
      "name": "WeightedFarmingPool__WrongWeightLength",
      "type": "error"
    },
    {
      "inputs": [],
      "name": "WeightedFarmingPool__ZeroAmount",
      "type": "error"
    },
    {
      "anonymous": false,
      "inputs": [
        {
          "indexed": false,
          "internalType": "uint256",
          "name": "poolId",
          "type": "uint256"
        },
        {
          "indexed": false,
          "internalType": "address",
          "name": "user",
          "type": "address"
        },
        {
          "indexed": false,
          "internalType": "address",
          "name": "receiver",
          "type": "address"
        },
        {
          "indexed": false,
          "internalType": "uint256",
          "name": "reward",
          "type": "uint256"
        }
      ],
      "name": "Harvest",
      "type": "event"
    },
    {
      "anonymous": false,
      "inputs": [
        {
          "indexed": false,
          "internalType": "uint256",
          "name": "poolId",
          "type": "uint256"
        },
        {
          "indexed": false,
          "internalType": "address",
          "name": "token",
          "type": "address"
        },
        {
          "indexed": false,
          "internalType": "uint256",
          "name": "weight",
          "type": "uint256"
        }
      ],
      "name": "NewTokenAdded",
      "type": "event"
    },
    {
      "anonymous": false,
      "inputs": [
        {
          "indexed": false,
          "internalType": "uint256",
          "name": "poolId",
          "type": "uint256"
        },
        {
          "indexed": false,
          "internalType": "address",
          "name": "token",
          "type": "address"
        }
      ],
      "name": "PoolAdded",
      "type": "event"
    },
    {
      "anonymous": false,
      "inputs": [
        {
          "indexed": false,
          "internalType": "uint256",
          "name": "poolId",
          "type": "uint256"
        },
        {
          "indexed": false,
          "internalType": "uint256",
          "name": "accRewardPerShare",
          "type": "uint256"
        }
      ],
      "name": "PoolUpdated",
      "type": "event"
    },
    {
      "anonymous": false,
      "inputs": [
        {
          "indexed": false,
          "internalType": "uint256",
          "name": "poolId",
          "type": "uint256"
        }
      ],
      "name": "WeightChanged",
      "type": "event"
    },
    {
      "inputs": [],
      "name": "SCALE",
      "outputs": [
        {
          "internalType": "uint256",
          "name": "",
          "type": "uint256"
        }
      ],
      "stateMutability": "view",
      "type": "function"
    },
    {
      "inputs": [
        {
          "internalType": "address",
          "name": "_rewardToken",
          "type": "address"
        }
      ],
      "name": "addPool",
      "outputs": [],
      "stateMutability": "nonpayable",
      "type": "function"
    },
    {
      "inputs": [
        {
          "internalType": "uint256",
          "name": "_id",
          "type": "uint256"
        },
        {
          "internalType": "address",
          "name": "_token",
          "type": "address"
        },
        {
          "internalType": "uint256",
          "name": "_weight",
          "type": "uint256"
        }
      ],
      "name": "addToken",
      "outputs": [],
      "stateMutability": "nonpayable",
      "type": "function"
    },
    {
      "inputs": [],
      "name": "counter",
      "outputs": [
        {
          "internalType": "uint256",
          "name": "",
          "type": "uint256"
        }
      ],
      "stateMutability": "view",
      "type": "function"
    },
    {
      "inputs": [
        {
          "internalType": "uint256",
          "name": "_id",
          "type": "uint256"
        },
        {
          "internalType": "address",
          "name": "_token",
          "type": "address"
        },
        {
          "internalType": "uint256",
          "name": "_amount",
          "type": "uint256"
        },
        {
          "internalType": "address",
          "name": "_user",
          "type": "address"
        }
      ],
      "name": "deposit",
      "outputs": [],
      "stateMutability": "nonpayable",
      "type": "function"
    },
    {
      "inputs": [
        {
          "internalType": "uint256",
          "name": "_id",
          "type": "uint256"
        },
        {
          "internalType": "address",
          "name": "_token",
          "type": "address"
        },
        {
          "internalType": "uint256",
          "name": "_amount",
          "type": "uint256"
        },
        {
          "internalType": "address",
          "name": "_user",
          "type": "address"
        }
      ],
      "name": "depositFromPolicyCenter",
      "outputs": [],
      "stateMutability": "nonpayable",
      "type": "function"
    },
    {
      "inputs": [
        {
          "internalType": "uint256",
          "name": "_poolId",
          "type": "uint256"
        }
      ],
      "name": "getPoolArrays",
      "outputs": [
        {
          "internalType": "address[]",
          "name": "",
          "type": "address[]"
        },
        {
          "internalType": "uint256[]",
          "name": "",
          "type": "uint256[]"
        },
        {
          "internalType": "uint256[]",
          "name": "",
          "type": "uint256[]"
        }
      ],
      "stateMutability": "view",
      "type": "function"
    },
    {
      "inputs": [
        {
          "internalType": "uint256",
          "name": "_poolId",
          "type": "uint256"
        },
        {
          "internalType": "address",
          "name": "_user",
          "type": "address"
        }
      ],
      "name": "getUserLPAmount",
      "outputs": [
        {
          "internalType": "uint256[]",
          "name": "",
          "type": "uint256[]"
        }
      ],
      "stateMutability": "view",
      "type": "function"
    },
    {
      "inputs": [
        {
          "internalType": "uint256",
          "name": "_id",
          "type": "uint256"
        },
        {
          "internalType": "address",
          "name": "_to",
          "type": "address"
        }
      ],
      "name": "harvest",
      "outputs": [],
      "stateMutability": "nonpayable",
      "type": "function"
    },
    {
      "inputs": [
        {
          "internalType": "uint256",
          "name": "_id",
          "type": "uint256"
        },
        {
          "internalType": "address",
          "name": "_user",
          "type": "address"
        }
      ],
      "name": "pendingReward",
      "outputs": [
        {
          "internalType": "uint256",
          "name": "pending",
          "type": "uint256"
        }
      ],
      "stateMutability": "view",
      "type": "function"
    },
    {
      "inputs": [],
      "name": "policyCenter",
      "outputs": [
        {
          "internalType": "address",
          "name": "",
          "type": "address"
        }
      ],
      "stateMutability": "view",
      "type": "function"
    },
    {
      "inputs": [
        {
          "internalType": "uint256",
          "name": "",
          "type": "uint256"
        }
      ],
      "name": "pools",
      "outputs": [
        {
          "internalType": "uint256",
          "name": "shares",
          "type": "uint256"
        },
        {
          "internalType": "address",
          "name": "rewardToken",
          "type": "address"
        },
        {
          "internalType": "uint256",
          "name": "lastRewardTimestamp",
          "type": "uint256"
        },
        {
          "internalType": "uint256",
          "name": "accRewardPerShare",
          "type": "uint256"
        }
      ],
      "stateMutability": "view",
      "type": "function"
    },
    {
      "inputs": [],
      "name": "priorityPoolFactory",
      "outputs": [
        {
          "internalType": "address",
          "name": "",
          "type": "address"
        }
      ],
      "stateMutability": "view",
      "type": "function"
    },
    {
      "inputs": [
        {
          "internalType": "address",
          "name": "_policyCenter",
          "type": "address"
        }
      ],
      "name": "setPolicyCenter",
      "outputs": [],
      "stateMutability": "nonpayable",
      "type": "function"
    },
    {
      "inputs": [
        {
          "internalType": "address",
          "name": "_priorityPoolFactory",
          "type": "address"
        }
      ],
      "name": "setPriorityPoolFactory",
      "outputs": [],
      "stateMutability": "nonpayable",
      "type": "function"
    },
    {
      "inputs": [
        {
          "internalType": "uint256",
          "name": "_id",
          "type": "uint256"
        },
        {
          "internalType": "uint256[]",
          "name": "_weights",
          "type": "uint256[]"
        }
      ],
      "name": "setWeight",
      "outputs": [],
      "stateMutability": "nonpayable",
      "type": "function"
    },
    {
      "inputs": [
        {
          "internalType": "uint256",
          "name": "",
          "type": "uint256"
        },
        {
          "internalType": "uint256",
          "name": "",
          "type": "uint256"
        },
        {
          "internalType": "uint256",
          "name": "",
          "type": "uint256"
        }
      ],
      "name": "speed",
      "outputs": [
        {
          "internalType": "uint256",
          "name": "",
          "type": "uint256"
        }
      ],
      "stateMutability": "view",
      "type": "function"
    },
    {
      "inputs": [
        {
          "internalType": "bytes32",
          "name": "",
          "type": "bytes32"
        }
      ],
      "name": "supported",
      "outputs": [
        {
          "internalType": "bool",
          "name": "",
          "type": "bool"
        }
      ],
      "stateMutability": "view",
      "type": "function"
    },
    {
      "inputs": [
        {
          "internalType": "uint256",
          "name": "_id",
          "type": "uint256"
        }
      ],
      "name": "updatePool",
      "outputs": [],
      "stateMutability": "nonpayable",
      "type": "function"
    },
    {
      "inputs": [
        {
          "internalType": "uint256",
          "name": "_id",
          "type": "uint256"
        },
        {
          "internalType": "uint256",
          "name": "_newSpeed",
          "type": "uint256"
        },
        {
          "internalType": "uint256[]",
          "name": "_years",
          "type": "uint256[]"
        },
        {
          "internalType": "uint256[]",
          "name": "_months",
          "type": "uint256[]"
        }
      ],
      "name": "updateRewardSpeed",
      "outputs": [],
      "stateMutability": "nonpayable",
      "type": "function"
    },
    {
      "inputs": [
        {
          "internalType": "uint256",
          "name": "_id",
          "type": "uint256"
        },
        {
          "internalType": "address",
          "name": "_token",
          "type": "address"
        },
        {
          "internalType": "uint256",
          "name": "_newWeight",
          "type": "uint256"
        }
      ],
      "name": "updateWeight",
      "outputs": [],
      "stateMutability": "nonpayable",
      "type": "function"
    },
    {
      "inputs": [
        {
          "internalType": "uint256",
          "name": "",
          "type": "uint256"
        },
        {
          "internalType": "address",
          "name": "",
          "type": "address"
        }
      ],
      "name": "users",
      "outputs": [
        {
          "internalType": "uint256",
          "name": "share",
          "type": "uint256"
        },
        {
          "internalType": "uint256",
          "name": "rewardDebt",
          "type": "uint256"
        }
      ],
      "stateMutability": "view",
      "type": "function"
    },
    {
      "inputs": [
        {
          "internalType": "uint256",
          "name": "_id",
          "type": "uint256"
        },
        {
          "internalType": "address",
          "name": "_token",
          "type": "address"
        },
        {
          "internalType": "uint256",
          "name": "_amount",
          "type": "uint256"
        }
      ],
      "name": "withdraw",
      "outputs": [],
      "stateMutability": "nonpayable",
      "type": "function"
    },
    {
      "inputs": [
        {
          "internalType": "uint256",
          "name": "_id",
          "type": "uint256"
        },
        {
          "internalType": "address",
          "name": "_token",
          "type": "address"
        },
        {
          "internalType": "uint256",
          "name": "_amount",
          "type": "uint256"
        },
        {
          "internalType": "address",
          "name": "_user",
          "type": "address"
        }
      ],
      "name": "withdrawFromPolicyCenter",
      "outputs": [],
      "stateMutability": "nonpayable",
      "type": "function"
    }
  ],
  "transactionHash": "0x24f2bcbe359eeb7b3d07b57b3d3fd2706b378ddf163106f07c35af636dc1e6ea",
  "args": [
    "0x6Db7EF7fD1B2A74651108Eb87D6761A5dF33611D",
    "0x875182c28be5637C5b59c5290eaF6771f55C570e"
  ],
  "numDeployments": 21,
  "solcInputHash": "c3b258be128427ccf8b3e9f39b63d5df",
  "bytecode": "0x6080346200009657601f620021db38819003918201601f19168301916001600160401b038311848410176200009b57808492604094855283398101031262000096576200005a60206200005283620000b1565b9201620000b1565b600080546001600160a01b039384166001600160a01b031991821617909155600180549290931691161790556040516121149081620000c78239f35b600080fd5b634e487b7160e01b600052604160045260246000fd5b51906001600160a01b0382168203620000965756fe60806040818152600436101561001457600080fd5b600091823560e01c9081630c7394c914610b545750806318fccc7614610a935780632dd57bb014610a5d578063341922c11461099a5780633593aa92146108ed57806351eb05a6146108d05780635a1635e41461089e57806361bc221a146108805780636f8a6e43146108585780637193f2f01461082b57806398969e82146106ea578063a4b59094146105fd578063ac4afa38146105a8578063ad35e1dc14610572578063b425f9261461052f578063b9d02df4146104e2578063c65323f1146104a6578063cd88af6e1461040d578063d914cd4b1461036c578063e63697c81461034f578063e8adbf2f14610328578063eced552614610309578063fee0833e146102ae5763ffb7cf621461012a57600080fd5b346102aa5761013836610ccc565b83516020808201858152606085811b6bffffffffffffffffffffffff1916848901526034845293946001600160a01b039081169492939092810191906001600160401b0383118184101761028757828952519020908189526006845260ff888a20541661029b5750875260068252858720805460ff19166001179055848752600382528587208054600160401b92918382101561028757816101e09160018894018155610e05565b909283549160031b90811b9283911b1691191617905584875260038252600286882001805491821015610273579161026385610248846060989660017fd7856221235dd5b0aca9663e69d6d13572bcc04b1bb87358b1ef62a23cc09e6a9b9997018155610e05565b90919082549060031b600019811b9283911b16911916179055565b865193845283015284820152a151f35b634e487b7160e01b88526041600452602488fd5b634e487b7160e01b8a52604160045260248afd5b63bf1f752f60e01b8152600490fd5b5080fd5b50346102aa57806003193601126102aa576102f281610305936102cf610b92565b6004358252600560209081528383206001600160a01b0390921683525220610cf6565b9051918291602083526020830190610c60565b0390f35b50346102aa57816003193601126102aa576020905164e8d4a510008152f35b50346102aa57816003193601126102aa57905490516001600160a01b039091168152602090f35b50346102aa5761036961036136610ccc565b9033926110ba565b51f35b50346102aa5760203660031901126102aa57610386610bad565b60025460001981146103f95760010160028190558084526003602090815283852060040180546001600160a01b0319166001600160a01b03909416938417905583519182528101919091527f1f1f6396247a5ba59b7b1e094ec3a8e439d4dace0c5ac4fe3ecfde3e68e03a8a908290a151f35b634e487b7160e01b84526011600452602484fd5b50346102aa57816020610430606461042436610c94565b90828194969396610ec1565b85516323b872dd60e01b815233600482015230602482015260448101919091529384928391906001600160a01b03165af1801561049a5761046f575051f35b61048f9060203d8111610493575b6104878183610bc3565b810190610e81565b5051f35b503d61047d565b505051903d90823e3d90fd5b50346102aa576103696104cf6102486104be36610ccc565b93906104c9836112af565b82612051565b9086526003602052600285872001610e05565b50346102aa57806003193601126102aa5780916104fd610b92565b600435825260056020528282209060018060a01b03168252602052206002600182015491015482519182526020820152f35b50346102aa5761053e36610c94565b85549093919291906001600160a01b031633036105615790610369939291610ec1565b8451636f2b51a560e11b8152600490fd5b50346102aa5760203660031901126102aa576001600160a01b03610594610bad565b1660018060a01b0319600154161760015551f35b50346102aa5760203660031901126102aa578060809260043581526003602052209060038201549160018060a01b03600482015416916006600583015492015492815194855260208501528301526060820152f35b50346102aa57806003193601126102aa57600435602480356001600160401b03918282116106e657366023830112156106e65781600401359283116106e657600591368285851b830101116106e2578487526003602052600286882001805485036106d157875b85811061069a5788887f61378e0f43f3c62e317cdbe9d6bf50295ceba5fb596196f5c109302ee750b4a760208a8351908152a151f35b806106cb6106aa60019385610e05565b87848a1b880101359082549060031b600019811b9283911b16911916179055565b01610664565b86516312fee3c960e31b8152600490fd5b8680fd5b8580fd5b50346102aa57806003193601126102aa57600435610706610b92565b92818152602093600385528382209084519160e08301946001600160401b03958481108782111761081757875261073c82610d47565b845261074a60018301610cf6565b8885015261075a60028301610cf6565b878501526003820154606085015260c0600660018060a01b0393846004820154166080880152600581015460a08801520154940193845284526005875285842091168352855283822092845192606084019184831090831117610803575084526107fb91906107c884610cf6565b82528460026001860154958689860152015492019182526107f264e8d4a510009485925190610de7565b04905190610dfa565b049051908152f35b634e487b7160e01b81526041600452602490fd5b634e487b7160e01b86526041600452602486fd5b50346102aa5760203660031901126102aa5760ff8160209360043581526006855220541690519015158152f35b50346102aa57816003193601126102aa5760015490516001600160a01b039091168152602090f35b50346102aa57816003193601126102aa576020906002549051908152f35b50346102aa576108ad36610c94565b85549093919291906001600160a01b0316330361056157906103699392916110ba565b50346102aa5760203660031901126102aa576103696004356112af565b50903461099757602091826003193601126102aa5782906004358352600382528083209261091a84610d47565b600193610934600261092d878901610cf6565b9701610cf6565b928451956060870160608852845180915283608089019501925b81811061097b5750878503848901528780610305898961096e8a8f610c60565b9184830390850152610c60565b83516001600160a01b031686529484019492840192820161094e565b80fd5b50346102aa5760803660031901126102aa576004356024356001600160401b036044358181116106e6576109d2903690600401610bfa565b906064359081116106e6576109eb903690600401610bfa565b908051825103610a4c57805193865b858110610a0657878751f35b600190828952602060048152888a20610a1f8387610e61565b518b528152888a2090610a328388610e61565b518b5252878920610a44878254610e75565b9055016109fa565b8451634bbeeee160e01b8152600490fd5b50346102aa5760203660031901126102aa576001600160a01b03610a7f610bad565b83546001600160a01b031916911617825551f35b50346102aa57806003193601126102aa57610aac610b92565b610ab76004356112af565b6004358352600360205264e8d4a51000610b4e83852060056020528486203387526020526006858720946000805160206120bf8339815191526001870191610b2e87610b1a600282610b0e88548a8c015490610de7565b049b019a8b5490610dfa565b048260018060a01b03600489015416611d98565b90610b418a519283923360043585610e99565b0390a15491015490610de7565b04905551f35b91905034610b8e576060366003190112610b8e57602092600435815260048452818120602435825284528181206044358252845220548152f35b8280fd5b602435906001600160a01b0382168203610ba857565b600080fd5b600435906001600160a01b0382168203610ba857565b90601f801991011681019081106001600160401b03821117610be457604052565b634e487b7160e01b600052604160045260246000fd5b9080601f83011215610ba8578135906001600160401b038211610be4578160051b60405193602093610c2e85840187610bc3565b85528380860192820101928311610ba8578301905b828210610c51575050505090565b81358152908301908301610c43565b90815180825260208080930193019160005b828110610c80575050505090565b835185529381019392810192600101610c72565b6080906003190112610ba857600435906001600160a01b036024358181168103610ba85791604435916064359081168103610ba85790565b6060906003190112610ba857600435906024356001600160a01b0381168103610ba8579060443590565b9060405191828154918282526020928383019160005283600020936000905b828210610d2d57505050610d2b92500383610bc3565b565b855484526001958601958895509381019390910190610d15565b9060405191828154918282526020928383019160005283600020936000905b828210610d7c57505050610d2b92500383610bc3565b85546001600160a01b031684526001958601958895509381019390910190610d66565b64e8d4a51000908060001904821181151516610db9570290565b634e487b7160e01b600052601160045260246000fd5b62015180908060001904821181151516610db9570290565b8060001904821181151516610db9570290565b818110610db9570390565b8054821015610e1d5760005260206000200190600090565b634e487b7160e01b600052603260045260246000fd5b8054600160401b811015610be457610e5091600182018155610e05565b8154906000199060031b1b19169055565b8051821015610e1d5760209160051b010190565b81198111610db9570190565b90816020910312610ba857518015158103610ba85790565b9081526001600160a01b03918216602082015291166040820152606081019190915260800190565b92909180156110a857600254841161109657610edc846112af565b60009084825260039182602052610f2960408220956005602052604083209760018060a01b03988988168552602052604084209860018a019788548a8c8261102f575b5050505050612051565b86549091600119831161101b575093610ffe93610ff2610fe78895610fdb8664e8d4a510009a610fa1610f798f9a60029f9b600160069d81840180971061100d575b019485541061100457610e05565b610f88878354838d1b1c610e75565b9082549060031b600019811b9283911b16911916179055565b610fd6610f79838f8d0193610fcf610fc88c610fbd8589610e05565b9054911b1c8a610de7565b8d54610e75565b8c55610e05565b610e05565b905490851b1c90610de7565b918501918254610e75565b90555491015490610de7565b04910155565b610fd685610e33565b61101683610e33565b610f6b565b634e487b7160e01b81526011600452602490fd5b6000805160206120bf83398151915294600461106361106d879460026110779864e8d4a5100094859160068b015490610de7565b0491015490610dfa565b0493015416611d98565b90611089604051928284938785610e99565b0390a13880808a8c610f1f565b604051631eccb30960e31b8152600490fd5b604051633a8410f160e01b8152600490fd5b919081156110a8576002548311611096576110d4836112af565b82600052602092600384526040936111498560002095600583528060002060018060a01b038916600052835282868260002099808b60018101548c8161124a575b5050855163a9059cbb60e01b81526001600160a01b0390931660048401525050602481019190915292839081906044820190565b038160006001600160a01b038a165af19081156112405750611188610ffe95600298956112019564e8d4a5100099956111f495611222575b5050612051565b6111a5611195828b610e05565b610f888683548360031b1c610dfa565b8785016111cf6111c56111b88484610e05565b90549060031b1c86610de7565b60018c0154610dfa565b60018b0155610fd66111e48360018901610e05565b610f888783548360031b1c610dfa565b90549060031b1c90610de7565b61121060038301918254610dfa565b90556006600186015491015490610de7565b8161123892903d10610493576104878183610bc3565b503880611181565b513d6000823e3d90fd5b6000805160206120bf8339815191529361106361127e6112a39560026112959664e8d4a51000948591600689015490610de7565b6004909301549204916001600160a01b0316611d98565b865191829185808d85610e99565b0390a1808b388c611115565b8060005260036020526040600020906005820154421115611759576003820154156117505760006005604060002001546113046112eb826119b0565b9093919084906112fa426119b0565b5095909686610dfa565b806113d457505050509264e8d4a5100061135a611361946113619461132c6113669842610dfa565b9189600052600460205260406000209060005260205260406000209060005260205260406000205490610de7565b0490610e75565b610d9f565b9060038301549182156113be57836113a860409460067f7fa9647ec1cc14e3822b46d05a2b9d4e019bde8875c0088c46b6503d71bf1722970193048354610e75565b80925560054291015582519182526020820152a1565b634e487b7160e01b600052601260045260246000fd5b9297969450929450976000935b6001198311610db9576001830185101561173a5784611559576107b28810610ba857617d4b600160ff1b018412600116610db9576114bf6114ba6114b58a60046114ae8f6114a86064918c6114566114a261149c61146e6114418b6117d2565b948a61146261145d600c98896114568c61175d565b0590611830565b61185b565b0590617d4a1901611830565b8461145661149761147e89611775565b6114918461148b8c61175d565b056118ab565b906117a9565b611910565b98611801565b9261175d565b05611960565b05906117a9565b61178d565b610dcf565b62014370198111610db957610dd41962014370820111610db957603b1962015144820111610db95760019164e8d4a5100061135a8d6115068b6201517f6115359701610dfa565b908c60005260046020528d60406000209060005260205260406000209060005260205260406000205490610de7565b995b0193600c851161154c575b60010193986113e1565b6001978801979450611542565b84830361160a576107b28810610ba857600461158061145d8c600c6114566114a28e6117d2565b05617d4a600160ff1b018112600116610db95760019164e8d4a5100061135a8d6115066115fe6114ba8f6114b59060046114ae60646114a86115f36115ed6116049f600c6115e16114978f6114918461148b6115db84611775565b9361175d565b0590617d491901611830565b95611801565b600c6114568c61175d565b42610dfa565b99611537565b60018a148015611730575b8015611726575b801561171c575b8015611712575b8015611708575b80156116fe575b156116ac57601f5b7dc22e450672894ab6cd8efb11d33f5617839a5bc7dea00c22e450672894ab8111600116610db95760019164e8d4a5100061135a611604938e8c60005260046020528d604060002090600052602052604060002090600052602052604060002054906201518002610de7565b60028a146116bb57601e611640565b6003881615806116f2575b80156116e6575b156116dd5760ff601d5b16611640565b60ff601c6116d7565b506101908806156116cd565b506064880615156116c6565b50600c8a14611638565b50600a8a14611631565b5060088a1461162a565b5060078a14611623565b5060058a1461161c565b5060038a14611615565b9350975050506113669293506113619150610d9f565b50600542910155565b5050565b600e600160ff1b018112600116610db957600d190190565b6002600160ff1b018112600116610db9576001190190565b62253d8c600160ff1b018112600116610db95762253d8b190190565b600082128015600160ff1b8401831216610db9576001600160ff1b038301821316610db9570390565b6112c0906000811280156001600160ff1b03839003841316610db957600160ff1b829003831216610db9570190565b611324906000811280156001600160ff1b03839003841316610db957600160ff1b829003831216610db9570190565b6000811280156001600160ff1b03839003841316610db957600160ff1b829003831216610db9570190565b6105b560008083136001600160ff1b0384900483111660011661101b5760017fffe9924f8d0dd7b2e6f174df9576f9de01c091c8faeb2605f522de8852b47aa88412828512161661101b57500290565b600060017f0aaaaaaaaaaaaaaaaaaaaaaaaaaaaaaaaaaaaaaaaaaaaaaaaaaaaaaaaaaaaaaa8311828413161661101b5760017ff5555555555555555555555555555555555555555555555555555555555555568312828412161661101b5750600c0290565b61016f60008083136001600160ff1b0384900483111660011661101b5760017fffa6b6c1eb12d573186a06f9b8d9a287530217b7747d8eff4d6d83d625aae6318412828512161661101b57500290565b60008082136001600160ff1b038390046003111660011661101b5760017fd5555555555555555555555555555555555555555555555555555555555555568312828412161661101b575060030290565b6001600160ff1b039060009062010bd990620151809004828112818503811581851316611d8457600160ff1b938385039283821216611d705785908401129162010bd819908162253d8c93018313841516611d5c57011316611d48576226496501916001936004918585830484118287131616611d3557808512600760fd1b8612168616611d355762023ab194858160021b05958787850482118489131616611d0f57877fffffc694f94337079d130ab45dff8e0f9ea161331bb1c93dea871de6fec83ce288128489121616611d0f578602828112818503600313811516611d225781870360031216611d0f5790846003611aad930105906117a9565b928184128484038813811516611cc357848603881216611cb057868401610fa08882860482118584131616611cd657887ffff7ced916872b020c49ba5e353f7ced916872b020c49ba5e353f7ced916872c83128584121616611cd657611b1f9162164b0991020594826114ae8761185b565b828112818503601f13811516611cd657818703601f1216611cc357601f019680888504605011848a131616611cc357807ffe666666666666666666666666666666666666666666666666666666666666678912848a121616611cc35761098f9788816050020590828287048b118684131616611cfc5784821299837ffff29be1739a4fb805dbcd5d6c7d1f7d6fd627208942391f124ee1c3f307026884128c1616611ce95790605083611bd4930205906117a9565b98600b820597828703600213821516611ce95782900360021216611cd65781878604600c118589131616611cd657817ff55555555555555555555555555555555555555555555555555555555555555688128589121616611cd657611c4090600288600c0291016117a9565b966031600160ff1b0181128216611cd6578190603019018095046064118486131616611cc3577ffeb851eb851eb851eb851eb851eb851eb851eb851eb851eb851eb851eb851eb984128385121616611cb0575050611caa9291611ca591606402611830565b611830565b91909192565b634e487b7160e01b825260119052602490fd5b634e487b7160e01b835260118252602483fd5b634e487b7160e01b845260118352602484fd5b634e487b7160e01b865260118552602486fd5b634e487b7160e01b855260118452602485fd5b634e487b7160e01b835260118552602483fd5b634e487b7160e01b845260118652602484fd5b634e487b7160e01b815260118352602490fd5b634e487b7160e01b83526011600452602483fd5b634e487b7160e01b87526011600452602487fd5b634e487b7160e01b86526011600452602486fd5b634e487b7160e01b85526011600452602485fd5b604080516370a0823160e01b81523060048201526001600160a01b03909216949360209391929084826024818a5afa918215611f6657600092611f37575b5081811115611f2f5750945b825163a9059cbb60e01b8582019081526001600160a01b039390931660248201526044808201889052815290601f1990611e1d606484610bc3565b8451928584016001600160401b039585821087831117610be457600092839289528987527f5361666545524332303a206c6f772d6c6576656c2063616c6c206661696c65648a880152519082855af1903d15611f21573d948511610be457611ea094611e9288885195601f8401160185610bc3565b83523d60008885013e611f71565b80519081611eaf575b50505050565b8380611ebf938301019101610e81565b15611ecb578080611ea9565b60849250519062461bcd60e51b82526004820152602a60248201527f5361666545524332303a204552433230206f7065726174696f6e20646964206e6044820152691bdd081cdd58d8d9595960b21b6064820152fd5b611ea0945060609250611f71565b905094611de2565b90918582813d8311611f5f575b611f4e8183610bc3565b810103126109975750519038611dd6565b503d611f44565b84513d6000823e3d90fd5b91929015611fd35750815115611f85575090565b3b15611f8e5790565b60405162461bcd60e51b815260206004820152601d60248201527f416464726573733a2063616c6c20746f206e6f6e2d636f6e74726163740000006044820152606490fd5b825190915015611fe65750805190602001fd5b6040519062461bcd60e51b82528160208060048301528251928360248401526000915b84831061203857505091806044931161202b575b601f01601f19168101030190fd5b600083828401015261201d565b8183018101518684016044015285935091820191612009565b9190600092600052600360205261206b6040600020610d47565b908151906000925b8284106120805750505050565b939492936001600160a01b03806120978784610e61565b5116908316146000146120b257505050509038808080611ea9565b9294936001019261207356fe1ec92956b13869de207e232e60c65e35826c5e12b7fdc6d70b083b5a4fd26703a2646970667358221220dfd6b0257fa4bf9b5c0cfe343830e6a0325514cb57ff30a8f3f9fedd79bae73f64736f6c634300080f0033",
  "devdoc": {
    "kind": "dev",
    "methods": {
      "addPool(address)": {
        "params": {
          "_rewardToken": "Reward token address (protocol native token)"
        }
      },
      "addToken(uint256,address,uint256)": {
        "params": {
          "_id": "Pool Id",
          "_token": "Priority pool lp token address",
          "_weight": "Weight of the token in the pool"
        }
      },
      "pendingReward(uint256,address)": {
        "params": {
          "_id": "Pool id",
          "_user": "User's address to claim the reward"
        }
      },
      "setWeight(uint256,uint256[])": {
        "params": {
          "_id": "Pool Id",
          "_weights": "Array of weights of the tokens in the pool"
        }
      },
      "updateRewardSpeed(uint256,uint256,uint256[],uint256[])": {
        "params": {
          "_id": "Pool id",
          "_months": "Months to be updated",
          "_newSpeed": "New speed (SCALED)",
          "_years": "Years to be updated"
        }
      },
      "updateWeight(uint256,address,uint256)": {
        "params": {
          "_id": "Pool Id",
          "_newWeight": "New weight of the token in the pool",
          "_token": "Token address"
        }
      }
    },
    "version": 1
  },
  "userdoc": {
    "kind": "user",
    "methods": {
      "addPool(address)": {
        "notice": "Register a new famring pool for priority pool"
      },
      "addToken(uint256,address,uint256)": {
        "notice": "Register Pri-LP token"
      },
      "deposit(uint256,address,uint256,address)": {
        "notice": "Directly deposit (need approval)"
      },
      "depositFromPolicyCenter(uint256,address,uint256,address)": {
        "notice": "Deposit from Policy Center         No need for approval"
      },
      "pendingReward(uint256,address)": {
        "notice": "Return the user's pending reward"
      },
      "setWeight(uint256,uint256[])": {
        "notice": "Sets the weight for a given array of tokens in a given pool"
      },
      "updateRewardSpeed(uint256,uint256,uint256[],uint256[])": {
        "notice": "Update reward speed when new premium income"
      },
      "updateWeight(uint256,address,uint256)": {
        "notice": "Updates the weight of a token in a given pool"
      }
    },
    "notice": "Weighted Farming Pool         Weighted farming pool support multiple tokens to earn the same reward         Different tokens will have different weights when calculating rewards         Native token premiums will be transferred to this pool         The distribution is in the way of \"farming\" but with multiple tokens         Different generations of PRI-LP-1-JOE-G1         About the scales of variables:         - weight            SCALE         - share             SCALE         - accRewardPerShare SCALE * SCALE / SCALE = SCALE         - rewardDebt        SCALE * SCALE / SCALE = SCALE         So pendingReward = ((share * acc) / SCALE - debt) / SCALE",
    "version": 1
  },
  "storageLayout": {
    "storage": [
      {
        "astId": 20186,
        "contract": "src/reward/WeightedFarmingPool.sol:WeightedFarmingPool",
        "label": "policyCenter",
        "offset": 0,
        "slot": "0",
        "type": "t_address"
      },
      {
        "astId": 20188,
        "contract": "src/reward/WeightedFarmingPool.sol:WeightedFarmingPool",
        "label": "priorityPoolFactory",
        "offset": 0,
        "slot": "1",
        "type": "t_address"
      },
      {
        "astId": 20190,
        "contract": "src/reward/WeightedFarmingPool.sol:WeightedFarmingPool",
        "label": "counter",
        "offset": 0,
        "slot": "2",
        "type": "t_uint256"
      },
      {
        "astId": 20213,
        "contract": "src/reward/WeightedFarmingPool.sol:WeightedFarmingPool",
        "label": "pools",
        "offset": 0,
        "slot": "3",
        "type": "t_mapping(t_uint256,t_struct(PoolInfo)20208_storage)"
      },
      {
        "astId": 20221,
        "contract": "src/reward/WeightedFarmingPool.sol:WeightedFarmingPool",
        "label": "speed",
        "offset": 0,
        "slot": "4",
        "type": "t_mapping(t_uint256,t_mapping(t_uint256,t_mapping(t_uint256,t_uint256)))"
      },
      {
        "astId": 20236,
        "contract": "src/reward/WeightedFarmingPool.sol:WeightedFarmingPool",
        "label": "users",
        "offset": 0,
        "slot": "5",
        "type": "t_mapping(t_uint256,t_mapping(t_address,t_struct(UserInfo)20229_storage))"
      },
      {
        "astId": 20240,
        "contract": "src/reward/WeightedFarmingPool.sol:WeightedFarmingPool",
        "label": "supported",
        "offset": 0,
        "slot": "6",
        "type": "t_mapping(t_bytes32,t_bool)"
      }
    ],
    "types": {
      "t_address": {
        "encoding": "inplace",
        "label": "address",
        "numberOfBytes": "20"
      },
      "t_array(t_address)dyn_storage": {
        "base": "t_address",
        "encoding": "dynamic_array",
        "label": "address[]",
        "numberOfBytes": "32"
      },
      "t_array(t_uint256)dyn_storage": {
        "base": "t_uint256",
        "encoding": "dynamic_array",
        "label": "uint256[]",
        "numberOfBytes": "32"
      },
      "t_bool": {
        "encoding": "inplace",
        "label": "bool",
        "numberOfBytes": "1"
      },
      "t_bytes32": {
        "encoding": "inplace",
        "label": "bytes32",
        "numberOfBytes": "32"
      },
      "t_mapping(t_address,t_struct(UserInfo)20229_storage)": {
        "encoding": "mapping",
        "key": "t_address",
        "label": "mapping(address => struct WeightedFarmingPool.UserInfo)",
        "numberOfBytes": "32",
        "value": "t_struct(UserInfo)20229_storage"
      },
      "t_mapping(t_bytes32,t_bool)": {
        "encoding": "mapping",
        "key": "t_bytes32",
        "label": "mapping(bytes32 => bool)",
        "numberOfBytes": "32",
        "value": "t_bool"
      },
      "t_mapping(t_uint256,t_mapping(t_address,t_struct(UserInfo)20229_storage))": {
        "encoding": "mapping",
        "key": "t_uint256",
        "label": "mapping(uint256 => mapping(address => struct WeightedFarmingPool.UserInfo))",
        "numberOfBytes": "32",
        "value": "t_mapping(t_address,t_struct(UserInfo)20229_storage)"
      },
      "t_mapping(t_uint256,t_mapping(t_uint256,t_mapping(t_uint256,t_uint256)))": {
        "encoding": "mapping",
        "key": "t_uint256",
        "label": "mapping(uint256 => mapping(uint256 => mapping(uint256 => uint256)))",
        "numberOfBytes": "32",
        "value": "t_mapping(t_uint256,t_mapping(t_uint256,t_uint256))"
      },
      "t_mapping(t_uint256,t_mapping(t_uint256,t_uint256))": {
        "encoding": "mapping",
        "key": "t_uint256",
        "label": "mapping(uint256 => mapping(uint256 => uint256))",
        "numberOfBytes": "32",
        "value": "t_mapping(t_uint256,t_uint256)"
      },
      "t_mapping(t_uint256,t_struct(PoolInfo)20208_storage)": {
        "encoding": "mapping",
        "key": "t_uint256",
        "label": "mapping(uint256 => struct WeightedFarmingPool.PoolInfo)",
        "numberOfBytes": "32",
        "value": "t_struct(PoolInfo)20208_storage"
      },
      "t_mapping(t_uint256,t_uint256)": {
        "encoding": "mapping",
        "key": "t_uint256",
        "label": "mapping(uint256 => uint256)",
        "numberOfBytes": "32",
        "value": "t_uint256"
      },
      "t_struct(PoolInfo)20208_storage": {
        "encoding": "inplace",
        "label": "struct WeightedFarmingPool.PoolInfo",
        "members": [
          {
            "astId": 20193,
            "contract": "src/reward/WeightedFarmingPool.sol:WeightedFarmingPool",
            "label": "tokens",
            "offset": 0,
            "slot": "0",
            "type": "t_array(t_address)dyn_storage"
          },
          {
            "astId": 20196,
            "contract": "src/reward/WeightedFarmingPool.sol:WeightedFarmingPool",
            "label": "amount",
            "offset": 0,
            "slot": "1",
            "type": "t_array(t_uint256)dyn_storage"
          },
          {
            "astId": 20199,
            "contract": "src/reward/WeightedFarmingPool.sol:WeightedFarmingPool",
            "label": "weight",
            "offset": 0,
            "slot": "2",
            "type": "t_array(t_uint256)dyn_storage"
          },
          {
            "astId": 20201,
            "contract": "src/reward/WeightedFarmingPool.sol:WeightedFarmingPool",
            "label": "shares",
            "offset": 0,
            "slot": "3",
            "type": "t_uint256"
          },
          {
            "astId": 20203,
            "contract": "src/reward/WeightedFarmingPool.sol:WeightedFarmingPool",
            "label": "rewardToken",
            "offset": 0,
            "slot": "4",
            "type": "t_address"
          },
          {
            "astId": 20205,
            "contract": "src/reward/WeightedFarmingPool.sol:WeightedFarmingPool",
            "label": "lastRewardTimestamp",
            "offset": 0,
            "slot": "5",
            "type": "t_uint256"
          },
          {
            "astId": 20207,
            "contract": "src/reward/WeightedFarmingPool.sol:WeightedFarmingPool",
            "label": "accRewardPerShare",
            "offset": 0,
            "slot": "6",
            "type": "t_uint256"
          }
        ],
        "numberOfBytes": "224"
      },
      "t_struct(UserInfo)20229_storage": {
        "encoding": "inplace",
        "label": "struct WeightedFarmingPool.UserInfo",
        "members": [
          {
            "astId": 20224,
            "contract": "src/reward/WeightedFarmingPool.sol:WeightedFarmingPool",
            "label": "amount",
            "offset": 0,
            "slot": "0",
            "type": "t_array(t_uint256)dyn_storage"
          },
          {
            "astId": 20226,
            "contract": "src/reward/WeightedFarmingPool.sol:WeightedFarmingPool",
            "label": "share",
            "offset": 0,
            "slot": "1",
            "type": "t_uint256"
          },
          {
            "astId": 20228,
            "contract": "src/reward/WeightedFarmingPool.sol:WeightedFarmingPool",
            "label": "rewardDebt",
            "offset": 0,
            "slot": "2",
            "type": "t_uint256"
          }
        ],
        "numberOfBytes": "96"
      },
      "t_uint256": {
        "encoding": "inplace",
        "label": "uint256",
        "numberOfBytes": "32"
      }
    }
  }
}