{
  "address": "0xe60Ba771b562AB99b692178bf480EC60c174D517",
  "abi": [
    {
      "inputs": [
        {
          "internalType": "address",
          "name": "_policyCenter",
          "type": "address"
        },
        {
          "internalType": "address",
          "name": "_priorityPoolFactory",
          "type": "address"
        }
      ],
      "stateMutability": "nonpayable",
      "type": "constructor"
    },
    {
      "inputs": [],
      "name": "WeightedFarmingPool__AlreadySupported",
      "type": "error"
    },
    {
      "inputs": [],
      "name": "WeightedFarmingPool__InexistentPool",
      "type": "error"
    },
    {
      "inputs": [],
      "name": "WeightedFarmingPool__NoPendingRewards",
      "type": "error"
    },
    {
      "inputs": [],
      "name": "WeightedFarmingPool__NotInPool",
      "type": "error"
    },
    {
      "inputs": [],
      "name": "WeightedFarmingPool__OnlyPolicyCenter",
      "type": "error"
    },
    {
      "inputs": [],
      "name": "WeightedFarmingPool__WrongDateLength",
      "type": "error"
    },
    {
      "inputs": [],
      "name": "WeightedFarmingPool__WrongWeightLength",
      "type": "error"
    },
    {
      "inputs": [],
      "name": "WeightedFarmingPool__ZeroAmount",
      "type": "error"
    },
    {
      "anonymous": false,
      "inputs": [
        {
          "indexed": false,
          "internalType": "uint256",
          "name": "poolId",
          "type": "uint256"
        },
        {
          "indexed": false,
          "internalType": "address",
          "name": "user",
          "type": "address"
        },
        {
          "indexed": false,
          "internalType": "address",
          "name": "receiver",
          "type": "address"
        },
        {
          "indexed": false,
          "internalType": "uint256",
          "name": "reward",
          "type": "uint256"
        }
      ],
      "name": "Harvest",
      "type": "event"
    },
    {
      "anonymous": false,
      "inputs": [
        {
          "indexed": false,
          "internalType": "uint256",
          "name": "poolId",
          "type": "uint256"
        },
        {
          "indexed": false,
          "internalType": "address",
          "name": "token",
          "type": "address"
        },
        {
          "indexed": false,
          "internalType": "uint256",
          "name": "weight",
          "type": "uint256"
        }
      ],
      "name": "NewTokenAdded",
      "type": "event"
    },
    {
      "anonymous": false,
      "inputs": [
        {
          "indexed": false,
          "internalType": "uint256",
          "name": "poolId",
          "type": "uint256"
        },
        {
          "indexed": false,
          "internalType": "address",
          "name": "token",
          "type": "address"
        }
      ],
      "name": "PoolAdded",
      "type": "event"
    },
    {
      "anonymous": false,
      "inputs": [
        {
          "indexed": false,
          "internalType": "uint256",
          "name": "poolId",
          "type": "uint256"
        },
        {
          "indexed": false,
          "internalType": "uint256",
          "name": "accRewardPerShare",
          "type": "uint256"
        }
      ],
      "name": "PoolUpdated",
      "type": "event"
    },
    {
      "anonymous": false,
      "inputs": [
        {
          "indexed": false,
          "internalType": "uint256",
          "name": "poolId",
          "type": "uint256"
        }
      ],
      "name": "WeightChanged",
      "type": "event"
    },
    {
      "inputs": [],
      "name": "SCALE",
      "outputs": [
        {
          "internalType": "uint256",
          "name": "",
          "type": "uint256"
        }
      ],
      "stateMutability": "view",
      "type": "function"
    },
    {
      "inputs": [
        {
          "internalType": "address",
          "name": "_rewardToken",
          "type": "address"
        }
      ],
      "name": "addPool",
      "outputs": [],
      "stateMutability": "nonpayable",
      "type": "function"
    },
    {
      "inputs": [
        {
          "internalType": "uint256",
          "name": "_id",
          "type": "uint256"
        },
        {
          "internalType": "address",
          "name": "_token",
          "type": "address"
        },
        {
          "internalType": "uint256",
          "name": "_weight",
          "type": "uint256"
        }
      ],
      "name": "addToken",
      "outputs": [],
      "stateMutability": "nonpayable",
      "type": "function"
    },
    {
      "inputs": [],
      "name": "counter",
      "outputs": [
        {
          "internalType": "uint256",
          "name": "",
          "type": "uint256"
        }
      ],
      "stateMutability": "view",
      "type": "function"
    },
    {
      "inputs": [
        {
          "internalType": "uint256",
          "name": "_id",
          "type": "uint256"
        },
        {
          "internalType": "address",
          "name": "_token",
          "type": "address"
        },
        {
          "internalType": "uint256",
          "name": "_amount",
          "type": "uint256"
        },
        {
          "internalType": "address",
          "name": "_user",
          "type": "address"
        }
      ],
      "name": "deposit",
      "outputs": [],
      "stateMutability": "nonpayable",
      "type": "function"
    },
    {
      "inputs": [
        {
          "internalType": "uint256",
          "name": "_id",
          "type": "uint256"
        },
        {
          "internalType": "address",
          "name": "_token",
          "type": "address"
        },
        {
          "internalType": "uint256",
          "name": "_amount",
          "type": "uint256"
        },
        {
          "internalType": "address",
          "name": "_user",
          "type": "address"
        }
      ],
      "name": "depositFromPolicyCenter",
      "outputs": [],
      "stateMutability": "nonpayable",
      "type": "function"
    },
    {
      "inputs": [
        {
          "internalType": "uint256",
          "name": "_poolId",
          "type": "uint256"
        }
      ],
      "name": "getPoolArrays",
      "outputs": [
        {
          "internalType": "address[]",
          "name": "",
          "type": "address[]"
        },
        {
          "internalType": "uint256[]",
          "name": "",
          "type": "uint256[]"
        },
        {
          "internalType": "uint256[]",
          "name": "",
          "type": "uint256[]"
        }
      ],
      "stateMutability": "view",
      "type": "function"
    },
    {
      "inputs": [
        {
          "internalType": "uint256",
          "name": "_poolId",
          "type": "uint256"
        },
        {
          "internalType": "address",
          "name": "_user",
          "type": "address"
        }
      ],
      "name": "getUserLPAmount",
      "outputs": [
        {
          "internalType": "uint256[]",
          "name": "",
          "type": "uint256[]"
        }
      ],
      "stateMutability": "view",
      "type": "function"
    },
    {
      "inputs": [
        {
          "internalType": "uint256",
          "name": "_id",
          "type": "uint256"
        },
        {
          "internalType": "address",
          "name": "_to",
          "type": "address"
        }
      ],
      "name": "harvest",
      "outputs": [],
      "stateMutability": "nonpayable",
      "type": "function"
    },
    {
      "inputs": [
        {
          "internalType": "uint256",
          "name": "_id",
          "type": "uint256"
        },
        {
          "internalType": "address",
          "name": "_user",
          "type": "address"
        }
      ],
      "name": "pendingReward",
      "outputs": [
        {
          "internalType": "uint256",
          "name": "pending",
          "type": "uint256"
        }
      ],
      "stateMutability": "view",
      "type": "function"
    },
    {
      "inputs": [],
      "name": "policyCenter",
      "outputs": [
        {
          "internalType": "address",
          "name": "",
          "type": "address"
        }
      ],
      "stateMutability": "view",
      "type": "function"
    },
    {
      "inputs": [
        {
          "internalType": "uint256",
          "name": "",
          "type": "uint256"
        }
      ],
      "name": "pools",
      "outputs": [
        {
          "internalType": "uint256",
          "name": "shares",
          "type": "uint256"
        },
        {
          "internalType": "address",
          "name": "rewardToken",
          "type": "address"
        },
        {
          "internalType": "uint256",
          "name": "lastRewardTimestamp",
          "type": "uint256"
        },
        {
          "internalType": "uint256",
          "name": "accRewardPerShare",
          "type": "uint256"
        }
      ],
      "stateMutability": "view",
      "type": "function"
    },
    {
      "inputs": [],
      "name": "priorityPoolFactory",
      "outputs": [
        {
          "internalType": "address",
          "name": "",
          "type": "address"
        }
      ],
      "stateMutability": "view",
      "type": "function"
    },
    {
      "inputs": [
        {
          "internalType": "address",
          "name": "_policyCenter",
          "type": "address"
        }
      ],
      "name": "setPolicyCenter",
      "outputs": [],
      "stateMutability": "nonpayable",
      "type": "function"
    },
    {
      "inputs": [
        {
          "internalType": "address",
          "name": "_priorityPoolFactory",
          "type": "address"
        }
      ],
      "name": "setPriorityPoolFactory",
      "outputs": [],
      "stateMutability": "nonpayable",
      "type": "function"
    },
    {
      "inputs": [
        {
          "internalType": "uint256",
          "name": "_id",
          "type": "uint256"
        },
        {
          "internalType": "uint256[]",
          "name": "_weights",
          "type": "uint256[]"
        }
      ],
      "name": "setWeight",
      "outputs": [],
      "stateMutability": "nonpayable",
      "type": "function"
    },
    {
      "inputs": [
        {
          "internalType": "bytes32",
          "name": "",
          "type": "bytes32"
        }
      ],
      "name": "supported",
      "outputs": [
        {
          "internalType": "bool",
          "name": "",
          "type": "bool"
        }
      ],
      "stateMutability": "view",
      "type": "function"
    },
    {
      "inputs": [
        {
          "internalType": "uint256",
          "name": "_id",
          "type": "uint256"
        }
      ],
      "name": "updatePool",
      "outputs": [],
      "stateMutability": "nonpayable",
      "type": "function"
    },
    {
      "inputs": [
        {
          "internalType": "uint256",
          "name": "_id",
          "type": "uint256"
        },
        {
          "internalType": "uint256",
          "name": "_newSpeed",
          "type": "uint256"
        },
        {
          "internalType": "uint256[]",
          "name": "_years",
          "type": "uint256[]"
        },
        {
          "internalType": "uint256[]",
          "name": "_months",
          "type": "uint256[]"
        }
      ],
      "name": "updateRewardSpeed",
      "outputs": [],
      "stateMutability": "nonpayable",
      "type": "function"
    },
    {
      "inputs": [
        {
          "internalType": "uint256",
          "name": "_id",
          "type": "uint256"
        },
        {
          "internalType": "address",
          "name": "_token",
          "type": "address"
        },
        {
          "internalType": "uint256",
          "name": "_newWeight",
          "type": "uint256"
        }
      ],
      "name": "updateWeight",
      "outputs": [],
      "stateMutability": "nonpayable",
      "type": "function"
    },
    {
      "inputs": [
        {
          "internalType": "uint256",
          "name": "",
          "type": "uint256"
        },
        {
          "internalType": "address",
          "name": "",
          "type": "address"
        }
      ],
      "name": "users",
      "outputs": [
        {
          "internalType": "uint256",
          "name": "share",
          "type": "uint256"
        },
        {
          "internalType": "uint256",
          "name": "rewardDebt",
          "type": "uint256"
        }
      ],
      "stateMutability": "view",
      "type": "function"
    },
    {
      "inputs": [
        {
          "internalType": "uint256",
          "name": "_id",
          "type": "uint256"
        },
        {
          "internalType": "address",
          "name": "_token",
          "type": "address"
        },
        {
          "internalType": "uint256",
          "name": "_amount",
          "type": "uint256"
        }
      ],
      "name": "withdraw",
      "outputs": [],
      "stateMutability": "nonpayable",
      "type": "function"
    },
    {
      "inputs": [
        {
          "internalType": "uint256",
          "name": "_id",
          "type": "uint256"
        },
        {
          "internalType": "address",
          "name": "_token",
          "type": "address"
        },
        {
          "internalType": "uint256",
          "name": "_amount",
          "type": "uint256"
        },
        {
          "internalType": "address",
          "name": "_user",
          "type": "address"
        }
      ],
      "name": "withdrawFromPolicyCenter",
      "outputs": [],
      "stateMutability": "nonpayable",
      "type": "function"
    }
  ],
  "transactionHash": "0x497ebf8ccd6f8c45d41602e6d9d564bea9d3ecb467f9b981b01f0c2df5474256",
  "args": [
    "0x281138327D9880cFb616B0E392EB450b747f014B",
    "0x4357Ec284efdFfBef8b56cFE1e3742E6BB11380D"
  ],
  "numDeployments": 16,
  "solcInputHash": "dbf693df527d026a3b598135259c41cf",
  "bytecode": "0x6080346200009657601f6200220b38819003918201601f19168301916001600160401b038311848410176200009b57808492604094855283398101031262000096576200005a60206200005283620000b1565b9201620000b1565b600080546001600160a01b039384166001600160a01b031991821617909155600180549290931691161790556040516121449081620000c78239f35b600080fd5b634e487b7160e01b600052604160045260246000fd5b51906001600160a01b0382168203620000965756fe6040608081526004908136101561001557600080fd5b600091823560e01c806318fccc7614610a795780632dd57bb014610a42578063341922c1146109825780633593aa92146108da57806351eb05a6146108be5780635a1635e41461088a57806361bc221a1461086b5780636f8a6e43146108425780637193f2f01461081657806398969e82146106da578063a4b59094146105ef578063ac4afa381461059c578063ad35e1dc14610565578063b425f92614610521578063b9d02df4146104d4578063c65323f114610497578063cd88af6e14610402578063d914cd4b14610364578063e63697c814610346578063e8adbf2f1461031e578063eced5526146102fa578063fee0833e1461029f5763ffb7cf621461011e57600080fd5b3461029b5761012c36610cac565b919284516020918282019186835260018060a01b0392838616956bffffffffffffffffffffffff199060601b16898301526034825260608201918083106001600160401b0384111761027a57828a5251902090818a526006855260ff898b20541661028d5750885260068352868820805460ff19166001179055858852600383528688208054600160401b93918482101561027a57816101d29160018994018155610dcb565b909283549160031b90811b9283911b1691191617905585885260038352600287892001908154928310156102675750916102578561023c846060989660017fd7856221235dd5b0aca9663e69d6d13572bcc04b1bb87358b1ef62a23cc09e6a9b9997018155610dcb565b90919082549060031b600019811b9283911b16911916179055565b865193845283015284820152a151f35b634e487b7160e01b895260419052602488fd5b634e487b7160e01b8b526041845260248bfd5b63bf1f752f60e01b81529050fd5b8280fd5b503461029b578160031936011261029b57816102f6936102e3926102c1610b57565b90358252600560209081528383206001600160a01b0390921683525220610cd6565b9051918291602083526020830190610c40565b0390f35b50503461031a578160031936011261031a576020905164e8d4a510008152f35b5080fd5b50503461031a578160031936011261031a57905490516001600160a01b039091168152602090f35b50503461031a5761036161035936610cac565b9033926111c7565b51f35b503461029b57602036600319011261029b5761037e610b72565b60025460001981146103ef5760010160028190558085526003602090815284862090930180546001600160a01b0319166001600160a01b0390931692831790558351908152918201527f1f1f6396247a5ba59b7b1e094ec3a8e439d4dace0c5ac4fe3ecfde3e68e03a8a908290a151f35b634e487b7160e01b855260118352602485fd5b503461029b57602061042691606461041936610c74565b9082819694989398610e87565b86865195869485936323b872dd60e01b85523390850152306024850152604484015260018060a01b03165af1801561048b57610460575051f35b6104809060203d8111610484575b6104788183610bb9565b810190610e47565b5051f35b503d61046e565b505051903d90823e3d90fd5b50503461031a576103616104c161023c6104b036610cac565b93906104bb8361136f565b82612081565b9086526003602052600285872001610dcb565b503461029b578160031936011261029b579181926104f0610b57565b9035825260056020528282209060018060a01b03168252602052206002600182015491015482519182526020820152f35b5091903461031a5761053236610c74565b85549093919291906001600160a01b031633036105555761036194959650610e87565b8451636f2b51a560e11b81528790fd5b50503461031a57602036600319011261031a576001600160a01b03610588610b72565b1660018060a01b0319600154161760015551f35b50903461029b57602036600319011261029b57806080938335815260036020522060038101549260018060a01b039082015416916006600583015492015492815194855260208501528301526060820152f35b503461029b578160031936011261029b578035906001600160401b0390602480358381116106d657366023820112156106d657808301359384116106d657600592368386861b840101116106d257858852600360205260028789200190815486036106c45750875b85811061068d5788887f61378e0f43f3c62e317cdbe9d6bf50295ceba5fb596196f5c109302ee750b4a760208a8351908152a151f35b806106be61069d60019385610dcb565b87848a1b880101359082549060031b600019811b9283911b16911916179055565b01610657565b87516312fee3c960e31b8152fd5b8780fd5b8680fd5b503461029b578160031936011261029b578035926106f6610b57565b848252602094600386528483209185519260e08401926001600160401b03938581108582111761080357885261072b82610d27565b855261073960018301610cd6565b8986015261074960028301610cd6565b888601526003820154606086015260c0600660018060a01b0393848a820154166080890152600581015460a089015201549501948552855260058852868520911684528652848320928551946060860192868410908411176107f05750506107e9939264e8d4a51000926107e09287526107c282610cd6565b8552866002600184015493848b890152015495019485525190610dad565b04905190610dc0565b9051908152f35b634e487b7160e01b825260419052602490fd5b634e487b7160e01b875260418852602487fd5b503461029b57602036600319011261029b578160209360ff923581526006855220541690519015158152f35b50503461031a578160031936011261031a5760015490516001600160a01b039091168152602090f35b50503461031a578160031936011261031a576020906002549051908152f35b5091903461031a5761089b36610c74565b85549093919291906001600160a01b0316330361055557610361949596506111c7565b503461029b57602036600319011261029b57610361903561136f565b5091903461031a576020928360031936011261029b5735825260038352808220929161090584610d27565b60019361091f6002610918878901610cd6565b9701610cd6565b928451956060870160608852845180915283608089019501925b81811061096657508785038489015287806102f689896109598a8f610c40565b9184830390850152610c40565b83516001600160a01b0316865294840194928401928201610939565b503461029b57608036600319011261029b57803590602435906001600160401b03906044358281116106d6576109bb9036908301610bda565b916064359081116106d6576109d39036908301610bda565b918051835103610a3357805194875b8681106109ee57888851f35b600190828a526020858152898b20610a068387610e27565b518c528152898b2090610a198389610e27565b518c5252888a20610a2b888254610e3b565b9055016109e2565b508451634bbeeee160e01b8152fd5b50503461031a57602036600319011261031a576001600160a01b03610a65610b72565b83546001600160a01b031916911617825551f35b503461029b578160031936011261029b57610ae3813591610a98610b57565b90610aa28461136f565b8386526003602052848620916005602052858720338852602052858720946001860192835494610aef6002600683019764e8d4a51000998a918a5490610dad565b04990198895490610dc0565b918215610b49570154610b439594936000805160206120ef8339815191529390929091610b3791610b2a9185906001600160a01b0316611e10565b8a51938493339085610e5f565b0390a154905490610dad565b04905551f35b8951638ec63eab60e01b8152fd5b602435906001600160a01b0382168203610b6d57565b600080fd5b600435906001600160a01b0382168203610b6d57565b604081019081106001600160401b03821117610ba357604052565b634e487b7160e01b600052604160045260246000fd5b90601f801991011681019081106001600160401b03821117610ba357604052565b9080601f83011215610b6d578135906001600160401b038211610ba3578160051b60405193602093610c0e85840187610bb9565b85528380860192820101928311610b6d578301905b828210610c31575050505090565b81358152908301908301610c23565b90815180825260208080930193019160005b828110610c60575050505090565b835185529381019392810192600101610c52565b6080906003190112610b6d57600435906001600160a01b036024358181168103610b6d5791604435916064359081168103610b6d5790565b6060906003190112610b6d57600435906024356001600160a01b0381168103610b6d579060443590565b9060405191828154918282526020928383019160005283600020936000905b828210610d0d57505050610d0b92500383610bb9565b565b855484526001958601958895509381019390910190610cf5565b9060405191828154918282526020928383019160005283600020936000905b828210610d5c57505050610d0b92500383610bb9565b85546001600160a01b031684526001958601958895509381019390910190610d46565b62015180908060001904821181151516610d97570290565b634e487b7160e01b600052601160045260246000fd5b8060001904821181151516610d97570290565b818110610d97570390565b8054821015610de35760005260206000200190600090565b634e487b7160e01b600052603260045260246000fd5b8054600160401b811015610ba357610e1691600182018155610dcb565b8154906000199060031b1b19169055565b8051821015610de35760209160051b010190565b81198111610d97570190565b90816020910312610b6d57518015158103610b6d5790565b9081526001600160a01b03918216602082015291166040820152606081019190915260800190565b9190811561111757600254831161110557610ea18361136f565b610eea6000918483526003602052604083209460056020526040842060018060a01b0390818916865260205260408520978860018101549289846110a2575b5050505050612081565b84549091600119831161108e575092610fed64e8d4a5100093610f69610fde856002986001610ffd980180911061105c575b600187015410611026575b610f4c604051610f3681610b88565b60048152633131313160e01b6020820152611180565b610f82610f59828c610dcb565b610f698783548360031b1c610e3b565b9082549060031b600019811b9283911b16911916179055565b610fab610fa1610f94838c8a01610dcb565b90549060031b1c86610dad565b60018c0154610e3b565b60018b0155610fd5604051610fbf81610b88565b60048152631919191960e11b6020820152611180565b60018601610dcb565b91909283548360031b1c610e3b565b6006600186015491015490610dad565b04910155610d0b60405161101081610b88565b60048152633333333360e01b6020820152611180565b61104b60405161103581610b88565b60048152630303030360e41b6020820152611180565b61105760018701610df9565b610f27565b61108060405161106b81610b88565b600381526203030360ec1b6020820152611180565b6110898b610df9565b610f1c565b634e487b7160e01b81526011600452602490fd5b6110da6110e693600264e8d4a510006110d06000805160206120ef8339815191529960068a97015490610dad565b0491015490610dc0565b9160048c015416611e10565b906110f8604051928284938785610e5f565b0390a13880888189610ee0565b604051631eccb30960e31b8152600490fd5b604051633a8410f160e01b8152600490fd5b919091602080825283519081818401526000945b82861061116a57505080604093941161115d575b601f01601f1916010190565b6000838284010152611151565b858101820151848701604001529481019461113d565b600080916040516111b4816111a6602082019463104c13eb60e21b865260248301611129565b03601f198101835282610bb9565b51906a636f6e736f6c652e6c6f675afa50565b91908115611117576002548311611105576111e18361136f565b826000526003602052604092611255846000209460056020528060002060018060a01b038816600052602052602085826000209860018a01548a8a82611311575b5050845163a9059cbb60e01b81526001600160a01b03909216600483015250602481019190915292839081906044820190565b038160006001600160a01b0389165af190811561130757506112c964e8d4a51000956112bc6112976112e29760029a976006976112d3976112e8575b50612081565b6112b46112a4828d610dcb565b610f698683548360031b1c610dc0565b898701610dcb565b90549060031b1c90610dad565b6001880154610dc0565b91826001880155015490610dad565b04910155565b6113009060203d602011610484576104788183610bb9565b5038611291565b513d6000823e3d90fd5b61134161136492600264e8d4a510006110d06000805160206120ef83398151915297600661135697015490610dad565b60048d015485906001600160a01b0316611e10565b865191829185808c85610e5f565b0390a1388a8a611222565b80600052600360205260406000209060058201544211156117d1576003820154156117c85760006005604060002001546113c46113ab82611a28565b9093919084906113ba42611a28565b5095909686610dc0565b8061148357505050509161140e916113e0611414959442610dc0565b9186600052600460205260406000209060005260205260406000209060005260205260406000205490610dad565b90610e3b565b905b600383015491821561146d578361145760409460067f7fa9647ec1cc14e3822b46d05a2b9d4e019bde8875c0088c46b6503d71bf1722970193048354610e3b565b80925560054291015582519182526020820152a1565b634e487b7160e01b600052601260045260246000fd5b9297955092959350976000935b6001198311610d9757600183018510156117ba5784611600576107b28810610b6d57617d4b600160ff1b018412600116610d975761156e6115696115648a600461155d8f6115576064918c61150561155161154b61151d6114f08b61184a565b948a61151161150c600c98896115058c6117d5565b05906118a8565b6118d3565b0590617d4a19016118a8565b8461150561154661152d896117ed565b6115408461153a8c6117d5565b05611923565b90611821565b611988565b98611879565b926117d5565b056119d8565b0590611821565b611805565b610d7f565b62014370198111610d9757610dd41962014370820111610d9757603b1962015144820111610d975760019161140e6115ae8a6201517f6115dc9501610dc0565b89600052600460205260406000208c6000526020528d60406000209060005260205260406000205490610dad565b995b0193600c85116115f3575b6001019398611490565b60019788019794506115e9565b848303611691576107b28810610b6d57600461162761150c8c600c6115056115518e61184a565b05617d4a600160ff1b018112600116610d975760019161140e6115ae6116856115698f8e600461155d606461155785600c61150561155161168b9f61154b908461167961154661152d6115649f6117ed565b0590617d4919016118a8565b42610dc0565b996115de565b60018a1480156117b0575b80156117a6575b801561179c575b8015611792575b8015611788575b801561177e575b1561172c57601f5b7dc22e450672894ab6cd8efb11d33f5617839a5bc7dea00c22e450672894ab8111600116610d975760019161140e61168b9289600052600460205260406000208c6000526020528d604060002090600052602052604060002054906201518002610dad565b60028a1461173b57601e6116c7565b600388161580611772575b8015611766575b1561175d5760ff601d5b166116c7565b60ff601c611757565b5061019088061561174d565b50606488061515611746565b50600c8a146116bf565b50600a8a146116b8565b5060088a146116b1565b5060078a146116aa565b5060058a146116a3565b5060038a1461169c565b965097505050509050611416565b50600542910155565b5050565b600e600160ff1b018112600116610d9757600d190190565b6002600160ff1b018112600116610d97576001190190565b62253d8c600160ff1b018112600116610d975762253d8b190190565b600082128015600160ff1b8401831216610d97576001600160ff1b038301821316610d97570390565b6112c0906000811280156001600160ff1b03839003841316610d9757600160ff1b829003831216610d97570190565b611324906000811280156001600160ff1b03839003841316610d9757600160ff1b829003831216610d97570190565b6000811280156001600160ff1b03839003841316610d9757600160ff1b829003831216610d97570190565b6105b560008083136001600160ff1b0384900483111660011661108e5760017fffe9924f8d0dd7b2e6f174df9576f9de01c091c8faeb2605f522de8852b47aa88412828512161661108e57500290565b600060017f0aaaaaaaaaaaaaaaaaaaaaaaaaaaaaaaaaaaaaaaaaaaaaaaaaaaaaaaaaaaaaaa8311828413161661108e5760017ff5555555555555555555555555555555555555555555555555555555555555568312828412161661108e5750600c0290565b61016f60008083136001600160ff1b0384900483111660011661108e5760017fffa6b6c1eb12d573186a06f9b8d9a287530217b7747d8eff4d6d83d625aae6318412828512161661108e57500290565b60008082136001600160ff1b038390046003111660011661108e5760017fd5555555555555555555555555555555555555555555555555555555555555568312828412161661108e575060030290565b6001600160ff1b039060009062010bd990620151809004828112818503811581851316611dfc57600160ff1b938385039283821216611de85785908401129162010bd819908162253d8c93018313841516611dd457011316611dc0576226496501916001936004918585830484118287131616611dad57808512600760fd1b8612168616611dad5762023ab194858160021b05958787850482118489131616611d8757877fffffc694f94337079d130ab45dff8e0f9ea161331bb1c93dea871de6fec83ce288128489121616611d87578602828112818503600313811516611d9a5781870360031216611d875790846003611b2593010590611821565b928184128484038813811516611d3b57848603881216611d2857868401610fa08882860482118584131616611d4e57887ffff7ced916872b020c49ba5e353f7ced916872b020c49ba5e353f7ced916872c83128584121616611d4e57611b979162164b09910205948261155d876118d3565b828112818503601f13811516611d4e57818703601f1216611d3b57601f019680888504605011848a131616611d3b57807ffe666666666666666666666666666666666666666666666666666666666666678912848a121616611d3b5761098f9788816050020590828287048b118684131616611d745784821299837ffff29be1739a4fb805dbcd5d6c7d1f7d6fd627208942391f124ee1c3f307026884128c1616611d615790605083611c4c93020590611821565b98600b820597828703600213821516611d615782900360021216611d4e5781878604600c118589131616611d4e57817ff55555555555555555555555555555555555555555555555555555555555555688128589121616611d4e57611cb890600288600c029101611821565b966031600160ff1b0181128216611d4e578190603019018095046064118486131616611d3b577ffeb851eb851eb851eb851eb851eb851eb851eb851eb851eb851eb851eb851eb984128385121616611d28575050611d229291611d1d916064026118a8565b6118a8565b91909192565b634e487b7160e01b825260119052602490fd5b634e487b7160e01b835260118252602483fd5b634e487b7160e01b845260118352602484fd5b634e487b7160e01b865260118552602486fd5b634e487b7160e01b855260118452602485fd5b634e487b7160e01b835260118552602483fd5b634e487b7160e01b845260118652602484fd5b634e487b7160e01b815260118352602490fd5b634e487b7160e01b83526011600452602483fd5b634e487b7160e01b87526011600452602487fd5b634e487b7160e01b86526011600452602486fd5b634e487b7160e01b85526011600452602485fd5b604080516370a0823160e01b81523060048201526001600160a01b03909216949360209391929084826024818a5afa918215611fe157600092611faf575b5081811115611fa75750945b825163a9059cbb60e01b8582019081526001600160a01b039390931660248201526044808201889052815290601f1990611e95606484610bb9565b8451928584016001600160401b039585821087831117610ba357600092839289528987527f5361666545524332303a206c6f772d6c6576656c2063616c6c206661696c65648a880152519082855af1903d15611f99573d948511610ba357611f1894611f0a88885195601f8401160185610bb9565b83523d60008885013e611fec565b80519081611f27575b50505050565b8380611f37938301019101610e47565b15611f43578080611f21565b60849250519062461bcd60e51b82526004820152602a60248201527f5361666545524332303a204552433230206f7065726174696f6e20646964206e6044820152691bdd081cdd58d8d9595960b21b6064820152fd5b611f18945060609250611fec565b905094611e5a565b90918582813d8311611fda575b611fc68183610bb9565b81010312611fd75750519038611e4e565b80fd5b503d611fbc565b84513d6000823e3d90fd5b9192901561204e5750815115612000575090565b3b156120095790565b60405162461bcd60e51b815260206004820152601d60248201527f416464726573733a2063616c6c20746f206e6f6e2d636f6e74726163740000006044820152606490fd5b8251909150156120615750805190602001fd5b60405162461bcd60e51b815290819061207d9060048301611129565b0390fd5b9190600092600052600360205261209b6040600020610d27565b908151906000925b8284106120b05750505050565b939492936001600160a01b03806120c78784610e27565b5116908316146000146120e257505050509038808080611f21565b929493600101926120a356fe1ec92956b13869de207e232e60c65e35826c5e12b7fdc6d70b083b5a4fd26703a2646970667358221220476244ef445975b08b790358bea42bc8d80e55c31985815bc33b06391ec319aa64736f6c634300080f0033",
  "devdoc": {
    "kind": "dev",
    "methods": {
      "addPool(address)": {
        "params": {
          "_rewardToken": "Reward token address (protocol native token)"
        }
      },
      "addToken(uint256,address,uint256)": {
        "params": {
          "_id": "Pool Id",
          "_token": "Priority pool lp token address",
          "_weight": "Weight of the token in the pool"
        }
      },
      "pendingReward(uint256,address)": {
        "params": {
          "_id": "Pool id",
          "_user": "User's address to claim the reward"
        }
      },
      "setWeight(uint256,uint256[])": {
        "params": {
          "_id": "Pool Id",
          "_weights": "Array of weights of the tokens in the pool"
        }
      },
      "updateWeight(uint256,address,uint256)": {
        "params": {
          "_id": "Pool Id",
          "_newWeight": "New weight of the token in the pool",
          "_token": "Token address"
        }
      }
    },
    "version": 1
  },
  "userdoc": {
    "kind": "user",
    "methods": {
      "addPool(address)": {
        "notice": "Register a new famring pool for priority pool"
      },
      "addToken(uint256,address,uint256)": {
        "notice": "Register Pri-LP token"
      },
      "deposit(uint256,address,uint256,address)": {
        "notice": "Directly deposit (need approval)"
      },
      "depositFromPolicyCenter(uint256,address,uint256,address)": {
        "notice": "Deposit from Policy Center         No need for approval"
      },
      "pendingReward(uint256,address)": {
        "notice": "Return the user's pending reward"
      },
      "setWeight(uint256,uint256[])": {
        "notice": "Sets the weight for a given array of tokens in a given pool"
      },
      "updateWeight(uint256,address,uint256)": {
        "notice": "Updates the weight of a token in a given pool"
      }
    },
    "notice": "Weighted Farming Pool         Weighted farming pool support multiple tokens to earn the same reward         Different tokens will have different weights when calculating rewards         Native token premiums will be transferred to this pool         The distribution is in the way of \"farming\" but with multiple tokens         Different generations of PRI-LP-1-JOE-G1",
    "version": 1
  },
  "storageLayout": {
    "storage": [
      {
        "astId": 20181,
        "contract": "src/reward/WeightedFarmingPool.sol:WeightedFarmingPool",
        "label": "policyCenter",
        "offset": 0,
        "slot": "0",
        "type": "t_address"
      },
      {
        "astId": 20183,
        "contract": "src/reward/WeightedFarmingPool.sol:WeightedFarmingPool",
        "label": "priorityPoolFactory",
        "offset": 0,
        "slot": "1",
        "type": "t_address"
      },
      {
        "astId": 20185,
        "contract": "src/reward/WeightedFarmingPool.sol:WeightedFarmingPool",
        "label": "counter",
        "offset": 0,
        "slot": "2",
        "type": "t_uint256"
      },
      {
        "astId": 20208,
        "contract": "src/reward/WeightedFarmingPool.sol:WeightedFarmingPool",
        "label": "pools",
        "offset": 0,
        "slot": "3",
        "type": "t_mapping(t_uint256,t_struct(PoolInfo)20203_storage)"
      },
      {
        "astId": 20216,
        "contract": "src/reward/WeightedFarmingPool.sol:WeightedFarmingPool",
        "label": "speed",
        "offset": 0,
        "slot": "4",
        "type": "t_mapping(t_uint256,t_mapping(t_uint256,t_mapping(t_uint256,t_uint256)))"
      },
      {
        "astId": 20231,
        "contract": "src/reward/WeightedFarmingPool.sol:WeightedFarmingPool",
        "label": "users",
        "offset": 0,
        "slot": "5",
        "type": "t_mapping(t_uint256,t_mapping(t_address,t_struct(UserInfo)20224_storage))"
      },
      {
        "astId": 20235,
        "contract": "src/reward/WeightedFarmingPool.sol:WeightedFarmingPool",
        "label": "supported",
        "offset": 0,
        "slot": "6",
        "type": "t_mapping(t_bytes32,t_bool)"
      }
    ],
    "types": {
      "t_address": {
        "encoding": "inplace",
        "label": "address",
        "numberOfBytes": "20"
      },
      "t_array(t_address)dyn_storage": {
        "base": "t_address",
        "encoding": "dynamic_array",
        "label": "address[]",
        "numberOfBytes": "32"
      },
      "t_array(t_uint256)dyn_storage": {
        "base": "t_uint256",
        "encoding": "dynamic_array",
        "label": "uint256[]",
        "numberOfBytes": "32"
      },
      "t_bool": {
        "encoding": "inplace",
        "label": "bool",
        "numberOfBytes": "1"
      },
      "t_bytes32": {
        "encoding": "inplace",
        "label": "bytes32",
        "numberOfBytes": "32"
      },
      "t_mapping(t_address,t_struct(UserInfo)20224_storage)": {
        "encoding": "mapping",
        "key": "t_address",
        "label": "mapping(address => struct WeightedFarmingPool.UserInfo)",
        "numberOfBytes": "32",
        "value": "t_struct(UserInfo)20224_storage"
      },
      "t_mapping(t_bytes32,t_bool)": {
        "encoding": "mapping",
        "key": "t_bytes32",
        "label": "mapping(bytes32 => bool)",
        "numberOfBytes": "32",
        "value": "t_bool"
      },
      "t_mapping(t_uint256,t_mapping(t_address,t_struct(UserInfo)20224_storage))": {
        "encoding": "mapping",
        "key": "t_uint256",
        "label": "mapping(uint256 => mapping(address => struct WeightedFarmingPool.UserInfo))",
        "numberOfBytes": "32",
        "value": "t_mapping(t_address,t_struct(UserInfo)20224_storage)"
      },
      "t_mapping(t_uint256,t_mapping(t_uint256,t_mapping(t_uint256,t_uint256)))": {
        "encoding": "mapping",
        "key": "t_uint256",
        "label": "mapping(uint256 => mapping(uint256 => mapping(uint256 => uint256)))",
        "numberOfBytes": "32",
        "value": "t_mapping(t_uint256,t_mapping(t_uint256,t_uint256))"
      },
      "t_mapping(t_uint256,t_mapping(t_uint256,t_uint256))": {
        "encoding": "mapping",
        "key": "t_uint256",
        "label": "mapping(uint256 => mapping(uint256 => uint256))",
        "numberOfBytes": "32",
        "value": "t_mapping(t_uint256,t_uint256)"
      },
      "t_mapping(t_uint256,t_struct(PoolInfo)20203_storage)": {
        "encoding": "mapping",
        "key": "t_uint256",
        "label": "mapping(uint256 => struct WeightedFarmingPool.PoolInfo)",
        "numberOfBytes": "32",
        "value": "t_struct(PoolInfo)20203_storage"
      },
      "t_mapping(t_uint256,t_uint256)": {
        "encoding": "mapping",
        "key": "t_uint256",
        "label": "mapping(uint256 => uint256)",
        "numberOfBytes": "32",
        "value": "t_uint256"
      },
      "t_struct(PoolInfo)20203_storage": {
        "encoding": "inplace",
        "label": "struct WeightedFarmingPool.PoolInfo",
        "members": [
          {
            "astId": 20188,
            "contract": "src/reward/WeightedFarmingPool.sol:WeightedFarmingPool",
            "label": "tokens",
            "offset": 0,
            "slot": "0",
            "type": "t_array(t_address)dyn_storage"
          },
          {
            "astId": 20191,
            "contract": "src/reward/WeightedFarmingPool.sol:WeightedFarmingPool",
            "label": "amount",
            "offset": 0,
            "slot": "1",
            "type": "t_array(t_uint256)dyn_storage"
          },
          {
            "astId": 20194,
            "contract": "src/reward/WeightedFarmingPool.sol:WeightedFarmingPool",
            "label": "weight",
            "offset": 0,
            "slot": "2",
            "type": "t_array(t_uint256)dyn_storage"
          },
          {
            "astId": 20196,
            "contract": "src/reward/WeightedFarmingPool.sol:WeightedFarmingPool",
            "label": "shares",
            "offset": 0,
            "slot": "3",
            "type": "t_uint256"
          },
          {
            "astId": 20198,
            "contract": "src/reward/WeightedFarmingPool.sol:WeightedFarmingPool",
            "label": "rewardToken",
            "offset": 0,
            "slot": "4",
            "type": "t_address"
          },
          {
            "astId": 20200,
            "contract": "src/reward/WeightedFarmingPool.sol:WeightedFarmingPool",
            "label": "lastRewardTimestamp",
            "offset": 0,
            "slot": "5",
            "type": "t_uint256"
          },
          {
            "astId": 20202,
            "contract": "src/reward/WeightedFarmingPool.sol:WeightedFarmingPool",
            "label": "accRewardPerShare",
            "offset": 0,
            "slot": "6",
            "type": "t_uint256"
          }
        ],
        "numberOfBytes": "224"
      },
      "t_struct(UserInfo)20224_storage": {
        "encoding": "inplace",
        "label": "struct WeightedFarmingPool.UserInfo",
        "members": [
          {
            "astId": 20219,
            "contract": "src/reward/WeightedFarmingPool.sol:WeightedFarmingPool",
            "label": "amount",
            "offset": 0,
            "slot": "0",
            "type": "t_array(t_uint256)dyn_storage"
          },
          {
            "astId": 20221,
            "contract": "src/reward/WeightedFarmingPool.sol:WeightedFarmingPool",
            "label": "share",
            "offset": 0,
            "slot": "1",
            "type": "t_uint256"
          },
          {
            "astId": 20223,
            "contract": "src/reward/WeightedFarmingPool.sol:WeightedFarmingPool",
            "label": "rewardDebt",
            "offset": 0,
            "slot": "2",
            "type": "t_uint256"
          }
        ],
        "numberOfBytes": "96"
      },
      "t_uint256": {
        "encoding": "inplace",
        "label": "uint256",
        "numberOfBytes": "32"
      }
    }
  }
}